{
  "abi": [
    {
      "inputs": [
        {
          "internalType": "address",
          "name": "usdc_",
          "type": "address"
        },
        {
          "internalType": "contract INonfungiblePositionManager",
          "name": "positionManager_",
          "type": "address"
        },
        {
          "internalType": "contract IVaultRegistry",
          "name": "vaultRegistry_",
          "type": "address"
        },
        {
          "internalType": "contract UniV3Helper",
          "name": "uniV3Helper_",
          "type": "address"
        },
        {
          "internalType": "contract MellowOracle",
          "name": "mellowOracle_",
          "type": "address"
        },
        {
          "internalType": "address",
          "name": "admin",
          "type": "address"
        }
      ],
      "stateMutability": "nonpayable",
      "type": "constructor"
    },
    {
      "anonymous": false,
      "inputs": [
        {
          "indexed": true,
          "internalType": "bytes32",
          "name": "role",
          "type": "bytes32"
        },
        {
          "indexed": true,
          "internalType": "bytes32",
          "name": "previousAdminRole",
          "type": "bytes32"
        },
        {
          "indexed": true,
          "internalType": "bytes32",
          "name": "newAdminRole",
          "type": "bytes32"
        }
      ],
      "name": "RoleAdminChanged",
      "type": "event"
    },
    {
      "anonymous": false,
      "inputs": [
        {
          "indexed": true,
          "internalType": "bytes32",
          "name": "role",
          "type": "bytes32"
        },
        {
          "indexed": true,
          "internalType": "address",
          "name": "account",
          "type": "address"
        },
        {
          "indexed": true,
          "internalType": "address",
          "name": "sender",
          "type": "address"
        }
      ],
      "name": "RoleGranted",
      "type": "event"
    },
    {
      "anonymous": false,
      "inputs": [
        {
          "indexed": true,
          "internalType": "bytes32",
          "name": "role",
          "type": "bytes32"
        },
        {
          "indexed": true,
          "internalType": "address",
          "name": "account",
          "type": "address"
        },
        {
          "indexed": true,
          "internalType": "address",
          "name": "sender",
          "type": "address"
        }
      ],
      "name": "RoleRevoked",
      "type": "event"
    },
    {
      "inputs": [],
      "name": "ADMIN_DELEGATE_ROLE",
      "outputs": [
        {
          "internalType": "bytes32",
          "name": "",
          "type": "bytes32"
        }
      ],
      "stateMutability": "view",
      "type": "function"
    },
    {
      "inputs": [],
      "name": "ADMIN_ROLE",
      "outputs": [
        {
          "internalType": "bytes32",
          "name": "",
          "type": "bytes32"
        }
      ],
      "stateMutability": "view",
      "type": "function"
    },
    {
      "inputs": [],
      "name": "DEFAULT_ADMIN_ROLE",
      "outputs": [
        {
          "internalType": "bytes32",
          "name": "",
          "type": "bytes32"
        }
      ],
      "stateMutability": "view",
      "type": "function"
    },
    {
      "inputs": [],
      "name": "OPERATOR",
      "outputs": [
        {
          "internalType": "bytes32",
          "name": "",
          "type": "bytes32"
        }
      ],
      "stateMutability": "view",
      "type": "function"
    },
    {
      "inputs": [],
      "name": "Q96",
      "outputs": [
        {
          "internalType": "uint256",
          "name": "",
          "type": "uint256"
        }
      ],
      "stateMutability": "view",
      "type": "function"
    },
    {
      "inputs": [
        {
          "components": [
            {
              "internalType": "uint256[]",
              "name": "erc20VaultNfts",
              "type": "uint256[]"
            },
            {
              "internalType": "uint256[]",
              "name": "moneyVaultNfts",
              "type": "uint256[]"
            },
            {
              "internalType": "uint256[]",
              "name": "uniV3VaultNfts",
              "type": "uint256[]"
            },
            {
              "internalType": "uint24",
              "name": "fee",
              "type": "uint24"
            },
            {
              "internalType": "uint256",
              "name": "rootVaultNft",
              "type": "uint256"
            },
            {
              "internalType": "address",
              "name": "user",
              "type": "address"
            },
            {
              "internalType": "uint256",
              "name": "domainPositionNft",
              "type": "uint256"
            },
            {
              "internalType": "bool",
              "name": "isGearboxStrategy",
              "type": "bool"
            }
          ],
          "internalType": "struct DataCollector.VaultRequest[]",
          "name": "requests",
          "type": "tuple[]"
        }
      ],
      "name": "collect",
      "outputs": [
        {
          "components": [
            {
              "internalType": "uint256[]",
              "name": "pricesToUsdcX96",
              "type": "uint256[]"
            },
            {
              "internalType": "uint256",
              "name": "tokenLpLimitPerUser",
              "type": "uint256"
            },
            {
              "internalType": "uint256",
              "name": "tokenLpLimit",
              "type": "uint256"
            },
            {
              "internalType": "uint256",
              "name": "userLpBalance",
              "type": "uint256"
            },
            {
              "internalType": "uint256",
              "name": "totalSupply",
              "type": "uint256"
            },
            {
              "internalType": "uint256[][]",
              "name": "erc20VaultTvls",
              "type": "uint256[][]"
            },
            {
              "internalType": "uint256[][]",
              "name": "moneyVaultTvls",
              "type": "uint256[][]"
            },
            {
              "internalType": "uint256[][]",
              "name": "uniV3VaultTvls",
              "type": "uint256[][]"
            },
            {
              "internalType": "uint256[][]",
              "name": "uniV3VaultSpotTvls",
              "type": "uint256[][]"
            },
            {
              "internalType": "uint256[]",
              "name": "rootVaultTvl",
              "type": "uint256[]"
            },
            {
              "internalType": "uint256[]",
              "name": "rootVaultSpotTvl",
              "type": "uint256[]"
            },
            {
              "internalType": "uint256[]",
              "name": "domainPositionSpotTvl",
              "type": "uint256[]"
            }
          ],
          "internalType": "struct DataCollector.VaultResponse[]",
          "name": "responses",
          "type": "tuple[]"
        }
      ],
      "stateMutability": "view",
      "type": "function"
    },
    {
      "inputs": [],
      "name": "factory",
      "outputs": [
        {
          "internalType": "contract IUniswapV3Factory",
          "name": "",
          "type": "address"
        }
      ],
      "stateMutability": "view",
      "type": "function"
    },
    {
      "inputs": [
        {
          "internalType": "bytes32",
          "name": "role",
          "type": "bytes32"
        }
      ],
      "name": "getRoleAdmin",
      "outputs": [
        {
          "internalType": "bytes32",
          "name": "",
          "type": "bytes32"
        }
      ],
      "stateMutability": "view",
      "type": "function"
    },
    {
      "inputs": [
        {
          "internalType": "bytes32",
          "name": "role",
          "type": "bytes32"
        },
        {
          "internalType": "uint256",
          "name": "index",
          "type": "uint256"
        }
      ],
      "name": "getRoleMember",
      "outputs": [
        {
          "internalType": "address",
          "name": "",
          "type": "address"
        }
      ],
      "stateMutability": "view",
      "type": "function"
    },
    {
      "inputs": [
        {
          "internalType": "bytes32",
          "name": "role",
          "type": "bytes32"
        }
      ],
      "name": "getRoleMemberCount",
      "outputs": [
        {
          "internalType": "uint256",
          "name": "",
          "type": "uint256"
        }
      ],
      "stateMutability": "view",
      "type": "function"
    },
    {
      "inputs": [
        {
          "internalType": "bytes32",
          "name": "role",
          "type": "bytes32"
        },
        {
          "internalType": "address",
          "name": "account",
          "type": "address"
        }
      ],
      "name": "grantRole",
      "outputs": [],
      "stateMutability": "nonpayable",
      "type": "function"
    },
    {
      "inputs": [
        {
          "internalType": "bytes32",
          "name": "role",
          "type": "bytes32"
        },
        {
          "internalType": "address",
          "name": "account",
          "type": "address"
        }
      ],
      "name": "hasRole",
      "outputs": [
        {
          "internalType": "bool",
          "name": "",
          "type": "bool"
        }
      ],
      "stateMutability": "view",
      "type": "function"
    },
    {
      "inputs": [
        {
          "internalType": "address",
          "name": "sender",
          "type": "address"
        }
      ],
      "name": "isAdmin",
      "outputs": [
        {
          "internalType": "bool",
          "name": "",
          "type": "bool"
        }
      ],
      "stateMutability": "view",
      "type": "function"
    },
    {
      "inputs": [
        {
          "internalType": "address",
          "name": "sender",
          "type": "address"
        }
      ],
      "name": "isOperator",
      "outputs": [
        {
          "internalType": "bool",
          "name": "",
          "type": "bool"
        }
      ],
      "stateMutability": "view",
      "type": "function"
    },
    {
      "inputs": [],
      "name": "mellowOracle",
      "outputs": [
        {
          "internalType": "contract MellowOracle",
          "name": "",
          "type": "address"
        }
      ],
      "stateMutability": "view",
      "type": "function"
    },
    {
      "inputs": [],
      "name": "positionManager",
      "outputs": [
        {
          "internalType": "contract INonfungiblePositionManager",
          "name": "",
          "type": "address"
        }
      ],
      "stateMutability": "view",
      "type": "function"
    },
    {
      "inputs": [
        {
          "internalType": "bytes32",
          "name": "role",
          "type": "bytes32"
        },
        {
          "internalType": "address",
          "name": "account",
          "type": "address"
        }
      ],
      "name": "renounceRole",
      "outputs": [],
      "stateMutability": "nonpayable",
      "type": "function"
    },
    {
      "inputs": [
        {
          "internalType": "bytes32",
          "name": "role",
          "type": "bytes32"
        },
        {
          "internalType": "address",
          "name": "account",
          "type": "address"
        }
      ],
      "name": "revokeRole",
      "outputs": [],
      "stateMutability": "nonpayable",
      "type": "function"
    },
    {
      "inputs": [
        {
          "internalType": "address",
          "name": "token",
          "type": "address"
        },
        {
          "internalType": "uint256",
          "name": "mask",
          "type": "uint256"
        }
      ],
      "name": "setupOracleMask",
      "outputs": [],
      "stateMutability": "nonpayable",
      "type": "function"
    },
    {
      "inputs": [
        {
          "internalType": "bytes4",
          "name": "interfaceId",
          "type": "bytes4"
        }
      ],
      "name": "supportsInterface",
      "outputs": [
        {
          "internalType": "bool",
          "name": "",
          "type": "bool"
        }
      ],
      "stateMutability": "view",
      "type": "function"
    },
    {
      "inputs": [],
      "name": "uniV3Helper",
      "outputs": [
        {
          "internalType": "contract UniV3Helper",
          "name": "",
          "type": "address"
        }
      ],
      "stateMutability": "view",
      "type": "function"
    },
    {
      "inputs": [],
      "name": "usdc",
      "outputs": [
        {
          "internalType": "address",
          "name": "",
          "type": "address"
        }
      ],
      "stateMutability": "view",
      "type": "function"
    },
    {
      "inputs": [],
      "name": "vaultRegistry",
      "outputs": [
        {
          "internalType": "contract IVaultRegistry",
          "name": "",
          "type": "address"
        }
      ],
      "stateMutability": "view",
      "type": "function"
    }
  ],
  "bytecode": {
    "object": "0x6101406040523480156200001257600080fd5b506040516200378f3803806200378f833981016040819052620000359162000421565b60408051808201909152600281526120ad60f11b602082015281906001600160a01b038216620000835760405162461bcd60e51b81526004016200007a9190620004b5565b60405180910390fd5b506200009f6000805160206200376f8339815191528262000258565b620000ba6000805160206200374f8339815191528262000258565b620000d56000805160206200374f8339815191528062000268565b620001107fc171260023d22a25a00a2789664c9334017843b831138c8ef03cc8897e5873d76000805160206200374f83398151915262000268565b6200014b6000805160206200376f8339815191527fc171260023d22a25a00a2789664c9334017843b831138c8ef03cc8897e5873d762000268565b506001600160a01b038616158015906200016d57506001600160a01b03851615155b80156200018257506001600160a01b03841615155b80156200019757506001600160a01b03831615155b620001a157600080fd5b6001600160a01b0380871660e052858116608081905285821660a052908416610100526040805163c45a015560e01b8152905163c45a015591600480820192602092909190829003018186803b158015620001fb57600080fd5b505afa15801562000210573d6000803e3d6000fd5b505050506040513d601f19601f820116820180604052508101906200023691906200050d565b6001600160a01b0390811660c052919091166101205250620005349350505050565b620002648282620002b3565b5050565b600082815260208190526040808220600101805490849055905190918391839186917fbd79b86ffe0ab8e8776151514217cd7cacd52c909f66475c3af44e129f0b00ff9190a4505050565b620002ca8282620002f660201b62001f571760201c565b6000828152600160209081526040909120620002f191839062001fdb62000396821b17901c565b505050565b6000828152602081815260408083206001600160a01b038516845290915290205460ff1662000264576000828152602081815260408083206001600160a01b03851684529091529020805460ff19166001179055620003523390565b6001600160a01b0316816001600160a01b0316837f2f8788117e7eff1d82e926ec794901d17c78024a50270940304540a733656f0d60405160405180910390a45050565b6000620003ad836001600160a01b038416620003b6565b90505b92915050565b6000818152600183016020526040812054620003ff57508154600181810184556000848152602080822090930184905584548482528286019093526040902091909155620003b0565b506000620003b0565b6001600160a01b03811681146200041e57600080fd5b50565b60008060008060008060c087890312156200043b57600080fd5b8651620004488162000408565b60208801519096506200045b8162000408565b60408801519095506200046e8162000408565b6060880151909450620004818162000408565b6080880151909350620004948162000408565b60a0880151909250620004a78162000408565b809150509295509295509295565b600060208083528351808285015260005b81811015620004e457858101830151858201604001528201620004c6565b81811115620004f7576000604083870101525b50601f01601f1916929092016040019392505050565b6000602082840312156200052057600080fd5b81516200052d8162000408565b9392505050565b60805160a05160c05160e051610100516101205161315b620005f4600039600081816103e001526116580152600081816102dd01528181610ff001528181611ab60152611c0d01526000818161023201528181611585015281816116290152818161175901526118b401526000818161036c0152818161179801526119ba0152600081816103a60152818161051c015281816106e5015281816108650152610da20152600081816102b6015281816110b10152611b5d015261315b6000f3fe608060405234801561001057600080fd5b506004361061014d5760003560e01c8063791b98bc116100c3578063a217fddf1161007c578063a217fddf1461035f578063c45a015514610367578063ca15c8731461038e578063cdd7b38a146103a1578063d547741f146103c8578063ee117355146103db57600080fd5b8063791b98bc146102b157806383c4224f146102d85780639010d07c146102ff57806391d1485414610312578063983d273714610325578063a17047c41461034c57600080fd5b80632f2ff15d116101155780632f2ff15d1461020557806336568abe1461021a5780633e413bee1461022d578063407924651461026c5780636d70f7ae1461027757806375b238fc1461028a57600080fd5b806301ffc9a7146101525780630909bb781461017a5780630952ff541461019a578063248a9ca3146101cf57806324d7806c146101f2575b600080fd5b6101656101603660046125cf565b610402565b60405190151581526020015b60405180910390f35b61018d610188366004612750565b61042d565b604051610171919061295a565b6101c17fc171260023d22a25a00a2789664c9334017843b831138c8ef03cc8897e5873d781565b604051908152602001610171565b6101c16101dd366004612ab3565b60009081526020819052604090206001015490565b610165610200366004612acc565b611d7f565b610218610213366004612ae9565b611ddb565b005b610218610228366004612ae9565b611e05565b6102547f000000000000000000000000000000000000000000000000000000000000000081565b6040516001600160a01b039091168152602001610171565b6101c1600160601b81565b610165610285366004612acc565b611e83565b6101c17ff23ec0bb4210edd5cba85afd05127efcd2fc6a781bfed49188da1081670b22d881565b6102547f000000000000000000000000000000000000000000000000000000000000000081565b6102547f000000000000000000000000000000000000000000000000000000000000000081565b61025461030d366004612b19565b611eaf565b610165610320366004612ae9565b611ece565b6101c17f46a52cf33029de9f84853745a87af28464c80bf0346df1b32e205fc73319f62281565b61021861035a366004612b3b565b611ef7565b6101c1600081565b6102547f000000000000000000000000000000000000000000000000000000000000000081565b6101c161039c366004612ab3565b611f1b565b6102547f000000000000000000000000000000000000000000000000000000000000000081565b6102186103d6366004612ae9565b611f32565b6102547f000000000000000000000000000000000000000000000000000000000000000081565b60006001600160e01b03198216635a05180f60e01b1480610427575061042782611ff0565b92915050565b8051606090806001600160401b0381111561044a5761044a6125f9565b60405190808252806020026020018201604052801561048357816020015b61047061256e565b8152602001906001900390816104685790505b50915060005b81811015611d785760008482815181106104a5576104a5612b67565b602002602001015190506104b761256e565b8151516060906001600160401b038111156104d4576104d46125f9565b60405190808252806020026020018201604052801561050757816020015b60608152602001906001900390816104f25790505b5060a083015260005b83515181101561067c577f00000000000000000000000000000000000000000000000000000000000000006001600160a01b0316639c94d8538560000151838151811061055f5761055f612b67565b60200260200101516040518263ffffffff1660e01b815260040161058591815260200190565b60206040518083038186803b15801561059d57600080fd5b505afa1580156105b1573d6000803e3d6000fd5b505050506040513d601f19601f820116820180604052508101906105d59190612b88565b6001600160a01b031663e5328e066040518163ffffffff1660e01b815260040160006040518083038186803b15801561060d57600080fd5b505afa158015610621573d6000803e3d6000fd5b505050506040513d6000823e601f3d908101601f191682016040526106499190810190612c00565b508360a00151828151811061066057610660612b67565b60200260200101819052508061067590612c79565b9050610510565b508260200151516001600160401b0381111561069a5761069a6125f9565b6040519080825280602002602001820160405280156106cd57816020015b60608152602001906001900390816106b85790505b5060c083015260005b836020015151811015610845577f00000000000000000000000000000000000000000000000000000000000000006001600160a01b0316639c94d8538560200151838151811061072857610728612b67565b60200260200101516040518263ffffffff1660e01b815260040161074e91815260200190565b60206040518083038186803b15801561076657600080fd5b505afa15801561077a573d6000803e3d6000fd5b505050506040513d601f19601f8201168201806040525081019061079e9190612b88565b6001600160a01b031663e5328e066040518163ffffffff1660e01b815260040160006040518083038186803b1580156107d657600080fd5b505afa1580156107ea573d6000803e3d6000fd5b505050506040513d6000823e601f3d908101601f191682016040526108129190810190612c00565b508360c00151828151811061082957610829612b67565b60200260200101819052508061083e90612c79565b90506106d6565b506080830151604051639c94d85360e01b81526000916001600160a01b037f00000000000000000000000000000000000000000000000000000000000000001691639c94d8539161089c9160040190815260200190565b60206040518083038186803b1580156108b457600080fd5b505afa1580156108c8573d6000803e3d6000fd5b505050506040513d601f19601f820116820180604052508101906108ec9190612b88565b90506000816001600160a01b031663fe255a5e6040518163ffffffff1660e01b815260040160206040518083038186803b15801561092957600080fd5b505afa15801561093d573d6000803e3d6000fd5b505050506040513d601f19601f820116820180604052508101906109619190612b88565b9050816001600160a01b031663e5328e066040518163ffffffff1660e01b815260040160006040518083038186803b15801561099c57600080fd5b505afa1580156109b0573d6000803e3d6000fd5b505050506040513d6000823e601f3d908101601f191682016040526109d89190810190612c00565b50846101200181905250816001600160a01b03166318160ddd6040518163ffffffff1660e01b815260040160206040518083038186803b158015610a1b57600080fd5b505afa158015610a2f573d6000803e3d6000fd5b505050506040513d601f19601f82011682018060405250810190610a539190612c94565b608085015260e085015115610bd6578360a0015151600114610aad5760405162461bcd60e51b815260206004820152600e60248201526d092dcecc2d8d2c840d8cadccee8d60931b60448201526064015b60405180910390fd5b816001600160a01b031663342d84ae6040518163ffffffff1660e01b815260040160206040518083038186803b158015610ae657600080fd5b505afa158015610afa573d6000803e3d6000fd5b505050506040513d601f19601f82011682018060405250810190610b1e9190612c94565b84608001818151610b2f9190612cad565b90525060005b8460a00151600081518110610b4c57610b4c612b67565b602002602001015151811015610bd4578460a00151600081518110610b7357610b73612b67565b60200260200101518181518110610b8c57610b8c612b67565b60200260200101518561012001518281518110610bab57610bab612b67565b60200260200101818151610bbf9190612cad565b90525080610bcc81612c79565b915050610b35565b505b61012084015161014085015260a08501516040516370a0823160e01b81526001600160a01b039182166004820152908316906370a082319060240160206040518083038186803b158015610c2957600080fd5b505afa158015610c3d573d6000803e3d6000fd5b505050506040513d601f19601f82011682018060405250810190610c619190612c94565b846060018181525050816001600160a01b031663697222336040518163ffffffff1660e01b815260040160006040518083038186803b158015610ca357600080fd5b505afa158015610cb7573d6000803e3d6000fd5b505050506040513d6000823e601f3d908101601f19168201604052610cdf9190810190612cc4565b92508460400151516001600160401b03811115610cfe57610cfe6125f9565b604051908082528060200260200182016040528015610d3157816020015b6060815260200190600190039081610d1c5790505b5060e08501526040850151516001600160401b03811115610d5457610d546125f9565b604051908082528060200260200182016040528015610d8757816020015b6060815260200190600190039081610d725790505b5061010085015260005b85604001515181101561147a5760007f00000000000000000000000000000000000000000000000000000000000000006001600160a01b0316639c94d85388604001518481518110610de557610de5612b67565b60200260200101516040518263ffffffff1660e01b8152600401610e0b91815260200190565b60206040518083038186803b158015610e2357600080fd5b505afa158015610e37573d6000803e3d6000fd5b505050506040513d601f19601f82011682018060405250810190610e5b9190612b88565b9050806001600160a01b031663e5328e066040518163ffffffff1660e01b815260040160006040518083038186803b158015610e9657600080fd5b505afa158015610eaa573d6000803e3d6000fd5b505050506040513d6000823e601f3d908101601f19168201604052610ed29190810190612c00565b508660e001518381518110610ee957610ee9612b67565b602002602001018190525060008660e001518381518110610f0c57610f0c612b67565b6020026020010151600081518110610f2657610f26612b67565b60200260200101511180610f71575060008660e001518381518110610f4d57610f4d612b67565b6020026020010151600181518110610f6757610f67612b67565b6020026020010151115b15611286576000816001600160a01b031663f4adc08b6040518163ffffffff1660e01b815260040160206040518083038186803b158015610fb157600080fd5b505afa158015610fc5573d6000803e3d6000fd5b505050506040513d601f19601f82011682018060405250810190610fe99190612c94565b90506000807f00000000000000000000000000000000000000000000000000000000000000006001600160a01b031663345058ea846040518263ffffffff1660e01b815260040161103c91815260200190565b604080518083038186803b15801561105357600080fd5b505afa158015611067573d6000803e3d6000fd5b505050506040513d601f19601f8201168201806040525081019061108b9190612d5d565b60405163133f757160e31b81526004810186905291935091506000906001600160a01b037f000000000000000000000000000000000000000000000000000000000000000016906399fbab88906024016101806040518083038186803b1580156110f457600080fd5b505afa158015611108573d6000803e3d6000fd5b505050506040513d601f19601f8201168201806040525081019061112c9190612db5565b50506040516303217f1d60e61b81526001600160801b0384166004820152929a50506001600160a01b038e16985063c85fc74097505060240194506111719350505050565b60006040518083038186803b15801561118957600080fd5b505afa15801561119d573d6000803e3d6000fd5b505050506040513d6000823e601f3d908101601f191682016040526111c59190810190612e96565b8a610100015187815181106111dc576111dc612b67565b6020026020010181905250828a610100015187815181106111ff576111ff612b67565b602002602001015160008151811061121957611219612b67565b6020026020010181815161122d9190612ed2565b9052506101008a015180518391908890811061124b5761124b612b67565b602002602001015160018151811061126557611265612b67565b602002602001018181516112799190612ed2565b9052506112c79350505050565b60408051600280825260608201835290916020830190803683370190505086610100015183815181106112bb576112bb612b67565b60200260200101819052505b8560e0015182815181106112dd576112dd612b67565b60200260200101516000815181106112f7576112f7612b67565b602002602001015186610140015160008151811061131757611317612b67565b6020026020010181815161132b9190612cad565b90525060e086015180518390811061134557611345612b67565b602002602001015160018151811061135f5761135f612b67565b602002602001015186610140015160018151811061137f5761137f612b67565b602002602001018181516113939190612cad565b9052506101008601518051839081106113ae576113ae612b67565b60200260200101516000815181106113c8576113c8612b67565b60200260200101518661014001516000815181106113e8576113e8612b67565b602002602001018181516113fc9190612ed2565b90525061010086015180518390811061141757611417612b67565b602002602001015160018151811061143157611431612b67565b602002602001015186610140015160018151811061145157611451612b67565b602002602001018181516114659190612ed2565b905250611473905081612c79565b9050610d91565b506080850151604051630248cd6d60e31b81526000916001600160a01b038416916312466b68916114b19160040190815260200190565b604080518083038186803b1580156114c857600080fd5b505afa1580156114dc573d6000803e3d6000fd5b505050506040513d601f19601f820116820180604052508101906115009190612eea565b602080820151604088015281519087015284519091506001600160401b0381111561152d5761152d6125f9565b604051908082528060200260200182016040528015611556578160200160208202803683370190505b50855260005b84518110156119ab57600085828151811061157957611579612b67565b602002602001015190507f00000000000000000000000000000000000000000000000000000000000000006001600160a01b0316816001600160a01b031614156115e957600160601b876000015183815181106115d8576115d8612b67565b602002602001018181525050611998565b6001600160a01b038116600090815260026020526040902054606081156116da57604051636d80125b60e01b81526001600160a01b0384811660048301527f000000000000000000000000000000000000000000000000000000000000000081166024830152604482018490527f00000000000000000000000000000000000000000000000000000000000000001690636d80125b9060640160006040518083038186803b15801561169a57600080fd5b505afa1580156116ae573d6000803e3d6000fd5b505050506040513d6000823e601f3d908101601f191682016040526116d69190810190612c00565b5090505b80516000901561173d5760005b82518110156117295782818151811061170257611702612b67565b6020026020010151826117159190612ed2565b91508061172181612c79565b9150506116e7565b5081516117369082612f38565b9050611971565b60608b0151604051630b4c774160e11b81526001600160a01b037f000000000000000000000000000000000000000000000000000000000000000081166004830152868116602483015262ffffff90921660448201526000917f00000000000000000000000000000000000000000000000000000000000000001690631698ee829060640160206040518083038186803b1580156117da57600080fd5b505afa1580156117ee573d6000803e3d6000fd5b505050506040513d601f19601f820116820180604052508101906118129190612b88565b90506000816001600160a01b0316633850c7bd6040518163ffffffff1660e01b815260040160e06040518083038186803b15801561184f57600080fd5b505afa158015611863573d6000803e3d6000fd5b505050506040513d601f19601f820116820180604052508101906118879190612f6c565b50505050505090506118b0816001600160a01b0316826001600160a01b0316600160601b612025565b92507f00000000000000000000000000000000000000000000000000000000000000006001600160a01b0316826001600160a01b0316630dfe16816040518163ffffffff1660e01b815260040160206040518083038186803b15801561191557600080fd5b505afa158015611929573d6000803e3d6000fd5b505050506040513d601f19601f8201168201806040525081019061194d9190612b88565b6001600160a01b0316141561196e5761196b600160601b8085612025565b92505b50505b808a60000151868151811061198857611988612b67565b6020026020010181815250505050505b50806119a381612c79565b91505061155c565b5060c086015115611d435760007f00000000000000000000000000000000000000000000000000000000000000006001600160a01b0316631698ee82866000815181106119fa576119fa612b67565b602002602001015187600181518110611a1557611a15612b67565b602090810291909101015160608b01516040516001600160e01b031960e086901b1681526001600160a01b03938416600482015292909116602483015262ffffff16604482015260640160206040518083038186803b158015611a7757600080fd5b505afa158015611a8b573d6000803e3d6000fd5b505050506040513d601f19601f82011682018060405250810190611aaf9190612b88565b90506000807f00000000000000000000000000000000000000000000000000000000000000006001600160a01b031663345058ea8a60c001516040518263ffffffff1660e01b8152600401611b0691815260200190565b604080518083038186803b158015611b1d57600080fd5b505afa158015611b31573d6000803e3d6000fd5b505050506040513d601f19601f82011682018060405250810190611b559190612d5d565b9150915060007f00000000000000000000000000000000000000000000000000000000000000006001600160a01b03166399fbab888b60c001516040518263ffffffff1660e01b8152600401611bad91815260200190565b6101806040518083038186803b158015611bc657600080fd5b505afa158015611bda573d6000803e3d6000fd5b505050506040513d601f19601f82011682018060405250810190611bfe9190612db5565b505050509750505050505050507f00000000000000000000000000000000000000000000000000000000000000006001600160a01b031663db9936bf82868d60c001516040518463ffffffff1660e01b8152600401611c84939291906001600160801b039390931683526001600160a01b03919091166020830152604082015260600190565b60006040518083038186803b158015611c9c57600080fd5b505afa158015611cb0573d6000803e3d6000fd5b505050506040513d6000823e601f3d908101601f19168201604052611cd89190810190612e96565b6101608a018190528051849190600090611cf457611cf4612b67565b60200260200101818151611d089190612ed2565b90525061016089015180518391906001908110611d2757611d27612b67565b60200260200101818151611d3b9190612ed2565b905250505050505b84898881518110611d5657611d56612b67565b602002602001018190525050505050505080611d7190612c79565b9050610489565b5050919050565b6000611dab7ff23ec0bb4210edd5cba85afd05127efcd2fc6a781bfed49188da1081670b22d883611ece565b8061042757506104277fc171260023d22a25a00a2789664c9334017843b831138c8ef03cc8897e5873d783611ece565b600082815260208190526040902060010154611df6816120d8565b611e0083836120e5565b505050565b6001600160a01b0381163314611e755760405162461bcd60e51b815260206004820152602f60248201527f416363657373436f6e74726f6c3a2063616e206f6e6c792072656e6f756e636560448201526e103937b632b9903337b91039b2b63360891b6064820152608401610aa4565b611e7f8282612107565b5050565b60006104277f46a52cf33029de9f84853745a87af28464c80bf0346df1b32e205fc73319f62283611ece565b6000828152600160205260408120611ec79083612129565b9392505050565b6000918252602082815260408084206001600160a01b0393909316845291905290205460ff1690565b611eff612135565b6001600160a01b03909116600090815260026020526040902055565b600081815260016020526040812061042790612178565b600082815260208190526040902060010154611f4d816120d8565b611e008383612107565b611f618282611ece565b611e7f576000828152602081815260408083206001600160a01b03851684529091529020805460ff19166001179055611f973390565b6001600160a01b0316816001600160a01b0316837f2f8788117e7eff1d82e926ec794901d17c78024a50270940304540a733656f0d60405160405180910390a45050565b6000611ec7836001600160a01b038416612182565b60006001600160e01b03198216637965db0b60e01b148061042757506301ffc9a760e01b6001600160e01b0319831614610427565b60008080600019858709858702925082811083820303915050806000141561205f576000841161205457600080fd5b508290049050611ec7565b80841161206b57600080fd5b6000848688096000868103871696879004966002600389028118808a02820302808a02820302808a02820302808a02820302808a02820302808a02909103029181900381900460010186841190950394909402919094039290920491909117919091029150509392505050565b6120e281336121d1565b50565b6120ef8282611f57565b6000828152600160205260409020611e009082611fdb565b612111828261222a565b6000828152600160205260409020611e00908261228f565b6000611ec783836122a4565b61213e33611d7f565b6040518060400160405280600381526020016223292160e91b815250906120e25760405162461bcd60e51b8152600401610aa49190613031565b6000610427825490565b60008181526001830160205260408120546121c957508154600181810184556000848152602080822090930184905584548482528286019093526040902091909155610427565b506000610427565b6121db8282611ece565b611e7f576121e8816122ce565b6121f38360206122e0565b604051602001612204929190613064565b60408051601f198184030181529082905262461bcd60e51b8252610aa491600401613031565b6122348282611ece565b15611e7f576000828152602081815260408083206001600160a01b0385168085529252808320805460ff1916905551339285917ff6391f5c32d9c69d2a47ea670b442974b53935d1edc7fd64eb21e047a839171b9190a45050565b6000611ec7836001600160a01b03841661247b565b60008260000182815481106122bb576122bb612b67565b9060005260206000200154905092915050565b60606104276001600160a01b03831660145b606060006122ef8360026130d9565b6122fa906002612ed2565b6001600160401b03811115612311576123116125f9565b6040519080825280601f01601f19166020018201604052801561233b576020820181803683370190505b509050600360fc1b8160008151811061235657612356612b67565b60200101906001600160f81b031916908160001a905350600f60fb1b8160018151811061238557612385612b67565b60200101906001600160f81b031916908160001a90535060006123a98460026130d9565b6123b4906001612ed2565b90505b600181111561242c576f181899199a1a9b1b9c1cb0b131b232b360811b85600f16601081106123e8576123e8612b67565b1a60f81b8282815181106123fe576123fe612b67565b60200101906001600160f81b031916908160001a90535060049490941c93612425816130f8565b90506123b7565b508315611ec75760405162461bcd60e51b815260206004820181905260248201527f537472696e67733a20686578206c656e67746820696e73756666696369656e746044820152606401610aa4565b6000818152600183016020526040812054801561256457600061249f600183612cad565b85549091506000906124b390600190612cad565b90508181146125185760008660000182815481106124d3576124d3612b67565b90600052602060002001549050808760000184815481106124f6576124f6612b67565b6000918252602080832090910192909255918252600188019052604090208390555b85548690806125295761252961310f565b600190038181906000526020600020016000905590558560010160008681526020019081526020016000206000905560019350505050610427565b6000915050610427565b6040518061018001604052806060815260200160008152602001600081526020016000815260200160008152602001606081526020016060815260200160608152602001606081526020016060815260200160608152602001606081525090565b6000602082840312156125e157600080fd5b81356001600160e01b031981168114611ec757600080fd5b634e487b7160e01b600052604160045260246000fd5b60405161010081016001600160401b0381118282101715612632576126326125f9565b60405290565b604051601f8201601f191681016001600160401b0381118282101715612660576126606125f9565b604052919050565b60006001600160401b03821115612681576126816125f9565b5060051b60200190565b600082601f83011261269c57600080fd5b813560206126b16126ac83612668565b612638565b82815260059290921b840181019181810190868411156126d057600080fd5b8286015b848110156126eb57803583529183019183016126d4565b509695505050505050565b62ffffff811681146120e257600080fd5b8035612712816126f6565b919050565b6001600160a01b03811681146120e257600080fd5b803561271281612717565b80151581146120e257600080fd5b803561271281612737565b6000602080838503121561276357600080fd5b82356001600160401b038082111561277a57600080fd5b818501915085601f83011261278e57600080fd5b813561279c6126ac82612668565b81815260059190911b830184019084810190888311156127bb57600080fd5b8585015b838110156128c0578035858111156127d657600080fd5b8601610100818c03601f19018113156127ee57600080fd5b6127f661260f565b898301358881111561280757600080fd5b6128158e8c8387010161268b565b82525060408301358881111561282b5760008081fd5b6128398e8c8387010161268b565b8b83015250606080840135898111156128525760008081fd5b6128608f8d8388010161268b565b6040840152506080612873818601612707565b8284015260a0915081850135818401525060c061289181860161272c565b8284015260e091508185013581840152506128ad838501612745565b90820152855250509186019186016127bf565b5098975050505050505050565b600081518084526020808501945080840160005b838110156128fd578151875295820195908201906001016128e1565b509495945050505050565b6000815180845260208085019450848260051b860182860160005b8581101561294d57838303895261293b8383516128cd565b98850198925090840190600101612923565b5090979650505050505050565b60006020808301818452808551808352604092508286019150828160051b87010184880160005b83811015612aa557603f19898403018552815161018081518186526129a8828701826128cd565b915050888201518986015287820151888601526060808301518187015250608080830151818701525060a080830151868303828801526129e88382612908565b9250505060c08083015186830382880152612a038382612908565b9250505060e08083015186830382880152612a1e8382612908565b925050506101008083015186830382880152612a3a8382612908565b925050506101208083015186830382880152612a5683826128cd565b925050506101408083015186830382880152612a7283826128cd565b925050506101608083015192508582038187015250612a9181836128cd565b968901969450505090860190600101612981565b509098975050505050505050565b600060208284031215612ac557600080fd5b5035919050565b600060208284031215612ade57600080fd5b8135611ec781612717565b60008060408385031215612afc57600080fd5b823591506020830135612b0e81612717565b809150509250929050565b60008060408385031215612b2c57600080fd5b50508035926020909101359150565b60008060408385031215612b4e57600080fd5b8235612b5981612717565b946020939093013593505050565b634e487b7160e01b600052603260045260246000fd5b805161271281612717565b600060208284031215612b9a57600080fd5b8151611ec781612717565b600082601f830112612bb657600080fd5b81516020612bc66126ac83612668565b82815260059290921b84018101918181019086841115612be557600080fd5b8286015b848110156126eb5780518352918301918301612be9565b60008060408385031215612c1357600080fd5b82516001600160401b0380821115612c2a57600080fd5b612c3686838701612ba5565b93506020850151915080821115612c4c57600080fd5b50612c5985828601612ba5565b9150509250929050565b634e487b7160e01b600052601160045260246000fd5b6000600019821415612c8d57612c8d612c63565b5060010190565b600060208284031215612ca657600080fd5b5051919050565b600082821015612cbf57612cbf612c63565b500390565b60006020808385031215612cd757600080fd5b82516001600160401b03811115612ced57600080fd5b8301601f81018513612cfe57600080fd5b8051612d0c6126ac82612668565b81815260059190911b82018301908381019087831115612d2b57600080fd5b928401925b82841015612d52578351612d4381612717565b82529284019290840190612d30565b979650505050505050565b60008060408385031215612d7057600080fd5b505080516020909101519092909150565b8051612712816126f6565b8051600281900b811461271257600080fd5b80516001600160801b038116811461271257600080fd5b6000806000806000806000806000806000806101808d8f031215612dd857600080fd5b8c516bffffffffffffffffffffffff81168114612df457600080fd5b9b50612e0260208e01612b7d565b9a50612e1060408e01612b7d565b9950612e1e60608e01612b7d565b9850612e2c60808e01612d81565b9750612e3a60a08e01612d8c565b9650612e4860c08e01612d8c565b9550612e5660e08e01612d9e565b94506101008d015193506101208d01519250612e756101408e01612d9e565b9150612e846101608e01612d9e565b90509295989b509295989b509295989b565b600060208284031215612ea857600080fd5b81516001600160401b03811115612ebe57600080fd5b612eca84828501612ba5565b949350505050565b60008219821115612ee557612ee5612c63565b500190565b600060408284031215612efc57600080fd5b604051604081018181106001600160401b0382111715612f1e57612f1e6125f9565b604052825181526020928301519281019290925250919050565b600082612f5557634e487b7160e01b600052601260045260246000fd5b500490565b805161ffff8116811461271257600080fd5b600080600080600080600060e0888a031215612f8757600080fd5b8751612f9281612717565b9650612fa060208901612d8c565b9550612fae60408901612f5a565b9450612fbc60608901612f5a565b9350612fca60808901612f5a565b925060a088015160ff81168114612fe057600080fd5b60c0890151909250612ff181612737565b8091505092959891949750929550565b60005b8381101561301c578181015183820152602001613004565b8381111561302b576000848401525b50505050565b6020815260008251806020840152613050816040850160208701613001565b601f01601f19169190910160400192915050565b7f416363657373436f6e74726f6c3a206163636f756e742000000000000000000081526000835161309c816017850160208801613001565b7001034b99036b4b9b9b4b733903937b6329607d1b60179184019182015283516130cd816028840160208801613001565b01602801949350505050565b60008160001904831182151516156130f3576130f3612c63565b500290565b60008161310757613107612c63565b506000190190565b634e487b7160e01b600052603160045260246000fdfea26469706673582212209a93e75df0d295b0a5778f7b228ebc12e5c70df8479f3cd889a8347918eef5ed64736f6c63430008090033f23ec0bb4210edd5cba85afd05127efcd2fc6a781bfed49188da1081670b22d846a52cf33029de9f84853745a87af28464c80bf0346df1b32e205fc73319f622",
    "linkReferences": {}
  },
  "methodIdentifiers": {
    "ADMIN_DELEGATE_ROLE()": "0952ff54",
    "ADMIN_ROLE()": "75b238fc",
    "DEFAULT_ADMIN_ROLE()": "a217fddf",
    "OPERATOR()": "983d2737",
    "Q96()": "40792465",
    "collect((uint256[],uint256[],uint256[],uint24,uint256,address,uint256,bool)[])": "0909bb78",
    "factory()": "c45a0155",
    "getRoleAdmin(bytes32)": "248a9ca3",
    "getRoleMember(bytes32,uint256)": "9010d07c",
    "getRoleMemberCount(bytes32)": "ca15c873",
    "grantRole(bytes32,address)": "2f2ff15d",
    "hasRole(bytes32,address)": "91d14854",
    "isAdmin(address)": "24d7806c",
    "isOperator(address)": "6d70f7ae",
    "mellowOracle()": "ee117355",
    "positionManager()": "791b98bc",
    "renounceRole(bytes32,address)": "36568abe",
    "revokeRole(bytes32,address)": "d547741f",
    "setupOracleMask(address,uint256)": "a17047c4",
    "supportsInterface(bytes4)": "01ffc9a7",
    "uniV3Helper()": "83c4224f",
    "usdc()": "3e413bee",
    "vaultRegistry()": "cdd7b38a"
  },
  "id": 411
}