{
  "abi": [
    {
      "inputs": [
        {
          "internalType": "address",
          "name": "admin",
          "type": "address"
        }
      ],
      "stateMutability": "nonpayable",
      "type": "constructor"
    },
    {
      "anonymous": false,
      "inputs": [
        {
          "indexed": true,
          "internalType": "address",
          "name": "origin",
          "type": "address"
        },
        {
          "indexed": true,
          "internalType": "address",
          "name": "sender",
          "type": "address"
        }
      ],
      "name": "AllStagedPermissionGrantsRolledBack",
      "type": "event"
    },
    {
      "anonymous": false,
      "inputs": [
        {
          "indexed": true,
          "internalType": "address",
          "name": "origin",
          "type": "address"
        },
        {
          "indexed": true,
          "internalType": "address",
          "name": "sender",
          "type": "address"
        }
      ],
      "name": "AllStagedValidatorsRolledBack",
      "type": "event"
    },
    {
      "anonymous": false,
      "inputs": [
        {
          "indexed": true,
          "internalType": "address",
          "name": "origin",
          "type": "address"
        },
        {
          "indexed": true,
          "internalType": "address",
          "name": "sender",
          "type": "address"
        },
        {
          "components": [
            {
              "internalType": "uint256",
              "name": "maxTokensPerVault",
              "type": "uint256"
            },
            {
              "internalType": "uint256",
              "name": "governanceDelay",
              "type": "uint256"
            },
            {
              "internalType": "address",
              "name": "protocolTreasury",
              "type": "address"
            },
            {
              "internalType": "uint256",
              "name": "forceAllowMask",
              "type": "uint256"
            },
            {
              "internalType": "uint256",
              "name": "withdrawLimit",
              "type": "uint256"
            }
          ],
          "indexed": false,
          "internalType": "struct IProtocolGovernance.Params",
          "name": "params",
          "type": "tuple"
        }
      ],
      "name": "ParamsCommitted",
      "type": "event"
    },
    {
      "anonymous": false,
      "inputs": [
        {
          "indexed": true,
          "internalType": "address",
          "name": "origin",
          "type": "address"
        },
        {
          "indexed": true,
          "internalType": "address",
          "name": "sender",
          "type": "address"
        },
        {
          "indexed": false,
          "internalType": "uint256",
          "name": "at",
          "type": "uint256"
        },
        {
          "components": [
            {
              "internalType": "uint256",
              "name": "maxTokensPerVault",
              "type": "uint256"
            },
            {
              "internalType": "uint256",
              "name": "governanceDelay",
              "type": "uint256"
            },
            {
              "internalType": "address",
              "name": "protocolTreasury",
              "type": "address"
            },
            {
              "internalType": "uint256",
              "name": "forceAllowMask",
              "type": "uint256"
            },
            {
              "internalType": "uint256",
              "name": "withdrawLimit",
              "type": "uint256"
            }
          ],
          "indexed": false,
          "internalType": "struct IProtocolGovernance.Params",
          "name": "params",
          "type": "tuple"
        }
      ],
      "name": "ParamsStaged",
      "type": "event"
    },
    {
      "anonymous": false,
      "inputs": [
        {
          "indexed": true,
          "internalType": "address",
          "name": "origin",
          "type": "address"
        },
        {
          "indexed": true,
          "internalType": "address",
          "name": "sender",
          "type": "address"
        },
        {
          "indexed": true,
          "internalType": "address",
          "name": "target",
          "type": "address"
        }
      ],
      "name": "PermissionGrantsCommitted",
      "type": "event"
    },
    {
      "anonymous": false,
      "inputs": [
        {
          "indexed": true,
          "internalType": "address",
          "name": "origin",
          "type": "address"
        },
        {
          "indexed": true,
          "internalType": "address",
          "name": "sender",
          "type": "address"
        },
        {
          "indexed": true,
          "internalType": "address",
          "name": "target",
          "type": "address"
        },
        {
          "indexed": false,
          "internalType": "uint8[]",
          "name": "permissionIds",
          "type": "uint8[]"
        },
        {
          "indexed": false,
          "internalType": "uint256",
          "name": "at",
          "type": "uint256"
        }
      ],
      "name": "PermissionGrantsStaged",
      "type": "event"
    },
    {
      "anonymous": false,
      "inputs": [
        {
          "indexed": true,
          "internalType": "address",
          "name": "origin",
          "type": "address"
        },
        {
          "indexed": true,
          "internalType": "address",
          "name": "sender",
          "type": "address"
        },
        {
          "indexed": true,
          "internalType": "address",
          "name": "target",
          "type": "address"
        },
        {
          "indexed": false,
          "internalType": "uint8[]",
          "name": "permissionIds",
          "type": "uint8[]"
        }
      ],
      "name": "PermissionsRevoked",
      "type": "event"
    },
    {
      "anonymous": false,
      "inputs": [
        {
          "indexed": true,
          "internalType": "bytes32",
          "name": "role",
          "type": "bytes32"
        },
        {
          "indexed": true,
          "internalType": "bytes32",
          "name": "previousAdminRole",
          "type": "bytes32"
        },
        {
          "indexed": true,
          "internalType": "bytes32",
          "name": "newAdminRole",
          "type": "bytes32"
        }
      ],
      "name": "RoleAdminChanged",
      "type": "event"
    },
    {
      "anonymous": false,
      "inputs": [
        {
          "indexed": true,
          "internalType": "bytes32",
          "name": "role",
          "type": "bytes32"
        },
        {
          "indexed": true,
          "internalType": "address",
          "name": "account",
          "type": "address"
        },
        {
          "indexed": true,
          "internalType": "address",
          "name": "sender",
          "type": "address"
        }
      ],
      "name": "RoleGranted",
      "type": "event"
    },
    {
      "anonymous": false,
      "inputs": [
        {
          "indexed": true,
          "internalType": "bytes32",
          "name": "role",
          "type": "bytes32"
        },
        {
          "indexed": true,
          "internalType": "address",
          "name": "account",
          "type": "address"
        },
        {
          "indexed": true,
          "internalType": "address",
          "name": "sender",
          "type": "address"
        }
      ],
      "name": "RoleRevoked",
      "type": "event"
    },
    {
      "anonymous": false,
      "inputs": [
        {
          "indexed": true,
          "internalType": "address",
          "name": "origin",
          "type": "address"
        },
        {
          "indexed": true,
          "internalType": "address",
          "name": "sender",
          "type": "address"
        },
        {
          "indexed": false,
          "internalType": "address",
          "name": "token",
          "type": "address"
        },
        {
          "indexed": false,
          "internalType": "uint256",
          "name": "unitPrice",
          "type": "uint256"
        }
      ],
      "name": "UnitPriceCommitted",
      "type": "event"
    },
    {
      "anonymous": false,
      "inputs": [
        {
          "indexed": true,
          "internalType": "address",
          "name": "origin",
          "type": "address"
        },
        {
          "indexed": true,
          "internalType": "address",
          "name": "sender",
          "type": "address"
        },
        {
          "indexed": false,
          "internalType": "address",
          "name": "token",
          "type": "address"
        }
      ],
      "name": "UnitPriceRolledBack",
      "type": "event"
    },
    {
      "anonymous": false,
      "inputs": [
        {
          "indexed": true,
          "internalType": "address",
          "name": "origin",
          "type": "address"
        },
        {
          "indexed": true,
          "internalType": "address",
          "name": "sender",
          "type": "address"
        },
        {
          "indexed": false,
          "internalType": "address",
          "name": "token",
          "type": "address"
        },
        {
          "indexed": false,
          "internalType": "uint256",
          "name": "unitPrice",
          "type": "uint256"
        }
      ],
      "name": "UnitPriceStaged",
      "type": "event"
    },
    {
      "anonymous": false,
      "inputs": [
        {
          "indexed": true,
          "internalType": "address",
          "name": "origin",
          "type": "address"
        },
        {
          "indexed": true,
          "internalType": "address",
          "name": "sender",
          "type": "address"
        },
        {
          "indexed": true,
          "internalType": "address",
          "name": "target",
          "type": "address"
        }
      ],
      "name": "ValidatorCommitted",
      "type": "event"
    },
    {
      "anonymous": false,
      "inputs": [
        {
          "indexed": true,
          "internalType": "address",
          "name": "origin",
          "type": "address"
        },
        {
          "indexed": true,
          "internalType": "address",
          "name": "sender",
          "type": "address"
        },
        {
          "indexed": true,
          "internalType": "address",
          "name": "target",
          "type": "address"
        }
      ],
      "name": "ValidatorRevoked",
      "type": "event"
    },
    {
      "anonymous": false,
      "inputs": [
        {
          "indexed": true,
          "internalType": "address",
          "name": "origin",
          "type": "address"
        },
        {
          "indexed": true,
          "internalType": "address",
          "name": "sender",
          "type": "address"
        },
        {
          "indexed": true,
          "internalType": "address",
          "name": "target",
          "type": "address"
        },
        {
          "indexed": false,
          "internalType": "address",
          "name": "validator",
          "type": "address"
        },
        {
          "indexed": false,
          "internalType": "uint256",
          "name": "at",
          "type": "uint256"
        }
      ],
      "name": "ValidatorStaged",
      "type": "event"
    },
    {
      "inputs": [],
      "name": "ADMIN_DELEGATE_ROLE",
      "outputs": [
        {
          "internalType": "bytes32",
          "name": "",
          "type": "bytes32"
        }
      ],
      "stateMutability": "view",
      "type": "function"
    },
    {
      "inputs": [],
      "name": "ADMIN_ROLE",
      "outputs": [
        {
          "internalType": "bytes32",
          "name": "",
          "type": "bytes32"
        }
      ],
      "stateMutability": "view",
      "type": "function"
    },
    {
      "inputs": [],
      "name": "DEFAULT_ADMIN_ROLE",
      "outputs": [
        {
          "internalType": "bytes32",
          "name": "",
          "type": "bytes32"
        }
      ],
      "stateMutability": "view",
      "type": "function"
    },
    {
      "inputs": [],
      "name": "DELAY",
      "outputs": [
        {
          "internalType": "uint256",
          "name": "",
          "type": "uint256"
        }
      ],
      "stateMutability": "view",
      "type": "function"
    },
    {
      "inputs": [],
      "name": "MAX_GOVERNANCE_DELAY",
      "outputs": [
        {
          "internalType": "uint256",
          "name": "",
          "type": "uint256"
        }
      ],
      "stateMutability": "view",
      "type": "function"
    },
    {
      "inputs": [],
      "name": "MIN_WITHDRAW_LIMIT",
      "outputs": [
        {
          "internalType": "uint256",
          "name": "",
          "type": "uint256"
        }
      ],
      "stateMutability": "view",
      "type": "function"
    },
    {
      "inputs": [],
      "name": "OPERATOR",
      "outputs": [
        {
          "internalType": "bytes32",
          "name": "",
          "type": "bytes32"
        }
      ],
      "stateMutability": "view",
      "type": "function"
    },
    {
      "inputs": [
        {
          "internalType": "uint8",
          "name": "permissionId",
          "type": "uint8"
        }
      ],
      "name": "addressesByPermission",
      "outputs": [
        {
          "internalType": "address[]",
          "name": "addresses",
          "type": "address[]"
        }
      ],
      "stateMutability": "view",
      "type": "function"
    },
    {
      "inputs": [],
      "name": "commitAllPermissionGrantsSurpassedDelay",
      "outputs": [
        {
          "internalType": "address[]",
          "name": "addresses",
          "type": "address[]"
        }
      ],
      "stateMutability": "nonpayable",
      "type": "function"
    },
    {
      "inputs": [],
      "name": "commitAllValidatorsSurpassedDelay",
      "outputs": [
        {
          "internalType": "address[]",
          "name": "addressesCommitted",
          "type": "address[]"
        }
      ],
      "stateMutability": "nonpayable",
      "type": "function"
    },
    {
      "inputs": [],
      "name": "commitParams",
      "outputs": [],
      "stateMutability": "nonpayable",
      "type": "function"
    },
    {
      "inputs": [
        {
          "internalType": "address",
          "name": "stagedAddress",
          "type": "address"
        }
      ],
      "name": "commitPermissionGrants",
      "outputs": [],
      "stateMutability": "nonpayable",
      "type": "function"
    },
    {
      "inputs": [
        {
          "internalType": "address",
          "name": "token",
          "type": "address"
        }
      ],
      "name": "commitUnitPrice",
      "outputs": [],
      "stateMutability": "nonpayable",
      "type": "function"
    },
    {
      "inputs": [
        {
          "internalType": "address",
          "name": "stagedAddress",
          "type": "address"
        }
      ],
      "name": "commitValidator",
      "outputs": [],
      "stateMutability": "nonpayable",
      "type": "function"
    },
    {
      "inputs": [],
      "name": "contractName",
      "outputs": [
        {
          "internalType": "string",
          "name": "",
          "type": "string"
        }
      ],
      "stateMutability": "pure",
      "type": "function"
    },
    {
      "inputs": [],
      "name": "contractNameBytes",
      "outputs": [
        {
          "internalType": "bytes32",
          "name": "",
          "type": "bytes32"
        }
      ],
      "stateMutability": "pure",
      "type": "function"
    },
    {
      "inputs": [],
      "name": "contractVersion",
      "outputs": [
        {
          "internalType": "string",
          "name": "",
          "type": "string"
        }
      ],
      "stateMutability": "pure",
      "type": "function"
    },
    {
      "inputs": [],
      "name": "contractVersionBytes",
      "outputs": [
        {
          "internalType": "bytes32",
          "name": "",
          "type": "bytes32"
        }
      ],
      "stateMutability": "pure",
      "type": "function"
    },
    {
      "inputs": [],
      "name": "forceAllowMask",
      "outputs": [
        {
          "internalType": "uint256",
          "name": "",
          "type": "uint256"
        }
      ],
      "stateMutability": "view",
      "type": "function"
    },
    {
      "inputs": [
        {
          "internalType": "bytes32",
          "name": "role",
          "type": "bytes32"
        }
      ],
      "name": "getRoleAdmin",
      "outputs": [
        {
          "internalType": "bytes32",
          "name": "",
          "type": "bytes32"
        }
      ],
      "stateMutability": "view",
      "type": "function"
    },
    {
      "inputs": [
        {
          "internalType": "bytes32",
          "name": "role",
          "type": "bytes32"
        },
        {
          "internalType": "uint256",
          "name": "index",
          "type": "uint256"
        }
      ],
      "name": "getRoleMember",
      "outputs": [
        {
          "internalType": "address",
          "name": "",
          "type": "address"
        }
      ],
      "stateMutability": "view",
      "type": "function"
    },
    {
      "inputs": [
        {
          "internalType": "bytes32",
          "name": "role",
          "type": "bytes32"
        }
      ],
      "name": "getRoleMemberCount",
      "outputs": [
        {
          "internalType": "uint256",
          "name": "",
          "type": "uint256"
        }
      ],
      "stateMutability": "view",
      "type": "function"
    },
    {
      "inputs": [],
      "name": "governanceDelay",
      "outputs": [
        {
          "internalType": "uint256",
          "name": "",
          "type": "uint256"
        }
      ],
      "stateMutability": "view",
      "type": "function"
    },
    {
      "inputs": [
        {
          "internalType": "bytes32",
          "name": "role",
          "type": "bytes32"
        },
        {
          "internalType": "address",
          "name": "account",
          "type": "address"
        }
      ],
      "name": "grantRole",
      "outputs": [],
      "stateMutability": "nonpayable",
      "type": "function"
    },
    {
      "inputs": [
        {
          "internalType": "address",
          "name": "target",
          "type": "address"
        },
        {
          "internalType": "uint8[]",
          "name": "permissionIds",
          "type": "uint8[]"
        }
      ],
      "name": "hasAllPermissions",
      "outputs": [
        {
          "internalType": "bool",
          "name": "",
          "type": "bool"
        }
      ],
      "stateMutability": "view",
      "type": "function"
    },
    {
      "inputs": [
        {
          "internalType": "address",
          "name": "target",
          "type": "address"
        },
        {
          "internalType": "uint8",
          "name": "permissionId",
          "type": "uint8"
        }
      ],
      "name": "hasPermission",
      "outputs": [
        {
          "internalType": "bool",
          "name": "",
          "type": "bool"
        }
      ],
      "stateMutability": "view",
      "type": "function"
    },
    {
      "inputs": [
        {
          "internalType": "bytes32",
          "name": "role",
          "type": "bytes32"
        },
        {
          "internalType": "address",
          "name": "account",
          "type": "address"
        }
      ],
      "name": "hasRole",
      "outputs": [
        {
          "internalType": "bool",
          "name": "",
          "type": "bool"
        }
      ],
      "stateMutability": "view",
      "type": "function"
    },
    {
      "inputs": [
        {
          "internalType": "address",
          "name": "sender",
          "type": "address"
        }
      ],
      "name": "isAdmin",
      "outputs": [
        {
          "internalType": "bool",
          "name": "",
          "type": "bool"
        }
      ],
      "stateMutability": "view",
      "type": "function"
    },
    {
      "inputs": [
        {
          "internalType": "address",
          "name": "sender",
          "type": "address"
        }
      ],
      "name": "isOperator",
      "outputs": [
        {
          "internalType": "bool",
          "name": "",
          "type": "bool"
        }
      ],
      "stateMutability": "view",
      "type": "function"
    },
    {
      "inputs": [],
      "name": "maxTokensPerVault",
      "outputs": [
        {
          "internalType": "uint256",
          "name": "",
          "type": "uint256"
        }
      ],
      "stateMutability": "view",
      "type": "function"
    },
    {
      "inputs": [
        {
          "internalType": "bytes[]",
          "name": "data",
          "type": "bytes[]"
        }
      ],
      "name": "multicall",
      "outputs": [
        {
          "internalType": "bytes[]",
          "name": "results",
          "type": "bytes[]"
        }
      ],
      "stateMutability": "nonpayable",
      "type": "function"
    },
    {
      "inputs": [],
      "name": "params",
      "outputs": [
        {
          "components": [
            {
              "internalType": "uint256",
              "name": "maxTokensPerVault",
              "type": "uint256"
            },
            {
              "internalType": "uint256",
              "name": "governanceDelay",
              "type": "uint256"
            },
            {
              "internalType": "address",
              "name": "protocolTreasury",
              "type": "address"
            },
            {
              "internalType": "uint256",
              "name": "forceAllowMask",
              "type": "uint256"
            },
            {
              "internalType": "uint256",
              "name": "withdrawLimit",
              "type": "uint256"
            }
          ],
          "internalType": "struct IProtocolGovernance.Params",
          "name": "",
          "type": "tuple"
        }
      ],
      "stateMutability": "view",
      "type": "function"
    },
    {
      "inputs": [],
      "name": "permissionAddresses",
      "outputs": [
        {
          "internalType": "address[]",
          "name": "",
          "type": "address[]"
        }
      ],
      "stateMutability": "view",
      "type": "function"
    },
    {
      "inputs": [
        {
          "internalType": "address",
          "name": "",
          "type": "address"
        }
      ],
      "name": "permissionMasks",
      "outputs": [
        {
          "internalType": "uint256",
          "name": "",
          "type": "uint256"
        }
      ],
      "stateMutability": "view",
      "type": "function"
    },
    {
      "inputs": [],
      "name": "protocolTreasury",
      "outputs": [
        {
          "internalType": "address",
          "name": "",
          "type": "address"
        }
      ],
      "stateMutability": "view",
      "type": "function"
    },
    {
      "inputs": [
        {
          "internalType": "bytes32",
          "name": "role",
          "type": "bytes32"
        },
        {
          "internalType": "address",
          "name": "account",
          "type": "address"
        }
      ],
      "name": "renounceRole",
      "outputs": [],
      "stateMutability": "nonpayable",
      "type": "function"
    },
    {
      "inputs": [
        {
          "internalType": "address",
          "name": "target",
          "type": "address"
        },
        {
          "internalType": "uint8[]",
          "name": "permissionIds",
          "type": "uint8[]"
        }
      ],
      "name": "revokePermissions",
      "outputs": [],
      "stateMutability": "nonpayable",
      "type": "function"
    },
    {
      "inputs": [
        {
          "internalType": "bytes32",
          "name": "role",
          "type": "bytes32"
        },
        {
          "internalType": "address",
          "name": "account",
          "type": "address"
        }
      ],
      "name": "revokeRole",
      "outputs": [],
      "stateMutability": "nonpayable",
      "type": "function"
    },
    {
      "inputs": [
        {
          "internalType": "address",
          "name": "target",
          "type": "address"
        }
      ],
      "name": "revokeValidator",
      "outputs": [],
      "stateMutability": "nonpayable",
      "type": "function"
    },
    {
      "inputs": [],
      "name": "rollbackStagedPermissionGrants",
      "outputs": [],
      "stateMutability": "nonpayable",
      "type": "function"
    },
    {
      "inputs": [],
      "name": "rollbackStagedValidators",
      "outputs": [],
      "stateMutability": "nonpayable",
      "type": "function"
    },
    {
      "inputs": [
        {
          "internalType": "address",
          "name": "token",
          "type": "address"
        }
      ],
      "name": "rollbackUnitPrice",
      "outputs": [],
      "stateMutability": "nonpayable",
      "type": "function"
    },
    {
      "inputs": [
        {
          "components": [
            {
              "internalType": "uint256",
              "name": "maxTokensPerVault",
              "type": "uint256"
            },
            {
              "internalType": "uint256",
              "name": "governanceDelay",
              "type": "uint256"
            },
            {
              "internalType": "address",
              "name": "protocolTreasury",
              "type": "address"
            },
            {
              "internalType": "uint256",
              "name": "forceAllowMask",
              "type": "uint256"
            },
            {
              "internalType": "uint256",
              "name": "withdrawLimit",
              "type": "uint256"
            }
          ],
          "internalType": "struct IProtocolGovernance.Params",
          "name": "newParams",
          "type": "tuple"
        }
      ],
      "name": "stageParams",
      "outputs": [],
      "stateMutability": "nonpayable",
      "type": "function"
    },
    {
      "inputs": [
        {
          "internalType": "address",
          "name": "target",
          "type": "address"
        },
        {
          "internalType": "uint8[]",
          "name": "permissionIds",
          "type": "uint8[]"
        }
      ],
      "name": "stagePermissionGrants",
      "outputs": [],
      "stateMutability": "nonpayable",
      "type": "function"
    },
    {
      "inputs": [
        {
          "internalType": "address",
          "name": "token",
          "type": "address"
        },
        {
          "internalType": "uint256",
          "name": "value",
          "type": "uint256"
        }
      ],
      "name": "stageUnitPrice",
      "outputs": [],
      "stateMutability": "nonpayable",
      "type": "function"
    },
    {
      "inputs": [
        {
          "internalType": "address",
          "name": "target",
          "type": "address"
        },
        {
          "internalType": "address",
          "name": "validator",
          "type": "address"
        }
      ],
      "name": "stageValidator",
      "outputs": [],
      "stateMutability": "nonpayable",
      "type": "function"
    },
    {
      "inputs": [],
      "name": "stagedParams",
      "outputs": [
        {
          "components": [
            {
              "internalType": "uint256",
              "name": "maxTokensPerVault",
              "type": "uint256"
            },
            {
              "internalType": "uint256",
              "name": "governanceDelay",
              "type": "uint256"
            },
            {
              "internalType": "address",
              "name": "protocolTreasury",
              "type": "address"
            },
            {
              "internalType": "uint256",
              "name": "forceAllowMask",
              "type": "uint256"
            },
            {
              "internalType": "uint256",
              "name": "withdrawLimit",
              "type": "uint256"
            }
          ],
          "internalType": "struct IProtocolGovernance.Params",
          "name": "",
          "type": "tuple"
        }
      ],
      "stateMutability": "view",
      "type": "function"
    },
    {
      "inputs": [],
      "name": "stagedParamsTimestamp",
      "outputs": [
        {
          "internalType": "uint256",
          "name": "",
          "type": "uint256"
        }
      ],
      "stateMutability": "view",
      "type": "function"
    },
    {
      "inputs": [],
      "name": "stagedPermissionGrantsAddresses",
      "outputs": [
        {
          "internalType": "address[]",
          "name": "",
          "type": "address[]"
        }
      ],
      "stateMutability": "view",
      "type": "function"
    },
    {
      "inputs": [
        {
          "internalType": "address",
          "name": "",
          "type": "address"
        }
      ],
      "name": "stagedPermissionGrantsMasks",
      "outputs": [
        {
          "internalType": "uint256",
          "name": "",
          "type": "uint256"
        }
      ],
      "stateMutability": "view",
      "type": "function"
    },
    {
      "inputs": [
        {
          "internalType": "address",
          "name": "",
          "type": "address"
        }
      ],
      "name": "stagedPermissionGrantsTimestamps",
      "outputs": [
        {
          "internalType": "uint256",
          "name": "",
          "type": "uint256"
        }
      ],
      "stateMutability": "view",
      "type": "function"
    },
    {
      "inputs": [
        {
          "internalType": "address",
          "name": "",
          "type": "address"
        }
      ],
      "name": "stagedUnitPrices",
      "outputs": [
        {
          "internalType": "uint256",
          "name": "",
          "type": "uint256"
        }
      ],
      "stateMutability": "view",
      "type": "function"
    },
    {
      "inputs": [
        {
          "internalType": "address",
          "name": "",
          "type": "address"
        }
      ],
      "name": "stagedUnitPricesTimestamps",
      "outputs": [
        {
          "internalType": "uint256",
          "name": "",
          "type": "uint256"
        }
      ],
      "stateMutability": "view",
      "type": "function"
    },
    {
      "inputs": [
        {
          "internalType": "address",
          "name": "",
          "type": "address"
        }
      ],
      "name": "stagedValidators",
      "outputs": [
        {
          "internalType": "address",
          "name": "",
          "type": "address"
        }
      ],
      "stateMutability": "view",
      "type": "function"
    },
    {
      "inputs": [],
      "name": "stagedValidatorsAddresses",
      "outputs": [
        {
          "internalType": "address[]",
          "name": "",
          "type": "address[]"
        }
      ],
      "stateMutability": "view",
      "type": "function"
    },
    {
      "inputs": [
        {
          "internalType": "address",
          "name": "",
          "type": "address"
        }
      ],
      "name": "stagedValidatorsTimestamps",
      "outputs": [
        {
          "internalType": "uint256",
          "name": "",
          "type": "uint256"
        }
      ],
      "stateMutability": "view",
      "type": "function"
    },
    {
      "inputs": [
        {
          "internalType": "bytes4",
          "name": "interfaceId",
          "type": "bytes4"
        }
      ],
      "name": "supportsInterface",
      "outputs": [
        {
          "internalType": "bool",
          "name": "",
          "type": "bool"
        }
      ],
      "stateMutability": "view",
      "type": "function"
    },
    {
      "inputs": [
        {
          "internalType": "address",
          "name": "",
          "type": "address"
        }
      ],
      "name": "unitPrices",
      "outputs": [
        {
          "internalType": "uint256",
          "name": "",
          "type": "uint256"
        }
      ],
      "stateMutability": "view",
      "type": "function"
    },
    {
      "inputs": [
        {
          "internalType": "address",
          "name": "",
          "type": "address"
        }
      ],
      "name": "validators",
      "outputs": [
        {
          "internalType": "address",
          "name": "",
          "type": "address"
        }
      ],
      "stateMutability": "view",
      "type": "function"
    },
    {
      "inputs": [
        {
          "internalType": "uint256",
          "name": "i",
          "type": "uint256"
        }
      ],
      "name": "validatorsAddress",
      "outputs": [
        {
          "internalType": "address",
          "name": "",
          "type": "address"
        }
      ],
      "stateMutability": "view",
      "type": "function"
    },
    {
      "inputs": [],
      "name": "validatorsAddresses",
      "outputs": [
        {
          "internalType": "address[]",
          "name": "",
          "type": "address[]"
        }
      ],
      "stateMutability": "view",
      "type": "function"
    },
    {
      "inputs": [
        {
          "internalType": "address",
          "name": "token",
          "type": "address"
        }
      ],
      "name": "withdrawLimit",
      "outputs": [
        {
          "internalType": "uint256",
          "name": "",
          "type": "uint256"
        }
      ],
      "stateMutability": "view",
      "type": "function"
    }
  ],
  "bytecode": {
    "object": "0x60806040523480156200001157600080fd5b50604051620030e3380380620030e3833981016040819052620000349162000305565b60408051808201909152600281526120ad60f11b6020820152819081906001600160a01b038216620000845760405162461bcd60e51b81526004016200007b919062000337565b60405180910390fd5b50620000a0600080516020620030c38339815191528262000155565b620000bb600080516020620030a38339815191528262000155565b620000d6600080516020620030a38339815191528062000165565b620001117fc171260023d22a25a00a2789664c9334017843b831138c8ef03cc8897e5873d7600080516020620030a383398151915262000165565b6200014c600080516020620030c38339815191527fc171260023d22a25a00a2789664c9334017843b831138c8ef03cc8897e5873d762000165565b5050506200038f565b620001618282620001b0565b5050565b600082815260208190526040808220600101805490849055905190918391839186917fbd79b86ffe0ab8e8776151514217cd7cacd52c909f66475c3af44e129f0b00ff9190a4505050565b620001c78282620001f360201b62001d091760201c565b6000828152600160209081526040909120620001ee91839062001d8d62000293821b17901c565b505050565b6000828152602081815260408083206001600160a01b038516845290915290205460ff1662000161576000828152602081815260408083206001600160a01b03851684529091529020805460ff191660011790556200024f3390565b6001600160a01b0316816001600160a01b0316837f2f8788117e7eff1d82e926ec794901d17c78024a50270940304540a733656f0d60405160405180910390a45050565b6000620002aa836001600160a01b038416620002b3565b90505b92915050565b6000818152600183016020526040812054620002fc57508154600181810184556000848152602080822090930184905584548482528286019093526040902091909155620002ad565b506000620002ad565b6000602082840312156200031857600080fd5b81516001600160a01b03811681146200033057600080fd5b9392505050565b600060208083528351808285015260005b81811015620003665785810183015185820160400152820162000348565b8181111562000379576000604083870101525b50601f01601f1916929092016040019392505050565b612d04806200039f6000396000f3fe608060405234801561001057600080fd5b50600436106103ba5760003560e01c806378546fa2116101f4578063b3ff103c1161011a578063cff0ab96116100ad578063e970164c1161007c578063e970164c146108aa578063f7fcd303146108b2578063fa52c7d8146108db578063fce33f011461090457600080fd5b8063cff0ab9614610867578063d1bf2a6b1461086f578063d547741f14610877578063d65c5e6b1461088a57600080fd5b8063bd674f3a116100e9578063bd674f3a14610831578063bd7692f714610839578063c7e6ab0514610841578063ca15c8731461085457600080fd5b8063b3ff103c146107fa578063b521bf2d1461080d578063bba3293914610820578063bd66b16e1461082857600080fd5b80639348e4ec11610192578063a0a8e46011610161578063a0a8e460146107aa578063a217fddf146107b2578063ac9650d8146107ba578063ae24e14a146107da57600080fd5b80639348e4ec1461076057806395e3a12d14610773578063983d27371461077b57806399fb4234146107a257600080fd5b8063887b812d116101ce578063887b812d146107075780638e35b0281461071a5780639010d07c1461073a57806391d148541461074d57600080fd5b806378546fa2146106d2578063803db96d146106da578063806bc2f1146106ff57600080fd5b806336568abe116102e457806369b411701161027757806373680db41161024657806373680db41461066357806375b238fc1461067657806375d0c0dc1461069d578063768a1bfc146106b257600080fd5b806369b41170146105e55780636d70f7ae146105ef578063717af5ed14610602578063731c01a91461061557600080fd5b80635c1e4448116102b35780635c1e44481461056d57806363d21c751461058057806363e85d2d1461058a57806364cd39af146105c557600080fd5b806336568abe1461052c5780633837a1a31461053f57806356f46d7214610552578063577848ea1461056557600080fd5b806312c2d8741161035c578063248a9ca31161032b578063248a9ca3146104c357806324d7806c146104e65780632a4ebb41146104f95780632f2ff15d1461051957600080fd5b806312c2d874146104735780631c3a2341146104935780631c5afc46146104a65780631dd02197146104bb57600080fd5b806306a462391161039857806306a462391461040f5780630952ff54146104275780630e3e80ac1461044e5780630ea556361461046957600080fd5b80630161c241146103bf57806301ffc9a7146103d4578063047564b7146103fc575b600080fd5b6103d26103cd366004612647565b610917565b005b6103e76103e2366004612664565b610a78565b60405190151581526020015b60405180910390f35b6103d261040a366004612647565b610aa3565b640312e302e360dc1b5b6040519081526020016103f3565b6104197fc171260023d22a25a00a2789664c9334017843b831138c8ef03cc8897e5873d781565b7150726f746f636f6c476f7665726e616e636560701b610419565b61041962093a8081565b610419610481366004612647565b60046020526000908152604090205481565b6103d26104a13660046126da565b610b60565b6104ae610c4f565b6040516103f3919061272f565b6103d2610c5b565b6104196104d136600461277c565b60009081526020819052604090206001015490565b6103e76104f4366004612647565b610d0a565b610419610507366004612647565b60066020526000908152604090205481565b6103d2610527366004612795565b610d66565b6103d261053a366004612795565b610d90565b6103d261054d366004612647565b610e0e565b6103d26105603660046127c5565b610f21565b6104ae611007565b6103d261057b3660046127f1565b6111b7565b61041962030d4081565b6103e761059836600461281f565b601c546001600160a01b03831660009081526007602052604090205417600160ff83161b16151592915050565b6104196105d3366004612647565b60076020526000908152604090205481565b6104196212750081565b6103e76105fd366004612647565b611229565b6104ae610610366004612854565b611255565b61061d611343565b6040516103f3919081518152602080830151908201526040808301516001600160a01b031690820152606080830151908201526080918201519181019190915260a00190565b6103d2610671366004612647565b611389565b6104197ff23ec0bb4210edd5cba85afd05127efcd2fc6a781bfed49188da1081670b22d881565b6106a56113eb565b6040516103f391906128cb565b6104196106c0366004612647565b60026020526000908152604090205481565b601954610419565b601b546001600160a01b03165b6040516001600160a01b0390911681526020016103f3565b6104ae61140b565b6103d2610715366004612647565b611417565b610419610728366004612647565b60056020526000908152604090205481565b6106e76107483660046128de565b611557565b6103e761075b366004612795565b611576565b6103e761076e3660046126da565b61159f565b6104ae6115d6565b6104197f46a52cf33029de9f84853745a87af28464c80bf0346df1b32e205fc73319f62281565b601c54610419565b6106a56115e2565b610419600081565b6107cd6107c8366004612900565b6115f5565b6040516103f39190612942565b6104196107e8366004612647565b60036020526000908152604090205481565b6106e761080836600461277c565b6116ea565b6103d261081b3660046129a4565b6116f7565b601a54610419565b610419600b5481565b6103d2611805565b6103d26118a9565b6103d261084f3660046126da565b6119c5565b61041961086236600461277c565b611ab2565b61061d611ac9565b6104ae611b0f565b6103d2610885366004612795565b611b1b565b610419610898366004612647565b60086020526000908152604090205481565b6104ae611b40565b6106e76108c0366004612647565b6009602052600090815260409020546001600160a01b031681565b6106e76108e9366004612647565b600a602052600090815260409020546001600160a01b031681565b610419610912366004612647565b611ce3565b61091f611da2565b6001600160a01b0381166000908152600860209081526040918290205482518084019093526002835261545360f01b9183019190915290428211156109805760405162461bcd60e51b815260040161097791906128cb565b60405180910390fd5b506040805180820190915260048152631395531360e21b6020820152816109ba5760405162461bcd60e51b815260040161097791906128cb565b506001600160a01b03808316600090815260096020908152604080832054600a90925290912080546001600160a01b031916919092161790556109fe601083611d8d565b506001600160a01b038216600090815260096020908152604080832080546001600160a01b03191690556008909152812055610a3b601283611de8565b506040516001600160a01b03831690339032907fbed845dc13e95e4cf248e05941119a9e8c8c7e79700599c07a2c86c527d9f78d90600090a45050565b60006001600160e01b0319821663ca11fe0360e01b1480610a9d5750610a9d82611dfd565b92915050565b610aab611da2565b6040805180820190915260048152631395531360e21b60208201526001600160a01b038216610aed5760405162461bcd60e51b815260040161097791906128cb565b506001600160a01b0381166000908152600a6020526040902080546001600160a01b0319169055610b1f601082611de8565b506040516001600160a01b03821690339032907f847e483f8de6bf96572128142c4ca8ea6846ac59ee9b73e06a4485157d64924490600090a450565b905090565b610b68611da2565b6040805180820190915260048152631395531360e21b60208201526001600160a01b038416610baa5760405162461bcd60e51b815260040161097791906128cb565b50610bb6600c84611d8d565b50610bc18282611e22565b6001600160a01b038416600090815260066020526040812091909155601a54610bea90426129e8565b6001600160a01b038516600081815260056020526040908190208390555191925090339032907f3e6606f969b1354b7fbac9654238e69d3844c5fc3d90fa6ae9b9d474236908fe90610c4190889088908890612a41565b60405180910390a450505050565b6060610b5b6012611e71565b610c63611da2565b6000610c6f6012611e7e565b905060005b818114610cd9576000610c88601282611e88565b6001600160a01b038116600090815260096020908152604080832080546001600160a01b031916905560089091528120559050610cc6601282611de8565b505080610cd290612a65565b9050610c74565b50604051339032907f26723c59f9cf42b0dee652fc4fb4c3fca21ccf8d77b988c733fecf8991bda69390600090a350565b6000610d367ff23ec0bb4210edd5cba85afd05127efcd2fc6a781bfed49188da1081670b22d883611576565b80610a9d5750610a9d7fc171260023d22a25a00a2789664c9334017843b831138c8ef03cc8897e5873d783611576565b600082815260208190526040902060010154610d8181611e94565b610d8b8383611e9e565b505050565b6001600160a01b0381163314610e005760405162461bcd60e51b815260206004820152602f60248201527f416363657373436f6e74726f6c3a2063616e206f6e6c792072656e6f756e636560448201526e103937b632b9903337b91039b2b63360891b6064820152608401610977565b610e0a8282611ec0565b5050565b610e16611da2565b6001600160a01b038116600090815260046020908152604091829020548251808401909352600583526412539594d560da1b918301919091529081610e6e5760405162461bcd60e51b815260040161097791906128cb565b50604080518082019091526002815261545360f01b602082015242821115610ea95760405162461bcd60e51b815260040161097791906128cb565b506001600160a01b038216600081815260036020908152604080832080546002845282852081905590849055600483528184209390935580519384529083018290529091339132917f99745c5bf4e5d496dd70013ac2b6bae4262c471986c2b157141d8c4d570bc039910160405180910390a3505050565b60408051808201909152600281526120ad60f11b60208201526001600160a01b038316610f615760405162461bcd60e51b815260040161097791906128cb565b50610f6a611da2565b6001600160a01b0382166000908152600360209081526040808320849055600290915290205415610fa757610fa262127500426129e8565b610fa9565b425b6001600160a01b038316600081815260046020908152604091829020939093558051918252918101839052339132917fc8a6c4dcd4038ea437d00baa434c23066bf4cc6cd661a55bcb754f58d670b6e5910160405180910390a35050565b6060611011611da2565b600061101d6012611e7e565b90508067ffffffffffffffff81111561103857611038612a80565b604051908082528060200260200182016040528015611061578160200160208202803683370190505b5091506000805b8281146111b057600061107c601283611e88565b6001600160a01b038116600090815260086020526040902054909150421061119e576001600160a01b03808216600090815260096020908152604080832054600a90925290912080546001600160a01b031916919092161790556110e1601082611d8d565b506001600160a01b038116600090815260096020908152604080832080546001600160a01b0319169055600890915281205561111e601282611de8565b508085848151811061113257611132612a96565b6001600160a01b039092166020928302919091019091015261115383612a65565b925061115e84612aac565b6040519094506001600160a01b03821690339032907fbed845dc13e95e4cf248e05941119a9e8c8c7e79700599c07a2c86c527d9f78d90600090a46111aa565b6111a782612a65565b91505b50611068565b5082525090565b6111bf611da2565b6111c881611ee2565b8060146111d58282612ac3565b5050601a546111e490426129e8565b600b819055604051339132917f57d7abf76a9762486b1c294e2ab4c95a80cc2f6b9516cab2e39b060b3d5928b29161121e91601490612b4d565b60405180910390a350565b6000610a9d7f46a52cf33029de9f84853745a87af28464c80bf0346df1b32e205fc73319f62283611576565b60606000611263600e611e7e565b90508067ffffffffffffffff81111561127e5761127e612a80565b6040519080825280602002602001820160405280156112a7578160200160208202803683370190505b5091506000600160ff85161b815b838110156113395760006112ca600e83611e88565b6001600160a01b038116600090815260076020526040902054909150831615611326578086858151811061130057611300612a96565b6001600160a01b03909216602092830291909101909101528361132281612a65565b9450505b508061133181612a65565b9150506112b5565b5050825250919050565b61134b6125fa565b506040805160a081018252601454815260155460208201526016546001600160a01b0316918101919091526017546060820152601854608082015290565b611391611da2565b6001600160a01b038116600081815260036020908152604080832083905560048252808320929092559051918252339132917fe157c01d7fdfb7981107455af06f96f3d8a289a8925529bb12d8a3706f2f9238910161121e565b6060610b5b7150726f746f636f6c476f7665726e616e636560701b611fbb565b6060610b5b600e611e71565b61141f611da2565b6001600160a01b0381166000908152600560209081526040918290205482518084019093526002835261545360f01b9183019190915290428211156114775760405162461bcd60e51b815260040161097791906128cb565b506040805180820190915260048152631395531360e21b6020820152816114b15760405162461bcd60e51b815260040161097791906128cb565b506001600160a01b0382166000908152600660209081526040808320546007909252909120805490911790556114e8600e83611d8d565b506001600160a01b0382166000908152600660209081526040808320839055600590915281205561151a600c83611de8565b506040516001600160a01b03831690339032907f50df548bb5b3a2ff8dd01f8aacf26b88153fba5b749e050b9874e021a6b4a7d190600090a45050565b600082815260016020526040812061156f9083611e88565b9392505050565b6000918252602082815260408084206001600160a01b0393909316845291905290205460ff1690565b6000806115ac8484611e22565b601c546001600160a01b038716600090815260076020526040902054178116149150509392505050565b6060610b5b600c611e71565b6060610b5b640312e302e360dc1b611fbb565b60608167ffffffffffffffff81111561161057611610612a80565b60405190808252806020026020018201604052801561164357816020015b606081526020019060019003908161162e5790505b50905060005b828110156116e3576116b33085858481811061166757611667612a96565b90506020028101906116799190612b61565b8080601f01602080910402602001604051908101604052809392919081815260200183838082843760009201919091525061202792505050565b8282815181106116c5576116c5612a96565b602002602001018190525080806116db90612a65565b915050611649565b5092915050565b6000610a9d601083611e88565b6116ff611da2565b6001600160a01b0382161580159061171f57506001600160a01b03811615155b6040518060400160405280600281526020016120ad60f11b815250906117585760405162461bcd60e51b815260040161097791906128cb565b50611764601283611d8d565b506001600160a01b03828116600090815260096020526040812080546001600160a01b03191692841692909217909155601a546117a190426129e8565b6001600160a01b0384811660008181526008602090815260409182902085905581519387168452830184905292935091339132917fbd765521cce68f9c3fc8945fb25cb99a6b8a6d0c03f086c1e9a7ea9a24b35d97910160405180910390a4505050565b61180d611da2565b6000611819600c611e7e565b905060005b818114611878576000611832600c82611e88565b6001600160a01b038116600090815260066020908152604080832083905560059091528120559050611865600c82611de8565b50508061187190612a65565b905061181e565b50604051339032907fe65fa0190ef93820f93988cc16cbbdd3a9615c87920a2ad4de5f6610d6e2710290600090a350565b6118b1611da2565b600b546040805180820190915260048152631395531360e21b6020820152906118ed5760405162461bcd60e51b815260040161097791906128cb565b50600b5442101560405180604001604052806002815260200161545360f01b8152509061192d5760405162461bcd60e51b815260040161097791906128cb565b5060148054601990815560158054601a5560168054601b80546001600160a01b03199081166001600160a01b0384161790915560178054601c5560188054601d55600097889055948790559116909155839055829055600b91909155604051339132917f9450ccd09ec91c0d60e02db0ad62489853f47c9d2312b4db049030912e45c82f916119bb91612ba8565b60405180910390a3565b6119cd611da2565b6040805180820190915260048152631395531360e21b60208201526001600160a01b038416611a0f5760405162461bcd60e51b815260040161097791906128cb565b506000611a1c8383611e22565b6001600160a01b03851660009081526007602052604090208054821981169182905591925080611a5357611a51600e87611de8565b505b856001600160a01b0316336001600160a01b0316326001600160a01b03167ff9133af9d3bddecefe06913c77827dcd75c3aba24b56e67afa215ef087598c9a8888604051611aa2929190612bb6565b60405180910390a4505050505050565b6000818152600160205260408120610a9d90611e7e565b611ad16125fa565b506040805160a0810182526019548152601a546020820152601b546001600160a01b031691810191909152601c546060820152601d54608082015290565b6060610b5b6010611e71565b600082815260208190526040902060010154611b3681611e94565b610d8b8383611ec0565b6060611b4a611da2565b6000611b56600c611e7e565b9050808067ffffffffffffffff811115611b7257611b72612a80565b604051908082528060200260200182016040528015611b9b578160200160208202803683370190505b50925060005b818114611ccf576000611bb5600c83611e88565b6001600160a01b0381166000908152600560205260409020549091504210611cbd576001600160a01b038116600090815260066020908152604080832054600790925290912080549091179055611c0d600e82611d8d565b506001600160a01b03811660009081526006602090815260408083208390556005909152812055611c3f600c82611de8565b508085611c4c8587612bca565b81518110611c5c57611c5c612a96565b6001600160a01b0390921660209283029190910190910152611c7d83612aac565b6040519093506001600160a01b03821690339032907f50df548bb5b3a2ff8dd01f8aacf26b88153fba5b749e050b9874e021a6b4a7d190600090a4611cc9565b611cc682612a65565b91505b50611ba1565b50611cda8183612bca565b83525090919050565b6001600160a01b038116600090815260026020526040812054601d54610a9d9190612be1565b611d138282611576565b610e0a576000828152602081815260408083206001600160a01b03851684529091529020805460ff19166001179055611d493390565b6001600160a01b0316816001600160a01b0316837f2f8788117e7eff1d82e926ec794901d17c78024a50270940304540a733656f0d60405160405180910390a45050565b600061156f836001600160a01b03841661204c565b611dab33610d0a565b6040518060400160405280600381526020016223292160e91b81525090611de55760405162461bcd60e51b815260040161097791906128cb565b50565b600061156f836001600160a01b03841661209b565b60006001600160e01b0319821663d7c7e3a760e01b1480610a9d5750610a9d8261218e565b6000805b828110156116e357838382818110611e4057611e40612a96565b9050602002016020810190611e559190612854565b60ff166001901b8217915080611e6a90612a65565b9050611e26565b6060600061156f836121b3565b6000610a9d825490565b600061156f838361220f565b611de58133612239565b611ea88282611d09565b6000828152600160205260409020610d8b9082611d8d565b611eca8282612292565b6000828152600160205260409020610d8b9082611de8565b803515801590611ef55750602081013515155b604051806040016040528060048152602001631395531360e21b81525090611f305760405162461bcd60e51b815260040161097791906128cb565b5062093a8081602001351115604051806040016040528060048152602001634c494d4f60e01b81525090611f775760405162461bcd60e51b815260040161097791906128cb565b506040805180820190915260048152634c494d4f60e01b602082015262030d4060808301351015610e0a5760405162461bcd60e51b815260040161097791906128cb565b604080516020808252818301909252606091602082018180368337019050509050602060005b602081101561201957838160208110611ffc57611ffc612a96565b1a61200957809150612019565b61201281612a65565b9050611fe1565b508152602081019190915290565b606061156f8383604051806060016040528060278152602001612ca8602791396122f7565b600081815260018301602052604081205461209357508154600181810184556000848152602080822090930184905584548482528286019093526040902091909155610a9d565b506000610a9d565b600081815260018301602052604081205480156121845760006120bf600183612bca565b85549091506000906120d390600190612bca565b90508181146121385760008660000182815481106120f3576120f3612a96565b906000526020600020015490508087600001848154811061211657612116612a96565b6000918252602080832090910192909255918252600188019052604090208390555b855486908061214957612149612c00565b600190038181906000526020600020016000905590558560010160008681526020019081526020016000206000905560019350505050610a9d565b6000915050610a9d565b60006001600160e01b03198216635a05180f60e01b1480610a9d5750610a9d8261236f565b60608160000180548060200260200160405190810160405280929190818152602001828054801561220357602002820191906000526020600020905b8154815260200190600101908083116121ef575b50505050509050919050565b600082600001828154811061222657612226612a96565b9060005260206000200154905092915050565b6122438282611576565b610e0a57612250816123a4565b61225b8360206123b6565b60405160200161226c929190612c16565b60408051601f198184030181529082905262461bcd60e51b8252610977916004016128cb565b61229c8282611576565b15610e0a576000828152602081815260408083206001600160a01b0385168085529252808320805460ff1916905551339285917ff6391f5c32d9c69d2a47ea670b442974b53935d1edc7fd64eb21e047a839171b9190a45050565b6060600080856001600160a01b0316856040516123149190612c8b565b600060405180830381855af49150503d806000811461234f576040519150601f19603f3d011682016040523d82523d6000602084013e612354565b606091505b509150915061236586838387612552565b9695505050505050565b60006001600160e01b03198216637965db0b60e01b1480610a9d57506301ffc9a760e01b6001600160e01b0319831614610a9d565b6060610a9d6001600160a01b03831660145b606060006123c5836002612be1565b6123d09060026129e8565b67ffffffffffffffff8111156123e8576123e8612a80565b6040519080825280601f01601f191660200182016040528015612412576020820181803683370190505b509050600360fc1b8160008151811061242d5761242d612a96565b60200101906001600160f81b031916908160001a905350600f60fb1b8160018151811061245c5761245c612a96565b60200101906001600160f81b031916908160001a9053506000612480846002612be1565b61248b9060016129e8565b90505b6001811115612503576f181899199a1a9b1b9c1cb0b131b232b360811b85600f16601081106124bf576124bf612a96565b1a60f81b8282815181106124d5576124d5612a96565b60200101906001600160f81b031916908160001a90535060049490941c936124fc81612aac565b905061248e565b50831561156f5760405162461bcd60e51b815260206004820181905260248201527f537472696e67733a20686578206c656e67746820696e73756666696369656e746044820152606401610977565b606083156125be5782516125b7576001600160a01b0385163b6125b75760405162461bcd60e51b815260206004820152601d60248201527f416464726573733a2063616c6c20746f206e6f6e2d636f6e74726163740000006044820152606401610977565b50816125c8565b6125c883836125d0565b949350505050565b8151156125e05781518083602001fd5b8060405162461bcd60e51b815260040161097791906128cb565b6040518060a00160405280600081526020016000815260200160006001600160a01b0316815260200160008152602001600081525090565b6001600160a01b0381168114611de557600080fd5b60006020828403121561265957600080fd5b813561156f81612632565b60006020828403121561267657600080fd5b81356001600160e01b03198116811461156f57600080fd5b60008083601f8401126126a057600080fd5b50813567ffffffffffffffff8111156126b857600080fd5b6020830191508360208260051b85010111156126d357600080fd5b9250929050565b6000806000604084860312156126ef57600080fd5b83356126fa81612632565b9250602084013567ffffffffffffffff81111561271657600080fd5b6127228682870161268e565b9497909650939450505050565b6020808252825182820181905260009190848201906040850190845b818110156127705783516001600160a01b03168352928401929184019160010161274b565b50909695505050505050565b60006020828403121561278e57600080fd5b5035919050565b600080604083850312156127a857600080fd5b8235915060208301356127ba81612632565b809150509250929050565b600080604083850312156127d857600080fd5b82356127e381612632565b946020939093013593505050565b600060a0828403121561280357600080fd5b50919050565b803560ff8116811461281a57600080fd5b919050565b6000806040838503121561283257600080fd5b823561283d81612632565b915061284b60208401612809565b90509250929050565b60006020828403121561286657600080fd5b61156f82612809565b60005b8381101561288a578181015183820152602001612872565b83811115612899576000848401525b50505050565b600081518084526128b781602086016020860161286f565b601f01601f19169290920160200192915050565b60208152600061156f602083018461289f565b600080604083850312156128f157600080fd5b50508035926020909101359150565b6000806020838503121561291357600080fd5b823567ffffffffffffffff81111561292a57600080fd5b6129368582860161268e565b90969095509350505050565b6000602080830181845280855180835260408601915060408160051b870101925083870160005b8281101561299757603f1988860301845261298585835161289f565b94509285019290850190600101612969565b5092979650505050505050565b600080604083850312156129b757600080fd5b82356129c281612632565b915060208301356127ba81612632565b634e487b7160e01b600052601160045260246000fd5b600082198211156129fb576129fb6129d2565b500190565b8183526000602080850194508260005b85811015612a365760ff612a2383612809565b1687529582019590820190600101612a10565b509495945050505050565b604081526000612a55604083018587612a00565b9050826020830152949350505050565b6000600019821415612a7957612a796129d2565b5060010190565b634e487b7160e01b600052604160045260246000fd5b634e487b7160e01b600052603260045260246000fd5b600081612abb57612abb6129d2565b506000190190565b8135815560208201356001820155600281016040830135612ae381612632565b81546001600160a01b0319166001600160a01b039190911617905560608201356003820155608090910135600490910155565b805482526001810154602083015260028101546001600160a01b031660408301526003810154606083015260040154608090910152565b82815260c0810161156f6020830184612b16565b6000808335601e19843603018112612b7857600080fd5b83018035915067ffffffffffffffff821115612b9357600080fd5b6020019150368190038213156126d357600080fd5b60a08101610a9d8284612b16565b6020815260006125c8602083018486612a00565b600082821015612bdc57612bdc6129d2565b500390565b6000816000190483118215151615612bfb57612bfb6129d2565b500290565b634e487b7160e01b600052603160045260246000fd5b7f416363657373436f6e74726f6c3a206163636f756e7420000000000000000000815260008351612c4e81601785016020880161286f565b7001034b99036b4b9b9b4b733903937b6329607d1b6017918401918201528351612c7f81602884016020880161286f565b01602801949350505050565b60008251612c9d81846020870161286f565b919091019291505056fe416464726573733a206c6f772d6c6576656c2064656c65676174652063616c6c206661696c6564a264697066735822122079200ff270ec8e56aee3994914368c7fb2b4d4e97a7025a3454609bc8f8c1d2c64736f6c63430008090033f23ec0bb4210edd5cba85afd05127efcd2fc6a781bfed49188da1081670b22d846a52cf33029de9f84853745a87af28464c80bf0346df1b32e205fc73319f622",
    "linkReferences": {}
  },
  "methodIdentifiers": {
    "ADMIN_DELEGATE_ROLE()": "0952ff54",
    "ADMIN_ROLE()": "75b238fc",
    "DEFAULT_ADMIN_ROLE()": "a217fddf",
    "DELAY()": "69b41170",
    "MAX_GOVERNANCE_DELAY()": "0ea55636",
    "MIN_WITHDRAW_LIMIT()": "63d21c75",
    "OPERATOR()": "983d2737",
    "addressesByPermission(uint8)": "717af5ed",
    "commitAllPermissionGrantsSurpassedDelay()": "e970164c",
    "commitAllValidatorsSurpassedDelay()": "577848ea",
    "commitParams()": "bd7692f7",
    "commitPermissionGrants(address)": "887b812d",
    "commitUnitPrice(address)": "3837a1a3",
    "commitValidator(address)": "0161c241",
    "contractName()": "75d0c0dc",
    "contractNameBytes()": "0e3e80ac",
    "contractVersion()": "a0a8e460",
    "contractVersionBytes()": "06a46239",
    "forceAllowMask()": "99fb4234",
    "getRoleAdmin(bytes32)": "248a9ca3",
    "getRoleMember(bytes32,uint256)": "9010d07c",
    "getRoleMemberCount(bytes32)": "ca15c873",
    "governanceDelay()": "bba32939",
    "grantRole(bytes32,address)": "2f2ff15d",
    "hasAllPermissions(address,uint8[])": "9348e4ec",
    "hasPermission(address,uint8)": "63e85d2d",
    "hasRole(bytes32,address)": "91d14854",
    "isAdmin(address)": "24d7806c",
    "isOperator(address)": "6d70f7ae",
    "maxTokensPerVault()": "78546fa2",
    "multicall(bytes[])": "ac9650d8",
    "params()": "cff0ab96",
    "permissionAddresses()": "806bc2f1",
    "permissionMasks(address)": "64cd39af",
    "protocolTreasury()": "803db96d",
    "renounceRole(bytes32,address)": "36568abe",
    "revokePermissions(address,uint8[])": "c7e6ab05",
    "revokeRole(bytes32,address)": "d547741f",
    "revokeValidator(address)": "047564b7",
    "rollbackStagedPermissionGrants()": "bd674f3a",
    "rollbackStagedValidators()": "1dd02197",
    "rollbackUnitPrice(address)": "73680db4",
    "stageParams((uint256,uint256,address,uint256,uint256))": "5c1e4448",
    "stagePermissionGrants(address,uint8[])": "1c3a2341",
    "stageUnitPrice(address,uint256)": "56f46d72",
    "stageValidator(address,address)": "b521bf2d",
    "stagedParams()": "731c01a9",
    "stagedParamsTimestamp()": "bd66b16e",
    "stagedPermissionGrantsAddresses()": "95e3a12d",
    "stagedPermissionGrantsMasks(address)": "2a4ebb41",
    "stagedPermissionGrantsTimestamps(address)": "8e35b028",
    "stagedUnitPrices(address)": "ae24e14a",
    "stagedUnitPricesTimestamps(address)": "12c2d874",
    "stagedValidators(address)": "f7fcd303",
    "stagedValidatorsAddresses()": "1c5afc46",
    "stagedValidatorsTimestamps(address)": "d65c5e6b",
    "supportsInterface(bytes4)": "01ffc9a7",
    "unitPrices(address)": "768a1bfc",
    "validators(address)": "fa52c7d8",
    "validatorsAddress(uint256)": "b3ff103c",
    "validatorsAddresses()": "d1bf2a6b",
    "withdrawLimit(address)": "fce33f01"
  },
  "id": 56
}