{
  "abi": [
    {
      "inputs": [
        {
          "internalType": "string",
          "name": "name",
          "type": "string"
        },
        {
          "internalType": "string",
          "name": "symbol",
          "type": "string"
        },
        {
          "internalType": "contract IProtocolGovernance",
          "name": "protocolGovernance_",
          "type": "address"
        }
      ],
      "stateMutability": "nonpayable",
      "type": "constructor"
    },
    {
      "anonymous": false,
      "inputs": [
        {
          "indexed": true,
          "internalType": "address",
          "name": "owner",
          "type": "address"
        },
        {
          "indexed": true,
          "internalType": "address",
          "name": "approved",
          "type": "address"
        },
        {
          "indexed": true,
          "internalType": "uint256",
          "name": "tokenId",
          "type": "uint256"
        }
      ],
      "name": "Approval",
      "type": "event"
    },
    {
      "anonymous": false,
      "inputs": [
        {
          "indexed": true,
          "internalType": "address",
          "name": "owner",
          "type": "address"
        },
        {
          "indexed": true,
          "internalType": "address",
          "name": "operator",
          "type": "address"
        },
        {
          "indexed": false,
          "internalType": "bool",
          "name": "approved",
          "type": "bool"
        }
      ],
      "name": "ApprovalForAll",
      "type": "event"
    },
    {
      "anonymous": false,
      "inputs": [
        {
          "indexed": true,
          "internalType": "address",
          "name": "origin",
          "type": "address"
        },
        {
          "indexed": true,
          "internalType": "address",
          "name": "sender",
          "type": "address"
        },
        {
          "indexed": false,
          "internalType": "contract IProtocolGovernance",
          "name": "newProtocolGovernance",
          "type": "address"
        }
      ],
      "name": "CommitedProtocolGovernance",
      "type": "event"
    },
    {
      "anonymous": false,
      "inputs": [
        {
          "indexed": true,
          "internalType": "address",
          "name": "origin",
          "type": "address"
        },
        {
          "indexed": true,
          "internalType": "address",
          "name": "sender",
          "type": "address"
        },
        {
          "indexed": false,
          "internalType": "contract IProtocolGovernance",
          "name": "newProtocolGovernance",
          "type": "address"
        },
        {
          "indexed": false,
          "internalType": "uint256",
          "name": "start",
          "type": "uint256"
        }
      ],
      "name": "StagedProtocolGovernance",
      "type": "event"
    },
    {
      "anonymous": false,
      "inputs": [
        {
          "indexed": true,
          "internalType": "address",
          "name": "origin",
          "type": "address"
        },
        {
          "indexed": true,
          "internalType": "address",
          "name": "sender",
          "type": "address"
        },
        {
          "indexed": true,
          "internalType": "uint256",
          "name": "nft",
          "type": "uint256"
        }
      ],
      "name": "TokenLocked",
      "type": "event"
    },
    {
      "anonymous": false,
      "inputs": [
        {
          "indexed": true,
          "internalType": "address",
          "name": "from",
          "type": "address"
        },
        {
          "indexed": true,
          "internalType": "address",
          "name": "to",
          "type": "address"
        },
        {
          "indexed": true,
          "internalType": "uint256",
          "name": "tokenId",
          "type": "uint256"
        }
      ],
      "name": "Transfer",
      "type": "event"
    },
    {
      "anonymous": false,
      "inputs": [
        {
          "indexed": true,
          "internalType": "address",
          "name": "origin",
          "type": "address"
        },
        {
          "indexed": true,
          "internalType": "address",
          "name": "sender",
          "type": "address"
        },
        {
          "indexed": true,
          "internalType": "uint256",
          "name": "nft",
          "type": "uint256"
        },
        {
          "indexed": false,
          "internalType": "address",
          "name": "vault",
          "type": "address"
        },
        {
          "indexed": false,
          "internalType": "address",
          "name": "owner",
          "type": "address"
        }
      ],
      "name": "VaultRegistered",
      "type": "event"
    },
    {
      "inputs": [
        {
          "internalType": "address",
          "name": "to",
          "type": "address"
        },
        {
          "internalType": "uint256",
          "name": "tokenId",
          "type": "uint256"
        }
      ],
      "name": "approve",
      "outputs": [],
      "stateMutability": "nonpayable",
      "type": "function"
    },
    {
      "inputs": [
        {
          "internalType": "address",
          "name": "owner",
          "type": "address"
        }
      ],
      "name": "balanceOf",
      "outputs": [
        {
          "internalType": "uint256",
          "name": "",
          "type": "uint256"
        }
      ],
      "stateMutability": "view",
      "type": "function"
    },
    {
      "inputs": [],
      "name": "commitStagedProtocolGovernance",
      "outputs": [],
      "stateMutability": "nonpayable",
      "type": "function"
    },
    {
      "inputs": [],
      "name": "contractName",
      "outputs": [
        {
          "internalType": "string",
          "name": "",
          "type": "string"
        }
      ],
      "stateMutability": "pure",
      "type": "function"
    },
    {
      "inputs": [],
      "name": "contractNameBytes",
      "outputs": [
        {
          "internalType": "bytes32",
          "name": "",
          "type": "bytes32"
        }
      ],
      "stateMutability": "pure",
      "type": "function"
    },
    {
      "inputs": [],
      "name": "contractVersion",
      "outputs": [
        {
          "internalType": "string",
          "name": "",
          "type": "string"
        }
      ],
      "stateMutability": "pure",
      "type": "function"
    },
    {
      "inputs": [],
      "name": "contractVersionBytes",
      "outputs": [
        {
          "internalType": "bytes32",
          "name": "",
          "type": "bytes32"
        }
      ],
      "stateMutability": "pure",
      "type": "function"
    },
    {
      "inputs": [
        {
          "internalType": "uint256",
          "name": "tokenId",
          "type": "uint256"
        }
      ],
      "name": "getApproved",
      "outputs": [
        {
          "internalType": "address",
          "name": "",
          "type": "address"
        }
      ],
      "stateMutability": "view",
      "type": "function"
    },
    {
      "inputs": [
        {
          "internalType": "address",
          "name": "owner",
          "type": "address"
        },
        {
          "internalType": "address",
          "name": "operator",
          "type": "address"
        }
      ],
      "name": "isApprovedForAll",
      "outputs": [
        {
          "internalType": "bool",
          "name": "",
          "type": "bool"
        }
      ],
      "stateMutability": "view",
      "type": "function"
    },
    {
      "inputs": [
        {
          "internalType": "uint256",
          "name": "nft",
          "type": "uint256"
        }
      ],
      "name": "isLocked",
      "outputs": [
        {
          "internalType": "bool",
          "name": "",
          "type": "bool"
        }
      ],
      "stateMutability": "view",
      "type": "function"
    },
    {
      "inputs": [
        {
          "internalType": "uint256",
          "name": "nft",
          "type": "uint256"
        }
      ],
      "name": "lockNft",
      "outputs": [],
      "stateMutability": "nonpayable",
      "type": "function"
    },
    {
      "inputs": [],
      "name": "name",
      "outputs": [
        {
          "internalType": "string",
          "name": "",
          "type": "string"
        }
      ],
      "stateMutability": "view",
      "type": "function"
    },
    {
      "inputs": [
        {
          "internalType": "address",
          "name": "vault",
          "type": "address"
        }
      ],
      "name": "nftForVault",
      "outputs": [
        {
          "internalType": "uint256",
          "name": "",
          "type": "uint256"
        }
      ],
      "stateMutability": "view",
      "type": "function"
    },
    {
      "inputs": [
        {
          "internalType": "uint256",
          "name": "tokenId",
          "type": "uint256"
        }
      ],
      "name": "ownerOf",
      "outputs": [
        {
          "internalType": "address",
          "name": "",
          "type": "address"
        }
      ],
      "stateMutability": "view",
      "type": "function"
    },
    {
      "inputs": [],
      "name": "protocolGovernance",
      "outputs": [
        {
          "internalType": "contract IProtocolGovernance",
          "name": "",
          "type": "address"
        }
      ],
      "stateMutability": "view",
      "type": "function"
    },
    {
      "inputs": [
        {
          "internalType": "address",
          "name": "vault",
          "type": "address"
        },
        {
          "internalType": "address",
          "name": "owner",
          "type": "address"
        }
      ],
      "name": "registerVault",
      "outputs": [
        {
          "internalType": "uint256",
          "name": "nft",
          "type": "uint256"
        }
      ],
      "stateMutability": "nonpayable",
      "type": "function"
    },
    {
      "inputs": [
        {
          "internalType": "address",
          "name": "from",
          "type": "address"
        },
        {
          "internalType": "address",
          "name": "to",
          "type": "address"
        },
        {
          "internalType": "uint256",
          "name": "tokenId",
          "type": "uint256"
        }
      ],
      "name": "safeTransferFrom",
      "outputs": [],
      "stateMutability": "nonpayable",
      "type": "function"
    },
    {
      "inputs": [
        {
          "internalType": "address",
          "name": "from",
          "type": "address"
        },
        {
          "internalType": "address",
          "name": "to",
          "type": "address"
        },
        {
          "internalType": "uint256",
          "name": "tokenId",
          "type": "uint256"
        },
        {
          "internalType": "bytes",
          "name": "data",
          "type": "bytes"
        }
      ],
      "name": "safeTransferFrom",
      "outputs": [],
      "stateMutability": "nonpayable",
      "type": "function"
    },
    {
      "inputs": [
        {
          "internalType": "address",
          "name": "operator",
          "type": "address"
        },
        {
          "internalType": "bool",
          "name": "approved",
          "type": "bool"
        }
      ],
      "name": "setApprovalForAll",
      "outputs": [],
      "stateMutability": "nonpayable",
      "type": "function"
    },
    {
      "inputs": [
        {
          "internalType": "contract IProtocolGovernance",
          "name": "newProtocolGovernance",
          "type": "address"
        }
      ],
      "name": "stageProtocolGovernance",
      "outputs": [],
      "stateMutability": "nonpayable",
      "type": "function"
    },
    {
      "inputs": [],
      "name": "stagedProtocolGovernance",
      "outputs": [
        {
          "internalType": "contract IProtocolGovernance",
          "name": "",
          "type": "address"
        }
      ],
      "stateMutability": "view",
      "type": "function"
    },
    {
      "inputs": [],
      "name": "stagedProtocolGovernanceTimestamp",
      "outputs": [
        {
          "internalType": "uint256",
          "name": "",
          "type": "uint256"
        }
      ],
      "stateMutability": "view",
      "type": "function"
    },
    {
      "inputs": [
        {
          "internalType": "bytes4",
          "name": "interfaceId",
          "type": "bytes4"
        }
      ],
      "name": "supportsInterface",
      "outputs": [
        {
          "internalType": "bool",
          "name": "",
          "type": "bool"
        }
      ],
      "stateMutability": "view",
      "type": "function"
    },
    {
      "inputs": [],
      "name": "symbol",
      "outputs": [
        {
          "internalType": "string",
          "name": "",
          "type": "string"
        }
      ],
      "stateMutability": "view",
      "type": "function"
    },
    {
      "inputs": [
        {
          "internalType": "uint256",
          "name": "tokenId",
          "type": "uint256"
        }
      ],
      "name": "tokenURI",
      "outputs": [
        {
          "internalType": "string",
          "name": "",
          "type": "string"
        }
      ],
      "stateMutability": "view",
      "type": "function"
    },
    {
      "inputs": [
        {
          "internalType": "address",
          "name": "from",
          "type": "address"
        },
        {
          "internalType": "address",
          "name": "to",
          "type": "address"
        },
        {
          "internalType": "uint256",
          "name": "tokenId",
          "type": "uint256"
        }
      ],
      "name": "transferFrom",
      "outputs": [],
      "stateMutability": "nonpayable",
      "type": "function"
    },
    {
      "inputs": [
        {
          "internalType": "uint256",
          "name": "nft",
          "type": "uint256"
        }
      ],
      "name": "vaultForNft",
      "outputs": [
        {
          "internalType": "address",
          "name": "",
          "type": "address"
        }
      ],
      "stateMutability": "view",
      "type": "function"
    },
    {
      "inputs": [],
      "name": "vaults",
      "outputs": [
        {
          "internalType": "address[]",
          "name": "",
          "type": "address[]"
        }
      ],
      "stateMutability": "view",
      "type": "function"
    },
    {
      "inputs": [],
      "name": "vaultsCount",
      "outputs": [
        {
          "internalType": "uint256",
          "name": "",
          "type": "uint256"
        }
      ],
      "stateMutability": "view",
      "type": "function"
    }
  ],
  "bytecode": {
    "object": "0x60806040526001600d553480156200001657600080fd5b506040516200213038038062002130833981016040819052620000399162000208565b8251839083906200005290600090602085019062000095565b5080516200006890600190602084019062000095565b5050600780546001600160a01b0319166001600160a01b03939093169290921790915550620002d2915050565b828054620000a39062000295565b90600052602060002090601f016020900481019282620000c7576000855562000112565b82601f10620000e257805160ff191683800117855562000112565b8280016001018555821562000112579182015b8281111562000112578251825591602001919060010190620000f5565b506200012092915062000124565b5090565b5b8082111562000120576000815560010162000125565b634e487b7160e01b600052604160045260246000fd5b600082601f8301126200016357600080fd5b81516001600160401b03808211156200018057620001806200013b565b604051601f8301601f19908116603f01168101908282118183101715620001ab57620001ab6200013b565b81604052838152602092508683858801011115620001c857600080fd5b600091505b83821015620001ec5785820183015181830184015290820190620001cd565b83821115620001fe5760008385830101525b9695505050505050565b6000806000606084860312156200021e57600080fd5b83516001600160401b03808211156200023657600080fd5b620002448783880162000151565b945060208601519150808211156200025b57600080fd5b506200026a8682870162000151565b604086015190935090506001600160a01b03811681146200028a57600080fd5b809150509250925092565b600181811c90821680620002aa57607f821691505b60208210811415620002cc57634e487b7160e01b600052602260045260246000fd5b50919050565b611e4e80620002e26000396000f3fe608060405234801561001057600080fd5b50600436106101cf5760003560e01c806370a08231116101045780639c94d853116100a2578063c87b56dd11610071578063c87b56dd146103be578063e985e9c5146103d1578063f6aacfb11461040d578063fcdabd271461043057600080fd5b80639c94d85314610367578063a0a8e46014610390578063a22cb46514610398578063b88d4fde146103ab57600080fd5b806382e9f71f116100de57806382e9f71f1461033e578063889777381461034f57806395cdb9a51461035757806395d89b411461035f57600080fd5b806370a082311461030e57806375d0c0dc146103215780638220ef5b1461032957600080fd5b80630e3e80ac1161017157806342842e0e1161014b57806342842e0e146102c45780634dcbc739146102d75780635227ce4c146102ea5780636352211e146102fb57600080fd5b80630e3e80ac1461028857806323b872dd1461029e5780633be0539c146102b157600080fd5b806306a46239116101ad57806306a462391461022757806306fdde0314610235578063081812fc1461024a578063095ea7b31461027557600080fd5b806301ffc9a7146101d45780630407ca13146101fc57806305c4fdf914610206575b600080fd5b6101e76101e23660046118e3565b610459565b60405190151581526020015b60405180910390f35b610204610485565b005b610219610214366004611915565b6105b6565b6040519081526020016101f3565b640312e302e360dc1b610219565b61023d6108bb565b6040516101f391906119a6565b61025d6102583660046119b9565b61094d565b6040516001600160a01b0390911681526020016101f3565b6102046102833660046119d2565b610974565b6c5661756c74526567697374727960981b610219565b6102046102ac3660046119fe565b610a8a565b6102046102bf366004611a3f565b610abb565b6102046102d23660046119fe565b610c2e565b6102046102e53660046119b9565b610c49565b6007546001600160a01b031661025d565b61025d6103093660046119b9565b610cdf565b61021961031c366004611a3f565b610d3f565b61023d610dc5565b610331610de0565b6040516101f39190611a5c565b6008546001600160a01b031661025d565b600954610219565b600654610219565b61023d610e41565b61025d6103753660046119b9565b6000908152600b60205260409020546001600160a01b031690565b61023d610e50565b6102046103a6366004611ab7565b610e63565b6102046103b9366004611afb565b610e72565b61023d6103cc3660046119b9565b610eaa565b6101e76103df366004611915565b6001600160a01b03918216600090815260056020908152604080832093909416825291909152205460ff1690565b6101e761041b3660046119b9565b6000908152600c602052604090205460ff1690565b61021961043e366004611a3f565b6001600160a01b03166000908152600a602052604090205490565b600061046482610f1e565b8061047f575063aeb8111f60e01b6001600160e01b03198316145b92915050565b61048e33610f6e565b6040518060400160405280600381526020016223292160e91b815250906104d15760405162461bcd60e51b81526004016104c891906119a6565b60405180910390fd5b506006546040805180820190915260048152631253925560e21b60208201529061050e5760405162461bcd60e51b81526004016104c891906119a6565b5060065442101560405180604001604052806002815260200161545360f01b8152509061054e5760405162461bcd60e51b81526004016104c891906119a6565b5060088054600780546001600160a01b0383166001600160a01b031991821681179092556000600655909116909155604051908152339032907f4028a967f323e2e5c0f132491efcd9aab74518c58755d2902f68e15bddf7f0b99060200160405180910390a3565b60408051808201909152600281526120ad60f11b60208201526000906001600160a01b0383166105f95760405162461bcd60e51b81526004016104c891906119a6565b506040516301ffc9a760e01b815263305a640b60e21b60048201526001600160a01b038416906301ffc9a79060240160206040518083038186803b15801561064057600080fd5b505afa158015610654573d6000803e3d6000fd5b505050506040513d601f19601f820116820180604052508101906106789190611bdb565b60405180604001604052806004815260200163494e564960e01b815250906106b35760405162461bcd60e51b81526004016104c891906119a6565b506007546040516363e85d2d60e01b8152336004820152600060248201526001600160a01b03909116906363e85d2d9060440160206040518083038186803b1580156106fe57600080fd5b505afa158015610712573d6000803e3d6000fd5b505050506040513d601f19601f820116820180604052508101906107369190611bdb565b6040518060400160405280600381526020016223292160e91b815250906107705760405162461bcd60e51b81526004016104c891906119a6565b506001600160a01b0383166000908152600a6020908152604091829020548251808401909352600383526204455560ec1b91830191909152156107c65760405162461bcd60e51b81526004016104c891906119a6565b5050600d80546000818152600b6020908152604080832080546001600160a01b0389166001600160a01b03199182168117909255818552600a90935290832084905560098054600181810183559185527f6e1540171b6c0c960b71a7020d9f60077f6af931a8bbf590da0223dacf75c7af018054909316909117909155835492939092909190610857908490611c0e565b9091555061086790508282610fec565b604080516001600160a01b038581168252841660208201528291339132917f2e7d565a40aae7fc212bb3ec8f236059403cc2a1687d17b98dfef745b5ff4eda910160405180910390a492915050565b905090565b6060600080546108ca90611c26565b80601f01602080910402602001604051908101604052809291908181526020018280546108f690611c26565b80156109435780601f1061091857610100808354040283529160200191610943565b820191906000526020600020905b81548152906001019060200180831161092657829003601f168201915b5050505050905090565b600061095882611006565b506000908152600460205260409020546001600160a01b031690565b600061097f82610cdf565b9050806001600160a01b0316836001600160a01b031614156109ed5760405162461bcd60e51b815260206004820152602160248201527f4552433732313a20617070726f76616c20746f2063757272656e74206f776e656044820152603960f91b60648201526084016104c8565b336001600160a01b0382161480610a095750610a0981336103df565b610a7b5760405162461bcd60e51b815260206004820152603d60248201527f4552433732313a20617070726f76652063616c6c6572206973206e6f7420746f60448201527f6b656e206f776e6572206f7220617070726f76656420666f7220616c6c00000060648201526084016104c8565b610a858383611068565b505050565b610a9433826110d6565b610ab05760405162461bcd60e51b81526004016104c890611c61565b610a85838383611155565b610ac433610f6e565b6040518060400160405280600381526020016223292160e91b81525090610afe5760405162461bcd60e51b81526004016104c891906119a6565b5060408051808201909152600281526120ad60f11b60208201526001600160a01b038216610b3f5760405162461bcd60e51b81526004016104c891906119a6565b50600880546001600160a01b0319166001600160a01b03838116919091179091556007546040805163bba3293960e01b81529051919092169163bba32939916004808301926020929190829003018186803b158015610b9d57600080fd5b505afa158015610bb1573d6000803e3d6000fd5b505050506040513d601f19601f82011682018060405250810190610bd59190611cae565b610bdf9042611c0e565b6006819055604080516001600160a01b03841681526020810192909252339132917f3a13629a2c6c5c36580157266cf38218a43645aaa8e24dde67543ed62063879b910160405180910390a350565b610a8583838360405180602001604052806000815250610e72565b33610c5382610cdf565b6001600160a01b0316146040518060400160405280600381526020016223292160e91b81525090610c975760405162461bcd60e51b81526004016104c891906119a6565b506000818152600c6020526040808220805460ff19166001179055518291339132917f991b8e8a2e2b8ff515f7045174eeb52eb4868e69c5bb4259da6146a93c77574d91a450565b6000818152600260205260408120546001600160a01b03168061047f5760405162461bcd60e51b8152602060048201526018602482015277115490cdcc8c4e881a5b9d985b1a59081d1bdad95b88125160421b60448201526064016104c8565b60006001600160a01b038216610da95760405162461bcd60e51b815260206004820152602960248201527f4552433732313a2061646472657373207a65726f206973206e6f7420612076616044820152683634b21037bbb732b960b91b60648201526084016104c8565b506001600160a01b031660009081526003602052604090205490565b60606108b66c5661756c74526567697374727960981b6112c4565b6060600980548060200260200160405190810160405280929190818152602001828054801561094357602002820191906000526020600020905b81546001600160a01b03168152600190910190602001808311610e1a575050505050905090565b6060600180546108ca90611c26565b60606108b6640312e302e360dc1b6112c4565b610e6e338383611330565b5050565b610e7c33836110d6565b610e985760405162461bcd60e51b81526004016104c890611c61565b610ea4848484846113ff565b50505050565b6060610eb582611006565b6000610ecc60408051602081019091526000815290565b90506000815111610eec5760405180602001604052806000815250610f17565b80610ef684611432565b604051602001610f07929190611cc7565b6040516020818303038152906040525b9392505050565b60006001600160e01b031982166380ac58cd60e01b1480610f4f57506001600160e01b03198216635b5e139f60e01b145b8061047f57506301ffc9a760e01b6001600160e01b031983161461047f565b600754604051630935e01b60e21b81526001600160a01b03838116600483015260009216906324d7806c9060240160206040518083038186803b158015610fb457600080fd5b505afa158015610fc8573d6000803e3d6000fd5b505050506040513d601f19601f8201168201806040525081019061047f9190611bdb565b610e6e8282604051806020016040528060008152506114cf565b6000818152600260205260409020546001600160a01b03166110655760405162461bcd60e51b8152602060048201526018602482015277115490cdcc8c4e881a5b9d985b1a59081d1bdad95b88125160421b60448201526064016104c8565b50565b600081815260046020526040902080546001600160a01b0319166001600160a01b038416908117909155819061109d82610cdf565b6001600160a01b03167f8c5be1e5ebec7d5bd14f71427d1e84f3dd0314c0f7b2291e5b200ac8c7c3b92560405160405180910390a45050565b6000806110e283610cdf565b9050806001600160a01b0316846001600160a01b0316148061112957506001600160a01b0380821660009081526005602090815260408083209388168352929052205460ff165b8061114d5750836001600160a01b03166111428461094d565b6001600160a01b0316145b949350505050565b826001600160a01b031661116882610cdf565b6001600160a01b03161461118e5760405162461bcd60e51b81526004016104c890611cf6565b6001600160a01b0382166111f05760405162461bcd60e51b8152602060048201526024808201527f4552433732313a207472616e7366657220746f20746865207a65726f206164646044820152637265737360e01b60648201526084016104c8565b6111fb838383611502565b826001600160a01b031661120e82610cdf565b6001600160a01b0316146112345760405162461bcd60e51b81526004016104c890611cf6565b600081815260046020908152604080832080546001600160a01b03199081169091556001600160a01b0387811680865260038552838620805460001901905590871680865283862080546001019055868652600290945282852080549092168417909155905184937fddf252ad1be2c89b69c2b068fc378daa952ba7f163c4a11628f55a4df523b3ef91a4505050565b604080516020808252818301909252606091602082018180368337019050509050602060005b60208110156113225783816020811061130557611305611d3b565b1a61131257809150611322565b61131b81611d51565b90506112ea565b508152602081019190915290565b816001600160a01b0316836001600160a01b031614156113925760405162461bcd60e51b815260206004820152601960248201527f4552433732313a20617070726f766520746f2063616c6c65720000000000000060448201526064016104c8565b6001600160a01b03838116600081815260056020908152604080832094871680845294825291829020805460ff191686151590811790915591519182527f17307eab39ab6107e8899845ad3d59bd9653f200f220920489ca2b5937696c31910160405180910390a3505050565b61140a848484611155565b61141684848484611551565b610ea45760405162461bcd60e51b81526004016104c890611d6c565b6060600061143f8361165e565b600101905060008167ffffffffffffffff81111561145f5761145f611ae5565b6040519080825280601f01601f191660200182016040528015611489576020820181803683370190505b5090508181016020015b600019016f181899199a1a9b1b9c1cb0b131b232b360811b600a86061a8153600a85049450846114c2576114c7565b611493565b509392505050565b6114d98383611736565b6114e66000848484611551565b610a855760405162461bcd60e51b81526004016104c890611d6c565b6000818152600c602090815260409182902054825180840190935260048352631310d2d160e21b9183019190915260ff1615610ea45760405162461bcd60e51b81526004016104c891906119a6565b60006001600160a01b0384163b1561165357604051630a85bd0160e11b81526001600160a01b0385169063150b7a0290611595903390899088908890600401611dbe565b602060405180830381600087803b1580156115af57600080fd5b505af19250505080156115df575060408051601f3d908101601f191682019092526115dc91810190611dfb565b60015b611639573d80801561160d576040519150601f19603f3d011682016040523d82523d6000602084013e611612565b606091505b5080516116315760405162461bcd60e51b81526004016104c890611d6c565b805181602001fd5b6001600160e01b031916630a85bd0160e11b14905061114d565b506001949350505050565b60008072184f03e93ff9f4daa797ed6e38ed64bf6a1f0160401b831061169d5772184f03e93ff9f4daa797ed6e38ed64bf6a1f0160401b830492506040015b6d04ee2d6d415b85acef810000000083106116c9576d04ee2d6d415b85acef8100000000830492506020015b662386f26fc1000083106116e757662386f26fc10000830492506010015b6305f5e10083106116ff576305f5e100830492506008015b612710831061171357612710830492506004015b60648310611725576064830492506002015b600a831061047f5760010192915050565b6001600160a01b03821661178c5760405162461bcd60e51b815260206004820181905260248201527f4552433732313a206d696e7420746f20746865207a65726f206164647265737360448201526064016104c8565b6000818152600260205260409020546001600160a01b0316156117f15760405162461bcd60e51b815260206004820152601c60248201527f4552433732313a20746f6b656e20616c7265616479206d696e7465640000000060448201526064016104c8565b6117fd60008383611502565b6000818152600260205260409020546001600160a01b0316156118625760405162461bcd60e51b815260206004820152601c60248201527f4552433732313a20746f6b656e20616c7265616479206d696e7465640000000060448201526064016104c8565b6001600160a01b038216600081815260036020908152604080832080546001019055848352600290915280822080546001600160a01b0319168417905551839291907fddf252ad1be2c89b69c2b068fc378daa952ba7f163c4a11628f55a4df523b3ef908290a45050565b6001600160e01b03198116811461106557600080fd5b6000602082840312156118f557600080fd5b8135610f17816118cd565b6001600160a01b038116811461106557600080fd5b6000806040838503121561192857600080fd5b823561193381611900565b9150602083013561194381611900565b809150509250929050565b60005b83811015611969578181015183820152602001611951565b83811115610ea45750506000910152565b6000815180845261199281602086016020860161194e565b601f01601f19169290920160200192915050565b602081526000610f17602083018461197a565b6000602082840312156119cb57600080fd5b5035919050565b600080604083850312156119e557600080fd5b82356119f081611900565b946020939093013593505050565b600080600060608486031215611a1357600080fd5b8335611a1e81611900565b92506020840135611a2e81611900565b929592945050506040919091013590565b600060208284031215611a5157600080fd5b8135610f1781611900565b6020808252825182820181905260009190848201906040850190845b81811015611a9d5783516001600160a01b031683529284019291840191600101611a78565b50909695505050505050565b801515811461106557600080fd5b60008060408385031215611aca57600080fd5b8235611ad581611900565b9150602083013561194381611aa9565b634e487b7160e01b600052604160045260246000fd5b60008060008060808587031215611b1157600080fd5b8435611b1c81611900565b93506020850135611b2c81611900565b925060408501359150606085013567ffffffffffffffff80821115611b5057600080fd5b818701915087601f830112611b6457600080fd5b813581811115611b7657611b76611ae5565b604051601f8201601f19908116603f01168101908382118183101715611b9e57611b9e611ae5565b816040528281528a6020848701011115611bb757600080fd5b82602086016020830137600060208483010152809550505050505092959194509250565b600060208284031215611bed57600080fd5b8151610f1781611aa9565b634e487b7160e01b600052601160045260246000fd5b60008219821115611c2157611c21611bf8565b500190565b600181811c90821680611c3a57607f821691505b60208210811415611c5b57634e487b7160e01b600052602260045260246000fd5b50919050565b6020808252602d908201527f4552433732313a2063616c6c6572206973206e6f7420746f6b656e206f776e6560408201526c1c881bdc88185c1c1c9bdd9959609a1b606082015260800190565b600060208284031215611cc057600080fd5b5051919050565b60008351611cd981846020880161194e565b835190830190611ced81836020880161194e565b01949350505050565b60208082526025908201527f4552433732313a207472616e736665722066726f6d20696e636f72726563742060408201526437bbb732b960d91b606082015260800190565b634e487b7160e01b600052603260045260246000fd5b6000600019821415611d6557611d65611bf8565b5060010190565b60208082526032908201527f4552433732313a207472616e7366657220746f206e6f6e20455243373231526560408201527131b2b4bb32b91034b6b83632b6b2b73a32b960711b606082015260800190565b6001600160a01b0385811682528416602082015260408101839052608060608201819052600090611df19083018461197a565b9695505050505050565b600060208284031215611e0d57600080fd5b8151610f17816118cd56fea26469706673582212209bf6d10235139c07e4d7264aa62f1f7b2b78f38d241d3d74b56d6383f4b622dd64736f6c63430008090033",
    "linkReferences": {}
  },
  "methodIdentifiers": {
    "approve(address,uint256)": "095ea7b3",
    "balanceOf(address)": "70a08231",
    "commitStagedProtocolGovernance()": "0407ca13",
    "contractName()": "75d0c0dc",
    "contractNameBytes()": "0e3e80ac",
    "contractVersion()": "a0a8e460",
    "contractVersionBytes()": "06a46239",
    "getApproved(uint256)": "081812fc",
    "isApprovedForAll(address,address)": "e985e9c5",
    "isLocked(uint256)": "f6aacfb1",
    "lockNft(uint256)": "4dcbc739",
    "name()": "06fdde03",
    "nftForVault(address)": "fcdabd27",
    "ownerOf(uint256)": "6352211e",
    "protocolGovernance()": "5227ce4c",
    "registerVault(address,address)": "05c4fdf9",
    "safeTransferFrom(address,address,uint256)": "42842e0e",
    "safeTransferFrom(address,address,uint256,bytes)": "b88d4fde",
    "setApprovalForAll(address,bool)": "a22cb465",
    "stageProtocolGovernance(address)": "3be0539c",
    "stagedProtocolGovernance()": "82e9f71f",
    "stagedProtocolGovernanceTimestamp()": "95cdb9a5",
    "supportsInterface(bytes4)": "01ffc9a7",
    "symbol()": "95d89b41",
    "tokenURI(uint256)": "c87b56dd",
    "transferFrom(address,address,uint256)": "23b872dd",
    "vaultForNft(uint256)": "9c94d853",
    "vaults()": "8220ef5b",
    "vaultsCount()": "88977738"
  },
  "id": 31
}