{
  "abi": [
    {
      "inputs": [
        {
          "internalType": "contract IPancakeNonfungiblePositionManager",
          "name": "positionManager_",
          "type": "address"
        }
      ],
      "stateMutability": "nonpayable",
      "type": "constructor"
    },
    {
      "inputs": [
        {
          "internalType": "address",
          "name": "masterChef",
          "type": "address"
        },
        {
          "internalType": "uint256",
          "name": "nft",
          "type": "uint256"
        }
      ],
      "name": "calculateActualPendingCake",
      "outputs": [
        {
          "internalType": "uint256",
          "name": "reward",
          "type": "uint256"
        }
      ],
      "stateMutability": "view",
      "type": "function"
    },
    {
      "inputs": [
        {
          "components": [
            {
              "internalType": "uint256",
              "name": "swapSlippageD",
              "type": "uint256"
            },
            {
              "internalType": "address",
              "name": "poolForSwap",
              "type": "address"
            },
            {
              "internalType": "address",
              "name": "cake",
              "type": "address"
            },
            {
              "internalType": "address",
              "name": "underlyingToken",
              "type": "address"
            },
            {
              "internalType": "address",
              "name": "smartRouter",
              "type": "address"
            },
            {
              "internalType": "uint32",
              "name": "averageTickTimespan",
              "type": "uint32"
            }
          ],
          "internalType": "struct IPancakeSwapVaultGovernance.StrategyParams",
          "name": "params",
          "type": "tuple"
        },
        {
          "internalType": "address",
          "name": "masterChef",
          "type": "address"
        },
        {
          "internalType": "uint256",
          "name": "uniV3Nft",
          "type": "uint256"
        }
      ],
      "name": "calculateAmountOfCakeInUnderlying",
      "outputs": [
        {
          "internalType": "uint256",
          "name": "",
          "type": "uint256"
        }
      ],
      "stateMutability": "view",
      "type": "function"
    },
    {
      "inputs": [
        {
          "components": [
            {
              "internalType": "uint256",
              "name": "swapSlippageD",
              "type": "uint256"
            },
            {
              "internalType": "address",
              "name": "poolForSwap",
              "type": "address"
            },
            {
              "internalType": "address",
              "name": "cake",
              "type": "address"
            },
            {
              "internalType": "address",
              "name": "underlyingToken",
              "type": "address"
            },
            {
              "internalType": "address",
              "name": "smartRouter",
              "type": "address"
            },
            {
              "internalType": "uint32",
              "name": "averageTickTimespan",
              "type": "uint32"
            }
          ],
          "internalType": "struct IPancakeSwapVaultGovernance.StrategyParams",
          "name": "params",
          "type": "tuple"
        }
      ],
      "name": "calculateCakePriceX96InUnderlying",
      "outputs": [
        {
          "internalType": "uint256",
          "name": "priceX96",
          "type": "uint256"
        }
      ],
      "stateMutability": "view",
      "type": "function"
    },
    {
      "inputs": [
        {
          "internalType": "uint256",
          "name": "uniV3Nft",
          "type": "uint256"
        },
        {
          "internalType": "uint256",
          "name": "minPriceX96",
          "type": "uint256"
        },
        {
          "internalType": "uint256",
          "name": "maxPriceX96",
          "type": "uint256"
        }
      ],
      "name": "calculateTvlByMinMaxPrices",
      "outputs": [
        {
          "internalType": "uint256[]",
          "name": "minTokenAmounts",
          "type": "uint256[]"
        },
        {
          "internalType": "uint256[]",
          "name": "maxTokenAmounts",
          "type": "uint256[]"
        }
      ],
      "stateMutability": "view",
      "type": "function"
    },
    {
      "inputs": [
        {
          "internalType": "uint256",
          "name": "uniV3Nft",
          "type": "uint256"
        },
        {
          "internalType": "uint160",
          "name": "sqrtPriceX96",
          "type": "uint160"
        }
      ],
      "name": "calculateTvlBySqrtPriceX96",
      "outputs": [
        {
          "internalType": "uint256[]",
          "name": "tokenAmounts",
          "type": "uint256[]"
        }
      ],
      "stateMutability": "view",
      "type": "function"
    },
    {
      "inputs": [
        {
          "internalType": "uint256",
          "name": "uniV3Nft",
          "type": "uint256"
        }
      ],
      "name": "getFeesByNft",
      "outputs": [
        {
          "internalType": "uint256",
          "name": "fees0",
          "type": "uint256"
        },
        {
          "internalType": "uint256",
          "name": "fees1",
          "type": "uint256"
        }
      ],
      "stateMutability": "view",
      "type": "function"
    },
    {
      "inputs": [
        {
          "internalType": "address[]",
          "name": "vaultTokens",
          "type": "address[]"
        },
        {
          "internalType": "contract IOracle",
          "name": "oracle",
          "type": "address"
        },
        {
          "internalType": "uint32",
          "name": "safetyIndicesSet",
          "type": "uint32"
        }
      ],
      "name": "getMinMaxPrice",
      "outputs": [
        {
          "internalType": "uint256",
          "name": "minPriceX96",
          "type": "uint256"
        },
        {
          "internalType": "uint256",
          "name": "maxPriceX96",
          "type": "uint256"
        }
      ],
      "stateMutability": "view",
      "type": "function"
    },
    {
      "inputs": [
        {
          "internalType": "uint256",
          "name": "uniV3Nft",
          "type": "uint256"
        }
      ],
      "name": "getPoolByNft",
      "outputs": [
        {
          "internalType": "contract IPancakeV3Pool",
          "name": "pool",
          "type": "address"
        }
      ],
      "stateMutability": "view",
      "type": "function"
    },
    {
      "inputs": [
        {
          "internalType": "uint256",
          "name": "lowerPriceSqrtX96",
          "type": "uint256"
        },
        {
          "internalType": "uint256",
          "name": "upperPriceSqrtX96",
          "type": "uint256"
        },
        {
          "internalType": "uint256",
          "name": "spotPriceForSqrtFormulasX96",
          "type": "uint256"
        },
        {
          "internalType": "uint256",
          "name": "spotPriceX96",
          "type": "uint256"
        },
        {
          "internalType": "uint256",
          "name": "capital",
          "type": "uint256"
        }
      ],
      "name": "getPositionTokenAmountsByCapitalOfToken0",
      "outputs": [
        {
          "internalType": "uint256",
          "name": "token0Amount",
          "type": "uint256"
        },
        {
          "internalType": "uint256",
          "name": "token1Amount",
          "type": "uint256"
        }
      ],
      "stateMutability": "pure",
      "type": "function"
    },
    {
      "inputs": [
        {
          "internalType": "int24",
          "name": "tick",
          "type": "int24"
        },
        {
          "internalType": "address",
          "name": "pool_",
          "type": "address"
        },
        {
          "internalType": "uint32",
          "name": "secondsAgo",
          "type": "uint32"
        }
      ],
      "name": "getTickDeviationForTimeSpan",
      "outputs": [
        {
          "internalType": "bool",
          "name": "withFail",
          "type": "bool"
        },
        {
          "internalType": "int24",
          "name": "deviation",
          "type": "int24"
        }
      ],
      "stateMutability": "view",
      "type": "function"
    },
    {
      "inputs": [
        {
          "internalType": "uint128",
          "name": "liquidity",
          "type": "uint128"
        },
        {
          "internalType": "contract IPancakeV3Pool",
          "name": "pool",
          "type": "address"
        },
        {
          "internalType": "uint256",
          "name": "uniV3Nft",
          "type": "uint256"
        }
      ],
      "name": "liquidityToTokenAmounts",
      "outputs": [
        {
          "internalType": "uint256[]",
          "name": "tokenAmounts",
          "type": "uint256[]"
        }
      ],
      "stateMutability": "view",
      "type": "function"
    },
    {
      "inputs": [],
      "name": "positionManager",
      "outputs": [
        {
          "internalType": "contract IPancakeNonfungiblePositionManager",
          "name": "",
          "type": "address"
        }
      ],
      "stateMutability": "view",
      "type": "function"
    },
    {
      "inputs": [
        {
          "internalType": "uint256[]",
          "name": "tokenAmounts",
          "type": "uint256[]"
        },
        {
          "internalType": "contract IPancakeV3Pool",
          "name": "pool",
          "type": "address"
        },
        {
          "internalType": "uint256",
          "name": "uniV3Nft",
          "type": "uint256"
        }
      ],
      "name": "tokenAmountsToLiquidity",
      "outputs": [
        {
          "internalType": "uint128",
          "name": "liquidity",
          "type": "uint128"
        }
      ],
      "stateMutability": "view",
      "type": "function"
    },
    {
      "inputs": [
        {
          "internalType": "uint160",
          "name": "sqrtRatioX96",
          "type": "uint160"
        },
        {
          "internalType": "int24",
          "name": "tickLower",
          "type": "int24"
        },
        {
          "internalType": "int24",
          "name": "tickUpper",
          "type": "int24"
        },
        {
          "internalType": "uint256",
          "name": "amount0",
          "type": "uint256"
        },
        {
          "internalType": "uint256",
          "name": "amount1",
          "type": "uint256"
        }
      ],
      "name": "tokenAmountsToMaximalLiquidity",
      "outputs": [
        {
          "internalType": "uint128",
          "name": "liquidity",
          "type": "uint128"
        }
      ],
      "stateMutability": "pure",
      "type": "function"
    },
    {
      "inputs": [
        {
          "internalType": "uint256",
          "name": "uniV3Nft_",
          "type": "uint256"
        },
        {
          "internalType": "address",
          "name": "vaultGovernance_",
          "type": "address"
        },
        {
          "internalType": "uint256",
          "name": "vaultNft",
          "type": "uint256"
        },
        {
          "internalType": "contract IPancakeV3Pool",
          "name": "pool",
          "type": "address"
        },
        {
          "internalType": "address[]",
          "name": "vaultTokens",
          "type": "address[]"
        },
        {
          "internalType": "address",
          "name": "masterChef",
          "type": "address"
        }
      ],
      "name": "tvl",
      "outputs": [
        {
          "internalType": "uint256[]",
          "name": "minTokenAmounts",
          "type": "uint256[]"
        },
        {
          "internalType": "uint256[]",
          "name": "maxTokenAmounts",
          "type": "uint256[]"
        }
      ],
      "stateMutability": "view",
      "type": "function"
    }
  ],
  "bytecode": {
    "object": "0x60a06040523480156200001157600080fd5b5060405162004a7c38038062004a7c83398101604081905262000034916200005a565b6001600160a01b0381166200004857600080fd5b6001600160a01b03166080526200008c565b6000602082840312156200006d57600080fd5b81516001600160a01b03811681146200008557600080fd5b9392505050565b608051614995620000e76000396000818161020a015281816102c00152818161036e01528181610a0101528181610a7101528181610aec01528181610b3701528181610b69015281816112bf015261143a01526149956000f3fe608060405234801561001057600080fd5b50600436106100f55760003560e01c806370cddb7911610097578063c2ecd0bc11610066578063c2ecd0bc1461026c578063db9936bf1461027f578063edda837014610292578063faa0b1d5146102a557600080fd5b806370cddb79146101f2578063791b98bc146102055780638a2405f61461022c57806391bb9a211461025957600080fd5b80631aa54edb116100d35780631aa54edb146101735780631c92ce351461019e578063345058ea146101be5780635a7fed00146101d157600080fd5b8063073e3c0b146100fa57806309c552ed1461012a5780631847df621461014b575b600080fd5b61010d6101083660046138f1565b6102b8565b6040516001600160a01b0390911681526020015b60405180910390f35b61013d610138366004613922565b610494565b604051908152602001610121565b61015e610159366004613a66565b6106f0565b60408051928352602083019190915201610121565b610186610181366004613ad8565b61091b565b6040516001600160801b039091168152602001610121565b6101b16101ac366004613b33565b6109dc565b6040516101219190613b9e565b61015e6101cc3660046138f1565b610a69565b6101e46101df366004613bb1565b610aa0565b604051610121929190613bdd565b61013d610200366004613ca7565b610c5a565b61010d7f000000000000000000000000000000000000000000000000000000000000000081565b61023f61023a366004613ce8565b610c9a565b60408051921515835260029190910b602083015201610121565b61013d610267366004613d18565b610cc5565b6101e461027a366004613d3f565b610df8565b6101b161028d366004613ddc565b61127c565b6101866102a0366004613e1d565b611433565b61015e6102b3366004613ec8565b6115c8565b6000806000807f00000000000000000000000000000000000000000000000000000000000000006001600160a01b03166399fbab88866040518263ffffffff1660e01b815260040161030c91815260200190565b6101806040518083038186803b15801561032557600080fd5b505afa158015610339573d6000803e3d6000fd5b505050506040513d601f19601f8201168201806040525081019061035d9190613f37565b5050505050505094509450945050507f00000000000000000000000000000000000000000000000000000000000000006001600160a01b031663c45a01556040518163ffffffff1660e01b815260040160206040518083038186803b1580156103c557600080fd5b505afa1580156103d9573d6000803e3d6000fd5b505050506040513d601f19601f820116820180604052508101906103fd9190614018565b604051630b4c774160e11b81526001600160a01b038581166004830152848116602483015262ffffff841660448301529190911690631698ee829060640160206040518083038186803b15801561045357600080fd5b505afa158015610467573d6000803e3d6000fd5b505050506040513d601f19601f8201168201806040525081019061048b9190614018565b95945050505050565b604051630ec6b3dd60e21b81526004810182905260009081906001600160a01b03851690633b1acf74906024016101206040518083038186803b1580156104da57600080fd5b505afa1580156104ee573d6000803e3d6000fd5b505050506040513d601f19601f820116820180604052508101906105129190614035565b80519091506001600160801b031615801561052f575060a0810151155b1561053e5760009150506106ea565b60e0810151604051631526fe2760e01b81526000916001600160a01b03871691631526fe27916105749160040190815260200190565b60e06040518083038186803b15801561058c57600080fd5b505afa1580156105a0573d6000803e3d6000fd5b505050506040513d601f19601f820116820180604052508101906105c491906140d1565b9050600081602001516001600160a01b031663540d49186040518163ffffffff1660e01b815260040160206040518083038186803b15801561060557600080fd5b505afa158015610619573d6000803e3d6000fd5b505050506040513d601f19601f8201168201806040525081019061063d9190614018565b90506001600160a01b038116156106e257600061065a4283611639565b90506000610672856040015186606001518585611a7e565b90508460800151811180156106aa575084602001516001600160801b031685608001518203600019816106a7576106a7614174565b04115b156106db57600160801b85602001516001600160801b03168660800151830302816106d7576106d7614174565b0495505b6080850152505b505060a00151015b92915050565b6000806000846001600160a01b0316636d80125b876000815181106107175761071761418a565b6020026020010151886001815181106107325761073261418a565b60209081029190910101516040516001600160e01b031960e085901b1681526001600160a01b0392831660048201529116602482015263ffffffff8716604482015260640160006040518083038186803b15801561078f57600080fd5b505afa1580156107a3573d6000803e3d6000fd5b505050506040513d6000823e601f3d908101601f191682016040526107cb91908101906141fb565b50905060018151101560405180604001604052806004815260200163494e564160e01b815250906108185760405162461bcd60e51b815260040161080f919061425e565b60405180910390fd5b508060008151811061082c5761082c61418a565b60200260200101519250806000815181106108495761084961418a565b602002602001015191506000600190505b81518163ffffffff1610156109115783828263ffffffff16815181106108825761088261418a565b602002602001015110156108b757818163ffffffff16815181106108a8576108a861418a565b60200260200101519350610901565b82828263ffffffff16815181106108d0576108d061418a565b6020026020010151111561090157818163ffffffff16815181106108f6576108f661418a565b602002602001015192505b61090a816142c9565b905061085a565b5050935093915050565b60008061092786611aa8565b9050600061093486611aa8565b9050816001600160a01b0316886001600160a01b0316116109615761095a828287611ec5565b92506109d1565b806001600160a01b0316886001600160a01b031610156109c3576000610988898388611ec5565b90506000610997848b88611f2f565b9050806001600160801b0316826001600160801b0316116109b857806109ba565b815b945050506109d1565b6109ce828286611f2f565b92505b505095945050505050565b6040805160028082526060808301845292602083019080368337019050509050610a277f00000000000000000000000000000000000000000000000000000000000000008484611f65565b82600081518110610a3a57610a3a61418a565b6020026020010183600181518110610a5457610a5461418a565b60209081029190910101919091525292915050565b600080610a967f000000000000000000000000000000000000000000000000000000000000000084611fb0565b9094909350915050565b6040805160028082526060808301845292839291906020830190803683375050604080516002808252606082018352939550929150602083019080368337019050509050600080610b117f000000000000000000000000000000000000000000000000000000000000000088611fb0565b915091506000610b20876120f3565b90506000610b2d876120f3565b9050600080610b5d7f00000000000000000000000000000000000000000000000000000000000000008c86612109565b91509150600080610b8f7f00000000000000000000000000000000000000000000000000000000000000008e87612109565b9150915081841115610b9f579092905b80831115610ba957915b610bb388856142ed565b8a600081518110610bc657610bc661418a565b6020908102919091010152610bdb88836142ed565b89600081518110610bee57610bee61418a565b6020908102919091010152610c0387846142ed565b8a600181518110610c1657610c1661418a565b6020908102919091010152610c2b87826142ed565b89600181518110610c3e57610c3e61418a565b6020026020010181815250505050505050505050935093915050565b600080610c678484610494565b905080610c78576000915050610c93565b610c8f81610c8587610cc5565b600160601b6121ca565b9150505b9392505050565b6000806000610ca9858561227d565b9450909150610cba90508187614305565b915050935093915050565b60008082602001519050600080610ce485602001518660a0015161227d565b925050915080156040518060400160405280600581526020016412539594d560da1b81525090610d275760405162461bcd60e51b815260040161080f919061425e565b506000610d3383611aa8565b9050610d4d6001600160a01b03821680600160601b6121ca565b945085606001516001600160a01b0316846001600160a01b0316630dfe16816040518163ffffffff1660e01b815260040160206040518083038186803b158015610d9657600080fd5b505afa158015610daa573d6000803e3d6000fd5b505050506040513d601f19601f82011682018060405250810190610dce9190614018565b6001600160a01b03161415610def57610dec600160601b80876121ca565b94505b50505050919050565b60608087610e455760408051600280825260608201835290916020830190803683375050604080516002808252606082018352909250906020830190803683370190505091509150611271565b6000876001600160a01b031663d34cc3806040518163ffffffff1660e01b8152600401604080518083038186803b158015610e7f57600080fd5b505afa158015610e93573d6000803e3d6000fd5b505050506040513d601f19601f82011682018060405250810190610eb7919061434d565b60405163110c1a4960e31b8152600481018990529091506000906001600160a01b038a1690638860d2489060240160206040518083038186803b158015610efd57600080fd5b505afa158015610f11573d6000803e3d6000fd5b505050506040513d601f19601f82011682018060405250810190610f3591906143ab565b9050806000015163ffffffff166002141561106c576000876001600160a01b0316633850c7bd6040518163ffffffff1660e01b815260040160e06040518083038186803b158015610f8557600080fd5b505afa158015610f99573d6000803e3d6000fd5b505050506040513d601f19601f82011682018060405250810190610fbd9190614418565b5050505050509050610fcf8b826109dc565b6040805160028082526060820183529297509190602083019080368337019050509350846000815181106110055761100561418a565b6020026020010151846000815181106110205761102061418a565b6020026020010181815250508460018151811061103f5761103f61418a565b60200260200101518460018151811061105a5761105a61418a565b60200260200101818152505050611099565b60008061108288856020015185600001516106f0565b915091506110918c8383610aa0565b909650945050505b604051630248cd6d60e31b8152600481018990526000906001600160a01b038b16906312466b689060240160c06040518083038186803b1580156110dc57600080fd5b505afa1580156110f0573d6000803e3d6000fd5b505050506040513d601f19601f8201168201806040525081019061111491906144a5565b9050600061112382888e610c5a565b9050801561126c5781606001516001600160a01b03168860008151811061114c5761114c61418a565b60200260200101516001600160a01b031614156111bf5780866000815181106111775761117761418a565b6020026020010181815161118b91906142ed565b9052508451819086906000906111a3576111a361418a565b602002602001018181516111b791906142ed565b90525061126c565b81606001516001600160a01b0316886001815181106111e0576111e061418a565b60200260200101516001600160a01b0316141561123957808660018151811061120b5761120b61418a565b6020026020010181815161121f91906142ed565b90525084518190869060019081106111a3576111a361418a565b604080518082018252600581526412539594d560da1b6020820152905162461bcd60e51b815261080f919060040161425e565b505050505b965096945050505050565b6040805160028082526060808301845292602083019080368337505060405163133f757160e31b8152600481018590529192506000918291506001600160a01b037f000000000000000000000000000000000000000000000000000000000000000016906399fbab88906024016101806040518083038186803b15801561130257600080fd5b505afa158015611316573d6000803e3d6000fd5b505050506040513d601f19601f8201168201806040525081019061133a9190613f37565b50505050509650965050505050506000856001600160a01b0316633850c7bd6040518163ffffffff1660e01b815260040160e06040518083038186803b15801561138357600080fd5b505afa158015611397573d6000803e3d6000fd5b505050506040513d601f19601f820116820180604052508101906113bb9190614418565b505050505050905060006113ce84611aa8565b905060006113db84611aa8565b90506113e98383838c6124db565b876000815181106113fc576113fc61418a565b60200260200101886001815181106114165761141661418a565b602002602001018281525082815250505050505050509392505050565b60008060007f00000000000000000000000000000000000000000000000000000000000000006001600160a01b03166399fbab88856040518263ffffffff1660e01b815260040161148691815260200190565b6101806040518083038186803b15801561149f57600080fd5b505afa1580156114b3573d6000803e3d6000fd5b505050506040513d601f19601f820116820180604052508101906114d79190613f37565b50505050509650965050505050506000856001600160a01b0316633850c7bd6040518163ffffffff1660e01b815260040160e06040518083038186803b15801561152057600080fd5b505afa158015611534573d6000803e3d6000fd5b505050506040513d601f19601f820116820180604052508101906115589190614418565b5050505050509050600061156b84611aa8565b9050600061157884611aa8565b90506115bb8383838c6000815181106115935761159361418a565b60200260200101518d6001815181106115ae576115ae61418a565b6020026020010151612577565b9998505050505050505050565b600080806115da87610c858a89614546565b905060006115ec87610c85818b614546565b90506116106116008688600160601b6121ca565b8361160b84826142ed565b6121ca565b925061162183600160601b886121ca565b61162b9086614546565b935050509550959350505050565b600080826001600160a01b031663f8077fae6040518163ffffffff1660e01b815260040160206040518083038186803b15801561167557600080fd5b505afa158015611689573d6000803e3d6000fd5b505050506040513d601f19601f820116820180604052508101906116ad919061455d565b9050826001600160a01b03166357806ada6040518163ffffffff1660e01b815260040160206040518083038186803b1580156116e857600080fd5b505afa1580156116fc573d6000803e3d6000fd5b505050506040513d601f19601f82011682018060405250810190611720919061457a565b91508063ffffffff168463ffffffff161161173b57506106ea565b826001600160a01b031663c3487ff86040518163ffffffff1660e01b815260040160206040518083038186803b15801561177457600080fd5b505afa158015611788573d6000803e3d6000fd5b505050506040513d601f19601f820116820180604052508101906117ac9190614593565b6001600160801b031615611a7757600080846001600160a01b031663575a86b26040518163ffffffff1660e01b815260040160206040518083038186803b1580156117f657600080fd5b505afa15801561180a573d6000803e3d6000fd5b505050506040513d601f19601f8201168201806040525081019061182e9190614018565b6001600160a01b031663a15ea89f866001600160a01b03166316f0115b6040518163ffffffff1660e01b815260040160206040518083038186803b15801561187557600080fd5b505afa158015611889573d6000803e3d6000fd5b505050506040513d601f19601f820116820180604052508101906118ad9190614018565b6040516001600160e01b031960e084901b1681526001600160a01b039091166004820152602401604080518083038186803b1580156118eb57600080fd5b505afa1580156118ff573d6000803e3d6000fd5b505050506040513d601f19601f8201168201806040525081019061192391906145b0565b909250905080600063ffffffff8089169083161115611945575083870361195e565b8463ffffffff168263ffffffff16111561195e57508381035b63ffffffff811615611a7257611a6d8163ffffffff166119ee86600160801b8b6001600160a01b0316633d6aa5e16040518163ffffffff1660e01b815260040160206040518083038186803b1580156119b657600080fd5b505afa1580156119ca573d6000803e3d6000fd5b505050506040513d601f19601f8201168201806040525081019061160b919061457a565b896001600160a01b031663c3487ff86040518163ffffffff1660e01b815260040160206040518083038186803b158015611a2757600080fd5b505afa158015611a3b573d6000803e3d6000fd5b505050506040513d601f19601f82011682018060405250810190611a5f9190614593565b6001600160801b03166121ca565b860195505b505050505b5092915050565b6000611a8c85858585612639565b5090506000611a9c8686866129e6565b90910395945050505050565b60008060008360020b12611abf578260020b611acc565b8260020b611acc906145d4565b9050611adb620d89e7196145f1565b60020b811115611b115760405162461bcd60e51b81526020600482015260016024820152601560fa1b604482015260640161080f565b600060018216611b2557600160801b611b37565b6ffffcb933bd6fad37aa2d162d1a5940015b70ffffffffffffffffffffffffffffffffff1690506002821615611b76576080611b71826ffff97272373d413259a46990580e213a614614565b901c90505b6004821615611ba0576080611b9b826ffff2e50f5f656932ef12357cf3c7fdcc614614565b901c90505b6008821615611bca576080611bc5826fffe5caca7e10e4e61c3624eaa0941cd0614614565b901c90505b6010821615611bf4576080611bef826fffcb9843d60f6159c9db58835c926644614614565b901c90505b6020821615611c1e576080611c19826fff973b41fa98c081472e6896dfb254c0614614565b901c90505b6040821615611c48576080611c43826fff2ea16466c96a3843ec78b326b52861614614565b901c90505b6080821615611c72576080611c6d826ffe5dee046a99a2a811c461f1969c3053614614565b901c90505b610100821615611c9d576080611c98826ffcbe86c7900a88aedcffc83b479aa3a4614614565b901c90505b610200821615611cc8576080611cc3826ff987a7253ac413176f2b074cf7815e54614614565b901c90505b610400821615611cf3576080611cee826ff3392b0822b70005940c7a398e4b70f3614614565b901c90505b610800821615611d1e576080611d19826fe7159475a2c29b7443b29c7fa6e889d9614614565b901c90505b611000821615611d49576080611d44826fd097f3bdfd2022b8845ad8f792aa5825614614565b901c90505b612000821615611d74576080611d6f826fa9f746462d870fdf8a65dc1f90e061e5614614565b901c90505b614000821615611d9f576080611d9a826f70d869a156d2a1b890bb3df62baf32f7614614565b901c90505b618000821615611dca576080611dc5826f31be135f97d08fd981231505542fcfa6614614565b901c90505b62010000821615611df6576080611df1826f09aa508b5b7a84e1c677de54f3e99bc9614614565b901c90505b62020000821615611e21576080611e1c826e5d6af8dedb81196699c329225ee604614614565b901c90505b62040000821615611e4b576080611e46826d2216e584f5fa1ea926041bedfe98614614565b901c90505b62080000821615611e73576080611e6e826b048a170391f7dc42444e8fa2614614565b901c90505b60008460020b1315611e8e57611e8b81600019614633565b90505b611e9d64010000000082614647565b15611ea9576001611eac565b60005b611ebd9060ff16602083901c6142ed565b949350505050565b6000826001600160a01b0316846001600160a01b03161115611ee5579192915b6000611f08856001600160a01b0316856001600160a01b0316600160601b6121ca565b9050610c8f611f2a8483611f1c898961465b565b6001600160a01b03166121ca565b612df6565b6000826001600160a01b0316846001600160a01b03161115611f4f579192915b611ebd611f2a83600160601b611f1c888861465b565b600080600080611f76878787612109565b91509150600080611f878989611fb0565b9092509050611f9682856142ed565b611fa082856142ed565b9550955050505050935093915050565b6000806000806000806000806000806000808d6001600160a01b03166399fbab888e6040518263ffffffff1660e01b8152600401611ff091815260200190565b6101806040518083038186803b15801561200957600080fd5b505afa15801561201d573d6000803e3d6000fd5b505050506040513d601f19601f820116820180604052508101906120419190613f37565b6001600160801b03169b506001600160801b03169b509b509b509b509b509b509b509b509b5050506120de8e6040518061014001604052808d6001600160a01b031681526020018c6001600160a01b031681526020018b62ffffff1681526020018a60020b81526020018960020b8152602001886001600160801b0316815260200187815260200186815260200185815260200184815250612e11565b9b509b50505050505050505050509250929050565b6000806120ff83612f94565b60301b9392505050565b6000806000806000876001600160a01b03166399fbab88886040518263ffffffff1660e01b815260040161213f91815260200190565b6101806040518083038186803b15801561215857600080fd5b505afa15801561216c573d6000803e3d6000fd5b505050506040513d601f19601f820116820180604052508101906121909190613f37565b5050505097509750975050505050506121bb866121ac85611aa8565b6121b585611aa8565b846124db565b94509450505050935093915050565b60008080600019858709858702925082811083820303915050806000141561220457600084116121f957600080fd5b508290049050610c93565b80841161221057600080fd5b6000848688096000868103871696879004966002600389028118808a02820302808a02820302808a02820302808a02820302808a02820302808a02909103029181900381900460010186841190950394909402919094039290920491909117919091029150509392505050565b6000808063ffffffff84166122b95760405162461bcd60e51b8152602060048201526002602482015261042560f41b604482015260640161080f565b60408051600280825260608201835260009260208301908036833701905050905084816000815181106122ee576122ee61418a565b602002602001019063ffffffff16908163ffffffff168152505060008160018151811061231d5761231d61418a565b63ffffffff9092166020928302919091019091015260405163883bdbfd60e01b81526001600160a01b0387169063883bdbfd9061235e908490600401614683565b60006040518083038186803b15801561237657600080fd5b505afa9250505080156123ab57506040513d6000823e601f3d908101601f191682016040526123a89190810190614743565b60015b6123c0576000806001935093509350506124d4565b6000826000815181106123d5576123d561418a565b6020026020010151836001815181106123f0576123f061418a565b60200260200101510390506000826000815181106124105761241061418a565b60200260200101518360018151811061242b5761242b61418a565b60200260200101510390508863ffffffff1660060b8260060b8161245157612451614174565b05975060008260060b12801561248457508863ffffffff1660060b8260060b8161247d5761247d614174565b0760060b15155b1561249157600019909701965b63ffffffff89166001600160a01b0302640100000000600160c01b03602083901b166001600160c01b038216816124ca576124ca614174565b0497505050505050505b9250925092565b600080836001600160a01b0316856001600160a01b031611156124fc579293925b846001600160a01b0316866001600160a01b03161161252757612520858585613107565b915061256e565b836001600160a01b0316866001600160a01b031610156125605761254c868585613107565b915061255985878561317a565b905061256e565b61256b85858561317a565b90505b94509492505050565b6000836001600160a01b0316856001600160a01b03161115612597579293925b846001600160a01b0316866001600160a01b0316116125c2576125bb858585611ec5565b905061048b565b836001600160a01b0316866001600160a01b031610156126245760006125e9878686611ec5565b905060006125f8878986611f2f565b9050806001600160801b0316826001600160801b031610612619578061261b565b815b9250505061048b565b61262f858584611f2f565b9695505050505050565b6000806000846001600160a01b03166316f0115b6040518163ffffffff1660e01b815260040160206040518083038186803b15801561267757600080fd5b505afa15801561268b573d6000803e3d6000fd5b505050506040513d601f19601f820116820180604052508101906126af9190614018565b6001600160a01b0316633850c7bd6040518163ffffffff1660e01b815260040160e06040518083038186803b1580156126e757600080fd5b505afa1580156126fb573d6000803e3d6000fd5b505050506040513d601f19601f8201168201806040525081019061271f9190614418565b505050505091505061274a604080516060810182526000808252602082018190529181019190915290565b604051631f76c47560e21b8152600289900b60048201526001600160a01b03871690637ddb11d49060240160206040518083038186803b15801561278d57600080fd5b505afa1580156127a1573d6000803e3d6000fd5b505050506040513d601f19601f820116820180604052508101906127c591906147fb565b1561284c576040516337182c1b60e01b8152600289900b60048201526001600160a01b038716906337182c1b9060240160606040518083038186803b15801561280d57600080fd5b505afa158015612821573d6000803e3d6000fd5b505050506040513d601f19601f820116820180604052508101906128459190614828565b9050612859565b61285688876131c4565b90505b6040805160608101825260008082526020820181905291810191909152604051631f76c47560e21b8152600289900b60048201526001600160a01b03881690637ddb11d49060240160206040518083038186803b1580156128b957600080fd5b505afa1580156128cd573d6000803e3d6000fd5b505050506040513d601f19601f820116820180604052508101906128f191906147fb565b15612978576040516337182c1b60e01b8152600289900b60048201526001600160a01b038816906337182c1b9060240160606040518083038186803b15801561293957600080fd5b505afa15801561294d573d6000803e3d6000fd5b505050506040513d601f19601f820116820180604052508101906129719190614828565b9050612985565b61298288886131c4565b90505b60008960020b8460020b1261299f575060408201516129a8565b50604082015186035b60008960020b8560020b12156129c3575060408201516129cc565b50604082015187035b8188038190039b9101969096119850949650505050505050565b604051633b274a6760e11b8152600284810b600483015283900b60248201526000906001600160a01b0383169063764e94ce9060440160206040518083038186803b158015612a3457600080fd5b505afa158015612a48573d6000803e3d6000fd5b505050506040513d601f19601f82011682018060405250810190612a6c91906147fb565b15612afb5760405163f946160160e01b8152600285810b600483015284900b60248201526001600160a01b0383169063f94616019060440160206040518083038186803b158015612abc57600080fd5b505afa158015612ad0573d6000803e3d6000fd5b505050506040513d601f19601f82011682018060405250810190612af4919061457a565b9050610c93565b6000826001600160a01b0316634e8845e06040518163ffffffff1660e01b815260040160206040518083038186803b158015612b3657600080fd5b505afa158015612b4a573d6000803e3d6000fd5b505050506040513d601f19601f82011682018060405250810190612b6e9190614018565b60405163054e355f60e51b8152600287810b600483015286900b60248201526001600160a01b03919091169063a9c6abe09060440160206040518083038186803b158015612bbb57600080fd5b505afa158015612bcf573d6000803e3d6000fd5b505050506040513d601f19601f82011682018060405250810190612bf391906147fb565b90508015612cf857826001600160a01b0316634e8845e06040518163ffffffff1660e01b815260040160206040518083038186803b158015612c3457600080fd5b505afa158015612c48573d6000803e3d6000fd5b505050506040513d601f19601f82011682018060405250810190612c6c9190614018565b60405163f946160160e01b8152600287810b600483015286900b60248201526001600160a01b03919091169063f94616019060440160206040518083038186803b158015612cb957600080fd5b505afa158015612ccd573d6000803e3d6000fd5b505050506040513d601f19601f82011682018060405250810190612cf1919061457a565b9150612dee565b826001600160a01b031663b77efe0f6040518163ffffffff1660e01b815260040160206040518083038186803b158015612d3157600080fd5b505afa158015612d45573d6000803e3d6000fd5b505050506040513d601f19601f82011682018060405250810190612d699190614018565b60405163f946160160e01b8152600287810b600483015286900b60248201526001600160a01b03919091169063f94616019060440160206040518083038186803b158015612db657600080fd5b505afa158015612dca573d6000803e3d6000fd5b505050506040513d601f19601f82011682018060405250810190610c8f919061457a565b509392505050565b806001600160801b0381168114612e0c57600080fd5b919050565b600080600080612f31866001600160a01b031663c45a01556040518163ffffffff1660e01b815260040160206040518083038186803b158015612e5357600080fd5b505afa158015612e67573d6000803e3d6000fd5b505050506040513d601f19601f82011682018060405250810190612e8b9190614018565b865160208801516040808a01519051630b4c774160e11b81526001600160a01b039384166004820152918316602483015262ffffff166044820152911690631698ee829060640160206040518083038186803b158015612eea57600080fd5b505afa158015612efe573d6000803e3d6000fd5b505050506040513d601f19601f82011682018060405250810190612f229190614018565b86606001518760800151613617565b91509150846101000151612f5d8660c0015184038760a001516001600160801b0316600160801b6121ca565b019350846101200151612f888660e0015183038760a001516001600160801b0316600160801b6121ca565b01925050509250929050565b600081612fa357506000919050565b816001600160801b8210612fbc5760809190911c9060401b5b680100000000000000008210612fd75760409190911c9060201b5b6401000000008210612fee5760209190911c9060101b5b6201000082106130035760109190911c9060081b5b61010082106130175760089190911c9060041b5b6010821061302a5760049190911c9060021b5b600882106130365760011b5b60016130428286614633565b61304c90836142ed565b901c9050600161305c8286614633565b61306690836142ed565b901c905060016130768286614633565b61308090836142ed565b901c905060016130908286614633565b61309a90836142ed565b901c905060016130aa8286614633565b6130b490836142ed565b901c905060016130c48286614633565b6130ce90836142ed565b901c905060016130de8286614633565b6130e890836142ed565b901c905060006130f88286614633565b9050808210612dee578061048b565b6000826001600160a01b0316846001600160a01b03161115613127579192915b6001600160a01b0384166131706fffffffffffffffffffffffffffffffff60601b606085901b16613158878761465b565b6001600160a01b0316866001600160a01b03166121ca565b611ebd9190614633565b6000826001600160a01b0316846001600160a01b0316111561319a579192915b611ebd6001600160801b0383166131b1868661465b565b6001600160a01b0316600160601b6121ca565b6040805160608101825260008082526020820181905291810191909152816001600160a01b0316634e8845e06040518163ffffffff1660e01b815260040160206040518083038186803b15801561321a57600080fd5b505afa15801561322e573d6000803e3d6000fd5b505050506040513d601f19601f820116820180604052508101906132529190614018565b604051631f76c47560e21b8152600285900b60048201526001600160a01b039190911690637ddb11d49060240160206040518083038186803b15801561329757600080fd5b505afa1580156132ab573d6000803e3d6000fd5b505050506040513d601f19601f820116820180604052508101906132cf91906147fb565b156133df57816001600160a01b0316634e8845e06040518163ffffffff1660e01b815260040160206040518083038186803b15801561330d57600080fd5b505afa158015613321573d6000803e3d6000fd5b505050506040513d601f19601f820116820180604052508101906133459190614018565b6040516337182c1b60e01b8152600285900b60048201526001600160a01b0391909116906337182c1b9060240160606040518083038186803b15801561338a57600080fd5b505afa15801561339e573d6000803e3d6000fd5b505050506040513d601f19601f820116820180604052508101906133c29190614891565b6040840152600f0b60208301526001600160801b031681526106ea565b816001600160a01b031663b77efe0f6040518163ffffffff1660e01b815260040160206040518083038186803b15801561341857600080fd5b505afa15801561342c573d6000803e3d6000fd5b505050506040513d601f19601f820116820180604052508101906134509190614018565b604051631f76c47560e21b8152600285900b60048201526001600160a01b039190911690637ddb11d49060240160206040518083038186803b15801561349557600080fd5b505afa1580156134a9573d6000803e3d6000fd5b505050506040513d601f19601f820116820180604052508101906134cd91906147fb565b1561350b57816001600160a01b031663b77efe0f6040518163ffffffff1660e01b815260040160206040518083038186803b15801561330d57600080fd5b816001600160a01b031663ac1f40e16040518163ffffffff1660e01b815260040160206040518083038186803b15801561354457600080fd5b505afa158015613558573d6000803e3d6000fd5b505050506040513d601f19601f8201168201806040525081019061357c9190614018565b6040516337182c1b60e01b8152600285900b60048201526001600160a01b0391909116906337182c1b9060240160606040518083038186803b1580156135c157600080fd5b505afa1580156135d5573d6000803e3d6000fd5b505050506040513d601f19601f820116820180604052508101906135f99190614891565b6040840152600f0b60208301526001600160801b0316815292915050565b6000806000856001600160a01b0316633850c7bd6040518163ffffffff1660e01b815260040160e06040518083038186803b15801561365557600080fd5b505afa158015613669573d6000803e3d6000fd5b505050506040513d601f19601f8201168201806040525081019061368d9190614418565b505060405163f30dba9360e01b815260028b900b60048201529395506000945084936001600160a01b038c16935063f30dba93925060240190506101006040518083038186803b1580156136e057600080fd5b505afa1580156136f4573d6000803e3d6000fd5b505050506040513d601f19601f8201168201806040525081019061371891906148cf565b505060405163f30dba9360e01b815260028d900b600482015293975091955060009450849350506001600160a01b038c169163f30dba9391506024016101006040518083038186803b15801561376d57600080fd5b505afa158015613781573d6000803e3d6000fd5b505050506040513d601f19601f820116820180604052508101906137a591906148cf565b505050509350935050508860020b8560020b12156137cc57818403965080830395506138e4565b8760020b8560020b12156138d95760008a6001600160a01b031663f30583996040518163ffffffff1660e01b815260040160206040518083038186803b15801561381557600080fd5b505afa158015613829573d6000803e3d6000fd5b505050506040513d601f19601f8201168201806040525081019061384d919061457a565b905060008b6001600160a01b031663461413196040518163ffffffff1660e01b815260040160206040518083038186803b15801561388a57600080fd5b505afa15801561389e573d6000803e3d6000fd5b505050506040513d601f19601f820116820180604052508101906138c2919061457a565b9050838683030398508285820303975050506138e4565b838203965082810395505b5050505050935093915050565b60006020828403121561390357600080fd5b5035919050565b6001600160a01b038116811461391f57600080fd5b50565b6000806040838503121561393557600080fd5b82356139408161390a565b946020939093013593505050565b634e487b7160e01b600052604160045260246000fd5b60405161012081016001600160401b03811182821017156139875761398761394e565b60405290565b604051601f8201601f191681016001600160401b03811182821017156139b5576139b561394e565b604052919050565b60006001600160401b038211156139d6576139d661394e565b5060051b60200190565b600082601f8301126139f157600080fd5b81356020613a06613a01836139bd565b61398d565b82815260059290921b84018101918181019086841115613a2557600080fd5b8286015b84811015613a49578035613a3c8161390a565b8352918301918301613a29565b509695505050505050565b63ffffffff8116811461391f57600080fd5b600080600060608486031215613a7b57600080fd5b83356001600160401b03811115613a9157600080fd5b613a9d868287016139e0565b9350506020840135613aae8161390a565b91506040840135613abe81613a54565b809150509250925092565b8060020b811461391f57600080fd5b600080600080600060a08688031215613af057600080fd5b8535613afb8161390a565b94506020860135613b0b81613ac9565b93506040860135613b1b81613ac9565b94979396509394606081013594506080013592915050565b60008060408385031215613b4657600080fd5b823591506020830135613b588161390a565b809150509250929050565b600081518084526020808501945080840160005b83811015613b9357815187529582019590820190600101613b77565b509495945050505050565b602081526000610c936020830184613b63565b600080600060608486031215613bc657600080fd5b505081359360208301359350604090920135919050565b604081526000613bf06040830185613b63565b8281036020840152610c8f8185613b63565b600060c08284031215613c1457600080fd5b60405160c081018181106001600160401b0382111715613c3657613c3661394e565b604052823581529050806020830135613c4e8161390a565b60208201526040830135613c618161390a565b60408201526060830135613c748161390a565b60608201526080830135613c878161390a565b608082015260a0830135613c9a81613a54565b60a0919091015292915050565b60008060006101008486031215613cbd57600080fd5b613cc78585613c02565b925060c0840135613cd78161390a565b9295929450505060e0919091013590565b600080600060608486031215613cfd57600080fd5b8335613d0881613ac9565b92506020840135613aae8161390a565b600060c08284031215613d2a57600080fd5b610c938383613c02565b8035612e0c8161390a565b60008060008060008060c08789031215613d5857600080fd5b863595506020870135613d6a8161390a565b9450604087013593506060870135613d818161390a565b925060808701356001600160401b03811115613d9c57600080fd5b613da889828a016139e0565b92505060a0870135613db98161390a565b809150509295509295509295565b6001600160801b038116811461391f57600080fd5b600080600060608486031215613df157600080fd5b8335613dfc81613dc7565b92506020840135613e0c8161390a565b929592945050506040919091013590565b600080600060608486031215613e3257600080fd5b83356001600160401b03811115613e4857600080fd5b8401601f81018613613e5957600080fd5b80356020613e69613a01836139bd565b82815260059290921b83018101918181019089841115613e8857600080fd5b938201935b83851015613ea657843582529382019390820190613e8d565b9650613eb59050878201613d34565b9450505050604084013590509250925092565b600080600080600060a08688031215613ee057600080fd5b505083359560208501359550604085013594606081013594506080013592509050565b8051612e0c8161390a565b805162ffffff81168114612e0c57600080fd5b8051612e0c81613ac9565b8051612e0c81613dc7565b6000806000806000806000806000806000806101808d8f031215613f5a57600080fd5b8c516bffffffffffffffffffffffff81168114613f7657600080fd5b9b50613f8460208e01613f03565b9a50613f9260408e01613f03565b9950613fa060608e01613f03565b9850613fae60808e01613f0e565b9750613fbc60a08e01613f21565b9650613fca60c08e01613f21565b9550613fd860e08e01613f2c565b94506101008d015193506101208d01519250613ff76101408e01613f2c565b91506140066101608e01613f2c565b90509295989b509295989b509295989b565b60006020828403121561402a57600080fd5b8151610c938161390a565b6000610120828403121561404857600080fd5b614050613964565b61405983613f2c565b815261406760208401613f2c565b602082015261407860408401613f21565b604082015261408960608401613f21565b60608201526080830151608082015260a083015160a08201526140ae60c08401613f03565b60c082015260e08381015190820152610100928301519281019290925250919050565b600060e082840312156140e357600080fd5b60405160e081018181106001600160401b03821117156141055761410561394e565b60405282518152602083015161411a8161390a565b6020820152604083015161412d8161390a565b604082015260608301516141408161390a565b606082015261415160808401613f0e565b608082015260a083015160a082015260c083015160c08201528091505092915050565b634e487b7160e01b600052601260045260246000fd5b634e487b7160e01b600052603260045260246000fd5b600082601f8301126141b157600080fd5b815160206141c1613a01836139bd565b82815260059290921b840181019181810190868411156141e057600080fd5b8286015b84811015613a4957805183529183019183016141e4565b6000806040838503121561420e57600080fd5b82516001600160401b038082111561422557600080fd5b614231868387016141a0565b9350602085015191508082111561424757600080fd5b50614254858286016141a0565b9150509250929050565b600060208083528351808285015260005b8181101561428b5785810183015185820160400152820161426f565b8181111561429d576000604083870101525b50601f01601f1916929092016040019392505050565b634e487b7160e01b600052601160045260246000fd5b600063ffffffff808316818114156142e3576142e36142b3565b6001019392505050565b60008219821115614300576143006142b3565b500190565b60008160020b8360020b6000811281627fffff190183128115161561432c5761432c6142b3565b81627fffff018313811615614343576143436142b3565b5090039392505050565b60006040828403121561435f57600080fd5b604051604081018181106001600160401b03821117156143815761438161394e565b604052825161438f8161390a565b8152602083015161439f8161390a565b60208201529392505050565b6000602082840312156143bd57600080fd5b604051602081018181106001600160401b03821117156143df576143df61394e565b60405282516143ed81613a54565b81529392505050565b805161ffff81168114612e0c57600080fd5b80518015158114612e0c57600080fd5b600080600080600080600060e0888a03121561443357600080fd5b875161443e8161390a565b602089015190975061444f81613ac9565b955061445d604089016143f6565b945061446b606089016143f6565b9350614479608089016143f6565b925060a088015161448981613a54565b915061449760c08901614408565b905092959891949750929550565b600060c082840312156144b757600080fd5b60405160c081018181106001600160401b03821117156144d9576144d961394e565b6040528251815260208301516144ee8161390a565b602082015260408301516145018161390a565b604082015260608301516145148161390a565b606082015260808301516145278161390a565b608082015260a083015161453a81613a54565b60a08201529392505050565b600082821015614558576145586142b3565b500390565b60006020828403121561456f57600080fd5b8151610c9381613a54565b60006020828403121561458c57600080fd5b5051919050565b6000602082840312156145a557600080fd5b8151610c9381613dc7565b600080604083850312156145c357600080fd5b505080516020909101519092909150565b6000600160ff1b8214156145ea576145ea6142b3565b5060000390565b60008160020b627fffff1981141561460b5761460b6142b3565b60000392915050565b600081600019048311821515161561462e5761462e6142b3565b500290565b60008261464257614642614174565b500490565b60008261465657614656614174565b500690565b60006001600160a01b038381169083168181101561467b5761467b6142b3565b039392505050565b6020808252825182820181905260009190848201906040850190845b818110156146c157835163ffffffff168352928401929184019160010161469f565b50909695505050505050565b8051600681900b8114612e0c57600080fd5b600082601f8301126146f057600080fd5b81516020614700613a01836139bd565b82815260059290921b8401810191818101908684111561471f57600080fd5b8286015b84811015613a495780516147368161390a565b8352918301918301614723565b6000806040838503121561475657600080fd5b82516001600160401b038082111561476d57600080fd5b818501915085601f83011261478157600080fd5b81516020614791613a01836139bd565b82815260059290921b840181019181810190898411156147b057600080fd5b948201945b838610156147d5576147c6866146cd565b825294820194908201906147b5565b918801519196509093505050808211156147ee57600080fd5b50614254858286016146df565b60006020828403121561480d57600080fd5b610c9382614408565b8051600f81900b8114612e0c57600080fd5b60006060828403121561483a57600080fd5b604051606081018181106001600160401b038211171561485c5761485c61394e565b604052825161486a81613dc7565b815261487860208401614816565b6020820152604083015160408201528091505092915050565b6000806000606084860312156148a657600080fd5b83516148b181613dc7565b92506148bf60208501614816565b9150604084015190509250925092565b600080600080600080600080610100898b0312156148ec57600080fd5b88516148f781613dc7565b975061490560208a01614816565b9650604089015195506060890151945061492160808a016146cd565b935060a08901516149318161390a565b60c08a015190935061494281613a54565b915061495060e08a01614408565b9050929598509295989093965056fea2646970667358221220d74b8c5d5eb587a83dd1aa6c6e48b236cb49568dc4397276bde9dc12c62d488a64736f6c63430008090033",
    "linkReferences": {}
  },
  "methodIdentifiers": {
    "calculateActualPendingCake(address,uint256)": "09c552ed",
    "calculateAmountOfCakeInUnderlying((uint256,address,address,address,address,uint32),address,uint256)": "70cddb79",
    "calculateCakePriceX96InUnderlying((uint256,address,address,address,address,uint32))": "91bb9a21",
    "calculateTvlByMinMaxPrices(uint256,uint256,uint256)": "5a7fed00",
    "calculateTvlBySqrtPriceX96(uint256,uint160)": "1c92ce35",
    "getFeesByNft(uint256)": "345058ea",
    "getMinMaxPrice(address[],address,uint32)": "1847df62",
    "getPoolByNft(uint256)": "073e3c0b",
    "getPositionTokenAmountsByCapitalOfToken0(uint256,uint256,uint256,uint256,uint256)": "faa0b1d5",
    "getTickDeviationForTimeSpan(int24,address,uint32)": "8a2405f6",
    "liquidityToTokenAmounts(uint128,address,uint256)": "db9936bf",
    "positionManager()": "791b98bc",
    "tokenAmountsToLiquidity(uint256[],address,uint256)": "edda8370",
    "tokenAmountsToMaximalLiquidity(uint160,int24,int24,uint256,uint256)": "1aa54edb",
    "tvl(uint256,address,uint256,address,address[],address)": "c2ecd0bc"
  },
  "id": 426
}