{
  "abi": [
    {
      "inputs": [],
      "name": "Q128",
      "outputs": [
        {
          "internalType": "uint256",
          "name": "",
          "type": "uint256"
        }
      ],
      "stateMutability": "view",
      "type": "function"
    }
  ],
  "bytecode": {
    "object": "0x608a610038600b82828239805160001a607314602b57634e487b7160e01b600052600060045260246000fd5b30600052607381538281f3fe730000000000000000000000000000000000000000301460806040526004361060335760003560e01c8063b4b15f71146038575b600080fd5b6042600160801b81565b60405190815260200160405180910390f3fea264697066735822122019fa52847c01f7e7c0fabfbc020db3709cf972708846de57bc7cc7f04957a6b864736f6c63430008090033",
    "linkReferences": {}
  },
  "methodIdentifiers": {
    "Q128()": "b4b15f71"
  },
  "id": 292
}