{
  "abi": [
    {
      "inputs": [],
      "stateMutability": "nonpayable",
      "type": "constructor"
    },
    {
      "anonymous": false,
      "inputs": [
        {
          "indexed": true,
          "internalType": "address",
          "name": "owner",
          "type": "address"
        },
        {
          "indexed": true,
          "internalType": "address",
          "name": "spender",
          "type": "address"
        },
        {
          "indexed": false,
          "internalType": "uint256",
          "name": "value",
          "type": "uint256"
        }
      ],
      "name": "Approval",
      "type": "event"
    },
    {
      "anonymous": false,
      "inputs": [
        {
          "indexed": true,
          "internalType": "address",
          "name": "from",
          "type": "address"
        },
        {
          "indexed": true,
          "internalType": "address",
          "name": "to",
          "type": "address"
        },
        {
          "indexed": false,
          "internalType": "uint256",
          "name": "value",
          "type": "uint256"
        }
      ],
      "name": "Transfer",
      "type": "event"
    },
    {
      "inputs": [],
      "name": "DOMAIN_SEPARATOR",
      "outputs": [
        {
          "internalType": "bytes32",
          "name": "",
          "type": "bytes32"
        }
      ],
      "stateMutability": "view",
      "type": "function"
    },
    {
      "inputs": [],
      "name": "PERMIT_TYPEHASH",
      "outputs": [
        {
          "internalType": "bytes32",
          "name": "",
          "type": "bytes32"
        }
      ],
      "stateMutability": "view",
      "type": "function"
    },
    {
      "inputs": [
        {
          "internalType": "address",
          "name": "",
          "type": "address"
        },
        {
          "internalType": "address",
          "name": "",
          "type": "address"
        }
      ],
      "name": "allowance",
      "outputs": [
        {
          "internalType": "uint256",
          "name": "",
          "type": "uint256"
        }
      ],
      "stateMutability": "view",
      "type": "function"
    },
    {
      "inputs": [
        {
          "internalType": "address",
          "name": "spender",
          "type": "address"
        },
        {
          "internalType": "uint256",
          "name": "amount",
          "type": "uint256"
        }
      ],
      "name": "approve",
      "outputs": [
        {
          "internalType": "bool",
          "name": "",
          "type": "bool"
        }
      ],
      "stateMutability": "nonpayable",
      "type": "function"
    },
    {
      "inputs": [
        {
          "internalType": "address",
          "name": "",
          "type": "address"
        }
      ],
      "name": "balanceOf",
      "outputs": [
        {
          "internalType": "uint256",
          "name": "",
          "type": "uint256"
        }
      ],
      "stateMutability": "view",
      "type": "function"
    },
    {
      "inputs": [],
      "name": "decimals",
      "outputs": [
        {
          "internalType": "uint8",
          "name": "",
          "type": "uint8"
        }
      ],
      "stateMutability": "view",
      "type": "function"
    },
    {
      "inputs": [],
      "name": "name",
      "outputs": [
        {
          "internalType": "string",
          "name": "",
          "type": "string"
        }
      ],
      "stateMutability": "view",
      "type": "function"
    },
    {
      "inputs": [
        {
          "internalType": "address",
          "name": "",
          "type": "address"
        }
      ],
      "name": "nonces",
      "outputs": [
        {
          "internalType": "uint256",
          "name": "",
          "type": "uint256"
        }
      ],
      "stateMutability": "view",
      "type": "function"
    },
    {
      "inputs": [
        {
          "internalType": "address",
          "name": "owner",
          "type": "address"
        },
        {
          "internalType": "address",
          "name": "spender",
          "type": "address"
        },
        {
          "internalType": "uint256",
          "name": "value",
          "type": "uint256"
        },
        {
          "internalType": "uint256",
          "name": "deadline",
          "type": "uint256"
        },
        {
          "internalType": "uint8",
          "name": "v",
          "type": "uint8"
        },
        {
          "internalType": "bytes32",
          "name": "r",
          "type": "bytes32"
        },
        {
          "internalType": "bytes32",
          "name": "s",
          "type": "bytes32"
        }
      ],
      "name": "permit",
      "outputs": [],
      "stateMutability": "nonpayable",
      "type": "function"
    },
    {
      "inputs": [],
      "name": "symbol",
      "outputs": [
        {
          "internalType": "string",
          "name": "",
          "type": "string"
        }
      ],
      "stateMutability": "view",
      "type": "function"
    },
    {
      "inputs": [],
      "name": "totalSupply",
      "outputs": [
        {
          "internalType": "uint256",
          "name": "",
          "type": "uint256"
        }
      ],
      "stateMutability": "view",
      "type": "function"
    },
    {
      "inputs": [
        {
          "internalType": "address",
          "name": "to",
          "type": "address"
        },
        {
          "internalType": "uint256",
          "name": "amount",
          "type": "uint256"
        }
      ],
      "name": "transfer",
      "outputs": [
        {
          "internalType": "bool",
          "name": "",
          "type": "bool"
        }
      ],
      "stateMutability": "nonpayable",
      "type": "function"
    },
    {
      "inputs": [
        {
          "internalType": "address",
          "name": "from",
          "type": "address"
        },
        {
          "internalType": "address",
          "name": "to",
          "type": "address"
        },
        {
          "internalType": "uint256",
          "name": "amount",
          "type": "uint256"
        }
      ],
      "name": "transferFrom",
      "outputs": [
        {
          "internalType": "bool",
          "name": "",
          "type": "bool"
        }
      ],
      "stateMutability": "nonpayable",
      "type": "function"
    }
  ],
  "bytecode": {
    "object": "0x60a060405234801561001057600080fd5b5046608052608051610a87610030600039600061040b0152610a876000f3fe608060405234801561001057600080fd5b50600436106100cf5760003560e01c80633644e5151161008c57806395d89b411161006657806395d89b41146101c8578063a9059cbb146101d0578063d505accf146101e3578063dd62ed3e146101f857600080fd5b80633644e5151461018057806370a08231146101885780637ecebe00146101a857600080fd5b806306fdde03146100d4578063095ea7b3146100f257806318160ddd1461011557806323b872dd1461012c57806330adf81f1461013f578063313ce56714610166575b600080fd5b6100dc610223565b6040516100e991906107b6565b60405180910390f35b610105610100366004610827565b6102b1565b60405190151581526020016100e9565b61011e60025481565b6040519081526020016100e9565b61010561013a366004610851565b61031d565b61011e7f6e71edae12b1b97f4d1f60370fef10105fa2faae0126114a169c64845d6126c981565b61016e601281565b60405160ff90911681526020016100e9565b61011e610407565b61011e61019636600461088d565b60006020819052908152604090205481565b61011e6101b636600461088d565b60066020526000908152604090205481565b6100dc610444565b6101056101de366004610827565b610451565b6101f66101f13660046108af565b6104c6565b005b61011e610206366004610922565b600160209081526000928352604080842090915290825290205481565b6003805461023090610955565b80601f016020809104026020016040519081016040528092919081815260200182805461025c90610955565b80156102a95780601f1061027e576101008083540402835291602001916102a9565b820191906000526020600020905b81548152906001019060200180831161028c57829003601f168201915b505050505081565b3360008181526001602090815260408083206001600160a01b038716808552925280832085905551919290917f8c5be1e5ebec7d5bd14f71427d1e84f3dd0314c0f7b2291e5b200ac8c7c3b9259061030c9086815260200190565b60405180910390a350600192915050565b6001600160a01b03831660009081526001602090815260408083203384529091528120546000198114610379576103548382610990565b6001600160a01b03861660009081526001602090815260408083203384529091529020555b6001600160a01b038516600090815260208190526040812080548592906103a1908490610990565b90915550506001600160a01b0384811660008181526020818152604091829020805488019055905186815291928816917fddf252ad1be2c89b69c2b068fc378daa952ba7f163c4a11628f55a4df523b3ef910160405180910390a3506001949350505050565b60007f0000000000000000000000000000000000000000000000000000000000000000461461043d5761043861071c565b905090565b5060055490565b6004805461023090610955565b33600090815260208190526040812080548391908390610472908490610990565b90915550506001600160a01b03831660008181526020818152604091829020805486019055905184815233917fddf252ad1be2c89b69c2b068fc378daa952ba7f163c4a11628f55a4df523b3ef910161030c565b604080518082019091526002815261545360f01b6020820152428510156105095760405162461bcd60e51b815260040161050091906107b6565b60405180910390fd5b506000610514610407565b6001600160a01b038981166000818152600660209081526040918290205482517f6e71edae12b1b97f4d1f60370fef10105fa2faae0126114a169c64845d6126c98184015280840194909452938c166060840152608083018b905260a083019390935260c08083018a90528151808403909101815260e08301909152805192019190912061190160f01b6101008301526101028201929092526101228101919091526101420160408051808303601f1901815282825280516020918201206001600160a01b038c166000908152600683528381208054600190810190915581865292850180855282905260ff89169385019390935260608401879052608084018690529350909160a0016020604051602081039080840390855afa158015610640573d6000803e3d6000fd5b5050604051601f1901519150506001600160a01b038116158015906106765750886001600160a01b0316816001600160a01b0316145b6040518060400160405280600381526020016223292160e91b815250906106b05760405162461bcd60e51b815260040161050091906107b6565b506001600160a01b0390811660009081526001602090815260408083208b8516808552908352928190208a905551898152919350918a16917f8c5be1e5ebec7d5bd14f71427d1e84f3dd0314c0f7b2291e5b200ac8c7c3b925910160405180910390a350505050505050565b60007f8b73c3c69bb8fe3d512ecc4cf759cc79239f7b179b0ffacaa9a75d522b39400f600360405161074e91906109b5565b6040805191829003822060208301939093528101919091527fc89efdaa54c0f20c7adf612882df0950f5a951637e0307cdcb4c672f298b8bc660608201524660808201523060a082015260c00160405160208183030381529060405280519060200120905090565b600060208083528351808285015260005b818110156107e3578581018301518582016040015282016107c7565b818111156107f5576000604083870101525b50601f01601f1916929092016040019392505050565b80356001600160a01b038116811461082257600080fd5b919050565b6000806040838503121561083a57600080fd5b6108438361080b565b946020939093013593505050565b60008060006060848603121561086657600080fd5b61086f8461080b565b925061087d6020850161080b565b9150604084013590509250925092565b60006020828403121561089f57600080fd5b6108a88261080b565b9392505050565b600080600080600080600060e0888a0312156108ca57600080fd5b6108d38861080b565b96506108e16020890161080b565b95506040880135945060608801359350608088013560ff8116811461090557600080fd5b9699959850939692959460a0840135945060c09093013592915050565b6000806040838503121561093557600080fd5b61093e8361080b565b915061094c6020840161080b565b90509250929050565b600181811c9082168061096957607f821691505b6020821081141561098a57634e487b7160e01b600052602260045260246000fd5b50919050565b6000828210156109b057634e487b7160e01b600052601160045260246000fd5b500390565b600080835481600182811c9150808316806109d157607f831692505b60208084108214156109f157634e487b7160e01b86526022600452602486fd5b818015610a055760018114610a1657610a43565b60ff19861689528489019650610a43565b60008a81526020902060005b86811015610a3b5781548b820152908501908301610a22565b505084890196505b50949897505050505050505056fea26469706673582212206181fffaca25a09f43bed6d81febbe889c259b05060bdb19ec449caaecce139164736f6c63430008090033",
    "linkReferences": {}
  },
  "methodIdentifiers": {
    "DOMAIN_SEPARATOR()": "3644e515",
    "PERMIT_TYPEHASH()": "30adf81f",
    "allowance(address,address)": "dd62ed3e",
    "approve(address,uint256)": "095ea7b3",
    "balanceOf(address)": "70a08231",
    "decimals()": "313ce567",
    "name()": "06fdde03",
    "nonces(address)": "7ecebe00",
    "permit(address,address,uint256,uint256,uint8,bytes32,bytes32)": "d505accf",
    "symbol()": "95d89b41",
    "totalSupply()": "18160ddd",
    "transfer(address,uint256)": "a9059cbb",
    "transferFrom(address,address,uint256)": "23b872dd"
  },
  "id": 418
}