{
  "abi": [
    {
      "anonymous": false,
      "inputs": [
        {
          "indexed": true,
          "internalType": "address",
          "name": "owner",
          "type": "address"
        },
        {
          "indexed": true,
          "internalType": "address",
          "name": "spender",
          "type": "address"
        },
        {
          "indexed": false,
          "internalType": "uint256",
          "name": "value",
          "type": "uint256"
        }
      ],
      "name": "Approval",
      "type": "event"
    },
    {
      "anonymous": false,
      "inputs": [
        {
          "indexed": true,
          "internalType": "address",
          "name": "from",
          "type": "address"
        },
        {
          "indexed": false,
          "internalType": "address[]",
          "name": "tokens",
          "type": "address[]"
        },
        {
          "indexed": false,
          "internalType": "uint256[]",
          "name": "actualTokenAmounts",
          "type": "uint256[]"
        },
        {
          "indexed": false,
          "internalType": "uint256",
          "name": "lpTokenMinted",
          "type": "uint256"
        }
      ],
      "name": "Deposit",
      "type": "event"
    },
    {
      "anonymous": false,
      "inputs": [
        {
          "indexed": false,
          "internalType": "string",
          "name": "reason",
          "type": "string"
        }
      ],
      "name": "DepositCallbackLog",
      "type": "event"
    },
    {
      "anonymous": false,
      "inputs": [
        {
          "indexed": true,
          "internalType": "address",
          "name": "origin",
          "type": "address"
        },
        {
          "indexed": true,
          "internalType": "address",
          "name": "sender",
          "type": "address"
        },
        {
          "indexed": false,
          "internalType": "address[]",
          "name": "vaultTokens_",
          "type": "address[]"
        },
        {
          "indexed": false,
          "internalType": "uint256",
          "name": "nft_",
          "type": "uint256"
        }
      ],
      "name": "Initialized",
      "type": "event"
    },
    {
      "anonymous": false,
      "inputs": [
        {
          "indexed": true,
          "internalType": "address",
          "name": "treasury",
          "type": "address"
        },
        {
          "indexed": false,
          "internalType": "uint256",
          "name": "feeRate",
          "type": "uint256"
        },
        {
          "indexed": false,
          "internalType": "uint256",
          "name": "amount",
          "type": "uint256"
        }
      ],
      "name": "ManagementFeesCharged",
      "type": "event"
    },
    {
      "anonymous": false,
      "inputs": [
        {
          "indexed": true,
          "internalType": "address",
          "name": "treasury",
          "type": "address"
        },
        {
          "indexed": false,
          "internalType": "uint256",
          "name": "feeRate",
          "type": "uint256"
        },
        {
          "indexed": false,
          "internalType": "uint256",
          "name": "amount",
          "type": "uint256"
        }
      ],
      "name": "PerformanceFeesCharged",
      "type": "event"
    },
    {
      "anonymous": false,
      "inputs": [
        {
          "indexed": true,
          "internalType": "address",
          "name": "treasury",
          "type": "address"
        },
        {
          "indexed": false,
          "internalType": "uint256",
          "name": "feeRate",
          "type": "uint256"
        },
        {
          "indexed": false,
          "internalType": "uint256",
          "name": "amount",
          "type": "uint256"
        }
      ],
      "name": "ProtocolFeesCharged",
      "type": "event"
    },
    {
      "anonymous": false,
      "inputs": [
        {
          "indexed": true,
          "internalType": "address",
          "name": "from",
          "type": "address"
        },
        {
          "indexed": true,
          "internalType": "address",
          "name": "to",
          "type": "address"
        },
        {
          "indexed": false,
          "internalType": "uint256",
          "name": "value",
          "type": "uint256"
        }
      ],
      "name": "Transfer",
      "type": "event"
    },
    {
      "anonymous": false,
      "inputs": [
        {
          "indexed": true,
          "internalType": "address",
          "name": "from",
          "type": "address"
        },
        {
          "indexed": false,
          "internalType": "address[]",
          "name": "tokens",
          "type": "address[]"
        },
        {
          "indexed": false,
          "internalType": "uint256[]",
          "name": "actualTokenAmounts",
          "type": "uint256[]"
        },
        {
          "indexed": false,
          "internalType": "uint256",
          "name": "lpTokenBurned",
          "type": "uint256"
        }
      ],
      "name": "Withdraw",
      "type": "event"
    },
    {
      "anonymous": false,
      "inputs": [
        {
          "indexed": false,
          "internalType": "string",
          "name": "reason",
          "type": "string"
        }
      ],
      "name": "WithdrawCallbackLog",
      "type": "event"
    },
    {
      "inputs": [],
      "name": "D18",
      "outputs": [
        {
          "internalType": "uint256",
          "name": "",
          "type": "uint256"
        }
      ],
      "stateMutability": "view",
      "type": "function"
    },
    {
      "inputs": [],
      "name": "DOMAIN_SEPARATOR",
      "outputs": [
        {
          "internalType": "bytes32",
          "name": "",
          "type": "bytes32"
        }
      ],
      "stateMutability": "view",
      "type": "function"
    },
    {
      "inputs": [],
      "name": "PERMIT_TYPEHASH",
      "outputs": [
        {
          "internalType": "bytes32",
          "name": "",
          "type": "bytes32"
        }
      ],
      "stateMutability": "view",
      "type": "function"
    },
    {
      "inputs": [
        {
          "internalType": "address[]",
          "name": "depositors",
          "type": "address[]"
        }
      ],
      "name": "addDepositorsToAllowlist",
      "outputs": [],
      "stateMutability": "nonpayable",
      "type": "function"
    },
    {
      "inputs": [
        {
          "internalType": "address",
          "name": "",
          "type": "address"
        },
        {
          "internalType": "address",
          "name": "",
          "type": "address"
        }
      ],
      "name": "allowance",
      "outputs": [
        {
          "internalType": "uint256",
          "name": "",
          "type": "uint256"
        }
      ],
      "stateMutability": "view",
      "type": "function"
    },
    {
      "inputs": [
        {
          "internalType": "address",
          "name": "spender",
          "type": "address"
        },
        {
          "internalType": "uint256",
          "name": "amount",
          "type": "uint256"
        }
      ],
      "name": "approve",
      "outputs": [
        {
          "internalType": "bool",
          "name": "",
          "type": "bool"
        }
      ],
      "stateMutability": "nonpayable",
      "type": "function"
    },
    {
      "inputs": [
        {
          "internalType": "address",
          "name": "",
          "type": "address"
        }
      ],
      "name": "balanceOf",
      "outputs": [
        {
          "internalType": "uint256",
          "name": "",
          "type": "uint256"
        }
      ],
      "stateMutability": "view",
      "type": "function"
    },
    {
      "inputs": [
        {
          "internalType": "uint256",
          "name": "lpTokenAmount",
          "type": "uint256"
        }
      ],
      "name": "cancelWithdrawal",
      "outputs": [
        {
          "internalType": "uint256",
          "name": "totalAmountRequested",
          "type": "uint256"
        }
      ],
      "stateMutability": "nonpayable",
      "type": "function"
    },
    {
      "inputs": [
        {
          "internalType": "address",
          "name": "addr",
          "type": "address"
        }
      ],
      "name": "currentWithdrawalRequested",
      "outputs": [
        {
          "internalType": "uint256",
          "name": "totalAmountRequested",
          "type": "uint256"
        }
      ],
      "stateMutability": "view",
      "type": "function"
    },
    {
      "inputs": [],
      "name": "decimals",
      "outputs": [
        {
          "internalType": "uint8",
          "name": "",
          "type": "uint8"
        }
      ],
      "stateMutability": "view",
      "type": "function"
    },
    {
      "inputs": [
        {
          "internalType": "uint256[]",
          "name": "tokenAmounts",
          "type": "uint256[]"
        },
        {
          "internalType": "uint256",
          "name": "minLpTokens",
          "type": "uint256"
        },
        {
          "internalType": "bytes",
          "name": "vaultOptions",
          "type": "bytes"
        }
      ],
      "name": "deposit",
      "outputs": [
        {
          "internalType": "uint256[]",
          "name": "actualTokenAmounts",
          "type": "uint256[]"
        }
      ],
      "stateMutability": "nonpayable",
      "type": "function"
    },
    {
      "inputs": [],
      "name": "depositorsAllowlist",
      "outputs": [
        {
          "internalType": "address[]",
          "name": "",
          "type": "address[]"
        }
      ],
      "stateMutability": "view",
      "type": "function"
    },
    {
      "inputs": [
        {
          "internalType": "uint256",
          "name": "nft_",
          "type": "uint256"
        }
      ],
      "name": "hasSubvault",
      "outputs": [
        {
          "internalType": "bool",
          "name": "",
          "type": "bool"
        }
      ],
      "stateMutability": "view",
      "type": "function"
    },
    {
      "inputs": [],
      "name": "helper",
      "outputs": [
        {
          "internalType": "contract IERC20RootVaultHelper",
          "name": "",
          "type": "address"
        }
      ],
      "stateMutability": "view",
      "type": "function"
    },
    {
      "inputs": [
        {
          "internalType": "uint256",
          "name": "nft_",
          "type": "uint256"
        },
        {
          "internalType": "address[]",
          "name": "vaultTokens_",
          "type": "address[]"
        },
        {
          "internalType": "address",
          "name": "strategy_",
          "type": "address"
        },
        {
          "internalType": "uint256[]",
          "name": "subvaultNfts_",
          "type": "uint256[]"
        },
        {
          "internalType": "contract IERC20RootVaultHelper",
          "name": "helper_",
          "type": "address"
        }
      ],
      "name": "initialize",
      "outputs": [],
      "stateMutability": "nonpayable",
      "type": "function"
    },
    {
      "inputs": [],
      "name": "initialized",
      "outputs": [
        {
          "internalType": "bool",
          "name": "",
          "type": "bool"
        }
      ],
      "stateMutability": "view",
      "type": "function"
    },
    {
      "inputs": [],
      "name": "invokeExecution",
      "outputs": [],
      "stateMutability": "nonpayable",
      "type": "function"
    },
    {
      "inputs": [
        {
          "internalType": "address",
          "name": "token",
          "type": "address"
        }
      ],
      "name": "isVaultToken",
      "outputs": [
        {
          "internalType": "bool",
          "name": "",
          "type": "bool"
        }
      ],
      "stateMutability": "view",
      "type": "function"
    },
    {
      "inputs": [],
      "name": "lastFeeCharge",
      "outputs": [
        {
          "internalType": "uint64",
          "name": "",
          "type": "uint64"
        }
      ],
      "stateMutability": "view",
      "type": "function"
    },
    {
      "inputs": [],
      "name": "lpPriceHighWaterMarkD18",
      "outputs": [
        {
          "internalType": "uint256",
          "name": "",
          "type": "uint256"
        }
      ],
      "stateMutability": "view",
      "type": "function"
    },
    {
      "inputs": [],
      "name": "name",
      "outputs": [
        {
          "internalType": "string",
          "name": "",
          "type": "string"
        }
      ],
      "stateMutability": "view",
      "type": "function"
    },
    {
      "inputs": [],
      "name": "nft",
      "outputs": [
        {
          "internalType": "uint256",
          "name": "",
          "type": "uint256"
        }
      ],
      "stateMutability": "view",
      "type": "function"
    },
    {
      "inputs": [
        {
          "internalType": "address",
          "name": "",
          "type": "address"
        }
      ],
      "name": "nonces",
      "outputs": [
        {
          "internalType": "uint256",
          "name": "",
          "type": "uint256"
        }
      ],
      "stateMutability": "view",
      "type": "function"
    },
    {
      "inputs": [
        {
          "internalType": "address",
          "name": "owner",
          "type": "address"
        },
        {
          "internalType": "address",
          "name": "spender",
          "type": "address"
        },
        {
          "internalType": "uint256",
          "name": "value",
          "type": "uint256"
        },
        {
          "internalType": "uint256",
          "name": "deadline",
          "type": "uint256"
        },
        {
          "internalType": "uint8",
          "name": "v",
          "type": "uint8"
        },
        {
          "internalType": "bytes32",
          "name": "r",
          "type": "bytes32"
        },
        {
          "internalType": "bytes32",
          "name": "s",
          "type": "bytes32"
        }
      ],
      "name": "permit",
      "outputs": [],
      "stateMutability": "nonpayable",
      "type": "function"
    },
    {
      "inputs": [],
      "name": "pullExistentials",
      "outputs": [
        {
          "internalType": "uint256[]",
          "name": "",
          "type": "uint256[]"
        }
      ],
      "stateMutability": "view",
      "type": "function"
    },
    {
      "inputs": [
        {
          "internalType": "uint256",
          "name": "lpTokenAmount",
          "type": "uint256"
        }
      ],
      "name": "registerWithdrawal",
      "outputs": [
        {
          "internalType": "uint256",
          "name": "totalAmountRequested",
          "type": "uint256"
        }
      ],
      "stateMutability": "nonpayable",
      "type": "function"
    },
    {
      "inputs": [
        {
          "internalType": "address[]",
          "name": "depositors",
          "type": "address[]"
        }
      ],
      "name": "removeDepositorsFromAllowlist",
      "outputs": [],
      "stateMutability": "nonpayable",
      "type": "function"
    },
    {
      "inputs": [
        {
          "internalType": "uint256",
          "name": "index",
          "type": "uint256"
        }
      ],
      "name": "subvaultAt",
      "outputs": [
        {
          "internalType": "address",
          "name": "",
          "type": "address"
        }
      ],
      "stateMutability": "view",
      "type": "function"
    },
    {
      "inputs": [],
      "name": "subvaultNfts",
      "outputs": [
        {
          "internalType": "uint256[]",
          "name": "",
          "type": "uint256[]"
        }
      ],
      "stateMutability": "view",
      "type": "function"
    },
    {
      "inputs": [
        {
          "internalType": "uint256",
          "name": "nft_",
          "type": "uint256"
        }
      ],
      "name": "subvaultOneBasedIndex",
      "outputs": [
        {
          "internalType": "uint256",
          "name": "",
          "type": "uint256"
        }
      ],
      "stateMutability": "view",
      "type": "function"
    },
    {
      "inputs": [
        {
          "internalType": "bytes4",
          "name": "interfaceId",
          "type": "bytes4"
        }
      ],
      "name": "supportsInterface",
      "outputs": [
        {
          "internalType": "bool",
          "name": "",
          "type": "bool"
        }
      ],
      "stateMutability": "view",
      "type": "function"
    },
    {
      "inputs": [],
      "name": "symbol",
      "outputs": [
        {
          "internalType": "string",
          "name": "",
          "type": "string"
        }
      ],
      "stateMutability": "view",
      "type": "function"
    },
    {
      "inputs": [],
      "name": "totalSupply",
      "outputs": [
        {
          "internalType": "uint256",
          "name": "",
          "type": "uint256"
        }
      ],
      "stateMutability": "view",
      "type": "function"
    },
    {
      "inputs": [
        {
          "internalType": "uint256",
          "name": "",
          "type": "uint256"
        }
      ],
      "name": "totalWithdrawnAmounts",
      "outputs": [
        {
          "internalType": "uint256",
          "name": "",
          "type": "uint256"
        }
      ],
      "stateMutability": "view",
      "type": "function"
    },
    {
      "inputs": [],
      "name": "totalWithdrawnAmountsTimestamp",
      "outputs": [
        {
          "internalType": "uint64",
          "name": "",
          "type": "uint64"
        }
      ],
      "stateMutability": "view",
      "type": "function"
    },
    {
      "inputs": [
        {
          "internalType": "address",
          "name": "to",
          "type": "address"
        },
        {
          "internalType": "uint256",
          "name": "amount",
          "type": "uint256"
        }
      ],
      "name": "transfer",
      "outputs": [
        {
          "internalType": "bool",
          "name": "",
          "type": "bool"
        }
      ],
      "stateMutability": "nonpayable",
      "type": "function"
    },
    {
      "inputs": [
        {
          "internalType": "address",
          "name": "from",
          "type": "address"
        },
        {
          "internalType": "address",
          "name": "to",
          "type": "address"
        },
        {
          "internalType": "uint256",
          "name": "amount",
          "type": "uint256"
        }
      ],
      "name": "transferFrom",
      "outputs": [
        {
          "internalType": "bool",
          "name": "",
          "type": "bool"
        }
      ],
      "stateMutability": "nonpayable",
      "type": "function"
    },
    {
      "inputs": [],
      "name": "tvl",
      "outputs": [
        {
          "internalType": "uint256[]",
          "name": "minTokenAmounts",
          "type": "uint256[]"
        },
        {
          "internalType": "uint256[]",
          "name": "maxTokenAmounts",
          "type": "uint256[]"
        }
      ],
      "stateMutability": "view",
      "type": "function"
    },
    {
      "inputs": [],
      "name": "vaultGovernance",
      "outputs": [
        {
          "internalType": "contract IVaultGovernance",
          "name": "",
          "type": "address"
        }
      ],
      "stateMutability": "view",
      "type": "function"
    },
    {
      "inputs": [],
      "name": "vaultTokens",
      "outputs": [
        {
          "internalType": "address[]",
          "name": "",
          "type": "address[]"
        }
      ],
      "stateMutability": "view",
      "type": "function"
    },
    {
      "inputs": [
        {
          "internalType": "address",
          "name": "to",
          "type": "address"
        },
        {
          "internalType": "uint256",
          "name": "lpTokenAmount",
          "type": "uint256"
        },
        {
          "internalType": "uint256[]",
          "name": "minTokenAmounts",
          "type": "uint256[]"
        },
        {
          "internalType": "bytes[]",
          "name": "vaultsOptions",
          "type": "bytes[]"
        }
      ],
      "name": "withdraw",
      "outputs": [
        {
          "internalType": "uint256[]",
          "name": "actualTokenAmounts",
          "type": "uint256[]"
        }
      ],
      "stateMutability": "nonpayable",
      "type": "function"
    }
  ],
  "bytecode": {
    "object": "0x60a060405234801561001057600080fd5b50466080526001600755600019600b556080516165566200003c600039600061084e01526165566000f3fe608060405234801561001057600080fd5b50600436106102535760003560e01c806369722233116101465780639ddc875f116100c3578063d505accf11610087578063d505accf1461055d578063dd62ed3e14610570578063e273d23e1461059b578063e3f5aeb9146105ae578063e5328e06146105bd578063fe255a5e146105d357600080fd5b80639ddc875f14610512578063a09eb0e714610532578063a9059cbb1461053a578063c8045c881461054d578063d2c219b01461055557600080fd5b806382491fac1161010a57806382491fac146104af57806391b7ab47146104c257806395d89b41146104d55780639bd0911b146104dd5780639d9fd0d9146104f057600080fd5b8063697222331461043d5780636a72a8041461045257806370a082311461046757806379183973146104875780637ecebe001461048f57600080fd5b806332ebd8e8116101d4578063407a31c011610198578063407a31c0146103bd57806347ccca02146103d75780634c24c68b146103df57806354a3f474146103f257806363b0e66a1461041257600080fd5b806332ebd8e814610339578063338c4ccb1461034c5780633644e515146103775780633da7463f1461037f5780633efcfda4146103aa57600080fd5b806318160ddd1161021b57806318160ddd146102d357806323b872dd146102dc57806324004a66146102ef57806330adf81f146102f8578063313ce5671461031f57600080fd5b806301ffc9a71461025857806306fdde0314610280578063095ea7b314610295578063151bb8d1146102a8578063158ef93e146102c9575b600080fd5b61026b6102663660046154e7565b6105e4565b60405190151581526020015b60405180910390f35b610288610610565b6040516102779190615569565b61026b6102a33660046155a4565b61069e565b6102bb6102b63660046155d0565b61070a565b604051908152602001610277565b600b54151561026b565b6102bb60025481565b61026b6102ea3660046155e9565b61072b565b6102bb60115481565b6102bb7f6e71edae12b1b97f4d1f60370fef10105fa2faae0126114a169c64845d6126c981565b610327601281565b60405160ff9091168152602001610277565b6102bb61034736600461562a565b610805565b61026b61035a36600461562a565b6001600160a01b03166000908152600a6020526040902054151590565b6102bb61084a565b600f54610392906001600160401b031681565b6040516001600160401b039091168152602001610277565b6102bb6103b83660046155d0565b610887565b600f5461039290600160401b90046001600160401b031681565b600b546102bb565b6102bb6103ed3660046155d0565b61099d565b6104056104003660046157d4565b610a93565b604051610277919061587b565b601454610425906001600160a01b031681565b6040516001600160a01b039091168152602001610277565b610445611282565b60405161027791906158c7565b6104656104603660046158da565b6112e4565b005b6102bb61047536600461562a565b60006020819052908152604090205481565b61040561142c565b6102bb61049d36600461562a565b60066020526000908152604090205481565b6104056104bd3660046159c9565b611483565b6104656104d0366004615aba565b6118ce565b61028861192b565b6104256104eb3660046155d0565b611938565b61026b6104fe3660046155d0565b6000908152600e6020526040902054151590565b6102bb6105203660046155d0565b6000908152600e602052604090205490565b610445611a5e565b61026b6105483660046155a4565b611a6a565b610465611acd565b6104056121c4565b61046561056b366004615b3d565b61221a565b6102bb61057e366004615bae565b600160209081526000928352604080842090915290825290205481565b6104656105a9366004615aba565b612467565b6102bb670de0b6b3a764000081565b6105c56124bf565b604051610277929190615be7565b6008546001600160a01b0316610425565b60006105ef82612901565b8061060a575063ab33b04560e01b6001600160e01b03198316145b92915050565b6003805461061d90615c15565b80601f016020809104026020016040519081016040528092919081815260200182805461064990615c15565b80156106965780601f1061066b57610100808354040283529160200191610696565b820191906000526020600020905b81548152906001019060200180831161067957829003601f168201915b505050505081565b3360008181526001602090815260408083206001600160a01b038716808552925280832085905551919290917f8c5be1e5ebec7d5bd14f71427d1e84f3dd0314c0f7b2291e5b200ac8c7c3b925906106f99086815260200190565b60405180910390a350600192915050565b6010818154811061071a57600080fd5b600091825260209091200154905081565b6001600160a01b03831660009081526001602090815260408083203384529091528120546000198114610787576107628382615c66565b6001600160a01b03861660009081526001602090815260408083203384529091529020555b6001600160a01b038516600090815260208190526040812080548592906107af908490615c66565b90915550506001600160a01b038481166000818152602081815260409182902080548801905590518681529192881691600080516020616501833981519152910160405180910390a360019150505b9392505050565b6001600160a01b0381166000908152601660205260408120546018541161082e57506000919050565b506001600160a01b031660009081526015602052604090205490565b60007f000000000000000000000000000000000000000000000000000000000000000046146108805761087b612921565b905090565b5060055490565b600060185442116040518060400160405280600381526020016244495360e81b815250906108d15760405162461bcd60e51b81526004016108c89190615569565b60405180910390fd5b5060185460166000336001600160a01b03166001600160a01b031681526020019081526020016000205411604051806040016040528060028152602001612b2d60f11b815250906109355760405162461bcd60e51b81526004016108c89190615569565b503360009081526015602052604090205482101561097757336000908152601560205260408120805484929061096c908490615c66565b909155506109889050565b336000908152601560205260408120555b50503360009081526015602052604090205490565b601854604080518082019091526004815263494e564160e01b602082015260009182919042116109e05760405162461bcd60e51b81526004016108c89190615569565b50601854336000908152601660205260409020541115610a0c5750336000908152601560205260409020545b33600090815260208190526040902054610a268282615c66565b841115610a3a57610a378282615c66565b93505b610a448483615c7d565b336000908152601560209081526040808320939093556016905290812042905560198054869290610a76908490615c7d565b909155505033600090815260156020526040902054949350505050565b6060610a9d6129bb565b8351600114604051806040016040528060048152602001631253959360e21b81525090610add5760405162461bcd60e51b81526004016108c89190615569565b50600860009054906101000a90046001600160a01b03166001600160a01b031663db2030aa6040518163ffffffff1660e01b815260040160206040518083038186803b158015610b2c57600080fd5b505afa158015610b40573d6000803e3d6000fd5b505050506040513d601f19601f82011682018060405250810190610b649190615ca5565b5160408051808201909152600381526223292160e91b60208201529015610b9e5760405162461bcd60e51b81526004016108c89190615569565b5060006009805480602002602001604051908101604052809291908181526020018280548015610bf757602002820191906000526020600020905b81546001600160a01b03168152600190910190602001808311610bd9575b505060025493945050508115159050610d485760005b8251811015610d4657600c8181548110610c2957610c29615cd1565b9060005260206000200154600a610c409190615ce7565b878281518110610c5257610c52615cd1565b60200260200101511015604051806040016040528060048152602001634c494d5560e01b81525090610c975760405162461bcd60e51b81526004016108c89190615569565b50600c8181548110610cab57610cab615cd1565b9060005260206000200154600c8281548110610cc957610cc9615cd1565b9060005260206000200154610cde9190615ce7565b878281518110610cf057610cf0615cd1565b60200260200101511115604051806040016040528060048152602001634c494d4f60e01b81525090610d355760405162461bcd60e51b81526004016108c89190615569565b50610d3f81615d06565b9050610c0d565b505b600080610d536124bf565b600b549193509150610d6781848688612a15565b60025460085460405163110c1a4960e31b8152600481018490529195506000916001600160a01b0390911690638860d2489060240160e06040518083038186803b158015610db457600080fd5b505afa158015610dc8573d6000803e3d6000fd5b505050506040513d601f19601f82011682018060405250810190610dec9190615d21565b905080604001511580610e055750610e05601233612ddf565b6040518060400160405280600381526020016223292160e91b81525090610e3f5760405162461bcd60e51b81526004016108c89190615569565b506000808b516001600160401b03811115610e5c57610e5c615647565b604051908082528060200260200182016040528015610e85578160200160208202803683370190505b5090506000610e95868e8a612e01565b909350905060005b8951811015610f8357610f03878281518110610ebb57610ebb615cd1565b60200260200101518f8381518110610ed557610ed5615cd1565b6020026020010151868c86600c8781548110610ef357610ef3615cd1565b9060005260206000200154612ff0565b838281518110610f1557610f15615cd1565b602002602001018181525050610f733330858481518110610f3857610f38615cd1565b60200260200101518d8581518110610f5257610f52615cd1565b60200260200101516001600160a01b0316613040909392919063ffffffff16565b610f7c81615d06565b9050610e9d565b5050610f8f818b6130ab565b98506000610f9e868b8a612e01565b5090508b811015604051806040016040528060048152602001634c494d5560e01b81525090610fe05760405162461bcd60e51b81526004016108c89190615569565b506040805180820190915260028152612b2d60f11b6020820152816110185760405162461bcd60e51b81526004016108c89190615569565b50600854604051630248cd6d60e31b8152600481018790526000916001600160a01b0316906312466b6890602401604080518083038186803b15801561105d57600080fd5b505afa158015611071573d6000803e3d6000fd5b505050506040513d601f19601f820116820180604052508101906110959190615dca565b805133600090815260208190526040902054919250906110b59084615c7d565b1115604051806040016040528060048152602001634c494d4f60e01b815250906110f25760405162461bcd60e51b81526004016108c89190615569565b5060208101516111028a84615c7d565b1115604051806040016040528060048152602001634c494d4f60e01b8152509061113f5760405162461bcd60e51b81526004016108c89190615569565b5088611155576111506000836132f6565b61115f565b61115f33836132f6565b60005b600954811015611227578b818151811061117e5761117e615cd1565b602002602001015184828151811061119857611198615cd1565b6020026020010151111561121757611217338d83815181106111bc576111bc615cd1565b60200260200101518684815181106111d6576111d6615cd1565b60200260200101516111e89190615c66565b600984815481106111fb576111fb615cd1565b6000918252602090912001546001600160a01b0316919061334e565b61122081615d06565b9050611162565b50336001600160a01b03167f8a0e0d2e597a2c18e7266d384fcd37c696485c4f2d04f8f90cebe3cf9453a15b60098d8560405161126693929190615e3a565b60405180910390a2505050505050505050506107fe6001600755565b606060098054806020026020016040519081016040528092919081815260200182805480156112da57602002820191906000526020600020905b81546001600160a01b031681526001909101906020018083116112bc575b5050505050905090565b8351600114604051806040016040528060048152602001631253959360e21b815250906113245760405162461bcd60e51b81526004016108c89190615569565b506113318486858561337e565b6113906113666040518060400160405280601081526020016f026b2b63637bb902638102a37b5b2b7160851b81525087613651565b61138b6040518060400160405280600381526020016204d4c560ec1b81525088613651565b61368b565b8351806001600160401b038111156113aa576113aa615647565b6040519080825280602002602001820160405280156113d3578160200160208202803683370190505b5080516113e8916010916020909101906153bf565b5050600f805467ffffffffffffffff1916426001600160401b0316179055601480546001600160a01b0319166001600160a01b039290921691909117905550505050565b6060600d8054806020026020016040519081016040528092919081815260200182805480156112da57602002820191906000526020600020905b815481526020019060010190808311611466575050505050905090565b606061148d6129bb565b8251600114604051806040016040528060048152602001631253959360e21b815250906114cd5760405162461bcd60e51b81526004016108c89190615569565b506002805460408051808201909152918252612b2d60f11b602083015290816115095760405162461bcd60e51b81526004016108c89190615569565b506000600980548060200260200160405190810160405280929190818152602001828054801561156257602002820191906000526020600020905b81546001600160a01b03168152600190910190602001808311611544575b5050505050905060006009805490506001600160401b0381111561158857611588615647565b6040519080825280602002602001820160405280156115b1578160200160208202803683370190505b50905060006115be6124bf565b5090506115cf600b54828686612a15565b601754336000908152601660205260408120549091829111801561160457506018543360009081526016602052604090205411155b1561161b5750336000908152601560205260409020545b600254336000908152602081905260409020549096509150808a111561163f578099505b508861166f57604080516001808252818301909252906020808301908036833701905050955050505050506118bc565b33600090815260156020526040812080548b929061168e908490615c66565b925050819055506116aa89601a54670de0b6b3a76400006136c2565b836000815181106116bd576116bd615cd1565b6020026020010181815250506116d4308489613775565b95506000805b8551811015611846578981815181106116f5576116f5615cd1565b602002602001015188828151811061170f5761170f615cd1565b60200260200101511015604051806040016040528060048152602001634c494d5560e01b815250906117545760405162461bcd60e51b81526004016108c89190615569565b5087818151811061176757611767615cd1565b6020026020010151600c828154811061178257611782615cd1565b90600052602060002001546117979190615c7d565b6117bb848684815181106117ad576117ad615cd1565b60200260200101518a6136c2565b106117c557600191505b8781815181106117d7576117d7615cd1565b6020026020010151600014611836576118368c8983815181106117fc576117fc615cd1565b602002602001015188848151811061181657611816615cd1565b60200260200101516001600160a01b031661334e9092919063ffffffff16565b61183f81615d06565b90506116da565b5061185087613ed3565b801561186557611860338b6141de565b61186f565b61186f33836141de565b336001600160a01b03167f91e54360cfab588303c49bbbb2869608cb9a9fd5ff9b4431f86988f91290421d6009898d6040516118ad93929190615e3a565b60405180910390a25050505050505b6118c66001600755565b949350505050565b6118d6614240565b60005b81811015611926576119138383838181106118f6576118f6615cd1565b905060200201602081019061190b919061562a565b601290614493565b508061191e81615d06565b9150506118d9565b505050565b6004805461061d90615c15565b600080600d838154811061194e5761194e615cd1565b90600052602060002001549050600860009054906101000a90046001600160a01b03166001600160a01b0316637ac46fbb6040518163ffffffff1660e01b815260040160606040518083038186803b1580156119a957600080fd5b505afa1580156119bd573d6000803e3d6000fd5b505050506040513d601f19601f820116820180604052508101906119e19190615e70565b60200151604051639c94d85360e01b8152600481018390526001600160a01b0390911690639c94d8539060240160206040518083038186803b158015611a2657600080fd5b505afa158015611a3a573d6000803e3d6000fd5b505050506040513d601f19601f820116820180604052508101906107fe9190615ee1565b606061087b60126144a8565b33600090815260208190526040812080548391908390611a8b908490615c66565b90915550506001600160a01b038316600081815260208181526040918290208054860190559051848152339160008051602061650183398151915291016106f9565b604051639bd0911b60e01b8152600060048201819052903090639bd0911b9060240160206040518083038186803b158015611b0757600080fd5b505afa158015611b1b573d6000803e3d6000fd5b505050506040513d601f19601f82011682018060405250810190611b3f9190615ee1565b604051639bd0911b60e01b8152600160048201529091506000903090639bd0911b9060240160206040518083038186803b158015611b7c57600080fd5b505afa158015611b90573d6000803e3d6000fd5b505050506040513d601f19601f82011682018060405250810190611bb49190615ee1565b90506000816001600160a01b031663fe255a5e6040518163ffffffff1660e01b815260040160206040518083038186803b158015611bf157600080fd5b505afa158015611c05573d6000803e3d6000fd5b505050506040513d601f19601f82011682018060405250810190611c299190615ee1565b90506000816001600160a01b031663d34cc3806040518163ffffffff1660e01b815260040160a06040518083038186803b158015611c6657600080fd5b505afa158015611c7a573d6000803e3d6000fd5b505050506040513d601f19601f82011682018060405250810190611c9e9190615efe565b6000015190504281601854611cb39190615c7d565b111560405180604001604052806004815260200163494e564160e01b81525090611cf05760405162461bcd60e51b81526004016108c89190615569565b50601854601781905550426018819055506000306001600160a01b031663e5328e066040518163ffffffff1660e01b815260040160006040518083038186803b158015611d3c57600080fd5b505afa158015611d50573d6000803e3d6000fd5b505050506040513d6000823e601f3d908101601f19168201604052611d789190810190615fee565b5090506000611da660195483600081518110611d9657611d96615cd1565b60200260200101516002546136c2565b905060006009600081548110611dbe57611dbe615cd1565b6000918252602090912001546040516370a0823160e01b81526001600160a01b038981166004830152909116906370a082319060240160206040518083038186803b158015611e0c57600080fd5b505afa158015611e20573d6000803e3d6000fd5b505050506040513d601f19601f82011682018060405250810190611e449190616051565b905081811115611faa5760006009805480602002602001604051908101604052809291908181526020018280548015611ea657602002820191906000526020600020905b81546001600160a01b03168152600190910190602001808311611e88575b50505050509050600060016001600160401b03811115611ec857611ec8615647565b604051908082528060200260200182016040528015611ef1578160200160208202803683370190505b509050611efe8484615c66565b81600081518110611f1157611f11615cd1565b6020908102919091010152604051630818b5d560e21b81526001600160a01b038a1690632062d75490611f4c908b908690869060040161606a565b600060405180830381600087803b158015611f6657600080fd5b505af1158015611f7a573d6000803e3d6000fd5b505050506040513d6000823e601f3d908101601f19168201604052611fa291908101906160bc565b50505061219e565b6000600980548060200260200160405190810160405280929190818152602001828054801561200257602002820191906000526020600020905b81546001600160a01b03168152600190910190602001808311611fe4575b50505050509050600060016001600160401b0381111561202457612024615647565b60405190808252806020026020018201604052801561204d578160200160208202803683370190505b50905061205a8385615c66565b8160008151811061206d5761206d615cd1565b6020908102919091010152604051630818b5d560e21b81526001600160a01b03891690632062d754906120a8908c908690869060040161606a565b600060405180830381600087803b1580156120c257600080fd5b505af11580156120d6573d6000803e3d6000fd5b505050506040513d6000823e601f3d908101601f191682016040526120fe91908101906160bc565b50600960008154811061211357612113615cd1565b6000918252602090912001546040516370a0823160e01b81526001600160a01b038b81166004830152909116906370a082319060240160206040518083038186803b15801561216157600080fd5b505afa158015612175573d6000803e3d6000fd5b505050506040513d601f19601f820116820180604052508101906121999190616051565b935050505b6121b382670de0b6b3a76400006002546136c2565b601a55505060006019555050505050565b6060600c8054806020026020016040519081016040528092919081815260200182805480156112da5760200282019190600052602060002090815481526020019060010190808311611466575050505050905090565b604080518082019091526002815261545360f01b6020820152428510156122545760405162461bcd60e51b81526004016108c89190615569565b50600061225f61084a565b6001600160a01b038981166000818152600660209081526040918290205482517f6e71edae12b1b97f4d1f60370fef10105fa2faae0126114a169c64845d6126c98184015280840194909452938c166060840152608083018b905260a083019390935260c08083018a90528151808403909101815260e08301909152805192019190912061190160f01b6101008301526101028201929092526101228101919091526101420160408051808303601f1901815282825280516020918201206001600160a01b038c166000908152600683528381208054600190810190915581865292850180855282905260ff89169385019390935260608401879052608084018690529350909160a0016020604051602081039080840390855afa15801561238b573d6000803e3d6000fd5b5050604051601f1901519150506001600160a01b038116158015906123c15750886001600160a01b0316816001600160a01b0316145b6040518060400160405280600381526020016223292160e91b815250906123fb5760405162461bcd60e51b81526004016108c89190615569565b506001600160a01b0390811660009081526001602090815260408083208b8516808552908352928190208a905551898152919350918a16917f8c5be1e5ebec7d5bd14f71427d1e84f3dd0314c0f7b2291e5b200ac8c7c3b925910160405180910390a350505050505050565b61246f614240565b60005b81811015611926576124ac83838381811061248f5761248f615cd1565b90506020020160208101906124a4919061562a565b6012906144b5565b50806124b781615d06565b915050612472565b6060806000600860009054906101000a90046001600160a01b03166001600160a01b0316637ac46fbb6040518163ffffffff1660e01b815260040160606040518083038186803b15801561251257600080fd5b505afa158015612526573d6000803e3d6000fd5b505050506040513d601f19601f8201168201806040525081019061254a9190615e70565b602001519050600060098054806020026020016040519081016040528092919081815260200182805480156125a857602002820191906000526020600020905b81546001600160a01b0316815260019091019060200180831161258a575b5050505050905080516001600160401b038111156125c8576125c8615647565b6040519080825280602002602001820160405280156125f1578160200160208202803683370190505b50935080516001600160401b0381111561260d5761260d615647565b604051908082528060200260200182016040528015612636578160200160208202803683370190505b50925060005b600d548110156128fa576000836001600160a01b0316639c94d853600d848154811061266a5761266a615cd1565b90600052602060002001546040518263ffffffff1660e01b815260040161269391815260200190565b60206040518083038186803b1580156126ab57600080fd5b505afa1580156126bf573d6000803e3d6000fd5b505050506040513d601f19601f820116820180604052508101906126e39190615ee1565b9050600080826001600160a01b031663e5328e066040518163ffffffff1660e01b815260040160006040518083038186803b15801561272157600080fd5b505afa158015612735573d6000803e3d6000fd5b505050506040513d6000823e601f3d908101601f1916820160405261275d9190810190615fee565b915091506000836001600160a01b031663697222336040518163ffffffff1660e01b815260040160006040518083038186803b15801561279c57600080fd5b505afa1580156127b0573d6000803e3d6000fd5b505050506040513d6000823e601f3d908101601f191682016040526127d891908101906160f0565b90506000805b8751811080156127ee5750825182105b156128e35787818151811061280557612805615cd1565b60200260200101516001600160a01b031683838151811061282857612828615cd1565b60200260200101516001600160a01b031614156128d35784828151811061285157612851615cd1565b60200260200101518b828151811061286b5761286b615cd1565b6020026020010181815161287f9190615c7d565b905250835184908390811061289657612896615cd1565b60200260200101518a82815181106128b0576128b0615cd1565b602002602001018181516128c49190615c7d565b9052506128d082615d06565b91505b6128dc81615d06565b90506127de565b505050505050806128f390615d06565b905061263c565b5050509091565b600061290c826144ca565b8061060a5750506001600160e01b0319161590565b60007f8b73c3c69bb8fe3d512ecc4cf759cc79239f7b179b0ffacaa9a75d522b39400f6003604051612953919061617e565b6040805191829003822060208301939093528101919091527fc89efdaa54c0f20c7adf612882df0950f5a951637e0307cdcb4c672f298b8bc660608201524660808201523060a082015260c00160405160208183030381529060405280519060200120905090565b60026007541415612a0e5760405162461bcd60e51b815260206004820152601f60248201527f5265656e7472616e637947756172643a207265656e7472616e742063616c6c0060448201526064016108c8565b6002600755565b600854600f546001600160a01b0390911690600090612a3d906001600160401b031642615c66565b90506000826001600160a01b031663d34cc3806040518163ffffffff1660e01b8152600401604080518083038186803b158015612a7957600080fd5b505afa158015612a8d573d6000803e3d6000fd5b505050506040513d601f19601f82011682018060405250810190612ab1919061621a565b8051909150821015612ac557505050612dd9565b600f805467ffffffffffffffff1916426001600160401b031617905584612aee57505050612dd9565b6000600190506000600c805480602002602001604051908101604052809291908181526020018280548015612b4257602002820191906000526020600020905b815481526020019060010190808311612b2e575b5050505050905060005b8151811015612ba757818181518110612b6757612b67615cd1565b6020026020010151898281518110612b8157612b81615cd1565b602002602001015110612b975760009250612ba7565b612ba081615d06565b9050612b4c565b508115612bb8575050505050612dd9565b505060405163110c1a4960e31b8152600481018890526000906001600160a01b03851690638860d2489060240160e06040518083038186803b158015612bfd57600080fd5b505afa158015612c11573d6000803e3d6000fd5b505050506040513d601f19601f82011682018060405250810190612c359190615d21565b60405163dbb1c35f60e01b8152600481018a90529091506000906001600160a01b0386169063dbb1c35f9060240160206040518083038186803b158015612c7b57600080fd5b505afa158015612c8f573d6000803e3d6000fd5b505050506040513d601f19601f82011682018060405250810190612cb39190616252565b6000015190506000856001600160a01b0316637ac46fbb6040518163ffffffff1660e01b815260040160606040518083038186803b158015612cf457600080fd5b505afa158015612d08573d6000803e3d6000fd5b505050506040513d601f19601f82011682018060405250810190612d2c9190615e70565b600001516001600160a01b031663803db96d6040518163ffffffff1660e01b815260040160206040518083038186803b158015612d6857600080fd5b505afa158015612d7c573d6000803e3d6000fd5b505050506040513d601f19601f82011682018060405250810190612da09190615ee1565b9050612db8836060015183856000015184898d614500565b612dd2888a856080015186602001518b89602001516145ee565b5050505050505b50505050565b6001600160a01b038116600090815260018301602052604081205415156107fe565b60008082612e6d5760005b8551811015612e635782858281518110612e2857612e28615cd1565b60200260200101511115612e5357848181518110612e4857612e48615cd1565b602002602001015192505b612e5c81615d06565b9050612e0c565b5060009050612fe8565b600085519050600080600c805480602002602001604051908101604052809291908181526020018280548015612ec257602002820191906000526020600020905b815481526020019060010190808311612eae575b5050505050905060005b83811015612f7f57818181518110612ee657612ee6615cd1565b6020026020010151898281518110612f0057612f00615cd1565b60200260200101511015612f1357612f6f565b6000612f52898381518110612f2a57612f2a615cd1565b6020026020010151898c8581518110612f4557612f45615cd1565b60200260200101516136c2565b905086811080612f60575083155b15612f6d57600193508096505b505b612f7881615d06565b9050612ecc565b5081935083612fe45760005b8851811015612fe25785888281518110612fa757612fa7615cd1565b60200260200101511115612fd257878181518110612fc757612fc7615cd1565b602002602001015195505b612fdb81615d06565b9050612f8b565b505b5050505b935093915050565b6000831580612ffd575082155b15613009575084613036565b8187101561301957506000613036565b60006130268887876136c2565b9050868111156130335750855b90505b9695505050505050565b6040516001600160a01b0380851660248301528316604482015260648101829052612dd99085906323b872dd60e01b906084015b60408051601f198184030181529190526020810180516001600160e01b03166001600160e01b031990931692909217909152614742565b600b546040805180820190915260048152631253925560e21b60208201526060916130e95760405162461bcd60e51b81526004016108c89190615569565b50604051639bd0911b60e01b8152600160048201526000903090639bd0911b9060240160206040518083038186803b15801561312457600080fd5b505afa158015613138573d6000803e3d6000fd5b505050506040513d601f19601f8201168201806040525081019061315c9190615ee1565b905060005b6009548110156131ec57600085828151811061317f5761317f615cd1565b602002602001015111156131da576131da828683815181106131a3576131a3615cd1565b6020026020010151600984815481106131be576131be615cd1565b6000918252602090912001546001600160a01b03169190614814565b806131e481615d06565b915050613161565b506040516313d1af2d60e11b81526001600160a01b038216906327a35e5a9061322090309060099089908990600401616276565b600060405180830381600087803b15801561323a57600080fd5b505af115801561324e573d6000803e3d6000fd5b505050506040513d6000823e601f3d908101601f1916820160405261327691908101906160bc565b915060005b6009548110156132ee57600085828151811061329957613299615cd1565b602002602001015111156132dc576132dc826000600984815481106132c0576132c0615cd1565b6000918252602090912001546001600160a01b031691906148d5565b806132e681615d06565b91505061327b565b505092915050565b80600260008282546133089190615c7d565b90915550506001600160a01b0382166000818152602081815260408083208054860190555184815260008051602061650183398151915291015b60405180910390a35050565b6040516001600160a01b03831660248201526044810182905261192690849063a9059cbb60e01b90606401613074565b6000336001600160a01b0316637ac46fbb6040518163ffffffff1660e01b815260040160606040518083038186803b1580156133b957600080fd5b505afa1580156133cd573d6000803e3d6000fd5b505050506040513d601f19601f820116820180604052508101906133f19190615e70565b60200151905060005b825181101561362b57600083828151811061341757613417615cd1565b60200260200101519050306001600160a01b0316836001600160a01b0316636352211e836040518263ffffffff1660e01b815260040161345991815260200190565b60206040518083038186803b15801561347157600080fd5b505afa158015613485573d6000803e3d6000fd5b505050506040513d601f19601f820116820180604052508101906134a99190615ee1565b6001600160a01b0316146040518060400160405280600381526020016223292160e91b815250906134ed5760405162461bcd60e51b81526004016108c89190615569565b50600e6000828152602001908152602001600020546000146040518060400160405280600381526020016204455560ec1b8152509061353f5760405162461bcd60e51b81526004016108c89190615569565b5060405163095ea7b360e01b81526001600160a01b0386811660048301526024820183905284169063095ea7b390604401600060405180830381600087803b15801561358a57600080fd5b505af115801561359e573d6000803e3d6000fd5b5050604051634dcbc73960e01b8152600481018490526001600160a01b0386169250634dcbc7399150602401600060405180830381600087803b1580156135e457600080fd5b505af11580156135f8573d6000803e3d6000fd5b505050508160016136099190615c7d565b6000918252600e6020526040909120558061362381615d06565b9150506133fa565b50815161363f90600d9060208501906153bf565b5061364a85856149f9565b5050505050565b6060600061365e83614e85565b905083816040516020016136739291906162c0565b60405160208183030381529060405291505092915050565b815161369e90600390602085019061540a565b5080516136b290600490602084019061540a565b506136bb612921565b6005555050565b6000808060001985870985870292508281108382030391505080600014156136fc57600084116136f157600080fd5b5082900490506107fe565b80841161370857600080fd5b6000848688096000868103871696879004966002600389028118808a02820302808a02820302808a02820302808a02820302808a02820302808a02909103029181900381900460010186841190950394909402919094039290920491909117919091029150509392505050565b600b546040805180820190915260048152631253925560e21b60208201526060916137b35760405162461bcd60e51b81526004016108c89190615569565b50600d5482516040805180820190915260048152631253959360e21b602082015291146137f35760405162461bcd60e51b81526004016108c89190615569565b5060085460408051637ac46fbb60e01b815290516000926001600160a01b031691637ac46fbb916004808301926060929190829003018186803b15801561383957600080fd5b505afa15801561384d573d6000803e3d6000fd5b505050506040513d601f19601f820116820180604052508101906138719190615e70565b60200151905083516001600160401b0381111561389057613890615647565b6040519080825280602002602001820160405280156138b9578160200160208202803683370190505b5091506000600980548060200260200160405190810160405280929190818152602001828054801561391457602002820191906000526020600020905b81546001600160a01b031681526001909101906020018083116138f6575b505050505090506000600c80548060200260200160405190810160405280929190818152602001828054801561396957602002820191906000526020600020905b815481526020019060010190808311613955575b50505050509050600086516001600160401b0381111561398b5761398b615647565b6040519080825280602002602001820160405280156139b4578160200160208202803683370190505b50905060005b8351811015613a0c578781815181106139d5576139d5615cd1565b60200260200101518282815181106139ef576139ef615cd1565b602090810291909101015280613a0481615d06565b9150506139ba565b5060005b600d54811015613c6e576000600d8281548110613a2f57613a2f615cd1565b6000918252602082200154604051639c94d85360e01b8152600481018290529092506001600160a01b03881690639c94d8539060240160206040518083038186803b158015613a7d57600080fd5b505afa158015613a91573d6000803e3d6000fd5b505050506040513d601f19601f82011682018060405250810190613ab59190615ee1565b90506000816001600160a01b0316632062d7543089888e8981518110613add57613add615cd1565b60200260200101516040518563ffffffff1660e01b8152600401613b0494939291906162ef565b600060405180830381600087803b158015613b1e57600080fd5b505af1158015613b32573d6000803e3d6000fd5b505050506040513d6000823e601f3d908101601f19168201604052613b5a91908101906160bc565b9050600160005b8851811015613c4757878181518110613b7c57613b7c615cd1565b6020026020010151838281518110613b9657613b96615cd1565b6020026020010151613ba89190615c7d565b878281518110613bba57613bba615cd1565b60200260200101511115613c145760009150828181518110613bde57613bde615cd1565b6020026020010151878281518110613bf857613bf8615cd1565b60200260200101818151613c0c9190615c66565b905250613c35565b6000878281518110613c2857613c28615cd1565b6020026020010181815250505b80613c3f81615d06565b915050613b61565b508015613c575750505050613c6e565b505050508080613c6690615d06565b915050613a10565b506000846001600160a01b0316639c94d853600d600081548110613c9457613c94615cd1565b90600052602060002001546040518263ffffffff1660e01b8152600401613cbd91815260200190565b60206040518083038186803b158015613cd557600080fd5b505afa158015613ce9573d6000803e3d6000fd5b505050506040513d601f19601f82011682018060405250810190613d0d9190615ee1565b905060005b8451811015613ec6576000858281518110613d2f57613d2f615cd1565b60209081029190910101516040516370a0823160e01b81523060048201526001600160a01b03909116906370a082319060240160206040518083038186803b158015613d7a57600080fd5b505afa158015613d8e573d6000803e3d6000fd5b505050506040513d601f19601f82011682018060405250810190613db29190616051565b9050808a8381518110613dc757613dc7615cd1565b60200260200101511015613e7d57898281518110613de757613de7615cd1565b6020026020010151888381518110613e0157613e01615cd1565b602002602001018181525050613e3d8b8b8481518110613e2357613e23615cd1565b602002602001015188858151811061181657611816615cd1565b613e78838b8481518110613e5357613e53615cd1565b602002602001015183613e669190615c66565b88858151811061181657611816615cd1565b613eb3565b80888381518110613e9057613e90615cd1565b602002602001018181525050613eb38b8288858151811061181657611816615cd1565b5080613ebe81615d06565b915050613d12565b5050505050509392505050565b600081516001600160401b03811115613eee57613eee615647565b604051908082528060200260200182016040528015613f17578160200160208202803683370190505b5060085460408051637ac46fbb60e01b8152905192935042926000926001600160a01b031691637ac46fbb916004808301926060929190829003018186803b158015613f6257600080fd5b505afa158015613f76573d6000803e3d6000fd5b505050506040513d601f19601f82011682018060405250810190613f9a9190615e70565b51600f549091506001600160401b03838116600160401b9092041614613fe957600f80546fffffffffffffffff00000000000000001916600160401b6001600160401b03851602179055614044565b60005b8451811015614042576010818154811061400857614008615cd1565b906000526020600020015484828151811061402557614025615cd1565b60209081029190910101528061403a81615d06565b915050613fec565b505b60005b845181101561364a5784818151811061406257614062615cd1565b602002602001015184828151811061407c5761407c615cd1565b602002602001018181516140909190615c7d565b905250600980546001600160a01b0384169163fce33f0191849081106140b8576140b8615cd1565b60009182526020909120015460405160e083901b6001600160e01b03191681526001600160a01b03909116600482015260240160206040518083038186803b15801561410357600080fd5b505afa158015614117573d6000803e3d6000fd5b505050506040513d601f19601f8201168201806040525081019061413b9190616051565b84828151811061414d5761414d615cd1565b60200260200101511115604051806040016040528060048152602001634c494d4f60e01b815250906141925760405162461bcd60e51b81526004016108c89190615569565b508381815181106141a5576141a5615cd1565b6020026020010151601082815481106141c0576141c0615cd1565b600091825260209091200155806141d681615d06565b915050614047565b6001600160a01b03821660009081526020819052604081208054839290614206908490615c66565b90915550506002805482900390556040518181526000906001600160a01b0384169060008051602061650183398151915290602001613342565b600b5460085460408051637ac46fbb60e01b815290516000926001600160a01b031691637ac46fbb916004808301926060929190829003018186803b15801561428857600080fd5b505afa15801561429c573d6000803e3d6000fd5b505050506040513d601f19601f820116820180604052508101906142c09190615e70565b8051604051630935e01b60e21b81523360048201529192506001600160a01b0316906324d7806c9060240160206040518083038186803b15801561430357600080fd5b505afa158015614317573d6000803e3d6000fd5b505050506040513d601f19601f8201168201806040525081019061433b9190616313565b806143ca5750602081015160405163020604bf60e21b81526004810184905233916001600160a01b03169063081812fc9060240160206040518083038186803b15801561438757600080fd5b505afa15801561439b573d6000803e3d6000fd5b505050506040513d601f19601f820116820180604052508101906143bf9190615ee1565b6001600160a01b0316145b80614459575060208101516040516331a9108f60e11b81526004810184905233916001600160a01b031690636352211e9060240160206040518083038186803b15801561441657600080fd5b505afa15801561442a573d6000803e3d6000fd5b505050506040513d601f19601f8201168201806040525081019061444e9190615ee1565b6001600160a01b0316145b6040518060400160405280600381526020016223292160e91b815250906119265760405162461bcd60e51b81526004016108c89190615569565b60006107fe836001600160a01b038416614f21565b606060006107fe83614f70565b60006107fe836001600160a01b038416614fcc565b60006301ffc9a760e01b6001600160e01b03198316148061060a57506001600160e01b0319821663305a640b60e21b1492915050565b851561457f57600061452d6145158489615ce7565b83614528633b9aca006301e13380615ce7565b6136c2565b905061453985826132f6565b60408051888152602081018390526001600160a01b038716917ff128e63f8c1601609ed0ca497b3c0aef18a94da6579e4230bae6eca9c5de3c0b910160405180910390a2505b84156145e65760006145946145158488615ce7565b90506145a084826132f6565b60408051878152602081018390526001600160a01b038616917f8e65e88a246d15f0b922b1ccbe4df44ab60cdea0aead3dfe00faebea0d8817b0910160405180910390a2505b505050505050565b8315806145f9575085155b15614603576145e6565b6014546040516312f6244560e21b81526000916001600160a01b031690634bd89114906146389089908790879060040161632e565b60206040518083038186803b15801561465057600080fd5b505afa158015614664573d6000803e3d6000fd5b505050506040513d601f19601f820116820180604052508101906146889190616051565b9050600061469f82670de0b6b3a76400008a6136c2565b6011549091508082116146b4575050506145e6565b600081156146ed576146d08a6146ca8486615c66565b846136c2565b90506146e18189633b9aca006136c2565b90506146ed87826132f6565b601183905560408051898152602081018390526001600160a01b038916917fd935d6b9af5232b71790c40552a0436920efa18da75df1474e95aef999d8f5f8910160405180910390a250505050505050505050565b6000614797826040518060400160405280602081526020017f5361666545524332303a206c6f772d6c6576656c2063616c6c206661696c6564815250856001600160a01b03166150bf9092919063ffffffff16565b80519091501561192657808060200190518101906147b59190616313565b6119265760405162461bcd60e51b815260206004820152602a60248201527f5361666545524332303a204552433230206f7065726174696f6e20646964206e6044820152691bdd081cdd58d8d9595960b21b60648201526084016108c8565b604051636eb1769f60e11b81523060048201526001600160a01b038381166024830152600091839186169063dd62ed3e9060440160206040518083038186803b15801561486057600080fd5b505afa158015614874573d6000803e3d6000fd5b505050506040513d601f19601f820116820180604052508101906148989190616051565b6148a29190615c7d565b6040516001600160a01b038516602482015260448101829052909150612dd990859063095ea7b360e01b90606401613074565b80158061495e5750604051636eb1769f60e11b81523060048201526001600160a01b03838116602483015284169063dd62ed3e9060440160206040518083038186803b15801561492457600080fd5b505afa158015614938573d6000803e3d6000fd5b505050506040513d601f19601f8201168201806040525081019061495c9190616051565b155b6149c95760405162461bcd60e51b815260206004820152603660248201527f5361666545524332303a20617070726f76652066726f6d206e6f6e2d7a65726f60448201527520746f206e6f6e2d7a65726f20616c6c6f77616e636560501b60648201526084016108c8565b6040516001600160a01b03831660248201526044810182905261192690849063095ea7b360e01b90606401613074565b600b546040805180820190915260048152631253925560e21b60208201529015614a365760405162461bcd60e51b81526004016108c89190615569565b50614a40826150ce565b60405180604001604052806004815260200163494e564160e01b81525090614a7b5760405162461bcd60e51b81526004016108c89190615569565b506040805180820190915260028152612b2d60f11b602082015281614ab35760405162461bcd60e51b81526004016108c89190615569565b506000336001600160a01b0316637ac46fbb6040518163ffffffff1660e01b815260040160606040518083038186803b158015614aef57600080fd5b505afa158015614b03573d6000803e3d6000fd5b505050506040513d601f19601f82011682018060405250810190614b279190615e70565b51835190915015801590614bac5750806001600160a01b03166378546fa26040518163ffffffff1660e01b815260040160206040518083038186803b158015614b6f57600080fd5b505afa158015614b83573d6000803e3d6000fd5b505050506040513d601f19601f82011682018060405250810190614ba79190616051565b835111155b6040518060400160405280600381526020016224a72b60e91b81525090614be65760405162461bcd60e51b81526004016108c89190615569565b5060005b8351811015614cea57816001600160a01b03166363e85d2d858381518110614c1457614c14615cd1565b60209081029190910101516040516001600160e01b031960e084901b1681526001600160a01b0390911660048201526003602482015260440160206040518083038186803b158015614c6557600080fd5b505afa158015614c79573d6000803e3d6000fd5b505050506040513d601f19601f82011682018060405250810190614c9d9190616313565b6040518060400160405280600381526020016223292160e91b81525090614cd75760405162461bcd60e51b81526004016108c89190615569565b5080614ce281615d06565b915050614bea565b50600880546001600160a01b031916331790558251614d1090600990602086019061547d565b50600b82905560095460005b81811015614e4057614d2f816001615c7d565b600a6000878481518110614d4557614d45615cd1565b60200260200101516001600160a01b03166001600160a01b03168152602001908152602001600020819055506000858281518110614d8557614d85615cd1565b60200260200101519050600c6002826001600160a01b031663313ce5676040518163ffffffff1660e01b815260040160206040518083038186803b158015614dcc57600080fd5b505afa158015614de0573d6000803e3d6000fd5b505050506040513d601f19601f82011682018060405250810190614e04919061636c565b614e0e9190616389565b614e1990600a61649d565b8154600181018355600092835260209092209091015550614e3981615d06565b9050614d1c565b50604051339032907f0f043e55a1ce0d7ce25125ccbc2800b540d83e21abf7250f0156c2091a28b22190614e7790889088906164ac565b60405180910390a350505050565b60606000614e9283615171565b60010190506000816001600160401b03811115614eb157614eb1615647565b6040519080825280601f01601f191660200182016040528015614edb576020820181803683370190505b5090508181016020015b600019016f181899199a1a9b1b9c1cb0b131b232b360811b600a86061a8153600a8504945084614f1457614f19565b614ee5565b509392505050565b6000818152600183016020526040812054614f685750815460018181018455600084815260208082209093018490558454848252828601909352604090209190915561060a565b50600061060a565b606081600001805480602002602001604051908101604052809291908181526020018280548015614fc057602002820191906000526020600020905b815481526020019060010190808311614fac575b50505050509050919050565b600081815260018301602052604081205480156150b5576000614ff0600183615c66565b855490915060009061500490600190615c66565b905081811461506957600086600001828154811061502457615024615cd1565b906000526020600020015490508087600001848154811061504757615047615cd1565b6000918252602080832090910192909255918252600188019052604090208390555b855486908061507a5761507a6164ce565b60019003818190600052602060002001600090559055856001016000868152602001908152602001600020600090556001935050505061060a565b600091505061060a565b60606118c68484600085615249565b60006002825110156150e257506001919050565b60005b600183516150f39190615c66565b8110156151685782615106826001615c7d565b8151811061511657615116615cd1565b60200260200101516001600160a01b031683828151811061513957615139615cd1565b60200260200101516001600160a01b0316106151585750600092915050565b61516181615d06565b90506150e5565b50600192915050565b60008072184f03e93ff9f4daa797ed6e38ed64bf6a1f0160401b83106151b05772184f03e93ff9f4daa797ed6e38ed64bf6a1f0160401b830492506040015b6d04ee2d6d415b85acef810000000083106151dc576d04ee2d6d415b85acef8100000000830492506020015b662386f26fc1000083106151fa57662386f26fc10000830492506010015b6305f5e1008310615212576305f5e100830492506008015b612710831061522657612710830492506004015b60648310615238576064830492506002015b600a831061060a5760010192915050565b6060824710156152aa5760405162461bcd60e51b815260206004820152602660248201527f416464726573733a20696e73756666696369656e742062616c616e636520666f6044820152651c8818d85b1b60d21b60648201526084016108c8565b600080866001600160a01b031685876040516152c691906164e4565b60006040518083038185875af1925050503d8060008114615303576040519150601f19603f3d011682016040523d82523d6000602084013e615308565b606091505b509150915061531987838387615324565b979650505050505050565b60608315615390578251615389576001600160a01b0385163b6153895760405162461bcd60e51b815260206004820152601d60248201527f416464726573733a2063616c6c20746f206e6f6e2d636f6e747261637400000060448201526064016108c8565b50816118c6565b6118c683838151156153a55781518083602001fd5b8060405162461bcd60e51b81526004016108c89190615569565b8280548282559060005260206000209081019282156153fa579160200282015b828111156153fa5782518255916020019190600101906153df565b506154069291506154d2565b5090565b82805461541690615c15565b90600052602060002090601f01602090048101928261543857600085556153fa565b82601f1061545157805160ff19168380011785556153fa565b828001600101855582156153fa57918201828111156153fa5782518255916020019190600101906153df565b8280548282559060005260206000209081019282156153fa579160200282015b828111156153fa57825182546001600160a01b0319166001600160a01b0390911617825560209092019160019091019061549d565b5b8082111561540657600081556001016154d3565b6000602082840312156154f957600080fd5b81356001600160e01b0319811681146107fe57600080fd5b60005b8381101561552c578181015183820152602001615514565b83811115612dd95750506000910152565b60008151808452615555816020860160208601615511565b601f01601f19169290920160200192915050565b6020815260006107fe602083018461553d565b6001600160a01b038116811461559157600080fd5b50565b803561559f8161557c565b919050565b600080604083850312156155b757600080fd5b82356155c28161557c565b946020939093013593505050565b6000602082840312156155e257600080fd5b5035919050565b6000806000606084860312156155fe57600080fd5b83356156098161557c565b925060208401356156198161557c565b929592945050506040919091013590565b60006020828403121561563c57600080fd5b81356107fe8161557c565b634e487b7160e01b600052604160045260246000fd5b604051602081016001600160401b038111828210171561567f5761567f615647565b60405290565b604080519081016001600160401b038111828210171561567f5761567f615647565b604051601f8201601f191681016001600160401b03811182821017156156cf576156cf615647565b604052919050565b60006001600160401b038211156156f0576156f0615647565b5060051b60200190565b600082601f83011261570b57600080fd5b8135602061572061571b836156d7565b6156a7565b82815260059290921b8401810191818101908684111561573f57600080fd5b8286015b8481101561575a5780358352918301918301615743565b509695505050505050565b600082601f83011261577657600080fd5b81356001600160401b0381111561578f5761578f615647565b6157a2601f8201601f19166020016156a7565b8181528460208386010111156157b757600080fd5b816020850160208301376000918101602001919091529392505050565b6000806000606084860312156157e957600080fd5b83356001600160401b038082111561580057600080fd5b61580c878388016156fa565b945060208601359350604086013591508082111561582957600080fd5b5061583686828701615765565b9150509250925092565b600081518084526020808501945080840160005b8381101561587057815187529582019590820190600101615854565b509495945050505050565b6020815260006107fe6020830184615840565b600081518084526020808501945080840160005b838110156158705781516001600160a01b0316875295820195908201906001016158a2565b6020815260006107fe602083018461588e565b600080600080600060a086880312156158f257600080fd5b853594506020808701356001600160401b038082111561591157600080fd5b818901915089601f83011261592557600080fd5b813561593361571b826156d7565b81815260059190911b8301840190848101908c83111561595257600080fd5b938501935b8285101561597957843561596a8161557c565b82529385019390850190615957565b985061598a91505060408a01615594565b955060608901359250808311156159a057600080fd5b50506159ae888289016156fa565b9250506159bd60808701615594565b90509295509295909350565b600080600080608085870312156159df57600080fd5b84356159ea8161557c565b9350602085810135935060408601356001600160401b0380821115615a0e57600080fd5b615a1a89838a016156fa565b94506060880135915080821115615a3057600080fd5b818801915088601f830112615a4457600080fd5b8135615a5261571b826156d7565b81815260059190911b8301840190848101908b831115615a7157600080fd5b8585015b83811015615aa957803585811115615a8d5760008081fd5b615a9b8e89838a0101615765565b845250918601918601615a75565b50989b979a50959850505050505050565b60008060208385031215615acd57600080fd5b82356001600160401b0380821115615ae457600080fd5b818501915085601f830112615af857600080fd5b813581811115615b0757600080fd5b8660208260051b8501011115615b1c57600080fd5b60209290920196919550909350505050565b60ff8116811461559157600080fd5b600080600080600080600060e0888a031215615b5857600080fd5b8735615b638161557c565b96506020880135615b738161557c565b955060408801359450606088013593506080880135615b9181615b2e565b9699959850939692959460a0840135945060c09093013592915050565b60008060408385031215615bc157600080fd5b8235615bcc8161557c565b91506020830135615bdc8161557c565b809150509250929050565b604081526000615bfa6040830185615840565b8281036020840152615c0c8185615840565b95945050505050565b600181811c90821680615c2957607f821691505b60208210811415615c4a57634e487b7160e01b600052602260045260246000fd5b50919050565b634e487b7160e01b600052601160045260246000fd5b600082821015615c7857615c78615c50565b500390565b60008219821115615c9057615c90615c50565b500190565b8051801515811461559f57600080fd5b600060208284031215615cb757600080fd5b615cbf61565d565b615cc883615c95565b81529392505050565b634e487b7160e01b600052603260045260246000fd5b6000816000190483118215151615615d0157615d01615c50565b500290565b6000600019821415615d1a57615d1a615c50565b5060010190565b600060e08284031215615d3357600080fd5b60405160e081018181106001600160401b0382111715615d5557615d55615647565b6040528251615d638161557c565b81526020830151615d738161557c565b6020820152615d8460408401615c95565b6040820152606083015160608201526080830151608082015260a0830151615dab8161557c565b60a082015260c0830151615dbe8161557c565b60c08201529392505050565b600060408284031215615ddc57600080fd5b615de4615685565b82518152602083015160208201528091505092915050565b6000815480845260208085019450836000528060002060005b838110156158705781546001600160a01b031687529582019560019182019101615e15565b606081526000615e4d6060830186615dfc565b8281036020840152615e5f8186615840565b915050826040830152949350505050565b600060608284031215615e8257600080fd5b604051606081018181106001600160401b0382111715615ea457615ea4615647565b6040528251615eb28161557c565b81526020830151615ec28161557c565b60208201526040830151615ed58161557c565b60408201529392505050565b600060208284031215615ef357600080fd5b81516107fe8161557c565b600060a08284031215615f1057600080fd5b60405160a081018181106001600160401b0382111715615f3257615f32615647565b60405282518152602083015161ffff81168114615f4e57600080fd5b60208201526040830151615f618161557c565b60408201526060830151615f748161557c565b60608201526080830151615f878161557c565b60808201529392505050565b600082601f830112615fa457600080fd5b81516020615fb461571b836156d7565b82815260059290921b84018101918181019086841115615fd357600080fd5b8286015b8481101561575a5780518352918301918301615fd7565b6000806040838503121561600157600080fd5b82516001600160401b038082111561601857600080fd5b61602486838701615f93565b9350602085015191508082111561603a57600080fd5b5061604785828601615f93565b9150509250929050565b60006020828403121561606357600080fd5b5051919050565b6001600160a01b038416815260806020820181905260009061608e9083018561588e565b82810360408401526160a08185615840565b8381036060909401939093525050600081526020019392505050565b6000602082840312156160ce57600080fd5b81516001600160401b038111156160e457600080fd5b6118c684828501615f93565b6000602080838503121561610357600080fd5b82516001600160401b0381111561611957600080fd5b8301601f8101851361612a57600080fd5b805161613861571b826156d7565b81815260059190911b8201830190838101908783111561615757600080fd5b928401925b8284101561531957835161616f8161557c565b8252928401929084019061615c565b600080835481600182811c91508083168061619a57607f831692505b60208084108214156161ba57634e487b7160e01b86526022600452602486fd5b8180156161ce57600181146161df5761620c565b60ff1986168952848901965061620c565b60008a81526020902060005b868110156162045781548b8201529085019083016161eb565b505084890196505b509498975050505050505050565b60006040828403121561622c57600080fd5b616234615685565b8251815260208301516162468161557c565b60208201529392505050565b60006020828403121561626457600080fd5b61626c61565d565b9151825250919050565b6001600160a01b038516815260806020820181905260009061629a90830186615dfc565b82810360408401526162ac8186615840565b90508281036060840152615319818561553d565b600083516162d2818460208801615511565b8351908301906162e6818360208801615511565b01949350505050565b6001600160a01b038516815260806020820181905260009061629a9083018661588e565b60006020828403121561632557600080fd5b6107fe82615c95565b6060815260006163416060830186615840565b8281036020840152616353818661588e565b91505060018060a01b0383166040830152949350505050565b60006020828403121561637e57600080fd5b81516107fe81615b2e565b600060ff8316806163aa57634e487b7160e01b600052601260045260246000fd5b8060ff84160491505092915050565b600181815b808511156163f45781600019048211156163da576163da615c50565b808516156163e757918102915b93841c93908002906163be565b509250929050565b60008261640b5750600161060a565b816164185750600061060a565b816001811461642e576002811461643857616454565b600191505061060a565b60ff84111561644957616449615c50565b50506001821b61060a565b5060208310610133831016604e8410600b8410161715616477575081810a61060a565b61648183836163b9565b806000190482111561649557616495615c50565b029392505050565b60006107fe60ff8416836163fc565b6040815260006164bf604083018561588e565b90508260208301529392505050565b634e487b7160e01b600052603160045260246000fd5b600082516164f6818460208701615511565b919091019291505056feddf252ad1be2c89b69c2b068fc378daa952ba7f163c4a11628f55a4df523b3efa264697066735822122052f13b2aae1b186711b4d8165847c102eb3981319d5c5ae6e407368f924fc7e364736f6c63430008090033",
    "linkReferences": {}
  },
  "methodIdentifiers": {
    "D18()": "e3f5aeb9",
    "DOMAIN_SEPARATOR()": "3644e515",
    "PERMIT_TYPEHASH()": "30adf81f",
    "addDepositorsToAllowlist(address[])": "91b7ab47",
    "allowance(address,address)": "dd62ed3e",
    "approve(address,uint256)": "095ea7b3",
    "balanceOf(address)": "70a08231",
    "cancelWithdrawal(uint256)": "3efcfda4",
    "currentWithdrawalRequested(address)": "32ebd8e8",
    "decimals()": "313ce567",
    "deposit(uint256[],uint256,bytes)": "54a3f474",
    "depositorsAllowlist()": "a09eb0e7",
    "hasSubvault(uint256)": "9d9fd0d9",
    "helper()": "63b0e66a",
    "initialize(uint256,address[],address,uint256[],address)": "6a72a804",
    "initialized()": "158ef93e",
    "invokeExecution()": "c8045c88",
    "isVaultToken(address)": "338c4ccb",
    "lastFeeCharge()": "3da7463f",
    "lpPriceHighWaterMarkD18()": "24004a66",
    "name()": "06fdde03",
    "nft()": "47ccca02",
    "nonces(address)": "7ecebe00",
    "permit(address,address,uint256,uint256,uint8,bytes32,bytes32)": "d505accf",
    "pullExistentials()": "d2c219b0",
    "registerWithdrawal(uint256)": "4c24c68b",
    "removeDepositorsFromAllowlist(address[])": "e273d23e",
    "subvaultAt(uint256)": "9bd0911b",
    "subvaultNfts()": "79183973",
    "subvaultOneBasedIndex(uint256)": "9ddc875f",
    "supportsInterface(bytes4)": "01ffc9a7",
    "symbol()": "95d89b41",
    "totalSupply()": "18160ddd",
    "totalWithdrawnAmounts(uint256)": "151bb8d1",
    "totalWithdrawnAmountsTimestamp()": "407a31c0",
    "transfer(address,uint256)": "a9059cbb",
    "transferFrom(address,address,uint256)": "23b872dd",
    "tvl()": "e5328e06",
    "vaultGovernance()": "fe255a5e",
    "vaultTokens()": "69722233",
    "withdraw(address,uint256,uint256[],bytes[])": "82491fac"
  },
  "id": 81
}