{
  "abi": [
    {
      "inputs": [],
      "name": "ETH_USD_ORACLE",
      "outputs": [
        {
          "internalType": "address",
          "name": "",
          "type": "address"
        }
      ],
      "stateMutability": "view",
      "type": "function"
    },
    {
      "inputs": [],
      "name": "OHM_ETH_ORACLE",
      "outputs": [
        {
          "internalType": "address",
          "name": "",
          "type": "address"
        }
      ],
      "stateMutability": "view",
      "type": "function"
    },
    {
      "inputs": [],
      "name": "decimals",
      "outputs": [
        {
          "internalType": "uint8",
          "name": "",
          "type": "uint8"
        }
      ],
      "stateMutability": "pure",
      "type": "function"
    },
    {
      "inputs": [],
      "name": "description",
      "outputs": [
        {
          "internalType": "string",
          "name": "",
          "type": "string"
        }
      ],
      "stateMutability": "pure",
      "type": "function"
    },
    {
      "inputs": [
        {
          "internalType": "uint80",
          "name": "",
          "type": "uint80"
        }
      ],
      "name": "getRoundData",
      "outputs": [
        {
          "internalType": "uint80",
          "name": "",
          "type": "uint80"
        },
        {
          "internalType": "int256",
          "name": "",
          "type": "int256"
        },
        {
          "internalType": "uint256",
          "name": "",
          "type": "uint256"
        },
        {
          "internalType": "uint256",
          "name": "",
          "type": "uint256"
        },
        {
          "internalType": "uint80",
          "name": "",
          "type": "uint80"
        }
      ],
      "stateMutability": "pure",
      "type": "function"
    },
    {
      "inputs": [],
      "name": "latestAnswer",
      "outputs": [
        {
          "internalType": "int256",
          "name": "answer",
          "type": "int256"
        }
      ],
      "stateMutability": "view",
      "type": "function"
    },
    {
      "inputs": [],
      "name": "latestRoundData",
      "outputs": [
        {
          "internalType": "uint80",
          "name": "roundId",
          "type": "uint80"
        },
        {
          "internalType": "int256",
          "name": "answer",
          "type": "int256"
        },
        {
          "internalType": "uint256",
          "name": "startedAt",
          "type": "uint256"
        },
        {
          "internalType": "uint256",
          "name": "updatedAt",
          "type": "uint256"
        },
        {
          "internalType": "uint80",
          "name": "answeredInRound",
          "type": "uint80"
        }
      ],
      "stateMutability": "view",
      "type": "function"
    },
    {
      "inputs": [],
      "name": "version",
      "outputs": [
        {
          "internalType": "uint256",
          "name": "",
          "type": "uint256"
        }
      ],
      "stateMutability": "pure",
      "type": "function"
    }
  ],
  "bytecode": {
    "object": "0x608060405234801561001057600080fd5b5061061f806100206000396000f3fe608060405234801561001057600080fd5b50600436106100885760003560e01c80637284e4161161005b5780637284e416146100f15780639a6fc8f51461011c578063b505cb1f14610166578063feaf968c1461018157600080fd5b8063313ce5671461008d57806350d25bcd146100a157806354fd4d50146100b7578063718176e5146100be575b600080fd5b604051600881526020015b60405180910390f35b6100a9610189565b604051908152602001610098565b60016100a9565b6100d9735f4ec3df9cbd43714fe2740f5e3616155c5b841981565b6040516001600160a01b039091168152602001610098565b604080518082018252600981526813d213480bc81554d160ba1b602082015290516100989190610504565b61012f61012a366004610574565b6102bc565b6040805169ffffffffffffffffffff968716815260208101959095528401929092526060830152909116608082015260a001610098565b6100d9739a72298ae3886221820b1c878d12d872087d3a2381565b61012f61030d565b6000735f4ec3df9cbd43714fe2740f5e3616155c5b84196001600160a01b031663feaf968c6040518163ffffffff1660e01b815260040160a06040518083038186803b1580156101d857600080fd5b505afa1580156101ec573d6000803e3d6000fd5b505050506040513d601f19601f820116820180604052508101906102109190610591565b505060408051633fabe5a360e21b8152905192945060009350739a72298ae3886221820b1c878d12d872087d3a239263feaf968c925060048083019260a0929190829003018186803b15801561026557600080fd5b505afa158015610279573d6000803e3d6000fd5b505050506040513d601f19601f8201168201806040525081019061029d9190610591565b5050509150506102b68183670de0b6b3a7640000610450565b91505090565b600080600080600060405162461bcd60e51b8152600401610304906020808252601390820152722737ba24b6b83632b6b2b73a32b222b93937b960691b604082015260600190565b60405180910390fd5b6000806000806000735f4ec3df9cbd43714fe2740f5e3616155c5b84196001600160a01b031663feaf968c6040518163ffffffff1660e01b815260040160a06040518083038186803b15801561036257600080fd5b505afa158015610376573d6000803e3d6000fd5b505050506040513d601f19601f8201168201806040525081019061039a9190610591565b60408051633fabe5a360e21b81529051959a5093985091965094509250600091739a72298ae3886221820b1c878d12d872087d3a239163feaf968c9160048083019260a0929190829003018186803b1580156103f557600080fd5b505afa158015610409573d6000803e3d6000fd5b505050506040513d601f19601f8201168201806040525081019061042d9190610591565b5050509150506104468186670de0b6b3a7640000610450565b9450509091929394565b60008080600019858709858702925082811083820303915050806000141561048a576000841161047f57600080fd5b5082900490506104fd565b80841161049657600080fd5b6000848688096000868103871696879004966002600389028118808a02820302808a02820302808a02820302808a02820302808a02820302808a02909103029181900381900460010186841190950394909402919094039290920491909117919091029150505b9392505050565b600060208083528351808285015260005b8181101561053157858101830151858201604001528201610515565b81811115610543576000604083870101525b50601f01601f1916929092016040019392505050565b69ffffffffffffffffffff8116811461057157600080fd5b50565b60006020828403121561058657600080fd5b81356104fd81610559565b600080600080600060a086880312156105a957600080fd5b85516105b481610559565b8095505060208601519350604086015192506060860151915060808601516105db81610559565b80915050929550929590935056fea264697066735822122055edc1dbc64fa68739c085898718e0dfa9916ea9e8cfd07dc9e47bb97aceee1e64736f6c63430008090033",
    "linkReferences": {}
  },
  "methodIdentifiers": {
    "ETH_USD_ORACLE()": "718176e5",
    "OHM_ETH_ORACLE()": "b505cb1f",
    "decimals()": "313ce567",
    "description()": "7284e416",
    "getRoundData(uint80)": "9a6fc8f5",
    "latestAnswer()": "50d25bcd",
    "latestRoundData()": "feaf968c",
    "version()": "54fd4d50"
  },
  "id": 384
}