{
  "abi": [
    {
      "inputs": [
        {
          "internalType": "contract UniV3Helper",
          "name": "uniV3Helper_",
          "type": "address"
        },
        {
          "internalType": "contract QuickSwapHelper",
          "name": "quickSwapHelper_",
          "type": "address"
        },
        {
          "internalType": "contract CamelotHelper",
          "name": "camelotHelper_",
          "type": "address"
        },
        {
          "internalType": "contract IChainlinkOracle",
          "name": "chainlinkOracle_",
          "type": "address"
        },
        {
          "internalType": "address",
          "name": "usdc_",
          "type": "address"
        }
      ],
      "stateMutability": "nonpayable",
      "type": "constructor"
    },
    {
      "inputs": [],
      "name": "UnsupportedTokenAmounts",
      "type": "error"
    },
    {
      "inputs": [
        {
          "internalType": "contract CamelotPulseStrategyV2",
          "name": "strategy",
          "type": "address"
        }
      ],
      "name": "calculateCamelotFees",
      "outputs": [
        {
          "internalType": "uint256[]",
          "name": "fees",
          "type": "uint256[]"
        }
      ],
      "stateMutability": "view",
      "type": "function"
    },
    {
      "inputs": [
        {
          "internalType": "contract QuickPulseStrategyV2",
          "name": "strategy",
          "type": "address"
        }
      ],
      "name": "calculateQuickSwapFees",
      "outputs": [
        {
          "internalType": "uint256[]",
          "name": "fees",
          "type": "uint256[]"
        }
      ],
      "stateMutability": "view",
      "type": "function"
    },
    {
      "inputs": [
        {
          "internalType": "contract IUniV3Vault",
          "name": "vault",
          "type": "address"
        }
      ],
      "name": "calculateUniFees",
      "outputs": [
        {
          "internalType": "uint256[]",
          "name": "fees",
          "type": "uint256[]"
        }
      ],
      "stateMutability": "view",
      "type": "function"
    },
    {
      "inputs": [
        {
          "internalType": "uint256",
          "name": "uniV3Nft",
          "type": "uint256"
        }
      ],
      "name": "calculateUniTvl",
      "outputs": [
        {
          "internalType": "uint256[]",
          "name": "tokenAmounts",
          "type": "uint256[]"
        }
      ],
      "stateMutability": "view",
      "type": "function"
    },
    {
      "inputs": [],
      "name": "camelotHelper",
      "outputs": [
        {
          "internalType": "contract CamelotHelper",
          "name": "",
          "type": "address"
        }
      ],
      "stateMutability": "view",
      "type": "function"
    },
    {
      "inputs": [],
      "name": "chainlinkOracle",
      "outputs": [
        {
          "internalType": "contract IChainlinkOracle",
          "name": "",
          "type": "address"
        }
      ],
      "stateMutability": "view",
      "type": "function"
    },
    {
      "inputs": [
        {
          "components": [
            {
              "internalType": "contract IERC20RootVault[]",
              "name": "ordinaryRootVaults",
              "type": "address[]"
            },
            {
              "internalType": "contract IERC20RootVault[]",
              "name": "uniPulseRootVaults",
              "type": "address[]"
            },
            {
              "internalType": "contract PulseStrategyV2[]",
              "name": "uniPulseStrategies",
              "type": "address[]"
            },
            {
              "internalType": "contract IERC20RootVault[]",
              "name": "quickPulseRootVaults",
              "type": "address[]"
            },
            {
              "internalType": "contract QuickPulseStrategyV2[]",
              "name": "quickSwapStrategies",
              "type": "address[]"
            },
            {
              "internalType": "contract IERC20RootVault[]",
              "name": "camelotPulseRootVaults",
              "type": "address[]"
            },
            {
              "internalType": "contract CamelotPulseStrategyV2[]",
              "name": "camelotStrategies",
              "type": "address[]"
            },
            {
              "internalType": "address[]",
              "name": "users",
              "type": "address[]"
            }
          ],
          "internalType": "struct ExporterDataCollector.Request",
          "name": "request",
          "type": "tuple"
        }
      ],
      "name": "collect",
      "outputs": [
        {
          "components": [
            {
              "internalType": "uint256[]",
              "name": "minTvl",
              "type": "uint256[]"
            },
            {
              "internalType": "uint256[]",
              "name": "maxTvl",
              "type": "uint256[]"
            },
            {
              "internalType": "uint256",
              "name": "totalSupply",
              "type": "uint256"
            },
            {
              "internalType": "uint256",
              "name": "price0To1",
              "type": "uint256"
            },
            {
              "internalType": "uint256",
              "name": "price0ToUsdc",
              "type": "uint256"
            },
            {
              "internalType": "uint256",
              "name": "price1ToUsdc",
              "type": "uint256"
            }
          ],
          "internalType": "struct ExporterDataCollector.RootVaultData[]",
          "name": "ordinaryStrategydata",
          "type": "tuple[]"
        },
        {
          "components": [
            {
              "internalType": "uint256[]",
              "name": "fees",
              "type": "uint256[]"
            },
            {
              "components": [
                {
                  "internalType": "uint256[]",
                  "name": "minTvl",
                  "type": "uint256[]"
                },
                {
                  "internalType": "uint256[]",
                  "name": "maxTvl",
                  "type": "uint256[]"
                },
                {
                  "internalType": "uint256",
                  "name": "totalSupply",
                  "type": "uint256"
                },
                {
                  "internalType": "uint256",
                  "name": "price0To1",
                  "type": "uint256"
                },
                {
                  "internalType": "uint256",
                  "name": "price0ToUsdc",
                  "type": "uint256"
                },
                {
                  "internalType": "uint256",
                  "name": "price1ToUsdc",
                  "type": "uint256"
                }
              ],
              "internalType": "struct ExporterDataCollector.RootVaultData",
              "name": "rootVaultData",
              "type": "tuple"
            }
          ],
          "internalType": "struct ExporterDataCollector.PulseStrategyData[]",
          "name": "uniPulseStrategyData",
          "type": "tuple[]"
        },
        {
          "components": [
            {
              "internalType": "uint256[]",
              "name": "fees",
              "type": "uint256[]"
            },
            {
              "components": [
                {
                  "internalType": "uint256[]",
                  "name": "minTvl",
                  "type": "uint256[]"
                },
                {
                  "internalType": "uint256[]",
                  "name": "maxTvl",
                  "type": "uint256[]"
                },
                {
                  "internalType": "uint256",
                  "name": "totalSupply",
                  "type": "uint256"
                },
                {
                  "internalType": "uint256",
                  "name": "price0To1",
                  "type": "uint256"
                },
                {
                  "internalType": "uint256",
                  "name": "price0ToUsdc",
                  "type": "uint256"
                },
                {
                  "internalType": "uint256",
                  "name": "price1ToUsdc",
                  "type": "uint256"
                }
              ],
              "internalType": "struct ExporterDataCollector.RootVaultData",
              "name": "rootVaultData",
              "type": "tuple"
            }
          ],
          "internalType": "struct ExporterDataCollector.PulseStrategyData[]",
          "name": "quickPulseStrategyData",
          "type": "tuple[]"
        },
        {
          "components": [
            {
              "internalType": "uint256[]",
              "name": "fees",
              "type": "uint256[]"
            },
            {
              "components": [
                {
                  "internalType": "uint256[]",
                  "name": "minTvl",
                  "type": "uint256[]"
                },
                {
                  "internalType": "uint256[]",
                  "name": "maxTvl",
                  "type": "uint256[]"
                },
                {
                  "internalType": "uint256",
                  "name": "totalSupply",
                  "type": "uint256"
                },
                {
                  "internalType": "uint256",
                  "name": "price0To1",
                  "type": "uint256"
                },
                {
                  "internalType": "uint256",
                  "name": "price0ToUsdc",
                  "type": "uint256"
                },
                {
                  "internalType": "uint256",
                  "name": "price1ToUsdc",
                  "type": "uint256"
                }
              ],
              "internalType": "struct ExporterDataCollector.RootVaultData",
              "name": "rootVaultData",
              "type": "tuple"
            }
          ],
          "internalType": "struct ExporterDataCollector.PulseStrategyData[]",
          "name": "camelotPulseStrategyData",
          "type": "tuple[]"
        },
        {
          "internalType": "uint256[]",
          "name": "balances",
          "type": "uint256[]"
        }
      ],
      "stateMutability": "view",
      "type": "function"
    },
    {
      "inputs": [
        {
          "internalType": "contract CamelotPulseStrategyV2",
          "name": "strategy",
          "type": "address"
        },
        {
          "internalType": "contract IERC20RootVault",
          "name": "rootVault",
          "type": "address"
        }
      ],
      "name": "collectCamelotPulseData",
      "outputs": [
        {
          "components": [
            {
              "internalType": "uint256[]",
              "name": "fees",
              "type": "uint256[]"
            },
            {
              "components": [
                {
                  "internalType": "uint256[]",
                  "name": "minTvl",
                  "type": "uint256[]"
                },
                {
                  "internalType": "uint256[]",
                  "name": "maxTvl",
                  "type": "uint256[]"
                },
                {
                  "internalType": "uint256",
                  "name": "totalSupply",
                  "type": "uint256"
                },
                {
                  "internalType": "uint256",
                  "name": "price0To1",
                  "type": "uint256"
                },
                {
                  "internalType": "uint256",
                  "name": "price0ToUsdc",
                  "type": "uint256"
                },
                {
                  "internalType": "uint256",
                  "name": "price1ToUsdc",
                  "type": "uint256"
                }
              ],
              "internalType": "struct ExporterDataCollector.RootVaultData",
              "name": "rootVaultData",
              "type": "tuple"
            }
          ],
          "internalType": "struct ExporterDataCollector.PulseStrategyData",
          "name": "data",
          "type": "tuple"
        }
      ],
      "stateMutability": "view",
      "type": "function"
    },
    {
      "inputs": [
        {
          "internalType": "contract QuickPulseStrategyV2",
          "name": "strategy",
          "type": "address"
        },
        {
          "internalType": "contract IERC20RootVault",
          "name": "rootVault",
          "type": "address"
        }
      ],
      "name": "collectQuickPulseData",
      "outputs": [
        {
          "components": [
            {
              "internalType": "uint256[]",
              "name": "fees",
              "type": "uint256[]"
            },
            {
              "components": [
                {
                  "internalType": "uint256[]",
                  "name": "minTvl",
                  "type": "uint256[]"
                },
                {
                  "internalType": "uint256[]",
                  "name": "maxTvl",
                  "type": "uint256[]"
                },
                {
                  "internalType": "uint256",
                  "name": "totalSupply",
                  "type": "uint256"
                },
                {
                  "internalType": "uint256",
                  "name": "price0To1",
                  "type": "uint256"
                },
                {
                  "internalType": "uint256",
                  "name": "price0ToUsdc",
                  "type": "uint256"
                },
                {
                  "internalType": "uint256",
                  "name": "price1ToUsdc",
                  "type": "uint256"
                }
              ],
              "internalType": "struct ExporterDataCollector.RootVaultData",
              "name": "rootVaultData",
              "type": "tuple"
            }
          ],
          "internalType": "struct ExporterDataCollector.PulseStrategyData",
          "name": "data",
          "type": "tuple"
        }
      ],
      "stateMutability": "view",
      "type": "function"
    },
    {
      "inputs": [
        {
          "internalType": "contract IERC20RootVault",
          "name": "rootVault",
          "type": "address"
        }
      ],
      "name": "collectRootVaultData",
      "outputs": [
        {
          "components": [
            {
              "internalType": "uint256[]",
              "name": "minTvl",
              "type": "uint256[]"
            },
            {
              "internalType": "uint256[]",
              "name": "maxTvl",
              "type": "uint256[]"
            },
            {
              "internalType": "uint256",
              "name": "totalSupply",
              "type": "uint256"
            },
            {
              "internalType": "uint256",
              "name": "price0To1",
              "type": "uint256"
            },
            {
              "internalType": "uint256",
              "name": "price0ToUsdc",
              "type": "uint256"
            },
            {
              "internalType": "uint256",
              "name": "price1ToUsdc",
              "type": "uint256"
            }
          ],
          "internalType": "struct ExporterDataCollector.RootVaultData",
          "name": "data",
          "type": "tuple"
        }
      ],
      "stateMutability": "view",
      "type": "function"
    },
    {
      "inputs": [
        {
          "internalType": "contract PulseStrategyV2",
          "name": "strategy",
          "type": "address"
        },
        {
          "internalType": "contract IERC20RootVault",
          "name": "rootVault",
          "type": "address"
        }
      ],
      "name": "collectUniPulseData",
      "outputs": [
        {
          "components": [
            {
              "internalType": "uint256[]",
              "name": "fees",
              "type": "uint256[]"
            },
            {
              "components": [
                {
                  "internalType": "uint256[]",
                  "name": "minTvl",
                  "type": "uint256[]"
                },
                {
                  "internalType": "uint256[]",
                  "name": "maxTvl",
                  "type": "uint256[]"
                },
                {
                  "internalType": "uint256",
                  "name": "totalSupply",
                  "type": "uint256"
                },
                {
                  "internalType": "uint256",
                  "name": "price0To1",
                  "type": "uint256"
                },
                {
                  "internalType": "uint256",
                  "name": "price0ToUsdc",
                  "type": "uint256"
                },
                {
                  "internalType": "uint256",
                  "name": "price1ToUsdc",
                  "type": "uint256"
                }
              ],
              "internalType": "struct ExporterDataCollector.RootVaultData",
              "name": "rootVaultData",
              "type": "tuple"
            }
          ],
          "internalType": "struct ExporterDataCollector.PulseStrategyData",
          "name": "data",
          "type": "tuple"
        }
      ],
      "stateMutability": "view",
      "type": "function"
    },
    {
      "inputs": [],
      "name": "quickSwapHelper",
      "outputs": [
        {
          "internalType": "contract QuickSwapHelper",
          "name": "",
          "type": "address"
        }
      ],
      "stateMutability": "view",
      "type": "function"
    },
    {
      "inputs": [],
      "name": "uniV3Helper",
      "outputs": [
        {
          "internalType": "contract UniV3Helper",
          "name": "",
          "type": "address"
        }
      ],
      "stateMutability": "view",
      "type": "function"
    },
    {
      "inputs": [],
      "name": "usdc",
      "outputs": [
        {
          "internalType": "address",
          "name": "",
          "type": "address"
        }
      ],
      "stateMutability": "view",
      "type": "function"
    }
  ],
  "bytecode": {
    "object": "0x6101206040523480156200001257600080fd5b5060405162002adb38038062002adb833981016040819052620000359162000078565b6001600160a01b0394851660805292841660a05290831660c052821660e0521661010052620000f8565b6001600160a01b03811681146200007557600080fd5b50565b600080600080600060a086880312156200009157600080fd5b85516200009e816200005f565b6020870151909550620000b1816200005f565b6040870151909450620000c4816200005f565b6060870151909350620000d7816200005f565b6080870151909250620000ea816200005f565b809150509295509295909350565b60805160a05160c05160e05161010051612944620001976000396000818160f401528181611715015261195d01526000818161025d015281816116cb015281816117fa01526119130152600081816101d80152818161032d015281816105b001526106bc015260008181610236015281816109660152610d6f0152600081816101780152818161148401528181611aaa0152611bb901526129446000f3fe608060405234801561001057600080fd5b50600436106100ea5760003560e01c8063a971c8d51161008c578063dc4cbe0b11610066578063dc4cbe0b14610231578063ef06e72c14610258578063f20d09aa1461027f578063fa773a6b1461029f57600080fd5b8063a971c8d5146101d3578063ade7168a146101fa578063c1f8d4771461021e57600080fd5b806383c4224f116100c857806383c4224f146101735780639070efbf1461019a57806392b0ecaa146101ad5780639b7c0c00146101c057600080fd5b80633e413bee146100ef57806352d7ed03146101335780637d54578214610153575b600080fd5b6101167f000000000000000000000000000000000000000000000000000000000000000081565b6040516001600160a01b0390911681526020015b60405180910390f35b610146610141366004611ccd565b6102b2565b60405161012a9190611d25565b610166610161366004611d38565b61084e565b60405161012a9190611e0b565b6101167f000000000000000000000000000000000000000000000000000000000000000081565b6101466101a8366004611ccd565b610875565b6101666101bb366004611d38565b610f02565b6101666101ce366004611d38565b610fa1565b6101167f000000000000000000000000000000000000000000000000000000000000000081565b61020d610208366004611faa565b610fb2565b60405161012a959493929190612165565b61014661022c366004611ccd565b6113cb565b6101167f000000000000000000000000000000000000000000000000000000000000000081565b6101167f000000000000000000000000000000000000000000000000000000000000000081565b61029261028d366004611ccd565b611547565b60405161012a919061221a565b6101466102ad36600461222d565b611a66565b60606000826001600160a01b031663c8014d536040518163ffffffff1660e01b815260040160606040518083038186803b1580156102ef57600080fd5b505afa158015610303573d6000803e3d6000fd5b505050506040513d601f19601f820116820180604052508101906103279190612256565b509150507f00000000000000000000000000000000000000000000000000000000000000006001600160a01b03166312f579b9826001600160a01b031663ef7d80376040518163ffffffff1660e01b815260040160206040518083038186803b15801561039357600080fd5b505afa1580156103a7573d6000803e3d6000fd5b505050506040513d601f19601f820116820180604052508101906103cb91906122a3565b6040518263ffffffff1660e01b81526004016103e991815260200190565b60006040518083038186803b15801561040157600080fd5b505afa158015610415573d6000803e3d6000fd5b505050506040513d6000823e601f3d908101601f1916820160405261043d9190810190612317565b91506000816001600160a01b031663791b98bc6040518163ffffffff1660e01b815260040160206040518083038186803b15801561047a57600080fd5b505afa15801561048e573d6000803e3d6000fd5b505050506040513d601f19601f820116820180604052508101906104b29190612353565b6001600160a01b03166399fbab88836001600160a01b031663ef7d80376040518163ffffffff1660e01b815260040160206040518083038186803b1580156104f957600080fd5b505afa15801561050d573d6000803e3d6000fd5b505050506040513d601f19601f8201168201806040525081019061053191906122a3565b6040518263ffffffff1660e01b815260040161054f91815260200190565b6101606040518083038186803b15801561056857600080fd5b505afa15801561057c573d6000803e3d6000fd5b505050506040513d601f19601f820116820180604052508101906105a09190612399565b50505050965050505050505060007f00000000000000000000000000000000000000000000000000000000000000006001600160a01b03166316f0115b6040518163ffffffff1660e01b815260040160206040518083038186803b15801561060757600080fd5b505afa15801561061b573d6000803e3d6000fd5b505050506040513d601f19601f8201168201806040525081019061063f9190612353565b6001600160a01b031663e76c01e46040518163ffffffff1660e01b815260040160e06040518083038186803b15801561067757600080fd5b505afa15801561068b573d6000803e3d6000fd5b505050506040513d601f19601f820116820180604052508101906106af91906124a2565b50505050505090506000807f00000000000000000000000000000000000000000000000000000000000000006001600160a01b031663b5ce1db9866001600160a01b031663ef7d80376040518163ffffffff1660e01b815260040160206040518083038186803b15801561072257600080fd5b505afa158015610736573d6000803e3d6000fd5b505050506040513d601f19601f8201168201806040525081019061075a91906122a3565b6040516001600160e01b031960e084901b16815260048101919091526001600160a01b03861660248201526001600160801b0387166044820152606401604080518083038186803b1580156107ae57600080fd5b505afa1580156107c2573d6000803e3d6000fd5b505050506040513d601f19601f820116820180604052508101906107e6919061252a565b9150915081866000815181106107fe576107fe61254e565b60200260200101818151610812919061257a565b905250855181908790600190811061082c5761082c61254e565b60200260200101818151610840919061257a565b905250949695505050505050565b610856611c60565b61085f836102b2565b815261086a82611547565b602082015292915050565b60606000826001600160a01b031663c8014d536040518163ffffffff1660e01b815260040160606040518083038186803b1580156108b257600080fd5b505afa1580156108c6573d6000803e3d6000fd5b505050506040513d601f19601f820116820180604052508101906108ea9190612256565b509150506000816001600160a01b031663f57f33d06040518163ffffffff1660e01b81526004016101206040518083038186803b15801561092a57600080fd5b505afa15801561093e573d6000803e3d6000fd5b505050506040513d601f19601f8201168201806040525081019061096291906125a5565b90507f00000000000000000000000000000000000000000000000000000000000000006001600160a01b031663a510a401836001600160a01b031663ef7d80376040518163ffffffff1660e01b815260040160206040518083038186803b1580156109cc57600080fd5b505afa1580156109e0573d6000803e3d6000fd5b505050506040513d601f19601f82011682018060405250810190610a0491906122a3565b83856001600160a01b031663dd56e5d86040518163ffffffff1660e01b815260040160206040518083038186803b158015610a3e57600080fd5b505afa158015610a52573d6000803e3d6000fd5b505050506040513d601f19601f82011682018060405250810190610a769190612353565b866001600160a01b031663697222336040518163ffffffff1660e01b815260040160006040518083038186803b158015610aaf57600080fd5b505afa158015610ac3573d6000803e3d6000fd5b505050506040513d6000823e601f3d908101601f19168201604052610aeb919081019061266b565b600081518110610afd57610afd61254e565b60200260200101516040518563ffffffff1660e01b8152600401610b249493929190612704565b60006040518083038186803b158015610b3c57600080fd5b505afa158015610b50573d6000803e3d6000fd5b505050506040513d6000823e601f3d908101601f19168201604052610b789190810190612317565b92506000826001600160a01b031663791b98bc6040518163ffffffff1660e01b815260040160206040518083038186803b158015610bb557600080fd5b505afa158015610bc9573d6000803e3d6000fd5b505050506040513d601f19601f82011682018060405250810190610bed9190612353565b6001600160a01b03166399fbab88846001600160a01b031663ef7d80376040518163ffffffff1660e01b815260040160206040518083038186803b158015610c3457600080fd5b505afa158015610c48573d6000803e3d6000fd5b505050506040513d601f19601f82011682018060405250810190610c6c91906122a3565b6040518263ffffffff1660e01b8152600401610c8a91815260200190565b6101606040518083038186803b158015610ca357600080fd5b505afa158015610cb7573d6000803e3d6000fd5b505050506040513d601f19601f82011682018060405250810190610cdb91906127b2565b50505050965050505050505060008260000151604001516001600160a01b031663e76c01e46040518163ffffffff1660e01b815260040160e06040518083038186803b158015610d2a57600080fd5b505afa158015610d3e573d6000803e3d6000fd5b505050506040513d601f19601f82011682018060405250810190610d6291906127f0565b50505050505090506000807f00000000000000000000000000000000000000000000000000000000000000006001600160a01b031663b5ce1db9876001600160a01b031663ef7d80376040518163ffffffff1660e01b815260040160206040518083038186803b158015610dd557600080fd5b505afa158015610de9573d6000803e3d6000fd5b505050506040513d601f19601f82011682018060405250810190610e0d91906122a3565b6040516001600160e01b031960e084901b16815260048101919091526001600160a01b03861660248201526001600160801b0387166044820152606401604080518083038186803b158015610e6157600080fd5b505afa158015610e75573d6000803e3d6000fd5b505050506040513d601f19601f82011682018060405250810190610e99919061252a565b915091508187600081518110610eb157610eb161254e565b60200260200101818151610ec5919061257a565b9052508651819088906001908110610edf57610edf61254e565b60200260200101818151610ef3919061257a565b90525095979650505050505050565b610f0a611c60565b6000836001600160a01b031663c8014d536040518163ffffffff1660e01b815260040160606040518083038186803b158015610f4557600080fd5b505afa158015610f59573d6000803e3d6000fd5b505050506040513d601f19601f82011682018060405250810190610f7d9190612256565b50915050610f8a816113cb565b8252610f9583611547565b60208301525092915050565b610fa9611c60565b61085f83610875565b60608060608060608560000151516001600160401b03811115610fd757610fd7611e1e565b60405190808252806020026020018201604052801561101057816020015b610ffd611c7f565b815260200190600190039081610ff55790505b50945060005b86515181101561107657611046876000015182815181106110395761103961254e565b6020026020010151611547565b8682815181106110585761105861254e565b6020026020010181905250808061106e9061284e565b915050611016565b508560200151516001600160401b0381111561109457611094611e1e565b6040519080825280602002602001820160405280156110cd57816020015b6110ba611c60565b8152602001906001900390816110b25790505b50935060005b86602001515181101561115457611124876040015182815181106110f9576110f961254e565b6020026020010151886020015183815181106111175761111761254e565b6020026020010151610f02565b8582815181106111365761113661254e565b6020026020010181905250808061114c9061284e565b9150506110d3565b508560600151516001600160401b0381111561117257611172611e1e565b6040519080825280602002602001820160405280156111ab57816020015b611198611c60565b8152602001906001900390816111905790505b50925060005b86606001515181101561123257611202876080015182815181106111d7576111d761254e565b6020026020010151886060015183815181106111f5576111f561254e565b6020026020010151610fa1565b8482815181106112145761121461254e565b6020026020010181905250808061122a9061284e565b9150506111b1565b508560a00151516001600160401b0381111561125057611250611e1e565b60405190808252806020026020018201604052801561128957816020015b611276611c60565b81526020019060019003908161126e5790505b50915060005b8660a0015151811015611310576112e08760c0015182815181106112b5576112b561254e565b60200260200101518860a0015183815181106112d3576112d361254e565b602002602001015161084e565b8382815181106112f2576112f261254e565b602002602001018190525080806113089061284e565b91505061128f565b508560e00151516001600160401b0381111561132e5761132e611e1e565b604051908082528060200260200182016040528015611357578160200160208202803683370190505b50905060005b8660e00151518110156113c1578660e0015181815181106113805761138061254e565b60200260200101516001600160a01b0316318282815181106113a4576113a461254e565b6020908102919091010152806113b98161284e565b91505061135d565b5091939590929450565b60606000826001600160a01b031663f4adc08b6040518163ffffffff1660e01b815260040160206040518083038186803b15801561140857600080fd5b505afa15801561141c573d6000803e3d6000fd5b505050506040513d601f19601f8201168201806040525081019061144091906122a3565b60408051600280825260608201835292935091906020830190803683370190505091508061146e5750919050565b604051631a282c7560e11b8152600481018290527f00000000000000000000000000000000000000000000000000000000000000006001600160a01b03169063345058ea90602401604080518083038186803b1580156114cd57600080fd5b505afa1580156114e1573d6000803e3d6000fd5b505050506040513d601f19601f82011682018060405250810190611505919061252a565b836000815181106115185761151861254e565b60200260200101846001815181106115325761153261254e565b60209081029190910101919091525250919050565b61154f611c7f565b816001600160a01b031663e5328e066040518163ffffffff1660e01b815260040160006040518083038186803b15801561158857600080fd5b505afa15801561159c573d6000803e3d6000fd5b505050506040513d6000823e601f3d908101601f191682016040526115c49190810190612869565b82600001836020018290528290525050816001600160a01b03166318160ddd6040518163ffffffff1660e01b815260040160206040518083038186803b15801561160d57600080fd5b505afa158015611621573d6000803e3d6000fd5b505050506040513d601f19601f8201168201806040525081019061164591906122a3565b8160400181815250506000826001600160a01b031663697222336040518163ffffffff1660e01b815260040160006040518083038186803b15801561168957600080fd5b505afa15801561169d573d6000803e3d6000fd5b505050506040513d6000823e601f3d908101601f191682016040526116c5919081019061266b565b905060007f00000000000000000000000000000000000000000000000000000000000000006001600160a01b0316636d80125b8360008151811061170b5761170b61254e565b60200260200101517f000000000000000000000000000000000000000000000000000000000000000060206040518463ffffffff1660e01b8152600401611773939291906001600160a01b039384168152919092166020820152604081019190915260600190565b60006040518083038186803b15801561178b57600080fd5b505afa15801561179f573d6000803e3d6000fd5b505050506040513d6000823e601f3d908101601f191682016040526117c79190810190612869565b509050806000815181106117dd576117dd61254e565b6020026020010151836080018181525050815160021415611a3d577f00000000000000000000000000000000000000000000000000000000000000006001600160a01b0316636d80125b8360008151811061183a5761183a61254e565b6020026020010151846001815181106118555761185561254e565b6020908102919091018101516040516001600160e01b031960e086901b1681526001600160a01b03938416600482015292166024830152604482015260640160006040518083038186803b1580156118ac57600080fd5b505afa1580156118c0573d6000803e3d6000fd5b505050506040513d6000823e601f3d908101601f191682016040526118e89190810190612869565b5080915050806000815181106119005761190061254e565b60200260200101518360600181815250507f00000000000000000000000000000000000000000000000000000000000000006001600160a01b0316636d80125b836001815181106119535761195361254e565b60200260200101517f000000000000000000000000000000000000000000000000000000000000000060206040518463ffffffff1660e01b81526004016119bb939291906001600160a01b039384168152919092166020820152604081019190915260600190565b60006040518083038186803b1580156119d357600080fd5b505afa1580156119e7573d6000803e3d6000fd5b505050506040513d6000823e601f3d908101601f19168201604052611a0f9190810190612869565b508091505080600081518110611a2757611a2761254e565b60200260200101518360a0018181525050611a5f565b8151600114611a5f57604051637e06fe7d60e11b815260040160405180910390fd5b5050919050565b606081611a915760408051600280825260608201835290916020830190803683370190505092915050565b60405163073e3c0b60e01b8152600481018390526000907f00000000000000000000000000000000000000000000000000000000000000006001600160a01b03169063073e3c0b9060240160206040518083038186803b158015611af457600080fd5b505afa158015611b08573d6000803e3d6000fd5b505050506040513d601f19601f82011682018060405250810190611b2c9190612353565b6001600160a01b0316633850c7bd6040518163ffffffff1660e01b815260040160e06040518083038186803b158015611b6457600080fd5b505afa158015611b78573d6000803e3d6000fd5b505050506040513d601f19601f82011682018060405250810190611b9c91906128cc565b5050604051631c92ce3560e01b8152949550506001600160a01b037f00000000000000000000000000000000000000000000000000000000000000001693631c92ce359350611c05925087915085906004019182526001600160a01b0316602082015260400190565b60006040518083038186803b158015611c1d57600080fd5b505afa158015611c31573d6000803e3d6000fd5b505050506040513d6000823e601f3d908101601f19168201604052611c599190810190612317565b9392505050565b604051806040016040528060608152602001611c7a611c7f565b905290565b6040518060c001604052806060815260200160608152602001600081526020016000815260200160008152602001600081525090565b6001600160a01b0381168114611cca57600080fd5b50565b600060208284031215611cdf57600080fd5b8135611c5981611cb5565b600081518084526020808501945080840160005b83811015611d1a57815187529582019590820190600101611cfe565b509495945050505050565b602081526000611c596020830184611cea565b60008060408385031215611d4b57600080fd5b8235611d5681611cb5565b91506020830135611d6681611cb5565b809150509250929050565b6000815160c08452611d8660c0850182611cea565b905060208301518482036020860152611d9f8282611cea565b91505060408301516040850152606083015160608501526080830151608085015260a083015160a08501528091505092915050565b6000815160408452611de96040850182611cea565b905060208301518482036020860152611e028282611d71565b95945050505050565b602081526000611c596020830184611dd4565b634e487b7160e01b600052604160045260246000fd5b60405161010081016001600160401b0381118282101715611e5757611e57611e1e565b60405290565b60405160a081016001600160401b0381118282101715611e5757611e57611e1e565b604051601f8201601f191681016001600160401b0381118282101715611ea757611ea7611e1e565b604052919050565b60006001600160401b03821115611ec857611ec8611e1e565b5060051b60200190565b600082601f830112611ee357600080fd5b81356020611ef8611ef383611eaf565b611e7f565b82815260059290921b84018101918181019086841115611f1757600080fd5b8286015b84811015611f3b578035611f2e81611cb5565b8352918301918301611f1b565b509695505050505050565b600082601f830112611f5757600080fd5b81356020611f67611ef383611eaf565b82815260059290921b84018101918181019086841115611f8657600080fd5b8286015b84811015611f3b578035611f9d81611cb5565b8352918301918301611f8a565b600060208284031215611fbc57600080fd5b81356001600160401b0380821115611fd357600080fd5b908301906101008286031215611fe857600080fd5b611ff0611e34565b823582811115611fff57600080fd5b61200b87828601611ed2565b82525060208301358281111561202057600080fd5b61202c87828601611ed2565b60208301525060408301358281111561204457600080fd5b61205087828601611f46565b60408301525060608301358281111561206857600080fd5b61207487828601611ed2565b60608301525060808301358281111561208c57600080fd5b61209887828601611ed2565b60808301525060a0830135828111156120b057600080fd5b6120bc87828601611ed2565b60a08301525060c0830135828111156120d457600080fd5b6120e087828601611ed2565b60c08301525060e0830135828111156120f857600080fd5b61210487828601611f46565b60e08301525095945050505050565b6000815180845260208085019450848260051b860182860160005b85811015612158578383038952612146838351611dd4565b9885019892509084019060010161212e565b5090979650505050505050565b600060a0820160a0835280885180835260c08501915060c08160051b86010192506020808b0160005b838110156121bc5760bf198887030185526121aa868351611d71565b9550938201939082019060010161218e565b5050858403818701525050506121d28188612113565b905082810360408401526121e68187612113565b905082810360608401526121fa8186612113565b9050828103608084015261220e8185611cea565b98975050505050505050565b602081526000611c596020830184611d71565b60006020828403121561223f57600080fd5b5035919050565b805161225181611cb5565b919050565b60008060006060848603121561226b57600080fd5b835161227681611cb5565b602085015190935061228781611cb5565b604085015190925061229881611cb5565b809150509250925092565b6000602082840312156122b557600080fd5b5051919050565b600082601f8301126122cd57600080fd5b815160206122dd611ef383611eaf565b82815260059290921b840181019181810190868411156122fc57600080fd5b8286015b84811015611f3b5780518352918301918301612300565b60006020828403121561232957600080fd5b81516001600160401b0381111561233f57600080fd5b61234b848285016122bc565b949350505050565b60006020828403121561236557600080fd5b8151611c5981611cb5565b8051600281900b811461225157600080fd5b80516001600160801b038116811461225157600080fd5b60008060008060008060008060008060006101608c8e0312156123bb57600080fd5b8b516affffffffffffffffffffff811681146123d657600080fd5b60208d0151909b506123e781611cb5565b60408d0151909a506123f881611cb5565b985061240660608d01612246565b975061241460808d01612370565b965061242260a08d01612370565b955061243060c08d01612382565b945060e08c015193506101008c0151925061244e6101208d01612382565b915061245d6101408d01612382565b90509295989b509295989b9093969950565b805161ffff8116811461225157600080fd5b805160ff8116811461225157600080fd5b8051801515811461225157600080fd5b600080600080600080600060e0888a0312156124bd57600080fd5b87516124c881611cb5565b96506124d660208901612370565b95506124e460408901612370565b94506124f26060890161246f565b93506125006080890161246f565b925061250e60a08901612481565b915061251c60c08901612492565b905092959891949750929550565b6000806040838503121561253d57600080fd5b505080516020909101519092909150565b634e487b7160e01b600052603260045260246000fd5b634e487b7160e01b600052601160045260246000fd5b60008282101561258c5761258c612564565b500390565b805163ffffffff8116811461225157600080fd5b60008183036101208112156125b957600080fd5b6125c1611e5d565b60a08212156125cf57600080fd5b6125d7611e5d565b915083516125e481611cb5565b825260208401516125f481611cb5565b6020830152604084015161260781611cb5565b80604084015250606084015160608301526080840151608083015281815261263160a08501612246565b602082015261264260c08501612246565b604082015260e0840151606082015261265e6101008501612591565b6080820152949350505050565b6000602080838503121561267e57600080fd5b82516001600160401b0381111561269457600080fd5b8301601f810185136126a557600080fd5b80516126b3611ef382611eaf565b81815260059190911b820183019083810190878311156126d257600080fd5b928401925b828410156126f95783516126ea81611cb5565b825292840192908401906126d7565b979650505050505050565b600061018082019050858252845160018060a01b038082511660208501528060208301511660408501528060408301511660608501525060608101516080840152608081015160a084015250602085015161276a60c08401826001600160a01b03169052565b5060408501516001600160a01b0390811660e08401526060860151610100840152608086015163ffffffff166101208401528481166101408401528316610160830152611e02565b60008060008060008060008060008060006101608c8e0312156127d457600080fd5b8b516bffffffffffffffffffffffff811681146123d657600080fd5b600080600080600080600060e0888a03121561280b57600080fd5b875161281681611cb5565b965061282460208901612370565b95506128326040890161246f565b94506128406060890161246f565b935061250060808901612481565b600060001982141561286257612862612564565b5060010190565b6000806040838503121561287c57600080fd5b82516001600160401b038082111561289357600080fd5b61289f868387016122bc565b935060208501519150808211156128b557600080fd5b506128c2858286016122bc565b9150509250929050565b600080600080600080600060e0888a0312156128e757600080fd5b87516128f281611cb5565b965061290060208901612370565b95506124e46040890161246f56fea264697066735822122088a0fd44ddf2cb824aaa83cbdd1ac62beb749356bd78c12fb2a035b1ec4539a564736f6c63430008090033",
    "linkReferences": {}
  },
  "methodIdentifiers": {
    "calculateCamelotFees(address)": "52d7ed03",
    "calculateQuickSwapFees(address)": "9070efbf",
    "calculateUniFees(address)": "c1f8d477",
    "calculateUniTvl(uint256)": "fa773a6b",
    "camelotHelper()": "a971c8d5",
    "chainlinkOracle()": "ef06e72c",
    "collect((address[],address[],address[],address[],address[],address[],address[],address[]))": "ade7168a",
    "collectCamelotPulseData(address,address)": "7d545782",
    "collectQuickPulseData(address,address)": "9b7c0c00",
    "collectRootVaultData(address)": "f20d09aa",
    "collectUniPulseData(address,address)": "92b0ecaa",
    "quickSwapHelper()": "dc4cbe0b",
    "uniV3Helper()": "83c4224f",
    "usdc()": "3e413bee"
  },
  "id": 419
}