{
  "abi": [
    {
      "inputs": [
        {
          "components": [
            {
              "internalType": "contract IProtocolGovernance",
              "name": "protocolGovernance",
              "type": "address"
            },
            {
              "internalType": "contract IVaultRegistry",
              "name": "registry",
              "type": "address"
            },
            {
              "internalType": "contract IVault",
              "name": "singleton",
              "type": "address"
            }
          ],
          "internalType": "struct IVaultGovernance.InternalParams",
          "name": "internalParams_",
          "type": "tuple"
        },
        {
          "components": [
            {
              "internalType": "uint256",
              "name": "withdrawDelay",
              "type": "uint256"
            },
            {
              "internalType": "uint16",
              "name": "referralCode",
              "type": "uint16"
            },
            {
              "internalType": "address",
              "name": "crvEthPool",
              "type": "address"
            },
            {
              "internalType": "address",
              "name": "cvxEthPool",
              "type": "address"
            },
            {
              "internalType": "address",
              "name": "wethAddress",
              "type": "address"
            }
          ],
          "internalType": "struct IGearboxVaultGovernance.DelayedProtocolParams",
          "name": "delayedProtocolParams_",
          "type": "tuple"
        }
      ],
      "stateMutability": "nonpayable",
      "type": "constructor"
    },
    {
      "anonymous": false,
      "inputs": [
        {
          "indexed": true,
          "internalType": "address",
          "name": "origin",
          "type": "address"
        },
        {
          "indexed": true,
          "internalType": "address",
          "name": "sender",
          "type": "address"
        },
        {
          "components": [
            {
              "internalType": "uint256",
              "name": "withdrawDelay",
              "type": "uint256"
            },
            {
              "internalType": "uint16",
              "name": "referralCode",
              "type": "uint16"
            },
            {
              "internalType": "address",
              "name": "crvEthPool",
              "type": "address"
            },
            {
              "internalType": "address",
              "name": "cvxEthPool",
              "type": "address"
            },
            {
              "internalType": "address",
              "name": "wethAddress",
              "type": "address"
            }
          ],
          "indexed": false,
          "internalType": "struct IGearboxVaultGovernance.DelayedProtocolParams",
          "name": "params",
          "type": "tuple"
        }
      ],
      "name": "CommitDelayedProtocolParams",
      "type": "event"
    },
    {
      "anonymous": false,
      "inputs": [
        {
          "indexed": true,
          "internalType": "address",
          "name": "origin",
          "type": "address"
        },
        {
          "indexed": true,
          "internalType": "address",
          "name": "sender",
          "type": "address"
        },
        {
          "indexed": true,
          "internalType": "uint256",
          "name": "nft",
          "type": "uint256"
        },
        {
          "components": [
            {
              "internalType": "address",
              "name": "primaryToken",
              "type": "address"
            },
            {
              "internalType": "address",
              "name": "curveAdapter",
              "type": "address"
            },
            {
              "internalType": "address",
              "name": "convexAdapter",
              "type": "address"
            },
            {
              "internalType": "address",
              "name": "facade",
              "type": "address"
            },
            {
              "internalType": "uint256",
              "name": "convexPoolId",
              "type": "uint256"
            },
            {
              "internalType": "uint256",
              "name": "initialMarginalValue",
              "type": "uint256"
            },
            {
              "internalType": "address",
              "name": "ethToPrimaryTokenPool",
              "type": "address"
            },
            {
              "internalType": "address",
              "name": "depositToPrimaryTokenPool",
              "type": "address"
            }
          ],
          "indexed": false,
          "internalType": "struct IGearboxVaultGovernance.DelayedProtocolPerVaultParams",
          "name": "params",
          "type": "tuple"
        }
      ],
      "name": "CommitDelayedProtocolPerVaultParams",
      "type": "event"
    },
    {
      "anonymous": false,
      "inputs": [
        {
          "indexed": true,
          "internalType": "address",
          "name": "origin",
          "type": "address"
        },
        {
          "indexed": true,
          "internalType": "address",
          "name": "sender",
          "type": "address"
        },
        {
          "components": [
            {
              "internalType": "contract IProtocolGovernance",
              "name": "protocolGovernance",
              "type": "address"
            },
            {
              "internalType": "contract IVaultRegistry",
              "name": "registry",
              "type": "address"
            },
            {
              "internalType": "contract IVault",
              "name": "singleton",
              "type": "address"
            }
          ],
          "indexed": false,
          "internalType": "struct IVaultGovernance.InternalParams",
          "name": "params",
          "type": "tuple"
        }
      ],
      "name": "CommitedInternalParams",
      "type": "event"
    },
    {
      "anonymous": false,
      "inputs": [
        {
          "indexed": true,
          "internalType": "address",
          "name": "origin",
          "type": "address"
        },
        {
          "indexed": true,
          "internalType": "address",
          "name": "sender",
          "type": "address"
        },
        {
          "indexed": false,
          "internalType": "address[]",
          "name": "vaultTokens",
          "type": "address[]"
        },
        {
          "indexed": false,
          "internalType": "bytes",
          "name": "options",
          "type": "bytes"
        },
        {
          "indexed": false,
          "internalType": "address",
          "name": "owner",
          "type": "address"
        },
        {
          "indexed": false,
          "internalType": "address",
          "name": "vaultAddress",
          "type": "address"
        },
        {
          "indexed": false,
          "internalType": "uint256",
          "name": "vaultNft",
          "type": "uint256"
        }
      ],
      "name": "DeployedVault",
      "type": "event"
    },
    {
      "anonymous": false,
      "inputs": [
        {
          "indexed": true,
          "internalType": "address",
          "name": "origin",
          "type": "address"
        },
        {
          "indexed": true,
          "internalType": "address",
          "name": "sender",
          "type": "address"
        },
        {
          "components": [
            {
              "internalType": "uint256",
              "name": "withdrawDelay",
              "type": "uint256"
            },
            {
              "internalType": "uint16",
              "name": "referralCode",
              "type": "uint16"
            },
            {
              "internalType": "address",
              "name": "crvEthPool",
              "type": "address"
            },
            {
              "internalType": "address",
              "name": "cvxEthPool",
              "type": "address"
            },
            {
              "internalType": "address",
              "name": "wethAddress",
              "type": "address"
            }
          ],
          "indexed": false,
          "internalType": "struct IGearboxVaultGovernance.DelayedProtocolParams",
          "name": "params",
          "type": "tuple"
        },
        {
          "indexed": false,
          "internalType": "uint256",
          "name": "when",
          "type": "uint256"
        }
      ],
      "name": "StageDelayedProtocolParams",
      "type": "event"
    },
    {
      "anonymous": false,
      "inputs": [
        {
          "indexed": true,
          "internalType": "address",
          "name": "origin",
          "type": "address"
        },
        {
          "indexed": true,
          "internalType": "address",
          "name": "sender",
          "type": "address"
        },
        {
          "indexed": true,
          "internalType": "uint256",
          "name": "nft",
          "type": "uint256"
        },
        {
          "components": [
            {
              "internalType": "address",
              "name": "primaryToken",
              "type": "address"
            },
            {
              "internalType": "address",
              "name": "curveAdapter",
              "type": "address"
            },
            {
              "internalType": "address",
              "name": "convexAdapter",
              "type": "address"
            },
            {
              "internalType": "address",
              "name": "facade",
              "type": "address"
            },
            {
              "internalType": "uint256",
              "name": "convexPoolId",
              "type": "uint256"
            },
            {
              "internalType": "uint256",
              "name": "initialMarginalValue",
              "type": "uint256"
            },
            {
              "internalType": "address",
              "name": "ethToPrimaryTokenPool",
              "type": "address"
            },
            {
              "internalType": "address",
              "name": "depositToPrimaryTokenPool",
              "type": "address"
            }
          ],
          "indexed": false,
          "internalType": "struct IGearboxVaultGovernance.DelayedProtocolPerVaultParams",
          "name": "params",
          "type": "tuple"
        },
        {
          "indexed": false,
          "internalType": "uint256",
          "name": "when",
          "type": "uint256"
        }
      ],
      "name": "StageDelayedProtocolPerVaultParams",
      "type": "event"
    },
    {
      "anonymous": false,
      "inputs": [
        {
          "indexed": true,
          "internalType": "address",
          "name": "origin",
          "type": "address"
        },
        {
          "indexed": true,
          "internalType": "address",
          "name": "sender",
          "type": "address"
        },
        {
          "components": [
            {
              "internalType": "contract IProtocolGovernance",
              "name": "protocolGovernance",
              "type": "address"
            },
            {
              "internalType": "contract IVaultRegistry",
              "name": "registry",
              "type": "address"
            },
            {
              "internalType": "contract IVault",
              "name": "singleton",
              "type": "address"
            }
          ],
          "indexed": false,
          "internalType": "struct IVaultGovernance.InternalParams",
          "name": "params",
          "type": "tuple"
        },
        {
          "indexed": false,
          "internalType": "uint256",
          "name": "when",
          "type": "uint256"
        }
      ],
      "name": "StagedInternalParams",
      "type": "event"
    },
    {
      "inputs": [],
      "name": "DENOMINATOR",
      "outputs": [
        {
          "internalType": "uint256",
          "name": "",
          "type": "uint256"
        }
      ],
      "stateMutability": "view",
      "type": "function"
    },
    {
      "inputs": [],
      "name": "commitDelayedProtocolParams",
      "outputs": [],
      "stateMutability": "nonpayable",
      "type": "function"
    },
    {
      "inputs": [
        {
          "internalType": "uint256",
          "name": "nft",
          "type": "uint256"
        }
      ],
      "name": "commitDelayedProtocolPerVaultParams",
      "outputs": [],
      "stateMutability": "nonpayable",
      "type": "function"
    },
    {
      "inputs": [],
      "name": "commitInternalParams",
      "outputs": [],
      "stateMutability": "nonpayable",
      "type": "function"
    },
    {
      "inputs": [],
      "name": "contractName",
      "outputs": [
        {
          "internalType": "string",
          "name": "",
          "type": "string"
        }
      ],
      "stateMutability": "pure",
      "type": "function"
    },
    {
      "inputs": [],
      "name": "contractNameBytes",
      "outputs": [
        {
          "internalType": "bytes32",
          "name": "",
          "type": "bytes32"
        }
      ],
      "stateMutability": "pure",
      "type": "function"
    },
    {
      "inputs": [],
      "name": "contractVersion",
      "outputs": [
        {
          "internalType": "string",
          "name": "",
          "type": "string"
        }
      ],
      "stateMutability": "pure",
      "type": "function"
    },
    {
      "inputs": [],
      "name": "contractVersionBytes",
      "outputs": [
        {
          "internalType": "bytes32",
          "name": "",
          "type": "bytes32"
        }
      ],
      "stateMutability": "pure",
      "type": "function"
    },
    {
      "inputs": [
        {
          "internalType": "address[]",
          "name": "vaultTokens_",
          "type": "address[]"
        },
        {
          "internalType": "address",
          "name": "owner_",
          "type": "address"
        }
      ],
      "name": "createVault",
      "outputs": [
        {
          "internalType": "contract IGearboxVault",
          "name": "vault",
          "type": "address"
        },
        {
          "internalType": "uint256",
          "name": "nft",
          "type": "uint256"
        }
      ],
      "stateMutability": "nonpayable",
      "type": "function"
    },
    {
      "inputs": [],
      "name": "delayedProtocolParams",
      "outputs": [
        {
          "components": [
            {
              "internalType": "uint256",
              "name": "withdrawDelay",
              "type": "uint256"
            },
            {
              "internalType": "uint16",
              "name": "referralCode",
              "type": "uint16"
            },
            {
              "internalType": "address",
              "name": "crvEthPool",
              "type": "address"
            },
            {
              "internalType": "address",
              "name": "cvxEthPool",
              "type": "address"
            },
            {
              "internalType": "address",
              "name": "wethAddress",
              "type": "address"
            }
          ],
          "internalType": "struct IGearboxVaultGovernance.DelayedProtocolParams",
          "name": "",
          "type": "tuple"
        }
      ],
      "stateMutability": "view",
      "type": "function"
    },
    {
      "inputs": [],
      "name": "delayedProtocolParamsTimestamp",
      "outputs": [
        {
          "internalType": "uint256",
          "name": "",
          "type": "uint256"
        }
      ],
      "stateMutability": "view",
      "type": "function"
    },
    {
      "inputs": [
        {
          "internalType": "uint256",
          "name": "nft",
          "type": "uint256"
        }
      ],
      "name": "delayedProtocolPerVaultParams",
      "outputs": [
        {
          "components": [
            {
              "internalType": "address",
              "name": "primaryToken",
              "type": "address"
            },
            {
              "internalType": "address",
              "name": "curveAdapter",
              "type": "address"
            },
            {
              "internalType": "address",
              "name": "convexAdapter",
              "type": "address"
            },
            {
              "internalType": "address",
              "name": "facade",
              "type": "address"
            },
            {
              "internalType": "uint256",
              "name": "convexPoolId",
              "type": "uint256"
            },
            {
              "internalType": "uint256",
              "name": "initialMarginalValue",
              "type": "uint256"
            },
            {
              "internalType": "address",
              "name": "ethToPrimaryTokenPool",
              "type": "address"
            },
            {
              "internalType": "address",
              "name": "depositToPrimaryTokenPool",
              "type": "address"
            }
          ],
          "internalType": "struct IGearboxVaultGovernance.DelayedProtocolPerVaultParams",
          "name": "",
          "type": "tuple"
        }
      ],
      "stateMutability": "view",
      "type": "function"
    },
    {
      "inputs": [
        {
          "internalType": "uint256",
          "name": "nft",
          "type": "uint256"
        }
      ],
      "name": "delayedProtocolPerVaultParamsTimestamp",
      "outputs": [
        {
          "internalType": "uint256",
          "name": "",
          "type": "uint256"
        }
      ],
      "stateMutability": "view",
      "type": "function"
    },
    {
      "inputs": [
        {
          "internalType": "uint256",
          "name": "nft",
          "type": "uint256"
        }
      ],
      "name": "delayedStrategyParamsTimestamp",
      "outputs": [
        {
          "internalType": "uint256",
          "name": "",
          "type": "uint256"
        }
      ],
      "stateMutability": "view",
      "type": "function"
    },
    {
      "inputs": [],
      "name": "internalParams",
      "outputs": [
        {
          "components": [
            {
              "internalType": "contract IProtocolGovernance",
              "name": "protocolGovernance",
              "type": "address"
            },
            {
              "internalType": "contract IVaultRegistry",
              "name": "registry",
              "type": "address"
            },
            {
              "internalType": "contract IVault",
              "name": "singleton",
              "type": "address"
            }
          ],
          "internalType": "struct IVaultGovernance.InternalParams",
          "name": "",
          "type": "tuple"
        }
      ],
      "stateMutability": "view",
      "type": "function"
    },
    {
      "inputs": [],
      "name": "internalParamsTimestamp",
      "outputs": [
        {
          "internalType": "uint256",
          "name": "",
          "type": "uint256"
        }
      ],
      "stateMutability": "view",
      "type": "function"
    },
    {
      "inputs": [
        {
          "components": [
            {
              "internalType": "uint256",
              "name": "withdrawDelay",
              "type": "uint256"
            },
            {
              "internalType": "uint16",
              "name": "referralCode",
              "type": "uint16"
            },
            {
              "internalType": "address",
              "name": "crvEthPool",
              "type": "address"
            },
            {
              "internalType": "address",
              "name": "cvxEthPool",
              "type": "address"
            },
            {
              "internalType": "address",
              "name": "wethAddress",
              "type": "address"
            }
          ],
          "internalType": "struct IGearboxVaultGovernance.DelayedProtocolParams",
          "name": "params",
          "type": "tuple"
        }
      ],
      "name": "stageDelayedProtocolParams",
      "outputs": [],
      "stateMutability": "nonpayable",
      "type": "function"
    },
    {
      "inputs": [
        {
          "internalType": "uint256",
          "name": "nft",
          "type": "uint256"
        },
        {
          "components": [
            {
              "internalType": "address",
              "name": "primaryToken",
              "type": "address"
            },
            {
              "internalType": "address",
              "name": "curveAdapter",
              "type": "address"
            },
            {
              "internalType": "address",
              "name": "convexAdapter",
              "type": "address"
            },
            {
              "internalType": "address",
              "name": "facade",
              "type": "address"
            },
            {
              "internalType": "uint256",
              "name": "convexPoolId",
              "type": "uint256"
            },
            {
              "internalType": "uint256",
              "name": "initialMarginalValue",
              "type": "uint256"
            },
            {
              "internalType": "address",
              "name": "ethToPrimaryTokenPool",
              "type": "address"
            },
            {
              "internalType": "address",
              "name": "depositToPrimaryTokenPool",
              "type": "address"
            }
          ],
          "internalType": "struct IGearboxVaultGovernance.DelayedProtocolPerVaultParams",
          "name": "params",
          "type": "tuple"
        }
      ],
      "name": "stageDelayedProtocolPerVaultParams",
      "outputs": [],
      "stateMutability": "nonpayable",
      "type": "function"
    },
    {
      "inputs": [
        {
          "components": [
            {
              "internalType": "contract IProtocolGovernance",
              "name": "protocolGovernance",
              "type": "address"
            },
            {
              "internalType": "contract IVaultRegistry",
              "name": "registry",
              "type": "address"
            },
            {
              "internalType": "contract IVault",
              "name": "singleton",
              "type": "address"
            }
          ],
          "internalType": "struct IVaultGovernance.InternalParams",
          "name": "newParams",
          "type": "tuple"
        }
      ],
      "name": "stageInternalParams",
      "outputs": [],
      "stateMutability": "nonpayable",
      "type": "function"
    },
    {
      "inputs": [],
      "name": "stagedDelayedProtocolParams",
      "outputs": [
        {
          "components": [
            {
              "internalType": "uint256",
              "name": "withdrawDelay",
              "type": "uint256"
            },
            {
              "internalType": "uint16",
              "name": "referralCode",
              "type": "uint16"
            },
            {
              "internalType": "address",
              "name": "crvEthPool",
              "type": "address"
            },
            {
              "internalType": "address",
              "name": "cvxEthPool",
              "type": "address"
            },
            {
              "internalType": "address",
              "name": "wethAddress",
              "type": "address"
            }
          ],
          "internalType": "struct IGearboxVaultGovernance.DelayedProtocolParams",
          "name": "",
          "type": "tuple"
        }
      ],
      "stateMutability": "view",
      "type": "function"
    },
    {
      "inputs": [
        {
          "internalType": "uint256",
          "name": "nft",
          "type": "uint256"
        }
      ],
      "name": "stagedDelayedProtocolPerVaultParams",
      "outputs": [
        {
          "components": [
            {
              "internalType": "address",
              "name": "primaryToken",
              "type": "address"
            },
            {
              "internalType": "address",
              "name": "curveAdapter",
              "type": "address"
            },
            {
              "internalType": "address",
              "name": "convexAdapter",
              "type": "address"
            },
            {
              "internalType": "address",
              "name": "facade",
              "type": "address"
            },
            {
              "internalType": "uint256",
              "name": "convexPoolId",
              "type": "uint256"
            },
            {
              "internalType": "uint256",
              "name": "initialMarginalValue",
              "type": "uint256"
            },
            {
              "internalType": "address",
              "name": "ethToPrimaryTokenPool",
              "type": "address"
            },
            {
              "internalType": "address",
              "name": "depositToPrimaryTokenPool",
              "type": "address"
            }
          ],
          "internalType": "struct IGearboxVaultGovernance.DelayedProtocolPerVaultParams",
          "name": "",
          "type": "tuple"
        }
      ],
      "stateMutability": "view",
      "type": "function"
    },
    {
      "inputs": [],
      "name": "stagedInternalParams",
      "outputs": [
        {
          "components": [
            {
              "internalType": "contract IProtocolGovernance",
              "name": "protocolGovernance",
              "type": "address"
            },
            {
              "internalType": "contract IVaultRegistry",
              "name": "registry",
              "type": "address"
            },
            {
              "internalType": "contract IVault",
              "name": "singleton",
              "type": "address"
            }
          ],
          "internalType": "struct IVaultGovernance.InternalParams",
          "name": "",
          "type": "tuple"
        }
      ],
      "stateMutability": "view",
      "type": "function"
    },
    {
      "inputs": [
        {
          "internalType": "bytes4",
          "name": "interfaceId",
          "type": "bytes4"
        }
      ],
      "name": "supportsInterface",
      "outputs": [
        {
          "internalType": "bool",
          "name": "",
          "type": "bool"
        }
      ],
      "stateMutability": "view",
      "type": "function"
    }
  ],
  "bytecode": {
    "object": "0x60806040523480156200001157600080fd5b5060405162002b6038038062002b6083398101604081905262000034916200043e565b815160408051808201909152600281526120ad60f11b602082015283916001600160a01b0316620000835760405162461bcd60e51b81526004016200007a919062000530565b60405180910390fd5b5060006001600160a01b031681602001516001600160a01b031614156040518060400160405280600281526020016120ad60f11b81525090620000db5760405162461bcd60e51b81526004016200007a919062000530565b506040808201518151808301909252600282526120ad60f11b60208301526001600160a01b0316620001225760405162461bcd60e51b81526004016200007a919062000530565b508051600080546001600160a01b03199081166001600160a01b039384161790915560208084015160018054841691851691909117905560409384015160028054909316931692909217905582518251808401909352600383526224a72b60e91b9183019190915262278d001015620001b05760405162461bcd60e51b81526004016200007a919062000530565b506040808201518151808301909252600282526120ad60f11b60208301526001600160a01b0316620001f75760405162461bcd60e51b81526004016200007a919062000530565b50606081015160408051808201909152600281526120ad60f11b6020820152906001600160a01b0316620002405760405162461bcd60e51b81526004016200007a919062000530565b50608081015160408051808201909152600281526120ad60f11b6020820152906001600160a01b0316620002895760405162461bcd60e51b81526004016200007a919062000530565b5060408051825160208083019190915283015161ffff1681830152908201516001600160a01b0390811660608084019190915283015181166080808401919091528301511660a082015260c001604051602081830303815290604052600d9080519060200190620002fc92919062000305565b505050620005c5565b828054620003139062000588565b90600052602060002090601f01602090048101928262000337576000855562000382565b82601f106200035257805160ff191683800117855562000382565b8280016001018555821562000382579182015b828111156200038257825182559160200191906001019062000365565b506200039092915062000394565b5090565b5b8082111562000390576000815560010162000395565b604051606081016001600160401b0381118282101715620003dc57634e487b7160e01b600052604160045260246000fd5b60405290565b60405160a081016001600160401b0381118282101715620003dc57634e487b7160e01b600052604160045260246000fd5b6001600160a01b03811681146200042957600080fd5b50565b8051620004398162000413565b919050565b6000808284036101008112156200045457600080fd5b60608112156200046357600080fd5b6200046d620003ab565b84516200047a8162000413565b815260208501516200048c8162000413565b60208201526040850151620004a18162000413565b6040820152925060a0605f1982011215620004bb57600080fd5b50620004c6620003e2565b60608401518152608084015161ffff81168114620004e357600080fd5b602082015260a0840151620004f88162000413565b604082015260c08401516200050d8162000413565b60608201526200052060e085016200042c565b6080820152809150509250929050565b600060208083528351808285015260005b818110156200055f5785810183015185820160400152820162000541565b8181111562000572576000604083870101525b50601f01601f1916929092016040019392505050565b600181811c908216806200059d57607f821691505b60208210811415620005bf57634e487b7160e01b600052602260045260246000fd5b50919050565b61258b80620005d56000396000f3fe608060405234801561001057600080fd5b506004361061014d5760003560e01c80637ac46fbb116100c3578063c2cbdc671161007c578063c2cbdc6714610369578063d34cc3801461037e578063d4a07d3414610386578063dbb1c35f1461038e578063e4af6e79146103a1578063ee2d59f4146103a957600080fd5b80637ac46fbb1461027b57806386c6be3e146102db5780638e207dda1461032e578063918f86741461034e57806398347a5d14610359578063a0a8e4601461036157600080fd5b80631c7f4c73116101155780631c7f4c73146101f857806325a50ef114610200578063511ce798146102135780636707acee146102335780637363a5aa1461025357806375d0c0dc1461026657600080fd5b806301ffc9a71461015257806306a462391461017a57806309946538146101925780630e3e80ac146101a75780630fb27e4d146101c6575b600080fd5b610165610160366004611c41565b6103bc565b60405190151581526020015b60405180910390f35b640312e302e360dc1b5b604051908152602001610171565b6101a56101a0366004611cf7565b6103ed565b005b7547656172626f785661756c74476f7665726e616e636560501b610184565b6101d96101d4366004611d79565b6105df565b604080516001600160a01b039093168352602083019190915201610171565b600654610184565b6101a561020e366004611e3d565b6108e2565b610184610221366004611e77565b6000908152600c602052604090205490565b610184610241366004611e77565b60009081526009602052604090205490565b6101a5610261366004611ea0565b610ba9565b61026e610d1a565b6040516101719190611f11565b6102ce604080516060810182526000808252602082018190529181019190915250604080516060810182526000546001600160a01b03908116825260015481166020830152600254169181019190915290565b6040516101719190611f66565b6102ce604080516060810182526000808252602082018190529181019190915250604080516060810182526003546001600160a01b03908116825260045481166020830152600554169181019190915290565b61034161033c366004611e77565b610d3e565b6040516101719190611f96565b610184633b9aca0081565b6101a5610e57565b61026e610f49565b610371610f5c565b6040516101719190612040565b610371611069565b6101a56110a1565b61034161039c366004611e77565b6111c6565b600f54610184565b6101a56103b7366004611e77565b61124e565b60006103c782611341565b806103e257506001600160e01b03198216636b7b57dd60e01b145b92915050565b905090565b6103f5611377565b805160408051808201909152600281526120ad60f11b6020820152906001600160a01b03166104405760405162461bcd60e51b81526004016104379190611f11565b60405180910390fd5b5060006001600160a01b031681602001516001600160a01b031614156040518060400160405280600281526020016120ad60f11b815250906104955760405162461bcd60e51b81526004016104379190611f11565b506040808201518151808301909252600282526120ad60f11b60208301526001600160a01b03166104d95760405162461bcd60e51b81526004016104379190611f11565b508051600380546001600160a01b03199081166001600160a01b03938416179091556020808401516004805484169185169190911781556040808601516005805490951690861617909355600054835163bba3293960e01b8152935194169363bba3293993808301939290829003018186803b15801561055857600080fd5b505afa15801561056c573d6000803e3d6000fd5b505050506040513d601f19601f82011682018060405250810190610590919061204e565b61059a904261207d565b6006819055604051339132917f0887cab3184f7c02b16978ab31f8acee05979f59fc3da6abe5bf71105ec3179d916105d491869190612095565b60405180910390a350565b60008060006105ed8461142f565b6000818152600a60205260408120805492955092935083929091610610906120d2565b80601f016020809104026020016040519081016040528092919081815260200182805461063c906120d2565b80156106895780601f1061065e57610100808354040283529160200191610689565b820191906000526020600020905b81548152906001019060200180831161066c57829003601f168201915b50505050508060200190518101906106a19190612118565b905060008160000151905060006002826001600160a01b031663313ce5676040518163ffffffff1660e01b815260040160206040518083038186803b1580156106e957600080fd5b505afa1580156106fd573d6000803e3d6000fd5b505050506040513d601f19601f8201168201806040525081019061072191906121d4565b61072b91906121f7565b61073690600a61230b565b6040516370a0823160e01b815230600482015290915081906001600160a01b038416906370a082319060240160206040518083038186803b15801561077a57600080fd5b505afa15801561078e573d6000803e3d6000fd5b505050506040513d601f19601f820116820180604052508101906107b2919061204e565b1015604051806040016040528060048152602001634c494d5560e01b815250906107ef5760405162461bcd60e51b81526004016104379190611f11565b5060405163a9059cbb60e01b81526001600160a01b0386811660048301526024820183905283169063a9059cbb90604401602060405180830381600087803b15801561083a57600080fd5b505af115801561084e573d6000803e3d6000fd5b505050506040513d601f19601f82011682018060405250810190610872919061231a565b5050604051632a482de360e21b81526001600160a01b0384169063a920b78c906108a29088908c9060040161233c565b600060405180830381600087803b1580156108bc57600080fd5b505af11580156108d0573d6000803e3d6000fd5b50505050839550505050509250929050565b60006108f16020830183612393565b6001600160a01b031614156040518060400160405280600281526020016120ad60f11b815250906109355760405162461bcd60e51b81526004016104379190611f11565b5060006109486040830160208401612393565b6001600160a01b031614156040518060400160405280600281526020016120ad60f11b8152509061098c5760405162461bcd60e51b81526004016104379190611f11565b50600061099f6060830160408401612393565b6001600160a01b031614156040518060400160405280600281526020016120ad60f11b815250906109e35760405162461bcd60e51b81526004016104379190611f11565b5060006109f66080830160608401612393565b6001600160a01b031614156040518060400160405280600281526020016120ad60f11b81525090610a3a5760405162461bcd60e51b81526004016104379190611f11565b506000610a4d60e0830160c08401612393565b6001600160a01b031614156040518060400160405280600281526020016120ad60f11b81525090610a915760405162461bcd60e51b81526004016104379190611f11565b506000610aa5610100830160e08401612393565b6001600160a01b031614156040518060400160405280600281526020016120ad60f11b81525090610ae95760405162461bcd60e51b81526004016104379190611f11565b5060408051808201909152600381526224a72b60e91b6020820152633b9aca0060a08301351015610b2d5760405162461bcd60e51b81526004016104379190611f11565b50610b578282604051602001610b439190612459565b604051602081830303815290604052611620565b600082815260096020526040908190205490518391339132917faf64336baa55f2f9b2802935b8549ece30ad95454cd01a212b46e134c456eed991610b9d918791612468565b60405180910390a45050565b805160408051808201909152600381526224a72b60e91b60208201529062278d001015610be95760405162461bcd60e51b81526004016104379190611f11565b506040808201518151808301909252600282526120ad60f11b60208301526001600160a01b0316610c2d5760405162461bcd60e51b81526004016104379190611f11565b50606081015160408051808201909152600281526120ad60f11b6020820152906001600160a01b0316610c735760405162461bcd60e51b81526004016104379190611f11565b50608081015160408051808201909152600281526120ad60f11b6020820152906001600160a01b0316610cb95760405162461bcd60e51b81526004016104379190611f11565b50610ce281604051602001610cce9190612040565b60405160208183030381529060405261172b565b600f54604051339132917f0fc6d4f5ddb2e681b3f7a6d7427c5406fa9a06e368f79a38cb5cd7e3eb696436916105d491869190612485565b60606103e87547656172626f785661756c74476f7665726e616e636560501b611806565b610d46611ab3565b6000828152600b602052604090208054610d5f906120d2565b15159050610dad5750506040805161010081018252600080825260208201819052918101829052606081018290526080810182905260a0810182905260c0810182905260e081019190915290565b6000828152600b602052604090208054610dc6906120d2565b80601f0160208091040260200160405190810160405280929190818152602001828054610df2906120d2565b8015610e3f5780601f10610e1457610100808354040283529160200191610e3f565b820191906000526020600020905b815481529060010190602001808311610e2257829003601f168201915b50505050508060200190518101906103e29190612118565b610e5f611872565b336001600160a01b0316326001600160a01b03167f4f16e31cd9dbea3aa244171be3de6e25d314d55515b67b9e5b266e6613c8eedb600d8054610ea1906120d2565b80601f0160208091040260200160405190810160405280929190818152602001828054610ecd906120d2565b8015610f1a5780601f10610eef57610100808354040283529160200191610f1a565b820191906000526020600020905b815481529060010190602001808311610efd57829003601f168201915b5050505050806020019051810190610f3291906124a0565b604051610f3f9190612040565b60405180910390a3565b60606103e8640312e302e360dc1b611806565b6040805160a081018252600080825260208201819052918101829052606081018290526080810191909152600e8054610f94906120d2565b15159050610fcb57506040805160a08101825260008082526020820181905291810182905260608101829052608081019190915290565b600e8054610fd8906120d2565b80601f0160208091040260200160405190810160405280929190818152602001828054611004906120d2565b80156110515780601f1061102657610100808354040283529160200191611051565b820191906000526020600020905b81548152906001019060200180831161103457829003601f168201915b50505050508060200190518101906103e891906124a0565b6040805160a081018252600080825260208201819052918101829052606081018290526080810191909152600d8054610fd8906120d2565b6110a9611377565b6006546040805180820190915260048152631395531360e21b6020820152906110e55760405162461bcd60e51b81526004016104379190611f11565b5060065442101560405180604001604052806002815260200161545360f01b815250906111255760405162461bcd60e51b81526004016104379190611f11565b5060038054600080546001600160a01b038084166001600160a01b03199283168117845560048054600180548286169087168117909155600580546002805497821697891688179055600698909855978616909855841690559290911690925560408051918252602082019390935291820152339032907fef3e4bc9725fa684957d7de03c6dcd01078ee86cf78ceef25c5f8346df69cc9990606001610f3f565b6111ce611ab3565b6000828152600a6020526040902080546111e7906120d2565b151590506112355750506040805161010081018252600080825260208201819052918101829052606081018290526080810182905260a0810182905260c0810182905260e081019190915290565b6000828152600a602052604090208054610dc6906120d2565b61125781611926565b6000818152600a6020526040902080548291339132917ff06ecd12ff51d16cd5504e4c40df97e8ec5acee49f0728022c9ca1c2030f946e91611298906120d2565b80601f01602080910402602001604051908101604052809291908181526020018280546112c4906120d2565b80156113115780601f106112e657610100808354040283529160200191611311565b820191906000526020600020905b8154815290600101906020018083116112f457829003601f168201915b50505050508060200190518101906113299190612118565b6040516113369190611f96565b60405180910390a450565b60006301ffc9a760e01b6001600160e01b0319831614806103e257506001600160e01b0319821663effda0f560e01b1492915050565b600054604051630935e01b60e21b81523360048201526001600160a01b03909116906324d7806c9060240160206040518083038186803b1580156113ba57600080fd5b505afa1580156113ce573d6000803e3d6000fd5b505050506040513d601f19601f820116820180604052508101906113f2919061231a565b6040518060400160405280600381526020016223292160e91b8152509061142c5760405162461bcd60e51b81526004016104379190611f11565b50565b600080546040516363e85d2d60e01b81523360048201526001602482015282916001600160a01b03169081906363e85d2d9060440160206040518083038186803b15801561147c57600080fd5b505afa158015611490573d6000803e3d6000fd5b505050506040513d601f19601f820116820180604052508101906114b4919061231a565b6040518060400160405280600381526020016223292160e91b815250906114ee5760405162461bcd60e51b81526004016104379190611f11565b5060015460408051631112eee760e31b815290516001600160a01b039092169182916388977738916004808301926020929190829003018186803b15801561153557600080fd5b505afa158015611549573d6000803e3d6000fd5b505050506040513d601f19601f8201168201806040525081019061156d919061204e565b61157890600161207d565b600254909350611591906001600160a01b031684611a16565b6040516305c4fdf960e01b81526001600160a01b0380831660048301528781166024830152919550908216906305c4fdf990604401602060405180830381600087803b1580156115e057600080fd5b505af11580156115f4573d6000803e3d6000fd5b505050506040513d601f19601f82011682018060405250810190611618919061204e565b505050915091565b611628611377565b6000828152600b60209081526040909120825161164792840190611af7565b506000828152600a602052604081208054611661906120d2565b15905061166f576001611672565b60005b60ff169050806000800160009054906101000a90046001600160a01b03166001600160a01b031663bba329396040518163ffffffff1660e01b815260040160206040518083038186803b1580156116c857600080fd5b505afa1580156116dc573d6000803e3d6000fd5b505050506040513d601f19601f82011682018060405250810190611700919061204e565b61170a9190612505565b611714904261207d565b6000938452600c6020526040909320929092555050565b611733611377565b6000600d8054611742906120d2565b159050611750576001611753565b60005b60ff16905081600e908051906020019061176e929190611af7565b506000546040805163bba3293960e01b8152905183926001600160a01b03169163bba32939916004808301926020929190829003018186803b1580156117b357600080fd5b505afa1580156117c7573d6000803e3d6000fd5b505050506040513d601f19601f820116820180604052508101906117eb919061204e565b6117f59190612505565b6117ff904261207d565b600f555050565b604080516020808252818301909252606091602082018180368337019050509050602060005b60208110156118645783816020811061184757611847612524565b1a61185457809150611864565b61185d8161253a565b905061182c565b508152602081019190915290565b61187a611377565b600f546040805180820190915260048152631395531360e21b6020820152906118b65760405162461bcd60e51b81526004016104379190611f11565b50600f5442101560405180604001604052806002815260200161545360f01b815250906118f65760405162461bcd60e51b81526004016104379190611f11565b50600e600d908054611907906120d2565b611912929190611b7b565b5061191f600e6000611bf6565b6000600f55565b61192e611377565b6000818152600c602090815260409182902054825180840190935260048352631395531360e21b91830191909152908161197b5760405162461bcd60e51b81526004016104379190611f11565b508042101560405180604001604052806002815260200161545360f01b815250906119b95760405162461bcd60e51b81526004016104379190611f11565b506000828152600b60209081526040808320600a90925290912081549091906119e1906120d2565b6119ec929190611b7b565b506000828152600b60205260408120611a0491611bf6565b506000908152600c6020526040812055565b6000763d602d80600a3d3981f3363d3d373d3d3d363d730000008360601b60e81c176000526e5af43d82803e903d91602b57fd5bf38360781b1760205281603760096000f590506001600160a01b0381166103e25760405162461bcd60e51b815260206004820152601760248201527f455243313136373a2063726561746532206661696c65640000000000000000006044820152606401610437565b6040805161010081018252600080825260208201819052918101829052606081018290526080810182905260a0810182905260c0810182905260e081019190915290565b828054611b03906120d2565b90600052602060002090601f016020900481019282611b255760008555611b6b565b82601f10611b3e57805160ff1916838001178555611b6b565b82800160010185558215611b6b579182015b82811115611b6b578251825591602001919060010190611b50565b50611b77929150611c2c565b5090565b828054611b87906120d2565b90600052602060002090601f016020900481019282611ba95760008555611b6b565b82601f10611bba5780548555611b6b565b82800160010185558215611b6b57600052602060002091601f016020900482015b82811115611b6b578254825591600101919060010190611bdb565b508054611c02906120d2565b6000825580601f10611c12575050565b601f01602090049060005260206000209081019061142c91905b5b80821115611b775760008155600101611c2d565b600060208284031215611c5357600080fd5b81356001600160e01b031981168114611c6b57600080fd5b9392505050565b634e487b7160e01b600052604160045260246000fd5b60405160a0810167ffffffffffffffff81118282101715611cab57611cab611c72565b60405290565b604051601f8201601f1916810167ffffffffffffffff81118282101715611cda57611cda611c72565b604052919050565b6001600160a01b038116811461142c57600080fd5b600060608284031215611d0957600080fd5b6040516060810181811067ffffffffffffffff82111715611d2c57611d2c611c72565b6040528235611d3a81611ce2565b81526020830135611d4a81611ce2565b60208201526040830135611d5d81611ce2565b60408201529392505050565b8035611d7481611ce2565b919050565b60008060408385031215611d8c57600080fd5b823567ffffffffffffffff80821115611da457600080fd5b818501915085601f830112611db857600080fd5b8135602082821115611dcc57611dcc611c72565b8160051b9250611ddd818401611cb1565b8281529284018101928181019089851115611df757600080fd5b948201945b84861015611e215785359350611e1184611ce2565b8382529482019490820190611dfc565b9650611e309050878201611d69565b9450505050509250929050565b600080828403610120811215611e5257600080fd5b83359250610100601f1982011215611e6957600080fd5b506020830190509250929050565b600060208284031215611e8957600080fd5b5035919050565b61ffff8116811461142c57600080fd5b600060a08284031215611eb257600080fd5b611eba611c88565b823581526020830135611ecc81611e90565b60208201526040830135611edf81611ce2565b60408201526060830135611ef281611ce2565b60608201526080830135611f0581611ce2565b60808201529392505050565b600060208083528351808285015260005b81811015611f3e57858101830151858201604001528201611f22565b81811115611f50576000604083870101525b50601f01601f1916929092016040019392505050565b606081016103e2828480516001600160a01b03908116835260208083015182169084015260409182015116910152565b81516001600160a01b0390811682526020808401518216908301526040808401518216908301526060808401518216908301526080808401519083015260a0838101519083015260c08084015182169083015260e09283015116918101919091526101000190565b8051825260208082015161ffff16908301526040808201516001600160a01b039081169184019190915260608083015182169084015260809182015116910152565b60a081016103e28284611ffe565b60006020828403121561206057600080fd5b5051919050565b634e487b7160e01b600052601160045260246000fd5b6000821982111561209057612090612067565b500190565b608081016120c5828580516001600160a01b03908116835260208083015182169084015260409182015116910152565b8260608301529392505050565b600181811c908216806120e657607f821691505b6020821081141561210757634e487b7160e01b600052602260045260246000fd5b50919050565b8051611d7481611ce2565b600061010080838503121561212c57600080fd5b6040519081019067ffffffffffffffff8211818310171561214f5761214f611c72565b816040528351915061216082611ce2565b81815261216f6020850161210d565b60208201526121806040850161210d565b60408201526121916060850161210d565b60608201526080840151608082015260a084015160a08201526121b660c0850161210d565b60c08201526121c760e0850161210d565b60e0820152949350505050565b6000602082840312156121e657600080fd5b815160ff81168114611c6b57600080fd5b600060ff83168061221857634e487b7160e01b600052601260045260246000fd5b8060ff84160491505092915050565b600181815b8085111561226257816000190482111561224857612248612067565b8085161561225557918102915b93841c939080029061222c565b509250929050565b600082612279575060016103e2565b81612286575060006103e2565b816001811461229c57600281146122a6576122c2565b60019150506103e2565b60ff8411156122b7576122b7612067565b50506001821b6103e2565b5060208310610133831016604e8410600b84101617156122e5575081810a6103e2565b6122ef8383612227565b806000190482111561230357612303612067565b029392505050565b6000611c6b60ff84168361226a565b60006020828403121561232c57600080fd5b81518015158114611c6b57600080fd5b6000604082018483526020604081850152818551808452606086019150828701935060005b818110156123865784516001600160a01b031683529383019391830191600101612361565b5090979650505050505050565b6000602082840312156123a557600080fd5b8135611c6b81611ce2565b80356123bb81611ce2565b6001600160a01b0390811683526020820135906123d782611ce2565b90811660208401526040820135906123ee82611ce2565b908116604084015260608201359061240582611ce2565b1660608301526080818101359083015260a0808201359083015261242b60c08201611d69565b6001600160a01b031660c083015261244560e08201611d69565b6001600160a01b03811660e0840152505050565b61010081016103e282846123b0565b610120810161247782856123b0565b826101008301529392505050565b60c081016124938285611ffe565b8260a08301529392505050565b600060a082840312156124b257600080fd5b6124ba611c88565b8251815260208301516124cc81611e90565b602082015260408301516124df81611ce2565b604082015260608301516124f281611ce2565b60608201526080830151611f0581611ce2565b600081600019048311821515161561251f5761251f612067565b500290565b634e487b7160e01b600052603260045260246000fd5b600060001982141561254e5761254e612067565b506001019056fea264697066735822122079639460db88db51508f0a14a9fb18017676ebfd542a0665bb505d56efbf7f1f64736f6c63430008090033",
    "linkReferences": {}
  },
  "methodIdentifiers": {
    "DENOMINATOR()": "918f8674",
    "commitDelayedProtocolParams()": "98347a5d",
    "commitDelayedProtocolPerVaultParams(uint256)": "ee2d59f4",
    "commitInternalParams()": "d4a07d34",
    "contractName()": "75d0c0dc",
    "contractNameBytes()": "0e3e80ac",
    "contractVersion()": "a0a8e460",
    "contractVersionBytes()": "06a46239",
    "createVault(address[],address)": "0fb27e4d",
    "delayedProtocolParams()": "d34cc380",
    "delayedProtocolParamsTimestamp()": "e4af6e79",
    "delayedProtocolPerVaultParams(uint256)": "dbb1c35f",
    "delayedProtocolPerVaultParamsTimestamp(uint256)": "511ce798",
    "delayedStrategyParamsTimestamp(uint256)": "6707acee",
    "internalParams()": "7ac46fbb",
    "internalParamsTimestamp()": "1c7f4c73",
    "stageDelayedProtocolParams((uint256,uint16,address,address,address))": "7363a5aa",
    "stageDelayedProtocolPerVaultParams(uint256,(address,address,address,address,uint256,uint256,address,address))": "25a50ef1",
    "stageInternalParams((address,address,address))": "09946538",
    "stagedDelayedProtocolParams()": "c2cbdc67",
    "stagedDelayedProtocolPerVaultParams(uint256)": "8e207dda",
    "stagedInternalParams()": "86c6be3e",
    "supportsInterface(bytes4)": "01ffc9a7"
  },
  "id": 83
}