{
  "abi": [
    {
      "inputs": [
        {
          "internalType": "contract IUniswapV3Factory",
          "name": "uniswapV3Factory_",
          "type": "address"
        },
        {
          "internalType": "contract IAlgebraNonfungiblePositionManager",
          "name": "algebraPositionManager_",
          "type": "address"
        },
        {
          "internalType": "contract SinglePositionStrategyHelper",
          "name": "helper_",
          "type": "address"
        }
      ],
      "stateMutability": "nonpayable",
      "type": "constructor"
    },
    {
      "anonymous": false,
      "inputs": [
        {
          "indexed": false,
          "internalType": "uint256",
          "name": "tokenId",
          "type": "uint256"
        }
      ],
      "name": "PositionBurned",
      "type": "event"
    },
    {
      "anonymous": false,
      "inputs": [
        {
          "indexed": false,
          "internalType": "uint256",
          "name": "tokenId",
          "type": "uint256"
        }
      ],
      "name": "PositionMinted",
      "type": "event"
    },
    {
      "anonymous": false,
      "inputs": [
        {
          "indexed": true,
          "internalType": "address",
          "name": "origin",
          "type": "address"
        },
        {
          "indexed": true,
          "internalType": "address",
          "name": "sender",
          "type": "address"
        }
      ],
      "name": "Rebalance",
      "type": "event"
    },
    {
      "anonymous": false,
      "inputs": [
        {
          "indexed": true,
          "internalType": "bytes32",
          "name": "role",
          "type": "bytes32"
        },
        {
          "indexed": true,
          "internalType": "bytes32",
          "name": "previousAdminRole",
          "type": "bytes32"
        },
        {
          "indexed": true,
          "internalType": "bytes32",
          "name": "newAdminRole",
          "type": "bytes32"
        }
      ],
      "name": "RoleAdminChanged",
      "type": "event"
    },
    {
      "anonymous": false,
      "inputs": [
        {
          "indexed": true,
          "internalType": "bytes32",
          "name": "role",
          "type": "bytes32"
        },
        {
          "indexed": true,
          "internalType": "address",
          "name": "account",
          "type": "address"
        },
        {
          "indexed": true,
          "internalType": "address",
          "name": "sender",
          "type": "address"
        }
      ],
      "name": "RoleGranted",
      "type": "event"
    },
    {
      "anonymous": false,
      "inputs": [
        {
          "indexed": true,
          "internalType": "bytes32",
          "name": "role",
          "type": "bytes32"
        },
        {
          "indexed": true,
          "internalType": "address",
          "name": "account",
          "type": "address"
        },
        {
          "indexed": true,
          "internalType": "address",
          "name": "sender",
          "type": "address"
        }
      ],
      "name": "RoleRevoked",
      "type": "event"
    },
    {
      "anonymous": false,
      "inputs": [
        {
          "components": [
            {
              "internalType": "bytes",
              "name": "path",
              "type": "bytes"
            },
            {
              "internalType": "address",
              "name": "recipient",
              "type": "address"
            },
            {
              "internalType": "uint256",
              "name": "deadline",
              "type": "uint256"
            },
            {
              "internalType": "uint256",
              "name": "amountIn",
              "type": "uint256"
            },
            {
              "internalType": "uint256",
              "name": "amountOutMinimum",
              "type": "uint256"
            }
          ],
          "indexed": false,
          "internalType": "struct ISwapRouter.ExactInputParams",
          "name": "swapParams",
          "type": "tuple"
        },
        {
          "indexed": false,
          "internalType": "uint256",
          "name": "amountOut",
          "type": "uint256"
        }
      ],
      "name": "TokensSwapped",
      "type": "event"
    },
    {
      "anonymous": false,
      "inputs": [
        {
          "indexed": true,
          "internalType": "address",
          "name": "origin",
          "type": "address"
        },
        {
          "indexed": true,
          "internalType": "address",
          "name": "sender",
          "type": "address"
        },
        {
          "components": [
            {
              "internalType": "uint24",
              "name": "feeTierOfPoolOfAuxiliaryAnd0Tokens",
              "type": "uint24"
            },
            {
              "internalType": "uint24",
              "name": "feeTierOfPoolOfAuxiliaryAnd1Tokens",
              "type": "uint24"
            },
            {
              "internalType": "int24",
              "name": "priceImpactD6",
              "type": "int24"
            },
            {
              "internalType": "int24",
              "name": "intervalWidth",
              "type": "int24"
            },
            {
              "internalType": "int24",
              "name": "tickNeighborhood",
              "type": "int24"
            },
            {
              "internalType": "int24",
              "name": "maxDeviationForVaultPool",
              "type": "int24"
            },
            {
              "internalType": "int24",
              "name": "maxDeviationForPoolOfAuxiliaryAnd0Tokens",
              "type": "int24"
            },
            {
              "internalType": "int24",
              "name": "maxDeviationForPoolOfAuxiliaryAnd1Tokens",
              "type": "int24"
            },
            {
              "internalType": "uint32",
              "name": "timespanForAverageTick",
              "type": "uint32"
            },
            {
              "internalType": "address",
              "name": "auxiliaryToken",
              "type": "address"
            },
            {
              "internalType": "uint256",
              "name": "amount0Desired",
              "type": "uint256"
            },
            {
              "internalType": "uint256",
              "name": "amount1Desired",
              "type": "uint256"
            },
            {
              "internalType": "uint256",
              "name": "swapSlippageD",
              "type": "uint256"
            },
            {
              "internalType": "uint256[]",
              "name": "minSwapAmounts",
              "type": "uint256[]"
            }
          ],
          "indexed": false,
          "internalType": "struct SinglePositionQuickSwapStrategy.MutableParams",
          "name": "mutableParams",
          "type": "tuple"
        }
      ],
      "name": "UpdateMutableParams",
      "type": "event"
    },
    {
      "inputs": [],
      "name": "ADMIN_DELEGATE_ROLE",
      "outputs": [
        {
          "internalType": "bytes32",
          "name": "",
          "type": "bytes32"
        }
      ],
      "stateMutability": "view",
      "type": "function"
    },
    {
      "inputs": [],
      "name": "ADMIN_ROLE",
      "outputs": [
        {
          "internalType": "bytes32",
          "name": "",
          "type": "bytes32"
        }
      ],
      "stateMutability": "view",
      "type": "function"
    },
    {
      "inputs": [],
      "name": "D6",
      "outputs": [
        {
          "internalType": "uint256",
          "name": "",
          "type": "uint256"
        }
      ],
      "stateMutability": "view",
      "type": "function"
    },
    {
      "inputs": [],
      "name": "DEFAULT_ADMIN_ROLE",
      "outputs": [
        {
          "internalType": "bytes32",
          "name": "",
          "type": "bytes32"
        }
      ],
      "stateMutability": "view",
      "type": "function"
    },
    {
      "inputs": [],
      "name": "DENOMINATOR",
      "outputs": [
        {
          "internalType": "uint256",
          "name": "",
          "type": "uint256"
        }
      ],
      "stateMutability": "view",
      "type": "function"
    },
    {
      "inputs": [],
      "name": "MAX_MINTING_PARAMS",
      "outputs": [
        {
          "internalType": "uint256",
          "name": "",
          "type": "uint256"
        }
      ],
      "stateMutability": "view",
      "type": "function"
    },
    {
      "inputs": [],
      "name": "OPERATOR",
      "outputs": [
        {
          "internalType": "bytes32",
          "name": "",
          "type": "bytes32"
        }
      ],
      "stateMutability": "view",
      "type": "function"
    },
    {
      "inputs": [],
      "name": "Q96",
      "outputs": [
        {
          "internalType": "uint256",
          "name": "",
          "type": "uint256"
        }
      ],
      "stateMutability": "view",
      "type": "function"
    },
    {
      "inputs": [],
      "name": "algebraPool",
      "outputs": [
        {
          "internalType": "contract IAlgebraPool",
          "name": "",
          "type": "address"
        }
      ],
      "stateMutability": "view",
      "type": "function"
    },
    {
      "inputs": [],
      "name": "algebraPositionManager",
      "outputs": [
        {
          "internalType": "contract IAlgebraNonfungiblePositionManager",
          "name": "",
          "type": "address"
        }
      ],
      "stateMutability": "view",
      "type": "function"
    },
    {
      "inputs": [
        {
          "components": [
            {
              "internalType": "address",
              "name": "router",
              "type": "address"
            },
            {
              "internalType": "contract IERC20Vault",
              "name": "erc20Vault",
              "type": "address"
            },
            {
              "internalType": "contract IQuickSwapVault",
              "name": "quickSwapVault",
              "type": "address"
            },
            {
              "internalType": "address[]",
              "name": "tokens",
              "type": "address[]"
            }
          ],
          "internalType": "struct SinglePositionQuickSwapStrategy.ImmutableParams",
          "name": "immutableParams_",
          "type": "tuple"
        },
        {
          "components": [
            {
              "internalType": "uint24",
              "name": "feeTierOfPoolOfAuxiliaryAnd0Tokens",
              "type": "uint24"
            },
            {
              "internalType": "uint24",
              "name": "feeTierOfPoolOfAuxiliaryAnd1Tokens",
              "type": "uint24"
            },
            {
              "internalType": "int24",
              "name": "priceImpactD6",
              "type": "int24"
            },
            {
              "internalType": "int24",
              "name": "intervalWidth",
              "type": "int24"
            },
            {
              "internalType": "int24",
              "name": "tickNeighborhood",
              "type": "int24"
            },
            {
              "internalType": "int24",
              "name": "maxDeviationForVaultPool",
              "type": "int24"
            },
            {
              "internalType": "int24",
              "name": "maxDeviationForPoolOfAuxiliaryAnd0Tokens",
              "type": "int24"
            },
            {
              "internalType": "int24",
              "name": "maxDeviationForPoolOfAuxiliaryAnd1Tokens",
              "type": "int24"
            },
            {
              "internalType": "uint32",
              "name": "timespanForAverageTick",
              "type": "uint32"
            },
            {
              "internalType": "address",
              "name": "auxiliaryToken",
              "type": "address"
            },
            {
              "internalType": "uint256",
              "name": "amount0Desired",
              "type": "uint256"
            },
            {
              "internalType": "uint256",
              "name": "amount1Desired",
              "type": "uint256"
            },
            {
              "internalType": "uint256",
              "name": "swapSlippageD",
              "type": "uint256"
            },
            {
              "internalType": "uint256[]",
              "name": "minSwapAmounts",
              "type": "uint256[]"
            }
          ],
          "internalType": "struct SinglePositionQuickSwapStrategy.MutableParams",
          "name": "mutableParams_",
          "type": "tuple"
        },
        {
          "internalType": "uint256",
          "name": "priceX96",
          "type": "uint256"
        },
        {
          "internalType": "uint256",
          "name": "targetRatioOfToken1X96",
          "type": "uint256"
        }
      ],
      "name": "calculateAmountsForSwap",
      "outputs": [
        {
          "internalType": "uint256",
          "name": "tokenInIndex",
          "type": "uint256"
        },
        {
          "internalType": "uint256",
          "name": "amountIn",
          "type": "uint256"
        }
      ],
      "stateMutability": "view",
      "type": "function"
    },
    {
      "inputs": [
        {
          "components": [
            {
              "internalType": "uint24",
              "name": "feeTierOfPoolOfAuxiliaryAnd0Tokens",
              "type": "uint24"
            },
            {
              "internalType": "uint24",
              "name": "feeTierOfPoolOfAuxiliaryAnd1Tokens",
              "type": "uint24"
            },
            {
              "internalType": "int24",
              "name": "priceImpactD6",
              "type": "int24"
            },
            {
              "internalType": "int24",
              "name": "intervalWidth",
              "type": "int24"
            },
            {
              "internalType": "int24",
              "name": "tickNeighborhood",
              "type": "int24"
            },
            {
              "internalType": "int24",
              "name": "maxDeviationForVaultPool",
              "type": "int24"
            },
            {
              "internalType": "int24",
              "name": "maxDeviationForPoolOfAuxiliaryAnd0Tokens",
              "type": "int24"
            },
            {
              "internalType": "int24",
              "name": "maxDeviationForPoolOfAuxiliaryAnd1Tokens",
              "type": "int24"
            },
            {
              "internalType": "uint32",
              "name": "timespanForAverageTick",
              "type": "uint32"
            },
            {
              "internalType": "address",
              "name": "auxiliaryToken",
              "type": "address"
            },
            {
              "internalType": "uint256",
              "name": "amount0Desired",
              "type": "uint256"
            },
            {
              "internalType": "uint256",
              "name": "amount1Desired",
              "type": "uint256"
            },
            {
              "internalType": "uint256",
              "name": "swapSlippageD",
              "type": "uint256"
            },
            {
              "internalType": "uint256[]",
              "name": "minSwapAmounts",
              "type": "uint256[]"
            }
          ],
          "internalType": "struct SinglePositionQuickSwapStrategy.MutableParams",
          "name": "mutableParams_",
          "type": "tuple"
        },
        {
          "internalType": "int24",
          "name": "tick",
          "type": "int24"
        },
        {
          "internalType": "contract IAlgebraPool",
          "name": "pool",
          "type": "address"
        }
      ],
      "name": "calculateNewInterval",
      "outputs": [
        {
          "internalType": "int24",
          "name": "lowerTick",
          "type": "int24"
        },
        {
          "internalType": "int24",
          "name": "upperTick",
          "type": "int24"
        }
      ],
      "stateMutability": "view",
      "type": "function"
    },
    {
      "inputs": [
        {
          "components": [
            {
              "internalType": "int24",
              "name": "lowerTick",
              "type": "int24"
            },
            {
              "internalType": "int24",
              "name": "upperTick",
              "type": "int24"
            }
          ],
          "internalType": "struct SinglePositionQuickSwapStrategy.Interval",
          "name": "interval",
          "type": "tuple"
        },
        {
          "internalType": "uint160",
          "name": "sqrtSpotPriceX96",
          "type": "uint160"
        },
        {
          "internalType": "uint256",
          "name": "spotPriceX96",
          "type": "uint256"
        }
      ],
      "name": "calculateTargetRatioOfToken1",
      "outputs": [
        {
          "internalType": "uint256",
          "name": "targetRatioOfToken1X96",
          "type": "uint256"
        }
      ],
      "stateMutability": "pure",
      "type": "function"
    },
    {
      "inputs": [
        {
          "components": [
            {
              "internalType": "address",
              "name": "router",
              "type": "address"
            },
            {
              "internalType": "contract IERC20Vault",
              "name": "erc20Vault",
              "type": "address"
            },
            {
              "internalType": "contract IQuickSwapVault",
              "name": "quickSwapVault",
              "type": "address"
            },
            {
              "internalType": "address[]",
              "name": "tokens",
              "type": "address[]"
            }
          ],
          "internalType": "struct SinglePositionQuickSwapStrategy.ImmutableParams",
          "name": "params",
          "type": "tuple"
        }
      ],
      "name": "checkImmutableParams",
      "outputs": [],
      "stateMutability": "view",
      "type": "function"
    },
    {
      "inputs": [
        {
          "components": [
            {
              "internalType": "uint24",
              "name": "feeTierOfPoolOfAuxiliaryAnd0Tokens",
              "type": "uint24"
            },
            {
              "internalType": "uint24",
              "name": "feeTierOfPoolOfAuxiliaryAnd1Tokens",
              "type": "uint24"
            },
            {
              "internalType": "int24",
              "name": "priceImpactD6",
              "type": "int24"
            },
            {
              "internalType": "int24",
              "name": "intervalWidth",
              "type": "int24"
            },
            {
              "internalType": "int24",
              "name": "tickNeighborhood",
              "type": "int24"
            },
            {
              "internalType": "int24",
              "name": "maxDeviationForVaultPool",
              "type": "int24"
            },
            {
              "internalType": "int24",
              "name": "maxDeviationForPoolOfAuxiliaryAnd0Tokens",
              "type": "int24"
            },
            {
              "internalType": "int24",
              "name": "maxDeviationForPoolOfAuxiliaryAnd1Tokens",
              "type": "int24"
            },
            {
              "internalType": "uint32",
              "name": "timespanForAverageTick",
              "type": "uint32"
            },
            {
              "internalType": "address",
              "name": "auxiliaryToken",
              "type": "address"
            },
            {
              "internalType": "uint256",
              "name": "amount0Desired",
              "type": "uint256"
            },
            {
              "internalType": "uint256",
              "name": "amount1Desired",
              "type": "uint256"
            },
            {
              "internalType": "uint256",
              "name": "swapSlippageD",
              "type": "uint256"
            },
            {
              "internalType": "uint256[]",
              "name": "minSwapAmounts",
              "type": "uint256[]"
            }
          ],
          "internalType": "struct SinglePositionQuickSwapStrategy.MutableParams",
          "name": "params",
          "type": "tuple"
        }
      ],
      "name": "checkMutableParams",
      "outputs": [],
      "stateMutability": "view",
      "type": "function"
    },
    {
      "inputs": [
        {
          "components": [
            {
              "internalType": "address",
              "name": "router",
              "type": "address"
            },
            {
              "internalType": "contract IERC20Vault",
              "name": "erc20Vault",
              "type": "address"
            },
            {
              "internalType": "contract IQuickSwapVault",
              "name": "quickSwapVault",
              "type": "address"
            },
            {
              "internalType": "address[]",
              "name": "tokens",
              "type": "address[]"
            }
          ],
          "internalType": "struct SinglePositionQuickSwapStrategy.ImmutableParams",
          "name": "immutableParams_",
          "type": "tuple"
        },
        {
          "components": [
            {
              "internalType": "uint24",
              "name": "feeTierOfPoolOfAuxiliaryAnd0Tokens",
              "type": "uint24"
            },
            {
              "internalType": "uint24",
              "name": "feeTierOfPoolOfAuxiliaryAnd1Tokens",
              "type": "uint24"
            },
            {
              "internalType": "int24",
              "name": "priceImpactD6",
              "type": "int24"
            },
            {
              "internalType": "int24",
              "name": "intervalWidth",
              "type": "int24"
            },
            {
              "internalType": "int24",
              "name": "tickNeighborhood",
              "type": "int24"
            },
            {
              "internalType": "int24",
              "name": "maxDeviationForVaultPool",
              "type": "int24"
            },
            {
              "internalType": "int24",
              "name": "maxDeviationForPoolOfAuxiliaryAnd0Tokens",
              "type": "int24"
            },
            {
              "internalType": "int24",
              "name": "maxDeviationForPoolOfAuxiliaryAnd1Tokens",
              "type": "int24"
            },
            {
              "internalType": "uint32",
              "name": "timespanForAverageTick",
              "type": "uint32"
            },
            {
              "internalType": "address",
              "name": "auxiliaryToken",
              "type": "address"
            },
            {
              "internalType": "uint256",
              "name": "amount0Desired",
              "type": "uint256"
            },
            {
              "internalType": "uint256",
              "name": "amount1Desired",
              "type": "uint256"
            },
            {
              "internalType": "uint256",
              "name": "swapSlippageD",
              "type": "uint256"
            },
            {
              "internalType": "uint256[]",
              "name": "minSwapAmounts",
              "type": "uint256[]"
            }
          ],
          "internalType": "struct SinglePositionQuickSwapStrategy.MutableParams",
          "name": "mutableParams_",
          "type": "tuple"
        },
        {
          "internalType": "contract IAlgebraPool",
          "name": "vaultPool",
          "type": "address"
        }
      ],
      "name": "checkTickDeviations",
      "outputs": [],
      "stateMutability": "view",
      "type": "function"
    },
    {
      "inputs": [],
      "name": "contractName",
      "outputs": [
        {
          "internalType": "string",
          "name": "",
          "type": "string"
        }
      ],
      "stateMutability": "pure",
      "type": "function"
    },
    {
      "inputs": [],
      "name": "contractNameBytes",
      "outputs": [
        {
          "internalType": "bytes32",
          "name": "",
          "type": "bytes32"
        }
      ],
      "stateMutability": "pure",
      "type": "function"
    },
    {
      "inputs": [],
      "name": "contractVersion",
      "outputs": [
        {
          "internalType": "string",
          "name": "",
          "type": "string"
        }
      ],
      "stateMutability": "pure",
      "type": "function"
    },
    {
      "inputs": [],
      "name": "contractVersionBytes",
      "outputs": [
        {
          "internalType": "bytes32",
          "name": "",
          "type": "bytes32"
        }
      ],
      "stateMutability": "pure",
      "type": "function"
    },
    {
      "inputs": [],
      "name": "depositCallback",
      "outputs": [],
      "stateMutability": "nonpayable",
      "type": "function"
    },
    {
      "inputs": [
        {
          "internalType": "bytes32",
          "name": "role",
          "type": "bytes32"
        }
      ],
      "name": "getRoleAdmin",
      "outputs": [
        {
          "internalType": "bytes32",
          "name": "",
          "type": "bytes32"
        }
      ],
      "stateMutability": "view",
      "type": "function"
    },
    {
      "inputs": [
        {
          "internalType": "bytes32",
          "name": "role",
          "type": "bytes32"
        },
        {
          "internalType": "uint256",
          "name": "index",
          "type": "uint256"
        }
      ],
      "name": "getRoleMember",
      "outputs": [
        {
          "internalType": "address",
          "name": "",
          "type": "address"
        }
      ],
      "stateMutability": "view",
      "type": "function"
    },
    {
      "inputs": [
        {
          "internalType": "bytes32",
          "name": "role",
          "type": "bytes32"
        }
      ],
      "name": "getRoleMemberCount",
      "outputs": [
        {
          "internalType": "uint256",
          "name": "",
          "type": "uint256"
        }
      ],
      "stateMutability": "view",
      "type": "function"
    },
    {
      "inputs": [
        {
          "internalType": "bytes32",
          "name": "role",
          "type": "bytes32"
        },
        {
          "internalType": "address",
          "name": "account",
          "type": "address"
        }
      ],
      "name": "grantRole",
      "outputs": [],
      "stateMutability": "nonpayable",
      "type": "function"
    },
    {
      "inputs": [
        {
          "internalType": "bytes32",
          "name": "role",
          "type": "bytes32"
        },
        {
          "internalType": "address",
          "name": "account",
          "type": "address"
        }
      ],
      "name": "hasRole",
      "outputs": [
        {
          "internalType": "bool",
          "name": "",
          "type": "bool"
        }
      ],
      "stateMutability": "view",
      "type": "function"
    },
    {
      "inputs": [],
      "name": "helper",
      "outputs": [
        {
          "internalType": "contract SinglePositionStrategyHelper",
          "name": "",
          "type": "address"
        }
      ],
      "stateMutability": "view",
      "type": "function"
    },
    {
      "inputs": [],
      "name": "immutableParams",
      "outputs": [
        {
          "internalType": "address",
          "name": "router",
          "type": "address"
        },
        {
          "internalType": "contract IERC20Vault",
          "name": "erc20Vault",
          "type": "address"
        },
        {
          "internalType": "contract IQuickSwapVault",
          "name": "quickSwapVault",
          "type": "address"
        }
      ],
      "stateMutability": "view",
      "type": "function"
    },
    {
      "inputs": [
        {
          "internalType": "address",
          "name": "admin",
          "type": "address"
        }
      ],
      "name": "init",
      "outputs": [],
      "stateMutability": "nonpayable",
      "type": "function"
    },
    {
      "inputs": [
        {
          "components": [
            {
              "internalType": "address",
              "name": "router",
              "type": "address"
            },
            {
              "internalType": "contract IERC20Vault",
              "name": "erc20Vault",
              "type": "address"
            },
            {
              "internalType": "contract IQuickSwapVault",
              "name": "quickSwapVault",
              "type": "address"
            },
            {
              "internalType": "address[]",
              "name": "tokens",
              "type": "address[]"
            }
          ],
          "internalType": "struct SinglePositionQuickSwapStrategy.ImmutableParams",
          "name": "immutableParams_",
          "type": "tuple"
        },
        {
          "internalType": "address",
          "name": "admin",
          "type": "address"
        }
      ],
      "name": "initialize",
      "outputs": [],
      "stateMutability": "nonpayable",
      "type": "function"
    },
    {
      "inputs": [],
      "name": "initialized",
      "outputs": [
        {
          "internalType": "bool",
          "name": "",
          "type": "bool"
        }
      ],
      "stateMutability": "view",
      "type": "function"
    },
    {
      "inputs": [
        {
          "internalType": "address",
          "name": "sender",
          "type": "address"
        }
      ],
      "name": "isAdmin",
      "outputs": [
        {
          "internalType": "bool",
          "name": "",
          "type": "bool"
        }
      ],
      "stateMutability": "view",
      "type": "function"
    },
    {
      "inputs": [
        {
          "internalType": "address",
          "name": "sender",
          "type": "address"
        }
      ],
      "name": "isOperator",
      "outputs": [
        {
          "internalType": "bool",
          "name": "",
          "type": "bool"
        }
      ],
      "stateMutability": "view",
      "type": "function"
    },
    {
      "inputs": [
        {
          "internalType": "bytes[]",
          "name": "data",
          "type": "bytes[]"
        }
      ],
      "name": "multicall",
      "outputs": [
        {
          "internalType": "bytes[]",
          "name": "results",
          "type": "bytes[]"
        }
      ],
      "stateMutability": "nonpayable",
      "type": "function"
    },
    {
      "inputs": [],
      "name": "mutableParams",
      "outputs": [
        {
          "internalType": "uint24",
          "name": "feeTierOfPoolOfAuxiliaryAnd0Tokens",
          "type": "uint24"
        },
        {
          "internalType": "uint24",
          "name": "feeTierOfPoolOfAuxiliaryAnd1Tokens",
          "type": "uint24"
        },
        {
          "internalType": "int24",
          "name": "priceImpactD6",
          "type": "int24"
        },
        {
          "internalType": "int24",
          "name": "intervalWidth",
          "type": "int24"
        },
        {
          "internalType": "int24",
          "name": "tickNeighborhood",
          "type": "int24"
        },
        {
          "internalType": "int24",
          "name": "maxDeviationForVaultPool",
          "type": "int24"
        },
        {
          "internalType": "int24",
          "name": "maxDeviationForPoolOfAuxiliaryAnd0Tokens",
          "type": "int24"
        },
        {
          "internalType": "int24",
          "name": "maxDeviationForPoolOfAuxiliaryAnd1Tokens",
          "type": "int24"
        },
        {
          "internalType": "uint32",
          "name": "timespanForAverageTick",
          "type": "uint32"
        },
        {
          "internalType": "address",
          "name": "auxiliaryToken",
          "type": "address"
        },
        {
          "internalType": "uint256",
          "name": "amount0Desired",
          "type": "uint256"
        },
        {
          "internalType": "uint256",
          "name": "amount1Desired",
          "type": "uint256"
        },
        {
          "internalType": "uint256",
          "name": "swapSlippageD",
          "type": "uint256"
        }
      ],
      "stateMutability": "view",
      "type": "function"
    },
    {
      "inputs": [
        {
          "internalType": "uint256",
          "name": "deadline",
          "type": "uint256"
        }
      ],
      "name": "rebalance",
      "outputs": [],
      "stateMutability": "nonpayable",
      "type": "function"
    },
    {
      "inputs": [
        {
          "internalType": "bytes32",
          "name": "role",
          "type": "bytes32"
        },
        {
          "internalType": "address",
          "name": "account",
          "type": "address"
        }
      ],
      "name": "renounceRole",
      "outputs": [],
      "stateMutability": "nonpayable",
      "type": "function"
    },
    {
      "inputs": [
        {
          "internalType": "bytes32",
          "name": "role",
          "type": "bytes32"
        },
        {
          "internalType": "address",
          "name": "account",
          "type": "address"
        }
      ],
      "name": "revokeRole",
      "outputs": [],
      "stateMutability": "nonpayable",
      "type": "function"
    },
    {
      "inputs": [
        {
          "internalType": "bytes4",
          "name": "interfaceId",
          "type": "bytes4"
        }
      ],
      "name": "supportsInterface",
      "outputs": [
        {
          "internalType": "bool",
          "name": "",
          "type": "bool"
        }
      ],
      "stateMutability": "view",
      "type": "function"
    },
    {
      "inputs": [],
      "name": "uniswapV3Factory",
      "outputs": [
        {
          "internalType": "contract IUniswapV3Factory",
          "name": "",
          "type": "address"
        }
      ],
      "stateMutability": "view",
      "type": "function"
    },
    {
      "inputs": [
        {
          "components": [
            {
              "internalType": "uint24",
              "name": "feeTierOfPoolOfAuxiliaryAnd0Tokens",
              "type": "uint24"
            },
            {
              "internalType": "uint24",
              "name": "feeTierOfPoolOfAuxiliaryAnd1Tokens",
              "type": "uint24"
            },
            {
              "internalType": "int24",
              "name": "priceImpactD6",
              "type": "int24"
            },
            {
              "internalType": "int24",
              "name": "intervalWidth",
              "type": "int24"
            },
            {
              "internalType": "int24",
              "name": "tickNeighborhood",
              "type": "int24"
            },
            {
              "internalType": "int24",
              "name": "maxDeviationForVaultPool",
              "type": "int24"
            },
            {
              "internalType": "int24",
              "name": "maxDeviationForPoolOfAuxiliaryAnd0Tokens",
              "type": "int24"
            },
            {
              "internalType": "int24",
              "name": "maxDeviationForPoolOfAuxiliaryAnd1Tokens",
              "type": "int24"
            },
            {
              "internalType": "uint32",
              "name": "timespanForAverageTick",
              "type": "uint32"
            },
            {
              "internalType": "address",
              "name": "auxiliaryToken",
              "type": "address"
            },
            {
              "internalType": "uint256",
              "name": "amount0Desired",
              "type": "uint256"
            },
            {
              "internalType": "uint256",
              "name": "amount1Desired",
              "type": "uint256"
            },
            {
              "internalType": "uint256",
              "name": "swapSlippageD",
              "type": "uint256"
            },
            {
              "internalType": "uint256[]",
              "name": "minSwapAmounts",
              "type": "uint256[]"
            }
          ],
          "internalType": "struct SinglePositionQuickSwapStrategy.MutableParams",
          "name": "mutableParams_",
          "type": "tuple"
        }
      ],
      "name": "updateMutableParams",
      "outputs": [],
      "stateMutability": "nonpayable",
      "type": "function"
    },
    {
      "inputs": [],
      "name": "withdrawCallback",
      "outputs": [],
      "stateMutability": "nonpayable",
      "type": "function"
    }
  ],
  "bytecode": {
    "object": "0x60e06040523480156200001157600080fd5b5060405162005f5c38038062005f5c833981016040819052620000349162000145565b60408051808201909152600281526120ad60f11b60208201526001600160a01b038416620000805760405162461bcd60e51b815260040162000077919062000199565b60405180910390fd5b506001600160a01b0380841660805260408051808201909152600281526120ad60f11b6020820152908316620000cb5760405162461bcd60e51b815260040162000077919062000199565b506001600160a01b0380831660a05260408051808201909152600281526120ad60f11b6020820152908216620001165760405162461bcd60e51b815260040162000077919062000199565b506001600160a01b031660c05250620001f19050565b6001600160a01b03811681146200014257600080fd5b50565b6000806000606084860312156200015b57600080fd5b835162000168816200012c565b60208501519093506200017b816200012c565b60408501519092506200018e816200012c565b809150509250925092565b600060208083528351808285015260005b81811015620001c857858101830151858201604001528201620001aa565b81811115620001db576000604083870101525b50601f01601f1916929092016040019392505050565b60805160a05160c051615cf56200026760003960008181610517015281816115a70152818161171201526118a40152600081816105ec01528181611d580152818161342d015281816139cc01528181613b390152613bed0152600081816103cd015281816115d601526117410152615cf56000f3fe608060405234801561001057600080fd5b506004361061025e5760003560e01c806375b238fc11610146578063a11bac74116100c3578063c8014d5311610087578063c8014d531461069b578063ca15c873146106e5578063d547741f146106f8578063e3b3f799146105c9578063e521826f1461070b578063f49930181461071357600080fd5b8063a11bac7414610656578063a217fddf14610660578063a4b7e9df14610668578063ac9650d81461067b578063b4559f3e146102cb57600080fd5b8063962892ea1161010a578063962892ea146105e7578063983d27371461060e5780639bb37ba8146106235780639f747b2014610636578063a0a8e4601461064e57600080fd5b806375b238fc1461058c57806375d0c0dc146105a15780639010d07c146105b6578063918f8674146105c957806391d14854146105d457600080fd5b806336568abe116101df5780635b549182116101a35780635b549182146103c85780635f408a211461040757806363b0e66a146105125780636d70f7ae146105395780636f259f101461054c5780636ff0b3581461057957600080fd5b806336568abe1461035c578063407924651461036f578063475cffef1461037a5780634c41466a1461038d57806352f344d0146103a057600080fd5b8063158ef93e11610226578063158ef93e146102f357806319ab453c14610300578063248a9ca31461031357806324d7806c146103365780632f2ff15d1461034957600080fd5b806301ffc9a71461026357806306a462391461028b5780630952ff54146102a35780630ddd8329146102b85780630e3e80ac146102cd575b600080fd5b6102766102713660046147a3565b610726565b60405190151581526020015b60405180910390f35b640312e302e360dc1b5b604051908152602001610282565b610295600080516020615c3983398151915281565b6102cb6102c6366004614a72565b610756565b005b7f53696e676c65506f736974696f6e517569636b53776170537472617465677900610295565b6002546102769060ff1681565b6102cb61030e366004614aa6565b610e05565b610295610321366004614ac3565b60009081526020819052604090206001015490565b610276610344366004614aa6565b610f2b565b6102cb610357366004614adc565b610f63565b6102cb61036a366004614adc565b610f88565b610295600160601b81565b6102cb610388366004614be9565b611006565b6102cb61039b366004614c1d565b6115a5565b6103b36103ae366004614c94565b61190f565b60408051928352602083019190915201610282565b6103ef7f000000000000000000000000000000000000000000000000000000000000000081565b6040516001600160a01b039091168152602001610282565b600754600854600954600a54600b5461048b9462ffffff808216956301000000830490911694600160301b8304600290810b95600160481b8504820b95600160601b8604830b95600160781b8104840b95600160901b8204850b95600160a81b830490950b94600160c01b90920463ffffffff16936001600160a01b03909116928d565b6040805162ffffff9e8f1681529d909c1660208e015260029a8b0b9b8d019b909b5297890b60608c015295880b60808b015293870b60a08a015291860b60c089015290940b60e087015263ffffffff9093166101008601526001600160a01b039092166101208501526101408401919091526101608301526101808201526101a001610282565b6103ef7f000000000000000000000000000000000000000000000000000000000000000081565b610276610547366004614aa6565b611bbb565b61055f61055a366004614d07565b611bd5565b60408051600293840b81529190920b602082015201610282565b6102cb610587366004614d5f565b611cd9565b610295600080516020615c5983398151915281565b6105a9612022565b6040516102829190614dfd565b6103ef6105c4366004614e10565b61204d565b610295633b9aca0081565b6102766105e2366004614adc565b61206c565b6103ef7f000000000000000000000000000000000000000000000000000000000000000081565b610295600080516020615c7983398151915281565b610295610631366004614e32565b612095565b6002546103ef9061010090046001600160a01b031681565b6105a9612180565b610295620f424081565b610295600081565b6102cb610676366004614a72565b612193565b61068e610689366004614ebd565b612353565b6040516102829190614f31565b6003546004546005546106bb926001600160a01b03908116928116911683565b604080516001600160a01b0394851681529284166020840152921691810191909152606001610282565b6102956106f3366004614ac3565b612449565b6102cb610706366004614adc565b612460565b6102cb612485565b6102cb610721366004614ac3565b61251f565b60006001600160e01b03198216635a05180f60e01b148061074b575061074b82612810565b92915050565b905090565b6000600260019054906101000a90046001600160a01b03166001600160a01b031663d0c93a7c6040518163ffffffff1660e01b815260040160206040518083038186803b1580156107a657600080fd5b505afa1580156107ba573d6000803e3d6000fd5b505050506040513d601f19601f820116820180604052508101906107de9190614f9e565b90506000826060015160020b13801561081157506107fd816002614fd1565b826060015161080c9190615074565b60020b155b6040518060400160405280600381526020016224a72b60e91b815250906108545760405162461bcd60e51b815260040161084b9190614dfd565b60405180910390fd5b50816060015161086390615096565b60020b826080015160020b1215801561089657506002826060015161088891906150b9565b60020b826080015160020b13155b604051806040016040528060048152602001634c494d4f60e01b815250906108d15760405162461bcd60e51b815260040161084b9190614dfd565b5061012082015160408051808201909152600281526120ad60f11b6020820152906001600160a01b03166109185760405162461bcd60e51b815260040161084b9190614dfd565b50816000015162ffffff166064148061093b5750816000015162ffffff166101f4145b806109505750816000015162ffffff16610bb8145b806109655750816000015162ffffff16612710145b6040518060400160405280600381526020016224a72b60e91b8152509061099f5760405162461bcd60e51b815260040161084b9190614dfd565b50816020015162ffffff16606414806109c25750816020015162ffffff166101f4145b806109d75750816020015162ffffff16610bb8145b806109ec5750816020015162ffffff16612710145b6040518060400160405280600381526020016224a72b60e91b81525090610a265760405162461bcd60e51b815260040161084b9190614dfd565b5060408201516020830151835160009291610a40916150f3565b610a4a91906150f3565b60020b1215604051806040016040528060048152602001634c494d5560e01b81525090610a8a5760405162461bcd60e51b815260040161084b9190614dfd565b5060008260a0015160020b13604051806040016040528060048152602001634c494d5560e01b81525090610ad15760405162461bcd60e51b815260040161084b9190614dfd565b5060008260c0015160020b13604051806040016040528060048152602001634c494d5560e01b81525090610b185760405162461bcd60e51b815260040161084b9190614dfd565b5060008260e0015160020b13604051806040016040528060048152602001634c494d5560e01b81525090610b5f5760405162461bcd60e51b815260040161084b9190614dfd565b50600082610100015163ffffffff1611604051806040016040528060028152602001612b2d60f11b81525090610ba85760405162461bcd60e51b815260040161084b9190614dfd565b5062093a8082610100015163ffffffff1610604051806040016040528060028152602001612b2d60f11b81525090610bf35760405162461bcd60e51b815260040161084b9190614dfd565b50600082610140015111604051806040016040528060028152602001612b2d60f11b81525090610c365760405162461bcd60e51b815260040161084b9190614dfd565b50633b9aca008261014001511115604051806040016040528060048152602001634c494d4f60e01b81525090610c7f5760405162461bcd60e51b815260040161084b9190614dfd565b50600082610160015111604051806040016040528060028152602001612b2d60f11b81525090610cc25760405162461bcd60e51b815260040161084b9190614dfd565b50633b9aca008261016001511115604051806040016040528060048152602001634c494d4f60e01b81525090610d0b5760405162461bcd60e51b815260040161084b9190614dfd565b50816101a0015151600214604051806040016040528060048152602001631253959360e21b81525090610d515760405162461bcd60e51b815260040161084b9190614dfd565b50633b9aca008261018001511115604051806040016040528060048152602001634c494d4f60e01b81525090610d9a5760405162461bcd60e51b815260040161084b9190614dfd565b5060208201518251610dac919061513a565b610db8906103e8615161565b62ffffff168261018001511015604051806040016040528060048152602001634c494d5560e01b81525090610e005760405162461bcd60e51b815260040161084b9190614dfd565b505050565b60408051808201909152600281526120ad60f11b60208201526001600160a01b038216610e455760405162461bcd60e51b815260040161084b9190614dfd565b506002546040805180820190915260048152631253925560e21b60208201529060ff1615610e865760405162461bcd60e51b815260040161084b9190614dfd565b50610e9f600080516020615c7983398151915282612845565b610eb7600080516020615c5983398151915282612845565b610ecf600080516020615c598339815191528061284f565b610ef5600080516020615c39833981519152600080516020615c5983398151915261284f565b610f1b600080516020615c79833981519152600080516020615c3983398151915261284f565b506002805460ff19166001179055565b6000610f45600080516020615c598339815191528361206c565b8061074b575061074b600080516020615c398339815191528361206c565b600082815260208190526040902060010154610f7e8161289a565b610e0083836128a7565b6001600160a01b0381163314610ff85760405162461bcd60e51b815260206004820152602f60248201527f416363657373436f6e74726f6c3a2063616e206f6e6c792072656e6f756e636560448201526e103937b632b9903337b91039b2b63360891b606482015260840161084b565b61100282826128c9565b5050565b806060015151600214604051806040016040528060048152602001631253959360e21b8152509061104a5760405162461bcd60e51b815260040161084b9190614dfd565b5060006001600160a01b0316816060015160008151811061106d5761106d61518c565b60200260200101516001600160a01b031614156040518060400160405280600281526020016120ad60f11b815250906110b95760405162461bcd60e51b815260040161084b9190614dfd565b5060006001600160a01b031681606001516001815181106110dc576110dc61518c565b60200260200101516001600160a01b031614156040518060400160405280600281526020016120ad60f11b815250906111285760405162461bcd60e51b815260040161084b9190614dfd565b50805160408051808201909152600281526120ad60f11b6020820152906001600160a01b031661116b5760405162461bcd60e51b815260040161084b9190614dfd565b5060006001600160a01b031681602001516001600160a01b031614156040518060400160405280600281526020016120ad60f11b815250906111c05760405162461bcd60e51b815260040161084b9190614dfd565b50600081602001516001600160a01b031663697222336040518163ffffffff1660e01b815260040160006040518083038186803b15801561120057600080fd5b505afa158015611214573d6000803e3d6000fd5b505050506040513d6000823e601f3d908101601f1916820160405261123c91908101906151ad565b90508051600214604051806040016040528060048152602001631253959360e21b8152509061127e5760405162461bcd60e51b815260040161084b9190614dfd565b5081606001516000815181106112965761129661518c565b60200260200101516001600160a01b0316816000815181106112ba576112ba61518c565b60200260200101516001600160a01b03161460405180604001604052806004815260200163494e564160e01b815250906113075760405162461bcd60e51b815260040161084b9190614dfd565b50816060015160018151811061131f5761131f61518c565b60200260200101516001600160a01b0316816001815181106113435761134361518c565b60200260200101516001600160a01b03161460405180604001604052806004815260200163494e564160e01b815250906113905760405162461bcd60e51b815260040161084b9190614dfd565b50506040808201518151808301909252600282526120ad60f11b60208301526001600160a01b03166113d55760405162461bcd60e51b815260040161084b9190614dfd565b50600081604001516001600160a01b031663697222336040518163ffffffff1660e01b815260040160006040518083038186803b15801561141557600080fd5b505afa158015611429573d6000803e3d6000fd5b505050506040513d6000823e601f3d908101601f1916820160405261145191908101906151ad565b90508051600214604051806040016040528060048152602001631253959360e21b815250906114935760405162461bcd60e51b815260040161084b9190614dfd565b5081606001516000815181106114ab576114ab61518c565b60200260200101516001600160a01b0316816000815181106114cf576114cf61518c565b60200260200101516001600160a01b03161460405180604001604052806004815260200163494e564160e01b8152509061151c5760405162461bcd60e51b815260040161084b9190614dfd565b5081606001516001815181106115345761153461518c565b60200260200101516001600160a01b0316816001815181106115585761155861518c565b60200260200101516001600160a01b03161460405180604001604052806004815260200163494e564160e01b81525090610e005760405162461bcd60e51b815260040161084b9190614dfd565b7f00000000000000000000000000000000000000000000000000000000000000006001600160a01b0316635176e37e7f00000000000000000000000000000000000000000000000000000000000000006001600160a01b0316631698ee82866060015160008151811061161a5761161a61518c565b602090810291909101015161012087015187516040516001600160e01b031960e086901b1681526001600160a01b03938416600482015292909116602483015262ffffff16604482015260640160206040518083038186803b15801561167f57600080fd5b505afa158015611693573d6000803e3d6000fd5b505050506040513d601f19601f820116820180604052508101906116b7919061523b565b8460c001518561010001516040518463ffffffff1660e01b81526004016116e093929190615258565b60006040518083038186803b1580156116f857600080fd5b505afa15801561170c573d6000803e3d6000fd5b505050507f00000000000000000000000000000000000000000000000000000000000000006001600160a01b0316635176e37e7f00000000000000000000000000000000000000000000000000000000000000006001600160a01b0316631698ee8286606001516001815181106117855761178561518c565b602002602001015186610120015187602001516040518463ffffffff1660e01b81526004016117da939291906001600160a01b03938416815291909216602082015262ffffff91909116604082015260600190565b60206040518083038186803b1580156117f257600080fd5b505afa158015611806573d6000803e3d6000fd5b505050506040513d601f19601f8201168201806040525081019061182a919061523b565b8460e001518561010001516040518463ffffffff1660e01b815260040161185393929190615258565b60006040518083038186803b15801561186b57600080fd5b505afa15801561187f573d6000803e3d6000fd5b50505060a083015161010084015160405163c4408e6b60e01b81526001600160a01b037f000000000000000000000000000000000000000000000000000000000000000016935063c4408e6b926118da928692600401615258565b60006040518083038186803b1580156118f257600080fd5b505afa158015611906573d6000803e3d6000fd5b50505050505050565b6000808061192184600160601b615282565b9050600087602001516001600160a01b031663e5328e066040518163ffffffff1660e01b815260040160006040518083038186803b15801561196257600080fd5b505afa158015611976573d6000803e3d6000fd5b505050506040513d6000823e601f3d908101601f1916820160405261199e91908101906152f4565b5090506000611a19826001815181106119b9576119b961518c565b6020026020010151600160601b6119ef856000815181106119dc576119dc61518c565b60200260200101518b600160601b6128eb565b85600181518110611a0257611a0261518c565b6020026020010151611a149190615357565b6128eb565b90506000611a54600160601b8a604001518b602001518c60000151611a3e91906150f3565b611a4891906150f3565b60020b620f42406128eb565b905086821115611afa57600195506000611a73600160601b808b6128eb565b9050611af2611a9d8986600081518110611a8f57611a8f61518c565b6020026020010151846128eb565b611ac686600181518110611ab357611ab361518c565b602002602001015188600160601b6128eb565b611ad09190615282565b600160601b611ae48b86600160601b6128eb565b611a1490600160601b615282565b955050611b70565b60009550611b6d611b268585600181518110611b1857611b1861518c565b60200260200101518b6128eb565b611b4f85600081518110611b3c57611b3c61518c565b60200260200101518a600160601b6128eb565b611b599190615282565b600160601b611ae48785600160601b6128eb565b94505b828681518110611b8257611b8261518c565b6020026020010151851115611bae57828681518110611ba357611ba361518c565b602002602001015194505b5050505094509492505050565b600061074b600080516020615c798339815191528361206c565b6000806000836001600160a01b031663d0c93a7c6040518163ffffffff1660e01b815260040160206040518083038186803b158015611c1357600080fd5b505afa158015611c27573d6000803e3d6000fd5b505050506040513d601f19601f82011682018060405250810190611c4b9190614f9e565b90506000611c598287615074565b611c63908761536f565b9050600282900b611c748388615074565b611c7f906002614fd1565b60020b1315611c9557611c9282826150f3565b90505b60028760600151611ca691906150b9565b611cb0908261536f565b935060028760600151611cc391906150b9565b611ccd90826150f3565b92505050935093915050565b611ce282611006565b8151600380546001600160a01b03199081166001600160a01b039384161782556020808601516004805484169186169190911790556040860151600580549093169416939093179055606084015180518593611d43926006929101906146ee565b5090505060005b6002811015611eaf57611db07f000000000000000000000000000000000000000000000000000000000000000060001985606001518481518110611d9057611d9061518c565b60200260200101516001600160a01b031661299e9092919063ffffffff16565b82602001516001600160a01b0316632e2f4cc284606001518381518110611dd957611dd961518c565b602002602001015163095ea7b360e01b8660000151600019604051602001611e169291906001600160a01b03929092168252602082015260400190565b6040516020818303038152906040526040518463ffffffff1660e01b8152600401611e43939291906153b7565b600060405180830381600087803b158015611e5d57600080fd5b505af1925050508015611e9257506040513d6000823e601f3d908101601f19168201604052611e8f91908101906153f4565b60015b611e9b57611e9d565b505b80611ea781615487565b915050611d4a565b5081604001516001600160a01b031663c45a01556040518163ffffffff1660e01b815260040160206040518083038186803b158015611eed57600080fd5b505afa158015611f01573d6000803e3d6000fd5b505050506040513d601f19601f82011682018060405250810190611f25919061523b565b6001600160a01b031663d9a641e18360600151600081518110611f4a57611f4a61518c565b60200260200101518460600151600181518110611f6957611f6961518c565b60200260200101516040518363ffffffff1660e01b8152600401611fa39291906001600160a01b0392831681529116602082015260400190565b60206040518083038186803b158015611fbb57600080fd5b505afa158015611fcf573d6000803e3d6000fd5b505050506040513d601f19601f82011682018060405250810190611ff3919061523b565b600260016101000a8154816001600160a01b0302191690836001600160a01b0316021790555061100281610e05565b60606107517f53696e676c65506f736974696f6e517569636b53776170537472617465677900612a92565b60008281526001602052604081206120659083612afe565b9392505050565b6000918252602082815260408084206001600160a01b0393909316845291905290205460ff1690565b6000806120a58560000151612b0a565b6001600160a01b0316905060006120bf8660200151612b0a565b6001600160a01b03169050846001600160a01b031682106120e557600092505050612065565b846001600160a01b0316811161210357600160601b92505050612065565b600061213861211b6001600160a01b03881684615282565b600160601b611a14896001600160a01b031686600160601b6128eb565b9050600061214f846001600160a01b038916615282565b905061217481600160601b8361216a868b600160601b6128eb565b611a149190615357565b98975050505050505050565b6060610751640312e302e360dc1b612a92565b61219b612f27565b6121a481610756565b80516007805460208085015160408601516060870151608088015160a089015160c08a015160e08b01516101008c015162ffffff9b8c1665ffffffffffff19909a16999099176301000000978c1697909702969096176bffffffffffff0000000000001916600160301b958b16959095026bffffff000000000000000000191694909417600160481b938a16939093029290921765ffffffffffff60601b1916600160601b9189169190910262ffffff60781b191617600160781b918816919091021765ffffffffffff60901b1916600160901b9187169190910262ffffff60a81b191617600160a81b95909116949094029390931763ffffffff60c01b1916600160c01b63ffffffff90921691909102178155610120830151600880546001600160a01b0319166001600160a01b03909216919091179055610140830151600955610160830151600a55610180830151600b556101a08301518051849361231192600c92910190614753565b505060405133915032907f17625970c8998aa241179f136ece2f6357611fcb0416c0450f5001fd4f283f47906123489085906154dd565b60405180910390a350565b6060816001600160401b0381111561236d5761236d6147cd565b6040519080825280602002602001820160405280156123a057816020015b606081526020019060019003908161238b5790505b50905060005b8281101561244057612410308585848181106123c4576123c461518c565b90506020028101906123d69190615601565b8080601f016020809104026020016040519081016040528093929190818152602001838380828437600092019190915250612f6a92505050565b8282815181106124225761242261518c565b6020026020010181905250808061243890615487565b9150506123a6565b5092915050565b565b600081815260016020526040812061074b90612f8f565b60008281526020819052604090206001015461247b8161289a565b610e0083836128c9565b60408051608081018252600380546001600160a01b039081168352600454811660208085019190915260055490911683850152600680548551818402810184019096528086526124479560608601939092919083018282801561251157602002820191906000526020600020905b81546001600160a01b031681526001909101906020018083116124f3575b505050505081525050612f99565b8042111560405180604001604052806002815260200161545360f01b8152509061255c5760405162461bcd60e51b815260040161084b9190614dfd565b5061256561334d565b60408051608081018252600380546001600160a01b039081168352600454811660208085019190915260055490911683850152600680548551818402810184019096528086526000956060860193909291908301828280156125f057602002820191906000526020600020905b81546001600160a01b031681526001909101906020018083116125d2575b505050919092525050604080516101c0810182526007805462ffffff80821684526301000000820416602080850191909152600160301b8204600290810b85870152600160481b8304810b6060860152600160601b8304810b6080860152600160781b8304810b60a0860152600160901b8304810b60c0860152600160a81b8304900b60e0850152600160c01b90910463ffffffff166101008401526008546001600160a01b0316610120840152600954610140840152600a54610160840152600b54610180840152600c805485518184028101840190965280865296975060009693955091936101a086019390929183018282801561270f57602002820191906000526020600020905b8154815260200190600101908083116126fb575b5050509190925250506002549192505061010090046001600160a01b03166127388383836115a5565b600080826001600160a01b031663e76c01e46040518163ffffffff1660e01b815260040160e06040518083038186803b15801561277457600080fd5b505afa158015612788573d6000803e3d6000fd5b505050506040513d601f19601f820116820180604052508101906127ac9190615681565b50505050509150915060006127c386868487613365565b90506127d186868386613c96565b6127da86612f99565b604051339032907f6dcf4e69cd04d9def52d660ea37a5b366adb7701505e48e75c03d6a51a343f6490600090a350505050505050565b60006001600160e01b03198216637965db0b60e01b148061074b57506301ffc9a760e01b6001600160e01b031983161461074b565b61100282826128a7565b600082815260208190526040808220600101805490849055905190918391839186917fbd79b86ffe0ab8e8776151514217cd7cacd52c909f66475c3af44e129f0b00ff9190a4505050565b6128a48133613f92565b50565b6128b18282613feb565b6000828152600160205260409020610e00908261406f565b6128d38282614084565b6000828152600160205260409020610e0090826140e9565b600080806000198587098587029250828110838203039150508060001415612925576000841161291a57600080fd5b508290049050612065565b80841161293157600080fd5b6000848688096000868103871696879004966002600389028118808a02820302808a02820302808a02820302808a02820302808a02820302808a02909103029181900381900460010186841190950394909402919094039290920491909117919091029150509392505050565b604051636eb1769f60e11b81523060048201526001600160a01b0383811660248301526000919085169063dd62ed3e9060440160206040518083038186803b1580156129e957600080fd5b505afa1580156129fd573d6000803e3d6000fd5b505050506040513d601f19601f82011682018060405250810190612a21919061570c565b9050612a8c8463095ea7b360e01b85612a3a8686615357565b6040516001600160a01b039092166024830152604482015260640160408051601f198184030181529190526020810180516001600160e01b03166001600160e01b0319909316929092179091526140fe565b50505050565b604080516020808252818301909252606091602082018180368337019050509050602060005b6020811015612af057838160208110612ad357612ad361518c565b1a612ae057809150612af0565b612ae981615487565b9050612ab8565b508152602081019190915290565b600061206583836141d3565b60008060008360020b12612b21578260020b612b2e565b8260020b612b2e90615725565b9050612b3d620d89e719615096565b60020b811115612b735760405162461bcd60e51b81526020600482015260016024820152601560fa1b604482015260640161084b565b600060018216612b8757600160801b612b99565b6ffffcb933bd6fad37aa2d162d1a5940015b70ffffffffffffffffffffffffffffffffff1690506002821615612bd8576080612bd3826ffff97272373d413259a46990580e213a615742565b901c90505b6004821615612c02576080612bfd826ffff2e50f5f656932ef12357cf3c7fdcc615742565b901c90505b6008821615612c2c576080612c27826fffe5caca7e10e4e61c3624eaa0941cd0615742565b901c90505b6010821615612c56576080612c51826fffcb9843d60f6159c9db58835c926644615742565b901c90505b6020821615612c80576080612c7b826fff973b41fa98c081472e6896dfb254c0615742565b901c90505b6040821615612caa576080612ca5826fff2ea16466c96a3843ec78b326b52861615742565b901c90505b6080821615612cd4576080612ccf826ffe5dee046a99a2a811c461f1969c3053615742565b901c90505b610100821615612cff576080612cfa826ffcbe86c7900a88aedcffc83b479aa3a4615742565b901c90505b610200821615612d2a576080612d25826ff987a7253ac413176f2b074cf7815e54615742565b901c90505b610400821615612d55576080612d50826ff3392b0822b70005940c7a398e4b70f3615742565b901c90505b610800821615612d80576080612d7b826fe7159475a2c29b7443b29c7fa6e889d9615742565b901c90505b611000821615612dab576080612da6826fd097f3bdfd2022b8845ad8f792aa5825615742565b901c90505b612000821615612dd6576080612dd1826fa9f746462d870fdf8a65dc1f90e061e5615742565b901c90505b614000821615612e01576080612dfc826f70d869a156d2a1b890bb3df62baf32f7615742565b901c90505b618000821615612e2c576080612e27826f31be135f97d08fd981231505542fcfa6615742565b901c90505b62010000821615612e58576080612e53826f09aa508b5b7a84e1c677de54f3e99bc9615742565b901c90505b62020000821615612e83576080612e7e826e5d6af8dedb81196699c329225ee604615742565b901c90505b62040000821615612ead576080612ea8826d2216e584f5fa1ea926041bedfe98615742565b901c90505b62080000821615612ed5576080612ed0826b048a170391f7dc42444e8fa2615742565b901c90505b60008460020b1315612ef057612eed81600019615761565b90505b612eff64010000000082615775565b15612f0b576001612f0e565b60005b612f1f9060ff16602083901c615357565b949350505050565b612f3033610f2b565b6040518060400160405280600381526020016223292160e91b815250906128a45760405162461bcd60e51b815260040161084b9190614dfd565b60606120658383604051806060016040528060278152602001615c99602791396141fd565b600061074b825490565b600081604001516001600160a01b031663ef7d80376040518163ffffffff1660e01b815260040160206040518083038186803b158015612fd857600080fd5b505afa158015612fec573d6000803e3d6000fd5b505050506040513d601f19601f82011682018060405250810190613010919061570c565b9050600082604001516001600160a01b031663dd56e5d86040518163ffffffff1660e01b815260040160206040518083038186803b15801561305157600080fd5b505afa158015613065573d6000803e3d6000fd5b505050506040513d601f19601f82011682018060405250810190613089919061523b565b604051630b02c43d60e41b8152600481018490529091506000906001600160a01b0383169063b02c43d09060240160806040518083038186803b1580156130cf57600080fd5b505afa1580156130e3573d6000803e3d6000fd5b505050506040513d601f19601f820116820180604052508101906131079190615789565b50505090508060001461317d576040808501519051630f451b7760e41b8152600481018590526001600160a01b0384811660248301529091169063f451b77090604401600060405180830381600087803b15801561316457600080fd5b505af1158015613178573d6000803e3d6000fd5b505050505b600084602001516001600160a01b031663e5328e066040518163ffffffff1660e01b815260040160006040518083038186803b1580156131bc57600080fd5b505afa1580156131d0573d6000803e3d6000fd5b505050506040513d6000823e601f3d908101601f191682016040526131f891908101906152f4565b5090506000816000815181106132105761321061518c565b6020026020010151118061323e57506000816001815181106132345761323461518c565b6020026020010151115b156132d75784602001516001600160a01b0316632062d75486604001518760600151846040518463ffffffff1660e01b815260040161327f939291906157da565b600060405180830381600087803b15801561329957600080fd5b505af11580156132ad573d6000803e3d6000fd5b505050506040513d6000823e601f3d908101601f191682016040526132d5919081019061585a565b505b811561334657604080860151905163d82f726760e01b8152600481018690526001600160a01b0385811660248301529091169063d82f726790604401600060405180830381600087803b15801561332d57600080fd5b505af1158015613341573d6000803e3d6000fd5b505050505b5050505050565b61335633610f2b565b80612f305750612f3033611bbb565b60408051808201909152600080825260208201526000856040015190506000816001600160a01b031663ef7d80376040518163ffffffff1660e01b815260040160206040518083038186803b1580156133bd57600080fd5b505afa1580156133d1573d6000803e3d6000fd5b505050506040513d601f19601f820116820180604052508101906133f5919061570c565b905080156139945760408051808201825260008082526020820152905163133f757160e31b8152600481018390526001600160a01b037f000000000000000000000000000000000000000000000000000000000000000016906399fbab88906024016101606040518083038186803b15801561347057600080fd5b505afa158015613484573d6000803e3d6000fd5b505050506040513d601f19601f820116820180604052508101906134a891906158a5565b50505050600291820b60208901525090810b80875260808d0151918c900b95506134d69450925090506150f3565b60020b131580156135005750866080015181602001516134f6919061536f565b60020b8660020b13155b8015613525575080516020820151613518919061536f565b60020b876060015160020b145b1561362457826001600160a01b03166370bb45b36040518163ffffffff1660e01b8152600401600060405180830381600087803b15801561356557600080fd5b505af1158015613579573d6000803e3d6000fd5b505050506040513d6000823e601f3d908101601f191682016040526135a1919081019061585a565b50826001600160a01b031663c27b2c2d6040518163ffffffff1660e01b8152600401600060405180830381600087803b1580156135dd57600080fd5b505af11580156135f1573d6000803e3d6000fd5b505050506040513d6000823e601f3d908101601f19168201604052613619919081019061585a565b509250612f1f915050565b826001600160a01b031663f451b77083856001600160a01b031663dd56e5d86040518163ffffffff1660e01b815260040160206040518083038186803b15801561366d57600080fd5b505afa158015613681573d6000803e3d6000fd5b505050506040513d601f19601f820116820180604052508101906136a5919061523b565b6040516001600160e01b031960e085901b16815260048101929092526001600160a01b03166024820152604401600060405180830381600087803b1580156136ec57600080fd5b505af1158015613700573d6000803e3d6000fd5b505050506000856001600160a01b031663e76c01e46040518163ffffffff1660e01b815260040160e06040518083038186803b15801561373f57600080fd5b505afa158015613753573d6000803e3d6000fd5b505050506040513d601f19601f820116820180604052508101906137779190615681565b5050505050509050600060026001600160401b0381111561379a5761379a6147cd565b6040519080825280602002602001820160405280156137c3578160200160208202803683370190505b509050846001600160a01b03166363b0e66a6040518163ffffffff1660e01b815260040160206040518083038186803b1580156137ff57600080fd5b505afa158015613813573d6000803e3d6000fd5b505050506040513d601f19601f82011682018060405250810190613837919061523b565b60405163b5ce1db960e01b8152600481018690526001600160a01b0384811660248301526001600160801b036044830152919091169063b5ce1db990606401604080518083038186803b15801561388d57600080fd5b505afa1580156138a1573d6000803e3d6000fd5b505050506040513d601f19601f820116820180604052508101906138c5919061597c565b826000815181106138d8576138d861518c565b60200260200101836001815181106138f2576138f261518c565b602090810291909101810192909252919091528a015160608b0151604051630818b5d560e21b81526001600160a01b03881692632062d754926139399286906004016157da565b600060405180830381600087803b15801561395357600080fd5b505af1158015613967573d6000803e3d6000fd5b505050506040513d6000823e601f3d908101601f1916820160405261398f919081019061585a565b505050505b61399f868686611bd5565b600290810b60208601520b8352604080516101408101909152606088015180516000926001600160a01b037f00000000000000000000000000000000000000000000000000000000000000001692639cc1a283928291908690613a0457613a0461518c565b60200260200101516001600160a01b031681526020018b60600151600181518110613a3157613a3161518c565b60200260200101516001600160a01b03168152602001876000015160020b8152602001876020015160020b81526020018a610140015181526020018a610160015181526020016000815260200160008152602001306001600160a01b031681526020016000198152506040518263ffffffff1660e01b8152600401613ab691906159a0565b608060405180830381600087803b158015613ad057600080fd5b505af1158015613ae4573d6000803e3d6000fd5b505050506040513d601f19601f82011682018060405250810190613b089190615a4b565b5050604051632142170760e11b81523060048201526001600160a01b038681166024830152604482018490529293507f0000000000000000000000000000000000000000000000000000000000000000909216916342842e0e9150606401600060405180830381600087803b158015613b8057600080fd5b505af1158015613b94573d6000803e3d6000fd5b505050507face8748d23af65e86cf543d0298345b95115752e382befe3e832eacd1508adb081604051613bc991815260200190565b60405180910390a18115613c8b57604051630852cd8d60e31b8152600481018390527f00000000000000000000000000000000000000000000000000000000000000006001600160a01b0316906342966c6890602401600060405180830381600087803b158015613c3957600080fd5b505af1158015613c4d573d6000803e3d6000fd5b505050507f65d33d8ef62a81711748bbe2a7b67aef94d1a9af04a2690d3a4dfd13d9c1d22b82604051613c8291815260200190565b60405180910390a15b505050949350505050565b6000613cb06001600160a01b03831680600160601b6128eb565b90506000613cbf848484612095565b9050600080613cd08888868661190f565b91509150866101a001518281518110613ceb57613ceb61518c565b6020026020010151811015613d035750505050612a8c565b6000606083613d9557613d1b8387600160601b6128eb565b91508960600151600081518110613d3457613d3461518c565b602002602001015189600001518a61012001518b602001518d60600151600181518110613d6357613d6361518c565b6020026020010151604051602001613d7f959493929190615a87565b6040516020818303038152906040529050613e1a565b613da483600160601b886128eb565b91508960600151600181518110613dbd57613dbd61518c565b602002602001015189602001518a61012001518b600001518d60600151600081518110613dec57613dec61518c565b6020026020010151604051602001613e08959493929190615a87565b60405160208183030381529060405290505b60006040518060a001604052808381526020018c602001516001600160a01b03168152602001426001613e4d9190615357565b8152602001858152602001613e7b858d6101800151633b9aca00613e719190615282565b633b9aca006128eb565b815250905060008b602001516001600160a01b0316632e2f4cc28d6000015163c04b8d5960e01b85604051602001613eb39190615b2a565b6040516020818303038152906040526040518463ffffffff1660e01b8152600401613ee0939291906153b7565b600060405180830381600087803b158015613efa57600080fd5b505af1158015613f0e573d6000803e3d6000fd5b505050506040513d6000823e601f3d908101601f19168201604052613f3691908101906153f4565b90507fe47c94818a08fa57483127c34e3f663971150243d5a1f25130242c281ea5023b8282806020019051810190613f6e919061570c565b604051613f7c929190615b3d565b60405180910390a1505050505050505050505050565b613f9c828261206c565b61100257613fa981614275565b613fb4836020614287565b604051602001613fc5929190615b5f565b60408051601f198184030181529082905262461bcd60e51b825261084b91600401614dfd565b613ff5828261206c565b611002576000828152602081815260408083206001600160a01b03851684529091529020805460ff1916600117905561402b3390565b6001600160a01b0316816001600160a01b0316837f2f8788117e7eff1d82e926ec794901d17c78024a50270940304540a733656f0d60405160405180910390a45050565b6000612065836001600160a01b038416614422565b61408e828261206c565b15611002576000828152602081815260408083206001600160a01b0385168085529252808320805460ff1916905551339285917ff6391f5c32d9c69d2a47ea670b442974b53935d1edc7fd64eb21e047a839171b9190a45050565b6000612065836001600160a01b038416614471565b6000614153826040518060400160405280602081526020017f5361666545524332303a206c6f772d6c6576656c2063616c6c206661696c6564815250856001600160a01b03166145649092919063ffffffff16565b90508051600014806141745750808060200190518101906141749190615bd4565b610e005760405162461bcd60e51b815260206004820152602a60248201527f5361666545524332303a204552433230206f7065726174696f6e20646964206e6044820152691bdd081cdd58d8d9595960b21b606482015260840161084b565b60008260000182815481106141ea576141ea61518c565b9060005260206000200154905092915050565b6060600080856001600160a01b03168560405161421a9190615bef565b600060405180830381855af49150503d8060008114614255576040519150601f19603f3d011682016040523d82523d6000602084013e61425a565b606091505b509150915061426b86838387614573565b9695505050505050565b606061074b6001600160a01b03831660145b60606000614296836002615742565b6142a1906002615357565b6001600160401b038111156142b8576142b86147cd565b6040519080825280601f01601f1916602001820160405280156142e2576020820181803683370190505b509050600360fc1b816000815181106142fd576142fd61518c565b60200101906001600160f81b031916908160001a905350600f60fb1b8160018151811061432c5761432c61518c565b60200101906001600160f81b031916908160001a9053506000614350846002615742565b61435b906001615357565b90505b60018111156143d3576f181899199a1a9b1b9c1cb0b131b232b360811b85600f166010811061438f5761438f61518c565b1a60f81b8282815181106143a5576143a561518c565b60200101906001600160f81b031916908160001a90535060049490941c936143cc81615c0b565b905061435e565b5083156120655760405162461bcd60e51b815260206004820181905260248201527f537472696e67733a20686578206c656e67746820696e73756666696369656e74604482015260640161084b565b60008181526001830160205260408120546144695750815460018181018455600084815260208082209093018490558454848252828601909352604090209190915561074b565b50600061074b565b6000818152600183016020526040812054801561455a576000614495600183615282565b85549091506000906144a990600190615282565b905081811461450e5760008660000182815481106144c9576144c961518c565b90600052602060002001549050808760000184815481106144ec576144ec61518c565b6000918252602080832090910192909255918252600188019052604090208390555b855486908061451f5761451f615c22565b60019003818190600052602060002001600090559055856001016000868152602001908152602001600020600090556001935050505061074b565b600091505061074b565b6060612f1f84846000856145e9565b606083156145df5782516145d8576001600160a01b0385163b6145d85760405162461bcd60e51b815260206004820152601d60248201527f416464726573733a2063616c6c20746f206e6f6e2d636f6e7472616374000000604482015260640161084b565b5081612f1f565b612f1f83836146c4565b60608247101561464a5760405162461bcd60e51b815260206004820152602660248201527f416464726573733a20696e73756666696369656e742062616c616e636520666f6044820152651c8818d85b1b60d21b606482015260840161084b565b600080866001600160a01b031685876040516146669190615bef565b60006040518083038185875af1925050503d80600081146146a3576040519150601f19603f3d011682016040523d82523d6000602084013e6146a8565b606091505b50915091506146b987838387614573565b979650505050505050565b8151156146d45781518083602001fd5b8060405162461bcd60e51b815260040161084b9190614dfd565b828054828255906000526020600020908101928215614743579160200282015b8281111561474357825182546001600160a01b0319166001600160a01b0390911617825560209092019160019091019061470e565b5061474f92915061478e565b5090565b828054828255906000526020600020908101928215614743579160200282015b82811115614743578251825591602001919060010190614773565b5b8082111561474f576000815560010161478f565b6000602082840312156147b557600080fd5b81356001600160e01b03198116811461206557600080fd5b634e487b7160e01b600052604160045260246000fd5b6040516101c081016001600160401b0381118282101715614806576148066147cd565b60405290565b604051608081016001600160401b0381118282101715614806576148066147cd565b604051601f8201601f191681016001600160401b0381118282101715614856576148566147cd565b604052919050565b803562ffffff8116811461487157600080fd5b919050565b8060020b81146128a457600080fd5b803561487181614876565b63ffffffff811681146128a457600080fd5b803561487181614890565b6001600160a01b03811681146128a457600080fd5b8035614871816148ad565b60006001600160401b038211156148e6576148e66147cd565b5060051b60200190565b600082601f83011261490157600080fd5b81356020614916614911836148cd565b61482e565b82815260059290921b8401810191818101908684111561493557600080fd5b8286015b848110156149505780358352918301918301614939565b509695505050505050565b60006101c0828403121561496e57600080fd5b6149766147e3565b90506149818261485e565b815261498f6020830161485e565b60208201526149a060408301614885565b60408201526149b160608301614885565b60608201526149c260808301614885565b60808201526149d360a08301614885565b60a08201526149e460c08301614885565b60c08201526149f560e08301614885565b60e0820152610100614a088184016148a2565b90820152610120614a1a8382016148c2565b908201526101408281013590820152610160808301359082015261018080830135908201526101a0808301356001600160401b03811115614a5a57600080fd5b614a66858286016148f0565b82840152505092915050565b600060208284031215614a8457600080fd5b81356001600160401b03811115614a9a57600080fd5b612f1f8482850161495b565b600060208284031215614ab857600080fd5b8135612065816148ad565b600060208284031215614ad557600080fd5b5035919050565b60008060408385031215614aef57600080fd5b823591506020830135614b01816148ad565b809150509250929050565b600060808284031215614b1e57600080fd5b614b2661480c565b90508135614b33816148ad565b8152602082810135614b44816148ad565b828201526040830135614b56816148ad565b604083015260608301356001600160401b03811115614b7457600080fd5b8301601f81018513614b8557600080fd5b8035614b93614911826148cd565b81815260059190911b82018301908381019087831115614bb257600080fd5b928401925b82841015614bd9578335614bca816148ad565b82529284019290840190614bb7565b6060860152509295945050505050565b600060208284031215614bfb57600080fd5b81356001600160401b03811115614c1157600080fd5b612f1f84828501614b0c565b600080600060608486031215614c3257600080fd5b83356001600160401b0380821115614c4957600080fd5b614c5587838801614b0c565b94506020860135915080821115614c6b57600080fd5b50614c788682870161495b565b9250506040840135614c89816148ad565b809150509250925092565b60008060008060808587031215614caa57600080fd5b84356001600160401b0380821115614cc157600080fd5b614ccd88838901614b0c565b95506020870135915080821115614ce357600080fd5b50614cf08782880161495b565b949794965050505060408301359260600135919050565b600080600060608486031215614d1c57600080fd5b83356001600160401b03811115614d3257600080fd5b614d3e8682870161495b565b9350506020840135614d4f81614876565b91506040840135614c89816148ad565b60008060408385031215614d7257600080fd5b82356001600160401b03811115614d8857600080fd5b614d9485828601614b0c565b9250506020830135614b01816148ad565b60005b83811015614dc0578181015183820152602001614da8565b83811115612a8c5750506000910152565b60008151808452614de9816020860160208601614da5565b601f01601f19169290920160200192915050565b6020815260006120656020830184614dd1565b60008060408385031215614e2357600080fd5b50508035926020909101359150565b60008060008385036080811215614e4857600080fd5b6040811215614e5657600080fd5b50604051604081018181106001600160401b0382111715614e7957614e796147cd565b6040528435614e8781614876565b81526020850135614e9781614876565b602082015292506040840135614eac816148ad565b929592945050506060919091013590565b60008060208385031215614ed057600080fd5b82356001600160401b0380821115614ee757600080fd5b818501915085601f830112614efb57600080fd5b813581811115614f0a57600080fd5b8660208260051b8501011115614f1f57600080fd5b60209290920196919550909350505050565b6000602080830181845280855180835260408601915060408160051b870101925083870160005b82811015614f8657603f19888603018452614f74858351614dd1565b94509285019290850190600101614f58565b5092979650505050505050565b805161487181614876565b600060208284031215614fb057600080fd5b815161206581614876565b634e487b7160e01b600052601160045260246000fd5b60008160020b8360020b627fffff600082136000841383830485118282161615614ffd57614ffd614fbb565b627fffff19600085128281168783058712161561501c5761501c614fbb565b6000871292508582058712848416161561503857615038614fbb565b8585058712818416161561504e5761504e614fbb565b5050509290910295945050505050565b634e487b7160e01b600052601260045260246000fd5b60008260020b806150875761508761505e565b808360020b0791505092915050565b60008160020b627fffff198114156150b0576150b0614fbb565b60000392915050565b60008160020b8360020b806150d0576150d061505e565b627fffff198214600019821416156150ea576150ea614fbb565b90059392505050565b60008160020b8360020b6000821282627fffff0382138115161561511957615119614fbb565b82627fffff1903821281161561513157615131614fbb565b50019392505050565b600062ffffff80831681851680830382111561515857615158614fbb565b01949350505050565b600062ffffff8083168185168183048111821515161561518357615183614fbb565b02949350505050565b634e487b7160e01b600052603260045260246000fd5b8051614871816148ad565b600060208083850312156151c057600080fd5b82516001600160401b038111156151d657600080fd5b8301601f810185136151e757600080fd5b80516151f5614911826148cd565b81815260059190911b8201830190838101908783111561521457600080fd5b928401925b828410156146b957835161522c816148ad565b82529284019290840190615219565b60006020828403121561524d57600080fd5b8151612065816148ad565b6001600160a01b0393909316835260029190910b602083015263ffffffff16604082015260600190565b60008282101561529457615294614fbb565b500390565b600082601f8301126152aa57600080fd5b815160206152ba614911836148cd565b82815260059290921b840181019181810190868411156152d957600080fd5b8286015b8481101561495057805183529183019183016152dd565b6000806040838503121561530757600080fd5b82516001600160401b038082111561531e57600080fd5b61532a86838701615299565b9350602085015191508082111561534057600080fd5b5061534d85828601615299565b9150509250929050565b6000821982111561536a5761536a614fbb565b500190565b60008160020b8360020b6000811281627fffff190183128115161561539657615396614fbb565b81627fffff0183138116156153ad576153ad614fbb565b5090039392505050565b6001600160a01b03841681526001600160e01b0319831660208201526060604082018190526000906153eb90830184614dd1565b95945050505050565b60006020828403121561540657600080fd5b81516001600160401b038082111561541d57600080fd5b818401915084601f83011261543157600080fd5b815181811115615443576154436147cd565b615456601f8201601f191660200161482e565b915080825285602082850101111561546d57600080fd5b61547e816020840160208601614da5565b50949350505050565b600060001982141561549b5761549b614fbb565b5060010190565b600081518084526020808501945080840160005b838110156154d2578151875295820195908201906001016154b6565b509495945050505050565b602081526154f360208201835162ffffff169052565b6000602083015161550b604084018262ffffff169052565b506040830151615520606084018260020b9052565b506060830151615535608084018260020b9052565b50608083015161554a60a084018260020b9052565b5060a083015161555f60c084018260020b9052565b5060c083015161557460e084018260020b9052565b5060e083015161010061558b8185018360020b9052565b84015190506101206155a48482018363ffffffff169052565b84015190506101406155c0848201836001600160a01b03169052565b84015161016084810191909152840151610180808501919091528401516101a0808501919091528401516101c0808501529050612f1f6101e08401826154a2565b6000808335601e1984360301811261561857600080fd5b8301803591506001600160401b0382111561563257600080fd5b60200191503681900382131561564757600080fd5b9250929050565b805161ffff8116811461487157600080fd5b805160ff8116811461487157600080fd5b8051801515811461487157600080fd5b600080600080600080600060e0888a03121561569c57600080fd5b87516156a7816148ad565b60208901519097506156b881614876565b95506156c66040890161564e565b94506156d46060890161564e565b93506156e260808901615660565b92506156f060a08901615660565b91506156fe60c08901615671565b905092959891949750929550565b60006020828403121561571e57600080fd5b5051919050565b6000600160ff1b82141561573b5761573b614fbb565b5060000390565b600081600019048311821515161561575c5761575c614fbb565b500290565b6000826157705761577061505e565b500490565b6000826157845761578461505e565b500690565b6000806000806080858703121561579f57600080fd5b8451935060208501516157b181614890565b92506157bf60408601615671565b915060608501516157cf816148ad565b939692955090935050565b6001600160a01b0384811682526080602080840182905285519184018290526000928682019290919060a0860190855b8181101561582857855185168352948301949183019160010161580a565b5050858103604087015261583c81886154a2565b86810360609097019690965250600085529093019695505050505050565b60006020828403121561586c57600080fd5b81516001600160401b0381111561588257600080fd5b612f1f84828501615299565b80516001600160801b038116811461487157600080fd5b60008060008060008060008060008060006101608c8e0312156158c757600080fd5b8b516bffffffffffffffffffffffff811681146158e357600080fd5b60208d0151909b506158f4816148ad565b60408d0151909a50615905816148ad565b985061591360608d016151a2565b975061592160808d01614f93565b965061592f60a08d01614f93565b955061593d60c08d0161588e565b945060e08c015193506101008c0151925061595b6101208d0161588e565b915061596a6101408d0161588e565b90509295989b509295989b9093969950565b6000806040838503121561598f57600080fd5b505080516020909101519092909150565b81516001600160a01b03168152610140810160208301516159cc60208401826001600160a01b03169052565b5060408301516159e1604084018260020b9052565b5060608301516159f6606084018260020b9052565b506080830151608083015260a083015160a083015260c083015160c083015260e083015160e083015261010080840151615a3a828501826001600160a01b03169052565b505061012092830151919092015290565b60008060008060808587031215615a6157600080fd5b84519350615a716020860161588e565b6040860151606090960151949790965092505050565b6bffffffffffffffffffffffff19606096871b811682526001600160e81b031960e896871b8116601484015294871b811660178301529290941b909216602b840152921b909116602e82015260420190565b6000815160a08452615aee60a0850182614dd1565b6020848101516001600160a01b031690860152604080850151908601526060808501519086015260809384015193909401929092525090919050565b6020815260006120656020830184615ad9565b604081526000615b506040830185615ad9565b90508260208301529392505050565b7f416363657373436f6e74726f6c3a206163636f756e7420000000000000000000815260008351615b97816017850160208801614da5565b7001034b99036b4b9b9b4b733903937b6329607d1b6017918401918201528351615bc8816028840160208801614da5565b01602801949350505050565b600060208284031215615be657600080fd5b61206582615671565b60008251615c01818460208701614da5565b9190910192915050565b600081615c1a57615c1a614fbb565b506000190190565b634e487b7160e01b600052603160045260246000fdfec171260023d22a25a00a2789664c9334017843b831138c8ef03cc8897e5873d7f23ec0bb4210edd5cba85afd05127efcd2fc6a781bfed49188da1081670b22d846a52cf33029de9f84853745a87af28464c80bf0346df1b32e205fc73319f622416464726573733a206c6f772d6c6576656c2064656c65676174652063616c6c206661696c6564a26469706673582212207eefe226465bf0b715cb538de83c3dc850d508492b3249ea9b7b523a9c570c4b64736f6c63430008090033",
    "linkReferences": {}
  },
  "methodIdentifiers": {
    "ADMIN_DELEGATE_ROLE()": "0952ff54",
    "ADMIN_ROLE()": "75b238fc",
    "D6()": "a11bac74",
    "DEFAULT_ADMIN_ROLE()": "a217fddf",
    "DENOMINATOR()": "918f8674",
    "MAX_MINTING_PARAMS()": "e3b3f799",
    "OPERATOR()": "983d2737",
    "Q96()": "40792465",
    "algebraPool()": "9f747b20",
    "algebraPositionManager()": "962892ea",
    "calculateAmountsForSwap((address,address,address,address[]),(uint24,uint24,int24,int24,int24,int24,int24,int24,uint32,address,uint256,uint256,uint256,uint256[]),uint256,uint256)": "52f344d0",
    "calculateNewInterval((uint24,uint24,int24,int24,int24,int24,int24,int24,uint32,address,uint256,uint256,uint256,uint256[]),int24,address)": "6f259f10",
    "calculateTargetRatioOfToken1((int24,int24),uint160,uint256)": "9bb37ba8",
    "checkImmutableParams((address,address,address,address[]))": "475cffef",
    "checkMutableParams((uint24,uint24,int24,int24,int24,int24,int24,int24,uint32,address,uint256,uint256,uint256,uint256[]))": "0ddd8329",
    "checkTickDeviations((address,address,address,address[]),(uint24,uint24,int24,int24,int24,int24,int24,int24,uint32,address,uint256,uint256,uint256,uint256[]),address)": "4c41466a",
    "contractName()": "75d0c0dc",
    "contractNameBytes()": "0e3e80ac",
    "contractVersion()": "a0a8e460",
    "contractVersionBytes()": "06a46239",
    "depositCallback()": "e521826f",
    "getRoleAdmin(bytes32)": "248a9ca3",
    "getRoleMember(bytes32,uint256)": "9010d07c",
    "getRoleMemberCount(bytes32)": "ca15c873",
    "grantRole(bytes32,address)": "2f2ff15d",
    "hasRole(bytes32,address)": "91d14854",
    "helper()": "63b0e66a",
    "immutableParams()": "c8014d53",
    "init(address)": "19ab453c",
    "initialize((address,address,address,address[]),address)": "6ff0b358",
    "initialized()": "158ef93e",
    "isAdmin(address)": "24d7806c",
    "isOperator(address)": "6d70f7ae",
    "multicall(bytes[])": "ac9650d8",
    "mutableParams()": "5f408a21",
    "rebalance(uint256)": "f4993018",
    "renounceRole(bytes32,address)": "36568abe",
    "revokeRole(bytes32,address)": "d547741f",
    "supportsInterface(bytes4)": "01ffc9a7",
    "uniswapV3Factory()": "5b549182",
    "updateMutableParams((uint24,uint24,int24,int24,int24,int24,int24,int24,uint32,address,uint256,uint256,uint256,uint256[]))": "a4b7e9df",
    "withdrawCallback()": "b4559f3e"
  },
  "id": 402
}