{
  "abi": [
    {
      "inputs": [
        {
          "internalType": "contract IBasePositionManager",
          "name": "positionManager_",
          "type": "address"
        }
      ],
      "stateMutability": "nonpayable",
      "type": "constructor"
    },
    {
      "anonymous": false,
      "inputs": [
        {
          "indexed": false,
          "internalType": "uint256",
          "name": "tokenId",
          "type": "uint256"
        }
      ],
      "name": "PositionBurned",
      "type": "event"
    },
    {
      "anonymous": false,
      "inputs": [
        {
          "indexed": false,
          "internalType": "uint256",
          "name": "tokenId",
          "type": "uint256"
        }
      ],
      "name": "PositionMinted",
      "type": "event"
    },
    {
      "anonymous": false,
      "inputs": [
        {
          "indexed": true,
          "internalType": "address",
          "name": "origin",
          "type": "address"
        },
        {
          "indexed": true,
          "internalType": "address",
          "name": "sender",
          "type": "address"
        }
      ],
      "name": "Rebalance",
      "type": "event"
    },
    {
      "anonymous": false,
      "inputs": [
        {
          "indexed": true,
          "internalType": "bytes32",
          "name": "role",
          "type": "bytes32"
        },
        {
          "indexed": true,
          "internalType": "bytes32",
          "name": "previousAdminRole",
          "type": "bytes32"
        },
        {
          "indexed": true,
          "internalType": "bytes32",
          "name": "newAdminRole",
          "type": "bytes32"
        }
      ],
      "name": "RoleAdminChanged",
      "type": "event"
    },
    {
      "anonymous": false,
      "inputs": [
        {
          "indexed": true,
          "internalType": "bytes32",
          "name": "role",
          "type": "bytes32"
        },
        {
          "indexed": true,
          "internalType": "address",
          "name": "account",
          "type": "address"
        },
        {
          "indexed": true,
          "internalType": "address",
          "name": "sender",
          "type": "address"
        }
      ],
      "name": "RoleGranted",
      "type": "event"
    },
    {
      "anonymous": false,
      "inputs": [
        {
          "indexed": true,
          "internalType": "bytes32",
          "name": "role",
          "type": "bytes32"
        },
        {
          "indexed": true,
          "internalType": "address",
          "name": "account",
          "type": "address"
        },
        {
          "indexed": true,
          "internalType": "address",
          "name": "sender",
          "type": "address"
        }
      ],
      "name": "RoleRevoked",
      "type": "event"
    },
    {
      "anonymous": false,
      "inputs": [
        {
          "indexed": false,
          "internalType": "uint256",
          "name": "amountIn",
          "type": "uint256"
        },
        {
          "indexed": false,
          "internalType": "uint256",
          "name": "amountOut",
          "type": "uint256"
        },
        {
          "indexed": false,
          "internalType": "uint256",
          "name": "tokenInIndex",
          "type": "uint256"
        }
      ],
      "name": "TokensSwapped",
      "type": "event"
    },
    {
      "anonymous": false,
      "inputs": [
        {
          "indexed": true,
          "internalType": "address",
          "name": "origin",
          "type": "address"
        },
        {
          "indexed": true,
          "internalType": "address",
          "name": "sender",
          "type": "address"
        },
        {
          "components": [
            {
              "internalType": "int24",
              "name": "priceImpactD6",
              "type": "int24"
            },
            {
              "internalType": "int24",
              "name": "defaultIntervalWidth",
              "type": "int24"
            },
            {
              "internalType": "int24",
              "name": "maxPositionLengthInTicks",
              "type": "int24"
            },
            {
              "internalType": "int24",
              "name": "maxDeviationForVaultPool",
              "type": "int24"
            },
            {
              "internalType": "uint32",
              "name": "timespanForAverageTick",
              "type": "uint32"
            },
            {
              "internalType": "uint256",
              "name": "neighborhoodFactorD",
              "type": "uint256"
            },
            {
              "internalType": "uint256",
              "name": "extensionFactorD",
              "type": "uint256"
            },
            {
              "internalType": "uint256",
              "name": "swapSlippageD",
              "type": "uint256"
            },
            {
              "internalType": "uint256",
              "name": "swappingAmountsCoefficientD",
              "type": "uint256"
            },
            {
              "internalType": "uint256[]",
              "name": "minSwapAmounts",
              "type": "uint256[]"
            }
          ],
          "indexed": false,
          "internalType": "struct KyberPulseStrategyV2.MutableParams",
          "name": "mutableParams",
          "type": "tuple"
        }
      ],
      "name": "UpdateMutableParams",
      "type": "event"
    },
    {
      "inputs": [],
      "name": "ADMIN_DELEGATE_ROLE",
      "outputs": [
        {
          "internalType": "bytes32",
          "name": "",
          "type": "bytes32"
        }
      ],
      "stateMutability": "view",
      "type": "function"
    },
    {
      "inputs": [],
      "name": "ADMIN_ROLE",
      "outputs": [
        {
          "internalType": "bytes32",
          "name": "",
          "type": "bytes32"
        }
      ],
      "stateMutability": "view",
      "type": "function"
    },
    {
      "inputs": [],
      "name": "D6",
      "outputs": [
        {
          "internalType": "uint256",
          "name": "",
          "type": "uint256"
        }
      ],
      "stateMutability": "view",
      "type": "function"
    },
    {
      "inputs": [],
      "name": "D9",
      "outputs": [
        {
          "internalType": "uint256",
          "name": "",
          "type": "uint256"
        }
      ],
      "stateMutability": "view",
      "type": "function"
    },
    {
      "inputs": [],
      "name": "DEFAULT_ADMIN_ROLE",
      "outputs": [
        {
          "internalType": "bytes32",
          "name": "",
          "type": "bytes32"
        }
      ],
      "stateMutability": "view",
      "type": "function"
    },
    {
      "inputs": [],
      "name": "OPERATOR",
      "outputs": [
        {
          "internalType": "bytes32",
          "name": "",
          "type": "bytes32"
        }
      ],
      "stateMutability": "view",
      "type": "function"
    },
    {
      "inputs": [],
      "name": "Q96",
      "outputs": [
        {
          "internalType": "uint256",
          "name": "",
          "type": "uint256"
        }
      ],
      "stateMutability": "view",
      "type": "function"
    },
    {
      "inputs": [
        {
          "components": [
            {
              "internalType": "address",
              "name": "router",
              "type": "address"
            },
            {
              "internalType": "contract IERC20Vault",
              "name": "erc20Vault",
              "type": "address"
            },
            {
              "internalType": "contract IKyberVault",
              "name": "kyberVault",
              "type": "address"
            },
            {
              "internalType": "contract IOracle",
              "name": "mellowOracle",
              "type": "address"
            },
            {
              "internalType": "address[]",
              "name": "tokens",
              "type": "address[]"
            }
          ],
          "internalType": "struct KyberPulseStrategyV2.ImmutableParams",
          "name": "immutableParams_",
          "type": "tuple"
        },
        {
          "components": [
            {
              "internalType": "int24",
              "name": "priceImpactD6",
              "type": "int24"
            },
            {
              "internalType": "int24",
              "name": "defaultIntervalWidth",
              "type": "int24"
            },
            {
              "internalType": "int24",
              "name": "maxPositionLengthInTicks",
              "type": "int24"
            },
            {
              "internalType": "int24",
              "name": "maxDeviationForVaultPool",
              "type": "int24"
            },
            {
              "internalType": "uint32",
              "name": "timespanForAverageTick",
              "type": "uint32"
            },
            {
              "internalType": "uint256",
              "name": "neighborhoodFactorD",
              "type": "uint256"
            },
            {
              "internalType": "uint256",
              "name": "extensionFactorD",
              "type": "uint256"
            },
            {
              "internalType": "uint256",
              "name": "swapSlippageD",
              "type": "uint256"
            },
            {
              "internalType": "uint256",
              "name": "swappingAmountsCoefficientD",
              "type": "uint256"
            },
            {
              "internalType": "uint256[]",
              "name": "minSwapAmounts",
              "type": "uint256[]"
            }
          ],
          "internalType": "struct KyberPulseStrategyV2.MutableParams",
          "name": "mutableParams_",
          "type": "tuple"
        },
        {
          "internalType": "uint256",
          "name": "priceX96",
          "type": "uint256"
        },
        {
          "internalType": "uint256",
          "name": "targetRatioOfToken1X96",
          "type": "uint256"
        }
      ],
      "name": "calculateAmountsForSwap",
      "outputs": [
        {
          "internalType": "uint256",
          "name": "tokenInIndex",
          "type": "uint256"
        },
        {
          "internalType": "uint256",
          "name": "amountIn",
          "type": "uint256"
        }
      ],
      "stateMutability": "view",
      "type": "function"
    },
    {
      "inputs": [
        {
          "components": [
            {
              "internalType": "int24",
              "name": "priceImpactD6",
              "type": "int24"
            },
            {
              "internalType": "int24",
              "name": "defaultIntervalWidth",
              "type": "int24"
            },
            {
              "internalType": "int24",
              "name": "maxPositionLengthInTicks",
              "type": "int24"
            },
            {
              "internalType": "int24",
              "name": "maxDeviationForVaultPool",
              "type": "int24"
            },
            {
              "internalType": "uint32",
              "name": "timespanForAverageTick",
              "type": "uint32"
            },
            {
              "internalType": "uint256",
              "name": "neighborhoodFactorD",
              "type": "uint256"
            },
            {
              "internalType": "uint256",
              "name": "extensionFactorD",
              "type": "uint256"
            },
            {
              "internalType": "uint256",
              "name": "swapSlippageD",
              "type": "uint256"
            },
            {
              "internalType": "uint256",
              "name": "swappingAmountsCoefficientD",
              "type": "uint256"
            },
            {
              "internalType": "uint256[]",
              "name": "minSwapAmounts",
              "type": "uint256[]"
            }
          ],
          "internalType": "struct KyberPulseStrategyV2.MutableParams",
          "name": "mutableParams_",
          "type": "tuple"
        },
        {
          "internalType": "int24",
          "name": "spotTick",
          "type": "int24"
        },
        {
          "internalType": "contract IPool",
          "name": "pool",
          "type": "address"
        },
        {
          "internalType": "uint256",
          "name": "kyberNft",
          "type": "uint256"
        }
      ],
      "name": "calculateNewPosition",
      "outputs": [
        {
          "components": [
            {
              "internalType": "int24",
              "name": "lowerTick",
              "type": "int24"
            },
            {
              "internalType": "int24",
              "name": "upperTick",
              "type": "int24"
            }
          ],
          "internalType": "struct KyberPulseStrategyV2.Interval",
          "name": "newInterval",
          "type": "tuple"
        },
        {
          "internalType": "bool",
          "name": "neededNewInterval",
          "type": "bool"
        }
      ],
      "stateMutability": "view",
      "type": "function"
    },
    {
      "inputs": [
        {
          "components": [
            {
              "internalType": "int24",
              "name": "lowerTick",
              "type": "int24"
            },
            {
              "internalType": "int24",
              "name": "upperTick",
              "type": "int24"
            }
          ],
          "internalType": "struct KyberPulseStrategyV2.Interval",
          "name": "interval",
          "type": "tuple"
        },
        {
          "internalType": "uint160",
          "name": "sqrtSpotPriceX96",
          "type": "uint160"
        },
        {
          "internalType": "uint256",
          "name": "spotPriceX96",
          "type": "uint256"
        }
      ],
      "name": "calculateTargetRatioOfToken1",
      "outputs": [
        {
          "internalType": "uint256",
          "name": "targetRatioOfToken1X96",
          "type": "uint256"
        }
      ],
      "stateMutability": "pure",
      "type": "function"
    },
    {
      "inputs": [
        {
          "components": [
            {
              "internalType": "address",
              "name": "router",
              "type": "address"
            },
            {
              "internalType": "contract IERC20Vault",
              "name": "erc20Vault",
              "type": "address"
            },
            {
              "internalType": "contract IKyberVault",
              "name": "kyberVault",
              "type": "address"
            },
            {
              "internalType": "contract IOracle",
              "name": "mellowOracle",
              "type": "address"
            },
            {
              "internalType": "address[]",
              "name": "tokens",
              "type": "address[]"
            }
          ],
          "internalType": "struct KyberPulseStrategyV2.ImmutableParams",
          "name": "params",
          "type": "tuple"
        }
      ],
      "name": "checkImmutableParams",
      "outputs": [],
      "stateMutability": "view",
      "type": "function"
    },
    {
      "inputs": [
        {
          "components": [
            {
              "internalType": "int24",
              "name": "priceImpactD6",
              "type": "int24"
            },
            {
              "internalType": "int24",
              "name": "defaultIntervalWidth",
              "type": "int24"
            },
            {
              "internalType": "int24",
              "name": "maxPositionLengthInTicks",
              "type": "int24"
            },
            {
              "internalType": "int24",
              "name": "maxDeviationForVaultPool",
              "type": "int24"
            },
            {
              "internalType": "uint32",
              "name": "timespanForAverageTick",
              "type": "uint32"
            },
            {
              "internalType": "uint256",
              "name": "neighborhoodFactorD",
              "type": "uint256"
            },
            {
              "internalType": "uint256",
              "name": "extensionFactorD",
              "type": "uint256"
            },
            {
              "internalType": "uint256",
              "name": "swapSlippageD",
              "type": "uint256"
            },
            {
              "internalType": "uint256",
              "name": "swappingAmountsCoefficientD",
              "type": "uint256"
            },
            {
              "internalType": "uint256[]",
              "name": "minSwapAmounts",
              "type": "uint256[]"
            }
          ],
          "internalType": "struct KyberPulseStrategyV2.MutableParams",
          "name": "params",
          "type": "tuple"
        },
        {
          "components": [
            {
              "internalType": "address",
              "name": "router",
              "type": "address"
            },
            {
              "internalType": "contract IERC20Vault",
              "name": "erc20Vault",
              "type": "address"
            },
            {
              "internalType": "contract IKyberVault",
              "name": "kyberVault",
              "type": "address"
            },
            {
              "internalType": "contract IOracle",
              "name": "mellowOracle",
              "type": "address"
            },
            {
              "internalType": "address[]",
              "name": "tokens",
              "type": "address[]"
            }
          ],
          "internalType": "struct KyberPulseStrategyV2.ImmutableParams",
          "name": "immutableParams_",
          "type": "tuple"
        }
      ],
      "name": "checkMutableParams",
      "outputs": [],
      "stateMutability": "view",
      "type": "function"
    },
    {
      "inputs": [
        {
          "components": [
            {
              "internalType": "address",
              "name": "router",
              "type": "address"
            },
            {
              "internalType": "contract IERC20Vault",
              "name": "erc20Vault",
              "type": "address"
            },
            {
              "internalType": "contract IKyberVault",
              "name": "kyberVault",
              "type": "address"
            },
            {
              "internalType": "contract IOracle",
              "name": "mellowOracle",
              "type": "address"
            },
            {
              "internalType": "address[]",
              "name": "tokens",
              "type": "address[]"
            }
          ],
          "internalType": "struct KyberPulseStrategyV2.ImmutableParams",
          "name": "immutableParams_",
          "type": "tuple"
        },
        {
          "components": [
            {
              "internalType": "int24",
              "name": "priceImpactD6",
              "type": "int24"
            },
            {
              "internalType": "int24",
              "name": "defaultIntervalWidth",
              "type": "int24"
            },
            {
              "internalType": "int24",
              "name": "maxPositionLengthInTicks",
              "type": "int24"
            },
            {
              "internalType": "int24",
              "name": "maxDeviationForVaultPool",
              "type": "int24"
            },
            {
              "internalType": "uint32",
              "name": "timespanForAverageTick",
              "type": "uint32"
            },
            {
              "internalType": "uint256",
              "name": "neighborhoodFactorD",
              "type": "uint256"
            },
            {
              "internalType": "uint256",
              "name": "extensionFactorD",
              "type": "uint256"
            },
            {
              "internalType": "uint256",
              "name": "swapSlippageD",
              "type": "uint256"
            },
            {
              "internalType": "uint256",
              "name": "swappingAmountsCoefficientD",
              "type": "uint256"
            },
            {
              "internalType": "uint256[]",
              "name": "minSwapAmounts",
              "type": "uint256[]"
            }
          ],
          "internalType": "struct KyberPulseStrategyV2.MutableParams",
          "name": "mutableParams_",
          "type": "tuple"
        },
        {
          "internalType": "contract IPool",
          "name": "vaultPool",
          "type": "address"
        }
      ],
      "name": "checkTickDeviation",
      "outputs": [],
      "stateMutability": "view",
      "type": "function"
    },
    {
      "inputs": [],
      "name": "contractName",
      "outputs": [
        {
          "internalType": "string",
          "name": "",
          "type": "string"
        }
      ],
      "stateMutability": "pure",
      "type": "function"
    },
    {
      "inputs": [],
      "name": "contractNameBytes",
      "outputs": [
        {
          "internalType": "bytes32",
          "name": "",
          "type": "bytes32"
        }
      ],
      "stateMutability": "pure",
      "type": "function"
    },
    {
      "inputs": [],
      "name": "contractVersion",
      "outputs": [
        {
          "internalType": "string",
          "name": "",
          "type": "string"
        }
      ],
      "stateMutability": "pure",
      "type": "function"
    },
    {
      "inputs": [],
      "name": "contractVersionBytes",
      "outputs": [
        {
          "internalType": "bytes32",
          "name": "",
          "type": "bytes32"
        }
      ],
      "stateMutability": "pure",
      "type": "function"
    },
    {
      "inputs": [],
      "name": "depositCallback",
      "outputs": [],
      "stateMutability": "nonpayable",
      "type": "function"
    },
    {
      "inputs": [],
      "name": "desiredAmounts",
      "outputs": [
        {
          "internalType": "uint256",
          "name": "amount0Desired",
          "type": "uint256"
        },
        {
          "internalType": "uint256",
          "name": "amount1Desired",
          "type": "uint256"
        }
      ],
      "stateMutability": "view",
      "type": "function"
    },
    {
      "inputs": [],
      "name": "forceRebalanceWidthFlag",
      "outputs": [
        {
          "internalType": "bool",
          "name": "",
          "type": "bool"
        }
      ],
      "stateMutability": "view",
      "type": "function"
    },
    {
      "inputs": [
        {
          "components": [
            {
              "internalType": "int24",
              "name": "priceImpactD6",
              "type": "int24"
            },
            {
              "internalType": "int24",
              "name": "defaultIntervalWidth",
              "type": "int24"
            },
            {
              "internalType": "int24",
              "name": "maxPositionLengthInTicks",
              "type": "int24"
            },
            {
              "internalType": "int24",
              "name": "maxDeviationForVaultPool",
              "type": "int24"
            },
            {
              "internalType": "uint32",
              "name": "timespanForAverageTick",
              "type": "uint32"
            },
            {
              "internalType": "uint256",
              "name": "neighborhoodFactorD",
              "type": "uint256"
            },
            {
              "internalType": "uint256",
              "name": "extensionFactorD",
              "type": "uint256"
            },
            {
              "internalType": "uint256",
              "name": "swapSlippageD",
              "type": "uint256"
            },
            {
              "internalType": "uint256",
              "name": "swappingAmountsCoefficientD",
              "type": "uint256"
            },
            {
              "internalType": "uint256[]",
              "name": "minSwapAmounts",
              "type": "uint256[]"
            }
          ],
          "internalType": "struct KyberPulseStrategyV2.MutableParams",
          "name": "mutableParams_",
          "type": "tuple"
        },
        {
          "internalType": "int24",
          "name": "spotTick",
          "type": "int24"
        },
        {
          "internalType": "int24",
          "name": "tickSpacing",
          "type": "int24"
        }
      ],
      "name": "formPositionWithSpotTickInCenter",
      "outputs": [
        {
          "components": [
            {
              "internalType": "int24",
              "name": "lowerTick",
              "type": "int24"
            },
            {
              "internalType": "int24",
              "name": "upperTick",
              "type": "int24"
            }
          ],
          "internalType": "struct KyberPulseStrategyV2.Interval",
          "name": "newInterval",
          "type": "tuple"
        }
      ],
      "stateMutability": "pure",
      "type": "function"
    },
    {
      "inputs": [
        {
          "internalType": "bytes32",
          "name": "role",
          "type": "bytes32"
        }
      ],
      "name": "getRoleAdmin",
      "outputs": [
        {
          "internalType": "bytes32",
          "name": "",
          "type": "bytes32"
        }
      ],
      "stateMutability": "view",
      "type": "function"
    },
    {
      "inputs": [
        {
          "internalType": "bytes32",
          "name": "role",
          "type": "bytes32"
        },
        {
          "internalType": "uint256",
          "name": "index",
          "type": "uint256"
        }
      ],
      "name": "getRoleMember",
      "outputs": [
        {
          "internalType": "address",
          "name": "",
          "type": "address"
        }
      ],
      "stateMutability": "view",
      "type": "function"
    },
    {
      "inputs": [
        {
          "internalType": "bytes32",
          "name": "role",
          "type": "bytes32"
        }
      ],
      "name": "getRoleMemberCount",
      "outputs": [
        {
          "internalType": "uint256",
          "name": "",
          "type": "uint256"
        }
      ],
      "stateMutability": "view",
      "type": "function"
    },
    {
      "inputs": [
        {
          "internalType": "bytes32",
          "name": "role",
          "type": "bytes32"
        },
        {
          "internalType": "address",
          "name": "account",
          "type": "address"
        }
      ],
      "name": "grantRole",
      "outputs": [],
      "stateMutability": "nonpayable",
      "type": "function"
    },
    {
      "inputs": [
        {
          "internalType": "bytes32",
          "name": "role",
          "type": "bytes32"
        },
        {
          "internalType": "address",
          "name": "account",
          "type": "address"
        }
      ],
      "name": "hasRole",
      "outputs": [
        {
          "internalType": "bool",
          "name": "",
          "type": "bool"
        }
      ],
      "stateMutability": "view",
      "type": "function"
    },
    {
      "inputs": [],
      "name": "immutableParams",
      "outputs": [
        {
          "internalType": "address",
          "name": "router",
          "type": "address"
        },
        {
          "internalType": "contract IERC20Vault",
          "name": "erc20Vault",
          "type": "address"
        },
        {
          "internalType": "contract IKyberVault",
          "name": "kyberVault",
          "type": "address"
        },
        {
          "internalType": "contract IOracle",
          "name": "mellowOracle",
          "type": "address"
        }
      ],
      "stateMutability": "view",
      "type": "function"
    },
    {
      "inputs": [
        {
          "internalType": "address",
          "name": "admin",
          "type": "address"
        }
      ],
      "name": "init",
      "outputs": [],
      "stateMutability": "nonpayable",
      "type": "function"
    },
    {
      "inputs": [
        {
          "components": [
            {
              "internalType": "address",
              "name": "router",
              "type": "address"
            },
            {
              "internalType": "contract IERC20Vault",
              "name": "erc20Vault",
              "type": "address"
            },
            {
              "internalType": "contract IKyberVault",
              "name": "kyberVault",
              "type": "address"
            },
            {
              "internalType": "contract IOracle",
              "name": "mellowOracle",
              "type": "address"
            },
            {
              "internalType": "address[]",
              "name": "tokens",
              "type": "address[]"
            }
          ],
          "internalType": "struct KyberPulseStrategyV2.ImmutableParams",
          "name": "immutableParams_",
          "type": "tuple"
        },
        {
          "internalType": "address",
          "name": "admin",
          "type": "address"
        }
      ],
      "name": "initialize",
      "outputs": [],
      "stateMutability": "nonpayable",
      "type": "function"
    },
    {
      "inputs": [],
      "name": "initialized",
      "outputs": [
        {
          "internalType": "bool",
          "name": "",
          "type": "bool"
        }
      ],
      "stateMutability": "view",
      "type": "function"
    },
    {
      "inputs": [
        {
          "internalType": "address",
          "name": "sender",
          "type": "address"
        }
      ],
      "name": "isAdmin",
      "outputs": [
        {
          "internalType": "bool",
          "name": "",
          "type": "bool"
        }
      ],
      "stateMutability": "view",
      "type": "function"
    },
    {
      "inputs": [
        {
          "internalType": "address",
          "name": "sender",
          "type": "address"
        }
      ],
      "name": "isOperator",
      "outputs": [
        {
          "internalType": "bool",
          "name": "",
          "type": "bool"
        }
      ],
      "stateMutability": "view",
      "type": "function"
    },
    {
      "inputs": [],
      "name": "kyberPool",
      "outputs": [
        {
          "internalType": "contract IPool",
          "name": "",
          "type": "address"
        }
      ],
      "stateMutability": "view",
      "type": "function"
    },
    {
      "inputs": [
        {
          "internalType": "bytes[]",
          "name": "data",
          "type": "bytes[]"
        }
      ],
      "name": "multicall",
      "outputs": [
        {
          "internalType": "bytes[]",
          "name": "results",
          "type": "bytes[]"
        }
      ],
      "stateMutability": "nonpayable",
      "type": "function"
    },
    {
      "inputs": [],
      "name": "mutableParams",
      "outputs": [
        {
          "internalType": "int24",
          "name": "priceImpactD6",
          "type": "int24"
        },
        {
          "internalType": "int24",
          "name": "defaultIntervalWidth",
          "type": "int24"
        },
        {
          "internalType": "int24",
          "name": "maxPositionLengthInTicks",
          "type": "int24"
        },
        {
          "internalType": "int24",
          "name": "maxDeviationForVaultPool",
          "type": "int24"
        },
        {
          "internalType": "uint32",
          "name": "timespanForAverageTick",
          "type": "uint32"
        },
        {
          "internalType": "uint256",
          "name": "neighborhoodFactorD",
          "type": "uint256"
        },
        {
          "internalType": "uint256",
          "name": "extensionFactorD",
          "type": "uint256"
        },
        {
          "internalType": "uint256",
          "name": "swapSlippageD",
          "type": "uint256"
        },
        {
          "internalType": "uint256",
          "name": "swappingAmountsCoefficientD",
          "type": "uint256"
        }
      ],
      "stateMutability": "view",
      "type": "function"
    },
    {
      "inputs": [],
      "name": "positionManager",
      "outputs": [
        {
          "internalType": "contract IBasePositionManager",
          "name": "",
          "type": "address"
        }
      ],
      "stateMutability": "view",
      "type": "function"
    },
    {
      "inputs": [
        {
          "internalType": "uint256",
          "name": "deadline",
          "type": "uint256"
        },
        {
          "internalType": "bytes",
          "name": "swapData",
          "type": "bytes"
        },
        {
          "components": [
            {
              "internalType": "int24",
              "name": "lowerTick",
              "type": "int24"
            },
            {
              "internalType": "int24",
              "name": "upperTick",
              "type": "int24"
            }
          ],
          "internalType": "struct KyberPulseStrategyV2.Interval",
          "name": "newInterval",
          "type": "tuple"
        },
        {
          "internalType": "int24[2]",
          "name": "previousTicks",
          "type": "int24[2]"
        }
      ],
      "name": "rebalance",
      "outputs": [],
      "stateMutability": "nonpayable",
      "type": "function"
    },
    {
      "inputs": [
        {
          "internalType": "bytes32",
          "name": "role",
          "type": "bytes32"
        },
        {
          "internalType": "address",
          "name": "account",
          "type": "address"
        }
      ],
      "name": "renounceRole",
      "outputs": [],
      "stateMutability": "nonpayable",
      "type": "function"
    },
    {
      "inputs": [
        {
          "internalType": "bytes32",
          "name": "role",
          "type": "bytes32"
        },
        {
          "internalType": "address",
          "name": "account",
          "type": "address"
        }
      ],
      "name": "revokeRole",
      "outputs": [],
      "stateMutability": "nonpayable",
      "type": "function"
    },
    {
      "inputs": [
        {
          "internalType": "bool",
          "name": "newValue",
          "type": "bool"
        }
      ],
      "name": "setForceRebalanceFlag",
      "outputs": [],
      "stateMutability": "nonpayable",
      "type": "function"
    },
    {
      "inputs": [
        {
          "internalType": "bytes4",
          "name": "interfaceId",
          "type": "bytes4"
        }
      ],
      "name": "supportsInterface",
      "outputs": [
        {
          "internalType": "bool",
          "name": "",
          "type": "bool"
        }
      ],
      "stateMutability": "view",
      "type": "function"
    },
    {
      "inputs": [
        {
          "components": [
            {
              "internalType": "uint256",
              "name": "amount0Desired",
              "type": "uint256"
            },
            {
              "internalType": "uint256",
              "name": "amount1Desired",
              "type": "uint256"
            }
          ],
          "internalType": "struct KyberPulseStrategyV2.DesiredAmounts",
          "name": "params",
          "type": "tuple"
        }
      ],
      "name": "updateDesiredAmounts",
      "outputs": [],
      "stateMutability": "nonpayable",
      "type": "function"
    },
    {
      "inputs": [
        {
          "components": [
            {
              "internalType": "int24",
              "name": "priceImpactD6",
              "type": "int24"
            },
            {
              "internalType": "int24",
              "name": "defaultIntervalWidth",
              "type": "int24"
            },
            {
              "internalType": "int24",
              "name": "maxPositionLengthInTicks",
              "type": "int24"
            },
            {
              "internalType": "int24",
              "name": "maxDeviationForVaultPool",
              "type": "int24"
            },
            {
              "internalType": "uint32",
              "name": "timespanForAverageTick",
              "type": "uint32"
            },
            {
              "internalType": "uint256",
              "name": "neighborhoodFactorD",
              "type": "uint256"
            },
            {
              "internalType": "uint256",
              "name": "extensionFactorD",
              "type": "uint256"
            },
            {
              "internalType": "uint256",
              "name": "swapSlippageD",
              "type": "uint256"
            },
            {
              "internalType": "uint256",
              "name": "swappingAmountsCoefficientD",
              "type": "uint256"
            },
            {
              "internalType": "uint256[]",
              "name": "minSwapAmounts",
              "type": "uint256[]"
            }
          ],
          "internalType": "struct KyberPulseStrategyV2.MutableParams",
          "name": "mutableParams_",
          "type": "tuple"
        }
      ],
      "name": "updateMutableParams",
      "outputs": [],
      "stateMutability": "nonpayable",
      "type": "function"
    },
    {
      "inputs": [],
      "name": "withdrawCallback",
      "outputs": [],
      "stateMutability": "nonpayable",
      "type": "function"
    }
  ],
  "bytecode": {
    "object": "0x60a06040523480156200001157600080fd5b506040516200616338038062006163833981016040819052620000349162000093565b60408051808201909152600281526120ad60f11b60208201526001600160a01b038216620000805760405162461bcd60e51b8152600401620000779190620000c5565b60405180910390fd5b506001600160a01b03166080526200011d565b600060208284031215620000a657600080fd5b81516001600160a01b0381168114620000be57600080fd5b9392505050565b600060208083528351808285015260005b81811015620000f457858101830151858201604001528201620000d6565b8181111562000107576000604083870101525b50601f01601f1916929092016040019392505050565b6080516160076200015c6000396000818161049a015281816115c10152818161231501528181612a0501528181612c0b0152612cbf01526160076000f3fe608060405234801561001057600080fd5b50600436106102745760003560e01c806395489b3111610151578063ae358b85116100c3578063d3277e8611610087578063d3277e8614610674578063d547741f14610682578063d874d8e114610695578063dfa24d2c146106a8578063e521826f146106bb578063fe57ed61146106c357600080fd5b8063ae358b85146105cd578063b2e1e915146105e0578063b4559f3e14610309578063c8014d5314610608578063ca15c8731461066157600080fd5b8063a0a8e46011610115578063a0a8e4601461056d578063a11bac7414610575578063a217fddf1461057f578063a8470bcc14610587578063ac9650d81461059a578063ace4d0fd146105ba57600080fd5b806395489b31146104fa57806395aa080d1461050d578063983d27371461052d5780639b44be95146105425780639bb37ba81461055a57600080fd5b806340792465116101ea5780636d70f7ae116101ae5780636d70f7ae1461045857806375b238fc1461046b57806375d0c0dc14610480578063791b98bc146104955780639010d07c146104d457806391d14854146104e757600080fd5b80634079246514610374578063420547031461037f578063551530ae146103925780635f408a211461039d57806360aa27051461044557600080fd5b806319ab453c1161023c57806319ab453c146102f65780631e63f0621461030b578063248a9ca31461031857806324d7806c1461033b5780632f2ff15d1461034e57806336568abe1461036157600080fd5b806301ffc9a71461027957806306a46239146102a15780630952ff54146102b95780630e3e80ac146102ce578063158ef93e146102e9575b600080fd5b61028c61028736600461480e565b6106e4565b60405190151581526020015b60405180910390f35b640312e312e360dc1b5b604051908152602001610298565b6102ab600080516020615f4b83398151915281565b714b7962657250756c7365537472617465677960701b6102ab565b60025461028c9060ff1681565b61030961030436600461484d565b610714565b005b60105461028c9060ff1681565b6102ab61032636600461486a565b60009081526020819052604090206001015490565b61028c61034936600461484d565b610843565b61030961035c366004614883565b61087b565b61030961036f366004614883565b6108a5565b6102ab600160601b81565b61030961038d366004614c03565b610923565b6102ab633b9aca0081565b600854600954600a54600b54600c546103eb94600281810b9563010000008304820b95600160301b8404830b95600160481b850490930b94600160601b90940463ffffffff16939192909189565b6040805160029a8b0b8152988a0b60208a015296890b968801969096529390960b606086015263ffffffff909116608085015260a084015260c083019390935260e082019290925261010081019190915261012001610298565b610309610453366004614c66565b610c5a565b61028c61046636600461484d565b610e1e565b6102ab600080516020615f6b83398151915281565b610488610e38565b6040516102989190614cf2565b6104bc7f000000000000000000000000000000000000000000000000000000000000000081565b6040516001600160a01b039091168152602001610298565b6104bc6104e2366004614d05565b610e58565b61028c6104f5366004614883565b610e77565b610309610508366004614d89565b610ea0565b61052061051b366004614e6d565b611158565b6040516102989190614ed0565b6102ab600080516020615f8b83398151915281565b6002546104bc9061010090046001600160a01b031681565b6102ab610568366004614ef1565b6111ff565b6104886112ef565b6102ab620f424081565b6102ab600081565b610309610595366004614f3f565b611302565b6105ad6105a8366004614f5c565b61131d565b6040516102989190614fd0565b6103096105c8366004615032565b611411565b6103096105db366004615064565b61152e565b6105f36105ee3660046150aa565b6117bd565b60408051928352602083019190915201610298565b60035460045460055460065461062e936001600160a01b03908116938116928116911684565b604080516001600160a01b0395861681529385166020850152918416918301919091529091166060820152608001610298565b6102ab61066f36600461486a565b611a48565b600e54600f546105f3919082565b610309610690366004614883565b611a5f565b6103096106a336600461511d565b611a84565b6103096106b6366004615189565b611cef565b61030961218f565b6106d66106d13660046151bd565b612233565b604051610298929190615226565b60006001600160e01b03198216635a05180f60e01b1480610709575061070982612573565b92915050565b905090565b60408051808201909152600281526120ad60f11b60208201526001600160a01b03821661075d5760405162461bcd60e51b81526004016107549190614cf2565b60405180910390fd5b506002546040805180820190915260048152631253925560e21b60208201529060ff161561079e5760405162461bcd60e51b81526004016107549190614cf2565b506107b7600080516020615f8b833981519152826125a8565b6107cf600080516020615f6b833981519152826125a8565b6107e7600080516020615f6b833981519152806125b2565b61080d600080516020615f4b833981519152600080516020615f6b8339815191526125b2565b610833600080516020615f8b833981519152600080516020615f4b8339815191526125b2565b506002805460ff19166001179055565b600061085d600080516020615f6b83398151915283610e77565b806107095750610709600080516020615f4b83398151915283610e77565b600082815260208190526040902060010154610896816125fd565b6108a0838361260a565b505050565b6001600160a01b03811633146109155760405162461bcd60e51b815260206004820152602f60248201527f416363657373436f6e74726f6c3a2063616e206f6e6c792072656e6f756e636560448201526e103937b632b9903337b91039b2b63360891b6064820152608401610754565b61091f828261262c565b5050565b600081604001516001600160a01b03166316f0115b6040518163ffffffff1660e01b815260040160206040518083038186803b15801561096257600080fd5b505afa158015610976573d6000803e3d6000fd5b505050506040513d601f19601f8201168201806040525081019061099a9190615256565b6001600160a01b03166348626a8c6040518163ffffffff1660e01b815260040160206040518083038186803b1580156109d257600080fd5b505afa1580156109e6573d6000803e3d6000fd5b505050506040513d601f19601f82011682018060405250810190610a0a919061527e565b90506000836020015160020b138015610a3d5750610a298160026152b1565b8360200151610a389190615354565b60020b155b6040518060400160405280600381526020016224a72b60e91b81525090610a775760405162461bcd60e51b81526004016107549190614cf2565b50610a85620d89e719615376565b610a909060026152b1565b60020b836040015160020b1315604051806040016040528060048152602001634c494d4f60e01b81525090610ad85760405162461bcd60e51b81526004016107549190614cf2565b506000836060015160020b13604051806040016040528060048152602001634c494d5560e01b81525090610b1f5760405162461bcd60e51b81526004016107549190614cf2565b506000836080015163ffffffff1611604051806040016040528060028152602001612b2d60f11b81525090610b675760405162461bcd60e51b81526004016107549190614cf2565b5062093a80836080015163ffffffff1610604051806040016040528060028152602001612b2d60f11b81525090610bb15760405162461bcd60e51b81526004016107549190614cf2565b5082610120015151600214604051806040016040528060048152602001631253959360e21b81525090610bf75760405162461bcd60e51b81526004016107549190614cf2565b50633b9aca008360e0015111158015610c195750633b9aca0083610100015111155b604051806040016040528060048152602001634c494d4f60e01b81525090610c545760405162461bcd60e51b81526004016107549190614cf2565b50505050565b610c6261264e565b6040805160a081018252600380546001600160a01b0390811683526004548116602080850191909152600554821684860152600654909116606084015260078054855181840281018401909652808652610d0995879594936080860193919290830182828015610cfb57602002820191906000526020600020905b81546001600160a01b03168152600190910190602001808311610cdd575b505050505081525050610923565b80516008805460208085015160408601516060870151608088015163ffffffff16600160601b0263ffffffff60601b1962ffffff928316600160481b026bffffff00000000000000000019948416600160301b02949094166bffffffffffff0000000000001995841663010000000265ffffffffffff199098169390991692909217959095179290921695909517949094179390931617815560a083015160095560c0830151600a5560e0830151600b55610100830151600c5561012083015180518493610ddc92600d92910190614759565b505060405133915032907faccfbfe1fb913357d3f38219613942ea367e6b50b076facee40e8400cf114f2890610e139085906153d4565b60405180910390a350565b6000610709600080516020615f8b83398151915283610e77565b606061070f714b7962657250756c7365537472617465677960701b612691565b6000828152600160205260408120610e7090836126fd565b9392505050565b6000918252602082815260408084206001600160a01b0393909316845291905290205460ff1690565b8442111560405180604001604052806002815260200161545360f01b81525090610edd5760405162461bcd60e51b81526004016107549190614cf2565b50610ee6612709565b6040805160a081018252600380546001600160a01b0390811683526004548116602080850191909152600554821684860152600654909116606084015260078054855181840281018401909652808652600095608086019390929190830182828015610f7b57602002820191906000526020600020905b81546001600160a01b03168152600190910190602001808311610f5d575b505050919092525050604080516101408101825260088054600281810b845263010000008204810b602080860191909152600160301b8304820b85870152600160481b830490910b6060850152600160601b90910463ffffffff16608084015260095460a0840152600a5460c0840152600b5460e0840152600c54610100840152600d8054855181840281018401909652808652969750600096939550919361012086019390929183018282801561105257602002820191906000526020600020905b81548152602001906001019080831161103e575b5050509190925250506002549192505061010090046001600160a01b031661107b838383611a84565b600080826001600160a01b031663217ac2376040518163ffffffff1660e01b815260040160806040518083038186803b1580156110b757600080fd5b505afa1580156110cb573d6000803e3d6000fd5b505050506040513d601f19601f820116820180604052508101906110ef9190615489565b5050915091506000611105868684878c8c612721565b9050611115868683868e8e612d6f565b61111e86613284565b604051339032907f6dcf4e69cd04d9def52d660ea37a5b366adb7701505e48e75c03d6a51a343f6490600090a35050505050505050505050565b604080518082019091526000808252602082015260006111788385615354565b61118290856154e8565b9050600283900b6111938486615354565b61119e9060026152b1565b60020b13156111b4576111b18382615530565b90505b600285602001516111c59190615577565b6111cf90826154e8565b600290810b835260208601516111e59190615577565b6111ef9082615530565b60020b6020830152509392505050565b60008061120f85600001516133dc565b6001600160a01b03169050600061122986602001516133dc565b6001600160a01b03169050846001600160a01b0316821061124f57600092505050610e70565b846001600160a01b0316811161126d57600160601b92505050610e70565b60006112a76112856001600160a01b038816846155b1565b600160601b6112a2896001600160a01b031686600160601b6137f9565b6137f9565b905060006112be846001600160a01b0389166155b1565b90506112e381600160601b836112d9868b600160601b6137f9565b6112a291906155c8565b98975050505050505050565b606061070f640312e312e360dc1b612691565b61130a61264e565b6010805460ff1916911515919091179055565b6060816001600160401b03811115611337576113376148b3565b60405190808252806020026020018201604052801561136a57816020015b60608152602001906001900390816113555790505b50905060005b8281101561140a576113da3085858481811061138e5761138e6155e0565b90506020028101906113a091906155f6565b8080601f0160208091040260200160405190810160405280939291908181526020018383808284376000920191909152506138ac92505050565b8282815181106113ec576113ec6155e0565b6020026020010181905250808061140290615643565b915050611370565b5092915050565b61141961264e565b80516040805180820190915260028152612b2d60f11b6020820152906114525760405162461bcd60e51b81526004016107549190614cf2565b5080516040805180820190915260048152634c494d4f60e01b602082015290633b9aca0010156114955760405162461bcd60e51b81526004016107549190614cf2565b506000816020015111604051806040016040528060028152602001612b2d60f11b815250906114d75760405162461bcd60e51b81526004016107549190614cf2565b50633b9aca0081602001511115604051806040016040528060048152602001634c494d4f60e01b8152509061151f5760405162461bcd60e51b81526004016107549190614cf2565b508051600e5560200151600f55565b61153782611cef565b8151600380546001600160a01b03199081166001600160a01b03938416178255602080860151600480548416918616919091179055604086015160058054841691861691909117905560608601516006805490931694169390931790556080840151805185936115ac926007929101906147a4565b5090505060005b6002811015611718576116197f0000000000000000000000000000000000000000000000000000000000000000600019856080015184815181106115f9576115f96155e0565b60200260200101516001600160a01b03166138d19092919063ffffffff16565b82602001516001600160a01b0316632e2f4cc284608001518381518110611642576116426155e0565b602002602001015163095ea7b360e01b866000015160001960405160200161167f9291906001600160a01b03929092168252602082015260400190565b6040516020818303038152906040526040518463ffffffff1660e01b81526004016116ac9392919061565e565b600060405180830381600087803b1580156116c657600080fd5b505af19250505080156116fb57506040513d6000823e601f3d908101601f191682016040526116f89190810190615692565b60015b61170457611706565b505b8061171081615643565b9150506115b3565b5081604001516001600160a01b03166316f0115b6040518163ffffffff1660e01b815260040160206040518083038186803b15801561175657600080fd5b505afa15801561176a573d6000803e3d6000fd5b505050506040513d601f19601f8201168201806040525081019061178e9190615256565b600260016101000a8154816001600160a01b0302191690836001600160a01b0316021790555061091f81610714565b600080806117cf84600160601b6155b1565b9050600087602001516001600160a01b031663e5328e066040518163ffffffff1660e01b815260040160006040518083038186803b15801561181057600080fd5b505afa158015611824573d6000803e3d6000fd5b505050506040513d6000823e601f3d908101601f1916820160405261184c9190810190615780565b50905060006118c282600181518110611867576118676155e0565b6020026020010151600160601b61189d8560008151811061188a5761188a6155e0565b60200260200101518b600160601b6137f9565b856001815181106118b0576118b06155e0565b60200260200101516112a291906155c8565b905060006118df600160601b8a6000015160020b620f42406137f9565b905086821115611985576001955060006118fe600160601b808b6137f9565b905061197d611928898660008151811061191a5761191a6155e0565b6020026020010151846137f9565b6119518660018151811061193e5761193e6155e0565b602002602001015188600160601b6137f9565b61195b91906155b1565b600160601b61196f8b86600160601b6137f9565b6112a290600160601b6155b1565b9550506119fb565b600095506119f86119b185856001815181106119a3576119a36155e0565b60200260200101518b6137f9565b6119da856000815181106119c7576119c76155e0565b60200260200101518a600160601b6137f9565b6119e491906155b1565b600160601b61196f8785600160601b6137f9565b94505b828681518110611a0d57611a0d6155e0565b6020026020010151851115611a3957828681518110611a2e57611a2e6155e0565b602002602001015194505b5050505094509492505050565b565b6000818152600160205260408120610709906139bf565b600082815260208190526040902060010154611a7a816125fd565b6108a0838361262c565b6000816001600160a01b031663217ac2376040518163ffffffff1660e01b815260040160806040518083038186803b158015611abf57600080fd5b505afa158015611ad3573d6000803e3d6000fd5b505050506040513d601f19601f82011682018060405250810190611af79190615489565b5050915050600084606001516001600160a01b0316636d80125b6003600401600081548110611b2857611b286155e0565b600091825260209091200154600780546001600160a01b03909216916001908110611b5557611b556155e0565b6000918252602091829020015460405160e085901b6001600160e01b03191681526001600160a01b03938416600482015292166024830152604482015260640160006040518083038186803b158015611bad57600080fd5b505afa158015611bc1573d6000803e3d6000fd5b505050506040513d6000823e601f3d908101601f19168201604052611be99190810190615780565b50905080600081518110611bff57611bff6155e0565b6020026020010151600014156040518060400160405280600581526020016424a72b2a2960d91b81525090611c475760405162461bcd60e51b81526004016107549190614cf2565b506000611c75611c7083600081518110611c6357611c636155e0565b60200260200101516139c9565b6139df565b90506000611c8382856154e8565b905060008160020b1215611c9d57611c9a81615376565b90505b856060015160020b8160020b12604051806040016040528060048152602001634c494d4f60e01b81525090611ce55760405162461bcd60e51b81526004016107549190614cf2565b5050505050505050565b80516001600160a01b031615801590611d39575060006001600160a01b03168160800151600081518110611d2557611d256155e0565b60200260200101516001600160a01b031614155b8015611d76575060006001600160a01b03168160800151600181518110611d6257611d626155e0565b60200260200101516001600160a01b031614155b6040518060400160405280600281526020016120ad60f11b81525090611daf5760405162461bcd60e51b81526004016107549190614cf2565b50806080015151600214604051806040016040528060048152602001631253959360e21b81525090611df45760405162461bcd60e51b81526004016107549190614cf2565b5060208101516001600160a01b031615801590611e1d575060408101516001600160a01b031615155b6040518060400160405280600281526020016120ad60f11b81525090611e565760405162461bcd60e51b81526004016107549190614cf2565b50600081602001516001600160a01b031663697222336040518163ffffffff1660e01b815260040160006040518083038186803b158015611e9657600080fd5b505afa158015611eaa573d6000803e3d6000fd5b505050506040513d6000823e601f3d908101601f19168201604052611ed291908101906157e4565b90508051600214604051806040016040528060048152602001631253959360e21b81525090611f145760405162461bcd60e51b81526004016107549190614cf2565b508160800151600081518110611f2c57611f2c6155e0565b60200260200101516001600160a01b031681600081518110611f5057611f506155e0565b60200260200101516001600160a01b0316148015611fb757508160800151600181518110611f8057611f806155e0565b60200260200101516001600160a01b031681600181518110611fa457611fa46155e0565b60200260200101516001600160a01b0316145b60405180604001604052806004815260200163494e564160e01b81525090611ff25760405162461bcd60e51b81526004016107549190614cf2565b5050600081604001516001600160a01b031663697222336040518163ffffffff1660e01b815260040160006040518083038186803b15801561203357600080fd5b505afa158015612047573d6000803e3d6000fd5b505050506040513d6000823e601f3d908101601f1916820160405261206f91908101906157e4565b90508051600214604051806040016040528060048152602001631253959360e21b815250906120b15760405162461bcd60e51b81526004016107549190614cf2565b5081608001516000815181106120c9576120c96155e0565b60200260200101516001600160a01b0316816000815181106120ed576120ed6155e0565b60200260200101516001600160a01b03161480156121545750816080015160018151811061211d5761211d6155e0565b60200260200101516001600160a01b031681600181518110612141576121416155e0565b60200260200101516001600160a01b0316145b60405180604001604052806004815260200163494e564160e01b815250906108a05760405162461bcd60e51b81526004016107549190614cf2565b6040805160a081018252600380546001600160a01b0390811683526004548116602080850191909152600554821684860152600654909116606084015260078054855181840281018401909652808652611a469560808601939092919083018282801561222557602002820191906000526020600020905b81546001600160a01b03168152600190910190602001808311612207575b505050505081525050613284565b6040805180820190915260008082526020820152600080846001600160a01b03166348626a8c6040518163ffffffff1660e01b815260040160206040518083038186803b15801561228357600080fd5b505afa158015612297573d6000803e3d6000fd5b505050506040513d601f19601f820116820180604052508101906122bb919061527e565b90508315806122cc575060105460ff165b156122e8576122dc878783611158565b6001925092505061256a565b604080518082019091526000808252602082015260405163133f757160e31b8152600481018690526000907f00000000000000000000000000000000000000000000000000000000000000006001600160a01b0316906399fbab88906024016101606040518083038186803b15801561236057600080fd5b505afa158015612374573d6000803e3d6000fd5b505050506040513d601f19601f82011682018060405250810190612398919061592b565b50604080518082019091526060820151600290810b808352608090930151900b60208201819052909350600092506123d091906154e8565b905060006123ec8262ffffff168b60a00151633b9aca006137f9565b905060008184600001516124009190615530565b9050600082856020015161241491906154e8565b90508a60020b8260020b1315801561243257508060020b8b60020b13155b15612449578460009750975050505050505061256a565b60006124558c846154e8565b9050600281900b612466838e6154e8565b60020b131561247c57612479828d6154e8565b90505b60006124968562ffffff168f60c00151633b9aca006137f9565b6124a09083615530565b90506124ac8882615354565b60020b1515806124bf57508060020b6000145b156124e7576124ce8882615530565b90506124da8882615354565b6124e490826154e8565b90505b86516124f49082906154e8565b60020b8a526020870151612509908290615530565b8a6020019060020b908160020b815250508d6040015160020b8a600001518b6020015161253691906154e8565b60020b131561255d5761254a8e8e8a611158565b600199509950505050505050505061256a565b6001985050505050505050505b94509492505050565b60006001600160e01b03198216637965db0b60e01b148061070957506301ffc9a760e01b6001600160e01b0319831614610709565b61091f828261260a565b600082815260208190526040808220600101805490849055905190918391839186917fbd79b86ffe0ab8e8776151514217cd7cacd52c909f66475c3af44e129f0b00ff9190a4505050565b6126078133613d18565b50565b6126148282613d71565b60008281526001602052604090206108a09082613df5565b6126368282613e0a565b60008281526001602052604090206108a09082613e6f565b61265733610843565b6040518060400160405280600381526020016223292160e91b815250906126075760405162461bcd60e51b81526004016107549190614cf2565b604080516020808252818301909252606091602082018180368337019050509050602060005b60208110156126ef578381602081106126d2576126d26155e0565b1a6126df578091506126ef565b6126e881615643565b90506126b7565b508152602081019190915290565b6000610e708383613e84565b61271233610843565b80612657575061265733610e1e565b60408051808201909152600080825260208201526000876040015190506000816001600160a01b031663a7788fd96040518163ffffffff1660e01b815260040160206040518083038186803b15801561277957600080fd5b505afa15801561278d573d6000803e3d6000fd5b505050506040513d601f19601f820116820180604052508101906127b191906159fb565b90506000806127c28a8a8a86612233565b91509150806127d657509250612d65915050565b8215612976576000846001600160a01b03166305cf2a446040518163ffffffff1660e01b815260040160206040518083038186803b15801561281757600080fd5b505afa15801561282b573d6000803e3d6000fd5b505050506040513d601f19601f8201168201806040525081019061284f9190615256565b60405163db9936bf60e01b81526001600160801b0360048201526001600160a01b038b8116602483015260448201879052919091169063db9936bf9060640160006040518083038186803b1580156128a657600080fd5b505afa1580156128ba573d6000803e3d6000fd5b505050506040513d6000823e601f3d908101601f191682016040526128e29190810190615a14565b60208d015160808e0151604051630818b5d560e21b81529293506001600160a01b03881692632062d7549261291d9290918690600401615a48565b600060405180830381600087803b15801561293757600080fd5b505af115801561294b573d6000803e3d6000fd5b505050506040513d6000823e601f3d908101601f191682016040526129739190810190615a14565b50505b86518251600291820b910b14801561299b5750866020015160020b826020015160020b145b6040518060400160405280600581526020016424a72b2a2960d91b815250906129d75760405162461bcd60e51b81526004016107549190614cf2565b5081516129ee9089908860005b6020020151613eae565b6020820151612a019089908860016129e4565b60007f00000000000000000000000000000000000000000000000000000000000000006001600160a01b031663ea5406326040518061018001604052808f60800151600081518110612a5557612a556155e0565b60200260200101516001600160a01b031681526020018f60800151600181518110612a8257612a826155e0565b60200260200101516001600160a01b031681526020018c6001600160a01b031663c79a590e6040518163ffffffff1660e01b815260040160206040518083038186803b158015612ad157600080fd5b505afa158015612ae5573d6000803e3d6000fd5b505050506040513d601f19601f82011682018060405250810190612b099190615ac8565b62ffffff168152602001866000015160020b8152602001866020015160020b81526020018a8152602001600e600001548152602001600e6001015481526020016000815260200160008152602001306001600160a01b031681526020016000198152506040518263ffffffff1660e01b8152600401612b889190615b0e565b608060405180830381600087803b158015612ba257600080fd5b505af1158015612bb6573d6000803e3d6000fd5b505050506040513d601f19601f82011682018060405250810190612bda9190615bf0565b5050604051632142170760e11b81523060048201526001600160a01b038881166024830152604482018490529293507f0000000000000000000000000000000000000000000000000000000000000000909216916342842e0e9150606401600060405180830381600087803b158015612c5257600080fd5b505af1158015612c66573d6000803e3d6000fd5b505050507face8748d23af65e86cf543d0298345b95115752e382befe3e832eacd1508adb081604051612c9b91815260200190565b60405180910390a18315612d5d57604051630852cd8d60e31b8152600481018590527f00000000000000000000000000000000000000000000000000000000000000006001600160a01b0316906342966c6890602401600060405180830381600087803b158015612d0b57600080fd5b505af1158015612d1f573d6000803e3d6000fd5b505050507f65d33d8ef62a81711748bbe2a7b67aef94d1a9af04a2690d3a4dfd13d9c1d22b84604051612d5491815260200190565b60405180910390a15b509093505050505b9695505050505050565b6000612d896001600160a01b03851680600160601b6137f9565b9050600080612d9f8989856105ee8b8b896111ff565b915091508761012001518281518110612dba57612dba6155e0565b6020026020010151811015612dd15750505061327c565b8160011415612dec57612de9600160601b80856137f9565b92505b600089602001516001600160a01b031663e5328e066040518163ffffffff1660e01b815260040160006040518083038186803b158015612e2b57600080fd5b505afa158015612e3f573d6000803e3d6000fd5b505050506040513d6000823e601f3d908101601f19168201604052612e679190810190615780565b5060208b01518b519192506001600160a01b031690632e2f4cc290612e90600460008a8c615c2c565b612e9991615c56565b612ea6896004818d615c2c565b6040518563ffffffff1660e01b8152600401612ec59493929190615c86565b600060405180830381600087803b158015612edf57600080fd5b505af1158015612ef3573d6000803e3d6000fd5b505050506040513d6000823e601f3d908101601f19168201604052612f1b9190810190615692565b5060008a602001516001600160a01b031663e5328e066040518163ffffffff1660e01b815260040160006040518083038186803b158015612f5b57600080fd5b505afa158015612f6f573d6000803e3d6000fd5b505050506040513d6000823e601f3d908101601f19168201604052612f979190810190615780565b509050818481518110612fac57612fac6155e0565b6020026020010151818581518110612fc657612fc66155e0565b6020026020010151111560405180604001604052806004815260200163494e564160e01b8152509061300b5760405162461bcd60e51b81526004016107549190614cf2565b50818460011881518110613021576130216155e0565b602002602001015181856001188151811061303e5761303e6155e0565b6020026020010151101560405180604001604052806004815260200163494e564160e01b815250906130835760405162461bcd60e51b81526004016107549190614cf2565b506000818581518110613098576130986155e0565b60200260200101518386815181106130b2576130b26155e0565b60200260200101516130c491906155b1565b905060008386600118815181106130dd576130dd6155e0565b60200260200101518387600118815181106130fa576130fa6155e0565b602002602001015161310c91906155b1565b9050600061311f82600160601b856137f9565b905080613144898f60e00151633b9aca0061313a91906155b1565b633b9aca006137f9565b1115604051806040016040528060048152602001634c494d5560e01b815250906131815760405162461bcd60e51b81526004016107549190614cf2565b508261319c878f6101000151633b9aca0061313a91906155b1565b1115604051806040016040528060048152602001634c494d5560e01b815250906131d95760405162461bcd60e51b81526004016107549190614cf2565b50856131f4848f6101000151633b9aca0061313a91906155b1565b1115604051806040016040528060048152602001634c494d5560e01b815250906132315760405162461bcd60e51b81526004016107549190614cf2565b5060408051848152602081018490529081018890527f984c316f55901f828cae2a57394002595129e75b4546d4a80c6c1a4787d748c29060600160405180910390a150505050505050505b505050505050565b600081602001516001600160a01b031663e5328e066040518163ffffffff1660e01b815260040160006040518083038186803b1580156132c357600080fd5b505afa1580156132d7573d6000803e3d6000fd5b505050506040513d6000823e601f3d908101601f191682016040526132ff9190810190615780565b509050600081600081518110613317576133176155e0565b60200260200101511180613345575060008160018151811061333b5761333b6155e0565b6020026020010151115b1561091f5781602001516001600160a01b0316632062d75483604001518460800151846040518463ffffffff1660e01b815260040161338693929190615a48565b600060405180830381600087803b1580156133a057600080fd5b505af11580156133b4573d6000803e3d6000fd5b505050506040513d6000823e601f3d908101601f191682016040526108a09190810190615a14565b60008060008360020b126133f3578260020b613400565b8260020b61340090615cd7565b905061340f620d89e719615376565b60020b8111156134455760405162461bcd60e51b81526020600482015260016024820152601560fa1b6044820152606401610754565b60006001821661345957600160801b61346b565b6ffffcb933bd6fad37aa2d162d1a5940015b70ffffffffffffffffffffffffffffffffff16905060028216156134aa5760806134a5826ffff97272373d413259a46990580e213a615cf4565b901c90505b60048216156134d45760806134cf826ffff2e50f5f656932ef12357cf3c7fdcc615cf4565b901c90505b60088216156134fe5760806134f9826fffe5caca7e10e4e61c3624eaa0941cd0615cf4565b901c90505b6010821615613528576080613523826fffcb9843d60f6159c9db58835c926644615cf4565b901c90505b602082161561355257608061354d826fff973b41fa98c081472e6896dfb254c0615cf4565b901c90505b604082161561357c576080613577826fff2ea16466c96a3843ec78b326b52861615cf4565b901c90505b60808216156135a65760806135a1826ffe5dee046a99a2a811c461f1969c3053615cf4565b901c90505b6101008216156135d15760806135cc826ffcbe86c7900a88aedcffc83b479aa3a4615cf4565b901c90505b6102008216156135fc5760806135f7826ff987a7253ac413176f2b074cf7815e54615cf4565b901c90505b610400821615613627576080613622826ff3392b0822b70005940c7a398e4b70f3615cf4565b901c90505b61080082161561365257608061364d826fe7159475a2c29b7443b29c7fa6e889d9615cf4565b901c90505b61100082161561367d576080613678826fd097f3bdfd2022b8845ad8f792aa5825615cf4565b901c90505b6120008216156136a85760806136a3826fa9f746462d870fdf8a65dc1f90e061e5615cf4565b901c90505b6140008216156136d35760806136ce826f70d869a156d2a1b890bb3df62baf32f7615cf4565b901c90505b6180008216156136fe5760806136f9826f31be135f97d08fd981231505542fcfa6615cf4565b901c90505b6201000082161561372a576080613725826f09aa508b5b7a84e1c677de54f3e99bc9615cf4565b901c90505b62020000821615613755576080613750826e5d6af8dedb81196699c329225ee604615cf4565b901c90505b6204000082161561377f57608061377a826d2216e584f5fa1ea926041bedfe98615cf4565b901c90505b620800008216156137a75760806137a2826b048a170391f7dc42444e8fa2615cf4565b901c90505b60008460020b13156137c2576137bf81600019615d13565b90505b6137d164010000000082615d27565b156137dd5760016137e0565b60005b6137f19060ff16602083901c6155c8565b949350505050565b600080806000198587098587029250828110838203039150508060001415613833576000841161382857600080fd5b508290049050610e70565b80841161383f57600080fd5b6000848688096000868103871696879004966002600389028118808a02820302808a02820302808a02820302808a02820302808a02820302808a02909103029181900381900460010186841190950394909402919094039290920491909117919091029150509392505050565b6060610e708383604051806060016040528060278152602001615fab6027913961401f565b604051636eb1769f60e11b81523060048201526001600160a01b0383811660248301526000919085169063dd62ed3e9060440160206040518083038186803b15801561391c57600080fd5b505afa158015613930573d6000803e3d6000fd5b505050506040513d601f19601f8201168201806040525081019061395491906159fb565b9050610c548463095ea7b360e01b8561396d86866155c8565b6040516001600160a01b039092166024830152604482015260640160408051601f198184030181529190526020810180516001600160e01b03166001600160e01b03199093169290921790915261408d565b6000610709825490565b6000806139d583614162565b60301b9392505050565b60006401000276a36001600160a01b03831610801590613a1b575073fffd8963efd1fc6a506488495d951d5263988d266001600160a01b038316105b613a4b5760405162461bcd60e51b81526020600482015260016024820152602960f91b6044820152606401610754565b640100000000600160c01b03602083901b166001600160801b03811160071b81811c6001600160401b03811160061b90811c63ffffffff811160051b90811c61ffff811160041b90811c60ff8111600390811b91821c600f811160021b90811c918211600190811b92831c97908811961790941790921717909117171760808110613ae557613adb607f826155b1565b83901c9150613af6565b613af081607f6155b1565b83901b91505b60006040613b05608084615d3b565b901b9050828302607f1c92508260801c80603f1b8217915083811c935050828302607f1c92508260801c80603e1b8217915083811c935050828302607f1c92508260801c80603d1b8217915083811c935050828302607f1c92508260801c80603c1b8217915083811c935050828302607f1c92508260801c80603b1b8217915083811c935050828302607f1c92508260801c80603a1b8217915083811c935050828302607f1c92508260801c8060391b8217915083811c935050828302607f1c92508260801c8060381b8217915083811c935050828302607f1c92508260801c8060371b8217915083811c935050828302607f1c92508260801c8060361b8217915083811c935050828302607f1c92508260801c8060351b8217915083811c935050828302607f1c92508260801c8060341b8217915083811c935050828302607f1c92508260801c8060331b8217915083811c935050828302607f1c92508260801c8060321b8217915050600081693627a301d71055774c85613c889190615d7a565b905060006080613ca86f028f6481ab7f045a5af012a19d003aaa84615d3b565b901d905060006080613cca846fdb2df09e81959a81455e260799a0632f615dff565b901d90508060020b8260020b14613d0957886001600160a01b0316613cee826133dc565b6001600160a01b03161115613d035781613d0b565b80613d0b565b815b9998505050505050505050565b613d228282610e77565b61091f57613d2f816142e0565b613d3a8360206142f2565b604051602001613d4b929190615e40565b60408051601f198184030181529082905262461bcd60e51b825261075491600401614cf2565b613d7b8282610e77565b61091f576000828152602081815260408083206001600160a01b03851684529091529020805460ff19166001179055613db13390565b6001600160a01b0316816001600160a01b0316837f2f8788117e7eff1d82e926ec794901d17c78024a50270940304540a733656f0d60405160405180910390a45050565b6000610e70836001600160a01b03841661448d565b613e148282610e77565b1561091f576000828152602081815260408083206001600160a01b0385168085529252808320805460ff1916905551339285917ff6391f5c32d9c69d2a47ea670b442974b53935d1edc7fd64eb21e047a839171b9190a45050565b6000610e70836001600160a01b0384166144dc565b6000826000018281548110613e9b57613e9b6155e0565b9060005260206000200154905092915050565b8160020b8160020b131560405180604001604052806004815260200163494e564160e01b81525090613ef35760405162461bcd60e51b81526004016107549190614cf2565b5060405163c0ac75cf60e01b8152600282900b600482015260009081906001600160a01b0386169063c0ac75cf90602401604080518083038186803b158015613f3b57600080fd5b505afa158015613f4f573d6000803e3d6000fd5b505050506040513d601f19601f82011682018060405250810190613f739190615eb5565b915091508160020b6000141580613f8e57508060020b600014155b6040518060400160405280600581526020016424a72b2a2960d91b81525090613fca5760405162461bcd60e51b81526004016107549190614cf2565b508260020b8160020b1480613fe457508360020b8160020b135b60405180604001604052806004815260200163494e564160e01b8152509061327c5760405162461bcd60e51b81526004016107549190614cf2565b6060600080856001600160a01b03168560405161403c9190615ee4565b600060405180830381855af49150503d8060008114614077576040519150601f19603f3d011682016040523d82523d6000602084013e61407c565b606091505b5091509150612d65868383876145cf565b60006140e2826040518060400160405280602081526020017f5361666545524332303a206c6f772d6c6576656c2063616c6c206661696c6564815250856001600160a01b03166146459092919063ffffffff16565b90508051600014806141035750808060200190518101906141039190615f00565b6108a05760405162461bcd60e51b815260206004820152602a60248201527f5361666545524332303a204552433230206f7065726174696f6e20646964206e6044820152691bdd081cdd58d8d9595960b21b6064820152608401610754565b60008161417157506000919050565b816001600160801b821061418a5760809190911c9060401b5b6801000000000000000082106141a55760409190911c9060201b5b64010000000082106141bc5760209190911c9060101b5b6201000082106141d15760109190911c9060081b5b61010082106141e55760089190911c9060041b5b601082106141f85760049190911c9060021b5b600882106142045760011b5b60016142108286615d13565b61421a90836155c8565b901c9050600161422a8286615d13565b61423490836155c8565b901c905060016142448286615d13565b61424e90836155c8565b901c9050600161425e8286615d13565b61426890836155c8565b901c905060016142788286615d13565b61428290836155c8565b901c905060016142928286615d13565b61429c90836155c8565b901c905060016142ac8286615d13565b6142b690836155c8565b901c905060006142c68286615d13565b90508082106142d557806142d7565b815b95945050505050565b60606107096001600160a01b03831660145b60606000614301836002615cf4565b61430c9060026155c8565b6001600160401b03811115614323576143236148b3565b6040519080825280601f01601f19166020018201604052801561434d576020820181803683370190505b509050600360fc1b81600081518110614368576143686155e0565b60200101906001600160f81b031916908160001a905350600f60fb1b81600181518110614397576143976155e0565b60200101906001600160f81b031916908160001a90535060006143bb846002615cf4565b6143c69060016155c8565b90505b600181111561443e576f181899199a1a9b1b9c1cb0b131b232b360811b85600f16601081106143fa576143fa6155e0565b1a60f81b828281518110614410576144106155e0565b60200101906001600160f81b031916908160001a90535060049490941c9361443781615f1d565b90506143c9565b508315610e705760405162461bcd60e51b815260206004820181905260248201527f537472696e67733a20686578206c656e67746820696e73756666696369656e746044820152606401610754565b60008181526001830160205260408120546144d457508154600181810184556000848152602080822090930184905584548482528286019093526040902091909155610709565b506000610709565b600081815260018301602052604081205480156145c55760006145006001836155b1565b8554909150600090614514906001906155b1565b9050818114614579576000866000018281548110614534576145346155e0565b9060005260206000200154905080876000018481548110614557576145576155e0565b6000918252602080832090910192909255918252600188019052604090208390555b855486908061458a5761458a615f34565b600190038181906000526020600020016000905590558560010160008681526020019081526020016000206000905560019350505050610709565b6000915050610709565b6060831561463b578251614634576001600160a01b0385163b6146345760405162461bcd60e51b815260206004820152601d60248201527f416464726573733a2063616c6c20746f206e6f6e2d636f6e74726163740000006044820152606401610754565b50816137f1565b6137f18383614654565b60606137f1848460008561467e565b8151156146645781518083602001fd5b8060405162461bcd60e51b81526004016107549190614cf2565b6060824710156146df5760405162461bcd60e51b815260206004820152602660248201527f416464726573733a20696e73756666696369656e742062616c616e636520666f6044820152651c8818d85b1b60d21b6064820152608401610754565b600080866001600160a01b031685876040516146fb9190615ee4565b60006040518083038185875af1925050503d8060008114614738576040519150601f19603f3d011682016040523d82523d6000602084013e61473d565b606091505b509150915061474e878383876145cf565b979650505050505050565b828054828255906000526020600020908101928215614794579160200282015b82811115614794578251825591602001919060010190614779565b506147a09291506147f9565b5090565b828054828255906000526020600020908101928215614794579160200282015b8281111561479457825182546001600160a01b0319166001600160a01b039091161782556020909201916001909101906147c4565b5b808211156147a057600081556001016147fa565b60006020828403121561482057600080fd5b81356001600160e01b031981168114610e7057600080fd5b6001600160a01b038116811461260757600080fd5b60006020828403121561485f57600080fd5b8135610e7081614838565b60006020828403121561487c57600080fd5b5035919050565b6000806040838503121561489657600080fd5b8235915060208301356148a881614838565b809150509250929050565b634e487b7160e01b600052604160045260246000fd5b60405161014081016001600160401b03811182821017156148ec576148ec6148b3565b60405290565b60405160a081016001600160401b03811182821017156148ec576148ec6148b3565b604080519081016001600160401b03811182821017156148ec576148ec6148b3565b60405161010081016001600160401b03811182821017156148ec576148ec6148b3565b604051601f8201601f191681016001600160401b0381118282101715614981576149816148b3565b604052919050565b8060020b811461260757600080fd5b80356149a381614989565b919050565b803563ffffffff811681146149a357600080fd5b60006001600160401b038211156149d5576149d56148b3565b5060051b60200190565b600082601f8301126149f057600080fd5b81356020614a05614a00836149bc565b614959565b82815260059290921b84018101918181019086841115614a2457600080fd5b8286015b84811015614a3f5780358352918301918301614a28565b509695505050505050565b60006101408284031215614a5d57600080fd5b614a656148c9565b9050614a7082614998565b8152614a7e60208301614998565b6020820152614a8f60408301614998565b6040820152614aa060608301614998565b6060820152614ab1608083016149a8565b608082015260a082013560a082015260c082013560c082015260e082013560e0820152610100808301358183015250610120808301356001600160401b03811115614afb57600080fd5b614b07858286016149df565b82840152505092915050565b600060a08284031215614b2557600080fd5b614b2d6148f2565b90508135614b3a81614838565b8152602082810135614b4b81614838565b828201526040830135614b5d81614838565b60408301526060830135614b7081614838565b606083015260808301356001600160401b03811115614b8e57600080fd5b8301601f81018513614b9f57600080fd5b8035614bad614a00826149bc565b81815260059190911b82018301908381019087831115614bcc57600080fd5b928401925b82841015614bf3578335614be481614838565b82529284019290840190614bd1565b6080860152509295945050505050565b60008060408385031215614c1657600080fd5b82356001600160401b0380821115614c2d57600080fd5b614c3986838701614a4a565b93506020850135915080821115614c4f57600080fd5b50614c5c85828601614b13565b9150509250929050565b600060208284031215614c7857600080fd5b81356001600160401b03811115614c8e57600080fd5b6137f184828501614a4a565b60005b83811015614cb5578181015183820152602001614c9d565b83811115610c545750506000910152565b60008151808452614cde816020860160208601614c9a565b601f01601f19169290920160200192915050565b602081526000610e706020830184614cc6565b60008060408385031215614d1857600080fd5b50508035926020909101359150565b600060408284031215614d3957600080fd5b604051604081018181106001600160401b0382111715614d5b57614d5b6148b3565b6040529050808235614d6c81614989565b81526020830135614d7c81614989565b6020919091015292915050565b600080600080600060c08688031215614da157600080fd5b853594506020808701356001600160401b0380821115614dc057600080fd5b818901915089601f830112614dd457600080fd5b813581811115614de357600080fd5b8a84828501011115614df457600080fd5b9183019650909450614e0b90508860408901614d27565b925087609f880112614e1c57600080fd5b614e24614914565b8060c089018a811115614e3657600080fd5b60808a015b81811015614e5b578035614e4e81614989565b8452928401928401614e3b565b50508093505050509295509295909350565b600080600060608486031215614e8257600080fd5b83356001600160401b03811115614e9857600080fd5b614ea486828701614a4a565b9350506020840135614eb581614989565b91506040840135614ec581614989565b809150509250925092565b604081016107098284805160020b8252602081015160020b60208301525050565b600080600060808486031215614f0657600080fd5b614f108585614d27565b92506040840135614f2081614838565b929592945050506060919091013590565b801515811461260757600080fd5b600060208284031215614f5157600080fd5b8135610e7081614f31565b60008060208385031215614f6f57600080fd5b82356001600160401b0380821115614f8657600080fd5b818501915085601f830112614f9a57600080fd5b813581811115614fa957600080fd5b8660208260051b8501011115614fbe57600080fd5b60209290920196919550909350505050565b6000602080830181845280855180835260408601915060408160051b870101925083870160005b8281101561502557603f19888603018452615013858351614cc6565b94509285019290850190600101614ff7565b5092979650505050505050565b60006040828403121561504457600080fd5b61504c614914565b82358152602083013560208201528091505092915050565b6000806040838503121561507757600080fd5b82356001600160401b0381111561508d57600080fd5b61509985828601614b13565b92505060208301356148a881614838565b600080600080608085870312156150c057600080fd5b84356001600160401b03808211156150d757600080fd5b6150e388838901614b13565b955060208701359150808211156150f957600080fd5b5061510687828801614a4a565b949794965050505060408301359260600135919050565b60008060006060848603121561513257600080fd5b83356001600160401b038082111561514957600080fd5b61515587838801614b13565b9450602086013591508082111561516b57600080fd5b5061517886828701614a4a565b9250506040840135614ec581614838565b60006020828403121561519b57600080fd5b81356001600160401b038111156151b157600080fd5b6137f184828501614b13565b600080600080608085870312156151d357600080fd5b84356001600160401b038111156151e957600080fd5b6151f587828801614a4a565b945050602085013561520681614989565b9250604085013561521681614838565b9396929550929360600135925050565b606081016152478285805160020b8252602081015160020b60208301525050565b82151560408301529392505050565b60006020828403121561526857600080fd5b8151610e7081614838565b80516149a381614989565b60006020828403121561529057600080fd5b8151610e7081614989565b634e487b7160e01b600052601160045260246000fd5b60008160020b8360020b627fffff6000821360008413838304851182821616156152dd576152dd61529b565b627fffff1960008512828116878305871216156152fc576152fc61529b565b600087129250858205871284841616156153185761531861529b565b8585058712818416161561532e5761532e61529b565b5050509290910295945050505050565b634e487b7160e01b600052601260045260246000fd5b60008260020b806153675761536761533e565b808360020b0791505092915050565b60008160020b627fffff198114156153905761539061529b565b60000392915050565b600081518084526020808501945080840160005b838110156153c9578151875295820195908201906001016153ad565b509495945050505050565b602081526153e860208201835160020b9052565b600060208301516153fe604084018260020b9052565b506040830151615413606084018260020b9052565b506060830151615428608084018260020b9052565b50608083015163ffffffff811660a08401525060a083015160c083015260c083015160e083015260e08301516101008181850152808501519150506101208181850152808501519150506101408081850152506137f1610160840182615399565b6000806000806080858703121561549f57600080fd5b84516154aa81614838565b60208601519094506154bb81614989565b60408601519093506154cc81614989565b60608601519092506154dd81614f31565b939692955090935050565b60008160020b8360020b6000811281627fffff190183128115161561550f5761550f61529b565b81627fffff0183138116156155265761552661529b565b5090039392505050565b60008160020b8360020b6000821282627fffff038213811516156155565761555661529b565b82627fffff1903821281161561556e5761556e61529b565b50019392505050565b60008160020b8360020b8061558e5761558e61533e565b627fffff198214600019821416156155a8576155a861529b565b90059392505050565b6000828210156155c3576155c361529b565b500390565b600082198211156155db576155db61529b565b500190565b634e487b7160e01b600052603260045260246000fd5b6000808335601e1984360301811261560d57600080fd5b8301803591506001600160401b0382111561562757600080fd5b60200191503681900382131561563c57600080fd5b9250929050565b60006000198214156156575761565761529b565b5060010190565b6001600160a01b03841681526001600160e01b0319831660208201526060604082018190526000906142d790830184614cc6565b6000602082840312156156a457600080fd5b81516001600160401b03808211156156bb57600080fd5b818401915084601f8301126156cf57600080fd5b8151818111156156e1576156e16148b3565b6156f4601f8201601f1916602001614959565b915080825285602082850101111561570b57600080fd5b61571c816020840160208601614c9a565b50949350505050565b600082601f83011261573657600080fd5b81516020615746614a00836149bc565b82815260059290921b8401810191818101908684111561576557600080fd5b8286015b84811015614a3f5780518352918301918301615769565b6000806040838503121561579357600080fd5b82516001600160401b03808211156157aa57600080fd5b6157b686838701615725565b935060208501519150808211156157cc57600080fd5b50614c5c85828601615725565b80516149a381614838565b600060208083850312156157f757600080fd5b82516001600160401b0381111561580d57600080fd5b8301601f8101851361581e57600080fd5b805161582c614a00826149bc565b81815260059190911b8201830190838101908783111561584b57600080fd5b928401925b8284101561474e57835161586381614838565b82529284019290840190615850565b805169ffffffffffffffffffff811681146149a357600080fd5b80516001600160801b03811681146149a357600080fd5b805162ffffff811681146149a357600080fd5b6000606082840312156158c857600080fd5b604051606081018181106001600160401b03821117156158ea576158ea6148b3565b806040525080915082516158fd81614838565b815261590b602084016158a3565b6020820152604083015161591e81614838565b6040919091015292915050565b60008082840361016081121561594057600080fd5b6101008082121561595057600080fd5b615958614936565b915084516bffffffffffffffffffffffff8116811461597657600080fd5b8252615984602086016157d9565b602083015261599560408601615872565b60408301526159a660608601615273565b60608301526159b760808601615273565b60808301526159c860a0860161588c565b60a083015260c085015160c083015260e085015160e08301528193506159f0868287016158b6565b925050509250929050565b600060208284031215615a0d57600080fd5b5051919050565b600060208284031215615a2657600080fd5b81516001600160401b03811115615a3c57600080fd5b6137f184828501615725565b6001600160a01b0384811682526080602080840182905285519184018290526000928682019290919060a0860190855b81811015615a96578551851683529483019491830191600101615a78565b50508581036040870152615aaa8188615399565b86810360609097019690965250600085529093019695505050505050565b600060208284031215615ada57600080fd5b610e70826158a3565b8060005b6002808210615af65750610c54565b8251900b845260209384019390910190600101615ae7565b81516001600160a01b031681526101a081016020830151615b3a60208401826001600160a01b03169052565b506040830151615b51604084018262ffffff169052565b506060830151615b66606084018260020b9052565b506080830151615b7b608084018260020b9052565b5060a0830151615b8e60a0840182615ae3565b5060c083015160e083810191909152830151610100808401919091528301516101208084019190915283015161014080840191909152830151610160615bde818501836001600160a01b03169052565b80850151610180850152505092915050565b60008060008060808587031215615c0657600080fd5b84519350615c166020860161588c565b6040860151606090960151949790965092505050565b60008085851115615c3c57600080fd5b83861115615c4957600080fd5b5050820193919092039150565b6001600160e01b03198135818116916004851015615c7e5780818660040360031b1b83161692505b505092915050565b6001600160a01b03851681526001600160e01b0319841660208201526060604082018190528101829052818360808301376000818301608090810191909152601f909201601f191601019392505050565b6000600160ff1b821415615ced57615ced61529b565b5060000390565b6000816000190483118215151615615d0e57615d0e61529b565b500290565b600082615d2257615d2261533e565b500490565b600082615d3657615d3661533e565b500690565b60008083128015600160ff1b850184121615615d5957615d5961529b565b6001600160ff1b0384018313811615615d7457615d7461529b565b50500390565b60006001600160ff1b0381841382841380821686840486111615615da057615da061529b565b600160ff1b6000871282811687830589121615615dbf57615dbf61529b565b60008712925087820587128484161615615ddb57615ddb61529b565b87850587128184161615615df157615df161529b565b505050929093029392505050565b600080821280156001600160ff1b0384900385131615615e2157615e2161529b565b600160ff1b8390038412811615615e3a57615e3a61529b565b50500190565b7f416363657373436f6e74726f6c3a206163636f756e7420000000000000000000815260008351615e78816017850160208801614c9a565b7001034b99036b4b9b9b4b733903937b6329607d1b6017918401918201528351615ea9816028840160208801614c9a565b01602801949350505050565b60008060408385031215615ec857600080fd5b8251615ed381614989565b60208401519092506148a881614989565b60008251615ef6818460208701614c9a565b9190910192915050565b600060208284031215615f1257600080fd5b8151610e7081614f31565b600081615f2c57615f2c61529b565b506000190190565b634e487b7160e01b600052603160045260246000fdfec171260023d22a25a00a2789664c9334017843b831138c8ef03cc8897e5873d7f23ec0bb4210edd5cba85afd05127efcd2fc6a781bfed49188da1081670b22d846a52cf33029de9f84853745a87af28464c80bf0346df1b32e205fc73319f622416464726573733a206c6f772d6c6576656c2064656c65676174652063616c6c206661696c6564a2646970667358221220e58829c0481f35772984f92fb8cc05c2816b95b75929945ddbf44f406300232964736f6c63430008090033",
    "linkReferences": {}
  },
  "methodIdentifiers": {
    "ADMIN_DELEGATE_ROLE()": "0952ff54",
    "ADMIN_ROLE()": "75b238fc",
    "D6()": "a11bac74",
    "D9()": "551530ae",
    "DEFAULT_ADMIN_ROLE()": "a217fddf",
    "OPERATOR()": "983d2737",
    "Q96()": "40792465",
    "calculateAmountsForSwap((address,address,address,address,address[]),(int24,int24,int24,int24,uint32,uint256,uint256,uint256,uint256,uint256[]),uint256,uint256)": "b2e1e915",
    "calculateNewPosition((int24,int24,int24,int24,uint32,uint256,uint256,uint256,uint256,uint256[]),int24,address,uint256)": "fe57ed61",
    "calculateTargetRatioOfToken1((int24,int24),uint160,uint256)": "9bb37ba8",
    "checkImmutableParams((address,address,address,address,address[]))": "dfa24d2c",
    "checkMutableParams((int24,int24,int24,int24,uint32,uint256,uint256,uint256,uint256,uint256[]),(address,address,address,address,address[]))": "42054703",
    "checkTickDeviation((address,address,address,address,address[]),(int24,int24,int24,int24,uint32,uint256,uint256,uint256,uint256,uint256[]),address)": "d874d8e1",
    "contractName()": "75d0c0dc",
    "contractNameBytes()": "0e3e80ac",
    "contractVersion()": "a0a8e460",
    "contractVersionBytes()": "06a46239",
    "depositCallback()": "e521826f",
    "desiredAmounts()": "d3277e86",
    "forceRebalanceWidthFlag()": "1e63f062",
    "formPositionWithSpotTickInCenter((int24,int24,int24,int24,uint32,uint256,uint256,uint256,uint256,uint256[]),int24,int24)": "95aa080d",
    "getRoleAdmin(bytes32)": "248a9ca3",
    "getRoleMember(bytes32,uint256)": "9010d07c",
    "getRoleMemberCount(bytes32)": "ca15c873",
    "grantRole(bytes32,address)": "2f2ff15d",
    "hasRole(bytes32,address)": "91d14854",
    "immutableParams()": "c8014d53",
    "init(address)": "19ab453c",
    "initialize((address,address,address,address,address[]),address)": "ae358b85",
    "initialized()": "158ef93e",
    "isAdmin(address)": "24d7806c",
    "isOperator(address)": "6d70f7ae",
    "kyberPool()": "9b44be95",
    "multicall(bytes[])": "ac9650d8",
    "mutableParams()": "5f408a21",
    "positionManager()": "791b98bc",
    "rebalance(uint256,bytes,(int24,int24),int24[2])": "95489b31",
    "renounceRole(bytes32,address)": "36568abe",
    "revokeRole(bytes32,address)": "d547741f",
    "setForceRebalanceFlag(bool)": "a8470bcc",
    "supportsInterface(bytes4)": "01ffc9a7",
    "updateDesiredAmounts((uint256,uint256))": "ace4d0fd",
    "updateMutableParams((int24,int24,int24,int24,uint32,uint256,uint256,uint256,uint256,uint256[]))": "60aa2705",
    "withdrawCallback()": "b4559f3e"
  },
  "id": 391
}