{
  "abi": [
    {
      "inputs": [
        {
          "internalType": "address",
          "name": "admin",
          "type": "address"
        }
      ],
      "stateMutability": "nonpayable",
      "type": "constructor"
    },
    {
      "anonymous": false,
      "inputs": [
        {
          "indexed": true,
          "internalType": "address",
          "name": "from",
          "type": "address"
        },
        {
          "indexed": true,
          "internalType": "address",
          "name": "to",
          "type": "address"
        },
        {
          "indexed": false,
          "internalType": "address[]",
          "name": "tokens",
          "type": "address[]"
        },
        {
          "indexed": false,
          "internalType": "uint256[]",
          "name": "actualTokenAmounts",
          "type": "uint256[]"
        },
        {
          "indexed": false,
          "internalType": "uint256",
          "name": "lpTokenMinted",
          "type": "uint256"
        }
      ],
      "name": "Deposit",
      "type": "event"
    },
    {
      "anonymous": false,
      "inputs": [
        {
          "indexed": true,
          "internalType": "bytes32",
          "name": "role",
          "type": "bytes32"
        },
        {
          "indexed": true,
          "internalType": "bytes32",
          "name": "previousAdminRole",
          "type": "bytes32"
        },
        {
          "indexed": true,
          "internalType": "bytes32",
          "name": "newAdminRole",
          "type": "bytes32"
        }
      ],
      "name": "RoleAdminChanged",
      "type": "event"
    },
    {
      "anonymous": false,
      "inputs": [
        {
          "indexed": true,
          "internalType": "bytes32",
          "name": "role",
          "type": "bytes32"
        },
        {
          "indexed": true,
          "internalType": "address",
          "name": "account",
          "type": "address"
        },
        {
          "indexed": true,
          "internalType": "address",
          "name": "sender",
          "type": "address"
        }
      ],
      "name": "RoleGranted",
      "type": "event"
    },
    {
      "anonymous": false,
      "inputs": [
        {
          "indexed": true,
          "internalType": "bytes32",
          "name": "role",
          "type": "bytes32"
        },
        {
          "indexed": true,
          "internalType": "address",
          "name": "account",
          "type": "address"
        },
        {
          "indexed": true,
          "internalType": "address",
          "name": "sender",
          "type": "address"
        }
      ],
      "name": "RoleRevoked",
      "type": "event"
    },
    {
      "inputs": [],
      "name": "ADMIN_DELEGATE_ROLE",
      "outputs": [
        {
          "internalType": "bytes32",
          "name": "",
          "type": "bytes32"
        }
      ],
      "stateMutability": "view",
      "type": "function"
    },
    {
      "inputs": [],
      "name": "ADMIN_ROLE",
      "outputs": [
        {
          "internalType": "bytes32",
          "name": "",
          "type": "bytes32"
        }
      ],
      "stateMutability": "view",
      "type": "function"
    },
    {
      "inputs": [],
      "name": "DEFAULT_ADMIN_ROLE",
      "outputs": [
        {
          "internalType": "bytes32",
          "name": "",
          "type": "bytes32"
        }
      ],
      "stateMutability": "view",
      "type": "function"
    },
    {
      "inputs": [],
      "name": "OPERATOR",
      "outputs": [
        {
          "internalType": "bytes32",
          "name": "",
          "type": "bytes32"
        }
      ],
      "stateMutability": "view",
      "type": "function"
    },
    {
      "inputs": [
        {
          "internalType": "address",
          "name": "vault",
          "type": "address"
        },
        {
          "internalType": "address",
          "name": "strategy",
          "type": "address"
        },
        {
          "internalType": "bool",
          "name": "needToCallCallback",
          "type": "bool"
        }
      ],
      "name": "addNewStrategy",
      "outputs": [],
      "stateMutability": "nonpayable",
      "type": "function"
    },
    {
      "inputs": [
        {
          "internalType": "contract IERC20RootVault",
          "name": "vault",
          "type": "address"
        },
        {
          "internalType": "uint256[]",
          "name": "tokenAmounts",
          "type": "uint256[]"
        },
        {
          "internalType": "uint256",
          "name": "minLpTokens",
          "type": "uint256"
        },
        {
          "internalType": "bytes",
          "name": "vaultOptions",
          "type": "bytes"
        }
      ],
      "name": "deposit",
      "outputs": [
        {
          "internalType": "uint256[]",
          "name": "actualTokenAmounts",
          "type": "uint256[]"
        }
      ],
      "stateMutability": "nonpayable",
      "type": "function"
    },
    {
      "inputs": [
        {
          "internalType": "address",
          "name": "",
          "type": "address"
        }
      ],
      "name": "depositInfo",
      "outputs": [
        {
          "internalType": "address",
          "name": "strategy",
          "type": "address"
        },
        {
          "internalType": "bool",
          "name": "needToCallCallback",
          "type": "bool"
        }
      ],
      "stateMutability": "view",
      "type": "function"
    },
    {
      "inputs": [
        {
          "internalType": "bytes32",
          "name": "role",
          "type": "bytes32"
        }
      ],
      "name": "getRoleAdmin",
      "outputs": [
        {
          "internalType": "bytes32",
          "name": "",
          "type": "bytes32"
        }
      ],
      "stateMutability": "view",
      "type": "function"
    },
    {
      "inputs": [
        {
          "internalType": "bytes32",
          "name": "role",
          "type": "bytes32"
        },
        {
          "internalType": "uint256",
          "name": "index",
          "type": "uint256"
        }
      ],
      "name": "getRoleMember",
      "outputs": [
        {
          "internalType": "address",
          "name": "",
          "type": "address"
        }
      ],
      "stateMutability": "view",
      "type": "function"
    },
    {
      "inputs": [
        {
          "internalType": "bytes32",
          "name": "role",
          "type": "bytes32"
        }
      ],
      "name": "getRoleMemberCount",
      "outputs": [
        {
          "internalType": "uint256",
          "name": "",
          "type": "uint256"
        }
      ],
      "stateMutability": "view",
      "type": "function"
    },
    {
      "inputs": [
        {
          "internalType": "bytes32",
          "name": "role",
          "type": "bytes32"
        },
        {
          "internalType": "address",
          "name": "account",
          "type": "address"
        }
      ],
      "name": "grantRole",
      "outputs": [],
      "stateMutability": "nonpayable",
      "type": "function"
    },
    {
      "inputs": [
        {
          "internalType": "bytes32",
          "name": "role",
          "type": "bytes32"
        },
        {
          "internalType": "address",
          "name": "account",
          "type": "address"
        }
      ],
      "name": "hasRole",
      "outputs": [
        {
          "internalType": "bool",
          "name": "",
          "type": "bool"
        }
      ],
      "stateMutability": "view",
      "type": "function"
    },
    {
      "inputs": [
        {
          "internalType": "address",
          "name": "sender",
          "type": "address"
        }
      ],
      "name": "isAdmin",
      "outputs": [
        {
          "internalType": "bool",
          "name": "",
          "type": "bool"
        }
      ],
      "stateMutability": "view",
      "type": "function"
    },
    {
      "inputs": [
        {
          "internalType": "address",
          "name": "sender",
          "type": "address"
        }
      ],
      "name": "isOperator",
      "outputs": [
        {
          "internalType": "bool",
          "name": "",
          "type": "bool"
        }
      ],
      "stateMutability": "view",
      "type": "function"
    },
    {
      "inputs": [
        {
          "internalType": "bytes32",
          "name": "role",
          "type": "bytes32"
        },
        {
          "internalType": "address",
          "name": "account",
          "type": "address"
        }
      ],
      "name": "renounceRole",
      "outputs": [],
      "stateMutability": "nonpayable",
      "type": "function"
    },
    {
      "inputs": [
        {
          "internalType": "bytes32",
          "name": "role",
          "type": "bytes32"
        },
        {
          "internalType": "address",
          "name": "account",
          "type": "address"
        }
      ],
      "name": "revokeRole",
      "outputs": [],
      "stateMutability": "nonpayable",
      "type": "function"
    },
    {
      "inputs": [
        {
          "internalType": "bytes4",
          "name": "interfaceId",
          "type": "bytes4"
        }
      ],
      "name": "supportsInterface",
      "outputs": [
        {
          "internalType": "bool",
          "name": "",
          "type": "bool"
        }
      ],
      "stateMutability": "view",
      "type": "function"
    }
  ],
  "bytecode": {
    "object": "0x60806040523480156200001157600080fd5b5060405162001f5a38038062001f5a833981016040819052620000349162000302565b60408051808201909152600281526120ad60f11b602082015281906001600160a01b038216620000825760405162461bcd60e51b815260040162000079919062000334565b60405180910390fd5b506200009e60008051602062001f3a8339815191528262000152565b620000b960008051602062001f1a8339815191528262000152565b620000d460008051602062001f1a8339815191528062000162565b6200010f7fc171260023d22a25a00a2789664c9334017843b831138c8ef03cc8897e5873d760008051602062001f1a83398151915262000162565b6200014a60008051602062001f3a8339815191527fc171260023d22a25a00a2789664c9334017843b831138c8ef03cc8897e5873d762000162565b50506200038c565b6200015e8282620001ad565b5050565b600082815260208190526040808220600101805490849055905190918391839186917fbd79b86ffe0ab8e8776151514217cd7cacd52c909f66475c3af44e129f0b00ff9190a4505050565b620001c48282620001f060201b62000a471760201c565b6000828152600160209081526040909120620001eb91839062000acb62000290821b17901c565b505050565b6000828152602081815260408083206001600160a01b038516845290915290205460ff166200015e576000828152602081815260408083206001600160a01b03851684529091529020805460ff191660011790556200024c3390565b6001600160a01b0316816001600160a01b0316837f2f8788117e7eff1d82e926ec794901d17c78024a50270940304540a733656f0d60405160405180910390a45050565b6000620002a7836001600160a01b038416620002b0565b90505b92915050565b6000818152600183016020526040812054620002f957508154600181810184556000848152602080822090930184905584548482528286019093526040902091909155620002aa565b506000620002aa565b6000602082840312156200031557600080fd5b81516001600160a01b03811681146200032d57600080fd5b9392505050565b600060208083528351808285015260005b81811015620003635785810183015185820160400152820162000345565b8181111562000376576000604083870101525b50601f01601f1916929092016040019392505050565b611b7e806200039c6000396000f3fe608060405234801561001057600080fd5b506004361061010b5760003560e01c806375b238fc116100a2578063a217fddf11610071578063a217fddf146102be578063bdfd62d4146102c6578063ca15c873146102e6578063d547741f146102f9578063e8456d4c1461030c57600080fd5b806375b238fc146102325780639010d07c1461025957806391d1485414610284578063983d27371461029757600080fd5b80632f2ff15d116100de5780632f2ff15d146101a357806336568abe146101b857806363445989146101cb5780636d70f7ae1461021f57600080fd5b806301ffc9a7146101105780630952ff5414610138578063248a9ca31461016d57806324d7806c14610190575b600080fd5b61012361011e36600461148f565b61031f565b60405190151581526020015b60405180910390f35b61015f7fc171260023d22a25a00a2789664c9334017843b831138c8ef03cc8897e5873d781565b60405190815260200161012f565b61015f61017b3660046114b9565b60009081526020819052604090206001015490565b61012361019e3660046114e7565b61034a565b6101b66101b1366004611504565b6103a6565b005b6101b66101c6366004611504565b6103d0565b6102006101d93660046114e7565b6002602052600090815260409020546001600160a01b03811690600160a01b900460ff1682565b604080516001600160a01b03909316835290151560208301520161012f565b61012361022d3660046114e7565b610453565b61015f7ff23ec0bb4210edd5cba85afd05127efcd2fc6a781bfed49188da1081670b22d881565b61026c610267366004611534565b61047f565b6040516001600160a01b03909116815260200161012f565b610123610292366004611504565b61049e565b61015f7f46a52cf33029de9f84853745a87af28464c80bf0346df1b32e205fc73319f62281565b61015f600081565b6102d96102d436600461159f565b6104c7565b60405161012f9190611697565b61015f6102f43660046114b9565b6109ab565b6101b6610307366004611504565b6109c2565b6101b661031a3660046116b8565b6109e7565b60006001600160e01b03198216635a05180f60e01b1480610344575061034482610ae0565b92915050565b60006103767ff23ec0bb4210edd5cba85afd05127efcd2fc6a781bfed49188da1081670b22d88361049e565b8061034457506103447fc171260023d22a25a00a2789664c9334017843b831138c8ef03cc8897e5873d78361049e565b6000828152602081905260409020600101546103c181610b15565b6103cb8383610b22565b505050565b6001600160a01b03811633146104455760405162461bcd60e51b815260206004820152602f60248201527f416363657373436f6e74726f6c3a2063616e206f6e6c792072656e6f756e636560448201526e103937b632b9903337b91039b2b63360891b60648201526084015b60405180910390fd5b61044f8282610b44565b5050565b60006103447f46a52cf33029de9f84853745a87af28464c80bf0346df1b32e205fc73319f6228361049e565b60008281526001602052604081206104979083610b66565b9392505050565b6000918252602082815260408084206001600160a01b0393909316845291905290205460ff1690565b6001600160a01b03868116600090815260026020818152604092839020835180850185529054948516808252600160a01b90950460ff1615158183015283518085019094529183526120ad60f11b9083015260609290919061053c5760405162461bcd60e51b815260040161043c919061172f565b506000886001600160a01b031663697222336040518163ffffffff1660e01b815260040160006040518083038186803b15801561057857600080fd5b505afa15801561058c573d6000803e3d6000fd5b505050506040513d6000823e601f3d908101601f191682016040526105b491908101906117cd565b80516040805180820190915260048152631253959360e21b602082015291925088146105f35760405162461bcd60e51b815260040161043c919061172f565b5060005b81518110156106b05761065133308b8b8581811061061757610617611861565b9050602002013585858151811061063057610630611861565b60200260200101516001600160a01b0316610b72909392919063ffffffff16565b6106a08a8a8a8481811061066757610667611861565b9050602002013584848151811061068057610680611861565b60200260200101516001600160a01b0316610be39092919063ffffffff16565b6106a98161188d565b90506105f7565b50604051631528fd1d60e21b81526001600160a01b038a16906354a3f474906106e5908b908b908b908b908b906004016118a8565b600060405180830381600087803b1580156106ff57600080fd5b505af1158015610713573d6000803e3d6000fd5b505050506040513d6000823e601f3d908101601f1916820160405261073b9190810190611918565b925081602001511561079f5781600001516001600160a01b031663e521826f6040518163ffffffff1660e01b8152600401600060405180830381600087803b15801561078657600080fd5b505af115801561079a573d6000803e3d6000fd5b505050505b60005b81518110156108be576107e38a60008484815181106107c3576107c3611861565b60200260200101516001600160a01b0316610c9f9092919063ffffffff16565b6108ae338383815181106107f9576107f9611861565b60209081029190910101516040516370a0823160e01b81523060048201526001600160a01b03909116906370a082319060240160206040518083038186803b15801561084457600080fd5b505afa158015610858573d6000803e3d6000fd5b505050506040513d601f19601f8201168201806040525081019061087c919061199e565b84848151811061088e5761088e611861565b60200260200101516001600160a01b0316610dc39092919063ffffffff16565b6108b78161188d565b90506107a2565b506040516370a0823160e01b81523060048201526000906001600160a01b038b16906370a082319060240160206040518083038186803b15801561090157600080fd5b505afa158015610915573d6000803e3d6000fd5b505050506040513d601f19601f82011682018060405250810190610939919061199e565b905061094f6001600160a01b038b163383610dc3565b896001600160a01b0316336001600160a01b03167fcca721777a6ecfefca61eb6abe93dd4f6bc3798df0cf7aacedffc26fbd7521c0848785604051610996939291906119b7565b60405180910390a35050509695505050505050565b600081815260016020526040812061034490610df3565b6000828152602081905260409020600101546109dd81610b15565b6103cb8383610b44565b6109ef610dfd565b6040805180820182526001600160a01b03938416815291151560208084019182529484166000908152600290955293209051815493511515600160a01b026001600160a81b0319909416921691909117919091179055565b610a51828261049e565b61044f576000828152602081815260408083206001600160a01b03851684529091529020805460ff19166001179055610a873390565b6001600160a01b0316816001600160a01b0316837f2f8788117e7eff1d82e926ec794901d17c78024a50270940304540a733656f0d60405160405180910390a45050565b6000610497836001600160a01b038416610e40565b60006001600160e01b03198216637965db0b60e01b148061034457506301ffc9a760e01b6001600160e01b0319831614610344565b610b1f8133610e8f565b50565b610b2c8282610a47565b60008281526001602052604090206103cb9082610acb565b610b4e8282610ee8565b60008281526001602052604090206103cb9082610f4d565b60006104978383610f62565b6040516001600160a01b0380851660248301528316604482015260648101829052610bdd9085906323b872dd60e01b906084015b60408051601f198184030181529190526020810180516001600160e01b03166001600160e01b031990931692909217909152610f8c565b50505050565b604051636eb1769f60e11b81523060048201526001600160a01b0383811660248301526000919085169063dd62ed3e9060440160206040518083038186803b158015610c2e57600080fd5b505afa158015610c42573d6000803e3d6000fd5b505050506040513d601f19601f82011682018060405250810190610c66919061199e565b9050610bdd8463095ea7b360e01b85610c7f8686611a1f565b6040516001600160a01b0390921660248301526044820152606401610ba6565b801580610d285750604051636eb1769f60e11b81523060048201526001600160a01b03838116602483015284169063dd62ed3e9060440160206040518083038186803b158015610cee57600080fd5b505afa158015610d02573d6000803e3d6000fd5b505050506040513d601f19601f82011682018060405250810190610d26919061199e565b155b610d935760405162461bcd60e51b815260206004820152603660248201527f5361666545524332303a20617070726f76652066726f6d206e6f6e2d7a65726f60448201527520746f206e6f6e2d7a65726f20616c6c6f77616e636560501b606482015260840161043c565b6040516001600160a01b0383166024820152604481018290526103cb90849063095ea7b360e01b90606401610ba6565b6040516001600160a01b0383166024820152604481018290526103cb90849063a9059cbb60e01b90606401610ba6565b6000610344825490565b610e063361034a565b6040518060400160405280600381526020016223292160e91b81525090610b1f5760405162461bcd60e51b815260040161043c919061172f565b6000818152600183016020526040812054610e8757508154600181810184556000848152602080822090930184905584548482528286019093526040902091909155610344565b506000610344565b610e99828261049e565b61044f57610ea681611061565b610eb1836020611073565b604051602001610ec2929190611a37565b60408051601f198184030181529082905262461bcd60e51b825261043c9160040161172f565b610ef2828261049e565b1561044f576000828152602081815260408083206001600160a01b0385168085529252808320805460ff1916905551339285917ff6391f5c32d9c69d2a47ea670b442974b53935d1edc7fd64eb21e047a839171b9190a45050565b6000610497836001600160a01b03841661120f565b6000826000018281548110610f7957610f79611861565b9060005260206000200154905092915050565b6000610fe1826040518060400160405280602081526020017f5361666545524332303a206c6f772d6c6576656c2063616c6c206661696c6564815250856001600160a01b03166113029092919063ffffffff16565b90508051600014806110025750808060200190518101906110029190611aac565b6103cb5760405162461bcd60e51b815260206004820152602a60248201527f5361666545524332303a204552433230206f7065726174696f6e20646964206e6044820152691bdd081cdd58d8d9595960b21b606482015260840161043c565b60606103446001600160a01b03831660145b60606000611082836002611ac9565b61108d906002611a1f565b67ffffffffffffffff8111156110a5576110a5611762565b6040519080825280601f01601f1916602001820160405280156110cf576020820181803683370190505b509050600360fc1b816000815181106110ea576110ea611861565b60200101906001600160f81b031916908160001a905350600f60fb1b8160018151811061111957611119611861565b60200101906001600160f81b031916908160001a905350600061113d846002611ac9565b611148906001611a1f565b90505b60018111156111c0576f181899199a1a9b1b9c1cb0b131b232b360811b85600f166010811061117c5761117c611861565b1a60f81b82828151811061119257611192611861565b60200101906001600160f81b031916908160001a90535060049490941c936111b981611ae8565b905061114b565b5083156104975760405162461bcd60e51b815260206004820181905260248201527f537472696e67733a20686578206c656e67746820696e73756666696369656e74604482015260640161043c565b600081815260018301602052604081205480156112f8576000611233600183611aff565b855490915060009061124790600190611aff565b90508181146112ac57600086600001828154811061126757611267611861565b906000526020600020015490508087600001848154811061128a5761128a611861565b6000918252602080832090910192909255918252600188019052604090208390555b85548690806112bd576112bd611b16565b600190038181906000526020600020016000905590558560010160008681526020019081526020016000206000905560019350505050610344565b6000915050610344565b60606113118484600085611319565b949350505050565b60608247101561137a5760405162461bcd60e51b815260206004820152602660248201527f416464726573733a20696e73756666696369656e742062616c616e636520666f6044820152651c8818d85b1b60d21b606482015260840161043c565b600080866001600160a01b031685876040516113969190611b2c565b60006040518083038185875af1925050503d80600081146113d3576040519150601f19603f3d011682016040523d82523d6000602084013e6113d8565b606091505b50915091506113e9878383876113f4565b979650505050505050565b60608315611460578251611459576001600160a01b0385163b6114595760405162461bcd60e51b815260206004820152601d60248201527f416464726573733a2063616c6c20746f206e6f6e2d636f6e7472616374000000604482015260640161043c565b5081611311565b61131183838151156114755781518083602001fd5b8060405162461bcd60e51b815260040161043c919061172f565b6000602082840312156114a157600080fd5b81356001600160e01b03198116811461049757600080fd5b6000602082840312156114cb57600080fd5b5035919050565b6001600160a01b0381168114610b1f57600080fd5b6000602082840312156114f957600080fd5b8135610497816114d2565b6000806040838503121561151757600080fd5b823591506020830135611529816114d2565b809150509250929050565b6000806040838503121561154757600080fd5b50508035926020909101359150565b60008083601f84011261156857600080fd5b50813567ffffffffffffffff81111561158057600080fd5b60208301915083602082850101111561159857600080fd5b9250929050565b600080600080600080608087890312156115b857600080fd5b86356115c3816114d2565b9550602087013567ffffffffffffffff808211156115e057600080fd5b818901915089601f8301126115f457600080fd5b81358181111561160357600080fd5b8a60208260051b850101111561161857600080fd5b6020830197508096505060408901359450606089013591508082111561163d57600080fd5b5061164a89828a01611556565b979a9699509497509295939492505050565b600081518084526020808501945080840160005b8381101561168c57815187529582019590820190600101611670565b509495945050505050565b602081526000610497602083018461165c565b8015158114610b1f57600080fd5b6000806000606084860312156116cd57600080fd5b83356116d8816114d2565b925060208401356116e8816114d2565b915060408401356116f8816116aa565b809150509250925092565b60005b8381101561171e578181015183820152602001611706565b83811115610bdd5750506000910152565b602081526000825180602084015261174e816040850160208701611703565b601f01601f19169190910160400192915050565b634e487b7160e01b600052604160045260246000fd5b604051601f8201601f1916810167ffffffffffffffff811182821017156117a1576117a1611762565b604052919050565b600067ffffffffffffffff8211156117c3576117c3611762565b5060051b60200190565b600060208083850312156117e057600080fd5b825167ffffffffffffffff8111156117f757600080fd5b8301601f8101851361180857600080fd5b805161181b611816826117a9565b611778565b81815260059190911b8201830190838101908783111561183a57600080fd5b928401925b828410156113e9578351611852816114d2565b8252928401929084019061183f565b634e487b7160e01b600052603260045260246000fd5b634e487b7160e01b600052601160045260246000fd5b60006000198214156118a1576118a1611877565b5060010190565b6060808252810185905260006001600160fb1b038611156118c857600080fd5b8560051b80886080850137602083018690528201828103608090810160408501528101849052838560a0830137600060a0858301015260a0601f19601f8601168201019150509695505050505050565b6000602080838503121561192b57600080fd5b825167ffffffffffffffff81111561194257600080fd5b8301601f8101851361195357600080fd5b8051611961611816826117a9565b81815260059190911b8201830190838101908783111561198057600080fd5b928401925b828410156113e957835182529284019290840190611985565b6000602082840312156119b057600080fd5b5051919050565b606080825284519082018190526000906020906080840190828801845b828110156119f95781516001600160a01b0316845292840192908401906001016119d4565b50505083810382850152611a0d818761165c565b92505050826040830152949350505050565b60008219821115611a3257611a32611877565b500190565b7f416363657373436f6e74726f6c3a206163636f756e7420000000000000000000815260008351611a6f816017850160208801611703565b7001034b99036b4b9b9b4b733903937b6329607d1b6017918401918201528351611aa0816028840160208801611703565b01602801949350505050565b600060208284031215611abe57600080fd5b8151610497816116aa565b6000816000190483118215151615611ae357611ae3611877565b500290565b600081611af757611af7611877565b506000190190565b600082821015611b1157611b11611877565b500390565b634e487b7160e01b600052603160045260246000fd5b60008251611b3e818460208701611703565b919091019291505056fea2646970667358221220f14a02e65673748fb217263708ff90781e163d5038ddcce6093c94924e2e2f1264736f6c63430008090033f23ec0bb4210edd5cba85afd05127efcd2fc6a781bfed49188da1081670b22d846a52cf33029de9f84853745a87af28464c80bf0346df1b32e205fc73319f622",
    "linkReferences": {}
  },
  "methodIdentifiers": {
    "ADMIN_DELEGATE_ROLE()": "0952ff54",
    "ADMIN_ROLE()": "75b238fc",
    "DEFAULT_ADMIN_ROLE()": "a217fddf",
    "OPERATOR()": "983d2737",
    "addNewStrategy(address,address,bool)": "e8456d4c",
    "deposit(address,uint256[],uint256,bytes)": "bdfd62d4",
    "depositInfo(address)": "63445989",
    "getRoleAdmin(bytes32)": "248a9ca3",
    "getRoleMember(bytes32,uint256)": "9010d07c",
    "getRoleMemberCount(bytes32)": "ca15c873",
    "grantRole(bytes32,address)": "2f2ff15d",
    "hasRole(bytes32,address)": "91d14854",
    "isAdmin(address)": "24d7806c",
    "isOperator(address)": "6d70f7ae",
    "renounceRole(bytes32,address)": "36568abe",
    "revokeRole(bytes32,address)": "d547741f",
    "supportsInterface(bytes4)": "01ffc9a7"
  },
  "id": 416
}