{
  "abi": [
    {
      "inputs": [],
      "name": "D6",
      "outputs": [
        {
          "internalType": "uint256",
          "name": "",
          "type": "uint256"
        }
      ],
      "stateMutability": "view",
      "type": "function"
    },
    {
      "inputs": [],
      "name": "Q96",
      "outputs": [
        {
          "internalType": "uint256",
          "name": "",
          "type": "uint256"
        }
      ],
      "stateMutability": "view",
      "type": "function"
    },
    {
      "inputs": [
        {
          "internalType": "contract CamelotPulseStrategyV2",
          "name": "strategy",
          "type": "address"
        }
      ],
      "name": "calculateAmountForSwap",
      "outputs": [
        {
          "internalType": "uint256",
          "name": "amountIn",
          "type": "uint256"
        },
        {
          "internalType": "address",
          "name": "from",
          "type": "address"
        },
        {
          "internalType": "address",
          "name": "to",
          "type": "address"
        },
        {
          "internalType": "contract IERC20Vault",
          "name": "erc20Vault",
          "type": "address"
        }
      ],
      "stateMutability": "view",
      "type": "function"
    },
    {
      "inputs": [
        {
          "internalType": "contract CamelotPulseStrategyV2",
          "name": "strategy",
          "type": "address"
        }
      ],
      "name": "getStrategyParams",
      "outputs": [
        {
          "components": [
            {
              "internalType": "contract IERC20Vault",
              "name": "erc20Vault",
              "type": "address"
            },
            {
              "internalType": "contract ICamelotVault",
              "name": "camelotVault",
              "type": "address"
            },
            {
              "internalType": "address",
              "name": "router",
              "type": "address"
            },
            {
              "internalType": "address[]",
              "name": "tokens",
              "type": "address[]"
            }
          ],
          "internalType": "struct CamelotPulseStrategyV2.ImmutableParams",
          "name": "immutableParams",
          "type": "tuple"
        },
        {
          "components": [
            {
              "internalType": "int24",
              "name": "priceImpactD6",
              "type": "int24"
            },
            {
              "internalType": "int24",
              "name": "defaultIntervalWidth",
              "type": "int24"
            },
            {
              "internalType": "int24",
              "name": "maxPositionLengthInTicks",
              "type": "int24"
            },
            {
              "internalType": "int24",
              "name": "maxDeviationForVaultPool",
              "type": "int24"
            },
            {
              "internalType": "uint32",
              "name": "timespanForAverageTick",
              "type": "uint32"
            },
            {
              "internalType": "uint256",
              "name": "neighborhoodFactorD",
              "type": "uint256"
            },
            {
              "internalType": "uint256",
              "name": "extensionFactorD",
              "type": "uint256"
            },
            {
              "internalType": "uint256",
              "name": "swapSlippageD",
              "type": "uint256"
            },
            {
              "internalType": "uint256",
              "name": "swappingAmountsCoefficientD",
              "type": "uint256"
            },
            {
              "internalType": "uint256[]",
              "name": "minSwapAmounts",
              "type": "uint256[]"
            }
          ],
          "internalType": "struct CamelotPulseStrategyV2.MutableParams",
          "name": "mutableParams",
          "type": "tuple"
        }
      ],
      "stateMutability": "view",
      "type": "function"
    }
  ],
  "bytecode": {
    "object": "0x608060405234801561001057600080fd5b5061169b806100206000396000f3fe608060405234801561001057600080fd5b506004361061004c5760003560e01c806340792465146100515780637b23e1bd1461006f578063a11bac7414610090578063e6412b5c1461009a575b600080fd5b61005c600160601b81565b6040519081526020015b60405180910390f35b61008261007d366004610ec6565b6100dc565b604051610066929190610fcd565b61005c620f424081565b6100ad6100a8366004610ec6565b6103b9565b604080519485526001600160a01b03938416602086015291831691840191909152166060820152608001610066565b604080516080808201835260008083526020808401829052838501829052606080850181905285516101408101875283815291820183905294810182905280850182905291820181905260a0820181905260c0820181905260e08201819052610100820152610120810192909252906000806000856001600160a01b031663c8014d536040518163ffffffff1660e01b815260040160606040518083038186803b15801561018957600080fd5b505afa15801561019d573d6000803e3d6000fd5b505050506040513d601f19601f820116820180604052508101906101c19190611073565b9250925092506040518060800160405280846001600160a01b03168152602001836001600160a01b03168152602001826001600160a01b03168152602001846001600160a01b031663697222336040518163ffffffff1660e01b815260040160006040518083038186803b15801561023857600080fd5b505afa15801561024c573d6000803e3d6000fd5b505050506040513d6000823e601f3d908101601f19168201604052610274919081019061112b565b815250945050505060008060008060008060008060008b6001600160a01b0316635f408a216040518163ffffffff1660e01b81526004016101206040518083038186803b1580156102c457600080fd5b505afa1580156102d8573d6000803e3d6000fd5b505050506040513d601f19601f820116820180604052508101906102fc91906111dc565b9850985098509850985098509850985098506040518061014001604052808a60020b81526020018960020b81526020018860020b81526020018760020b81526020018663ffffffff168152602001858152602001848152602001838152602001828152602001600267ffffffffffffffff81111561037c5761037c6110c0565b6040519080825280602002602001820160405280156103a5578160200160208202803683370190505b508152509950505050505050505050915091565b6000806000806000806103cb876100dc565b915091506000876001600160a01b0316639f747b206040518163ffffffff1660e01b815260040160206040518083038186803b15801561040a57600080fd5b505afa15801561041e573d6000803e3d6000fd5b505050506040513d601f19601f820116820180604052508101906104429190611275565b9050600080826001600160a01b031663e76c01e46040518163ffffffff1660e01b815260040160e06040518083038186803b15801561048057600080fd5b505afa158015610494573d6000803e3d6000fd5b505050506040513d601f19601f820116820180604052508101906104b891906112b4565b505050505091509150846000015195506000806104ec846001600160a01b0316856001600160a01b0316600160601b610b0d565b60408051600280825260608201835292935060009290916020830190803683370190505090506000808e6001600160a01b031663fe57ed618a888b8e602001516001600160a01b031663ef7d80376040518163ffffffff1660e01b815260040160206040518083038186803b15801561056457600080fd5b505afa158015610578573d6000803e3d6000fd5b505050506040513d601f19601f8201168201806040525081019061059c9190611344565b6040518563ffffffff1660e01b81526004016105bb949392919061135d565b60606040518083038186803b1580156105d357600080fd5b505afa1580156105e7573d6000803e3d6000fd5b505050506040513d601f19601f8201168201806040525081019061060b9190611398565b9150915060008a602001519050806001600160a01b031663e5328e066040518163ffffffff1660e01b815260040160006040518083038186803b15801561065157600080fd5b505afa158015610665573d6000803e3d6000fd5b505050506040513d6000823e601f3d908101601f1916820160405261068d919081019061147a565b509350816109e8576000816001600160a01b03166363b0e66a6040518163ffffffff1660e01b815260040160206040518083038186803b1580156106d057600080fd5b505afa1580156106e4573d6000803e3d6000fd5b505050506040513d601f19601f820116820180604052508101906107089190611275565b90506000826001600160a01b031663791b98bc6040518163ffffffff1660e01b815260040160206040518083038186803b15801561074557600080fd5b505afa158015610759573d6000803e3d6000fd5b505050506040513d601f19601f8201168201806040525081019061077d9190611275565b6001600160a01b03166399fbab88846001600160a01b031663ef7d80376040518163ffffffff1660e01b815260040160206040518083038186803b1580156107c457600080fd5b505afa1580156107d8573d6000803e3d6000fd5b505050506040513d601f19601f820116820180604052508101906107fc9190611344565b6040518263ffffffff1660e01b815260040161081a91815260200190565b6101606040518083038186803b15801561083357600080fd5b505afa158015610847573d6000803e3d6000fd5b505050506040513d601f19601f8201168201806040525081019061086b91906114f5565b505050509650505050505050600080836001600160a01b031663b5ce1db9866001600160a01b031663ef7d80376040518163ffffffff1660e01b815260040160206040518083038186803b1580156108c257600080fd5b505afa1580156108d6573d6000803e3d6000fd5b505050506040513d601f19601f820116820180604052508101906108fa9190611344565b6040516001600160e01b031960e084901b16815260048101919091526001600160a01b038f1660248201526001600160801b0386166044820152606401604080518083038186803b15801561094e57600080fd5b505afa158015610962573d6000803e3d6000fd5b505050506040513d601f19601f8201168201806040525081019061098691906115cb565b91509150818860008151811061099e5761099e6115ef565b602002602001018181516109b2919061161b565b90525087518190899060019081106109cc576109cc6115ef565b602002602001018181516109e0919061161b565b905250505050505b8f6001600160a01b0316639bb37ba8848a886040518463ffffffff1660e01b8152600401610a47939291908351600290810b8252602094850151900b938101939093526001600160a01b03919091166040830152606082015260800190565b60206040518083038186803b158015610a5f57600080fd5b505afa158015610a73573d6000803e3d6000fd5b505050506040513d601f19601f82011682018060405250810190610a979190611344565b95505050506000610aab848b858b86610bc1565b809250819e50505088606001518181518110610ac957610ac96115ef565b60200260200101519b5088606001518160011881518110610aec57610aec6115ef565b60200260200101519a50886000015199505050505050505050509193509193565b600080806000198587098587029250828110838203039150508060001415610b475760008411610b3c57600080fd5b508290049050610bba565b808411610b5357600080fd5b6000848688096000868103871696879004966002600389028118808a02820302808a02820302808a02820302808a02820302808a02820302808a02909103029181900381900460010186841190950394909402919094039290920491909117919091029150505b9392505050565b60008080610bd388600160601b61161b565b90506000876001600160a01b031663e5328e066040518163ffffffff1660e01b815260040160006040518083038186803b158015610c1057600080fd5b505afa158015610c24573d6000803e3d6000fd5b505050506040513d6000823e601f3d908101601f19168201604052610c4c919081019061147a565b50905060005b6002811015610cb057858181518110610c6d57610c6d6115ef565b6020026020010151828281518110610c8757610c876115ef565b60200260200101818151610c9b9190611632565b90525080610ca88161164a565b915050610c52565b506000610d2982600181518110610cc957610cc96115ef565b6020026020010151600160601b610cff85600081518110610cec57610cec6115ef565b60200260200101518c600160601b610b0d565b85600181518110610d1257610d126115ef565b6020026020010151610d249190611632565b610b0d565b90506000610d46600160601b896000015160020b620f4240610b0d565b90508a821115610dec57600194506000610d65600160601b808c610b0d565b9050610de4610d8f8d86600081518110610d8157610d816115ef565b602002602001015184610b0d565b610db886600181518110610da557610da56115ef565b602002602001015188600160601b610b0d565b610dc2919061161b565b600160601b610dd68f86600160601b610b0d565b610d2490600160601b61161b565b965050610e62565b60009450610e5f610e188585600181518110610e0a57610e0a6115ef565b60200260200101518c610b0d565b610e4185600081518110610e2e57610e2e6115ef565b60200260200101518e600160601b610b0d565b610e4b919061161b565b600160601b610dd68785600160601b610b0d565b95505b828581518110610e7457610e746115ef565b6020026020010151861115610ea057828581518110610e9557610e956115ef565b602002602001015195505b505050509550959350505050565b6001600160a01b0381168114610ec357600080fd5b50565b600060208284031215610ed857600080fd5b8135610bba81610eae565b600081518084526020808501945080840160005b83811015610f1357815187529582019590820190600101610ef7565b509495945050505050565b805160020b825260006101406020830151610f3e602086018260020b9052565b506040830151610f53604086018260020b9052565b506060830151610f68606086018260020b9052565b506080830151610f80608086018263ffffffff169052565b5060a083015160a085015260c083015160c085015260e083015160e0850152610100808401518186015250610120808401518282870152610fc383870182610ee3565b9695505050505050565b60408152600060c0820160018060a01b03808651166040850152602081818801511660608601528160408801511660808601526060870151608060a087015283815180865260e0880191508383019550600092505b8083101561104457855185168252948301946001929092019190830190611022565b50868103838801526110568189610f1e565b9998505050505050505050565b805161106e81610eae565b919050565b60008060006060848603121561108857600080fd5b835161109381610eae565b60208501519093506110a481610eae565b60408501519092506110b581610eae565b809150509250925092565b634e487b7160e01b600052604160045260246000fd5b604051601f8201601f1916810167ffffffffffffffff811182821017156110ff576110ff6110c0565b604052919050565b600067ffffffffffffffff821115611121576111216110c0565b5060051b60200190565b6000602080838503121561113e57600080fd5b825167ffffffffffffffff81111561115557600080fd5b8301601f8101851361116657600080fd5b805161117961117482611107565b6110d6565b81815260059190911b8201830190838101908783111561119857600080fd5b928401925b828410156111bf5783516111b081610eae565b8252928401929084019061119d565b979650505050505050565b8051600281900b811461106e57600080fd5b60008060008060008060008060006101208a8c0312156111fb57600080fd5b6112048a6111ca565b985061121260208b016111ca565b975061122060408b016111ca565b965061122e60608b016111ca565b955060808a015163ffffffff8116811461124757600080fd5b8095505060a08a0151935060c08a0151925060e08a015191506101008a015190509295985092959850929598565b60006020828403121561128757600080fd5b8151610bba81610eae565b805161ffff8116811461106e57600080fd5b8051801515811461106e57600080fd5b600080600080600080600060e0888a0312156112cf57600080fd5b87516112da81610eae565b96506112e8602089016111ca565b95506112f6604089016111ca565b945061130460608901611292565b935061131260808901611292565b925060a088015160ff8116811461132857600080fd5b915061133660c089016112a4565b905092959891949750929550565b60006020828403121561135657600080fd5b5051919050565b6080815260006113706080830187610f1e565b60029590950b6020830152506001600160a01b03929092166040830152606090910152919050565b60008082840360608112156113ac57600080fd5b60408112156113ba57600080fd5b506040516040810181811067ffffffffffffffff821117156113de576113de6110c0565b6040526113ea846111ca565b81526113f8602085016111ca565b6020820152915061140b604084016112a4565b90509250929050565b600082601f83011261142557600080fd5b8151602061143561117483611107565b82815260059290921b8401810191818101908684111561145457600080fd5b8286015b8481101561146f5780518352918301918301611458565b509695505050505050565b6000806040838503121561148d57600080fd5b825167ffffffffffffffff808211156114a557600080fd5b6114b186838701611414565b935060208501519150808211156114c757600080fd5b506114d485828601611414565b9150509250929050565b80516001600160801b038116811461106e57600080fd5b60008060008060008060008060008060006101608c8e03121561151757600080fd5b8b516affffffffffffffffffffff8116811461153257600080fd5b60208d0151909b5061154381610eae565b60408d0151909a5061155481610eae565b985061156260608d01611063565b975061157060808d016111ca565b965061157e60a08d016111ca565b955061158c60c08d016114de565b945060e08c015193506101008c015192506115aa6101208d016114de565b91506115b96101408d016114de565b90509295989b509295989b9093969950565b600080604083850312156115de57600080fd5b505080516020909101519092909150565b634e487b7160e01b600052603260045260246000fd5b634e487b7160e01b600052601160045260246000fd5b60008282101561162d5761162d611605565b500390565b6000821982111561164557611645611605565b500190565b600060001982141561165e5761165e611605565b506001019056fea2646970667358221220beb47b94e58e930c6f4037826ac267dee21edf60fd28ac265169ad3d38a1ac4364736f6c63430008090033",
    "linkReferences": {}
  },
  "methodIdentifiers": {
    "D6()": "a11bac74",
    "Q96()": "40792465",
    "calculateAmountForSwap(address)": "e6412b5c",
    "getStrategyParams(address)": "7b23e1bd"
  },
  "id": 409
}