{
  "abi": [
    {
      "anonymous": false,
      "inputs": [
        {
          "indexed": true,
          "internalType": "address",
          "name": "origin",
          "type": "address"
        },
        {
          "indexed": true,
          "internalType": "address",
          "name": "sender",
          "type": "address"
        },
        {
          "indexed": false,
          "internalType": "address[]",
          "name": "vaultTokens_",
          "type": "address[]"
        },
        {
          "indexed": false,
          "internalType": "uint256",
          "name": "nft_",
          "type": "uint256"
        }
      ],
      "name": "Initialized",
      "type": "event"
    },
    {
      "anonymous": false,
      "inputs": [
        {
          "indexed": false,
          "internalType": "address",
          "name": "to",
          "type": "address"
        },
        {
          "indexed": false,
          "internalType": "uint256[]",
          "name": "tokenAmounts",
          "type": "uint256[]"
        }
      ],
      "name": "Pull",
      "type": "event"
    },
    {
      "anonymous": false,
      "inputs": [
        {
          "indexed": false,
          "internalType": "uint256[]",
          "name": "tokenAmounts",
          "type": "uint256[]"
        }
      ],
      "name": "Push",
      "type": "event"
    },
    {
      "anonymous": false,
      "inputs": [
        {
          "indexed": false,
          "internalType": "address",
          "name": "to",
          "type": "address"
        },
        {
          "indexed": false,
          "internalType": "address[]",
          "name": "tokens",
          "type": "address[]"
        },
        {
          "indexed": false,
          "internalType": "uint256[]",
          "name": "tokenAmounts",
          "type": "uint256[]"
        }
      ],
      "name": "ReclaimTokens",
      "type": "event"
    },
    {
      "inputs": [
        {
          "internalType": "address",
          "name": "to",
          "type": "address"
        },
        {
          "internalType": "bytes4",
          "name": "selector",
          "type": "bytes4"
        },
        {
          "internalType": "bytes",
          "name": "data",
          "type": "bytes"
        }
      ],
      "name": "externalCall",
      "outputs": [
        {
          "internalType": "bytes",
          "name": "result",
          "type": "bytes"
        }
      ],
      "stateMutability": "payable",
      "type": "function"
    },
    {
      "inputs": [
        {
          "internalType": "uint256",
          "name": "nft_",
          "type": "uint256"
        },
        {
          "internalType": "address[]",
          "name": "vaultTokens_",
          "type": "address[]"
        },
        {
          "internalType": "contract IERC20RootVault",
          "name": "vault_",
          "type": "address"
        }
      ],
      "name": "initialize",
      "outputs": [],
      "stateMutability": "nonpayable",
      "type": "function"
    },
    {
      "inputs": [],
      "name": "initialized",
      "outputs": [
        {
          "internalType": "bool",
          "name": "",
          "type": "bool"
        }
      ],
      "stateMutability": "view",
      "type": "function"
    },
    {
      "inputs": [
        {
          "internalType": "bytes32",
          "name": "_hash",
          "type": "bytes32"
        },
        {
          "internalType": "bytes",
          "name": "_signature",
          "type": "bytes"
        }
      ],
      "name": "isValidSignature",
      "outputs": [
        {
          "internalType": "bytes4",
          "name": "magicValue",
          "type": "bytes4"
        }
      ],
      "stateMutability": "view",
      "type": "function"
    },
    {
      "inputs": [
        {
          "internalType": "address",
          "name": "token",
          "type": "address"
        }
      ],
      "name": "isVaultToken",
      "outputs": [
        {
          "internalType": "bool",
          "name": "",
          "type": "bool"
        }
      ],
      "stateMutability": "view",
      "type": "function"
    },
    {
      "inputs": [],
      "name": "nft",
      "outputs": [
        {
          "internalType": "uint256",
          "name": "",
          "type": "uint256"
        }
      ],
      "stateMutability": "view",
      "type": "function"
    },
    {
      "inputs": [
        {
          "internalType": "address",
          "name": "to",
          "type": "address"
        },
        {
          "internalType": "address[]",
          "name": "tokens",
          "type": "address[]"
        },
        {
          "internalType": "uint256[]",
          "name": "tokenAmounts",
          "type": "uint256[]"
        },
        {
          "internalType": "bytes",
          "name": "options",
          "type": "bytes"
        }
      ],
      "name": "pull",
      "outputs": [
        {
          "internalType": "uint256[]",
          "name": "actualTokenAmounts",
          "type": "uint256[]"
        }
      ],
      "stateMutability": "nonpayable",
      "type": "function"
    },
    {
      "inputs": [],
      "name": "pullExistentials",
      "outputs": [
        {
          "internalType": "uint256[]",
          "name": "",
          "type": "uint256[]"
        }
      ],
      "stateMutability": "view",
      "type": "function"
    },
    {
      "inputs": [
        {
          "internalType": "address[]",
          "name": "tokens",
          "type": "address[]"
        },
        {
          "internalType": "uint256[]",
          "name": "tokenAmounts",
          "type": "uint256[]"
        },
        {
          "internalType": "bytes",
          "name": "options",
          "type": "bytes"
        }
      ],
      "name": "push",
      "outputs": [
        {
          "internalType": "uint256[]",
          "name": "actualTokenAmounts",
          "type": "uint256[]"
        }
      ],
      "stateMutability": "nonpayable",
      "type": "function"
    },
    {
      "inputs": [
        {
          "internalType": "address[]",
          "name": "tokens",
          "type": "address[]"
        }
      ],
      "name": "reclaimTokens",
      "outputs": [
        {
          "internalType": "uint256[]",
          "name": "actualTokenAmounts",
          "type": "uint256[]"
        }
      ],
      "stateMutability": "nonpayable",
      "type": "function"
    },
    {
      "inputs": [
        {
          "internalType": "bytes4",
          "name": "interfaceId",
          "type": "bytes4"
        }
      ],
      "name": "supportsInterface",
      "outputs": [
        {
          "internalType": "bool",
          "name": "",
          "type": "bool"
        }
      ],
      "stateMutability": "view",
      "type": "function"
    },
    {
      "inputs": [
        {
          "internalType": "address",
          "name": "from",
          "type": "address"
        },
        {
          "internalType": "address[]",
          "name": "tokens",
          "type": "address[]"
        },
        {
          "internalType": "uint256[]",
          "name": "tokenAmounts",
          "type": "uint256[]"
        },
        {
          "internalType": "bytes",
          "name": "options",
          "type": "bytes"
        }
      ],
      "name": "transferAndPush",
      "outputs": [
        {
          "internalType": "uint256[]",
          "name": "actualTokenAmounts",
          "type": "uint256[]"
        }
      ],
      "stateMutability": "nonpayable",
      "type": "function"
    },
    {
      "inputs": [],
      "name": "tvl",
      "outputs": [
        {
          "internalType": "uint256[]",
          "name": "minTokenAmounts",
          "type": "uint256[]"
        },
        {
          "internalType": "uint256[]",
          "name": "maxTokenAmounts",
          "type": "uint256[]"
        }
      ],
      "stateMutability": "view",
      "type": "function"
    },
    {
      "inputs": [],
      "name": "vault",
      "outputs": [
        {
          "internalType": "contract IERC20RootVault",
          "name": "",
          "type": "address"
        }
      ],
      "stateMutability": "view",
      "type": "function"
    },
    {
      "inputs": [],
      "name": "vaultGovernance",
      "outputs": [
        {
          "internalType": "contract IVaultGovernance",
          "name": "",
          "type": "address"
        }
      ],
      "stateMutability": "view",
      "type": "function"
    },
    {
      "inputs": [],
      "name": "vaultTokens",
      "outputs": [
        {
          "internalType": "address[]",
          "name": "",
          "type": "address[]"
        }
      ],
      "stateMutability": "view",
      "type": "function"
    }
  ],
  "bytecode": {
    "object": "0x608060405234801561001057600080fd5b506001600055600019600455613fd88061002b6000396000f3fe6080604052600436106100f35760003560e01c806347ccca021161008a578063d2c219b011610059578063d2c219b0146102c4578063e5328e06146102d9578063fbfa77cf146102fc578063fe255a5e1461033457600080fd5b806347ccca021461024257806352af719f14610260578063566ca6b41461028257806369722233146102a257600080fd5b80632062d754116100c65780632062d754146101aa57806327a35e5a146101ca5780632e2f4cc2146101ea578063338c4ccb1461020a57600080fd5b806301ffc9a7146100f857806305e1c9421461012d578063158ef93e1461015a5780631626ba7e14610171575b600080fd5b34801561010457600080fd5b506101186101133660046133dd565b610352565b60405190151581526020015b60405180910390f35b34801561013957600080fd5b5061014d6101483660046134ec565b610399565b604051610124919061355b565b34801561016657600080fd5b506004541515610118565b34801561017d57600080fd5b5061019161018c3660046135dd565b610816565b6040516001600160e01b03199091168152602001610124565b3480156101b657600080fd5b5061014d6101c536600461367e565b610b63565b3480156101d657600080fd5b5061014d6101e536600461367e565b61100f565b6101fd6101f8366004613718565b611196565b6040516101249190613801565b34801561021657600080fd5b50610118610225366004613814565b6001600160a01b0316600090815260036020526040902054151590565b34801561024e57600080fd5b50600454604051908152602001610124565b34801561026c57600080fd5b5061028061027b366004613831565b61146a565b005b34801561028e57600080fd5b5061014d61029d36600461388b565b6116f8565b3480156102ae57600080fd5b506102b76119c8565b604051610124919061394b565b3480156102d057600080fd5b5061014d611a2a565b3480156102e557600080fd5b506102ee611a81565b60405161012492919061395e565b34801561030857600080fd5b5060065461031c906001600160a01b031681565b6040516001600160a01b039091168152602001610124565b34801561034057600080fd5b506001546001600160a01b031661031c565b600061035d82611c92565b8061037857506001600160e01b03198216633d31d51d60e11b145b8061039357506001600160e01b03198216630b135d3f60e11b145b92915050565b60606103a3611cc8565b6004805460408051808201909152918252631253925560e21b602083015290816103e95760405162461bcd60e51b81526004016103e09190613801565b60405180910390fd5b5060015460408051637ac46fbb60e01b815290516000926001600160a01b031691637ac46fbb916004808301926060929190829003018186803b15801561042f57600080fd5b505afa158015610443573d6000803e3d6000fd5b505050506040513d601f19601f82011682018060405250810190610467919061398c565b805160208201516040516331a9108f60e11b81526004810186905292935090916000906001600160a01b03831690636352211e9060240160206040518083038186803b1580156104b657600080fd5b505afa1580156104ca573d6000803e3d6000fd5b505050506040513d601f19601f820116820180604052508101906104ee91906139fd565b905060006104fd838784611d22565b604051639bd0911b60e01b8152600060048201526001600160a01b039190911690639bd0911b9060240160206040518083038186803b15801561053f57600080fd5b505afa158015610553573d6000803e3d6000fd5b505050506040513d601f19601f8201168201806040525081019061057791906139fd565b905087516001600160401b03811115610592576105926133fa565b6040519080825280602002602001820160405280156105bb578160200160208202803683370190505b5096506001600160a01b0381163014156105da57505050505050610807565b60005b88518110156107c4576106088982815181106105fb576105fb613a1a565b6020026020010151611df5565b806106ba5750846001600160a01b03166363e85d2d8a838151811061062f5761062f613a1a565b60209081029190910101516040516001600160e01b031960e084901b1681526001600160a01b0390911660048201526002602482015260440160206040518083038186803b15801561068057600080fd5b505afa158015610694573d6000803e3d6000fd5b505050506040513d601f19601f820116820180604052508101906106b89190613a30565b155b156106c4576107b4565b60008982815181106106d8576106d8613a1a565b60209081029190910101516040516370a0823160e01b81523060048201529091506001600160a01b038216906370a082319060240160206040518083038186803b15801561072557600080fd5b505afa158015610739573d6000803e3d6000fd5b505050506040513d601f19601f8201168201806040525081019061075d9190613a52565b89838151811061076f5761076f613a1a565b6020026020010181815250506107b2838a848151811061079157610791613a1a565b6020026020010151836001600160a01b0316611ee79092919063ffffffff16565b505b6107bd81613a81565b90506105dd565b507f9efcb26e0cf572bd9171640e114f387cef91cd3e38532ed6b3f80c7f2e758f878189896040516107f893929190613a9c565b60405180910390a15050505050505b6108116001600055565b919050565b600080600160009054906101000a90046001600160a01b03166001600160a01b0316637ac46fbb6040518163ffffffff1660e01b815260040160606040518083038186803b15801561086757600080fd5b505afa15801561087b573d6000803e3d6000fd5b505050506040513d601f19601f8201168201806040525081019061089f919061398c565b602081015181516004549293509091806108c857506001600160e01b0319935061039392505050565b60405163020604bf60e21b8152600481018290526000906001600160a01b0385169063081812fc9060240160206040518083038186803b15801561090b57600080fd5b505afa15801561091f573d6000803e3d6000fd5b505050506040513d601f19601f8201168201806040525081019061094391906139fd565b6040516363e85d2d60e01b81526001600160a01b03808316600483015260066024830152919250908416906363e85d2d9060440160206040518083038186803b15801561098f57600080fd5b505afa1580156109a3573d6000803e3d6000fd5b505050506040513d601f19601f820116820180604052508101906109c79190613a30565b6109e157506001600160e01b031994506103939350505050565b803b63ffffffff811615610b14576040516301ffc9a760e01b8152630b135d3f60e11b60048201526001600160a01b038316906301ffc9a79060240160206040518083038186803b158015610a3557600080fd5b505afa158015610a49573d6000803e3d6000fd5b505050506040513d601f19601f82011682018060405250810190610a6d9190613a30565b15610afd57604051630b135d3f60e11b81526001600160a01b03831690631626ba7e90610aa0908c908c90600401613adc565b60206040518083038186803b158015610ab857600080fd5b505afa158015610acc573d6000803e3d6000fd5b505050506040513d601f19601f82011682018060405250810190610af09190613af5565b9650505050505050610393565b506001600160e01b03199550610393945050505050565b816001600160a01b0316610b288a8a611f4f565b6001600160a01b03161415610b4d5750630b135d3f60e11b9550610393945050505050565b506001600160e01b031998975050505050505050565b6060610b6d611cc8565b6004805460408051808201909152918252631253925560e21b60208301529081610baa5760405162461bcd60e51b81526004016103e09190613801565b50610bb433611fce565b6040518060400160405280600381526020016223292160e91b81525090610bee5760405162461bcd60e51b81526004016103e09190613801565b5060015460408051637ac46fbb60e01b815290516000926001600160a01b031691637ac46fbb916004808301926060929190829003018186803b158015610c3457600080fd5b505afa158015610c48573d6000803e3d6000fd5b505050506040513d601f19601f82011682018060405250810190610c6c919061398c565b602001516040516331a9108f60e11b8152600481018490529091506000906001600160a01b03831690636352211e9060240160206040518083038186803b158015610cb657600080fd5b505afa158015610cca573d6000803e3d6000fd5b505050506040513d601f19601f82011682018060405250810190610cee91906139fd565b90506000610cfd838584611d22565b90506001600160a01b0382163314610f3a57604051639bd0911b60e01b8152600060048201819052906001600160a01b03831690639bd0911b9060240160206040518083038186803b158015610d5257600080fd5b505afa158015610d66573d6000803e3d6000fd5b505050506040513d601f19601f82011682018060405250810190610d8a91906139fd565b90506001600160a01b038116301415610ee55760405163fcdabd2760e01b81526001600160a01b038b8116600483015280841691639d9fd0d99187169063fcdabd279060240160206040518083038186803b158015610de857600080fd5b505afa158015610dfc573d6000803e3d6000fd5b505050506040513d601f19601f82011682018060405250810190610e209190613a52565b6040518263ffffffff1660e01b8152600401610e3e91815260200190565b60206040518083038186803b158015610e5657600080fd5b505afa158015610e6a573d6000803e3d6000fd5b505050506040513d601f19601f82011682018060405250810190610e8e9190613a30565b8015610ea357506001600160a01b038a163014155b6040518060400160405280600581526020016424a72b2a2960d91b81525090610edf5760405162461bcd60e51b81526004016103e09190613801565b50610f38565b896001600160a01b0316816001600160a01b0316146040518060400160405280600581526020016424a72b2a2960d91b81525090610f365760405162461bcd60e51b81526004016103e09190613801565b505b505b6000610f46898961218c565b90506000610f558b838a612278565b9050610fbc8a6002805480602002602001604051908101604052809291908181526020018280548015610fb157602002820191906000526020600020905b81546001600160a01b03168152600190910190602001808311610f93575b50505050508361255a565b96507f54f9e6ef58e36de62f59f9ee6c4b878af84989c53a3642eba415ac3ac4e11cda8b88604051610fef929190613b12565b60405180910390a15050505050506110076001600055565b949350505050565b825160609060005b818110156110a25784818151811061103157611031613a1a565b602002602001015160001461109257611092873087848151811061105757611057613a1a565b602002602001015189858151811061107157611071613a1a565b60200260200101516001600160a01b031661277b909392919063ffffffff16565b61109b81613a81565b9050611017565b506110ae8585856116f8565b915060005b855181101561118c5760008582815181106110d0576110d0613a1a565b60200260200101518483815181106110ea576110ea613a1a565b6020026020010151106110fe57600061113c565b83828151811061111057611110613a1a565b602002602001015186838151811061112a5761112a613a1a565b602002602001015161113c9190613b36565b9050801561117b5761117b888289858151811061115b5761115b613a1a565b60200260200101516001600160a01b0316611ee79092919063ffffffff16565b5061118581613a81565b90506110b3565b5050949350505050565b60606111a0611cc8565b6004805460408051808201909152918252631253925560e21b60208301526111db5760405162461bcd60e51b81526004016103e09190613801565b506111e533611fce565b6040518060400160405280600381526020016223292160e91b8152509061121f5760405162461bcd60e51b81526004016103e09190613801565b5060015460408051637ac46fbb60e01b815290516000926001600160a01b031691637ac46fbb916004808301926060929190829003018186803b15801561126557600080fd5b505afa158015611279573d6000803e3d6000fd5b505050506040513d601f19601f8201168201806040525081019061129d919061398c565b51604051631f4a58fb60e31b81526001600160a01b03888116600483015291925060009183169063fa52c7d89060240160206040518083038186803b1580156112e557600080fd5b505afa1580156112f9573d6000803e3d6000fd5b505050506040513d601f19601f8201168201806040525081019061131d91906139fd565b60408051808201909152600381526223292160e91b60208201529091506001600160a01b0382166113615760405162461bcd60e51b81526004016103e09190613801565b50604051631796170d60e21b81526001600160a01b03821690635e585c34906113989033908b9034908c908c908c90600401613b4d565b60006040518083038186803b1580156113b057600080fd5b505afa1580156113c4573d6000803e3d6000fd5b50505050600080886001600160a01b0316348989896040516020016113eb93929190613bb2565b60408051601f198184030181529082905261140591613bd6565b60006040518083038185875af1925050503d8060008114611442576040519150601f19603f3d011682016040523d82523d6000602084013e611447565b606091505b50915091508161145a5780518082602001fd5b6001600055935061100792505050565b61147482846127b9565b6000816001600160a01b031663697222336040518163ffffffff1660e01b815260040160006040518083038186803b1580156114af57600080fd5b505afa1580156114c3573d6000803e3d6000fd5b505050506040513d6000823e601f3d908101601f191682016040526114eb9190810190613bf2565b905060005b835181101561158f5783818151811061150b5761150b613a1a565b60200260200101516001600160a01b031682828151811061152e5761152e613a1a565b60200260200101516001600160a01b03161460405180604001604052806005815260200164494e56544f60d81b8152509061157c5760405162461bcd60e51b81526004016103e09190613801565b508061158781613a81565b9150506114f0565b5060015460408051637ac46fbb60e01b815290516000926001600160a01b031691637ac46fbb916004808301926060929190829003018186803b1580156115d557600080fd5b505afa1580156115e9573d6000803e3d6000fd5b505050506040513d601f19601f8201168201806040525081019061160d919061398c565b6020015160065460405163fcdabd2760e01b81526001600160a01b0391821660048201529192506000919083169063fcdabd279060240160206040518083038186803b15801561165c57600080fd5b505afa158015611670573d6000803e3d6000fd5b505050506040513d601f19601f820116820180604052508101906116949190613a52565b1160405180604001604052806004815260200163494e564960e01b815250906116d05760405162461bcd60e51b81526004016103e09190613801565b5050600680546001600160a01b0319166001600160a01b039390931692909217909155505050565b6060611702611cc8565b6004805460408051808201909152918252631253925560e21b6020830152908161173f5760405162461bcd60e51b81526004016103e09190613801565b5060015460408051637ac46fbb60e01b815290516000926001600160a01b031691637ac46fbb916004808301926060929190829003018186803b15801561178557600080fd5b505afa158015611799573d6000803e3d6000fd5b505050506040513d601f19601f820116820180604052508101906117bd919061398c565b602001516040516331a9108f60e11b8152600481018490529091506000906001600160a01b03831690636352211e9060240160206040518083038186803b15801561180757600080fd5b505afa15801561181b573d6000803e3d6000fd5b505050506040513d601f19601f8201168201806040525081019061183f91906139fd565b60405163fcdabd2760e01b81526001600160a01b03808316600483015291925060009184169063fcdabd279060240160206040518083038186803b15801561188657600080fd5b505afa15801561189a573d6000803e3d6000fd5b505050506040513d601f19601f820116820180604052508101906118be9190613a52565b604080518082019091526002815261272360f11b6020820152909150816118f85760405162461bcd60e51b81526004016103e09190613801565b506000611905898961218c565b905060006119138289612c44565b90506119788a6002805480602002602001604051908101604052809291908181526020018280548015610fb1576020028201919060005260206000209081546001600160a01b03168152600190910190602001808311610f935750505050508361255a565b96507f08e404e978692dd1b8275016b7a7b0b3ae4afd06b0cec7228060bb2da18c84fd816040516119a9919061355b565b60405180910390a15050505050506119c16001600055565b9392505050565b60606002805480602002602001604051908101604052809291908181526020018280548015611a2057602002820191906000526020600020905b81546001600160a01b03168152600190910190602001808311611a02575b5050505050905090565b60606005805480602002602001604051908101604052809291908181526020018280548015611a2057602002820191906000526020600020905b815481526020019060010190808311611a64575050505050905090565b6006546040516370a0823160e01b815230600482015260609182916001600160a01b039091169060009082906370a082319060240160206040518083038186803b158015611ace57600080fd5b505afa158015611ae2573d6000803e3d6000fd5b505050506040513d601f19601f82011682018060405250810190611b069190613a52565b90506000826001600160a01b03166318160ddd6040518163ffffffff1660e01b815260040160206040518083038186803b158015611b4357600080fd5b505afa158015611b57573d6000803e3d6000fd5b505050506040513d601f19601f82011682018060405250810190611b7b9190613a52565b9050826001600160a01b031663e5328e066040518163ffffffff1660e01b815260040160006040518083038186803b158015611bb657600080fd5b505afa158015611bca573d6000803e3d6000fd5b505050506040513d6000823e601f3d908101601f19168201604052611bf29190810190613cdb565b909550935060005b8551811015611c8a57611c2783878381518110611c1957611c19613a1a565b602002602001015184612dbb565b868281518110611c3957611c39613a1a565b602002602001018181525050611c5b83868381518110611c1957611c19613a1a565b858281518110611c6d57611c6d613a1a565b602090810291909101015280611c8281613a81565b915050611bfa565b505050509091565b60006301ffc9a760e01b6001600160e01b03198316148061039357506001600160e01b0319821663305a640b60e21b1492915050565b60026000541415611d1b5760405162461bcd60e51b815260206004820152601f60248201527f5265656e7472616e637947756172643a207265656e7472616e742063616c6c0060448201526064016103e0565b6002600055565b60405163fcdabd2760e01b81526001600160a01b038281166004830152600091829186169063fcdabd279060240160206040518083038186803b158015611d6857600080fd5b505afa158015611d7c573d6000803e3d6000fd5b505050506040513d601f19601f82011682018060405250810190611da09190613a52565b90508315801590611db057508015155b604051806040016040528060048152602001631253925560e21b81525090611deb5760405162461bcd60e51b81526004016103e09190613801565b5091949350505050565b600080600660009054906101000a90046001600160a01b03166001600160a01b031663697222336040518163ffffffff1660e01b815260040160006040518083038186803b158015611e4657600080fd5b505afa158015611e5a573d6000803e3d6000fd5b505050506040513d6000823e601f3d908101601f19168201604052611e829190810190613bf2565b905060005b8151811015611edd57836001600160a01b0316828281518110611eac57611eac613a1a565b60200260200101516001600160a01b03161415611ecd575060019392505050565b611ed681613a81565b9050611e87565b5060009392505050565b6040516001600160a01b038316602482015260448101829052611f4a90849063a9059cbb60e01b906064015b60408051601f198184030181529190526020810180516001600160e01b03166001600160e01b031990931692909217909152612e6e565b505050565b600080600080611f5e85612f43565b6040805160008152602081018083528b905260ff8316918101919091526060810184905260808101839052929550909350915060019060a0016020604051602081039080840390855afa158015611fb9573d6000803e3d6000fd5b5050604051601f190151979650505050505050565b600080600160009054906101000a90046001600160a01b03166001600160a01b0316637ac46fbb6040518163ffffffff1660e01b815260040160606040518083038186803b15801561201f57600080fd5b505afa158015612033573d6000803e3d6000fd5b505050506040513d601f19601f82011682018060405250810190612057919061398c565b6020015160045490915080612070575060009392505050565b60405163020604bf60e21b8152600481018290526001600160a01b03808616919084169063081812fc9060240160206040518083038186803b1580156120b557600080fd5b505afa1580156120c9573d6000803e3d6000fd5b505050506040513d601f19601f820116820180604052508101906120ed91906139fd565b6001600160a01b0316148061100757506040516331a9108f60e11b8152600481018290526001600160a01b038086169190841690636352211e9060240160206040518083038186803b15801561214257600080fd5b505afa158015612156573d6000803e3d6000fd5b505050506040513d601f19601f8201168201806040525081019061217a91906139fd565b6001600160a01b031614949350505050565b606061219783612fa7565b60405180604001604052806004815260200163494e564160e01b815250906121d25760405162461bcd60e51b81526004016103e09190613801565b5081518351146040518060400160405280600381526020016224a72b60e91b815250906122125760405162461bcd60e51b81526004016103e09190613801565b506119c1600280548060200260200160405190810160405280929190818152602001828054801561226c57602002820191906000526020600020905b81546001600160a01b0316815260019091019060200180831161224e575b5050505050848461255a565b60065481516060916001600160a01b0316906000906122a09085016020908101908601613d34565b905060006122ac611a81565b506006546040516370a0823160e01b81523060048201529192506000916001600160a01b03909116906370a082319060240160206040518083038186803b1580156122f657600080fd5b505afa15801561230a573d6000803e3d6000fd5b505050506040513d601f19601f8201168201806040525081019061232e9190613a52565b905060001960005b885181101561239f57600061237e848b848151811061235757612357613a1a565b602002602001015187858151811061237157612371613a1a565b6020026020010151612dbb565b90508281101561238c578092505b508061239781613a81565b915050612336565b50818111156123ab5750805b60065460408051637918397360e01b815290516000926001600160a01b03169163791839739160048083019286929190829003018186803b1580156123ef57600080fd5b505afa158015612403573d6000803e3d6000fd5b505050506040513d6000823e601f3d908101601f1916820160405261242b9190810190613d34565b516001600160401b03811115612443576124436133fa565b60405190808252806020026020018201604052801561247657816020015b60608152602001906001900390816124615790505b50905060005b81518110156124c357604051806020016040528060008152508282815181106124a7576124a7613a1a565b6020026020010181905250806124bc90613a81565b905061247c565b5060405163209247eb60e21b81526001600160a01b038716906382491fac906124f6908d9086908a908790600401613d68565b600060405180830381600087803b15801561251057600080fd5b505af1158015612524573d6000803e3d6000fd5b505050506040513d6000823e601f3d908101601f1916820160405261254c9190810190613d34565b9a9950505050505050505050565b6060600084516001600160401b03811115612577576125776133fa565b6040519080825280602002602001820160405280156125a0578160200160208202803683370190505b5090506000805b8651821080156125b75750855181105b15612736578581815181106125ce576125ce613a1a565b60200260200101516001600160a01b03168783815181106125f1576125f1613a1a565b60200260200101516001600160a01b0316101561263957600083838151811061261c5761261c613a1a565b60209081029190910101528161263181613a81565b9250506125a7565b85818151811061264b5761264b613a1a565b60200260200101516001600160a01b031687838151811061266e5761266e613a1a565b60200260200101516001600160a01b031611156126e75784818151811061269757612697613a1a565b6020026020010151600014156126b957806126b181613a81565b9150506125a7565b60405162461bcd60e51b815260206004820152600360248201526254505360e81b60448201526064016103e0565b8481815181106126f9576126f9613a1a565b602002602001015183838151811061271357612713613a1a565b60209081029190910101528161272881613a81565b92505080806126b190613a81565b865182101561277057600083838151811061275357612753613a1a565b60209081029190910101528161276881613a81565b925050612736565b509095945050505050565b6040516001600160a01b03808516602483015283166044820152606481018290526127b39085906323b872dd60e01b90608401611f13565b50505050565b6004805460408051808201909152918252631253925560e21b6020830152156127f55760405162461bcd60e51b81526004016103e09190613801565b506127ff82612fa7565b60405180604001604052806004815260200163494e564160e01b8152509061283a5760405162461bcd60e51b81526004016103e09190613801565b506040805180820190915260028152612b2d60f11b6020820152816128725760405162461bcd60e51b81526004016103e09190613801565b506000336001600160a01b0316637ac46fbb6040518163ffffffff1660e01b815260040160606040518083038186803b1580156128ae57600080fd5b505afa1580156128c2573d6000803e3d6000fd5b505050506040513d601f19601f820116820180604052508101906128e6919061398c565b5183519091501580159061296b5750806001600160a01b03166378546fa26040518163ffffffff1660e01b815260040160206040518083038186803b15801561292e57600080fd5b505afa158015612942573d6000803e3d6000fd5b505050506040513d601f19601f820116820180604052508101906129669190613a52565b835111155b6040518060400160405280600381526020016224a72b60e91b815250906129a55760405162461bcd60e51b81526004016103e09190613801565b5060005b8351811015612aa957816001600160a01b03166363e85d2d8583815181106129d3576129d3613a1a565b60209081029190910101516040516001600160e01b031960e084901b1681526001600160a01b0390911660048201526003602482015260440160206040518083038186803b158015612a2457600080fd5b505afa158015612a38573d6000803e3d6000fd5b505050506040513d601f19601f82011682018060405250810190612a5c9190613a30565b6040518060400160405280600381526020016223292160e91b81525090612a965760405162461bcd60e51b81526004016103e09190613801565b5080612aa181613a81565b9150506129a9565b50600180546001600160a01b031916331790558251612acf90600290602086019061334a565b50600482905560025460005b81811015612bff57612aee816001613def565b60036000878481518110612b0457612b04613a1a565b60200260200101516001600160a01b03166001600160a01b03168152602001908152602001600020819055506000858281518110612b4457612b44613a1a565b6020026020010151905060056002826001600160a01b031663313ce5676040518163ffffffff1660e01b815260040160206040518083038186803b158015612b8b57600080fd5b505afa158015612b9f573d6000803e3d6000fd5b505050506040513d601f19601f82011682018060405250810190612bc39190613e07565b612bcd9190613e2a565b612bd890600a613f3e565b8154600181018355600092835260209092209091015550612bf881613a81565b9050612adb565b50604051339032907f0f043e55a1ce0d7ce25125ccbc2800b540d83e21abf7250f0156c2091a28b22190612c369088908890613f4d565b60405180910390a350505050565b602081015160609060005b8451811015612cc6576006548551612cb4916001600160a01b031690879084908110612c7d57612c7d613a1a565b602002602001015160028481548110612c9857612c98613a1a565b6000918252602090912001546001600160a01b0316919061304a565b80612cbe81613a81565b915050612c4f565b50600654604051631528fd1d60e21b81526001600160a01b03909116906354a3f47490612cf99087908590600401613f6f565b600060405180830381600087803b158015612d1357600080fd5b505af1158015612d27573d6000803e3d6000fd5b505050506040513d6000823e601f3d908101601f19168201604052612d4f9190810190613d34565b915060005b8451811015612db35760065460028054612da1926001600160a01b03169160009185908110612d8557612d85613a1a565b6000918252602090912001546001600160a01b03169190613106565b80612dab81613a81565b915050612d54565b505092915050565b600080806000198587098587029250828110838203039150508060001415612df55760008411612dea57600080fd5b5082900490506119c1565b808411612e0157600080fd5b6000848688096000868103871696879004966002600389028118808a02820302808a02820302808a02820302808a02820302808a02820302808a02909103029181900381900460010186841190950394909402919094039290920491909117919091029150509392505050565b6000612ec3826040518060400160405280602081526020017f5361666545524332303a206c6f772d6c6576656c2063616c6c206661696c6564815250856001600160a01b031661322a9092919063ffffffff16565b9050805160001480612ee4575080806020019051810190612ee49190613a30565b611f4a5760405162461bcd60e51b815260206004820152602a60248201527f5361666545524332303a204552433230206f7065726174696f6e20646964206e6044820152691bdd081cdd58d8d9595960b21b60648201526084016103e0565b60008060008351604114604051806040016040528060048152602001631253959360e21b81525090612f885760405162461bcd60e51b81526004016103e09190613801565b5050505060208101516040820151606090920151909260009190911a90565b6000600282511015612fbb57506001919050565b60005b60018351612fcc9190613b36565b8110156130415782612fdf826001613def565b81518110612fef57612fef613a1a565b60200260200101516001600160a01b031683828151811061301257613012613a1a565b60200260200101516001600160a01b0316106130315750600092915050565b61303a81613a81565b9050612fbe565b50600192915050565b604051636eb1769f60e11b81523060048201526001600160a01b0383811660248301526000919085169063dd62ed3e9060440160206040518083038186803b15801561309557600080fd5b505afa1580156130a9573d6000803e3d6000fd5b505050506040513d601f19601f820116820180604052508101906130cd9190613a52565b90506127b38463095ea7b360e01b856130e68686613def565b6040516001600160a01b0390921660248301526044820152606401611f13565b80158061318f5750604051636eb1769f60e11b81523060048201526001600160a01b03838116602483015284169063dd62ed3e9060440160206040518083038186803b15801561315557600080fd5b505afa158015613169573d6000803e3d6000fd5b505050506040513d601f19601f8201168201806040525081019061318d9190613a52565b155b6131fa5760405162461bcd60e51b815260206004820152603660248201527f5361666545524332303a20617070726f76652066726f6d206e6f6e2d7a65726f60448201527520746f206e6f6e2d7a65726f20616c6c6f77616e636560501b60648201526084016103e0565b6040516001600160a01b038316602482015260448101829052611f4a90849063095ea7b360e01b90606401611f13565b6060611007848460008585600080866001600160a01b031685876040516132519190613bd6565b60006040518083038185875af1925050503d806000811461328e576040519150601f19603f3d011682016040523d82523d6000602084013e613293565b606091505b50915091506132a4878383876132af565b979650505050505050565b6060831561331b578251613314576001600160a01b0385163b6133145760405162461bcd60e51b815260206004820152601d60248201527f416464726573733a2063616c6c20746f206e6f6e2d636f6e747261637400000060448201526064016103e0565b5081611007565b61100783838151156133305781518083602001fd5b8060405162461bcd60e51b81526004016103e09190613801565b82805482825590600052602060002090810192821561339f579160200282015b8281111561339f57825182546001600160a01b0319166001600160a01b0390911617825560209092019160019091019061336a565b506133ab9291506133af565b5090565b5b808211156133ab57600081556001016133b0565b6001600160e01b0319811681146133da57600080fd5b50565b6000602082840312156133ef57600080fd5b81356119c1816133c4565b634e487b7160e01b600052604160045260246000fd5b604051601f8201601f191681016001600160401b0381118282101715613438576134386133fa565b604052919050565b60006001600160401b03821115613459576134596133fa565b5060051b60200190565b6001600160a01b03811681146133da57600080fd5b600082601f83011261348957600080fd5b8135602061349e61349983613440565b613410565b82815260059290921b840181019181810190868411156134bd57600080fd5b8286015b848110156134e15780356134d481613463565b83529183019183016134c1565b509695505050505050565b6000602082840312156134fe57600080fd5b81356001600160401b0381111561351457600080fd5b61100784828501613478565b600081518084526020808501945080840160005b8381101561355057815187529582019590820190600101613534565b509495945050505050565b6020815260006119c16020830184613520565b600082601f83011261357f57600080fd5b81356001600160401b03811115613598576135986133fa565b6135ab601f8201601f1916602001613410565b8181528460208386010111156135c057600080fd5b816020850160208301376000918101602001919091529392505050565b600080604083850312156135f057600080fd5b8235915060208301356001600160401b0381111561360d57600080fd5b6136198582860161356e565b9150509250929050565b600082601f83011261363457600080fd5b8135602061364461349983613440565b82815260059290921b8401810191818101908684111561366357600080fd5b8286015b848110156134e15780358352918301918301613667565b6000806000806080858703121561369457600080fd5b843561369f81613463565b935060208501356001600160401b03808211156136bb57600080fd5b6136c788838901613478565b945060408701359150808211156136dd57600080fd5b6136e988838901613623565b935060608701359150808211156136ff57600080fd5b5061370c8782880161356e565b91505092959194509250565b6000806000806060858703121561372e57600080fd5b843561373981613463565b93506020850135613749816133c4565b925060408501356001600160401b038082111561376557600080fd5b818701915087601f83011261377957600080fd5b81358181111561378857600080fd5b88602082850101111561379a57600080fd5b95989497505060200194505050565b60005b838110156137c45781810151838201526020016137ac565b838111156127b35750506000910152565b600081518084526137ed8160208601602086016137a9565b601f01601f19169290920160200192915050565b6020815260006119c160208301846137d5565b60006020828403121561382657600080fd5b81356119c181613463565b60008060006060848603121561384657600080fd5b8335925060208401356001600160401b0381111561386357600080fd5b61386f86828701613478565b925050604084013561388081613463565b809150509250925092565b6000806000606084860312156138a057600080fd5b83356001600160401b03808211156138b757600080fd5b6138c387838801613478565b945060208601359150808211156138d957600080fd5b6138e587838801613623565b935060408601359150808211156138fb57600080fd5b506139088682870161356e565b9150509250925092565b600081518084526020808501945080840160005b838110156135505781516001600160a01b031687529582019590820190600101613926565b6020815260006119c16020830184613912565b6040815260006139716040830185613520565b82810360208401526139838185613520565b95945050505050565b60006060828403121561399e57600080fd5b604051606081018181106001600160401b03821117156139c0576139c06133fa565b60405282516139ce81613463565b815260208301516139de81613463565b602082015260408301516139f181613463565b60408201529392505050565b600060208284031215613a0f57600080fd5b81516119c181613463565b634e487b7160e01b600052603260045260246000fd5b600060208284031215613a4257600080fd5b815180151581146119c157600080fd5b600060208284031215613a6457600080fd5b5051919050565b634e487b7160e01b600052601160045260246000fd5b6000600019821415613a9557613a95613a6b565b5060010190565b6001600160a01b0384168152606060208201819052600090613ac090830185613912565b8281036040840152613ad28185613520565b9695505050505050565b82815260406020820152600061100760408301846137d5565b600060208284031215613b0757600080fd5b81516119c1816133c4565b6001600160a01b038316815260406020820181905260009061100790830184613520565b600082821015613b4857613b48613a6b565b500390565b6001600160a01b03878116825286166020820152604081018590526001600160e01b03198416606082015260a06080820181905281018290526000828460c0840137600060c0848401015260c0601f19601f8501168301019050979650505050505050565b6001600160e01b031984168152818360048301376000910160040190815292915050565b60008251613be88184602087016137a9565b9190910192915050565b60006020808385031215613c0557600080fd5b82516001600160401b03811115613c1b57600080fd5b8301601f81018513613c2c57600080fd5b8051613c3a61349982613440565b81815260059190911b82018301908381019087831115613c5957600080fd5b928401925b828410156132a4578351613c7181613463565b82529284019290840190613c5e565b600082601f830112613c9157600080fd5b81516020613ca161349983613440565b82815260059290921b84018101918181019086841115613cc057600080fd5b8286015b848110156134e15780518352918301918301613cc4565b60008060408385031215613cee57600080fd5b82516001600160401b0380821115613d0557600080fd5b613d1186838701613c80565b93506020850151915080821115613d2757600080fd5b5061361985828601613c80565b600060208284031215613d4657600080fd5b81516001600160401b03811115613d5c57600080fd5b61100784828501613c80565b60018060a01b038516815260006020858184015260806040840152613d906080840186613520565b8381036060850152845180825282820190600581901b8301840184880160005b83811015613dde57601f19868403018552613dcc8383516137d5565b94870194925090860190600101613db0565b50909b9a5050505050505050505050565b60008219821115613e0257613e02613a6b565b500190565b600060208284031215613e1957600080fd5b815160ff811681146119c157600080fd5b600060ff831680613e4b57634e487b7160e01b600052601260045260246000fd5b8060ff84160491505092915050565b600181815b80851115613e95578160001904821115613e7b57613e7b613a6b565b80851615613e8857918102915b93841c9390800290613e5f565b509250929050565b600082613eac57506001610393565b81613eb957506000610393565b8160018114613ecf5760028114613ed957613ef5565b6001915050610393565b60ff841115613eea57613eea613a6b565b50506001821b610393565b5060208310610133831016604e8410600b8410161715613f18575081810a610393565b613f228383613e5a565b8060001904821115613f3657613f36613a6b565b029392505050565b60006119c160ff841683613e9d565b604081526000613f606040830185613912565b90508260208301529392505050565b606081526000613f826060830185613520565b83602084015282810360408401526000815260208101915050939250505056fea2646970667358221220b19d7ebed861471f89d9ee31f01263df9a0c5e4c9e86b90b40e0dc0e399c3eba64736f6c63430008090033",
    "linkReferences": {}
  },
  "methodIdentifiers": {
    "externalCall(address,bytes4,bytes)": "2e2f4cc2",
    "initialize(uint256,address[],address)": "52af719f",
    "initialized()": "158ef93e",
    "isValidSignature(bytes32,bytes)": "1626ba7e",
    "isVaultToken(address)": "338c4ccb",
    "nft()": "47ccca02",
    "pull(address,address[],uint256[],bytes)": "2062d754",
    "pullExistentials()": "d2c219b0",
    "push(address[],uint256[],bytes)": "566ca6b4",
    "reclaimTokens(address[])": "05e1c942",
    "supportsInterface(bytes4)": "01ffc9a7",
    "transferAndPush(address,address[],uint256[],bytes)": "27a35e5a",
    "tvl()": "e5328e06",
    "vault()": "fbfa77cf",
    "vaultGovernance()": "fe255a5e",
    "vaultTokens()": "69722233"
  },
  "id": 468
}