{
  "abi": [
    {
      "inputs": [],
      "name": "AURA",
      "outputs": [
        {
          "internalType": "address",
          "name": "",
          "type": "address"
        }
      ],
      "stateMutability": "view",
      "type": "function"
    },
    {
      "inputs": [],
      "name": "AURA_WETH_50_50_POOL_ID",
      "outputs": [
        {
          "internalType": "bytes32",
          "name": "",
          "type": "bytes32"
        }
      ],
      "stateMutability": "view",
      "type": "function"
    },
    {
      "inputs": [],
      "name": "BALANCER_VAULT",
      "outputs": [
        {
          "internalType": "address",
          "name": "",
          "type": "address"
        }
      ],
      "stateMutability": "view",
      "type": "function"
    },
    {
      "inputs": [],
      "name": "ETH_USD_ORACLE",
      "outputs": [
        {
          "internalType": "address",
          "name": "",
          "type": "address"
        }
      ],
      "stateMutability": "view",
      "type": "function"
    },
    {
      "inputs": [],
      "name": "decimals",
      "outputs": [
        {
          "internalType": "uint8",
          "name": "",
          "type": "uint8"
        }
      ],
      "stateMutability": "pure",
      "type": "function"
    },
    {
      "inputs": [],
      "name": "description",
      "outputs": [
        {
          "internalType": "string",
          "name": "",
          "type": "string"
        }
      ],
      "stateMutability": "pure",
      "type": "function"
    },
    {
      "inputs": [
        {
          "internalType": "uint80",
          "name": "",
          "type": "uint80"
        }
      ],
      "name": "getRoundData",
      "outputs": [
        {
          "internalType": "uint80",
          "name": "",
          "type": "uint80"
        },
        {
          "internalType": "int256",
          "name": "",
          "type": "int256"
        },
        {
          "internalType": "uint256",
          "name": "",
          "type": "uint256"
        },
        {
          "internalType": "uint256",
          "name": "",
          "type": "uint256"
        },
        {
          "internalType": "uint80",
          "name": "",
          "type": "uint80"
        }
      ],
      "stateMutability": "pure",
      "type": "function"
    },
    {
      "inputs": [],
      "name": "latestAnswer",
      "outputs": [
        {
          "internalType": "int256",
          "name": "answer",
          "type": "int256"
        }
      ],
      "stateMutability": "view",
      "type": "function"
    },
    {
      "inputs": [],
      "name": "latestRoundData",
      "outputs": [
        {
          "internalType": "uint80",
          "name": "roundId",
          "type": "uint80"
        },
        {
          "internalType": "int256",
          "name": "answer",
          "type": "int256"
        },
        {
          "internalType": "uint256",
          "name": "startedAt",
          "type": "uint256"
        },
        {
          "internalType": "uint256",
          "name": "updatedAt",
          "type": "uint256"
        },
        {
          "internalType": "uint80",
          "name": "answeredInRound",
          "type": "uint80"
        }
      ],
      "stateMutability": "view",
      "type": "function"
    },
    {
      "inputs": [],
      "name": "version",
      "outputs": [
        {
          "internalType": "uint256",
          "name": "",
          "type": "uint256"
        }
      ],
      "stateMutability": "pure",
      "type": "function"
    }
  ],
  "bytecode": {
    "object": "0x608060405234801561001057600080fd5b506108bc806100206000396000f3fe608060405234801561001057600080fd5b506004361061009e5760003560e01c80637284e416116100665780637284e416146101225780639a6fc8f51461014e578063bc16384614610198578063fa7b6faf146101b3578063feaf968c146101da57600080fd5b8063313ce567146100a35780633829aea3146100b757806350d25bcd146100ea57806354fd4d5014610100578063718176e514610107575b600080fd5b604051600881526020015b60405180910390f35b6100d273c0c293ce456ff0ed870add98a0828dd4d2903dbf81565b6040516001600160a01b0390911681526020016100ae565b6100f26101e2565b6040519081526020016100ae565b60016100f2565b6100d2735f4ec3df9cbd43714fe2740f5e3616155c5b841981565b604080518082018252600a81526910555490480bc81554d160b21b602082015290516100ae91906105da565b61016161015c36600461064a565b610434565b6040805169ffffffffffffffffffff968716815260208101959095528401929092526060830152909116608082015260a0016100ae565b6100d273ba12222222228d8ba445958a75a0704d566bf2c881565b6100f27fcfca23ca9ca720b6e98e3eb9b6aa0ffc4a5c08b900020000000000000000027481565b61016161047c565b604051631f29a8cd60e31b81527fcfca23ca9ca720b6e98e3eb9b6aa0ffc4a5c08b9000200000000000000000274600482015260009081908190819073ba12222222228d8ba445958a75a0704d566bf2c89063f94d46689060240160006040518083038186803b15801561025557600080fd5b505afa158015610269573d6000803e3d6000fd5b505050506040513d6000823e601f3d908101601f19168201604052610291919081019061073d565b925092509250438114156102dd5760405162461bcd60e51b815260206004820152600e60248201526d556e737461626c6520737461746560901b60448201526064015b60405180910390fd5b6000735f4ec3df9cbd43714fe2740f5e3616155c5b84196001600160a01b031663feaf968c6040518163ffffffff1660e01b815260040160a06040518083038186803b15801561032c57600080fd5b505afa158015610340573d6000803e3d6000fd5b505050506040513d601f19601f820116820180604052508101906103649190610818565b5050509150508360008151811061037d5761037d610870565b60200260200101516001600160a01b031673c0c293ce456ff0ed870add98a0828dd4d2903dbf6001600160a01b031614156103f8576103f181846001815181106103c9576103c9610870565b6020026020010151856000815181106103e4576103e4610870565b6020026020010151610526565b945061042d565b61042a818460008151811061040f5761040f610870565b6020026020010151856001815181106103e4576103e4610870565b94505b5050505090565b600080600080600060405162461bcd60e51b81526004016102d4906020808252601390820152722737ba24b6b83632b6b2b73a32b222b93937b960691b604082015260600190565b6000806000806000735f4ec3df9cbd43714fe2740f5e3616155c5b84196001600160a01b031663feaf968c6040518163ffffffff1660e01b815260040160a06040518083038186803b1580156104d157600080fd5b505afa1580156104e5573d6000803e3d6000fd5b505050506040513d601f19601f820116820180604052508101906105099190610818565b93985091965094509250905061051d6101e2565b93509091929394565b600080806000198587098587029250828110838203039150508060001415610560576000841161055557600080fd5b5082900490506105d3565b80841161056c57600080fd5b6000848688096000868103871696879004966002600389028118808a02820302808a02820302808a02820302808a02820302808a02820302808a02909103029181900381900460010186841190950394909402919094039290920491909117919091029150505b9392505050565b600060208083528351808285015260005b81811015610607578581018301518582016040015282016105eb565b81811115610619576000604083870101525b50601f01601f1916929092016040019392505050565b69ffffffffffffffffffff8116811461064757600080fd5b50565b60006020828403121561065c57600080fd5b81356105d38161062f565b634e487b7160e01b600052604160045260246000fd5b604051601f8201601f1916810167ffffffffffffffff811182821017156106a6576106a6610667565b604052919050565b600067ffffffffffffffff8211156106c8576106c8610667565b5060051b60200190565b600082601f8301126106e357600080fd5b815160206106f86106f3836106ae565b61067d565b82815260059290921b8401810191818101908684111561071757600080fd5b8286015b84811015610732578051835291830191830161071b565b509695505050505050565b60008060006060848603121561075257600080fd5b835167ffffffffffffffff8082111561076a57600080fd5b818601915086601f83011261077e57600080fd5b8151602061078e6106f3836106ae565b82815260059290921b8401810191818101908a8411156107ad57600080fd5b948201945b838610156107e15785516001600160a01b03811681146107d25760008081fd5b825294820194908201906107b2565b918901519197509093505050808211156107fa57600080fd5b50610807868287016106d2565b925050604084015190509250925092565b600080600080600060a0868803121561083057600080fd5b855161083b8161062f565b8095505060208601519350604086015192506060860151915060808601516108628161062f565b809150509295509295909350565b634e487b7160e01b600052603260045260246000fdfea2646970667358221220542455cabe50bd0fdd4f247fa634ec4f692a3b04f28a0e74b4490e890af725cb64736f6c63430008090033",
    "linkReferences": {}
  },
  "methodIdentifiers": {
    "AURA()": "3829aea3",
    "AURA_WETH_50_50_POOL_ID()": "fa7b6faf",
    "BALANCER_VAULT()": "bc163846",
    "ETH_USD_ORACLE()": "718176e5",
    "decimals()": "313ce567",
    "description()": "7284e416",
    "getRoundData(uint80)": "9a6fc8f5",
    "latestAnswer()": "50d25bcd",
    "latestRoundData()": "feaf968c",
    "version()": "54fd4d50"
  },
  "id": 381
}