{
  "abi": [
    {
      "inputs": [
        {
          "internalType": "contract IAlgebraNonfungiblePositionManager",
          "name": "positionManager_",
          "type": "address"
        }
      ],
      "stateMutability": "nonpayable",
      "type": "constructor"
    },
    {
      "anonymous": false,
      "inputs": [
        {
          "indexed": false,
          "internalType": "uint256",
          "name": "tokenId",
          "type": "uint256"
        }
      ],
      "name": "PositionBurned",
      "type": "event"
    },
    {
      "anonymous": false,
      "inputs": [
        {
          "indexed": false,
          "internalType": "uint256",
          "name": "tokenId",
          "type": "uint256"
        }
      ],
      "name": "PositionMinted",
      "type": "event"
    },
    {
      "anonymous": false,
      "inputs": [
        {
          "indexed": true,
          "internalType": "address",
          "name": "origin",
          "type": "address"
        },
        {
          "indexed": true,
          "internalType": "address",
          "name": "sender",
          "type": "address"
        }
      ],
      "name": "Rebalance",
      "type": "event"
    },
    {
      "anonymous": false,
      "inputs": [
        {
          "indexed": true,
          "internalType": "bytes32",
          "name": "role",
          "type": "bytes32"
        },
        {
          "indexed": true,
          "internalType": "bytes32",
          "name": "previousAdminRole",
          "type": "bytes32"
        },
        {
          "indexed": true,
          "internalType": "bytes32",
          "name": "newAdminRole",
          "type": "bytes32"
        }
      ],
      "name": "RoleAdminChanged",
      "type": "event"
    },
    {
      "anonymous": false,
      "inputs": [
        {
          "indexed": true,
          "internalType": "bytes32",
          "name": "role",
          "type": "bytes32"
        },
        {
          "indexed": true,
          "internalType": "address",
          "name": "account",
          "type": "address"
        },
        {
          "indexed": true,
          "internalType": "address",
          "name": "sender",
          "type": "address"
        }
      ],
      "name": "RoleGranted",
      "type": "event"
    },
    {
      "anonymous": false,
      "inputs": [
        {
          "indexed": true,
          "internalType": "bytes32",
          "name": "role",
          "type": "bytes32"
        },
        {
          "indexed": true,
          "internalType": "address",
          "name": "account",
          "type": "address"
        },
        {
          "indexed": true,
          "internalType": "address",
          "name": "sender",
          "type": "address"
        }
      ],
      "name": "RoleRevoked",
      "type": "event"
    },
    {
      "anonymous": false,
      "inputs": [
        {
          "indexed": false,
          "internalType": "uint256",
          "name": "amountIn",
          "type": "uint256"
        },
        {
          "indexed": false,
          "internalType": "uint256",
          "name": "amountOut",
          "type": "uint256"
        },
        {
          "indexed": false,
          "internalType": "uint256",
          "name": "tokenInIndex",
          "type": "uint256"
        }
      ],
      "name": "TokensSwapped",
      "type": "event"
    },
    {
      "anonymous": false,
      "inputs": [
        {
          "indexed": true,
          "internalType": "address",
          "name": "origin",
          "type": "address"
        },
        {
          "indexed": true,
          "internalType": "address",
          "name": "sender",
          "type": "address"
        },
        {
          "components": [
            {
              "internalType": "int24",
              "name": "priceImpactD6",
              "type": "int24"
            },
            {
              "internalType": "int24",
              "name": "defaultIntervalWidth",
              "type": "int24"
            },
            {
              "internalType": "int24",
              "name": "maxPositionLengthInTicks",
              "type": "int24"
            },
            {
              "internalType": "int24",
              "name": "maxDeviationForVaultPool",
              "type": "int24"
            },
            {
              "internalType": "uint32",
              "name": "timespanForAverageTick",
              "type": "uint32"
            },
            {
              "internalType": "uint256",
              "name": "neighborhoodFactorD",
              "type": "uint256"
            },
            {
              "internalType": "uint256",
              "name": "extensionFactorD",
              "type": "uint256"
            },
            {
              "internalType": "uint256",
              "name": "swapSlippageD",
              "type": "uint256"
            },
            {
              "internalType": "uint256",
              "name": "swappingAmountsCoefficientD",
              "type": "uint256"
            },
            {
              "internalType": "uint256[]",
              "name": "minSwapAmounts",
              "type": "uint256[]"
            }
          ],
          "indexed": false,
          "internalType": "struct CamelotPulseStrategyV2.MutableParams",
          "name": "mutableParams",
          "type": "tuple"
        }
      ],
      "name": "UpdateMutableParams",
      "type": "event"
    },
    {
      "inputs": [],
      "name": "ADMIN_DELEGATE_ROLE",
      "outputs": [
        {
          "internalType": "bytes32",
          "name": "",
          "type": "bytes32"
        }
      ],
      "stateMutability": "view",
      "type": "function"
    },
    {
      "inputs": [],
      "name": "ADMIN_ROLE",
      "outputs": [
        {
          "internalType": "bytes32",
          "name": "",
          "type": "bytes32"
        }
      ],
      "stateMutability": "view",
      "type": "function"
    },
    {
      "inputs": [],
      "name": "D6",
      "outputs": [
        {
          "internalType": "uint256",
          "name": "",
          "type": "uint256"
        }
      ],
      "stateMutability": "view",
      "type": "function"
    },
    {
      "inputs": [],
      "name": "D9",
      "outputs": [
        {
          "internalType": "uint256",
          "name": "",
          "type": "uint256"
        }
      ],
      "stateMutability": "view",
      "type": "function"
    },
    {
      "inputs": [],
      "name": "DEFAULT_ADMIN_ROLE",
      "outputs": [
        {
          "internalType": "bytes32",
          "name": "",
          "type": "bytes32"
        }
      ],
      "stateMutability": "view",
      "type": "function"
    },
    {
      "inputs": [],
      "name": "OPERATOR",
      "outputs": [
        {
          "internalType": "bytes32",
          "name": "",
          "type": "bytes32"
        }
      ],
      "stateMutability": "view",
      "type": "function"
    },
    {
      "inputs": [],
      "name": "Q96",
      "outputs": [
        {
          "internalType": "uint256",
          "name": "",
          "type": "uint256"
        }
      ],
      "stateMutability": "view",
      "type": "function"
    },
    {
      "inputs": [],
      "name": "algebraPool",
      "outputs": [
        {
          "internalType": "contract IAlgebraPool",
          "name": "",
          "type": "address"
        }
      ],
      "stateMutability": "view",
      "type": "function"
    },
    {
      "inputs": [
        {
          "components": [
            {
              "internalType": "contract IERC20Vault",
              "name": "erc20Vault",
              "type": "address"
            },
            {
              "internalType": "contract ICamelotVault",
              "name": "camelotVault",
              "type": "address"
            },
            {
              "internalType": "address",
              "name": "router",
              "type": "address"
            },
            {
              "internalType": "address[]",
              "name": "tokens",
              "type": "address[]"
            }
          ],
          "internalType": "struct CamelotPulseStrategyV2.ImmutableParams",
          "name": "immutableParams_",
          "type": "tuple"
        },
        {
          "components": [
            {
              "internalType": "int24",
              "name": "priceImpactD6",
              "type": "int24"
            },
            {
              "internalType": "int24",
              "name": "defaultIntervalWidth",
              "type": "int24"
            },
            {
              "internalType": "int24",
              "name": "maxPositionLengthInTicks",
              "type": "int24"
            },
            {
              "internalType": "int24",
              "name": "maxDeviationForVaultPool",
              "type": "int24"
            },
            {
              "internalType": "uint32",
              "name": "timespanForAverageTick",
              "type": "uint32"
            },
            {
              "internalType": "uint256",
              "name": "neighborhoodFactorD",
              "type": "uint256"
            },
            {
              "internalType": "uint256",
              "name": "extensionFactorD",
              "type": "uint256"
            },
            {
              "internalType": "uint256",
              "name": "swapSlippageD",
              "type": "uint256"
            },
            {
              "internalType": "uint256",
              "name": "swappingAmountsCoefficientD",
              "type": "uint256"
            },
            {
              "internalType": "uint256[]",
              "name": "minSwapAmounts",
              "type": "uint256[]"
            }
          ],
          "internalType": "struct CamelotPulseStrategyV2.MutableParams",
          "name": "mutableParams_",
          "type": "tuple"
        },
        {
          "internalType": "uint256",
          "name": "priceX96",
          "type": "uint256"
        },
        {
          "internalType": "uint256",
          "name": "targetRatioOfToken1X96",
          "type": "uint256"
        }
      ],
      "name": "calculateAmountsForSwap",
      "outputs": [
        {
          "internalType": "uint256",
          "name": "tokenInIndex",
          "type": "uint256"
        },
        {
          "internalType": "uint256",
          "name": "amountIn",
          "type": "uint256"
        }
      ],
      "stateMutability": "view",
      "type": "function"
    },
    {
      "inputs": [
        {
          "components": [
            {
              "internalType": "int24",
              "name": "priceImpactD6",
              "type": "int24"
            },
            {
              "internalType": "int24",
              "name": "defaultIntervalWidth",
              "type": "int24"
            },
            {
              "internalType": "int24",
              "name": "maxPositionLengthInTicks",
              "type": "int24"
            },
            {
              "internalType": "int24",
              "name": "maxDeviationForVaultPool",
              "type": "int24"
            },
            {
              "internalType": "uint32",
              "name": "timespanForAverageTick",
              "type": "uint32"
            },
            {
              "internalType": "uint256",
              "name": "neighborhoodFactorD",
              "type": "uint256"
            },
            {
              "internalType": "uint256",
              "name": "extensionFactorD",
              "type": "uint256"
            },
            {
              "internalType": "uint256",
              "name": "swapSlippageD",
              "type": "uint256"
            },
            {
              "internalType": "uint256",
              "name": "swappingAmountsCoefficientD",
              "type": "uint256"
            },
            {
              "internalType": "uint256[]",
              "name": "minSwapAmounts",
              "type": "uint256[]"
            }
          ],
          "internalType": "struct CamelotPulseStrategyV2.MutableParams",
          "name": "mutableParams_",
          "type": "tuple"
        },
        {
          "internalType": "int24",
          "name": "spotTick",
          "type": "int24"
        },
        {
          "internalType": "contract IAlgebraPool",
          "name": "pool",
          "type": "address"
        },
        {
          "internalType": "uint256",
          "name": "positionNft",
          "type": "uint256"
        }
      ],
      "name": "calculateNewPosition",
      "outputs": [
        {
          "components": [
            {
              "internalType": "int24",
              "name": "lowerTick",
              "type": "int24"
            },
            {
              "internalType": "int24",
              "name": "upperTick",
              "type": "int24"
            }
          ],
          "internalType": "struct CamelotPulseStrategyV2.Interval",
          "name": "newInterval",
          "type": "tuple"
        },
        {
          "internalType": "bool",
          "name": "neededNewInterval",
          "type": "bool"
        }
      ],
      "stateMutability": "view",
      "type": "function"
    },
    {
      "inputs": [
        {
          "components": [
            {
              "internalType": "int24",
              "name": "lowerTick",
              "type": "int24"
            },
            {
              "internalType": "int24",
              "name": "upperTick",
              "type": "int24"
            }
          ],
          "internalType": "struct CamelotPulseStrategyV2.Interval",
          "name": "interval",
          "type": "tuple"
        },
        {
          "internalType": "uint160",
          "name": "sqrtSpotPriceX96",
          "type": "uint160"
        },
        {
          "internalType": "uint256",
          "name": "spotPriceX96",
          "type": "uint256"
        }
      ],
      "name": "calculateTargetRatioOfToken1",
      "outputs": [
        {
          "internalType": "uint256",
          "name": "targetRatioOfToken1X96",
          "type": "uint256"
        }
      ],
      "stateMutability": "pure",
      "type": "function"
    },
    {
      "inputs": [
        {
          "components": [
            {
              "internalType": "contract IERC20Vault",
              "name": "erc20Vault",
              "type": "address"
            },
            {
              "internalType": "contract ICamelotVault",
              "name": "camelotVault",
              "type": "address"
            },
            {
              "internalType": "address",
              "name": "router",
              "type": "address"
            },
            {
              "internalType": "address[]",
              "name": "tokens",
              "type": "address[]"
            }
          ],
          "internalType": "struct CamelotPulseStrategyV2.ImmutableParams",
          "name": "params",
          "type": "tuple"
        }
      ],
      "name": "checkImmutableParams",
      "outputs": [],
      "stateMutability": "view",
      "type": "function"
    },
    {
      "inputs": [
        {
          "components": [
            {
              "internalType": "int24",
              "name": "priceImpactD6",
              "type": "int24"
            },
            {
              "internalType": "int24",
              "name": "defaultIntervalWidth",
              "type": "int24"
            },
            {
              "internalType": "int24",
              "name": "maxPositionLengthInTicks",
              "type": "int24"
            },
            {
              "internalType": "int24",
              "name": "maxDeviationForVaultPool",
              "type": "int24"
            },
            {
              "internalType": "uint32",
              "name": "timespanForAverageTick",
              "type": "uint32"
            },
            {
              "internalType": "uint256",
              "name": "neighborhoodFactorD",
              "type": "uint256"
            },
            {
              "internalType": "uint256",
              "name": "extensionFactorD",
              "type": "uint256"
            },
            {
              "internalType": "uint256",
              "name": "swapSlippageD",
              "type": "uint256"
            },
            {
              "internalType": "uint256",
              "name": "swappingAmountsCoefficientD",
              "type": "uint256"
            },
            {
              "internalType": "uint256[]",
              "name": "minSwapAmounts",
              "type": "uint256[]"
            }
          ],
          "internalType": "struct CamelotPulseStrategyV2.MutableParams",
          "name": "params",
          "type": "tuple"
        }
      ],
      "name": "checkMutableParams",
      "outputs": [],
      "stateMutability": "view",
      "type": "function"
    },
    {
      "inputs": [
        {
          "components": [
            {
              "internalType": "int24",
              "name": "priceImpactD6",
              "type": "int24"
            },
            {
              "internalType": "int24",
              "name": "defaultIntervalWidth",
              "type": "int24"
            },
            {
              "internalType": "int24",
              "name": "maxPositionLengthInTicks",
              "type": "int24"
            },
            {
              "internalType": "int24",
              "name": "maxDeviationForVaultPool",
              "type": "int24"
            },
            {
              "internalType": "uint32",
              "name": "timespanForAverageTick",
              "type": "uint32"
            },
            {
              "internalType": "uint256",
              "name": "neighborhoodFactorD",
              "type": "uint256"
            },
            {
              "internalType": "uint256",
              "name": "extensionFactorD",
              "type": "uint256"
            },
            {
              "internalType": "uint256",
              "name": "swapSlippageD",
              "type": "uint256"
            },
            {
              "internalType": "uint256",
              "name": "swappingAmountsCoefficientD",
              "type": "uint256"
            },
            {
              "internalType": "uint256[]",
              "name": "minSwapAmounts",
              "type": "uint256[]"
            }
          ],
          "internalType": "struct CamelotPulseStrategyV2.MutableParams",
          "name": "mutableParams_",
          "type": "tuple"
        },
        {
          "internalType": "contract IAlgebraPool",
          "name": "vaultPool",
          "type": "address"
        }
      ],
      "name": "checkTickDeviation",
      "outputs": [],
      "stateMutability": "view",
      "type": "function"
    },
    {
      "inputs": [],
      "name": "contractName",
      "outputs": [
        {
          "internalType": "string",
          "name": "",
          "type": "string"
        }
      ],
      "stateMutability": "pure",
      "type": "function"
    },
    {
      "inputs": [],
      "name": "contractNameBytes",
      "outputs": [
        {
          "internalType": "bytes32",
          "name": "",
          "type": "bytes32"
        }
      ],
      "stateMutability": "pure",
      "type": "function"
    },
    {
      "inputs": [],
      "name": "contractVersion",
      "outputs": [
        {
          "internalType": "string",
          "name": "",
          "type": "string"
        }
      ],
      "stateMutability": "pure",
      "type": "function"
    },
    {
      "inputs": [],
      "name": "contractVersionBytes",
      "outputs": [
        {
          "internalType": "bytes32",
          "name": "",
          "type": "bytes32"
        }
      ],
      "stateMutability": "pure",
      "type": "function"
    },
    {
      "inputs": [],
      "name": "depositCallback",
      "outputs": [],
      "stateMutability": "nonpayable",
      "type": "function"
    },
    {
      "inputs": [],
      "name": "desiredAmounts",
      "outputs": [
        {
          "internalType": "uint256",
          "name": "amount0Desired",
          "type": "uint256"
        },
        {
          "internalType": "uint256",
          "name": "amount1Desired",
          "type": "uint256"
        }
      ],
      "stateMutability": "view",
      "type": "function"
    },
    {
      "inputs": [],
      "name": "forceRebalanceWidthFlag",
      "outputs": [
        {
          "internalType": "bool",
          "name": "",
          "type": "bool"
        }
      ],
      "stateMutability": "view",
      "type": "function"
    },
    {
      "inputs": [
        {
          "components": [
            {
              "internalType": "int24",
              "name": "priceImpactD6",
              "type": "int24"
            },
            {
              "internalType": "int24",
              "name": "defaultIntervalWidth",
              "type": "int24"
            },
            {
              "internalType": "int24",
              "name": "maxPositionLengthInTicks",
              "type": "int24"
            },
            {
              "internalType": "int24",
              "name": "maxDeviationForVaultPool",
              "type": "int24"
            },
            {
              "internalType": "uint32",
              "name": "timespanForAverageTick",
              "type": "uint32"
            },
            {
              "internalType": "uint256",
              "name": "neighborhoodFactorD",
              "type": "uint256"
            },
            {
              "internalType": "uint256",
              "name": "extensionFactorD",
              "type": "uint256"
            },
            {
              "internalType": "uint256",
              "name": "swapSlippageD",
              "type": "uint256"
            },
            {
              "internalType": "uint256",
              "name": "swappingAmountsCoefficientD",
              "type": "uint256"
            },
            {
              "internalType": "uint256[]",
              "name": "minSwapAmounts",
              "type": "uint256[]"
            }
          ],
          "internalType": "struct CamelotPulseStrategyV2.MutableParams",
          "name": "mutableParams_",
          "type": "tuple"
        },
        {
          "internalType": "int24",
          "name": "spotTick",
          "type": "int24"
        },
        {
          "internalType": "int24",
          "name": "tickSpacing",
          "type": "int24"
        }
      ],
      "name": "formPositionWithSpotTickInCenter",
      "outputs": [
        {
          "components": [
            {
              "internalType": "int24",
              "name": "lowerTick",
              "type": "int24"
            },
            {
              "internalType": "int24",
              "name": "upperTick",
              "type": "int24"
            }
          ],
          "internalType": "struct CamelotPulseStrategyV2.Interval",
          "name": "newInterval",
          "type": "tuple"
        }
      ],
      "stateMutability": "pure",
      "type": "function"
    },
    {
      "inputs": [
        {
          "internalType": "bytes32",
          "name": "role",
          "type": "bytes32"
        }
      ],
      "name": "getRoleAdmin",
      "outputs": [
        {
          "internalType": "bytes32",
          "name": "",
          "type": "bytes32"
        }
      ],
      "stateMutability": "view",
      "type": "function"
    },
    {
      "inputs": [
        {
          "internalType": "bytes32",
          "name": "role",
          "type": "bytes32"
        },
        {
          "internalType": "uint256",
          "name": "index",
          "type": "uint256"
        }
      ],
      "name": "getRoleMember",
      "outputs": [
        {
          "internalType": "address",
          "name": "",
          "type": "address"
        }
      ],
      "stateMutability": "view",
      "type": "function"
    },
    {
      "inputs": [
        {
          "internalType": "bytes32",
          "name": "role",
          "type": "bytes32"
        }
      ],
      "name": "getRoleMemberCount",
      "outputs": [
        {
          "internalType": "uint256",
          "name": "",
          "type": "uint256"
        }
      ],
      "stateMutability": "view",
      "type": "function"
    },
    {
      "inputs": [
        {
          "internalType": "bytes32",
          "name": "role",
          "type": "bytes32"
        },
        {
          "internalType": "address",
          "name": "account",
          "type": "address"
        }
      ],
      "name": "grantRole",
      "outputs": [],
      "stateMutability": "nonpayable",
      "type": "function"
    },
    {
      "inputs": [
        {
          "internalType": "bytes32",
          "name": "role",
          "type": "bytes32"
        },
        {
          "internalType": "address",
          "name": "account",
          "type": "address"
        }
      ],
      "name": "hasRole",
      "outputs": [
        {
          "internalType": "bool",
          "name": "",
          "type": "bool"
        }
      ],
      "stateMutability": "view",
      "type": "function"
    },
    {
      "inputs": [],
      "name": "immutableParams",
      "outputs": [
        {
          "internalType": "contract IERC20Vault",
          "name": "erc20Vault",
          "type": "address"
        },
        {
          "internalType": "contract ICamelotVault",
          "name": "camelotVault",
          "type": "address"
        },
        {
          "internalType": "address",
          "name": "router",
          "type": "address"
        }
      ],
      "stateMutability": "view",
      "type": "function"
    },
    {
      "inputs": [
        {
          "internalType": "address",
          "name": "admin",
          "type": "address"
        }
      ],
      "name": "init",
      "outputs": [],
      "stateMutability": "nonpayable",
      "type": "function"
    },
    {
      "inputs": [
        {
          "components": [
            {
              "internalType": "contract IERC20Vault",
              "name": "erc20Vault",
              "type": "address"
            },
            {
              "internalType": "contract ICamelotVault",
              "name": "camelotVault",
              "type": "address"
            },
            {
              "internalType": "address",
              "name": "router",
              "type": "address"
            },
            {
              "internalType": "address[]",
              "name": "tokens",
              "type": "address[]"
            }
          ],
          "internalType": "struct CamelotPulseStrategyV2.ImmutableParams",
          "name": "immutableParams_",
          "type": "tuple"
        },
        {
          "internalType": "address",
          "name": "admin",
          "type": "address"
        }
      ],
      "name": "initialize",
      "outputs": [],
      "stateMutability": "nonpayable",
      "type": "function"
    },
    {
      "inputs": [],
      "name": "initialized",
      "outputs": [
        {
          "internalType": "bool",
          "name": "",
          "type": "bool"
        }
      ],
      "stateMutability": "view",
      "type": "function"
    },
    {
      "inputs": [
        {
          "internalType": "address",
          "name": "sender",
          "type": "address"
        }
      ],
      "name": "isAdmin",
      "outputs": [
        {
          "internalType": "bool",
          "name": "",
          "type": "bool"
        }
      ],
      "stateMutability": "view",
      "type": "function"
    },
    {
      "inputs": [
        {
          "internalType": "address",
          "name": "sender",
          "type": "address"
        }
      ],
      "name": "isOperator",
      "outputs": [
        {
          "internalType": "bool",
          "name": "",
          "type": "bool"
        }
      ],
      "stateMutability": "view",
      "type": "function"
    },
    {
      "inputs": [
        {
          "internalType": "bytes[]",
          "name": "data",
          "type": "bytes[]"
        }
      ],
      "name": "multicall",
      "outputs": [
        {
          "internalType": "bytes[]",
          "name": "results",
          "type": "bytes[]"
        }
      ],
      "stateMutability": "nonpayable",
      "type": "function"
    },
    {
      "inputs": [],
      "name": "mutableParams",
      "outputs": [
        {
          "internalType": "int24",
          "name": "priceImpactD6",
          "type": "int24"
        },
        {
          "internalType": "int24",
          "name": "defaultIntervalWidth",
          "type": "int24"
        },
        {
          "internalType": "int24",
          "name": "maxPositionLengthInTicks",
          "type": "int24"
        },
        {
          "internalType": "int24",
          "name": "maxDeviationForVaultPool",
          "type": "int24"
        },
        {
          "internalType": "uint32",
          "name": "timespanForAverageTick",
          "type": "uint32"
        },
        {
          "internalType": "uint256",
          "name": "neighborhoodFactorD",
          "type": "uint256"
        },
        {
          "internalType": "uint256",
          "name": "extensionFactorD",
          "type": "uint256"
        },
        {
          "internalType": "uint256",
          "name": "swapSlippageD",
          "type": "uint256"
        },
        {
          "internalType": "uint256",
          "name": "swappingAmountsCoefficientD",
          "type": "uint256"
        }
      ],
      "stateMutability": "view",
      "type": "function"
    },
    {
      "inputs": [
        {
          "internalType": "address",
          "name": "",
          "type": "address"
        },
        {
          "internalType": "address",
          "name": "",
          "type": "address"
        },
        {
          "internalType": "uint256",
          "name": "",
          "type": "uint256"
        },
        {
          "internalType": "bytes",
          "name": "",
          "type": "bytes"
        }
      ],
      "name": "onERC721Received",
      "outputs": [
        {
          "internalType": "bytes4",
          "name": "",
          "type": "bytes4"
        }
      ],
      "stateMutability": "pure",
      "type": "function"
    },
    {
      "inputs": [],
      "name": "positionManager",
      "outputs": [
        {
          "internalType": "contract IAlgebraNonfungiblePositionManager",
          "name": "",
          "type": "address"
        }
      ],
      "stateMutability": "view",
      "type": "function"
    },
    {
      "inputs": [
        {
          "internalType": "uint256",
          "name": "deadline",
          "type": "uint256"
        },
        {
          "internalType": "bytes",
          "name": "swapData",
          "type": "bytes"
        },
        {
          "internalType": "uint256",
          "name": "minAmountOutInCaseOfSwap",
          "type": "uint256"
        }
      ],
      "name": "rebalance",
      "outputs": [],
      "stateMutability": "nonpayable",
      "type": "function"
    },
    {
      "inputs": [
        {
          "internalType": "bytes32",
          "name": "role",
          "type": "bytes32"
        },
        {
          "internalType": "address",
          "name": "account",
          "type": "address"
        }
      ],
      "name": "renounceRole",
      "outputs": [],
      "stateMutability": "nonpayable",
      "type": "function"
    },
    {
      "inputs": [
        {
          "internalType": "bytes32",
          "name": "role",
          "type": "bytes32"
        },
        {
          "internalType": "address",
          "name": "account",
          "type": "address"
        }
      ],
      "name": "revokeRole",
      "outputs": [],
      "stateMutability": "nonpayable",
      "type": "function"
    },
    {
      "inputs": [
        {
          "internalType": "bool",
          "name": "newValue",
          "type": "bool"
        }
      ],
      "name": "setForceRebalanceFlag",
      "outputs": [],
      "stateMutability": "nonpayable",
      "type": "function"
    },
    {
      "inputs": [
        {
          "internalType": "bytes4",
          "name": "interfaceId",
          "type": "bytes4"
        }
      ],
      "name": "supportsInterface",
      "outputs": [
        {
          "internalType": "bool",
          "name": "",
          "type": "bool"
        }
      ],
      "stateMutability": "view",
      "type": "function"
    },
    {
      "inputs": [
        {
          "components": [
            {
              "internalType": "uint256",
              "name": "amount0Desired",
              "type": "uint256"
            },
            {
              "internalType": "uint256",
              "name": "amount1Desired",
              "type": "uint256"
            }
          ],
          "internalType": "struct CamelotPulseStrategyV2.DesiredAmounts",
          "name": "params",
          "type": "tuple"
        }
      ],
      "name": "updateDesiredAmounts",
      "outputs": [],
      "stateMutability": "nonpayable",
      "type": "function"
    },
    {
      "inputs": [
        {
          "components": [
            {
              "internalType": "int24",
              "name": "priceImpactD6",
              "type": "int24"
            },
            {
              "internalType": "int24",
              "name": "defaultIntervalWidth",
              "type": "int24"
            },
            {
              "internalType": "int24",
              "name": "maxPositionLengthInTicks",
              "type": "int24"
            },
            {
              "internalType": "int24",
              "name": "maxDeviationForVaultPool",
              "type": "int24"
            },
            {
              "internalType": "uint32",
              "name": "timespanForAverageTick",
              "type": "uint32"
            },
            {
              "internalType": "uint256",
              "name": "neighborhoodFactorD",
              "type": "uint256"
            },
            {
              "internalType": "uint256",
              "name": "extensionFactorD",
              "type": "uint256"
            },
            {
              "internalType": "uint256",
              "name": "swapSlippageD",
              "type": "uint256"
            },
            {
              "internalType": "uint256",
              "name": "swappingAmountsCoefficientD",
              "type": "uint256"
            },
            {
              "internalType": "uint256[]",
              "name": "minSwapAmounts",
              "type": "uint256[]"
            }
          ],
          "internalType": "struct CamelotPulseStrategyV2.MutableParams",
          "name": "mutableParams_",
          "type": "tuple"
        }
      ],
      "name": "updateMutableParams",
      "outputs": [],
      "stateMutability": "nonpayable",
      "type": "function"
    },
    {
      "inputs": [],
      "name": "withdrawCallback",
      "outputs": [],
      "stateMutability": "nonpayable",
      "type": "function"
    }
  ],
  "bytecode": {
    "object": "0x60a06040523480156200001157600080fd5b5060405162005c5b38038062005c5b833981016040819052620000349162000093565b60408051808201909152600281526120ad60f11b60208201526001600160a01b038216620000805760405162461bcd60e51b8152600401620000779190620000c5565b60405180910390fd5b506001600160a01b03166080526200011d565b600060208284031215620000a657600080fd5b81516001600160a01b0381168114620000be57600080fd5b9392505050565b600060208083528351808285015260005b81811015620000f457858101830151858201604001528201620000d6565b8181111562000107576000604083870101525b50601f01601f1916929092016040019392505050565b608051615aff6200015c6000396000818161052301528181611505015281816121a001528181612836015281816129bb0152612a6f0152615aff6000f3fe608060405234801561001057600080fd5b506004361061027f5760003560e01c806375d0c0dc1161015c578063a8470bcc116100ce578063d3277e8611610087578063d3277e86146106a0578063d547741f146106ae578063d7a678c0146106c1578063e521826f146106d4578063f05329b2146106dc578063fe57ed61146106ef57600080fd5b8063a8470bcc146105fd578063ac9650d814610610578063ace4d0fd14610630578063b4559f3e14610344578063c8014d5314610643578063ca15c8731461068d57600080fd5b8063983d273711610120578063983d2737146105a35780639bb37ba8146105b85780639f747b20146105cb578063a0a8e460146105e3578063a11bac74146105eb578063a217fddf146105f557600080fd5b806375d0c0dc14610509578063791b98bc1461051e5780639010d07c1461055d57806391d148541461057057806395aa080d1461058357600080fd5b80632f2ff15d116101f5578063551530ae116101b9578063551530ae146104085780635f408a211461041357806360aa2705146104bb5780636d70f7ae146104ce5780636ff0b358146104e157806375b238fc146104f457600080fd5b80632f2ff15d1461039c57806336568abe146103af57806340792465146103c2578063475cffef146103cd57806350c9d3bb146103e057600080fd5b8063158ef93e11610247578063158ef93e14610324578063163cacd51461033157806319ab453c146103465780631e63f06214610359578063248a9ca31461036657806324d7806c1461038957600080fd5b806301ffc9a71461028457806306a46239146102ac5780630952ff54146102c45780630e3e80ac146102d9578063150b7a02146102f8575b600080fd5b610297610292366004614330565b610710565b60405190151581526020015b60405180910390f35b640312e302e360dc1b5b6040519081526020016102a3565b6102b6600080516020615a4383398151915281565b7521b0b6b2b637ba283ab639b2a9ba3930ba32b3bcab1960511b6102b6565b61030b610306366004614427565b610740565b6040516001600160e01b031990911681526020016102a3565b6002546102979060ff1681565b61034461033f3660046144d5565b610751565b005b610344610354366004614556565b610a12565b600f546102979060ff1681565b6102b6610374366004614573565b60009081526020819052604090206001015490565b610297610397366004614556565b610b38565b6103446103aa36600461458c565b610b70565b6103446103bd36600461458c565b610b9a565b6102b6600160601b81565b6103446103db3660046146bc565b610c18565b6103f36103ee366004614852565b6110b8565b604080519283526020830191909152016102a3565b6102b6633b9aca0081565b600754600854600954600a54600b5461046194600281810b9563010000008304820b95600160301b8404830b95600160481b850490930b94600160601b90940463ffffffff16939192909189565b6040805160029a8b0b8152988a0b60208a015296890b968801969096529390960b606086015263ffffffff909116608085015260a084015260c083019390935260e0820192909252610100810191909152610120016102a3565b6103446104c93660046148c5565b611346565b6102976104dc366004614556565b61146c565b6103446104ef3660046148f9565b611486565b6102b6600080516020615a6383398151915281565b6105116117cf565b6040516102a39190614997565b6105457f000000000000000000000000000000000000000000000000000000000000000081565b6040516001600160a01b0390911681526020016102a3565b61054561056b3660046149aa565b6117f3565b61029761057e36600461458c565b611812565b6105966105913660046149cc565b61183b565b6040516102a39190614a2f565b6102b6600080516020615a8383398151915281565b6102b66105c6366004614a50565b6118e2565b6002546105459061010090046001600160a01b031681565b6105116119cd565b6102b6620f424081565b6102b6600081565b61034461060b366004614ae9565b6119e0565b61062361061e366004614b06565b6119fb565b6040516102a39190614b7a565b61034461063e366004614bdc565b611aef565b600354600454600554610663926001600160a01b03908116928116911683565b604080516001600160a01b03948516815292841660208401529216918101919091526060016102a3565b6102b661069b366004614573565b611c0e565b600d54600e546103f3919082565b6103446106bc36600461458c565b611c25565b6103446106cf3660046148c5565b611c4a565b610344611f1e565b6103446106ea366004614c2a565b611fb8565b6107026106fd366004614c5f565b6120bb565b6040516102a3929190614cc8565b60006001600160e01b03198216635a05180f60e01b14806107355750610735826123ea565b92915050565b905090565b630a85bd0160e11b5b949350505050565b8342111560405180604001604052806002815260200161545360f01b815250906107975760405162461bcd60e51b815260040161078e9190614997565b60405180910390fd5b506107a061241f565b60408051608081018252600380546001600160a01b0390811683526004548116602080850191909152600554909116838501526006805485518184028101840190965280865260009560608601939092919083018282801561082b57602002820191906000526020600020905b81546001600160a01b0316815260019091019060200180831161080d575b505050919092525050604080516101408101825260078054600281810b845263010000008204810b602080860191909152600160301b8304820b85870152600160481b830490910b6060850152600160601b90910463ffffffff16608084015260085460a084015260095460c0840152600a5460e0840152600b54610100840152600c8054855181840281018401909652808652969750600096939550919361012086019390929183018282801561090257602002820191906000526020600020905b8154815260200190600101908083116108ee575b5050509190925250506002549192505061010090046001600160a01b031661092a8282611fb8565b600080826001600160a01b031663e76c01e46040518163ffffffff1660e01b815260040160e06040518083038186803b15801561096657600080fd5b505afa15801561097a573d6000803e3d6000fd5b505050506040513d601f19601f8201168201806040525081019061099e9190614d15565b50505050509150915060006109b586868487612474565b600f805460ff1916905590506109d0868683868d8d8d612b1b565b6109d986613070565b604051339032907f6dcf4e69cd04d9def52d660ea37a5b366adb7701505e48e75c03d6a51a343f6490600090a350505050505050505050565b60408051808201909152600281526120ad60f11b60208201526001600160a01b038216610a525760405162461bcd60e51b815260040161078e9190614997565b506002546040805180820190915260048152631253925560e21b60208201529060ff1615610a935760405162461bcd60e51b815260040161078e9190614997565b50610aac600080516020615a83833981519152826131c7565b610ac4600080516020615a63833981519152826131c7565b610adc600080516020615a63833981519152806131d1565b610b02600080516020615a43833981519152600080516020615a638339815191526131d1565b610b28600080516020615a83833981519152600080516020615a438339815191526131d1565b506002805460ff19166001179055565b6000610b52600080516020615a6383398151915283611812565b806107355750610735600080516020615a4383398151915283611812565b600082815260208190526040902060010154610b8b8161321c565b610b958383613226565b505050565b6001600160a01b0381163314610c0a5760405162461bcd60e51b815260206004820152602f60248201527f416363657373436f6e74726f6c3a2063616e206f6e6c792072656e6f756e636560448201526e103937b632b9903337b91039b2b63360891b606482015260840161078e565b610c148282613248565b5050565b60408101516001600160a01b031615801590610c65575060006001600160a01b03168160600151600081518110610c5157610c51614db0565b60200260200101516001600160a01b031614155b8015610ca2575060006001600160a01b03168160600151600181518110610c8e57610c8e614db0565b60200260200101516001600160a01b031614155b6040518060400160405280600281526020016120ad60f11b81525090610cdb5760405162461bcd60e51b815260040161078e9190614997565b50806060015151600214604051806040016040528060048152602001631253959360e21b81525090610d205760405162461bcd60e51b815260040161078e9190614997565b5080516001600160a01b031615801590610d46575060208101516001600160a01b031615155b6040518060400160405280600281526020016120ad60f11b81525090610d7f5760405162461bcd60e51b815260040161078e9190614997565b50600081600001516001600160a01b031663697222336040518163ffffffff1660e01b815260040160006040518083038186803b158015610dbf57600080fd5b505afa158015610dd3573d6000803e3d6000fd5b505050506040513d6000823e601f3d908101601f19168201604052610dfb9190810190614dd1565b90508051600214604051806040016040528060048152602001631253959360e21b81525090610e3d5760405162461bcd60e51b815260040161078e9190614997565b508160600151600081518110610e5557610e55614db0565b60200260200101516001600160a01b031681600081518110610e7957610e79614db0565b60200260200101516001600160a01b0316148015610ee057508160600151600181518110610ea957610ea9614db0565b60200260200101516001600160a01b031681600181518110610ecd57610ecd614db0565b60200260200101516001600160a01b0316145b60405180604001604052806004815260200163494e564160e01b81525090610f1b5760405162461bcd60e51b815260040161078e9190614997565b5050600081602001516001600160a01b031663697222336040518163ffffffff1660e01b815260040160006040518083038186803b158015610f5c57600080fd5b505afa158015610f70573d6000803e3d6000fd5b505050506040513d6000823e601f3d908101601f19168201604052610f989190810190614dd1565b90508051600214604051806040016040528060048152602001631253959360e21b81525090610fda5760405162461bcd60e51b815260040161078e9190614997565b508160600151600081518110610ff257610ff2614db0565b60200260200101516001600160a01b03168160008151811061101657611016614db0565b60200260200101516001600160a01b031614801561107d5750816060015160018151811061104657611046614db0565b60200260200101516001600160a01b03168160018151811061106a5761106a614db0565b60200260200101516001600160a01b0316145b60405180604001604052806004815260200163494e564160e01b81525090610b955760405162461bcd60e51b815260040161078e9190614997565b600080806110ca84600160601b614e75565b9050600087600001516001600160a01b031663e5328e066040518163ffffffff1660e01b815260040160006040518083038186803b15801561110b57600080fd5b505afa15801561111f573d6000803e3d6000fd5b505050506040513d6000823e601f3d908101601f191682016040526111479190810190614ee7565b50905060006111c28260018151811061116257611162614db0565b6020026020010151600160601b6111988560008151811061118557611185614db0565b60200260200101518b600160601b61326a565b856001815181106111ab576111ab614db0565b60200260200101516111bd9190614f4a565b61326a565b905060006111df600160601b8a6000015160020b620f424061326a565b905086821115611285576001955060006111fe600160601b808b61326a565b905061127d611228898660008151811061121a5761121a614db0565b60200260200101518461326a565b6112518660018151811061123e5761123e614db0565b602002602001015188600160601b61326a565b61125b9190614e75565b600160601b61126f8b86600160601b61326a565b6111bd90600160601b614e75565b9550506112fb565b600095506112f86112b185856001815181106112a3576112a3614db0565b60200260200101518b61326a565b6112da856000815181106112c7576112c7614db0565b60200260200101518a600160601b61326a565b6112e49190614e75565b600160601b61126f8785600160601b61326a565b94505b82868151811061130d5761130d614db0565b60200260200101518511156113395782868151811061132e5761132e614db0565b602002602001015194505b5050505094509492505050565b61134e61331d565b61135781611c4a565b80516007805460208085015160408601516060870151608088015163ffffffff16600160601b0263ffffffff60601b1962ffffff928316600160481b026bffffff00000000000000000019948416600160301b02949094166bffffffffffff0000000000001995841663010000000265ffffffffffff199098169390991692909217959095179290921695909517949094179390931617815560a083015160085560c083015160095560e0830151600a55610100830151600b556101208301518051849361142a92600c9291019061427b565b505060405133915032907faccfbfe1fb913357d3f38219613942ea367e6b50b076facee40e8400cf114f2890611461908590614f9d565b60405180910390a350565b6000610735600080516020615a8383398151915283611812565b61148f82610c18565b8151600380546001600160a01b03199081166001600160a01b0393841617825560208086015160048054841691861691909117905560408601516005805490931694169390931790556060840151805185936114f0926006929101906142c6565b5090505060005b600281101561165c5761155d7f00000000000000000000000000000000000000000000000000000000000000006000198560600151848151811061153d5761153d614db0565b60200260200101516001600160a01b03166133269092919063ffffffff16565b82600001516001600160a01b0316632e2f4cc28460600151838151811061158657611586614db0565b602002602001015163095ea7b360e01b86604001516000196040516020016115c39291906001600160a01b03929092168252602082015260400190565b6040516020818303038152906040526040518463ffffffff1660e01b81526004016115f093929190615052565b600060405180830381600087803b15801561160a57600080fd5b505af192505050801561163f57506040513d6000823e601f3d908101601f1916820160405261163c919081019061508f565b60015b6116485761164a565b505b80611654816150fc565b9150506114f7565b5081602001516001600160a01b031663c45a01556040518163ffffffff1660e01b815260040160206040518083038186803b15801561169a57600080fd5b505afa1580156116ae573d6000803e3d6000fd5b505050506040513d601f19601f820116820180604052508101906116d29190615117565b6001600160a01b031663d9a641e183606001516000815181106116f7576116f7614db0565b6020026020010151846060015160018151811061171657611716614db0565b60200260200101516040518363ffffffff1660e01b81526004016117509291906001600160a01b0392831681529116602082015260400190565b60206040518083038186803b15801561176857600080fd5b505afa15801561177c573d6000803e3d6000fd5b505050506040513d601f19601f820116820180604052508101906117a09190615117565b600260016101000a8154816001600160a01b0302191690836001600160a01b03160217905550610c1481610a12565b606061073b7521b0b6b2b637ba283ab639b2a9ba3930ba32b3bcab1960511b61341a565b600082815260016020526040812061180b9083613486565b9392505050565b6000918252602082815260408084206001600160a01b0393909316845291905290205460ff1690565b6040805180820190915260008082526020820152600061185b838561514a565b611865908561516c565b9050600283900b611876848661514a565b6118819060026151b4565b60020b1315611897576118948382615241565b90505b600285602001516118a89190615288565b6118b2908261516c565b600290810b835260208601516118c89190615288565b6118d29082615241565b60020b6020830152509392505050565b6000806118f28560000151613492565b6001600160a01b03169050600061190c8660200151613492565b6001600160a01b03169050846001600160a01b031682106119325760009250505061180b565b846001600160a01b0316811161195057600160601b9250505061180b565b60006119856119686001600160a01b03881684614e75565b600160601b6111bd896001600160a01b031686600160601b61326a565b9050600061199c846001600160a01b038916614e75565b90506119c181600160601b836119b7868b600160601b61326a565b6111bd9190614f4a565b98975050505050505050565b606061073b640312e302e360dc1b61341a565b6119e861331d565b600f805460ff1916911515919091179055565b6060816001600160401b03811115611a1557611a1561436f565b604051908082528060200260200182016040528015611a4857816020015b6060815260200190600190039081611a335790505b50905060005b82811015611ae857611ab830858584818110611a6c57611a6c614db0565b9050602002810190611a7e91906152c2565b8080601f0160208091040260200160405190810160405280939291908181526020018383808284376000920191909152506138a792505050565b828281518110611aca57611aca614db0565b60200260200101819052508080611ae0906150fc565b915050611a4e565b5092915050565b611af761331d565b80516040805180820190915260028152612b2d60f11b602082015290611b305760405162461bcd60e51b815260040161078e9190614997565b5080516040805180820190915260048152634c494d4f60e01b602082015290633b9aca001015611b735760405162461bcd60e51b815260040161078e9190614997565b506000816020015111604051806040016040528060028152602001612b2d60f11b81525090611bb55760405162461bcd60e51b815260040161078e9190614997565b50633b9aca0081602001511115604051806040016040528060048152602001634c494d4f60e01b81525090611bfd5760405162461bcd60e51b815260040161078e9190614997565b508051600d5560200151600e55565b565b6000818152600160205260408120610735906138cc565b600082815260208190526040902060010154611c408161321c565b610b958383613248565b6000600260019054906101000a90046001600160a01b03166001600160a01b031663d0c93a7c6040518163ffffffff1660e01b815260040160206040518083038186803b158015611c9a57600080fd5b505afa158015611cae573d6000803e3d6000fd5b505050506040513d601f19601f82011682018060405250810190611cd2919061530f565b90506000826020015160020b138015611d055750611cf18160026151b4565b8260200151611d00919061514a565b60020b155b6040518060400160405280600381526020016224a72b60e91b81525090611d3f5760405162461bcd60e51b815260040161078e9190614997565b50611d4d620d89e71961532c565b611d589060026151b4565b60020b826040015160020b1315604051806040016040528060048152602001634c494d4f60e01b81525090611da05760405162461bcd60e51b815260040161078e9190614997565b506000826060015160020b13604051806040016040528060048152602001634c494d5560e01b81525090611de75760405162461bcd60e51b815260040161078e9190614997565b506000826080015163ffffffff1611604051806040016040528060028152602001612b2d60f11b81525090611e2f5760405162461bcd60e51b815260040161078e9190614997565b5062093a80826080015163ffffffff1610604051806040016040528060048152602001634c494d4f60e01b81525090611e7b5760405162461bcd60e51b815260040161078e9190614997565b5081610120015151600214604051806040016040528060048152602001631253959360e21b81525090611ec15760405162461bcd60e51b815260040161078e9190614997565b50633b9aca008260e0015111158015611ee35750633b9aca0082610100015111155b604051806040016040528060048152602001634c494d4f60e01b81525090610b955760405162461bcd60e51b815260040161078e9190614997565b60408051608081018252600380546001600160a01b03908116835260045481166020808501919091526005549091168385015260068054855181840281018401909652808652611c0c95606086019390929190830182828015611faa57602002820191906000526020600020905b81546001600160a01b03168152600190910190602001808311611f8c575b505050505081525050613070565b6000816001600160a01b031663e76c01e46040518163ffffffff1660e01b815260040160e06040518083038186803b158015611ff357600080fd5b505afa158015612007573d6000803e3d6000fd5b505050506040513d601f19601f8201168201806040525081019061202b9190614d15565b505050505091505060006120438385608001516138d6565b90506000612051828461516c565b905060008160020b121561206b576120688161532c565b90505b846060015160020b8160020b12604051806040016040528060048152602001634c494d4f60e01b815250906120b35760405162461bcd60e51b815260040161078e9190614997565b505050505050565b6040805180820190915260008082526020820152600080846001600160a01b031663d0c93a7c6040518163ffffffff1660e01b815260040160206040518083038186803b15801561210b57600080fd5b505afa15801561211f573d6000803e3d6000fd5b505050506040513d601f19601f82011682018060405250810190612143919061530f565b90508315806121545750600f5460ff165b156121705761216487878361183b565b600192509250506123e1565b60408051808201825260008082526020820152905163133f757160e31b8152600481018690526001600160a01b037f000000000000000000000000000000000000000000000000000000000000000016906399fbab88906024016101606040518083038186803b1580156121e357600080fd5b505afa1580156121f7573d6000803e3d6000fd5b505050506040513d601f19601f8201168201806040525081019061221b9190615366565b50505050600291820b602089018190529290910b808852600096506122479550935090915061516c9050565b905060006122638262ffffff168b60a00151633b9aca0061326a565b905060008184600001516122779190615241565b9050600082856020015161228b919061516c565b90508a60020b8260020b131580156122a957508060020b8b60020b13155b156122c057846000975097505050505050506123e1565b60006122cc8c8461516c565b9050600281900b6122dd838e61516c565b60020b13156122f3576122f0828d61516c565b90505b600061230d8562ffffff168f60c00151633b9aca0061326a565b6123179083615241565b9050612323888261514a565b60020b15158061233657508060020b6000145b1561235e576123458882615241565b9050612351888261514a565b61235b908261516c565b90505b865161236b90829061516c565b60020b8a526020870151612380908290615241565b8a6020019060020b908160020b815250508d6040015160020b8a600001518b602001516123ad919061516c565b60020b13156123d4576123c18e8e8a61183b565b60019950995050505050505050506123e1565b6001985050505050505050505b94509492505050565b60006001600160e01b03198216637965db0b60e01b148061073557506301ffc9a760e01b6001600160e01b0319831614610735565b61242833610b38565b8061243757506124373361146c565b6040518060400160405280600381526020016223292160e91b815250906124715760405162461bcd60e51b815260040161078e9190614997565b50565b60408051808201909152600080825260208201526000856020015190506000816001600160a01b031663ef7d80376040518163ffffffff1660e01b815260040160206040518083038186803b1580156124cc57600080fd5b505afa1580156124e0573d6000803e3d6000fd5b505050506040513d601f19601f82011682018060405250810190612504919061543c565b9050600080612515888888866120bb565b91509150806125a257836001600160a01b031663c27b2c2d6040518163ffffffff1660e01b8152600401600060405180830381600087803b15801561255957600080fd5b505af115801561256d573d6000803e3d6000fd5b505050506040513d6000823e601f3d908101601f191682016040526125959190810190615455565b5081945050505050610749565b8215612832576000866001600160a01b031663e76c01e46040518163ffffffff1660e01b815260040160e06040518083038186803b1580156125e357600080fd5b505afa1580156125f7573d6000803e3d6000fd5b505050506040513d601f19601f8201168201806040525081019061261b9190614d15565b5050505050509050600060026001600160401b0381111561263e5761263e61436f565b604051908082528060200260200182016040528015612667578160200160208202803683370190505b509050856001600160a01b03166363b0e66a6040518163ffffffff1660e01b815260040160206040518083038186803b1580156126a357600080fd5b505afa1580156126b7573d6000803e3d6000fd5b505050506040513d601f19601f820116820180604052508101906126db9190615117565b60405163b5ce1db960e01b8152600481018790526001600160a01b0384811660248301526001600160801b036044830152919091169063b5ce1db990606401604080518083038186803b15801561273157600080fd5b505afa158015612745573d6000803e3d6000fd5b505050506040513d601f19601f820116820180604052508101906127699190615489565b8260008151811061277c5761277c614db0565b602002602001018360018151811061279657612796614db0565b6020908102919091010191909152528a5160608c0151604051630818b5d560e21b81526001600160a01b03891692632062d754926127d89286906004016154ad565b600060405180830381600087803b1580156127f257600080fd5b505af1158015612806573d6000803e3d6000fd5b505050506040513d6000823e601f3d908101601f1916820160405261282e9190810190615455565b5050505b60007f00000000000000000000000000000000000000000000000000000000000000006001600160a01b0316639cc1a2836040518061014001604052808d6060015160008151811061288657612886614db0565b60200260200101516001600160a01b031681526020018d606001516001815181106128b3576128b3614db0565b60200260200101516001600160a01b03168152602001866000015160020b8152602001866020015160020b8152602001600d600001548152602001600d6001015481526020016000815260200160008152602001306001600160a01b031681526020016000198152506040518263ffffffff1660e01b8152600401612938919061552d565b608060405180830381600087803b15801561295257600080fd5b505af1158015612966573d6000803e3d6000fd5b505050506040513d601f19601f8201168201806040525081019061298a91906155d8565b5050604051632142170760e11b81523060048201526001600160a01b038881166024830152604482018490529293507f0000000000000000000000000000000000000000000000000000000000000000909216916342842e0e9150606401600060405180830381600087803b158015612a0257600080fd5b505af1158015612a16573d6000803e3d6000fd5b505050507face8748d23af65e86cf543d0298345b95115752e382befe3e832eacd1508adb081604051612a4b91815260200190565b60405180910390a18315612b0d57604051630852cd8d60e31b8152600481018590527f00000000000000000000000000000000000000000000000000000000000000006001600160a01b0316906342966c6890602401600060405180830381600087803b158015612abb57600080fd5b505af1158015612acf573d6000803e3d6000fd5b505050507f65d33d8ef62a81711748bbe2a7b67aef94d1a9af04a2690d3a4dfd13d9c1d22b84604051612b0491815260200190565b60405180910390a15b509098975050505050505050565b6000612b356001600160a01b03861680600160601b61326a565b9050600080612b4b8a8a856103ee8c8c896118e2565b915091508861012001518281518110612b6657612b66614db0565b6020026020010151811015612b7d57505050613067565b8160011415612b9857612b95600160601b808561326a565b92505b60008a600001516001600160a01b031663e5328e066040518163ffffffff1660e01b815260040160006040518083038186803b158015612bd757600080fd5b505afa158015612beb573d6000803e3d6000fd5b505050506040513d6000823e601f3d908101601f19168201604052612c139190810190614ee7565b508b5160408d01519192506001600160a01b031690632e2f4cc290612c3c600460008b8d615614565b612c459161563e565b612c528a6004818e615614565b6040518563ffffffff1660e01b8152600401612c71949392919061566e565b600060405180830381600087803b158015612c8b57600080fd5b505af1158015612c9f573d6000803e3d6000fd5b505050506040513d6000823e601f3d908101601f19168201604052612cc7919081019061508f565b5060008060008d600001516001600160a01b031663e5328e066040518163ffffffff1660e01b815260040160006040518083038186803b158015612d0a57600080fd5b505afa158015612d1e573d6000803e3d6000fd5b505050506040513d6000823e601f3d908101601f19168201604052612d469190810190614ee7565b509050838681518110612d5b57612d5b614db0565b6020026020010151818781518110612d7557612d75614db0565b6020026020010151111560405180604001604052806004815260200163494e564160e01b81525090612dba5760405162461bcd60e51b815260040161078e9190614997565b50838660011881518110612dd057612dd0614db0565b6020026020010151818760011881518110612ded57612ded614db0565b6020026020010151101560405180604001604052806004815260200163494e564160e01b81525090612e325760405162461bcd60e51b815260040161078e9190614997565b50808681518110612e4557612e45614db0565b6020026020010151848781518110612e5f57612e5f614db0565b6020026020010151612e719190614e75565b9250838660011881518110612e8857612e88614db0565b6020026020010151818760011881518110612ea557612ea5614db0565b6020026020010151612eb79190614e75565b9150506000612ecb82600160601b8561326a565b905087821015604051806040016040528060048152602001634c494d5560e01b81525090612f0c5760405162461bcd60e51b815260040161078e9190614997565b5080612f30888f60e00151633b9aca00612f269190614e75565b633b9aca0061326a565b1115604051806040016040528060048152602001634c494d5560e01b81525090612f6d5760405162461bcd60e51b815260040161078e9190614997565b5082612f88868f6101000151633b9aca00612f269190614e75565b1115604051806040016040528060048152602001634c494d5560e01b81525090612fc55760405162461bcd60e51b815260040161078e9190614997565b5084612fe0848f6101000151633b9aca00612f269190614e75565b1115604051806040016040528060048152602001634c494d5560e01b8152509061301d5760405162461bcd60e51b815260040161078e9190614997565b5060408051848152602081018490529081018790527f984c316f55901f828cae2a57394002595129e75b4546d4a80c6c1a4787d748c29060600160405180910390a1505050505050505b50505050505050565b600081600001516001600160a01b031663e5328e066040518163ffffffff1660e01b815260040160006040518083038186803b1580156130af57600080fd5b505afa1580156130c3573d6000803e3d6000fd5b505050506040513d6000823e601f3d908101601f191682016040526130eb9190810190614ee7565b50905060008160008151811061310357613103614db0565b60200260200101511180613131575060008160018151811061312757613127614db0565b6020026020010151115b15610c1457815160208301516060840151604051630818b5d560e21b81526001600160a01b0390931692632062d7549261317192909186906004016154ad565b600060405180830381600087803b15801561318b57600080fd5b505af115801561319f573d6000803e3d6000fd5b505050506040513d6000823e601f3d908101601f19168201604052610b959190810190615455565b610c148282613226565b600082815260208190526040808220600101805490849055905190918391839186917fbd79b86ffe0ab8e8776151514217cd7cacd52c909f66475c3af44e129f0b00ff9190a4505050565b6124718133613b1f565b6132308282613b78565b6000828152600160205260409020610b959082613bfc565b6132528282613c11565b6000828152600160205260409020610b959082613c76565b6000808060001985870985870292508281108382030391505080600014156132a4576000841161329957600080fd5b50829004905061180b565b8084116132b057600080fd5b6000848688096000868103871696879004966002600389028118808a02820302808a02820302808a02820302808a02820302808a02820302808a02909103029181900381900460010186841190950394909402919094039290920491909117919091029150509392505050565b61243733610b38565b604051636eb1769f60e11b81523060048201526001600160a01b0383811660248301526000919085169063dd62ed3e9060440160206040518083038186803b15801561337157600080fd5b505afa158015613385573d6000803e3d6000fd5b505050506040513d601f19601f820116820180604052508101906133a9919061543c565b90506134148463095ea7b360e01b856133c28686614f4a565b6040516001600160a01b039092166024830152604482015260640160408051601f198184030181529190526020810180516001600160e01b03166001600160e01b031990931692909217909152613c8b565b50505050565b604080516020808252818301909252606091602082018180368337019050509050602060005b60208110156134785783816020811061345b5761345b614db0565b1a61346857809150613478565b613471816150fc565b9050613440565b508152602081019190915290565b600061180b8383613d60565b60008060008360020b126134a9578260020b6134b6565b8260020b6134b6906156bf565b90506134c5620d89e71961532c565b60020b8111156134fb5760405162461bcd60e51b81526020600482015260016024820152601560fa1b604482015260640161078e565b60006001821661350f57600160801b613521565b6ffffcb933bd6fad37aa2d162d1a5940015b70ffffffffffffffffffffffffffffffffff169050600282161561356057608061355b826ffff97272373d413259a46990580e213a6156dc565b901c90505b600482161561358a576080613585826ffff2e50f5f656932ef12357cf3c7fdcc6156dc565b901c90505b60088216156135b45760806135af826fffe5caca7e10e4e61c3624eaa0941cd06156dc565b901c90505b60108216156135de5760806135d9826fffcb9843d60f6159c9db58835c9266446156dc565b901c90505b6020821615613608576080613603826fff973b41fa98c081472e6896dfb254c06156dc565b901c90505b604082161561363257608061362d826fff2ea16466c96a3843ec78b326b528616156dc565b901c90505b608082161561365c576080613657826ffe5dee046a99a2a811c461f1969c30536156dc565b901c90505b610100821615613687576080613682826ffcbe86c7900a88aedcffc83b479aa3a46156dc565b901c90505b6102008216156136b25760806136ad826ff987a7253ac413176f2b074cf7815e546156dc565b901c90505b6104008216156136dd5760806136d8826ff3392b0822b70005940c7a398e4b70f36156dc565b901c90505b610800821615613708576080613703826fe7159475a2c29b7443b29c7fa6e889d96156dc565b901c90505b61100082161561373357608061372e826fd097f3bdfd2022b8845ad8f792aa58256156dc565b901c90505b61200082161561375e576080613759826fa9f746462d870fdf8a65dc1f90e061e56156dc565b901c90505b614000821615613789576080613784826f70d869a156d2a1b890bb3df62baf32f76156dc565b901c90505b6180008216156137b45760806137af826f31be135f97d08fd981231505542fcfa66156dc565b901c90505b620100008216156137e05760806137db826f09aa508b5b7a84e1c677de54f3e99bc96156dc565b901c90505b6202000082161561380b576080613806826e5d6af8dedb81196699c329225ee6046156dc565b901c90505b62040000821615613835576080613830826d2216e584f5fa1ea926041bedfe986156dc565b901c90505b6208000082161561385d576080613858826b048a170391f7dc42444e8fa26156dc565b901c90505b60008460020b131561387857613875816000196156fb565b90505b6138876401000000008261570f565b15613893576001613896565b60005b6107499060ff16602083901c614f4a565b606061180b8383604051806060016040528060278152602001615aa360279139613d8a565b6000610735825490565b600063ffffffff82166139105760405162461bcd60e51b8152602060048201526002602482015261042560f41b604482015260640161078e565b604080516002808252606082018352600092602083019080368337019050509050828160008151811061394557613945614db0565b602002602001019063ffffffff16908163ffffffff168152505060008160018151811061397457613974614db0565b602002602001019063ffffffff16908163ffffffff16815250506000846001600160a01b03166329047dfa6040518163ffffffff1660e01b815260040160206040518083038186803b1580156139c957600080fd5b505afa1580156139dd573d6000803e3d6000fd5b505050506040513d601f19601f82011682018060405250810190613a019190615117565b90506000816001600160a01b0316639d3a5241846040518263ffffffff1660e01b8152600401613a319190615723565b60006040518083038186803b158015613a4957600080fd5b505afa158015613a5d573d6000803e3d6000fd5b505050506040513d6000823e601f3d908101601f19168201604052613a8591908101906157e5565b509050600081600081518110613a9d57613a9d614db0565b602002602001015182600181518110613ab857613ab8614db0565b6020026020010151613aca91906158a6565b9050613adc63ffffffff8716826158ec565b945060008160060b128015613b025750613afc63ffffffff871682615921565b60060b15155b15613b155784613b1181615943565b9550505b5050505092915050565b613b298282611812565b610c1457613b3681613e02565b613b41836020613e14565b604051602001613b52929190615967565b60408051601f198184030181529082905262461bcd60e51b825261078e91600401614997565b613b828282611812565b610c14576000828152602081815260408083206001600160a01b03851684529091529020805460ff19166001179055613bb83390565b6001600160a01b0316816001600160a01b0316837f2f8788117e7eff1d82e926ec794901d17c78024a50270940304540a733656f0d60405160405180910390a45050565b600061180b836001600160a01b038416613faf565b613c1b8282611812565b15610c14576000828152602081815260408083206001600160a01b0385168085529252808320805460ff1916905551339285917ff6391f5c32d9c69d2a47ea670b442974b53935d1edc7fd64eb21e047a839171b9190a45050565b600061180b836001600160a01b038416613ffe565b6000613ce0826040518060400160405280602081526020017f5361666545524332303a206c6f772d6c6576656c2063616c6c206661696c6564815250856001600160a01b03166140f19092919063ffffffff16565b9050805160001480613d01575080806020019051810190613d0191906159dc565b610b955760405162461bcd60e51b815260206004820152602a60248201527f5361666545524332303a204552433230206f7065726174696f6e20646964206e6044820152691bdd081cdd58d8d9595960b21b606482015260840161078e565b6000826000018281548110613d7757613d77614db0565b9060005260206000200154905092915050565b6060600080856001600160a01b031685604051613da791906159f9565b600060405180830381855af49150503d8060008114613de2576040519150601f19603f3d011682016040523d82523d6000602084013e613de7565b606091505b5091509150613df886838387614100565b9695505050505050565b60606107356001600160a01b03831660145b60606000613e238360026156dc565b613e2e906002614f4a565b6001600160401b03811115613e4557613e4561436f565b6040519080825280601f01601f191660200182016040528015613e6f576020820181803683370190505b509050600360fc1b81600081518110613e8a57613e8a614db0565b60200101906001600160f81b031916908160001a905350600f60fb1b81600181518110613eb957613eb9614db0565b60200101906001600160f81b031916908160001a9053506000613edd8460026156dc565b613ee8906001614f4a565b90505b6001811115613f60576f181899199a1a9b1b9c1cb0b131b232b360811b85600f1660108110613f1c57613f1c614db0565b1a60f81b828281518110613f3257613f32614db0565b60200101906001600160f81b031916908160001a90535060049490941c93613f5981615a15565b9050613eeb565b50831561180b5760405162461bcd60e51b815260206004820181905260248201527f537472696e67733a20686578206c656e67746820696e73756666696369656e74604482015260640161078e565b6000818152600183016020526040812054613ff657508154600181810184556000848152602080822090930184905584548482528286019093526040902091909155610735565b506000610735565b600081815260018301602052604081205480156140e7576000614022600183614e75565b855490915060009061403690600190614e75565b905081811461409b57600086600001828154811061405657614056614db0565b906000526020600020015490508087600001848154811061407957614079614db0565b6000918252602080832090910192909255918252600188019052604090208390555b85548690806140ac576140ac615a2c565b600190038181906000526020600020016000905590558560010160008681526020019081526020016000206000905560019350505050610735565b6000915050610735565b60606107498484600085614176565b6060831561416c578251614165576001600160a01b0385163b6141655760405162461bcd60e51b815260206004820152601d60248201527f416464726573733a2063616c6c20746f206e6f6e2d636f6e7472616374000000604482015260640161078e565b5081610749565b6107498383614251565b6060824710156141d75760405162461bcd60e51b815260206004820152602660248201527f416464726573733a20696e73756666696369656e742062616c616e636520666f6044820152651c8818d85b1b60d21b606482015260840161078e565b600080866001600160a01b031685876040516141f391906159f9565b60006040518083038185875af1925050503d8060008114614230576040519150601f19603f3d011682016040523d82523d6000602084013e614235565b606091505b509150915061424687838387614100565b979650505050505050565b8151156142615781518083602001fd5b8060405162461bcd60e51b815260040161078e9190614997565b8280548282559060005260206000209081019282156142b6579160200282015b828111156142b657825182559160200191906001019061429b565b506142c292915061431b565b5090565b8280548282559060005260206000209081019282156142b6579160200282015b828111156142b657825182546001600160a01b0319166001600160a01b039091161782556020909201916001909101906142e6565b5b808211156142c2576000815560010161431c565b60006020828403121561434257600080fd5b81356001600160e01b03198116811461180b57600080fd5b6001600160a01b038116811461247157600080fd5b634e487b7160e01b600052604160045260246000fd5b604051608081016001600160401b03811182821017156143a7576143a761436f565b60405290565b60405161014081016001600160401b03811182821017156143a7576143a761436f565b604051601f8201601f191681016001600160401b03811182821017156143f8576143f861436f565b604052919050565b60006001600160401b038211156144195761441961436f565b50601f01601f191660200190565b6000806000806080858703121561443d57600080fd5b84356144488161435a565b935060208501356144588161435a565b92506040850135915060608501356001600160401b0381111561447a57600080fd5b8501601f8101871361448b57600080fd5b803561449e61449982614400565b6143d0565b8181528860208385010111156144b357600080fd5b8160208401602083013760006020838301015280935050505092959194509250565b600080600080606085870312156144eb57600080fd5b8435935060208501356001600160401b038082111561450957600080fd5b818701915087601f83011261451d57600080fd5b81358181111561452c57600080fd5b88602082850101111561453e57600080fd5b95986020929092019750949560400135945092505050565b60006020828403121561456857600080fd5b813561180b8161435a565b60006020828403121561458557600080fd5b5035919050565b6000806040838503121561459f57600080fd5b8235915060208301356145b18161435a565b809150509250929050565b60006001600160401b038211156145d5576145d561436f565b5060051b60200190565b6000608082840312156145f157600080fd5b6145f9614385565b905081356146068161435a565b81526020828101356146178161435a565b8282015260408301356146298161435a565b604083015260608301356001600160401b0381111561464757600080fd5b8301601f8101851361465857600080fd5b8035614666614499826145bc565b81815260059190911b8201830190838101908783111561468557600080fd5b928401925b828410156146ac57833561469d8161435a565b8252928401929084019061468a565b6060860152509295945050505050565b6000602082840312156146ce57600080fd5b81356001600160401b038111156146e457600080fd5b610749848285016145df565b8060020b811461247157600080fd5b803561470a816146f0565b919050565b803563ffffffff8116811461470a57600080fd5b600082601f83011261473457600080fd5b81356020614744614499836145bc565b82815260059290921b8401810191818101908684111561476357600080fd5b8286015b8481101561477e5780358352918301918301614767565b509695505050505050565b6000610140828403121561479c57600080fd5b6147a46143ad565b90506147af826146ff565b81526147bd602083016146ff565b60208201526147ce604083016146ff565b60408201526147df606083016146ff565b60608201526147f06080830161470f565b608082015260a082013560a082015260c082013560c082015260e082013560e0820152610100808301358183015250610120808301356001600160401b0381111561483a57600080fd5b61484685828601614723565b82840152505092915050565b6000806000806080858703121561486857600080fd5b84356001600160401b038082111561487f57600080fd5b61488b888389016145df565b955060208701359150808211156148a157600080fd5b506148ae87828801614789565b949794965050505060408301359260600135919050565b6000602082840312156148d757600080fd5b81356001600160401b038111156148ed57600080fd5b61074984828501614789565b6000806040838503121561490c57600080fd5b82356001600160401b0381111561492257600080fd5b61492e858286016145df565b92505060208301356145b18161435a565b60005b8381101561495a578181015183820152602001614942565b838111156134145750506000910152565b6000815180845261498381602086016020860161493f565b601f01601f19169290920160200192915050565b60208152600061180b602083018461496b565b600080604083850312156149bd57600080fd5b50508035926020909101359150565b6000806000606084860312156149e157600080fd5b83356001600160401b038111156149f757600080fd5b614a0386828701614789565b9350506020840135614a14816146f0565b91506040840135614a24816146f0565b809150509250925092565b604081016107358284805160020b8252602081015160020b60208301525050565b60008060008385036080811215614a6657600080fd5b6040811215614a7457600080fd5b50604051604081018181106001600160401b0382111715614a9757614a9761436f565b6040528435614aa5816146f0565b81526020850135614ab5816146f0565b602082015292506040840135614aca8161435a565b929592945050506060919091013590565b801515811461247157600080fd5b600060208284031215614afb57600080fd5b813561180b81614adb565b60008060208385031215614b1957600080fd5b82356001600160401b0380821115614b3057600080fd5b818501915085601f830112614b4457600080fd5b813581811115614b5357600080fd5b8660208260051b8501011115614b6857600080fd5b60209290920196919550909350505050565b6000602080830181845280855180835260408601915060408160051b870101925083870160005b82811015614bcf57603f19888603018452614bbd85835161496b565b94509285019290850190600101614ba1565b5092979650505050505050565b600060408284031215614bee57600080fd5b604051604081018181106001600160401b0382111715614c1057614c1061436f565b604052823581526020928301359281019290925250919050565b60008060408385031215614c3d57600080fd5b82356001600160401b03811115614c5357600080fd5b61492e85828601614789565b60008060008060808587031215614c7557600080fd5b84356001600160401b03811115614c8b57600080fd5b614c9787828801614789565b9450506020850135614ca8816146f0565b92506040850135614cb88161435a565b9396929550929360600135925050565b60608101614ce98285805160020b8252602081015160020b60208301525050565b82151560408301529392505050565b805161470a816146f0565b805161ffff8116811461470a57600080fd5b600080600080600080600060e0888a031215614d3057600080fd5b8751614d3b8161435a565b6020890151909750614d4c816146f0565b6040890151909650614d5d816146f0565b9450614d6b60608901614d03565b9350614d7960808901614d03565b925060a088015160ff81168114614d8f57600080fd5b60c0890151909250614da081614adb565b8091505092959891949750929550565b634e487b7160e01b600052603260045260246000fd5b805161470a8161435a565b60006020808385031215614de457600080fd5b82516001600160401b03811115614dfa57600080fd5b8301601f81018513614e0b57600080fd5b8051614e19614499826145bc565b81815260059190911b82018301908381019087831115614e3857600080fd5b928401925b82841015614246578351614e508161435a565b82529284019290840190614e3d565b634e487b7160e01b600052601160045260246000fd5b600082821015614e8757614e87614e5f565b500390565b600082601f830112614e9d57600080fd5b81516020614ead614499836145bc565b82815260059290921b84018101918181019086841115614ecc57600080fd5b8286015b8481101561477e5780518352918301918301614ed0565b60008060408385031215614efa57600080fd5b82516001600160401b0380821115614f1157600080fd5b614f1d86838701614e8c565b93506020850151915080821115614f3357600080fd5b50614f4085828601614e8c565b9150509250929050565b60008219821115614f5d57614f5d614e5f565b500190565b600081518084526020808501945080840160005b83811015614f9257815187529582019590820190600101614f76565b509495945050505050565b60208152614fb160208201835160020b9052565b60006020830151614fc7604084018260020b9052565b506040830151614fdc606084018260020b9052565b506060830151614ff1608084018260020b9052565b50608083015163ffffffff811660a08401525060a083015160c083015260c083015160e083015260e0830151610100818185015280850151915050610120818185015280850151915050610140808185015250610749610160840182614f62565b6001600160a01b03841681526001600160e01b0319831660208201526060604082018190526000906150869083018461496b565b95945050505050565b6000602082840312156150a157600080fd5b81516001600160401b038111156150b757600080fd5b8201601f810184136150c857600080fd5b80516150d661449982614400565b8181528560208385010111156150eb57600080fd5b61508682602083016020860161493f565b600060001982141561511057615110614e5f565b5060010190565b60006020828403121561512957600080fd5b815161180b8161435a565b634e487b7160e01b600052601260045260246000fd5b60008260020b8061515d5761515d615134565b808360020b0791505092915050565b60008160020b8360020b6000811281627fffff190183128115161561519357615193614e5f565b81627fffff0183138116156151aa576151aa614e5f565b5090039392505050565b60008160020b8360020b627fffff6000821360008413838304851182821616156151e0576151e0614e5f565b627fffff1960008512828116878305871216156151ff576151ff614e5f565b6000871292508582058712848416161561521b5761521b614e5f565b8585058712818416161561523157615231614e5f565b5050509290910295945050505050565b60008160020b8360020b6000821282627fffff0382138115161561526757615267614e5f565b82627fffff1903821281161561527f5761527f614e5f565b50019392505050565b60008160020b8360020b8061529f5761529f615134565b627fffff198214600019821416156152b9576152b9614e5f565b90059392505050565b6000808335601e198436030181126152d957600080fd5b8301803591506001600160401b038211156152f357600080fd5b60200191503681900382131561530857600080fd5b9250929050565b60006020828403121561532157600080fd5b815161180b816146f0565b60008160020b627fffff1981141561534657615346614e5f565b60000392915050565b80516001600160801b038116811461470a57600080fd5b60008060008060008060008060008060006101608c8e03121561538857600080fd5b8b516affffffffffffffffffffff811681146153a357600080fd5b60208d0151909b506153b48161435a565b60408d0151909a506153c58161435a565b98506153d360608d01614dc6565b97506153e160808d01614cf8565b96506153ef60a08d01614cf8565b95506153fd60c08d0161534f565b945060e08c015193506101008c0151925061541b6101208d0161534f565b915061542a6101408d0161534f565b90509295989b509295989b9093969950565b60006020828403121561544e57600080fd5b5051919050565b60006020828403121561546757600080fd5b81516001600160401b0381111561547d57600080fd5b61074984828501614e8c565b6000806040838503121561549c57600080fd5b505080516020909101519092909150565b6001600160a01b0384811682526080602080840182905285519184018290526000928682019290919060a0860190855b818110156154fb5785518516835294830194918301916001016154dd565b5050858103604087015261550f8188614f62565b86810360609097019690965250600085529093019695505050505050565b81516001600160a01b031681526101408101602083015161555960208401826001600160a01b03169052565b50604083015161556e604084018260020b9052565b506060830151615583606084018260020b9052565b506080830151608083015260a083015160a083015260c083015160c083015260e083015160e0830152610100808401516155c7828501826001600160a01b03169052565b505061012092830151919092015290565b600080600080608085870312156155ee57600080fd5b845193506155fe6020860161534f565b6040860151606090960151949790965092505050565b6000808585111561562457600080fd5b8386111561563157600080fd5b5050820193919092039150565b6001600160e01b031981358181169160048510156156665780818660040360031b1b83161692505b505092915050565b6001600160a01b03851681526001600160e01b0319841660208201526060604082018190528101829052818360808301376000818301608090810191909152601f909201601f191601019392505050565b6000600160ff1b8214156156d5576156d5614e5f565b5060000390565b60008160001904831182151516156156f6576156f6614e5f565b500290565b60008261570a5761570a615134565b500490565b60008261571e5761571e615134565b500690565b6020808252825182820181905260009190848201906040850190845b8181101561576157835163ffffffff168352928401929184019160010161573f565b50909695505050505050565b600082601f83011261577e57600080fd5b8151602061578e614499836145bc565b82815260059290921b840181019181810190868411156157ad57600080fd5b8286015b8481101561477e5780516dffffffffffffffffffffffffffff811681146157d85760008081fd5b83529183019183016157b1565b600080604083850312156157f857600080fd5b82516001600160401b038082111561580f57600080fd5b818501915085601f83011261582357600080fd5b81516020615833614499836145bc565b82815260059290921b8401810191818101908984111561585257600080fd5b948201945b838610156158805785518060060b81146158715760008081fd5b82529482019490820190615857565b9188015191965090935050508082111561589957600080fd5b50614f408582860161576d565b60008160060b8360060b6000811281667fffffffffffff19018312811516156158d1576158d1614e5f565b81667fffffffffffff0183138116156151aa576151aa614e5f565b60008160060b8360060b8061590357615903615134565b667fffffffffffff198214600019821416156152b9576152b9614e5f565b60008260060b8061593457615934615134565b808360060b0791505092915050565b60008160020b627fffff1981141561595d5761595d614e5f565b6000190192915050565b7f416363657373436f6e74726f6c3a206163636f756e742000000000000000000081526000835161599f81601785016020880161493f565b7001034b99036b4b9b9b4b733903937b6329607d1b60179184019182015283516159d081602884016020880161493f565b01602801949350505050565b6000602082840312156159ee57600080fd5b815161180b81614adb565b60008251615a0b81846020870161493f565b9190910192915050565b600081615a2457615a24614e5f565b506000190190565b634e487b7160e01b600052603160045260246000fdfec171260023d22a25a00a2789664c9334017843b831138c8ef03cc8897e5873d7f23ec0bb4210edd5cba85afd05127efcd2fc6a781bfed49188da1081670b22d846a52cf33029de9f84853745a87af28464c80bf0346df1b32e205fc73319f622416464726573733a206c6f772d6c6576656c2064656c65676174652063616c6c206661696c6564a2646970667358221220eae359e9fc6ee1856ce6fb799241d090f90c6486e44702d948b6b03e51a7a33864736f6c63430008090033",
    "linkReferences": {}
  },
  "methodIdentifiers": {
    "ADMIN_DELEGATE_ROLE()": "0952ff54",
    "ADMIN_ROLE()": "75b238fc",
    "D6()": "a11bac74",
    "D9()": "551530ae",
    "DEFAULT_ADMIN_ROLE()": "a217fddf",
    "OPERATOR()": "983d2737",
    "Q96()": "40792465",
    "algebraPool()": "9f747b20",
    "calculateAmountsForSwap((address,address,address,address[]),(int24,int24,int24,int24,uint32,uint256,uint256,uint256,uint256,uint256[]),uint256,uint256)": "50c9d3bb",
    "calculateNewPosition((int24,int24,int24,int24,uint32,uint256,uint256,uint256,uint256,uint256[]),int24,address,uint256)": "fe57ed61",
    "calculateTargetRatioOfToken1((int24,int24),uint160,uint256)": "9bb37ba8",
    "checkImmutableParams((address,address,address,address[]))": "475cffef",
    "checkMutableParams((int24,int24,int24,int24,uint32,uint256,uint256,uint256,uint256,uint256[]))": "d7a678c0",
    "checkTickDeviation((int24,int24,int24,int24,uint32,uint256,uint256,uint256,uint256,uint256[]),address)": "f05329b2",
    "contractName()": "75d0c0dc",
    "contractNameBytes()": "0e3e80ac",
    "contractVersion()": "a0a8e460",
    "contractVersionBytes()": "06a46239",
    "depositCallback()": "e521826f",
    "desiredAmounts()": "d3277e86",
    "forceRebalanceWidthFlag()": "1e63f062",
    "formPositionWithSpotTickInCenter((int24,int24,int24,int24,uint32,uint256,uint256,uint256,uint256,uint256[]),int24,int24)": "95aa080d",
    "getRoleAdmin(bytes32)": "248a9ca3",
    "getRoleMember(bytes32,uint256)": "9010d07c",
    "getRoleMemberCount(bytes32)": "ca15c873",
    "grantRole(bytes32,address)": "2f2ff15d",
    "hasRole(bytes32,address)": "91d14854",
    "immutableParams()": "c8014d53",
    "init(address)": "19ab453c",
    "initialize((address,address,address,address[]),address)": "6ff0b358",
    "initialized()": "158ef93e",
    "isAdmin(address)": "24d7806c",
    "isOperator(address)": "6d70f7ae",
    "multicall(bytes[])": "ac9650d8",
    "mutableParams()": "5f408a21",
    "onERC721Received(address,address,uint256,bytes)": "150b7a02",
    "positionManager()": "791b98bc",
    "rebalance(uint256,bytes,uint256)": "163cacd5",
    "renounceRole(bytes32,address)": "36568abe",
    "revokeRole(bytes32,address)": "d547741f",
    "setForceRebalanceFlag(bool)": "a8470bcc",
    "supportsInterface(bytes4)": "01ffc9a7",
    "updateDesiredAmounts((uint256,uint256))": "ace4d0fd",
    "updateMutableParams((int24,int24,int24,int24,uint32,uint256,uint256,uint256,uint256,uint256[]))": "60aa2705",
    "withdrawCallback()": "b4559f3e"
  },
  "id": 388
}