{
  "abi": [
    {
      "inputs": [
        {
          "components": [
            {
              "internalType": "contract IProtocolGovernance",
              "name": "protocolGovernance",
              "type": "address"
            },
            {
              "internalType": "contract IVaultRegistry",
              "name": "registry",
              "type": "address"
            },
            {
              "internalType": "contract IVault",
              "name": "singleton",
              "type": "address"
            }
          ],
          "internalType": "struct IVaultGovernance.InternalParams",
          "name": "internalParams_",
          "type": "tuple"
        }
      ],
      "stateMutability": "nonpayable",
      "type": "constructor"
    },
    {
      "anonymous": false,
      "inputs": [
        {
          "indexed": true,
          "internalType": "address",
          "name": "origin",
          "type": "address"
        },
        {
          "indexed": true,
          "internalType": "address",
          "name": "sender",
          "type": "address"
        },
        {
          "components": [
            {
              "internalType": "contract IProtocolGovernance",
              "name": "protocolGovernance",
              "type": "address"
            },
            {
              "internalType": "contract IVaultRegistry",
              "name": "registry",
              "type": "address"
            },
            {
              "internalType": "contract IVault",
              "name": "singleton",
              "type": "address"
            }
          ],
          "indexed": false,
          "internalType": "struct IVaultGovernance.InternalParams",
          "name": "params",
          "type": "tuple"
        }
      ],
      "name": "CommitedInternalParams",
      "type": "event"
    },
    {
      "anonymous": false,
      "inputs": [
        {
          "indexed": true,
          "internalType": "address",
          "name": "origin",
          "type": "address"
        },
        {
          "indexed": true,
          "internalType": "address",
          "name": "sender",
          "type": "address"
        },
        {
          "indexed": false,
          "internalType": "address[]",
          "name": "vaultTokens",
          "type": "address[]"
        },
        {
          "indexed": false,
          "internalType": "bytes",
          "name": "options",
          "type": "bytes"
        },
        {
          "indexed": false,
          "internalType": "address",
          "name": "owner",
          "type": "address"
        },
        {
          "indexed": false,
          "internalType": "address",
          "name": "vaultAddress",
          "type": "address"
        },
        {
          "indexed": false,
          "internalType": "uint256",
          "name": "vaultNft",
          "type": "uint256"
        }
      ],
      "name": "DeployedVault",
      "type": "event"
    },
    {
      "anonymous": false,
      "inputs": [
        {
          "indexed": true,
          "internalType": "address",
          "name": "origin",
          "type": "address"
        },
        {
          "indexed": true,
          "internalType": "address",
          "name": "sender",
          "type": "address"
        },
        {
          "indexed": true,
          "internalType": "uint256",
          "name": "nft",
          "type": "uint256"
        },
        {
          "components": [
            {
              "components": [
                {
                  "components": [
                    {
                      "internalType": "bytes32",
                      "name": "poolId",
                      "type": "bytes32"
                    },
                    {
                      "internalType": "uint256",
                      "name": "assetInIndex",
                      "type": "uint256"
                    },
                    {
                      "internalType": "uint256",
                      "name": "assetOutIndex",
                      "type": "uint256"
                    },
                    {
                      "internalType": "uint256",
                      "name": "amount",
                      "type": "uint256"
                    },
                    {
                      "internalType": "bytes",
                      "name": "userData",
                      "type": "bytes"
                    }
                  ],
                  "internalType": "struct IVault.BatchSwapStep[]",
                  "name": "swaps",
                  "type": "tuple[]"
                },
                {
                  "internalType": "contract IAsset[]",
                  "name": "assets",
                  "type": "address[]"
                },
                {
                  "components": [
                    {
                      "internalType": "address",
                      "name": "sender",
                      "type": "address"
                    },
                    {
                      "internalType": "bool",
                      "name": "fromInternalBalance",
                      "type": "bool"
                    },
                    {
                      "internalType": "address payable",
                      "name": "recipient",
                      "type": "address"
                    },
                    {
                      "internalType": "bool",
                      "name": "toInternalBalance",
                      "type": "bool"
                    }
                  ],
                  "internalType": "struct IVault.FundManagement",
                  "name": "funds",
                  "type": "tuple"
                },
                {
                  "internalType": "contract IAggregatorV3",
                  "name": "rewardOracle",
                  "type": "address"
                },
                {
                  "internalType": "contract IAggregatorV3",
                  "name": "underlyingOracle",
                  "type": "address"
                },
                {
                  "internalType": "uint256",
                  "name": "slippageD",
                  "type": "uint256"
                }
              ],
              "internalType": "struct IAuraVaultGovernance.SwapParams[]",
              "name": "tokensSwapParams",
              "type": "tuple[]"
            }
          ],
          "indexed": false,
          "internalType": "struct IAuraVaultGovernance.StrategyParams",
          "name": "params",
          "type": "tuple"
        }
      ],
      "name": "SetStrategyParams",
      "type": "event"
    },
    {
      "anonymous": false,
      "inputs": [
        {
          "indexed": true,
          "internalType": "address",
          "name": "origin",
          "type": "address"
        },
        {
          "indexed": true,
          "internalType": "address",
          "name": "sender",
          "type": "address"
        },
        {
          "components": [
            {
              "internalType": "contract IProtocolGovernance",
              "name": "protocolGovernance",
              "type": "address"
            },
            {
              "internalType": "contract IVaultRegistry",
              "name": "registry",
              "type": "address"
            },
            {
              "internalType": "contract IVault",
              "name": "singleton",
              "type": "address"
            }
          ],
          "indexed": false,
          "internalType": "struct IVaultGovernance.InternalParams",
          "name": "params",
          "type": "tuple"
        },
        {
          "indexed": false,
          "internalType": "uint256",
          "name": "when",
          "type": "uint256"
        }
      ],
      "name": "StagedInternalParams",
      "type": "event"
    },
    {
      "inputs": [],
      "name": "commitInternalParams",
      "outputs": [],
      "stateMutability": "nonpayable",
      "type": "function"
    },
    {
      "inputs": [],
      "name": "contractName",
      "outputs": [
        {
          "internalType": "string",
          "name": "",
          "type": "string"
        }
      ],
      "stateMutability": "pure",
      "type": "function"
    },
    {
      "inputs": [],
      "name": "contractNameBytes",
      "outputs": [
        {
          "internalType": "bytes32",
          "name": "",
          "type": "bytes32"
        }
      ],
      "stateMutability": "pure",
      "type": "function"
    },
    {
      "inputs": [],
      "name": "contractVersion",
      "outputs": [
        {
          "internalType": "string",
          "name": "",
          "type": "string"
        }
      ],
      "stateMutability": "pure",
      "type": "function"
    },
    {
      "inputs": [],
      "name": "contractVersionBytes",
      "outputs": [
        {
          "internalType": "bytes32",
          "name": "",
          "type": "bytes32"
        }
      ],
      "stateMutability": "pure",
      "type": "function"
    },
    {
      "inputs": [
        {
          "internalType": "address[]",
          "name": "vaultTokens_",
          "type": "address[]"
        },
        {
          "internalType": "address",
          "name": "owner_",
          "type": "address"
        },
        {
          "internalType": "address",
          "name": "pool_",
          "type": "address"
        },
        {
          "internalType": "address",
          "name": "balancerVault_",
          "type": "address"
        },
        {
          "internalType": "address",
          "name": "stakingLiquidityGauge_",
          "type": "address"
        },
        {
          "internalType": "address",
          "name": "balancerMinter_",
          "type": "address"
        }
      ],
      "name": "createVault",
      "outputs": [
        {
          "internalType": "contract IAuraVault",
          "name": "vault",
          "type": "address"
        },
        {
          "internalType": "uint256",
          "name": "nft",
          "type": "uint256"
        }
      ],
      "stateMutability": "nonpayable",
      "type": "function"
    },
    {
      "inputs": [],
      "name": "delayedProtocolParamsTimestamp",
      "outputs": [
        {
          "internalType": "uint256",
          "name": "",
          "type": "uint256"
        }
      ],
      "stateMutability": "view",
      "type": "function"
    },
    {
      "inputs": [
        {
          "internalType": "uint256",
          "name": "nft",
          "type": "uint256"
        }
      ],
      "name": "delayedProtocolPerVaultParamsTimestamp",
      "outputs": [
        {
          "internalType": "uint256",
          "name": "",
          "type": "uint256"
        }
      ],
      "stateMutability": "view",
      "type": "function"
    },
    {
      "inputs": [
        {
          "internalType": "uint256",
          "name": "nft",
          "type": "uint256"
        }
      ],
      "name": "delayedStrategyParamsTimestamp",
      "outputs": [
        {
          "internalType": "uint256",
          "name": "",
          "type": "uint256"
        }
      ],
      "stateMutability": "view",
      "type": "function"
    },
    {
      "inputs": [],
      "name": "internalParams",
      "outputs": [
        {
          "components": [
            {
              "internalType": "contract IProtocolGovernance",
              "name": "protocolGovernance",
              "type": "address"
            },
            {
              "internalType": "contract IVaultRegistry",
              "name": "registry",
              "type": "address"
            },
            {
              "internalType": "contract IVault",
              "name": "singleton",
              "type": "address"
            }
          ],
          "internalType": "struct IVaultGovernance.InternalParams",
          "name": "",
          "type": "tuple"
        }
      ],
      "stateMutability": "view",
      "type": "function"
    },
    {
      "inputs": [],
      "name": "internalParamsTimestamp",
      "outputs": [
        {
          "internalType": "uint256",
          "name": "",
          "type": "uint256"
        }
      ],
      "stateMutability": "view",
      "type": "function"
    },
    {
      "inputs": [
        {
          "internalType": "uint256",
          "name": "nft",
          "type": "uint256"
        },
        {
          "components": [
            {
              "components": [
                {
                  "components": [
                    {
                      "internalType": "bytes32",
                      "name": "poolId",
                      "type": "bytes32"
                    },
                    {
                      "internalType": "uint256",
                      "name": "assetInIndex",
                      "type": "uint256"
                    },
                    {
                      "internalType": "uint256",
                      "name": "assetOutIndex",
                      "type": "uint256"
                    },
                    {
                      "internalType": "uint256",
                      "name": "amount",
                      "type": "uint256"
                    },
                    {
                      "internalType": "bytes",
                      "name": "userData",
                      "type": "bytes"
                    }
                  ],
                  "internalType": "struct IVault.BatchSwapStep[]",
                  "name": "swaps",
                  "type": "tuple[]"
                },
                {
                  "internalType": "contract IAsset[]",
                  "name": "assets",
                  "type": "address[]"
                },
                {
                  "components": [
                    {
                      "internalType": "address",
                      "name": "sender",
                      "type": "address"
                    },
                    {
                      "internalType": "bool",
                      "name": "fromInternalBalance",
                      "type": "bool"
                    },
                    {
                      "internalType": "address payable",
                      "name": "recipient",
                      "type": "address"
                    },
                    {
                      "internalType": "bool",
                      "name": "toInternalBalance",
                      "type": "bool"
                    }
                  ],
                  "internalType": "struct IVault.FundManagement",
                  "name": "funds",
                  "type": "tuple"
                },
                {
                  "internalType": "contract IAggregatorV3",
                  "name": "rewardOracle",
                  "type": "address"
                },
                {
                  "internalType": "contract IAggregatorV3",
                  "name": "underlyingOracle",
                  "type": "address"
                },
                {
                  "internalType": "uint256",
                  "name": "slippageD",
                  "type": "uint256"
                }
              ],
              "internalType": "struct IAuraVaultGovernance.SwapParams[]",
              "name": "tokensSwapParams",
              "type": "tuple[]"
            }
          ],
          "internalType": "struct IAuraVaultGovernance.StrategyParams",
          "name": "params",
          "type": "tuple"
        }
      ],
      "name": "setStrategyParams",
      "outputs": [],
      "stateMutability": "nonpayable",
      "type": "function"
    },
    {
      "inputs": [
        {
          "components": [
            {
              "internalType": "contract IProtocolGovernance",
              "name": "protocolGovernance",
              "type": "address"
            },
            {
              "internalType": "contract IVaultRegistry",
              "name": "registry",
              "type": "address"
            },
            {
              "internalType": "contract IVault",
              "name": "singleton",
              "type": "address"
            }
          ],
          "internalType": "struct IVaultGovernance.InternalParams",
          "name": "newParams",
          "type": "tuple"
        }
      ],
      "name": "stageInternalParams",
      "outputs": [],
      "stateMutability": "nonpayable",
      "type": "function"
    },
    {
      "inputs": [],
      "name": "stagedInternalParams",
      "outputs": [
        {
          "components": [
            {
              "internalType": "contract IProtocolGovernance",
              "name": "protocolGovernance",
              "type": "address"
            },
            {
              "internalType": "contract IVaultRegistry",
              "name": "registry",
              "type": "address"
            },
            {
              "internalType": "contract IVault",
              "name": "singleton",
              "type": "address"
            }
          ],
          "internalType": "struct IVaultGovernance.InternalParams",
          "name": "",
          "type": "tuple"
        }
      ],
      "stateMutability": "view",
      "type": "function"
    },
    {
      "inputs": [
        {
          "internalType": "uint256",
          "name": "nft",
          "type": "uint256"
        }
      ],
      "name": "strategyParams",
      "outputs": [
        {
          "components": [
            {
              "components": [
                {
                  "components": [
                    {
                      "internalType": "bytes32",
                      "name": "poolId",
                      "type": "bytes32"
                    },
                    {
                      "internalType": "uint256",
                      "name": "assetInIndex",
                      "type": "uint256"
                    },
                    {
                      "internalType": "uint256",
                      "name": "assetOutIndex",
                      "type": "uint256"
                    },
                    {
                      "internalType": "uint256",
                      "name": "amount",
                      "type": "uint256"
                    },
                    {
                      "internalType": "bytes",
                      "name": "userData",
                      "type": "bytes"
                    }
                  ],
                  "internalType": "struct IVault.BatchSwapStep[]",
                  "name": "swaps",
                  "type": "tuple[]"
                },
                {
                  "internalType": "contract IAsset[]",
                  "name": "assets",
                  "type": "address[]"
                },
                {
                  "components": [
                    {
                      "internalType": "address",
                      "name": "sender",
                      "type": "address"
                    },
                    {
                      "internalType": "bool",
                      "name": "fromInternalBalance",
                      "type": "bool"
                    },
                    {
                      "internalType": "address payable",
                      "name": "recipient",
                      "type": "address"
                    },
                    {
                      "internalType": "bool",
                      "name": "toInternalBalance",
                      "type": "bool"
                    }
                  ],
                  "internalType": "struct IVault.FundManagement",
                  "name": "funds",
                  "type": "tuple"
                },
                {
                  "internalType": "contract IAggregatorV3",
                  "name": "rewardOracle",
                  "type": "address"
                },
                {
                  "internalType": "contract IAggregatorV3",
                  "name": "underlyingOracle",
                  "type": "address"
                },
                {
                  "internalType": "uint256",
                  "name": "slippageD",
                  "type": "uint256"
                }
              ],
              "internalType": "struct IAuraVaultGovernance.SwapParams[]",
              "name": "tokensSwapParams",
              "type": "tuple[]"
            }
          ],
          "internalType": "struct IAuraVaultGovernance.StrategyParams",
          "name": "",
          "type": "tuple"
        }
      ],
      "stateMutability": "view",
      "type": "function"
    },
    {
      "inputs": [
        {
          "internalType": "bytes4",
          "name": "interfaceId",
          "type": "bytes4"
        }
      ],
      "name": "supportsInterface",
      "outputs": [
        {
          "internalType": "bool",
          "name": "",
          "type": "bool"
        }
      ],
      "stateMutability": "view",
      "type": "function"
    }
  ],
  "bytecode": {
    "object": "0x60806040523480156200001157600080fd5b506040516200245f3803806200245f83398101604081905262000034916200018a565b805160408051808201909152600281526120ad60f11b602082015282916001600160a01b0316620000835760405162461bcd60e51b81526004016200007a919062000211565b60405180910390fd5b5060006001600160a01b031681602001516001600160a01b031614156040518060400160405280600281526020016120ad60f11b81525090620000db5760405162461bcd60e51b81526004016200007a919062000211565b506040808201518151808301909252600282526120ad60f11b60208301526001600160a01b0316620001225760405162461bcd60e51b81526004016200007a919062000211565b508051600080546001600160a01b03199081166001600160a01b039384161790915560208301516001805483169184169190911790556040909201516002805490931691161790555062000269565b6001600160a01b03811681146200018757600080fd5b50565b6000606082840312156200019d57600080fd5b604051606081016001600160401b0381118282101715620001ce57634e487b7160e01b600052604160045260246000fd5b6040528251620001de8162000171565b81526020830151620001f08162000171565b60208201526040830151620002058162000171565b60408201529392505050565b600060208083528351808285015260005b81811015620002405785810183015185820160400152820162000222565b8181111562000253576000604083870101525b50601f01601f1916929092016040019392505050565b6121e680620002796000396000f3fe608060405234801561001057600080fd5b50600436106101005760003560e01c806375d0c0dc11610097578063c6b22e0b11610066578063c6b22e0b146102ae578063c6be9b22146102c1578063d4a07d34146102f3578063e4af6e79146102fb57600080fd5b806375d0c0dc146101de5780637ac46fbb146101f357806386c6be3e14610253578063a0a8e460146102a657600080fd5b806312466b68116100d357806312466b68146101765780631c7f4c7314610196578063511ce7981461019e5780636707acee146101be57600080fd5b806301ffc9a71461010557806306a462391461012d57806309946538146101455780630e3e80ac1461015a575b600080fd5b6101186101133660046110d9565b610303565b60405190151581526020015b60405180910390f35b640312e302e360dc1b5b604051908152602001610124565b6101586101533660046111f3565b610334565b005b72417572615661756c74476f7665726e616e636560681b610137565b610189610184366004611264565b610526565b604051610124919061131d565b600654610137565b6101376101ac366004611264565b6000908152600c602052604090205490565b6101376101cc366004611264565b60009081526009602052604090205490565b6101e661068f565b6040516101249190611494565b610246604080516060810182526000808252602082018190529181019190915250604080516060810182526000546001600160a01b03908116825260015481166020830152600254169181019190915290565b60405161012491906114a7565b610246604080516060810182526000808252602082018190529181019190915250604080516060810182526003546001600160a01b03908116825260045481166020830152600554169181019190915290565b6101e66106b0565b6101586102bc3660046114d7565b6106c3565b6102d46102cf366004611557565b610822565b604080516001600160a01b039093168352602083019190915201610124565b61015861092e565b600f54610137565b600061030e82610a58565b80610329575063124ade4160e01b6001600160e01b03198316145b92915050565b905090565b61033c610a8e565b805160408051808201909152600281526120ad60f11b6020820152906001600160a01b03166103875760405162461bcd60e51b815260040161037e9190611494565b60405180910390fd5b5060006001600160a01b031681602001516001600160a01b031614156040518060400160405280600281526020016120ad60f11b815250906103dc5760405162461bcd60e51b815260040161037e9190611494565b506040808201518151808301909252600282526120ad60f11b60208301526001600160a01b03166104205760405162461bcd60e51b815260040161037e9190611494565b508051600380546001600160a01b03199081166001600160a01b03938416179091556020808401516004805484169185169190911781556040808601516005805490951690861617909355600054835163bba3293960e01b8152935194169363bba3293993808301939290829003018186803b15801561049f57600080fd5b505afa1580156104b3573d6000803e3d6000fd5b505050506040513d601f19601f820116820180604052508101906104d79190611648565b6104e19042611677565b6006819055604051339132917f0887cab3184f7c02b16978ab31f8acee05979f59fc3da6abe5bf71105ec3179d9161051b9186919061168f565b60405180910390a350565b6040805160208101909152606081526000828152601060205260409020805461054e906116cc565b151590506105e55760408051600060208201818152828401909352909182916105dc565b6105c96040805160c081018252606080825260208083018290528351608081018552600080825291810182905280850182905291820152909182019081526000602082018190526040820181905260609091015290565b8152602001906001900390816105725790505b50905292915050565b600082815260106020526040902080546105fe906116cc565b80601f016020809104026020016040519081016040528092919081815260200182805461062a906116cc565b80156106775780601f1061064c57610100808354040283529160200191610677565b820191906000526020600020905b81548152906001019060200180831161065a57829003601f168201915b50505050508060200190518101906103299190611945565b606061032f72417572615661756c74476f7665726e616e636560681b610b46565b606061032f640312e302e360dc1b610b46565b60005b6106d08280611ab9565b90508110156107a85760006106e58380611ab9565b838181106106f5576106f5611b09565b90506020028101906107079190611b1f565b61071090611d29565b8051519091501580159061072957506001816020015151115b8015610741575060608101516001600160a01b031615155b8015610759575060808101516001600160a01b031615155b6040518060400160405280600381526020016224a72b60e91b815250906107935760405162461bcd60e51b815260040161037e9190611494565b505080806107a090611dd5565b9150506106c6565b506107d282826040516020016107be9190611efe565b604051602081830303815290604052610bb2565b81336001600160a01b0316326001600160a01b03167f94f3d827462ad5de97309cf1011d0c937d5371d872911d4860a45a0a433d60de846040516108169190611efe565b60405180910390a45050565b600080600061083088610bdf565b6040516369e99c5760e11b815291945092508391506001600160a01b0382169063d3d338ae9061086e9085908d908c908c908c908c906004016120e0565b600060405180830381600087803b15801561088857600080fd5b505af115801561089c573d6000803e3d6000fd5b5050604080516001600160a01b038b811660208301528a811692820192909252888216606082015290871660808201523392503291507f8a4513c05d15df8ece912856923273e166e39f5c9c2b43d2b38594023494a0e0908c9060a00160408051601f198184030181529082905261091a92918e9088908a9061212c565b60405180910390a350965096945050505050565b610936610a8e565b6006546040805180820190915260048152631395531360e21b6020820152906109725760405162461bcd60e51b815260040161037e9190611494565b5060065442101560405180604001604052806002815260200161545360f01b815250906109b25760405162461bcd60e51b815260040161037e9190611494565b5060038054600080546001600160a01b038084166001600160a01b03199283168117845560048054600180548286169087168117909155600580546002805497821697891688179055600698909855978616909855841690559290911690925560408051918252602082019390935291820152339032907fef3e4bc9725fa684957d7de03c6dcd01078ee86cf78ceef25c5f8346df69cc999060600160405180910390a3565b60006301ffc9a760e01b6001600160e01b03198316148061032957506001600160e01b0319821663effda0f560e01b1492915050565b600054604051630935e01b60e21b81523360048201526001600160a01b03909116906324d7806c9060240160206040518083038186803b158015610ad157600080fd5b505afa158015610ae5573d6000803e3d6000fd5b505050506040513d601f19601f82011682018060405250810190610b099190612176565b6040518060400160405280600381526020016223292160e91b81525090610b435760405162461bcd60e51b815260040161037e9190611494565b50565b604080516020808252818301909252606091602082018180368337019050509050602060005b6020811015610ba457838160208110610b8757610b87611b09565b1a610b9457809150610ba4565b610b9d81611dd5565b9050610b6c565b508152602081019190915290565b610bbb82610dd0565b60008281526010602090815260409091208251610bda92840190611040565b505050565b600080546040516363e85d2d60e01b81523360048201526001602482015282916001600160a01b03169081906363e85d2d9060440160206040518083038186803b158015610c2c57600080fd5b505afa158015610c40573d6000803e3d6000fd5b505050506040513d601f19601f82011682018060405250810190610c649190612176565b6040518060400160405280600381526020016223292160e91b81525090610c9e5760405162461bcd60e51b815260040161037e9190611494565b5060015460408051631112eee760e31b815290516001600160a01b039092169182916388977738916004808301926020929190829003018186803b158015610ce557600080fd5b505afa158015610cf9573d6000803e3d6000fd5b505050506040513d601f19601f82011682018060405250810190610d1d9190611648565b610d28906001611677565b600254909350610d41906001600160a01b031684610fa3565b6040516305c4fdf960e01b81526001600160a01b0380831660048301528781166024830152919550908216906305c4fdf990604401602060405180830381600087803b158015610d9057600080fd5b505af1158015610da4573d6000803e3d6000fd5b505050506040513d601f19601f82011682018060405250810190610dc89190611648565b505050915091565b600054604051630935e01b60e21b81523360048201526001600160a01b03909116906324d7806c9060240160206040518083038186803b158015610e1357600080fd5b505afa158015610e27573d6000803e3d6000fd5b505050506040513d601f19601f82011682018060405250810190610e4b9190612176565b80610ed8575060015460405163020604bf60e21b81526004810183905233916001600160a01b03169063081812fc9060240160206040518083038186803b158015610e9557600080fd5b505afa158015610ea9573d6000803e3d6000fd5b505050506040513d601f19601f82011682018060405250810190610ecd9190612193565b6001600160a01b0316145b80610f6557506001546040516331a9108f60e11b81526004810183905233916001600160a01b031690636352211e9060240160206040518083038186803b158015610f2257600080fd5b505afa158015610f36573d6000803e3d6000fd5b505050506040513d601f19601f82011682018060405250810190610f5a9190612193565b6001600160a01b0316145b6040518060400160405280600381526020016223292160e91b81525090610f9f5760405162461bcd60e51b815260040161037e9190611494565b5050565b6000763d602d80600a3d3981f3363d3d373d3d3d363d730000008360601b60e81c176000526e5af43d82803e903d91602b57fd5bf38360781b1760205281603760096000f590506001600160a01b0381166103295760405162461bcd60e51b815260206004820152601760248201527f455243313136373a2063726561746532206661696c6564000000000000000000604482015260640161037e565b82805461104c906116cc565b90600052602060002090601f01602090048101928261106e57600085556110b4565b82601f1061108757805160ff19168380011785556110b4565b828001600101855582156110b4579182015b828111156110b4578251825591602001919060010190611099565b506110c09291506110c4565b5090565b5b808211156110c057600081556001016110c5565b6000602082840312156110eb57600080fd5b81356001600160e01b03198116811461110357600080fd5b9392505050565b634e487b7160e01b600052604160045260246000fd5b60405160a081016001600160401b03811182821017156111425761114261110a565b60405290565b604051608081016001600160401b03811182821017156111425761114261110a565b604051602081016001600160401b03811182821017156111425761114261110a565b60405160c081016001600160401b03811182821017156111425761114261110a565b604051601f8201601f191681016001600160401b03811182821017156111d6576111d661110a565b604052919050565b6001600160a01b0381168114610b4357600080fd5b60006060828403121561120557600080fd5b604051606081018181106001600160401b03821117156112275761122761110a565b6040528235611235816111de565b81526020830135611245816111de565b60208201526040830135611258816111de565b60408201529392505050565b60006020828403121561127657600080fd5b5035919050565b60005b83811015611298578181015183820152602001611280565b838111156112a7576000848401525b50505050565b600081518084526112c581602086016020860161127d565b601f01601f19169290920160200192915050565b600081518084526020808501945080840160005b838110156113125781516001600160a01b0316875295820195908201906001016112ed565b509495945050505050565b60006020808352604080840185518384870152818151808452606093508388019150838160051b890101868401935060005b8281101561148657898203605f1901845284518051610120808552815190850181905261014080860192600583901b870190910191908c019060005b818110156113e95787840361013f190185528251805185528e8101518f8601528d8101518e8601528c8101518d86015260809081015160a0918601829052906113d6908601826112ad565b958f0195945050918d019160010161138b565b5050508a83015191508481038b86015261140381836112d9565b915050888201516114468a86018280516001600160a01b039081168352602080830151151590840152604080830151909116908301526060908101511515910152565b50878201516001600160a01b0390811660c086015260808301511660e085015260a09091015161010090930192909252938701939287019260010161134f565b509998505050505050505050565b60208152600061110360208301846112ad565b60608101610329828480516001600160a01b03908116835260208083015182169084015260409182015116910152565b600080604083850312156114ea57600080fd5b8235915060208301356001600160401b0381111561150757600080fd5b83016020818603121561151957600080fd5b809150509250929050565b60006001600160401b0382111561153d5761153d61110a565b5060051b60200190565b8035611552816111de565b919050565b60008060008060008060c0878903121561157057600080fd5b86356001600160401b0381111561158657600080fd5b8701601f8101891361159757600080fd5b803560206115ac6115a783611524565b6111ae565b82815260059290921b8301810191818101908c8411156115cb57600080fd5b938201935b838510156115f25784356115e3816111de565b825293820193908201906115d0565b995061160190508a8201611547565b975050505061161260408801611547565b935061162060608801611547565b925061162e60808801611547565b915061163c60a08801611547565b90509295509295509295565b60006020828403121561165a57600080fd5b5051919050565b634e487b7160e01b600052601160045260246000fd5b6000821982111561168a5761168a611661565b500190565b608081016116bf828580516001600160a01b03908116835260208083015182169084015260409182015116910152565b8260608301529392505050565b600181811c908216806116e057607f821691505b6020821081141561170157634e487b7160e01b600052602260045260246000fd5b50919050565b60006001600160401b038211156117205761172061110a565b50601f01601f191660200190565b600082601f83011261173f57600080fd5b8151602061174f6115a783611524565b82815260059290921b8401810191818101908684111561176e57600080fd5b8286015b848110156118555780516001600160401b03808211156117925760008081fd5b9088019060a0828b03601f19018113156117ac5760008081fd5b6117b4611120565b838801518152604080850151828a015260608086015182840152608080870151828501529386015193858511156117ed57600091508182fd5b84870196508e603f88011261180457600095508586fd5b8a87015195506118166115a787611707565b94508585528e8387890101111561182f57600091508182fd5b61183e868c8701858a0161127d565b830193909352508652505050918301918301611772565b509695505050505050565b600082601f83011261187157600080fd5b815160206118816115a783611524565b82815260059290921b840181019181810190868411156118a057600080fd5b8286015b848110156118555780516118b7816111de565b83529183019183016118a4565b8015158114610b4357600080fd5b6000608082840312156118e457600080fd5b6118ec611148565b905081516118f9816111de565b81526020820151611909816118c4565b6020820152604082015161191c816111de565b6040820152606082015161192f816118c4565b606082015292915050565b8051611552816111de565b6000602080838503121561195857600080fd5b82516001600160401b038082111561196f57600080fd5b818501915082828703121561198357600080fd5b61198b61116a565b82518281111561199a57600080fd5b80840193505086601f8401126119af57600080fd5b82516119bd6115a782611524565b81815260059190911b840185019085810190898311156119dc57600080fd5b8686015b83811015611aa9578051868111156119f757600080fd5b8701610120818d03601f1901811315611a0f57600080fd5b611a1761118c565b8a83015189811115611a2857600080fd5b611a368f8d8387010161172e565b825250604083015189811115611a4c5760008081fd5b611a5a8f8d83870101611860565b8c830152506060611a6d8f8286016118d2565b6040830152611a7e60e0850161193a565b90820152611a8f610100840161193a565b608082015291015160a082015283529187019187016119e0565b5083525090979650505050505050565b6000808335601e19843603018112611ad057600080fd5b8301803591506001600160401b03821115611aea57600080fd5b6020019150600581901b3603821315611b0257600080fd5b9250929050565b634e487b7160e01b600052603260045260246000fd5b6000823561011e19833603018112611b3657600080fd5b9190910192915050565b600082601f830112611b5157600080fd5b81356020611b616115a783611524565b82815260059290921b84018101918181019086841115611b8057600080fd5b8286015b848110156118555780356001600160401b0380821115611ba45760008081fd5b9088019060a0828b03601f1901811315611bbe5760008081fd5b611bc6611120565b838801358152604080850135828a01526060808601358284015260808087013582850152938601359385851115611bff57600091508182fd5b84870196508e603f880112611c1657600095508586fd5b8a8701359550611c286115a787611707565b94508585528e83878901011115611c4157600091508182fd5b858388018c87013760009585018b0195909552505091820152845250918301918301611b84565b600082601f830112611c7957600080fd5b81356020611c896115a783611524565b82815260059290921b84018101918181019086841115611ca857600080fd5b8286015b84811015611855578035611cbf816111de565b8352918301918301611cac565b600060808284031215611cde57600080fd5b611ce6611148565b90508135611cf3816111de565b81526020820135611d03816118c4565b60208201526040820135611d16816111de565b6040820152606082013561192f816118c4565b60006101208236031215611d3c57600080fd5b611d4461118c565b82356001600160401b0380821115611d5b57600080fd5b611d6736838701611b40565b83526020850135915080821115611d7d57600080fd5b50611d8a36828601611c68565b602083015250611d9d3660408501611ccc565b6040820152611dae60c08401611547565b6060820152611dbf60e08401611547565b6080820152610100929092013560a08301525090565b6000600019821415611de957611de9611661565b5060010190565b6000808335601e19843603018112611e0757600080fd5b83016020810192503590506001600160401b03811115611e2657600080fd5b8060051b3603831315611b0257600080fd5b81835281816020850137506000828201602090810191909152601f909101601f19169091010190565b8183526000602080850194508260005b85811015611312578135611e84816111de565b6001600160a01b031687529582019590820190600101611e71565b8035611eaa816111de565b6001600160a01b039081168352602082013590611ec6826118c4565b9015156020840152604082013590611edd826111de565b1660408301526060810135611ef1816118c4565b8015156060840152505050565b602081526000611f0e8384611df0565b6020808501526040840181815260608501905060608260051b8601018360005b848110156120d357878303605f190184523686900361011e1901823512611f5457600080fd5b85823501611f628182611df0565b61012086526101208601818152610140870190506101408260051b8801018360005b848110156120455789830361013f1901845236869003609e1901823512611faa57600080fd5b85823501803584526020810135602085015260408101356040850152606081013560608501526080810135601e19823603018112611fe757600080fd5b6001600160401b03828201351115611ffe57600080fd5b81810135360382131561201057600080fd5b60a0608086015261202d60a0860183830135602085850101611e38565b60209687019690955093909301925050600101611f84565b50506120546020860186611df0565b94509250878103602089015261206b818585611e61565b93505050506120806040860160408401611e9f565b61208c60c08301611547565b6001600160a01b031660c08601526120a660e08301611547565b6001600160a01b031660e08601526101009182013591909401526020938401939190910190600101611f2e565b5090979650505050505050565b86815260c0602082015260006120f960c08301886112d9565b6001600160a01b039687166040840152948616606083015250918416608083015290921660a09092019190915292915050565b60a08152600061213f60a08301886112d9565b828103602084015261215181886112ad565b6001600160a01b03968716604085015294909516606083015250608001529392505050565b60006020828403121561218857600080fd5b8151611103816118c4565b6000602082840312156121a557600080fd5b8151611103816111de56fea2646970667358221220d0024916fd091132cff4e3db25ea78f96dc7d0dc2a70e82342f8e899cd4f429e64736f6c63430008090033",
    "linkReferences": {}
  },
  "methodIdentifiers": {
    "commitInternalParams()": "d4a07d34",
    "contractName()": "75d0c0dc",
    "contractNameBytes()": "0e3e80ac",
    "contractVersion()": "a0a8e460",
    "contractVersionBytes()": "06a46239",
    "createVault(address[],address,address,address,address,address)": "c6be9b22",
    "delayedProtocolParamsTimestamp()": "e4af6e79",
    "delayedProtocolPerVaultParamsTimestamp(uint256)": "511ce798",
    "delayedStrategyParamsTimestamp(uint256)": "6707acee",
    "internalParams()": "7ac46fbb",
    "internalParamsTimestamp()": "1c7f4c73",
    "setStrategyParams(uint256,(((bytes32,uint256,uint256,uint256,bytes)[],address[],(address,bool,address,bool),address,address,uint256)[]))": "c6b22e0b",
    "stageInternalParams((address,address,address))": "09946538",
    "stagedInternalParams()": "86c6be3e",
    "strategyParams(uint256)": "12466b68",
    "supportsInterface(bytes4)": "01ffc9a7"
  },
  "id": 449
}