{
  "abi": [
    {
      "inputs": [
        {
          "internalType": "contract INonfungiblePositionManager",
          "name": "positionManager_",
          "type": "address"
        },
        {
          "internalType": "address",
          "name": "cowswapSettlement_",
          "type": "address"
        },
        {
          "internalType": "address",
          "name": "cowswapVaultRelayer_",
          "type": "address"
        },
        {
          "internalType": "contract IERC20Vault",
          "name": "erc20vault_",
          "type": "address"
        },
        {
          "internalType": "contract IUniV3Vault",
          "name": "vault1_",
          "type": "address"
        },
        {
          "internalType": "contract IUniV3Vault",
          "name": "vault2_",
          "type": "address"
        },
        {
          "internalType": "contract ILStrategyHelper",
          "name": "orderHelper_",
          "type": "address"
        },
        {
          "internalType": "address",
          "name": "admin_",
          "type": "address"
        },
        {
          "internalType": "uint16",
          "name": "intervalWidthInTicks_",
          "type": "uint16"
        }
      ],
      "stateMutability": "nonpayable",
      "type": "constructor"
    },
    {
      "anonymous": false,
      "inputs": [
        {
          "indexed": true,
          "internalType": "address",
          "name": "origin",
          "type": "address"
        },
        {
          "indexed": true,
          "internalType": "address",
          "name": "sender",
          "type": "address"
        }
      ],
      "name": "CowswapAllowanceReset",
      "type": "event"
    },
    {
      "anonymous": false,
      "inputs": [
        {
          "indexed": true,
          "internalType": "address",
          "name": "origin",
          "type": "address"
        },
        {
          "indexed": true,
          "internalType": "address",
          "name": "sender",
          "type": "address"
        },
        {
          "indexed": false,
          "internalType": "uint256[]",
          "name": "collectedEarnings",
          "type": "uint256[]"
        }
      ],
      "name": "FeesCollected",
      "type": "event"
    },
    {
      "anonymous": false,
      "inputs": [
        {
          "indexed": true,
          "internalType": "address",
          "name": "origin",
          "type": "address"
        },
        {
          "indexed": true,
          "internalType": "address",
          "name": "sender",
          "type": "address"
        },
        {
          "indexed": false,
          "internalType": "uint256[]",
          "name": "tokenAmounts",
          "type": "uint256[]"
        },
        {
          "indexed": false,
          "internalType": "uint256[]",
          "name": "actualTokenAmounts",
          "type": "uint256[]"
        }
      ],
      "name": "ManualPull",
      "type": "event"
    },
    {
      "anonymous": false,
      "inputs": [
        {
          "indexed": true,
          "internalType": "address",
          "name": "origin",
          "type": "address"
        },
        {
          "indexed": true,
          "internalType": "address",
          "name": "sender",
          "type": "address"
        },
        {
          "indexed": false,
          "internalType": "bytes",
          "name": "uuid",
          "type": "bytes"
        },
        {
          "components": [
            {
              "internalType": "contract IERC20",
              "name": "sellToken",
              "type": "address"
            },
            {
              "internalType": "contract IERC20",
              "name": "buyToken",
              "type": "address"
            },
            {
              "internalType": "address",
              "name": "receiver",
              "type": "address"
            },
            {
              "internalType": "uint256",
              "name": "sellAmount",
              "type": "uint256"
            },
            {
              "internalType": "uint256",
              "name": "buyAmount",
              "type": "uint256"
            },
            {
              "internalType": "uint32",
              "name": "validTo",
              "type": "uint32"
            },
            {
              "internalType": "bytes32",
              "name": "appData",
              "type": "bytes32"
            },
            {
              "internalType": "uint256",
              "name": "feeAmount",
              "type": "uint256"
            },
            {
              "internalType": "bytes32",
              "name": "kind",
              "type": "bytes32"
            },
            {
              "internalType": "bool",
              "name": "partiallyFillable",
              "type": "bool"
            },
            {
              "internalType": "bytes32",
              "name": "sellTokenBalance",
              "type": "bytes32"
            },
            {
              "internalType": "bytes32",
              "name": "buyTokenBalance",
              "type": "bytes32"
            }
          ],
          "indexed": false,
          "internalType": "struct GPv2Order.Data",
          "name": "order",
          "type": "tuple"
        },
        {
          "components": [
            {
              "internalType": "address",
              "name": "tokenIn",
              "type": "address"
            },
            {
              "internalType": "address",
              "name": "tokenOut",
              "type": "address"
            },
            {
              "internalType": "uint64",
              "name": "deadline",
              "type": "uint64"
            },
            {
              "internalType": "uint256",
              "name": "amountIn",
              "type": "uint256"
            },
            {
              "internalType": "uint256",
              "name": "minAmountOut",
              "type": "uint256"
            }
          ],
          "indexed": false,
          "internalType": "struct LStrategy.PreOrder",
          "name": "preOrder",
          "type": "tuple"
        },
        {
          "indexed": false,
          "internalType": "bool",
          "name": "signed",
          "type": "bool"
        }
      ],
      "name": "OrderSigned",
      "type": "event"
    },
    {
      "anonymous": false,
      "inputs": [
        {
          "indexed": true,
          "internalType": "address",
          "name": "origin",
          "type": "address"
        },
        {
          "indexed": true,
          "internalType": "address",
          "name": "sender",
          "type": "address"
        },
        {
          "components": [
            {
              "internalType": "uint256",
              "name": "minToken0ForOpening",
              "type": "uint256"
            },
            {
              "internalType": "uint256",
              "name": "minToken1ForOpening",
              "type": "uint256"
            },
            {
              "internalType": "uint256",
              "name": "secondsBetweenRebalances",
              "type": "uint256"
            }
          ],
          "indexed": false,
          "internalType": "struct LStrategy.OtherParams",
          "name": "otherParams",
          "type": "tuple"
        }
      ],
      "name": "OtherParamsUpdated",
      "type": "event"
    },
    {
      "anonymous": false,
      "inputs": [
        {
          "indexed": true,
          "internalType": "address",
          "name": "origin",
          "type": "address"
        },
        {
          "indexed": true,
          "internalType": "address",
          "name": "sender",
          "type": "address"
        },
        {
          "components": [
            {
              "internalType": "address",
              "name": "tokenIn",
              "type": "address"
            },
            {
              "internalType": "address",
              "name": "tokenOut",
              "type": "address"
            },
            {
              "internalType": "uint64",
              "name": "deadline",
              "type": "uint64"
            },
            {
              "internalType": "uint256",
              "name": "amountIn",
              "type": "uint256"
            },
            {
              "internalType": "uint256",
              "name": "minAmountOut",
              "type": "uint256"
            }
          ],
          "indexed": false,
          "internalType": "struct LStrategy.PreOrder",
          "name": "preOrder",
          "type": "tuple"
        }
      ],
      "name": "PreOrderPosted",
      "type": "event"
    },
    {
      "anonymous": false,
      "inputs": [
        {
          "indexed": true,
          "internalType": "address",
          "name": "origin",
          "type": "address"
        },
        {
          "indexed": true,
          "internalType": "address",
          "name": "sender",
          "type": "address"
        },
        {
          "components": [
            {
              "internalType": "uint32",
              "name": "erc20UniV3CapitalRatioD",
              "type": "uint32"
            },
            {
              "internalType": "uint32",
              "name": "erc20TokenRatioD",
              "type": "uint32"
            },
            {
              "internalType": "uint32",
              "name": "minErc20UniV3CapitalRatioDeviationD",
              "type": "uint32"
            },
            {
              "internalType": "uint32",
              "name": "minErc20TokenRatioDeviationD",
              "type": "uint32"
            },
            {
              "internalType": "uint32",
              "name": "minUniV3LiquidityRatioDeviationD",
              "type": "uint32"
            }
          ],
          "indexed": false,
          "internalType": "struct LStrategy.RatioParams",
          "name": "ratioParams",
          "type": "tuple"
        }
      ],
      "name": "RatioParamsUpdated",
      "type": "event"
    },
    {
      "anonymous": false,
      "inputs": [
        {
          "indexed": true,
          "internalType": "address",
          "name": "origin",
          "type": "address"
        },
        {
          "indexed": true,
          "internalType": "address",
          "name": "sender",
          "type": "address"
        },
        {
          "indexed": false,
          "internalType": "bool",
          "name": "fromErc20",
          "type": "bool"
        },
        {
          "indexed": false,
          "internalType": "uint256[]",
          "name": "pulledAmounts",
          "type": "uint256[]"
        }
      ],
      "name": "RebalancedErc20UniV3",
      "type": "event"
    },
    {
      "anonymous": false,
      "inputs": [
        {
          "indexed": true,
          "internalType": "address",
          "name": "origin",
          "type": "address"
        },
        {
          "indexed": true,
          "internalType": "address",
          "name": "sender",
          "type": "address"
        },
        {
          "indexed": false,
          "internalType": "address",
          "name": "fromVault",
          "type": "address"
        },
        {
          "indexed": false,
          "internalType": "address",
          "name": "toVault",
          "type": "address"
        },
        {
          "indexed": false,
          "internalType": "uint256[]",
          "name": "pulledAmounts",
          "type": "uint256[]"
        },
        {
          "indexed": false,
          "internalType": "uint256[]",
          "name": "pushedAmounts",
          "type": "uint256[]"
        },
        {
          "indexed": false,
          "internalType": "uint128",
          "name": "desiredLiquidity",
          "type": "uint128"
        },
        {
          "indexed": false,
          "internalType": "uint128",
          "name": "liquidity",
          "type": "uint128"
        }
      ],
      "name": "RebalancedUniV3",
      "type": "event"
    },
    {
      "anonymous": false,
      "inputs": [
        {
          "indexed": true,
          "internalType": "bytes32",
          "name": "role",
          "type": "bytes32"
        },
        {
          "indexed": true,
          "internalType": "bytes32",
          "name": "previousAdminRole",
          "type": "bytes32"
        },
        {
          "indexed": true,
          "internalType": "bytes32",
          "name": "newAdminRole",
          "type": "bytes32"
        }
      ],
      "name": "RoleAdminChanged",
      "type": "event"
    },
    {
      "anonymous": false,
      "inputs": [
        {
          "indexed": true,
          "internalType": "bytes32",
          "name": "role",
          "type": "bytes32"
        },
        {
          "indexed": true,
          "internalType": "address",
          "name": "account",
          "type": "address"
        },
        {
          "indexed": true,
          "internalType": "address",
          "name": "sender",
          "type": "address"
        }
      ],
      "name": "RoleGranted",
      "type": "event"
    },
    {
      "anonymous": false,
      "inputs": [
        {
          "indexed": true,
          "internalType": "bytes32",
          "name": "role",
          "type": "bytes32"
        },
        {
          "indexed": true,
          "internalType": "address",
          "name": "account",
          "type": "address"
        },
        {
          "indexed": true,
          "internalType": "address",
          "name": "sender",
          "type": "address"
        }
      ],
      "name": "RoleRevoked",
      "type": "event"
    },
    {
      "anonymous": false,
      "inputs": [
        {
          "indexed": false,
          "internalType": "uint256",
          "name": "oldNft",
          "type": "uint256"
        },
        {
          "indexed": false,
          "internalType": "uint256",
          "name": "newNft",
          "type": "uint256"
        },
        {
          "indexed": false,
          "internalType": "int24",
          "name": "newTickLower",
          "type": "int24"
        },
        {
          "indexed": false,
          "internalType": "int24",
          "name": "newTickUpper",
          "type": "int24"
        }
      ],
      "name": "SwapVault",
      "type": "event"
    },
    {
      "anonymous": false,
      "inputs": [
        {
          "indexed": true,
          "internalType": "address",
          "name": "origin",
          "type": "address"
        },
        {
          "indexed": true,
          "internalType": "address",
          "name": "sender",
          "type": "address"
        },
        {
          "components": [
            {
              "internalType": "contract IOracle",
              "name": "oracle",
              "type": "address"
            },
            {
              "internalType": "uint32",
              "name": "maxSlippageD",
              "type": "uint32"
            },
            {
              "internalType": "uint32",
              "name": "orderDeadline",
              "type": "uint32"
            },
            {
              "internalType": "uint256",
              "name": "oracleSafetyMask",
              "type": "uint256"
            },
            {
              "internalType": "uint256",
              "name": "maxFee0",
              "type": "uint256"
            },
            {
              "internalType": "uint256",
              "name": "maxFee1",
              "type": "uint256"
            }
          ],
          "indexed": false,
          "internalType": "struct LStrategy.TradingParams",
          "name": "tradingParams",
          "type": "tuple"
        }
      ],
      "name": "TradingParamsUpdated",
      "type": "event"
    },
    {
      "inputs": [],
      "name": "ADMIN_DELEGATE_ROLE",
      "outputs": [
        {
          "internalType": "bytes32",
          "name": "",
          "type": "bytes32"
        }
      ],
      "stateMutability": "view",
      "type": "function"
    },
    {
      "inputs": [],
      "name": "ADMIN_ROLE",
      "outputs": [
        {
          "internalType": "bytes32",
          "name": "",
          "type": "bytes32"
        }
      ],
      "stateMutability": "view",
      "type": "function"
    },
    {
      "inputs": [],
      "name": "APPROVE_SELECTOR",
      "outputs": [
        {
          "internalType": "bytes4",
          "name": "",
          "type": "bytes4"
        }
      ],
      "stateMutability": "view",
      "type": "function"
    },
    {
      "inputs": [],
      "name": "DEFAULT_ADMIN_ROLE",
      "outputs": [
        {
          "internalType": "bytes32",
          "name": "",
          "type": "bytes32"
        }
      ],
      "stateMutability": "view",
      "type": "function"
    },
    {
      "inputs": [],
      "name": "DENOMINATOR",
      "outputs": [
        {
          "internalType": "uint256",
          "name": "",
          "type": "uint256"
        }
      ],
      "stateMutability": "view",
      "type": "function"
    },
    {
      "inputs": [],
      "name": "OPERATOR",
      "outputs": [
        {
          "internalType": "bytes32",
          "name": "",
          "type": "bytes32"
        }
      ],
      "stateMutability": "view",
      "type": "function"
    },
    {
      "inputs": [],
      "name": "SET_PRESIGNATURE_SELECTOR",
      "outputs": [
        {
          "internalType": "bytes4",
          "name": "",
          "type": "bytes4"
        }
      ],
      "stateMutability": "view",
      "type": "function"
    },
    {
      "inputs": [],
      "name": "collectUniFees",
      "outputs": [
        {
          "internalType": "uint256[]",
          "name": "totalCollectedEarnings",
          "type": "uint256[]"
        }
      ],
      "stateMutability": "nonpayable",
      "type": "function"
    },
    {
      "inputs": [],
      "name": "cowswapSettlement",
      "outputs": [
        {
          "internalType": "address",
          "name": "",
          "type": "address"
        }
      ],
      "stateMutability": "view",
      "type": "function"
    },
    {
      "inputs": [],
      "name": "cowswapVaultRelayer",
      "outputs": [
        {
          "internalType": "address",
          "name": "",
          "type": "address"
        }
      ],
      "stateMutability": "view",
      "type": "function"
    },
    {
      "inputs": [],
      "name": "erc20Vault",
      "outputs": [
        {
          "internalType": "contract IERC20Vault",
          "name": "",
          "type": "address"
        }
      ],
      "stateMutability": "view",
      "type": "function"
    },
    {
      "inputs": [
        {
          "internalType": "bytes32",
          "name": "role",
          "type": "bytes32"
        }
      ],
      "name": "getRoleAdmin",
      "outputs": [
        {
          "internalType": "bytes32",
          "name": "",
          "type": "bytes32"
        }
      ],
      "stateMutability": "view",
      "type": "function"
    },
    {
      "inputs": [
        {
          "internalType": "bytes32",
          "name": "role",
          "type": "bytes32"
        },
        {
          "internalType": "uint256",
          "name": "index",
          "type": "uint256"
        }
      ],
      "name": "getRoleMember",
      "outputs": [
        {
          "internalType": "address",
          "name": "",
          "type": "address"
        }
      ],
      "stateMutability": "view",
      "type": "function"
    },
    {
      "inputs": [
        {
          "internalType": "bytes32",
          "name": "role",
          "type": "bytes32"
        }
      ],
      "name": "getRoleMemberCount",
      "outputs": [
        {
          "internalType": "uint256",
          "name": "",
          "type": "uint256"
        }
      ],
      "stateMutability": "view",
      "type": "function"
    },
    {
      "inputs": [
        {
          "internalType": "address",
          "name": "token0",
          "type": "address"
        },
        {
          "internalType": "address",
          "name": "token1",
          "type": "address"
        },
        {
          "components": [
            {
              "internalType": "contract IOracle",
              "name": "oracle",
              "type": "address"
            },
            {
              "internalType": "uint32",
              "name": "maxSlippageD",
              "type": "uint32"
            },
            {
              "internalType": "uint32",
              "name": "orderDeadline",
              "type": "uint32"
            },
            {
              "internalType": "uint256",
              "name": "oracleSafetyMask",
              "type": "uint256"
            },
            {
              "internalType": "uint256",
              "name": "maxFee0",
              "type": "uint256"
            },
            {
              "internalType": "uint256",
              "name": "maxFee1",
              "type": "uint256"
            }
          ],
          "internalType": "struct LStrategy.TradingParams",
          "name": "tradingParams_",
          "type": "tuple"
        }
      ],
      "name": "getTargetPriceX96",
      "outputs": [
        {
          "internalType": "uint256",
          "name": "priceX96",
          "type": "uint256"
        }
      ],
      "stateMutability": "view",
      "type": "function"
    },
    {
      "inputs": [
        {
          "internalType": "bytes32",
          "name": "role",
          "type": "bytes32"
        },
        {
          "internalType": "address",
          "name": "account",
          "type": "address"
        }
      ],
      "name": "grantRole",
      "outputs": [],
      "stateMutability": "nonpayable",
      "type": "function"
    },
    {
      "inputs": [
        {
          "internalType": "bytes32",
          "name": "role",
          "type": "bytes32"
        },
        {
          "internalType": "address",
          "name": "account",
          "type": "address"
        }
      ],
      "name": "hasRole",
      "outputs": [
        {
          "internalType": "bool",
          "name": "",
          "type": "bool"
        }
      ],
      "stateMutability": "view",
      "type": "function"
    },
    {
      "inputs": [],
      "name": "intervalWidthInTicks",
      "outputs": [
        {
          "internalType": "uint16",
          "name": "",
          "type": "uint16"
        }
      ],
      "stateMutability": "view",
      "type": "function"
    },
    {
      "inputs": [
        {
          "internalType": "address",
          "name": "sender",
          "type": "address"
        }
      ],
      "name": "isAdmin",
      "outputs": [
        {
          "internalType": "bool",
          "name": "",
          "type": "bool"
        }
      ],
      "stateMutability": "view",
      "type": "function"
    },
    {
      "inputs": [
        {
          "internalType": "address",
          "name": "sender",
          "type": "address"
        }
      ],
      "name": "isOperator",
      "outputs": [
        {
          "internalType": "bool",
          "name": "",
          "type": "bool"
        }
      ],
      "stateMutability": "view",
      "type": "function"
    },
    {
      "inputs": [],
      "name": "lastRebalanceERC20UniV3VaultsTimestamp",
      "outputs": [
        {
          "internalType": "uint256",
          "name": "",
          "type": "uint256"
        }
      ],
      "stateMutability": "view",
      "type": "function"
    },
    {
      "inputs": [],
      "name": "lastRebalanceUniV3VaultsTimestamp",
      "outputs": [
        {
          "internalType": "uint256",
          "name": "",
          "type": "uint256"
        }
      ],
      "stateMutability": "view",
      "type": "function"
    },
    {
      "inputs": [],
      "name": "lowerVault",
      "outputs": [
        {
          "internalType": "contract IUniV3Vault",
          "name": "",
          "type": "address"
        }
      ],
      "stateMutability": "view",
      "type": "function"
    },
    {
      "inputs": [
        {
          "internalType": "contract IIntegrationVault",
          "name": "fromVault",
          "type": "address"
        },
        {
          "internalType": "contract IIntegrationVault",
          "name": "toVault",
          "type": "address"
        },
        {
          "internalType": "uint256[]",
          "name": "tokenAmounts",
          "type": "uint256[]"
        },
        {
          "internalType": "uint256[]",
          "name": "minTokensAmounts",
          "type": "uint256[]"
        },
        {
          "internalType": "uint256",
          "name": "deadline",
          "type": "uint256"
        }
      ],
      "name": "manualPull",
      "outputs": [
        {
          "internalType": "uint256[]",
          "name": "actualTokenAmounts",
          "type": "uint256[]"
        }
      ],
      "stateMutability": "nonpayable",
      "type": "function"
    },
    {
      "inputs": [],
      "name": "orderDeadline",
      "outputs": [
        {
          "internalType": "uint256",
          "name": "",
          "type": "uint256"
        }
      ],
      "stateMutability": "view",
      "type": "function"
    },
    {
      "inputs": [],
      "name": "orderHelper",
      "outputs": [
        {
          "internalType": "contract ILStrategyHelper",
          "name": "",
          "type": "address"
        }
      ],
      "stateMutability": "view",
      "type": "function"
    },
    {
      "inputs": [],
      "name": "otherParams",
      "outputs": [
        {
          "internalType": "uint256",
          "name": "minToken0ForOpening",
          "type": "uint256"
        },
        {
          "internalType": "uint256",
          "name": "minToken1ForOpening",
          "type": "uint256"
        },
        {
          "internalType": "uint256",
          "name": "secondsBetweenRebalances",
          "type": "uint256"
        }
      ],
      "stateMutability": "view",
      "type": "function"
    },
    {
      "inputs": [],
      "name": "poolFee",
      "outputs": [
        {
          "internalType": "uint24",
          "name": "",
          "type": "uint24"
        }
      ],
      "stateMutability": "view",
      "type": "function"
    },
    {
      "inputs": [],
      "name": "positionManager",
      "outputs": [
        {
          "internalType": "contract INonfungiblePositionManager",
          "name": "",
          "type": "address"
        }
      ],
      "stateMutability": "view",
      "type": "function"
    },
    {
      "inputs": [
        {
          "internalType": "uint256",
          "name": "minAmountOut",
          "type": "uint256"
        }
      ],
      "name": "postPreOrder",
      "outputs": [
        {
          "components": [
            {
              "internalType": "address",
              "name": "tokenIn",
              "type": "address"
            },
            {
              "internalType": "address",
              "name": "tokenOut",
              "type": "address"
            },
            {
              "internalType": "uint64",
              "name": "deadline",
              "type": "uint64"
            },
            {
              "internalType": "uint256",
              "name": "amountIn",
              "type": "uint256"
            },
            {
              "internalType": "uint256",
              "name": "minAmountOut",
              "type": "uint256"
            }
          ],
          "internalType": "struct LStrategy.PreOrder",
          "name": "preOrder_",
          "type": "tuple"
        }
      ],
      "stateMutability": "nonpayable",
      "type": "function"
    },
    {
      "inputs": [],
      "name": "preOrder",
      "outputs": [
        {
          "internalType": "address",
          "name": "tokenIn",
          "type": "address"
        },
        {
          "internalType": "address",
          "name": "tokenOut",
          "type": "address"
        },
        {
          "internalType": "uint64",
          "name": "deadline",
          "type": "uint64"
        },
        {
          "internalType": "uint256",
          "name": "amountIn",
          "type": "uint256"
        },
        {
          "internalType": "uint256",
          "name": "minAmountOut",
          "type": "uint256"
        }
      ],
      "stateMutability": "view",
      "type": "function"
    },
    {
      "inputs": [],
      "name": "ratioParams",
      "outputs": [
        {
          "internalType": "uint32",
          "name": "erc20UniV3CapitalRatioD",
          "type": "uint32"
        },
        {
          "internalType": "uint32",
          "name": "erc20TokenRatioD",
          "type": "uint32"
        },
        {
          "internalType": "uint32",
          "name": "minErc20UniV3CapitalRatioDeviationD",
          "type": "uint32"
        },
        {
          "internalType": "uint32",
          "name": "minErc20TokenRatioDeviationD",
          "type": "uint32"
        },
        {
          "internalType": "uint32",
          "name": "minUniV3LiquidityRatioDeviationD",
          "type": "uint32"
        }
      ],
      "stateMutability": "view",
      "type": "function"
    },
    {
      "inputs": [
        {
          "internalType": "uint256[]",
          "name": "minLowerVaultTokens",
          "type": "uint256[]"
        },
        {
          "internalType": "uint256[]",
          "name": "minUpperVaultTokens",
          "type": "uint256[]"
        },
        {
          "internalType": "uint256",
          "name": "deadline",
          "type": "uint256"
        }
      ],
      "name": "rebalanceERC20UniV3Vaults",
      "outputs": [
        {
          "internalType": "uint256[]",
          "name": "totalPulledAmounts",
          "type": "uint256[]"
        },
        {
          "internalType": "bool",
          "name": "isNegativeCapitalDelta",
          "type": "bool"
        },
        {
          "internalType": "uint256",
          "name": "percentageIncreaseD",
          "type": "uint256"
        }
      ],
      "stateMutability": "nonpayable",
      "type": "function"
    },
    {
      "inputs": [
        {
          "internalType": "uint256[]",
          "name": "minWithdrawTokens",
          "type": "uint256[]"
        },
        {
          "internalType": "uint256[]",
          "name": "minDepositTokens",
          "type": "uint256[]"
        },
        {
          "internalType": "uint256",
          "name": "deadline",
          "type": "uint256"
        }
      ],
      "name": "rebalanceUniV3Vaults",
      "outputs": [
        {
          "internalType": "uint256[]",
          "name": "pulledAmounts",
          "type": "uint256[]"
        },
        {
          "internalType": "uint256[]",
          "name": "pushedAmounts",
          "type": "uint256[]"
        },
        {
          "internalType": "uint128",
          "name": "depositLiquidity",
          "type": "uint128"
        },
        {
          "internalType": "uint128",
          "name": "withdrawLiquidity",
          "type": "uint128"
        },
        {
          "internalType": "bool",
          "name": "lowerToUpper",
          "type": "bool"
        }
      ],
      "stateMutability": "nonpayable",
      "type": "function"
    },
    {
      "inputs": [
        {
          "internalType": "bytes32",
          "name": "role",
          "type": "bytes32"
        },
        {
          "internalType": "address",
          "name": "account",
          "type": "address"
        }
      ],
      "name": "renounceRole",
      "outputs": [],
      "stateMutability": "nonpayable",
      "type": "function"
    },
    {
      "inputs": [
        {
          "internalType": "uint8",
          "name": "tokenNumber",
          "type": "uint8"
        }
      ],
      "name": "resetCowswapAllowance",
      "outputs": [],
      "stateMutability": "nonpayable",
      "type": "function"
    },
    {
      "inputs": [
        {
          "internalType": "bytes32",
          "name": "role",
          "type": "bytes32"
        },
        {
          "internalType": "address",
          "name": "account",
          "type": "address"
        }
      ],
      "name": "revokeRole",
      "outputs": [],
      "stateMutability": "nonpayable",
      "type": "function"
    },
    {
      "inputs": [
        {
          "components": [
            {
              "internalType": "contract IERC20",
              "name": "sellToken",
              "type": "address"
            },
            {
              "internalType": "contract IERC20",
              "name": "buyToken",
              "type": "address"
            },
            {
              "internalType": "address",
              "name": "receiver",
              "type": "address"
            },
            {
              "internalType": "uint256",
              "name": "sellAmount",
              "type": "uint256"
            },
            {
              "internalType": "uint256",
              "name": "buyAmount",
              "type": "uint256"
            },
            {
              "internalType": "uint32",
              "name": "validTo",
              "type": "uint32"
            },
            {
              "internalType": "bytes32",
              "name": "appData",
              "type": "bytes32"
            },
            {
              "internalType": "uint256",
              "name": "feeAmount",
              "type": "uint256"
            },
            {
              "internalType": "bytes32",
              "name": "kind",
              "type": "bytes32"
            },
            {
              "internalType": "bool",
              "name": "partiallyFillable",
              "type": "bool"
            },
            {
              "internalType": "bytes32",
              "name": "sellTokenBalance",
              "type": "bytes32"
            },
            {
              "internalType": "bytes32",
              "name": "buyTokenBalance",
              "type": "bytes32"
            }
          ],
          "internalType": "struct GPv2Order.Data",
          "name": "order",
          "type": "tuple"
        },
        {
          "internalType": "bytes",
          "name": "uuid",
          "type": "bytes"
        },
        {
          "internalType": "bool",
          "name": "signed",
          "type": "bool"
        }
      ],
      "name": "signOrder",
      "outputs": [],
      "stateMutability": "nonpayable",
      "type": "function"
    },
    {
      "inputs": [
        {
          "internalType": "bytes4",
          "name": "interfaceId",
          "type": "bytes4"
        }
      ],
      "name": "supportsInterface",
      "outputs": [
        {
          "internalType": "bool",
          "name": "",
          "type": "bool"
        }
      ],
      "stateMutability": "view",
      "type": "function"
    },
    {
      "inputs": [
        {
          "internalType": "int24",
          "name": "targetTick_",
          "type": "int24"
        }
      ],
      "name": "targetUniV3LiquidityRatio",
      "outputs": [
        {
          "internalType": "uint128",
          "name": "liquidityRatioD",
          "type": "uint128"
        },
        {
          "internalType": "bool",
          "name": "isNegative",
          "type": "bool"
        }
      ],
      "stateMutability": "view",
      "type": "function"
    },
    {
      "inputs": [
        {
          "internalType": "uint256",
          "name": "",
          "type": "uint256"
        }
      ],
      "name": "tokens",
      "outputs": [
        {
          "internalType": "address",
          "name": "",
          "type": "address"
        }
      ],
      "stateMutability": "view",
      "type": "function"
    },
    {
      "inputs": [],
      "name": "tradingParams",
      "outputs": [
        {
          "internalType": "contract IOracle",
          "name": "oracle",
          "type": "address"
        },
        {
          "internalType": "uint32",
          "name": "maxSlippageD",
          "type": "uint32"
        },
        {
          "internalType": "uint32",
          "name": "orderDeadline",
          "type": "uint32"
        },
        {
          "internalType": "uint256",
          "name": "oracleSafetyMask",
          "type": "uint256"
        },
        {
          "internalType": "uint256",
          "name": "maxFee0",
          "type": "uint256"
        },
        {
          "internalType": "uint256",
          "name": "maxFee1",
          "type": "uint256"
        }
      ],
      "stateMutability": "view",
      "type": "function"
    },
    {
      "inputs": [
        {
          "components": [
            {
              "internalType": "uint256",
              "name": "minToken0ForOpening",
              "type": "uint256"
            },
            {
              "internalType": "uint256",
              "name": "minToken1ForOpening",
              "type": "uint256"
            },
            {
              "internalType": "uint256",
              "name": "secondsBetweenRebalances",
              "type": "uint256"
            }
          ],
          "internalType": "struct LStrategy.OtherParams",
          "name": "newOtherParams",
          "type": "tuple"
        }
      ],
      "name": "updateOtherParams",
      "outputs": [],
      "stateMutability": "nonpayable",
      "type": "function"
    },
    {
      "inputs": [
        {
          "components": [
            {
              "internalType": "uint32",
              "name": "erc20UniV3CapitalRatioD",
              "type": "uint32"
            },
            {
              "internalType": "uint32",
              "name": "erc20TokenRatioD",
              "type": "uint32"
            },
            {
              "internalType": "uint32",
              "name": "minErc20UniV3CapitalRatioDeviationD",
              "type": "uint32"
            },
            {
              "internalType": "uint32",
              "name": "minErc20TokenRatioDeviationD",
              "type": "uint32"
            },
            {
              "internalType": "uint32",
              "name": "minUniV3LiquidityRatioDeviationD",
              "type": "uint32"
            }
          ],
          "internalType": "struct LStrategy.RatioParams",
          "name": "newRatioParams",
          "type": "tuple"
        }
      ],
      "name": "updateRatioParams",
      "outputs": [],
      "stateMutability": "nonpayable",
      "type": "function"
    },
    {
      "inputs": [
        {
          "components": [
            {
              "internalType": "contract IOracle",
              "name": "oracle",
              "type": "address"
            },
            {
              "internalType": "uint32",
              "name": "maxSlippageD",
              "type": "uint32"
            },
            {
              "internalType": "uint32",
              "name": "orderDeadline",
              "type": "uint32"
            },
            {
              "internalType": "uint256",
              "name": "oracleSafetyMask",
              "type": "uint256"
            },
            {
              "internalType": "uint256",
              "name": "maxFee0",
              "type": "uint256"
            },
            {
              "internalType": "uint256",
              "name": "maxFee1",
              "type": "uint256"
            }
          ],
          "internalType": "struct LStrategy.TradingParams",
          "name": "newTradingParams",
          "type": "tuple"
        }
      ],
      "name": "updateTradingParams",
      "outputs": [],
      "stateMutability": "nonpayable",
      "type": "function"
    },
    {
      "inputs": [],
      "name": "upperVault",
      "outputs": [
        {
          "internalType": "contract IUniV3Vault",
          "name": "",
          "type": "address"
        }
      ],
      "stateMutability": "view",
      "type": "function"
    }
  ],
  "bytecode": {
    "object": "0x6101606040523480156200001257600080fd5b506040516200667e3803806200667e83398101604081905262000035916200075c565b60408051808201909152600281526120ad60f11b602082015282906001600160a01b038216620000835760405162461bcd60e51b81526004016200007a919062000839565b60405180910390fd5b506200009f6000805160206200665e83398151915282620004d4565b620000ba6000805160206200663e83398151915282620004d4565b620000d56000805160206200663e83398151915280620004e4565b620001107fc171260023d22a25a00a2789664c9334017843b831138c8ef03cc8897e5873d76000805160206200663e833981519152620004e4565b6200014b6000805160206200665e8339815191527fc171260023d22a25a00a2789664c9334017843b831138c8ef03cc8897e5873d7620004e4565b506001600160a01b038916158015906200016d57506001600160a01b03831615155b80156200018257506001600160a01b03851615155b80156200019757506001600160a01b03841615155b8015620001ac57506001600160a01b03861615155b8015620001c157506001600160a01b03871615155b8015620001d657506001600160a01b03881615155b6040518060400160405280600281526020016120ad60f11b81525090620002125760405162461bcd60e51b81526004016200007a919062000839565b506040805180820190915260028152612b2d60f11b602082015261ffff8216620002515760405162461bcd60e51b81526004016200007a919062000839565b506001600160a01b03808a1660a052868116608052600380548783166001600160a01b03199182168117909255600480549388169390911692909217825560408051636972223360e01b8152905191926369722233928282019260009290829003018186803b158015620002c457600080fd5b505afa158015620002d9573d6000803e3d6000fd5b505050506040513d6000823e601f3d908101601f1916820160405262000303919081019062000900565b8051620003199160029160209091019062000684565b50846001600160a01b03166316f0115b6040518163ffffffff1660e01b815260040160206040518083038186803b1580156200035457600080fd5b505afa15801562000369573d6000803e3d6000fd5b505050506040513d601f19601f820116820180604052508101906200038f9190620009aa565b6001600160a01b031663ddca3f436040518163ffffffff1660e01b815260040160206040518083038186803b158015620003c857600080fd5b505afa158015620003dd573d6000803e3d6000fd5b505050506040513d601f19601f82011682018060405250810190620004039190620009d1565b62ffffff1660e08162ffffff1681525050846001600160a01b031663d2c219b06040518163ffffffff1660e01b815260040160006040518083038186803b1580156200044e57600080fd5b505afa15801562000463573d6000803e3d6000fd5b505050506040513d6000823e601f3d908101601f191682016040526200048d9190810190620009f8565b8051620004a391600891602090910190620006ee565b506001600160a01b0397881661010052958716610120525090941660c052505061ffff16610140525062000a869050565b620004e082826200052f565b5050565b600082815260208190526040808220600101805490849055905190918391839186917fbd79b86ffe0ab8e8776151514217cd7cacd52c909f66475c3af44e129f0b00ff9190a4505050565b6200054682826200057260201b62002a3c1760201c565b60008281526001602090815260409091206200056d91839062002ac062000612821b17901c565b505050565b6000828152602081815260408083206001600160a01b038516845290915290205460ff16620004e0576000828152602081815260408083206001600160a01b03851684529091529020805460ff19166001179055620005ce3390565b6001600160a01b0316816001600160a01b0316837f2f8788117e7eff1d82e926ec794901d17c78024a50270940304540a733656f0d60405160405180910390a45050565b600062000629836001600160a01b03841662000632565b90505b92915050565b60008181526001830160205260408120546200067b575081546001818101845560008481526020808220909301849055845484825282860190935260409020919091556200062c565b5060006200062c565b828054828255906000526020600020908101928215620006dc579160200282015b82811115620006dc57825182546001600160a01b0319166001600160a01b03909116178255602090920191600190910190620006a5565b50620006ea9291506200072c565b5090565b828054828255906000526020600020908101928215620006dc579160200282015b82811115620006dc5782518255916020019190600101906200070f565b5b80821115620006ea57600081556001016200072d565b6001600160a01b03811681146200075957600080fd5b50565b60008060008060008060008060006101208a8c0312156200077c57600080fd5b8951620007898162000743565b60208b01519099506200079c8162000743565b60408b0151909850620007af8162000743565b60608b0151909750620007c28162000743565b60808b0151909650620007d58162000743565b60a08b0151909550620007e88162000743565b60c08b0151909450620007fb8162000743565b60e08b01519093506200080e8162000743565b6101008b015190925061ffff811681146200082857600080fd5b809150509295985092959850929598565b600060208083528351808285015260005b8181101562000868578581018301518582016040015282016200084a565b818111156200087b576000604083870101525b50601f01601f1916929092016040019392505050565b634e487b7160e01b600052604160045260246000fd5b604051601f8201601f191681016001600160401b0381118282101715620008d257620008d262000891565b604052919050565b60006001600160401b03821115620008f657620008f662000891565b5060051b60200190565b600060208083850312156200091457600080fd5b82516001600160401b038111156200092b57600080fd5b8301601f810185136200093d57600080fd5b8051620009546200094e82620008da565b620008a7565b81815260059190911b820183019083810190878311156200097457600080fd5b928401925b828410156200099f5783516200098f8162000743565b8252928401929084019062000979565b979650505050505050565b600060208284031215620009bd57600080fd5b8151620009ca8162000743565b9392505050565b600060208284031215620009e457600080fd5b815162ffffff81168114620009ca57600080fd5b6000602080838503121562000a0c57600080fd5b82516001600160401b0381111562000a2357600080fd5b8301601f8101851362000a3557600080fd5b805162000a466200094e82620008da565b81815260059190911b8201830190838101908783111562000a6657600080fd5b928401925b828410156200099f5783518252928401929084019062000a6b565b60805160a05160c05160e051610100516101205161014051615a6862000bd6600039600081816106cd0152818161386901526138b60152600081816105b4015281816110b30152611fce015260008181610883015281816111b501526113270152600081816102e30152613e290152600081816107bb01528181610f760152612e0c01526000818161058d01528181612b11015281816136ba015281816137b70152818161391b0152818161398d01528181613cf501528181613d4601528181613d7c01528181613f0e0152613f4801526000818161031e01528181610a0c01528181610fc40152818161107701528181611186015281816112f8015281816120110152818161226d0152818161231d015281816123f501528181612638015281816127050152818161282e015281816128e801528181612f280152818161334b01526133f00152615a686000f3fe608060405234801561001057600080fd5b506004361061028a5760003560e01c806375b238fc1161015c578063a217fddf116100ce578063d80c8a3f11610087578063d80c8a3f14610744578063df54f384146107b6578063e78eeb6d146107dd578063eedcb963146107ff578063f176a99514610808578063f2309ab61461087e57600080fd5b8063a217fddf146106c0578063a8c7f4a0146106c8578063b056b2a714610702578063ca15c8731461070b578063cda916381461071e578063d547741f1461073157600080fd5b80639010d07c116101205780639010d07c146105df578063918f8674146105f257806391d14854146105fd578063983d273714610610578063999ba69114610637578063a0865839146106b257600080fd5b806375b238fc1461054e57806375d7d1cb14610575578063791b98bc146105885780637da6aafb146105af578063820dac8d146105d657600080fd5b806328e4ce02116102005780634f64b2be116101b95780634f64b2be146104da578063528052b8146104ed578063598fccb714610500578063627c564c14610513578063655ad47a146105285780636d70f7ae1461053b57600080fd5b806328e4ce021461043d578063298490a11461045057806329f53872146104745780632f2ff15d1461048757806336568abe1461049a5780633ef323f6146104ad57600080fd5b806309759f8f1161025257806309759f8f1461038d578063161283ec146103bf5780631c4435f0146103df5780631e4afdf1146103f2578063248a9ca31461040757806324d7806c1461042a57600080fd5b806301ffc9a71461028f578063068af4cc146102b7578063089fe6aa146102de578063090f9221146103195780630952ff5414610358575b600080fd5b6102a261029d3660046146cb565b6108a5565b60405190151581526020015b60405180910390f35b6102c563ec6cb13f60e01b81565b6040516001600160e01b031990911681526020016102ae565b6103057f000000000000000000000000000000000000000000000000000000000000000081565b60405162ffffff90911681526020016102ae565b6103407f000000000000000000000000000000000000000000000000000000000000000081565b6040516001600160a01b0390911681526020016102ae565b61037f7fc171260023d22a25a00a2789664c9334017843b831138c8ef03cc8897e5873d781565b6040519081526020016102ae565b6103a061039b366004614704565b6108d0565b604080516001600160801b0390931683529015156020830152016102ae565b6103d26103cd366004614721565b61098d565b6040516102ae919061473a565b61037f6103ed366004614859565b610e15565b61040561040036600461496a565b610f4c565b005b61037f610415366004614721565b60009081526020819052604090206001015490565b6102a2610438366004614a7b565b6113ef565b61040561044b366004614a98565b61144b565b61046361045e366004614b3e565b6115c2565b6040516102ae959493929190614be5565b610405610482366004614c34565b61190c565b610405610495366004614c46565b611a7c565b6104056104a8366004614c46565b611aa6565b600e54600f546010546104bf92919083565b604080519384526020840192909252908201526060016102ae565b6103406104e8366004614721565b611b24565b600354610340906001600160a01b031681565b600454610340906001600160a01b031681565b61051b611b4e565b6040516102ae9190614c76565b61051b610536366004614c89565b611d4f565b6102a2610549366004614a7b565b611e43565b61037f7ff23ec0bb4210edd5cba85afd05127efcd2fc6a781bfed49188da1081670b22d881565b610405610583366004614d19565b611e6f565b6103407f000000000000000000000000000000000000000000000000000000000000000081565b6103407f000000000000000000000000000000000000000000000000000000000000000081565b61037f60065481565b6103406105ed366004614d2b565b611f59565b61037f633b9aca0081565b6102a261060b366004614c46565b611f78565b61037f7f46a52cf33029de9f84853745a87af28464c80bf0346df1b32e205fc73319f62281565b600954600a54600b54600c54610671936001600160a01b0381169363ffffffff600160a01b8304811694600160c01b909304169290919086565b604080516001600160a01b0397909716875263ffffffff958616602088015293909416928501929092526060840152608083015260a082015260c0016102ae565b6102c563095ea7b360e01b81565b61037f600081565b6106ef7f000000000000000000000000000000000000000000000000000000000000000081565b60405161ffff90911681526020016102ae565b61037f60055481565b61037f610719366004614721565b611fa1565b61040561072c366004614d4d565b611fb8565b61040561073f366004614c46565b61211d565b600d5461077f9063ffffffff808216916401000000008104821691600160401b8204811691600160601b8104821691600160801b9091041685565b6040805163ffffffff968716815294861660208601529285169284019290925283166060830152909116608082015260a0016102ae565b6103407f000000000000000000000000000000000000000000000000000000000000000081565b6107f06107eb366004614b3e565b612142565b6040516102ae93929190614d70565b61037f60075481565b60115460125460135460145461083d936001600160a01b039081169390811692600160a01b9091046001600160401b03169185565b604080516001600160a01b0396871681529590941660208601526001600160401b03909216928401929092526060830191909152608082015260a0016102ae565b6103407f000000000000000000000000000000000000000000000000000000000000000081565b60006001600160e01b03198216635a05180f60e01b14806108ca57506108ca82612ad5565b92915050565b6003546000908190819081906108ee906001600160a01b0316612b0a565b509092509050600060026109028484614dab565b61090c9190614e08565b90508560020b8160020b1393508315610935576109298682614e42565b62ffffff169450610947565b61093f8187614e42565b62ffffff1694505b60026109538484614e42565b61095d9190614e8a565b62ffffff16610979633b9aca006001600160801b038816614eac565b6109839190614ecb565b9450505050915091565b6040805160a0810182526000808252602082018190529181018290526060810182905260808101919091526109c0612c35565b600754421160405180604001604052806002815260200161545360f01b81525090610a075760405162461bcd60e51b81526004016109fe9190614f3d565b60405180910390fd5b5060007f00000000000000000000000000000000000000000000000000000000000000006001600160a01b031663e5328e066040518163ffffffff1660e01b815260040160006040518083038186803b158015610a6357600080fd5b505afa158015610a77573d6000803e3d6000fd5b505050506040513d6000823e601f3d908101601f19168201604052610a9f9190810190614fab565b5090506000610b566002600081548110610abb57610abb61500e565b600091825260209091200154600280546001600160a01b03909216916001908110610ae857610ae861500e565b600091825260209182902001546040805160c0810182526009546001600160a01b03818116835263ffffffff600160a01b8304811696840196909652600160c01b90910490941691810191909152600a546060820152600b546080820152600c5460a0820152911690610e15565b9050600080610bc5610b8785600081518110610b7457610b7461500e565b602002602001015185600160601b612c8a565b85600181518110610b9a57610b9a61500e565b6020908102919091010151600d5463ffffffff6401000000008204811691600160601b900416612d3d565b6040805160c0810182526009546001600160a01b038116825263ffffffff600160a01b820481166020840152600160c01b9091041691810191909152600a546060820152600b546080820152600c5460a08201529193509150600082610c2c576000610c2f565b60015b60ff16905060006040518060400160405280610c5087600160601b8a612c8a565b815260200186905290506000610c9d826001851860028110610c7457610c7461500e565b6020020151856020015163ffffffff16633b9aca00610c939190615024565b633b9aca00612c8a565b9050898111610cac5789610cae565b805b90506040518060a0016040528060028581548110610cce57610cce61500e565b600091825260209182902001546001600160a01b0316825260028054929091019160018718908110610d0257610d0261500e565b600091825260209182902001546001600160a01b031682526040870151910190610d329063ffffffff164261503b565b6001600160401b03168152602001838560028110610d5257610d5261500e565b6020908102919091015182529081018390528151601180546001600160a01b039283166001600160a01b031990911617905590820151601280546040808601516001600160401b0316600160a01b026001600160e01b031990921693909416929092179190911790556060820151601355608082015160145551909950339032907f4a17a3c3fedac3ded9f3c25c7e0dc3f5f9856afe054d463a2fece35c6e2ff5e690610e00908d9061473a565b60405180910390a35050505050505050919050565b80516060820151604051636d80125b60e01b81526001600160a01b0386811660048301528581166024830152604482019290925260009283921690636d80125b9060640160006040518083038186803b158015610e7157600080fd5b505afa158015610e85573d6000803e3d6000fd5b505050506040513d6000823e601f3d908101601f19168201604052610ead9190810190614fab565b5090506000815111604051806040016040528060048152602001631253959360e21b81525090610ef05760405162461bcd60e51b81526004016109fe9190614f3d565b5060005b8151811015610f3657818181518110610f0f57610f0f61500e565b602002602001015183610f22919061503b565b925080610f2e81615053565b915050610ef4565b508051610f43908361506e565b95945050505050565b610f54612c35565b80156112f6578351601154601254601354601454600280546001600160a01b037f000000000000000000000000000000000000000000000000000000000000000081169663521dc056968d968d968d969385169594831694919390926001600160401b03600160a01b90910416917f00000000000000000000000000000000000000000000000000000000000000009190600090610ff457610ff461500e565b6000918252602090912001546001600160a01b038d811691161461101a57600c5461101e565b600b545b6040518b63ffffffff1660e01b81526004016110439a99989796959493929190615167565b600060405180830381600087803b15801561105d57600080fd5b505af1158015611071573d6000803e3d6000fd5b505050507f00000000000000000000000000000000000000000000000000000000000000006001600160a01b0316632e2f4cc2866000015163095ea7b360e01b7f00000000000000000000000000000000000000000000000000000000000000008960e001518a606001516110e6919061503b565b604080516001600160a01b0390931660208401528201526060016040516020818303038152906040526040518463ffffffff1660e01b815260040161112d939291906151e2565b600060405180830381600087803b15801561114757600080fd5b505af115801561115b573d6000803e3d6000fd5b505050506040513d6000823e601f3d908101601f191682016040526111839190810190615216565b507f00000000000000000000000000000000000000000000000000000000000000006001600160a01b0316632e2f4cc27f000000000000000000000000000000000000000000000000000000000000000063ec6cb13f60e01b8787876040516020016111f1939291906152a9565b6040516020818303038152906040526040518463ffffffff1660e01b815260040161121e939291906151e2565b600060405180830381600087803b15801561123857600080fd5b505af115801561124c573d6000803e3d6000fd5b505050506040513d6000823e601f3d908101601f191682016040526112749190810190615216565b5060a085015163ffffffff16600755601180546001600160a01b0319168155601280546001600160e01b031916905560006013819055601455604051339132917f5abfd0357204c448bf55ed23abecf2025e91f832508db609eb580127e9e609c5916112e891899189918c91908a906152cf565b60405180910390a3506113e9565b7f00000000000000000000000000000000000000000000000000000000000000006001600160a01b0316632e2f4cc27f000000000000000000000000000000000000000000000000000000000000000063ec6cb13f60e01b86866000604051602001611364939291906152a9565b6040516020818303038152906040526040518463ffffffff1660e01b8152600401611391939291906151e2565b600060405180830381600087803b1580156113ab57600080fd5b505af11580156113bf573d6000803e3d6000fd5b505050506040513d6000823e601f3d908101601f191682016040526113e79190810190615216565b505b50505050565b600061141b7ff23ec0bb4210edd5cba85afd05127efcd2fc6a781bfed49188da1081670b22d883611f78565b806108ca57506108ca7fc171260023d22a25a00a2789664c9334017843b831138c8ef03cc8897e5873d783611f78565b611453612dea565b633b9aca00611465602083018361534f565b63ffffffff16111580156114925750633b9aca00611489604083016020840161534f565b63ffffffff1611155b80156114b75750633b9aca006114ae606083016040840161534f565b63ffffffff1611155b80156114dc5750633b9aca006114d3608083016060840161534f565b63ffffffff1611155b80156115015750633b9aca006114f860a083016080840161534f565b63ffffffff1611155b60405180604001604052806004815260200163494e564160e01b8152509061153c5760405162461bcd60e51b81526004016109fe9190614f3d565b5080600d61154a8282615379565b5050604051339032907f904bf0f86f4cde723c62e8a8f320e8c60ecbb979a17e6e52788122d5c1b4f437906115b790600d5463ffffffff8082168352602082811c821690840152604082811c821690840152606082811c821690840152608091821c169082015260a00190565b60405180910390a350565b60608060008060006115d2612c35565b6010546006546115e2919061503b565b42101560405180604001604052806002815260200161545360f01b8152509061161e5760405162461bcd60e51b81526004016109fe9190614f3d565b5042600655604080518082019091526000808252602082015260006116506002600081548110610abb57610abb61500e565b9050600061165d82612df3565b9050611668816108d0565b15801560208601526001600160801b03909116845261174657600454600090611699906001600160a01b0316612b0a565b925050506001600160801b038116156116e7576004546003546116d3916001600160a01b0390811691166001600160801b038f8f8f612e8e565b929b50909950975095506119019350505050565b6116f260008b613507565b60408051600280825260608201835290916020830190803683375050604080516002808252606082018352909250906020830190803683370190505060008060009850985098509850985050505050611901565b633b9aca0083600001516001600160801b03161115611814576003546001945060009061177b906001600160a01b0316612b0a565b925050506001600160801b038116156117b5576003546004546116d3916001600160a01b0390811691166001600160801b038f8f8f612e8e565b6117c060018b613507565b60408051600280825260608201835290916020830190803683375050604080516002808252606082018352909250906020830190803683370190505060008060019850985098509850985050505050611901565b50506003546000908190819081908190611836906001600160a01b0316612b0a565b6004549093506000925061185391506001600160a01b0316612b0a565b925050506118a0826001600160801b0316826001600160801b031689600001516001600160801b0316633b9aca0061188b9190615024565b600d54600160801b900463ffffffff16612d3d565b909650925082156118c6576004546003546001600160a01b0391821696501693506118e1565b600354600454600199506001600160a01b0391821696501693505b5050506118f28282858f8f8f612e8e565b929b5090995097509550505050505b939792965093509350565b611914612dea565b633b9aca00611929604083016020840161534f565b63ffffffff1611158015611955575062278d0061194c606083016040840161534f565b63ffffffff1611155b8015611965575060038160600135115b60405180604001604052806004815260200163494e564160e01b815250906119a05760405162461bcd60e51b81526004016109fe9190614f3d565b5060006119b06020830183614a7b565b6001600160a01b031614156040518060400160405280600281526020016120ad60f11b815250906119f45760405162461bcd60e51b81526004016109fe9190614f3d565b50806009611a028282615475565b5050604080516009546001600160a01b038116825260a081811c63ffffffff908116602085015260c092831c1693830193909352600a546060830152600b546080830152600c5492820192909252339132917f81021f9c8d1791eb3574e5fdd49fb52fef2c4543a95ea067d387af0d2bf68c5c91016115b7565b600082815260208190526040902060010154611a9781613a7d565b611aa18383613a87565b505050565b6001600160a01b0381163314611b165760405162461bcd60e51b815260206004820152602f60248201527f416363657373436f6e74726f6c3a2063616e206f6e6c792072656e6f756e636560448201526e103937b632b9903337b91039b2b63360891b60648201526084016109fe565b611b208282613aa9565b5050565b60028181548110611b3457600080fd5b6000918252602090912001546001600160a01b0316905081565b6060611b58612c35565b604080516002808252606082018352909160208301908036833750506040805160028082526060820183529394506000939092509060208301908036833750506003546040805163c27b2c2d60e01b815290519394506001600160a01b039091169263c27b2c2d9250600480830192600092919082900301818387803b158015611be157600080fd5b505af1158015611bf5573d6000803e3d6000fd5b505050506040513d6000823e601f3d908101601f19168201604052611c1d9190810190615522565b9150600460009054906101000a90046001600160a01b03166001600160a01b031663c27b2c2d6040518163ffffffff1660e01b8152600401600060405180830381600087803b158015611c6f57600080fd5b505af1158015611c83573d6000803e3d6000fd5b505050506040513d6000823e601f3d908101601f19168201604052611cab9190810190615522565b905060005b6002811015611d0e57818181518110611ccb57611ccb61500e565b6020026020010151838281518110611ce557611ce561500e565b60200260200101818151611cf9919061503b565b90525080611d0681615053565b915050611cb0565b50604051339032907fa51192af025c458eb1a1bb9475446b325aa4a80a2ac4d672c4d75121cb1e81d790611d43908690614c76565b60405180910390a35090565b6060611d59612dea565b856001600160a01b0316632062d75486600287611d768888613acb565b6040518563ffffffff1660e01b8152600401611d959493929190615594565b600060405180830381600087803b158015611daf57600080fd5b505af1158015611dc3573d6000803e3d6000fd5b505050506040513d6000823e601f3d908101601f19168201604052611deb9190810190615522565b9050336001600160a01b0316326001600160a01b03167fe01abad1313255d212413f924f6136d8a843e3bf20a542ba5c7ddcd293f8bfc18684604051611e329291906155de565b60405180910390a395945050505050565b60006108ca7f46a52cf33029de9f84853745a87af28464c80bf0346df1b32e205fc73319f62283611f78565b611e77612dea565b803515801590611e8b575060008160200135115b8015611e9c5750633b9aca00813511155b8015611eb05750633b9aca00816020013511155b8015611ec3575062278d00816040013511155b60405180604001604052806004815260200163494e564160e01b81525090611efe5760405162461bcd60e51b81526004016109fe9190614f3d565b508035600e819055602080830135600f8190556040808501356010819055815194855292840191909152820152339032907f8369aca3b3af1b66a4725523ba8bdf945cdccf9d393b4bd3ae431c8174712004906060016115b7565b6000828152600160205260408120611f719083613b4d565b9392505050565b6000918252602082815260408084206001600160a01b0393909316845291905290205460ff1690565b60008181526001602052604081206108ca90613b59565b611fc0612c35565b604080516001600160a01b037f0000000000000000000000000000000000000000000000000000000000000000166020820152600091810182905260600160405160208183030381529060405290507f00000000000000000000000000000000000000000000000000000000000000006001600160a01b0316632e2f4cc260028460ff16815481106120545761205461500e565b6000918252602090912001546040516001600160e01b031960e084901b168152612095916001600160a01b03169063095ea7b360e01b9086906004016151e2565b600060405180830381600087803b1580156120af57600080fd5b505af11580156120c3573d6000803e3d6000fd5b505050506040513d6000823e601f3d908101601f191682016040526120eb9190810190615216565b50604051339032907f112fe675253dccb168163db69508eebc7bf0a3c0b10402c6990200dd8c36068690600090a35050565b60008281526020819052604090206001015461213881613a7d565b611aa18383613aa9565b606060008061214f612c35565b60105460055461215f919061503b565b42101560405180604001604052806002815260200161545360f01b8152509061219b5760405162461bcd60e51b81526004016109fe9190614f3d565b504260055560408051600280825260608083018452928392600092839260208301908036833701905050965060006121e06002600081548110610abb57610abb61500e565b6004549091506000906121fd9083906001600160a01b0316613b63565b6003546122149084906001600160a01b0316613b63565b61221e919061503b565b9050806123ed57604080516002808252606082018352600092612250929190602083019080368337019050508c613acb565b600354604051630818b5d560e21b81529192506001600160a01b037f0000000000000000000000000000000000000000000000000000000000000000811692632062d754926122ab9216906002906008908790600401615603565b600060405180830381600087803b1580156122c557600080fd5b505af11580156122d9573d6000803e3d6000fd5b505050506040513d6000823e601f3d908101601f191682016040526123019190810190615522565b5060048054604051630818b5d560e21b81526001600160a01b037f0000000000000000000000000000000000000000000000000000000000000000811693632062d7549361235a93921691600291600891889101615603565b600060405180830381600087803b15801561237457600080fd5b505af1158015612388573d6000803e3d6000fd5b505050506040513d6000823e601f3d908101601f191682016040526123b09190810190615522565b506004546123c89084906001600160a01b0316613b63565b6003546123df9085906001600160a01b0316613b63565b6123e9919061503b565b9150505b6000612419837f0000000000000000000000000000000000000000000000000000000000000000613b63565b600d54909150600090612440908390859063ffffffff80821691600160401b900416612d3d565b9a5090508061247d576040805160028082526060820183529091602083019080368337019050506000809a509a509a505050505050505050612a33565b61248c633b9aca008285612c8a565b6003549099506124a4906001600160a01b0316612b0a565b6004549098506124bf92506001600160a01b03169050612b0a565b6003549097506001600160a01b0316915063c85fc74090506124ef8b6001600160801b038a16633b9aca00612c8a565b6040516001600160e01b031960e084901b1681526001600160801b03909116600482015260240160006040518083038186803b15801561252e57600080fd5b505afa158015612542573d6000803e3d6000fd5b505050506040513d6000823e601f3d908101601f1916820160405261256a9190810190615522565b6004549098506001600160a01b031663c85fc7406125968b6001600160801b038916633b9aca00612c8a565b6040516001600160e01b031960e084901b1681526001600160801b03909116600482015260240160006040518083038186803b1580156125d557600080fd5b505afa1580156125e9573d6000803e3d6000fd5b505050506040513d6000823e601f3d908101601f191682016040526126119190810190615522565b9650505050508561281b576001600160801b038216156126e6576003546001600160a01b037f0000000000000000000000000000000000000000000000000000000000000000811691632062d754911660028761266e8f8e613acb565b6040518563ffffffff1660e01b815260040161268d9493929190615594565b600060405180830381600087803b1580156126a757600080fd5b505af11580156126bb573d6000803e3d6000fd5b505050506040513d6000823e601f3d908101601f191682016040526126e39190810190615522565b96505b6001600160801b03811615612816576004546000906001600160a01b037f0000000000000000000000000000000000000000000000000000000000000000811691632062d754911660028761273b8f8f613acb565b6040518563ffffffff1660e01b815260040161275a9493929190615594565b600060405180830381600087803b15801561277457600080fd5b505af1158015612788573d6000803e3d6000fd5b505050506040513d6000823e601f3d908101601f191682016040526127b09190810190615522565b905060005b6002811015612813578181815181106127d0576127d061500e565b60200260200101518982815181106127ea576127ea61500e565b602002602001018181516127fe919061503b565b9052508061280b81615053565b9150506127b5565b50505b6129ef565b6003546001600160a01b0316632062d7547f000000000000000000000000000000000000000000000000000000000000000060028761285a8f8e613acb565b6040518563ffffffff1660e01b81526004016128799493929190615594565b600060405180830381600087803b15801561289357600080fd5b505af11580156128a7573d6000803e3d6000fd5b505050506040513d6000823e601f3d908101601f191682016040526128cf9190810190615522565b6004549097506000906001600160a01b0316632062d7547f00000000000000000000000000000000000000000000000000000000000000006002876129148f8f613acb565b6040518563ffffffff1660e01b81526004016129339493929190615594565b600060405180830381600087803b15801561294d57600080fd5b505af1158015612961573d6000803e3d6000fd5b505050506040513d6000823e601f3d908101601f191682016040526129899190810190615522565b905060005b60028110156129ec578181815181106129a9576129a961500e565b60200260200101518982815181106129c3576129c361500e565b602002602001018181516129d7919061503b565b905250806129e481615053565b91505061298e565b50505b604051339032907fb739c89143745fda016e49c1f12bd68106c0947da4652d18e86311ae8ddad14590612a26908a15908c90615680565b60405180910390a3505050505b93509350939050565b612a468282611f78565b611b20576000828152602081815260408083206001600160a01b03851684529091529020805460ff19166001179055612a7c3390565b6001600160a01b0316816001600160a01b0316837f2f8788117e7eff1d82e926ec794901d17c78024a50270940304540a733656f0d60405160405180910390a45050565b6000611f71836001600160a01b038416613c91565b60006001600160e01b03198216637965db0b60e01b14806108ca57506301ffc9a760e01b6001600160e01b03198316146108ca565b60008060007f00000000000000000000000000000000000000000000000000000000000000006001600160a01b03166399fbab88856001600160a01b031663f4adc08b6040518163ffffffff1660e01b815260040160206040518083038186803b158015612b7757600080fd5b505afa158015612b8b573d6000803e3d6000fd5b505050506040513d601f19601f82011682018060405250810190612baf919061569b565b6040518263ffffffff1660e01b8152600401612bcd91815260200190565b6101806040518083038186803b158015612be657600080fd5b505afa158015612bfa573d6000803e3d6000fd5b505050506040513d601f19601f82011682018060405250810190612c1e91906156f4565b50949e939d50919b50919950505050505050505050565b612c3e336113ef565b80612c4d5750612c4d33611e43565b6040518060400160405280600381526020016223292160e91b81525090612c875760405162461bcd60e51b81526004016109fe9190614f3d565b50565b600080806000198587098587029250828110838203039150508060001415612cc45760008411612cb957600080fd5b508290049050611f71565b808411612cd057600080fd5b6000848688096000868103871696879004966002600389028118808a02820302808a02820302808a02820302808a02820302808a02820302808a02909103029181900381900460010186841190950394909402919094039290920491909117919091029150509392505050565b60008080612d4f85610c93888a61503b565b90508315612db1576000612d7188633b9aca00612d6c8a8361503b565b612c8a565b90506000818711612d8b57612d868783615024565b612d95565b612d958288615024565b905085811015612dae5760008094509450505050612de1565b50505b86811115612dce5760019150612dc78782615024565b9250612ddf565b60009150612ddc8188615024565b92505b505b94509492505050565b612c4d336113ef565b6040516318d00f2560e31b8152600481018290526000907f00000000000000000000000000000000000000000000000000000000000000006001600160a01b03169063c68079289060240160206040518083038186803b158015612e5657600080fd5b505afa158015612e6a573d6000803e3d6000fd5b505050506040513d601f19601f820116820180604052508101906108ca91906157d5565b6060806000806001600160801b038816612eee5760408051600280825260608201835290916020830190803683375050604080516002808252606082018352909250906020830190803683370190505060008093509350935093506134fa565b8791506000612efc8b612b0a565b92505050826001600160801b0316816001600160801b031611612f1f5780612f21565b825b92505060007f00000000000000000000000000000000000000000000000000000000000000006001600160a01b031663e5328e066040518163ffffffff1660e01b815260040160006040518083038186803b158015612f7f57600080fd5b505afa158015612f93573d6000803e3d6000fd5b505050506040513d6000823e601f3d908101601f19168201604052612fbb9190810190614fab565b506040516303217f1d60e61b8152633b9aca0060048201529091506000906001600160a01b038c169063c85fc7409060240160006040518083038186803b15801561300557600080fd5b505afa158015613019573d6000803e3d6000fd5b505050506040513d6000823e601f3d908101601f191682016040526130419190810190615522565b6040516303217f1d60e61b8152633b9aca0060048201529091506000906001600160a01b038e169063c85fc7409060240160006040518083038186803b15801561308a57600080fd5b505afa15801561309e573d6000803e3d6000fd5b505050506040513d6000823e601f3d908101601f191682016040526130c69190810190615522565b905060005b60028110156132085760006131078383815181106130eb576130eb61500e565b6020026020010151886001600160801b0316633b9aca00612c8a565b8583815181106131195761311961500e565b602002602001015161312b919061503b565b905060006131608584815181106131445761314461500e565b6020026020010151896001600160801b0316633b9aca00612c8a565b9050808210156131f35760006131cc8785815181106131815761318161500e565b6020026020010151633b9aca008787815181106131a0576131a061500e565b60200260200101518988815181106131ba576131ba61500e565b6020026020010151612d6c9190615024565b9050886001600160801b0316816001600160801b0316106131ed57886131ef565b805b9850505b5050808061320090615053565b9150506130cb565b505050506001600160801b03888116146132225781613224565b875b6040516303217f1d60e61b81526001600160801b03841660048201529091506000906001600160a01b038b169063c85fc7409060240160006040518083038186803b15801561327257600080fd5b505afa158015613286573d6000803e3d6000fd5b505050506040513d6000823e601f3d908101601f191682016040526132ae9190810190615522565b6040516303217f1d60e61b81526001600160801b03841660048201529091506000906001600160a01b038d169063c85fc7409060240160006040518083038186803b1580156132fc57600080fd5b505afa158015613310573d6000803e3d6000fd5b505050506040513d6000823e601f3d908101601f191682016040526133389190810190615522565b90508b6001600160a01b0316632062d7547f00000000000000000000000000000000000000000000000000000000000000006002846133778e8d613acb565b6040518563ffffffff1660e01b81526004016133969493929190615594565b600060405180830381600087803b1580156133b057600080fd5b505af11580156133c4573d6000803e3d6000fd5b505050506040513d6000823e601f3d908101601f191682016040526133ec9190810190615522565b95507f00000000000000000000000000000000000000000000000000000000000000006001600160a01b0316632062d7548c60028561342b8d8d613acb565b6040518563ffffffff1660e01b815260040161344a9493929190615594565b600060405180830381600087803b15801561346457600080fd5b505af1158015613478573d6000803e3d6000fd5b505050506040513d6000823e601f3d908101601f191682016040526134a09190810190615522565b94505050336001600160a01b0316326001600160a01b03167feb3ef85fc77fc4a73afa4d74ef0824d0d4e716fd141af22eac946b684a5794d38c8c88888e896040516134f1969594939291906157f2565b60405180910390a35b9650965096509692505050565b600080836135295750506004546003546001600160a01b03918216911661353f565b50506003546004546001600160a01b0391821691165b6000826001600160a01b031663f4adc08b6040518163ffffffff1660e01b815260040160206040518083038186803b15801561357a57600080fd5b505afa15801561358e573d6000803e3d6000fd5b505050506040513d601f19601f820116820180604052508101906135b2919061569b565b90506000826001600160a01b031663f4adc08b6040518163ffffffff1660e01b815260040160206040518083038186803b1580156135ef57600080fd5b505afa158015613603573d6000803e3d6000fd5b505050506040513d601f19601f82011682018060405250810190613627919061569b565b9050836001600160a01b031663c27b2c2d6040518163ffffffff1660e01b8152600401600060405180830381600087803b15801561366457600080fd5b505af1158015613678573d6000803e3d6000fd5b505050506040513d6000823e601f3d908101601f191682016040526136a09190810190615522565b5060405163133f757160e31b8152600481018390526000907f00000000000000000000000000000000000000000000000000000000000000006001600160a01b0316906399fbab88906024016101806040518083038186803b15801561370557600080fd5b505afa158015613719573d6000803e3d6000fd5b505050506040513d601f19601f8201168201806040525081019061373d91906156f4565b50505050975050505050505050806001600160801b031660001460405180604001604052806004815260200163494e564160e01b815250906137925760405162461bcd60e51b81526004016109fe9190614f3d565b505060405163133f757160e31b81526004810182905260009081906001600160a01b037f000000000000000000000000000000000000000000000000000000000000000016906399fbab88906024016101806040518083038186803b1580156137fa57600080fd5b505afa15801561380e573d6000803e3d6000fd5b505050506040513d601f19601f8201168201806040525081019061383291906156f4565b505050505096509650505050505060008089156138965760026138558486614dab565b61385f9190614e08565b915061388f61ffff7f00000000000000000000000000000000000000000000000000000000000000001683614dab565b90506138df565b60026138a28486614dab565b6138ac9190614e08565b90506138dc61ffff7f00000000000000000000000000000000000000000000000000000000000000001682614e42565b91505b60006138ec83838c613ce0565b604051632142170760e11b81523060048201526001600160a01b038b81166024830152604482018390529192507f0000000000000000000000000000000000000000000000000000000000000000909116906342842e0e90606401600060405180830381600087803b15801561396157600080fd5b505af1158015613975573d6000803e3d6000fd5b5050604051630852cd8d60e31b8152600481018a90527f00000000000000000000000000000000000000000000000000000000000000006001600160a01b031692506342966c689150602401600060405180830381600087803b1580156139db57600080fd5b505af11580156139ef573d6000803e3d6000fd5b505060048054600380546001600160a01b03198084166001600160a01b0380841691909117909555169290911691909117905550506040805188815260208101839052600285810b8284015284900b606082015290517f1326e5ab8c1ccf65b31847f94bb71969c949507af942efd8d3accdc72355b51a916080908290030190a15050505050505050505050565b612c878133613f86565b613a918282612a3c565b6000828152600160205260409020611aa19082612ac0565b613ab38282613fdf565b6000828152600160205260409020611aa19082614044565b60408051606080825260808201909252816020820181803683370190505090508160608201528251600214156108ca57600083600081518110613b1057613b1061500e565b60200260200101519050600084600181518110613b2f57613b2f61500e565b60200260200101519050816020840152806040840152505092915050565b6000611f718383614059565b60006108ca825490565b6000806000836001600160a01b031663e5328e066040518163ffffffff1660e01b815260040160006040518083038186803b158015613ba157600080fd5b505afa158015613bb5573d6000803e3d6000fd5b505050506040513d6000823e601f3d908101601f19168201604052613bdd9190810190614fab565b91509150600281600181518110613bf657613bf661500e565b602002602001015183600181518110613c1157613c1161500e565b6020026020010151613c23919061503b565b613c2d919061506e565b613c87600283600081518110613c4557613c4561500e565b602002602001015185600081518110613c6057613c6061500e565b6020026020010151613c72919061503b565b613c7c919061506e565b87600160601b612c8a565b610f43919061503b565b6000818152600183016020526040812054613cd8575081546001818101845560008481526020808220909301849055845484825282860190935260409020919091556108ca565b5060006108ca565b600e54600f54600280546000939291613d41917f00000000000000000000000000000000000000000000000000000000000000009185918790613d2557613d2561500e565b6000918252602090912001546001600160a01b03169190614083565b613d7a7f0000000000000000000000000000000000000000000000000000000000000000826002600181548110613d2557613d2561500e565b7f00000000000000000000000000000000000000000000000000000000000000006001600160a01b031663883164566040518061016001604052806002600081548110613dc957613dc961500e565b600091825260209182902001546001600160a01b031682526002805492909101916001908110613dfb57613dfb61500e565b9060005260206000200160009054906101000a90046001600160a01b03166001600160a01b031681526020017f000000000000000000000000000000000000000000000000000000000000000062ffffff1681526020018960020b81526020018860020b81526020018581526020018481526020016000815260200160008152602001306001600160a01b03168152602001878152506040518263ffffffff1660e01b8152600401613ead9190615857565b608060405180830381600087803b158015613ec757600080fd5b505af1158015613edb573d6000803e3d6000fd5b505050506040513d601f19601f82011682018060405250810190613eff919061591b565b90915090505080935050613f437f000000000000000000000000000000000000000000000000000000000000000060006002600081548110613d2557613d2561500e565b613f7d7f000000000000000000000000000000000000000000000000000000000000000060006002600181548110613d2557613d2561500e565b50509392505050565b613f908282611f78565b611b2057613f9d816141c9565b613fa88360206141db565b604051602001613fb9929190615957565b60408051601f198184030181529082905262461bcd60e51b82526109fe91600401614f3d565b613fe98282611f78565b15611b20576000828152602081815260408083206001600160a01b0385168085529252808320805460ff1916905551339285917ff6391f5c32d9c69d2a47ea670b442974b53935d1edc7fd64eb21e047a839171b9190a45050565b6000611f71836001600160a01b038416614376565b60008260000182815481106140705761407061500e565b9060005260206000200154905092915050565b80158061410c5750604051636eb1769f60e11b81523060048201526001600160a01b03838116602483015284169063dd62ed3e9060440160206040518083038186803b1580156140d257600080fd5b505afa1580156140e6573d6000803e3d6000fd5b505050506040513d601f19601f8201168201806040525081019061410a919061569b565b155b6141775760405162461bcd60e51b815260206004820152603660248201527f5361666545524332303a20617070726f76652066726f6d206e6f6e2d7a65726f60448201527520746f206e6f6e2d7a65726f20616c6c6f77616e636560501b60648201526084016109fe565b604080516001600160a01b038416602482015260448082018490528251808303909101815260649091019091526020810180516001600160e01b031663095ea7b360e01b179052611aa1908490614469565b60606108ca6001600160a01b03831660145b606060006141ea836002614eac565b6141f590600261503b565b6001600160401b0381111561420c5761420c6147ab565b6040519080825280601f01601f191660200182016040528015614236576020820181803683370190505b509050600360fc1b816000815181106142515761425161500e565b60200101906001600160f81b031916908160001a905350600f60fb1b816001815181106142805761428061500e565b60200101906001600160f81b031916908160001a90535060006142a4846002614eac565b6142af90600161503b565b90505b6001811115614327576f181899199a1a9b1b9c1cb0b131b232b360811b85600f16601081106142e3576142e361500e565b1a60f81b8282815181106142f9576142f961500e565b60200101906001600160f81b031916908160001a90535060049490941c93614320816159cc565b90506142b2565b508315611f715760405162461bcd60e51b815260206004820181905260248201527f537472696e67733a20686578206c656e67746820696e73756666696369656e7460448201526064016109fe565b6000818152600183016020526040812054801561445f57600061439a600183615024565b85549091506000906143ae90600190615024565b90508181146144135760008660000182815481106143ce576143ce61500e565b90600052602060002001549050808760000184815481106143f1576143f161500e565b6000918252602080832090910192909255918252600188019052604090208390555b8554869080614424576144246159e3565b6001900381819060005260206000200160009055905585600101600086815260200190815260200160002060009055600193505050506108ca565b60009150506108ca565b60006144be826040518060400160405280602081526020017f5361666545524332303a206c6f772d6c6576656c2063616c6c206661696c6564815250856001600160a01b031661453e9092919063ffffffff16565b90508051600014806144df5750808060200190518101906144df91906159f9565b611aa15760405162461bcd60e51b815260206004820152602a60248201527f5361666545524332303a204552433230206f7065726174696f6e20646964206e6044820152691bdd081cdd58d8d9595960b21b60648201526084016109fe565b606061454d8484600085614555565b949350505050565b6060824710156145b65760405162461bcd60e51b815260206004820152602660248201527f416464726573733a20696e73756666696369656e742062616c616e636520666f6044820152651c8818d85b1b60d21b60648201526084016109fe565b600080866001600160a01b031685876040516145d29190615a16565b60006040518083038185875af1925050503d806000811461460f576040519150601f19603f3d011682016040523d82523d6000602084013e614614565b606091505b509150915061462587838387614630565b979650505050505050565b6060831561469c578251614695576001600160a01b0385163b6146955760405162461bcd60e51b815260206004820152601d60248201527f416464726573733a2063616c6c20746f206e6f6e2d636f6e747261637400000060448201526064016109fe565b508161454d565b61454d83838151156146b15781518083602001fd5b8060405162461bcd60e51b81526004016109fe9190614f3d565b6000602082840312156146dd57600080fd5b81356001600160e01b031981168114611f7157600080fd5b8060020b8114612c8757600080fd5b60006020828403121561471657600080fd5b8135611f71816146f5565b60006020828403121561473357600080fd5b5035919050565b81516001600160a01b039081168252602080840151909116908201526040808301516001600160401b031690820152606080830151908201526080918201519181019190915260a00190565b6001600160a01b0381168114612c8757600080fd5b80356147a681614786565b919050565b634e487b7160e01b600052604160045260246000fd5b60405160c081016001600160401b03811182821017156147e3576147e36147ab565b60405290565b60405161018081016001600160401b03811182821017156147e3576147e36147ab565b604051601f8201601f191681016001600160401b0381118282101715614834576148346147ab565b604052919050565b63ffffffff81168114612c8757600080fd5b80356147a68161483c565b600080600083850361010081121561487057600080fd5b843561487b81614786565b9350602085013561488b81614786565b925060c0603f198201121561489f57600080fd5b506148a86147c1565b60408501356148b681614786565b815260608501356148c68161483c565b602082015260808501356148d98161483c565b8060408301525060a0850135606082015260c0850135608082015260e085013560a0820152809150509250925092565b8015158114612c8757600080fd5b80356147a681614909565b60008083601f84011261493457600080fd5b5081356001600160401b0381111561494b57600080fd5b60208301915083602082850101111561496357600080fd5b9250929050565b6000806000808486036101c081121561498257600080fd5b6101808082121561499257600080fd5b61499a6147e9565b91506149a58761479b565b82526149b36020880161479b565b60208301526149c46040880161479b565b604083015260608701356060830152608087013560808301526149e960a0880161484e565b60a083015260c087013560c083015260e087013560e0830152610100808801358184015250610120614a1c818901614917565b90830152610140878101359083015261016080880135908301529094508501356001600160401b03811115614a5057600080fd5b614a5c87828801614922565b9094509250614a7090506101a08601614917565b905092959194509250565b600060208284031215614a8d57600080fd5b8135611f7181614786565b600060a08284031215614aaa57600080fd5b50919050565b60006001600160401b03821115614ac957614ac96147ab565b5060051b60200190565b600082601f830112614ae457600080fd5b81356020614af9614af483614ab0565b61480c565b82815260059290921b84018101918181019086841115614b1857600080fd5b8286015b84811015614b335780358352918301918301614b1c565b509695505050505050565b600080600060608486031215614b5357600080fd5b83356001600160401b0380821115614b6a57600080fd5b614b7687838801614ad3565b94506020860135915080821115614b8c57600080fd5b50614b9986828701614ad3565b925050604084013590509250925092565b600081518084526020808501945080840160005b83811015614bda57815187529582019590820190600101614bbe565b509495945050505050565b60a081526000614bf860a0830188614baa565b8281036020840152614c0a8188614baa565b6001600160801b039687166040850152949095166060830152509015156080909101529392505050565b600060c08284031215614aaa57600080fd5b60008060408385031215614c5957600080fd5b823591506020830135614c6b81614786565b809150509250929050565b602081526000611f716020830184614baa565b600080600080600060a08688031215614ca157600080fd5b8535614cac81614786565b94506020860135614cbc81614786565b935060408601356001600160401b0380821115614cd857600080fd5b614ce489838a01614ad3565b94506060880135915080821115614cfa57600080fd5b50614d0788828901614ad3565b95989497509295608001359392505050565b600060608284031215614aaa57600080fd5b60008060408385031215614d3e57600080fd5b50508035926020909101359150565b600060208284031215614d5f57600080fd5b813560ff81168114611f7157600080fd5b606081526000614d836060830186614baa565b93151560208301525060400152919050565b634e487b7160e01b600052601160045260246000fd5b60008160020b8360020b6000821282627fffff03821381151615614dd157614dd1614d95565b82627fffff19038212811615614de957614de9614d95565b50019392505050565b634e487b7160e01b600052601260045260246000fd5b60008160020b8360020b80614e1f57614e1f614df2565b627fffff19821460001982141615614e3957614e39614d95565b90059392505050565b60008160020b8360020b6000811281627fffff1901831281151615614e6957614e69614d95565b81627fffff018313811615614e8057614e80614d95565b5090039392505050565b600062ffffff80841680614ea057614ea0614df2565b92169190910492915050565b6000816000190483118215151615614ec657614ec6614d95565b500290565b60006001600160801b0380841680614ea057614ea0614df2565b60005b83811015614f00578181015183820152602001614ee8565b838111156113e95750506000910152565b60008151808452614f29816020860160208601614ee5565b601f01601f19169290920160200192915050565b602081526000611f716020830184614f11565b600082601f830112614f6157600080fd5b81516020614f71614af483614ab0565b82815260059290921b84018101918181019086841115614f9057600080fd5b8286015b84811015614b335780518352918301918301614f94565b60008060408385031215614fbe57600080fd5b82516001600160401b0380821115614fd557600080fd5b614fe186838701614f50565b93506020850151915080821115614ff757600080fd5b5061500485828601614f50565b9150509250929050565b634e487b7160e01b600052603260045260246000fd5b60008282101561503657615036614d95565b500390565b6000821982111561504e5761504e614d95565b500190565b600060001982141561506757615067614d95565b5060010190565b60008261507d5761507d614df2565b500490565b80516001600160a01b0316825260208101516150a960208401826001600160a01b03169052565b5060408101516150c460408401826001600160a01b03169052565b50606081015160608301526080810151608083015260a08101516150f060a084018263ffffffff169052565b5060c081015160c083015260e081015160e0830152610100808201518184015250610120808201516151258285018215159052565b5050610140818101519083015261016090810151910152565b81835281816020850137506000828201602090810191909152601f909101601f19169091010190565b6000610280615176838e615082565b8061018084015261518a8184018c8e61513e565b6001600160a01b039a8b166101a0850152988a166101c084015250506101e08101959095526102008501939093526001600160401b039190911661022084015290931661024082015261026001919091529392505050565b6001600160a01b03841681526001600160e01b031983166020820152606060408201819052600090610f4390830184614f11565b60006020828403121561522857600080fd5b81516001600160401b038082111561523f57600080fd5b818401915084601f83011261525357600080fd5b815181811115615265576152656147ab565b615278601f8201601f191660200161480c565b915080825285602082850101111561528f57600080fd5b6152a0816020840160208601614ee5565b50949350505050565b6040815260006152bd60408301858761513e565b90508215156020830152949350505050565b60006102608083526152e4818401888a61513e565b9150506152f46020830186615082565b83546001600160a01b039081166101a084015260018501549081166101c084015260a01c6001600160401b03166101e08301526002840154610200830152600390930154610220820152901515610240909101529392505050565b60006020828403121561536157600080fd5b8135611f718161483c565b600081356108ca8161483c565b81356153848161483c565b63ffffffff8116905081548163ffffffff19821617835560208401356153a98161483c565b67ffffffff000000008160201b16905080836001600160401b031984161717845560408501356153d88161483c565b6bffffffff00000000000000008160401b16905080846bffffffffffffffffffffffff19851617831717855560608601356154128161483c565b6fffffffffffffffffffffffffffffffff1993909316909317179190911760609190911b63ffffffff60601b16178155611b206154516080840161536c565b82805463ffffffff60801b191660809290921b63ffffffff60801b16919091179055565b813561548081614786565b81546001600160a01b031981166001600160a01b0392909216918217835560208401356154ac8161483c565b63ffffffff60a01b60a09190911b166001600160c01b0319821683178117845560408501356154da8161483c565b6001600160e01b0319929092169092179190911760c09190911b63ffffffff60c01b16178155606082013560018201556080820135600282015560a090910135600390910155565b60006020828403121561553457600080fd5b81516001600160401b0381111561554a57600080fd5b61454d84828501614f50565b6000815480845260208085019450836000528060002060005b83811015614bda5781546001600160a01b03168752958201956001918201910161556f565b6001600160a01b03851681526080602082018190526000906155b890830186615556565b82810360408401526155ca8186614baa565b905082810360608401526146258185614f11565b6040815260006155f16040830185614baa565b8281036020840152610f438185614baa565b6001600160a01b03851681526080602080830182905260009161562890840187615556565b83810360408501528554808252600087815283812092840191905b8181101561565f57835483526001938401939285019201615643565b505084810360608601526156738187614f11565b9998505050505050505050565b821515815260406020820152600061454d6040830184614baa565b6000602082840312156156ad57600080fd5b5051919050565b80516147a681614786565b805162ffffff811681146147a657600080fd5b80516147a6816146f5565b80516001600160801b03811681146147a657600080fd5b6000806000806000806000806000806000806101808d8f03121561571757600080fd5b8c516bffffffffffffffffffffffff8116811461573357600080fd5b9b5061574160208e016156b4565b9a5061574f60408e016156b4565b995061575d60608e016156b4565b985061576b60808e016156bf565b975061577960a08e016156d2565b965061578760c08e016156d2565b955061579560e08e016156dd565b94506101008d015193506101208d015192506157b46101408e016156dd565b91506157c36101608e016156dd565b90509295989b509295989b509295989b565b6000602082840312156157e757600080fd5b8151611f71816146f5565b6001600160a01b0387811682528616602082015260c06040820181905260009061581e90830187614baa565b82810360608401526158308187614baa565b9150506001600160801b03808516608084015280841660a084015250979650505050505050565b81516001600160a01b031681526101608101602083015161588360208401826001600160a01b03169052565b50604083015161589a604084018262ffffff169052565b5060608301516158af606084018260020b9052565b5060808301516158c4608084018260020b9052565b5060a083015160a083015260c083015160c083015260e083015160e08301526101008084015181840152506101208084015161590a828501826001600160a01b03169052565b505061014092830151919092015290565b6000806000806080858703121561593157600080fd5b84519350615941602086016156dd565b6040860151606090960151949790965092505050565b7f416363657373436f6e74726f6c3a206163636f756e742000000000000000000081526000835161598f816017850160208801614ee5565b7001034b99036b4b9b9b4b733903937b6329607d1b60179184019182015283516159c0816028840160208801614ee5565b01602801949350505050565b6000816159db576159db614d95565b506000190190565b634e487b7160e01b600052603160045260246000fd5b600060208284031215615a0b57600080fd5b8151611f7181614909565b60008251615a28818460208701614ee5565b919091019291505056fea26469706673582212207f60c551d49c2d2b7c3e8c92bd81d567b7e981d7f25a5aab95424b00fbe7afaa64736f6c63430008090033f23ec0bb4210edd5cba85afd05127efcd2fc6a781bfed49188da1081670b22d846a52cf33029de9f84853745a87af28464c80bf0346df1b32e205fc73319f622",
    "linkReferences": {}
  },
  "methodIdentifiers": {
    "ADMIN_DELEGATE_ROLE()": "0952ff54",
    "ADMIN_ROLE()": "75b238fc",
    "APPROVE_SELECTOR()": "a0865839",
    "DEFAULT_ADMIN_ROLE()": "a217fddf",
    "DENOMINATOR()": "918f8674",
    "OPERATOR()": "983d2737",
    "SET_PRESIGNATURE_SELECTOR()": "068af4cc",
    "collectUniFees()": "627c564c",
    "cowswapSettlement()": "f2309ab6",
    "cowswapVaultRelayer()": "7da6aafb",
    "erc20Vault()": "090f9221",
    "getRoleAdmin(bytes32)": "248a9ca3",
    "getRoleMember(bytes32,uint256)": "9010d07c",
    "getRoleMemberCount(bytes32)": "ca15c873",
    "getTargetPriceX96(address,address,(address,uint32,uint32,uint256,uint256,uint256))": "1c4435f0",
    "grantRole(bytes32,address)": "2f2ff15d",
    "hasRole(bytes32,address)": "91d14854",
    "intervalWidthInTicks()": "a8c7f4a0",
    "isAdmin(address)": "24d7806c",
    "isOperator(address)": "6d70f7ae",
    "lastRebalanceERC20UniV3VaultsTimestamp()": "b056b2a7",
    "lastRebalanceUniV3VaultsTimestamp()": "820dac8d",
    "lowerVault()": "528052b8",
    "manualPull(address,address,uint256[],uint256[],uint256)": "655ad47a",
    "orderDeadline()": "eedcb963",
    "orderHelper()": "df54f384",
    "otherParams()": "3ef323f6",
    "poolFee()": "089fe6aa",
    "positionManager()": "791b98bc",
    "postPreOrder(uint256)": "161283ec",
    "preOrder()": "f176a995",
    "ratioParams()": "d80c8a3f",
    "rebalanceERC20UniV3Vaults(uint256[],uint256[],uint256)": "e78eeb6d",
    "rebalanceUniV3Vaults(uint256[],uint256[],uint256)": "298490a1",
    "renounceRole(bytes32,address)": "36568abe",
    "resetCowswapAllowance(uint8)": "cda91638",
    "revokeRole(bytes32,address)": "d547741f",
    "signOrder((address,address,address,uint256,uint256,uint32,bytes32,uint256,bytes32,bool,bytes32,bytes32),bytes,bool)": "1e4afdf1",
    "supportsInterface(bytes4)": "01ffc9a7",
    "targetUniV3LiquidityRatio(int24)": "09759f8f",
    "tokens(uint256)": "4f64b2be",
    "tradingParams()": "999ba691",
    "updateOtherParams((uint256,uint256,uint256))": "75d7d1cb",
    "updateRatioParams((uint32,uint32,uint32,uint32,uint32))": "28e4ce02",
    "updateTradingParams((address,uint32,uint32,uint256,uint256,uint256))": "29f53872",
    "upperVault()": "598fccb7"
  },
  "id": 392
}