{
  "abi": [
    {
      "inputs": [],
      "name": "Q96",
      "outputs": [
        {
          "internalType": "uint256",
          "name": "",
          "type": "uint256"
        }
      ],
      "stateMutability": "view",
      "type": "function"
    },
    {
      "inputs": [
        {
          "internalType": "contract PulseStrategyV2",
          "name": "strategy",
          "type": "address"
        }
      ],
      "name": "calculateAmountForSwap",
      "outputs": [
        {
          "internalType": "uint256",
          "name": "amountIn",
          "type": "uint256"
        },
        {
          "internalType": "address",
          "name": "from",
          "type": "address"
        },
        {
          "internalType": "address",
          "name": "to",
          "type": "address"
        },
        {
          "internalType": "contract IERC20Vault",
          "name": "erc20Vault",
          "type": "address"
        }
      ],
      "stateMutability": "view",
      "type": "function"
    },
    {
      "inputs": [
        {
          "internalType": "contract PulseStrategyV2",
          "name": "strategy",
          "type": "address"
        }
      ],
      "name": "getStrategyParams",
      "outputs": [
        {
          "components": [
            {
              "internalType": "contract IERC20Vault",
              "name": "erc20Vault",
              "type": "address"
            },
            {
              "internalType": "contract IUniV3Vault",
              "name": "uniV3Vault",
              "type": "address"
            },
            {
              "internalType": "address",
              "name": "router",
              "type": "address"
            },
            {
              "internalType": "address[]",
              "name": "tokens",
              "type": "address[]"
            }
          ],
          "internalType": "struct PulseStrategyV2.ImmutableParams",
          "name": "immutableParams",
          "type": "tuple"
        },
        {
          "components": [
            {
              "internalType": "int24",
              "name": "priceImpactD6",
              "type": "int24"
            },
            {
              "internalType": "int24",
              "name": "defaultIntervalWidth",
              "type": "int24"
            },
            {
              "internalType": "int24",
              "name": "maxPositionLengthInTicks",
              "type": "int24"
            },
            {
              "internalType": "int24",
              "name": "maxDeviationForVaultPool",
              "type": "int24"
            },
            {
              "internalType": "uint32",
              "name": "timespanForAverageTick",
              "type": "uint32"
            },
            {
              "internalType": "uint256",
              "name": "neighborhoodFactorD",
              "type": "uint256"
            },
            {
              "internalType": "uint256",
              "name": "extensionFactorD",
              "type": "uint256"
            },
            {
              "internalType": "uint256",
              "name": "swapSlippageD",
              "type": "uint256"
            },
            {
              "internalType": "uint256",
              "name": "swappingAmountsCoefficientD",
              "type": "uint256"
            },
            {
              "internalType": "uint256[]",
              "name": "minSwapAmounts",
              "type": "uint256[]"
            }
          ],
          "internalType": "struct PulseStrategyV2.MutableParams",
          "name": "mutableParams",
          "type": "tuple"
        }
      ],
      "stateMutability": "view",
      "type": "function"
    }
  ],
  "bytecode": {
    "object": "0x608060405234801561001057600080fd5b50611b3d806100206000396000f3fe608060405234801561001057600080fd5b50600436106100415760003560e01c806340792465146100465780637b23e1bd14610064578063e6412b5c14610085575b600080fd5b610051600160601b81565b6040519081526020015b60405180910390f35b6100776100723660046112c9565b6100c7565b60405161005b9291906113d0565b6100986100933660046112c9565b6103a4565b604080519485526001600160a01b0393841660208601529183169184019190915216606082015260800161005b565b604080516080808201835260008083526020808401829052838501829052606080850181905285516101408101875283815291820183905294810182905280850182905291820181905260a0820181905260c0820181905260e08201819052610100820152610120810192909252906000806000856001600160a01b031663c8014d536040518163ffffffff1660e01b815260040160606040518083038186803b15801561017457600080fd5b505afa158015610188573d6000803e3d6000fd5b505050506040513d601f19601f820116820180604052508101906101ac9190611476565b9250925092506040518060800160405280846001600160a01b03168152602001836001600160a01b03168152602001826001600160a01b03168152602001846001600160a01b031663697222336040518163ffffffff1660e01b815260040160006040518083038186803b15801561022357600080fd5b505afa158015610237573d6000803e3d6000fd5b505050506040513d6000823e601f3d908101601f1916820160405261025f919081019061152e565b815250945050505060008060008060008060008060008b6001600160a01b0316635f408a216040518163ffffffff1660e01b81526004016101206040518083038186803b1580156102af57600080fd5b505afa1580156102c3573d6000803e3d6000fd5b505050506040513d601f19601f820116820180604052508101906102e791906115f3565b9850985098509850985098509850985098506040518061014001604052808a60020b81526020018960020b81526020018860020b81526020018760020b81526020018663ffffffff168152602001858152602001848152602001838152602001828152602001600267ffffffffffffffff811115610367576103676114c3565b604051908082528060200260200182016040528015610390578160200160208202803683370190505b508152509950505050505050505050915091565b6000806000806000806103b6876100c7565b91509150600082602001516001600160a01b03166316f0115b6040518163ffffffff1660e01b815260040160206040518083038186803b1580156103f957600080fd5b505afa15801561040d573d6000803e3d6000fd5b505050506040513d601f19601f82011682018060405250810190610431919061167f565b9050600080826001600160a01b0316633850c7bd6040518163ffffffff1660e01b815260040160e06040518083038186803b15801561046f57600080fd5b505afa158015610483573d6000803e3d6000fd5b505050506040513d601f19601f820116820180604052508101906104a791906116be565b505050505091509150846000015195506000806104db846001600160a01b0316856001600160a01b0316600160601b6108d8565b60408051600280825260608201835292935060009290916020830190803683370190505090506000808e6001600160a01b031663fe57ed618a888b8e602001516001600160a01b031663f4adc08b6040518163ffffffff1660e01b815260040160206040518083038186803b15801561055357600080fd5b505afa158015610567573d6000803e3d6000fd5b505050506040513d601f19601f8201168201806040525081019061058b919061174e565b6040518563ffffffff1660e01b81526004016105aa9493929190611767565b60606040518083038186803b1580156105c257600080fd5b505afa1580156105d6573d6000803e3d6000fd5b505050506040513d601f19601f820116820180604052508101906105fa91906117a2565b9150915080156106855789602001516001600160a01b031663e5328e066040518163ffffffff1660e01b815260040160006040518083038186803b15801561064157600080fd5b505afa158015610655573d6000803e3d6000fd5b505050506040513d6000823e601f3d908101601f1916820160405261067d9190810190611884565b5092506107b4565b6107778a602001516001600160a01b031663791b98bc6040518163ffffffff1660e01b815260040160206040518083038186803b1580156106c557600080fd5b505afa1580156106d9573d6000803e3d6000fd5b505050506040513d601f19601f820116820180604052508101906106fd919061167f565b8b602001516001600160a01b031663f4adc08b6040518163ffffffff1660e01b815260040160206040518083038186803b15801561073a57600080fd5b505afa15801561074e573d6000803e3d6000fd5b505050506040513d601f19601f82011682018060405250810190610772919061174e565b61098c565b8460008151811061078a5761078a6118e8565b60200260200101856001815181106107a4576107a46118e8565b6020908102919091010191909152525b8e6001600160a01b0316639bb37ba88389876040518463ffffffff1660e01b8152600401610813939291908351600290810b8252602094850151900b938101939093526001600160a01b03919091166040830152606082015260800190565b60206040518083038186803b15801561082b57600080fd5b505afa15801561083f573d6000803e3d6000fd5b505050506040513d601f19601f82011682018060405250810190610863919061174e565b945050506000610876848b858b86610acf565b809250819e50505088606001518181518110610894576108946118e8565b60200260200101519b50886060015181600118815181106108b7576108b76118e8565b60200260200101519a50886000015199505050505050505050509193509193565b600080806000198587098587029250828110838203039150508060001415610912576000841161090757600080fd5b508290049050610985565b80841161091e57600080fd5b6000848688096000868103871696879004966002600389028118808a02820302808a02820302808a02820302808a02820302808a02820302808a02909103029181900381900460010186841190950394909402919094039290920491909117919091029150505b9392505050565b6000806000806000806000806000806000808d6001600160a01b03166399fbab888e6040518263ffffffff1660e01b81526004016109cc91815260200190565b6101806040518083038186803b1580156109e557600080fd5b505afa1580156109f9573d6000803e3d6000fd5b505050506040513d601f19601f82011682018060405250810190610a1d9190611928565b6001600160801b03169b506001600160801b03169b509b509b509b509b509b509b509b509b505050610aba8e6040518061014001604052808d6001600160a01b031681526020018c6001600160a01b031681526020018b62ffffff1681526020018a60020b81526020018960020b8152602001886001600160801b0316815260200187815260200186815260200185815260200184815250610dbc565b9b509b50505050505050505050509250929050565b60008080610ae188600160601b611a1f565b90506000876001600160a01b031663e5328e066040518163ffffffff1660e01b815260040160006040518083038186803b158015610b1e57600080fd5b505afa158015610b32573d6000803e3d6000fd5b505050506040513d6000823e601f3d908101601f19168201604052610b5a9190810190611884565b50905060005b6002811015610bbe57858181518110610b7b57610b7b6118e8565b6020026020010151828281518110610b9557610b956118e8565b60200260200101818151610ba99190611a36565b90525080610bb681611a4e565b915050610b60565b506000610c3782600181518110610bd757610bd76118e8565b6020026020010151600160601b610c0d85600081518110610bfa57610bfa6118e8565b60200260200101518c600160601b6108d8565b85600181518110610c2057610c206118e8565b6020026020010151610c329190611a36565b6108d8565b90506000610c54600160601b896000015160020b620f42406108d8565b90508a821115610cfa57600194506000610c73600160601b808c6108d8565b9050610cf2610c9d8d86600081518110610c8f57610c8f6118e8565b6020026020010151846108d8565b610cc686600181518110610cb357610cb36118e8565b602002602001015188600160601b6108d8565b610cd09190611a1f565b600160601b610ce48f86600160601b6108d8565b610c3290600160601b611a1f565b965050610d70565b60009450610d6d610d268585600181518110610d1857610d186118e8565b60200260200101518c6108d8565b610d4f85600081518110610d3c57610d3c6118e8565b60200260200101518e600160601b6108d8565b610d599190611a1f565b600160601b610ce48785600160601b6108d8565b95505b828581518110610d8257610d826118e8565b6020026020010151861115610dae57828581518110610da357610da36118e8565b602002602001015195505b505050509550959350505050565b600080600080610e8b610e7c876001600160a01b031663c45a01556040518163ffffffff1660e01b815260040160206040518083038186803b158015610e0157600080fd5b505afa158015610e15573d6000803e3d6000fd5b505050506040513d601f19601f82011682018060405250810190610e39919061167f565b604051806060016040528089600001516001600160a01b0316815260200189602001516001600160a01b03168152602001896040015162ffffff16815250610eee565b86606001518760800151610fd7565b91509150846101000151610eb78660c0015184038760a001516001600160801b0316600160801b6108d8565b019350846101200151610ee28660e0015183038760a001516001600160801b0316600160801b6108d8565b01925050509250929050565b600081602001516001600160a01b031682600001516001600160a01b031610610f1657600080fd5b815160208084015160408086015181516001600160a01b0395861681860152949092168482015262ffffff90911660608085019190915281518085038201815260808501909252815191909201206001600160f81b031960a08401529085901b6bffffffffffffffffffffffff191660a183015260b58201527fe34f199b19b2b4f47f68442619d555527d244f78a3297ea89325f843f87b8b5460d582015260f50160408051601f1981840301815291905280516020909101209392505050565b6000806000856001600160a01b0316633850c7bd6040518163ffffffff1660e01b815260040160e06040518083038186803b15801561101557600080fd5b505afa158015611029573d6000803e3d6000fd5b505050506040513d601f19601f8201168201806040525081019061104d91906116be565b505060405163f30dba9360e01b815260028b900b60048201529395506000945084936001600160a01b038c16935063f30dba93925060240190506101006040518083038186803b1580156110a057600080fd5b505afa1580156110b4573d6000803e3d6000fd5b505050506040513d601f19601f820116820180604052508101906110d89190611a69565b505060405163f30dba9360e01b815260028d900b600482015293975091955060009450849350506001600160a01b038c169163f30dba9391506024016101006040518083038186803b15801561112d57600080fd5b505afa158015611141573d6000803e3d6000fd5b505050506040513d601f19601f820116820180604052508101906111659190611a69565b505050509350935050508860020b8560020b121561118c57818403965080830395506112a4565b8760020b8560020b12156112995760008a6001600160a01b031663f30583996040518163ffffffff1660e01b815260040160206040518083038186803b1580156111d557600080fd5b505afa1580156111e9573d6000803e3d6000fd5b505050506040513d601f19601f8201168201806040525081019061120d919061174e565b905060008b6001600160a01b031663461413196040518163ffffffff1660e01b815260040160206040518083038186803b15801561124a57600080fd5b505afa15801561125e573d6000803e3d6000fd5b505050506040513d601f19601f82011682018060405250810190611282919061174e565b9050838683030398508285820303975050506112a4565b838203965082810395505b5050505050935093915050565b6001600160a01b03811681146112c657600080fd5b50565b6000602082840312156112db57600080fd5b8135610985816112b1565b600081518084526020808501945080840160005b83811015611316578151875295820195908201906001016112fa565b509495945050505050565b805160020b825260006101406020830151611341602086018260020b9052565b506040830151611356604086018260020b9052565b50606083015161136b606086018260020b9052565b506080830151611383608086018263ffffffff169052565b5060a083015160a085015260c083015160c085015260e083015160e08501526101008084015181860152506101208084015182828701526113c6838701826112e6565b9695505050505050565b60408152600060c0820160018060a01b03808651166040850152602081818801511660608601528160408801511660808601526060870151608060a087015283815180865260e0880191508383019550600092505b8083101561144757855185168252948301946001929092019190830190611425565b50868103838801526114598189611321565b9998505050505050505050565b8051611471816112b1565b919050565b60008060006060848603121561148b57600080fd5b8351611496816112b1565b60208501519093506114a7816112b1565b60408501519092506114b8816112b1565b809150509250925092565b634e487b7160e01b600052604160045260246000fd5b604051601f8201601f1916810167ffffffffffffffff81118282101715611502576115026114c3565b604052919050565b600067ffffffffffffffff821115611524576115246114c3565b5060051b60200190565b6000602080838503121561154157600080fd5b825167ffffffffffffffff81111561155857600080fd5b8301601f8101851361156957600080fd5b805161157c6115778261150a565b6114d9565b81815260059190911b8201830190838101908783111561159b57600080fd5b928401925b828410156115c25783516115b3816112b1565b825292840192908401906115a0565b979650505050505050565b8051600281900b811461147157600080fd5b805163ffffffff8116811461147157600080fd5b60008060008060008060008060006101208a8c03121561161257600080fd5b61161b8a6115cd565b985061162960208b016115cd565b975061163760408b016115cd565b965061164560608b016115cd565b955061165360808b016115df565b945060a08a0151935060c08a0151925060e08a015191506101008a015190509295985092959850929598565b60006020828403121561169157600080fd5b8151610985816112b1565b805161ffff8116811461147157600080fd5b8051801515811461147157600080fd5b600080600080600080600060e0888a0312156116d957600080fd5b87516116e4816112b1565b96506116f2602089016115cd565b95506117006040890161169c565b945061170e6060890161169c565b935061171c6080890161169c565b925060a088015160ff8116811461173257600080fd5b915061174060c089016116ae565b905092959891949750929550565b60006020828403121561176057600080fd5b5051919050565b60808152600061177a6080830187611321565b60029590950b6020830152506001600160a01b03929092166040830152606090910152919050565b60008082840360608112156117b657600080fd5b60408112156117c457600080fd5b506040516040810181811067ffffffffffffffff821117156117e8576117e86114c3565b6040526117f4846115cd565b8152611802602085016115cd565b60208201529150611815604084016116ae565b90509250929050565b600082601f83011261182f57600080fd5b8151602061183f6115778361150a565b82815260059290921b8401810191818101908684111561185e57600080fd5b8286015b848110156118795780518352918301918301611862565b509695505050505050565b6000806040838503121561189757600080fd5b825167ffffffffffffffff808211156118af57600080fd5b6118bb8683870161181e565b935060208501519150808211156118d157600080fd5b506118de8582860161181e565b9150509250929050565b634e487b7160e01b600052603260045260246000fd5b805162ffffff8116811461147157600080fd5b80516001600160801b038116811461147157600080fd5b6000806000806000806000806000806000806101808d8f03121561194b57600080fd5b8c516bffffffffffffffffffffffff8116811461196757600080fd5b9b5061197560208e01611466565b9a5061198360408e01611466565b995061199160608e01611466565b985061199f60808e016118fe565b97506119ad60a08e016115cd565b96506119bb60c08e016115cd565b95506119c960e08e01611911565b94506101008d015193506101208d015192506119e86101408e01611911565b91506119f76101608e01611911565b90509295989b509295989b509295989b565b634e487b7160e01b600052601160045260246000fd5b600082821015611a3157611a31611a09565b500390565b60008219821115611a4957611a49611a09565b500190565b6000600019821415611a6257611a62611a09565b5060010190565b600080600080600080600080610100898b031215611a8657600080fd5b611a8f89611911565b9750602089015180600f0b8114611aa557600080fd5b80975050604089015195506060890151945060808901518060060b8114611acb57600080fd5b60a08a0151909450611adc816112b1565b9250611aea60c08a016115df565b9150611af860e08a016116ae565b9050929598509295989093965056fea2646970667358221220f19670948577db5717017250f7494a0879ed1b505ca22b1cc61a55385bc93bda64736f6c63430008090033",
    "linkReferences": {}
  },
  "methodIdentifiers": {
    "Q96()": "40792465",
    "calculateAmountForSwap(address)": "e6412b5c",
    "getStrategyParams(address)": "7b23e1bd"
  },
  "id": 429
}