{
  "abi": [
    {
      "inputs": [
        {
          "internalType": "contract IERC20Vault",
          "name": "erc20Vault_",
          "type": "address"
        },
        {
          "internalType": "address",
          "name": "subvault_",
          "type": "address"
        }
      ],
      "stateMutability": "nonpayable",
      "type": "constructor"
    },
    {
      "inputs": [],
      "name": "contractName",
      "outputs": [
        {
          "internalType": "string",
          "name": "",
          "type": "string"
        }
      ],
      "stateMutability": "pure",
      "type": "function"
    },
    {
      "inputs": [],
      "name": "contractNameBytes",
      "outputs": [
        {
          "internalType": "bytes32",
          "name": "",
          "type": "bytes32"
        }
      ],
      "stateMutability": "pure",
      "type": "function"
    },
    {
      "inputs": [],
      "name": "contractVersion",
      "outputs": [
        {
          "internalType": "string",
          "name": "",
          "type": "string"
        }
      ],
      "stateMutability": "pure",
      "type": "function"
    },
    {
      "inputs": [],
      "name": "contractVersionBytes",
      "outputs": [
        {
          "internalType": "bytes32",
          "name": "",
          "type": "bytes32"
        }
      ],
      "stateMutability": "pure",
      "type": "function"
    },
    {
      "inputs": [],
      "name": "depositCallback",
      "outputs": [],
      "stateMutability": "nonpayable",
      "type": "function"
    },
    {
      "inputs": [],
      "name": "erc20Vault",
      "outputs": [
        {
          "internalType": "contract IERC20Vault",
          "name": "",
          "type": "address"
        }
      ],
      "stateMutability": "view",
      "type": "function"
    },
    {
      "inputs": [],
      "name": "subvault",
      "outputs": [
        {
          "internalType": "address",
          "name": "",
          "type": "address"
        }
      ],
      "stateMutability": "view",
      "type": "function"
    },
    {
      "inputs": [],
      "name": "withdrawCallback",
      "outputs": [],
      "stateMutability": "nonpayable",
      "type": "function"
    }
  ],
  "bytecode": {
    "object": "0x60c060405234801561001057600080fd5b5060405161089d38038061089d83398101604081905261002f9161005e565b6001600160a01b039182166080521660a052610098565b6001600160a01b038116811461005b57600080fd5b50565b6000806040838503121561007157600080fd5b825161007c81610046565b602084015190925061008d81610046565b809150509250929050565b60805160a0516107c56100d860003960008181610127015261029f01526000818160af015281816101900152818161027001526102c001526107c56000f3fe608060405234801561001057600080fd5b50600436106100885760003560e01c8063a0a8e4601161005b578063a0a8e4601461011a578063b3ab252a14610122578063b4559f3e14610149578063e521826f1461014b57600080fd5b806306a462391461008d578063090f9221146100aa5780630e3e80ac146100e957806375d0c0dc14610105575b600080fd5b640312e302e360dc1b5b6040519081526020015b60405180910390f35b6100d17f000000000000000000000000000000000000000000000000000000000000000081565b6040516001600160a01b0390911681526020016100a1565b7253696e676c655661756c74537472617465677960681b610097565b61010d610158565b6040516100a19190610439565b61010d610179565b6100d17f000000000000000000000000000000000000000000000000000000000000000081565b005b61014961018c565b905090565b60606101537253696e676c655661756c74537472617465677960681b6103cd565b6060610153640312e302e360dc1b6103cd565b60007f00000000000000000000000000000000000000000000000000000000000000006001600160a01b031663e5328e066040518163ffffffff1660e01b815260040160006040518083038186803b1580156101e757600080fd5b505afa1580156101fb573d6000803e3d6000fd5b505050506040513d6000823e601f3d908101601f191682016040526102239190810190610564565b50905060008160008151811061023b5761023b6105c8565b60200260200101511180610269575060008160018151811061025f5761025f6105c8565b6020026020010151115b156103ca577f00000000000000000000000000000000000000000000000000000000000000006001600160a01b0316632062d7547f00000000000000000000000000000000000000000000000000000000000000007f00000000000000000000000000000000000000000000000000000000000000006001600160a01b031663697222336040518163ffffffff1660e01b815260040160006040518083038186803b15801561031757600080fd5b505afa15801561032b573d6000803e3d6000fd5b505050506040513d6000823e601f3d908101601f1916820160405261035391908101906105de565b846040518463ffffffff1660e01b815260040161037293929190610685565b600060405180830381600087803b15801561038c57600080fd5b505af11580156103a0573d6000803e3d6000fd5b505050506040513d6000823e601f3d908101601f191682016040526103c89190810190610729565b505b50565b604080516020808252818301909252606091602082018180368337019050509050602060005b602081101561042b5783816020811061040e5761040e6105c8565b1a61041b5780915061042b565b61042481610766565b90506103f3565b508152602081019190915290565b600060208083528351808285015260005b818110156104665785810183015185820160400152820161044a565b81811115610478576000604083870101525b50601f01601f1916929092016040019392505050565b634e487b7160e01b600052604160045260246000fd5b604051601f8201601f1916810167ffffffffffffffff811182821017156104cd576104cd61048e565b604052919050565b600067ffffffffffffffff8211156104ef576104ef61048e565b5060051b60200190565b600082601f83011261050a57600080fd5b8151602061051f61051a836104d5565b6104a4565b82815260059290921b8401810191818101908684111561053e57600080fd5b8286015b848110156105595780518352918301918301610542565b509695505050505050565b6000806040838503121561057757600080fd5b825167ffffffffffffffff8082111561058f57600080fd5b61059b868387016104f9565b935060208501519150808211156105b157600080fd5b506105be858286016104f9565b9150509250929050565b634e487b7160e01b600052603260045260246000fd5b600060208083850312156105f157600080fd5b825167ffffffffffffffff81111561060857600080fd5b8301601f8101851361061957600080fd5b805161062761051a826104d5565b81815260059190911b8201830190838101908783111561064657600080fd5b928401925b8284101561067a5783516001600160a01b038116811461066b5760008081fd5b8252928401929084019061064b565b979650505050505050565b6001600160a01b0384811682526080602080840182905285519184018290526000928682019290919060a0860190855b818110156106d35785518516835294830194918301916001016106b5565b5050858103604087015286518082529082019350915080860160005b8381101561070b578151855293820193908201906001016106ef565b50505050828103606084015260008152602081019695505050505050565b60006020828403121561073b57600080fd5b815167ffffffffffffffff81111561075257600080fd5b61075e848285016104f9565b949350505050565b600060001982141561078857634e487b7160e01b600052601160045260246000fd5b506001019056fea264697066735822122012609459d1700496cf43862bd95213b782db815782751f254caa28fcfe93601f64736f6c63430008090033",
    "linkReferences": {}
  },
  "methodIdentifiers": {
    "contractName()": "75d0c0dc",
    "contractNameBytes()": "0e3e80ac",
    "contractVersion()": "a0a8e460",
    "contractVersionBytes()": "06a46239",
    "depositCallback()": "e521826f",
    "erc20Vault()": "090f9221",
    "subvault()": "b3ab252a",
    "withdrawCallback()": "b4559f3e"
  },
  "id": 404
}