{
  "abi": [
    {
      "inputs": [
        {
          "components": [
            {
              "internalType": "contract IProtocolGovernance",
              "name": "protocolGovernance",
              "type": "address"
            },
            {
              "internalType": "contract IVaultRegistry",
              "name": "registry",
              "type": "address"
            },
            {
              "internalType": "contract IVault",
              "name": "singleton",
              "type": "address"
            }
          ],
          "internalType": "struct IVaultGovernance.InternalParams",
          "name": "internalParams_",
          "type": "tuple"
        },
        {
          "components": [
            {
              "internalType": "uint256",
              "name": "managementFeeChargeDelay",
              "type": "uint256"
            },
            {
              "internalType": "contract IOracle",
              "name": "oracle",
              "type": "address"
            }
          ],
          "internalType": "struct IERC20RetroRootVaultGovernance.DelayedProtocolParams",
          "name": "delayedProtocolParams_",
          "type": "tuple"
        },
        {
          "internalType": "contract IERC20RootVaultHelper",
          "name": "helper_",
          "type": "address"
        }
      ],
      "stateMutability": "nonpayable",
      "type": "constructor"
    },
    {
      "anonymous": false,
      "inputs": [
        {
          "indexed": true,
          "internalType": "address",
          "name": "origin",
          "type": "address"
        },
        {
          "indexed": true,
          "internalType": "address",
          "name": "sender",
          "type": "address"
        },
        {
          "components": [
            {
              "internalType": "uint256",
              "name": "managementFeeChargeDelay",
              "type": "uint256"
            },
            {
              "internalType": "contract IOracle",
              "name": "oracle",
              "type": "address"
            }
          ],
          "indexed": false,
          "internalType": "struct IERC20RetroRootVaultGovernance.DelayedProtocolParams",
          "name": "params",
          "type": "tuple"
        }
      ],
      "name": "CommitDelayedProtocolParams",
      "type": "event"
    },
    {
      "anonymous": false,
      "inputs": [
        {
          "indexed": true,
          "internalType": "address",
          "name": "origin",
          "type": "address"
        },
        {
          "indexed": true,
          "internalType": "address",
          "name": "sender",
          "type": "address"
        },
        {
          "indexed": true,
          "internalType": "uint256",
          "name": "nft",
          "type": "uint256"
        },
        {
          "components": [
            {
              "internalType": "uint256",
              "name": "protocolFee",
              "type": "uint256"
            }
          ],
          "indexed": false,
          "internalType": "struct IERC20RetroRootVaultGovernance.DelayedProtocolPerVaultParams",
          "name": "params",
          "type": "tuple"
        }
      ],
      "name": "CommitDelayedProtocolPerVaultParams",
      "type": "event"
    },
    {
      "anonymous": false,
      "inputs": [
        {
          "indexed": true,
          "internalType": "address",
          "name": "origin",
          "type": "address"
        },
        {
          "indexed": true,
          "internalType": "address",
          "name": "sender",
          "type": "address"
        },
        {
          "indexed": true,
          "internalType": "uint256",
          "name": "nft",
          "type": "uint256"
        },
        {
          "components": [
            {
              "internalType": "address",
              "name": "strategyTreasury",
              "type": "address"
            },
            {
              "internalType": "address",
              "name": "strategyPerformanceTreasury",
              "type": "address"
            },
            {
              "internalType": "bool",
              "name": "privateVault",
              "type": "bool"
            },
            {
              "internalType": "uint256",
              "name": "managementFee",
              "type": "uint256"
            },
            {
              "internalType": "uint256",
              "name": "performanceFee",
              "type": "uint256"
            },
            {
              "internalType": "address",
              "name": "depositCallbackAddress",
              "type": "address"
            },
            {
              "internalType": "address",
              "name": "withdrawCallbackAddress",
              "type": "address"
            }
          ],
          "indexed": false,
          "internalType": "struct IERC20RetroRootVaultGovernance.DelayedStrategyParams",
          "name": "params",
          "type": "tuple"
        }
      ],
      "name": "CommitDelayedStrategyParams",
      "type": "event"
    },
    {
      "anonymous": false,
      "inputs": [
        {
          "indexed": true,
          "internalType": "address",
          "name": "origin",
          "type": "address"
        },
        {
          "indexed": true,
          "internalType": "address",
          "name": "sender",
          "type": "address"
        },
        {
          "components": [
            {
              "internalType": "contract IProtocolGovernance",
              "name": "protocolGovernance",
              "type": "address"
            },
            {
              "internalType": "contract IVaultRegistry",
              "name": "registry",
              "type": "address"
            },
            {
              "internalType": "contract IVault",
              "name": "singleton",
              "type": "address"
            }
          ],
          "indexed": false,
          "internalType": "struct IVaultGovernance.InternalParams",
          "name": "params",
          "type": "tuple"
        }
      ],
      "name": "CommitedInternalParams",
      "type": "event"
    },
    {
      "anonymous": false,
      "inputs": [
        {
          "indexed": true,
          "internalType": "address",
          "name": "origin",
          "type": "address"
        },
        {
          "indexed": true,
          "internalType": "address",
          "name": "sender",
          "type": "address"
        },
        {
          "indexed": false,
          "internalType": "address[]",
          "name": "vaultTokens",
          "type": "address[]"
        },
        {
          "indexed": false,
          "internalType": "bytes",
          "name": "options",
          "type": "bytes"
        },
        {
          "indexed": false,
          "internalType": "address",
          "name": "owner",
          "type": "address"
        },
        {
          "indexed": false,
          "internalType": "address",
          "name": "vaultAddress",
          "type": "address"
        },
        {
          "indexed": false,
          "internalType": "uint256",
          "name": "vaultNft",
          "type": "uint256"
        }
      ],
      "name": "DeployedVault",
      "type": "event"
    },
    {
      "anonymous": false,
      "inputs": [
        {
          "indexed": true,
          "internalType": "address",
          "name": "origin",
          "type": "address"
        },
        {
          "indexed": true,
          "internalType": "address",
          "name": "sender",
          "type": "address"
        },
        {
          "components": [
            {
              "internalType": "bool",
              "name": "disableDeposit",
              "type": "bool"
            }
          ],
          "indexed": false,
          "internalType": "struct IERC20RetroRootVaultGovernance.OperatorParams",
          "name": "params",
          "type": "tuple"
        }
      ],
      "name": "SetOperatorParams",
      "type": "event"
    },
    {
      "anonymous": false,
      "inputs": [
        {
          "indexed": true,
          "internalType": "address",
          "name": "origin",
          "type": "address"
        },
        {
          "indexed": true,
          "internalType": "address",
          "name": "sender",
          "type": "address"
        },
        {
          "indexed": true,
          "internalType": "uint256",
          "name": "nft",
          "type": "uint256"
        },
        {
          "components": [
            {
              "internalType": "uint256",
              "name": "tokenLimitPerAddress",
              "type": "uint256"
            },
            {
              "internalType": "uint256",
              "name": "tokenLimit",
              "type": "uint256"
            }
          ],
          "indexed": false,
          "internalType": "struct IERC20RetroRootVaultGovernance.StrategyParams",
          "name": "params",
          "type": "tuple"
        }
      ],
      "name": "SetStrategyParams",
      "type": "event"
    },
    {
      "anonymous": false,
      "inputs": [
        {
          "indexed": true,
          "internalType": "address",
          "name": "origin",
          "type": "address"
        },
        {
          "indexed": true,
          "internalType": "address",
          "name": "sender",
          "type": "address"
        },
        {
          "components": [
            {
              "internalType": "uint256",
              "name": "managementFeeChargeDelay",
              "type": "uint256"
            },
            {
              "internalType": "contract IOracle",
              "name": "oracle",
              "type": "address"
            }
          ],
          "indexed": false,
          "internalType": "struct IERC20RetroRootVaultGovernance.DelayedProtocolParams",
          "name": "params",
          "type": "tuple"
        },
        {
          "indexed": false,
          "internalType": "uint256",
          "name": "when",
          "type": "uint256"
        }
      ],
      "name": "StageDelayedProtocolParams",
      "type": "event"
    },
    {
      "anonymous": false,
      "inputs": [
        {
          "indexed": true,
          "internalType": "address",
          "name": "origin",
          "type": "address"
        },
        {
          "indexed": true,
          "internalType": "address",
          "name": "sender",
          "type": "address"
        },
        {
          "indexed": true,
          "internalType": "uint256",
          "name": "nft",
          "type": "uint256"
        },
        {
          "components": [
            {
              "internalType": "uint256",
              "name": "protocolFee",
              "type": "uint256"
            }
          ],
          "indexed": false,
          "internalType": "struct IERC20RetroRootVaultGovernance.DelayedProtocolPerVaultParams",
          "name": "params",
          "type": "tuple"
        },
        {
          "indexed": false,
          "internalType": "uint256",
          "name": "when",
          "type": "uint256"
        }
      ],
      "name": "StageDelayedProtocolPerVaultParams",
      "type": "event"
    },
    {
      "anonymous": false,
      "inputs": [
        {
          "indexed": true,
          "internalType": "address",
          "name": "origin",
          "type": "address"
        },
        {
          "indexed": true,
          "internalType": "address",
          "name": "sender",
          "type": "address"
        },
        {
          "indexed": true,
          "internalType": "uint256",
          "name": "nft",
          "type": "uint256"
        },
        {
          "components": [
            {
              "internalType": "address",
              "name": "strategyTreasury",
              "type": "address"
            },
            {
              "internalType": "address",
              "name": "strategyPerformanceTreasury",
              "type": "address"
            },
            {
              "internalType": "bool",
              "name": "privateVault",
              "type": "bool"
            },
            {
              "internalType": "uint256",
              "name": "managementFee",
              "type": "uint256"
            },
            {
              "internalType": "uint256",
              "name": "performanceFee",
              "type": "uint256"
            },
            {
              "internalType": "address",
              "name": "depositCallbackAddress",
              "type": "address"
            },
            {
              "internalType": "address",
              "name": "withdrawCallbackAddress",
              "type": "address"
            }
          ],
          "indexed": false,
          "internalType": "struct IERC20RetroRootVaultGovernance.DelayedStrategyParams",
          "name": "params",
          "type": "tuple"
        },
        {
          "indexed": false,
          "internalType": "uint256",
          "name": "when",
          "type": "uint256"
        }
      ],
      "name": "StageDelayedStrategyParams",
      "type": "event"
    },
    {
      "anonymous": false,
      "inputs": [
        {
          "indexed": true,
          "internalType": "address",
          "name": "origin",
          "type": "address"
        },
        {
          "indexed": true,
          "internalType": "address",
          "name": "sender",
          "type": "address"
        },
        {
          "components": [
            {
              "internalType": "contract IProtocolGovernance",
              "name": "protocolGovernance",
              "type": "address"
            },
            {
              "internalType": "contract IVaultRegistry",
              "name": "registry",
              "type": "address"
            },
            {
              "internalType": "contract IVault",
              "name": "singleton",
              "type": "address"
            }
          ],
          "indexed": false,
          "internalType": "struct IVaultGovernance.InternalParams",
          "name": "params",
          "type": "tuple"
        },
        {
          "indexed": false,
          "internalType": "uint256",
          "name": "when",
          "type": "uint256"
        }
      ],
      "name": "StagedInternalParams",
      "type": "event"
    },
    {
      "inputs": [],
      "name": "MAX_MANAGEMENT_FEE",
      "outputs": [
        {
          "internalType": "uint256",
          "name": "",
          "type": "uint256"
        }
      ],
      "stateMutability": "view",
      "type": "function"
    },
    {
      "inputs": [],
      "name": "MAX_PERFORMANCE_FEE",
      "outputs": [
        {
          "internalType": "uint256",
          "name": "",
          "type": "uint256"
        }
      ],
      "stateMutability": "view",
      "type": "function"
    },
    {
      "inputs": [],
      "name": "MAX_PROTOCOL_FEE",
      "outputs": [
        {
          "internalType": "uint256",
          "name": "",
          "type": "uint256"
        }
      ],
      "stateMutability": "view",
      "type": "function"
    },
    {
      "inputs": [],
      "name": "commitDelayedProtocolParams",
      "outputs": [],
      "stateMutability": "nonpayable",
      "type": "function"
    },
    {
      "inputs": [
        {
          "internalType": "uint256",
          "name": "nft",
          "type": "uint256"
        }
      ],
      "name": "commitDelayedProtocolPerVaultParams",
      "outputs": [],
      "stateMutability": "nonpayable",
      "type": "function"
    },
    {
      "inputs": [
        {
          "internalType": "uint256",
          "name": "nft",
          "type": "uint256"
        }
      ],
      "name": "commitDelayedStrategyParams",
      "outputs": [],
      "stateMutability": "nonpayable",
      "type": "function"
    },
    {
      "inputs": [],
      "name": "commitInternalParams",
      "outputs": [],
      "stateMutability": "nonpayable",
      "type": "function"
    },
    {
      "inputs": [],
      "name": "contractName",
      "outputs": [
        {
          "internalType": "string",
          "name": "",
          "type": "string"
        }
      ],
      "stateMutability": "pure",
      "type": "function"
    },
    {
      "inputs": [],
      "name": "contractNameBytes",
      "outputs": [
        {
          "internalType": "bytes32",
          "name": "",
          "type": "bytes32"
        }
      ],
      "stateMutability": "pure",
      "type": "function"
    },
    {
      "inputs": [],
      "name": "contractVersion",
      "outputs": [
        {
          "internalType": "string",
          "name": "",
          "type": "string"
        }
      ],
      "stateMutability": "pure",
      "type": "function"
    },
    {
      "inputs": [],
      "name": "contractVersionBytes",
      "outputs": [
        {
          "internalType": "bytes32",
          "name": "",
          "type": "bytes32"
        }
      ],
      "stateMutability": "pure",
      "type": "function"
    },
    {
      "inputs": [
        {
          "internalType": "address[]",
          "name": "vaultTokens_",
          "type": "address[]"
        },
        {
          "internalType": "address",
          "name": "strategy_",
          "type": "address"
        },
        {
          "internalType": "uint256[]",
          "name": "subvaultNfts_",
          "type": "uint256[]"
        },
        {
          "internalType": "address",
          "name": "owner_",
          "type": "address"
        }
      ],
      "name": "createVault",
      "outputs": [
        {
          "internalType": "contract IERC20RetroRootVault",
          "name": "vault",
          "type": "address"
        },
        {
          "internalType": "uint256",
          "name": "nft",
          "type": "uint256"
        }
      ],
      "stateMutability": "nonpayable",
      "type": "function"
    },
    {
      "inputs": [],
      "name": "delayedProtocolParams",
      "outputs": [
        {
          "components": [
            {
              "internalType": "uint256",
              "name": "managementFeeChargeDelay",
              "type": "uint256"
            },
            {
              "internalType": "contract IOracle",
              "name": "oracle",
              "type": "address"
            }
          ],
          "internalType": "struct IERC20RetroRootVaultGovernance.DelayedProtocolParams",
          "name": "",
          "type": "tuple"
        }
      ],
      "stateMutability": "view",
      "type": "function"
    },
    {
      "inputs": [],
      "name": "delayedProtocolParamsTimestamp",
      "outputs": [
        {
          "internalType": "uint256",
          "name": "",
          "type": "uint256"
        }
      ],
      "stateMutability": "view",
      "type": "function"
    },
    {
      "inputs": [
        {
          "internalType": "uint256",
          "name": "nft",
          "type": "uint256"
        }
      ],
      "name": "delayedProtocolPerVaultParams",
      "outputs": [
        {
          "components": [
            {
              "internalType": "uint256",
              "name": "protocolFee",
              "type": "uint256"
            }
          ],
          "internalType": "struct IERC20RetroRootVaultGovernance.DelayedProtocolPerVaultParams",
          "name": "",
          "type": "tuple"
        }
      ],
      "stateMutability": "view",
      "type": "function"
    },
    {
      "inputs": [
        {
          "internalType": "uint256",
          "name": "nft",
          "type": "uint256"
        }
      ],
      "name": "delayedProtocolPerVaultParamsTimestamp",
      "outputs": [
        {
          "internalType": "uint256",
          "name": "",
          "type": "uint256"
        }
      ],
      "stateMutability": "view",
      "type": "function"
    },
    {
      "inputs": [
        {
          "internalType": "uint256",
          "name": "nft",
          "type": "uint256"
        }
      ],
      "name": "delayedStrategyParams",
      "outputs": [
        {
          "components": [
            {
              "internalType": "address",
              "name": "strategyTreasury",
              "type": "address"
            },
            {
              "internalType": "address",
              "name": "strategyPerformanceTreasury",
              "type": "address"
            },
            {
              "internalType": "bool",
              "name": "privateVault",
              "type": "bool"
            },
            {
              "internalType": "uint256",
              "name": "managementFee",
              "type": "uint256"
            },
            {
              "internalType": "uint256",
              "name": "performanceFee",
              "type": "uint256"
            },
            {
              "internalType": "address",
              "name": "depositCallbackAddress",
              "type": "address"
            },
            {
              "internalType": "address",
              "name": "withdrawCallbackAddress",
              "type": "address"
            }
          ],
          "internalType": "struct IERC20RetroRootVaultGovernance.DelayedStrategyParams",
          "name": "",
          "type": "tuple"
        }
      ],
      "stateMutability": "view",
      "type": "function"
    },
    {
      "inputs": [
        {
          "internalType": "uint256",
          "name": "nft",
          "type": "uint256"
        }
      ],
      "name": "delayedStrategyParamsTimestamp",
      "outputs": [
        {
          "internalType": "uint256",
          "name": "",
          "type": "uint256"
        }
      ],
      "stateMutability": "view",
      "type": "function"
    },
    {
      "inputs": [],
      "name": "helper",
      "outputs": [
        {
          "internalType": "contract IERC20RootVaultHelper",
          "name": "",
          "type": "address"
        }
      ],
      "stateMutability": "view",
      "type": "function"
    },
    {
      "inputs": [],
      "name": "internalParams",
      "outputs": [
        {
          "components": [
            {
              "internalType": "contract IProtocolGovernance",
              "name": "protocolGovernance",
              "type": "address"
            },
            {
              "internalType": "contract IVaultRegistry",
              "name": "registry",
              "type": "address"
            },
            {
              "internalType": "contract IVault",
              "name": "singleton",
              "type": "address"
            }
          ],
          "internalType": "struct IVaultGovernance.InternalParams",
          "name": "",
          "type": "tuple"
        }
      ],
      "stateMutability": "view",
      "type": "function"
    },
    {
      "inputs": [],
      "name": "internalParamsTimestamp",
      "outputs": [
        {
          "internalType": "uint256",
          "name": "",
          "type": "uint256"
        }
      ],
      "stateMutability": "view",
      "type": "function"
    },
    {
      "inputs": [],
      "name": "operatorParams",
      "outputs": [
        {
          "components": [
            {
              "internalType": "bool",
              "name": "disableDeposit",
              "type": "bool"
            }
          ],
          "internalType": "struct IERC20RetroRootVaultGovernance.OperatorParams",
          "name": "",
          "type": "tuple"
        }
      ],
      "stateMutability": "view",
      "type": "function"
    },
    {
      "inputs": [
        {
          "components": [
            {
              "internalType": "bool",
              "name": "disableDeposit",
              "type": "bool"
            }
          ],
          "internalType": "struct IERC20RetroRootVaultGovernance.OperatorParams",
          "name": "params",
          "type": "tuple"
        }
      ],
      "name": "setOperatorParams",
      "outputs": [],
      "stateMutability": "nonpayable",
      "type": "function"
    },
    {
      "inputs": [
        {
          "internalType": "uint256",
          "name": "nft",
          "type": "uint256"
        },
        {
          "components": [
            {
              "internalType": "uint256",
              "name": "tokenLimitPerAddress",
              "type": "uint256"
            },
            {
              "internalType": "uint256",
              "name": "tokenLimit",
              "type": "uint256"
            }
          ],
          "internalType": "struct IERC20RetroRootVaultGovernance.StrategyParams",
          "name": "params",
          "type": "tuple"
        }
      ],
      "name": "setStrategyParams",
      "outputs": [],
      "stateMutability": "nonpayable",
      "type": "function"
    },
    {
      "inputs": [
        {
          "components": [
            {
              "internalType": "uint256",
              "name": "managementFeeChargeDelay",
              "type": "uint256"
            },
            {
              "internalType": "contract IOracle",
              "name": "oracle",
              "type": "address"
            }
          ],
          "internalType": "struct IERC20RetroRootVaultGovernance.DelayedProtocolParams",
          "name": "params",
          "type": "tuple"
        }
      ],
      "name": "stageDelayedProtocolParams",
      "outputs": [],
      "stateMutability": "nonpayable",
      "type": "function"
    },
    {
      "inputs": [
        {
          "internalType": "uint256",
          "name": "nft",
          "type": "uint256"
        },
        {
          "components": [
            {
              "internalType": "uint256",
              "name": "protocolFee",
              "type": "uint256"
            }
          ],
          "internalType": "struct IERC20RetroRootVaultGovernance.DelayedProtocolPerVaultParams",
          "name": "params",
          "type": "tuple"
        }
      ],
      "name": "stageDelayedProtocolPerVaultParams",
      "outputs": [],
      "stateMutability": "nonpayable",
      "type": "function"
    },
    {
      "inputs": [
        {
          "internalType": "uint256",
          "name": "nft",
          "type": "uint256"
        },
        {
          "components": [
            {
              "internalType": "address",
              "name": "strategyTreasury",
              "type": "address"
            },
            {
              "internalType": "address",
              "name": "strategyPerformanceTreasury",
              "type": "address"
            },
            {
              "internalType": "bool",
              "name": "privateVault",
              "type": "bool"
            },
            {
              "internalType": "uint256",
              "name": "managementFee",
              "type": "uint256"
            },
            {
              "internalType": "uint256",
              "name": "performanceFee",
              "type": "uint256"
            },
            {
              "internalType": "address",
              "name": "depositCallbackAddress",
              "type": "address"
            },
            {
              "internalType": "address",
              "name": "withdrawCallbackAddress",
              "type": "address"
            }
          ],
          "internalType": "struct IERC20RetroRootVaultGovernance.DelayedStrategyParams",
          "name": "params",
          "type": "tuple"
        }
      ],
      "name": "stageDelayedStrategyParams",
      "outputs": [],
      "stateMutability": "nonpayable",
      "type": "function"
    },
    {
      "inputs": [
        {
          "components": [
            {
              "internalType": "contract IProtocolGovernance",
              "name": "protocolGovernance",
              "type": "address"
            },
            {
              "internalType": "contract IVaultRegistry",
              "name": "registry",
              "type": "address"
            },
            {
              "internalType": "contract IVault",
              "name": "singleton",
              "type": "address"
            }
          ],
          "internalType": "struct IVaultGovernance.InternalParams",
          "name": "newParams",
          "type": "tuple"
        }
      ],
      "name": "stageInternalParams",
      "outputs": [],
      "stateMutability": "nonpayable",
      "type": "function"
    },
    {
      "inputs": [],
      "name": "stagedDelayedProtocolParams",
      "outputs": [
        {
          "components": [
            {
              "internalType": "uint256",
              "name": "managementFeeChargeDelay",
              "type": "uint256"
            },
            {
              "internalType": "contract IOracle",
              "name": "oracle",
              "type": "address"
            }
          ],
          "internalType": "struct IERC20RetroRootVaultGovernance.DelayedProtocolParams",
          "name": "",
          "type": "tuple"
        }
      ],
      "stateMutability": "view",
      "type": "function"
    },
    {
      "inputs": [
        {
          "internalType": "uint256",
          "name": "nft",
          "type": "uint256"
        }
      ],
      "name": "stagedDelayedProtocolPerVaultParams",
      "outputs": [
        {
          "components": [
            {
              "internalType": "uint256",
              "name": "protocolFee",
              "type": "uint256"
            }
          ],
          "internalType": "struct IERC20RetroRootVaultGovernance.DelayedProtocolPerVaultParams",
          "name": "",
          "type": "tuple"
        }
      ],
      "stateMutability": "view",
      "type": "function"
    },
    {
      "inputs": [
        {
          "internalType": "uint256",
          "name": "nft",
          "type": "uint256"
        }
      ],
      "name": "stagedDelayedStrategyParams",
      "outputs": [
        {
          "components": [
            {
              "internalType": "address",
              "name": "strategyTreasury",
              "type": "address"
            },
            {
              "internalType": "address",
              "name": "strategyPerformanceTreasury",
              "type": "address"
            },
            {
              "internalType": "bool",
              "name": "privateVault",
              "type": "bool"
            },
            {
              "internalType": "uint256",
              "name": "managementFee",
              "type": "uint256"
            },
            {
              "internalType": "uint256",
              "name": "performanceFee",
              "type": "uint256"
            },
            {
              "internalType": "address",
              "name": "depositCallbackAddress",
              "type": "address"
            },
            {
              "internalType": "address",
              "name": "withdrawCallbackAddress",
              "type": "address"
            }
          ],
          "internalType": "struct IERC20RetroRootVaultGovernance.DelayedStrategyParams",
          "name": "",
          "type": "tuple"
        }
      ],
      "stateMutability": "view",
      "type": "function"
    },
    {
      "inputs": [],
      "name": "stagedInternalParams",
      "outputs": [
        {
          "components": [
            {
              "internalType": "contract IProtocolGovernance",
              "name": "protocolGovernance",
              "type": "address"
            },
            {
              "internalType": "contract IVaultRegistry",
              "name": "registry",
              "type": "address"
            },
            {
              "internalType": "contract IVault",
              "name": "singleton",
              "type": "address"
            }
          ],
          "internalType": "struct IVaultGovernance.InternalParams",
          "name": "",
          "type": "tuple"
        }
      ],
      "stateMutability": "view",
      "type": "function"
    },
    {
      "inputs": [
        {
          "internalType": "uint256",
          "name": "nft",
          "type": "uint256"
        }
      ],
      "name": "strategyParams",
      "outputs": [
        {
          "components": [
            {
              "internalType": "uint256",
              "name": "tokenLimitPerAddress",
              "type": "uint256"
            },
            {
              "internalType": "uint256",
              "name": "tokenLimit",
              "type": "uint256"
            }
          ],
          "internalType": "struct IERC20RetroRootVaultGovernance.StrategyParams",
          "name": "",
          "type": "tuple"
        }
      ],
      "stateMutability": "view",
      "type": "function"
    },
    {
      "inputs": [
        {
          "internalType": "bytes4",
          "name": "interfaceId",
          "type": "bytes4"
        }
      ],
      "name": "supportsInterface",
      "outputs": [
        {
          "internalType": "bool",
          "name": "",
          "type": "bool"
        }
      ],
      "stateMutability": "view",
      "type": "function"
    }
  ],
  "bytecode": {
    "object": "0x60a06040523480156200001157600080fd5b506040516200399e3803806200399e833981016040819052620000349162000379565b825160408051808201909152600281526120ad60f11b602082015284916001600160a01b0316620000835760405162461bcd60e51b81526004016200007a91906200043a565b60405180910390fd5b5060006001600160a01b031681602001516001600160a01b031614156040518060400160405280600281526020016120ad60f11b81525090620000db5760405162461bcd60e51b81526004016200007a91906200043a565b506040808201518151808301909252600282526120ad60f11b60208301526001600160a01b0316620001225760405162461bcd60e51b81526004016200007a91906200043a565b508051600080546001600160a01b03199081166001600160a01b0393841617909155602080840151600180548416918516919091179055604093840151600280549093169084161782558581015184518086019095529184526120ad60f11b9084015216620001a65760405162461bcd60e51b81526004016200007a91906200043a565b5060408051808201909152600281526120ad60f11b60208201526001600160a01b038216620001ea5760405162461bcd60e51b81526004016200007a91906200043a565b506001600160a01b038181166080526040805184516020808301919091528086015190931681830152815180820383018152606090910190915280516200023692600d92019062000240565b50505050620004cf565b8280546200024e9062000492565b90600052602060002090601f016020900481019282620002725760008555620002bd565b82601f106200028d57805160ff1916838001178555620002bd565b82800160010185558215620002bd579182015b82811115620002bd578251825591602001919060010190620002a0565b50620002cb929150620002cf565b5090565b5b80821115620002cb5760008155600101620002d0565b604051606081016001600160401b03811182821017156200031757634e487b7160e01b600052604160045260246000fd5b60405290565b604080519081016001600160401b03811182821017156200031757634e487b7160e01b600052604160045260246000fd5b6001600160a01b03811681146200036457600080fd5b50565b805162000374816200034e565b919050565b600080600083850360c08112156200039057600080fd5b60608112156200039f57600080fd5b620003a9620002e6565b8551620003b6816200034e565b81526020860151620003c8816200034e565b60208201526040860151620003dd816200034e565b604082810191909152909450605f1982011215620003fa57600080fd5b50620004056200031d565b6060850151815260808501516200041c816200034e565b602082015291506200043160a0850162000367565b90509250925092565b600060208083528351808285015260005b8181101562000469578581018301518582016040015282016200044b565b818111156200047c576000604083870101525b50601f01601f1916929092016040019392505050565b600181811c90821680620004a757607f821691505b60208210811415620004c957634e487b7160e01b600052602260045260246000fd5b50919050565b6080516134ac620004f26000396000818161034d0152611c2f01526134ac6000f3fe608060405234801561001057600080fd5b50600436106102065760003560e01c80638860d2481161011a578063c2cbdc67116100ad578063db2030aa1161007c578063db2030aa14610537578063dbb1c35f14610550578063e4af6e7914610563578063ee2d59f41461056b578063f699a6071461057e57600080fd5b8063c2cbdc67146104e8578063c8e8a76614610514578063d34cc38014610527578063d4a07d341461052f57600080fd5b8063a0a8e460116100e9578063a0a8e460146104b7578063afd2c7e9146104bf578063b8ca3b83146104d2578063bdca9165146104dd57600080fd5b80638860d2481461046f5780638e207dda1461048257806398347a5d146104a45780639908840c146104ac57600080fd5b80633d8c08b91161019d57806363b0e66a1161016c57806363b0e66a146103485780636707acee1461038757806375d0c0dc146103a75780637ac46fbb146103bc57806386c6be3e1461041c57600080fd5b80633d8c08b9146102e2578063511ce798146102f557806359331d781461031557806359f3dae71461032857600080fd5b80630e3e80ac116101d95780630e3e80ac1461027357806312466b68146102995780631c7f4c73146102c7578063221cc263146102cf57600080fd5b806301ffc9a71461020b57806306a4623914610233578063099465381461024b5780630bdedd5614610260575b600080fd5b61021e610219366004612a6a565b6105b0565b60405190151581526020015b60405180910390f35b640312e302e360dc1b5b60405190815260200161022a565b61025e610259366004612b43565b6105e1565b005b61025e61026e366004612bb5565b6107d3565b7f4552433230526574726f526f6f745661756c74476f7665726e616e636500000061023d565b6102ac6102a7366004612bb5565b6108c6565b6040805182518152602092830151928101929092520161022a565b60065461023d565b61025e6102dd366004612bce565b6109be565b61025e6102f0366004612c1f565b610ac3565b61023d610303366004612bb5565b6000908152600c602052604090205490565b61025e610323366004612c4d565b610b7a565b61033b610336366004612bb5565b610c33565b60405161022a9190612c7a565b61036f7f000000000000000000000000000000000000000000000000000000000000000081565b6040516001600160a01b03909116815260200161022a565b61023d610395366004612bb5565b60009081526009602052604090205490565b6103af610d75565b60405161022a9190612cd5565b61040f604080516060810182526000808252602082018190529181019190915250604080516060810182526000546001600160a01b03908116825260015481166020830152600254169181019190915290565b60405161022a9190612d2a565b61040f604080516060810182526000808252602082018190529181019190915250604080516060810182526003546001600160a01b03908116825260045481166020830152600554169181019190915290565b61033b61047d366004612bb5565b610da0565b610495610490366004612bb5565b610e51565b6040519051815260200161022a565b61025e610f3f565b61023d6305f5e10081565b6103af611044565b61025e6104cd366004612d5a565b611057565b61023d6302faf08081565b61023d631dcd650081565b6104f06110d2565b60408051825181526020928301516001600160a01b0316928101929092520161022a565b61025e610522366004612d7e565b6111b1565b6104f061120d565b61025e61122e565b61053f611353565b60405190511515815260200161022a565b61049561055e366004612bb5565b611428565b600f5461023d565b61025e610579366004612bb5565b611485565b61059161058c366004612e39565b61156f565b604080516001600160a01b03909316835260208301919091520161022a565b60006105bb82611c98565b806105d657506306a2c33360e41b6001600160e01b03198316145b92915050565b905090565b6105e9611cce565b805160408051808201909152600281526120ad60f11b6020820152906001600160a01b03166106345760405162461bcd60e51b815260040161062b9190612cd5565b60405180910390fd5b5060006001600160a01b031681602001516001600160a01b031614156040518060400160405280600281526020016120ad60f11b815250906106895760405162461bcd60e51b815260040161062b9190612cd5565b506040808201518151808301909252600282526120ad60f11b60208301526001600160a01b03166106cd5760405162461bcd60e51b815260040161062b9190612cd5565b508051600380546001600160a01b03199081166001600160a01b03938416179091556020808401516004805484169185169190911781556040808601516005805490951690861617909355600054835163bba3293960e01b8152935194169363bba3293993808301939290829003018186803b15801561074c57600080fd5b505afa158015610760573d6000803e3d6000fd5b505050506040513d601f19601f820116820180604052508101906107849190612f1f565b61078e9042612f4e565b6006819055604051339132917f0887cab3184f7c02b16978ab31f8acee05979f59fc3da6abe5bf71105ec3179d916107c891869190612f66565b60405180910390a350565b6107dc81611d86565b600081815260076020526040902080548291339132917fece5c2f5548f6b356ee66c404a736c4a1393d2d7f339f1b11325ccf9ed7da3bb9161081d90612fa3565b80601f016020809104026020016040519081016040528092919081815260200182805461084990612fa3565b80156108965780601f1061086b57610100808354040283529160200191610896565b820191906000526020600020905b81548152906001019060200180831161087957829003601f168201915b50505050508060200190518101906108ae9190612ff1565b6040516108bb9190612c7a565b60405180910390a450565b6040805180820190915260008082526020820152600082815260106020526040902080546108f390612fa3565b15159050610914575050604080518082019091526000808252602082015290565b6000828152601060205260409020805461092d90612fa3565b80601f016020809104026020016040519081016040528092919081815260200182805461095990612fa3565b80156109a65780601f1061097b576101008083540402835291602001916109a6565b820191906000526020600020905b81548152906001019060200180831161098957829003601f168201915b50505050508060200190518101906105d6919061309d565b6040805180820190915260048152634c494d4f60e01b60208201526305f5e10060608301351115610a025760405162461bcd60e51b815260040161062b9190612cd5565b506040805180820190915260048152634c494d4f60e01b6020820152631dcd650060808301351115610a475760405162461bcd60e51b815260040161062b9190612cd5565b50610a718282604051602001610a5d919061315e565b604051602081830303815290604052611e77565b600082815260096020526040908190205490518391339132917f92bc1d5a0a50d53c2c8b67ee363258770588cb71b912dc79c9193e57a3559cef91610ab791879161316c565b60405180910390a45050565b6000610ad56040830160208401613188565b6001600160a01b031614156040518060400160405280600281526020016120ad60f11b81525090610b195760405162461bcd60e51b815260040161062b9190612cd5565b50610b4281604051602001610b2e91906131cd565b604051602081830303815290604052611f83565b600f54604051339132917f5893284b3bc8dc03f4a5b1fc07b4ffa5a43c8db93e0d265da78879b701c9352c916107c8918691906131db565b6040805180820190915260048152634c494d4f60e01b60208201526302faf08082351115610bbb5760405162461bcd60e51b815260040161062b9190612cd5565b50610be88282604051602001610bd49135815260200190565b60405160208183030381529060405261205e565b60008281526009602090815260409182902054825184358152918201528391339132917fcd7599c34365da52fcd641b487f51044152e43bf05893c1ef6d2a2259de7252a9101610ab7565b6040805160e081018252600080825260208201819052918101829052606081018290526080810182905260a0810182905260c081019190915260008281526008602052604090208054610c8590612fa3565b15159050610ccb5750506040805160e081018252600080825260208201819052918101829052606081018290526080810182905260a0810182905260c081019190915290565b60008281526008602052604090208054610ce490612fa3565b80601f0160208091040260200160405190810160405280929190818152602001828054610d1090612fa3565b8015610d5d5780601f10610d3257610100808354040283529160200191610d5d565b820191906000526020600020905b815481529060010190602001808311610d4057829003601f168201915b50505050508060200190518101906105d69190612ff1565b60606105dc7f4552433230526574726f526f6f745661756c74476f7665726e616e6365000000612169565b6040805160e081018252600080825260208201819052918101829052606081018290526080810182905260a0810182905260c081019190915260008281526007602052604090208054610df290612fa3565b15159050610e385750506040805160e081018252600080825260208201819052918101829052606081018290526080810182905260a0810182905260c081019190915290565b60008281526007602052604090208054610ce490612fa3565b6040805160208101909152600081526000828152600b602052604090208054610e7990612fa3565b15159050610e9557505060408051602081019091526000815290565b6000828152600b602052604090208054610eae90612fa3565b80601f0160208091040260200160405190810160405280929190818152602001828054610eda90612fa3565b8015610f275780601f10610efc57610100808354040283529160200191610f27565b820191906000526020600020905b815481529060010190602001808311610f0a57829003601f168201915b50505050508060200190518101906105d691906131f6565b610f476121d5565b336001600160a01b0316326001600160a01b03167f862320404e037e2174ac01f6e43fc8b06acda312b671b182dcbe75b50ebd8552600d8054610f8990612fa3565b80601f0160208091040260200160405190810160405280929190818152602001828054610fb590612fa3565b80156110025780601f10610fd757610100808354040283529160200191611002565b820191906000526020600020905b815481529060010190602001808311610fe557829003601f168201915b505050505080602001905181019061101a919061321a565b60408051825181526020928301516001600160a01b031692810192909252015b60405180910390a3565b60606105dc640312e302e360dc1b612169565b611092828260405160200161107e9190813581526020918201359181019190915260400190565b604051602081830303815290604052612289565b6040805182358152602080840135908201528391339132917f0b53196f4acc3a02d05123ed8bfe722836dbafff5ca4ce33e7e974117cfb72509101610ab7565b6040805180820190915260008082526020820152600e80546110f390612fa3565b151590506111135750604080518082019091526000808252602082015290565b600e805461112090612fa3565b80601f016020809104026020016040519081016040528092919081815260200182805461114c90612fa3565b80156111995780601f1061116e57610100808354040283529160200191611199565b820191906000526020600020905b81548152906001019060200180831161117c57829003601f168201915b50505050508060200190518101906105dc919061321a565b6111d9816040516020016111c59190613252565b6040516020818303038152906040526122b6565b604051339032907f87b5b7afdaff1296d279be13a11697acc1b85af123290db06b274bd3823e3c8b906107c8908590613252565b6040805180820190915260008082526020820152600d805461112090612fa3565b611236611cce565b6006546040805180820190915260048152631395531360e21b6020820152906112725760405162461bcd60e51b815260040161062b9190612cd5565b5060065442101560405180604001604052806002815260200161545360f01b815250906112b25760405162461bcd60e51b815260040161062b9190612cd5565b5060038054600080546001600160a01b038084166001600160a01b03199283168117845560048054600180548286169087168117909155600580546002805497821697891688179055600698909855978616909855841690559290911690925560408051918252602082019390935291820152339032907fef3e4bc9725fa684957d7de03c6dcd01078ee86cf78ceef25c5f8346df69cc999060600161103a565b6040805160208101909152600081526012805461136f90612fa3565b1515905061138a575060408051602081019091526000815290565b6012805461139790612fa3565b80601f01602080910402602001604051908101604052809291908181526020018280546113c390612fa3565b80156114105780601f106113e557610100808354040283529160200191611410565b820191906000526020600020905b8154815290600101906020018083116113f357829003601f168201915b50505050508060200190518101906105dc919061326b565b6040805160208101909152600081526000828152600a60205260409020805461145090612fa3565b1515905061146c57505060408051602081019091526000815290565b6000828152600a602052604090208054610eae90612fa3565b61148e816122d5565b6000818152600a6020526040902080548291339132917f813fb1cc9255f5a8d21316ecd3e0cc533da05634409ca6b43f4db5ee1cc4cdf8916114cf90612fa3565b80601f01602080910402602001604051908101604052809291908181526020018280546114fb90612fa3565b80156115485780601f1061151d57610100808354040283529160200191611548565b820191906000526020600020905b81548152906001019060200180831161152b57829003601f168201915b505050505080602001905181019061156091906131f6565b604051905181526020016108bb565b600154600090819081906001600160a01b031661158b856123c5565b8951919550935084925060021415806115a657508551600214155b156115db576040805180820182526004808252631253959360e21b6020830152915162461bcd60e51b815261062b9201612cd5565b60005b8651811015611aa75760008782815181106115fb576115fb613299565b6020026020010151905060008111604051806040016040528060028152602001612b2d60f11b815250906116425760405162461bcd60e51b815260040161062b9190612cd5565b50604051639c94d85360e01b8152600481018290526000906001600160a01b03851690639c94d8539060240160206040518083038186803b15801561168657600080fd5b505afa15801561169a573d6000803e3d6000fd5b505050506040513d601f19601f820116820180604052508101906116be91906132af565b60408051808201909152600281526120ad60f11b60208201529091506001600160a01b0382166117015760405162461bcd60e51b815260040161062b9190612cd5565b506040516301ffc9a760e01b8152633d31d51d60e11b60048201526001600160a01b038216906301ffc9a79060240160206040518083038186803b15801561174857600080fd5b505afa15801561175c573d6000803e3d6000fd5b505050506040513d601f19601f8201168201806040525081019061178091906132cc565b60405180604001604052806004815260200163494e564960e01b815250906117bb5760405162461bcd60e51b815260040161062b9190612cd5565b506000816001600160a01b031663697222336040518163ffffffff1660e01b815260040160006040518083038186803b1580156117f757600080fd5b505afa15801561180b573d6000803e3d6000fd5b505050506040513d6000823e601f3d908101601f1916820160405261183391908101906132e9565b9050836119365780518c5114604051806040016040528060048152602001631253959360e21b8152509061187a5760405162461bcd60e51b815260040161062b9190612cd5565b506040516301ffc9a760e01b8152632a482de360e21b60048201526001600160a01b038316906301ffc9a79060240160206040518083038186803b1580156118c157600080fd5b505afa1580156118d5573d6000803e3d6000fd5b505050506040513d601f19601f820116820180604052508101906118f991906132cc565b60405180604001604052806004815260200163494e564960e01b815250906119345760405162461bcd60e51b815260040161062b9190612cd5565b505b6000805b8d518110801561194a5750825182105b156119b9578d818151811061196157611961613299565b60200260200101516001600160a01b031683838151811061198457611984613299565b60200260200101516001600160a01b031614156119a957816119a581613383565b9250505b6119b281613383565b905061193a565b508151811460405180604001604052806005815260200164494e56544f60d81b815250906119fa5760405162461bcd60e51b815260040161062b9190612cd5565b50856001600160a01b03166323b872dd33898e8981518110611a1e57611a1e613299565b60209081029190910101516040516001600160e01b031960e086901b1681526001600160a01b0393841660048201529290911660248301526044820152606401600060405180830381600087803b158015611a7857600080fd5b505af1158015611a8c573d6000803e3d6000fd5b50505050505050508080611a9f90613383565b9150506115de565b506001805487516000926001600160a01b0390921691639c94d853918a91908110611ad457611ad4613299565b60200260200101516040518263ffffffff1660e01b8152600401611afa91815260200190565b60206040518083038186803b158015611b1257600080fd5b505afa158015611b26573d6000803e3d6000fd5b505050506040513d601f19601f82011682018060405250810190611b4a91906132af565b90506000816001600160a01b03166316f0115b6040518163ffffffff1660e01b815260040160206040518083038186803b158015611b8757600080fd5b505afa158015611b9b573d6000803e3d6000fd5b505050506040513d601f19601f82011682018060405250810190611bbf91906132af565b60408051808201909152600281526120ad60f11b60208201529091506001600160a01b038216611c025760405162461bcd60e51b815260040161062b9190612cd5565b5060405163126c118360e21b81526001600160a01b038716906349b0460c90611c599088908e908e908e907f000000000000000000000000000000000000000000000000000000000000000090899060040161339e565b600060405180830381600087803b158015611c7357600080fd5b505af1158015611c87573d6000803e3d6000fd5b505050505050505094509492505050565b60006301ffc9a760e01b6001600160e01b0319831614806105d657506001600160e01b0319821663effda0f560e01b1492915050565b600054604051630935e01b60e21b81523360048201526001600160a01b03909116906324d7806c9060240160206040518083038186803b158015611d1157600080fd5b505afa158015611d25573d6000803e3d6000fd5b505050506040513d601f19601f82011682018060405250810190611d4991906132cc565b6040518060400160405280600381526020016223292160e91b81525090611d835760405162461bcd60e51b815260040161062b9190612cd5565b50565b611d8f816125b6565b60008181526009602090815260409182902054825180840190935260048352631395531360e21b918301919091529081611ddc5760405162461bcd60e51b815260040161062b9190612cd5565b508042101560405180604001604052806002815260200161545360f01b81525090611e1a5760405162461bcd60e51b815260040161062b9190612cd5565b50600082815260086020908152604080832060079092529091208154909190611e4290612fa3565b611e4d92919061291c565b506000828152600860205260408120611e65916129a7565b50600090815260096020526040812055565b611e80826125b6565b60008281526008602090815260409091208251611e9f928401906129e1565b5060008281526007602052604081208054611eb990612fa3565b159050611ec7576001611eca565b60005b60ff169050806000800160009054906101000a90046001600160a01b03166001600160a01b031663bba329396040518163ffffffff1660e01b815260040160206040518083038186803b158015611f2057600080fd5b505afa158015611f34573d6000803e3d6000fd5b505050506040513d601f19601f82011682018060405250810190611f589190612f1f565b611f629190613457565b611f6c9042612f4e565b600093845260096020526040909320929092555050565b611f8b611cce565b6000600d8054611f9a90612fa3565b159050611fa8576001611fab565b60005b60ff16905081600e9080519060200190611fc69291906129e1565b506000546040805163bba3293960e01b8152905183926001600160a01b03169163bba32939916004808301926020929190829003018186803b15801561200b57600080fd5b505afa15801561201f573d6000803e3d6000fd5b505050506040513d601f19601f820116820180604052508101906120439190612f1f565b61204d9190613457565b6120579042612f4e565b600f555050565b612066611cce565b6000828152600b602090815260409091208251612085928401906129e1565b506000828152600a60205260408120805461209f90612fa3565b1590506120ad5760016120b0565b60005b60ff169050806000800160009054906101000a90046001600160a01b03166001600160a01b031663bba329396040518163ffffffff1660e01b815260040160206040518083038186803b15801561210657600080fd5b505afa15801561211a573d6000803e3d6000fd5b505050506040513d601f19601f8201168201806040525081019061213e9190612f1f565b6121489190613457565b6121529042612f4e565b6000938452600c6020526040909320929092555050565b604080516020808252818301909252606091602082018180368337019050509050602060005b60208110156121c7578381602081106121aa576121aa613299565b1a6121b7578091506121c7565b6121c081613383565b905061218f565b508152602081019190915290565b6121dd611cce565b600f546040805180820190915260048152631395531360e21b6020820152906122195760405162461bcd60e51b815260040161062b9190612cd5565b50600f5442101560405180604001604052806002815260200161545360f01b815250906122595760405162461bcd60e51b815260040161062b9190612cd5565b50600e600d90805461226a90612fa3565b61227592919061291c565b50612282600e60006129a7565b6000600f55565b612292826125b6565b600082815260106020908152604090912082516122b1928401906129e1565b505050565b6122be612785565b80516122d19060129060208401906129e1565b5050565b6122dd611cce565b6000818152600c602090815260409182902054825180840190935260048352631395531360e21b91830191909152908161232a5760405162461bcd60e51b815260040161062b9190612cd5565b508042101560405180604001604052806002815260200161545360f01b815250906123685760405162461bcd60e51b815260040161062b9190612cd5565b506000828152600b60209081526040808320600a909252909120815490919061239090612fa3565b61239b92919061291c565b506000828152600b602052604081206123b3916129a7565b506000908152600c6020526040812055565b600080546040516363e85d2d60e01b81523360048201526001602482015282916001600160a01b03169081906363e85d2d9060440160206040518083038186803b15801561241257600080fd5b505afa158015612426573d6000803e3d6000fd5b505050506040513d601f19601f8201168201806040525081019061244a91906132cc565b6040518060400160405280600381526020016223292160e91b815250906124845760405162461bcd60e51b815260040161062b9190612cd5565b5060015460408051631112eee760e31b815290516001600160a01b039092169182916388977738916004808301926020929190829003018186803b1580156124cb57600080fd5b505afa1580156124df573d6000803e3d6000fd5b505050506040513d601f19601f820116820180604052508101906125039190612f1f565b61250e906001612f4e565b600254909350612527906001600160a01b03168461287f565b6040516305c4fdf960e01b81526001600160a01b0380831660048301528781166024830152919550908216906305c4fdf990604401602060405180830381600087803b15801561257657600080fd5b505af115801561258a573d6000803e3d6000fd5b505050506040513d601f19601f820116820180604052508101906125ae9190612f1f565b505050915091565b600054604051630935e01b60e21b81523360048201526001600160a01b03909116906324d7806c9060240160206040518083038186803b1580156125f957600080fd5b505afa15801561260d573d6000803e3d6000fd5b505050506040513d601f19601f8201168201806040525081019061263191906132cc565b806126be575060015460405163020604bf60e21b81526004810183905233916001600160a01b03169063081812fc9060240160206040518083038186803b15801561267b57600080fd5b505afa15801561268f573d6000803e3d6000fd5b505050506040513d601f19601f820116820180604052508101906126b391906132af565b6001600160a01b0316145b8061274b57506001546040516331a9108f60e11b81526004810183905233916001600160a01b031690636352211e9060240160206040518083038186803b15801561270857600080fd5b505afa15801561271c573d6000803e3d6000fd5b505050506040513d601f19601f8201168201806040525081019061274091906132af565b6001600160a01b0316145b6040518060400160405280600381526020016223292160e91b815250906122d15760405162461bcd60e51b815260040161062b9190612cd5565b600054604051630935e01b60e21b81523360048201526001600160a01b039091169081906324d7806c9060240160206040518083038186803b1580156127ca57600080fd5b505afa1580156127de573d6000803e3d6000fd5b505050506040513d601f19601f8201168201806040525081019061280291906132cc565b8061274b57506040516336b87bd760e11b81523360048201526001600160a01b03821690636d70f7ae9060240160206040518083038186803b15801561284757600080fd5b505afa15801561285b573d6000803e3d6000fd5b505050506040513d601f19601f8201168201806040525081019061274b91906132cc565b6000763d602d80600a3d3981f3363d3d373d3d3d363d730000008360601b60e81c176000526e5af43d82803e903d91602b57fd5bf38360781b1760205281603760096000f590506001600160a01b0381166105d65760405162461bcd60e51b815260206004820152601760248201527f455243313136373a2063726561746532206661696c6564000000000000000000604482015260640161062b565b82805461292890612fa3565b90600052602060002090601f01602090048101928261294a5760008555612997565b82601f1061295b5780548555612997565b8280016001018555821561299757600052602060002091601f016020900482015b8281111561299757825482559160010191906001019061297c565b506129a3929150612a55565b5090565b5080546129b390612fa3565b6000825580601f106129c3575050565b601f016020900490600052602060002090810190611d839190612a55565b8280546129ed90612fa3565b90600052602060002090601f016020900481019282612a0f5760008555612997565b82601f10612a2857805160ff1916838001178555612997565b82800160010185558215612997579182015b82811115612997578251825591602001919060010190612a3a565b5b808211156129a35760008155600101612a56565b600060208284031215612a7c57600080fd5b81356001600160e01b031981168114612a9457600080fd5b9392505050565b634e487b7160e01b600052604160045260246000fd5b6040805190810167ffffffffffffffff81118282101715612ad457612ad4612a9b565b60405290565b6040516020810167ffffffffffffffff81118282101715612ad457612ad4612a9b565b604051601f8201601f1916810167ffffffffffffffff81118282101715612b2657612b26612a9b565b604052919050565b6001600160a01b0381168114611d8357600080fd5b600060608284031215612b5557600080fd5b6040516060810181811067ffffffffffffffff82111715612b7857612b78612a9b565b6040528235612b8681612b2e565b81526020830135612b9681612b2e565b60208201526040830135612ba981612b2e565b60408201529392505050565b600060208284031215612bc757600080fd5b5035919050565b600080828403610100811215612be357600080fd5b8335925060e0601f1982011215612bf957600080fd5b506020830190509250929050565b600060408284031215612c1957600080fd5b50919050565b600060408284031215612c3157600080fd5b612a948383612c07565b600060208284031215612c1957600080fd5b60008060408385031215612c6057600080fd5b82359150612c718460208501612c3b565b90509250929050565b81516001600160a01b039081168252602080840151821690830152604080840151151590830152606080840151908301526080808401519083015260a08381015182169083015260c092830151169181019190915260e00190565b600060208083528351808285015260005b81811015612d0257858101830151858201604001528201612ce6565b81811115612d14576000604083870101525b50601f01601f1916929092016040019392505050565b606081016105d6828480516001600160a01b03908116835260208083015182169084015260409182015116910152565b60008060608385031215612d6d57600080fd5b82359150612c718460208501612c07565b600060208284031215612d9057600080fd5b612a948383612c3b565b600067ffffffffffffffff821115612db457612db4612a9b565b5060051b60200190565b8035612dc981612b2e565b919050565b600082601f830112612ddf57600080fd5b81356020612df4612def83612d9a565b612afd565b82815260059290921b84018101918181019086841115612e1357600080fd5b8286015b84811015612e2e5780358352918301918301612e17565b509695505050505050565b60008060008060808587031215612e4f57600080fd5b843567ffffffffffffffff80821115612e6757600080fd5b818701915087601f830112612e7b57600080fd5b81356020612e8b612def83612d9a565b82815260059290921b8401810191818101908b841115612eaa57600080fd5b948201945b83861015612ed1578535612ec281612b2e565b82529482019490820190612eaf565b9850612ee09050898201612dbe565b965050506040870135915080821115612ef857600080fd5b50612f0587828801612dce565b925050612f1460608601612dbe565b905092959194509250565b600060208284031215612f3157600080fd5b5051919050565b634e487b7160e01b600052601160045260246000fd5b60008219821115612f6157612f61612f38565b500190565b60808101612f96828580516001600160a01b03908116835260208083015182169084015260409182015116910152565b8260608301529392505050565b600181811c90821680612fb757607f821691505b60208210811415612c1957634e487b7160e01b600052602260045260246000fd5b8051612dc981612b2e565b8015158114611d8357600080fd5b600060e0828403121561300357600080fd5b60405160e0810181811067ffffffffffffffff8211171561302657613026612a9b565b604052825161303481612b2e565b8152602083015161304481612b2e565b6020820152604083015161305781612fe3565b80604083015250606083015160608201526080830151608082015260a083015161308081612b2e565b60a082015261309160c08401612fd8565b60c08201529392505050565b6000604082840312156130af57600080fd5b6130b7612ab1565b82518152602083015160208201528091505092915050565b80356130da81612b2e565b6001600160a01b0390811683526020820135906130f682612b2e565b908116602084015260408201359061310d82612fe3565b8115156040850152606083013560608501526080830135608085015260a0830135915061313982612b2e565b90811660a084015260c08201359061315082612b2e565b80821660c085015250505050565b60e081016105d682846130cf565b610100810161317b82856130cf565b8260e08301529392505050565b60006020828403121561319a57600080fd5b8135612a9481612b2e565b8035825260208101356131b781612b2e565b6001600160a01b03166020929092019190915250565b604081016105d682846131a5565b606081016131e982856131a5565b8260408301529392505050565b60006020828403121561320857600080fd5b613210612ada565b9151825250919050565b60006040828403121561322c57600080fd5b613234612ab1565b82518152602083015161324681612b2e565b60208201529392505050565b60208101823561326181612fe3565b1515909152919050565b60006020828403121561327d57600080fd5b613285612ada565b825161329081612fe3565b81529392505050565b634e487b7160e01b600052603260045260246000fd5b6000602082840312156132c157600080fd5b8151612a9481612b2e565b6000602082840312156132de57600080fd5b8151612a9481612fe3565b600060208083850312156132fc57600080fd5b825167ffffffffffffffff81111561331357600080fd5b8301601f8101851361332457600080fd5b8051613332612def82612d9a565b81815260059190911b8201830190838101908783111561335157600080fd5b928401925b8284101561337857835161336981612b2e565b82529284019290840190613356565b979650505050505050565b600060001982141561339757613397612f38565b5060010190565b600060c08201888352602060c08185015281895180845260e086019150828b01935060005b818110156133e85784516001600160a01b0316835293830193918301916001016133c3565b50506001600160a01b03891660408601528481036060860152875180825290820192508188019060005b8181101561342e57825185529383019391830191600101613412565b5050506001600160a01b03861660808501525090506001600160a01b03831660a0830152613378565b600081600019048311821515161561347157613471612f38565b50029056fea2646970667358221220cb55925be514fab41fcde9fd27fb10e59e6ec69bb028fe5f45db21239e5adfd064736f6c63430008090033",
    "linkReferences": {}
  },
  "methodIdentifiers": {
    "MAX_MANAGEMENT_FEE()": "9908840c",
    "MAX_PERFORMANCE_FEE()": "bdca9165",
    "MAX_PROTOCOL_FEE()": "b8ca3b83",
    "commitDelayedProtocolParams()": "98347a5d",
    "commitDelayedProtocolPerVaultParams(uint256)": "ee2d59f4",
    "commitDelayedStrategyParams(uint256)": "0bdedd56",
    "commitInternalParams()": "d4a07d34",
    "contractName()": "75d0c0dc",
    "contractNameBytes()": "0e3e80ac",
    "contractVersion()": "a0a8e460",
    "contractVersionBytes()": "06a46239",
    "createVault(address[],address,uint256[],address)": "f699a607",
    "delayedProtocolParams()": "d34cc380",
    "delayedProtocolParamsTimestamp()": "e4af6e79",
    "delayedProtocolPerVaultParams(uint256)": "dbb1c35f",
    "delayedProtocolPerVaultParamsTimestamp(uint256)": "511ce798",
    "delayedStrategyParams(uint256)": "8860d248",
    "delayedStrategyParamsTimestamp(uint256)": "6707acee",
    "helper()": "63b0e66a",
    "internalParams()": "7ac46fbb",
    "internalParamsTimestamp()": "1c7f4c73",
    "operatorParams()": "db2030aa",
    "setOperatorParams((bool))": "c8e8a766",
    "setStrategyParams(uint256,(uint256,uint256))": "afd2c7e9",
    "stageDelayedProtocolParams((uint256,address))": "3d8c08b9",
    "stageDelayedProtocolPerVaultParams(uint256,(uint256))": "59331d78",
    "stageDelayedStrategyParams(uint256,(address,address,bool,uint256,uint256,address,address))": "221cc263",
    "stageInternalParams((address,address,address))": "09946538",
    "stagedDelayedProtocolParams()": "c2cbdc67",
    "stagedDelayedProtocolPerVaultParams(uint256)": "8e207dda",
    "stagedDelayedStrategyParams(uint256)": "59f3dae7",
    "stagedInternalParams()": "86c6be3e",
    "strategyParams(uint256)": "12466b68",
    "supportsInterface(bytes4)": "01ffc9a7"
  },
  "id": 457
}