{
  "abi": [
    {
      "inputs": [
        {
          "internalType": "contract IAlgebraNonfungiblePositionManager",
          "name": "positionManager_",
          "type": "address"
        }
      ],
      "stateMutability": "nonpayable",
      "type": "constructor"
    },
    {
      "anonymous": false,
      "inputs": [
        {
          "indexed": false,
          "internalType": "uint256",
          "name": "tokenId",
          "type": "uint256"
        }
      ],
      "name": "PositionBurned",
      "type": "event"
    },
    {
      "anonymous": false,
      "inputs": [
        {
          "indexed": false,
          "internalType": "uint256",
          "name": "tokenId",
          "type": "uint256"
        }
      ],
      "name": "PositionMinted",
      "type": "event"
    },
    {
      "anonymous": false,
      "inputs": [
        {
          "indexed": true,
          "internalType": "address",
          "name": "origin",
          "type": "address"
        },
        {
          "indexed": true,
          "internalType": "address",
          "name": "sender",
          "type": "address"
        }
      ],
      "name": "Rebalance",
      "type": "event"
    },
    {
      "anonymous": false,
      "inputs": [
        {
          "indexed": true,
          "internalType": "bytes32",
          "name": "role",
          "type": "bytes32"
        },
        {
          "indexed": true,
          "internalType": "bytes32",
          "name": "previousAdminRole",
          "type": "bytes32"
        },
        {
          "indexed": true,
          "internalType": "bytes32",
          "name": "newAdminRole",
          "type": "bytes32"
        }
      ],
      "name": "RoleAdminChanged",
      "type": "event"
    },
    {
      "anonymous": false,
      "inputs": [
        {
          "indexed": true,
          "internalType": "bytes32",
          "name": "role",
          "type": "bytes32"
        },
        {
          "indexed": true,
          "internalType": "address",
          "name": "account",
          "type": "address"
        },
        {
          "indexed": true,
          "internalType": "address",
          "name": "sender",
          "type": "address"
        }
      ],
      "name": "RoleGranted",
      "type": "event"
    },
    {
      "anonymous": false,
      "inputs": [
        {
          "indexed": true,
          "internalType": "bytes32",
          "name": "role",
          "type": "bytes32"
        },
        {
          "indexed": true,
          "internalType": "address",
          "name": "account",
          "type": "address"
        },
        {
          "indexed": true,
          "internalType": "address",
          "name": "sender",
          "type": "address"
        }
      ],
      "name": "RoleRevoked",
      "type": "event"
    },
    {
      "anonymous": false,
      "inputs": [
        {
          "indexed": false,
          "internalType": "uint256",
          "name": "amountIn",
          "type": "uint256"
        },
        {
          "indexed": false,
          "internalType": "uint256",
          "name": "amountOut",
          "type": "uint256"
        },
        {
          "indexed": false,
          "internalType": "uint256",
          "name": "tokenInIndex",
          "type": "uint256"
        }
      ],
      "name": "TokensSwapped",
      "type": "event"
    },
    {
      "anonymous": false,
      "inputs": [
        {
          "indexed": true,
          "internalType": "address",
          "name": "origin",
          "type": "address"
        },
        {
          "indexed": true,
          "internalType": "address",
          "name": "sender",
          "type": "address"
        },
        {
          "components": [
            {
              "internalType": "int24",
              "name": "priceImpactD6",
              "type": "int24"
            },
            {
              "internalType": "int24",
              "name": "defaultIntervalWidth",
              "type": "int24"
            },
            {
              "internalType": "int24",
              "name": "maxPositionLengthInTicks",
              "type": "int24"
            },
            {
              "internalType": "int24",
              "name": "maxDeviationForVaultPool",
              "type": "int24"
            },
            {
              "internalType": "uint32",
              "name": "timespanForAverageTick",
              "type": "uint32"
            },
            {
              "internalType": "uint256",
              "name": "neighborhoodFactorD",
              "type": "uint256"
            },
            {
              "internalType": "uint256",
              "name": "extensionFactorD",
              "type": "uint256"
            },
            {
              "internalType": "uint256",
              "name": "swapSlippageD",
              "type": "uint256"
            },
            {
              "internalType": "uint256",
              "name": "swappingAmountsCoefficientD",
              "type": "uint256"
            },
            {
              "internalType": "uint256[]",
              "name": "minSwapAmounts",
              "type": "uint256[]"
            }
          ],
          "indexed": false,
          "internalType": "struct QuickPulseStrategyV2.MutableParams",
          "name": "mutableParams",
          "type": "tuple"
        }
      ],
      "name": "UpdateMutableParams",
      "type": "event"
    },
    {
      "inputs": [],
      "name": "ADMIN_DELEGATE_ROLE",
      "outputs": [
        {
          "internalType": "bytes32",
          "name": "",
          "type": "bytes32"
        }
      ],
      "stateMutability": "view",
      "type": "function"
    },
    {
      "inputs": [],
      "name": "ADMIN_ROLE",
      "outputs": [
        {
          "internalType": "bytes32",
          "name": "",
          "type": "bytes32"
        }
      ],
      "stateMutability": "view",
      "type": "function"
    },
    {
      "inputs": [],
      "name": "D6",
      "outputs": [
        {
          "internalType": "uint256",
          "name": "",
          "type": "uint256"
        }
      ],
      "stateMutability": "view",
      "type": "function"
    },
    {
      "inputs": [],
      "name": "D9",
      "outputs": [
        {
          "internalType": "uint256",
          "name": "",
          "type": "uint256"
        }
      ],
      "stateMutability": "view",
      "type": "function"
    },
    {
      "inputs": [],
      "name": "DEFAULT_ADMIN_ROLE",
      "outputs": [
        {
          "internalType": "bytes32",
          "name": "",
          "type": "bytes32"
        }
      ],
      "stateMutability": "view",
      "type": "function"
    },
    {
      "inputs": [],
      "name": "OPERATOR",
      "outputs": [
        {
          "internalType": "bytes32",
          "name": "",
          "type": "bytes32"
        }
      ],
      "stateMutability": "view",
      "type": "function"
    },
    {
      "inputs": [],
      "name": "Q96",
      "outputs": [
        {
          "internalType": "uint256",
          "name": "",
          "type": "uint256"
        }
      ],
      "stateMutability": "view",
      "type": "function"
    },
    {
      "inputs": [],
      "name": "algebraPool",
      "outputs": [
        {
          "internalType": "contract IAlgebraPool",
          "name": "",
          "type": "address"
        }
      ],
      "stateMutability": "view",
      "type": "function"
    },
    {
      "inputs": [
        {
          "components": [
            {
              "internalType": "contract IERC20Vault",
              "name": "erc20Vault",
              "type": "address"
            },
            {
              "internalType": "contract IQuickSwapVault",
              "name": "quickSwapVault",
              "type": "address"
            },
            {
              "internalType": "address",
              "name": "router",
              "type": "address"
            },
            {
              "internalType": "address[]",
              "name": "tokens",
              "type": "address[]"
            }
          ],
          "internalType": "struct QuickPulseStrategyV2.ImmutableParams",
          "name": "immutableParams_",
          "type": "tuple"
        },
        {
          "components": [
            {
              "internalType": "int24",
              "name": "priceImpactD6",
              "type": "int24"
            },
            {
              "internalType": "int24",
              "name": "defaultIntervalWidth",
              "type": "int24"
            },
            {
              "internalType": "int24",
              "name": "maxPositionLengthInTicks",
              "type": "int24"
            },
            {
              "internalType": "int24",
              "name": "maxDeviationForVaultPool",
              "type": "int24"
            },
            {
              "internalType": "uint32",
              "name": "timespanForAverageTick",
              "type": "uint32"
            },
            {
              "internalType": "uint256",
              "name": "neighborhoodFactorD",
              "type": "uint256"
            },
            {
              "internalType": "uint256",
              "name": "extensionFactorD",
              "type": "uint256"
            },
            {
              "internalType": "uint256",
              "name": "swapSlippageD",
              "type": "uint256"
            },
            {
              "internalType": "uint256",
              "name": "swappingAmountsCoefficientD",
              "type": "uint256"
            },
            {
              "internalType": "uint256[]",
              "name": "minSwapAmounts",
              "type": "uint256[]"
            }
          ],
          "internalType": "struct QuickPulseStrategyV2.MutableParams",
          "name": "mutableParams_",
          "type": "tuple"
        },
        {
          "internalType": "uint256",
          "name": "priceX96",
          "type": "uint256"
        },
        {
          "internalType": "uint256",
          "name": "targetRatioOfToken1X96",
          "type": "uint256"
        }
      ],
      "name": "calculateAmountsForSwap",
      "outputs": [
        {
          "internalType": "uint256",
          "name": "tokenInIndex",
          "type": "uint256"
        },
        {
          "internalType": "uint256",
          "name": "amountIn",
          "type": "uint256"
        }
      ],
      "stateMutability": "view",
      "type": "function"
    },
    {
      "inputs": [
        {
          "components": [
            {
              "internalType": "int24",
              "name": "priceImpactD6",
              "type": "int24"
            },
            {
              "internalType": "int24",
              "name": "defaultIntervalWidth",
              "type": "int24"
            },
            {
              "internalType": "int24",
              "name": "maxPositionLengthInTicks",
              "type": "int24"
            },
            {
              "internalType": "int24",
              "name": "maxDeviationForVaultPool",
              "type": "int24"
            },
            {
              "internalType": "uint32",
              "name": "timespanForAverageTick",
              "type": "uint32"
            },
            {
              "internalType": "uint256",
              "name": "neighborhoodFactorD",
              "type": "uint256"
            },
            {
              "internalType": "uint256",
              "name": "extensionFactorD",
              "type": "uint256"
            },
            {
              "internalType": "uint256",
              "name": "swapSlippageD",
              "type": "uint256"
            },
            {
              "internalType": "uint256",
              "name": "swappingAmountsCoefficientD",
              "type": "uint256"
            },
            {
              "internalType": "uint256[]",
              "name": "minSwapAmounts",
              "type": "uint256[]"
            }
          ],
          "internalType": "struct QuickPulseStrategyV2.MutableParams",
          "name": "mutableParams_",
          "type": "tuple"
        },
        {
          "internalType": "int24",
          "name": "spotTick",
          "type": "int24"
        },
        {
          "internalType": "contract IAlgebraPool",
          "name": "pool",
          "type": "address"
        },
        {
          "internalType": "uint256",
          "name": "positionNft",
          "type": "uint256"
        }
      ],
      "name": "calculateNewPosition",
      "outputs": [
        {
          "components": [
            {
              "internalType": "int24",
              "name": "lowerTick",
              "type": "int24"
            },
            {
              "internalType": "int24",
              "name": "upperTick",
              "type": "int24"
            }
          ],
          "internalType": "struct QuickPulseStrategyV2.Interval",
          "name": "newInterval",
          "type": "tuple"
        },
        {
          "internalType": "bool",
          "name": "neededNewInterval",
          "type": "bool"
        }
      ],
      "stateMutability": "view",
      "type": "function"
    },
    {
      "inputs": [
        {
          "components": [
            {
              "internalType": "int24",
              "name": "lowerTick",
              "type": "int24"
            },
            {
              "internalType": "int24",
              "name": "upperTick",
              "type": "int24"
            }
          ],
          "internalType": "struct QuickPulseStrategyV2.Interval",
          "name": "interval",
          "type": "tuple"
        },
        {
          "internalType": "uint160",
          "name": "sqrtSpotPriceX96",
          "type": "uint160"
        },
        {
          "internalType": "uint256",
          "name": "spotPriceX96",
          "type": "uint256"
        }
      ],
      "name": "calculateTargetRatioOfToken1",
      "outputs": [
        {
          "internalType": "uint256",
          "name": "targetRatioOfToken1X96",
          "type": "uint256"
        }
      ],
      "stateMutability": "pure",
      "type": "function"
    },
    {
      "inputs": [
        {
          "components": [
            {
              "internalType": "contract IERC20Vault",
              "name": "erc20Vault",
              "type": "address"
            },
            {
              "internalType": "contract IQuickSwapVault",
              "name": "quickSwapVault",
              "type": "address"
            },
            {
              "internalType": "address",
              "name": "router",
              "type": "address"
            },
            {
              "internalType": "address[]",
              "name": "tokens",
              "type": "address[]"
            }
          ],
          "internalType": "struct QuickPulseStrategyV2.ImmutableParams",
          "name": "params",
          "type": "tuple"
        }
      ],
      "name": "checkImmutableParams",
      "outputs": [],
      "stateMutability": "view",
      "type": "function"
    },
    {
      "inputs": [
        {
          "components": [
            {
              "internalType": "int24",
              "name": "priceImpactD6",
              "type": "int24"
            },
            {
              "internalType": "int24",
              "name": "defaultIntervalWidth",
              "type": "int24"
            },
            {
              "internalType": "int24",
              "name": "maxPositionLengthInTicks",
              "type": "int24"
            },
            {
              "internalType": "int24",
              "name": "maxDeviationForVaultPool",
              "type": "int24"
            },
            {
              "internalType": "uint32",
              "name": "timespanForAverageTick",
              "type": "uint32"
            },
            {
              "internalType": "uint256",
              "name": "neighborhoodFactorD",
              "type": "uint256"
            },
            {
              "internalType": "uint256",
              "name": "extensionFactorD",
              "type": "uint256"
            },
            {
              "internalType": "uint256",
              "name": "swapSlippageD",
              "type": "uint256"
            },
            {
              "internalType": "uint256",
              "name": "swappingAmountsCoefficientD",
              "type": "uint256"
            },
            {
              "internalType": "uint256[]",
              "name": "minSwapAmounts",
              "type": "uint256[]"
            }
          ],
          "internalType": "struct QuickPulseStrategyV2.MutableParams",
          "name": "params",
          "type": "tuple"
        }
      ],
      "name": "checkMutableParams",
      "outputs": [],
      "stateMutability": "view",
      "type": "function"
    },
    {
      "inputs": [
        {
          "components": [
            {
              "internalType": "int24",
              "name": "priceImpactD6",
              "type": "int24"
            },
            {
              "internalType": "int24",
              "name": "defaultIntervalWidth",
              "type": "int24"
            },
            {
              "internalType": "int24",
              "name": "maxPositionLengthInTicks",
              "type": "int24"
            },
            {
              "internalType": "int24",
              "name": "maxDeviationForVaultPool",
              "type": "int24"
            },
            {
              "internalType": "uint32",
              "name": "timespanForAverageTick",
              "type": "uint32"
            },
            {
              "internalType": "uint256",
              "name": "neighborhoodFactorD",
              "type": "uint256"
            },
            {
              "internalType": "uint256",
              "name": "extensionFactorD",
              "type": "uint256"
            },
            {
              "internalType": "uint256",
              "name": "swapSlippageD",
              "type": "uint256"
            },
            {
              "internalType": "uint256",
              "name": "swappingAmountsCoefficientD",
              "type": "uint256"
            },
            {
              "internalType": "uint256[]",
              "name": "minSwapAmounts",
              "type": "uint256[]"
            }
          ],
          "internalType": "struct QuickPulseStrategyV2.MutableParams",
          "name": "mutableParams_",
          "type": "tuple"
        },
        {
          "internalType": "contract IAlgebraPool",
          "name": "vaultPool",
          "type": "address"
        }
      ],
      "name": "checkTickDeviation",
      "outputs": [],
      "stateMutability": "view",
      "type": "function"
    },
    {
      "inputs": [],
      "name": "contractName",
      "outputs": [
        {
          "internalType": "string",
          "name": "",
          "type": "string"
        }
      ],
      "stateMutability": "pure",
      "type": "function"
    },
    {
      "inputs": [],
      "name": "contractNameBytes",
      "outputs": [
        {
          "internalType": "bytes32",
          "name": "",
          "type": "bytes32"
        }
      ],
      "stateMutability": "pure",
      "type": "function"
    },
    {
      "inputs": [],
      "name": "contractVersion",
      "outputs": [
        {
          "internalType": "string",
          "name": "",
          "type": "string"
        }
      ],
      "stateMutability": "pure",
      "type": "function"
    },
    {
      "inputs": [],
      "name": "contractVersionBytes",
      "outputs": [
        {
          "internalType": "bytes32",
          "name": "",
          "type": "bytes32"
        }
      ],
      "stateMutability": "pure",
      "type": "function"
    },
    {
      "inputs": [],
      "name": "depositCallback",
      "outputs": [],
      "stateMutability": "nonpayable",
      "type": "function"
    },
    {
      "inputs": [],
      "name": "desiredAmounts",
      "outputs": [
        {
          "internalType": "uint256",
          "name": "amount0Desired",
          "type": "uint256"
        },
        {
          "internalType": "uint256",
          "name": "amount1Desired",
          "type": "uint256"
        }
      ],
      "stateMutability": "view",
      "type": "function"
    },
    {
      "inputs": [],
      "name": "forceRebalanceWidthFlag",
      "outputs": [
        {
          "internalType": "bool",
          "name": "",
          "type": "bool"
        }
      ],
      "stateMutability": "view",
      "type": "function"
    },
    {
      "inputs": [
        {
          "components": [
            {
              "internalType": "int24",
              "name": "priceImpactD6",
              "type": "int24"
            },
            {
              "internalType": "int24",
              "name": "defaultIntervalWidth",
              "type": "int24"
            },
            {
              "internalType": "int24",
              "name": "maxPositionLengthInTicks",
              "type": "int24"
            },
            {
              "internalType": "int24",
              "name": "maxDeviationForVaultPool",
              "type": "int24"
            },
            {
              "internalType": "uint32",
              "name": "timespanForAverageTick",
              "type": "uint32"
            },
            {
              "internalType": "uint256",
              "name": "neighborhoodFactorD",
              "type": "uint256"
            },
            {
              "internalType": "uint256",
              "name": "extensionFactorD",
              "type": "uint256"
            },
            {
              "internalType": "uint256",
              "name": "swapSlippageD",
              "type": "uint256"
            },
            {
              "internalType": "uint256",
              "name": "swappingAmountsCoefficientD",
              "type": "uint256"
            },
            {
              "internalType": "uint256[]",
              "name": "minSwapAmounts",
              "type": "uint256[]"
            }
          ],
          "internalType": "struct QuickPulseStrategyV2.MutableParams",
          "name": "mutableParams_",
          "type": "tuple"
        },
        {
          "internalType": "int24",
          "name": "spotTick",
          "type": "int24"
        },
        {
          "internalType": "int24",
          "name": "tickSpacing",
          "type": "int24"
        }
      ],
      "name": "formPositionWithSpotTickInCenter",
      "outputs": [
        {
          "components": [
            {
              "internalType": "int24",
              "name": "lowerTick",
              "type": "int24"
            },
            {
              "internalType": "int24",
              "name": "upperTick",
              "type": "int24"
            }
          ],
          "internalType": "struct QuickPulseStrategyV2.Interval",
          "name": "newInterval",
          "type": "tuple"
        }
      ],
      "stateMutability": "pure",
      "type": "function"
    },
    {
      "inputs": [
        {
          "internalType": "bytes32",
          "name": "role",
          "type": "bytes32"
        }
      ],
      "name": "getRoleAdmin",
      "outputs": [
        {
          "internalType": "bytes32",
          "name": "",
          "type": "bytes32"
        }
      ],
      "stateMutability": "view",
      "type": "function"
    },
    {
      "inputs": [
        {
          "internalType": "bytes32",
          "name": "role",
          "type": "bytes32"
        },
        {
          "internalType": "uint256",
          "name": "index",
          "type": "uint256"
        }
      ],
      "name": "getRoleMember",
      "outputs": [
        {
          "internalType": "address",
          "name": "",
          "type": "address"
        }
      ],
      "stateMutability": "view",
      "type": "function"
    },
    {
      "inputs": [
        {
          "internalType": "bytes32",
          "name": "role",
          "type": "bytes32"
        }
      ],
      "name": "getRoleMemberCount",
      "outputs": [
        {
          "internalType": "uint256",
          "name": "",
          "type": "uint256"
        }
      ],
      "stateMutability": "view",
      "type": "function"
    },
    {
      "inputs": [
        {
          "internalType": "bytes32",
          "name": "role",
          "type": "bytes32"
        },
        {
          "internalType": "address",
          "name": "account",
          "type": "address"
        }
      ],
      "name": "grantRole",
      "outputs": [],
      "stateMutability": "nonpayable",
      "type": "function"
    },
    {
      "inputs": [
        {
          "internalType": "bytes32",
          "name": "role",
          "type": "bytes32"
        },
        {
          "internalType": "address",
          "name": "account",
          "type": "address"
        }
      ],
      "name": "hasRole",
      "outputs": [
        {
          "internalType": "bool",
          "name": "",
          "type": "bool"
        }
      ],
      "stateMutability": "view",
      "type": "function"
    },
    {
      "inputs": [],
      "name": "immutableParams",
      "outputs": [
        {
          "internalType": "contract IERC20Vault",
          "name": "erc20Vault",
          "type": "address"
        },
        {
          "internalType": "contract IQuickSwapVault",
          "name": "quickSwapVault",
          "type": "address"
        },
        {
          "internalType": "address",
          "name": "router",
          "type": "address"
        }
      ],
      "stateMutability": "view",
      "type": "function"
    },
    {
      "inputs": [
        {
          "internalType": "address",
          "name": "admin",
          "type": "address"
        }
      ],
      "name": "init",
      "outputs": [],
      "stateMutability": "nonpayable",
      "type": "function"
    },
    {
      "inputs": [
        {
          "components": [
            {
              "internalType": "contract IERC20Vault",
              "name": "erc20Vault",
              "type": "address"
            },
            {
              "internalType": "contract IQuickSwapVault",
              "name": "quickSwapVault",
              "type": "address"
            },
            {
              "internalType": "address",
              "name": "router",
              "type": "address"
            },
            {
              "internalType": "address[]",
              "name": "tokens",
              "type": "address[]"
            }
          ],
          "internalType": "struct QuickPulseStrategyV2.ImmutableParams",
          "name": "immutableParams_",
          "type": "tuple"
        },
        {
          "internalType": "address",
          "name": "admin",
          "type": "address"
        }
      ],
      "name": "initialize",
      "outputs": [],
      "stateMutability": "nonpayable",
      "type": "function"
    },
    {
      "inputs": [],
      "name": "initialized",
      "outputs": [
        {
          "internalType": "bool",
          "name": "",
          "type": "bool"
        }
      ],
      "stateMutability": "view",
      "type": "function"
    },
    {
      "inputs": [
        {
          "internalType": "address",
          "name": "sender",
          "type": "address"
        }
      ],
      "name": "isAdmin",
      "outputs": [
        {
          "internalType": "bool",
          "name": "",
          "type": "bool"
        }
      ],
      "stateMutability": "view",
      "type": "function"
    },
    {
      "inputs": [
        {
          "internalType": "address",
          "name": "sender",
          "type": "address"
        }
      ],
      "name": "isOperator",
      "outputs": [
        {
          "internalType": "bool",
          "name": "",
          "type": "bool"
        }
      ],
      "stateMutability": "view",
      "type": "function"
    },
    {
      "inputs": [
        {
          "internalType": "bytes[]",
          "name": "data",
          "type": "bytes[]"
        }
      ],
      "name": "multicall",
      "outputs": [
        {
          "internalType": "bytes[]",
          "name": "results",
          "type": "bytes[]"
        }
      ],
      "stateMutability": "nonpayable",
      "type": "function"
    },
    {
      "inputs": [],
      "name": "mutableParams",
      "outputs": [
        {
          "internalType": "int24",
          "name": "priceImpactD6",
          "type": "int24"
        },
        {
          "internalType": "int24",
          "name": "defaultIntervalWidth",
          "type": "int24"
        },
        {
          "internalType": "int24",
          "name": "maxPositionLengthInTicks",
          "type": "int24"
        },
        {
          "internalType": "int24",
          "name": "maxDeviationForVaultPool",
          "type": "int24"
        },
        {
          "internalType": "uint32",
          "name": "timespanForAverageTick",
          "type": "uint32"
        },
        {
          "internalType": "uint256",
          "name": "neighborhoodFactorD",
          "type": "uint256"
        },
        {
          "internalType": "uint256",
          "name": "extensionFactorD",
          "type": "uint256"
        },
        {
          "internalType": "uint256",
          "name": "swapSlippageD",
          "type": "uint256"
        },
        {
          "internalType": "uint256",
          "name": "swappingAmountsCoefficientD",
          "type": "uint256"
        }
      ],
      "stateMutability": "view",
      "type": "function"
    },
    {
      "inputs": [
        {
          "internalType": "address",
          "name": "",
          "type": "address"
        },
        {
          "internalType": "address",
          "name": "",
          "type": "address"
        },
        {
          "internalType": "uint256",
          "name": "",
          "type": "uint256"
        },
        {
          "internalType": "bytes",
          "name": "",
          "type": "bytes"
        }
      ],
      "name": "onERC721Received",
      "outputs": [
        {
          "internalType": "bytes4",
          "name": "",
          "type": "bytes4"
        }
      ],
      "stateMutability": "pure",
      "type": "function"
    },
    {
      "inputs": [],
      "name": "positionManager",
      "outputs": [
        {
          "internalType": "contract IAlgebraNonfungiblePositionManager",
          "name": "",
          "type": "address"
        }
      ],
      "stateMutability": "view",
      "type": "function"
    },
    {
      "inputs": [
        {
          "internalType": "uint256",
          "name": "deadline",
          "type": "uint256"
        },
        {
          "internalType": "bytes",
          "name": "swapData",
          "type": "bytes"
        },
        {
          "internalType": "uint256",
          "name": "minAmountOutInCaseOfSwap",
          "type": "uint256"
        }
      ],
      "name": "rebalance",
      "outputs": [],
      "stateMutability": "nonpayable",
      "type": "function"
    },
    {
      "inputs": [
        {
          "internalType": "bytes32",
          "name": "role",
          "type": "bytes32"
        },
        {
          "internalType": "address",
          "name": "account",
          "type": "address"
        }
      ],
      "name": "renounceRole",
      "outputs": [],
      "stateMutability": "nonpayable",
      "type": "function"
    },
    {
      "inputs": [
        {
          "internalType": "bytes32",
          "name": "role",
          "type": "bytes32"
        },
        {
          "internalType": "address",
          "name": "account",
          "type": "address"
        }
      ],
      "name": "revokeRole",
      "outputs": [],
      "stateMutability": "nonpayable",
      "type": "function"
    },
    {
      "inputs": [
        {
          "internalType": "bool",
          "name": "newValue",
          "type": "bool"
        }
      ],
      "name": "setForceRebalanceFlag",
      "outputs": [],
      "stateMutability": "nonpayable",
      "type": "function"
    },
    {
      "inputs": [
        {
          "internalType": "bytes4",
          "name": "interfaceId",
          "type": "bytes4"
        }
      ],
      "name": "supportsInterface",
      "outputs": [
        {
          "internalType": "bool",
          "name": "",
          "type": "bool"
        }
      ],
      "stateMutability": "view",
      "type": "function"
    },
    {
      "inputs": [
        {
          "components": [
            {
              "internalType": "uint256",
              "name": "amount0Desired",
              "type": "uint256"
            },
            {
              "internalType": "uint256",
              "name": "amount1Desired",
              "type": "uint256"
            }
          ],
          "internalType": "struct QuickPulseStrategyV2.DesiredAmounts",
          "name": "params",
          "type": "tuple"
        }
      ],
      "name": "updateDesiredAmounts",
      "outputs": [],
      "stateMutability": "nonpayable",
      "type": "function"
    },
    {
      "inputs": [
        {
          "components": [
            {
              "internalType": "int24",
              "name": "priceImpactD6",
              "type": "int24"
            },
            {
              "internalType": "int24",
              "name": "defaultIntervalWidth",
              "type": "int24"
            },
            {
              "internalType": "int24",
              "name": "maxPositionLengthInTicks",
              "type": "int24"
            },
            {
              "internalType": "int24",
              "name": "maxDeviationForVaultPool",
              "type": "int24"
            },
            {
              "internalType": "uint32",
              "name": "timespanForAverageTick",
              "type": "uint32"
            },
            {
              "internalType": "uint256",
              "name": "neighborhoodFactorD",
              "type": "uint256"
            },
            {
              "internalType": "uint256",
              "name": "extensionFactorD",
              "type": "uint256"
            },
            {
              "internalType": "uint256",
              "name": "swapSlippageD",
              "type": "uint256"
            },
            {
              "internalType": "uint256",
              "name": "swappingAmountsCoefficientD",
              "type": "uint256"
            },
            {
              "internalType": "uint256[]",
              "name": "minSwapAmounts",
              "type": "uint256[]"
            }
          ],
          "internalType": "struct QuickPulseStrategyV2.MutableParams",
          "name": "mutableParams_",
          "type": "tuple"
        }
      ],
      "name": "updateMutableParams",
      "outputs": [],
      "stateMutability": "nonpayable",
      "type": "function"
    },
    {
      "inputs": [],
      "name": "withdrawCallback",
      "outputs": [],
      "stateMutability": "nonpayable",
      "type": "function"
    }
  ],
  "bytecode": {
    "object": "0x60a06040523480156200001157600080fd5b506040516200603a3803806200603a833981016040819052620000349162000093565b60408051808201909152600281526120ad60f11b60208201526001600160a01b038216620000805760405162461bcd60e51b8152600401620000779190620000c5565b60405180910390fd5b506001600160a01b03166080526200011d565b600060208284031215620000a657600080fd5b81516001600160a01b0381168114620000be57600080fd5b9392505050565b600060208083528351808285015260005b81811015620000f457858101830151858201604001528201620000d6565b8181111562000107576000604083870101525b50601f01601f1916929092016040019392505050565b608051615ede6200015c6000396000818161052101528181611503015281816121df015281816129cd01528181612b520152612c060152615ede6000f3fe608060405234801561001057600080fd5b506004361061027f5760003560e01c806375d0c0dc1161015c578063a8470bcc116100ce578063d3277e8611610087578063d3277e861461069e578063d547741f146106ac578063d7a678c0146106bf578063e521826f146106d2578063f05329b2146106da578063fe57ed61146106ed57600080fd5b8063a8470bcc146105fb578063ac9650d81461060e578063ace4d0fd1461062e578063b4559f3e14610342578063c8014d5314610641578063ca15c8731461068b57600080fd5b8063983d273711610120578063983d2737146105a15780639bb37ba8146105b65780639f747b20146105c9578063a0a8e460146105e1578063a11bac74146105e9578063a217fddf146105f357600080fd5b806375d0c0dc14610507578063791b98bc1461051c5780639010d07c1461055b57806391d148541461056e57806395aa080d1461058157600080fd5b80632f2ff15d116101f5578063551530ae116101b9578063551530ae146104065780635f408a211461041157806360aa2705146104b95780636d70f7ae146104cc5780636ff0b358146104df57806375b238fc146104f257600080fd5b80632f2ff15d1461039a57806336568abe146103ad57806340792465146103c0578063475cffef146103cb57806350c9d3bb146103de57600080fd5b8063158ef93e11610247578063158ef93e14610322578063163cacd51461032f57806319ab453c146103445780631e63f06214610357578063248a9ca31461036457806324d7806c1461038757600080fd5b806301ffc9a71461028457806306a46239146102ac5780630952ff54146102c45780630e3e80ac146102d9578063150b7a02146102f6575b600080fd5b6102976102923660046146bc565b61070e565b60405190151581526020015b60405180910390f35b640312e302e360dc1b5b6040519081526020016102a3565b6102b6600080516020615e2283398151915281565b7328bab4b1b5a83ab639b2a9ba3930ba32b3bcab1960611b6102b6565b6103096103043660046147b3565b61073e565b6040516001600160e01b031990911681526020016102a3565b6002546102979060ff1681565b61034261033d366004614861565b61074f565b005b6103426103523660046148e2565b610a10565b600f546102979060ff1681565b6102b66103723660046148ff565b60009081526020819052604090206001015490565b6102976103953660046148e2565b610b36565b6103426103a8366004614918565b610b6e565b6103426103bb366004614918565b610b98565b6102b6600160601b81565b6103426103d9366004614a48565b610c16565b6103f16103ec366004614be7565b6110b6565b604080519283526020830191909152016102a3565b6102b6633b9aca0081565b600754600854600954600a54600b5461045f94600281810b9563010000008304820b95600160301b8404830b95600160481b850490930b94600160601b90940463ffffffff16939192909189565b6040805160029a8b0b8152988a0b60208a015296890b968801969096529390960b606086015263ffffffff909116608085015260a084015260c083019390935260e0820192909252610100810191909152610120016102a3565b6103426104c7366004614c5a565b611344565b6102976104da3660046148e2565b61146a565b6103426104ed366004614c8e565b611484565b6102b6600080516020615e4283398151915281565b61050f6117cd565b6040516102a39190614d2c565b6105437f000000000000000000000000000000000000000000000000000000000000000081565b6040516001600160a01b0390911681526020016102a3565b610543610569366004614d3f565b6117ef565b61029761057c366004614918565b61180e565b61059461058f366004614d61565b611837565b6040516102a39190614dc4565b6102b6600080516020615e6283398151915281565b6102b66105c4366004614de5565b6118de565b6002546105439061010090046001600160a01b031681565b61050f6119c9565b6102b6620f424081565b6102b6600081565b610342610609366004614e7e565b6119dc565b61062161061c366004614e9b565b6119f7565b6040516102a39190614f0f565b61034261063c366004614f71565b611aeb565b600354600454600554610661926001600160a01b03908116928116911683565b604080516001600160a01b03948516815292841660208401529216918101919091526060016102a3565b6102b66106993660046148ff565b611c0a565b600d54600e546103f1919082565b6103426106ba366004614918565b611c21565b6103426106cd366004614c5a565b611c46565b610342611f1a565b6103426106e8366004614fbf565b611fb4565b6107006106fb366004614ff4565b6120fa565b6040516102a392919061505d565b60006001600160e01b03198216635a05180f60e01b1480610733575061073382612429565b92915050565b905090565b630a85bd0160e11b5b949350505050565b8342111560405180604001604052806002815260200161545360f01b815250906107955760405162461bcd60e51b815260040161078c9190614d2c565b60405180910390fd5b5061079e61245e565b60408051608081018252600380546001600160a01b0390811683526004548116602080850191909152600554909116838501526006805485518184028101840190965280865260009560608601939092919083018282801561082957602002820191906000526020600020905b81546001600160a01b0316815260019091019060200180831161080b575b505050919092525050604080516101408101825260078054600281810b845263010000008204810b602080860191909152600160301b8304820b85870152600160481b830490910b6060850152600160601b90910463ffffffff16608084015260085460a084015260095460c0840152600a5460e0840152600b54610100840152600c8054855181840281018401909652808652969750600096939550919361012086019390929183018282801561090057602002820191906000526020600020905b8154815260200190600101908083116108ec575b5050509190925250506002549192505061010090046001600160a01b03166109288282611fb4565b600080826001600160a01b031663e76c01e46040518163ffffffff1660e01b815260040160e06040518083038186803b15801561096457600080fd5b505afa158015610978573d6000803e3d6000fd5b505050506040513d601f19601f8201168201806040525081019061099c91906150bb565b50505050509150915060006109b3868684876124b3565b600f805460ff1916905590506109ce868683868d8d8d612cb2565b6109d786613206565b604051339032907f6dcf4e69cd04d9def52d660ea37a5b366adb7701505e48e75c03d6a51a343f6490600090a350505050505050505050565b60408051808201909152600281526120ad60f11b60208201526001600160a01b038216610a505760405162461bcd60e51b815260040161078c9190614d2c565b506002546040805180820190915260048152631253925560e21b60208201529060ff1615610a915760405162461bcd60e51b815260040161078c9190614d2c565b50610aaa600080516020615e62833981519152826135b9565b610ac2600080516020615e42833981519152826135b9565b610ada600080516020615e42833981519152806135c3565b610b00600080516020615e22833981519152600080516020615e428339815191526135c3565b610b26600080516020615e62833981519152600080516020615e228339815191526135c3565b506002805460ff19166001179055565b6000610b50600080516020615e428339815191528361180e565b806107335750610733600080516020615e228339815191528361180e565b600082815260208190526040902060010154610b898161360e565b610b938383613618565b505050565b6001600160a01b0381163314610c085760405162461bcd60e51b815260206004820152602f60248201527f416363657373436f6e74726f6c3a2063616e206f6e6c792072656e6f756e636560448201526e103937b632b9903337b91039b2b63360891b606482015260840161078c565b610c12828261363a565b5050565b60408101516001600160a01b031615801590610c63575060006001600160a01b03168160600151600081518110610c4f57610c4f61514a565b60200260200101516001600160a01b031614155b8015610ca0575060006001600160a01b03168160600151600181518110610c8c57610c8c61514a565b60200260200101516001600160a01b031614155b6040518060400160405280600281526020016120ad60f11b81525090610cd95760405162461bcd60e51b815260040161078c9190614d2c565b50806060015151600214604051806040016040528060048152602001631253959360e21b81525090610d1e5760405162461bcd60e51b815260040161078c9190614d2c565b5080516001600160a01b031615801590610d44575060208101516001600160a01b031615155b6040518060400160405280600281526020016120ad60f11b81525090610d7d5760405162461bcd60e51b815260040161078c9190614d2c565b50600081600001516001600160a01b031663697222336040518163ffffffff1660e01b815260040160006040518083038186803b158015610dbd57600080fd5b505afa158015610dd1573d6000803e3d6000fd5b505050506040513d6000823e601f3d908101601f19168201604052610df9919081019061516b565b90508051600214604051806040016040528060048152602001631253959360e21b81525090610e3b5760405162461bcd60e51b815260040161078c9190614d2c565b508160600151600081518110610e5357610e5361514a565b60200260200101516001600160a01b031681600081518110610e7757610e7761514a565b60200260200101516001600160a01b0316148015610ede57508160600151600181518110610ea757610ea761514a565b60200260200101516001600160a01b031681600181518110610ecb57610ecb61514a565b60200260200101516001600160a01b0316145b60405180604001604052806004815260200163494e564160e01b81525090610f195760405162461bcd60e51b815260040161078c9190614d2c565b5050600081602001516001600160a01b031663697222336040518163ffffffff1660e01b815260040160006040518083038186803b158015610f5a57600080fd5b505afa158015610f6e573d6000803e3d6000fd5b505050506040513d6000823e601f3d908101601f19168201604052610f96919081019061516b565b90508051600214604051806040016040528060048152602001631253959360e21b81525090610fd85760405162461bcd60e51b815260040161078c9190614d2c565b508160600151600081518110610ff057610ff061514a565b60200260200101516001600160a01b0316816000815181106110145761101461514a565b60200260200101516001600160a01b031614801561107b575081606001516001815181106110445761104461514a565b60200260200101516001600160a01b0316816001815181106110685761106861514a565b60200260200101516001600160a01b0316145b60405180604001604052806004815260200163494e564160e01b81525090610b935760405162461bcd60e51b815260040161078c9190614d2c565b600080806110c884600160601b61520f565b9050600087600001516001600160a01b031663e5328e066040518163ffffffff1660e01b815260040160006040518083038186803b15801561110957600080fd5b505afa15801561111d573d6000803e3d6000fd5b505050506040513d6000823e601f3d908101601f191682016040526111459190810190615281565b50905060006111c0826001815181106111605761116061514a565b6020026020010151600160601b611196856000815181106111835761118361514a565b60200260200101518b600160601b61365c565b856001815181106111a9576111a961514a565b60200260200101516111bb91906152e4565b61365c565b905060006111dd600160601b8a6000015160020b620f424061365c565b905086821115611283576001955060006111fc600160601b808b61365c565b905061127b61122689866000815181106112185761121861514a565b60200260200101518461365c565b61124f8660018151811061123c5761123c61514a565b602002602001015188600160601b61365c565b611259919061520f565b600160601b61126d8b86600160601b61365c565b6111bb90600160601b61520f565b9550506112f9565b600095506112f66112af85856001815181106112a1576112a161514a565b60200260200101518b61365c565b6112d8856000815181106112c5576112c561514a565b60200260200101518a600160601b61365c565b6112e2919061520f565b600160601b61126d8785600160601b61365c565b94505b82868151811061130b5761130b61514a565b60200260200101518511156113375782868151811061132c5761132c61514a565b602002602001015194505b5050505094509492505050565b61134c61370f565b61135581611c46565b80516007805460208085015160408601516060870151608088015163ffffffff16600160601b0263ffffffff60601b1962ffffff928316600160481b026bffffff00000000000000000019948416600160301b02949094166bffffffffffff0000000000001995841663010000000265ffffffffffff199098169390991692909217959095179290921695909517949094179390931617815560a083015160085560c083015160095560e0830151600a55610100830151600b556101208301518051849361142892600c92910190614607565b505060405133915032907faccfbfe1fb913357d3f38219613942ea367e6b50b076facee40e8400cf114f289061145f908590615337565b60405180910390a350565b6000610733600080516020615e628339815191528361180e565b61148d82610c16565b8151600380546001600160a01b03199081166001600160a01b0393841617825560208086015160048054841691861691909117905560408601516005805490931694169390931790556060840151805185936114ee92600692910190614652565b5090505060005b600281101561165a5761155b7f00000000000000000000000000000000000000000000000000000000000000006000198560600151848151811061153b5761153b61514a565b60200260200101516001600160a01b03166137189092919063ffffffff16565b82600001516001600160a01b0316632e2f4cc2846060015183815181106115845761158461514a565b602002602001015163095ea7b360e01b86604001516000196040516020016115c19291906001600160a01b03929092168252602082015260400190565b6040516020818303038152906040526040518463ffffffff1660e01b81526004016115ee939291906153ec565b600060405180830381600087803b15801561160857600080fd5b505af192505050801561163d57506040513d6000823e601f3d908101601f1916820160405261163a9190810190615429565b60015b61164657611648565b505b8061165281615496565b9150506114f5565b5081602001516001600160a01b031663c45a01556040518163ffffffff1660e01b815260040160206040518083038186803b15801561169857600080fd5b505afa1580156116ac573d6000803e3d6000fd5b505050506040513d601f19601f820116820180604052508101906116d091906154b1565b6001600160a01b031663d9a641e183606001516000815181106116f5576116f561514a565b602002602001015184606001516001815181106117145761171461514a565b60200260200101516040518363ffffffff1660e01b815260040161174e9291906001600160a01b0392831681529116602082015260400190565b60206040518083038186803b15801561176657600080fd5b505afa15801561177a573d6000803e3d6000fd5b505050506040513d601f19601f8201168201806040525081019061179e91906154b1565b600260016101000a8154816001600160a01b0302191690836001600160a01b03160217905550610c1281610a10565b60606107397328bab4b1b5a83ab639b2a9ba3930ba32b3bcab1960611b61380c565b60008281526001602052604081206118079083613878565b9392505050565b6000918252602082815260408084206001600160a01b0393909316845291905290205460ff1690565b6040805180820190915260008082526020820152600061185783856154e4565b6118619085615506565b9050600283900b61187284866154e4565b61187d90600261554e565b60020b13156118935761189083826155db565b90505b600285602001516118a49190615622565b6118ae9082615506565b600290810b835260208601516118c49190615622565b6118ce90826155db565b60020b6020830152509392505050565b6000806118ee8560000151613884565b6001600160a01b0316905060006119088660200151613884565b6001600160a01b03169050846001600160a01b0316821061192e57600092505050611807565b846001600160a01b0316811161194c57600160601b92505050611807565b60006119816119646001600160a01b0388168461520f565b600160601b6111bb896001600160a01b031686600160601b61365c565b90506000611998846001600160a01b03891661520f565b90506119bd81600160601b836119b3868b600160601b61365c565b6111bb91906152e4565b98975050505050505050565b6060610739640312e302e360dc1b61380c565b6119e461370f565b600f805460ff1916911515919091179055565b6060816001600160401b03811115611a1157611a116146fb565b604051908082528060200260200182016040528015611a4457816020015b6060815260200190600190039081611a2f5790505b50905060005b82811015611ae457611ab430858584818110611a6857611a6861514a565b9050602002810190611a7a919061565c565b8080601f016020809104026020016040519081016040528093929190818152602001838380828437600092019190915250613c9992505050565b828281518110611ac657611ac661514a565b60200260200101819052508080611adc90615496565b915050611a4a565b5092915050565b611af361370f565b80516040805180820190915260028152612b2d60f11b602082015290611b2c5760405162461bcd60e51b815260040161078c9190614d2c565b5080516040805180820190915260048152634c494d4f60e01b602082015290633b9aca001015611b6f5760405162461bcd60e51b815260040161078c9190614d2c565b506000816020015111604051806040016040528060028152602001612b2d60f11b81525090611bb15760405162461bcd60e51b815260040161078c9190614d2c565b50633b9aca0081602001511115604051806040016040528060048152602001634c494d4f60e01b81525090611bf95760405162461bcd60e51b815260040161078c9190614d2c565b508051600d5560200151600e55565b565b600081815260016020526040812061073390613cbe565b600082815260208190526040902060010154611c3c8161360e565b610b93838361363a565b6000600260019054906101000a90046001600160a01b03166001600160a01b031663d0c93a7c6040518163ffffffff1660e01b815260040160206040518083038186803b158015611c9657600080fd5b505afa158015611caa573d6000803e3d6000fd5b505050506040513d601f19601f82011682018060405250810190611cce91906156a2565b90506000826020015160020b138015611d015750611ced81600261554e565b8260200151611cfc91906154e4565b60020b155b6040518060400160405280600381526020016224a72b60e91b81525090611d3b5760405162461bcd60e51b815260040161078c9190614d2c565b50611d49620d89e7196156bf565b611d5490600261554e565b60020b826040015160020b1315604051806040016040528060048152602001634c494d4f60e01b81525090611d9c5760405162461bcd60e51b815260040161078c9190614d2c565b506000826060015160020b13604051806040016040528060048152602001634c494d5560e01b81525090611de35760405162461bcd60e51b815260040161078c9190614d2c565b506000826080015163ffffffff1611604051806040016040528060028152602001612b2d60f11b81525090611e2b5760405162461bcd60e51b815260040161078c9190614d2c565b5062093a80826080015163ffffffff1610604051806040016040528060048152602001634c494d4f60e01b81525090611e775760405162461bcd60e51b815260040161078c9190614d2c565b5081610120015151600214604051806040016040528060048152602001631253959360e21b81525090611ebd5760405162461bcd60e51b815260040161078c9190614d2c565b50633b9aca008260e0015111158015611edf5750633b9aca0082610100015111155b604051806040016040528060048152602001634c494d4f60e01b81525090610b935760405162461bcd60e51b815260040161078c9190614d2c565b60408051608081018252600380546001600160a01b03908116835260045481166020808501919091526005549091168385015260068054855181840281018401909652808652611c0895606086019390929190830182828015611fa657602002820191906000526020600020905b81546001600160a01b03168152600190910190602001808311611f88575b505050505081525050613206565b6000816001600160a01b031663e76c01e46040518163ffffffff1660e01b815260040160e06040518083038186803b158015611fef57600080fd5b505afa158015612003573d6000803e3d6000fd5b505050506040513d601f19601f8201168201806040525081019061202791906150bb565b5050505050915050600080612040848660800151613cc8565b9150915080156040518060400160405280600581526020016412539594d560da1b815250906120825760405162461bcd60e51b815260040161078c9190614d2c565b50600061208f8385615506565b905060008160020b12156120a9576120a6816156bf565b90505b856060015160020b8160020b12604051806040016040528060048152602001634c494d4f60e01b815250906120f15760405162461bcd60e51b815260040161078c9190614d2c565b50505050505050565b6040805180820190915260008082526020820152600080846001600160a01b031663d0c93a7c6040518163ffffffff1660e01b815260040160206040518083038186803b15801561214a57600080fd5b505afa15801561215e573d6000803e3d6000fd5b505050506040513d601f19601f8201168201806040525081019061218291906156a2565b90508315806121935750600f5460ff165b156121af576121a3878783611837565b60019250925050612420565b60408051808201825260008082526020820152905163133f757160e31b8152600481018690526001600160a01b037f000000000000000000000000000000000000000000000000000000000000000016906399fbab88906024016101606040518083038186803b15801561222257600080fd5b505afa158015612236573d6000803e3d6000fd5b505050506040513d601f19601f8201168201806040525081019061225a91906156f9565b50505050600291820b602089018190529290910b80885260009650612286955093509091506155069050565b905060006122a28262ffffff168b60a00151633b9aca0061365c565b905060008184600001516122b691906155db565b905060008285602001516122ca9190615506565b90508a60020b8260020b131580156122e857508060020b8b60020b13155b156122ff5784600097509750505050505050612420565b600061230b8c84615506565b9050600281900b61231c838e615506565b60020b13156123325761232f828d615506565b90505b600061234c8562ffffff168f60c00151633b9aca0061365c565b61235690836155db565b905061236288826154e4565b60020b15158061237557508060020b6000145b1561239d5761238488826155db565b905061239088826154e4565b61239a9082615506565b90505b86516123aa908290615506565b60020b8a5260208701516123bf9082906155db565b8a6020019060020b908160020b815250508d6040015160020b8a600001518b602001516123ec9190615506565b60020b1315612413576124008e8e8a611837565b6001995099505050505050505050612420565b6001985050505050505050505b94509492505050565b60006001600160e01b03198216637965db0b60e01b148061073357506301ffc9a760e01b6001600160e01b0319831614610733565b61246733610b36565b8061247657506124763361146a565b6040518060400160405280600381526020016223292160e91b815250906124b05760405162461bcd60e51b815260040161078c9190614d2c565b50565b60408051808201909152600080825260208201526000856020015190506000816001600160a01b031663ef7d80376040518163ffffffff1660e01b815260040160206040518083038186803b15801561250b57600080fd5b505afa15801561251f573d6000803e3d6000fd5b505050506040513d601f19601f8201168201806040525081019061254391906157d0565b9050600080612554888888866120fa565b915091508061265957836001600160a01b03166370bb45b36040518163ffffffff1660e01b8152600401600060405180830381600087803b15801561259857600080fd5b505af11580156125ac573d6000803e3d6000fd5b505050506040513d6000823e601f3d908101601f191682016040526125d491908101906157e9565b50836001600160a01b031663c27b2c2d6040518163ffffffff1660e01b8152600401600060405180830381600087803b15801561261057600080fd5b505af1158015612624573d6000803e3d6000fd5b505050506040513d6000823e601f3d908101601f1916820160405261264c91908101906157e9565b5081945050505050610747565b82156129c957836001600160a01b031663f451b77084866001600160a01b031663dd56e5d86040518163ffffffff1660e01b815260040160206040518083038186803b1580156126a857600080fd5b505afa1580156126bc573d6000803e3d6000fd5b505050506040513d601f19601f820116820180604052508101906126e091906154b1565b6040516001600160e01b031960e085901b16815260048101929092526001600160a01b03166024820152604401600060405180830381600087803b15801561272757600080fd5b505af115801561273b573d6000803e3d6000fd5b505050506000866001600160a01b031663e76c01e46040518163ffffffff1660e01b815260040160e06040518083038186803b15801561277a57600080fd5b505afa15801561278e573d6000803e3d6000fd5b505050506040513d601f19601f820116820180604052508101906127b291906150bb565b5050505050509050600060026001600160401b038111156127d5576127d56146fb565b6040519080825280602002602001820160405280156127fe578160200160208202803683370190505b509050856001600160a01b03166363b0e66a6040518163ffffffff1660e01b815260040160206040518083038186803b15801561283a57600080fd5b505afa15801561284e573d6000803e3d6000fd5b505050506040513d601f19601f8201168201806040525081019061287291906154b1565b60405163b5ce1db960e01b8152600481018790526001600160a01b0384811660248301526001600160801b036044830152919091169063b5ce1db990606401604080518083038186803b1580156128c857600080fd5b505afa1580156128dc573d6000803e3d6000fd5b505050506040513d601f19601f82011682018060405250810190612900919061581d565b826000815181106129135761291361514a565b602002602001018360018151811061292d5761292d61514a565b6020908102919091010191909152528a5160608c0151604051630818b5d560e21b81526001600160a01b03891692632062d7549261296f928690600401615841565b600060405180830381600087803b15801561298957600080fd5b505af115801561299d573d6000803e3d6000fd5b505050506040513d6000823e601f3d908101601f191682016040526129c591908101906157e9565b5050505b60007f00000000000000000000000000000000000000000000000000000000000000006001600160a01b0316639cc1a2836040518061014001604052808d60600151600081518110612a1d57612a1d61514a565b60200260200101516001600160a01b031681526020018d60600151600181518110612a4a57612a4a61514a565b60200260200101516001600160a01b03168152602001866000015160020b8152602001866020015160020b8152602001600d600001548152602001600d6001015481526020016000815260200160008152602001306001600160a01b031681526020016000198152506040518263ffffffff1660e01b8152600401612acf91906158c1565b608060405180830381600087803b158015612ae957600080fd5b505af1158015612afd573d6000803e3d6000fd5b505050506040513d601f19601f82011682018060405250810190612b21919061596c565b5050604051632142170760e11b81523060048201526001600160a01b038881166024830152604482018490529293507f0000000000000000000000000000000000000000000000000000000000000000909216916342842e0e9150606401600060405180830381600087803b158015612b9957600080fd5b505af1158015612bad573d6000803e3d6000fd5b505050507face8748d23af65e86cf543d0298345b95115752e382befe3e832eacd1508adb081604051612be291815260200190565b60405180910390a18315612ca457604051630852cd8d60e31b8152600481018590527f00000000000000000000000000000000000000000000000000000000000000006001600160a01b0316906342966c6890602401600060405180830381600087803b158015612c5257600080fd5b505af1158015612c66573d6000803e3d6000fd5b505050507f65d33d8ef62a81711748bbe2a7b67aef94d1a9af04a2690d3a4dfd13d9c1d22b84604051612c9b91815260200190565b60405180910390a15b509098975050505050505050565b6000612ccc6001600160a01b03861680600160601b61365c565b9050600080612ce28a8a856103ec8c8c896118de565b915091508861012001518281518110612cfd57612cfd61514a565b6020026020010151811015612d14575050506120f1565b8160011415612d2f57612d2c600160601b808561365c565b92505b60008a600001516001600160a01b031663e5328e066040518163ffffffff1660e01b815260040160006040518083038186803b158015612d6e57600080fd5b505afa158015612d82573d6000803e3d6000fd5b505050506040513d6000823e601f3d908101601f19168201604052612daa9190810190615281565b508b5160408d01519192506001600160a01b031690632e2f4cc290612dd3600460008b8d6159a8565b612ddc916159d2565b612de98a6004818e6159a8565b6040518563ffffffff1660e01b8152600401612e089493929190615a02565b600060405180830381600087803b158015612e2257600080fd5b505af1158015612e36573d6000803e3d6000fd5b505050506040513d6000823e601f3d908101601f19168201604052612e5e9190810190615429565b5060008060008d600001516001600160a01b031663e5328e066040518163ffffffff1660e01b815260040160006040518083038186803b158015612ea157600080fd5b505afa158015612eb5573d6000803e3d6000fd5b505050506040513d6000823e601f3d908101601f19168201604052612edd9190810190615281565b509050838681518110612ef257612ef261514a565b6020026020010151818781518110612f0c57612f0c61514a565b6020026020010151111560405180604001604052806004815260200163494e564160e01b81525090612f515760405162461bcd60e51b815260040161078c9190614d2c565b50838660011881518110612f6757612f6761514a565b6020026020010151818760011881518110612f8457612f8461514a565b6020026020010151101560405180604001604052806004815260200163494e564160e01b81525090612fc95760405162461bcd60e51b815260040161078c9190614d2c565b50808681518110612fdc57612fdc61514a565b6020026020010151848781518110612ff657612ff661514a565b6020026020010151613008919061520f565b925083866001188151811061301f5761301f61514a565b602002602001015181876001188151811061303c5761303c61514a565b602002602001015161304e919061520f565b915050600061306282600160601b8561365c565b905087821015604051806040016040528060048152602001634c494d5560e01b815250906130a35760405162461bcd60e51b815260040161078c9190614d2c565b50806130c7888f60e00151633b9aca006130bd919061520f565b633b9aca0061365c565b1115604051806040016040528060048152602001634c494d5560e01b815250906131045760405162461bcd60e51b815260040161078c9190614d2c565b508261311f868f6101000151633b9aca006130bd919061520f565b1115604051806040016040528060048152602001634c494d5560e01b8152509061315c5760405162461bcd60e51b815260040161078c9190614d2c565b5084613177848f6101000151633b9aca006130bd919061520f565b1115604051806040016040528060048152602001634c494d5560e01b815250906131b45760405162461bcd60e51b815260040161078c9190614d2c565b5060408051848152602081018490529081018790527f984c316f55901f828cae2a57394002595129e75b4546d4a80c6c1a4787d748c29060600160405180910390a15050505050505050505050505050565b600081602001516001600160a01b031663ef7d80376040518163ffffffff1660e01b815260040160206040518083038186803b15801561324557600080fd5b505afa158015613259573d6000803e3d6000fd5b505050506040513d601f19601f8201168201806040525081019061327d91906157d0565b9050600082602001516001600160a01b031663dd56e5d86040518163ffffffff1660e01b815260040160206040518083038186803b1580156132be57600080fd5b505afa1580156132d2573d6000803e3d6000fd5b505050506040513d601f19601f820116820180604052508101906132f691906154b1565b604051630b02c43d60e41b8152600481018490529091506000906001600160a01b0383169063b02c43d09060240160806040518083038186803b15801561333c57600080fd5b505afa158015613350573d6000803e3d6000fd5b505050506040513d601f19601f820116820180604052508101906133749190615a53565b5050509050806000146133ea576020840151604051630f451b7760e41b8152600481018590526001600160a01b0384811660248301529091169063f451b77090604401600060405180830381600087803b1580156133d157600080fd5b505af11580156133e5573d6000803e3d6000fd5b505050505b600084600001516001600160a01b031663e5328e066040518163ffffffff1660e01b815260040160006040518083038186803b15801561342957600080fd5b505afa15801561343d573d6000803e3d6000fd5b505050506040513d6000823e601f3d908101601f191682016040526134659190810190615281565b50905060008160008151811061347d5761347d61514a565b602002602001015111806134ab57506000816001815181106134a1576134a161514a565b6020026020010151115b1561354357845160208601516060870151604051630818b5d560e21b81526001600160a01b0390931692632062d754926134eb9290918690600401615841565b600060405180830381600087803b15801561350557600080fd5b505af1158015613519573d6000803e3d6000fd5b505050506040513d6000823e601f3d908101601f1916820160405261354191908101906157e9565b505b81156135b257602085015160405163d82f726760e01b8152600481018690526001600160a01b0385811660248301529091169063d82f726790604401600060405180830381600087803b15801561359957600080fd5b505af11580156135ad573d6000803e3d6000fd5b505050505b5050505050565b610c128282613618565b600082815260208190526040808220600101805490849055905190918391839186917fbd79b86ffe0ab8e8776151514217cd7cacd52c909f66475c3af44e129f0b00ff9190a4505050565b6124b08133613eab565b6136228282613f04565b6000828152600160205260409020610b939082613f88565b6136448282613f9d565b6000828152600160205260409020610b939082614002565b600080806000198587098587029250828110838203039150508060001415613696576000841161368b57600080fd5b508290049050611807565b8084116136a257600080fd5b6000848688096000868103871696879004966002600389028118808a02820302808a02820302808a02820302808a02820302808a02820302808a02909103029181900381900460010186841190950394909402919094039290920491909117919091029150509392505050565b61247633610b36565b604051636eb1769f60e11b81523060048201526001600160a01b0383811660248301526000919085169063dd62ed3e9060440160206040518083038186803b15801561376357600080fd5b505afa158015613777573d6000803e3d6000fd5b505050506040513d601f19601f8201168201806040525081019061379b91906157d0565b90506138068463095ea7b360e01b856137b486866152e4565b6040516001600160a01b039092166024830152604482015260640160408051601f198184030181529190526020810180516001600160e01b03166001600160e01b031990931692909217909152614017565b50505050565b604080516020808252818301909252606091602082018180368337019050509050602060005b602081101561386a5783816020811061384d5761384d61514a565b1a61385a5780915061386a565b61386381615496565b9050613832565b508152602081019190915290565b600061180783836140ec565b60008060008360020b1261389b578260020b6138a8565b8260020b6138a890615aa8565b90506138b7620d89e7196156bf565b60020b8111156138ed5760405162461bcd60e51b81526020600482015260016024820152601560fa1b604482015260640161078c565b60006001821661390157600160801b613913565b6ffffcb933bd6fad37aa2d162d1a5940015b70ffffffffffffffffffffffffffffffffff169050600282161561395257608061394d826ffff97272373d413259a46990580e213a615ac5565b901c90505b600482161561397c576080613977826ffff2e50f5f656932ef12357cf3c7fdcc615ac5565b901c90505b60088216156139a65760806139a1826fffe5caca7e10e4e61c3624eaa0941cd0615ac5565b901c90505b60108216156139d05760806139cb826fffcb9843d60f6159c9db58835c926644615ac5565b901c90505b60208216156139fa5760806139f5826fff973b41fa98c081472e6896dfb254c0615ac5565b901c90505b6040821615613a24576080613a1f826fff2ea16466c96a3843ec78b326b52861615ac5565b901c90505b6080821615613a4e576080613a49826ffe5dee046a99a2a811c461f1969c3053615ac5565b901c90505b610100821615613a79576080613a74826ffcbe86c7900a88aedcffc83b479aa3a4615ac5565b901c90505b610200821615613aa4576080613a9f826ff987a7253ac413176f2b074cf7815e54615ac5565b901c90505b610400821615613acf576080613aca826ff3392b0822b70005940c7a398e4b70f3615ac5565b901c90505b610800821615613afa576080613af5826fe7159475a2c29b7443b29c7fa6e889d9615ac5565b901c90505b611000821615613b25576080613b20826fd097f3bdfd2022b8845ad8f792aa5825615ac5565b901c90505b612000821615613b50576080613b4b826fa9f746462d870fdf8a65dc1f90e061e5615ac5565b901c90505b614000821615613b7b576080613b76826f70d869a156d2a1b890bb3df62baf32f7615ac5565b901c90505b618000821615613ba6576080613ba1826f31be135f97d08fd981231505542fcfa6615ac5565b901c90505b62010000821615613bd2576080613bcd826f09aa508b5b7a84e1c677de54f3e99bc9615ac5565b901c90505b62020000821615613bfd576080613bf8826e5d6af8dedb81196699c329225ee604615ac5565b901c90505b62040000821615613c27576080613c22826d2216e584f5fa1ea926041bedfe98615ac5565b901c90505b62080000821615613c4f576080613c4a826b048a170391f7dc42444e8fa2615ac5565b901c90505b60008460020b1315613c6a57613c6781600019615ae4565b90505b613c7964010000000082615af8565b15613c85576001613c88565b60005b6107479060ff16602083901c6152e4565b60606118078383604051806060016040528060278152602001615e8260279139614116565b6000610733825490565b60008063ffffffff8316613d035760405162461bcd60e51b8152602060048201526002602482015261042560f41b604482015260640161078c565b6040805160028082526060820183526000926020830190803683370190505090508381600081518110613d3857613d3861514a565b602002602001019063ffffffff16908163ffffffff1681525050600081600181518110613d6757613d6761514a565b63ffffffff90921660209283029190910190910152604051639d3a524160e01b81526001600160a01b03861690639d3a524190613da8908490600401615b0c565b60006040518083038186803b158015613dc057600080fd5b505afa925050508015613df557506040513d6000823e601f3d908101601f19168201604052613df29190810190615c32565b60015b613e0757600060019250925050613ea4565b600084600081518110613e1c57613e1c61514a565b602002602001015185600181518110613e3757613e3761514a565b60200260200101510390508863ffffffff1660060b8160060b81613e5d57613e5d6154ce565b05975060008160060b128015613e9057508863ffffffff1660060b8160060b81613e8957613e896154ce565b0760060b15155b15613e9d57600019909701965b5050505050505b9250929050565b613eb5828261180e565b610c1257613ec28161418e565b613ecd8360206141a0565b604051602001613ede929190615d46565b60408051601f198184030181529082905262461bcd60e51b825261078c91600401614d2c565b613f0e828261180e565b610c12576000828152602081815260408083206001600160a01b03851684529091529020805460ff19166001179055613f443390565b6001600160a01b0316816001600160a01b0316837f2f8788117e7eff1d82e926ec794901d17c78024a50270940304540a733656f0d60405160405180910390a45050565b6000611807836001600160a01b03841661433b565b613fa7828261180e565b15610c12576000828152602081815260408083206001600160a01b0385168085529252808320805460ff1916905551339285917ff6391f5c32d9c69d2a47ea670b442974b53935d1edc7fd64eb21e047a839171b9190a45050565b6000611807836001600160a01b03841661438a565b600061406c826040518060400160405280602081526020017f5361666545524332303a206c6f772d6c6576656c2063616c6c206661696c6564815250856001600160a01b031661447d9092919063ffffffff16565b905080516000148061408d57508080602001905181019061408d9190615dbb565b610b935760405162461bcd60e51b815260206004820152602a60248201527f5361666545524332303a204552433230206f7065726174696f6e20646964206e6044820152691bdd081cdd58d8d9595960b21b606482015260840161078c565b60008260000182815481106141035761410361514a565b9060005260206000200154905092915050565b6060600080856001600160a01b0316856040516141339190615dd8565b600060405180830381855af49150503d806000811461416e576040519150601f19603f3d011682016040523d82523d6000602084013e614173565b606091505b50915091506141848683838761448c565b9695505050505050565b60606107336001600160a01b03831660145b606060006141af836002615ac5565b6141ba9060026152e4565b6001600160401b038111156141d1576141d16146fb565b6040519080825280601f01601f1916602001820160405280156141fb576020820181803683370190505b509050600360fc1b816000815181106142165761421661514a565b60200101906001600160f81b031916908160001a905350600f60fb1b816001815181106142455761424561514a565b60200101906001600160f81b031916908160001a9053506000614269846002615ac5565b6142749060016152e4565b90505b60018111156142ec576f181899199a1a9b1b9c1cb0b131b232b360811b85600f16601081106142a8576142a861514a565b1a60f81b8282815181106142be576142be61514a565b60200101906001600160f81b031916908160001a90535060049490941c936142e581615df4565b9050614277565b5083156118075760405162461bcd60e51b815260206004820181905260248201527f537472696e67733a20686578206c656e67746820696e73756666696369656e74604482015260640161078c565b600081815260018301602052604081205461438257508154600181810184556000848152602080822090930184905584548482528286019093526040902091909155610733565b506000610733565b600081815260018301602052604081205480156144735760006143ae60018361520f565b85549091506000906143c29060019061520f565b90508181146144275760008660000182815481106143e2576143e261514a565b90600052602060002001549050808760000184815481106144055761440561514a565b6000918252602080832090910192909255918252600188019052604090208390555b855486908061443857614438615e0b565b600190038181906000526020600020016000905590558560010160008681526020019081526020016000206000905560019350505050610733565b6000915050610733565b60606107478484600085614502565b606083156144f85782516144f1576001600160a01b0385163b6144f15760405162461bcd60e51b815260206004820152601d60248201527f416464726573733a2063616c6c20746f206e6f6e2d636f6e7472616374000000604482015260640161078c565b5081610747565b61074783836145dd565b6060824710156145635760405162461bcd60e51b815260206004820152602660248201527f416464726573733a20696e73756666696369656e742062616c616e636520666f6044820152651c8818d85b1b60d21b606482015260840161078c565b600080866001600160a01b0316858760405161457f9190615dd8565b60006040518083038185875af1925050503d80600081146145bc576040519150601f19603f3d011682016040523d82523d6000602084013e6145c1565b606091505b50915091506145d28783838761448c565b979650505050505050565b8151156145ed5781518083602001fd5b8060405162461bcd60e51b815260040161078c9190614d2c565b828054828255906000526020600020908101928215614642579160200282015b82811115614642578251825591602001919060010190614627565b5061464e9291506146a7565b5090565b828054828255906000526020600020908101928215614642579160200282015b8281111561464257825182546001600160a01b0319166001600160a01b03909116178255602090920191600190910190614672565b5b8082111561464e57600081556001016146a8565b6000602082840312156146ce57600080fd5b81356001600160e01b03198116811461180757600080fd5b6001600160a01b03811681146124b057600080fd5b634e487b7160e01b600052604160045260246000fd5b604051608081016001600160401b0381118282101715614733576147336146fb565b60405290565b60405161014081016001600160401b0381118282101715614733576147336146fb565b604051601f8201601f191681016001600160401b0381118282101715614784576147846146fb565b604052919050565b60006001600160401b038211156147a5576147a56146fb565b50601f01601f191660200190565b600080600080608085870312156147c957600080fd5b84356147d4816146e6565b935060208501356147e4816146e6565b92506040850135915060608501356001600160401b0381111561480657600080fd5b8501601f8101871361481757600080fd5b803561482a6148258261478c565b61475c565b81815288602083850101111561483f57600080fd5b8160208401602083013760006020838301015280935050505092959194509250565b6000806000806060858703121561487757600080fd5b8435935060208501356001600160401b038082111561489557600080fd5b818701915087601f8301126148a957600080fd5b8135818111156148b857600080fd5b8860208285010111156148ca57600080fd5b95986020929092019750949560400135945092505050565b6000602082840312156148f457600080fd5b8135611807816146e6565b60006020828403121561491157600080fd5b5035919050565b6000806040838503121561492b57600080fd5b82359150602083013561493d816146e6565b809150509250929050565b60006001600160401b03821115614961576149616146fb565b5060051b60200190565b60006080828403121561497d57600080fd5b614985614711565b90508135614992816146e6565b81526020828101356149a3816146e6565b8282015260408301356149b5816146e6565b604083015260608301356001600160401b038111156149d357600080fd5b8301601f810185136149e457600080fd5b80356149f261482582614948565b81815260059190911b82018301908381019087831115614a1157600080fd5b928401925b82841015614a38578335614a29816146e6565b82529284019290840190614a16565b6060860152509295945050505050565b600060208284031215614a5a57600080fd5b81356001600160401b03811115614a7057600080fd5b6107478482850161496b565b8060020b81146124b057600080fd5b8035614a9681614a7c565b919050565b63ffffffff811681146124b057600080fd5b8035614a9681614a9b565b600082601f830112614ac957600080fd5b81356020614ad961482583614948565b82815260059290921b84018101918181019086841115614af857600080fd5b8286015b84811015614b135780358352918301918301614afc565b509695505050505050565b60006101408284031215614b3157600080fd5b614b39614739565b9050614b4482614a8b565b8152614b5260208301614a8b565b6020820152614b6360408301614a8b565b6040820152614b7460608301614a8b565b6060820152614b8560808301614aad565b608082015260a082013560a082015260c082013560c082015260e082013560e0820152610100808301358183015250610120808301356001600160401b03811115614bcf57600080fd5b614bdb85828601614ab8565b82840152505092915050565b60008060008060808587031215614bfd57600080fd5b84356001600160401b0380821115614c1457600080fd5b614c208883890161496b565b95506020870135915080821115614c3657600080fd5b50614c4387828801614b1e565b949794965050505060408301359260600135919050565b600060208284031215614c6c57600080fd5b81356001600160401b03811115614c8257600080fd5b61074784828501614b1e565b60008060408385031215614ca157600080fd5b82356001600160401b03811115614cb757600080fd5b614cc38582860161496b565b925050602083013561493d816146e6565b60005b83811015614cef578181015183820152602001614cd7565b838111156138065750506000910152565b60008151808452614d18816020860160208601614cd4565b601f01601f19169290920160200192915050565b6020815260006118076020830184614d00565b60008060408385031215614d5257600080fd5b50508035926020909101359150565b600080600060608486031215614d7657600080fd5b83356001600160401b03811115614d8c57600080fd5b614d9886828701614b1e565b9350506020840135614da981614a7c565b91506040840135614db981614a7c565b809150509250925092565b604081016107338284805160020b8252602081015160020b60208301525050565b60008060008385036080811215614dfb57600080fd5b6040811215614e0957600080fd5b50604051604081018181106001600160401b0382111715614e2c57614e2c6146fb565b6040528435614e3a81614a7c565b81526020850135614e4a81614a7c565b602082015292506040840135614e5f816146e6565b929592945050506060919091013590565b80151581146124b057600080fd5b600060208284031215614e9057600080fd5b813561180781614e70565b60008060208385031215614eae57600080fd5b82356001600160401b0380821115614ec557600080fd5b818501915085601f830112614ed957600080fd5b813581811115614ee857600080fd5b8660208260051b8501011115614efd57600080fd5b60209290920196919550909350505050565b6000602080830181845280855180835260408601915060408160051b870101925083870160005b82811015614f6457603f19888603018452614f52858351614d00565b94509285019290850190600101614f36565b5092979650505050505050565b600060408284031215614f8357600080fd5b604051604081018181106001600160401b0382111715614fa557614fa56146fb565b604052823581526020928301359281019290925250919050565b60008060408385031215614fd257600080fd5b82356001600160401b03811115614fe857600080fd5b614cc385828601614b1e565b6000806000806080858703121561500a57600080fd5b84356001600160401b0381111561502057600080fd5b61502c87828801614b1e565b945050602085013561503d81614a7c565b9250604085013561504d816146e6565b9396929550929360600135925050565b6060810161507e8285805160020b8252602081015160020b60208301525050565b82151560408301529392505050565b8051614a9681614a7c565b805161ffff81168114614a9657600080fd5b805160ff81168114614a9657600080fd5b600080600080600080600060e0888a0312156150d657600080fd5b87516150e1816146e6565b60208901519097506150f281614a7c565b955061510060408901615098565b945061510e60608901615098565b935061511c608089016150aa565b925061512a60a089016150aa565b915060c088015161513a81614e70565b8091505092959891949750929550565b634e487b7160e01b600052603260045260246000fd5b8051614a96816146e6565b6000602080838503121561517e57600080fd5b82516001600160401b0381111561519457600080fd5b8301601f810185136151a557600080fd5b80516151b361482582614948565b81815260059190911b820183019083810190878311156151d257600080fd5b928401925b828410156145d25783516151ea816146e6565b825292840192908401906151d7565b634e487b7160e01b600052601160045260246000fd5b600082821015615221576152216151f9565b500390565b600082601f83011261523757600080fd5b8151602061524761482583614948565b82815260059290921b8401810191818101908684111561526657600080fd5b8286015b84811015614b13578051835291830191830161526a565b6000806040838503121561529457600080fd5b82516001600160401b03808211156152ab57600080fd5b6152b786838701615226565b935060208501519150808211156152cd57600080fd5b506152da85828601615226565b9150509250929050565b600082198211156152f7576152f76151f9565b500190565b600081518084526020808501945080840160005b8381101561532c57815187529582019590820190600101615310565b509495945050505050565b6020815261534b60208201835160020b9052565b60006020830151615361604084018260020b9052565b506040830151615376606084018260020b9052565b50606083015161538b608084018260020b9052565b50608083015163ffffffff811660a08401525060a083015160c083015260c083015160e083015260e08301516101008181850152808501519150506101208181850152808501519150506101408081850152506107476101608401826152fc565b6001600160a01b03841681526001600160e01b03198316602082015260606040820181905260009061542090830184614d00565b95945050505050565b60006020828403121561543b57600080fd5b81516001600160401b0381111561545157600080fd5b8201601f8101841361546257600080fd5b80516154706148258261478c565b81815285602083850101111561548557600080fd5b615420826020830160208601614cd4565b60006000198214156154aa576154aa6151f9565b5060010190565b6000602082840312156154c357600080fd5b8151611807816146e6565b634e487b7160e01b600052601260045260246000fd5b60008260020b806154f7576154f76154ce565b808360020b0791505092915050565b60008160020b8360020b6000811281627fffff190183128115161561552d5761552d6151f9565b81627fffff018313811615615544576155446151f9565b5090039392505050565b60008160020b8360020b627fffff60008213600084138383048511828216161561557a5761557a6151f9565b627fffff196000851282811687830587121615615599576155996151f9565b600087129250858205871284841616156155b5576155b56151f9565b858505871281841616156155cb576155cb6151f9565b5050509290910295945050505050565b60008160020b8360020b6000821282627fffff03821381151615615601576156016151f9565b82627fffff19038212811615615619576156196151f9565b50019392505050565b60008160020b8360020b80615639576156396154ce565b627fffff19821460001982141615615653576156536151f9565b90059392505050565b6000808335601e1984360301811261567357600080fd5b8301803591506001600160401b0382111561568d57600080fd5b602001915036819003821315613ea457600080fd5b6000602082840312156156b457600080fd5b815161180781614a7c565b60008160020b627fffff198114156156d9576156d96151f9565b60000392915050565b80516001600160801b0381168114614a9657600080fd5b60008060008060008060008060008060006101608c8e03121561571b57600080fd5b8b516bffffffffffffffffffffffff8116811461573757600080fd5b60208d0151909b50615748816146e6565b60408d0151909a50615759816146e6565b985061576760608d01615160565b975061577560808d0161508d565b965061578360a08d0161508d565b955061579160c08d016156e2565b945060e08c015193506101008c015192506157af6101208d016156e2565b91506157be6101408d016156e2565b90509295989b509295989b9093969950565b6000602082840312156157e257600080fd5b5051919050565b6000602082840312156157fb57600080fd5b81516001600160401b0381111561581157600080fd5b61074784828501615226565b6000806040838503121561583057600080fd5b505080516020909101519092909150565b6001600160a01b0384811682526080602080840182905285519184018290526000928682019290919060a0860190855b8181101561588f578551851683529483019491830191600101615871565b505085810360408701526158a381886152fc565b86810360609097019690965250600085529093019695505050505050565b81516001600160a01b03168152610140810160208301516158ed60208401826001600160a01b03169052565b506040830151615902604084018260020b9052565b506060830151615917606084018260020b9052565b506080830151608083015260a083015160a083015260c083015160c083015260e083015160e08301526101008084015161595b828501826001600160a01b03169052565b505061012092830151919092015290565b6000806000806080858703121561598257600080fd5b84519350615992602086016156e2565b6040860151606090960151949790965092505050565b600080858511156159b857600080fd5b838611156159c557600080fd5b5050820193919092039150565b6001600160e01b031981358181169160048510156159fa5780818660040360031b1b83161692505b505092915050565b6001600160a01b03851681526001600160e01b0319841660208201526060604082018190528101829052818360808301376000818301608090810191909152601f909201601f191601019392505050565b60008060008060808587031215615a6957600080fd5b845193506020850151615a7b81614a9b565b6040860151909350615a8c81614e70565b6060860151909250615a9d816146e6565b939692955090935050565b6000600160ff1b821415615abe57615abe6151f9565b5060000390565b6000816000190483118215151615615adf57615adf6151f9565b500290565b600082615af357615af36154ce565b500490565b600082615b0757615b076154ce565b500690565b6020808252825182820181905260009190848201906040850190845b81811015615b4a57835163ffffffff1683529284019291840191600101615b28565b50909695505050505050565b600082601f830112615b6757600080fd5b81516020615b7761482583614948565b82815260059290921b84018101918181019086841115615b9657600080fd5b8286015b84811015614b13578051615bad816146e6565b8352918301918301615b9a565b600082601f830112615bcb57600080fd5b81516020615bdb61482583614948565b82815260059290921b84018101918181019086841115615bfa57600080fd5b8286015b84811015614b135780516dffffffffffffffffffffffffffff81168114615c255760008081fd5b8352918301918301615bfe565b60008060008060808587031215615c4857600080fd5b84516001600160401b0380821115615c5f57600080fd5b818701915087601f830112615c7357600080fd5b81516020615c8361482583614948565b82815260059290921b8401810191818101908b841115615ca257600080fd5b948201945b83861015615cd05785518060060b8114615cc15760008081fd5b82529482019490820190615ca7565b918a0151919850909350505080821115615ce957600080fd5b615cf588838901615b56565b94506040870151915080821115615d0b57600080fd5b615d1788838901615bba565b93506060870151915080821115615d2d57600080fd5b50615d3a87828801615226565b91505092959194509250565b7f416363657373436f6e74726f6c3a206163636f756e7420000000000000000000815260008351615d7e816017850160208801614cd4565b7001034b99036b4b9b9b4b733903937b6329607d1b6017918401918201528351615daf816028840160208801614cd4565b01602801949350505050565b600060208284031215615dcd57600080fd5b815161180781614e70565b60008251615dea818460208701614cd4565b9190910192915050565b600081615e0357615e036151f9565b506000190190565b634e487b7160e01b600052603160045260246000fdfec171260023d22a25a00a2789664c9334017843b831138c8ef03cc8897e5873d7f23ec0bb4210edd5cba85afd05127efcd2fc6a781bfed49188da1081670b22d846a52cf33029de9f84853745a87af28464c80bf0346df1b32e205fc73319f622416464726573733a206c6f772d6c6576656c2064656c65676174652063616c6c206661696c6564a2646970667358221220c5d5d9440f1c67ff2e3ed50722dba71c711323af7e239d4ce1db64564fb96d8064736f6c63430008090033",
    "linkReferences": {}
  },
  "methodIdentifiers": {
    "ADMIN_DELEGATE_ROLE()": "0952ff54",
    "ADMIN_ROLE()": "75b238fc",
    "D6()": "a11bac74",
    "D9()": "551530ae",
    "DEFAULT_ADMIN_ROLE()": "a217fddf",
    "OPERATOR()": "983d2737",
    "Q96()": "40792465",
    "algebraPool()": "9f747b20",
    "calculateAmountsForSwap((address,address,address,address[]),(int24,int24,int24,int24,uint32,uint256,uint256,uint256,uint256,uint256[]),uint256,uint256)": "50c9d3bb",
    "calculateNewPosition((int24,int24,int24,int24,uint32,uint256,uint256,uint256,uint256,uint256[]),int24,address,uint256)": "fe57ed61",
    "calculateTargetRatioOfToken1((int24,int24),uint160,uint256)": "9bb37ba8",
    "checkImmutableParams((address,address,address,address[]))": "475cffef",
    "checkMutableParams((int24,int24,int24,int24,uint32,uint256,uint256,uint256,uint256,uint256[]))": "d7a678c0",
    "checkTickDeviation((int24,int24,int24,int24,uint32,uint256,uint256,uint256,uint256,uint256[]),address)": "f05329b2",
    "contractName()": "75d0c0dc",
    "contractNameBytes()": "0e3e80ac",
    "contractVersion()": "a0a8e460",
    "contractVersionBytes()": "06a46239",
    "depositCallback()": "e521826f",
    "desiredAmounts()": "d3277e86",
    "forceRebalanceWidthFlag()": "1e63f062",
    "formPositionWithSpotTickInCenter((int24,int24,int24,int24,uint32,uint256,uint256,uint256,uint256,uint256[]),int24,int24)": "95aa080d",
    "getRoleAdmin(bytes32)": "248a9ca3",
    "getRoleMember(bytes32,uint256)": "9010d07c",
    "getRoleMemberCount(bytes32)": "ca15c873",
    "grantRole(bytes32,address)": "2f2ff15d",
    "hasRole(bytes32,address)": "91d14854",
    "immutableParams()": "c8014d53",
    "init(address)": "19ab453c",
    "initialize((address,address,address,address[]),address)": "6ff0b358",
    "initialized()": "158ef93e",
    "isAdmin(address)": "24d7806c",
    "isOperator(address)": "6d70f7ae",
    "multicall(bytes[])": "ac9650d8",
    "mutableParams()": "5f408a21",
    "onERC721Received(address,address,uint256,bytes)": "150b7a02",
    "positionManager()": "791b98bc",
    "rebalance(uint256,bytes,uint256)": "163cacd5",
    "renounceRole(bytes32,address)": "36568abe",
    "revokeRole(bytes32,address)": "d547741f",
    "setForceRebalanceFlag(bool)": "a8470bcc",
    "supportsInterface(bytes4)": "01ffc9a7",
    "updateDesiredAmounts((uint256,uint256))": "ace4d0fd",
    "updateMutableParams((int24,int24,int24,int24,uint32,uint256,uint256,uint256,uint256,uint256[]))": "60aa2705",
    "withdrawCallback()": "b4559f3e"
  },
  "id": 401
}