{
  "abi": [
    {
      "inputs": [
        {
          "internalType": "contract INonfungiblePositionManager",
          "name": "positionManager_",
          "type": "address"
        }
      ],
      "stateMutability": "nonpayable",
      "type": "constructor"
    },
    {
      "anonymous": false,
      "inputs": [
        {
          "indexed": false,
          "internalType": "uint256",
          "name": "tokenId",
          "type": "uint256"
        }
      ],
      "name": "PositionBurned",
      "type": "event"
    },
    {
      "anonymous": false,
      "inputs": [
        {
          "indexed": false,
          "internalType": "uint256",
          "name": "tokenId",
          "type": "uint256"
        }
      ],
      "name": "PositionMinted",
      "type": "event"
    },
    {
      "anonymous": false,
      "inputs": [
        {
          "indexed": true,
          "internalType": "address",
          "name": "origin",
          "type": "address"
        },
        {
          "indexed": true,
          "internalType": "address",
          "name": "sender",
          "type": "address"
        }
      ],
      "name": "Rebalance",
      "type": "event"
    },
    {
      "anonymous": false,
      "inputs": [
        {
          "indexed": true,
          "internalType": "bytes32",
          "name": "role",
          "type": "bytes32"
        },
        {
          "indexed": true,
          "internalType": "bytes32",
          "name": "previousAdminRole",
          "type": "bytes32"
        },
        {
          "indexed": true,
          "internalType": "bytes32",
          "name": "newAdminRole",
          "type": "bytes32"
        }
      ],
      "name": "RoleAdminChanged",
      "type": "event"
    },
    {
      "anonymous": false,
      "inputs": [
        {
          "indexed": true,
          "internalType": "bytes32",
          "name": "role",
          "type": "bytes32"
        },
        {
          "indexed": true,
          "internalType": "address",
          "name": "account",
          "type": "address"
        },
        {
          "indexed": true,
          "internalType": "address",
          "name": "sender",
          "type": "address"
        }
      ],
      "name": "RoleGranted",
      "type": "event"
    },
    {
      "anonymous": false,
      "inputs": [
        {
          "indexed": true,
          "internalType": "bytes32",
          "name": "role",
          "type": "bytes32"
        },
        {
          "indexed": true,
          "internalType": "address",
          "name": "account",
          "type": "address"
        },
        {
          "indexed": true,
          "internalType": "address",
          "name": "sender",
          "type": "address"
        }
      ],
      "name": "RoleRevoked",
      "type": "event"
    },
    {
      "anonymous": false,
      "inputs": [
        {
          "indexed": false,
          "internalType": "uint256",
          "name": "amountIn",
          "type": "uint256"
        },
        {
          "indexed": false,
          "internalType": "uint256",
          "name": "amountOut",
          "type": "uint256"
        },
        {
          "indexed": false,
          "internalType": "uint256",
          "name": "tokenInIndex",
          "type": "uint256"
        }
      ],
      "name": "TokensSwapped",
      "type": "event"
    },
    {
      "anonymous": false,
      "inputs": [
        {
          "indexed": true,
          "internalType": "address",
          "name": "origin",
          "type": "address"
        },
        {
          "indexed": true,
          "internalType": "address",
          "name": "sender",
          "type": "address"
        },
        {
          "components": [
            {
              "internalType": "int24",
              "name": "priceImpactD6",
              "type": "int24"
            },
            {
              "internalType": "int24",
              "name": "intervalWidth",
              "type": "int24"
            },
            {
              "internalType": "int24",
              "name": "tickNeighborhood",
              "type": "int24"
            },
            {
              "internalType": "int24",
              "name": "maxDeviationForVaultPool",
              "type": "int24"
            },
            {
              "internalType": "uint32",
              "name": "timespanForAverageTick",
              "type": "uint32"
            },
            {
              "internalType": "uint256",
              "name": "amount0Desired",
              "type": "uint256"
            },
            {
              "internalType": "uint256",
              "name": "amount1Desired",
              "type": "uint256"
            },
            {
              "internalType": "uint256",
              "name": "swapSlippageD",
              "type": "uint256"
            },
            {
              "internalType": "uint256",
              "name": "swappingAmountsCoefficientD",
              "type": "uint256"
            },
            {
              "internalType": "uint256[]",
              "name": "minSwapAmounts",
              "type": "uint256[]"
            }
          ],
          "indexed": false,
          "internalType": "struct PulseStrategy.MutableParams",
          "name": "mutableParams",
          "type": "tuple"
        }
      ],
      "name": "UpdateMutableParams",
      "type": "event"
    },
    {
      "inputs": [],
      "name": "ADMIN_DELEGATE_ROLE",
      "outputs": [
        {
          "internalType": "bytes32",
          "name": "",
          "type": "bytes32"
        }
      ],
      "stateMutability": "view",
      "type": "function"
    },
    {
      "inputs": [],
      "name": "ADMIN_ROLE",
      "outputs": [
        {
          "internalType": "bytes32",
          "name": "",
          "type": "bytes32"
        }
      ],
      "stateMutability": "view",
      "type": "function"
    },
    {
      "inputs": [],
      "name": "D6",
      "outputs": [
        {
          "internalType": "uint256",
          "name": "",
          "type": "uint256"
        }
      ],
      "stateMutability": "view",
      "type": "function"
    },
    {
      "inputs": [],
      "name": "D9",
      "outputs": [
        {
          "internalType": "uint256",
          "name": "",
          "type": "uint256"
        }
      ],
      "stateMutability": "view",
      "type": "function"
    },
    {
      "inputs": [],
      "name": "DEFAULT_ADMIN_ROLE",
      "outputs": [
        {
          "internalType": "bytes32",
          "name": "",
          "type": "bytes32"
        }
      ],
      "stateMutability": "view",
      "type": "function"
    },
    {
      "inputs": [],
      "name": "OPERATOR",
      "outputs": [
        {
          "internalType": "bytes32",
          "name": "",
          "type": "bytes32"
        }
      ],
      "stateMutability": "view",
      "type": "function"
    },
    {
      "inputs": [],
      "name": "Q96",
      "outputs": [
        {
          "internalType": "uint256",
          "name": "",
          "type": "uint256"
        }
      ],
      "stateMutability": "view",
      "type": "function"
    },
    {
      "inputs": [
        {
          "components": [
            {
              "internalType": "address",
              "name": "router",
              "type": "address"
            },
            {
              "internalType": "contract IERC20Vault",
              "name": "erc20Vault",
              "type": "address"
            },
            {
              "internalType": "contract IUniV3Vault",
              "name": "uniV3Vault",
              "type": "address"
            },
            {
              "internalType": "address[]",
              "name": "tokens",
              "type": "address[]"
            }
          ],
          "internalType": "struct PulseStrategy.ImmutableParams",
          "name": "immutableParams_",
          "type": "tuple"
        },
        {
          "components": [
            {
              "internalType": "int24",
              "name": "priceImpactD6",
              "type": "int24"
            },
            {
              "internalType": "int24",
              "name": "intervalWidth",
              "type": "int24"
            },
            {
              "internalType": "int24",
              "name": "tickNeighborhood",
              "type": "int24"
            },
            {
              "internalType": "int24",
              "name": "maxDeviationForVaultPool",
              "type": "int24"
            },
            {
              "internalType": "uint32",
              "name": "timespanForAverageTick",
              "type": "uint32"
            },
            {
              "internalType": "uint256",
              "name": "amount0Desired",
              "type": "uint256"
            },
            {
              "internalType": "uint256",
              "name": "amount1Desired",
              "type": "uint256"
            },
            {
              "internalType": "uint256",
              "name": "swapSlippageD",
              "type": "uint256"
            },
            {
              "internalType": "uint256",
              "name": "swappingAmountsCoefficientD",
              "type": "uint256"
            },
            {
              "internalType": "uint256[]",
              "name": "minSwapAmounts",
              "type": "uint256[]"
            }
          ],
          "internalType": "struct PulseStrategy.MutableParams",
          "name": "mutableParams_",
          "type": "tuple"
        },
        {
          "internalType": "uint256",
          "name": "priceX96",
          "type": "uint256"
        },
        {
          "internalType": "uint256",
          "name": "targetRatioOfToken1X96",
          "type": "uint256"
        }
      ],
      "name": "calculateAmountsForSwap",
      "outputs": [
        {
          "internalType": "uint256",
          "name": "tokenInIndex",
          "type": "uint256"
        },
        {
          "internalType": "uint256",
          "name": "amountIn",
          "type": "uint256"
        }
      ],
      "stateMutability": "view",
      "type": "function"
    },
    {
      "inputs": [
        {
          "components": [
            {
              "internalType": "int24",
              "name": "priceImpactD6",
              "type": "int24"
            },
            {
              "internalType": "int24",
              "name": "intervalWidth",
              "type": "int24"
            },
            {
              "internalType": "int24",
              "name": "tickNeighborhood",
              "type": "int24"
            },
            {
              "internalType": "int24",
              "name": "maxDeviationForVaultPool",
              "type": "int24"
            },
            {
              "internalType": "uint32",
              "name": "timespanForAverageTick",
              "type": "uint32"
            },
            {
              "internalType": "uint256",
              "name": "amount0Desired",
              "type": "uint256"
            },
            {
              "internalType": "uint256",
              "name": "amount1Desired",
              "type": "uint256"
            },
            {
              "internalType": "uint256",
              "name": "swapSlippageD",
              "type": "uint256"
            },
            {
              "internalType": "uint256",
              "name": "swappingAmountsCoefficientD",
              "type": "uint256"
            },
            {
              "internalType": "uint256[]",
              "name": "minSwapAmounts",
              "type": "uint256[]"
            }
          ],
          "internalType": "struct PulseStrategy.MutableParams",
          "name": "mutableParams_",
          "type": "tuple"
        },
        {
          "internalType": "int24",
          "name": "spotTick",
          "type": "int24"
        },
        {
          "internalType": "contract IUniswapV3Pool",
          "name": "pool",
          "type": "address"
        },
        {
          "internalType": "uint256",
          "name": "uniV3Nft",
          "type": "uint256"
        }
      ],
      "name": "calculateNewPosition",
      "outputs": [
        {
          "components": [
            {
              "internalType": "int24",
              "name": "lowerTick",
              "type": "int24"
            },
            {
              "internalType": "int24",
              "name": "upperTick",
              "type": "int24"
            }
          ],
          "internalType": "struct PulseStrategy.Interval",
          "name": "newInterval",
          "type": "tuple"
        },
        {
          "internalType": "bool",
          "name": "neededNewInterval",
          "type": "bool"
        }
      ],
      "stateMutability": "view",
      "type": "function"
    },
    {
      "inputs": [
        {
          "components": [
            {
              "internalType": "int24",
              "name": "lowerTick",
              "type": "int24"
            },
            {
              "internalType": "int24",
              "name": "upperTick",
              "type": "int24"
            }
          ],
          "internalType": "struct PulseStrategy.Interval",
          "name": "interval",
          "type": "tuple"
        },
        {
          "internalType": "uint160",
          "name": "sqrtSpotPriceX96",
          "type": "uint160"
        },
        {
          "internalType": "uint256",
          "name": "spotPriceX96",
          "type": "uint256"
        }
      ],
      "name": "calculateTargetRatioOfToken1",
      "outputs": [
        {
          "internalType": "uint256",
          "name": "targetRatioOfToken1X96",
          "type": "uint256"
        }
      ],
      "stateMutability": "pure",
      "type": "function"
    },
    {
      "inputs": [
        {
          "components": [
            {
              "internalType": "address",
              "name": "router",
              "type": "address"
            },
            {
              "internalType": "contract IERC20Vault",
              "name": "erc20Vault",
              "type": "address"
            },
            {
              "internalType": "contract IUniV3Vault",
              "name": "uniV3Vault",
              "type": "address"
            },
            {
              "internalType": "address[]",
              "name": "tokens",
              "type": "address[]"
            }
          ],
          "internalType": "struct PulseStrategy.ImmutableParams",
          "name": "params",
          "type": "tuple"
        }
      ],
      "name": "checkImmutableParams",
      "outputs": [],
      "stateMutability": "view",
      "type": "function"
    },
    {
      "inputs": [
        {
          "components": [
            {
              "internalType": "int24",
              "name": "priceImpactD6",
              "type": "int24"
            },
            {
              "internalType": "int24",
              "name": "intervalWidth",
              "type": "int24"
            },
            {
              "internalType": "int24",
              "name": "tickNeighborhood",
              "type": "int24"
            },
            {
              "internalType": "int24",
              "name": "maxDeviationForVaultPool",
              "type": "int24"
            },
            {
              "internalType": "uint32",
              "name": "timespanForAverageTick",
              "type": "uint32"
            },
            {
              "internalType": "uint256",
              "name": "amount0Desired",
              "type": "uint256"
            },
            {
              "internalType": "uint256",
              "name": "amount1Desired",
              "type": "uint256"
            },
            {
              "internalType": "uint256",
              "name": "swapSlippageD",
              "type": "uint256"
            },
            {
              "internalType": "uint256",
              "name": "swappingAmountsCoefficientD",
              "type": "uint256"
            },
            {
              "internalType": "uint256[]",
              "name": "minSwapAmounts",
              "type": "uint256[]"
            }
          ],
          "internalType": "struct PulseStrategy.MutableParams",
          "name": "params",
          "type": "tuple"
        },
        {
          "components": [
            {
              "internalType": "address",
              "name": "router",
              "type": "address"
            },
            {
              "internalType": "contract IERC20Vault",
              "name": "erc20Vault",
              "type": "address"
            },
            {
              "internalType": "contract IUniV3Vault",
              "name": "uniV3Vault",
              "type": "address"
            },
            {
              "internalType": "address[]",
              "name": "tokens",
              "type": "address[]"
            }
          ],
          "internalType": "struct PulseStrategy.ImmutableParams",
          "name": "immutableParams_",
          "type": "tuple"
        }
      ],
      "name": "checkMutableParams",
      "outputs": [],
      "stateMutability": "view",
      "type": "function"
    },
    {
      "inputs": [
        {
          "components": [
            {
              "internalType": "int24",
              "name": "priceImpactD6",
              "type": "int24"
            },
            {
              "internalType": "int24",
              "name": "intervalWidth",
              "type": "int24"
            },
            {
              "internalType": "int24",
              "name": "tickNeighborhood",
              "type": "int24"
            },
            {
              "internalType": "int24",
              "name": "maxDeviationForVaultPool",
              "type": "int24"
            },
            {
              "internalType": "uint32",
              "name": "timespanForAverageTick",
              "type": "uint32"
            },
            {
              "internalType": "uint256",
              "name": "amount0Desired",
              "type": "uint256"
            },
            {
              "internalType": "uint256",
              "name": "amount1Desired",
              "type": "uint256"
            },
            {
              "internalType": "uint256",
              "name": "swapSlippageD",
              "type": "uint256"
            },
            {
              "internalType": "uint256",
              "name": "swappingAmountsCoefficientD",
              "type": "uint256"
            },
            {
              "internalType": "uint256[]",
              "name": "minSwapAmounts",
              "type": "uint256[]"
            }
          ],
          "internalType": "struct PulseStrategy.MutableParams",
          "name": "mutableParams_",
          "type": "tuple"
        },
        {
          "internalType": "contract IUniswapV3Pool",
          "name": "vaultPool",
          "type": "address"
        }
      ],
      "name": "checkTickDeviation",
      "outputs": [],
      "stateMutability": "view",
      "type": "function"
    },
    {
      "inputs": [],
      "name": "contractName",
      "outputs": [
        {
          "internalType": "string",
          "name": "",
          "type": "string"
        }
      ],
      "stateMutability": "pure",
      "type": "function"
    },
    {
      "inputs": [],
      "name": "contractNameBytes",
      "outputs": [
        {
          "internalType": "bytes32",
          "name": "",
          "type": "bytes32"
        }
      ],
      "stateMutability": "pure",
      "type": "function"
    },
    {
      "inputs": [],
      "name": "contractVersion",
      "outputs": [
        {
          "internalType": "string",
          "name": "",
          "type": "string"
        }
      ],
      "stateMutability": "pure",
      "type": "function"
    },
    {
      "inputs": [],
      "name": "contractVersionBytes",
      "outputs": [
        {
          "internalType": "bytes32",
          "name": "",
          "type": "bytes32"
        }
      ],
      "stateMutability": "pure",
      "type": "function"
    },
    {
      "inputs": [],
      "name": "depositCallback",
      "outputs": [],
      "stateMutability": "nonpayable",
      "type": "function"
    },
    {
      "inputs": [
        {
          "internalType": "bytes32",
          "name": "role",
          "type": "bytes32"
        }
      ],
      "name": "getRoleAdmin",
      "outputs": [
        {
          "internalType": "bytes32",
          "name": "",
          "type": "bytes32"
        }
      ],
      "stateMutability": "view",
      "type": "function"
    },
    {
      "inputs": [
        {
          "internalType": "bytes32",
          "name": "role",
          "type": "bytes32"
        },
        {
          "internalType": "uint256",
          "name": "index",
          "type": "uint256"
        }
      ],
      "name": "getRoleMember",
      "outputs": [
        {
          "internalType": "address",
          "name": "",
          "type": "address"
        }
      ],
      "stateMutability": "view",
      "type": "function"
    },
    {
      "inputs": [
        {
          "internalType": "bytes32",
          "name": "role",
          "type": "bytes32"
        }
      ],
      "name": "getRoleMemberCount",
      "outputs": [
        {
          "internalType": "uint256",
          "name": "",
          "type": "uint256"
        }
      ],
      "stateMutability": "view",
      "type": "function"
    },
    {
      "inputs": [
        {
          "internalType": "bytes32",
          "name": "role",
          "type": "bytes32"
        },
        {
          "internalType": "address",
          "name": "account",
          "type": "address"
        }
      ],
      "name": "grantRole",
      "outputs": [],
      "stateMutability": "nonpayable",
      "type": "function"
    },
    {
      "inputs": [
        {
          "internalType": "bytes32",
          "name": "role",
          "type": "bytes32"
        },
        {
          "internalType": "address",
          "name": "account",
          "type": "address"
        }
      ],
      "name": "hasRole",
      "outputs": [
        {
          "internalType": "bool",
          "name": "",
          "type": "bool"
        }
      ],
      "stateMutability": "view",
      "type": "function"
    },
    {
      "inputs": [],
      "name": "immutableParams",
      "outputs": [
        {
          "internalType": "address",
          "name": "router",
          "type": "address"
        },
        {
          "internalType": "contract IERC20Vault",
          "name": "erc20Vault",
          "type": "address"
        },
        {
          "internalType": "contract IUniV3Vault",
          "name": "uniV3Vault",
          "type": "address"
        }
      ],
      "stateMutability": "view",
      "type": "function"
    },
    {
      "inputs": [
        {
          "internalType": "address",
          "name": "admin",
          "type": "address"
        }
      ],
      "name": "init",
      "outputs": [],
      "stateMutability": "nonpayable",
      "type": "function"
    },
    {
      "inputs": [
        {
          "components": [
            {
              "internalType": "address",
              "name": "router",
              "type": "address"
            },
            {
              "internalType": "contract IERC20Vault",
              "name": "erc20Vault",
              "type": "address"
            },
            {
              "internalType": "contract IUniV3Vault",
              "name": "uniV3Vault",
              "type": "address"
            },
            {
              "internalType": "address[]",
              "name": "tokens",
              "type": "address[]"
            }
          ],
          "internalType": "struct PulseStrategy.ImmutableParams",
          "name": "immutableParams_",
          "type": "tuple"
        },
        {
          "internalType": "address",
          "name": "admin",
          "type": "address"
        }
      ],
      "name": "initialize",
      "outputs": [],
      "stateMutability": "nonpayable",
      "type": "function"
    },
    {
      "inputs": [],
      "name": "initialized",
      "outputs": [
        {
          "internalType": "bool",
          "name": "",
          "type": "bool"
        }
      ],
      "stateMutability": "view",
      "type": "function"
    },
    {
      "inputs": [
        {
          "internalType": "address",
          "name": "sender",
          "type": "address"
        }
      ],
      "name": "isAdmin",
      "outputs": [
        {
          "internalType": "bool",
          "name": "",
          "type": "bool"
        }
      ],
      "stateMutability": "view",
      "type": "function"
    },
    {
      "inputs": [
        {
          "internalType": "address",
          "name": "sender",
          "type": "address"
        }
      ],
      "name": "isOperator",
      "outputs": [
        {
          "internalType": "bool",
          "name": "",
          "type": "bool"
        }
      ],
      "stateMutability": "view",
      "type": "function"
    },
    {
      "inputs": [
        {
          "internalType": "bytes[]",
          "name": "data",
          "type": "bytes[]"
        }
      ],
      "name": "multicall",
      "outputs": [
        {
          "internalType": "bytes[]",
          "name": "results",
          "type": "bytes[]"
        }
      ],
      "stateMutability": "nonpayable",
      "type": "function"
    },
    {
      "inputs": [],
      "name": "mutableParams",
      "outputs": [
        {
          "internalType": "int24",
          "name": "priceImpactD6",
          "type": "int24"
        },
        {
          "internalType": "int24",
          "name": "intervalWidth",
          "type": "int24"
        },
        {
          "internalType": "int24",
          "name": "tickNeighborhood",
          "type": "int24"
        },
        {
          "internalType": "int24",
          "name": "maxDeviationForVaultPool",
          "type": "int24"
        },
        {
          "internalType": "uint32",
          "name": "timespanForAverageTick",
          "type": "uint32"
        },
        {
          "internalType": "uint256",
          "name": "amount0Desired",
          "type": "uint256"
        },
        {
          "internalType": "uint256",
          "name": "amount1Desired",
          "type": "uint256"
        },
        {
          "internalType": "uint256",
          "name": "swapSlippageD",
          "type": "uint256"
        },
        {
          "internalType": "uint256",
          "name": "swappingAmountsCoefficientD",
          "type": "uint256"
        }
      ],
      "stateMutability": "view",
      "type": "function"
    },
    {
      "inputs": [],
      "name": "positionManager",
      "outputs": [
        {
          "internalType": "contract INonfungiblePositionManager",
          "name": "",
          "type": "address"
        }
      ],
      "stateMutability": "view",
      "type": "function"
    },
    {
      "inputs": [
        {
          "internalType": "uint256",
          "name": "deadline",
          "type": "uint256"
        },
        {
          "internalType": "bytes",
          "name": "swapData",
          "type": "bytes"
        }
      ],
      "name": "rebalance",
      "outputs": [],
      "stateMutability": "nonpayable",
      "type": "function"
    },
    {
      "inputs": [
        {
          "internalType": "bytes32",
          "name": "role",
          "type": "bytes32"
        },
        {
          "internalType": "address",
          "name": "account",
          "type": "address"
        }
      ],
      "name": "renounceRole",
      "outputs": [],
      "stateMutability": "nonpayable",
      "type": "function"
    },
    {
      "inputs": [
        {
          "internalType": "bytes32",
          "name": "role",
          "type": "bytes32"
        },
        {
          "internalType": "address",
          "name": "account",
          "type": "address"
        }
      ],
      "name": "revokeRole",
      "outputs": [],
      "stateMutability": "nonpayable",
      "type": "function"
    },
    {
      "inputs": [
        {
          "internalType": "bytes4",
          "name": "interfaceId",
          "type": "bytes4"
        }
      ],
      "name": "supportsInterface",
      "outputs": [
        {
          "internalType": "bool",
          "name": "",
          "type": "bool"
        }
      ],
      "stateMutability": "view",
      "type": "function"
    },
    {
      "inputs": [
        {
          "components": [
            {
              "internalType": "int24",
              "name": "priceImpactD6",
              "type": "int24"
            },
            {
              "internalType": "int24",
              "name": "intervalWidth",
              "type": "int24"
            },
            {
              "internalType": "int24",
              "name": "tickNeighborhood",
              "type": "int24"
            },
            {
              "internalType": "int24",
              "name": "maxDeviationForVaultPool",
              "type": "int24"
            },
            {
              "internalType": "uint32",
              "name": "timespanForAverageTick",
              "type": "uint32"
            },
            {
              "internalType": "uint256",
              "name": "amount0Desired",
              "type": "uint256"
            },
            {
              "internalType": "uint256",
              "name": "amount1Desired",
              "type": "uint256"
            },
            {
              "internalType": "uint256",
              "name": "swapSlippageD",
              "type": "uint256"
            },
            {
              "internalType": "uint256",
              "name": "swappingAmountsCoefficientD",
              "type": "uint256"
            },
            {
              "internalType": "uint256[]",
              "name": "minSwapAmounts",
              "type": "uint256[]"
            }
          ],
          "internalType": "struct PulseStrategy.MutableParams",
          "name": "mutableParams_",
          "type": "tuple"
        }
      ],
      "name": "updateMutableParams",
      "outputs": [],
      "stateMutability": "nonpayable",
      "type": "function"
    },
    {
      "inputs": [],
      "name": "withdrawCallback",
      "outputs": [],
      "stateMutability": "nonpayable",
      "type": "function"
    }
  ],
  "bytecode": {
    "object": "0x60a06040523480156200001157600080fd5b506040516200593438038062005934833981016040819052620000349162000093565b60408051808201909152600281526120ad60f11b60208201526001600160a01b038216620000805760405162461bcd60e51b8152600401620000779190620000c5565b60405180910390fd5b506001600160a01b03166080526200011d565b600060208284031215620000a657600080fd5b81516001600160a01b0381168114620000be57600080fd5b9392505050565b600060208083528351808285015260005b81811015620000f457858101830151858201604001528201620000d6565b8181111562000107576000604083870101525b50601f01601f1916929092016040019392505050565b6080516157d86200015c600039600081816104940152818161178c015281816120bf0152818161306c0152818161326a015261331e01526157d86000f3fe608060405234801561001057600080fd5b50600436106102325760003560e01c806375b238fc11610130578063a217fddf116100b8578063d547741f1161007c578063d547741f146105b3578063e521826f146105c6578063f05329b2146105ce578063f936506c146105e1578063fe57ed61146105f457600080fd5b8063a217fddf1461052e578063ac9650d814610536578063b4559f3e1461029f578063c8014d5314610556578063ca15c873146105a057600080fd5b806391d14854116100ff57806391d14854146104e1578063983d2737146104f45780639bb37ba814610509578063a0a8e4601461051c578063a11bac741461052457600080fd5b806375b238fc1461046557806375d0c0dc1461047a578063791b98bc1461048f5780639010d07c146104ce57600080fd5b80632f2ff15d116101be578063551530ae11610182578063551530ae146103795780635f408a211461038457806360aa27051461042c5780636d70f7ae1461043f5780636ff0b3581461045257600080fd5b80632f2ff15d1461030d57806336568abe146103205780634079246514610333578063475cffef1461033e57806350c9d3bb1461035157600080fd5b80630e3e80ac116102055780630e3e80ac146102a1578063158ef93e146102b757806319ab453c146102c4578063248a9ca3146102d757806324d7806c146102fa57600080fd5b806301ffc9a71461023757806306a462391461025f5780630952ff54146102775780630e3055151461028c575b600080fd5b61024a6102453660046140f0565b610632565b60405190151581526020015b60405180910390f35b640312e302e360dc1b5b604051908152602001610256565b61026960008051602061571c83398151915281565b61029f61029a366004614427565b610662565b005b6c50756c7365537472617465677960981b610269565b60025461024a9060ff1681565b61029f6102d236600461448a565b610b06565b6102696102e53660046144a7565b60009081526020819052604090206001015490565b61024a61030836600461448a565b610c2c565b61029f61031b3660046144c0565b610c64565b61029f61032e3660046144c0565b610c8e565b610269600160601b81565b61029f61034c3660046144f0565b610d0c565b61036461035f366004614524565b6112ab565b60408051928352602083019190915201610256565b610269633b9aca0081565b600754600854600954600a54600b546103d294600281810b9563010000008304820b95600160301b8404830b95600160481b850490930b94600160601b90940463ffffffff16939192909189565b6040805160029a8b0b8152988a0b60208a015296890b968801969096529390960b606086015263ffffffff909116608085015260a084015260c083019390935260e082019290925261010081019190915261012001610256565b61029f61043a366004614597565b611539565b61024a61044d36600461448a565b6116f3565b61029f6104603660046145cb565b61170d565b61026960008051602061573c83398151915281565b6104826118ed565b6040516102569190614669565b6104b67f000000000000000000000000000000000000000000000000000000000000000081565b6040516001600160a01b039091168152602001610256565b6104b66104dc36600461467c565b611908565b61024a6104ef3660046144c0565b611927565b61026960008051602061575c83398151915281565b61026961051736600461469e565b611950565b610482611a3b565b610269620f424081565b610269600081565b610549610544366004614729565b611a4e565b604051610256919061479d565b600354600454600554610576926001600160a01b03908116928116911683565b604080516001600160a01b0394851681529284166020840152921691810191909152606001610256565b6102696105ae3660046144a7565b611b44565b61029f6105c13660046144c0565b611b5b565b61029f611b80565b61029f6105dc3660046147ff565b611c1a565b61029f6105ef366004614834565b611d61565b6106076106023660046148af565b612073565b604080518351600290810b8252602094850151900b9381019390935290151590820152606001610256565b60006001600160e01b03198216635a05180f60e01b14806106575750610657826122db565b92915050565b905090565b600081604001516001600160a01b03166316f0115b6040518163ffffffff1660e01b815260040160206040518083038186803b1580156106a157600080fd5b505afa1580156106b5573d6000803e3d6000fd5b505050506040513d601f19601f820116820180604052508101906106d99190614918565b6001600160a01b031663d0c93a7c6040518163ffffffff1660e01b815260040160206040518083038186803b15801561071157600080fd5b505afa158015610725573d6000803e3d6000fd5b505050506040513d601f19601f820116820180604052508101906107499190614940565b90506000836020015160020b13801561077c5750610768816002614973565b83602001516107779190614a16565b60020b155b6040518060400160405280600381526020016224a72b60e91b815250906107bf5760405162461bcd60e51b81526004016107b69190614669565b60405180910390fd5b5082602001516107ce90614a38565b60020b836040015160020b121580156108015750600283602001516107f39190614a5b565b60020b836040015160020b13155b604051806040016040528060048152602001634c494d4f60e01b8152509061083c5760405162461bcd60e51b81526004016107b69190614669565b506000836060015160020b13604051806040016040528060048152602001634c494d5560e01b815250906108835760405162461bcd60e51b81526004016107b69190614669565b506000836080015163ffffffff1611604051806040016040528060028152602001612b2d60f11b815250906108cb5760405162461bcd60e51b81526004016107b69190614669565b5062093a80836080015163ffffffff1610604051806040016040528060028152602001612b2d60f11b815250906109155760405162461bcd60e51b81526004016107b69190614669565b5060008360a0015111604051806040016040528060028152602001612b2d60f11b815250906109575760405162461bcd60e51b81526004016107b69190614669565b50633b9aca008360a001511115604051806040016040528060048152602001634c494d4f60e01b8152509061099f5760405162461bcd60e51b81526004016107b69190614669565b5060008360c0015111604051806040016040528060028152602001612b2d60f11b815250906109e15760405162461bcd60e51b81526004016107b69190614669565b50633b9aca008360c001511115604051806040016040528060048152602001634c494d4f60e01b81525090610a295760405162461bcd60e51b81526004016107b69190614669565b5082610120015151600214604051806040016040528060048152602001631253959360e21b81525090610a6f5760405162461bcd60e51b81526004016107b69190614669565b50633b9aca008360e001511115604051806040016040528060048152602001634c494d4f60e01b81525090610ab75760405162461bcd60e51b81526004016107b69190614669565b50633b9aca008361010001511115604051806040016040528060048152602001634c494d4f60e01b81525090610b005760405162461bcd60e51b81526004016107b69190614669565b50505050565b60408051808201909152600281526120ad60f11b60208201526001600160a01b038216610b465760405162461bcd60e51b81526004016107b69190614669565b506002546040805180820190915260048152631253925560e21b60208201529060ff1615610b875760405162461bcd60e51b81526004016107b69190614669565b50610ba060008051602061575c83398151915282612310565b610bb860008051602061573c83398151915282612310565b610bd060008051602061573c8339815191528061231a565b610bf660008051602061571c83398151915260008051602061573c83398151915261231a565b610c1c60008051602061575c83398151915260008051602061571c83398151915261231a565b506002805460ff19166001179055565b6000610c4660008051602061573c83398151915283611927565b80610657575061065760008051602061571c83398151915283611927565b600082815260208190526040902060010154610c7f81612365565b610c898383612372565b505050565b6001600160a01b0381163314610cfe5760405162461bcd60e51b815260206004820152602f60248201527f416363657373436f6e74726f6c3a2063616e206f6e6c792072656e6f756e636560448201526e103937b632b9903337b91039b2b63360891b60648201526084016107b6565b610d088282612394565b5050565b806060015151600214604051806040016040528060048152602001631253959360e21b81525090610d505760405162461bcd60e51b81526004016107b69190614669565b5060006001600160a01b03168160600151600081518110610d7357610d73614a95565b60200260200101516001600160a01b031614156040518060400160405280600281526020016120ad60f11b81525090610dbf5760405162461bcd60e51b81526004016107b69190614669565b5060006001600160a01b03168160600151600181518110610de257610de2614a95565b60200260200101516001600160a01b031614156040518060400160405280600281526020016120ad60f11b81525090610e2e5760405162461bcd60e51b81526004016107b69190614669565b50805160408051808201909152600281526120ad60f11b6020820152906001600160a01b0316610e715760405162461bcd60e51b81526004016107b69190614669565b5060006001600160a01b031681602001516001600160a01b031614156040518060400160405280600281526020016120ad60f11b81525090610ec65760405162461bcd60e51b81526004016107b69190614669565b50600081602001516001600160a01b031663697222336040518163ffffffff1660e01b815260040160006040518083038186803b158015610f0657600080fd5b505afa158015610f1a573d6000803e3d6000fd5b505050506040513d6000823e601f3d908101601f19168201604052610f429190810190614ab6565b90508051600214604051806040016040528060048152602001631253959360e21b81525090610f845760405162461bcd60e51b81526004016107b69190614669565b508160600151600081518110610f9c57610f9c614a95565b60200260200101516001600160a01b031681600081518110610fc057610fc0614a95565b60200260200101516001600160a01b03161460405180604001604052806004815260200163494e564160e01b8152509061100d5760405162461bcd60e51b81526004016107b69190614669565b50816060015160018151811061102557611025614a95565b60200260200101516001600160a01b03168160018151811061104957611049614a95565b60200260200101516001600160a01b03161460405180604001604052806004815260200163494e564160e01b815250906110965760405162461bcd60e51b81526004016107b69190614669565b50506040808201518151808301909252600282526120ad60f11b60208301526001600160a01b03166110db5760405162461bcd60e51b81526004016107b69190614669565b50600081604001516001600160a01b031663697222336040518163ffffffff1660e01b815260040160006040518083038186803b15801561111b57600080fd5b505afa15801561112f573d6000803e3d6000fd5b505050506040513d6000823e601f3d908101601f191682016040526111579190810190614ab6565b90508051600214604051806040016040528060048152602001631253959360e21b815250906111995760405162461bcd60e51b81526004016107b69190614669565b5081606001516000815181106111b1576111b1614a95565b60200260200101516001600160a01b0316816000815181106111d5576111d5614a95565b60200260200101516001600160a01b03161460405180604001604052806004815260200163494e564160e01b815250906112225760405162461bcd60e51b81526004016107b69190614669565b50816060015160018151811061123a5761123a614a95565b60200260200101516001600160a01b03168160018151811061125e5761125e614a95565b60200260200101516001600160a01b03161460405180604001604052806004815260200163494e564160e01b81525090610c895760405162461bcd60e51b81526004016107b69190614669565b600080806112bd84600160601b614b44565b9050600087602001516001600160a01b031663e5328e066040518163ffffffff1660e01b815260040160006040518083038186803b1580156112fe57600080fd5b505afa158015611312573d6000803e3d6000fd5b505050506040513d6000823e601f3d908101601f1916820160405261133a9190810190614bb6565b50905060006113b58260018151811061135557611355614a95565b6020026020010151600160601b61138b8560008151811061137857611378614a95565b60200260200101518b600160601b6123b6565b8560018151811061139e5761139e614a95565b60200260200101516113b09190614c0f565b6123b6565b905060006113d2600160601b8a6000015160020b620f42406123b6565b905086821115611478576001955060006113f1600160601b808b6123b6565b905061147061141b898660008151811061140d5761140d614a95565b6020026020010151846123b6565b6114448660018151811061143157611431614a95565b602002602001015188600160601b6123b6565b61144e9190614b44565b600160601b6114628b86600160601b6123b6565b6113b090600160601b614b44565b9550506114ee565b600095506114eb6114a4858560018151811061149657611496614a95565b60200260200101518b6123b6565b6114cd856000815181106114ba576114ba614a95565b60200260200101518a600160601b6123b6565b6114d79190614b44565b600160601b6114628785600160601b6123b6565b94505b82868151811061150057611500614a95565b602002602001015185111561152c5782868151811061152157611521614a95565b602002602001015194505b5050505094509492505050565b611541612469565b60408051608081018252600380546001600160a01b039081168352600454811660208085019190915260055490911683850152600680548551818402810184019096528086526115de958795949360608601939192908301828280156115d057602002820191906000526020600020905b81546001600160a01b031681526001909101906020018083116115b2575b505050505081525050610662565b80516007805460208085015160408601516060870151608088015163ffffffff16600160601b0263ffffffff60601b1962ffffff928316600160481b026bffffff00000000000000000019948416600160301b02949094166bffffffffffff0000000000001995841663010000000265ffffffffffff199098169390991692909217959095179290921695909517949094179390931617815560a083015160085560c083015160095560e0830151600a55610100830151600b55610120830151805184936116b192600c9291019061403b565b505060405133915032907faccfbfe1fb913357d3f38219613942ea367e6b50b076facee40e8400cf114f28906116e8908590614c62565b60405180910390a350565b600061065760008051602061575c83398151915283611927565b61171682610d0c565b8151600380546001600160a01b03199081166001600160a01b03938416178255602080860151600480548416918616919091179055604086015160058054909316941693909317905560608401518051859361177792600692910190614086565b5090505060005b60028110156118e3576117e47f0000000000000000000000000000000000000000000000000000000000000000600019856060015184815181106117c4576117c4614a95565b60200260200101516001600160a01b03166124ac9092919063ffffffff16565b82602001516001600160a01b0316632e2f4cc28460600151838151811061180d5761180d614a95565b602002602001015163095ea7b360e01b866000015160001960405160200161184a9291906001600160a01b03929092168252602082015260400190565b6040516020818303038152906040526040518463ffffffff1660e01b815260040161187793929190614d17565b600060405180830381600087803b15801561189157600080fd5b505af19250505080156118c657506040513d6000823e601f3d908101601f191682016040526118c39190810190614d54565b60015b6118cf576118d1565b505b806118db81614de7565b91505061177e565b50610d0881610b06565b606061065d6c50756c7365537472617465677960981b61259a565b60008281526001602052604081206119209083612606565b9392505050565b6000918252602082815260408084206001600160a01b0393909316845291905290205460ff1690565b6000806119608560000151612612565b6001600160a01b03169050600061197a8660200151612612565b6001600160a01b03169050846001600160a01b031682106119a057600092505050611920565b846001600160a01b031681116119be57600160601b92505050611920565b60006119f36119d66001600160a01b03881684614b44565b600160601b6113b0896001600160a01b031686600160601b6123b6565b90506000611a0a846001600160a01b038916614b44565b9050611a2f81600160601b83611a25868b600160601b6123b6565b6113b09190614c0f565b98975050505050505050565b606061065d640312e302e360dc1b61259a565b6060816001600160401b03811115611a6857611a6861411a565b604051908082528060200260200182016040528015611a9b57816020015b6060815260200190600190039081611a865790505b50905060005b82811015611b3b57611b0b30858584818110611abf57611abf614a95565b9050602002810190611ad19190614e02565b8080601f016020809104026020016040519081016040528093929190818152602001838380828437600092019190915250612a2f92505050565b828281518110611b1d57611b1d614a95565b60200260200101819052508080611b3390614de7565b915050611aa1565b5092915050565b565b600081815260016020526040812061065790612a54565b600082815260208190526040902060010154611b7681612365565b610c898383612394565b60408051608081018252600380546001600160a01b03908116835260045481166020808501919091526005549091168385015260068054855181840281018401909652808652611b4295606086019390929190830182828015611c0c57602002820191906000526020600020905b81546001600160a01b03168152600190910190602001808311611bee575b505050505081525050612a5e565b6000816001600160a01b0316633850c7bd6040518163ffffffff1660e01b815260040160e06040518083038186803b158015611c5557600080fd5b505afa158015611c69573d6000803e3d6000fd5b505050506040513d601f19601f82011682018060405250810190611c8d9190614e71565b5050505050915050600080611ca6848660800151612bb6565b925050915080156040518060400160405280600581526020016412539594d560da1b81525090611ce95760405162461bcd60e51b81526004016107b69190614669565b506000611cf68385614f04565b905060008160020b1215611d1057611d0d81614a38565b90505b856060015160020b8160020b12604051806040016040528060048152602001634c494d4f60e01b81525090611d585760405162461bcd60e51b81526004016107b69190614669565b50505050505050565b8242111560405180604001604052806002815260200161545360f01b81525090611d9e5760405162461bcd60e51b81526004016107b69190614669565b50611da7612e10565b60408051608081018252600380546001600160a01b03908116835260045481166020808501919091526005549091168385015260068054855181840281018401909652808652600095606086019390929190830182828015611e3257602002820191906000526020600020905b81546001600160a01b03168152600190910190602001808311611e14575b505050919092525050604080516101408101825260078054600281810b845263010000008204810b602080860191909152600160301b8304820b85870152600160481b830490910b6060850152600160601b90910463ffffffff16608084015260085460a084015260095460c0840152600a5460e0840152600b54610100840152600c80548551818402810184019096528086529697506000969395509193610120860193909291830182828015611f0957602002820191906000526020600020905b815481526020019060010190808311611ef5575b5050505050815250509050600082604001516001600160a01b03166316f0115b6040518163ffffffff1660e01b815260040160206040518083038186803b158015611f5357600080fd5b505afa158015611f67573d6000803e3d6000fd5b505050506040513d601f19601f82011682018060405250810190611f8b9190614918565b9050611f978282611c1a565b600080826001600160a01b0316633850c7bd6040518163ffffffff1660e01b815260040160e06040518083038186803b158015611fd357600080fd5b505afa158015611fe7573d6000803e3d6000fd5b505050506040513d601f19601f8201168201806040525081019061200b9190614e71565b505050505091509150600061202286868487612e28565b9050612032868683868c8c6133ca565b61203b86612a5e565b604051339032907f6dcf4e69cd04d9def52d660ea37a5b366adb7701505e48e75c03d6a51a343f6490600090a3505050505050505050565b6040805180820190915260008082526020820152600082156121cb5760408051808201825260008082526020820152905163133f757160e31b8152600481018590526001600160a01b037f000000000000000000000000000000000000000000000000000000000000000016906399fbab88906024016101806040518083038186803b15801561210257600080fd5b505afa158015612116573d6000803e3d6000fd5b505050506040513d601f19601f8201168201806040525081019061213a9190614f76565b50505050600291820b60208a01525090810b80885260408e0151918d900b965061216a9550935091506150579050565b60020b1315801561219457508660400151816020015161218a9190614f04565b60020b8660020b13155b80156121b95750805160208201516121ac9190614f04565b60020b876020015160020b145b156121c9579150600090506122d2565b505b6000846001600160a01b031663d0c93a7c6040518163ffffffff1660e01b815260040160206040518083038186803b15801561220657600080fd5b505afa15801561221a573d6000803e3d6000fd5b505050506040513d601f19601f8201168201806040525081019061223e9190614940565b9050600061224c8288614a16565b6122569088614f04565b9050600282900b6122678389614a16565b612272906002614973565b60020b1315612288576122858282615057565b90505b600288602001516122999190614a5b565b6122a39082614f04565b600290810b855260208901516122b99190614a5b565b6122c39082615057565b60020b60208501525060019150505b94509492505050565b60006001600160e01b03198216637965db0b60e01b148061065757506301ffc9a760e01b6001600160e01b0319831614610657565b610d088282612372565b600082815260208190526040808220600101805490849055905190918391839186917fbd79b86ffe0ab8e8776151514217cd7cacd52c909f66475c3af44e129f0b00ff9190a4505050565b61236f81336138df565b50565b61237c8282613938565b6000828152600160205260409020610c8990826139bc565b61239e82826139d1565b6000828152600160205260409020610c899082613a36565b6000808060001985870985870292508281108382030391505080600014156123f057600084116123e557600080fd5b508290049050611920565b8084116123fc57600080fd5b6000848688096000868103871696879004966002600389028118808a02820302808a02820302808a02820302808a02820302808a02820302808a02909103029181900381900460010186841190950394909402919094039290920491909117919091029150509392505050565b61247233610c2c565b6040518060400160405280600381526020016223292160e91b8152509061236f5760405162461bcd60e51b81526004016107b69190614669565b604051636eb1769f60e11b81523060048201526001600160a01b0383811660248301526000919085169063dd62ed3e9060440160206040518083038186803b1580156124f757600080fd5b505afa15801561250b573d6000803e3d6000fd5b505050506040513d601f19601f8201168201806040525081019061252f919061509e565b9050610b008463095ea7b360e01b856125488686614c0f565b6040516001600160a01b039092166024830152604482015260640160408051601f198184030181529190526020810180516001600160e01b03166001600160e01b031990931692909217909152613a4b565b604080516020808252818301909252606091602082018180368337019050509050602060005b60208110156125f8578381602081106125db576125db614a95565b1a6125e8578091506125f8565b6125f181614de7565b90506125c0565b508152602081019190915290565b60006119208383613b20565b60008060008360020b12612629578260020b612636565b8260020b612636906150b7565b9050612645620d89e719614a38565b60020b81111561267b5760405162461bcd60e51b81526020600482015260016024820152601560fa1b60448201526064016107b6565b60006001821661268f57600160801b6126a1565b6ffffcb933bd6fad37aa2d162d1a5940015b70ffffffffffffffffffffffffffffffffff16905060028216156126e05760806126db826ffff97272373d413259a46990580e213a6150d4565b901c90505b600482161561270a576080612705826ffff2e50f5f656932ef12357cf3c7fdcc6150d4565b901c90505b600882161561273457608061272f826fffe5caca7e10e4e61c3624eaa0941cd06150d4565b901c90505b601082161561275e576080612759826fffcb9843d60f6159c9db58835c9266446150d4565b901c90505b6020821615612788576080612783826fff973b41fa98c081472e6896dfb254c06150d4565b901c90505b60408216156127b25760806127ad826fff2ea16466c96a3843ec78b326b528616150d4565b901c90505b60808216156127dc5760806127d7826ffe5dee046a99a2a811c461f1969c30536150d4565b901c90505b610100821615612807576080612802826ffcbe86c7900a88aedcffc83b479aa3a46150d4565b901c90505b61020082161561283257608061282d826ff987a7253ac413176f2b074cf7815e546150d4565b901c90505b61040082161561285d576080612858826ff3392b0822b70005940c7a398e4b70f36150d4565b901c90505b610800821615612888576080612883826fe7159475a2c29b7443b29c7fa6e889d96150d4565b901c90505b6110008216156128b35760806128ae826fd097f3bdfd2022b8845ad8f792aa58256150d4565b901c90505b6120008216156128de5760806128d9826fa9f746462d870fdf8a65dc1f90e061e56150d4565b901c90505b614000821615612909576080612904826f70d869a156d2a1b890bb3df62baf32f76150d4565b901c90505b61800082161561293457608061292f826f31be135f97d08fd981231505542fcfa66150d4565b901c90505b6201000082161561296057608061295b826f09aa508b5b7a84e1c677de54f3e99bc96150d4565b901c90505b6202000082161561298b576080612986826e5d6af8dedb81196699c329225ee6046150d4565b901c90505b620400008216156129b55760806129b0826d2216e584f5fa1ea926041bedfe986150d4565b901c90505b620800008216156129dd5760806129d8826b048a170391f7dc42444e8fa26150d4565b901c90505b60008460020b13156129f8576129f5816000196150f3565b90505b612a0764010000000082615107565b15612a13576001612a16565b60005b612a279060ff16602083901c614c0f565b949350505050565b6060611920838360405180606001604052806027815260200161577c60279139613b4a565b6000610657825490565b600081602001516001600160a01b031663e5328e066040518163ffffffff1660e01b815260040160006040518083038186803b158015612a9d57600080fd5b505afa158015612ab1573d6000803e3d6000fd5b505050506040513d6000823e601f3d908101601f19168201604052612ad99190810190614bb6565b509050600081600081518110612af157612af1614a95565b60200260200101511180612b1f5750600081600181518110612b1557612b15614a95565b6020026020010151115b15610d085781602001516001600160a01b0316632062d75483604001518460600151846040518463ffffffff1660e01b8152600401612b609392919061511b565b600060405180830381600087803b158015612b7a57600080fd5b505af1158015612b8e573d6000803e3d6000fd5b505050506040513d6000823e601f3d908101601f19168201604052610c89919081019061519b565b6000808063ffffffff8416612bf25760405162461bcd60e51b8152602060048201526002602482015261042560f41b60448201526064016107b6565b6040805160028082526060820183526000926020830190803683370190505090508481600081518110612c2757612c27614a95565b602002602001019063ffffffff16908163ffffffff1681525050600081600181518110612c5657612c56614a95565b63ffffffff9092166020928302919091019091015260405163883bdbfd60e01b81526001600160a01b0387169063883bdbfd90612c979084906004016151cf565b60006040518083038186803b158015612caf57600080fd5b505afa925050508015612ce457506040513d6000823e601f3d908101601f19168201604052612ce1919081019061527d565b60015b612cf957600080600193509350935050612e09565b600082600081518110612d0e57612d0e614a95565b602002602001015183600181518110612d2957612d29614a95565b6020026020010151612d3b919061533e565b9050600082600081518110612d5257612d52614a95565b602002602001015183600181518110612d6d57612d6d614a95565b6020026020010151612d7f9190615384565b9050612d9163ffffffff8a16836153ac565b975060008260060b128015612db75750612db163ffffffff8a16836153e1565b60060b15155b15612dca5787612dc681615403565b9850505b6000612de36001600160a01b0363ffffffff8c16615427565b9050612e00640100000000600160c01b03602084901b1682615456565b97505050505050505b9250925092565b612e1933610c2c565b806124725750612472336116f3565b60408051808201909152600080825260208201526000856040015190506000816001600160a01b031663f4adc08b6040518163ffffffff1660e01b815260040160206040518083038186803b158015612e8057600080fd5b505afa158015612e94573d6000803e3d6000fd5b505050506040513d601f19601f82011682018060405250810190612eb8919061509e565b9050600080612ec988888886612073565b9150915080612f5657836001600160a01b031663c27b2c2d6040518163ffffffff1660e01b8152600401600060405180830381600087803b158015612f0d57600080fd5b505af1158015612f21573d6000803e3d6000fd5b505050506040513d6000823e601f3d908101601f19168201604052612f49919081019061519b565b5081945050505050612a27565b821561306857602089015160608a01516040516303217f1d60e61b81526001600160801b0360048201526001600160a01b03871692632062d754929091849063c85fc7409060240160006040518083038186803b158015612fb657600080fd5b505afa158015612fca573d6000803e3d6000fd5b505050506040513d6000823e601f3d908101601f19168201604052612ff2919081019061519b565b6040518463ffffffff1660e01b81526004016130109392919061511b565b600060405180830381600087803b15801561302a57600080fd5b505af115801561303e573d6000803e3d6000fd5b505050506040513d6000823e601f3d908101601f19168201604052613066919081019061519b565b505b60007f00000000000000000000000000000000000000000000000000000000000000006001600160a01b031663883164566040518061016001604052808d606001516000815181106130bc576130bc614a95565b60200260200101516001600160a01b031681526020018d606001516001815181106130e9576130e9614a95565b60200260200101516001600160a01b031681526020018a6001600160a01b031663ddca3f436040518163ffffffff1660e01b815260040160206040518083038186803b15801561313857600080fd5b505afa15801561314c573d6000803e3d6000fd5b505050506040513d601f19601f82011682018060405250810190613170919061547c565b62ffffff168152602001866000015160020b8152602001866020015160020b81526020018c60a0015181526020018c60c0015181526020016000815260200160008152602001306001600160a01b031681526020016000198152506040518263ffffffff1660e01b81526004016131e79190615497565b608060405180830381600087803b15801561320157600080fd5b505af1158015613215573d6000803e3d6000fd5b505050506040513d601f19601f82011682018060405250810190613239919061555b565b5050604051632142170760e11b81523060048201526001600160a01b038881166024830152604482018490529293507f0000000000000000000000000000000000000000000000000000000000000000909216916342842e0e9150606401600060405180830381600087803b1580156132b157600080fd5b505af11580156132c5573d6000803e3d6000fd5b505050507face8748d23af65e86cf543d0298345b95115752e382befe3e832eacd1508adb0816040516132fa91815260200190565b60405180910390a183156133bc57604051630852cd8d60e31b8152600481018590527f00000000000000000000000000000000000000000000000000000000000000006001600160a01b0316906342966c6890602401600060405180830381600087803b15801561336a57600080fd5b505af115801561337e573d6000803e3d6000fd5b505050507f65d33d8ef62a81711748bbe2a7b67aef94d1a9af04a2690d3a4dfd13d9c1d22b846040516133b391815260200190565b60405180910390a15b509098975050505050505050565b60006133e46001600160a01b03851680600160601b6123b6565b90506000806133fa89898561035f8b8b89611950565b91509150876101200151828151811061341557613415614a95565b602002602001015181101561342c575050506138d7565b816001141561344757613444600160601b80856123b6565b92505b600089602001516001600160a01b031663e5328e066040518163ffffffff1660e01b815260040160006040518083038186803b15801561348657600080fd5b505afa15801561349a573d6000803e3d6000fd5b505050506040513d6000823e601f3d908101601f191682016040526134c29190810190614bb6565b5060208b01518b519192506001600160a01b031690632e2f4cc2906134eb600460008a8c615597565b6134f4916155c1565b613501896004818d615597565b6040518563ffffffff1660e01b815260040161352094939291906155f1565b600060405180830381600087803b15801561353a57600080fd5b505af115801561354e573d6000803e3d6000fd5b505050506040513d6000823e601f3d908101601f191682016040526135769190810190614d54565b5060008a602001516001600160a01b031663e5328e066040518163ffffffff1660e01b815260040160006040518083038186803b1580156135b657600080fd5b505afa1580156135ca573d6000803e3d6000fd5b505050506040513d6000823e601f3d908101601f191682016040526135f29190810190614bb6565b50905081848151811061360757613607614a95565b602002602001015181858151811061362157613621614a95565b6020026020010151111560405180604001604052806004815260200163494e564160e01b815250906136665760405162461bcd60e51b81526004016107b69190614669565b5081846001188151811061367c5761367c614a95565b602002602001015181856001188151811061369957613699614a95565b6020026020010151101560405180604001604052806004815260200163494e564160e01b815250906136de5760405162461bcd60e51b81526004016107b69190614669565b5060008185815181106136f3576136f3614a95565b602002602001015183868151811061370d5761370d614a95565b602002602001015161371f9190614b44565b9050600083866001188151811061373857613738614a95565b602002602001015183876001188151811061375557613755614a95565b60200260200101516137679190614b44565b9050600061377a82600160601b856123b6565b90508061379f898f60e00151633b9aca006137959190614b44565b633b9aca006123b6565b1115604051806040016040528060048152602001634c494d5560e01b815250906137dc5760405162461bcd60e51b81526004016107b69190614669565b50826137f7878f6101000151633b9aca006137959190614b44565b1115604051806040016040528060048152602001634c494d5560e01b815250906138345760405162461bcd60e51b81526004016107b69190614669565b508561384f848f6101000151633b9aca006137959190614b44565b1115604051806040016040528060048152602001634c494d5560e01b8152509061388c5760405162461bcd60e51b81526004016107b69190614669565b5060408051848152602081018490529081018890527f984c316f55901f828cae2a57394002595129e75b4546d4a80c6c1a4787d748c29060600160405180910390a150505050505050505b505050505050565b6138e98282611927565b610d08576138f681613bc2565b613901836020613bd4565b604051602001613912929190615642565b60408051601f198184030181529082905262461bcd60e51b82526107b691600401614669565b6139428282611927565b610d08576000828152602081815260408083206001600160a01b03851684529091529020805460ff191660011790556139783390565b6001600160a01b0316816001600160a01b0316837f2f8788117e7eff1d82e926ec794901d17c78024a50270940304540a733656f0d60405160405180910390a45050565b6000611920836001600160a01b038416613d6f565b6139db8282611927565b15610d08576000828152602081815260408083206001600160a01b0385168085529252808320805460ff1916905551339285917ff6391f5c32d9c69d2a47ea670b442974b53935d1edc7fd64eb21e047a839171b9190a45050565b6000611920836001600160a01b038416613dbe565b6000613aa0826040518060400160405280602081526020017f5361666545524332303a206c6f772d6c6576656c2063616c6c206661696c6564815250856001600160a01b0316613eb19092919063ffffffff16565b9050805160001480613ac1575080806020019051810190613ac191906156b7565b610c895760405162461bcd60e51b815260206004820152602a60248201527f5361666545524332303a204552433230206f7065726174696f6e20646964206e6044820152691bdd081cdd58d8d9595960b21b60648201526084016107b6565b6000826000018281548110613b3757613b37614a95565b9060005260206000200154905092915050565b6060600080856001600160a01b031685604051613b6791906156d2565b600060405180830381855af49150503d8060008114613ba2576040519150601f19603f3d011682016040523d82523d6000602084013e613ba7565b606091505b5091509150613bb886838387613ec0565b9695505050505050565b60606106576001600160a01b03831660145b60606000613be38360026150d4565b613bee906002614c0f565b6001600160401b03811115613c0557613c0561411a565b6040519080825280601f01601f191660200182016040528015613c2f576020820181803683370190505b509050600360fc1b81600081518110613c4a57613c4a614a95565b60200101906001600160f81b031916908160001a905350600f60fb1b81600181518110613c7957613c79614a95565b60200101906001600160f81b031916908160001a9053506000613c9d8460026150d4565b613ca8906001614c0f565b90505b6001811115613d20576f181899199a1a9b1b9c1cb0b131b232b360811b85600f1660108110613cdc57613cdc614a95565b1a60f81b828281518110613cf257613cf2614a95565b60200101906001600160f81b031916908160001a90535060049490941c93613d19816156ee565b9050613cab565b5083156119205760405162461bcd60e51b815260206004820181905260248201527f537472696e67733a20686578206c656e67746820696e73756666696369656e7460448201526064016107b6565b6000818152600183016020526040812054613db657508154600181810184556000848152602080822090930184905584548482528286019093526040902091909155610657565b506000610657565b60008181526001830160205260408120548015613ea7576000613de2600183614b44565b8554909150600090613df690600190614b44565b9050818114613e5b576000866000018281548110613e1657613e16614a95565b9060005260206000200154905080876000018481548110613e3957613e39614a95565b6000918252602080832090910192909255918252600188019052604090208390555b8554869080613e6c57613e6c615705565b600190038181906000526020600020016000905590558560010160008681526020019081526020016000206000905560019350505050610657565b6000915050610657565b6060612a278484600085613f36565b60608315613f2c578251613f25576001600160a01b0385163b613f255760405162461bcd60e51b815260206004820152601d60248201527f416464726573733a2063616c6c20746f206e6f6e2d636f6e747261637400000060448201526064016107b6565b5081612a27565b612a278383614011565b606082471015613f975760405162461bcd60e51b815260206004820152602660248201527f416464726573733a20696e73756666696369656e742062616c616e636520666f6044820152651c8818d85b1b60d21b60648201526084016107b6565b600080866001600160a01b03168587604051613fb391906156d2565b60006040518083038185875af1925050503d8060008114613ff0576040519150601f19603f3d011682016040523d82523d6000602084013e613ff5565b606091505b509150915061400687838387613ec0565b979650505050505050565b8151156140215781518083602001fd5b8060405162461bcd60e51b81526004016107b69190614669565b828054828255906000526020600020908101928215614076579160200282015b8281111561407657825182559160200191906001019061405b565b506140829291506140db565b5090565b828054828255906000526020600020908101928215614076579160200282015b8281111561407657825182546001600160a01b0319166001600160a01b039091161782556020909201916001909101906140a6565b5b8082111561408257600081556001016140dc565b60006020828403121561410257600080fd5b81356001600160e01b03198116811461192057600080fd5b634e487b7160e01b600052604160045260246000fd5b60405161014081016001600160401b03811182821017156141535761415361411a565b60405290565b604051608081016001600160401b03811182821017156141535761415361411a565b604051601f8201601f191681016001600160401b03811182821017156141a3576141a361411a565b604052919050565b8060020b811461236f57600080fd5b80356141c5816141ab565b919050565b803563ffffffff811681146141c557600080fd5b60006001600160401b038211156141f7576141f761411a565b5060051b60200190565b600082601f83011261421257600080fd5b81356020614227614222836141de565b61417b565b82815260059290921b8401810191818101908684111561424657600080fd5b8286015b84811015614261578035835291830191830161424a565b509695505050505050565b6000610140828403121561427f57600080fd5b614287614130565b9050614292826141ba565b81526142a0602083016141ba565b60208201526142b1604083016141ba565b60408201526142c2606083016141ba565b60608201526142d3608083016141ca565b608082015260a082013560a082015260c082013560c082015260e082013560e0820152610100808301358183015250610120808301356001600160401b0381111561431d57600080fd5b61432985828601614201565b82840152505092915050565b6001600160a01b038116811461236f57600080fd5b60006080828403121561435c57600080fd5b614364614159565b9050813561437181614335565b815260208281013561438281614335565b82820152604083013561439481614335565b604083015260608301356001600160401b038111156143b257600080fd5b8301601f810185136143c357600080fd5b80356143d1614222826141de565b81815260059190911b820183019083810190878311156143f057600080fd5b928401925b8284101561441757833561440881614335565b825292840192908401906143f5565b6060860152509295945050505050565b6000806040838503121561443a57600080fd5b82356001600160401b038082111561445157600080fd5b61445d8683870161426c565b9350602085013591508082111561447357600080fd5b506144808582860161434a565b9150509250929050565b60006020828403121561449c57600080fd5b813561192081614335565b6000602082840312156144b957600080fd5b5035919050565b600080604083850312156144d357600080fd5b8235915060208301356144e581614335565b809150509250929050565b60006020828403121561450257600080fd5b81356001600160401b0381111561451857600080fd5b612a278482850161434a565b6000806000806080858703121561453a57600080fd5b84356001600160401b038082111561455157600080fd5b61455d8883890161434a565b9550602087013591508082111561457357600080fd5b506145808782880161426c565b949794965050505060408301359260600135919050565b6000602082840312156145a957600080fd5b81356001600160401b038111156145bf57600080fd5b612a278482850161426c565b600080604083850312156145de57600080fd5b82356001600160401b038111156145f457600080fd5b6146008582860161434a565b92505060208301356144e581614335565b60005b8381101561462c578181015183820152602001614614565b83811115610b005750506000910152565b60008151808452614655816020860160208601614611565b601f01601f19169290920160200192915050565b602081526000611920602083018461463d565b6000806040838503121561468f57600080fd5b50508035926020909101359150565b600080600083850360808112156146b457600080fd5b60408112156146c257600080fd5b50604051604081018181106001600160401b03821117156146e5576146e561411a565b60405284356146f3816141ab565b81526020850135614703816141ab565b60208201529250604084013561471881614335565b929592945050506060919091013590565b6000806020838503121561473c57600080fd5b82356001600160401b038082111561475357600080fd5b818501915085601f83011261476757600080fd5b81358181111561477657600080fd5b8660208260051b850101111561478b57600080fd5b60209290920196919550909350505050565b6000602080830181845280855180835260408601915060408160051b870101925083870160005b828110156147f257603f198886030184526147e085835161463d565b945092850192908501906001016147c4565b5092979650505050505050565b6000806040838503121561481257600080fd5b82356001600160401b0381111561482857600080fd5b6146008582860161426c565b60008060006040848603121561484957600080fd5b8335925060208401356001600160401b038082111561486757600080fd5b818601915086601f83011261487b57600080fd5b81358181111561488a57600080fd5b87602082850101111561489c57600080fd5b6020830194508093505050509250925092565b600080600080608085870312156148c557600080fd5b84356001600160401b038111156148db57600080fd5b6148e78782880161426c565b94505060208501356148f8816141ab565b9250604085013561490881614335565b9396929550929360600135925050565b60006020828403121561492a57600080fd5b815161192081614335565b80516141c5816141ab565b60006020828403121561495257600080fd5b8151611920816141ab565b634e487b7160e01b600052601160045260246000fd5b60008160020b8360020b627fffff60008213600084138383048511828216161561499f5761499f61495d565b627fffff1960008512828116878305871216156149be576149be61495d565b600087129250858205871284841616156149da576149da61495d565b858505871281841616156149f0576149f061495d565b5050509290910295945050505050565b634e487b7160e01b600052601260045260246000fd5b60008260020b80614a2957614a29614a00565b808360020b0791505092915050565b60008160020b627fffff19811415614a5257614a5261495d565b60000392915050565b60008160020b8360020b80614a7257614a72614a00565b627fffff19821460001982141615614a8c57614a8c61495d565b90059392505050565b634e487b7160e01b600052603260045260246000fd5b80516141c581614335565b60006020808385031215614ac957600080fd5b82516001600160401b03811115614adf57600080fd5b8301601f81018513614af057600080fd5b8051614afe614222826141de565b81815260059190911b82018301908381019087831115614b1d57600080fd5b928401925b82841015614006578351614b3581614335565b82529284019290840190614b22565b600082821015614b5657614b5661495d565b500390565b600082601f830112614b6c57600080fd5b81516020614b7c614222836141de565b82815260059290921b84018101918181019086841115614b9b57600080fd5b8286015b848110156142615780518352918301918301614b9f565b60008060408385031215614bc957600080fd5b82516001600160401b0380821115614be057600080fd5b614bec86838701614b5b565b93506020850151915080821115614c0257600080fd5b5061448085828601614b5b565b60008219821115614c2257614c2261495d565b500190565b600081518084526020808501945080840160005b83811015614c5757815187529582019590820190600101614c3b565b509495945050505050565b60208152614c7660208201835160020b9052565b60006020830151614c8c604084018260020b9052565b506040830151614ca1606084018260020b9052565b506060830151614cb6608084018260020b9052565b50608083015163ffffffff811660a08401525060a083015160c083015260c083015160e083015260e0830151610100818185015280850151915050610120818185015280850151915050610140808185015250612a27610160840182614c27565b6001600160a01b03841681526001600160e01b031983166020820152606060408201819052600090614d4b9083018461463d565b95945050505050565b600060208284031215614d6657600080fd5b81516001600160401b0380821115614d7d57600080fd5b818401915084601f830112614d9157600080fd5b815181811115614da357614da361411a565b614db6601f8201601f191660200161417b565b9150808252856020828501011115614dcd57600080fd5b614dde816020840160208601614611565b50949350505050565b6000600019821415614dfb57614dfb61495d565b5060010190565b6000808335601e19843603018112614e1957600080fd5b8301803591506001600160401b03821115614e3357600080fd5b602001915036819003821315614e4857600080fd5b9250929050565b805161ffff811681146141c557600080fd5b805180151581146141c557600080fd5b600080600080600080600060e0888a031215614e8c57600080fd5b8751614e9781614335565b6020890151909750614ea8816141ab565b9550614eb660408901614e4f565b9450614ec460608901614e4f565b9350614ed260808901614e4f565b925060a088015160ff81168114614ee857600080fd5b9150614ef660c08901614e61565b905092959891949750929550565b60008160020b8360020b6000811281627fffff1901831281151615614f2b57614f2b61495d565b81627fffff018313811615614f4257614f4261495d565b5090039392505050565b805162ffffff811681146141c557600080fd5b80516001600160801b03811681146141c557600080fd5b6000806000806000806000806000806000806101808d8f031215614f9957600080fd5b8c516bffffffffffffffffffffffff81168114614fb557600080fd5b9b50614fc360208e01614aab565b9a50614fd160408e01614aab565b9950614fdf60608e01614aab565b9850614fed60808e01614f4c565b9750614ffb60a08e01614935565b965061500960c08e01614935565b955061501760e08e01614f5f565b94506101008d015193506101208d015192506150366101408e01614f5f565b91506150456101608e01614f5f565b90509295989b509295989b509295989b565b60008160020b8360020b6000821282627fffff0382138115161561507d5761507d61495d565b82627fffff190382128116156150955761509561495d565b50019392505050565b6000602082840312156150b057600080fd5b5051919050565b6000600160ff1b8214156150cd576150cd61495d565b5060000390565b60008160001904831182151516156150ee576150ee61495d565b500290565b60008261510257615102614a00565b500490565b60008261511657615116614a00565b500690565b6001600160a01b0384811682526080602080840182905285519184018290526000928682019290919060a0860190855b8181101561516957855185168352948301949183019160010161514b565b5050858103604087015261517d8188614c27565b86810360609097019690965250600085529093019695505050505050565b6000602082840312156151ad57600080fd5b81516001600160401b038111156151c357600080fd5b612a2784828501614b5b565b6020808252825182820181905260009190848201906040850190845b8181101561520d57835163ffffffff16835292840192918401916001016151eb565b50909695505050505050565b600082601f83011261522a57600080fd5b8151602061523a614222836141de565b82815260059290921b8401810191818101908684111561525957600080fd5b8286015b8481101561426157805161527081614335565b835291830191830161525d565b6000806040838503121561529057600080fd5b82516001600160401b03808211156152a757600080fd5b818501915085601f8301126152bb57600080fd5b815160206152cb614222836141de565b82815260059290921b840181019181810190898411156152ea57600080fd5b948201945b838610156153185785518060060b81146153095760008081fd5b825294820194908201906152ef565b9188015191965090935050508082111561533157600080fd5b5061448085828601615219565b60008160060b8360060b6000811281667fffffffffffff19018312811516156153695761536961495d565b81667fffffffffffff018313811615614f4257614f4261495d565b60006001600160a01b03838116908316818110156153a4576153a461495d565b039392505050565b60008160060b8360060b806153c3576153c3614a00565b667fffffffffffff19821460001982141615614a8c57614a8c61495d565b60008260060b806153f4576153f4614a00565b808360060b0791505092915050565b60008160020b627fffff1981141561541d5761541d61495d565b6000190192915050565b60006001600160c01b038281168482168115158284048211161561544d5761544d61495d565b02949350505050565b60006001600160c01b038381168061547057615470614a00565b92169190910492915050565b60006020828403121561548e57600080fd5b61192082614f4c565b81516001600160a01b03168152610160810160208301516154c360208401826001600160a01b03169052565b5060408301516154da604084018262ffffff169052565b5060608301516154ef606084018260020b9052565b506080830151615504608084018260020b9052565b5060a083015160a083015260c083015160c083015260e083015160e08301526101008084015181840152506101208084015161554a828501826001600160a01b03169052565b505061014092830151919092015290565b6000806000806080858703121561557157600080fd5b8451935061558160208601614f5f565b6040860151606090960151949790965092505050565b600080858511156155a757600080fd5b838611156155b457600080fd5b5050820193919092039150565b6001600160e01b031981358181169160048510156155e95780818660040360031b1b83161692505b505092915050565b6001600160a01b03851681526001600160e01b0319841660208201526060604082018190528101829052818360808301376000818301608090810191909152601f909201601f191601019392505050565b7f416363657373436f6e74726f6c3a206163636f756e742000000000000000000081526000835161567a816017850160208801614611565b7001034b99036b4b9b9b4b733903937b6329607d1b60179184019182015283516156ab816028840160208801614611565b01602801949350505050565b6000602082840312156156c957600080fd5b61192082614e61565b600082516156e4818460208701614611565b9190910192915050565b6000816156fd576156fd61495d565b506000190190565b634e487b7160e01b600052603160045260246000fdfec171260023d22a25a00a2789664c9334017843b831138c8ef03cc8897e5873d7f23ec0bb4210edd5cba85afd05127efcd2fc6a781bfed49188da1081670b22d846a52cf33029de9f84853745a87af28464c80bf0346df1b32e205fc73319f622416464726573733a206c6f772d6c6576656c2064656c65676174652063616c6c206661696c6564a26469706673582212207c8209d1cfc24f2113fae07f70c90e83996d4bc29a29439499786ee2804a82a364736f6c63430008090033",
    "linkReferences": {}
  },
  "methodIdentifiers": {
    "ADMIN_DELEGATE_ROLE()": "0952ff54",
    "ADMIN_ROLE()": "75b238fc",
    "D6()": "a11bac74",
    "D9()": "551530ae",
    "DEFAULT_ADMIN_ROLE()": "a217fddf",
    "OPERATOR()": "983d2737",
    "Q96()": "40792465",
    "calculateAmountsForSwap((address,address,address,address[]),(int24,int24,int24,int24,uint32,uint256,uint256,uint256,uint256,uint256[]),uint256,uint256)": "50c9d3bb",
    "calculateNewPosition((int24,int24,int24,int24,uint32,uint256,uint256,uint256,uint256,uint256[]),int24,address,uint256)": "fe57ed61",
    "calculateTargetRatioOfToken1((int24,int24),uint160,uint256)": "9bb37ba8",
    "checkImmutableParams((address,address,address,address[]))": "475cffef",
    "checkMutableParams((int24,int24,int24,int24,uint32,uint256,uint256,uint256,uint256,uint256[]),(address,address,address,address[]))": "0e305515",
    "checkTickDeviation((int24,int24,int24,int24,uint32,uint256,uint256,uint256,uint256,uint256[]),address)": "f05329b2",
    "contractName()": "75d0c0dc",
    "contractNameBytes()": "0e3e80ac",
    "contractVersion()": "a0a8e460",
    "contractVersionBytes()": "06a46239",
    "depositCallback()": "e521826f",
    "getRoleAdmin(bytes32)": "248a9ca3",
    "getRoleMember(bytes32,uint256)": "9010d07c",
    "getRoleMemberCount(bytes32)": "ca15c873",
    "grantRole(bytes32,address)": "2f2ff15d",
    "hasRole(bytes32,address)": "91d14854",
    "immutableParams()": "c8014d53",
    "init(address)": "19ab453c",
    "initialize((address,address,address,address[]),address)": "6ff0b358",
    "initialized()": "158ef93e",
    "isAdmin(address)": "24d7806c",
    "isOperator(address)": "6d70f7ae",
    "multicall(bytes[])": "ac9650d8",
    "mutableParams()": "5f408a21",
    "positionManager()": "791b98bc",
    "rebalance(uint256,bytes)": "f936506c",
    "renounceRole(bytes32,address)": "36568abe",
    "revokeRole(bytes32,address)": "d547741f",
    "supportsInterface(bytes4)": "01ffc9a7",
    "updateMutableParams((int24,int24,int24,int24,uint32,uint256,uint256,uint256,uint256,uint256[]))": "60aa2705",
    "withdrawCallback()": "b4559f3e"
  },
  "id": 398
}