{
  "abi": [
    {
      "inputs": [],
      "name": "priceX96",
      "outputs": [
        {
          "internalType": "uint256",
          "name": "",
          "type": "uint256"
        }
      ],
      "stateMutability": "view",
      "type": "function"
    },
    {
      "inputs": [
        {
          "internalType": "uint256",
          "name": "priceX96_",
          "type": "uint256"
        }
      ],
      "name": "setPrice",
      "outputs": [],
      "stateMutability": "nonpayable",
      "type": "function"
    },
    {
      "inputs": [
        {
          "internalType": "uint256",
          "name": "amountIn",
          "type": "uint256"
        },
        {
          "internalType": "address",
          "name": "tokenIn",
          "type": "address"
        },
        {
          "internalType": "address",
          "name": "tokenOut",
          "type": "address"
        },
        {
          "internalType": "address",
          "name": "reciever",
          "type": "address"
        }
      ],
      "name": "swap",
      "outputs": [],
      "stateMutability": "nonpayable",
      "type": "function"
    }
  ],
  "bytecode": {
    "object": "0x608060405234801561001057600080fd5b50610592806100206000396000f3fe608060405234801561001057600080fd5b50600436106100415760003560e01c806388156e651461004657806391b7f5ed1461005b578063a32a06621461006e575b600080fd5b610059610054366004610403565b610089565b005b610059610069366004610450565b600055565b61007760005481565b60405190815260200160405180910390f35b6000600160601b6000548661009e9190610469565b6100a89190610496565b90506100bf6001600160a01b0385163330886100da565b6100d36001600160a01b038416838361014b565b5050505050565b6040516001600160a01b03808516602483015283166044820152606481018290526101459085906323b872dd60e01b906084015b60408051601f198184030181529190526020810180516001600160e01b03166001600160e01b031990931692909217909152610180565b50505050565b6040516001600160a01b03831660248201526044810182905261017b90849063a9059cbb60e01b9060640161010e565b505050565b60006101d5826040518060400160405280602081526020017f5361666545524332303a206c6f772d6c6576656c2063616c6c206661696c6564815250856001600160a01b031661025a9092919063ffffffff16565b90508051600014806101f65750808060200190518101906101f691906104b8565b61017b5760405162461bcd60e51b815260206004820152602a60248201527f5361666545524332303a204552433230206f7065726174696f6e20646964206e6044820152691bdd081cdd58d8d9595960b21b60648201526084015b60405180910390fd5b60606102698484600085610271565b949350505050565b6060824710156102d25760405162461bcd60e51b815260206004820152602660248201527f416464726573733a20696e73756666696369656e742062616c616e636520666f6044820152651c8818d85b1b60d21b6064820152608401610251565b600080866001600160a01b031685876040516102ee919061050d565b60006040518083038185875af1925050503d806000811461032b576040519150601f19603f3d011682016040523d82523d6000602084013e610330565b606091505b50915091506103418783838761034c565b979650505050505050565b606083156103b85782516103b1576001600160a01b0385163b6103b15760405162461bcd60e51b815260206004820152601d60248201527f416464726573733a2063616c6c20746f206e6f6e2d636f6e74726163740000006044820152606401610251565b5081610269565b61026983838151156103cd5781518083602001fd5b8060405162461bcd60e51b81526004016102519190610529565b80356001600160a01b03811681146103fe57600080fd5b919050565b6000806000806080858703121561041957600080fd5b84359350610429602086016103e7565b9250610437604086016103e7565b9150610445606086016103e7565b905092959194509250565b60006020828403121561046257600080fd5b5035919050565b600081600019048311821515161561049157634e487b7160e01b600052601160045260246000fd5b500290565b6000826104b357634e487b7160e01b600052601260045260246000fd5b500490565b6000602082840312156104ca57600080fd5b815180151581146104da57600080fd5b9392505050565b60005b838110156104fc5781810151838201526020016104e4565b838111156101455750506000910152565b6000825161051f8184602087016104e1565b9190910192915050565b60208152600082518060208401526105488160408501602087016104e1565b601f01601f1916919091016040019291505056fea2646970667358221220a145e21de21583298e7deb976179266144dbe41981cae95e46028edb7a89bddb64736f6c63430008090033",
    "linkReferences": {}
  },
  "methodIdentifiers": {
    "priceX96()": "a32a0662",
    "setPrice(uint256)": "91b7f5ed",
    "swap(uint256,address,address,address)": "88156e65"
  },
  "id": 405
}