{
  "abi": [
    {
      "inputs": [
        {
          "internalType": "contract IProtocolGovernance",
          "name": "protocolGovernance_",
          "type": "address"
        }
      ],
      "stateMutability": "nonpayable",
      "type": "constructor"
    },
    {
      "anonymous": false,
      "inputs": [
        {
          "indexed": true,
          "internalType": "address",
          "name": "origin",
          "type": "address"
        },
        {
          "indexed": true,
          "internalType": "address",
          "name": "sender",
          "type": "address"
        },
        {
          "components": [
            {
              "internalType": "contract IProtocolGovernance",
              "name": "protocolGovernance",
              "type": "address"
            }
          ],
          "indexed": false,
          "internalType": "struct IBaseValidator.ValidatorParams",
          "name": "params",
          "type": "tuple"
        }
      ],
      "name": "CommittedValidatorParams",
      "type": "event"
    },
    {
      "anonymous": false,
      "inputs": [
        {
          "indexed": true,
          "internalType": "address",
          "name": "origin",
          "type": "address"
        },
        {
          "indexed": true,
          "internalType": "address",
          "name": "sender",
          "type": "address"
        },
        {
          "components": [
            {
              "internalType": "contract IProtocolGovernance",
              "name": "protocolGovernance",
              "type": "address"
            }
          ],
          "indexed": false,
          "internalType": "struct IBaseValidator.ValidatorParams",
          "name": "newParams",
          "type": "tuple"
        },
        {
          "indexed": false,
          "internalType": "uint256",
          "name": "when",
          "type": "uint256"
        }
      ],
      "name": "StagedValidatorParams",
      "type": "event"
    },
    {
      "inputs": [],
      "name": "PRE_SIGNATURE_SELECTOR",
      "outputs": [
        {
          "internalType": "bytes4",
          "name": "",
          "type": "bytes4"
        }
      ],
      "stateMutability": "view",
      "type": "function"
    },
    {
      "inputs": [],
      "name": "commitValidatorParams",
      "outputs": [],
      "stateMutability": "nonpayable",
      "type": "function"
    },
    {
      "inputs": [],
      "name": "contractName",
      "outputs": [
        {
          "internalType": "string",
          "name": "",
          "type": "string"
        }
      ],
      "stateMutability": "pure",
      "type": "function"
    },
    {
      "inputs": [],
      "name": "contractNameBytes",
      "outputs": [
        {
          "internalType": "bytes32",
          "name": "",
          "type": "bytes32"
        }
      ],
      "stateMutability": "pure",
      "type": "function"
    },
    {
      "inputs": [],
      "name": "contractVersion",
      "outputs": [
        {
          "internalType": "string",
          "name": "",
          "type": "string"
        }
      ],
      "stateMutability": "pure",
      "type": "function"
    },
    {
      "inputs": [],
      "name": "contractVersionBytes",
      "outputs": [
        {
          "internalType": "bytes32",
          "name": "",
          "type": "bytes32"
        }
      ],
      "stateMutability": "pure",
      "type": "function"
    },
    {
      "inputs": [
        {
          "components": [
            {
              "internalType": "contract IProtocolGovernance",
              "name": "protocolGovernance",
              "type": "address"
            }
          ],
          "internalType": "struct IBaseValidator.ValidatorParams",
          "name": "newParams",
          "type": "tuple"
        }
      ],
      "name": "stageValidatorParams",
      "outputs": [],
      "stateMutability": "nonpayable",
      "type": "function"
    },
    {
      "inputs": [],
      "name": "stagedValidatorParams",
      "outputs": [
        {
          "components": [
            {
              "internalType": "contract IProtocolGovernance",
              "name": "protocolGovernance",
              "type": "address"
            }
          ],
          "internalType": "struct IBaseValidator.ValidatorParams",
          "name": "",
          "type": "tuple"
        }
      ],
      "stateMutability": "view",
      "type": "function"
    },
    {
      "inputs": [],
      "name": "stagedValidatorParamsTimestamp",
      "outputs": [
        {
          "internalType": "uint256",
          "name": "",
          "type": "uint256"
        }
      ],
      "stateMutability": "view",
      "type": "function"
    },
    {
      "inputs": [
        {
          "internalType": "bytes4",
          "name": "interfaceId",
          "type": "bytes4"
        }
      ],
      "name": "supportsInterface",
      "outputs": [
        {
          "internalType": "bool",
          "name": "",
          "type": "bool"
        }
      ],
      "stateMutability": "view",
      "type": "function"
    },
    {
      "inputs": [
        {
          "internalType": "address",
          "name": "",
          "type": "address"
        },
        {
          "internalType": "address",
          "name": "",
          "type": "address"
        },
        {
          "internalType": "uint256",
          "name": "",
          "type": "uint256"
        },
        {
          "internalType": "bytes4",
          "name": "selector",
          "type": "bytes4"
        },
        {
          "internalType": "bytes",
          "name": "",
          "type": "bytes"
        }
      ],
      "name": "validate",
      "outputs": [],
      "stateMutability": "pure",
      "type": "function"
    },
    {
      "inputs": [],
      "name": "validatorParams",
      "outputs": [
        {
          "components": [
            {
              "internalType": "contract IProtocolGovernance",
              "name": "protocolGovernance",
              "type": "address"
            }
          ],
          "internalType": "struct IBaseValidator.ValidatorParams",
          "name": "",
          "type": "tuple"
        }
      ],
      "stateMutability": "view",
      "type": "function"
    }
  ],
  "bytecode": {
    "object": "0x608060405234801561001057600080fd5b5060405161098b38038061098b83398101604081905261002f91610061565b60408051602081019091526001600160a01b0390911690819052600080546001600160a01b0319169091179055610091565b60006020828403121561007357600080fd5b81516001600160a01b038116811461008a57600080fd5b9392505050565b6108eb806100a06000396000f3fe608060405234801561001057600080fd5b50600436106100b45760003560e01c80634c39da1b116100715780634c39da1b1461015657806357acc302146101955780635e585c34146101bf57806375d0c0dc146101d2578063a0a8e460146101e7578063e6ab042c146101ef57600080fd5b806301ffc9a7146100b957806306a46239146100e15780630768b496146100f95780630e3e80ac146101015780632c7cde781461011a57806347c0a4ed14610141575b600080fd5b6100cc6100c7366004610672565b6101f7565b60405190151581526020015b60405180910390f35b640312e302e360dc1b5b6040519081526020016100d8565b6002546100eb565b6f21b7bbb9bbb0b82b30b634b230ba37b960811b6100eb565b61012863ec6cb13f60e01b81565b6040516001600160e01b031990911681526020016100d8565b61015461014f366004610694565b610233565b005b6040805160208082018352600090915281519081019091526001546001600160a01b031681525b60405190516001600160a01b031681526020016100d8565b60408051602080820183526000918290528251908101909252546001600160a01b0316815261017d565b6101546101cd3660046106c4565b6103c5565b6101da61041b565b6040516100d89190610775565b6101da610439565b61015461044c565b60006001600160e01b03198216631796170d60e21b148061022857506301ffc9a760e01b6001600160e01b03198316145b92915050565b905090565b600054604051630935e01b60e21b81523360048201526001600160a01b039091169081906324d7806c9060240160206040518083038186803b15801561027857600080fd5b505afa15801561028c573d6000803e3d6000fd5b505050506040513d601f19601f820116820180604052508101906102b091906107ca565b6040518060400160405280600381526020016223292160e91b815250906102f35760405162461bcd60e51b81526004016102ea9190610775565b60405180910390fd5b5081600161030182826107ec565b905050806001600160a01b031663bba329396040518163ffffffff1660e01b815260040160206040518083038186803b15801561033d57600080fd5b505afa158015610351573d6000803e3d6000fd5b505050506040513d601f19601f820116820180604052508101906103759190610815565b61037f9042610844565b6002819055604051339132917f660ad6a797f71286627569396d4046567822701c6afd27f47d280dee5e2ce181916103b99187919061085c565b60405180910390a35050565b6001600160e01b0319831663ec6cb13f60e01b14156103e357610413565b604080518082018252600480825263494e565360e01b6020830152915162461bcd60e51b81526102ea9201610775565b505050505050565b606061022e6f21b7bbb9bbb0b82b30b634b230ba37b960811b6105e9565b606061022e640312e302e360dc1b6105e9565b60025460408051808201909152600581526412539594d560da1b6020820152906104895760405162461bcd60e51b81526004016102ea9190610775565b50600054604051630935e01b60e21b81523360048201526001600160a01b039091169081906324d7806c9060240160206040518083038186803b1580156104cf57600080fd5b505afa1580156104e3573d6000803e3d6000fd5b505050506040513d601f19601f8201168201806040525081019061050791906107ca565b6040518060400160405280600381526020016223292160e91b815250906105415760405162461bcd60e51b81526004016102ea9190610775565b5060025442101560405180604001604052806002815260200161545360f01b815250906105815760405162461bcd60e51b81526004016102ea9190610775565b5060018054600080546001600160a01b0383166001600160a01b0319918216811783559216909255600291909155604051908152339032907f15f858bb04b5aa79f0fafddd94b014ab8bf8ceae94724b7074c7b4940be688b49060200160405180910390a350565b604080516020808252818301909252606091602082018180368337019050509050602060005b60208110156106475783816020811061062a5761062a610884565b1a61063757809150610647565b6106408161089a565b905061060f565b508152602081019190915290565b80356001600160e01b03198116811461066d57600080fd5b919050565b60006020828403121561068457600080fd5b61068d82610655565b9392505050565b6000602082840312156106a657600080fd5b50919050565b6001600160a01b03811681146106c157600080fd5b50565b60008060008060008060a087890312156106dd57600080fd5b86356106e8816106ac565b955060208701356106f8816106ac565b94506040870135935061070d60608801610655565b9250608087013567ffffffffffffffff8082111561072a57600080fd5b818901915089601f83011261073e57600080fd5b81358181111561074d57600080fd5b8a602082850101111561075f57600080fd5b6020830194508093505050509295509295509295565b600060208083528351808285015260005b818110156107a257858101830151858201604001528201610786565b818111156107b4576000604083870101525b50601f01601f1916929092016040019392505050565b6000602082840312156107dc57600080fd5b8151801515811461068d57600080fd5b81356107f7816106ac565b81546001600160a01b0319166001600160a01b039190911617905550565b60006020828403121561082757600080fd5b5051919050565b634e487b7160e01b600052601160045260246000fd5b600082198211156108575761085761082e565b500190565b60408101833561086b816106ac565b6001600160a01b03168252602090910191909152919050565b634e487b7160e01b600052603260045260246000fd5b60006000198214156108ae576108ae61082e565b506001019056fea264697066735822122097693ef676798dec2082ec6c419989d09404f4edda7188e7b8eda77c3e32d8a164736f6c63430008090033",
    "linkReferences": {}
  },
  "methodIdentifiers": {
    "PRE_SIGNATURE_SELECTOR()": "2c7cde78",
    "commitValidatorParams()": "e6ab042c",
    "contractName()": "75d0c0dc",
    "contractNameBytes()": "0e3e80ac",
    "contractVersion()": "a0a8e460",
    "contractVersionBytes()": "06a46239",
    "stageValidatorParams((address))": "47c0a4ed",
    "stagedValidatorParams()": "4c39da1b",
    "stagedValidatorParamsTimestamp()": "0768b496",
    "supportsInterface(bytes4)": "01ffc9a7",
    "validate(address,address,uint256,bytes4,bytes)": "5e585c34",
    "validatorParams()": "57acc302"
  },
  "id": 438
}