{
  "abi": [
    {
      "inputs": [
        {
          "internalType": "contract IProtocolGovernance",
          "name": "protocolGovernance_",
          "type": "address"
        },
        {
          "internalType": "address",
          "name": "swapRouter_",
          "type": "address"
        },
        {
          "internalType": "contract IAlgebraFactory",
          "name": "factory_",
          "type": "address"
        }
      ],
      "stateMutability": "nonpayable",
      "type": "constructor"
    },
    {
      "anonymous": false,
      "inputs": [
        {
          "indexed": true,
          "internalType": "address",
          "name": "origin",
          "type": "address"
        },
        {
          "indexed": true,
          "internalType": "address",
          "name": "sender",
          "type": "address"
        },
        {
          "components": [
            {
              "internalType": "contract IProtocolGovernance",
              "name": "protocolGovernance",
              "type": "address"
            }
          ],
          "indexed": false,
          "internalType": "struct IBaseValidator.ValidatorParams",
          "name": "params",
          "type": "tuple"
        }
      ],
      "name": "CommittedValidatorParams",
      "type": "event"
    },
    {
      "anonymous": false,
      "inputs": [
        {
          "indexed": true,
          "internalType": "address",
          "name": "origin",
          "type": "address"
        },
        {
          "indexed": true,
          "internalType": "address",
          "name": "sender",
          "type": "address"
        },
        {
          "components": [
            {
              "internalType": "contract IProtocolGovernance",
              "name": "protocolGovernance",
              "type": "address"
            }
          ],
          "indexed": false,
          "internalType": "struct IBaseValidator.ValidatorParams",
          "name": "newParams",
          "type": "tuple"
        },
        {
          "indexed": false,
          "internalType": "uint256",
          "name": "when",
          "type": "uint256"
        }
      ],
      "name": "StagedValidatorParams",
      "type": "event"
    },
    {
      "inputs": [],
      "name": "EXACT_INPUT_SELECTOR",
      "outputs": [
        {
          "internalType": "bytes4",
          "name": "",
          "type": "bytes4"
        }
      ],
      "stateMutability": "view",
      "type": "function"
    },
    {
      "inputs": [],
      "name": "EXACT_INPUT_SINGLE_SELECTOR",
      "outputs": [
        {
          "internalType": "bytes4",
          "name": "",
          "type": "bytes4"
        }
      ],
      "stateMutability": "view",
      "type": "function"
    },
    {
      "inputs": [],
      "name": "EXACT_OUTPUT_SELECTOR",
      "outputs": [
        {
          "internalType": "bytes4",
          "name": "",
          "type": "bytes4"
        }
      ],
      "stateMutability": "view",
      "type": "function"
    },
    {
      "inputs": [],
      "name": "EXACT_OUTPUT_SINGLE_SELECTOR",
      "outputs": [
        {
          "internalType": "bytes4",
          "name": "",
          "type": "bytes4"
        }
      ],
      "stateMutability": "view",
      "type": "function"
    },
    {
      "inputs": [],
      "name": "commitValidatorParams",
      "outputs": [],
      "stateMutability": "nonpayable",
      "type": "function"
    },
    {
      "inputs": [],
      "name": "contractName",
      "outputs": [
        {
          "internalType": "string",
          "name": "",
          "type": "string"
        }
      ],
      "stateMutability": "pure",
      "type": "function"
    },
    {
      "inputs": [],
      "name": "contractNameBytes",
      "outputs": [
        {
          "internalType": "bytes32",
          "name": "",
          "type": "bytes32"
        }
      ],
      "stateMutability": "pure",
      "type": "function"
    },
    {
      "inputs": [],
      "name": "contractVersion",
      "outputs": [
        {
          "internalType": "string",
          "name": "",
          "type": "string"
        }
      ],
      "stateMutability": "pure",
      "type": "function"
    },
    {
      "inputs": [],
      "name": "contractVersionBytes",
      "outputs": [
        {
          "internalType": "bytes32",
          "name": "",
          "type": "bytes32"
        }
      ],
      "stateMutability": "pure",
      "type": "function"
    },
    {
      "inputs": [],
      "name": "factory",
      "outputs": [
        {
          "internalType": "contract IAlgebraFactory",
          "name": "",
          "type": "address"
        }
      ],
      "stateMutability": "view",
      "type": "function"
    },
    {
      "inputs": [
        {
          "components": [
            {
              "internalType": "contract IProtocolGovernance",
              "name": "protocolGovernance",
              "type": "address"
            }
          ],
          "internalType": "struct IBaseValidator.ValidatorParams",
          "name": "newParams",
          "type": "tuple"
        }
      ],
      "name": "stageValidatorParams",
      "outputs": [],
      "stateMutability": "nonpayable",
      "type": "function"
    },
    {
      "inputs": [],
      "name": "stagedValidatorParams",
      "outputs": [
        {
          "components": [
            {
              "internalType": "contract IProtocolGovernance",
              "name": "protocolGovernance",
              "type": "address"
            }
          ],
          "internalType": "struct IBaseValidator.ValidatorParams",
          "name": "",
          "type": "tuple"
        }
      ],
      "stateMutability": "view",
      "type": "function"
    },
    {
      "inputs": [],
      "name": "stagedValidatorParamsTimestamp",
      "outputs": [
        {
          "internalType": "uint256",
          "name": "",
          "type": "uint256"
        }
      ],
      "stateMutability": "view",
      "type": "function"
    },
    {
      "inputs": [
        {
          "internalType": "bytes4",
          "name": "interfaceId",
          "type": "bytes4"
        }
      ],
      "name": "supportsInterface",
      "outputs": [
        {
          "internalType": "bool",
          "name": "",
          "type": "bool"
        }
      ],
      "stateMutability": "view",
      "type": "function"
    },
    {
      "inputs": [],
      "name": "swapRouter",
      "outputs": [
        {
          "internalType": "address",
          "name": "",
          "type": "address"
        }
      ],
      "stateMutability": "view",
      "type": "function"
    },
    {
      "inputs": [
        {
          "internalType": "address",
          "name": "",
          "type": "address"
        },
        {
          "internalType": "address",
          "name": "addr",
          "type": "address"
        },
        {
          "internalType": "uint256",
          "name": "value",
          "type": "uint256"
        },
        {
          "internalType": "bytes4",
          "name": "selector",
          "type": "bytes4"
        },
        {
          "internalType": "bytes",
          "name": "data",
          "type": "bytes"
        }
      ],
      "name": "validate",
      "outputs": [],
      "stateMutability": "view",
      "type": "function"
    },
    {
      "inputs": [],
      "name": "validatorParams",
      "outputs": [
        {
          "components": [
            {
              "internalType": "contract IProtocolGovernance",
              "name": "protocolGovernance",
              "type": "address"
            }
          ],
          "internalType": "struct IBaseValidator.ValidatorParams",
          "name": "",
          "type": "tuple"
        }
      ],
      "stateMutability": "view",
      "type": "function"
    }
  ],
  "bytecode": {
    "object": "0x60c060405234801561001057600080fd5b50604051620014423803806200144283398101604081905261003191610085565b60408051602081019091526001600160a01b0393841690819052600080546001600160a01b03191690911790559082166080521660a0526100d2565b6001600160a01b038116811461008257600080fd5b50565b60008060006060848603121561009a57600080fd5b83516100a58161006d565b60208501519093506100b68161006d565b60408501519092506100c78161006d565b809150509250925092565b60805160a05161133c620001066000396000818161029a0152610c1c01526000818161025b01526104ba015261133c6000f3fe608060405234801561001057600080fd5b506004361061010b5760003560e01c806370655fa0116100a2578063c31c9c0711610071578063c31c9c0714610256578063c45a015514610295578063c8991b9e146102bc578063e6ab042c146102ca578063feca4a1d146102d257600080fd5b806370655fa0146102045780637183d7f61461022b57806375d0c0dc14610239578063a0a8e4601461024e57600080fd5b806347c0a4ed116100de57806347c0a4ed146101735780634c39da1b1461018857806357acc302146101c75780635e585c34146101f157600080fd5b806301ffc9a71461011057806306a46239146101385780630768b496146101505780630e3e80ac14610158575b600080fd5b61012361011e366004610d7a565b6102e0565b60405190151581526020015b60405180910390f35b640312e302e360dc1b5b60405190815260200161012f565b600254610142565b7128bab4b1b5a9bbb0b82b30b634b230ba37b960711b610142565b610186610181366004610d9c565b61031c565b005b6040805160208082018352600090915281519081019091526001546001600160a01b031681525b60405190516001600160a01b0316815260200161012f565b60408051602080820183526000918290528251908101909252546001600160a01b031681526101af565b6101866101ff366004610dd7565b6104ae565b610212631e51809360e31b81565b6040516001600160e01b0319909116815260200161012f565b610212631b67c43360e31b81565b61024161067f565b60405161012f9190610e88565b61024161069f565b61027d7f000000000000000000000000000000000000000000000000000000000000000081565b6040516001600160a01b03909116815260200161012f565b61027d7f000000000000000000000000000000000000000000000000000000000000000081565b61021263c04b8d5960e01b81565b6101866106b2565b61021263178ca23160e31b81565b60006001600160e01b03198216631796170d60e21b148061031157506301ffc9a760e01b6001600160e01b03198316145b92915050565b905090565b600054604051630935e01b60e21b81523360048201526001600160a01b039091169081906324d7806c9060240160206040518083038186803b15801561036157600080fd5b505afa158015610375573d6000803e3d6000fd5b505050506040513d601f19601f820116820180604052508101906103999190610edd565b6040518060400160405280600381526020016223292160e91b815250906103dc5760405162461bcd60e51b81526004016103d39190610e88565b60405180910390fd5b508160016103ea8282610eff565b905050806001600160a01b031663bba329396040518163ffffffff1660e01b815260040160206040518083038186803b15801561042657600080fd5b505afa15801561043a573d6000803e3d6000fd5b505050506040513d601f19601f8201168201806040525081019061045e9190610f28565b6104689042610f57565b6002819055604051339132917f660ad6a797f71286627569396d4046567822701c6afd27f47d280dee5e2ce181916104a291879190610f6f565b60405180910390a35050565b846001600160a01b03167f00000000000000000000000000000000000000000000000000000000000000006001600160a01b0316146040518060400160405280600581526020016424a72b2a2960d91b8152509061051f5760405162461bcd60e51b81526004016103d39190610e88565b5060408051808201909152600381526224a72b60e91b602082015284156105595760405162461bcd60e51b81526004016103d39190610e88565b50336001600160e01b0319841663178ca23160e31b14156105a257600061058283850185611007565b905061059c8282604001518360000151846020015161084f565b50610676565b6001600160e01b03198416631b67c43360e31b14156105e35760006105c9838501856110bf565b905061059c8282606001518360000151846020015161084f565b6001600160e01b0319841663c04b8d5960e01b141561061f57600061060a83850185611242565b905061059c8282602001518360000151610967565b6001600160e01b03198416631e51809360e31b141561064657600061060a83850185611242565b604080518082018252600480825263494e565360e01b6020830152915162461bcd60e51b81526103d39201610e88565b50505050505050565b60606103177128bab4b1b5a9bbb0b82b30b634b230ba37b960711b610b2d565b6060610317640312e302e360dc1b610b2d565b60025460408051808201909152600581526412539594d560da1b6020820152906106ef5760405162461bcd60e51b81526004016103d39190610e88565b50600054604051630935e01b60e21b81523360048201526001600160a01b039091169081906324d7806c9060240160206040518083038186803b15801561073557600080fd5b505afa158015610749573d6000803e3d6000fd5b505050506040513d601f19601f8201168201806040525081019061076d9190610edd565b6040518060400160405280600381526020016223292160e91b815250906107a75760405162461bcd60e51b81526004016103d39190610e88565b5060025442101560405180604001604052806002815260200161545360f01b815250906107e75760405162461bcd60e51b81526004016103d39190610e88565b5060018054600080546001600160a01b0383166001600160a01b0319918216811783559216909255600291909155604051908152339032907f15f858bb04b5aa79f0fafddd94b014ab8bf8ceae94724b7074c7b4940be688b49060200160405180910390a350565b836001600160a01b0316836001600160a01b0316146040518060400160405280600581526020016424a72b2a2960d91b815250906108a05760405162461bcd60e51b81526004016103d39190610e88565b5060405163338c4ccb60e01b81526001600160a01b03828116600483015285169063338c4ccb9060240160206040518083038186803b1580156108e257600080fd5b505afa1580156108f6573d6000803e3d6000fd5b505050506040513d601f19601f8201168201806040525081019061091a9190610edd565b60405180604001604052806005815260200164494e56544f60d81b815250906109565760405162461bcd60e51b81526004016103d39190610e88565b506109618282610b99565b50505050565b6000806000806001600160a01b039050866001600160a01b0316866001600160a01b0316146040518060400160405280600581526020016424a72b2a2960d91b815250906109c85760405162461bcd60e51b81526004016103d39190610e88565b50601485516109d7919061127f565b1580156109e657506028855110155b604051806040016040528060048152602001631253959360e21b81525090610a215760405162461bcd60e51b81526004016103d39190610e88565b505b6014848651610a3291906112a1565b1115610a6e57848401602081015160289091015160609190911c935081169150610a5c8383610b99565b610a67601485610f57565b9350610a23565b60405163338c4ccb60e01b81526001600160a01b03838116600483015288169063338c4ccb9060240160206040518083038186803b158015610aaf57600080fd5b505afa158015610ac3573d6000803e3d6000fd5b505050506040513d601f19601f82011682018060405250810190610ae79190610edd565b60405180604001604052806005815260200164494e56544f60d81b81525090610b235760405162461bcd60e51b81526004016103d39190610e88565b5050505050505050565b604080516020808252818301909252606091602082018180368337019050509050602060005b6020811015610b8b57838160208110610b6e57610b6e6112b8565b1a610b7b57809150610b8b565b610b84816112ce565b9050610b53565b508152602081019190915290565b806001600160a01b0316826001600160a01b0316141560405180604001604052806005815260200164494e56544f60d81b81525090610beb5760405162461bcd60e51b81526004016103d39190610e88565b506000805460405163d9a641e160e01b81526001600160a01b038581166004830152848116602483015291821692917f0000000000000000000000000000000000000000000000000000000000000000169063d9a641e19060440160206040518083038186803b158015610c5e57600080fd5b505afa158015610c72573d6000803e3d6000fd5b505050506040513d601f19601f82011682018060405250810190610c9691906112e9565b6040516363e85d2d60e01b81526001600160a01b038083166004808401919091526024830152919250908316906363e85d2d9060440160206040518083038186803b158015610ce457600080fd5b505afa158015610cf8573d6000803e3d6000fd5b505050506040513d601f19601f82011682018060405250810190610d1c9190610edd565b6040518060400160405280600381526020016223292160e91b81525090610d565760405162461bcd60e51b81526004016103d39190610e88565b5050505050565b80356001600160e01b031981168114610d7557600080fd5b919050565b600060208284031215610d8c57600080fd5b610d9582610d5d565b9392505050565b600060208284031215610dae57600080fd5b50919050565b6001600160a01b0381168114610dc957600080fd5b50565b8035610d7581610db4565b60008060008060008060a08789031215610df057600080fd5b8635610dfb81610db4565b95506020870135610e0b81610db4565b945060408701359350610e2060608801610d5d565b9250608087013567ffffffffffffffff80821115610e3d57600080fd5b818901915089601f830112610e5157600080fd5b813581811115610e6057600080fd5b8a6020828501011115610e7257600080fd5b6020830194508093505050509295509295509295565b600060208083528351808285015260005b81811015610eb557858101830151858201604001528201610e99565b81811115610ec7576000604083870101525b50601f01601f1916929092016040019392505050565b600060208284031215610eef57600080fd5b81518015158114610d9557600080fd5b8135610f0a81610db4565b81546001600160a01b0319166001600160a01b039190911617905550565b600060208284031215610f3a57600080fd5b5051919050565b634e487b7160e01b600052601160045260246000fd5b60008219821115610f6a57610f6a610f41565b500190565b604081018335610f7e81610db4565b6001600160a01b03168252602090910191909152919050565b634e487b7160e01b600052604160045260246000fd5b60405160a0810167ffffffffffffffff81118282101715610fd057610fd0610f97565b60405290565b604051601f8201601f1916810167ffffffffffffffff81118282101715610fff57610fff610f97565b604052919050565b600060e0828403121561101957600080fd5b60405160e0810181811067ffffffffffffffff8211171561103c5761103c610f97565b604052823561104a81610db4565b8152602083013561105a81610db4565b6020820152604083013561106d81610db4565b80604083015250606083013560608201526080830135608082015260a083013560a082015260c08301356110a081610db4565b60c08201529392505050565b803562ffffff81168114610d7557600080fd5b60006101008083850312156110d357600080fd5b6040519081019067ffffffffffffffff821181831017156110f6576110f6610f97565b816040528335915061110782610db4565b81815261111660208501610dcc565b6020820152611127604085016110ac565b604082015261113860608501610dcc565b60608201526080840135608082015260a084013560a082015260c084013560c082015261116760e08501610dcc565b60e0820152949350505050565b600060a0828403121561118657600080fd5b61118e610fad565b9050813567ffffffffffffffff808211156111a857600080fd5b818401915084601f8301126111bc57600080fd5b81356020828211156111d0576111d0610f97565b6111e2601f8301601f19168201610fd6565b925081835286818386010111156111f857600080fd5b81818501828501376000818385010152828552611216818701610dcc565b818601525050505060408201356040820152606082013560608201526080820135608082015292915050565b60006020828403121561125457600080fd5b813567ffffffffffffffff81111561126b57600080fd5b61127784828501611174565b949350505050565b60008261129c57634e487b7160e01b600052601260045260246000fd5b500690565b6000828210156112b3576112b3610f41565b500390565b634e487b7160e01b600052603260045260246000fd5b60006000198214156112e2576112e2610f41565b5060010190565b6000602082840312156112fb57600080fd5b8151610d9581610db456fea26469706673582212209cc76cfa972feed0898cac58ecb9cc42c1c27dd783500fd8c52ade0135d75bfc64736f6c63430008090033",
    "linkReferences": {}
  },
  "methodIdentifiers": {
    "EXACT_INPUT_SELECTOR()": "c8991b9e",
    "EXACT_INPUT_SINGLE_SELECTOR()": "feca4a1d",
    "EXACT_OUTPUT_SELECTOR()": "70655fa0",
    "EXACT_OUTPUT_SINGLE_SELECTOR()": "7183d7f6",
    "commitValidatorParams()": "e6ab042c",
    "contractName()": "75d0c0dc",
    "contractNameBytes()": "0e3e80ac",
    "contractVersion()": "a0a8e460",
    "contractVersionBytes()": "06a46239",
    "factory()": "c45a0155",
    "stageValidatorParams((address))": "47c0a4ed",
    "stagedValidatorParams()": "4c39da1b",
    "stagedValidatorParamsTimestamp()": "0768b496",
    "supportsInterface(bytes4)": "01ffc9a7",
    "swapRouter()": "c31c9c07",
    "validate(address,address,uint256,bytes4,bytes)": "5e585c34",
    "validatorParams()": "57acc302"
  },
  "id": 441
}