{
  "abi": [
    {
      "anonymous": false,
      "inputs": [
        {
          "indexed": true,
          "internalType": "address",
          "name": "origin",
          "type": "address"
        },
        {
          "indexed": true,
          "internalType": "address",
          "name": "sender",
          "type": "address"
        },
        {
          "indexed": false,
          "internalType": "address[]",
          "name": "vaultTokens_",
          "type": "address[]"
        },
        {
          "indexed": false,
          "internalType": "uint256",
          "name": "nft_",
          "type": "uint256"
        }
      ],
      "name": "Initialized",
      "type": "event"
    },
    {
      "anonymous": false,
      "inputs": [
        {
          "indexed": false,
          "internalType": "address",
          "name": "to",
          "type": "address"
        },
        {
          "indexed": false,
          "internalType": "uint256[]",
          "name": "tokenAmounts",
          "type": "uint256[]"
        }
      ],
      "name": "Pull",
      "type": "event"
    },
    {
      "anonymous": false,
      "inputs": [
        {
          "indexed": false,
          "internalType": "uint256[]",
          "name": "tokenAmounts",
          "type": "uint256[]"
        }
      ],
      "name": "Push",
      "type": "event"
    },
    {
      "anonymous": false,
      "inputs": [
        {
          "indexed": false,
          "internalType": "address",
          "name": "to",
          "type": "address"
        },
        {
          "indexed": false,
          "internalType": "address[]",
          "name": "tokens",
          "type": "address[]"
        },
        {
          "indexed": false,
          "internalType": "uint256[]",
          "name": "tokenAmounts",
          "type": "uint256[]"
        }
      ],
      "name": "ReclaimTokens",
      "type": "event"
    },
    {
      "inputs": [],
      "name": "DENOMINATOR",
      "outputs": [
        {
          "internalType": "uint256",
          "name": "",
          "type": "uint256"
        }
      ],
      "stateMutability": "view",
      "type": "function"
    },
    {
      "inputs": [],
      "name": "GET_REWARD_SELECTOR",
      "outputs": [
        {
          "internalType": "bytes4",
          "name": "",
          "type": "bytes4"
        }
      ],
      "stateMutability": "view",
      "type": "function"
    },
    {
      "inputs": [],
      "name": "convexAdapter",
      "outputs": [
        {
          "internalType": "address",
          "name": "",
          "type": "address"
        }
      ],
      "stateMutability": "view",
      "type": "function"
    },
    {
      "inputs": [],
      "name": "creditAccount",
      "outputs": [
        {
          "internalType": "address",
          "name": "",
          "type": "address"
        }
      ],
      "stateMutability": "view",
      "type": "function"
    },
    {
      "inputs": [],
      "name": "curveAdapter",
      "outputs": [
        {
          "internalType": "address",
          "name": "",
          "type": "address"
        }
      ],
      "stateMutability": "view",
      "type": "function"
    },
    {
      "inputs": [],
      "name": "depositToken",
      "outputs": [
        {
          "internalType": "address",
          "name": "",
          "type": "address"
        }
      ],
      "stateMutability": "view",
      "type": "function"
    },
    {
      "inputs": [
        {
          "internalType": "address",
          "name": "to",
          "type": "address"
        },
        {
          "internalType": "bytes4",
          "name": "selector",
          "type": "bytes4"
        },
        {
          "internalType": "bytes",
          "name": "data",
          "type": "bytes"
        }
      ],
      "name": "externalCall",
      "outputs": [
        {
          "internalType": "bytes",
          "name": "result",
          "type": "bytes"
        }
      ],
      "stateMutability": "payable",
      "type": "function"
    },
    {
      "inputs": [
        {
          "internalType": "uint256",
          "name": "nft_",
          "type": "uint256"
        },
        {
          "internalType": "address[]",
          "name": "vaultTokens_",
          "type": "address[]"
        }
      ],
      "name": "initialize",
      "outputs": [],
      "stateMutability": "nonpayable",
      "type": "function"
    },
    {
      "inputs": [],
      "name": "initialized",
      "outputs": [
        {
          "internalType": "bool",
          "name": "",
          "type": "bool"
        }
      ],
      "stateMutability": "view",
      "type": "function"
    },
    {
      "inputs": [
        {
          "internalType": "bytes32",
          "name": "_hash",
          "type": "bytes32"
        },
        {
          "internalType": "bytes",
          "name": "_signature",
          "type": "bytes"
        }
      ],
      "name": "isValidSignature",
      "outputs": [
        {
          "internalType": "bytes4",
          "name": "magicValue",
          "type": "bytes4"
        }
      ],
      "stateMutability": "view",
      "type": "function"
    },
    {
      "inputs": [
        {
          "internalType": "address",
          "name": "token",
          "type": "address"
        }
      ],
      "name": "isVaultToken",
      "outputs": [
        {
          "internalType": "bool",
          "name": "",
          "type": "bool"
        }
      ],
      "stateMutability": "view",
      "type": "function"
    },
    {
      "inputs": [
        {
          "internalType": "address",
          "name": "",
          "type": "address"
        }
      ],
      "name": "lastOrderTimestamp",
      "outputs": [
        {
          "internalType": "uint256",
          "name": "",
          "type": "uint256"
        }
      ],
      "stateMutability": "view",
      "type": "function"
    },
    {
      "inputs": [
        {
          "internalType": "address",
          "name": "",
          "type": "address"
        }
      ],
      "name": "lpTokensToWithdrawOrder",
      "outputs": [
        {
          "internalType": "uint256",
          "name": "",
          "type": "uint256"
        }
      ],
      "stateMutability": "view",
      "type": "function"
    },
    {
      "inputs": [],
      "name": "nft",
      "outputs": [
        {
          "internalType": "uint256",
          "name": "",
          "type": "uint256"
        }
      ],
      "stateMutability": "view",
      "type": "function"
    },
    {
      "inputs": [],
      "name": "primaryToken",
      "outputs": [
        {
          "internalType": "address",
          "name": "",
          "type": "address"
        }
      ],
      "stateMutability": "view",
      "type": "function"
    },
    {
      "inputs": [
        {
          "internalType": "address",
          "name": "to",
          "type": "address"
        },
        {
          "internalType": "address[]",
          "name": "tokens",
          "type": "address[]"
        },
        {
          "internalType": "uint256[]",
          "name": "tokenAmounts",
          "type": "uint256[]"
        },
        {
          "internalType": "bytes",
          "name": "options",
          "type": "bytes"
        }
      ],
      "name": "pull",
      "outputs": [
        {
          "internalType": "uint256[]",
          "name": "actualTokenAmounts",
          "type": "uint256[]"
        }
      ],
      "stateMutability": "nonpayable",
      "type": "function"
    },
    {
      "inputs": [],
      "name": "pullExistentials",
      "outputs": [
        {
          "internalType": "uint256[]",
          "name": "",
          "type": "uint256[]"
        }
      ],
      "stateMutability": "view",
      "type": "function"
    },
    {
      "inputs": [
        {
          "internalType": "address[]",
          "name": "tokens",
          "type": "address[]"
        },
        {
          "internalType": "uint256[]",
          "name": "tokenAmounts",
          "type": "uint256[]"
        },
        {
          "internalType": "bytes",
          "name": "options",
          "type": "bytes"
        }
      ],
      "name": "push",
      "outputs": [
        {
          "internalType": "uint256[]",
          "name": "actualTokenAmounts",
          "type": "uint256[]"
        }
      ],
      "stateMutability": "nonpayable",
      "type": "function"
    },
    {
      "inputs": [
        {
          "internalType": "address[]",
          "name": "tokens",
          "type": "address[]"
        }
      ],
      "name": "reclaimTokens",
      "outputs": [
        {
          "internalType": "uint256[]",
          "name": "actualTokenAmounts",
          "type": "uint256[]"
        }
      ],
      "stateMutability": "nonpayable",
      "type": "function"
    },
    {
      "inputs": [
        {
          "internalType": "bytes4",
          "name": "interfaceId",
          "type": "bytes4"
        }
      ],
      "name": "supportsInterface",
      "outputs": [
        {
          "internalType": "bool",
          "name": "",
          "type": "bool"
        }
      ],
      "stateMutability": "view",
      "type": "function"
    },
    {
      "inputs": [
        {
          "internalType": "address",
          "name": "from",
          "type": "address"
        },
        {
          "internalType": "address[]",
          "name": "tokens",
          "type": "address[]"
        },
        {
          "internalType": "uint256[]",
          "name": "tokenAmounts",
          "type": "uint256[]"
        },
        {
          "internalType": "bytes",
          "name": "options",
          "type": "bytes"
        }
      ],
      "name": "transferAndPush",
      "outputs": [
        {
          "internalType": "uint256[]",
          "name": "actualTokenAmounts",
          "type": "uint256[]"
        }
      ],
      "stateMutability": "nonpayable",
      "type": "function"
    },
    {
      "inputs": [],
      "name": "tvl",
      "outputs": [
        {
          "internalType": "uint256[]",
          "name": "minTokenAmounts",
          "type": "uint256[]"
        },
        {
          "internalType": "uint256[]",
          "name": "maxTokenAmounts",
          "type": "uint256[]"
        }
      ],
      "stateMutability": "view",
      "type": "function"
    },
    {
      "inputs": [
        {
          "internalType": "uint256",
          "name": "marginalFactorD_",
          "type": "uint256"
        }
      ],
      "name": "updateTargetMarginalFactor",
      "outputs": [],
      "stateMutability": "nonpayable",
      "type": "function"
    },
    {
      "inputs": [],
      "name": "vaultGovernance",
      "outputs": [
        {
          "internalType": "contract IVaultGovernance",
          "name": "",
          "type": "address"
        }
      ],
      "stateMutability": "view",
      "type": "function"
    },
    {
      "inputs": [],
      "name": "vaultTokens",
      "outputs": [
        {
          "internalType": "address[]",
          "name": "",
          "type": "address[]"
        }
      ],
      "stateMutability": "view",
      "type": "function"
    }
  ],
  "bytecode": {
    "object": "0x608060405234801561001057600080fd5b506001600055600019600455615d43806200002c6000396000f3fe6080604052600436106101665760003560e01c80636d0a1218116100d1578063a920b78c1161008a578063e5328e0611610064578063e5328e0614610458578063f6b742471461047b578063fbea92d7146104a8578063fe255a5e146104d557600080fd5b8063a920b78c14610403578063c89039c514610423578063d2c219b01461044357600080fd5b80636d0a12181461034e5780637a24fa031461036e57806385c3c33e1461038e578063918f8674146103b057806391ac094c146103c85780639ddf60e8146103e857600080fd5b806327a35e5a1161012357806327a35e5a146102755780632e2f4cc214610295578063338c4ccb146102b557806347ccca02146102ed578063566ca6b41461030c578063697222331461032c57600080fd5b806301ffc9a71461016b57806305e1c942146101a05780631497761e146101cd578063158ef93e146102055780631626ba7e1461021c5780632062d75414610255575b600080fd5b34801561017757600080fd5b5061018b610186366004614fd4565b6104f3565b60405190151581526020015b60405180910390f35b3480156101ac57600080fd5b506101c06101bb3660046150e3565b61051f565b6040516101979190615152565b3480156101d957600080fd5b50600b546101ed906001600160a01b031681565b6040516001600160a01b039091168152602001610197565b34801561021157600080fd5b50600454151561018b565b34801561022857600080fd5b5061023c6102373660046151d4565b610997565b6040516001600160e01b03199091168152602001610197565b34801561026157600080fd5b506101c0610270366004615275565b610ce4565b34801561028157600080fd5b506101c0610290366004615275565b611190565b6102a86102a336600461530f565b611317565b60405161019791906153f8565b3480156102c157600080fd5b5061018b6102d036600461540b565b6001600160a01b0316600090815260036020526040902054151590565b3480156102f957600080fd5b506004545b604051908152602001610197565b34801561031857600080fd5b506101c0610327366004615428565b6115eb565b34801561033857600080fd5b506103416118bb565b60405161019791906154e8565b34801561035a57600080fd5b506008546101ed906001600160a01b031681565b34801561037a57600080fd5b50600c546101ed906001600160a01b031681565b34801561039a57600080fd5b506103ae6103a93660046154fb565b61191d565b005b3480156103bc57600080fd5b506102fe633b9aca0081565b3480156103d457600080fd5b506009546101ed906001600160a01b031681565b3480156103f457600080fd5b5061023c637050ccd960e01b81565b34801561040f57600080fd5b506103ae61041e366004615514565b6119a3565b34801561042f57600080fd5b50600a546101ed906001600160a01b031681565b34801561044f57600080fd5b506101c0611d88565b34801561046457600080fd5b5061046d611ddf565b604051610197929190615550565b34801561048757600080fd5b506102fe61049636600461540b565b60116020526000908152604090205481565b3480156104b457600080fd5b506102fe6104c336600461540b565b60126020526000908152604090205481565b3480156104e157600080fd5b506001546001600160a01b03166101ed565b60006104fe826120fa565b8061051957506001600160e01b03198216631671ba5960e11b145b92915050565b6060610529612140565b6004805460408051808201909152918252631253925560e21b6020830152908161056f5760405162461bcd60e51b815260040161056691906153f8565b60405180910390fd5b5060015460408051637ac46fbb60e01b815290516000926001600160a01b031691637ac46fbb916004808301926060929190829003018186803b1580156105b557600080fd5b505afa1580156105c9573d6000803e3d6000fd5b505050506040513d601f19601f820116820180604052508101906105ed919061557e565b805160208201516040516331a9108f60e11b81526004810186905292935090916000906001600160a01b03831690636352211e9060240160206040518083038186803b15801561063c57600080fd5b505afa158015610650573d6000803e3d6000fd5b505050506040513d601f19601f8201168201806040525081019061067491906155fa565b9050600061068383878461219a565b604051639bd0911b60e01b8152600060048201526001600160a01b039190911690639bd0911b9060240160206040518083038186803b1580156106c557600080fd5b505afa1580156106d9573d6000803e3d6000fd5b505050506040513d601f19601f820116820180604052508101906106fd91906155fa565b905087516001600160401b0381111561071857610718614ff1565b604051908082528060200260200182016040528015610741578160200160208202803683370190505b5096506001600160a01b03811630141561076057505050505050610988565b60005b88518110156109455761078989828151811061078157610781615617565b506000919050565b8061083b5750846001600160a01b03166363e85d2d8a83815181106107b0576107b0615617565b60209081029190910101516040516001600160e01b031960e084901b1681526001600160a01b0390911660048201526002602482015260440160206040518083038186803b15801561080157600080fd5b505afa158015610815573d6000803e3d6000fd5b505050506040513d601f19601f82011682018060405250810190610839919061563d565b155b1561084557610935565b600089828151811061085957610859615617565b60209081029190910101516040516370a0823160e01b81523060048201529091506001600160a01b038216906370a082319060240160206040518083038186803b1580156108a657600080fd5b505afa1580156108ba573d6000803e3d6000fd5b505050506040513d601f19601f820116820180604052508101906108de9190615658565b8983815181106108f0576108f0615617565b602002602001018181525050610933838a848151811061091257610912615617565b6020026020010151836001600160a01b031661226d9092919063ffffffff16565b505b61093e81615687565b9050610763565b507f9efcb26e0cf572bd9171640e114f387cef91cd3e38532ed6b3f80c7f2e758f87818989604051610979939291906156a2565b60405180910390a15050505050505b6109926001600055565b919050565b600080600160009054906101000a90046001600160a01b03166001600160a01b0316637ac46fbb6040518163ffffffff1660e01b815260040160606040518083038186803b1580156109e857600080fd5b505afa1580156109fc573d6000803e3d6000fd5b505050506040513d601f19601f82011682018060405250810190610a20919061557e565b60208101518151600454929350909180610a4957506001600160e01b0319935061051992505050565b60405163020604bf60e21b8152600481018290526000906001600160a01b0385169063081812fc9060240160206040518083038186803b158015610a8c57600080fd5b505afa158015610aa0573d6000803e3d6000fd5b505050506040513d601f19601f82011682018060405250810190610ac491906155fa565b6040516363e85d2d60e01b81526001600160a01b03808316600483015260066024830152919250908416906363e85d2d9060440160206040518083038186803b158015610b1057600080fd5b505afa158015610b24573d6000803e3d6000fd5b505050506040513d601f19601f82011682018060405250810190610b48919061563d565b610b6257506001600160e01b031994506105199350505050565b803b63ffffffff811615610c95576040516301ffc9a760e01b8152630b135d3f60e11b60048201526001600160a01b038316906301ffc9a79060240160206040518083038186803b158015610bb657600080fd5b505afa158015610bca573d6000803e3d6000fd5b505050506040513d601f19601f82011682018060405250810190610bee919061563d565b15610c7e57604051630b135d3f60e11b81526001600160a01b03831690631626ba7e90610c21908c908c906004016156e2565b60206040518083038186803b158015610c3957600080fd5b505afa158015610c4d573d6000803e3d6000fd5b505050506040513d601f19601f82011682018060405250810190610c7191906156fb565b9650505050505050610519565b506001600160e01b03199550610519945050505050565b816001600160a01b0316610ca98a8a6122d0565b6001600160a01b03161415610cce5750630b135d3f60e11b9550610519945050505050565b506001600160e01b031998975050505050505050565b6060610cee612140565b6004805460408051808201909152918252631253925560e21b60208301529081610d2b5760405162461bcd60e51b815260040161056691906153f8565b50610d353361234f565b6040518060400160405280600381526020016223292160e91b81525090610d6f5760405162461bcd60e51b815260040161056691906153f8565b5060015460408051637ac46fbb60e01b815290516000926001600160a01b031691637ac46fbb916004808301926060929190829003018186803b158015610db557600080fd5b505afa158015610dc9573d6000803e3d6000fd5b505050506040513d601f19601f82011682018060405250810190610ded919061557e565b602001516040516331a9108f60e11b8152600481018490529091506000906001600160a01b03831690636352211e9060240160206040518083038186803b158015610e3757600080fd5b505afa158015610e4b573d6000803e3d6000fd5b505050506040513d601f19601f82011682018060405250810190610e6f91906155fa565b90506000610e7e83858461219a565b90506001600160a01b03821633146110bb57604051639bd0911b60e01b8152600060048201819052906001600160a01b03831690639bd0911b9060240160206040518083038186803b158015610ed357600080fd5b505afa158015610ee7573d6000803e3d6000fd5b505050506040513d601f19601f82011682018060405250810190610f0b91906155fa565b90506001600160a01b0381163014156110665760405163fcdabd2760e01b81526001600160a01b038b8116600483015280841691639d9fd0d99187169063fcdabd279060240160206040518083038186803b158015610f6957600080fd5b505afa158015610f7d573d6000803e3d6000fd5b505050506040513d601f19601f82011682018060405250810190610fa19190615658565b6040518263ffffffff1660e01b8152600401610fbf91815260200190565b60206040518083038186803b158015610fd757600080fd5b505afa158015610feb573d6000803e3d6000fd5b505050506040513d601f19601f8201168201806040525081019061100f919061563d565b801561102457506001600160a01b038a163014155b6040518060400160405280600581526020016424a72b2a2960d91b815250906110605760405162461bcd60e51b815260040161056691906153f8565b506110b9565b896001600160a01b0316816001600160a01b0316146040518060400160405280600581526020016424a72b2a2960d91b815250906110b75760405162461bcd60e51b815260040161056691906153f8565b505b505b60006110c7898961250d565b905060006110d68b838a6125f9565b905061113d8a600280548060200260200160405190810160405280929190818152602001828054801561113257602002820191906000526020600020905b81546001600160a01b03168152600190910190602001808311611114575b505050505083612a21565b96507f54f9e6ef58e36de62f59f9ee6c4b878af84989c53a3642eba415ac3ac4e11cda8b88604051611170929190615718565b60405180910390a15050505050506111886001600055565b949350505050565b825160609060005b81811015611223578481815181106111b2576111b2615617565b60200260200101516000146112135761121387308784815181106111d8576111d8615617565b60200260200101518985815181106111f2576111f2615617565b60200260200101516001600160a01b0316612c42909392919063ffffffff16565b61121c81615687565b9050611198565b5061122f8585856115eb565b915060005b855181101561130d57600085828151811061125157611251615617565b602002602001015184838151811061126b5761126b615617565b60200260200101511061127f5760006112bd565b83828151811061129157611291615617565b60200260200101518683815181106112ab576112ab615617565b60200260200101516112bd919061573c565b905080156112fc576112fc88828985815181106112dc576112dc615617565b60200260200101516001600160a01b031661226d9092919063ffffffff16565b5061130681615687565b9050611234565b5050949350505050565b6060611321612140565b6004805460408051808201909152918252631253925560e21b602083015261135c5760405162461bcd60e51b815260040161056691906153f8565b506113663361234f565b6040518060400160405280600381526020016223292160e91b815250906113a05760405162461bcd60e51b815260040161056691906153f8565b5060015460408051637ac46fbb60e01b815290516000926001600160a01b031691637ac46fbb916004808301926060929190829003018186803b1580156113e657600080fd5b505afa1580156113fa573d6000803e3d6000fd5b505050506040513d601f19601f8201168201806040525081019061141e919061557e565b51604051631f4a58fb60e31b81526001600160a01b03888116600483015291925060009183169063fa52c7d89060240160206040518083038186803b15801561146657600080fd5b505afa15801561147a573d6000803e3d6000fd5b505050506040513d601f19601f8201168201806040525081019061149e91906155fa565b60408051808201909152600381526223292160e91b60208201529091506001600160a01b0382166114e25760405162461bcd60e51b815260040161056691906153f8565b50604051631796170d60e21b81526001600160a01b03821690635e585c34906115199033908b9034908c908c908c90600401615753565b60006040518083038186803b15801561153157600080fd5b505afa158015611545573d6000803e3d6000fd5b50505050600080886001600160a01b03163489898960405160200161156c939291906157b8565b60408051601f1981840301815290829052611586916157dc565b60006040518083038185875af1925050503d80600081146115c3576040519150601f19603f3d011682016040523d82523d6000602084013e6115c8565b606091505b5091509150816115db5780518082602001fd5b6001600055935061118892505050565b60606115f5612140565b6004805460408051808201909152918252631253925560e21b602083015290816116325760405162461bcd60e51b815260040161056691906153f8565b5060015460408051637ac46fbb60e01b815290516000926001600160a01b031691637ac46fbb916004808301926060929190829003018186803b15801561167857600080fd5b505afa15801561168c573d6000803e3d6000fd5b505050506040513d601f19601f820116820180604052508101906116b0919061557e565b602001516040516331a9108f60e11b8152600481018490529091506000906001600160a01b03831690636352211e9060240160206040518083038186803b1580156116fa57600080fd5b505afa15801561170e573d6000803e3d6000fd5b505050506040513d601f19601f8201168201806040525081019061173291906155fa565b60405163fcdabd2760e01b81526001600160a01b03808316600483015291925060009184169063fcdabd279060240160206040518083038186803b15801561177957600080fd5b505afa15801561178d573d6000803e3d6000fd5b505050506040513d601f19601f820116820180604052508101906117b19190615658565b604080518082019091526002815261272360f11b6020820152909150816117eb5760405162461bcd60e51b815260040161056691906153f8565b5060006117f8898961250d565b905060006118068289612c80565b905061186b8a6002805480602002602001604051908101604052809291908181526020018280548015611132576020028201919060005260206000209081546001600160a01b0316815260019091019060200180831161111457505050505083612a21565b96507f08e404e978692dd1b8275016b7a7b0b3ae4afd06b0cec7228060bb2da18c84fd8160405161189c9190615152565b60405180910390a15050505050506118b46001600055565b9392505050565b6060600280548060200260200160405190810160405280929190818152602001828054801561191357602002820191906000526020600020905b81546001600160a01b031681526001909101906020018083116118f5575b5050505050905090565b6119263361234f565b61192f57600080fd5b60408051808201909152600381526224a72b60e91b6020820152633b9aca0082101561196e5760405162461bcd60e51b815260040161056691906153f8565b506000611979612efe565b9250505081601081905550600061198e612efe565b5091505061199e81836000613034565b505050565b8051600114604051806040016040528060048152602001631253959360e21b815250906119e35760405162461bcd60e51b815260040161056691906153f8565b506119ee8183613773565b60015460405163dbb1c35f60e01b8152600481018490526000916001600160a01b03169063dbb1c35f906024016101006040518083038186803b158015611a3457600080fd5b505afa158015611a48573d6000803e3d6000fd5b505050506040513d601f19601f82011682018060405250810190611a6c91906157f8565b90506000600160009054906101000a90046001600160a01b03166001600160a01b031663d34cc3806040518163ffffffff1660e01b815260040160a06040518083038186803b158015611abe57600080fd5b505afa158015611ad2573d6000803e3d6000fd5b505050506040513d601f19601f82011682018060405250810190611af691906158b3565b8251600980546001600160a01b0319166001600160a01b0390921691909117905583519091508390600090611b2d57611b2d615617565b602090810291909101810151600a80546001600160a01b03199081166001600160a01b039384161790915584830151600b80548316918416919091179055604080860151600c8054909316908416179091556080850151600e5560a085015160105560608501518151630304b08760e61b81529151909360009385169263c12c21c09260048083019392829003018186803b158015611bcb57600080fd5b505afa158015611bdf573d6000803e3d6000fd5b505050506040513d601f19601f82011682018060405250810190611c0391906155fa565b600680546001600160a01b038086166001600160a01b031992831617909255600780548385169216919091179055600e54600a54600954939450611c4d9391929081169116613bfe565b60006005600081548110611c6357611c63615617565b600091825260208083209091015490860151604051636c8f225d60e01b815260048101839052306024820152604481019390935261ffff16606483015291506001600160a01b03841690636c8f225d90608401600060405180830381600087803b158015611cd057600080fd5b505af1158015611ce4573d6000803e3d6000fd5b5050604051633a562dc160e21b81523060048201526001600160a01b038516925063e958b704915060240160206040518083038186803b158015611d2757600080fd5b505afa158015611d3b573d6000803e3d6000fd5b505050506040513d601f19601f82011682018060405250810190611d5f91906155fa565b600880546001600160a01b0319166001600160a01b039290921691909117905550505050505050565b6060600580548060200260200160405190810160405280929190818152602001828054801561191357602002820191906000526020600020905b815481526020019060010190808311611dc2575050505050905090565b6006546008546040516363ef1c5360e11b81526001600160a01b039182166004820152606092839260009291169063c7de38a690602401604080518083038186803b158015611e2d57600080fd5b505afa158015611e41573d6000803e3d6000fd5b505050506040513d601f19601f82011682018060405250810190611e659190615948565b50600754600854604051630c64865760e21b81526001600160a01b039182166004820152929350600092911690633192195c9060240160606040518083038186803b158015611eb357600080fd5b505afa158015611ec7573d6000803e3d6000fd5b505050506040513d601f19601f82011682018060405250810190611eeb919061596c565b925060019150611ef89050565b604051908082528060200260200182016040528015611f21578160200160208202803683370190505b5093506000818310611f3a57611f37828461573c565b90505b60075460408051632630c12f60e01b815290516000926001600160a01b031691632630c12f916004808301926020929190829003018186803b158015611f7f57600080fd5b505afa158015611f93573d6000803e3d6000fd5b505050506040513d601f19601f82011682018060405250810190611fb791906155fa565b600954604051630f9a650360e41b8152600481018590526001600160a01b0391821660248201529192506000919083169063f9a650309060440160206040518083038186803b15801561200957600080fd5b505afa15801561201d573d6000803e3d6000fd5b505050506040513d601f19601f820116820180604052508101906120419190615658565b600a54604051631ebec04160e21b8152600481018390526001600160a01b03918216602482015291925060009190841690637afb01049060440160206040518083038186803b15801561209357600080fd5b505afa1580156120a7573d6000803e3d6000fd5b505050506040513d601f19601f820116820180604052508101906120cb9190615658565b905080886000815181106120e1576120e1615617565b6020026020010181815250508796505050505050509091565b600061210582613fad565b8061212057506001600160e01b03198216633d31d51d60e11b145b8061051957506001600160e01b03198216630b135d3f60e11b1492915050565b600260005414156121935760405162461bcd60e51b815260206004820152601f60248201527f5265656e7472616e637947756172643a207265656e7472616e742063616c6c006044820152606401610566565b6002600055565b60405163fcdabd2760e01b81526001600160a01b038281166004830152600091829186169063fcdabd279060240160206040518083038186803b1580156121e057600080fd5b505afa1580156121f4573d6000803e3d6000fd5b505050506040513d601f19601f820116820180604052508101906122189190615658565b9050831580159061222857508015155b604051806040016040528060048152602001631253925560e21b815250906122635760405162461bcd60e51b815260040161056691906153f8565b5091949350505050565b6040516001600160a01b03831660248201526044810182905261199e90849063a9059cbb60e01b906064015b60408051601f198184030181529190526020810180516001600160e01b03166001600160e01b031990931692909217909152613fe3565b6000806000806122df856140b5565b6040805160008152602081018083528b905260ff8316918101919091526060810184905260808101839052929550909350915060019060a0016020604051602081039080840390855afa15801561233a573d6000803e3d6000fd5b5050604051601f190151979650505050505050565b600080600160009054906101000a90046001600160a01b03166001600160a01b0316637ac46fbb6040518163ffffffff1660e01b815260040160606040518083038186803b1580156123a057600080fd5b505afa1580156123b4573d6000803e3d6000fd5b505050506040513d601f19601f820116820180604052508101906123d8919061557e565b60200151600454909150806123f1575060009392505050565b60405163020604bf60e21b8152600481018290526001600160a01b03808616919084169063081812fc9060240160206040518083038186803b15801561243657600080fd5b505afa15801561244a573d6000803e3d6000fd5b505050506040513d601f19601f8201168201806040525081019061246e91906155fa565b6001600160a01b0316148061118857506040516331a9108f60e11b8152600481018290526001600160a01b038086169190841690636352211e9060240160206040518083038186803b1580156124c357600080fd5b505afa1580156124d7573d6000803e3d6000fd5b505050506040513d601f19601f820116820180604052508101906124fb91906155fa565b6001600160a01b031614949350505050565b606061251883614119565b60405180604001604052806004815260200163494e564160e01b815250906125535760405162461bcd60e51b815260040161056691906153f8565b5081518351146040518060400160405280600381526020016224a72b60e91b815250906125935760405162461bcd60e51b815260040161056691906153f8565b506118b460028054806020026020016040519081016040528092919081815260200182805480156125ed57602002820191906000526020600020905b81546001600160a01b031681526001909101906020018083116125cf575b50505050508484612a21565b60608251600114604051806040016040528060048152602001631253959360e21b8152509061263b5760405162461bcd60e51b815260040161056691906153f8565b5060008360008151811061265157612651615617565b60209081029190910101516001546004805460405163dbb1c35f60e01b8152918201529192506000916001600160a01b039091169063dbb1c35f906024016101006040518083038186803b1580156126a857600080fd5b505afa1580156126bc573d6000803e3d6000fd5b505050506040513d601f19601f820116820180604052508101906126e091906157f8565b90506000806126ed612efe565b92505091506126fe82826001613034565b600a546009546001600160a01b0390811691161461288857604080516001808252818301909252600091816020015b60408051808201909152600081526060602082015281526020019060019003908161272d57505060408051808201825260e08701516001600160a01b039081168252600954600a54935194955091936020808601946363fdfa6f60e11b946127a294908116936101f49392909116910161599a565b60408051601f198184030181529190526127be426103846159c1565b60006040516024016127d2939291906159d9565b60408051601f198184030181529190526020810180516001600160e01b03166001600160e01b03199093169290921790915290528151829060009061281957612819615617565b602090810291909101015260065460405163caa5c23f60e01b81526001600160a01b039091169063caa5c23f90612854908490600401615a77565b600060405180830381600087803b15801561286e57600080fd5b505af1158015612882573d6000803e3d6000fd5b50505050505b60408051600080825260208201909252816128c6565b60408051808201909152600081526060602082015281526020019060019003908161289e5790505b506006546040516317dcfefb60e21b81529192506001600160a01b031690635f73fbec906128ff90309060009081908790600401615a8a565b600060405180830381600087803b15801561291957600080fd5b505af115801561292d573d6000803e3d6000fd5b5050600a546040516370a0823160e01b8152306004820152600093506001600160a01b0390911691506370a082319060240160206040518083038186803b15801561297757600080fd5b505afa15801561298b573d6000803e3d6000fd5b505050506040513d601f19601f820116820180604052508101906129af9190615658565b9050808611156129bd578095505b600a546129d4906001600160a01b03168b8861226d565b60408051600180825281830190925290602080830190803683370190505096508587600081518110612a0857612a08615617565b6020026020010181815250505050505050509392505050565b6060600084516001600160401b03811115612a3e57612a3e614ff1565b604051908082528060200260200182016040528015612a67578160200160208202803683370190505b5090506000805b865182108015612a7e5750855181105b15612bfd57858181518110612a9557612a95615617565b60200260200101516001600160a01b0316878381518110612ab857612ab8615617565b60200260200101516001600160a01b03161015612b00576000838381518110612ae357612ae3615617565b602090810291909101015281612af881615687565b925050612a6e565b858181518110612b1257612b12615617565b60200260200101516001600160a01b0316878381518110612b3557612b35615617565b60200260200101516001600160a01b03161115612bae57848181518110612b5e57612b5e615617565b602002602001015160001415612b805780612b7881615687565b915050612a6e565b60405162461bcd60e51b815260206004820152600360248201526254505360e81b6044820152606401610566565b848181518110612bc057612bc0615617565b6020026020010151838381518110612bda57612bda615617565b602090810291909101015281612bef81615687565b9250508080612b7890615687565b8651821015612c37576000838381518110612c1a57612c1a615617565b602090810291909101015281612c2f81615687565b925050612bfd565b509095945050505050565b6040516001600160a01b0380851660248301528316604482015260648101829052612c7a9085906323b872dd60e01b90608401612299565b50505050565b60608251600114604051806040016040528060048152602001631253959360e21b81525090612cc25760405162461bcd60e51b815260040161056691906153f8565b50600083600081518110612cd857612cd8615617565b602002602001015190508060001415612d1157604080516001808252818301909252906020808301908036833701905050915050610519565b600654600a546001600160a01b03918216911681612d308282866141bc565b604080516001808252818301909252600091816020015b604080518082019091526000815260606020820152815260200190600190039081612d475750506040805180820182526001600160a01b0387811682528251306024820152908716604482015260648082018a9052835180830390910181526084909101909252602082810180516001600160e01b031663165e040d60e21b1790528101919091528151919250908290600090612de657612de6615617565b602090810291909101015260405163caa5c23f60e01b81526001600160a01b0385169063caa5c23f90612e1d908490600401615a77565b600060405180830381600087803b158015612e3757600080fd5b505af1158015612e4b573d6000803e3d6000fd5b505060405163095ea7b360e01b81526001600160a01b038581166004830152600060248301528616925063095ea7b39150604401602060405180830381600087803b158015612e9957600080fd5b505af1158015612ead573d6000803e3d6000fd5b505050506040513d601f19601f82011682018060405250810190612ed1919061563d565b50879550600080612ee0612efe565b9250925050612ef182826000613034565b5050505050505092915050565b6006546008546040516363ef1c5360e11b81526001600160a01b0391821660048201526000928392839291169063c7de38a690602401604080518083038186803b158015612f4b57600080fd5b505afa158015612f5f573d6000803e3d6000fd5b505050506040513d601f19601f82011682018060405250810190612f839190615948565b50600754600854604051630c64865760e21b81526001600160a01b039182166004820152929350600092911690633192195c9060240160606040518083038186803b158015612fd157600080fd5b505afa158015612fe5573d6000803e3d6000fd5b505050506040513d601f19601f82011682018060405250810190613009919061596c565b925050508082613019919061573c565b935061302c84601054633b9aca0061427d565b925050909192565b6006546001600160a01b031661304984614330565b6009546008546040516370a0823160e01b81526001600160a01b03918216600482015260009291909116906370a082319060240160206040518083038186803b15801561309557600080fd5b505afa1580156130a9573d6000803e3d6000fd5b505050506040513d601f19601f820116820180604052508101906130cd9190615658565b905083851061333b5760006130e2858761573c565b6040805160038082526080820190925291925060009190816020015b6040805180820190915260008152606060208201528152602001906001900390816130fe5790505090506040518060400160405280856001600160a01b03168152602001632b7c7b1160e01b8460405160240161315d91815260200190565b60408051601f198184030181529190526020810180516001600160e01b03166001600160e01b0319909316929092179091529052815182906000906131a4576131a4615617565b60209081029190910181019190915260408051808201909152600b546001600160a01b03168152908101630cf023dd60e41b6131e086866159c1565b600d546040516024810192909252600f0b60448201526000606482015260840160408051601f198184030181529190526020810180516001600160e01b03166001600160e01b031990931692909217909152905281518290600190811061324957613249615617565b602090810291909101810191909152604080518082018252600c546001600160a01b03168152600e5482516024810191909152600160448083019190915283518083039091018152606490910190925281830180516001600160e01b031663303acfe760e11b179052918201528151829060029081106132cb576132cb615617565b602090810291909101015260405163caa5c23f60e01b81526001600160a01b0385169063caa5c23f90613302908490600401615a77565b600060405180830381600087803b15801561331c57600080fd5b505af1158015613330573d6000803e3d6000fd5b50505050505061376c565b6000613347868661573c565b9050808210806133545750835b156133e35761336161475a565b6009546008546040516370a0823160e01b81526001600160a01b0391821660048201529116906370a082319060240160206040518083038186803b1580156133a857600080fd5b505afa1580156133bc573d6000803e3d6000fd5b505050506040513d601f19601f820116820180604052508101906133e09190615658565b91505b8082101580156133f1575083155b1561352257604080516001808252818301909252600091816020015b60408051808201909152600081526060602082015281526020019060019003908161340d5790505090506040518060400160405280856001600160a01b03168152602001632a7ba1f760e01b8460405160240161346c91815260200190565b60408051601f198184030181529190526020810180516001600160e01b03166001600160e01b0319909316929092179091529052815182906000906134b3576134b3615617565b602090810291909101015260405163caa5c23f60e01b81526001600160a01b0385169063caa5c23f906134ea908490600401615a77565b600060405180830381600087803b15801561350457600080fd5b505af1158015613518573d6000803e3d6000fd5b505050505061376a565b6000613537613531848461573c565b86614be3565b6040805160038082526080820190925291925060009190816020015b604080518082019091526000815260606020820152815260200190600190039081613553575050604080518082018252600c546001600160a01b03168152600e54825160248101919091526044808201879052835180830390910181526064909101909252602082810180516001600160e01b0316630441a3e760e41b17905281019190915281519192509082906000906135f0576135f0615617565b602090810291909101810191909152604080518082018252600b546001600160a01b03168152600d548251600f9190910b6024820152600060448083019190915283518083039091018152606490910190925281830180516001600160e01b03166319e975f960e11b1790529182015281518290600190811061367557613675615617565b60200260200101819052506040518060400160405280866001600160a01b03168152602001632a7ba1f760e01b856040516024016136b591815260200190565b60408051601f198184030181529190526020810180516001600160e01b03166001600160e01b03199093169290921790915290528151829060029081106136fe576136fe615617565b602090810291909101015260405163caa5c23f60e01b81526001600160a01b0386169063caa5c23f90613735908490600401615a77565b600060405180830381600087803b15801561374f57600080fd5b505af1158015613763573d6000803e3d6000fd5b5050505050505b505b5050505050565b6004805460408051808201909152918252631253925560e21b6020830152156137af5760405162461bcd60e51b815260040161056691906153f8565b506137b982614119565b60405180604001604052806004815260200163494e564160e01b815250906137f45760405162461bcd60e51b815260040161056691906153f8565b506040805180820190915260028152612b2d60f11b60208201528161382c5760405162461bcd60e51b815260040161056691906153f8565b506000336001600160a01b0316637ac46fbb6040518163ffffffff1660e01b815260040160606040518083038186803b15801561386857600080fd5b505afa15801561387c573d6000803e3d6000fd5b505050506040513d601f19601f820116820180604052508101906138a0919061557e565b518351909150158015906139255750806001600160a01b03166378546fa26040518163ffffffff1660e01b815260040160206040518083038186803b1580156138e857600080fd5b505afa1580156138fc573d6000803e3d6000fd5b505050506040513d601f19601f820116820180604052508101906139209190615658565b835111155b6040518060400160405280600381526020016224a72b60e91b8152509061395f5760405162461bcd60e51b815260040161056691906153f8565b5060005b8351811015613a6357816001600160a01b03166363e85d2d85838151811061398d5761398d615617565b60209081029190910101516040516001600160e01b031960e084901b1681526001600160a01b0390911660048201526003602482015260440160206040518083038186803b1580156139de57600080fd5b505afa1580156139f2573d6000803e3d6000fd5b505050506040513d601f19601f82011682018060405250810190613a16919061563d565b6040518060400160405280600381526020016223292160e91b81525090613a505760405162461bcd60e51b815260040161056691906153f8565b5080613a5b81615687565b915050613963565b50600180546001600160a01b031916331790558251613a89906002906020860190614f41565b50600482905560025460005b81811015613bb957613aa88160016159c1565b60036000878481518110613abe57613abe615617565b60200260200101516001600160a01b03166001600160a01b03168152602001908152602001600020819055506000858281518110613afe57613afe615617565b6020026020010151905060056002826001600160a01b031663313ce5676040518163ffffffff1660e01b815260040160206040518083038186803b158015613b4557600080fd5b505afa158015613b59573d6000803e3d6000fd5b505050506040513d601f19601f82011682018060405250810190613b7d9190615ab9565b613b879190615adc565b613b9290600a615bf0565b8154600181018355600092835260209092209091015550613bb281615687565b9050613a95565b50604051339032907f0f043e55a1ce0d7ce25125ccbc2800b540d83e21abf7250f0156c2091a28b22190613bf09088908890615bff565b60405180910390a350505050565b600654600b54600c5460405163f9eaee0d60e01b81526001600160a01b038581166004830152938416939283169290911690839063f9eaee0d9060240160206040518083038186803b158015613c5357600080fd5b505afa158015613c67573d6000803e3d6000fd5b505050506040513d601f19601f82011682018060405250810190613c8b919061563d565b60405180604001604052806005815260200164494e56544f60d81b81525090613cc75760405162461bcd60e51b815260040161056691906153f8565b50604051636348484560e11b81526001600160a01b03868116600483015284169063c690908a90602401600060405180830381600087803b158015613d0b57600080fd5b505af1158015613d1f573d6000803e3d6000fd5b505050506000805b6004811015613e0a5760405163c661065760e01b8152600481018290526000906001600160a01b0386169063c66106579060240160206040518083038186803b158015613d7357600080fd5b505afa158015613d87573d6000803e3d6000fd5b505050506040513d601f19601f82011682018060405250810190613dab91906155fa565b9050866001600160a01b0316816001600160a01b03161415613df957600d80546fffffffffffffffffffffffffffffffff19166fffffffffffffffffffffffffffffffff8416179055600192505b50613e0381615687565b9050613d27565b50604080518082019091526005815264494e56544f60d81b602082015281613e455760405162461bcd60e51b815260040161056691906153f8565b506000836001600160a01b03166382c630666040518163ffffffff1660e01b815260040160206040518083038186803b158015613e8157600080fd5b505afa158015613e95573d6000803e3d6000fd5b505050506040513d601f19601f82011682018060405250810190613eb991906155fa565b604051631526fe2760e01b8152600481018a90529091506000906001600160a01b03851690631526fe279060240160c06040518083038186803b158015613eff57600080fd5b505afa158015613f13573d6000803e3d6000fd5b505050506040513d601f19601f82011682018060405250810190613f379190615c21565b602081810151600f80546001600160a01b0319166001600160a01b03928316179055825160408051808201909152600581526424a72b2a2960d91b938101939093529293509091811690841614613fa15760405162461bcd60e51b815260040161056691906153f8565b50505050505050505050565b60006301ffc9a760e01b6001600160e01b03198316148061051957506001600160e01b0319821663305a640b60e21b1492915050565b6000614038826040518060400160405280602081526020017f5361666545524332303a206c6f772d6c6576656c2063616c6c206661696c6564815250856001600160a01b0316614e319092919063ffffffff16565b80519091501561199e5780806020019051810190614056919061563d565b61199e5760405162461bcd60e51b815260206004820152602a60248201527f5361666545524332303a204552433230206f7065726174696f6e20646964206e6044820152691bdd081cdd58d8d9595960b21b6064820152608401610566565b60008060008351604114604051806040016040528060048152602001631253959360e21b815250906140fa5760405162461bcd60e51b815260040161056691906153f8565b5050505060208101516040820151606090920151909260009190911a90565b600060028251101561412d57506001919050565b60005b6001835161413e919061573c565b8110156141b357826141518260016159c1565b8151811061416157614161615617565b60200260200101516001600160a01b031683828151811061418457614184615617565b60200260200101516001600160a01b0316106141a35750600092915050565b6141ac81615687565b9050614130565b50600192915050565b604051636eb1769f60e11b81523060048201526001600160a01b038381166024830152600091839186169063dd62ed3e9060440160206040518083038186803b15801561420857600080fd5b505afa15801561421c573d6000803e3d6000fd5b505050506040513d601f19601f820116820180604052508101906142409190615658565b61424a91906159c1565b6040516001600160a01b038516602482015260448101829052909150612c7a90859063095ea7b360e01b90606401612299565b6000808060001985870985870292508281108382030391505080600014156142b757600084116142ac57600080fd5b5082900490506118b4565b8084116142c357600080fd5b6000848688096000868103871696879004966002600389028118808a02820302808a02820302808a02820302808a02820302808a02820302808a02909103029181900381900460010186841190950394909402919094039290920491909117919091029150509392505050565b600954600a546001600160a01b039081169116141561434c5750565b6001546004805460405163dbb1c35f60e01b8152918201526000916001600160a01b03169063dbb1c35f906024016101006040518083038186803b15801561439357600080fd5b505afa1580156143a7573d6000803e3d6000fd5b505050506040513d601f19601f820116820180604052508101906143cb91906157f8565b600a546008546040516370a0823160e01b81526001600160a01b0391821660048201529293506000929116906370a082319060240160206040518083038186803b15801561441857600080fd5b505afa15801561442c573d6000803e3d6000fd5b505050506040513d601f19601f820116820180604052508101906144509190615658565b90506000600760009054906101000a90046001600160a01b03166001600160a01b0316632630c12f6040518163ffffffff1660e01b815260040160206040518083038186803b1580156144a257600080fd5b505afa1580156144b6573d6000803e3d6000fd5b505050506040513d601f19601f820116820180604052508101906144da91906155fa565b600a54604051630f9a650360e41b8152600481018590526001600160a01b0391821660248201529192506000919083169063f9a650309060440160206040518083038186803b15801561452c57600080fd5b505afa158015614540573d6000803e3d6000fd5b505050506040513d601f19601f820116820180604052508101906145649190615658565b600954604051631ebec04160e21b8152600481018390526001600160a01b03918216602482015291925060009190841690637afb01049060440160206040518083038186803b1580156145b657600080fd5b505afa1580156145ca573d6000803e3d6000fd5b505050506040513d601f19601f820116820180604052508101906145ee9190615658565b90508581111561376a57600061460e85614608898561573c565b8461427d565b604080516000808252602082019092529192509081614650565b6040805180820190915260008152606060208201528152602001906001900390816146285790505b5060408051808201825260e08a01516001600160a01b039081168252600854600a546009549451959650929460208087019563414bf38960e01b95938516946146a5948116936101f49392909116910161599a565b60408051601f198184030181529190526146c1426103846159c1565b8760006040516024016146d8959493929190615cc9565b60408051601f198184030181529190526020810180516001600160e01b03166001600160e01b03199093169290921790915290528151829060009061471f5761471f615617565b602090810291909101015260065460405163caa5c23f60e01b81526001600160a01b039091169063caa5c23f90613735908490600401615a77565b6001546004805460405163dbb1c35f60e01b8152918201526000916001600160a01b03169063dbb1c35f906024016101006040518083038186803b1580156147a157600080fd5b505afa1580156147b5573d6000803e3d6000fd5b505050506040513d601f19601f820116820180604052508101906147d991906157f8565b90506000600160009054906101000a90046001600160a01b03166001600160a01b031663d34cc3806040518163ffffffff1660e01b815260040160a06040518083038186803b15801561482b57600080fd5b505afa15801561483f573d6000803e3d6000fd5b505050506040513d601f19601f8201168201806040525081019061486391906158b3565b60408051600480825260a0820190925291925060009190816020015b60408051808201909152600081526060602082015281526020019060019003908161487f57505060408051808201808352600c546367dce7dd60e11b90915291519293509182916001600160a01b03169063cfb9cfba90604480850191602091818703018186803b1580156148f357600080fd5b505afa158015614907573d6000803e3d6000fd5b505050506040513d601f19601f8201168201806040525081019061492b91906155fa565b6001600160a01b0390811682526008546040805191909216602482015260006044808301829052835180840390910181526064909201909252602081810180516001600160e01b0316637050ccd960e01b17905290920191909152825183919061499757614997615617565b602090810291909101810191909152604080518082018252848201516001600160a01b03168152815160006024820181905260016044830181905260648084019290925284518084039092018252608490920190935282840180516001600160e01b0316630f7c084960e21b179052928101919091528251909183918110614a2157614a21615617565b60209081029190910181019190915260408051808201825260608501516001600160a01b0316815281516000602482018190526001604483015260648083019190915283518083039091018152608490910190925281830180516001600160e01b0316630f7c084960e21b17905291820152815182906002908110614aa857614aa8615617565b602002602001018190525060405180604001604052808460c001516001600160a01b0316815260200163c7fbf4de60e01b84608001516101f48760000151604051602001614af89392919061599a565b60408051601f19818403018152919052614b14426103846159c1565b6000604051602401614b28939291906159d9565b60408051601f198184030181529190526020810180516001600160e01b03166001600160e01b0319909316929092179091529052815182906003908110614b7157614b71615617565b602090810291909101015260065460405163caa5c23f60e01b81526001600160a01b039091169063caa5c23f90614bac908490600401615a77565b600060405180830381600087803b158015614bc657600080fd5b505af1158015614bda573d6000803e3d6000fd5b50505050505050565b600f546008546040516370a0823160e01b81526001600160a01b039182166004820152600092839216906370a082319060240160206040518083038186803b158015614c2e57600080fd5b505afa158015614c42573d6000803e3d6000fd5b505050506040513d601f19601f82011682018060405250810190614c669190615658565b90508215614c75579050610519565b60075460408051632630c12f60e01b815290516000926001600160a01b031691632630c12f916004808301926020929190829003018186803b158015614cba57600080fd5b505afa158015614cce573d6000803e3d6000fd5b505050506040513d601f19601f82011682018060405250810190614cf291906155fa565b600f54604051630f9a650360e41b8152600481018590526001600160a01b0391821660248201529192506000919083169063f9a650309060440160206040518083038186803b158015614d4457600080fd5b505afa158015614d58573d6000803e3d6000fd5b505050506040513d601f19601f82011682018060405250810190614d7c9190615658565b600954604051631ebec04160e21b8152600481018390526001600160a01b03918216602482015291925060009190841690637afb01049060440160206040518083038186803b158015614dce57600080fd5b505afa158015614de2573d6000803e3d6000fd5b505050506040513d601f19601f82011682018060405250810190614e069190615658565b9050808710614e1b5783945050505050610519565b614e2684888361427d565b979650505050505050565b6060611188848460008585600080866001600160a01b03168587604051614e5891906157dc565b60006040518083038185875af1925050503d8060008114614e95576040519150601f19603f3d011682016040523d82523d6000602084013e614e9a565b606091505b5091509150614e268783838760608315614f12578251614f0b576001600160a01b0385163b614f0b5760405162461bcd60e51b815260206004820152601d60248201527f416464726573733a2063616c6c20746f206e6f6e2d636f6e74726163740000006044820152606401610566565b5081611188565b6111888383815115614f275781518083602001fd5b8060405162461bcd60e51b815260040161056691906153f8565b828054828255906000526020600020908101928215614f96579160200282015b82811115614f9657825182546001600160a01b0319166001600160a01b03909116178255602090920191600190910190614f61565b50614fa2929150614fa6565b5090565b5b80821115614fa25760008155600101614fa7565b6001600160e01b031981168114614fd157600080fd5b50565b600060208284031215614fe657600080fd5b81356118b481614fbb565b634e487b7160e01b600052604160045260246000fd5b604051601f8201601f191681016001600160401b038111828210171561502f5761502f614ff1565b604052919050565b60006001600160401b0382111561505057615050614ff1565b5060051b60200190565b6001600160a01b0381168114614fd157600080fd5b600082601f83011261508057600080fd5b8135602061509561509083615037565b615007565b82815260059290921b840181019181810190868411156150b457600080fd5b8286015b848110156150d85780356150cb8161505a565b83529183019183016150b8565b509695505050505050565b6000602082840312156150f557600080fd5b81356001600160401b0381111561510b57600080fd5b6111888482850161506f565b600081518084526020808501945080840160005b838110156151475781518752958201959082019060010161512b565b509495945050505050565b6020815260006118b46020830184615117565b600082601f83011261517657600080fd5b81356001600160401b0381111561518f5761518f614ff1565b6151a2601f8201601f1916602001615007565b8181528460208386010111156151b757600080fd5b816020850160208301376000918101602001919091529392505050565b600080604083850312156151e757600080fd5b8235915060208301356001600160401b0381111561520457600080fd5b61521085828601615165565b9150509250929050565b600082601f83011261522b57600080fd5b8135602061523b61509083615037565b82815260059290921b8401810191818101908684111561525a57600080fd5b8286015b848110156150d8578035835291830191830161525e565b6000806000806080858703121561528b57600080fd5b84356152968161505a565b935060208501356001600160401b03808211156152b257600080fd5b6152be8883890161506f565b945060408701359150808211156152d457600080fd5b6152e08883890161521a565b935060608701359150808211156152f657600080fd5b5061530387828801615165565b91505092959194509250565b6000806000806060858703121561532557600080fd5b84356153308161505a565b9350602085013561534081614fbb565b925060408501356001600160401b038082111561535c57600080fd5b818701915087601f83011261537057600080fd5b81358181111561537f57600080fd5b88602082850101111561539157600080fd5b95989497505060200194505050565b60005b838110156153bb5781810151838201526020016153a3565b83811115612c7a5750506000910152565b600081518084526153e48160208601602086016153a0565b601f01601f19169290920160200192915050565b6020815260006118b460208301846153cc565b60006020828403121561541d57600080fd5b81356118b48161505a565b60008060006060848603121561543d57600080fd5b83356001600160401b038082111561545457600080fd5b6154608783880161506f565b9450602086013591508082111561547657600080fd5b6154828783880161521a565b9350604086013591508082111561549857600080fd5b506154a586828701615165565b9150509250925092565b600081518084526020808501945080840160005b838110156151475781516001600160a01b0316875295820195908201906001016154c3565b6020815260006118b460208301846154af565b60006020828403121561550d57600080fd5b5035919050565b6000806040838503121561552757600080fd5b8235915060208301356001600160401b0381111561554457600080fd5b6152108582860161506f565b6040815260006155636040830185615117565b82810360208401526155758185615117565b95945050505050565b60006060828403121561559057600080fd5b604051606081018181106001600160401b03821117156155b2576155b2614ff1565b60405282516155c08161505a565b815260208301516155d08161505a565b602082015260408301516155e38161505a565b60408201529392505050565b80516109928161505a565b60006020828403121561560c57600080fd5b81516118b48161505a565b634e487b7160e01b600052603260045260246000fd5b8051801515811461099257600080fd5b60006020828403121561564f57600080fd5b6118b48261562d565b60006020828403121561566a57600080fd5b5051919050565b634e487b7160e01b600052601160045260246000fd5b600060001982141561569b5761569b615671565b5060010190565b6001600160a01b03841681526060602082018190526000906156c6908301856154af565b82810360408401526156d88185615117565b9695505050505050565b82815260406020820152600061118860408301846153cc565b60006020828403121561570d57600080fd5b81516118b481614fbb565b6001600160a01b038316815260406020820181905260009061118890830184615117565b60008282101561574e5761574e615671565b500390565b6001600160a01b03878116825286166020820152604081018590526001600160e01b03198416606082015260a06080820181905281018290526000828460c0840137600060c0848401015260c0601f19601f8501168301019050979650505050505050565b6001600160e01b031984168152818360048301376000910160040190815292915050565b600082516157ee8184602087016153a0565b9190910192915050565b600061010080838503121561580c57600080fd5b604051908101906001600160401b038211818310171561582e5761582e614ff1565b816040528351915061583f8261505a565b81815261584e602085016155ef565b602082015261585f604085016155ef565b6040820152615870606085016155ef565b60608201526080840151608082015260a084015160a082015261589560c085016155ef565b60c08201526158a660e085016155ef565b60e0820152949350505050565b600060a082840312156158c557600080fd5b60405160a081018181106001600160401b03821117156158e7576158e7614ff1565b60405282518152602083015161ffff8116811461590357600080fd5b602082015260408301516159168161505a565b604082015260608301516159298161505a565b6060820152608083015161593c8161505a565b60808201529392505050565b6000806040838503121561595b57600080fd5b505080516020909101519092909150565b60008060006060848603121561598157600080fd5b8351925060208401519150604084015190509250925092565b6001600160a01b03938416815261ffff929092166020830152909116604082015260600190565b600082198211156159d4576159d4615671565b500190565b6060815260006159ec60608301866153cc565b905083602083015260ff83166040830152949350505050565b600081518084526020808501808196508360051b8101915082860160005b85811015615a6a578284038952815180516001600160a01b031685528501516040868601819052615a56818701836153cc565b9a87019a9550505090840190600101615a23565b5091979650505050505050565b6020815260006118b46020830184615a05565b60018060a01b038516815283602082015282151560408201526080606082015260006156d86080830184615a05565b600060208284031215615acb57600080fd5b815160ff811681146118b457600080fd5b600060ff831680615afd57634e487b7160e01b600052601260045260246000fd5b8060ff84160491505092915050565b600181815b80851115615b47578160001904821115615b2d57615b2d615671565b80851615615b3a57918102915b93841c9390800290615b11565b509250929050565b600082615b5e57506001610519565b81615b6b57506000610519565b8160018114615b815760028114615b8b57615ba7565b6001915050610519565b60ff841115615b9c57615b9c615671565b50506001821b610519565b5060208310610133831016604e8410600b8410161715615bca575081810a610519565b615bd48383615b0c565b8060001904821115615be857615be8615671565b029392505050565b60006118b460ff841683615b4f565b604081526000615c1260408301856154af565b90508260208301529392505050565b600060c08284031215615c3357600080fd5b60405160c081018181106001600160401b0382111715615c5557615c55614ff1565b6040528251615c638161505a565b81526020830151615c738161505a565b60208201526040830151615c868161505a565b60408201526060830151615c998161505a565b60608201526080830151615cac8161505a565b6080820152615cbd60a0840161562d565b60a08201529392505050565b6001600160a01b038616815260a060208201819052600090615ced908301876153cc565b604083019590955250606081019290925260ff166080909101529291505056fea2646970667358221220e64bca778725530e2070c931bb726baca00c6f49347fb4a9411623108baa101164736f6c63430008090033",
    "linkReferences": {}
  },
  "methodIdentifiers": {
    "DENOMINATOR()": "918f8674",
    "GET_REWARD_SELECTOR()": "9ddf60e8",
    "convexAdapter()": "7a24fa03",
    "creditAccount()": "6d0a1218",
    "curveAdapter()": "1497761e",
    "depositToken()": "c89039c5",
    "externalCall(address,bytes4,bytes)": "2e2f4cc2",
    "initialize(uint256,address[])": "a920b78c",
    "initialized()": "158ef93e",
    "isValidSignature(bytes32,bytes)": "1626ba7e",
    "isVaultToken(address)": "338c4ccb",
    "lastOrderTimestamp(address)": "fbea92d7",
    "lpTokensToWithdrawOrder(address)": "f6b74247",
    "nft()": "47ccca02",
    "primaryToken()": "91ac094c",
    "pull(address,address[],uint256[],bytes)": "2062d754",
    "pullExistentials()": "d2c219b0",
    "push(address[],uint256[],bytes)": "566ca6b4",
    "reclaimTokens(address[])": "05e1c942",
    "supportsInterface(bytes4)": "01ffc9a7",
    "transferAndPush(address,address[],uint256[],bytes)": "27a35e5a",
    "tvl()": "e5328e06",
    "updateTargetMarginalFactor(uint256)": "85c3c33e",
    "vaultGovernance()": "fe255a5e",
    "vaultTokens()": "69722233"
  },
  "id": 82
}