{
  "abi": [
    {
      "inputs": [
        {
          "internalType": "address",
          "name": "cowswap_",
          "type": "address"
        }
      ],
      "stateMutability": "nonpayable",
      "type": "constructor"
    },
    {
      "inputs": [
        {
          "components": [
            {
              "internalType": "contract IERC20",
              "name": "sellToken",
              "type": "address"
            },
            {
              "internalType": "contract IERC20",
              "name": "buyToken",
              "type": "address"
            },
            {
              "internalType": "address",
              "name": "receiver",
              "type": "address"
            },
            {
              "internalType": "uint256",
              "name": "sellAmount",
              "type": "uint256"
            },
            {
              "internalType": "uint256",
              "name": "buyAmount",
              "type": "uint256"
            },
            {
              "internalType": "uint32",
              "name": "validTo",
              "type": "uint32"
            },
            {
              "internalType": "bytes32",
              "name": "appData",
              "type": "bytes32"
            },
            {
              "internalType": "uint256",
              "name": "feeAmount",
              "type": "uint256"
            },
            {
              "internalType": "bytes32",
              "name": "kind",
              "type": "bytes32"
            },
            {
              "internalType": "bool",
              "name": "partiallyFillable",
              "type": "bool"
            },
            {
              "internalType": "bytes32",
              "name": "sellTokenBalance",
              "type": "bytes32"
            },
            {
              "internalType": "bytes32",
              "name": "buyTokenBalance",
              "type": "bytes32"
            }
          ],
          "internalType": "struct GPv2Order.Data",
          "name": "order",
          "type": "tuple"
        },
        {
          "internalType": "bytes",
          "name": "uuid",
          "type": "bytes"
        },
        {
          "internalType": "address",
          "name": "tokenIn",
          "type": "address"
        },
        {
          "internalType": "address",
          "name": "tokenOut",
          "type": "address"
        },
        {
          "internalType": "uint256",
          "name": "amountIn",
          "type": "uint256"
        },
        {
          "internalType": "uint256",
          "name": "minAmountOut",
          "type": "uint256"
        },
        {
          "internalType": "uint256",
          "name": "deadline",
          "type": "uint256"
        },
        {
          "internalType": "address",
          "name": "erc20Vault",
          "type": "address"
        },
        {
          "internalType": "uint256",
          "name": "fee",
          "type": "uint256"
        }
      ],
      "name": "checkOrder",
      "outputs": [],
      "stateMutability": "view",
      "type": "function"
    },
    {
      "inputs": [],
      "name": "cowswap",
      "outputs": [
        {
          "internalType": "address",
          "name": "",
          "type": "address"
        }
      ],
      "stateMutability": "view",
      "type": "function"
    },
    {
      "inputs": [
        {
          "internalType": "uint256",
          "name": "priceX96",
          "type": "uint256"
        }
      ],
      "name": "tickFromPriceX96",
      "outputs": [
        {
          "internalType": "int24",
          "name": "",
          "type": "int24"
        }
      ],
      "stateMutability": "pure",
      "type": "function"
    }
  ],
  "bytecode": {
    "object": "0x60a060405234801561001057600080fd5b5060405161145a38038061145a83398101604081905261002f91610040565b6001600160a01b0316608052610070565b60006020828403121561005257600080fd5b81516001600160a01b038116811461006957600080fd5b9392505050565b6080516113c961009160003960008181604b015261011d01526113c96000f3fe608060405234801561001057600080fd5b50600436106100415760003560e01c80632264d39d14610046578063521dc0561461008a578063c68079281461009f575b600080fd5b61006d7f000000000000000000000000000000000000000000000000000000000000000081565b6040516001600160a01b0390911681526020015b60405180910390f35b61009d610098366004610fc6565b6100c5565b005b6100b26100ad366004611125565b610590565b60405160029190910b8152602001610081565b604080518082019091526002815261545360f01b6020820152428410156101085760405162461bcd60e51b81526004016100ff919061113e565b60405180910390fd5b5060006101158a8a6105ae565b5050905060007f00000000000000000000000000000000000000000000000000000000000000006001600160a01b031663f698da256040518163ffffffff1660e01b815260040160206040518083038186803b15801561017457600080fd5b505afa158015610188573d6000803e3d6000fd5b505050506040513d601f19601f820116820180604052508101906101ac9190611193565b905060006102068d83601f1990910180517fd5a25ba2e97094ad7d83dc28a6572da797d6b3e7fc6663bd93efb789fc17e48982526101a08220915260405161190160f01b8152600281019290925260228201526042902090565b905082811460405180604001604052806004815260200163494e564160e01b815250906102465760405162461bcd60e51b81526004016100ff919061113e565b50896001600160a01b03168d600001516001600160a01b03161460405180604001604052806005815260200164494e56544f60d81b8152509061029c5760405162461bcd60e51b81526004016100ff919061113e565b50886001600160a01b03168d602001516001600160a01b03161460405180604001604052806005815260200164494e56544f60d81b815250906102f25760405162461bcd60e51b81526004016100ff919061113e565b50878d60600151146040518060400160405280600381526020016224a72b60e91b815250906103345760405162461bcd60e51b81526004016100ff919061113e565b50868d608001511015604051806040016040528060048152602001634c494d5560e01b815250906103785760405162461bcd60e51b81526004016100ff919061113e565b50858d60a0015163ffffffff16111560405180604001604052806002815260200161545360f01b815250906103c05760405162461bcd60e51b81526004016100ff919061113e565b50846001600160a01b03168d604001516001600160a01b0316146040518060400160405280600381526020016223292160e91b815250906104145760405162461bcd60e51b81526004016100ff919061113e565b507ff3b277728b3fee749481eb3e0b3b48980dbbab78658fc419025cb16eee3467758d6101000151146040518060400160405280600381526020016224a72b60e91b815250906104775760405162461bcd60e51b81526004016100ff919061113e565b507f5a28e9363bb942b639270062aa6bb295f434bcdfc42c97267bf003f272060dc98d6101400151146040518060400160405280600381526020016224a72b60e91b815250906104da5760405162461bcd60e51b81526004016100ff919061113e565b507f5a28e9363bb942b639270062aa6bb295f434bcdfc42c97267bf003f272060dc98d6101600151146040518060400160405280600381526020016224a72b60e91b8152509061053d5760405162461bcd60e51b81526004016100ff919061113e565b50838d60e0015111156040518060400160405280600381526020016224a72b60e91b815250906105805760405162461bcd60e51b81526004016100ff919061113e565b5050505050505050505050505050565b60008061059c83610611565b90506105a781610627565b9392505050565b60008080603884146105f65760405162461bcd60e51b815260206004820152601160248201527011d41d8c8e881a5b9d985b1a59081d5a59607a1b60448201526064016100ff565b5050823593602084013560601c936034013560e01c92509050565b60008061061d8361096a565b60301b9392505050565b60006401000276a36001600160a01b03831610801590610663575073fffd8963efd1fc6a506488495d951d5263988d266001600160a01b038316105b6106935760405162461bcd60e51b81526020600482015260016024820152602960f91b60448201526064016100ff565b640100000000600160c01b03602083901b166fffffffffffffffffffffffffffffffff811160071b81811c67ffffffffffffffff811160061b90811c63ffffffff811160051b90811c61ffff811160041b90811c60ff8111600390811b91821c600f811160021b90811c918211600190811b92831c979088119617909417909217179091171717608081106107375761072d607f826111c2565b83901c9150610748565b61074281607f6111c2565b83901b91505b600060406107576080846111d9565b901b9050828302607f1c92508260801c80603f1b8217915083811c935050828302607f1c92508260801c80603e1b8217915083811c935050828302607f1c92508260801c80603d1b8217915083811c935050828302607f1c92508260801c80603c1b8217915083811c935050828302607f1c92508260801c80603b1b8217915083811c935050828302607f1c92508260801c80603a1b8217915083811c935050828302607f1c92508260801c8060391b8217915083811c935050828302607f1c92508260801c8060381b8217915083811c935050828302607f1c92508260801c8060371b8217915083811c935050828302607f1c92508260801c8060361b8217915083811c935050828302607f1c92508260801c8060351b8217915083811c935050828302607f1c92508260801c8060341b8217915083811c935050828302607f1c92508260801c8060331b8217915083811c935050828302607f1c92508260801c8060321b8217915050600081693627a301d71055774c856108da9190611218565b9050600060806108fa6f028f6481ab7f045a5af012a19d003aaa846111d9565b901d90506000608061091c846fdb2df09e81959a81455e260799a0632f61129d565b901d90508060020b8260020b1461095b57886001600160a01b031661094082610ae8565b6001600160a01b03161115610955578161095d565b8061095d565b815b9998505050505050505050565b60008161097957506000919050565b816001600160801b82106109925760809190911c9060401b5b6801000000000000000082106109ad5760409190911c9060201b5b64010000000082106109c45760209190911c9060101b5b6201000082106109d95760109190911c9060081b5b61010082106109ed5760089190911c9060041b5b60108210610a005760049190911c9060021b5b60088210610a0c5760011b5b6001610a1882866112f4565b610a229083611308565b901c90506001610a3282866112f4565b610a3c9083611308565b901c90506001610a4c82866112f4565b610a569083611308565b901c90506001610a6682866112f4565b610a709083611308565b901c90506001610a8082866112f4565b610a8a9083611308565b901c90506001610a9a82866112f4565b610aa49083611308565b901c90506001610ab482866112f4565b610abe9083611308565b901c90506000610ace82866112f4565b9050808210610add5780610adf565b815b95945050505050565b60008060008360020b12610aff578260020b610b0c565b8260020b610b0c90611320565b9050610b1b620d89e71961133d565b60020b811115610b515760405162461bcd60e51b81526020600482015260016024820152601560fa1b60448201526064016100ff565b600060018216610b6557600160801b610b77565b6ffffcb933bd6fad37aa2d162d1a5940015b70ffffffffffffffffffffffffffffffffff1690506002821615610bb6576080610bb1826ffff97272373d413259a46990580e213a611360565b901c90505b6004821615610be0576080610bdb826ffff2e50f5f656932ef12357cf3c7fdcc611360565b901c90505b6008821615610c0a576080610c05826fffe5caca7e10e4e61c3624eaa0941cd0611360565b901c90505b6010821615610c34576080610c2f826fffcb9843d60f6159c9db58835c926644611360565b901c90505b6020821615610c5e576080610c59826fff973b41fa98c081472e6896dfb254c0611360565b901c90505b6040821615610c88576080610c83826fff2ea16466c96a3843ec78b326b52861611360565b901c90505b6080821615610cb2576080610cad826ffe5dee046a99a2a811c461f1969c3053611360565b901c90505b610100821615610cdd576080610cd8826ffcbe86c7900a88aedcffc83b479aa3a4611360565b901c90505b610200821615610d08576080610d03826ff987a7253ac413176f2b074cf7815e54611360565b901c90505b610400821615610d33576080610d2e826ff3392b0822b70005940c7a398e4b70f3611360565b901c90505b610800821615610d5e576080610d59826fe7159475a2c29b7443b29c7fa6e889d9611360565b901c90505b611000821615610d89576080610d84826fd097f3bdfd2022b8845ad8f792aa5825611360565b901c90505b612000821615610db4576080610daf826fa9f746462d870fdf8a65dc1f90e061e5611360565b901c90505b614000821615610ddf576080610dda826f70d869a156d2a1b890bb3df62baf32f7611360565b901c90505b618000821615610e0a576080610e05826f31be135f97d08fd981231505542fcfa6611360565b901c90505b62010000821615610e36576080610e31826f09aa508b5b7a84e1c677de54f3e99bc9611360565b901c90505b62020000821615610e61576080610e5c826e5d6af8dedb81196699c329225ee604611360565b901c90505b62040000821615610e8b576080610e86826d2216e584f5fa1ea926041bedfe98611360565b901c90505b62080000821615610eb3576080610eae826b048a170391f7dc42444e8fa2611360565b901c90505b60008460020b1315610ece57610ecb816000196112f4565b90505b610edd6401000000008261137f565b15610ee9576001610eec565b60005b610efd9060ff16602083901c611308565b949350505050565b604051610180810167ffffffffffffffff81118282101715610f3757634e487b7160e01b600052604160045260246000fd5b60405290565b80356001600160a01b0381168114610f5457600080fd5b919050565b803563ffffffff81168114610f5457600080fd5b80358015158114610f5457600080fd5b60008083601f840112610f8f57600080fd5b50813567ffffffffffffffff811115610fa757600080fd5b602083019150836020828501011115610fbf57600080fd5b9250929050565b6000806000806000806000806000808a8c03610280811215610fe757600080fd5b61018080821215610ff757600080fd5b610fff610f05565b915061100a8d610f3d565b825261101860208e01610f3d565b602083015261102960408e01610f3d565b604083015260608d0135606083015260808d0135608083015261104e60a08e01610f59565b60a083015260c08d013560c083015260e08d013560e0830152610100808e01358184015250610120611081818f01610f6d565b908301526101408d81013590830152610160808e013590830152909a508b013567ffffffffffffffff8111156110b657600080fd5b6110c28d828e01610f7d565b909a5098506110d690506101a08c01610f3d565b96506110e56101c08c01610f3d565b95506101e08b013594506102008b013593506102208b0135925061110c6102408c01610f3d565b91506102608b013590509295989b9194979a5092959850565b60006020828403121561113757600080fd5b5035919050565b600060208083528351808285015260005b8181101561116b5785810183015185820160400152820161114f565b8181111561117d576000604083870101525b50601f01601f1916929092016040019392505050565b6000602082840312156111a557600080fd5b5051919050565b634e487b7160e01b600052601160045260246000fd5b6000828210156111d4576111d46111ac565b500390565b60008083128015600160ff1b8501841216156111f7576111f76111ac565b6001600160ff1b0384018313811615611212576112126111ac565b50500390565b60006001600160ff1b038184138284138082168684048611161561123e5761123e6111ac565b600160ff1b600087128281168783058912161561125d5761125d6111ac565b60008712925087820587128484161615611279576112796111ac565b8785058712818416161561128f5761128f6111ac565b505050929093029392505050565b600080821280156001600160ff1b03849003851316156112bf576112bf6111ac565b600160ff1b83900384128116156112d8576112d86111ac565b50500190565b634e487b7160e01b600052601260045260246000fd5b600082611303576113036112de565b500490565b6000821982111561131b5761131b6111ac565b500190565b6000600160ff1b821415611336576113366111ac565b5060000390565b60008160020b627fffff19811415611357576113576111ac565b60000392915050565b600081600019048311821515161561137a5761137a6111ac565b500290565b60008261138e5761138e6112de565b50069056fea26469706673582212203059a6e64e88eecfe7ab7aad0d0582de19c96ab98a9ae5149582d4fee946f08f64736f6c63430008090033",
    "linkReferences": {}
  },
  "methodIdentifiers": {
    "checkOrder((address,address,address,uint256,uint256,uint32,bytes32,uint256,bytes32,bool,bytes32,bytes32),bytes,address,address,uint256,uint256,uint256,address,uint256)": "521dc056",
    "cowswap()": "2264d39d",
    "tickFromPriceX96(uint256)": "c6807928"
  },
  "id": 424
}