{
  "abi": [
    {
      "anonymous": false,
      "inputs": [
        {
          "indexed": true,
          "internalType": "address",
          "name": "origin",
          "type": "address"
        },
        {
          "indexed": true,
          "internalType": "address",
          "name": "sender",
          "type": "address"
        },
        {
          "indexed": false,
          "internalType": "address[]",
          "name": "vaultTokens_",
          "type": "address[]"
        },
        {
          "indexed": false,
          "internalType": "uint256",
          "name": "nft_",
          "type": "uint256"
        }
      ],
      "name": "Initialized",
      "type": "event"
    },
    {
      "anonymous": false,
      "inputs": [
        {
          "indexed": false,
          "internalType": "address",
          "name": "to",
          "type": "address"
        },
        {
          "indexed": false,
          "internalType": "uint256[]",
          "name": "tokenAmounts",
          "type": "uint256[]"
        }
      ],
      "name": "Pull",
      "type": "event"
    },
    {
      "anonymous": false,
      "inputs": [
        {
          "indexed": false,
          "internalType": "uint256[]",
          "name": "tokenAmounts",
          "type": "uint256[]"
        }
      ],
      "name": "Push",
      "type": "event"
    },
    {
      "anonymous": false,
      "inputs": [
        {
          "indexed": false,
          "internalType": "address",
          "name": "to",
          "type": "address"
        },
        {
          "indexed": false,
          "internalType": "address[]",
          "name": "tokens",
          "type": "address[]"
        },
        {
          "indexed": false,
          "internalType": "uint256[]",
          "name": "tokenAmounts",
          "type": "uint256[]"
        }
      ],
      "name": "ReclaimTokens",
      "type": "event"
    },
    {
      "anonymous": false,
      "inputs": [
        {
          "indexed": true,
          "internalType": "address",
          "name": "origin",
          "type": "address"
        },
        {
          "indexed": true,
          "internalType": "address",
          "name": "sender",
          "type": "address"
        },
        {
          "indexed": false,
          "internalType": "uint256",
          "name": "newMarginalFactorD9",
          "type": "uint256"
        }
      ],
      "name": "TargetMarginalFactorUpdated",
      "type": "event"
    },
    {
      "inputs": [],
      "name": "D7",
      "outputs": [
        {
          "internalType": "uint256",
          "name": "",
          "type": "uint256"
        }
      ],
      "stateMutability": "view",
      "type": "function"
    },
    {
      "inputs": [],
      "name": "D9",
      "outputs": [
        {
          "internalType": "uint256",
          "name": "",
          "type": "uint256"
        }
      ],
      "stateMutability": "view",
      "type": "function"
    },
    {
      "inputs": [],
      "name": "adjustPosition",
      "outputs": [],
      "stateMutability": "nonpayable",
      "type": "function"
    },
    {
      "inputs": [],
      "name": "convexOutputToken",
      "outputs": [
        {
          "internalType": "address",
          "name": "",
          "type": "address"
        }
      ],
      "stateMutability": "view",
      "type": "function"
    },
    {
      "inputs": [],
      "name": "creditFacade",
      "outputs": [
        {
          "internalType": "contract ICreditFacade",
          "name": "",
          "type": "address"
        }
      ],
      "stateMutability": "view",
      "type": "function"
    },
    {
      "inputs": [],
      "name": "creditManager",
      "outputs": [
        {
          "internalType": "contract ICreditManagerV2",
          "name": "",
          "type": "address"
        }
      ],
      "stateMutability": "view",
      "type": "function"
    },
    {
      "inputs": [],
      "name": "depositToken",
      "outputs": [
        {
          "internalType": "address",
          "name": "",
          "type": "address"
        }
      ],
      "stateMutability": "view",
      "type": "function"
    },
    {
      "inputs": [
        {
          "internalType": "address",
          "name": "to",
          "type": "address"
        },
        {
          "internalType": "bytes4",
          "name": "selector",
          "type": "bytes4"
        },
        {
          "internalType": "bytes",
          "name": "data",
          "type": "bytes"
        }
      ],
      "name": "externalCall",
      "outputs": [
        {
          "internalType": "bytes",
          "name": "result",
          "type": "bytes"
        }
      ],
      "stateMutability": "payable",
      "type": "function"
    },
    {
      "inputs": [],
      "name": "getAllAssetsOnCreditAccountValue",
      "outputs": [
        {
          "internalType": "uint256",
          "name": "currentAllAssetsValue",
          "type": "uint256"
        }
      ],
      "stateMutability": "view",
      "type": "function"
    },
    {
      "inputs": [],
      "name": "getClaimableRewardsValue",
      "outputs": [
        {
          "internalType": "uint256",
          "name": "",
          "type": "uint256"
        }
      ],
      "stateMutability": "view",
      "type": "function"
    },
    {
      "inputs": [],
      "name": "getCreditAccount",
      "outputs": [
        {
          "internalType": "address",
          "name": "",
          "type": "address"
        }
      ],
      "stateMutability": "view",
      "type": "function"
    },
    {
      "inputs": [],
      "name": "getMerkleProof",
      "outputs": [
        {
          "internalType": "bytes32[]",
          "name": "",
          "type": "bytes32[]"
        }
      ],
      "stateMutability": "view",
      "type": "function"
    },
    {
      "inputs": [
        {
          "internalType": "uint256",
          "name": "nft_",
          "type": "uint256"
        },
        {
          "internalType": "address[]",
          "name": "vaultTokens_",
          "type": "address[]"
        },
        {
          "internalType": "address",
          "name": "helper_",
          "type": "address"
        }
      ],
      "name": "initialize",
      "outputs": [],
      "stateMutability": "nonpayable",
      "type": "function"
    },
    {
      "inputs": [],
      "name": "initialized",
      "outputs": [
        {
          "internalType": "bool",
          "name": "",
          "type": "bool"
        }
      ],
      "stateMutability": "view",
      "type": "function"
    },
    {
      "inputs": [
        {
          "internalType": "bytes32",
          "name": "_hash",
          "type": "bytes32"
        },
        {
          "internalType": "bytes",
          "name": "_signature",
          "type": "bytes"
        }
      ],
      "name": "isValidSignature",
      "outputs": [
        {
          "internalType": "bytes4",
          "name": "magicValue",
          "type": "bytes4"
        }
      ],
      "stateMutability": "view",
      "type": "function"
    },
    {
      "inputs": [
        {
          "internalType": "address",
          "name": "token",
          "type": "address"
        }
      ],
      "name": "isVaultToken",
      "outputs": [
        {
          "internalType": "bool",
          "name": "",
          "type": "bool"
        }
      ],
      "stateMutability": "view",
      "type": "function"
    },
    {
      "inputs": [],
      "name": "marginalFactorD9",
      "outputs": [
        {
          "internalType": "uint256",
          "name": "",
          "type": "uint256"
        }
      ],
      "stateMutability": "view",
      "type": "function"
    },
    {
      "inputs": [],
      "name": "merkleIndex",
      "outputs": [
        {
          "internalType": "uint256",
          "name": "",
          "type": "uint256"
        }
      ],
      "stateMutability": "view",
      "type": "function"
    },
    {
      "inputs": [],
      "name": "merkleTotalAmount",
      "outputs": [
        {
          "internalType": "uint256",
          "name": "",
          "type": "uint256"
        }
      ],
      "stateMutability": "view",
      "type": "function"
    },
    {
      "inputs": [
        {
          "components": [
            {
              "internalType": "address",
              "name": "target",
              "type": "address"
            },
            {
              "internalType": "bytes",
              "name": "callData",
              "type": "bytes"
            }
          ],
          "internalType": "struct MultiCall[]",
          "name": "calls",
          "type": "tuple[]"
        }
      ],
      "name": "multicall",
      "outputs": [],
      "stateMutability": "nonpayable",
      "type": "function"
    },
    {
      "inputs": [],
      "name": "nft",
      "outputs": [
        {
          "internalType": "uint256",
          "name": "",
          "type": "uint256"
        }
      ],
      "stateMutability": "view",
      "type": "function"
    },
    {
      "inputs": [],
      "name": "openCreditAccount",
      "outputs": [],
      "stateMutability": "nonpayable",
      "type": "function"
    },
    {
      "inputs": [
        {
          "internalType": "uint256",
          "name": "currentPrimaryTokenAmount",
          "type": "uint256"
        },
        {
          "internalType": "uint16",
          "name": "referralCode",
          "type": "uint16"
        }
      ],
      "name": "openCreditAccountInManager",
      "outputs": [],
      "stateMutability": "nonpayable",
      "type": "function"
    },
    {
      "inputs": [],
      "name": "poolId",
      "outputs": [
        {
          "internalType": "uint256",
          "name": "",
          "type": "uint256"
        }
      ],
      "stateMutability": "view",
      "type": "function"
    },
    {
      "inputs": [],
      "name": "primaryIndex",
      "outputs": [
        {
          "internalType": "int128",
          "name": "",
          "type": "int128"
        }
      ],
      "stateMutability": "view",
      "type": "function"
    },
    {
      "inputs": [],
      "name": "primaryToken",
      "outputs": [
        {
          "internalType": "address",
          "name": "",
          "type": "address"
        }
      ],
      "stateMutability": "view",
      "type": "function"
    },
    {
      "inputs": [
        {
          "internalType": "address",
          "name": "to",
          "type": "address"
        },
        {
          "internalType": "address[]",
          "name": "tokens",
          "type": "address[]"
        },
        {
          "internalType": "uint256[]",
          "name": "tokenAmounts",
          "type": "uint256[]"
        },
        {
          "internalType": "bytes",
          "name": "options",
          "type": "bytes"
        }
      ],
      "name": "pull",
      "outputs": [
        {
          "internalType": "uint256[]",
          "name": "actualTokenAmounts",
          "type": "uint256[]"
        }
      ],
      "stateMutability": "nonpayable",
      "type": "function"
    },
    {
      "inputs": [],
      "name": "pullExistentials",
      "outputs": [
        {
          "internalType": "uint256[]",
          "name": "",
          "type": "uint256[]"
        }
      ],
      "stateMutability": "view",
      "type": "function"
    },
    {
      "inputs": [
        {
          "internalType": "address[]",
          "name": "tokens",
          "type": "address[]"
        },
        {
          "internalType": "uint256[]",
          "name": "tokenAmounts",
          "type": "uint256[]"
        },
        {
          "internalType": "bytes",
          "name": "options",
          "type": "bytes"
        }
      ],
      "name": "push",
      "outputs": [
        {
          "internalType": "uint256[]",
          "name": "actualTokenAmounts",
          "type": "uint256[]"
        }
      ],
      "stateMutability": "nonpayable",
      "type": "function"
    },
    {
      "inputs": [
        {
          "internalType": "address[]",
          "name": "tokens",
          "type": "address[]"
        }
      ],
      "name": "reclaimTokens",
      "outputs": [
        {
          "internalType": "uint256[]",
          "name": "actualTokenAmounts",
          "type": "uint256[]"
        }
      ],
      "stateMutability": "nonpayable",
      "type": "function"
    },
    {
      "inputs": [
        {
          "internalType": "uint256",
          "name": "merkleIndex_",
          "type": "uint256"
        },
        {
          "internalType": "uint256",
          "name": "merkleTotalAmount_",
          "type": "uint256"
        },
        {
          "internalType": "bytes32[]",
          "name": "merkleProof_",
          "type": "bytes32[]"
        }
      ],
      "name": "setMerkleParameters",
      "outputs": [],
      "stateMutability": "nonpayable",
      "type": "function"
    },
    {
      "inputs": [
        {
          "internalType": "bytes4",
          "name": "interfaceId",
          "type": "bytes4"
        }
      ],
      "name": "supportsInterface",
      "outputs": [
        {
          "internalType": "bool",
          "name": "",
          "type": "bool"
        }
      ],
      "stateMutability": "view",
      "type": "function"
    },
    {
      "inputs": [
        {
          "internalType": "contract ISwapRouter",
          "name": "router",
          "type": "address"
        },
        {
          "components": [
            {
              "internalType": "bytes",
              "name": "path",
              "type": "bytes"
            },
            {
              "internalType": "address",
              "name": "recipient",
              "type": "address"
            },
            {
              "internalType": "uint256",
              "name": "deadline",
              "type": "uint256"
            },
            {
              "internalType": "uint256",
              "name": "amountOut",
              "type": "uint256"
            },
            {
              "internalType": "uint256",
              "name": "amountInMaximum",
              "type": "uint256"
            }
          ],
          "internalType": "struct ISwapRouter.ExactOutputParams",
          "name": "uniParams",
          "type": "tuple"
        },
        {
          "internalType": "address",
          "name": "token",
          "type": "address"
        },
        {
          "internalType": "uint256",
          "name": "amount",
          "type": "uint256"
        }
      ],
      "name": "swap",
      "outputs": [],
      "stateMutability": "nonpayable",
      "type": "function"
    },
    {
      "inputs": [
        {
          "internalType": "address",
          "name": "from",
          "type": "address"
        },
        {
          "internalType": "address[]",
          "name": "tokens",
          "type": "address[]"
        },
        {
          "internalType": "uint256[]",
          "name": "tokenAmounts",
          "type": "uint256[]"
        },
        {
          "internalType": "bytes",
          "name": "options",
          "type": "bytes"
        }
      ],
      "name": "transferAndPush",
      "outputs": [
        {
          "internalType": "uint256[]",
          "name": "actualTokenAmounts",
          "type": "uint256[]"
        }
      ],
      "stateMutability": "nonpayable",
      "type": "function"
    },
    {
      "inputs": [],
      "name": "tvl",
      "outputs": [
        {
          "internalType": "uint256[]",
          "name": "minTokenAmounts",
          "type": "uint256[]"
        },
        {
          "internalType": "uint256[]",
          "name": "maxTokenAmounts",
          "type": "uint256[]"
        }
      ],
      "stateMutability": "view",
      "type": "function"
    },
    {
      "inputs": [
        {
          "internalType": "uint256",
          "name": "marginalFactorD9_",
          "type": "uint256"
        }
      ],
      "name": "updateTargetMarginalFactor",
      "outputs": [],
      "stateMutability": "nonpayable",
      "type": "function"
    },
    {
      "inputs": [],
      "name": "vaultGovernance",
      "outputs": [
        {
          "internalType": "contract IVaultGovernance",
          "name": "",
          "type": "address"
        }
      ],
      "stateMutability": "view",
      "type": "function"
    },
    {
      "inputs": [],
      "name": "vaultTokens",
      "outputs": [
        {
          "internalType": "address[]",
          "name": "",
          "type": "address[]"
        }
      ],
      "stateMutability": "view",
      "type": "function"
    }
  ],
  "bytecode": {
    "object": "0x608060405234801561001057600080fd5b506001600055600019600455615c47806200002c6000396000f3fe6080604052600436106102255760003560e01c8063636a411d11610123578063ce1f65e4116100ab578063e5328e061161006f578063e5328e0614610644578063ea8d87a314610667578063f4b9b14314610694578063f7283796146106aa578063fe255a5e146106ca57600080fd5b8063ce1f65e4146105cd578063d2c219b0146105e2578063d37c4707146105f7578063d769e4331461060d578063e4bec4f01461062d57600080fd5b806385c3c33e116100f257806385c3c33e1461052d57806391ac094c1461054d578063c12c21c01461056d578063c89039c51461058d578063caa5c23f146105ad57600080fd5b8063636a411d146104c157806367f34f49146104d657806369722233146104eb5780636b3cff531461050d57600080fd5b80632f7a1881116101b157806349288e391161017557806349288e391461043e57806352af719f14610454578063551530ae14610474578063566ca6b41461048c5780635aba4b24146104ac57600080fd5b80632f7a188114610380578063338c4ccb146103b85780633e0dc34e146103f057806343b8865d1461041457806347ccca021461042957600080fd5b80631626ba7e116101f85780631626ba7e146102c55780631aa2829a146102fe5780632062d7541461032057806327a35e5a146103405780632e2f4cc21461036057600080fd5b806301ffc9a71461022a57806305e1c9421461025f5780630fae7ae71461028c578063158ef93e146102ae575b600080fd5b34801561023657600080fd5b5061024a610245366004614b44565b6106e8565b60405190151581526020015b60405180910390f35b34801561026b57600080fd5b5061027f61027a366004614ca8565b610714565b6040516102569190614d17565b34801561029857600080fd5b506102ac6102a7366004614d2a565b610b8c565b005b3480156102ba57600080fd5b50600454151561024a565b3480156102d157600080fd5b506102e56102e0366004614dd0565b610d2a565b6040516001600160e01b03199091168152602001610256565b34801561030a57600080fd5b50610313611077565b6040516102569190614e16565b34801561032c57600080fd5b5061027f61033b366004614eb5565b6110cf565b34801561034c57600080fd5b5061027f61035b366004614eb5565b61157b565b61037361036e366004614f4f565b611702565b6040516102569190615038565b34801561038c57600080fd5b506008546103a0906001600160a01b031681565b6040516001600160a01b039091168152602001610256565b3480156103c457600080fd5b5061024a6103d336600461504b565b6001600160a01b0316600090815260036020526040902054151590565b3480156103fc57600080fd5b50610406600d5481565b604051908152602001610256565b34801561042057600080fd5b506103a06119d6565b34801561043557600080fd5b50600454610406565b34801561044a57600080fd5b5061040660105481565b34801561046057600080fd5b506102ac61046f366004615068565b611a57565b34801561048057600080fd5b50610406633b9aca0081565b34801561049857600080fd5b5061027f6104a73660046150c2565b611dd8565b3480156104b857600080fd5b506102ac6120a8565b3480156104cd57600080fd5b506104066123e1565b3480156104e257600080fd5b506102ac612487565b3480156104f757600080fd5b50610500612605565b6040516102569190615182565b34801561051957600080fd5b50600e546103a0906001600160a01b031681565b34801561053957600080fd5b506102ac610548366004615195565b612666565b34801561055957600080fd5b50600a546103a0906001600160a01b031681565b34801561057957600080fd5b506009546103a0906001600160a01b031681565b34801561059957600080fd5b50600b546103a0906001600160a01b031681565b3480156105b957600080fd5b506102ac6105c83660046151ae565b61282f565b3480156105d957600080fd5b506104066128db565b3480156105ee57600080fd5b5061027f61298b565b34801561060357600080fd5b5061040660115481565b34801561061957600080fd5b506102ac6106283660046152a5565b6129e1565b34801561063957600080fd5b506104066298968081565b34801561065057600080fd5b50610659612a16565b60405161025692919061534a565b34801561067357600080fd5b50600c5461068190600f0b81565b604051600f9190910b8152602001610256565b3480156106a057600080fd5b50610406600f5481565b3480156106b657600080fd5b506102ac6106c5366004615378565b612f32565b3480156106d657600080fd5b506001546001600160a01b03166103a0565b60006106f38261308e565b8061070e57506001600160e01b0319821663274ecde160e21b145b92915050565b606061071e6130d4565b6004805460408051808201909152918252631253925560e21b602083015290816107645760405162461bcd60e51b815260040161075b9190615038565b60405180910390fd5b5060015460408051637ac46fbb60e01b815290516000926001600160a01b031691637ac46fbb916004808301926060929190829003018186803b1580156107aa57600080fd5b505afa1580156107be573d6000803e3d6000fd5b505050506040513d601f19601f820116820180604052508101906107e29190615445565b805160208201516040516331a9108f60e11b81526004810186905292935090916000906001600160a01b03831690636352211e9060240160206040518083038186803b15801561083157600080fd5b505afa158015610845573d6000803e3d6000fd5b505050506040513d601f19601f8201168201806040525081019061086991906154b6565b9050600061087883878461312e565b604051639bd0911b60e01b8152600060048201526001600160a01b039190911690639bd0911b9060240160206040518083038186803b1580156108ba57600080fd5b505afa1580156108ce573d6000803e3d6000fd5b505050506040513d601f19601f820116820180604052508101906108f291906154b6565b905087516001600160401b0381111561090d5761090d614b61565b604051908082528060200260200182016040528015610936578160200160208202803683370190505b5096506001600160a01b03811630141561095557505050505050610b7d565b60005b8851811015610b3a5761097e898281518110610976576109766154d3565b506000919050565b80610a305750846001600160a01b03166363e85d2d8a83815181106109a5576109a56154d3565b60209081029190910101516040516001600160e01b031960e084901b1681526001600160a01b0390911660048201526002602482015260440160206040518083038186803b1580156109f657600080fd5b505afa158015610a0a573d6000803e3d6000fd5b505050506040513d601f19601f82011682018060405250810190610a2e91906154e9565b155b15610a3a57610b2a565b6000898281518110610a4e57610a4e6154d3565b60209081029190910101516040516370a0823160e01b81523060048201529091506001600160a01b038216906370a082319060240160206040518083038186803b158015610a9b57600080fd5b505afa158015610aaf573d6000803e3d6000fd5b505050506040513d601f19601f82011682018060405250810190610ad3919061550b565b898381518110610ae557610ae56154d3565b602002602001018181525050610b28838a8481518110610b0757610b076154d3565b6020026020010151836001600160a01b03166132019092919063ffffffff16565b505b610b338161553a565b9050610958565b507f9efcb26e0cf572bd9171640e114f387cef91cd3e38532ed6b3f80c7f2e758f87818989604051610b6e93929190615555565b60405180910390a15050505050505b610b876001600055565b919050565b60065460408051808201909152600381526223292160e91b6020820152906001600160a01b03163314610bd25760405162461bcd60e51b815260040161075b9190615038565b50600954600a54610bf0916001600160a01b03918216911684613264565b600854600f546001600160a01b0390911690636c8f225d90849030906298968090610c2090633b9aca0090615595565b610c2a91906155c2565b6040516001600160e01b031960e086901b16815260048101939093526001600160a01b03909116602483015261ffff908116604483015284166064820152608401600060405180830381600087803b158015610c8557600080fd5b505af1158015610c99573d6000803e3d6000fd5b5050600a5460095460405163095ea7b360e01b81526001600160a01b039182166004820152600060248201529116925063095ea7b39150604401602060405180830381600087803b158015610ced57600080fd5b505af1158015610d01573d6000803e3d6000fd5b505050506040513d601f19601f82011682018060405250810190610d2591906154e9565b505050565b600080600160009054906101000a90046001600160a01b03166001600160a01b0316637ac46fbb6040518163ffffffff1660e01b815260040160606040518083038186803b158015610d7b57600080fd5b505afa158015610d8f573d6000803e3d6000fd5b505050506040513d601f19601f82011682018060405250810190610db39190615445565b60208101518151600454929350909180610ddc57506001600160e01b0319935061070e92505050565b60405163020604bf60e21b8152600481018290526000906001600160a01b0385169063081812fc9060240160206040518083038186803b158015610e1f57600080fd5b505afa158015610e33573d6000803e3d6000fd5b505050506040513d601f19601f82011682018060405250810190610e5791906154b6565b6040516363e85d2d60e01b81526001600160a01b03808316600483015260066024830152919250908416906363e85d2d9060440160206040518083038186803b158015610ea357600080fd5b505afa158015610eb7573d6000803e3d6000fd5b505050506040513d601f19601f82011682018060405250810190610edb91906154e9565b610ef557506001600160e01b0319945061070e9350505050565b803b63ffffffff811615611028576040516301ffc9a760e01b8152630b135d3f60e11b60048201526001600160a01b038316906301ffc9a79060240160206040518083038186803b158015610f4957600080fd5b505afa158015610f5d573d6000803e3d6000fd5b505050506040513d601f19601f82011682018060405250810190610f8191906154e9565b1561101157604051630b135d3f60e11b81526001600160a01b03831690631626ba7e90610fb4908c908c906004016155d6565b60206040518083038186803b158015610fcc57600080fd5b505afa158015610fe0573d6000803e3d6000fd5b505050506040513d601f19601f8201168201806040525081019061100491906155ef565b965050505050505061070e565b506001600160e01b0319955061070e945050505050565b816001600160a01b031661103c8a8a613320565b6001600160a01b031614156110615750630b135d3f60e11b955061070e945050505050565b506001600160e01b031998975050505050505050565b606060078054806020026020016040519081016040528092919081815260200182805480156110c557602002820191906000526020600020905b8154815260200190600101908083116110b1575b5050505050905090565b60606110d96130d4565b6004805460408051808201909152918252631253925560e21b602083015290816111165760405162461bcd60e51b815260040161075b9190615038565b506111203361339f565b6040518060400160405280600381526020016223292160e91b8152509061115a5760405162461bcd60e51b815260040161075b9190615038565b5060015460408051637ac46fbb60e01b815290516000926001600160a01b031691637ac46fbb916004808301926060929190829003018186803b1580156111a057600080fd5b505afa1580156111b4573d6000803e3d6000fd5b505050506040513d601f19601f820116820180604052508101906111d89190615445565b602001516040516331a9108f60e11b8152600481018490529091506000906001600160a01b03831690636352211e9060240160206040518083038186803b15801561122257600080fd5b505afa158015611236573d6000803e3d6000fd5b505050506040513d601f19601f8201168201806040525081019061125a91906154b6565b9050600061126983858461312e565b90506001600160a01b03821633146114a657604051639bd0911b60e01b8152600060048201819052906001600160a01b03831690639bd0911b9060240160206040518083038186803b1580156112be57600080fd5b505afa1580156112d2573d6000803e3d6000fd5b505050506040513d601f19601f820116820180604052508101906112f691906154b6565b90506001600160a01b0381163014156114515760405163fcdabd2760e01b81526001600160a01b038b8116600483015280841691639d9fd0d99187169063fcdabd279060240160206040518083038186803b15801561135457600080fd5b505afa158015611368573d6000803e3d6000fd5b505050506040513d601f19601f8201168201806040525081019061138c919061550b565b6040518263ffffffff1660e01b81526004016113aa91815260200190565b60206040518083038186803b1580156113c257600080fd5b505afa1580156113d6573d6000803e3d6000fd5b505050506040513d601f19601f820116820180604052508101906113fa91906154e9565b801561140f57506001600160a01b038a163014155b6040518060400160405280600581526020016424a72b2a2960d91b8152509061144b5760405162461bcd60e51b815260040161075b9190615038565b506114a4565b896001600160a01b0316816001600160a01b0316146040518060400160405280600581526020016424a72b2a2960d91b815250906114a25760405162461bcd60e51b815260040161075b9190615038565b505b505b60006114b2898961355d565b905060006114c18b838a613649565b90506115288a600280548060200260200160405190810160405280929190818152602001828054801561151d57602002820191906000526020600020905b81546001600160a01b031681526001909101906020018083116114ff575b505050505083613dab565b96507f54f9e6ef58e36de62f59f9ee6c4b878af84989c53a3642eba415ac3ac4e11cda8b8860405161155b92919061560c565b60405180910390a15050505050506115736001600055565b949350505050565b825160609060005b8181101561160e5784818151811061159d5761159d6154d3565b60200260200101516000146115fe576115fe87308784815181106115c3576115c36154d3565b60200260200101518985815181106115dd576115dd6154d3565b60200260200101516001600160a01b0316613fcc909392919063ffffffff16565b6116078161553a565b9050611583565b5061161a858585611dd8565b915060005b85518110156116f857600085828151811061163c5761163c6154d3565b6020026020010151848381518110611656576116566154d3565b60200260200101511061166a5760006116a8565b83828151811061167c5761167c6154d3565b6020026020010151868381518110611696576116966154d3565b60200260200101516116a89190615595565b905080156116e7576116e788828985815181106116c7576116c76154d3565b60200260200101516001600160a01b03166132019092919063ffffffff16565b506116f18161553a565b905061161f565b5050949350505050565b606061170c6130d4565b6004805460408051808201909152918252631253925560e21b60208301526117475760405162461bcd60e51b815260040161075b9190615038565b506117513361339f565b6040518060400160405280600381526020016223292160e91b8152509061178b5760405162461bcd60e51b815260040161075b9190615038565b5060015460408051637ac46fbb60e01b815290516000926001600160a01b031691637ac46fbb916004808301926060929190829003018186803b1580156117d157600080fd5b505afa1580156117e5573d6000803e3d6000fd5b505050506040513d601f19601f820116820180604052508101906118099190615445565b51604051631f4a58fb60e31b81526001600160a01b03888116600483015291925060009183169063fa52c7d89060240160206040518083038186803b15801561185157600080fd5b505afa158015611865573d6000803e3d6000fd5b505050506040513d601f19601f8201168201806040525081019061188991906154b6565b60408051808201909152600381526223292160e91b60208201529091506001600160a01b0382166118cd5760405162461bcd60e51b815260040161075b9190615038565b50604051631796170d60e21b81526001600160a01b03821690635e585c34906119049033908b9034908c908c908c90600401615630565b60006040518083038186803b15801561191c57600080fd5b505afa158015611930573d6000803e3d6000fd5b50505050600080886001600160a01b03163489898960405160200161195793929190615695565b60408051601f1981840301815290829052611971916156b9565b60006040518083038185875af1925050503d80600081146119ae576040519150601f19603f3d011682016040523d82523d6000602084013e6119b3565b606091505b5091509150816119c65780518082602001fd5b6001600055935061157392505050565b60095460405163055ee9b560e01b81523060048201526000916001600160a01b03169063055ee9b59060240160206040518083038186803b158015611a1a57600080fd5b505afa158015611a2e573d6000803e3d6000fd5b505050506040513d601f19601f82011682018060405250810190611a5291906154b6565b905090565b8151600114604051806040016040528060048152602001631253959360e21b81525090611a975760405162461bcd60e51b815260040161075b9190615038565b50611aa28284613fed565b60015460405163dbb1c35f60e01b8152600481018590526000916001600160a01b03169063dbb1c35f9060240160a06040518083038186803b158015611ae757600080fd5b505afa158015611afb573d6000803e3d6000fd5b505050506040513d601f19601f82011682018060405250810190611b1f91906156d5565b8051600a80546001600160a01b0319166001600160a01b0390921691909117905583519091508390600090611b5657611b566154d3565b602090810291909101810151600b80546001600160a01b03199081166001600160a01b03938416179091556080840151600f556060840151600880549092169216918217905560408051630304b08760e61b81529051919263c12c21c092600480840193829003018186803b158015611bce57600080fd5b505afa158015611be2573d6000803e3d6000fd5b505050506040513d601f19601f82011682018060405250810190611c0691906154b6565b600980546001600160a01b039283166001600160a01b03199182168117909255600680548685169216821790556008546020850151604086015186518951949663b6f963fc969416948a90600090611c6057611c606154d3565b6020908102919091010151600480546040516001600160e01b031960e08b901b1681526001600160a01b0398891692810192909252958716602482015293861660448501529185166064840152841660848301529290921660a483015260c482015260e401600060405180830381600087803b158015611cdf57600080fd5b505af1158015611cf3573d6000803e3d6000fd5b50505050600660009054906101000a90046001600160a01b03166001600160a01b031663fb7700896040518163ffffffff1660e01b815260040160606040518083038186803b158015611d4557600080fd5b505afa158015611d59573d6000803e3d6000fd5b505050506040513d601f19601f82011682018060405250810190611d7d9190615765565b600d55600e80546001600160a01b0319166001600160a01b0392909216919091179055600c80546fffffffffffffffffffffffffffffffff19166fffffffffffffffffffffffffffffffff9290921691909117905550505050565b6060611de26130d4565b6004805460408051808201909152918252631253925560e21b60208301529081611e1f5760405162461bcd60e51b815260040161075b9190615038565b5060015460408051637ac46fbb60e01b815290516000926001600160a01b031691637ac46fbb916004808301926060929190829003018186803b158015611e6557600080fd5b505afa158015611e79573d6000803e3d6000fd5b505050506040513d601f19601f82011682018060405250810190611e9d9190615445565b602001516040516331a9108f60e11b8152600481018490529091506000906001600160a01b03831690636352211e9060240160206040518083038186803b158015611ee757600080fd5b505afa158015611efb573d6000803e3d6000fd5b505050506040513d601f19601f82011682018060405250810190611f1f91906154b6565b60405163fcdabd2760e01b81526001600160a01b03808316600483015291925060009184169063fcdabd279060240160206040518083038186803b158015611f6657600080fd5b505afa158015611f7a573d6000803e3d6000fd5b505050506040513d601f19601f82011682018060405250810190611f9e919061550b565b604080518082019091526002815261272360f11b602082015290915081611fd85760405162461bcd60e51b815260040161075b9190615038565b506000611fe5898961355d565b90506000611ff38289614478565b90506120588a600280548060200260200160405190810160405280929190818152602001828054801561151d576020028201919060005260206000209081546001600160a01b031681526001909101906020018083116114ff57505050505083613dab565b96507f08e404e978692dd1b8275016b7a7b0b3ae4afd06b0cec7228060bb2da18c84fd816040516120899190614d17565b60405180910390a15050505050506120a16001600055565b9392505050565b6120b13361339f565b6040518060400160405280600381526020016223292160e91b815250906120eb5760405162461bcd60e51b815260040161075b9190615038565b5060085460408051639408b63f60e01b815290516000926001600160a01b031691639408b63f916004808301926020929190829003018186803b15801561213157600080fd5b505afa158015612145573d6000803e3d6000fd5b505050506040513d601f19601f8201168201806040525081019061216991906154b6565b90506001600160a01b038116156122e25760008190506000816001600160a01b031663075461726040518163ffffffff1660e01b815260040160206040518083038186803b1580156121ba57600080fd5b505afa1580156121ce573d6000803e3d6000fd5b505050506040513d601f19601f820116820180604052508101906121f291906154b6565b60115460405163c884ef8360e01b8152306004820152919250906001600160a01b0383169063c884ef839060240160206040518083038186803b15801561223857600080fd5b505afa15801561224c573d6000803e3d6000fd5b505050506040513d601f19601f82011682018060405250810190612270919061550b565b10156122df57601054601154604051632e7ba6ef60e01b81526001600160a01b03841692632e7ba6ef926122ac923091906007906004016157ae565b600060405180830381600087803b1580156122c657600080fd5b505af11580156122da573d6000803e3d6000fd5b505050505b50505b60006122ec6119d6565b600654600154600f5460405163093e954360e11b81529394506001600160a01b039283169363127d2a8693612328938793911691600401615817565b600060405180830381600087803b15801561234257600080fd5b505af1158015612356573d6000803e3d6000fd5b5050600a54600b546001600160a01b0390811691161491506123dd905057600854600b54604051636348484560e11b81526001600160a01b03918216600482015291169063c690908a90602401600060405180830381600087803b1580156123bd57600080fd5b505af11580156123d1573d6000803e3d6000fd5b505050506123dd6144e6565b5050565b6000806123ec6119d6565b90506001600160a01b03811661240457600091505090565b6008546040516363ef1c5360e11b81526001600160a01b0383811660048301529091169063c7de38a690602401604080518083038186803b15801561244857600080fd5b505afa15801561245c573d6000803e3d6000fd5b505050506040513d601f19601f82011682018060405250810190612480919061583b565b5092915050565b6124903361339f565b6040518060400160405280600381526020016223292160e91b815250906124ca5760405162461bcd60e51b815260040161075b9190615038565b5060006124d56119d6565b90506001600160a01b0381166124e85750565b600f546006546001546040516338a3c4bf60e21b81526001600160a01b03928316926000928392859263e28f12fc9261252b928a92909116908990600401615817565b604080518083038186803b15801561254257600080fd5b505afa158015612556573d6000803e3d6000fd5b505050506040513d601f19601f8201168201806040525081019061257a919061583b565b600154600c54600d54600e5460405163636e53a560e11b81529597509395506001600160a01b038089169563c6dca74a956125cc958a958a95918516948e94600f9290920b9316908f9060040161585f565b600060405180830381600087803b1580156125e657600080fd5b505af11580156125fa573d6000803e3d6000fd5b505050505050505050565b606060028054806020026020016040519081016040528092919081815260200182805480156110c557602002820191906000526020600020905b81546001600160a01b0316815260019091019060200180831161263f575050505050905090565b61266f3361339f565b61267857600080fd5b60408051808201909152600381526224a72b60e91b6020820152633b9aca0082116126b65760405162461bcd60e51b815260040161075b9190615038565b5060006126c16119d6565b6006549091506001600160a01b039081169082166126e0575050600f55565b600f8390556001546040516338a3c4bf60e21b815260009182916001600160a01b038086169263e28f12fc9261271e92899216908a90600401615817565b604080518083038186803b15801561273557600080fd5b505afa158015612749573d6000803e3d6000fd5b505050506040513d601f19601f8201168201806040525081019061276d919061583b565b600154600c54600d54600e5460405163636e53a560e11b81529597509395506001600160a01b038089169563c6dca74a956127bf958a958a95918516948f94600f9290920b9316908e9060040161585f565b600060405180830381600087803b1580156127d957600080fd5b505af11580156127ed573d6000803e3d6000fd5b50506040518781523392503291507f027618a4c1991793e7335c85a261cc01095e539cba2987086135e5390ba4c96f9060200160405180910390a35050505050565b60065460408051808201909152600381526223292160e91b6020820152906001600160a01b031633146128755760405162461bcd60e51b815260040161075b9190615038565b5060085460405163caa5c23f60e01b81526001600160a01b039091169063caa5c23f906128a6908490600401615918565b600060405180830381600087803b1580156128c057600080fd5b505af11580156128d4573d6000803e3d6000fd5b5050505050565b6000806128e66119d6565b90506001600160a01b0381166128fe57600091505090565b60065460015460405163105c042360e11b81526001600160a01b03848116600483015291821660248201529116906320b808469060440160206040518083038186803b15801561294d57600080fd5b505afa158015612961573d6000803e3d6000fd5b505050506040513d601f19601f82011682018060405250810190612985919061550b565b91505090565b606060058054806020026020016040519081016040528092919081815260200182805480156110c557602002820191906000526020600020908154815260200190600101908083116110b1575050505050905090565b6129ea3361339f565b6129f357600080fd5b601083905560118290558051612a10906007906020840190614a76565b50505050565b6060806000612a236119d6565b600b54600a5460065460015460405163105c042360e11b81526001600160a01b03808716600483015291821660248201529495509283169391831692859260009291909116906320b808469060440160206040518083038186803b158015612a8a57600080fd5b505afa158015612a9e573d6000803e3d6000fd5b505050506040513d601f19601f82011682018060405250810190612ac2919061550b565b9050836001600160a01b0316836001600160a01b031614612b61576040516370a0823160e01b81523060048201526001600160a01b038416906370a082319060240160206040518083038186803b158015612b1c57600080fd5b505afa158015612b30573d6000803e3d6000fd5b505050506040513d601f19601f82011682018060405250810190612b54919061550b565b612b5e908261592b565b90505b6001600160a01b03821615612c96576008546040516363ef1c5360e11b81526001600160a01b038481166004830152600092169063c7de38a690602401604080518083038186803b158015612bb557600080fd5b505afa158015612bc9573d6000803e3d6000fd5b505050506040513d601f19601f82011682018060405250810190612bed919061583b565b50600954604051630c64865760e21b81526001600160a01b03868116600483015292935060009290911690633192195c9060240160606040518083038186803b158015612c3957600080fd5b505afa158015612c4d573d6000803e3d6000fd5b505050506040513d601f19601f82011682018060405250810190612c719190615943565b92505050808210612c9357612c868183615595565b612c90908461592b565b92505b50505b6040805160018082528183019092529060208083019080368337019050509650836001600160a01b0316836001600160a01b03161415612d75576040516370a0823160e01b81523060048201526001600160a01b038516906370a082319060240160206040518083038186803b158015612d0f57600080fd5b505afa158015612d23573d6000803e3d6000fd5b505050506040513d601f19601f82011682018060405250810190612d47919061550b565b612d51908261592b565b87600081518110612d6457612d646154d3565b602002602001018181525050612f26565b60095460408051632630c12f60e01b815290516000926001600160a01b031691632630c12f916004808301926020929190829003018186803b158015612dba57600080fd5b505afa158015612dce573d6000803e3d6000fd5b505050506040513d601f19601f82011682018060405250810190612df291906154b6565b6040516370a0823160e01b81523060048201529091506000906001600160a01b038716906370a082319060240160206040518083038186803b158015612e3757600080fd5b505afa158015612e4b573d6000803e3d6000fd5b505050506040513d601f19601f82011682018060405250810190612e6f919061550b565b60405163b66102df60e01b8152600481018590526001600160a01b038781166024830152888116604483015284169063b66102df9060640160206040518083038186803b158015612ebf57600080fd5b505afa158015612ed3573d6000803e3d6000fd5b505050506040513d601f19601f82011682018060405250810190612ef7919061550b565b612f01919061592b565b90508089600081518110612f1757612f176154d3565b60200260200101818152505050505b86955050505050509091565b60065460408051808201909152600381526223292160e91b6020820152906001600160a01b03163314612f785760405162461bcd60e51b815260040161075b9190615038565b50612f8d6001600160a01b0383168583613264565b604051631e51809360e31b81526001600160a01b0385169063f28c049890612fb9908690600401615971565b602060405180830381600087803b158015612fd357600080fd5b505af1158015612fe7573d6000803e3d6000fd5b505050506040513d601f19601f8201168201806040525081019061300b919061550b565b5060405163095ea7b360e01b81526001600160a01b0385811660048301526000602483015283169063095ea7b390604401602060405180830381600087803b15801561305657600080fd5b505af115801561306a573d6000803e3d6000fd5b505050506040513d601f19601f820116820180604052508101906128d491906154e9565b600061309982614744565b806130b457506001600160e01b03198216633d31d51d60e11b145b8061070e57506001600160e01b03198216630b135d3f60e11b1492915050565b600260005414156131275760405162461bcd60e51b815260206004820152601f60248201527f5265656e7472616e637947756172643a207265656e7472616e742063616c6c00604482015260640161075b565b6002600055565b60405163fcdabd2760e01b81526001600160a01b038281166004830152600091829186169063fcdabd279060240160206040518083038186803b15801561317457600080fd5b505afa158015613188573d6000803e3d6000fd5b505050506040513d601f19601f820116820180604052508101906131ac919061550b565b905083158015906131bc57508015155b604051806040016040528060048152602001631253925560e21b815250906131f75760405162461bcd60e51b815260040161075b9190615038565b5091949350505050565b6040516001600160a01b038316602482015260448101829052610d2590849063a9059cbb60e01b906064015b60408051601f198184030181529190526020810180516001600160e01b03166001600160e01b03199093169290921790915261477a565b604051636eb1769f60e11b81523060048201526001600160a01b0383811660248301526000919085169063dd62ed3e9060440160206040518083038186803b1580156132af57600080fd5b505afa1580156132c3573d6000803e3d6000fd5b505050506040513d601f19601f820116820180604052508101906132e7919061550b565b9050612a108463095ea7b360e01b85613300868661592b565b6040516001600160a01b039092166024830152604482015260640161322d565b60008060008061332f8561484f565b6040805160008152602081018083528b905260ff8316918101919091526060810184905260808101839052929550909350915060019060a0016020604051602081039080840390855afa15801561338a573d6000803e3d6000fd5b5050604051601f190151979650505050505050565b600080600160009054906101000a90046001600160a01b03166001600160a01b0316637ac46fbb6040518163ffffffff1660e01b815260040160606040518083038186803b1580156133f057600080fd5b505afa158015613404573d6000803e3d6000fd5b505050506040513d601f19601f820116820180604052508101906134289190615445565b6020015160045490915080613441575060009392505050565b60405163020604bf60e21b8152600481018290526001600160a01b03808616919084169063081812fc9060240160206040518083038186803b15801561348657600080fd5b505afa15801561349a573d6000803e3d6000fd5b505050506040513d601f19601f820116820180604052508101906134be91906154b6565b6001600160a01b0316148061157357506040516331a9108f60e11b8152600481018290526001600160a01b038086169190841690636352211e9060240160206040518083038186803b15801561351357600080fd5b505afa158015613527573d6000803e3d6000fd5b505050506040513d601f19601f8201168201806040525081019061354b91906154b6565b6001600160a01b031614949350505050565b6060613568836148b3565b60405180604001604052806004815260200163494e564160e01b815250906135a35760405162461bcd60e51b815260040161075b9190615038565b5081518351146040518060400160405280600381526020016224a72b60e91b815250906135e35760405162461bcd60e51b815260040161075b9190615038565b506120a1600280548060200260200160405190810160405280929190818152602001828054801561363d57602002820191906000526020600020905b81546001600160a01b0316815260019091019060200180831161361f575b50505050508484613dab565b60608251600114604051806040016040528060048152602001631253959360e21b8152509061368b5760405162461bcd60e51b815260040161075b9190615038565b50600b54600a546001600160a01b03918216911660006136a96119d6565b6006549091506001600160a01b039081169082166137b757806001600160a01b0316632ace0897886000815181106136e3576136e36154d3565b602090810291909101015160015460405160e084901b6001600160e01b031916815260048101929092526001600160a01b03166024820152604401600060405180830381600087803b15801561373857600080fd5b505af115801561374c573d6000803e3d6000fd5b505050506040513d6000823e601f3d908101601f1916820160405261377491908101906159c9565b94506137ae888660008151811061378d5761378d6154d3565b6020026020010151866001600160a01b03166132019092919063ffffffff16565b505050506120a1565b6000876000815181106137cc576137cc6154d3565b6020908102919091010151600154600e546040516376e1a76760e11b81526001600160a01b0392831660048201528683166024820152908216604482015291925083169063edc34ece90606401600060405180830381600087803b15801561383357600080fd5b505af1158015613847573d6000803e3d6000fd5b5050600e546040516370a0823160e01b81526001600160a01b038781166004830152868116945063f022c7989350909116906370a082319060240160206040518083038186803b15801561389a57600080fd5b505afa1580156138ae573d6000803e3d6000fd5b505050506040513d601f19601f820116820180604052508101906138d2919061550b565b600154600c5460405160e085901b6001600160e01b031916815260048101939093526001600160a01b039091166024830152600f0b6044820152606401600060405180830381600087803b15801561392957600080fd5b505af115801561393d573d6000803e3d6000fd5b5050600954604051630c64865760e21b81526001600160a01b038781166004830152600094509091169150633192195c9060240160606040518083038186803b15801561398957600080fd5b505afa15801561399d573d6000803e3d6000fd5b505050506040513d601f19601f820116820180604052508101906139c19190615943565b6040516370a0823160e01b81526001600160a01b0388811660048301529194506000935090881691506370a082319060240160206040518083038186803b158015613a0b57600080fd5b505afa158015613a1f573d6000803e3d6000fd5b505050506040513d601f19601f82011682018060405250810190613a43919061550b565b9050613a5082600161592b565b811015613ae8576001600160a01b038416630dfbab94888884613a7487600161592b565b613a7e9190615595565b6001546040516001600160e01b031960e087901b168152613ab5949392916000916001600160a01b03909116908d90600401615a4e565b600060405180830381600087803b158015613acf57600080fd5b505af1158015613ae3573d6000803e3d6000fd5b505050505b6040516370a0823160e01b81526001600160a01b038681166004830152600091908916906370a082319060240160206040518083038186803b158015613b2d57600080fd5b505afa158015613b41573d6000803e3d6000fd5b505050506040513d601f19601f82011682018060405250810190613b65919061550b565b90508381108015613b885750876001600160a01b0316876001600160a01b031614155b15613c19576001600160a01b038516630dfbab94888a613ba88589615595565b613bb388600161592b565b6001546040516001600160e01b031960e088901b168152613be695949392916001600160a01b0316908e90600401615a4e565b600060405180830381600087803b158015613c0057600080fd5b505af1158015613c14573d6000803e3d6000fd5b505050505b6040805160008082526020820190925281613c57565b604080518082019091526000815260606020820152815260200190600190039081613c2f5790505b506008546040516317dcfefb60e21b81529192506001600160a01b031690635f73fbec90613c9090309060009081908790600401615a88565b600060405180830381600087803b158015613caa57600080fd5b505af1158015613cbe573d6000803e3d6000fd5b50506040516370a0823160e01b81523060048201526001600160a01b038c1692506370a08231915060240160206040518083038186803b158015613d0157600080fd5b505afa158015613d15573d6000803e3d6000fd5b505050506040513d601f19601f82011682018060405250810190613d39919061550b565b915084821015613d47578194505b613d5b6001600160a01b038a168e87613201565b6040805160018082528183019092529060208083019080368337019050509950848a600081518110613d8f57613d8f6154d3565b6020026020010181815250505050505050505050509392505050565b6060600084516001600160401b03811115613dc857613dc8614b61565b604051908082528060200260200182016040528015613df1578160200160208202803683370190505b5090506000805b865182108015613e085750855181105b15613f8757858181518110613e1f57613e1f6154d3565b60200260200101516001600160a01b0316878381518110613e4257613e426154d3565b60200260200101516001600160a01b03161015613e8a576000838381518110613e6d57613e6d6154d3565b602090810291909101015281613e828161553a565b925050613df8565b858181518110613e9c57613e9c6154d3565b60200260200101516001600160a01b0316878381518110613ebf57613ebf6154d3565b60200260200101516001600160a01b03161115613f3857848181518110613ee857613ee86154d3565b602002602001015160001415613f0a5780613f028161553a565b915050613df8565b60405162461bcd60e51b815260206004820152600360248201526254505360e81b604482015260640161075b565b848181518110613f4a57613f4a6154d3565b6020026020010151838381518110613f6457613f646154d3565b602090810291909101015281613f798161553a565b9250508080613f029061553a565b8651821015613fc1576000838381518110613fa457613fa46154d3565b602090810291909101015281613fb98161553a565b925050613f87565b509095945050505050565b612a10846323b872dd60e01b85858560405160240161322d93929190615817565b6004805460408051808201909152918252631253925560e21b6020830152156140295760405162461bcd60e51b815260040161075b9190615038565b50614033826148b3565b60405180604001604052806004815260200163494e564160e01b8152509061406e5760405162461bcd60e51b815260040161075b9190615038565b506040805180820190915260028152612b2d60f11b6020820152816140a65760405162461bcd60e51b815260040161075b9190615038565b506000336001600160a01b0316637ac46fbb6040518163ffffffff1660e01b815260040160606040518083038186803b1580156140e257600080fd5b505afa1580156140f6573d6000803e3d6000fd5b505050506040513d601f19601f8201168201806040525081019061411a9190615445565b5183519091501580159061419f5750806001600160a01b03166378546fa26040518163ffffffff1660e01b815260040160206040518083038186803b15801561416257600080fd5b505afa158015614176573d6000803e3d6000fd5b505050506040513d601f19601f8201168201806040525081019061419a919061550b565b835111155b6040518060400160405280600381526020016224a72b60e91b815250906141d95760405162461bcd60e51b815260040161075b9190615038565b5060005b83518110156142dd57816001600160a01b03166363e85d2d858381518110614207576142076154d3565b60209081029190910101516040516001600160e01b031960e084901b1681526001600160a01b0390911660048201526003602482015260440160206040518083038186803b15801561425857600080fd5b505afa15801561426c573d6000803e3d6000fd5b505050506040513d601f19601f8201168201806040525081019061429091906154e9565b6040518060400160405280600381526020016223292160e91b815250906142ca5760405162461bcd60e51b815260040161075b9190615038565b50806142d58161553a565b9150506141dd565b50600180546001600160a01b031916331790558251614303906002906020860190614ac1565b50600482905560025460005b818110156144335761432281600161592b565b60036000878481518110614338576143386154d3565b60200260200101516001600160a01b03166001600160a01b03168152602001908152602001600020819055506000858281518110614378576143786154d3565b6020026020010151905060056002826001600160a01b031663313ce5676040518163ffffffff1660e01b815260040160206040518083038186803b1580156143bf57600080fd5b505afa1580156143d3573d6000803e3d6000fd5b505050506040513d601f19601f820116820180604052508101906143f79190615ab7565b6144019190615ada565b61440c90600a615be0565b815460018101835560009283526020909220909101555061442c8161553a565b905061430f565b50604051339032907f0f043e55a1ce0d7ce25125ccbc2800b540d83e21abf7250f0156c2091a28b2219061446a9088908890615bef565b60405180910390a350505050565b60608251600114604051806040016040528060048152602001631253959360e21b815250906144ba5760405162461bcd60e51b815260040161075b9190615038565b5060006144c56119d6565b90506001600160a01b038116156144de576144de6144e6565b509192915050565b6008546040805160018082528183019092526001600160a01b0390921691600091816020015b60408051808201909152600081526060602082015281526020019060019003908161450c57905050600954600b546040516370a0823160e01b81523060048201529293506001600160a01b039182169291169060009082906370a082319060240160206040518083038186803b15801561458557600080fd5b505afa158015614599573d6000803e3d6000fd5b505050506040513d601f19601f820116820180604052508101906145bd919061550b565b90506145d36001600160a01b0383168483613264565b6040518060400160405280866001600160a01b03168152602001635978103460e01b30858560405160240161460a93929190615817565b60408051601f198184030181529190526020810180516001600160e01b03166001600160e01b031990931692909217909152905284518590600090614651576146516154d3565b602090810291909101015260405163caa5c23f60e01b81526001600160a01b0386169063caa5c23f90614688908790600401615918565b600060405180830381600087803b1580156146a257600080fd5b505af11580156146b6573d6000803e3d6000fd5b505060405163095ea7b360e01b81526001600160a01b038681166004830152600060248301528516925063095ea7b39150604401602060405180830381600087803b15801561470457600080fd5b505af1158015614718573d6000803e3d6000fd5b505050506040513d601f19601f8201168201806040525081019061473c91906154e9565b505050505050565b60006301ffc9a760e01b6001600160e01b03198316148061070e57506001600160e01b0319821663305a640b60e21b1492915050565b60006147cf826040518060400160405280602081526020017f5361666545524332303a206c6f772d6c6576656c2063616c6c206661696c6564815250856001600160a01b03166149569092919063ffffffff16565b90508051600014806147f05750808060200190518101906147f091906154e9565b610d255760405162461bcd60e51b815260206004820152602a60248201527f5361666545524332303a204552433230206f7065726174696f6e20646964206e6044820152691bdd081cdd58d8d9595960b21b606482015260840161075b565b60008060008351604114604051806040016040528060048152602001631253959360e21b815250906148945760405162461bcd60e51b815260040161075b9190615038565b5050505060208101516040820151606090920151909260009190911a90565b60006002825110156148c757506001919050565b60005b600183516148d89190615595565b81101561494d57826148eb82600161592b565b815181106148fb576148fb6154d3565b60200260200101516001600160a01b031683828151811061491e5761491e6154d3565b60200260200101516001600160a01b03161061493d5750600092915050565b6149468161553a565b90506148ca565b50600192915050565b6060611573848460008585600080866001600160a01b0316858760405161497d91906156b9565b60006040518083038185875af1925050503d80600081146149ba576040519150601f19603f3d011682016040523d82523d6000602084013e6149bf565b606091505b50915091506149d0878383876149db565b979650505050505050565b60608315614a47578251614a40576001600160a01b0385163b614a405760405162461bcd60e51b815260206004820152601d60248201527f416464726573733a2063616c6c20746f206e6f6e2d636f6e7472616374000000604482015260640161075b565b5081611573565b6115738383815115614a5c5781518083602001fd5b8060405162461bcd60e51b815260040161075b9190615038565b828054828255906000526020600020908101928215614ab1579160200282015b82811115614ab1578251825591602001919060010190614a96565b50614abd929150614b16565b5090565b828054828255906000526020600020908101928215614ab1579160200282015b82811115614ab157825182546001600160a01b0319166001600160a01b03909116178255602090920191600190910190614ae1565b5b80821115614abd5760008155600101614b17565b6001600160e01b031981168114614b4157600080fd5b50565b600060208284031215614b5657600080fd5b81356120a181614b2b565b634e487b7160e01b600052604160045260246000fd5b604080519081016001600160401b0381118282101715614b9957614b99614b61565b60405290565b60405160a081016001600160401b0381118282101715614b9957614b99614b61565b604051601f8201601f191681016001600160401b0381118282101715614be957614be9614b61565b604052919050565b60006001600160401b03821115614c0a57614c0a614b61565b5060051b60200190565b6001600160a01b0381168114614b4157600080fd5b8035610b8781614c14565b600082601f830112614c4557600080fd5b81356020614c5a614c5583614bf1565b614bc1565b82815260059290921b84018101918181019086841115614c7957600080fd5b8286015b84811015614c9d578035614c9081614c14565b8352918301918301614c7d565b509695505050505050565b600060208284031215614cba57600080fd5b81356001600160401b03811115614cd057600080fd5b61157384828501614c34565b600081518084526020808501945080840160005b83811015614d0c57815187529582019590820190600101614cf0565b509495945050505050565b6020815260006120a16020830184614cdc565b60008060408385031215614d3d57600080fd5b82359150602083013561ffff81168114614d5657600080fd5b809150509250929050565b600082601f830112614d7257600080fd5b81356001600160401b03811115614d8b57614d8b614b61565b614d9e601f8201601f1916602001614bc1565b818152846020838601011115614db357600080fd5b816020850160208301376000918101602001919091529392505050565b60008060408385031215614de357600080fd5b8235915060208301356001600160401b03811115614e0057600080fd5b614e0c85828601614d61565b9150509250929050565b6020808252825182820181905260009190848201906040850190845b81811015614e4e57835183529284019291840191600101614e32565b50909695505050505050565b600082601f830112614e6b57600080fd5b81356020614e7b614c5583614bf1565b82815260059290921b84018101918181019086841115614e9a57600080fd5b8286015b84811015614c9d5780358352918301918301614e9e565b60008060008060808587031215614ecb57600080fd5b8435614ed681614c14565b935060208501356001600160401b0380821115614ef257600080fd5b614efe88838901614c34565b94506040870135915080821115614f1457600080fd5b614f2088838901614e5a565b93506060870135915080821115614f3657600080fd5b50614f4387828801614d61565b91505092959194509250565b60008060008060608587031215614f6557600080fd5b8435614f7081614c14565b93506020850135614f8081614b2b565b925060408501356001600160401b0380821115614f9c57600080fd5b818701915087601f830112614fb057600080fd5b813581811115614fbf57600080fd5b886020828501011115614fd157600080fd5b95989497505060200194505050565b60005b83811015614ffb578181015183820152602001614fe3565b83811115612a105750506000910152565b60008151808452615024816020860160208601614fe0565b601f01601f19169290920160200192915050565b6020815260006120a1602083018461500c565b60006020828403121561505d57600080fd5b81356120a181614c14565b60008060006060848603121561507d57600080fd5b8335925060208401356001600160401b0381111561509a57600080fd5b6150a686828701614c34565b92505060408401356150b781614c14565b809150509250925092565b6000806000606084860312156150d757600080fd5b83356001600160401b03808211156150ee57600080fd5b6150fa87838801614c34565b9450602086013591508082111561511057600080fd5b61511c87838801614e5a565b9350604086013591508082111561513257600080fd5b5061513f86828701614d61565b9150509250925092565b600081518084526020808501945080840160005b83811015614d0c5781516001600160a01b03168752958201959082019060010161515d565b6020815260006120a16020830184615149565b6000602082840312156151a757600080fd5b5035919050565b600060208083850312156151c157600080fd5b82356001600160401b03808211156151d857600080fd5b818501915085601f8301126151ec57600080fd5b81356151fa614c5582614bf1565b81815260059190911b8301840190848101908883111561521957600080fd5b8585015b83811015615298578035858111156152355760008081fd5b86016040818c03601f190181131561524d5760008081fd5b615255614b77565b8983013561526281614c14565b81529082013590878211156152775760008081fd5b6152858d8b84860101614d61565b818b01528552505091860191860161521d565b5098975050505050505050565b6000806000606084860312156152ba57600080fd5b83359250602080850135925060408501356001600160401b038111156152df57600080fd5b8501601f810187136152f057600080fd5b80356152fe614c5582614bf1565b81815260059190911b8201830190838101908983111561531d57600080fd5b928401925b8284101561533b57833582529284019290840190615322565b80955050505050509250925092565b60408152600061535d6040830185614cdc565b828103602084015261536f8185614cdc565b95945050505050565b6000806000806080858703121561538e57600080fd5b843561539981614c14565b935060208501356001600160401b03808211156153b557600080fd5b9086019060a082890312156153c957600080fd5b6153d1614b9f565b8235828111156153e057600080fd5b6153ec8a828601614d61565b825250602083013591506153ff82614c14565b81602082015260408301356040820152606083013560608201526080830135608082015280955050505061543560408601614c29565b9396929550929360600135925050565b60006060828403121561545757600080fd5b604051606081018181106001600160401b038211171561547957615479614b61565b604052825161548781614c14565b8152602083015161549781614c14565b602082015260408301516154aa81614c14565b60408201529392505050565b6000602082840312156154c857600080fd5b81516120a181614c14565b634e487b7160e01b600052603260045260246000fd5b6000602082840312156154fb57600080fd5b815180151581146120a157600080fd5b60006020828403121561551d57600080fd5b5051919050565b634e487b7160e01b600052601160045260246000fd5b600060001982141561554e5761554e615524565b5060010190565b6001600160a01b038416815260606020820181905260009061557990830185615149565b828103604084015261558b8185614cdc565b9695505050505050565b6000828210156155a7576155a7615524565b500390565b634e487b7160e01b600052601260045260246000fd5b6000826155d1576155d16155ac565b500490565b828152604060208201526000611573604083018461500c565b60006020828403121561560157600080fd5b81516120a181614b2b565b6001600160a01b038316815260406020820181905260009061157390830184614cdc565b6001600160a01b03878116825286166020820152604081018590526001600160e01b03198416606082015260a06080820181905281018290526000828460c0840137600060c0848401015260c0601f19601f8501168301019050979650505050505050565b6001600160e01b031984168152818360048301376000910160040190815292915050565b600082516156cb818460208701614fe0565b9190910192915050565b600060a082840312156156e757600080fd5b60405160a081018181106001600160401b038211171561570957615709614b61565b604052825161571781614c14565b8152602083015161572781614c14565b6020820152604083015161573a81614c14565b6040820152606083015161574d81614c14565b60608201526080928301519281019290925250919050565b60008060006060848603121561577a57600080fd5b835180600f0b811461578b57600080fd5b602085015190935061579c81614c14565b80925050604084015190509250925092565b600060808201868352602060018060a01b038716818501528560408501526080606085015281855480845260a0860191508660005282600020935060005b81811015615808578454835260019485019492840192016157ec565b50909998505050505050505050565b6001600160a01b039384168152919092166020820152604081019190915260600190565b6000806040838503121561584e57600080fd5b505080516020909101519092909150565b97885260208801969096526001600160a01b0394851660408801526060870193909352600f9190910b608086015260a0850152811660c08401521660e08201526101000190565b600081518084526020808501808196508360051b8101915082860160005b8581101561590b578284038952815180516001600160a01b0316855285015160408686018190526158f78187018361500c565b9a87019a95505050908401906001016158c4565b5091979650505050505050565b6020815260006120a160208301846158a6565b6000821982111561593e5761593e615524565b500190565b60008060006060848603121561595857600080fd5b8351925060208401519150604084015190509250925092565b602081526000825160a0602084015261598d60c084018261500c565b905060018060a01b0360208501511660408401526040840151606084015260608401516080840152608084015160a08401528091505092915050565b600060208083850312156159dc57600080fd5b82516001600160401b038111156159f257600080fd5b8301601f81018513615a0357600080fd5b8051615a11614c5582614bf1565b81815260059190911b82018301908381019087831115615a3057600080fd5b928401925b828410156149d057835182529284019290840190615a35565b6001600160a01b0396871681529486166020860152604085019390935260608401919091528316608083015290911660a082015260c00190565b60018060a01b0385168152836020820152821515604082015260806060820152600061558b60808301846158a6565b600060208284031215615ac957600080fd5b815160ff811681146120a157600080fd5b600060ff831680615aed57615aed6155ac565b8060ff84160491505092915050565b600181815b80851115615b37578160001904821115615b1d57615b1d615524565b80851615615b2a57918102915b93841c9390800290615b01565b509250929050565b600082615b4e5750600161070e565b81615b5b5750600061070e565b8160018114615b715760028114615b7b57615b97565b600191505061070e565b60ff841115615b8c57615b8c615524565b50506001821b61070e565b5060208310610133831016604e8410600b8410161715615bba575081810a61070e565b615bc48383615afc565b8060001904821115615bd857615bd8615524565b029392505050565b60006120a160ff841683615b3f565b604081526000615c026040830185615149565b9050826020830152939250505056fea26469706673582212209ea430755f686858e23eec768ca45a61ad31cc5b30887d1d0ee66dae42ca9aa764736f6c63430008090033",
    "linkReferences": {}
  },
  "methodIdentifiers": {
    "D7()": "e4bec4f0",
    "D9()": "551530ae",
    "adjustPosition()": "67f34f49",
    "convexOutputToken()": "6b3cff53",
    "creditFacade()": "2f7a1881",
    "creditManager()": "c12c21c0",
    "depositToken()": "c89039c5",
    "externalCall(address,bytes4,bytes)": "2e2f4cc2",
    "getAllAssetsOnCreditAccountValue()": "636a411d",
    "getClaimableRewardsValue()": "ce1f65e4",
    "getCreditAccount()": "43b8865d",
    "getMerkleProof()": "1aa2829a",
    "initialize(uint256,address[],address)": "52af719f",
    "initialized()": "158ef93e",
    "isValidSignature(bytes32,bytes)": "1626ba7e",
    "isVaultToken(address)": "338c4ccb",
    "marginalFactorD9()": "f4b9b143",
    "merkleIndex()": "49288e39",
    "merkleTotalAmount()": "d37c4707",
    "multicall((address,bytes)[])": "caa5c23f",
    "nft()": "47ccca02",
    "openCreditAccount()": "5aba4b24",
    "openCreditAccountInManager(uint256,uint16)": "0fae7ae7",
    "poolId()": "3e0dc34e",
    "primaryIndex()": "ea8d87a3",
    "primaryToken()": "91ac094c",
    "pull(address,address[],uint256[],bytes)": "2062d754",
    "pullExistentials()": "d2c219b0",
    "push(address[],uint256[],bytes)": "566ca6b4",
    "reclaimTokens(address[])": "05e1c942",
    "setMerkleParameters(uint256,uint256,bytes32[])": "d769e433",
    "supportsInterface(bytes4)": "01ffc9a7",
    "swap(address,(bytes,address,uint256,uint256,uint256),address,uint256)": "f7283796",
    "transferAndPush(address,address[],uint256[],bytes)": "27a35e5a",
    "tvl()": "e5328e06",
    "updateTargetMarginalFactor(uint256)": "85c3c33e",
    "vaultGovernance()": "fe255a5e",
    "vaultTokens()": "69722233"
  },
  "id": 463
}