{
  "abi": [
    {
      "inputs": [
        {
          "internalType": "int24",
          "name": "tick",
          "type": "int24"
        },
        {
          "components": [
            {
              "internalType": "int24",
              "name": "halfOfShortInterval",
              "type": "int24"
            },
            {
              "internalType": "int24",
              "name": "tickNeighborhood",
              "type": "int24"
            },
            {
              "internalType": "int24",
              "name": "domainLowerTick",
              "type": "int24"
            },
            {
              "internalType": "int24",
              "name": "domainUpperTick",
              "type": "int24"
            }
          ],
          "internalType": "struct HStrategy.StrategyParams",
          "name": "strategyParams_",
          "type": "tuple"
        },
        {
          "internalType": "uint256",
          "name": "uniV3Nft",
          "type": "uint256"
        },
        {
          "internalType": "contract INonfungiblePositionManager",
          "name": "positionManager_",
          "type": "address"
        }
      ],
      "name": "calculateAndCheckDomainPositionParams",
      "outputs": [
        {
          "components": [
            {
              "internalType": "uint256",
              "name": "nft",
              "type": "uint256"
            },
            {
              "internalType": "uint128",
              "name": "liquidity",
              "type": "uint128"
            },
            {
              "internalType": "int24",
              "name": "lowerTick",
              "type": "int24"
            },
            {
              "internalType": "int24",
              "name": "upperTick",
              "type": "int24"
            },
            {
              "internalType": "int24",
              "name": "domainLowerTick",
              "type": "int24"
            },
            {
              "internalType": "int24",
              "name": "domainUpperTick",
              "type": "int24"
            },
            {
              "internalType": "uint160",
              "name": "lowerPriceSqrtX96",
              "type": "uint160"
            },
            {
              "internalType": "uint160",
              "name": "upperPriceSqrtX96",
              "type": "uint160"
            },
            {
              "internalType": "uint160",
              "name": "domainLowerPriceSqrtX96",
              "type": "uint160"
            },
            {
              "internalType": "uint160",
              "name": "domainUpperPriceSqrtX96",
              "type": "uint160"
            },
            {
              "internalType": "uint160",
              "name": "intervalPriceSqrtX96",
              "type": "uint160"
            },
            {
              "internalType": "uint256",
              "name": "spotPriceX96",
              "type": "uint256"
            }
          ],
          "internalType": "struct HStrategy.DomainPositionParams",
          "name": "params",
          "type": "tuple"
        }
      ],
      "stateMutability": "view",
      "type": "function"
    },
    {
      "inputs": [
        {
          "components": [
            {
              "internalType": "uint256",
              "name": "nft",
              "type": "uint256"
            },
            {
              "internalType": "uint128",
              "name": "liquidity",
              "type": "uint128"
            },
            {
              "internalType": "int24",
              "name": "lowerTick",
              "type": "int24"
            },
            {
              "internalType": "int24",
              "name": "upperTick",
              "type": "int24"
            },
            {
              "internalType": "int24",
              "name": "domainLowerTick",
              "type": "int24"
            },
            {
              "internalType": "int24",
              "name": "domainUpperTick",
              "type": "int24"
            },
            {
              "internalType": "uint160",
              "name": "lowerPriceSqrtX96",
              "type": "uint160"
            },
            {
              "internalType": "uint160",
              "name": "upperPriceSqrtX96",
              "type": "uint160"
            },
            {
              "internalType": "uint160",
              "name": "domainLowerPriceSqrtX96",
              "type": "uint160"
            },
            {
              "internalType": "uint160",
              "name": "domainUpperPriceSqrtX96",
              "type": "uint160"
            },
            {
              "internalType": "uint160",
              "name": "intervalPriceSqrtX96",
              "type": "uint160"
            },
            {
              "internalType": "uint256",
              "name": "spotPriceX96",
              "type": "uint256"
            }
          ],
          "internalType": "struct HStrategy.DomainPositionParams",
          "name": "params",
          "type": "tuple"
        },
        {
          "components": [
            {
              "internalType": "uint256",
              "name": "erc20Token0",
              "type": "uint256"
            },
            {
              "internalType": "uint256",
              "name": "erc20Token1",
              "type": "uint256"
            },
            {
              "internalType": "uint256",
              "name": "moneyToken0",
              "type": "uint256"
            },
            {
              "internalType": "uint256",
              "name": "moneyToken1",
              "type": "uint256"
            },
            {
              "internalType": "uint256",
              "name": "uniV3Token0",
              "type": "uint256"
            },
            {
              "internalType": "uint256",
              "name": "uniV3Token1",
              "type": "uint256"
            }
          ],
          "internalType": "struct HStrategy.TokenAmounts",
          "name": "currentTokenAmounts",
          "type": "tuple"
        }
      ],
      "name": "calculateCurrentCapitalInToken0",
      "outputs": [
        {
          "internalType": "uint256",
          "name": "capital",
          "type": "uint256"
        }
      ],
      "stateMutability": "pure",
      "type": "function"
    },
    {
      "inputs": [
        {
          "internalType": "contract IIntegrationVault",
          "name": "erc20Vault",
          "type": "address"
        },
        {
          "internalType": "contract IIntegrationVault",
          "name": "moneyVault",
          "type": "address"
        },
        {
          "components": [
            {
              "internalType": "uint256",
              "name": "nft",
              "type": "uint256"
            },
            {
              "internalType": "uint128",
              "name": "liquidity",
              "type": "uint128"
            },
            {
              "internalType": "int24",
              "name": "lowerTick",
              "type": "int24"
            },
            {
              "internalType": "int24",
              "name": "upperTick",
              "type": "int24"
            },
            {
              "internalType": "int24",
              "name": "domainLowerTick",
              "type": "int24"
            },
            {
              "internalType": "int24",
              "name": "domainUpperTick",
              "type": "int24"
            },
            {
              "internalType": "uint160",
              "name": "lowerPriceSqrtX96",
              "type": "uint160"
            },
            {
              "internalType": "uint160",
              "name": "upperPriceSqrtX96",
              "type": "uint160"
            },
            {
              "internalType": "uint160",
              "name": "domainLowerPriceSqrtX96",
              "type": "uint160"
            },
            {
              "internalType": "uint160",
              "name": "domainUpperPriceSqrtX96",
              "type": "uint160"
            },
            {
              "internalType": "uint160",
              "name": "intervalPriceSqrtX96",
              "type": "uint160"
            },
            {
              "internalType": "uint256",
              "name": "spotPriceX96",
              "type": "uint256"
            }
          ],
          "internalType": "struct HStrategy.DomainPositionParams",
          "name": "params",
          "type": "tuple"
        }
      ],
      "name": "calculateCurrentTokenAmounts",
      "outputs": [
        {
          "components": [
            {
              "internalType": "uint256",
              "name": "erc20Token0",
              "type": "uint256"
            },
            {
              "internalType": "uint256",
              "name": "erc20Token1",
              "type": "uint256"
            },
            {
              "internalType": "uint256",
              "name": "moneyToken0",
              "type": "uint256"
            },
            {
              "internalType": "uint256",
              "name": "moneyToken1",
              "type": "uint256"
            },
            {
              "internalType": "uint256",
              "name": "uniV3Token0",
              "type": "uint256"
            },
            {
              "internalType": "uint256",
              "name": "uniV3Token1",
              "type": "uint256"
            }
          ],
          "internalType": "struct HStrategy.TokenAmounts",
          "name": "amounts",
          "type": "tuple"
        }
      ],
      "stateMutability": "nonpayable",
      "type": "function"
    },
    {
      "inputs": [
        {
          "components": [
            {
              "internalType": "uint256",
              "name": "nft",
              "type": "uint256"
            },
            {
              "internalType": "uint128",
              "name": "liquidity",
              "type": "uint128"
            },
            {
              "internalType": "int24",
              "name": "lowerTick",
              "type": "int24"
            },
            {
              "internalType": "int24",
              "name": "upperTick",
              "type": "int24"
            },
            {
              "internalType": "int24",
              "name": "domainLowerTick",
              "type": "int24"
            },
            {
              "internalType": "int24",
              "name": "domainUpperTick",
              "type": "int24"
            },
            {
              "internalType": "uint160",
              "name": "lowerPriceSqrtX96",
              "type": "uint160"
            },
            {
              "internalType": "uint160",
              "name": "upperPriceSqrtX96",
              "type": "uint160"
            },
            {
              "internalType": "uint160",
              "name": "domainLowerPriceSqrtX96",
              "type": "uint160"
            },
            {
              "internalType": "uint160",
              "name": "domainUpperPriceSqrtX96",
              "type": "uint160"
            },
            {
              "internalType": "uint160",
              "name": "intervalPriceSqrtX96",
              "type": "uint160"
            },
            {
              "internalType": "uint256",
              "name": "spotPriceX96",
              "type": "uint256"
            }
          ],
          "internalType": "struct HStrategy.DomainPositionParams",
          "name": "domainPositionParams",
          "type": "tuple"
        }
      ],
      "name": "calculateExpectedRatios",
      "outputs": [
        {
          "components": [
            {
              "internalType": "uint32",
              "name": "token0RatioD",
              "type": "uint32"
            },
            {
              "internalType": "uint32",
              "name": "token1RatioD",
              "type": "uint32"
            },
            {
              "internalType": "uint32",
              "name": "uniV3RatioD",
              "type": "uint32"
            }
          ],
          "internalType": "struct HStrategy.ExpectedRatios",
          "name": "ratios",
          "type": "tuple"
        }
      ],
      "stateMutability": "pure",
      "type": "function"
    },
    {
      "inputs": [
        {
          "components": [
            {
              "internalType": "uint256",
              "name": "erc20Token0",
              "type": "uint256"
            },
            {
              "internalType": "uint256",
              "name": "erc20Token1",
              "type": "uint256"
            },
            {
              "internalType": "uint256",
              "name": "moneyToken0",
              "type": "uint256"
            },
            {
              "internalType": "uint256",
              "name": "moneyToken1",
              "type": "uint256"
            },
            {
              "internalType": "uint256",
              "name": "uniV3Token0",
              "type": "uint256"
            },
            {
              "internalType": "uint256",
              "name": "uniV3Token1",
              "type": "uint256"
            }
          ],
          "internalType": "struct HStrategy.TokenAmounts",
          "name": "currentTokenAmounts",
          "type": "tuple"
        },
        {
          "components": [
            {
              "internalType": "uint256",
              "name": "nft",
              "type": "uint256"
            },
            {
              "internalType": "uint128",
              "name": "liquidity",
              "type": "uint128"
            },
            {
              "internalType": "int24",
              "name": "lowerTick",
              "type": "int24"
            },
            {
              "internalType": "int24",
              "name": "upperTick",
              "type": "int24"
            },
            {
              "internalType": "int24",
              "name": "domainLowerTick",
              "type": "int24"
            },
            {
              "internalType": "int24",
              "name": "domainUpperTick",
              "type": "int24"
            },
            {
              "internalType": "uint160",
              "name": "lowerPriceSqrtX96",
              "type": "uint160"
            },
            {
              "internalType": "uint160",
              "name": "upperPriceSqrtX96",
              "type": "uint160"
            },
            {
              "internalType": "uint160",
              "name": "domainLowerPriceSqrtX96",
              "type": "uint160"
            },
            {
              "internalType": "uint160",
              "name": "domainUpperPriceSqrtX96",
              "type": "uint160"
            },
            {
              "internalType": "uint160",
              "name": "intervalPriceSqrtX96",
              "type": "uint160"
            },
            {
              "internalType": "uint256",
              "name": "spotPriceX96",
              "type": "uint256"
            }
          ],
          "internalType": "struct HStrategy.DomainPositionParams",
          "name": "domainPositionParams",
          "type": "tuple"
        },
        {
          "internalType": "contract HStrategyHelper",
          "name": "hStrategyHelper_",
          "type": "address"
        },
        {
          "internalType": "contract UniV3Helper",
          "name": "uniV3Helper",
          "type": "address"
        },
        {
          "components": [
            {
              "internalType": "uint256",
              "name": "erc20CapitalRatioD",
              "type": "uint256"
            },
            {
              "internalType": "uint256",
              "name": "minCapitalDeviationD",
              "type": "uint256"
            },
            {
              "internalType": "uint256",
              "name": "minRebalanceDeviationD",
              "type": "uint256"
            }
          ],
          "internalType": "struct HStrategy.RatioParams",
          "name": "ratioParams",
          "type": "tuple"
        }
      ],
      "name": "calculateExpectedTokenAmounts",
      "outputs": [
        {
          "components": [
            {
              "internalType": "uint256",
              "name": "erc20Token0",
              "type": "uint256"
            },
            {
              "internalType": "uint256",
              "name": "erc20Token1",
              "type": "uint256"
            },
            {
              "internalType": "uint256",
              "name": "moneyToken0",
              "type": "uint256"
            },
            {
              "internalType": "uint256",
              "name": "moneyToken1",
              "type": "uint256"
            },
            {
              "internalType": "uint256",
              "name": "uniV3Token0",
              "type": "uint256"
            },
            {
              "internalType": "uint256",
              "name": "uniV3Token1",
              "type": "uint256"
            }
          ],
          "internalType": "struct HStrategy.TokenAmounts",
          "name": "expectedTokenAmounts",
          "type": "tuple"
        }
      ],
      "stateMutability": "pure",
      "type": "function"
    },
    {
      "inputs": [
        {
          "components": [
            {
              "internalType": "uint32",
              "name": "token0RatioD",
              "type": "uint32"
            },
            {
              "internalType": "uint32",
              "name": "token1RatioD",
              "type": "uint32"
            },
            {
              "internalType": "uint32",
              "name": "uniV3RatioD",
              "type": "uint32"
            }
          ],
          "internalType": "struct HStrategy.ExpectedRatios",
          "name": "expectedRatios",
          "type": "tuple"
        },
        {
          "components": [
            {
              "internalType": "uint256",
              "name": "erc20TokensAmountInToken0",
              "type": "uint256"
            },
            {
              "internalType": "uint256",
              "name": "moneyTokensAmountInToken0",
              "type": "uint256"
            },
            {
              "internalType": "uint256",
              "name": "uniV3TokensAmountInToken0",
              "type": "uint256"
            },
            {
              "internalType": "uint256",
              "name": "totalTokensInToken0",
              "type": "uint256"
            }
          ],
          "internalType": "struct HStrategy.TokenAmountsInToken0",
          "name": "expectedTokenAmountsInToken0",
          "type": "tuple"
        },
        {
          "components": [
            {
              "internalType": "uint256",
              "name": "nft",
              "type": "uint256"
            },
            {
              "internalType": "uint128",
              "name": "liquidity",
              "type": "uint128"
            },
            {
              "internalType": "int24",
              "name": "lowerTick",
              "type": "int24"
            },
            {
              "internalType": "int24",
              "name": "upperTick",
              "type": "int24"
            },
            {
              "internalType": "int24",
              "name": "domainLowerTick",
              "type": "int24"
            },
            {
              "internalType": "int24",
              "name": "domainUpperTick",
              "type": "int24"
            },
            {
              "internalType": "uint160",
              "name": "lowerPriceSqrtX96",
              "type": "uint160"
            },
            {
              "internalType": "uint160",
              "name": "upperPriceSqrtX96",
              "type": "uint160"
            },
            {
              "internalType": "uint160",
              "name": "domainLowerPriceSqrtX96",
              "type": "uint160"
            },
            {
              "internalType": "uint160",
              "name": "domainUpperPriceSqrtX96",
              "type": "uint160"
            },
            {
              "internalType": "uint160",
              "name": "intervalPriceSqrtX96",
              "type": "uint160"
            },
            {
              "internalType": "uint256",
              "name": "spotPriceX96",
              "type": "uint256"
            }
          ],
          "internalType": "struct HStrategy.DomainPositionParams",
          "name": "domainPositionParams",
          "type": "tuple"
        },
        {
          "internalType": "contract UniV3Helper",
          "name": "uniV3Helper",
          "type": "address"
        }
      ],
      "name": "calculateExpectedTokenAmountsByExpectedRatios",
      "outputs": [
        {
          "components": [
            {
              "internalType": "uint256",
              "name": "erc20Token0",
              "type": "uint256"
            },
            {
              "internalType": "uint256",
              "name": "erc20Token1",
              "type": "uint256"
            },
            {
              "internalType": "uint256",
              "name": "moneyToken0",
              "type": "uint256"
            },
            {
              "internalType": "uint256",
              "name": "moneyToken1",
              "type": "uint256"
            },
            {
              "internalType": "uint256",
              "name": "uniV3Token0",
              "type": "uint256"
            },
            {
              "internalType": "uint256",
              "name": "uniV3Token1",
              "type": "uint256"
            }
          ],
          "internalType": "struct HStrategy.TokenAmounts",
          "name": "amounts",
          "type": "tuple"
        }
      ],
      "stateMutability": "pure",
      "type": "function"
    },
    {
      "inputs": [
        {
          "internalType": "uint256",
          "name": "totalCapitalInToken0",
          "type": "uint256"
        },
        {
          "components": [
            {
              "internalType": "uint32",
              "name": "token0RatioD",
              "type": "uint32"
            },
            {
              "internalType": "uint32",
              "name": "token1RatioD",
              "type": "uint32"
            },
            {
              "internalType": "uint32",
              "name": "uniV3RatioD",
              "type": "uint32"
            }
          ],
          "internalType": "struct HStrategy.ExpectedRatios",
          "name": "expectedRatios",
          "type": "tuple"
        },
        {
          "components": [
            {
              "internalType": "uint256",
              "name": "erc20CapitalRatioD",
              "type": "uint256"
            },
            {
              "internalType": "uint256",
              "name": "minCapitalDeviationD",
              "type": "uint256"
            },
            {
              "internalType": "uint256",
              "name": "minRebalanceDeviationD",
              "type": "uint256"
            }
          ],
          "internalType": "struct HStrategy.RatioParams",
          "name": "ratioParams_",
          "type": "tuple"
        }
      ],
      "name": "calculateExpectedTokenAmountsInToken0",
      "outputs": [
        {
          "components": [
            {
              "internalType": "uint256",
              "name": "erc20TokensAmountInToken0",
              "type": "uint256"
            },
            {
              "internalType": "uint256",
              "name": "moneyTokensAmountInToken0",
              "type": "uint256"
            },
            {
              "internalType": "uint256",
              "name": "uniV3TokensAmountInToken0",
              "type": "uint256"
            },
            {
              "internalType": "uint256",
              "name": "totalTokensInToken0",
              "type": "uint256"
            }
          ],
          "internalType": "struct HStrategy.TokenAmountsInToken0",
          "name": "amounts",
          "type": "tuple"
        }
      ],
      "stateMutability": "pure",
      "type": "function"
    },
    {
      "inputs": [
        {
          "internalType": "contract IIntegrationVault",
          "name": "moneyVault",
          "type": "address"
        },
        {
          "components": [
            {
              "internalType": "uint256",
              "name": "erc20Token0",
              "type": "uint256"
            },
            {
              "internalType": "uint256",
              "name": "erc20Token1",
              "type": "uint256"
            },
            {
              "internalType": "uint256",
              "name": "moneyToken0",
              "type": "uint256"
            },
            {
              "internalType": "uint256",
              "name": "moneyToken1",
              "type": "uint256"
            },
            {
              "internalType": "uint256",
              "name": "uniV3Token0",
              "type": "uint256"
            },
            {
              "internalType": "uint256",
              "name": "uniV3Token1",
              "type": "uint256"
            }
          ],
          "internalType": "struct HStrategy.TokenAmounts",
          "name": "expectedTokenAmounts",
          "type": "tuple"
        }
      ],
      "name": "calculateExtraTokenAmountsForMoneyVault",
      "outputs": [
        {
          "internalType": "uint256[]",
          "name": "tokenAmounts",
          "type": "uint256[]"
        }
      ],
      "stateMutability": "view",
      "type": "function"
    },
    {
      "inputs": [
        {
          "components": [
            {
              "internalType": "uint256",
              "name": "erc20Token0",
              "type": "uint256"
            },
            {
              "internalType": "uint256",
              "name": "erc20Token1",
              "type": "uint256"
            },
            {
              "internalType": "uint256",
              "name": "moneyToken0",
              "type": "uint256"
            },
            {
              "internalType": "uint256",
              "name": "moneyToken1",
              "type": "uint256"
            },
            {
              "internalType": "uint256",
              "name": "uniV3Token0",
              "type": "uint256"
            },
            {
              "internalType": "uint256",
              "name": "uniV3Token1",
              "type": "uint256"
            }
          ],
          "internalType": "struct HStrategy.TokenAmounts",
          "name": "expectedTokenAmounts",
          "type": "tuple"
        },
        {
          "components": [
            {
              "internalType": "uint256",
              "name": "nft",
              "type": "uint256"
            },
            {
              "internalType": "uint128",
              "name": "liquidity",
              "type": "uint128"
            },
            {
              "internalType": "int24",
              "name": "lowerTick",
              "type": "int24"
            },
            {
              "internalType": "int24",
              "name": "upperTick",
              "type": "int24"
            },
            {
              "internalType": "int24",
              "name": "domainLowerTick",
              "type": "int24"
            },
            {
              "internalType": "int24",
              "name": "domainUpperTick",
              "type": "int24"
            },
            {
              "internalType": "uint160",
              "name": "lowerPriceSqrtX96",
              "type": "uint160"
            },
            {
              "internalType": "uint160",
              "name": "upperPriceSqrtX96",
              "type": "uint160"
            },
            {
              "internalType": "uint160",
              "name": "domainLowerPriceSqrtX96",
              "type": "uint160"
            },
            {
              "internalType": "uint160",
              "name": "domainUpperPriceSqrtX96",
              "type": "uint160"
            },
            {
              "internalType": "uint160",
              "name": "intervalPriceSqrtX96",
              "type": "uint160"
            },
            {
              "internalType": "uint256",
              "name": "spotPriceX96",
              "type": "uint256"
            }
          ],
          "internalType": "struct HStrategy.DomainPositionParams",
          "name": "domainPositionParams",
          "type": "tuple"
        }
      ],
      "name": "calculateExtraTokenAmountsForUniV3Vault",
      "outputs": [
        {
          "internalType": "uint256[]",
          "name": "tokenAmounts",
          "type": "uint256[]"
        }
      ],
      "stateMutability": "pure",
      "type": "function"
    },
    {
      "inputs": [
        {
          "internalType": "contract IIntegrationVault",
          "name": "moneyVault",
          "type": "address"
        },
        {
          "components": [
            {
              "internalType": "uint256",
              "name": "erc20Token0",
              "type": "uint256"
            },
            {
              "internalType": "uint256",
              "name": "erc20Token1",
              "type": "uint256"
            },
            {
              "internalType": "uint256",
              "name": "moneyToken0",
              "type": "uint256"
            },
            {
              "internalType": "uint256",
              "name": "moneyToken1",
              "type": "uint256"
            },
            {
              "internalType": "uint256",
              "name": "uniV3Token0",
              "type": "uint256"
            },
            {
              "internalType": "uint256",
              "name": "uniV3Token1",
              "type": "uint256"
            }
          ],
          "internalType": "struct HStrategy.TokenAmounts",
          "name": "expectedTokenAmounts",
          "type": "tuple"
        },
        {
          "components": [
            {
              "internalType": "uint256",
              "name": "nft",
              "type": "uint256"
            },
            {
              "internalType": "uint128",
              "name": "liquidity",
              "type": "uint128"
            },
            {
              "internalType": "int24",
              "name": "lowerTick",
              "type": "int24"
            },
            {
              "internalType": "int24",
              "name": "upperTick",
              "type": "int24"
            },
            {
              "internalType": "int24",
              "name": "domainLowerTick",
              "type": "int24"
            },
            {
              "internalType": "int24",
              "name": "domainUpperTick",
              "type": "int24"
            },
            {
              "internalType": "uint160",
              "name": "lowerPriceSqrtX96",
              "type": "uint160"
            },
            {
              "internalType": "uint160",
              "name": "upperPriceSqrtX96",
              "type": "uint160"
            },
            {
              "internalType": "uint160",
              "name": "domainLowerPriceSqrtX96",
              "type": "uint160"
            },
            {
              "internalType": "uint160",
              "name": "domainUpperPriceSqrtX96",
              "type": "uint160"
            },
            {
              "internalType": "uint160",
              "name": "intervalPriceSqrtX96",
              "type": "uint160"
            },
            {
              "internalType": "uint256",
              "name": "spotPriceX96",
              "type": "uint256"
            }
          ],
          "internalType": "struct HStrategy.DomainPositionParams",
          "name": "domainPositionParams",
          "type": "tuple"
        },
        {
          "internalType": "uint128",
          "name": "liquidity",
          "type": "uint128"
        }
      ],
      "name": "calculateMissingTokenAmounts",
      "outputs": [
        {
          "components": [
            {
              "internalType": "uint256",
              "name": "erc20Token0",
              "type": "uint256"
            },
            {
              "internalType": "uint256",
              "name": "erc20Token1",
              "type": "uint256"
            },
            {
              "internalType": "uint256",
              "name": "moneyToken0",
              "type": "uint256"
            },
            {
              "internalType": "uint256",
              "name": "moneyToken1",
              "type": "uint256"
            },
            {
              "internalType": "uint256",
              "name": "uniV3Token0",
              "type": "uint256"
            },
            {
              "internalType": "uint256",
              "name": "uniV3Token1",
              "type": "uint256"
            }
          ],
          "internalType": "struct HStrategy.TokenAmounts",
          "name": "missingTokenAmounts",
          "type": "tuple"
        }
      ],
      "stateMutability": "view",
      "type": "function"
    },
    {
      "inputs": [
        {
          "internalType": "int24",
          "name": "spotTick",
          "type": "int24"
        },
        {
          "components": [
            {
              "internalType": "int24",
              "name": "halfOfShortInterval",
              "type": "int24"
            },
            {
              "internalType": "int24",
              "name": "tickNeighborhood",
              "type": "int24"
            },
            {
              "internalType": "int24",
              "name": "domainLowerTick",
              "type": "int24"
            },
            {
              "internalType": "int24",
              "name": "domainUpperTick",
              "type": "int24"
            }
          ],
          "internalType": "struct HStrategy.StrategyParams",
          "name": "strategyParams_",
          "type": "tuple"
        }
      ],
      "name": "calculateNewPositionTicks",
      "outputs": [
        {
          "internalType": "int24",
          "name": "lowerTick",
          "type": "int24"
        },
        {
          "internalType": "int24",
          "name": "upperTick",
          "type": "int24"
        }
      ],
      "stateMutability": "pure",
      "type": "function"
    },
    {
      "inputs": [
        {
          "internalType": "int24",
          "name": "tick",
          "type": "int24"
        },
        {
          "internalType": "address",
          "name": "pool_",
          "type": "address"
        },
        {
          "components": [
            {
              "internalType": "uint32",
              "name": "averagePriceTimeSpan",
              "type": "uint32"
            },
            {
              "internalType": "uint24",
              "name": "maxTickDeviation",
              "type": "uint24"
            }
          ],
          "internalType": "struct HStrategy.OracleParams",
          "name": "oracleParams_",
          "type": "tuple"
        },
        {
          "internalType": "contract UniV3Helper",
          "name": "uniV3Helper",
          "type": "address"
        }
      ],
      "name": "checkSpotTickDeviationFromAverage",
      "outputs": [],
      "stateMutability": "view",
      "type": "function"
    },
    {
      "inputs": [
        {
          "components": [
            {
              "internalType": "uint256",
              "name": "erc20Token0",
              "type": "uint256"
            },
            {
              "internalType": "uint256",
              "name": "erc20Token1",
              "type": "uint256"
            },
            {
              "internalType": "uint256",
              "name": "moneyToken0",
              "type": "uint256"
            },
            {
              "internalType": "uint256",
              "name": "moneyToken1",
              "type": "uint256"
            },
            {
              "internalType": "uint256",
              "name": "uniV3Token0",
              "type": "uint256"
            },
            {
              "internalType": "uint256",
              "name": "uniV3Token1",
              "type": "uint256"
            }
          ],
          "internalType": "struct HStrategy.TokenAmounts",
          "name": "currentTokenAmounts",
          "type": "tuple"
        },
        {
          "components": [
            {
              "internalType": "uint256",
              "name": "erc20Token0",
              "type": "uint256"
            },
            {
              "internalType": "uint256",
              "name": "erc20Token1",
              "type": "uint256"
            },
            {
              "internalType": "uint256",
              "name": "moneyToken0",
              "type": "uint256"
            },
            {
              "internalType": "uint256",
              "name": "moneyToken1",
              "type": "uint256"
            },
            {
              "internalType": "uint256",
              "name": "uniV3Token0",
              "type": "uint256"
            },
            {
              "internalType": "uint256",
              "name": "uniV3Token1",
              "type": "uint256"
            }
          ],
          "internalType": "struct HStrategy.TokenAmounts",
          "name": "expectedTokenAmounts",
          "type": "tuple"
        },
        {
          "components": [
            {
              "internalType": "uint256",
              "name": "erc20CapitalRatioD",
              "type": "uint256"
            },
            {
              "internalType": "uint256",
              "name": "minCapitalDeviationD",
              "type": "uint256"
            },
            {
              "internalType": "uint256",
              "name": "minRebalanceDeviationD",
              "type": "uint256"
            }
          ],
          "internalType": "struct HStrategy.RatioParams",
          "name": "ratioParams",
          "type": "tuple"
        },
        {
          "components": [
            {
              "internalType": "uint256",
              "name": "nft",
              "type": "uint256"
            },
            {
              "internalType": "uint128",
              "name": "liquidity",
              "type": "uint128"
            },
            {
              "internalType": "int24",
              "name": "lowerTick",
              "type": "int24"
            },
            {
              "internalType": "int24",
              "name": "upperTick",
              "type": "int24"
            },
            {
              "internalType": "int24",
              "name": "domainLowerTick",
              "type": "int24"
            },
            {
              "internalType": "int24",
              "name": "domainUpperTick",
              "type": "int24"
            },
            {
              "internalType": "uint160",
              "name": "lowerPriceSqrtX96",
              "type": "uint160"
            },
            {
              "internalType": "uint160",
              "name": "upperPriceSqrtX96",
              "type": "uint160"
            },
            {
              "internalType": "uint160",
              "name": "domainLowerPriceSqrtX96",
              "type": "uint160"
            },
            {
              "internalType": "uint160",
              "name": "domainUpperPriceSqrtX96",
              "type": "uint160"
            },
            {
              "internalType": "uint160",
              "name": "intervalPriceSqrtX96",
              "type": "uint160"
            },
            {
              "internalType": "uint256",
              "name": "spotPriceX96",
              "type": "uint256"
            }
          ],
          "internalType": "struct HStrategy.DomainPositionParams",
          "name": "domainPositionParams",
          "type": "tuple"
        }
      ],
      "name": "swapNeeded",
      "outputs": [
        {
          "internalType": "bool",
          "name": "needed",
          "type": "bool"
        }
      ],
      "stateMutability": "pure",
      "type": "function"
    },
    {
      "inputs": [
        {
          "components": [
            {
              "internalType": "uint256",
              "name": "erc20Token0",
              "type": "uint256"
            },
            {
              "internalType": "uint256",
              "name": "erc20Token1",
              "type": "uint256"
            },
            {
              "internalType": "uint256",
              "name": "moneyToken0",
              "type": "uint256"
            },
            {
              "internalType": "uint256",
              "name": "moneyToken1",
              "type": "uint256"
            },
            {
              "internalType": "uint256",
              "name": "uniV3Token0",
              "type": "uint256"
            },
            {
              "internalType": "uint256",
              "name": "uniV3Token1",
              "type": "uint256"
            }
          ],
          "internalType": "struct HStrategy.TokenAmounts",
          "name": "currentTokenAmounts",
          "type": "tuple"
        },
        {
          "components": [
            {
              "internalType": "uint256",
              "name": "erc20Token0",
              "type": "uint256"
            },
            {
              "internalType": "uint256",
              "name": "erc20Token1",
              "type": "uint256"
            },
            {
              "internalType": "uint256",
              "name": "moneyToken0",
              "type": "uint256"
            },
            {
              "internalType": "uint256",
              "name": "moneyToken1",
              "type": "uint256"
            },
            {
              "internalType": "uint256",
              "name": "uniV3Token0",
              "type": "uint256"
            },
            {
              "internalType": "uint256",
              "name": "uniV3Token1",
              "type": "uint256"
            }
          ],
          "internalType": "struct HStrategy.TokenAmounts",
          "name": "expectedTokenAmounts",
          "type": "tuple"
        },
        {
          "components": [
            {
              "internalType": "uint256",
              "name": "erc20CapitalRatioD",
              "type": "uint256"
            },
            {
              "internalType": "uint256",
              "name": "minCapitalDeviationD",
              "type": "uint256"
            },
            {
              "internalType": "uint256",
              "name": "minRebalanceDeviationD",
              "type": "uint256"
            }
          ],
          "internalType": "struct HStrategy.RatioParams",
          "name": "ratioParams",
          "type": "tuple"
        }
      ],
      "name": "tokenRebalanceNeeded",
      "outputs": [
        {
          "internalType": "bool",
          "name": "needed",
          "type": "bool"
        }
      ],
      "stateMutability": "pure",
      "type": "function"
    }
  ],
  "bytecode": {
    "object": "0x608060405234801561001057600080fd5b50612f37806100206000396000f3fe608060405234801561001057600080fd5b50600436106100ea5760003560e01c80638cbb18fb1161008c578063c446368511610066578063c446368514610217578063cb47719114610237578063e447ac281461024a578063fa1252501461026a57600080fd5b80638cbb18fb146101c45780638ed0e63f146101d7578063b86deb32146101f757600080fd5b806353726667116100c8578063537266671461014e57806364766cf714610171578063761244b01461018457806382a86fad1461019757600080fd5b8063240a72a1146100ef5780633ee1cd1014610118578063532dfcca14610139575b600080fd5b6101026100fd366004612019565b61027d565b60405161010f9190612075565b60405180910390f35b61012b6101263660046120b8565b6103f3565b60405190815260200161010f565b61014c610147366004612112565b610482565b005b61016161015c3660046121ec565b6105d3565b604051901515815260200161010f565b61010261017f366004612234565b6107da565b610161610192366004612274565b610a6c565b6101aa6101a5366004612337565b610b48565b60408051600293840b81529190920b60208201520161010f565b6101026101d23660046123b9565b610c8b565b6101ea6101e536600461243d565b610de7565b60405161010f919061245a565b61020a610205366004612487565b610fa8565b60405161010f91906125b7565b61022a6102253660046125c6565b611215565b60405161010f91906125fb565b610102610245366004612626565b6112a9565b61025d610258366004612696565b6114c8565b60405161010f91906126c3565b61025d610278366004612707565b611641565b610285611da0565b6000806102a18561014001518660c001518760e0015187611777565b608088015191935091508210156102c8578186608001516102c2919061274a565b60808401525b8560a001518110156102ea57808660a001516102e4919061274a565b60a08401525b50506000856001600160a01b031663e5328e066040518163ffffffff1660e01b815260040160006040518083038186803b15801561032757600080fd5b505afa15801561033b573d6000803e3d6000fd5b505050506040513d6000823e601f3d908101601f1916820160405261036391908101906127fc565b91505060008160008151811061037b5761037b612860565b6020026020010151905060008260018151811061039a5761039a612860565b6020026020010151905086604001518210156103c6578187604001516103c0919061274a565b60408501525b86606001518110156103e8578087606001516103e2919061274a565b60608501525b505050949350505050565b600061040d8260600151600160601b856101600151611813565b826040015161042a8460a00151600160601b876101600151611813565b84608001516104478660200151600160601b896101600151611813565b86516104539190612876565b61045d9190612876565b6104679190612876565b6104719190612876565b61047b9190612876565b9392505050565b815160405163451202fb60e11b8152600286900b60048201526001600160a01b03858116602483015263ffffffff9092166044820152600091829190841690638a2405f690606401604080518083038186803b1580156104e157600080fd5b505afa1580156104f5573d6000803e3d6000fd5b505050506040513d601f19601f8201168201806040525081019061051991906128a9565b9150915081156040518060400160405280600581526020016412539594d560da1b815250906105645760405162461bcd60e51b815260040161055b91906128e0565b60405180910390fd5b5060008160020b121561057d5761057a81612935565b90505b836020015162ffffff168162ffffff161115604051806040016040528060048152602001634c494d4f60e01b815250906105ca5760405162461bcd60e51b815260040161055b91906128e0565b50505050505050565b6000808360800151846040015185600001516105ef9190612876565b6105f99190612876565b905060008460a00151856060015186602001516106169190612876565b6106209190612876565b9050600061063d856020015184633b9aca0063ffffffff16611813565b9050600061065a866020015184633b9aca0063ffffffff16611813565b875189519192509061066d908490612876565b108061068557508651610681908390612876565b8851115b806106a2575086602001518189602001516106a09190612876565b105b806106bf57508087602001516106b89190612876565b8860200151115b156106d157600194505050505061047b565b86604001518289604001516106e69190612876565b108061070457508187604001516106fd9190612876565b8860400151115b806107215750866060015181896060015161071f9190612876565b105b8061073e57508087606001516107379190612876565b8860600151115b1561075057600194505050505061047b565b86608001518289608001516107659190612876565b1080610783575081876080015161077c9190612876565b8860800151115b806107a057508660a00151818960a0015161079e9190612876565b105b806107bd5750808760a001516107b69190612876565b8860a00151115b156107cf57600194505050505061047b565b505050509392505050565b6107e2611da0565b6107ff8261014001518360c001518460e001518560200151611777565b60a083015260808201526040516301ffc9a760e01b81526218026560e81b60048201526001600160a01b038416906301ffc9a79060240160206040518083038186803b15801561084e57600080fd5b505afa158015610862573d6000803e3d6000fd5b505050506040513d601f19601f820116820180604052508101906108869190612958565b156108df57826001600160a01b03166314b84bff6040518163ffffffff1660e01b8152600401600060405180830381600087803b1580156108c657600080fd5b505af11580156108da573d6000803e3d6000fd5b505050505b6000836001600160a01b031663e5328e066040518163ffffffff1660e01b815260040160006040518083038186803b15801561091a57600080fd5b505afa15801561092e573d6000803e3d6000fd5b505050506040513d6000823e601f3d908101601f1916820160405261095691908101906127fc565b5090508060008151811061096c5761096c612860565b60200260200101518260400181815250508060018151811061099057610990612860565b6020026020010151826060018181525050506000846001600160a01b031663e5328e066040518163ffffffff1660e01b815260040160006040518083038186803b1580156109dd57600080fd5b505afa1580156109f1573d6000803e3d6000fd5b505050506040513d6000823e601f3d908101601f19168201604052610a1991908101906127fc565b50905080600081518110610a2f57610a2f612860565b602002602001015182600001818152505080600181518110610a5357610a53612860565b6020026020010151826020018181525050509392505050565b600080846080015185604001518660000151610a889190612876565b610a929190612876565b905060008560a0015186606001518760200151610aaf9190612876565b610ab99190612876565b90506000876080015188604001518960000151610ad69190612876565b610ae09190612876565b90506000610aee8483612973565b90506000811215610b0557610b02816129b2565b90505b6000610b37610b1e85600160601b8a6101600151611813565b610b289087612876565b60408a0151633b9aca00611813565b909112159998505050505050505050565b600080826040015160020b8460020b1215610b695782604001519350610b83565b826060015160020b8460020b1315610b8357826060015193505b6000836040015185610b9591906129cf565b8451909150610ba49082612a2d565b610bae90826129cf565b90506000818560400151610bc29190612a4f565b8551909150600090610bd49083612a4f565b90506000610be288836129cf565b60020b610bef848a6129cf565b60020b13610bfe575081610c01565b50805b8651610c0d90826129cf565b8751909650610c1c9082612a4f565b9450866040015160020b8660020b1215610c515760408701518751909650610c4a9060020b60011b87612a4f565b9450610c80565b866060015160020b8560020b1315610c805760608701518751909550610c7d9060020b60011b866129cf565b95505b505050509250929050565b610c93611da0565b845184516020870151610cbd9263ffffffff81169291610cb291612a96565b63ffffffff16611813565b8082528451610cdf91610ccf9161274a565b846101600151600160601b611813565b60208083019190915285518582015191870151610d099263ffffffff8316929091610cb291612a96565b604082018190526020850151610d2291610ccf9161274a565b606082015260c083015160e0840151610140850151610160860151604088810151905163faa0b1d560e01b81526001600160a01b03958616600482015293851660248501529184166044840152606483015260848201529083169063faa0b1d59060a401604080518083038186803b158015610d9d57600080fd5b505afa158015610db1573d6000803e3d6000fd5b505050506040513d601f19601f82011682018060405250810190610dd59190612abe565b60a08301526080820152949350505050565b60408051606081018252600080825260208201819052918101919091526000610e318361014001516001600160a01b0316600160601b8561012001516001600160a01b0316611813565b610e5c8461010001516001600160a01b0316600160601b8661014001516001600160a01b0316611813565b610e6b600160601b6002612ae2565b610e75919061274a565b610e7f919061274a565b90506000610eae8461014001516001600160a01b0316600160601b8661012001516001600160a01b0316611813565b610ed88561014001516001600160a01b0316600160601b8760e001516001600160a01b0316611813565b610ee2919061274a565b90506000610f118561010001516001600160a01b0316600160601b8761014001516001600160a01b0316611813565b610f3b8660c001516001600160a01b0316600160601b8861014001516001600160a01b0316611813565b610f45919061274a565b9050610f5682633b9aca0085611813565b63ffffffff168452610f6d81633b9aca0085611813565b63ffffffff16602085018190528451610f8a90633b9aca00612b01565b610f949190612b01565b63ffffffff16604085015250919392505050565b6040805161018081018252600080825260208201819052918101829052606081018290526080810182905260a0810182905260c0810182905260e081018290526101008101829052610120810182905261014081018290526101608101919091526000806000846001600160a01b03166399fbab88876040518263ffffffff1660e01b815260040161103c91815260200190565b6101806040518083038186803b15801561105557600080fd5b505afa158015611069573d6000803e3d6000fd5b505050506040513d601f19601f8201168201806040525081019061108d9190612b47565b505050509750975097505050505050604051806101800160405280878152602001826001600160801b031681526020018460020b81526020018360020b8152602001886040015160020b8152602001886060015160020b81526020016110f2856118c6565b6001600160a01b03168152602001611109846118c6565b6001600160a01b0316815260200161112489604001516118c6565b6001600160a01b0316815260200161113f89606001516118c6565b6001600160a01b031681526020016111568a6118c6565b6001600160a01b03168152602001600081525093506111968461014001516001600160a01b03168561014001516001600160a01b0316600160601b611813565b61016085015260c08401516101408501516001600160a01b03918216911610156111d35760c08401516001600160a01b03166101408501526103e8565b8360e001516001600160a01b03168461014001516001600160a01b031611156103e85760e08401516001600160a01b0316610140850152505050949350505050565b6112406040518060800160405280600081526020016000815260200160008152602001600081525090565b8151611252908590633b9aca00611813565b80825261127890611263908661274a565b604085015163ffffffff16633b9aca00611813565b60408201819052815161128b908661274a565b611295919061274a565b602082015260608101939093525090919050565b6112b1611da0565b604051638ed0e63f60e01b81526000906001600160a01b03861690638ed0e63f906112e09089906004016125b7565b60606040518083038186803b1580156112f857600080fd5b505afa15801561130c573d6000803e3d6000fd5b505050506040513d601f19601f820116820180604052508101906113309190612c28565b90506000856001600160a01b0316633ee1cd10888a6040518363ffffffff1660e01b8152600401611362929190612c9a565b60206040518083038186803b15801561137a57600080fd5b505afa15801561138e573d6000803e3d6000fd5b505050506040513d601f19601f820116820180604052508101906113b29190612ced565b90506000866001600160a01b031663c44636858385886040518463ffffffff1660e01b81526004016113e693929190612d06565b60806040518083038186803b1580156113fe57600080fd5b505afa158015611412573d6000803e3d6000fd5b505050506040513d601f19601f820116820180604052508101906114369190612d5c565b604051638cbb18fb60e01b81529091506001600160a01b03881690638cbb18fb9061146b90869085908d908c90600401612dc2565b60c06040518083038186803b15801561148357600080fd5b505afa158015611497573d6000803e3d6000fd5b505050506040513d601f19601f820116820180604052508101906114bb9190612e3f565b9998505050505050505050565b60408051600280825260608083018452926020830190803683370190505090506115058261014001518360c001518460e001518560200151611777565b8260008151811061151857611518612860565b602002602001018360018151811061153257611532612860565b602002602001018281525082815250505082608001518160008151811061155b5761155b612860565b6020026020010151111561159d5782608001518160008151811061158157611581612860565b60200260200101818151611595919061274a565b9052506115bf565b6000816000815181106115b2576115b2612860565b6020026020010181815250505b8260a00151816001815181106115d7576115d7612860565b60200260200101511115611619578260a00151816001815181106115fd576115fd612860565b60200260200101818151611611919061274a565b90525061163b565b60008160018151811061162e5761162e612860565b6020026020010181815250505b92915050565b6060826001600160a01b031663e5328e066040518163ffffffff1660e01b815260040160006040518083038186803b15801561167c57600080fd5b505afa158015611690573d6000803e3d6000fd5b505050506040513d6000823e601f3d908101601f191682016040526116b891908101906127fc565b50809150508160400151816000815181106116d5576116d5612860565b60200260200101511115611717578160400151816000815181106116fb576116fb612860565b6020026020010181815161170f919061274a565b905250611739565b60008160008151811061172c5761172c612860565b6020026020010181815250505b81606001518160018151811061175157611751612860565b60200260200101511115611619578160600151816001815181106115fd576115fd612860565b600080836001600160a01b0316856001600160a01b03161115611798579293925b846001600160a01b0316866001600160a01b0316116117c3576117bc858585611ce3565b915061180a565b836001600160a01b0316866001600160a01b031610156117fc576117e8868585611ce3565b91506117f5858785611d56565b905061180a565b611807858585611d56565b90505b94509492505050565b60008080600019858709858702925082811083820303915050806000141561184d576000841161184257600080fd5b50829004905061047b565b80841161185957600080fd5b6000848688096000868103871696879004966002600389028118808a02820302808a02820302808a02820302808a02820302808a02820302808a02909103029181900381900460010186841190950394909402919094039290920491909117919091029150509392505050565b60008060008360020b126118dd578260020b6118ea565b8260020b6118ea906129b2565b90506118f9620d89e719612935565b60020b81111561192f5760405162461bcd60e51b81526020600482015260016024820152601560fa1b604482015260640161055b565b60006001821661194357600160801b611955565b6ffffcb933bd6fad37aa2d162d1a5940015b70ffffffffffffffffffffffffffffffffff169050600282161561199457608061198f826ffff97272373d413259a46990580e213a612ae2565b901c90505b60048216156119be5760806119b9826ffff2e50f5f656932ef12357cf3c7fdcc612ae2565b901c90505b60088216156119e85760806119e3826fffe5caca7e10e4e61c3624eaa0941cd0612ae2565b901c90505b6010821615611a12576080611a0d826fffcb9843d60f6159c9db58835c926644612ae2565b901c90505b6020821615611a3c576080611a37826fff973b41fa98c081472e6896dfb254c0612ae2565b901c90505b6040821615611a66576080611a61826fff2ea16466c96a3843ec78b326b52861612ae2565b901c90505b6080821615611a90576080611a8b826ffe5dee046a99a2a811c461f1969c3053612ae2565b901c90505b610100821615611abb576080611ab6826ffcbe86c7900a88aedcffc83b479aa3a4612ae2565b901c90505b610200821615611ae6576080611ae1826ff987a7253ac413176f2b074cf7815e54612ae2565b901c90505b610400821615611b11576080611b0c826ff3392b0822b70005940c7a398e4b70f3612ae2565b901c90505b610800821615611b3c576080611b37826fe7159475a2c29b7443b29c7fa6e889d9612ae2565b901c90505b611000821615611b67576080611b62826fd097f3bdfd2022b8845ad8f792aa5825612ae2565b901c90505b612000821615611b92576080611b8d826fa9f746462d870fdf8a65dc1f90e061e5612ae2565b901c90505b614000821615611bbd576080611bb8826f70d869a156d2a1b890bb3df62baf32f7612ae2565b901c90505b618000821615611be8576080611be3826f31be135f97d08fd981231505542fcfa6612ae2565b901c90505b62010000821615611c14576080611c0f826f09aa508b5b7a84e1c677de54f3e99bc9612ae2565b901c90505b62020000821615611c3f576080611c3a826e5d6af8dedb81196699c329225ee604612ae2565b901c90505b62040000821615611c69576080611c64826d2216e584f5fa1ea926041bedfe98612ae2565b901c90505b62080000821615611c91576080611c8c826b048a170391f7dc42444e8fa2612ae2565b901c90505b60008460020b1315611cac57611ca981600019612eb9565b90505b611cbb64010000000082612ecd565b15611cc7576001611cca565b60005b611cdb9060ff16602083901c612876565b949350505050565b6000826001600160a01b0316846001600160a01b03161115611d03579192915b6001600160a01b038416611d4c6fffffffffffffffffffffffffffffffff60601b606085901b16611d348787612ee1565b6001600160a01b0316866001600160a01b0316611813565b611cdb9190612eb9565b6000826001600160a01b0316846001600160a01b03161115611d76579192915b611cdb6001600160801b038316611d8d8686612ee1565b6001600160a01b0316600160601b611813565b6040518060c001604052806000815260200160008152602001600081526020016000815260200160008152602001600081525090565b6001600160a01b0381168114611deb57600080fd5b50565b634e487b7160e01b600052604160045260246000fd5b604051610180810167ffffffffffffffff81118282101715611e2857611e28611dee565b60405290565b6040516060810167ffffffffffffffff81118282101715611e2857611e28611dee565b6040516080810167ffffffffffffffff81118282101715611e2857611e28611dee565b600060c08284031215611e8657600080fd5b60405160c0810181811067ffffffffffffffff82111715611ea957611ea9611dee565b8060405250809150823581526020830135602082015260408301356040820152606083013560608201526080830135608082015260a083013560a08201525092915050565b6001600160801b0381168114611deb57600080fd5b8035611f0e81611eee565b919050565b8060020b8114611deb57600080fd5b8035611f0e81611f13565b8035611f0e81611dd6565b60006101808284031215611f4b57600080fd5b611f53611e04565b905081358152611f6560208301611f03565b6020820152611f7660408301611f22565b6040820152611f8760608301611f22565b6060820152611f9860808301611f22565b6080820152611fa960a08301611f22565b60a0820152611fba60c08301611f2d565b60c0820152611fcb60e08301611f2d565b60e0820152610100611fde818401611f2d565b90820152610120611ff0838201611f2d565b90820152610140612002838201611f2d565b818301525061016080830135818301525092915050565b600080600080610280858703121561203057600080fd5b843561203b81611dd6565b935061204a8660208701611e74565b92506120598660e08701611f38565b915061026085013561206a81611eee565b939692955090935050565b60c0810161163b8284805182526020810151602083015260408101516040830152606081015160608301526080810151608083015260a081015160a08301525050565b60008061024083850312156120cc57600080fd5b6120d68484611f38565b91506120e6846101808501611e74565b90509250929050565b63ffffffff81168114611deb57600080fd5b62ffffff81168114611deb57600080fd5b60008060008084860360a081121561212957600080fd5b853561213481611f13565b9450602086013561214481611dd6565b93506040603f198201121561215857600080fd5b506040516040810181811067ffffffffffffffff8211171561217c5761217c611dee565b604090815286013561218d816120ef565b8152606086013561219d81612101565b60208201529150608085013561206a81611dd6565b6000606082840312156121c457600080fd5b6121cc611e2e565b905081358152602082013560208201526040820135604082015292915050565b60008060006101e0848603121561220257600080fd5b61220c8585611e74565b925061221b8560c08601611e74565b915061222b8561018086016121b2565b90509250925092565b60008060006101c0848603121561224a57600080fd5b833561225581611dd6565b9250602084013561226581611dd6565b915061222b8560408601611f38565b600080600080610360858703121561228b57600080fd5b6122958686611e74565b93506122a48660c08701611e74565b92506122b48661018087016121b2565b91506122c4866101e08701611f38565b905092959194509250565b6000608082840312156122e157600080fd5b6122e9611e51565b905081356122f681611f13565b8152602082013561230681611f13565b6020820152604082013561231981611f13565b6040820152606082013561232c81611f13565b606082015292915050565b60008060a0838503121561234a57600080fd5b823561235581611f13565b91506120e684602085016122cf565b60006060828403121561237657600080fd5b61237e611e2e565b9050813561238b816120ef565b8152602082013561239b816120ef565b602082015260408201356123ae816120ef565b604082015292915050565b6000806000808486036102808112156123d157600080fd5b6123db8787612364565b94506080605f19820112156123ef57600080fd5b506123f8611e51565b60608681013582526080870135602083015260a0870135604083015260c087013590820152925061242c8660e08701611f38565b915061026085013561206a81611dd6565b6000610180828403121561245057600080fd5b61047b8383611f38565b6060810161163b8284805163ffffffff908116835260208083015182169084015260409182015116910152565b60008060008060e0858703121561249d57600080fd5b84356124a881611f13565b93506124b786602087016122cf565b925060a0850135915060c085013561206a81611dd6565b8051825260208101516124ec60208401826001600160801b03169052565b506040810151612501604084018260020b9052565b506060810151612516606084018260020b9052565b50608081015161252b608084018260020b9052565b5060a081015161254060a084018260020b9052565b5060c081015161255b60c08401826001600160a01b03169052565b5060e081015161257660e08401826001600160a01b03169052565b50610100818101516001600160a01b039081169184019190915261012080830151821690840152610140808301519091169083015261016090810151910152565b610180810161163b82846124ce565b600080600060e084860312156125db57600080fd5b833592506125ec8560208601612364565b915061222b85608086016121b2565b815181526020808301519082015260408083015190820152606080830151908201526080810161163b565b60008060008060006102e0868803121561263f57600080fd5b6126498787611e74565b94506126588760c08801611f38565b935061024086013561266981611dd6565b925061026086013561267a81611dd6565b915061268a8761028088016121b2565b90509295509295909350565b60008061024083850312156126aa57600080fd5b6126b48484611e74565b91506120e68460c08501611f38565b6020808252825182820181905260009190848201906040850190845b818110156126fb578351835292840192918401916001016126df565b50909695505050505050565b60008060e0838503121561271a57600080fd5b823561272581611dd6565b91506120e68460208501611e74565b634e487b7160e01b600052601160045260246000fd5b60008282101561275c5761275c612734565b500390565b600082601f83011261277257600080fd5b8151602067ffffffffffffffff8083111561278f5761278f611dee565b8260051b604051601f19603f830116810181811084821117156127b4576127b4611dee565b6040529384528581018301938381019250878511156127d257600080fd5b83870191505b848210156127f1578151835291830191908301906127d8565b979650505050505050565b6000806040838503121561280f57600080fd5b825167ffffffffffffffff8082111561282757600080fd5b61283386838701612761565b9350602085015191508082111561284957600080fd5b5061285685828601612761565b9150509250929050565b634e487b7160e01b600052603260045260246000fd5b6000821982111561288957612889612734565b500190565b80518015158114611f0e57600080fd5b8051611f0e81611f13565b600080604083850312156128bc57600080fd5b6128c58361288e565b915060208301516128d581611f13565b809150509250929050565b600060208083528351808285015260005b8181101561290d578581018301518582016040015282016128f1565b8181111561291f576000604083870101525b50601f01601f1916929092016040019392505050565b60008160020b627fffff1981141561294f5761294f612734565b60000392915050565b60006020828403121561296a57600080fd5b61047b8261288e565b60008083128015600160ff1b85018412161561299157612991612734565b6001600160ff1b03840183138116156129ac576129ac612734565b50500390565b6000600160ff1b8214156129c8576129c8612734565b5060000390565b60008160020b8360020b6000811281627fffff19018312811516156129f6576129f6612734565b81627fffff018313811615612a0d57612a0d612734565b5090039392505050565b634e487b7160e01b600052601260045260246000fd5b60008260020b80612a4057612a40612a17565b808360020b0791505092915050565b60008160020b8360020b6000821282627fffff03821381151615612a7557612a75612734565b82627fffff19038212811615612a8d57612a8d612734565b50019392505050565b600063ffffffff808316818516808303821115612ab557612ab5612734565b01949350505050565b60008060408385031215612ad157600080fd5b505080516020909101519092909150565b6000816000190483118215151615612afc57612afc612734565b500290565b600063ffffffff83811690831681811015612b1e57612b1e612734565b039392505050565b8051611f0e81611dd6565b8051611f0e81612101565b8051611f0e81611eee565b6000806000806000806000806000806000806101808d8f031215612b6a57600080fd5b8c516bffffffffffffffffffffffff81168114612b8657600080fd5b9b50612b9460208e01612b26565b9a50612ba260408e01612b26565b9950612bb060608e01612b26565b9850612bbe60808e01612b31565b9750612bcc60a08e0161289e565b9650612bda60c08e0161289e565b9550612be860e08e01612b3c565b94506101008d015193506101208d01519250612c076101408e01612b3c565b9150612c166101608e01612b3c565b90509295989b509295989b509295989b565b600060608284031215612c3a57600080fd5b6040516060810181811067ffffffffffffffff82111715612c5d57612c5d611dee565b6040528251612c6b816120ef565b81526020830151612c7b816120ef565b60208201526040830151612c8e816120ef565b60408201529392505050565b6102408101612ca982856124ce565b825161018083015260208301516101a083015260408301516101c083015260608301516101e0830152608083015161020083015260a083015161022083015261047b565b600060208284031215612cff57600080fd5b5051919050565b83815260e08101612d396020830185805163ffffffff908116835260208083015182169084015260409182015116910152565b82516080830152602083015160a0830152604083015160c0830152949350505050565b600060808284031215612d6e57600080fd5b6040516080810181811067ffffffffffffffff82111715612d9157612d91611dee565b8060405250825181526020830151602082015260408301516040820152606083015160608201528091505092915050565b6102808101612df08287805163ffffffff908116835260208083015182169084015260409182015116910152565b845160608381019190915260208601516080840152604086015160a084015285015160c0830152612e2460e08301856124ce565b6001600160a01b039290921661026091909101529392505050565b600060c08284031215612e5157600080fd5b60405160c0810181811067ffffffffffffffff82111715612e7457612e74611dee565b8060405250825181526020830151602082015260408301516040820152606083015160608201526080830151608082015260a083015160a08201528091505092915050565b600082612ec857612ec8612a17565b500490565b600082612edc57612edc612a17565b500690565b60006001600160a01b0383811690831681811015612b1e57612b1e61273456fea2646970667358221220f77d350cdd2a405db8d4e7c5b5878b3ff95786dd6e8c1f2ae752f86c6191d7a764736f6c63430008090033",
    "linkReferences": {}
  },
  "methodIdentifiers": {
    "calculateAndCheckDomainPositionParams(int24,(int24,int24,int24,int24),uint256,address)": "b86deb32",
    "calculateCurrentCapitalInToken0((uint256,uint128,int24,int24,int24,int24,uint160,uint160,uint160,uint160,uint160,uint256),(uint256,uint256,uint256,uint256,uint256,uint256))": "3ee1cd10",
    "calculateCurrentTokenAmounts(address,address,(uint256,uint128,int24,int24,int24,int24,uint160,uint160,uint160,uint160,uint160,uint256))": "64766cf7",
    "calculateExpectedRatios((uint256,uint128,int24,int24,int24,int24,uint160,uint160,uint160,uint160,uint160,uint256))": "8ed0e63f",
    "calculateExpectedTokenAmounts((uint256,uint256,uint256,uint256,uint256,uint256),(uint256,uint128,int24,int24,int24,int24,uint160,uint160,uint160,uint160,uint160,uint256),address,address,(uint256,uint256,uint256))": "cb477191",
    "calculateExpectedTokenAmountsByExpectedRatios((uint32,uint32,uint32),(uint256,uint256,uint256,uint256),(uint256,uint128,int24,int24,int24,int24,uint160,uint160,uint160,uint160,uint160,uint256),address)": "8cbb18fb",
    "calculateExpectedTokenAmountsInToken0(uint256,(uint32,uint32,uint32),(uint256,uint256,uint256))": "c4463685",
    "calculateExtraTokenAmountsForMoneyVault(address,(uint256,uint256,uint256,uint256,uint256,uint256))": "fa125250",
    "calculateExtraTokenAmountsForUniV3Vault((uint256,uint256,uint256,uint256,uint256,uint256),(uint256,uint128,int24,int24,int24,int24,uint160,uint160,uint160,uint160,uint160,uint256))": "e447ac28",
    "calculateMissingTokenAmounts(address,(uint256,uint256,uint256,uint256,uint256,uint256),(uint256,uint128,int24,int24,int24,int24,uint160,uint160,uint160,uint160,uint160,uint256),uint128)": "240a72a1",
    "calculateNewPositionTicks(int24,(int24,int24,int24,int24))": "82a86fad",
    "checkSpotTickDeviationFromAverage(int24,address,(uint32,uint24),address)": "532dfcca",
    "swapNeeded((uint256,uint256,uint256,uint256,uint256,uint256),(uint256,uint256,uint256,uint256,uint256,uint256),(uint256,uint256,uint256),(uint256,uint128,int24,int24,int24,int24,uint160,uint160,uint160,uint160,uint160,uint256))": "761244b0",
    "tokenRebalanceNeeded((uint256,uint256,uint256,uint256,uint256,uint256),(uint256,uint256,uint256,uint256,uint256,uint256),(uint256,uint256,uint256))": "53726667"
  },
  "id": 421
}