{
  "abi": [
    {
      "anonymous": false,
      "inputs": [
        {
          "indexed": true,
          "internalType": "address",
          "name": "origin",
          "type": "address"
        },
        {
          "indexed": true,
          "internalType": "address",
          "name": "sender",
          "type": "address"
        },
        {
          "indexed": false,
          "internalType": "address[]",
          "name": "vaultTokens_",
          "type": "address[]"
        },
        {
          "indexed": false,
          "internalType": "uint256",
          "name": "nft_",
          "type": "uint256"
        }
      ],
      "name": "Initialized",
      "type": "event"
    },
    {
      "anonymous": false,
      "inputs": [
        {
          "indexed": false,
          "internalType": "address",
          "name": "to",
          "type": "address"
        },
        {
          "indexed": false,
          "internalType": "uint256[]",
          "name": "tokenAmounts",
          "type": "uint256[]"
        }
      ],
      "name": "Pull",
      "type": "event"
    },
    {
      "anonymous": false,
      "inputs": [
        {
          "indexed": false,
          "internalType": "uint256[]",
          "name": "tokenAmounts",
          "type": "uint256[]"
        }
      ],
      "name": "Push",
      "type": "event"
    },
    {
      "anonymous": false,
      "inputs": [
        {
          "indexed": false,
          "internalType": "address",
          "name": "to",
          "type": "address"
        },
        {
          "indexed": false,
          "internalType": "address[]",
          "name": "tokens",
          "type": "address[]"
        },
        {
          "indexed": false,
          "internalType": "uint256[]",
          "name": "tokenAmounts",
          "type": "uint256[]"
        }
      ],
      "name": "ReclaimTokens",
      "type": "event"
    },
    {
      "inputs": [
        {
          "internalType": "address",
          "name": "to",
          "type": "address"
        },
        {
          "internalType": "bytes4",
          "name": "selector",
          "type": "bytes4"
        },
        {
          "internalType": "bytes",
          "name": "data",
          "type": "bytes"
        }
      ],
      "name": "externalCall",
      "outputs": [
        {
          "internalType": "bytes",
          "name": "result",
          "type": "bytes"
        }
      ],
      "stateMutability": "payable",
      "type": "function"
    },
    {
      "inputs": [
        {
          "internalType": "uint256",
          "name": "nft_",
          "type": "uint256"
        },
        {
          "internalType": "address[]",
          "name": "vaultTokens_",
          "type": "address[]"
        }
      ],
      "name": "initialize",
      "outputs": [],
      "stateMutability": "nonpayable",
      "type": "function"
    },
    {
      "inputs": [],
      "name": "initialized",
      "outputs": [
        {
          "internalType": "bool",
          "name": "",
          "type": "bool"
        }
      ],
      "stateMutability": "view",
      "type": "function"
    },
    {
      "inputs": [
        {
          "internalType": "bytes32",
          "name": "_hash",
          "type": "bytes32"
        },
        {
          "internalType": "bytes",
          "name": "_signature",
          "type": "bytes"
        }
      ],
      "name": "isValidSignature",
      "outputs": [
        {
          "internalType": "bytes4",
          "name": "magicValue",
          "type": "bytes4"
        }
      ],
      "stateMutability": "view",
      "type": "function"
    },
    {
      "inputs": [
        {
          "internalType": "address",
          "name": "token",
          "type": "address"
        }
      ],
      "name": "isVaultToken",
      "outputs": [
        {
          "internalType": "bool",
          "name": "",
          "type": "bool"
        }
      ],
      "stateMutability": "view",
      "type": "function"
    },
    {
      "inputs": [],
      "name": "lendingPool",
      "outputs": [
        {
          "internalType": "contract ILendingPool",
          "name": "",
          "type": "address"
        }
      ],
      "stateMutability": "view",
      "type": "function"
    },
    {
      "inputs": [],
      "name": "nft",
      "outputs": [
        {
          "internalType": "uint256",
          "name": "",
          "type": "uint256"
        }
      ],
      "stateMutability": "view",
      "type": "function"
    },
    {
      "inputs": [
        {
          "internalType": "address",
          "name": "to",
          "type": "address"
        },
        {
          "internalType": "address[]",
          "name": "tokens",
          "type": "address[]"
        },
        {
          "internalType": "uint256[]",
          "name": "tokenAmounts",
          "type": "uint256[]"
        },
        {
          "internalType": "bytes",
          "name": "options",
          "type": "bytes"
        }
      ],
      "name": "pull",
      "outputs": [
        {
          "internalType": "uint256[]",
          "name": "actualTokenAmounts",
          "type": "uint256[]"
        }
      ],
      "stateMutability": "nonpayable",
      "type": "function"
    },
    {
      "inputs": [],
      "name": "pullExistentials",
      "outputs": [
        {
          "internalType": "uint256[]",
          "name": "",
          "type": "uint256[]"
        }
      ],
      "stateMutability": "view",
      "type": "function"
    },
    {
      "inputs": [
        {
          "internalType": "address[]",
          "name": "tokens",
          "type": "address[]"
        },
        {
          "internalType": "uint256[]",
          "name": "tokenAmounts",
          "type": "uint256[]"
        },
        {
          "internalType": "bytes",
          "name": "options",
          "type": "bytes"
        }
      ],
      "name": "push",
      "outputs": [
        {
          "internalType": "uint256[]",
          "name": "actualTokenAmounts",
          "type": "uint256[]"
        }
      ],
      "stateMutability": "nonpayable",
      "type": "function"
    },
    {
      "inputs": [
        {
          "internalType": "address[]",
          "name": "tokens",
          "type": "address[]"
        }
      ],
      "name": "reclaimTokens",
      "outputs": [
        {
          "internalType": "uint256[]",
          "name": "actualTokenAmounts",
          "type": "uint256[]"
        }
      ],
      "stateMutability": "nonpayable",
      "type": "function"
    },
    {
      "inputs": [
        {
          "internalType": "bytes4",
          "name": "interfaceId",
          "type": "bytes4"
        }
      ],
      "name": "supportsInterface",
      "outputs": [
        {
          "internalType": "bool",
          "name": "",
          "type": "bool"
        }
      ],
      "stateMutability": "view",
      "type": "function"
    },
    {
      "inputs": [
        {
          "internalType": "address",
          "name": "from",
          "type": "address"
        },
        {
          "internalType": "address[]",
          "name": "tokens",
          "type": "address[]"
        },
        {
          "internalType": "uint256[]",
          "name": "tokenAmounts",
          "type": "uint256[]"
        },
        {
          "internalType": "bytes",
          "name": "options",
          "type": "bytes"
        }
      ],
      "name": "transferAndPush",
      "outputs": [
        {
          "internalType": "uint256[]",
          "name": "actualTokenAmounts",
          "type": "uint256[]"
        }
      ],
      "stateMutability": "nonpayable",
      "type": "function"
    },
    {
      "inputs": [],
      "name": "tvl",
      "outputs": [
        {
          "internalType": "uint256[]",
          "name": "minTokenAmounts",
          "type": "uint256[]"
        },
        {
          "internalType": "uint256[]",
          "name": "maxTokenAmounts",
          "type": "uint256[]"
        }
      ],
      "stateMutability": "view",
      "type": "function"
    },
    {
      "inputs": [],
      "name": "updateTvls",
      "outputs": [],
      "stateMutability": "nonpayable",
      "type": "function"
    },
    {
      "inputs": [],
      "name": "vaultGovernance",
      "outputs": [
        {
          "internalType": "contract IVaultGovernance",
          "name": "",
          "type": "address"
        }
      ],
      "stateMutability": "view",
      "type": "function"
    },
    {
      "inputs": [],
      "name": "vaultTokens",
      "outputs": [
        {
          "internalType": "address[]",
          "name": "",
          "type": "address[]"
        }
      ],
      "stateMutability": "view",
      "type": "function"
    }
  ],
  "bytecode": {
    "object": "0x608060405234801561001057600080fd5b50600160005560001960045561406e8061002b6000396000f3fe6080604052600436106100fe5760003560e01c8063338c4ccb11610095578063a59a997311610064578063a59a9973146102c4578063a920b78c146102f6578063d2c219b014610316578063e5328e061461032b578063fe255a5e1461034e57600080fd5b8063338c4ccb1461022c57806347ccca0214610264578063566ca6b41461028257806369722233146102a257600080fd5b80631626ba7e116100d15780631626ba7e146101935780632062d754146101cc57806327a35e5a146101ec5780632e2f4cc21461020c57600080fd5b806301ffc9a71461010357806305e1c9421461013857806314b84bff14610165578063158ef93e1461017c575b600080fd5b34801561010f57600080fd5b5061012361011e3660046134ca565b61036c565b60405190151581526020015b60405180910390f35b34801561014457600080fd5b50610158610153366004613602565b610397565b60405161012f9190613671565b34801561017157600080fd5b5061017a610814565b005b34801561018857600080fd5b506004541515610123565b34801561019f57600080fd5b506101b36101ae3660046136f3565b61081e565b6040516001600160e01b0319909116815260200161012f565b3480156101d857600080fd5b506101586101e7366004613794565b610b6b565b3480156101f857600080fd5b50610158610207366004613794565b611017565b61021f61021a36600461382e565b61119e565b60405161012f9190613917565b34801561023857600080fd5b5061012361024736600461392a565b6001600160a01b0316600090815260036020526040902054151590565b34801561027057600080fd5b5060045460405190815260200161012f565b34801561028e57600080fd5b5061015861029d366004613947565b611472565b3480156102ae57600080fd5b506102b7611742565b60405161012f9190613a07565b3480156102d057600080fd5b506009546001600160a01b03165b6040516001600160a01b03909116815260200161012f565b34801561030257600080fd5b5061017a610311366004613a1a565b6117a4565b34801561032257600080fd5b5061015861199b565b34801561033757600080fd5b506103406119f2565b60405161012f929190613a56565b34801561035a57600080fd5b506001546001600160a01b03166102de565b600061037782611bb4565b8061039157506001600160e01b031982166218026560e81b145b92915050565b60606103a1611bfa565b6004805460408051808201909152918252631253925560e21b602083015290816103e75760405162461bcd60e51b81526004016103de9190613917565b60405180910390fd5b5060015460408051637ac46fbb60e01b815290516000926001600160a01b031691637ac46fbb916004808301926060929190829003018186803b15801561042d57600080fd5b505afa158015610441573d6000803e3d6000fd5b505050506040513d601f19601f820116820180604052508101906104659190613a84565b805160208201516040516331a9108f60e11b81526004810186905292935090916000906001600160a01b03831690636352211e9060240160206040518083038186803b1580156104b457600080fd5b505afa1580156104c8573d6000803e3d6000fd5b505050506040513d601f19601f820116820180604052508101906104ec9190613b00565b905060006104fb838784611c54565b604051639bd0911b60e01b8152600060048201526001600160a01b039190911690639bd0911b9060240160206040518083038186803b15801561053d57600080fd5b505afa158015610551573d6000803e3d6000fd5b505050506040513d601f19601f820116820180604052508101906105759190613b00565b905087516001600160401b03811115610590576105906134e7565b6040519080825280602002602001820160405280156105b9578160200160208202803683370190505b5096506001600160a01b0381163014156105d857505050505050610805565b60005b88518110156107c2576106068982815181106105f9576105f9613b1d565b6020026020010151611d27565b806106b85750846001600160a01b03166363e85d2d8a838151811061062d5761062d613b1d565b60209081029190910101516040516001600160e01b031960e084901b1681526001600160a01b0390911660048201526002602482015260440160206040518083038186803b15801561067e57600080fd5b505afa158015610692573d6000803e3d6000fd5b505050506040513d601f19601f820116820180604052508101906106b69190613b33565b155b156106c2576107b2565b60008982815181106106d6576106d6613b1d565b60209081029190910101516040516370a0823160e01b81523060048201529091506001600160a01b038216906370a082319060240160206040518083038186803b15801561072357600080fd5b505afa158015610737573d6000803e3d6000fd5b505050506040513d601f19601f8201168201806040525081019061075b9190613b55565b89838151811061076d5761076d613b1d565b6020026020010181815250506107b0838a848151811061078f5761078f613b1d565b6020026020010151836001600160a01b0316611d939092919063ffffffff16565b505b6107bb81613b84565b90506105db565b507f9efcb26e0cf572bd9171640e114f387cef91cd3e38532ed6b3f80c7f2e758f878189896040516107f693929190613b9f565b60405180910390a15050505050505b61080f6001600055565b919050565b61081c611dfb565b565b600080600160009054906101000a90046001600160a01b03166001600160a01b0316637ac46fbb6040518163ffffffff1660e01b815260040160606040518083038186803b15801561086f57600080fd5b505afa158015610883573d6000803e3d6000fd5b505050506040513d601f19601f820116820180604052508101906108a79190613a84565b602081015181516004549293509091806108d057506001600160e01b0319935061039192505050565b60405163020604bf60e21b8152600481018290526000906001600160a01b0385169063081812fc9060240160206040518083038186803b15801561091357600080fd5b505afa158015610927573d6000803e3d6000fd5b505050506040513d601f19601f8201168201806040525081019061094b9190613b00565b6040516363e85d2d60e01b81526001600160a01b03808316600483015260066024830152919250908416906363e85d2d9060440160206040518083038186803b15801561099757600080fd5b505afa1580156109ab573d6000803e3d6000fd5b505050506040513d601f19601f820116820180604052508101906109cf9190613b33565b6109e957506001600160e01b031994506103919350505050565b803b63ffffffff811615610b1c576040516301ffc9a760e01b8152630b135d3f60e11b60048201526001600160a01b038316906301ffc9a79060240160206040518083038186803b158015610a3d57600080fd5b505afa158015610a51573d6000803e3d6000fd5b505050506040513d601f19601f82011682018060405250810190610a759190613b33565b15610b0557604051630b135d3f60e11b81526001600160a01b03831690631626ba7e90610aa8908c908c90600401613bdf565b60206040518083038186803b158015610ac057600080fd5b505afa158015610ad4573d6000803e3d6000fd5b505050506040513d601f19601f82011682018060405250810190610af89190613bf8565b9650505050505050610391565b506001600160e01b03199550610391945050505050565b816001600160a01b0316610b308a8a611ed7565b6001600160a01b03161415610b555750630b135d3f60e11b9550610391945050505050565b506001600160e01b031998975050505050505050565b6060610b75611bfa565b6004805460408051808201909152918252631253925560e21b60208301529081610bb25760405162461bcd60e51b81526004016103de9190613917565b50610bbc33611f56565b6040518060400160405280600381526020016223292160e91b81525090610bf65760405162461bcd60e51b81526004016103de9190613917565b5060015460408051637ac46fbb60e01b815290516000926001600160a01b031691637ac46fbb916004808301926060929190829003018186803b158015610c3c57600080fd5b505afa158015610c50573d6000803e3d6000fd5b505050506040513d601f19601f82011682018060405250810190610c749190613a84565b602001516040516331a9108f60e11b8152600481018490529091506000906001600160a01b03831690636352211e9060240160206040518083038186803b158015610cbe57600080fd5b505afa158015610cd2573d6000803e3d6000fd5b505050506040513d601f19601f82011682018060405250810190610cf69190613b00565b90506000610d05838584611c54565b90506001600160a01b0382163314610f4257604051639bd0911b60e01b8152600060048201819052906001600160a01b03831690639bd0911b9060240160206040518083038186803b158015610d5a57600080fd5b505afa158015610d6e573d6000803e3d6000fd5b505050506040513d601f19601f82011682018060405250810190610d929190613b00565b90506001600160a01b038116301415610eed5760405163fcdabd2760e01b81526001600160a01b038b8116600483015280841691639d9fd0d99187169063fcdabd279060240160206040518083038186803b158015610df057600080fd5b505afa158015610e04573d6000803e3d6000fd5b505050506040513d601f19601f82011682018060405250810190610e289190613b55565b6040518263ffffffff1660e01b8152600401610e4691815260200190565b60206040518083038186803b158015610e5e57600080fd5b505afa158015610e72573d6000803e3d6000fd5b505050506040513d601f19601f82011682018060405250810190610e969190613b33565b8015610eab57506001600160a01b038a163014155b6040518060400160405280600581526020016424a72b2a2960d91b81525090610ee75760405162461bcd60e51b81526004016103de9190613917565b50610f40565b896001600160a01b0316816001600160a01b0316146040518060400160405280600581526020016424a72b2a2960d91b81525090610f3e5760405162461bcd60e51b81526004016103de9190613917565b505b505b6000610f4e8989612114565b90506000610f5d8b838a612200565b9050610fc48a6002805480602002602001604051908101604052809291908181526020018280548015610fb957602002820191906000526020600020905b81546001600160a01b03168152600190910190602001808311610f9b575b5050505050836124df565b96507f54f9e6ef58e36de62f59f9ee6c4b878af84989c53a3642eba415ac3ac4e11cda8b88604051610ff7929190613c15565b60405180910390a150505050505061100f6001600055565b949350505050565b825160609060005b818110156110aa5784818151811061103957611039613b1d565b602002602001015160001461109a5761109a873087848151811061105f5761105f613b1d565b602002602001015189858151811061107957611079613b1d565b60200260200101516001600160a01b0316612700909392919063ffffffff16565b6110a381613b84565b905061101f565b506110b6858585611472565b915060005b85518110156111945760008582815181106110d8576110d8613b1d565b60200260200101518483815181106110f2576110f2613b1d565b602002602001015110611106576000611144565b83828151811061111857611118613b1d565b602002602001015186838151811061113257611132613b1d565b60200260200101516111449190613c39565b9050801561118357611183888289858151811061116357611163613b1d565b60200260200101516001600160a01b0316611d939092919063ffffffff16565b5061118d81613b84565b90506110bb565b5050949350505050565b60606111a8611bfa565b6004805460408051808201909152918252631253925560e21b60208301526111e35760405162461bcd60e51b81526004016103de9190613917565b506111ed33611f56565b6040518060400160405280600381526020016223292160e91b815250906112275760405162461bcd60e51b81526004016103de9190613917565b5060015460408051637ac46fbb60e01b815290516000926001600160a01b031691637ac46fbb916004808301926060929190829003018186803b15801561126d57600080fd5b505afa158015611281573d6000803e3d6000fd5b505050506040513d601f19601f820116820180604052508101906112a59190613a84565b51604051631f4a58fb60e31b81526001600160a01b03888116600483015291925060009183169063fa52c7d89060240160206040518083038186803b1580156112ed57600080fd5b505afa158015611301573d6000803e3d6000fd5b505050506040513d601f19601f820116820180604052508101906113259190613b00565b60408051808201909152600381526223292160e91b60208201529091506001600160a01b0382166113695760405162461bcd60e51b81526004016103de9190613917565b50604051631796170d60e21b81526001600160a01b03821690635e585c34906113a09033908b9034908c908c908c90600401613c50565b60006040518083038186803b1580156113b857600080fd5b505afa1580156113cc573d6000803e3d6000fd5b50505050600080886001600160a01b0316348989896040516020016113f393929190613cb5565b60408051601f198184030181529082905261140d91613cd9565b60006040518083038185875af1925050503d806000811461144a576040519150601f19603f3d011682016040523d82523d6000602084013e61144f565b606091505b5091509150816114625780518082602001fd5b6001600055935061100f92505050565b606061147c611bfa565b6004805460408051808201909152918252631253925560e21b602083015290816114b95760405162461bcd60e51b81526004016103de9190613917565b5060015460408051637ac46fbb60e01b815290516000926001600160a01b031691637ac46fbb916004808301926060929190829003018186803b1580156114ff57600080fd5b505afa158015611513573d6000803e3d6000fd5b505050506040513d601f19601f820116820180604052508101906115379190613a84565b602001516040516331a9108f60e11b8152600481018490529091506000906001600160a01b03831690636352211e9060240160206040518083038186803b15801561158157600080fd5b505afa158015611595573d6000803e3d6000fd5b505050506040513d601f19601f820116820180604052508101906115b99190613b00565b60405163fcdabd2760e01b81526001600160a01b03808316600483015291925060009184169063fcdabd279060240160206040518083038186803b15801561160057600080fd5b505afa158015611614573d6000803e3d6000fd5b505050506040513d601f19601f820116820180604052508101906116389190613b55565b604080518082019091526002815261272360f11b6020820152909150816116725760405162461bcd60e51b81526004016103de9190613917565b50600061167f8989612114565b9050600061168d828961273e565b90506116f28a6002805480602002602001604051908101604052809291908181526020018280548015610fb9576020028201919060005260206000209081546001600160a01b03168152600190910190602001808311610f9b575050505050836124df565b96507f08e404e978692dd1b8275016b7a7b0b3ae4afd06b0cec7228060bb2da18c84fd816040516117239190613671565b60405180910390a150505050505061173b6001600055565b9392505050565b6060600280548060200260200160405190810160405280929190818152602001828054801561179a57602002820191906000526020600020905b81546001600160a01b0316815260019091019060200180831161177c575b5050505050905090565b6117ae818361295a565b600154604080516301a6998760e71b815281516001600160a01b039093169263d34cc38092600480840193919291829003018186803b1580156117f057600080fd5b505afa158015611804573d6000803e3d6000fd5b505050506040513d601f19601f820116820180604052508101906118289190613cf5565b51600980546001600160a01b0319166001600160a01b0390921691909117905580516001600160401b03811115611861576118616134e7565b60405190808252806020026020018201604052801561188a578160200160208202803683370190505b50805161189f91600691602090910190613437565b5060005b81518110156119925760006118d08383815181106118c3576118c3613b1d565b6020026020010151612de5565b60408051808201909152600281526120ad60f11b60208201529091506001600160a01b0382166119135760405162461bcd60e51b81526004016103de9190613917565b50806006838154811061192857611928613b1d565b6000918252602082200180546001600160a01b0319166001600160a01b039390931692909217909155600780546001810182559082527fa66cc928b5edb82af9bd49922954155ab7b0942694bea4ce44661d9a8736c68801555061198b81613b84565b90506118a3565b50504260085550565b6060600580548060200260200160405190810160405280929190818152602001828054801561179a57602002820191906000526020600020905b8154815260200190600101908083116119d5575050505050905090565b6060806007805480602002602001604051908101604052809291908181526020018280548015611a4157602002820191906000526020600020905b815481526020019060010190808311611a2d575b5050505050915081516001600160401b03811115611a6157611a616134e7565b604051908082528060200260200182016040528015611a8a578160200160208202803683370190505b509050600060085442611a9d9190613c39565b9050633b9aca008115611b4a57600154604080516301a6998760e71b815281516000936001600160a01b03169263d34cc3809260048082019391829003018186803b158015611aeb57600080fd5b505afa158015611aff573d6000803e3d6000fd5b505050506040513d601f19601f82011682018060405250810190611b239190613cf5565b602001519050611b3881846301e13380612e72565b611b4690633b9aca00613d4c565b9150505b60005b8451811015611bad57611b7e82868381518110611b6c57611b6c613b1d565b6020026020010151633b9aca00612e72565b848281518110611b9057611b90613b1d565b602090810291909101015280611ba581613b84565b915050611b4d565b5050509091565b6000611bbf82612f25565b80611bda57506001600160e01b03198216633d31d51d60e11b145b8061039157506001600160e01b03198216630b135d3f60e11b1492915050565b60026000541415611c4d5760405162461bcd60e51b815260206004820152601f60248201527f5265656e7472616e637947756172643a207265656e7472616e742063616c6c0060448201526064016103de565b6002600055565b60405163fcdabd2760e01b81526001600160a01b038281166004830152600091829186169063fcdabd279060240160206040518083038186803b158015611c9a57600080fd5b505afa158015611cae573d6000803e3d6000fd5b505050506040513d601f19601f82011682018060405250810190611cd29190613b55565b90508315801590611ce257508015155b604051806040016040528060048152602001631253925560e21b81525090611d1d5760405162461bcd60e51b81526004016103de9190613917565b5091949350505050565b600654600090815b81811015611d8957836001600160a01b031660068281548110611d5457611d54613b1d565b6000918252602090912001546001600160a01b03161415611d79575060019392505050565b611d8281613b84565b9050611d2f565b5060009392505050565b6040516001600160a01b038316602482015260448101829052611df690849063a9059cbb60e01b906064015b60408051601f198184030181529190526020810180516001600160e01b03166001600160e01b031990931692909217909152612f5b565b505050565b60075460005b81811015611ecf5760068181548110611e1c57611e1c613b1d565b6000918252602090912001546040516370a0823160e01b81523060048201526001600160a01b03909116906370a082319060240160206040518083038186803b158015611e6857600080fd5b505afa158015611e7c573d6000803e3d6000fd5b505050506040513d601f19601f82011682018060405250810190611ea09190613b55565b60078281548110611eb357611eb3613b1d565b600091825260209091200155611ec881613b84565b9050611e01565b505042600855565b600080600080611ee685613030565b6040805160008152602081018083528b905260ff8316918101919091526060810184905260808101839052929550909350915060019060a0016020604051602081039080840390855afa158015611f41573d6000803e3d6000fd5b5050604051601f190151979650505050505050565b600080600160009054906101000a90046001600160a01b03166001600160a01b0316637ac46fbb6040518163ffffffff1660e01b815260040160606040518083038186803b158015611fa757600080fd5b505afa158015611fbb573d6000803e3d6000fd5b505050506040513d601f19601f82011682018060405250810190611fdf9190613a84565b6020015160045490915080611ff8575060009392505050565b60405163020604bf60e21b8152600481018290526001600160a01b03808616919084169063081812fc9060240160206040518083038186803b15801561203d57600080fd5b505afa158015612051573d6000803e3d6000fd5b505050506040513d601f19601f820116820180604052508101906120759190613b00565b6001600160a01b0316148061100f57506040516331a9108f60e11b8152600481018290526001600160a01b038086169190841690636352211e9060240160206040518083038186803b1580156120ca57600080fd5b505afa1580156120de573d6000803e3d6000fd5b505050506040513d601f19601f820116820180604052508101906121029190613b00565b6001600160a01b031614949350505050565b606061211f83613094565b60405180604001604052806004815260200163494e564160e01b8152509061215a5760405162461bcd60e51b81526004016103de9190613917565b5081518351146040518060400160405280600381526020016224a72b60e91b8152509061219a5760405162461bcd60e51b81526004016103de9190613917565b5061173b60028054806020026020016040519081016040528092919081815260200182805480156121f457602002820191906000526020600020905b81546001600160a01b031681526001909101906020018083116121d6575b505050505084846124df565b60606000600280548060200260200160405190810160405280929190818152602001828054801561225a57602002820191906000526020600020905b81546001600160a01b0316815260019091019060200180831161223c575b5050505050905083516001600160401b0381111561227a5761227a6134e7565b6040519080825280602002602001820160405280156122a3578160200160208202803683370190505b50915060005b6006548110156124ce57600781815481106122c6576122c6613b1d565b9060005260206000200154600014806122f857508481815181106122ec576122ec613b1d565b60200260200101516000145b15612302576124be565b60006006828154811061231757612317613b1d565b6000918252602090912001546040516370a0823160e01b81523060048201526001600160a01b03909116906370a082319060240160206040518083038186803b15801561236357600080fd5b505afa158015612377573d6000803e3d6000fd5b505050506040513d601f19601f8201168201806040525081019061239b9190613b55565b90506000818784815181106123b2576123b2613b1d565b6020026020010151106123c557816123e0565b8683815181106123d7576123d7613b1d565b60200260200101515b60095485519192506001600160a01b0316906369328dec9086908690811061240a5761240a613b1d565b60209081029190910101516040516001600160e01b031960e084901b1681526001600160a01b03918216600482015260248101859052908b166044820152606401602060405180830381600087803b15801561246557600080fd5b505af1158015612479573d6000803e3d6000fd5b505050506040513d601f19601f8201168201806040525081019061249d9190613b55565b8584815181106124af576124af613b1d565b60200260200101818152505050505b6124c781613b84565b90506122a9565b506124d7611dfb565b509392505050565b6060600084516001600160401b038111156124fc576124fc6134e7565b604051908082528060200260200182016040528015612525578160200160208202803683370190505b5090506000805b86518210801561253c5750855181105b156126bb5785818151811061255357612553613b1d565b60200260200101516001600160a01b031687838151811061257657612576613b1d565b60200260200101516001600160a01b031610156125be5760008383815181106125a1576125a1613b1d565b6020908102919091010152816125b681613b84565b92505061252c565b8581815181106125d0576125d0613b1d565b60200260200101516001600160a01b03168783815181106125f3576125f3613b1d565b60200260200101516001600160a01b0316111561266c5784818151811061261c5761261c613b1d565b60200260200101516000141561263e578061263681613b84565b91505061252c565b60405162461bcd60e51b815260206004820152600360248201526254505360e81b60448201526064016103de565b84818151811061267e5761267e613b1d565b602002602001015183838151811061269857612698613b1d565b6020908102919091010152816126ad81613b84565b925050808061263690613b84565b86518210156126f55760008383815181106126d8576126d8613b1d565b6020908102919091010152816126ed81613b84565b9250506126bb565b509095945050505050565b6040516001600160a01b03808516602483015283166044820152606481018290526127389085906323b872dd60e01b90608401611dbf565b50505050565b60606000600280548060200260200160405190810160405280929190818152602001828054801561279857602002820191906000526020600020905b81546001600160a01b0316815260019091019060200180831161277a575b50505050509050600080845111156127c157838060200190518101906127be9190613b55565b90505b60005b600654811015612948578581815181106127e0576127e0613b1d565b6020026020010151600014156127f557612938565b600083828151811061280957612809613b1d565b6020026020010151905061285f600960009054906101000a90046001600160a01b031688848151811061283e5761283e613b1d565b6020026020010151836001600160a01b03166131379092919063ffffffff16565b60095484516001600160a01b039091169063e8eda9df9086908590811061288857612888613b1d565b60200260200101518985815181106128a2576128a2613b1d565b60209081029190910101516040516001600160e01b031960e085901b1681526001600160a01b039092166004830152602482015230604482015261ffff86166064820152608401600060405180830381600087803b15801561290357600080fd5b505af1158015612917573d6000803e3d6000fd5b505060095461293692506001600160a01b0384811692501660006131f3565b505b61294181613b84565b90506127c4565b50612951611dfb565b50929392505050565b6004805460408051808201909152918252631253925560e21b6020830152156129965760405162461bcd60e51b81526004016103de9190613917565b506129a082613094565b60405180604001604052806004815260200163494e564160e01b815250906129db5760405162461bcd60e51b81526004016103de9190613917565b506040805180820190915260028152612b2d60f11b602082015281612a135760405162461bcd60e51b81526004016103de9190613917565b506000336001600160a01b0316637ac46fbb6040518163ffffffff1660e01b815260040160606040518083038186803b158015612a4f57600080fd5b505afa158015612a63573d6000803e3d6000fd5b505050506040513d601f19601f82011682018060405250810190612a879190613a84565b51835190915015801590612b0c5750806001600160a01b03166378546fa26040518163ffffffff1660e01b815260040160206040518083038186803b158015612acf57600080fd5b505afa158015612ae3573d6000803e3d6000fd5b505050506040513d601f19601f82011682018060405250810190612b079190613b55565b835111155b6040518060400160405280600381526020016224a72b60e91b81525090612b465760405162461bcd60e51b81526004016103de9190613917565b5060005b8351811015612c4a57816001600160a01b03166363e85d2d858381518110612b7457612b74613b1d565b60209081029190910101516040516001600160e01b031960e084901b1681526001600160a01b0390911660048201526003602482015260440160206040518083038186803b158015612bc557600080fd5b505afa158015612bd9573d6000803e3d6000fd5b505050506040513d601f19601f82011682018060405250810190612bfd9190613b33565b6040518060400160405280600381526020016223292160e91b81525090612c375760405162461bcd60e51b81526004016103de9190613917565b5080612c4281613b84565b915050612b4a565b50600180546001600160a01b031916331790558251612c70906002906020860190613437565b50600482905560025460005b81811015612da057612c8f816001613d4c565b60036000878481518110612ca557612ca5613b1d565b60200260200101516001600160a01b03166001600160a01b03168152602001908152602001600020819055506000858281518110612ce557612ce5613b1d565b6020026020010151905060056002826001600160a01b031663313ce5676040518163ffffffff1660e01b815260040160206040518083038186803b158015612d2c57600080fd5b505afa158015612d40573d6000803e3d6000fd5b505050506040513d601f19601f82011682018060405250810190612d649190613d75565b612d6e9190613d90565b612d7990600a613ea4565b8154600181018355600092835260209092209091015550612d9981613b84565b9050612c7c565b50604051339032907f0f043e55a1ce0d7ce25125ccbc2800b540d83e21abf7250f0156c2091a28b22190612dd79088908890613eb3565b60405180910390a350505050565b6009546040516335ea6a7560e01b81526001600160a01b03838116600483015260009283929116906335ea6a75906024016101806040518083038186803b158015612e2f57600080fd5b505afa158015612e43573d6000803e3d6000fd5b505050506040513d601f19601f82011682018060405250810190612e679190613f4b565b60e001519392505050565b600080806000198587098587029250828110838203039150508060001415612eac5760008411612ea157600080fd5b50829004905061173b565b808411612eb857600080fd5b6000848688096000868103871696879004966002600389028118808a02820302808a02820302808a02820302808a02820302808a02820302808a02909103029181900381900460010186841190950394909402919094039290920491909117919091029150509392505050565b60006301ffc9a760e01b6001600160e01b03198316148061039157506001600160e01b0319821663305a640b60e21b1492915050565b6000612fb0826040518060400160405280602081526020017f5361666545524332303a206c6f772d6c6576656c2063616c6c206661696c6564815250856001600160a01b03166133179092919063ffffffff16565b9050805160001480612fd1575080806020019051810190612fd19190613b33565b611df65760405162461bcd60e51b815260206004820152602a60248201527f5361666545524332303a204552433230206f7065726174696f6e20646964206e6044820152691bdd081cdd58d8d9595960b21b60648201526084016103de565b60008060008351604114604051806040016040528060048152602001631253959360e21b815250906130755760405162461bcd60e51b81526004016103de9190613917565b5050505060208101516040820151606090920151909260009190911a90565b60006002825110156130a857506001919050565b60005b600183516130b99190613c39565b81101561312e57826130cc826001613d4c565b815181106130dc576130dc613b1d565b60200260200101516001600160a01b03168382815181106130ff576130ff613b1d565b60200260200101516001600160a01b03161061311e5750600092915050565b61312781613b84565b90506130ab565b50600192915050565b604051636eb1769f60e11b81523060048201526001600160a01b0383811660248301526000919085169063dd62ed3e9060440160206040518083038186803b15801561318257600080fd5b505afa158015613196573d6000803e3d6000fd5b505050506040513d601f19601f820116820180604052508101906131ba9190613b55565b90506127388463095ea7b360e01b856131d38686613d4c565b6040516001600160a01b0390921660248301526044820152606401611dbf565b80158061327c5750604051636eb1769f60e11b81523060048201526001600160a01b03838116602483015284169063dd62ed3e9060440160206040518083038186803b15801561324257600080fd5b505afa158015613256573d6000803e3d6000fd5b505050506040513d601f19601f8201168201806040525081019061327a9190613b55565b155b6132e75760405162461bcd60e51b815260206004820152603660248201527f5361666545524332303a20617070726f76652066726f6d206e6f6e2d7a65726f60448201527520746f206e6f6e2d7a65726f20616c6c6f77616e636560501b60648201526084016103de565b6040516001600160a01b038316602482015260448101829052611df690849063095ea7b360e01b90606401611dbf565b606061100f848460008585600080866001600160a01b0316858760405161333e9190613cd9565b60006040518083038185875af1925050503d806000811461337b576040519150601f19603f3d011682016040523d82523d6000602084013e613380565b606091505b50915091506133918783838761339c565b979650505050505050565b60608315613408578251613401576001600160a01b0385163b6134015760405162461bcd60e51b815260206004820152601d60248201527f416464726573733a2063616c6c20746f206e6f6e2d636f6e747261637400000060448201526064016103de565b508161100f565b61100f838381511561341d5781518083602001fd5b8060405162461bcd60e51b81526004016103de9190613917565b82805482825590600052602060002090810192821561348c579160200282015b8281111561348c57825182546001600160a01b0319166001600160a01b03909116178255602090920191600190910190613457565b5061349892915061349c565b5090565b5b80821115613498576000815560010161349d565b6001600160e01b0319811681146134c757600080fd5b50565b6000602082840312156134dc57600080fd5b813561173b816134b1565b634e487b7160e01b600052604160045260246000fd5b60405161018081016001600160401b0381118282101715613520576135206134e7565b60405290565b604051601f8201601f191681016001600160401b038111828210171561354e5761354e6134e7565b604052919050565b60006001600160401b0382111561356f5761356f6134e7565b5060051b60200190565b6001600160a01b03811681146134c757600080fd5b600082601f83011261359f57600080fd5b813560206135b46135af83613556565b613526565b82815260059290921b840181019181810190868411156135d357600080fd5b8286015b848110156135f75780356135ea81613579565b83529183019183016135d7565b509695505050505050565b60006020828403121561361457600080fd5b81356001600160401b0381111561362a57600080fd5b61100f8482850161358e565b600081518084526020808501945080840160005b838110156136665781518752958201959082019060010161364a565b509495945050505050565b60208152600061173b6020830184613636565b600082601f83011261369557600080fd5b81356001600160401b038111156136ae576136ae6134e7565b6136c1601f8201601f1916602001613526565b8181528460208386010111156136d657600080fd5b816020850160208301376000918101602001919091529392505050565b6000806040838503121561370657600080fd5b8235915060208301356001600160401b0381111561372357600080fd5b61372f85828601613684565b9150509250929050565b600082601f83011261374a57600080fd5b8135602061375a6135af83613556565b82815260059290921b8401810191818101908684111561377957600080fd5b8286015b848110156135f7578035835291830191830161377d565b600080600080608085870312156137aa57600080fd5b84356137b581613579565b935060208501356001600160401b03808211156137d157600080fd5b6137dd8883890161358e565b945060408701359150808211156137f357600080fd5b6137ff88838901613739565b9350606087013591508082111561381557600080fd5b5061382287828801613684565b91505092959194509250565b6000806000806060858703121561384457600080fd5b843561384f81613579565b9350602085013561385f816134b1565b925060408501356001600160401b038082111561387b57600080fd5b818701915087601f83011261388f57600080fd5b81358181111561389e57600080fd5b8860208285010111156138b057600080fd5b95989497505060200194505050565b60005b838110156138da5781810151838201526020016138c2565b838111156127385750506000910152565b600081518084526139038160208601602086016138bf565b601f01601f19169290920160200192915050565b60208152600061173b60208301846138eb565b60006020828403121561393c57600080fd5b813561173b81613579565b60008060006060848603121561395c57600080fd5b83356001600160401b038082111561397357600080fd5b61397f8783880161358e565b9450602086013591508082111561399557600080fd5b6139a187838801613739565b935060408601359150808211156139b757600080fd5b506139c486828701613684565b9150509250925092565b600081518084526020808501945080840160005b838110156136665781516001600160a01b0316875295820195908201906001016139e2565b60208152600061173b60208301846139ce565b60008060408385031215613a2d57600080fd5b8235915060208301356001600160401b03811115613a4a57600080fd5b61372f8582860161358e565b604081526000613a696040830185613636565b8281036020840152613a7b8185613636565b95945050505050565b600060608284031215613a9657600080fd5b604051606081018181106001600160401b0382111715613ab857613ab86134e7565b6040528251613ac681613579565b81526020830151613ad681613579565b60208201526040830151613ae981613579565b60408201529392505050565b805161080f81613579565b600060208284031215613b1257600080fd5b815161173b81613579565b634e487b7160e01b600052603260045260246000fd5b600060208284031215613b4557600080fd5b8151801515811461173b57600080fd5b600060208284031215613b6757600080fd5b5051919050565b634e487b7160e01b600052601160045260246000fd5b6000600019821415613b9857613b98613b6e565b5060010190565b6001600160a01b0384168152606060208201819052600090613bc3908301856139ce565b8281036040840152613bd58185613636565b9695505050505050565b82815260406020820152600061100f60408301846138eb565b600060208284031215613c0a57600080fd5b815161173b816134b1565b6001600160a01b038316815260406020820181905260009061100f90830184613636565b600082821015613c4b57613c4b613b6e565b500390565b6001600160a01b03878116825286166020820152604081018590526001600160e01b03198416606082015260a06080820181905281018290526000828460c0840137600060c0848401015260c0601f19601f8501168301019050979650505050505050565b6001600160e01b031984168152818360048301376000910160040190815292915050565b60008251613ceb8184602087016138bf565b9190910192915050565b600060408284031215613d0757600080fd5b604051604081018181106001600160401b0382111715613d2957613d296134e7565b6040528251613d3781613579565b81526020928301519281019290925250919050565b60008219821115613d5f57613d5f613b6e565b500190565b805160ff8116811461080f57600080fd5b600060208284031215613d8757600080fd5b61173b82613d64565b600060ff831680613db157634e487b7160e01b600052601260045260246000fd5b8060ff84160491505092915050565b600181815b80851115613dfb578160001904821115613de157613de1613b6e565b80851615613dee57918102915b93841c9390800290613dc5565b509250929050565b600082613e1257506001610391565b81613e1f57506000610391565b8160018114613e355760028114613e3f57613e5b565b6001915050610391565b60ff841115613e5057613e50613b6e565b50506001821b610391565b5060208310610133831016604e8410600b8410161715613e7e575081810a610391565b613e888383613dc0565b8060001904821115613e9c57613e9c613b6e565b029392505050565b600061173b60ff841683613e03565b604081526000613ec660408301856139ce565b90508260208301529392505050565b600060208284031215613ee757600080fd5b604051602081018181106001600160401b0382111715613f0957613f096134e7565b6040529151825250919050565b80516fffffffffffffffffffffffffffffffff8116811461080f57600080fd5b805164ffffffffff8116811461080f57600080fd5b60006101808284031215613f5e57600080fd5b613f666134fd565b613f708484613ed5565b8152613f7e60208401613f16565b6020820152613f8f60408401613f16565b6040820152613fa060608401613f16565b6060820152613fb160808401613f16565b6080820152613fc260a08401613f16565b60a0820152613fd360c08401613f36565b60c0820152613fe460e08401613af5565b60e0820152610100613ff7818501613af5565b90820152610120614009848201613af5565b9082015261014061401b848201613af5565b9082015261016061402d848201613d64565b90820152939250505056fea26469706673582212208d067cc874c655dc5297a118e2135e6e6a1bed82d90e56646bcc1b50f825455464736f6c63430008090033",
    "linkReferences": {}
  },
  "methodIdentifiers": {
    "externalCall(address,bytes4,bytes)": "2e2f4cc2",
    "initialize(uint256,address[])": "a920b78c",
    "initialized()": "158ef93e",
    "isValidSignature(bytes32,bytes)": "1626ba7e",
    "isVaultToken(address)": "338c4ccb",
    "lendingPool()": "a59a9973",
    "nft()": "47ccca02",
    "pull(address,address[],uint256[],bytes)": "2062d754",
    "pullExistentials()": "d2c219b0",
    "push(address[],uint256[],bytes)": "566ca6b4",
    "reclaimTokens(address[])": "05e1c942",
    "supportsInterface(bytes4)": "01ffc9a7",
    "transferAndPush(address,address[],uint256[],bytes)": "27a35e5a",
    "tvl()": "e5328e06",
    "updateTvls()": "14b84bff",
    "vaultGovernance()": "fe255a5e",
    "vaultTokens()": "69722233"
  },
  "id": 445
}