{
  "abi": [
    {
      "inputs": [
        {
          "internalType": "contract INonfungiblePositionManager",
          "name": "positionManager_",
          "type": "address"
        }
      ],
      "stateMutability": "nonpayable",
      "type": "constructor"
    },
    {
      "anonymous": false,
      "inputs": [
        {
          "indexed": false,
          "internalType": "uint256",
          "name": "tokenId",
          "type": "uint256"
        }
      ],
      "name": "PositionBurned",
      "type": "event"
    },
    {
      "anonymous": false,
      "inputs": [
        {
          "indexed": false,
          "internalType": "uint256",
          "name": "tokenId",
          "type": "uint256"
        }
      ],
      "name": "PositionMinted",
      "type": "event"
    },
    {
      "anonymous": false,
      "inputs": [
        {
          "indexed": true,
          "internalType": "address",
          "name": "origin",
          "type": "address"
        },
        {
          "indexed": true,
          "internalType": "address",
          "name": "sender",
          "type": "address"
        }
      ],
      "name": "Rebalance",
      "type": "event"
    },
    {
      "anonymous": false,
      "inputs": [
        {
          "indexed": true,
          "internalType": "bytes32",
          "name": "role",
          "type": "bytes32"
        },
        {
          "indexed": true,
          "internalType": "bytes32",
          "name": "previousAdminRole",
          "type": "bytes32"
        },
        {
          "indexed": true,
          "internalType": "bytes32",
          "name": "newAdminRole",
          "type": "bytes32"
        }
      ],
      "name": "RoleAdminChanged",
      "type": "event"
    },
    {
      "anonymous": false,
      "inputs": [
        {
          "indexed": true,
          "internalType": "bytes32",
          "name": "role",
          "type": "bytes32"
        },
        {
          "indexed": true,
          "internalType": "address",
          "name": "account",
          "type": "address"
        },
        {
          "indexed": true,
          "internalType": "address",
          "name": "sender",
          "type": "address"
        }
      ],
      "name": "RoleGranted",
      "type": "event"
    },
    {
      "anonymous": false,
      "inputs": [
        {
          "indexed": true,
          "internalType": "bytes32",
          "name": "role",
          "type": "bytes32"
        },
        {
          "indexed": true,
          "internalType": "address",
          "name": "account",
          "type": "address"
        },
        {
          "indexed": true,
          "internalType": "address",
          "name": "sender",
          "type": "address"
        }
      ],
      "name": "RoleRevoked",
      "type": "event"
    },
    {
      "anonymous": false,
      "inputs": [
        {
          "components": [
            {
              "internalType": "bytes",
              "name": "path",
              "type": "bytes"
            },
            {
              "internalType": "address",
              "name": "recipient",
              "type": "address"
            },
            {
              "internalType": "uint256",
              "name": "deadline",
              "type": "uint256"
            },
            {
              "internalType": "uint256",
              "name": "amountIn",
              "type": "uint256"
            },
            {
              "internalType": "uint256",
              "name": "amountOutMinimum",
              "type": "uint256"
            }
          ],
          "indexed": false,
          "internalType": "struct ISwapRouter.ExactInputParams",
          "name": "swapParams",
          "type": "tuple"
        },
        {
          "indexed": false,
          "internalType": "uint256",
          "name": "amountOut",
          "type": "uint256"
        }
      ],
      "name": "TokensSwapped",
      "type": "event"
    },
    {
      "anonymous": false,
      "inputs": [
        {
          "indexed": true,
          "internalType": "address",
          "name": "origin",
          "type": "address"
        },
        {
          "indexed": true,
          "internalType": "address",
          "name": "sender",
          "type": "address"
        },
        {
          "components": [
            {
              "internalType": "uint24",
              "name": "priceImpactD6",
              "type": "uint24"
            },
            {
              "internalType": "int24",
              "name": "intervalWidth",
              "type": "int24"
            },
            {
              "internalType": "int24",
              "name": "tickNeighborhood",
              "type": "int24"
            },
            {
              "internalType": "int24",
              "name": "maxDeviationForVaultPool",
              "type": "int24"
            },
            {
              "internalType": "uint32",
              "name": "timespanForAverageTick",
              "type": "uint32"
            },
            {
              "internalType": "bytes",
              "name": "pathZeroToOne",
              "type": "bytes"
            },
            {
              "internalType": "bytes",
              "name": "pathOneToZero",
              "type": "bytes"
            },
            {
              "internalType": "uint256",
              "name": "amount0Desired",
              "type": "uint256"
            },
            {
              "internalType": "uint256",
              "name": "amount1Desired",
              "type": "uint256"
            },
            {
              "internalType": "uint256",
              "name": "swapSlippageD",
              "type": "uint256"
            },
            {
              "internalType": "uint256[]",
              "name": "minSwapAmounts",
              "type": "uint256[]"
            }
          ],
          "indexed": false,
          "internalType": "struct PulseRouteStrategy.MutableParams",
          "name": "mutableParams",
          "type": "tuple"
        }
      ],
      "name": "UpdateMutableParams",
      "type": "event"
    },
    {
      "inputs": [],
      "name": "ADMIN_DELEGATE_ROLE",
      "outputs": [
        {
          "internalType": "bytes32",
          "name": "",
          "type": "bytes32"
        }
      ],
      "stateMutability": "view",
      "type": "function"
    },
    {
      "inputs": [],
      "name": "ADMIN_ROLE",
      "outputs": [
        {
          "internalType": "bytes32",
          "name": "",
          "type": "bytes32"
        }
      ],
      "stateMutability": "view",
      "type": "function"
    },
    {
      "inputs": [],
      "name": "D6",
      "outputs": [
        {
          "internalType": "uint256",
          "name": "",
          "type": "uint256"
        }
      ],
      "stateMutability": "view",
      "type": "function"
    },
    {
      "inputs": [],
      "name": "DEFAULT_ADMIN_ROLE",
      "outputs": [
        {
          "internalType": "bytes32",
          "name": "",
          "type": "bytes32"
        }
      ],
      "stateMutability": "view",
      "type": "function"
    },
    {
      "inputs": [],
      "name": "DENOMINATOR",
      "outputs": [
        {
          "internalType": "uint256",
          "name": "",
          "type": "uint256"
        }
      ],
      "stateMutability": "view",
      "type": "function"
    },
    {
      "inputs": [],
      "name": "MAX_MINTING_PARAMS",
      "outputs": [
        {
          "internalType": "uint256",
          "name": "",
          "type": "uint256"
        }
      ],
      "stateMutability": "view",
      "type": "function"
    },
    {
      "inputs": [],
      "name": "OPERATOR",
      "outputs": [
        {
          "internalType": "bytes32",
          "name": "",
          "type": "bytes32"
        }
      ],
      "stateMutability": "view",
      "type": "function"
    },
    {
      "inputs": [],
      "name": "Q96",
      "outputs": [
        {
          "internalType": "uint256",
          "name": "",
          "type": "uint256"
        }
      ],
      "stateMutability": "view",
      "type": "function"
    },
    {
      "inputs": [
        {
          "components": [
            {
              "internalType": "address",
              "name": "router",
              "type": "address"
            },
            {
              "internalType": "contract IERC20Vault",
              "name": "erc20Vault",
              "type": "address"
            },
            {
              "internalType": "contract IUniV3Vault",
              "name": "uniV3Vault",
              "type": "address"
            },
            {
              "internalType": "address[]",
              "name": "tokens",
              "type": "address[]"
            }
          ],
          "internalType": "struct PulseRouteStrategy.ImmutableParams",
          "name": "immutableParams_",
          "type": "tuple"
        },
        {
          "components": [
            {
              "internalType": "uint24",
              "name": "priceImpactD6",
              "type": "uint24"
            },
            {
              "internalType": "int24",
              "name": "intervalWidth",
              "type": "int24"
            },
            {
              "internalType": "int24",
              "name": "tickNeighborhood",
              "type": "int24"
            },
            {
              "internalType": "int24",
              "name": "maxDeviationForVaultPool",
              "type": "int24"
            },
            {
              "internalType": "uint32",
              "name": "timespanForAverageTick",
              "type": "uint32"
            },
            {
              "internalType": "bytes",
              "name": "pathZeroToOne",
              "type": "bytes"
            },
            {
              "internalType": "bytes",
              "name": "pathOneToZero",
              "type": "bytes"
            },
            {
              "internalType": "uint256",
              "name": "amount0Desired",
              "type": "uint256"
            },
            {
              "internalType": "uint256",
              "name": "amount1Desired",
              "type": "uint256"
            },
            {
              "internalType": "uint256",
              "name": "swapSlippageD",
              "type": "uint256"
            },
            {
              "internalType": "uint256[]",
              "name": "minSwapAmounts",
              "type": "uint256[]"
            }
          ],
          "internalType": "struct PulseRouteStrategy.MutableParams",
          "name": "mutableParams_",
          "type": "tuple"
        },
        {
          "internalType": "uint256",
          "name": "priceX96",
          "type": "uint256"
        },
        {
          "internalType": "uint256",
          "name": "targetRatioOfToken1X96",
          "type": "uint256"
        }
      ],
      "name": "calculateAmountsForSwap",
      "outputs": [
        {
          "internalType": "uint256",
          "name": "tokenInIndex",
          "type": "uint256"
        },
        {
          "internalType": "uint256",
          "name": "amountIn",
          "type": "uint256"
        }
      ],
      "stateMutability": "view",
      "type": "function"
    },
    {
      "inputs": [
        {
          "components": [
            {
              "internalType": "uint24",
              "name": "priceImpactD6",
              "type": "uint24"
            },
            {
              "internalType": "int24",
              "name": "intervalWidth",
              "type": "int24"
            },
            {
              "internalType": "int24",
              "name": "tickNeighborhood",
              "type": "int24"
            },
            {
              "internalType": "int24",
              "name": "maxDeviationForVaultPool",
              "type": "int24"
            },
            {
              "internalType": "uint32",
              "name": "timespanForAverageTick",
              "type": "uint32"
            },
            {
              "internalType": "bytes",
              "name": "pathZeroToOne",
              "type": "bytes"
            },
            {
              "internalType": "bytes",
              "name": "pathOneToZero",
              "type": "bytes"
            },
            {
              "internalType": "uint256",
              "name": "amount0Desired",
              "type": "uint256"
            },
            {
              "internalType": "uint256",
              "name": "amount1Desired",
              "type": "uint256"
            },
            {
              "internalType": "uint256",
              "name": "swapSlippageD",
              "type": "uint256"
            },
            {
              "internalType": "uint256[]",
              "name": "minSwapAmounts",
              "type": "uint256[]"
            }
          ],
          "internalType": "struct PulseRouteStrategy.MutableParams",
          "name": "mutableParams_",
          "type": "tuple"
        },
        {
          "internalType": "int24",
          "name": "tick",
          "type": "int24"
        },
        {
          "internalType": "contract IUniswapV3Pool",
          "name": "pool",
          "type": "address"
        }
      ],
      "name": "calculateNewInterval",
      "outputs": [
        {
          "internalType": "int24",
          "name": "lowerTick",
          "type": "int24"
        },
        {
          "internalType": "int24",
          "name": "upperTick",
          "type": "int24"
        }
      ],
      "stateMutability": "view",
      "type": "function"
    },
    {
      "inputs": [
        {
          "components": [
            {
              "internalType": "int24",
              "name": "lowerTick",
              "type": "int24"
            },
            {
              "internalType": "int24",
              "name": "upperTick",
              "type": "int24"
            }
          ],
          "internalType": "struct PulseRouteStrategy.Interval",
          "name": "interval",
          "type": "tuple"
        },
        {
          "internalType": "uint160",
          "name": "sqrtSpotPriceX96",
          "type": "uint160"
        },
        {
          "internalType": "uint256",
          "name": "spotPriceX96",
          "type": "uint256"
        }
      ],
      "name": "calculateTargetRatioOfToken1",
      "outputs": [
        {
          "internalType": "uint256",
          "name": "targetRatioOfToken1X96",
          "type": "uint256"
        }
      ],
      "stateMutability": "pure",
      "type": "function"
    },
    {
      "inputs": [
        {
          "components": [
            {
              "internalType": "address",
              "name": "router",
              "type": "address"
            },
            {
              "internalType": "contract IERC20Vault",
              "name": "erc20Vault",
              "type": "address"
            },
            {
              "internalType": "contract IUniV3Vault",
              "name": "uniV3Vault",
              "type": "address"
            },
            {
              "internalType": "address[]",
              "name": "tokens",
              "type": "address[]"
            }
          ],
          "internalType": "struct PulseRouteStrategy.ImmutableParams",
          "name": "params",
          "type": "tuple"
        }
      ],
      "name": "checkImmutableParams",
      "outputs": [],
      "stateMutability": "view",
      "type": "function"
    },
    {
      "inputs": [
        {
          "components": [
            {
              "internalType": "uint24",
              "name": "priceImpactD6",
              "type": "uint24"
            },
            {
              "internalType": "int24",
              "name": "intervalWidth",
              "type": "int24"
            },
            {
              "internalType": "int24",
              "name": "tickNeighborhood",
              "type": "int24"
            },
            {
              "internalType": "int24",
              "name": "maxDeviationForVaultPool",
              "type": "int24"
            },
            {
              "internalType": "uint32",
              "name": "timespanForAverageTick",
              "type": "uint32"
            },
            {
              "internalType": "bytes",
              "name": "pathZeroToOne",
              "type": "bytes"
            },
            {
              "internalType": "bytes",
              "name": "pathOneToZero",
              "type": "bytes"
            },
            {
              "internalType": "uint256",
              "name": "amount0Desired",
              "type": "uint256"
            },
            {
              "internalType": "uint256",
              "name": "amount1Desired",
              "type": "uint256"
            },
            {
              "internalType": "uint256",
              "name": "swapSlippageD",
              "type": "uint256"
            },
            {
              "internalType": "uint256[]",
              "name": "minSwapAmounts",
              "type": "uint256[]"
            }
          ],
          "internalType": "struct PulseRouteStrategy.MutableParams",
          "name": "params",
          "type": "tuple"
        },
        {
          "components": [
            {
              "internalType": "address",
              "name": "router",
              "type": "address"
            },
            {
              "internalType": "contract IERC20Vault",
              "name": "erc20Vault",
              "type": "address"
            },
            {
              "internalType": "contract IUniV3Vault",
              "name": "uniV3Vault",
              "type": "address"
            },
            {
              "internalType": "address[]",
              "name": "tokens",
              "type": "address[]"
            }
          ],
          "internalType": "struct PulseRouteStrategy.ImmutableParams",
          "name": "immutableParams_",
          "type": "tuple"
        }
      ],
      "name": "checkMutableParams",
      "outputs": [],
      "stateMutability": "view",
      "type": "function"
    },
    {
      "inputs": [
        {
          "components": [
            {
              "internalType": "uint24",
              "name": "priceImpactD6",
              "type": "uint24"
            },
            {
              "internalType": "int24",
              "name": "intervalWidth",
              "type": "int24"
            },
            {
              "internalType": "int24",
              "name": "tickNeighborhood",
              "type": "int24"
            },
            {
              "internalType": "int24",
              "name": "maxDeviationForVaultPool",
              "type": "int24"
            },
            {
              "internalType": "uint32",
              "name": "timespanForAverageTick",
              "type": "uint32"
            },
            {
              "internalType": "bytes",
              "name": "pathZeroToOne",
              "type": "bytes"
            },
            {
              "internalType": "bytes",
              "name": "pathOneToZero",
              "type": "bytes"
            },
            {
              "internalType": "uint256",
              "name": "amount0Desired",
              "type": "uint256"
            },
            {
              "internalType": "uint256",
              "name": "amount1Desired",
              "type": "uint256"
            },
            {
              "internalType": "uint256",
              "name": "swapSlippageD",
              "type": "uint256"
            },
            {
              "internalType": "uint256[]",
              "name": "minSwapAmounts",
              "type": "uint256[]"
            }
          ],
          "internalType": "struct PulseRouteStrategy.MutableParams",
          "name": "mutableParams_",
          "type": "tuple"
        },
        {
          "internalType": "contract IUniswapV3Pool",
          "name": "vaultPool",
          "type": "address"
        },
        {
          "internalType": "int24",
          "name": "spotTick",
          "type": "int24"
        }
      ],
      "name": "checkTickDeviations",
      "outputs": [],
      "stateMutability": "view",
      "type": "function"
    },
    {
      "inputs": [],
      "name": "contractName",
      "outputs": [
        {
          "internalType": "string",
          "name": "",
          "type": "string"
        }
      ],
      "stateMutability": "pure",
      "type": "function"
    },
    {
      "inputs": [],
      "name": "contractNameBytes",
      "outputs": [
        {
          "internalType": "bytes32",
          "name": "",
          "type": "bytes32"
        }
      ],
      "stateMutability": "pure",
      "type": "function"
    },
    {
      "inputs": [],
      "name": "contractVersion",
      "outputs": [
        {
          "internalType": "string",
          "name": "",
          "type": "string"
        }
      ],
      "stateMutability": "pure",
      "type": "function"
    },
    {
      "inputs": [],
      "name": "contractVersionBytes",
      "outputs": [
        {
          "internalType": "bytes32",
          "name": "",
          "type": "bytes32"
        }
      ],
      "stateMutability": "pure",
      "type": "function"
    },
    {
      "inputs": [],
      "name": "depositCallback",
      "outputs": [],
      "stateMutability": "nonpayable",
      "type": "function"
    },
    {
      "inputs": [
        {
          "internalType": "bytes32",
          "name": "role",
          "type": "bytes32"
        }
      ],
      "name": "getRoleAdmin",
      "outputs": [
        {
          "internalType": "bytes32",
          "name": "",
          "type": "bytes32"
        }
      ],
      "stateMutability": "view",
      "type": "function"
    },
    {
      "inputs": [
        {
          "internalType": "bytes32",
          "name": "role",
          "type": "bytes32"
        },
        {
          "internalType": "uint256",
          "name": "index",
          "type": "uint256"
        }
      ],
      "name": "getRoleMember",
      "outputs": [
        {
          "internalType": "address",
          "name": "",
          "type": "address"
        }
      ],
      "stateMutability": "view",
      "type": "function"
    },
    {
      "inputs": [
        {
          "internalType": "bytes32",
          "name": "role",
          "type": "bytes32"
        }
      ],
      "name": "getRoleMemberCount",
      "outputs": [
        {
          "internalType": "uint256",
          "name": "",
          "type": "uint256"
        }
      ],
      "stateMutability": "view",
      "type": "function"
    },
    {
      "inputs": [
        {
          "internalType": "bytes32",
          "name": "role",
          "type": "bytes32"
        },
        {
          "internalType": "address",
          "name": "account",
          "type": "address"
        }
      ],
      "name": "grantRole",
      "outputs": [],
      "stateMutability": "nonpayable",
      "type": "function"
    },
    {
      "inputs": [
        {
          "internalType": "bytes32",
          "name": "role",
          "type": "bytes32"
        },
        {
          "internalType": "address",
          "name": "account",
          "type": "address"
        }
      ],
      "name": "hasRole",
      "outputs": [
        {
          "internalType": "bool",
          "name": "",
          "type": "bool"
        }
      ],
      "stateMutability": "view",
      "type": "function"
    },
    {
      "inputs": [],
      "name": "immutableParams",
      "outputs": [
        {
          "internalType": "address",
          "name": "router",
          "type": "address"
        },
        {
          "internalType": "contract IERC20Vault",
          "name": "erc20Vault",
          "type": "address"
        },
        {
          "internalType": "contract IUniV3Vault",
          "name": "uniV3Vault",
          "type": "address"
        }
      ],
      "stateMutability": "view",
      "type": "function"
    },
    {
      "inputs": [
        {
          "internalType": "address",
          "name": "admin",
          "type": "address"
        }
      ],
      "name": "init",
      "outputs": [],
      "stateMutability": "nonpayable",
      "type": "function"
    },
    {
      "inputs": [
        {
          "components": [
            {
              "internalType": "address",
              "name": "router",
              "type": "address"
            },
            {
              "internalType": "contract IERC20Vault",
              "name": "erc20Vault",
              "type": "address"
            },
            {
              "internalType": "contract IUniV3Vault",
              "name": "uniV3Vault",
              "type": "address"
            },
            {
              "internalType": "address[]",
              "name": "tokens",
              "type": "address[]"
            }
          ],
          "internalType": "struct PulseRouteStrategy.ImmutableParams",
          "name": "immutableParams_",
          "type": "tuple"
        },
        {
          "internalType": "address",
          "name": "admin",
          "type": "address"
        }
      ],
      "name": "initialize",
      "outputs": [],
      "stateMutability": "nonpayable",
      "type": "function"
    },
    {
      "inputs": [],
      "name": "initialized",
      "outputs": [
        {
          "internalType": "bool",
          "name": "",
          "type": "bool"
        }
      ],
      "stateMutability": "view",
      "type": "function"
    },
    {
      "inputs": [
        {
          "internalType": "address",
          "name": "sender",
          "type": "address"
        }
      ],
      "name": "isAdmin",
      "outputs": [
        {
          "internalType": "bool",
          "name": "",
          "type": "bool"
        }
      ],
      "stateMutability": "view",
      "type": "function"
    },
    {
      "inputs": [
        {
          "internalType": "address",
          "name": "sender",
          "type": "address"
        }
      ],
      "name": "isOperator",
      "outputs": [
        {
          "internalType": "bool",
          "name": "",
          "type": "bool"
        }
      ],
      "stateMutability": "view",
      "type": "function"
    },
    {
      "inputs": [
        {
          "internalType": "bytes[]",
          "name": "data",
          "type": "bytes[]"
        }
      ],
      "name": "multicall",
      "outputs": [
        {
          "internalType": "bytes[]",
          "name": "results",
          "type": "bytes[]"
        }
      ],
      "stateMutability": "nonpayable",
      "type": "function"
    },
    {
      "inputs": [],
      "name": "mutableParams",
      "outputs": [
        {
          "internalType": "uint24",
          "name": "priceImpactD6",
          "type": "uint24"
        },
        {
          "internalType": "int24",
          "name": "intervalWidth",
          "type": "int24"
        },
        {
          "internalType": "int24",
          "name": "tickNeighborhood",
          "type": "int24"
        },
        {
          "internalType": "int24",
          "name": "maxDeviationForVaultPool",
          "type": "int24"
        },
        {
          "internalType": "uint32",
          "name": "timespanForAverageTick",
          "type": "uint32"
        },
        {
          "internalType": "bytes",
          "name": "pathZeroToOne",
          "type": "bytes"
        },
        {
          "internalType": "bytes",
          "name": "pathOneToZero",
          "type": "bytes"
        },
        {
          "internalType": "uint256",
          "name": "amount0Desired",
          "type": "uint256"
        },
        {
          "internalType": "uint256",
          "name": "amount1Desired",
          "type": "uint256"
        },
        {
          "internalType": "uint256",
          "name": "swapSlippageD",
          "type": "uint256"
        }
      ],
      "stateMutability": "view",
      "type": "function"
    },
    {
      "inputs": [],
      "name": "positionManager",
      "outputs": [
        {
          "internalType": "contract INonfungiblePositionManager",
          "name": "",
          "type": "address"
        }
      ],
      "stateMutability": "view",
      "type": "function"
    },
    {
      "inputs": [
        {
          "internalType": "uint256",
          "name": "deadline",
          "type": "uint256"
        }
      ],
      "name": "rebalance",
      "outputs": [],
      "stateMutability": "nonpayable",
      "type": "function"
    },
    {
      "inputs": [
        {
          "internalType": "bytes32",
          "name": "role",
          "type": "bytes32"
        },
        {
          "internalType": "address",
          "name": "account",
          "type": "address"
        }
      ],
      "name": "renounceRole",
      "outputs": [],
      "stateMutability": "nonpayable",
      "type": "function"
    },
    {
      "inputs": [
        {
          "internalType": "bytes32",
          "name": "role",
          "type": "bytes32"
        },
        {
          "internalType": "address",
          "name": "account",
          "type": "address"
        }
      ],
      "name": "revokeRole",
      "outputs": [],
      "stateMutability": "nonpayable",
      "type": "function"
    },
    {
      "inputs": [
        {
          "internalType": "bytes4",
          "name": "interfaceId",
          "type": "bytes4"
        }
      ],
      "name": "supportsInterface",
      "outputs": [
        {
          "internalType": "bool",
          "name": "",
          "type": "bool"
        }
      ],
      "stateMutability": "view",
      "type": "function"
    },
    {
      "inputs": [
        {
          "components": [
            {
              "internalType": "uint24",
              "name": "priceImpactD6",
              "type": "uint24"
            },
            {
              "internalType": "int24",
              "name": "intervalWidth",
              "type": "int24"
            },
            {
              "internalType": "int24",
              "name": "tickNeighborhood",
              "type": "int24"
            },
            {
              "internalType": "int24",
              "name": "maxDeviationForVaultPool",
              "type": "int24"
            },
            {
              "internalType": "uint32",
              "name": "timespanForAverageTick",
              "type": "uint32"
            },
            {
              "internalType": "bytes",
              "name": "pathZeroToOne",
              "type": "bytes"
            },
            {
              "internalType": "bytes",
              "name": "pathOneToZero",
              "type": "bytes"
            },
            {
              "internalType": "uint256",
              "name": "amount0Desired",
              "type": "uint256"
            },
            {
              "internalType": "uint256",
              "name": "amount1Desired",
              "type": "uint256"
            },
            {
              "internalType": "uint256",
              "name": "swapSlippageD",
              "type": "uint256"
            },
            {
              "internalType": "uint256[]",
              "name": "minSwapAmounts",
              "type": "uint256[]"
            }
          ],
          "internalType": "struct PulseRouteStrategy.MutableParams",
          "name": "mutableParams_",
          "type": "tuple"
        }
      ],
      "name": "updateMutableParams",
      "outputs": [],
      "stateMutability": "nonpayable",
      "type": "function"
    },
    {
      "inputs": [],
      "name": "withdrawCallback",
      "outputs": [],
      "stateMutability": "nonpayable",
      "type": "function"
    }
  ],
  "bytecode": {
    "object": "0x60a06040523480156200001157600080fd5b5060405162005a2c38038062005a2c833981016040819052620000349162000093565b60408051808201909152600281526120ad60f11b60208201526001600160a01b038216620000805760405162461bcd60e51b8152600401620000779190620000c5565b60405180910390fd5b506001600160a01b03166080526200011d565b600060208284031215620000a657600080fd5b81516001600160a01b0381168114620000be57600080fd5b9392505050565b600060208083528351808285015260005b81811015620000f457858101830151858201604001528201620000d6565b8181111562000107576000604083870101525b50601f01601f1916929092016040019392505050565b6080516158d06200015c600039600081816103e7015281816114ad01528181612f11015281816131d7015281816133be015261347201526158d06000f3fe608060405234801561001057600080fd5b506004361061023d5760003560e01c8063791b98bc1161013b578063b4559f3e116100b8578063e0d3003b1161007c578063e0d3003b14610537578063e3b3f79914610434578063e521826f14610564578063ee5f18081461056c578063f49930181461059457600080fd5b8063b4559f3e146102d2578063c8014d53146104b4578063ca15c873146104fe578063cc89f67e14610511578063d547741f1461052457600080fd5b80639bb37ba8116100ff5780639bb37ba814610467578063a0a8e4601461047a578063a11bac7414610482578063a217fddf1461048c578063ac9650d81461049457600080fd5b8063791b98bc146103e25780639010d07c14610421578063918f86741461043457806391d148541461043f578063983d27371461045257600080fd5b80632f2ff15d116101c95780635f408a211161018d5780635f408a21146103745780636d70f7ae146103925780636ff0b358146103a557806375b238fc146103b857806375d0c0dc146103cd57600080fd5b80632f2ff15d1461031d57806336568abe146103305780634079246514610343578063475cffef1461034e578063529037ce1461036157600080fd5b8063158ef93e11610210578063158ef93e146102b257806319ab453c146102bf5780631bfcd8b2146102d4578063248a9ca3146102e757806324d7806c1461030a57600080fd5b806301ffc9a71461024257806306a462391461026a5780630952ff54146102825780630e3e80ac14610297575b600080fd5b6102556102503660046140d5565b6105a7565b60405190151581526020015b60405180910390f35b640312e302e360dc1b5b604051908152602001610261565b61027460008051602061581483398151915281565b7150756c7365526f757465537472617465677960701b610274565b6002546102559060ff1681565b6102d26102cd366004614114565b6105d7565b005b6102d26102e2366004614422565b610706565b6102746102f5366004614485565b60009081526020819052604090206001015490565b610255610318366004614114565b6107d2565b6102d261032b36600461449e565b61080a565b6102d261033e36600461449e565b610834565b610274600160601b81565b6102d261035c3660046145ab565b6108b2565b6102d261036f3660046145df565b610e51565b61037c6112a6565b6040516102619a9998979695949392919061469a565b6102556103a0366004614114565b611414565b6102d26103b3366004614719565b61142e565b61027460008051602061583483398151915281565b6103d561160e565b604051610261919061475f565b6104097f000000000000000000000000000000000000000000000000000000000000000081565b6040516001600160a01b039091168152602001610261565b61040961042f366004614772565b61162e565b610274633b9aca0081565b61025561044d36600461449e565b61164d565b61027460008051602061585483398151915281565b610274610475366004614794565b611676565b6103d5611766565b610274620f424081565b610274600081565b6104a76104a236600461481f565b611779565b6040516102619190614893565b6003546004546005546104d4926001600160a01b03908116928116911683565b604080516001600160a01b0394851681529284166020840152921691810191909152606001610261565b61027461050c366004614485565b61186f565b6102d261051f3660046148f5565b611886565b6102d261053236600461449e565b611a77565b61054a610545366004614929565b611a9c565b60408051600293840b81529190920b602082015201610261565b6102d2611ba0565b61057f61057a366004614981565b611c3a565b60408051928352602083019190915201610261565b6102d26105a2366004614485565b611ec5565b60006001600160e01b03198216635a05180f60e01b14806105cc57506105cc826122fc565b92915050565b905090565b60408051808201909152600281526120ad60f11b60208201526001600160a01b0382166106205760405162461bcd60e51b8152600401610617919061475f565b60405180910390fd5b506002546040805180820190915260048152631253925560e21b60208201529060ff16156106615760405162461bcd60e51b8152600401610617919061475f565b5061067a60008051602061585483398151915282612331565b61069260008051602061583483398151915282612331565b6106aa6000805160206158348339815191528061233b565b6106d060008051602061581483398151915260008051602061583483398151915261233b565b6106f660008051602061585483398151915260008051602061581483398151915261233b565b506002805460ff19166001179055565b600080610717848660800151612386565b925050915080156040518060400160405280600581526020016412539594d560da1b8152509061075a5760405162461bcd60e51b8152600401610617919061475f565b5060006107678385614a0a565b905060008160020b12156107815761077e81614a52565b90505b856060015160020b8160020b12604051806040016040528060048152602001634c494d4f60e01b815250906107c95760405162461bcd60e51b8152600401610617919061475f565b50505050505050565b60006107ec6000805160206158348339815191528361164d565b806105cc57506105cc6000805160206158148339815191528361164d565b600082815260208190526040902060010154610825816125e0565b61082f83836125ed565b505050565b6001600160a01b03811633146108a45760405162461bcd60e51b815260206004820152602f60248201527f416363657373436f6e74726f6c3a2063616e206f6e6c792072656e6f756e636560448201526e103937b632b9903337b91039b2b63360891b6064820152608401610617565b6108ae828261260f565b5050565b806060015151600214604051806040016040528060048152602001631253959360e21b815250906108f65760405162461bcd60e51b8152600401610617919061475f565b5060006001600160a01b0316816060015160008151811061091957610919614a75565b60200260200101516001600160a01b031614156040518060400160405280600281526020016120ad60f11b815250906109655760405162461bcd60e51b8152600401610617919061475f565b5060006001600160a01b0316816060015160018151811061098857610988614a75565b60200260200101516001600160a01b031614156040518060400160405280600281526020016120ad60f11b815250906109d45760405162461bcd60e51b8152600401610617919061475f565b50805160408051808201909152600281526120ad60f11b6020820152906001600160a01b0316610a175760405162461bcd60e51b8152600401610617919061475f565b5060006001600160a01b031681602001516001600160a01b031614156040518060400160405280600281526020016120ad60f11b81525090610a6c5760405162461bcd60e51b8152600401610617919061475f565b50600081602001516001600160a01b031663697222336040518163ffffffff1660e01b815260040160006040518083038186803b158015610aac57600080fd5b505afa158015610ac0573d6000803e3d6000fd5b505050506040513d6000823e601f3d908101601f19168201604052610ae89190810190614a96565b90508051600214604051806040016040528060048152602001631253959360e21b81525090610b2a5760405162461bcd60e51b8152600401610617919061475f565b508160600151600081518110610b4257610b42614a75565b60200260200101516001600160a01b031681600081518110610b6657610b66614a75565b60200260200101516001600160a01b03161460405180604001604052806004815260200163494e564160e01b81525090610bb35760405162461bcd60e51b8152600401610617919061475f565b508160600151600181518110610bcb57610bcb614a75565b60200260200101516001600160a01b031681600181518110610bef57610bef614a75565b60200260200101516001600160a01b03161460405180604001604052806004815260200163494e564160e01b81525090610c3c5760405162461bcd60e51b8152600401610617919061475f565b50506040808201518151808301909252600282526120ad60f11b60208301526001600160a01b0316610c815760405162461bcd60e51b8152600401610617919061475f565b50600081604001516001600160a01b031663697222336040518163ffffffff1660e01b815260040160006040518083038186803b158015610cc157600080fd5b505afa158015610cd5573d6000803e3d6000fd5b505050506040513d6000823e601f3d908101601f19168201604052610cfd9190810190614a96565b90508051600214604051806040016040528060048152602001631253959360e21b81525090610d3f5760405162461bcd60e51b8152600401610617919061475f565b508160600151600081518110610d5757610d57614a75565b60200260200101516001600160a01b031681600081518110610d7b57610d7b614a75565b60200260200101516001600160a01b03161460405180604001604052806004815260200163494e564160e01b81525090610dc85760405162461bcd60e51b8152600401610617919061475f565b508160600151600181518110610de057610de0614a75565b60200260200101516001600160a01b031681600181518110610e0457610e04614a75565b60200260200101516001600160a01b03161460405180604001604052806004815260200163494e564160e01b8152509061082f5760405162461bcd60e51b8152600401610617919061475f565b600081604001516001600160a01b03166316f0115b6040518163ffffffff1660e01b815260040160206040518083038186803b158015610e9057600080fd5b505afa158015610ea4573d6000803e3d6000fd5b505050506040513d601f19601f82011682018060405250810190610ec89190614b24565b6001600160a01b031663d0c93a7c6040518163ffffffff1660e01b815260040160206040518083038186803b158015610f0057600080fd5b505afa158015610f14573d6000803e3d6000fd5b505050506040513d601f19601f82011682018060405250810190610f389190614b4c565b90506000836020015160020b138015610f6b5750610f57816002614b69565b8360200151610f669190614c0c565b60020b155b6040518060400160405280600381526020016224a72b60e91b81525090610fa55760405162461bcd60e51b8152600401610617919061475f565b508260200151610fb490614a52565b60020b836040015160020b12158015610fe7575060028360200151610fd99190614c2e565b60020b836040015160020b13155b604051806040016040528060048152602001634c494d4f60e01b815250906110225760405162461bcd60e51b8152600401610617919061475f565b506000836060015160020b13604051806040016040528060048152602001634c494d5560e01b815250906110695760405162461bcd60e51b8152600401610617919061475f565b506000836080015163ffffffff1611604051806040016040528060028152602001612b2d60f11b815250906110b15760405162461bcd60e51b8152600401610617919061475f565b5062093a80836080015163ffffffff1610604051806040016040528060028152602001612b2d60f11b815250906110fb5760405162461bcd60e51b8152600401610617919061475f565b5060008360e0015111604051806040016040528060028152602001612b2d60f11b8152509061113d5760405162461bcd60e51b8152600401610617919061475f565b50633b9aca008360e001511115604051806040016040528060048152602001634c494d4f60e01b815250906111855760405162461bcd60e51b8152600401610617919061475f565b50600083610100015111604051806040016040528060028152602001612b2d60f11b815250906111c85760405162461bcd60e51b8152600401610617919061475f565b50633b9aca008361010001511115604051806040016040528060048152602001634c494d4f60e01b815250906112115760405162461bcd60e51b8152600401610617919061475f565b5082610140015151600214604051806040016040528060048152602001631253959360e21b815250906112575760405162461bcd60e51b8152600401610617919061475f565b50633b9aca008361012001511115604051806040016040528060048152602001634c494d4f60e01b815250906112a05760405162461bcd60e51b8152600401610617919061475f565b50505050565b600780546008805462ffffff83169363010000008404600290810b94600160301b8104820b94600160481b820490920b93600160601b90910463ffffffff169291906112f190614c68565b80601f016020809104026020016040519081016040528092919081815260200182805461131d90614c68565b801561136a5780601f1061133f5761010080835404028352916020019161136a565b820191906000526020600020905b81548152906001019060200180831161134d57829003601f168201915b50505050509080600201805461137f90614c68565b80601f01602080910402602001604051908101604052809291908181526020018280546113ab90614c68565b80156113f85780601f106113cd576101008083540402835291602001916113f8565b820191906000526020600020905b8154815290600101906020018083116113db57829003601f168201915b505050505090806003015490806004015490806005015490508a565b60006105cc6000805160206158548339815191528361164d565b611437826108b2565b8151600380546001600160a01b03199081166001600160a01b03938416178255602080860151600480548416918616919091179055604086015160058054909316941693909317905560608401518051859361149892600692910190613fad565b5090505060005b6002811015611604576115057f0000000000000000000000000000000000000000000000000000000000000000600019856060015184815181106114e5576114e5614a75565b60200260200101516001600160a01b03166126319092919063ffffffff16565b82602001516001600160a01b0316632e2f4cc28460600151838151811061152e5761152e614a75565b602002602001015163095ea7b360e01b866000015160001960405160200161156b9291906001600160a01b03929092168252602082015260400190565b6040516020818303038152906040526040518463ffffffff1660e01b815260040161159893929190614ca3565b600060405180830381600087803b1580156115b257600080fd5b505af19250505080156115e757506040513d6000823e601f3d908101601f191682016040526115e49190810190614ce0565b60015b6115f0576115f2565b505b806115fc81614d4d565b91505061149f565b506108ae816105d7565b60606105d27150756c7365526f757465537472617465677960701b61271f565b6000828152600160205260408120611646908361278b565b9392505050565b6000918252602082815260408084206001600160a01b0393909316845291905290205460ff1690565b6000806116868560000151612797565b6001600160a01b0316905060006116a08660200151612797565b6001600160a01b03169050846001600160a01b031682106116c657600092505050611646565b846001600160a01b031681116116e457600160601b92505050611646565b600061171e6116fc6001600160a01b03881684614d68565b600160601b611719896001600160a01b031686600160601b612bb4565b612bb4565b90506000611735846001600160a01b038916614d68565b905061175a81600160601b83611750868b600160601b612bb4565b6117199190614d7f565b98975050505050505050565b60606105d2640312e302e360dc1b61271f565b6060816001600160401b0381111561179357611793614131565b6040519080825280602002602001820160405280156117c657816020015b60608152602001906001900390816117b15790505b50905060005b8281101561186657611836308585848181106117ea576117ea614a75565b90506020028101906117fc9190614d97565b8080601f016020809104026020016040519081016040528093929190818152602001838380828437600092019190915250612c6792505050565b82828151811061184857611848614a75565b6020026020010181905250808061185e90614d4d565b9150506117cc565b5092915050565b565b60008181526001602052604081206105cc90612c8c565b61188e612c96565b60408051608081018252600380546001600160a01b0390811683526004548116602080850191909152600554909116838501526006805485518184028101840190965280865261192b9587959493606086019391929083018282801561191d57602002820191906000526020600020905b81546001600160a01b031681526001909101906020018083116118ff575b505050505081525050610e51565b80516007805460208085015160408601516060870151608088015163ffffffff16600160601b0263ffffffff60601b1962ffffff928316600160481b026bffffff00000000000000000019948416600160301b02949094166bffffffffffff0000000000001995841663010000000265ffffffffffff199098169390991692909217959095179290921695909517949094179390931617815560a0830151805184936119dc92600892910190614012565b5060c082015180516119f8916002840191602090910190614012565b5060e08201516003820155610100820151600482015561012082015160058201556101408201518051611a35916006840191602090910190614086565b505060405133915032907ffb7e9b13e22fd17dc0b3fda638286d357c799841deae803a576672cd0c99644d90611a6c908590614e1f565b60405180910390a350565b600082815260208190526040902060010154611a92816125e0565b61082f838361260f565b6000806000836001600160a01b031663d0c93a7c6040518163ffffffff1660e01b815260040160206040518083038186803b158015611ada57600080fd5b505afa158015611aee573d6000803e3d6000fd5b505050506040513d601f19601f82011682018060405250810190611b129190614b4c565b90506000611b208287614c0c565b611b2a9087614a0a565b9050600282900b611b3b8388614c0c565b611b46906002614b69565b60020b1315611b5c57611b598282614f06565b90505b60028760200151611b6d9190614c2e565b611b779082614a0a565b935060028760200151611b8a9190614c2e565b611b949082614f06565b92505050935093915050565b60408051608081018252600380546001600160a01b0390811683526004548116602080850191909152600554909116838501526006805485518184028101840190965280865261186d95606086019390929190830182828015611c2c57602002820191906000526020600020905b81546001600160a01b03168152600190910190602001808311611c0e575b505050505081525050612cd9565b60008080611c4c84600160601b614d68565b9050600087602001516001600160a01b031663e5328e066040518163ffffffff1660e01b815260040160006040518083038186803b158015611c8d57600080fd5b505afa158015611ca1573d6000803e3d6000fd5b505050506040513d6000823e601f3d908101601f19168201604052611cc99190810190614fa8565b5090506000611d3f82600181518110611ce457611ce4614a75565b6020026020010151600160601b611d1a85600081518110611d0757611d07614a75565b60200260200101518b600160601b612bb4565b85600181518110611d2d57611d2d614a75565b60200260200101516117199190614d7f565b90506000611d5e600160601b8a6000015162ffffff16620f4240612bb4565b905086821115611e0457600195506000611d7d600160601b808b612bb4565b9050611dfc611da78986600081518110611d9957611d99614a75565b602002602001015184612bb4565b611dd086600181518110611dbd57611dbd614a75565b602002602001015188600160601b612bb4565b611dda9190614d68565b600160601b611dee8b86600160601b612bb4565b61171990600160601b614d68565b955050611e7a565b60009550611e77611e308585600181518110611e2257611e22614a75565b60200260200101518b612bb4565b611e5985600081518110611e4657611e46614a75565b60200260200101518a600160601b612bb4565b611e639190614d68565b600160601b611dee8785600160601b612bb4565b94505b828681518110611e8c57611e8c614a75565b6020026020010151851115611eb857828681518110611ead57611ead614a75565b602002602001015194505b5050505094509492505050565b8042111560405180604001604052806002815260200161545360f01b81525090611f025760405162461bcd60e51b8152600401610617919061475f565b50611f0b612e31565b60408051608081018252600380546001600160a01b03908116835260045481166020808501919091526005549091168385015260068054855181840281018401909652808652600095606086019390929190830182828015611f9657602002820191906000526020600020905b81546001600160a01b03168152600190910190602001808311611f78575b50505091909252505060408051610160810182526007805462ffffff8116835263010000008104600290810b6020850152600160301b8204810b94840194909452600160481b810490930b6060830152600160601b90920463ffffffff1660808201526008805494955060009491935060a084019161201490614c68565b80601f016020809104026020016040519081016040528092919081815260200182805461204090614c68565b801561208d5780601f106120625761010080835404028352916020019161208d565b820191906000526020600020905b81548152906001019060200180831161207057829003601f168201915b505050505081526020016002820180546120a690614c68565b80601f01602080910402602001604051908101604052809291908181526020018280546120d290614c68565b801561211f5780601f106120f45761010080835404028352916020019161211f565b820191906000526020600020905b81548152906001019060200180831161210257829003601f168201915b505050505081526020016003820154815260200160048201548152602001600582015481526020016006820180548060200260200160405190810160405280929190818152602001828054801561219557602002820191906000526020600020905b815481526020019060010190808311612181575b5050505050815250509050600082604001516001600160a01b03166316f0115b6040518163ffffffff1660e01b815260040160206040518083038186803b1580156121df57600080fd5b505afa1580156121f3573d6000803e3d6000fd5b505050506040513d601f19601f820116820180604052508101906122179190614b24565b9050600080826001600160a01b0316633850c7bd6040518163ffffffff1660e01b815260040160e06040518083038186803b15801561225557600080fd5b505afa158015612269573d6000803e3d6000fd5b505050506040513d601f19601f8201168201806040525081019061228d9190615023565b5050505050915091506122a1848483610706565b60006122af86868487612e49565b90506122bd8686838661351b565b6122c686612cd9565b604051339032907f6dcf4e69cd04d9def52d660ea37a5b366adb7701505e48e75c03d6a51a343f6490600090a350505050505050565b60006001600160e01b03198216637965db0b60e01b14806105cc57506301ffc9a760e01b6001600160e01b03198316146105cc565b6108ae82826125ed565b600082815260208190526040808220600101805490849055905190918391839186917fbd79b86ffe0ab8e8776151514217cd7cacd52c909f66475c3af44e129f0b00ff9190a4505050565b6000808063ffffffff84166123c25760405162461bcd60e51b8152602060048201526002602482015261042560f41b6044820152606401610617565b60408051600280825260608201835260009260208301908036833701905050905084816000815181106123f7576123f7614a75565b602002602001019063ffffffff16908163ffffffff168152505060008160018151811061242657612426614a75565b63ffffffff9092166020928302919091019091015260405163883bdbfd60e01b81526001600160a01b0387169063883bdbfd906124679084906004016150b6565b60006040518083038186803b15801561247f57600080fd5b505afa9250505080156124b457506040513d6000823e601f3d908101601f191682016040526124b19190810190615164565b60015b6124c9576000806001935093509350506125d9565b6000826000815181106124de576124de614a75565b6020026020010151836001815181106124f9576124f9614a75565b602002602001015161250b9190615225565b905060008260008151811061252257612522614a75565b60200260200101518360018151811061253d5761253d614a75565b602002602001015161254f919061526b565b905061256163ffffffff8a1683615293565b975060008260060b128015612587575061258163ffffffff8a16836152c8565b60060b15155b1561259a5787612596816152ea565b9850505b60006125b36001600160a01b0363ffffffff8c1661530e565b90506125d0640100000000600160c01b03602084901b168261533d565b97505050505050505b9250925092565b6125ea8133613851565b50565b6125f782826138aa565b600082815260016020526040902061082f908261392e565b6126198282613943565b600082815260016020526040902061082f90826139a8565b604051636eb1769f60e11b81523060048201526001600160a01b0383811660248301526000919085169063dd62ed3e9060440160206040518083038186803b15801561267c57600080fd5b505afa158015612690573d6000803e3d6000fd5b505050506040513d601f19601f820116820180604052508101906126b49190615363565b90506112a08463095ea7b360e01b856126cd8686614d7f565b6040516001600160a01b039092166024830152604482015260640160408051601f198184030181529190526020810180516001600160e01b03166001600160e01b0319909316929092179091526139bd565b604080516020808252818301909252606091602082018180368337019050509050602060005b602081101561277d5783816020811061276057612760614a75565b1a61276d5780915061277d565b61277681614d4d565b9050612745565b508152602081019190915290565b60006116468383613a92565b60008060008360020b126127ae578260020b6127bb565b8260020b6127bb9061537c565b90506127ca620d89e719614a52565b60020b8111156128005760405162461bcd60e51b81526020600482015260016024820152601560fa1b6044820152606401610617565b60006001821661281457600160801b612826565b6ffffcb933bd6fad37aa2d162d1a5940015b70ffffffffffffffffffffffffffffffffff1690506002821615612865576080612860826ffff97272373d413259a46990580e213a615399565b901c90505b600482161561288f57608061288a826ffff2e50f5f656932ef12357cf3c7fdcc615399565b901c90505b60088216156128b95760806128b4826fffe5caca7e10e4e61c3624eaa0941cd0615399565b901c90505b60108216156128e35760806128de826fffcb9843d60f6159c9db58835c926644615399565b901c90505b602082161561290d576080612908826fff973b41fa98c081472e6896dfb254c0615399565b901c90505b6040821615612937576080612932826fff2ea16466c96a3843ec78b326b52861615399565b901c90505b608082161561296157608061295c826ffe5dee046a99a2a811c461f1969c3053615399565b901c90505b61010082161561298c576080612987826ffcbe86c7900a88aedcffc83b479aa3a4615399565b901c90505b6102008216156129b75760806129b2826ff987a7253ac413176f2b074cf7815e54615399565b901c90505b6104008216156129e25760806129dd826ff3392b0822b70005940c7a398e4b70f3615399565b901c90505b610800821615612a0d576080612a08826fe7159475a2c29b7443b29c7fa6e889d9615399565b901c90505b611000821615612a38576080612a33826fd097f3bdfd2022b8845ad8f792aa5825615399565b901c90505b612000821615612a63576080612a5e826fa9f746462d870fdf8a65dc1f90e061e5615399565b901c90505b614000821615612a8e576080612a89826f70d869a156d2a1b890bb3df62baf32f7615399565b901c90505b618000821615612ab9576080612ab4826f31be135f97d08fd981231505542fcfa6615399565b901c90505b62010000821615612ae5576080612ae0826f09aa508b5b7a84e1c677de54f3e99bc9615399565b901c90505b62020000821615612b10576080612b0b826e5d6af8dedb81196699c329225ee604615399565b901c90505b62040000821615612b3a576080612b35826d2216e584f5fa1ea926041bedfe98615399565b901c90505b62080000821615612b62576080612b5d826b048a170391f7dc42444e8fa2615399565b901c90505b60008460020b1315612b7d57612b7a816000196153b8565b90505b612b8c640100000000826153cc565b15612b98576001612b9b565b60005b612bac9060ff16602083901c614d7f565b949350505050565b600080806000198587098587029250828110838203039150508060001415612bee5760008411612be357600080fd5b508290049050611646565b808411612bfa57600080fd5b6000848688096000868103871696879004966002600389028118808a02820302808a02820302808a02820302808a02820302808a02820302808a02909103029181900381900460010186841190950394909402919094039290920491909117919091029150509392505050565b6060611646838360405180606001604052806027815260200161587460279139613abc565b60006105cc825490565b612c9f336107d2565b6040518060400160405280600381526020016223292160e91b815250906125ea5760405162461bcd60e51b8152600401610617919061475f565b600081602001516001600160a01b031663e5328e066040518163ffffffff1660e01b815260040160006040518083038186803b158015612d1857600080fd5b505afa158015612d2c573d6000803e3d6000fd5b505050506040513d6000823e601f3d908101601f19168201604052612d549190810190614fa8565b509050600081600081518110612d6c57612d6c614a75565b60200260200101511180612d9a5750600081600181518110612d9057612d90614a75565b6020026020010151115b156108ae5781602001516001600160a01b0316632062d75483604001518460600151846040518463ffffffff1660e01b8152600401612ddb939291906153e0565b600060405180830381600087803b158015612df557600080fd5b505af1158015612e09573d6000803e3d6000fd5b505050506040513d6000823e601f3d908101601f1916820160405261082f9190810190615460565b612e3a336107d2565b80612c9f5750612c9f33611414565b60408051808201909152600080825260208201526000856040015190506000816001600160a01b031663f4adc08b6040518163ffffffff1660e01b815260040160206040518083038186803b158015612ea157600080fd5b505afa158015612eb5573d6000803e3d6000fd5b505050506040513d601f19601f82011682018060405250810190612ed99190615363565b9050801561319f5760408051808201825260008082526020820152905163133f757160e31b8152600481018390526001600160a01b037f000000000000000000000000000000000000000000000000000000000000000016906399fbab88906024016101806040518083038186803b158015612f5457600080fd5b505afa158015612f68573d6000803e3d6000fd5b505050506040513d601f19601f82011682018060405250810190612f8c91906154b6565b50505050600291820b60208a01525090810b80885260408e0151918d900b9650612fbc955093509150614f069050565b60020b13158015612fe6575086604001518160200151612fdc9190614a0a565b60020b8660020b13155b801561300b575080516020820151612ffe9190614a0a565b60020b876020015160020b145b1561309257826001600160a01b031663c27b2c2d6040518163ffffffff1660e01b8152600401600060405180830381600087803b15801561304b57600080fd5b505af115801561305f573d6000803e3d6000fd5b505050506040513d6000823e601f3d908101601f191682016040526130879190810190615460565b509250612bac915050565b602088015160608901516040516303217f1d60e61b81526001600160801b0360048201526001600160a01b03861692632062d754929091849063c85fc7409060240160006040518083038186803b1580156130ec57600080fd5b505afa158015613100573d6000803e3d6000fd5b505050506040513d6000823e601f3d908101601f191682016040526131289190810190615460565b6040518463ffffffff1660e01b8152600401613146939291906153e0565b600060405180830381600087803b15801561316057600080fd5b505af1158015613174573d6000803e3d6000fd5b505050506040513d6000823e601f3d908101601f1916820160405261319c9190810190615460565b50505b6131aa868686611a9c565b600290810b60208601520b8352604080516101608101909152606088015180516000926001600160a01b037f00000000000000000000000000000000000000000000000000000000000000001692638831645692829190869061320f5761320f614a75565b60200260200101516001600160a01b031681526020018b6060015160018151811061323c5761323c614a75565b60200260200101516001600160a01b03168152602001886001600160a01b031663ddca3f436040518163ffffffff1660e01b815260040160206040518083038186803b15801561328b57600080fd5b505afa15801561329f573d6000803e3d6000fd5b505050506040513d601f19601f820116820180604052508101906132c39190615597565b62ffffff168152602001876000015160020b8152602001876020015160020b81526020018a60e0015181526020018a610100015181526020016000815260200160008152602001306001600160a01b031681526020016000198152506040518263ffffffff1660e01b815260040161333b91906155b4565b608060405180830381600087803b15801561335557600080fd5b505af1158015613369573d6000803e3d6000fd5b505050506040513d601f19601f8201168201806040525081019061338d9190615678565b5050604051632142170760e11b81523060048201526001600160a01b038681166024830152604482018490529293507f0000000000000000000000000000000000000000000000000000000000000000909216916342842e0e9150606401600060405180830381600087803b15801561340557600080fd5b505af1158015613419573d6000803e3d6000fd5b505050507face8748d23af65e86cf543d0298345b95115752e382befe3e832eacd1508adb08160405161344e91815260200190565b60405180910390a1811561351057604051630852cd8d60e31b8152600481018390527f00000000000000000000000000000000000000000000000000000000000000006001600160a01b0316906342966c6890602401600060405180830381600087803b1580156134be57600080fd5b505af11580156134d2573d6000803e3d6000fd5b505050507f65d33d8ef62a81711748bbe2a7b67aef94d1a9af04a2690d3a4dfd13d9c1d22b8260405161350791815260200190565b60405180910390a15b505050949350505050565b60006135356001600160a01b03831680600160601b612bb4565b90506000613544848484611676565b905060008061355588888686611c3a565b91509150866101400151828151811061357057613570614a75565b602002602001015181101561358857505050506112a0565b6000606083613637576135a08387600160601b612bb4565b9150600760010180546135b290614c68565b80601f01602080910402602001604051908101604052809291908181526020018280546135de90614c68565b801561362b5780601f106136005761010080835404028352916020019161362b565b820191906000526020600020905b81548152906001019060200180831161360e57829003601f168201915b505050505090506136d9565b61364683600160601b88612bb4565b91506007600201805461365890614c68565b80601f016020809104026020016040519081016040528092919081815260200182805461368490614c68565b80156136d15780601f106136a6576101008083540402835291602001916136d1565b820191906000526020600020905b8154815290600101906020018083116136b457829003601f168201915b505050505090505b60006040518060a001604052808381526020018c602001516001600160a01b0316815260200142600161370c9190614d7f565b815260200185815260200161373a858d6101200151633b9aca006137309190614d68565b633b9aca00612bb4565b815250905060008b602001516001600160a01b0316632e2f4cc28d6000015163c04b8d5960e01b856040516020016137729190615705565b6040516020818303038152906040526040518463ffffffff1660e01b815260040161379f93929190614ca3565b600060405180830381600087803b1580156137b957600080fd5b505af11580156137cd573d6000803e3d6000fd5b505050506040513d6000823e601f3d908101601f191682016040526137f59190810190614ce0565b90507fe47c94818a08fa57483127c34e3f663971150243d5a1f25130242c281ea5023b828280602001905181019061382d9190615363565b60405161383b929190615718565b60405180910390a1505050505050505050505050565b61385b828261164d565b6108ae5761386881613b34565b613873836020613b46565b60405160200161388492919061573a565b60408051601f198184030181529082905262461bcd60e51b82526106179160040161475f565b6138b4828261164d565b6108ae576000828152602081815260408083206001600160a01b03851684529091529020805460ff191660011790556138ea3390565b6001600160a01b0316816001600160a01b0316837f2f8788117e7eff1d82e926ec794901d17c78024a50270940304540a733656f0d60405160405180910390a45050565b6000611646836001600160a01b038416613ce1565b61394d828261164d565b156108ae576000828152602081815260408083206001600160a01b0385168085529252808320805460ff1916905551339285917ff6391f5c32d9c69d2a47ea670b442974b53935d1edc7fd64eb21e047a839171b9190a45050565b6000611646836001600160a01b038416613d30565b6000613a12826040518060400160405280602081526020017f5361666545524332303a206c6f772d6c6576656c2063616c6c206661696c6564815250856001600160a01b0316613e239092919063ffffffff16565b9050805160001480613a33575080806020019051810190613a3391906157af565b61082f5760405162461bcd60e51b815260206004820152602a60248201527f5361666545524332303a204552433230206f7065726174696f6e20646964206e6044820152691bdd081cdd58d8d9595960b21b6064820152608401610617565b6000826000018281548110613aa957613aa9614a75565b9060005260206000200154905092915050565b6060600080856001600160a01b031685604051613ad991906157ca565b600060405180830381855af49150503d8060008114613b14576040519150601f19603f3d011682016040523d82523d6000602084013e613b19565b606091505b5091509150613b2a86838387613e32565b9695505050505050565b60606105cc6001600160a01b03831660145b60606000613b55836002615399565b613b60906002614d7f565b6001600160401b03811115613b7757613b77614131565b6040519080825280601f01601f191660200182016040528015613ba1576020820181803683370190505b509050600360fc1b81600081518110613bbc57613bbc614a75565b60200101906001600160f81b031916908160001a905350600f60fb1b81600181518110613beb57613beb614a75565b60200101906001600160f81b031916908160001a9053506000613c0f846002615399565b613c1a906001614d7f565b90505b6001811115613c92576f181899199a1a9b1b9c1cb0b131b232b360811b85600f1660108110613c4e57613c4e614a75565b1a60f81b828281518110613c6457613c64614a75565b60200101906001600160f81b031916908160001a90535060049490941c93613c8b816157e6565b9050613c1d565b5083156116465760405162461bcd60e51b815260206004820181905260248201527f537472696e67733a20686578206c656e67746820696e73756666696369656e746044820152606401610617565b6000818152600183016020526040812054613d28575081546001818101845560008481526020808220909301849055845484825282860190935260409020919091556105cc565b5060006105cc565b60008181526001830160205260408120548015613e19576000613d54600183614d68565b8554909150600090613d6890600190614d68565b9050818114613dcd576000866000018281548110613d8857613d88614a75565b9060005260206000200154905080876000018481548110613dab57613dab614a75565b6000918252602080832090910192909255918252600188019052604090208390555b8554869080613dde57613dde6157fd565b6001900381819060005260206000200160009055905585600101600086815260200190815260200160002060009055600193505050506105cc565b60009150506105cc565b6060612bac8484600085613ea8565b60608315613e9e578251613e97576001600160a01b0385163b613e975760405162461bcd60e51b815260206004820152601d60248201527f416464726573733a2063616c6c20746f206e6f6e2d636f6e74726163740000006044820152606401610617565b5081612bac565b612bac8383613f83565b606082471015613f095760405162461bcd60e51b815260206004820152602660248201527f416464726573733a20696e73756666696369656e742062616c616e636520666f6044820152651c8818d85b1b60d21b6064820152608401610617565b600080866001600160a01b03168587604051613f2591906157ca565b60006040518083038185875af1925050503d8060008114613f62576040519150601f19603f3d011682016040523d82523d6000602084013e613f67565b606091505b5091509150613f7887838387613e32565b979650505050505050565b815115613f935781518083602001fd5b8060405162461bcd60e51b8152600401610617919061475f565b828054828255906000526020600020908101928215614002579160200282015b8281111561400257825182546001600160a01b0319166001600160a01b03909116178255602090920191600190910190613fcd565b5061400e9291506140c0565b5090565b82805461401e90614c68565b90600052602060002090601f0160209004810192826140405760008555614002565b82601f1061405957805160ff1916838001178555614002565b82800160010185558215614002579182015b8281111561400257825182559160200191906001019061406b565b828054828255906000526020600020908101928215614002579160200282018281111561400257825182559160200191906001019061406b565b5b8082111561400e57600081556001016140c1565b6000602082840312156140e757600080fd5b81356001600160e01b03198116811461164657600080fd5b6001600160a01b03811681146125ea57600080fd5b60006020828403121561412657600080fd5b8135611646816140ff565b634e487b7160e01b600052604160045260246000fd5b60405161016081016001600160401b038111828210171561416a5761416a614131565b60405290565b604051608081016001600160401b038111828210171561416a5761416a614131565b604051601f8201601f191681016001600160401b03811182821017156141ba576141ba614131565b604052919050565b62ffffff811681146125ea57600080fd5b80356141de816141c2565b919050565b8060020b81146125ea57600080fd5b80356141de816141e3565b803563ffffffff811681146141de57600080fd5b60006001600160401b0382111561422a5761422a614131565b50601f01601f191660200190565b600082601f83011261424957600080fd5b813561425c61425782614211565b614192565b81815284602083860101111561427157600080fd5b816020850160208301376000918101602001919091529392505050565b60006001600160401b038211156142a7576142a7614131565b5060051b60200190565b600082601f8301126142c257600080fd5b813560206142d26142578361428e565b82815260059290921b840181019181810190868411156142f157600080fd5b8286015b8481101561430c57803583529183019183016142f5565b509695505050505050565b6000610160828403121561432a57600080fd5b614332614147565b905061433d826141d3565b815261434b602083016141f2565b602082015261435c604083016141f2565b604082015261436d606083016141f2565b606082015261437e608083016141fd565b608082015260a08201356001600160401b038082111561439d57600080fd5b6143a985838601614238565b60a084015260c08401359150808211156143c257600080fd5b6143ce85838601614238565b60c084015260e08481013590840152610100808501359084015261012080850135908401526101409150818401358181111561440957600080fd5b614415868287016142b1565b8385015250505092915050565b60008060006060848603121561443757600080fd5b83356001600160401b0381111561444d57600080fd5b61445986828701614317565b935050602084013561446a816140ff565b9150604084013561447a816141e3565b809150509250925092565b60006020828403121561449757600080fd5b5035919050565b600080604083850312156144b157600080fd5b8235915060208301356144c3816140ff565b809150509250929050565b6000608082840312156144e057600080fd5b6144e8614170565b905081356144f5816140ff565b8152602082810135614506816140ff565b828201526040830135614518816140ff565b604083015260608301356001600160401b0381111561453657600080fd5b8301601f8101851361454757600080fd5b80356145556142578261428e565b81815260059190911b8201830190838101908783111561457457600080fd5b928401925b8284101561459b57833561458c816140ff565b82529284019290840190614579565b6060860152509295945050505050565b6000602082840312156145bd57600080fd5b81356001600160401b038111156145d357600080fd5b612bac848285016144ce565b600080604083850312156145f257600080fd5b82356001600160401b038082111561460957600080fd5b61461586838701614317565b9350602085013591508082111561462b57600080fd5b50614638858286016144ce565b9150509250929050565b60005b8381101561465d578181015183820152602001614645565b838111156112a05750506000910152565b60008151808452614686816020860160208601614642565b601f01601f19169290920160200192915050565b600061014062ffffff8d1683528b60020b60208401528a60020b60408401528960020b606084015263ffffffff891660808401528060a08401526146e08184018961466e565b905082810360c08401526146f4818861466e565b60e0840196909652505061010081019290925261012090910152979650505050505050565b6000806040838503121561472c57600080fd5b82356001600160401b0381111561474257600080fd5b61474e858286016144ce565b92505060208301356144c3816140ff565b602081526000611646602083018461466e565b6000806040838503121561478557600080fd5b50508035926020909101359150565b600080600083850360808112156147aa57600080fd5b60408112156147b857600080fd5b50604051604081018181106001600160401b03821117156147db576147db614131565b60405284356147e9816141e3565b815260208501356147f9816141e3565b60208201529250604084013561480e816140ff565b929592945050506060919091013590565b6000806020838503121561483257600080fd5b82356001600160401b038082111561484957600080fd5b818501915085601f83011261485d57600080fd5b81358181111561486c57600080fd5b8660208260051b850101111561488157600080fd5b60209290920196919550909350505050565b6000602080830181845280855180835260408601915060408160051b870101925083870160005b828110156148e857603f198886030184526148d685835161466e565b945092850192908501906001016148ba565b5092979650505050505050565b60006020828403121561490757600080fd5b81356001600160401b0381111561491d57600080fd5b612bac84828501614317565b60008060006060848603121561493e57600080fd5b83356001600160401b0381111561495457600080fd5b61496086828701614317565b9350506020840135614971816141e3565b9150604084013561447a816140ff565b6000806000806080858703121561499757600080fd5b84356001600160401b03808211156149ae57600080fd5b6149ba888389016144ce565b955060208701359150808211156149d057600080fd5b506149dd87828801614317565b949794965050505060408301359260600135919050565b634e487b7160e01b600052601160045260246000fd5b60008160020b8360020b6000811281627fffff1901831281151615614a3157614a316149f4565b81627fffff018313811615614a4857614a486149f4565b5090039392505050565b60008160020b627fffff19811415614a6c57614a6c6149f4565b60000392915050565b634e487b7160e01b600052603260045260246000fd5b80516141de816140ff565b60006020808385031215614aa957600080fd5b82516001600160401b03811115614abf57600080fd5b8301601f81018513614ad057600080fd5b8051614ade6142578261428e565b81815260059190911b82018301908381019087831115614afd57600080fd5b928401925b82841015613f78578351614b15816140ff565b82529284019290840190614b02565b600060208284031215614b3657600080fd5b8151611646816140ff565b80516141de816141e3565b600060208284031215614b5e57600080fd5b8151611646816141e3565b60008160020b8360020b627fffff600082136000841383830485118282161615614b9557614b956149f4565b627fffff196000851282811687830587121615614bb457614bb46149f4565b60008712925085820587128484161615614bd057614bd06149f4565b85850587128184161615614be657614be66149f4565b5050509290910295945050505050565b634e487b7160e01b600052601260045260246000fd5b60008260020b80614c1f57614c1f614bf6565b808360020b0791505092915050565b60008160020b8360020b80614c4557614c45614bf6565b627fffff19821460001982141615614c5f57614c5f6149f4565b90059392505050565b600181811c90821680614c7c57607f821691505b60208210811415614c9d57634e487b7160e01b600052602260045260246000fd5b50919050565b6001600160a01b03841681526001600160e01b031983166020820152606060408201819052600090614cd79083018461466e565b95945050505050565b600060208284031215614cf257600080fd5b81516001600160401b03811115614d0857600080fd5b8201601f81018413614d1957600080fd5b8051614d2761425782614211565b818152856020838501011115614d3c57600080fd5b614cd7826020830160208601614642565b6000600019821415614d6157614d616149f4565b5060010190565b600082821015614d7a57614d7a6149f4565b500390565b60008219821115614d9257614d926149f4565b500190565b6000808335601e19843603018112614dae57600080fd5b8301803591506001600160401b03821115614dc857600080fd5b602001915036819003821315614ddd57600080fd5b9250929050565b600081518084526020808501945080840160005b83811015614e1457815187529582019590820190600101614df8565b509495945050505050565b60208152614e3560208201835162ffffff169052565b60006020830151614e4b604084018260020b9052565b506040830151614e60606084018260020b9052565b506060830151614e75608084018260020b9052565b50608083015163ffffffff811660a08401525060a08301516101608060c0850152614ea461018085018361466e565b915060c0850151601f19808685030160e0870152614ec2848361466e565b60e08801516101008881019190915288015161012080890191909152880151610140808901919091528801518782039092018488015293509050613b2a8382614de4565b60008160020b8360020b6000821282627fffff03821381151615614f2c57614f2c6149f4565b82627fffff19038212811615614f4457614f446149f4565b50019392505050565b600082601f830112614f5e57600080fd5b81516020614f6e6142578361428e565b82815260059290921b84018101918181019086841115614f8d57600080fd5b8286015b8481101561430c5780518352918301918301614f91565b60008060408385031215614fbb57600080fd5b82516001600160401b0380821115614fd257600080fd5b614fde86838701614f4d565b93506020850151915080821115614ff457600080fd5b5061463885828601614f4d565b805161ffff811681146141de57600080fd5b805180151581146141de57600080fd5b600080600080600080600060e0888a03121561503e57600080fd5b8751615049816140ff565b602089015190975061505a816141e3565b955061506860408901615001565b945061507660608901615001565b935061508460808901615001565b925060a088015160ff8116811461509a57600080fd5b91506150a860c08901615013565b905092959891949750929550565b6020808252825182820181905260009190848201906040850190845b818110156150f457835163ffffffff16835292840192918401916001016150d2565b50909695505050505050565b600082601f83011261511157600080fd5b815160206151216142578361428e565b82815260059290921b8401810191818101908684111561514057600080fd5b8286015b8481101561430c578051615157816140ff565b8352918301918301615144565b6000806040838503121561517757600080fd5b82516001600160401b038082111561518e57600080fd5b818501915085601f8301126151a257600080fd5b815160206151b26142578361428e565b82815260059290921b840181019181810190898411156151d157600080fd5b948201945b838610156151ff5785518060060b81146151f05760008081fd5b825294820194908201906151d6565b9188015191965090935050508082111561521857600080fd5b5061463885828601615100565b60008160060b8360060b6000811281667fffffffffffff1901831281151615615250576152506149f4565b81667fffffffffffff018313811615614a4857614a486149f4565b60006001600160a01b038381169083168181101561528b5761528b6149f4565b039392505050565b60008160060b8360060b806152aa576152aa614bf6565b667fffffffffffff19821460001982141615614c5f57614c5f6149f4565b60008260060b806152db576152db614bf6565b808360060b0791505092915050565b60008160020b627fffff19811415615304576153046149f4565b6000190192915050565b60006001600160c01b0382811684821681151582840482111615615334576153346149f4565b02949350505050565b60006001600160c01b038381168061535757615357614bf6565b92169190910492915050565b60006020828403121561537557600080fd5b5051919050565b6000600160ff1b821415615392576153926149f4565b5060000390565b60008160001904831182151516156153b3576153b36149f4565b500290565b6000826153c7576153c7614bf6565b500490565b6000826153db576153db614bf6565b500690565b6001600160a01b0384811682526080602080840182905285519184018290526000928682019290919060a0860190855b8181101561542e578551851683529483019491830191600101615410565b505085810360408701526154428188614de4565b86810360609097019690965250600085529093019695505050505050565b60006020828403121561547257600080fd5b81516001600160401b0381111561548857600080fd5b612bac84828501614f4d565b80516141de816141c2565b80516001600160801b03811681146141de57600080fd5b6000806000806000806000806000806000806101808d8f0312156154d957600080fd5b8c516bffffffffffffffffffffffff811681146154f557600080fd5b9b5061550360208e01614a8b565b9a5061551160408e01614a8b565b995061551f60608e01614a8b565b985061552d60808e01615494565b975061553b60a08e01614b41565b965061554960c08e01614b41565b955061555760e08e0161549f565b94506101008d015193506101208d015192506155766101408e0161549f565b91506155856101608e0161549f565b90509295989b509295989b509295989b565b6000602082840312156155a957600080fd5b8151611646816141c2565b81516001600160a01b03168152610160810160208301516155e060208401826001600160a01b03169052565b5060408301516155f7604084018262ffffff169052565b50606083015161560c606084018260020b9052565b506080830151615621608084018260020b9052565b5060a083015160a083015260c083015160c083015260e083015160e083015261010080840151818401525061012080840151615667828501826001600160a01b03169052565b505061014092830151919092015290565b6000806000806080858703121561568e57600080fd5b8451935061569e6020860161549f565b6040860151606090960151949790965092505050565b6000815160a084526156c960a085018261466e565b6020848101516001600160a01b031690860152604080850151908601526060808501519086015260809384015193909401929092525090919050565b60208152600061164660208301846156b4565b60408152600061572b60408301856156b4565b90508260208301529392505050565b7f416363657373436f6e74726f6c3a206163636f756e7420000000000000000000815260008351615772816017850160208801614642565b7001034b99036b4b9b9b4b733903937b6329607d1b60179184019182015283516157a3816028840160208801614642565b01602801949350505050565b6000602082840312156157c157600080fd5b61164682615013565b600082516157dc818460208701614642565b9190910192915050565b6000816157f5576157f56149f4565b506000190190565b634e487b7160e01b600052603160045260246000fdfec171260023d22a25a00a2789664c9334017843b831138c8ef03cc8897e5873d7f23ec0bb4210edd5cba85afd05127efcd2fc6a781bfed49188da1081670b22d846a52cf33029de9f84853745a87af28464c80bf0346df1b32e205fc73319f622416464726573733a206c6f772d6c6576656c2064656c65676174652063616c6c206661696c6564a2646970667358221220451d1cfb0af273b7cc1af29af68daf0ee37f7a64fccf6fff79fce484a16d043864736f6c63430008090033",
    "linkReferences": {}
  },
  "methodIdentifiers": {
    "ADMIN_DELEGATE_ROLE()": "0952ff54",
    "ADMIN_ROLE()": "75b238fc",
    "D6()": "a11bac74",
    "DEFAULT_ADMIN_ROLE()": "a217fddf",
    "DENOMINATOR()": "918f8674",
    "MAX_MINTING_PARAMS()": "e3b3f799",
    "OPERATOR()": "983d2737",
    "Q96()": "40792465",
    "calculateAmountsForSwap((address,address,address,address[]),(uint24,int24,int24,int24,uint32,bytes,bytes,uint256,uint256,uint256,uint256[]),uint256,uint256)": "ee5f1808",
    "calculateNewInterval((uint24,int24,int24,int24,uint32,bytes,bytes,uint256,uint256,uint256,uint256[]),int24,address)": "e0d3003b",
    "calculateTargetRatioOfToken1((int24,int24),uint160,uint256)": "9bb37ba8",
    "checkImmutableParams((address,address,address,address[]))": "475cffef",
    "checkMutableParams((uint24,int24,int24,int24,uint32,bytes,bytes,uint256,uint256,uint256,uint256[]),(address,address,address,address[]))": "529037ce",
    "checkTickDeviations((uint24,int24,int24,int24,uint32,bytes,bytes,uint256,uint256,uint256,uint256[]),address,int24)": "1bfcd8b2",
    "contractName()": "75d0c0dc",
    "contractNameBytes()": "0e3e80ac",
    "contractVersion()": "a0a8e460",
    "contractVersionBytes()": "06a46239",
    "depositCallback()": "e521826f",
    "getRoleAdmin(bytes32)": "248a9ca3",
    "getRoleMember(bytes32,uint256)": "9010d07c",
    "getRoleMemberCount(bytes32)": "ca15c873",
    "grantRole(bytes32,address)": "2f2ff15d",
    "hasRole(bytes32,address)": "91d14854",
    "immutableParams()": "c8014d53",
    "init(address)": "19ab453c",
    "initialize((address,address,address,address[]),address)": "6ff0b358",
    "initialized()": "158ef93e",
    "isAdmin(address)": "24d7806c",
    "isOperator(address)": "6d70f7ae",
    "multicall(bytes[])": "ac9650d8",
    "mutableParams()": "5f408a21",
    "positionManager()": "791b98bc",
    "rebalance(uint256)": "f4993018",
    "renounceRole(bytes32,address)": "36568abe",
    "revokeRole(bytes32,address)": "d547741f",
    "supportsInterface(bytes4)": "01ffc9a7",
    "updateMutableParams((uint24,int24,int24,int24,uint32,bytes,bytes,uint256,uint256,uint256,uint256[]))": "cc89f67e",
    "withdrawCallback()": "b4559f3e"
  },
  "id": 397
}