{
  "abi": [
    {
      "inputs": [
        {
          "internalType": "address",
          "name": "admin",
          "type": "address"
        }
      ],
      "stateMutability": "nonpayable",
      "type": "constructor"
    },
    {
      "anonymous": false,
      "inputs": [
        {
          "indexed": true,
          "internalType": "bytes32",
          "name": "role",
          "type": "bytes32"
        },
        {
          "indexed": true,
          "internalType": "bytes32",
          "name": "previousAdminRole",
          "type": "bytes32"
        },
        {
          "indexed": true,
          "internalType": "bytes32",
          "name": "newAdminRole",
          "type": "bytes32"
        }
      ],
      "name": "RoleAdminChanged",
      "type": "event"
    },
    {
      "anonymous": false,
      "inputs": [
        {
          "indexed": true,
          "internalType": "bytes32",
          "name": "role",
          "type": "bytes32"
        },
        {
          "indexed": true,
          "internalType": "address",
          "name": "account",
          "type": "address"
        },
        {
          "indexed": true,
          "internalType": "address",
          "name": "sender",
          "type": "address"
        }
      ],
      "name": "RoleGranted",
      "type": "event"
    },
    {
      "anonymous": false,
      "inputs": [
        {
          "indexed": true,
          "internalType": "bytes32",
          "name": "role",
          "type": "bytes32"
        },
        {
          "indexed": true,
          "internalType": "address",
          "name": "account",
          "type": "address"
        },
        {
          "indexed": true,
          "internalType": "address",
          "name": "sender",
          "type": "address"
        }
      ],
      "name": "RoleRevoked",
      "type": "event"
    },
    {
      "inputs": [],
      "name": "ADMIN_DELEGATE_ROLE",
      "outputs": [
        {
          "internalType": "bytes32",
          "name": "",
          "type": "bytes32"
        }
      ],
      "stateMutability": "view",
      "type": "function"
    },
    {
      "inputs": [],
      "name": "ADMIN_ROLE",
      "outputs": [
        {
          "internalType": "bytes32",
          "name": "",
          "type": "bytes32"
        }
      ],
      "stateMutability": "view",
      "type": "function"
    },
    {
      "inputs": [],
      "name": "DEFAULT_ADMIN_ROLE",
      "outputs": [
        {
          "internalType": "bytes32",
          "name": "",
          "type": "bytes32"
        }
      ],
      "stateMutability": "view",
      "type": "function"
    },
    {
      "inputs": [],
      "name": "OPERATOR",
      "outputs": [
        {
          "internalType": "bytes32",
          "name": "",
          "type": "bytes32"
        }
      ],
      "stateMutability": "view",
      "type": "function"
    },
    {
      "inputs": [
        {
          "internalType": "bytes32",
          "name": "role",
          "type": "bytes32"
        }
      ],
      "name": "getRoleAdmin",
      "outputs": [
        {
          "internalType": "bytes32",
          "name": "",
          "type": "bytes32"
        }
      ],
      "stateMutability": "view",
      "type": "function"
    },
    {
      "inputs": [
        {
          "internalType": "bytes32",
          "name": "role",
          "type": "bytes32"
        },
        {
          "internalType": "uint256",
          "name": "index",
          "type": "uint256"
        }
      ],
      "name": "getRoleMember",
      "outputs": [
        {
          "internalType": "address",
          "name": "",
          "type": "address"
        }
      ],
      "stateMutability": "view",
      "type": "function"
    },
    {
      "inputs": [
        {
          "internalType": "bytes32",
          "name": "role",
          "type": "bytes32"
        }
      ],
      "name": "getRoleMemberCount",
      "outputs": [
        {
          "internalType": "uint256",
          "name": "",
          "type": "uint256"
        }
      ],
      "stateMutability": "view",
      "type": "function"
    },
    {
      "inputs": [
        {
          "internalType": "bytes32",
          "name": "role",
          "type": "bytes32"
        },
        {
          "internalType": "address",
          "name": "account",
          "type": "address"
        }
      ],
      "name": "grantRole",
      "outputs": [],
      "stateMutability": "nonpayable",
      "type": "function"
    },
    {
      "inputs": [
        {
          "internalType": "bytes32",
          "name": "role",
          "type": "bytes32"
        },
        {
          "internalType": "address",
          "name": "account",
          "type": "address"
        }
      ],
      "name": "hasRole",
      "outputs": [
        {
          "internalType": "bool",
          "name": "",
          "type": "bool"
        }
      ],
      "stateMutability": "view",
      "type": "function"
    },
    {
      "inputs": [
        {
          "internalType": "address",
          "name": "sender",
          "type": "address"
        }
      ],
      "name": "isAdmin",
      "outputs": [
        {
          "internalType": "bool",
          "name": "",
          "type": "bool"
        }
      ],
      "stateMutability": "view",
      "type": "function"
    },
    {
      "inputs": [
        {
          "internalType": "address",
          "name": "sender",
          "type": "address"
        }
      ],
      "name": "isOperator",
      "outputs": [
        {
          "internalType": "bool",
          "name": "",
          "type": "bool"
        }
      ],
      "stateMutability": "view",
      "type": "function"
    },
    {
      "inputs": [
        {
          "internalType": "bytes32",
          "name": "role",
          "type": "bytes32"
        },
        {
          "internalType": "address",
          "name": "account",
          "type": "address"
        }
      ],
      "name": "renounceRole",
      "outputs": [],
      "stateMutability": "nonpayable",
      "type": "function"
    },
    {
      "inputs": [
        {
          "internalType": "bytes32",
          "name": "role",
          "type": "bytes32"
        },
        {
          "internalType": "address",
          "name": "account",
          "type": "address"
        }
      ],
      "name": "revokeRole",
      "outputs": [],
      "stateMutability": "nonpayable",
      "type": "function"
    },
    {
      "inputs": [
        {
          "internalType": "bytes4",
          "name": "interfaceId",
          "type": "bytes4"
        }
      ],
      "name": "supportsInterface",
      "outputs": [
        {
          "internalType": "bool",
          "name": "",
          "type": "bool"
        }
      ],
      "stateMutability": "view",
      "type": "function"
    }
  ],
  "bytecode": {
    "object": "0x60806040523480156200001157600080fd5b5060405162000fe938038062000fe98339810160408190526200003491620002ff565b60408051808201909152600281526120ad60f11b60208201526001600160a01b038216620000805760405162461bcd60e51b815260040162000077919062000331565b60405180910390fd5b506200009c60008051602062000fc9833981519152826200014f565b620000b760008051602062000fa9833981519152826200014f565b620000d260008051602062000fa9833981519152806200015f565b6200010d7fc171260023d22a25a00a2789664c9334017843b831138c8ef03cc8897e5873d760008051602062000fa98339815191526200015f565b6200014860008051602062000fc98339815191527fc171260023d22a25a00a2789664c9334017843b831138c8ef03cc8897e5873d76200015f565b5062000389565b6200015b8282620001aa565b5050565b600082815260208190526040808220600101805490849055905190918391839186917fbd79b86ffe0ab8e8776151514217cd7cacd52c909f66475c3af44e129f0b00ff9190a4505050565b620001c18282620001ed60201b6200045b1760201c565b6000828152600160209081526040909120620001e8918390620004df6200028d821b17901c565b505050565b6000828152602081815260408083206001600160a01b038516845290915290205460ff166200015b576000828152602081815260408083206001600160a01b03851684529091529020805460ff19166001179055620002493390565b6001600160a01b0316816001600160a01b0316837f2f8788117e7eff1d82e926ec794901d17c78024a50270940304540a733656f0d60405160405180910390a45050565b6000620002a4836001600160a01b038416620002ad565b90505b92915050565b6000818152600183016020526040812054620002f657508154600181810184556000848152602080822090930184905584548482528286019093526040902091909155620002a7565b506000620002a7565b6000602082840312156200031257600080fd5b81516001600160a01b03811681146200032a57600080fd5b9392505050565b600060208083528351808285015260005b81811015620003605785810183015185820160400152820162000342565b8181111562000373576000604083870101525b50601f01601f1916929092016040019392505050565b610c1080620003996000396000f3fe608060405234801561001057600080fd5b50600436106100ea5760003560e01c806375b238fc1161008c578063983d273711610066578063983d273714610222578063a217fddf14610249578063ca15c87314610251578063d547741f1461026457600080fd5b806375b238fc146101bd5780639010d07c146101e457806391d148541461020f57600080fd5b806324d7806c116100c857806324d7806c1461016f5780632f2ff15d1461018257806336568abe146101975780636d70f7ae146101aa57600080fd5b806301ffc9a7146100ef5780630952ff5414610117578063248a9ca31461014c575b600080fd5b6101026100fd36600461097d565b610277565b60405190151581526020015b60405180910390f35b61013e7fc171260023d22a25a00a2789664c9334017843b831138c8ef03cc8897e5873d781565b60405190815260200161010e565b61013e61015a3660046109a7565b60009081526020819052604090206001015490565b61010261017d3660046109dc565b6102a2565b6101956101903660046109f7565b6102fe565b005b6101956101a53660046109f7565b610328565b6101026101b83660046109dc565b6103ab565b61013e7ff23ec0bb4210edd5cba85afd05127efcd2fc6a781bfed49188da1081670b22d881565b6101f76101f2366004610a23565b6103d7565b6040516001600160a01b03909116815260200161010e565b61010261021d3660046109f7565b6103f6565b61013e7f46a52cf33029de9f84853745a87af28464c80bf0346df1b32e205fc73319f62281565b61013e600081565b61013e61025f3660046109a7565b61041f565b6101956102723660046109f7565b610436565b60006001600160e01b03198216635a05180f60e01b148061029c575061029c826104f4565b92915050565b60006102ce7ff23ec0bb4210edd5cba85afd05127efcd2fc6a781bfed49188da1081670b22d8836103f6565b8061029c575061029c7fc171260023d22a25a00a2789664c9334017843b831138c8ef03cc8897e5873d7836103f6565b60008281526020819052604090206001015461031981610529565b6103238383610536565b505050565b6001600160a01b038116331461039d5760405162461bcd60e51b815260206004820152602f60248201527f416363657373436f6e74726f6c3a2063616e206f6e6c792072656e6f756e636560448201526e103937b632b9903337b91039b2b63360891b60648201526084015b60405180910390fd5b6103a78282610558565b5050565b600061029c7f46a52cf33029de9f84853745a87af28464c80bf0346df1b32e205fc73319f622836103f6565b60008281526001602052604081206103ef908361057a565b9392505050565b6000918252602082815260408084206001600160a01b0393909316845291905290205460ff1690565b600081815260016020526040812061029c90610586565b60008281526020819052604090206001015461045181610529565b6103238383610558565b61046582826103f6565b6103a7576000828152602081815260408083206001600160a01b03851684529091529020805460ff1916600117905561049b3390565b6001600160a01b0316816001600160a01b0316837f2f8788117e7eff1d82e926ec794901d17c78024a50270940304540a733656f0d60405160405180910390a45050565b60006103ef836001600160a01b038416610590565b60006001600160e01b03198216637965db0b60e01b148061029c57506301ffc9a760e01b6001600160e01b031983161461029c565b61053381336105df565b50565b610540828261045b565b600082815260016020526040902061032390826104df565b6105628282610638565b6000828152600160205260409020610323908261069d565b60006103ef83836106b2565b600061029c825490565b60008181526001830160205260408120546105d75750815460018181018455600084815260208082209093018490558454848252828601909352604090209190915561029c565b50600061029c565b6105e982826103f6565b6103a7576105f6816106dc565b6106018360206106ee565b604051602001610612929190610a75565b60408051601f198184030181529082905262461bcd60e51b825261039491600401610aea565b61064282826103f6565b156103a7576000828152602081815260408083206001600160a01b0385168085529252808320805460ff1916905551339285917ff6391f5c32d9c69d2a47ea670b442974b53935d1edc7fd64eb21e047a839171b9190a45050565b60006103ef836001600160a01b03841661088a565b60008260000182815481106106c9576106c9610b1d565b9060005260206000200154905092915050565b606061029c6001600160a01b03831660145b606060006106fd836002610b49565b610708906002610b68565b67ffffffffffffffff81111561072057610720610b80565b6040519080825280601f01601f19166020018201604052801561074a576020820181803683370190505b509050600360fc1b8160008151811061076557610765610b1d565b60200101906001600160f81b031916908160001a905350600f60fb1b8160018151811061079457610794610b1d565b60200101906001600160f81b031916908160001a90535060006107b8846002610b49565b6107c3906001610b68565b90505b600181111561083b576f181899199a1a9b1b9c1cb0b131b232b360811b85600f16601081106107f7576107f7610b1d565b1a60f81b82828151811061080d5761080d610b1d565b60200101906001600160f81b031916908160001a90535060049490941c9361083481610b96565b90506107c6565b5083156103ef5760405162461bcd60e51b815260206004820181905260248201527f537472696e67733a20686578206c656e67746820696e73756666696369656e746044820152606401610394565b600081815260018301602052604081205480156109735760006108ae600183610bad565b85549091506000906108c290600190610bad565b90508181146109275760008660000182815481106108e2576108e2610b1d565b906000526020600020015490508087600001848154811061090557610905610b1d565b6000918252602080832090910192909255918252600188019052604090208390555b855486908061093857610938610bc4565b60019003818190600052602060002001600090559055856001016000868152602001908152602001600020600090556001935050505061029c565b600091505061029c565b60006020828403121561098f57600080fd5b81356001600160e01b0319811681146103ef57600080fd5b6000602082840312156109b957600080fd5b5035919050565b80356001600160a01b03811681146109d757600080fd5b919050565b6000602082840312156109ee57600080fd5b6103ef826109c0565b60008060408385031215610a0a57600080fd5b82359150610a1a602084016109c0565b90509250929050565b60008060408385031215610a3657600080fd5b50508035926020909101359150565b60005b83811015610a60578181015183820152602001610a48565b83811115610a6f576000848401525b50505050565b7f416363657373436f6e74726f6c3a206163636f756e7420000000000000000000815260008351610aad816017850160208801610a45565b7001034b99036b4b9b9b4b733903937b6329607d1b6017918401918201528351610ade816028840160208801610a45565b01602801949350505050565b6020815260008251806020840152610b09816040850160208701610a45565b601f01601f19169190910160400192915050565b634e487b7160e01b600052603260045260246000fd5b634e487b7160e01b600052601160045260246000fd5b6000816000190483118215151615610b6357610b63610b33565b500290565b60008219821115610b7b57610b7b610b33565b500190565b634e487b7160e01b600052604160045260246000fd5b600081610ba557610ba5610b33565b506000190190565b600082821015610bbf57610bbf610b33565b500390565b634e487b7160e01b600052603160045260246000fdfea26469706673582212200d2b5f52fecb74f492856de695803ac69102a6dfd748589bba16ed24e8012ae764736f6c63430008090033f23ec0bb4210edd5cba85afd05127efcd2fc6a781bfed49188da1081670b22d846a52cf33029de9f84853745a87af28464c80bf0346df1b32e205fc73319f622",
    "linkReferences": {}
  },
  "methodIdentifiers": {
    "ADMIN_DELEGATE_ROLE()": "0952ff54",
    "ADMIN_ROLE()": "75b238fc",
    "DEFAULT_ADMIN_ROLE()": "a217fddf",
    "OPERATOR()": "983d2737",
    "getRoleAdmin(bytes32)": "248a9ca3",
    "getRoleMember(bytes32,uint256)": "9010d07c",
    "getRoleMemberCount(bytes32)": "ca15c873",
    "grantRole(bytes32,address)": "2f2ff15d",
    "hasRole(bytes32,address)": "91d14854",
    "isAdmin(address)": "24d7806c",
    "isOperator(address)": "6d70f7ae",
    "renounceRole(bytes32,address)": "36568abe",
    "revokeRole(bytes32,address)": "d547741f",
    "supportsInterface(bytes4)": "01ffc9a7"
  },
  "id": 412
}