{
  "abi": [
    {
      "anonymous": false,
      "inputs": [
        {
          "indexed": true,
          "internalType": "address",
          "name": "origin",
          "type": "address"
        },
        {
          "indexed": true,
          "internalType": "address",
          "name": "sender",
          "type": "address"
        },
        {
          "indexed": false,
          "internalType": "address",
          "name": "creditAccount",
          "type": "address"
        }
      ],
      "name": "CreditAccountOpened",
      "type": "event"
    },
    {
      "anonymous": false,
      "inputs": [
        {
          "indexed": true,
          "internalType": "address",
          "name": "origin",
          "type": "address"
        },
        {
          "indexed": true,
          "internalType": "address",
          "name": "sender",
          "type": "address"
        },
        {
          "indexed": false,
          "internalType": "uint256",
          "name": "newTotalAssetsValue",
          "type": "uint256"
        }
      ],
      "name": "PositionAdjusted",
      "type": "event"
    },
    {
      "inputs": [],
      "name": "D27",
      "outputs": [
        {
          "internalType": "uint256",
          "name": "",
          "type": "uint256"
        }
      ],
      "stateMutability": "view",
      "type": "function"
    },
    {
      "inputs": [],
      "name": "D9",
      "outputs": [
        {
          "internalType": "uint256",
          "name": "",
          "type": "uint256"
        }
      ],
      "stateMutability": "view",
      "type": "function"
    },
    {
      "inputs": [],
      "name": "GET_REWARD_SELECTOR",
      "outputs": [
        {
          "internalType": "bytes4",
          "name": "",
          "type": "bytes4"
        }
      ],
      "stateMutability": "view",
      "type": "function"
    },
    {
      "inputs": [
        {
          "internalType": "uint256",
          "name": "expectedAllAssetsValue",
          "type": "uint256"
        },
        {
          "internalType": "uint256",
          "name": "currentAllAssetsValue",
          "type": "uint256"
        },
        {
          "internalType": "address",
          "name": "vaultGovernance",
          "type": "address"
        },
        {
          "internalType": "uint256",
          "name": "marginalFactorD9",
          "type": "uint256"
        },
        {
          "internalType": "int128",
          "name": "primaryIndex",
          "type": "int128"
        },
        {
          "internalType": "uint256",
          "name": "poolId",
          "type": "uint256"
        },
        {
          "internalType": "address",
          "name": "convexOutputToken",
          "type": "address"
        },
        {
          "internalType": "address",
          "name": "creditAccount_",
          "type": "address"
        }
      ],
      "name": "adjustPosition",
      "outputs": [],
      "stateMutability": "nonpayable",
      "type": "function"
    },
    {
      "inputs": [],
      "name": "admin",
      "outputs": [
        {
          "internalType": "contract IGearboxVault",
          "name": "",
          "type": "address"
        }
      ],
      "stateMutability": "view",
      "type": "function"
    },
    {
      "inputs": [
        {
          "internalType": "uint256",
          "name": "desiredValueNominatedUnderlying",
          "type": "uint256"
        },
        {
          "internalType": "address",
          "name": "creditAccount",
          "type": "address"
        },
        {
          "internalType": "address",
          "name": "convexOutputToken",
          "type": "address"
        }
      ],
      "name": "calcConvexTokensToWithdraw",
      "outputs": [
        {
          "internalType": "uint256",
          "name": "",
          "type": "uint256"
        }
      ],
      "stateMutability": "view",
      "type": "function"
    },
    {
      "inputs": [
        {
          "internalType": "address",
          "name": "tokenFrom",
          "type": "address"
        },
        {
          "internalType": "address",
          "name": "tokenTo",
          "type": "address"
        }
      ],
      "name": "calcRateRAY",
      "outputs": [
        {
          "internalType": "uint256",
          "name": "",
          "type": "uint256"
        }
      ],
      "stateMutability": "view",
      "type": "function"
    },
    {
      "inputs": [
        {
          "internalType": "address",
          "name": "fromToken",
          "type": "address"
        },
        {
          "internalType": "address",
          "name": "toToken",
          "type": "address"
        },
        {
          "internalType": "uint256",
          "name": "amount",
          "type": "uint256"
        },
        {
          "internalType": "uint256",
          "name": "maxSlippageD9",
          "type": "uint256"
        }
      ],
      "name": "calculateAmountInMaximum",
      "outputs": [
        {
          "internalType": "uint256",
          "name": "",
          "type": "uint256"
        }
      ],
      "stateMutability": "view",
      "type": "function"
    },
    {
      "inputs": [
        {
          "internalType": "address",
          "name": "creditAccount",
          "type": "address"
        },
        {
          "internalType": "address",
          "name": "vaultGovernance",
          "type": "address"
        }
      ],
      "name": "calculateClaimableRewards",
      "outputs": [
        {
          "internalType": "uint256",
          "name": "",
          "type": "uint256"
        }
      ],
      "stateMutability": "view",
      "type": "function"
    },
    {
      "inputs": [
        {
          "internalType": "address",
          "name": "creditAccount",
          "type": "address"
        },
        {
          "internalType": "address",
          "name": "vaultGovernance",
          "type": "address"
        },
        {
          "internalType": "uint256",
          "name": "marginalFactorD9",
          "type": "uint256"
        }
      ],
      "name": "calculateDesiredTotalValue",
      "outputs": [
        {
          "internalType": "uint256",
          "name": "expectedAllAssetsValue",
          "type": "uint256"
        },
        {
          "internalType": "uint256",
          "name": "currentAllAssetsValue",
          "type": "uint256"
        }
      ],
      "stateMutability": "view",
      "type": "function"
    },
    {
      "inputs": [
        {
          "internalType": "uint256",
          "name": "crvAmount",
          "type": "uint256"
        },
        {
          "internalType": "address",
          "name": "cvxTokenAddress",
          "type": "address"
        }
      ],
      "name": "calculateEarnedCvxAmountByEarnedCrvAmount",
      "outputs": [
        {
          "internalType": "uint256",
          "name": "",
          "type": "uint256"
        }
      ],
      "stateMutability": "view",
      "type": "function"
    },
    {
      "inputs": [
        {
          "internalType": "uint256",
          "name": "expectedMaximalDepositTokenValueNominatedUnderlying",
          "type": "uint256"
        },
        {
          "internalType": "address",
          "name": "vaultGovernance",
          "type": "address"
        },
        {
          "internalType": "address",
          "name": "creditAccount",
          "type": "address"
        }
      ],
      "name": "checkNecessaryDepositExchange",
      "outputs": [],
      "stateMutability": "nonpayable",
      "type": "function"
    },
    {
      "inputs": [
        {
          "internalType": "address",
          "name": "vaultGovernance",
          "type": "address"
        },
        {
          "internalType": "address",
          "name": "creditAccount",
          "type": "address"
        },
        {
          "internalType": "address",
          "name": "convexOutputToken",
          "type": "address"
        }
      ],
      "name": "claimRewards",
      "outputs": [],
      "stateMutability": "nonpayable",
      "type": "function"
    },
    {
      "inputs": [],
      "name": "convexAdapter",
      "outputs": [
        {
          "internalType": "address",
          "name": "",
          "type": "address"
        }
      ],
      "stateMutability": "view",
      "type": "function"
    },
    {
      "inputs": [
        {
          "internalType": "address",
          "name": "tokenFrom",
          "type": "address"
        },
        {
          "internalType": "address",
          "name": "tokenTo",
          "type": "address"
        },
        {
          "internalType": "uint256",
          "name": "fee",
          "type": "uint256"
        },
        {
          "internalType": "address",
          "name": "adapter",
          "type": "address"
        },
        {
          "internalType": "uint256",
          "name": "slippage",
          "type": "uint256"
        }
      ],
      "name": "createUniswapMulticall",
      "outputs": [
        {
          "components": [
            {
              "internalType": "address",
              "name": "target",
              "type": "address"
            },
            {
              "internalType": "bytes",
              "name": "callData",
              "type": "bytes"
            }
          ],
          "internalType": "struct MultiCall",
          "name": "",
          "type": "tuple"
        }
      ],
      "stateMutability": "view",
      "type": "function"
    },
    {
      "inputs": [],
      "name": "creditFacade",
      "outputs": [
        {
          "internalType": "contract ICreditFacade",
          "name": "",
          "type": "address"
        }
      ],
      "stateMutability": "view",
      "type": "function"
    },
    {
      "inputs": [],
      "name": "creditManager",
      "outputs": [
        {
          "internalType": "contract ICreditManagerV2",
          "name": "",
          "type": "address"
        }
      ],
      "stateMutability": "view",
      "type": "function"
    },
    {
      "inputs": [],
      "name": "curveAdapter",
      "outputs": [
        {
          "internalType": "address",
          "name": "",
          "type": "address"
        }
      ],
      "stateMutability": "view",
      "type": "function"
    },
    {
      "inputs": [
        {
          "components": [
            {
              "internalType": "address",
              "name": "target",
              "type": "address"
            },
            {
              "internalType": "bytes",
              "name": "callData",
              "type": "bytes"
            }
          ],
          "internalType": "struct MultiCall",
          "name": "debtManagementCall",
          "type": "tuple"
        },
        {
          "components": [
            {
              "internalType": "uint256",
              "name": "withdrawDelay",
              "type": "uint256"
            },
            {
              "internalType": "uint16",
              "name": "referralCode",
              "type": "uint16"
            },
            {
              "internalType": "address",
              "name": "univ3Adapter",
              "type": "address"
            },
            {
              "internalType": "address",
              "name": "crv",
              "type": "address"
            },
            {
              "internalType": "address",
              "name": "cvx",
              "type": "address"
            },
            {
              "internalType": "uint256",
              "name": "maxSlippageD9",
              "type": "uint256"
            },
            {
              "internalType": "uint256",
              "name": "maxSmallPoolsSlippageD9",
              "type": "uint256"
            },
            {
              "internalType": "uint256",
              "name": "maxCurveSlippageD9",
              "type": "uint256"
            },
            {
              "internalType": "address",
              "name": "uniswapRouter",
              "type": "address"
            }
          ],
          "internalType": "struct IGearboxVaultGovernance.DelayedProtocolParams",
          "name": "protocolParams",
          "type": "tuple"
        },
        {
          "internalType": "uint256",
          "name": "poolId",
          "type": "uint256"
        },
        {
          "internalType": "int128",
          "name": "primaryIndex",
          "type": "int128"
        }
      ],
      "name": "depositToConvex",
      "outputs": [],
      "stateMutability": "nonpayable",
      "type": "function"
    },
    {
      "inputs": [],
      "name": "depositToken",
      "outputs": [
        {
          "internalType": "address",
          "name": "",
          "type": "address"
        }
      ],
      "stateMutability": "view",
      "type": "function"
    },
    {
      "inputs": [
        {
          "internalType": "address",
          "name": "creditAccount",
          "type": "address"
        },
        {
          "internalType": "address",
          "name": "vaultGovernance",
          "type": "address"
        },
        {
          "internalType": "uint256",
          "name": "marginalFactorD9",
          "type": "uint256"
        }
      ],
      "name": "openCreditAccount",
      "outputs": [],
      "stateMutability": "nonpayable",
      "type": "function"
    },
    {
      "inputs": [],
      "name": "parametersSet",
      "outputs": [
        {
          "internalType": "bool",
          "name": "",
          "type": "bool"
        }
      ],
      "stateMutability": "view",
      "type": "function"
    },
    {
      "inputs": [],
      "name": "primaryToken",
      "outputs": [
        {
          "internalType": "address",
          "name": "",
          "type": "address"
        }
      ],
      "stateMutability": "view",
      "type": "function"
    },
    {
      "inputs": [
        {
          "internalType": "uint256",
          "name": "amount",
          "type": "uint256"
        },
        {
          "internalType": "address",
          "name": "vaultGovernance",
          "type": "address"
        }
      ],
      "name": "pullFromAddress",
      "outputs": [
        {
          "internalType": "uint256[]",
          "name": "actualAmounts",
          "type": "uint256[]"
        }
      ],
      "stateMutability": "nonpayable",
      "type": "function"
    },
    {
      "inputs": [
        {
          "internalType": "contract ICreditFacade",
          "name": "creditFacade_",
          "type": "address"
        },
        {
          "internalType": "contract ICreditManagerV2",
          "name": "creditManager_",
          "type": "address"
        },
        {
          "internalType": "address",
          "name": "curveAdapter_",
          "type": "address"
        },
        {
          "internalType": "address",
          "name": "convexAdapter_",
          "type": "address"
        },
        {
          "internalType": "address",
          "name": "primaryToken_",
          "type": "address"
        },
        {
          "internalType": "address",
          "name": "depositToken_",
          "type": "address"
        },
        {
          "internalType": "uint256",
          "name": "nft_",
          "type": "uint256"
        }
      ],
      "name": "setParameters",
      "outputs": [],
      "stateMutability": "nonpayable",
      "type": "function"
    },
    {
      "inputs": [
        {
          "internalType": "address",
          "name": "fromToken",
          "type": "address"
        },
        {
          "internalType": "address",
          "name": "toToken",
          "type": "address"
        },
        {
          "internalType": "uint256",
          "name": "amount",
          "type": "uint256"
        },
        {
          "internalType": "uint256",
          "name": "untouchableSum",
          "type": "uint256"
        },
        {
          "internalType": "address",
          "name": "vaultGovernance",
          "type": "address"
        },
        {
          "internalType": "address",
          "name": "creditAccount",
          "type": "address"
        }
      ],
      "name": "swapExactOutput",
      "outputs": [],
      "stateMutability": "nonpayable",
      "type": "function"
    },
    {
      "inputs": [],
      "name": "vaultNft",
      "outputs": [
        {
          "internalType": "uint256",
          "name": "",
          "type": "uint256"
        }
      ],
      "stateMutability": "view",
      "type": "function"
    },
    {
      "inputs": [],
      "name": "verifyInstances",
      "outputs": [
        {
          "internalType": "int128",
          "name": "primaryIndex",
          "type": "int128"
        },
        {
          "internalType": "address",
          "name": "convexOutputToken",
          "type": "address"
        },
        {
          "internalType": "uint256",
          "name": "poolId",
          "type": "uint256"
        }
      ],
      "stateMutability": "view",
      "type": "function"
    },
    {
      "inputs": [
        {
          "internalType": "uint256",
          "name": "amount",
          "type": "uint256"
        },
        {
          "internalType": "address",
          "name": "vaultGovernance",
          "type": "address"
        },
        {
          "internalType": "int128",
          "name": "primaryIndex",
          "type": "int128"
        }
      ],
      "name": "withdrawFromConvex",
      "outputs": [],
      "stateMutability": "nonpayable",
      "type": "function"
    }
  ],
  "bytecode": {
    "object": "0x608060405234801561001057600080fd5b5061458a806100206000396000f3fe608060405234801561001057600080fd5b50600436106101ce5760003560e01c806391ac094c11610104578063cf8115c1116100a2578063edc34ece11610071578063edc34ece1461041d578063f022c79814610430578063f851a44014610443578063fb7700891461045657600080fd5b8063cf8115c1146103b9578063d73f8ff8146103cc578063e28f12fc146103ec578063e5c9b41b1461041457600080fd5b8063c12c21c0116100de578063c12c21c01461036d578063c54814e114610380578063c6dca74a14610393578063c89039c5146103a657600080fd5b806391ac094c146103205780639ddf60e814610333578063b6f963fc1461035a57600080fd5b80632f7a188111610171578063551530ae1161014b578063551530ae146102dc5780637a24fa03146102e757806385854ae3146102fa57806387e14fdd1461030d57600080fd5b80632f7a1881146102a35780634aff87a7146102b657806350931b39146102c957600080fd5b80631497761e116101ad5780631497761e1461022457806320b808461461024f5780632ace0897146102705780632d736f191461029057600080fd5b8062b26712146101d35780630dfbab94146101fc578063127d2a8614610211575b600080fd5b6005546101e790600160a01b900460ff1681565b60405190151581526020015b60405180910390f35b61020f61020a366004613ab0565b610486565b005b61020f61021f366004613b20565b61082a565b600254610237906001600160a01b031681565b6040516001600160a01b0390911681526020016101f3565b61026261025d366004613b61565b610ec8565b6040519081526020016101f3565b61028361027e366004613b9a565b611236565b6040516101f39190613bbf565b61026261029e366004613b61565b6116a3565b600054610237906001600160a01b031681565b61020f6102c4366004613c03565b6117cb565b61020f6102d7366004613da1565b611d38565b610262633b9aca0081565b600354610237906001600160a01b031681565b610262610308366004613b9a565b61210f565b61026261031b366004613ea6565b61233b565b600454610237906001600160a01b031681565b610341637050ccd960e01b81565b6040516001600160e01b031990911681526020016101f3565b61020f610368366004613eec565b612398565b600154610237906001600160a01b031681565b61026261038e366004613c03565b612473565b61020f6103a1366004613f79565b612638565b600554610237906001600160a01b031681565b6102626b033b2e3c9fd0803ce800000081565b6103df6103da366004613ffc565b612af7565b6040516101f391906140cb565b6103ff6103fa366004613b20565b612be9565b604080519283526020830191909152016101f3565b61026260075481565b61020f61042b3660046140de565b612d2f565b61020f61043e36600461410e565b61326b565b600654610237906001600160a01b031681565b61045e61356e565b60408051600f9490940b84526001600160a01b039092166020840152908201526060016101f3565b60065460408051808201909152600381526223292160e91b6020820152906001600160a01b031633146104d55760405162461bcd60e51b81526004016104cc919061414c565b60405180910390fd5b506000826001600160a01b031663d34cc3806040518163ffffffff1660e01b81526004016101206040518083038186803b15801561051257600080fd5b505afa158015610526573d6000803e3d6000fd5b505050506040513d601f19601f8201168201806040525081019061054a9190614175565b90506000836001600160a01b03166312466b686007546040518263ffffffff1660e01b815260040161057e91815260200190565b60206040518083038186803b15801561059657600080fd5b505afa1580156105aa573d6000803e3d6000fd5b505050506040513d601f19601f820116820180604052508101906105ce919061420f565b6040516370a0823160e01b81526001600160a01b0385811660048301529192506000918791908b16906370a082319060240160206040518083038186803b15801561061857600080fd5b505afa15801561062c573d6000803e3d6000fd5b505050506040513d601f19601f820116820180604052508101906106509190614263565b61065a9190614292565b9050600061066e8a8a8a8760a0015161233b565b905081811115610689576106838883836139d5565b97508190505b60006040518060a001604052808b86600001518e6040516020016106af939291906142a9565b60408051601f198184030181529181529082526001600160a01b0389166020830152016106dd4260016142e4565b8152602081018b905260409081018490528051600180825281830190925291925060009190816020015b604080518082019091526000815260606020820152815260200190600190039081610707579050509050604051806040016040528087604001516001600160a01b0316815260200163f28c049860e01b84604051602401610768919061434d565b60408051601f198184030181529190526020810180516001600160e01b03166001600160e01b0319909316929092179091529052815182906000906107af576107af614360565b602090810291909101015260065460405163caa5c23f60e01b81526001600160a01b039091169063caa5c23f906107ea908490600401614376565b600060405180830381600087803b15801561080457600080fd5b505af1158015610818573d6000803e3d6000fd5b50505050505050505050505050505050565b60065460408051808201909152600381526223292160e91b6020820152906001600160a01b031633146108705760405162461bcd60e51b81526004016104cc919061414c565b5060408051808201909152600381526204455560ec1b60208201526001600160a01b038416156108b35760405162461bcd60e51b81526004016104cc919061414c565b5060008054600480546005546040805163860aefcf60e01b815281516001600160a01b03968716979487169690931694879363860aefcf9383830193909290829003018186803b15801561090657600080fd5b505afa15801561091a573d6000803e3d6000fd5b505050506040513d601f19601f8201168201806040525081019061093e91906143ef565b506001600160801b03169050600061096482633b9aca0061095f818a614292565b6139d5565b61096f9060016142e4565b6006546040516370a0823160e01b81526001600160a01b039182166004820152919250600091908616906370a082319060240160206040518083038186803b1580156109ba57600080fd5b505afa1580156109ce573d6000803e3d6000fd5b505050506040513d601f19601f820116820180604052508101906109f29190614263565b90506000886001600160a01b031663d34cc3806040518163ffffffff1660e01b81526004016101206040518083038186803b158015610a3057600080fd5b505afa158015610a44573d6000803e3d6000fd5b505050506040513d601f19601f82011682018060405250810190610a689190614175565b90506000896001600160a01b03166312466b686007546040518263ffffffff1660e01b8152600401610a9c91815260200190565b60206040518083038186803b158015610ab457600080fd5b505afa158015610ac8573d6000803e3d6000fd5b505050506040513d601f19601f82011682018060405250810190610aec919061420f565b9050866001600160a01b0316866001600160a01b031614158015610b0f57508383105b15610d4e576101008201516000610b35888a610b2b888a614292565b8760a0015161233b565b6006546040516370a0823160e01b81526001600160a01b0391821660048201529192508291908a16906370a082319060240160206040518083038186803b158015610b7f57600080fd5b505afa158015610b93573d6000803e3d6000fd5b505050506040513d601f19601f82011682018060405250810190610bb79190614263565b101560405180604001604052806004815260200163494e564160e01b81525090610bf45760405162461bcd60e51b81526004016104cc919061414c565b5060006040518060a001604052808b86600001518c604051602001610c1b939291906142a9565b60408051601f198184030181529181529082526006546001600160a01b0316602083015201610c4b4260016142e4565b8152602001610c5a888a614292565b8152602001839052600654604051637b941bcb60e11b81529192506001600160a01b03169063f728379690610c9990869085908e908890600401614422565b600060405180830381600087803b158015610cb357600080fd5b505af1158015610cc7573d6000803e3d6000fd5b50506006546040516370a0823160e01b81526001600160a01b039182166004820152908d1692506370a08231915060240160206040518083038186803b158015610d1057600080fd5b505afa158015610d24573d6000803e3d6000fd5b505050506040513d601f19601f82011682018060405250810190610d489190614263565b95505050505b6040805180820190915260048152634c494d5560e01b602082015284841015610d8a5760405162461bcd60e51b81526004016104cc919061414c565b506006546020830151604051630fae7ae760e01b81526004810186905261ffff90911660248201526001600160a01b0390911690630fae7ae790604401600060405180830381600087803b158015610de157600080fd5b505af1158015610df5573d6000803e3d6000fd5b505060015460065460405163055ee9b560e01b81526001600160a01b0391821660048201523394503293507f26be758e505546e50ef6fbac9d213195408b6430a1e6ee68d40ef48465c6a06a92919091169063055ee9b59060240160206040518083038186803b158015610e6857600080fd5b505afa158015610e7c573d6000803e3d6000fd5b505050506040513d601f19601f82011682018060405250810190610ea09190614456565b6040516001600160a01b03909116815260200160405180910390a35050505050505050505050565b60006001600160a01b038316610ee057506000611230565b6003546040516246613160e11b81526001600160a01b0385811660048301526000921690628cc2629060240160206040518083038186803b158015610f2457600080fd5b505afa158015610f38573d6000803e3d6000fd5b505050506040513d601f19601f82011682018060405250810190610f5c9190614263565b90506000600160009054906101000a90046001600160a01b03166001600160a01b0316632630c12f6040518163ffffffff1660e01b815260040160206040518083038186803b158015610fae57600080fd5b505afa158015610fc2573d6000803e3d6000fd5b505050506040513d601f19601f82011682018060405250810190610fe69190614456565b90506000846001600160a01b031663d34cc3806040518163ffffffff1660e01b81526004016101206040518083038186803b15801561102457600080fd5b505afa158015611038573d6000803e3d6000fd5b505050506040513d601f19601f8201168201806040525081019061105c9190614175565b6060810151604051630f9a650360e41b8152600481018690526001600160a01b0391821660248201529192506000919084169063f9a650309060440160206040518083038186803b1580156110b057600080fd5b505afa1580156110c4573d6000803e3d6000fd5b505050506040513d601f19601f820116820180604052508101906110e89190614263565b90506000836001600160a01b031663f9a6503061110987866080015161210f565b60808601516040516001600160e01b031960e085901b16815260048101929092526001600160a01b0316602482015260440160206040518083038186803b15801561115357600080fd5b505afa158015611167573d6000803e3d6000fd5b505050506040513d601f19601f8201168201806040525081019061118b9190614263565b90506001600160a01b038416637afb01046111a683856142e4565b6004805460405160e085901b6001600160e01b0319168152918201929092526001600160a01b03909116602482015260440160206040518083038186803b1580156111f057600080fd5b505afa158015611204573d6000803e3d6000fd5b505050506040513d601f19601f820116820180604052508101906112289190614263565b955050505050505b92915050565b60065460408051808201909152600381526223292160e91b60208201526060916001600160a01b0316331461127e5760405162461bcd60e51b81526004016104cc919061414c565b506000826001600160a01b031663d34cc3806040518163ffffffff1660e01b81526004016101206040518083038186803b1580156112bb57600080fd5b505afa1580156112cf573d6000803e3d6000fd5b505050506040513d601f19601f820116820180604052508101906112f39190614175565b90506000836001600160a01b03166312466b686007546040518263ffffffff1660e01b815260040161132791815260200190565b60206040518083038186803b15801561133f57600080fd5b505afa158015611353573d6000803e3d6000fd5b505050506040513d601f19601f82011682018060405250810190611377919061420f565b600554600480546006546040516370a0823160e01b81526001600160a01b039182169381018490529495509283169392169160009084906370a082319060240160206040518083038186803b1580156113cf57600080fd5b505afa1580156113e3573d6000803e3d6000fd5b505050506040513d601f19601f820116820180604052508101906114079190614263565b6040516370a0823160e01b81526001600160a01b0384811660048301529192506000918516906370a082319060240160206040518083038186803b15801561144e57600080fd5b505afa158015611462573d6000803e3d6000fd5b505050506040513d601f19601f820116820180604052508101906114869190614263565b905089821080156114a95750836001600160a01b0316856001600160a01b031614155b80156114b55750600081115b156115cf5760006114d585876114cb868f614292565b8b60a0015161233b565b905060006114e3848d614292565b9050828211156114fe576114f88184846139d5565b90508291505b6101008901516040805160a081019091528951600091908190611527908c908c60c085016142a9565b60408051601f198184030181529181529082526001600160a01b038a166020830152016115554260016142e4565b8152602001848152602001858152509050866001600160a01b031663f728379683838b886040518563ffffffff1660e01b81526004016115989493929190614422565b600060405180830381600087803b1580156115b257600080fd5b505af11580156115c6573d6000803e3d6000fd5b50505050505050505b6040516370a0823160e01b81526001600160a01b0384811660048301528616906370a082319060240160206040518083038186803b15801561161057600080fd5b505afa158015611624573d6000803e3d6000fd5b505050506040513d601f19601f820116820180604052508101906116489190614263565b9150818a1115611656578199505b6040805160018082528183019092529060208083019080368337019050509750898860008151811061168a5761168a614360565b6020026020010181815250505050505050505092915050565b600080600160009054906101000a90046001600160a01b03166001600160a01b0316632630c12f6040518163ffffffff1660e01b815260040160206040518083038186803b1580156116f457600080fd5b505afa158015611708573d6000803e3d6000fd5b505050506040513d601f19601f8201168201806040525081019061172c9190614456565b60405163b66102df60e01b81526b033b2e3c9fd0803ce800000060048201526001600160a01b03868116602483015285811660448301529192509082169063b66102df9060640160206040518083038186803b15801561178b57600080fd5b505afa15801561179f573d6000803e3d6000fd5b505050506040513d601f19601f820116820180604052508101906117c39190614263565b949350505050565b60065460408051808201909152600381526223292160e91b6020820152906001600160a01b031633146118115760405162461bcd60e51b81526004016104cc919061414c565b506005546004546001600160a01b03918216911680821415611834575050505050565b6000846001600160a01b031663d34cc3806040518163ffffffff1660e01b81526004016101206040518083038186803b15801561187057600080fd5b505afa158015611884573d6000803e3d6000fd5b505050506040513d601f19601f820116820180604052508101906118a89190614175565b90506000856001600160a01b03166312466b686007546040518263ffffffff1660e01b81526004016118dc91815260200190565b60206040518083038186803b1580156118f457600080fd5b505afa158015611908573d6000803e3d6000fd5b505050506040513d601f19601f8201168201806040525081019061192c919061420f565b6040516370a0823160e01b81526001600160a01b0387811660048301529192506000918616906370a082319060240160206040518083038186803b15801561197357600080fd5b505afa158015611987573d6000803e3d6000fd5b505050506040513d601f19601f820116820180604052508101906119ab9190614263565b90506000600160009054906101000a90046001600160a01b03166001600160a01b0316632630c12f6040518163ffffffff1660e01b815260040160206040518083038186803b1580156119fd57600080fd5b505afa158015611a11573d6000803e3d6000fd5b505050506040513d601f19601f82011682018060405250810190611a359190614456565b60405163b66102df60e01b8152600481018490526001600160a01b038881166024830152878116604483015291925060009183169063b66102df9060640160206040518083038186803b158015611a8b57600080fd5b505afa158015611a9f573d6000803e3d6000fd5b505050506040513d601f19601f82011682018060405250810190611ac39190614263565b905089811115611d2c576000611ae384611add8d85614292565b846139d5565b60408051600180825281830190925291925060009190816020015b604080518082019091526000815260606020820152815260200190600190039081611afe5790505060405163b66102df60e01b8152600481018490526001600160a01b038b811660248301528a8116604483015291925060009186169063b66102df9060640160206040518083038186803b158015611b7c57600080fd5b505afa158015611b90573d6000803e3d6000fd5b505050506040513d601f19601f82011682018060405250810190611bb49190614263565b905060006040518060a001604052808c8a600001518d604051602001611bdc939291906142a9565b60408051601f198184030181529181529082526001600160a01b038f16602083015201611c0a4260016142e4565b8152602001858152602001611c37848c60a00151633b9aca00611c2d9190614292565b633b9aca006139d5565b815250905060405180604001604052808a604001516001600160a01b0316815260200163c04b8d5960e01b83604051602401611c73919061434d565b60408051601f198184030181529190526020810180516001600160e01b03166001600160e01b031990931692909217909152905283518490600090611cba57611cba614360565b602090810291909101015260065460405163caa5c23f60e01b81526001600160a01b039091169063caa5c23f90611cf5908690600401614376565b600060405180830381600087803b158015611d0f57600080fd5b505af1158015611d23573d6000803e3d6000fd5b50505050505050505b50505050505050505050565b60065460408051808201909152600381526223292160e91b6020820152906001600160a01b03163314611d7e5760405162461bcd60e51b81526004016104cc919061414c565b5060408051600380825260808201909252600091816020015b604080518082019091526000815260606020820152815260200190600190039081611d9757505060025460408051634163183360e11b815290519293506001600160a01b039091169160009183916382c6306691600480820192602092909190829003018186803b158015611e0b57600080fd5b505afa158015611e1f573d6000803e3d6000fd5b505050506040513d601f19601f82011682018060405250810190611e439190614456565b600454909150600090611e5f906001600160a01b0316836116a3565b90508784600081518110611e7557611e75614360565b60200260200101819052506040518060400160405280846001600160a01b0316815260200163ec026ca760e01b87611ebb858c60e00151633b9aca00611c2d9190614292565b604051600f9290920b6024830152604482015260640160408051601f198184030181529190526020810180516001600160e01b03166001600160e01b0319909316929092179091529052845185906001908110611f1a57611f1a614360565b6020908102919091018101919091526040805180820180835260015460035463570ca73560e01b9092529251919384936001600160a01b039081169363fdd57645939091169163570ca735916044808801929190818903018186803b158015611f8257600080fd5b505afa158015611f96573d6000803e3d6000fd5b505050506040513d601f19601f82011682018060405250810190611fba9190614456565b6040516001600160e01b031960e084901b1681526001600160a01b03909116600482015260240160206040518083038186803b158015611ff957600080fd5b505afa15801561200d573d6000803e3d6000fd5b505050506040513d601f19601f820116820180604052508101906120319190614456565b6001600160a01b0316815260408051602481018a90526001604480830191909152825180830390910181526064909101909152602081810180516001600160e01b031663303acfe760e11b1790529091015284518590600290811061209857612098614360565b602090810291909101015260065460405163caa5c23f60e01b81526001600160a01b039091169063caa5c23f906120d3908790600401614376565b600060405180830381600087803b1580156120ed57600080fd5b505af1158015612101573d6000803e3d6000fd5b505050505050505050505050565b6000808290506000816001600160a01b03166318160ddd6040518163ffffffff1660e01b815260040160206040518083038186803b15801561215057600080fd5b505afa158015612164573d6000803e3d6000fd5b505050506040513d601f19601f820116820180604052508101906121889190614263565b90506000826001600160a01b031663aa74e6226040518163ffffffff1660e01b815260040160206040518083038186803b1580156121c557600080fd5b505afa1580156121d9573d6000803e3d6000fd5b505050506040513d601f19601f820116820180604052508101906121fd9190614263565b828161220b5761220b614473565b0490506000836001600160a01b0316631f96e76f6040518163ffffffff1660e01b815260040160206040518083038186803b15801561224957600080fd5b505afa15801561225d573d6000803e3d6000fd5b505050506040513d601f19601f820116820180604052508101906122819190614263565b90508082101561232e57818103600061229b8983856139d5565b9050600085876001600160a01b031663d5abeb016040518163ffffffff1660e01b815260040160206040518083038186803b1580156122d957600080fd5b505afa1580156122ed573d6000803e3d6000fd5b505050506040513d601f19601f820116820180604052508101906123119190614263565b03905080821115612320578091505b509550611230945050505050565b5060009695505050505050565b60008061234885876116a3565b9050600061236385836b033b2e3c9fd0803ce80000006139d5565b61236e9060016142e4565b905061238281611c2d86633b9aca006142e4565b61238d9060016142e4565b979650505050505050565b60055460408051808201909152600381526223292160e91b602082015290600160a01b900460ff16156123de5760405162461bcd60e51b81526004016104cc919061414c565b50600080546001600160a01b039889166001600160a01b03199182161790915560018054978916978216979097179096556002805495881695871695909517909455600380549387169386169390931790925560048054918616918516919091179055600580546007939093556001600160a81b0319909216931692909217600160a01b179091556006805490911633179055565b6040516370a0823160e01b81526001600160a01b03838116600483015260009182918416906370a082319060240160206040518083038186803b1580156124b957600080fd5b505afa1580156124cd573d6000803e3d6000fd5b505050506040513d601f19601f820116820180604052508101906124f19190614263565b90506000600160009054906101000a90046001600160a01b03166001600160a01b0316632630c12f6040518163ffffffff1660e01b815260040160206040518083038186803b15801561254357600080fd5b505afa158015612557573d6000803e3d6000fd5b505050506040513d601f19601f8201168201806040525081019061257b9190614456565b6004805460405163b66102df60e01b81529182018590526001600160a01b038781166024840152908116604483015291925060009183169063b66102df9060640160206040518083038186803b1580156125d457600080fd5b505afa1580156125e8573d6000803e3d6000fd5b505050506040513d601f19601f8201168201806040525081019061260c9190614263565b905080871061262057829350505050612631565b61262b8388836139d5565b93505050505b9392505050565b60065460408051808201909152600381526223292160e91b6020820152906001600160a01b0316331461267e5760405162461bcd60e51b81526004016104cc919061414c565b5061268a868284612d2f565b6000866001600160a01b031663d34cc3806040518163ffffffff1660e01b81526004016101206040518083038186803b1580156126c657600080fd5b505afa1580156126da573d6000803e3d6000fd5b505050506040513d601f19601f820116820180604052508101906126fe9190614175565b6000549091506001600160a01b031661272661271f8b633b9aca008a6139d5565b89856117cb565b888a106127bb5760006127398a8c614292565b905060006040518060400160405280846001600160a01b03168152602001632b7c7b1160e01b8460405160240161277291815260200190565b60408051601f198184030181529190526020810180516001600160e01b03166001600160e01b031990931692909217909152905290506127b48185898b611d38565b5050612ab4565b60006127c78b8b614292565b600480546040516370a0823160e01b81526001600160a01b03888116938201939093529293506000929116906370a082319060240160206040518083038186803b15801561281457600080fd5b505afa158015612828573d6000803e3d6000fd5b505050506040513d601f19601f8201168201806040525081019061284c9190614263565b90508181106128d45760006040518060400160405280856001600160a01b03168152602001632a7ba1f760e01b8560405160240161288c91815260200190565b60408051601f198184030181529190526020810180516001600160e01b03166001600160e01b031990931692909217909152905290506128ce81868a8c611d38565b50612ab1565b60006128ea6128e38385614292565b8789612473565b90506128f7818c8b61326b565b600480546040516370a0823160e01b81526001600160a01b03898116938201939093529116906370a082319060240160206040518083038186803b15801561293e57600080fd5b505afa158015612952573d6000803e3d6000fd5b505050506040513d601f19601f820116820180604052508101906129769190614263565b915082821015612984578192505b604080516001808252818301909252600091816020015b60408051808201909152600081526060602082015281526020019060019003908161299b5790505090506040518060400160405280866001600160a01b03168152602001632a7ba1f760e01b866040516024016129fa91815260200190565b60408051601f198184030181529190526020810180516001600160e01b03166001600160e01b031990931692909217909152905281518290600090612a4157612a41614360565b602090810291909101015260065460405163caa5c23f60e01b81526001600160a01b039091169063caa5c23f90612a7c908490600401614376565b600060405180830381600087803b158015612a9657600080fd5b505af1158015612aaa573d6000803e3d6000fd5b5050505050505b50505b6040518a8152339032907f640cf6818be501e0678c96a77cfa7398daf461e27b7af18ff167bb0386e561819060200160405180910390a350505050505050505050565b6040805180820190915260008152606060208201526000612b1887876116a3565b604080516060810190915290915060009080612b398a898b608085016142a9565b60408051601f198184030181529190528152602001612b594260016142e4565b8152602001612b7084611c2d88633b9aca00614292565b81525090506040518060400160405280866001600160a01b0316815260200163f4f18d9060e01b83604051602401612ba89190614489565b60408051601f198184030181529190526020810180516001600160e01b03166001600160e01b03199093169290921790915290529250505095945050505050565b600080546040516363ef1c5360e11b81526001600160a01b0386811660048301528392169063c7de38a690602401604080518083038186803b158015612c2e57600080fd5b505afa158015612c42573d6000803e3d6000fd5b505050506040513d601f19601f82011682018060405250810190612c6691906144c5565b509050612c738585610ec8565b612c7d90826142e4565b600154604051630c64865760e21b81526001600160a01b03888116600483015292935060009290911690633192195c9060240160606040518083038186803b158015612cc857600080fd5b505afa158015612cdc573d6000803e3d6000fd5b505050506040513d601f19601f82011682018060405250810190612d0091906144e9565b9250505060008183612d129190614292565b9050612d238186633b9aca006139d5565b93505050935093915050565b60065460408051808201909152600381526223292160e91b6020820152906001600160a01b03163314612d755760405162461bcd60e51b81526004016104cc919061414c565b506040516370a0823160e01b81526001600160a01b038381166004830152600091908316906370a082319060240160206040518083038186803b158015612dbb57600080fd5b505afa158015612dcf573d6000803e3d6000fd5b505050506040513d601f19601f82011682018060405250810190612df39190614263565b905080612e005750505050565b6000846001600160a01b031663d34cc3806040518163ffffffff1660e01b81526004016101206040518083038186803b158015612e3c57600080fd5b505afa158015612e50573d6000803e3d6000fd5b505050506040513d601f19601f82011682018060405250810190612e749190614175565b90506000856001600160a01b03166312466b686007546040518263ffffffff1660e01b8152600401612ea891815260200190565b60206040518083038186803b158015612ec057600080fd5b505afa158015612ed4573d6000803e3d6000fd5b505050506040513d601f19601f82011682018060405250810190612ef8919061420f565b60408051600180825281830190925291925060009190816020015b604080518082019091526000815260606020820152815260200190600190039081612f135790505090506000600160009054906101000a90046001600160a01b03166001600160a01b0316634f0e0ef36040518163ffffffff1660e01b815260040160206040518083038186803b158015612f8d57600080fd5b505afa158015612fa1573d6000803e3d6000fd5b505050506040513d601f19601f82011682018060405250810190612fc59190614456565b6040805180820182526003546001600160a01b0390811682528251908b1660248201526001604480830191909152835180830390910181526064909101909252602082810180516001600160e01b0316637050ccd960e01b179052810191909152835191925090839060009061303d5761303d614360565b602090810291909101015260065460405163caa5c23f60e01b81526001600160a01b039091169063caa5c23f90613078908590600401614376565b600060405180830381600087803b15801561309257600080fd5b505af11580156130a6573d6000803e3d6000fd5b5050600454600392506001600160a01b038481169116141590506130c8575060025b8067ffffffffffffffff8111156130e1576130e1613c45565b60405190808252806020026020018201604052801561312757816020015b6040805180820190915260008152606060208201528152602001906001900390816130ff5790505b50925061314585606001518361271088604001518960c00151612af7565b8360008151811061315857613158614360565b602002602001018190525061317e85608001518361271088604001518960c00151612af7565b8360018151811061319157613191614360565b60209081029190910101526004546001600160a01b038381169116146131fe576004548451604087015160a08801516131df9386936001600160a01b039091169262ffffff90911691612af7565b836002815181106131f2576131f2614360565b60200260200101819052505b60065460405163caa5c23f60e01b81526001600160a01b039091169063caa5c23f9061322e908690600401614376565b600060405180830381600087803b15801561324857600080fd5b505af115801561325c573d6000803e3d6000fd5b50505050505050505050505050565b8261327557505050565b60065460408051808201909152600381526223292160e91b6020820152906001600160a01b031633146132bb5760405162461bcd60e51b81526004016104cc919061414c565b506000600260009054906101000a90046001600160a01b031690506000836001600160a01b031663d34cc3806040518163ffffffff1660e01b81526004016101206040518083038186803b15801561331257600080fd5b505afa158015613326573d6000803e3d6000fd5b505050506040513d601f19601f8201168201806040525081019061334a9190614175565b90506000826001600160a01b03166382c630666040518163ffffffff1660e01b815260040160206040518083038186803b15801561338757600080fd5b505afa15801561339b573d6000803e3d6000fd5b505050506040513d601f19601f820116820180604052508101906133bf9190614456565b6004549091506000906133dc9083906001600160a01b03166116a3565b6040805160028082526060820190925291925060009190816020015b6040805180820190915260008152606060208201528152602001906001900390816133f85750506040805180820182526003546001600160a01b031681528151602481018c905260006044808301829052845180840390910181526064909201909352602081810180516001600160e01b0316636197390160e11b17905282015282519293509183919061348e5761348e614360565b60200260200101819052506040518060400160405280866001600160a01b031681526020016333d2ebf260e01b886134d4868960e00151633b9aca00611c2d9190614292565b604051600f9290920b6024830152604482015260640160408051601f198184030181529190526020810180516001600160e01b03166001600160e01b031990931692909217909152905281518290600190811061353357613533614360565b602090810291909101015260065460405163caa5c23f60e01b81526001600160a01b039091169063caa5c23f906120d3908490600401614376565b60025460035460408051633c41a11560e21b81529051600093849384936001600160a01b03928316939290911691829163f1068454916004808301926020929190829003018186803b1580156135c357600080fd5b505afa1580156135d7573d6000803e3d6000fd5b505050506040513d601f19601f820116820180604052508101906135fb9190614263565b6000546004805460405163f9eaee0d60e01b81526001600160a01b039182169281019290925292955091169063f9eaee0d9060240160206040518083038186803b15801561364857600080fd5b505afa15801561365c573d6000803e3d6000fd5b505050506040513d601f19601f820116820180604052508101906136809190614517565b60405180604001604052806005815260200164494e56544f60d81b815250906136bc5760405162461bcd60e51b81526004016104cc919061414c565b506000805b836001600160a01b031663c21ee1626040518163ffffffff1660e01b815260040160206040518083038186803b1580156136fa57600080fd5b505afa15801561370e573d6000803e3d6000fd5b505050506040513d601f19601f820116820180604052508101906137329190614263565b8110156137e65760405163c661065760e01b8152600481018290526000906001600160a01b0386169063c66106579060240160206040518083038186803b15801561377c57600080fd5b505afa158015613790573d6000803e3d6000fd5b505050506040513d601f19601f820116820180604052508101906137b49190614456565b6004549091506001600160a01b03808316911614156137d557819750600192505b506137df81614539565b90506136c1565b50604080518082019091526005815264494e56544f60d81b6020820152816138215760405162461bcd60e51b81526004016104cc919061414c565b506000836001600160a01b03166382c630666040518163ffffffff1660e01b815260040160206040518083038186803b15801561385d57600080fd5b505afa158015613871573d6000803e3d6000fd5b505050506040513d601f19601f820116820180604052508101906138959190614456565b9050826001600160a01b03166320b2c1516040518163ffffffff1660e01b815260040160206040518083038186803b1580156138d057600080fd5b505afa1580156138e4573d6000803e3d6000fd5b505050506040513d601f19601f820116820180604052508101906139089190614456565b9550826001600160a01b031663927188d96040518163ffffffff1660e01b815260040160206040518083038186803b15801561394357600080fd5b505afa158015613957573d6000803e3d6000fd5b505050506040513d601f19601f8201168201806040525081019061397b9190614456565b6001600160a01b0316816001600160a01b0316146040518060400160405280600581526020016424a72b2a2960d91b815250906139cb5760405162461bcd60e51b81526004016104cc919061414c565b5050505050909192565b600080806000198587098587029250828110838203039150508060001415613a0f5760008411613a0457600080fd5b508290049050612631565b808411613a1b57600080fd5b6000848688096000868103871696879004966002600389028118808a02820302808a02820302808a02820302808a02820302808a02820302808a02909103029181900381900460010186841190950394909402919094039290920491909117919091029150509392505050565b6001600160a01b0381168114613a9d57600080fd5b50565b8035613aab81613a88565b919050565b60008060008060008060c08789031215613ac957600080fd5b8635613ad481613a88565b95506020870135613ae481613a88565b945060408701359350606087013592506080870135613b0281613a88565b915060a0870135613b1281613a88565b809150509295509295509295565b600080600060608486031215613b3557600080fd5b8335613b4081613a88565b92506020840135613b5081613a88565b929592945050506040919091013590565b60008060408385031215613b7457600080fd5b8235613b7f81613a88565b91506020830135613b8f81613a88565b809150509250929050565b60008060408385031215613bad57600080fd5b823591506020830135613b8f81613a88565b6020808252825182820181905260009190848201906040850190845b81811015613bf757835183529284019291840191600101613bdb565b50909695505050505050565b600080600060608486031215613c1857600080fd5b833592506020840135613c2a81613a88565b91506040840135613c3a81613a88565b809150509250925092565b634e487b7160e01b600052604160045260246000fd5b604051610120810167ffffffffffffffff81118282101715613c7f57613c7f613c45565b60405290565b6040805190810167ffffffffffffffff81118282101715613c7f57613c7f613c45565b604051601f8201601f1916810167ffffffffffffffff81118282101715613cd157613cd1613c45565b604052919050565b61ffff81168114613a9d57600080fd5b8035613aab81613cd9565b60006101208284031215613d0757600080fd5b613d0f613c5b565b905081358152613d2160208301613ce9565b6020820152613d3260408301613aa0565b6040820152613d4360608301613aa0565b6060820152613d5460808301613aa0565b608082015260a082013560a082015260c082013560c082015260e082013560e0820152610100613d85818401613aa0565b9082015292915050565b8035600f81900b8114613aab57600080fd5b6000806000806101808587031215613db857600080fd5b843567ffffffffffffffff80821115613dd057600080fd5b9086019060408289031215613de457600080fd5b613dec613c85565b8235613df781613a88565b815260208381013583811115613e0c57600080fd5b80850194505089601f850112613e2157600080fd5b833583811115613e3357613e33613c45565b613e45601f8201601f19168301613ca8565b93508084528a82828701011115613e5b57600080fd5b80828601838601376000828286010152508281830152819750613e808a828b01613cf4565b9650505050506101408501359150613e9b6101608601613d8f565b905092959194509250565b60008060008060808587031215613ebc57600080fd5b8435613ec781613a88565b93506020850135613ed781613a88565b93969395505050506040820135916060013590565b600080600080600080600060e0888a031215613f0757600080fd5b8735613f1281613a88565b96506020880135613f2281613a88565b95506040880135613f3281613a88565b94506060880135613f4281613a88565b93506080880135613f5281613a88565b925060a0880135613f6281613a88565b8092505060c0880135905092959891949750929550565b600080600080600080600080610100898b031215613f9657600080fd5b88359750602089013596506040890135613faf81613a88565b955060608901359450613fc460808a01613d8f565b935060a0890135925060c0890135613fdb81613a88565b915060e0890135613feb81613a88565b809150509295985092959890939650565b600080600080600060a0868803121561401457600080fd5b853561401f81613a88565b9450602086013561402f81613a88565b935060408601359250606086013561404681613a88565b949793965091946080013592915050565b6000815180845260005b8181101561407d57602081850181015186830182015201614061565b8181111561408f576000602083870101525b50601f01601f19169290920160200192915050565b60018060a01b03815116825260006020820151604060208501526117c36040850182614057565b60208152600061263160208301846140a4565b6000806000606084860312156140f357600080fd5b83356140fe81613a88565b92506020840135613c2a81613a88565b60008060006060848603121561412357600080fd5b83359250602084013561413581613a88565b915061414360408501613d8f565b90509250925092565b6020815260006126316020830184614057565b8051613aab81613cd9565b8051613aab81613a88565b6000610120828403121561418857600080fd5b614190613c5b565b825181526141a06020840161415f565b60208201526141b16040840161416a565b60408201526141c26060840161416a565b60608201526141d36080840161416a565b608082015260a083015160a082015260c083015160c082015260e083015160e082015261010061420481850161416a565b908201529392505050565b60006020828403121561422157600080fd5b6040516020810181811067ffffffffffffffff8211171561424457614244613c45565b604052825162ffffff8116811461425a57600080fd5b81529392505050565b60006020828403121561427557600080fd5b5051919050565b634e487b7160e01b600052601160045260246000fd5b6000828210156142a4576142a461427c565b500390565b606093841b6bffffffffffffffffffffffff19908116825260e89390931b6001600160e81b0319166014820152921b166017820152602b0190565b600082198211156142f7576142f761427c565b500190565b6000815160a0845261431160a0850182614057565b6020848101516001600160a01b031690860152604080850151908601526060808501519086015260809384015193909401929092525090919050565b60208152600061263160208301846142fc565b634e487b7160e01b600052603260045260246000fd5b6000602080830181845280855180835260408601915060408160051b870101925083870160005b828110156143cb57603f198886030184526143b98583516140a4565b9450928501929085019060010161439d565b5092979650505050505050565b80516001600160801b0381168114613aab57600080fd5b6000806040838503121561440257600080fd5b61440b836143d8565b9150614419602084016143d8565b90509250929050565b600060018060a01b0380871683526080602084015261444460808401876142fc565b94166040830152506060015292915050565b60006020828403121561446857600080fd5b815161263181613a88565b634e487b7160e01b600052601260045260246000fd5b6020815260008251606060208401526144a56080840182614057565b905060208401516040840152604084015160608401528091505092915050565b600080604083850312156144d857600080fd5b505080516020909101519092909150565b6000806000606084860312156144fe57600080fd5b8351925060208401519150604084015190509250925092565b60006020828403121561452957600080fd5b8151801515811461263157600080fd5b600060001982141561454d5761454d61427c565b506001019056fea26469706673582212200aa11ea39292133946dde273fc0ea8c55073202775c1754841d056b0ce81550e64736f6c63430008090033",
    "linkReferences": {}
  },
  "methodIdentifiers": {
    "D27()": "cf8115c1",
    "D9()": "551530ae",
    "GET_REWARD_SELECTOR()": "9ddf60e8",
    "adjustPosition(uint256,uint256,address,uint256,int128,uint256,address,address)": "c6dca74a",
    "admin()": "f851a440",
    "calcConvexTokensToWithdraw(uint256,address,address)": "c54814e1",
    "calcRateRAY(address,address)": "2d736f19",
    "calculateAmountInMaximum(address,address,uint256,uint256)": "87e14fdd",
    "calculateClaimableRewards(address,address)": "20b80846",
    "calculateDesiredTotalValue(address,address,uint256)": "e28f12fc",
    "calculateEarnedCvxAmountByEarnedCrvAmount(uint256,address)": "85854ae3",
    "checkNecessaryDepositExchange(uint256,address,address)": "4aff87a7",
    "claimRewards(address,address,address)": "edc34ece",
    "convexAdapter()": "7a24fa03",
    "createUniswapMulticall(address,address,uint256,address,uint256)": "d73f8ff8",
    "creditFacade()": "2f7a1881",
    "creditManager()": "c12c21c0",
    "curveAdapter()": "1497761e",
    "depositToConvex((address,bytes),(uint256,uint16,address,address,address,uint256,uint256,uint256,address),uint256,int128)": "50931b39",
    "depositToken()": "c89039c5",
    "openCreditAccount(address,address,uint256)": "127d2a86",
    "parametersSet()": "00b26712",
    "primaryToken()": "91ac094c",
    "pullFromAddress(uint256,address)": "2ace0897",
    "setParameters(address,address,address,address,address,address,uint256)": "b6f963fc",
    "swapExactOutput(address,address,uint256,uint256,address,address)": "0dfbab94",
    "vaultNft()": "e5c9b41b",
    "verifyInstances()": "fb770089",
    "withdrawFromConvex(uint256,address,int128)": "f022c798"
  },
  "id": 420
}