{
  "abi": [
    {
      "inputs": [
        {
          "internalType": "contract IProtocolGovernance",
          "name": "protocolGovernance_",
          "type": "address"
        }
      ],
      "stateMutability": "nonpayable",
      "type": "constructor"
    },
    {
      "anonymous": false,
      "inputs": [
        {
          "indexed": true,
          "internalType": "address",
          "name": "origin",
          "type": "address"
        },
        {
          "indexed": true,
          "internalType": "address",
          "name": "sender",
          "type": "address"
        },
        {
          "components": [
            {
              "internalType": "contract IProtocolGovernance",
              "name": "protocolGovernance",
              "type": "address"
            }
          ],
          "indexed": false,
          "internalType": "struct IBaseValidator.ValidatorParams",
          "name": "params",
          "type": "tuple"
        }
      ],
      "name": "CommittedValidatorParams",
      "type": "event"
    },
    {
      "anonymous": false,
      "inputs": [
        {
          "indexed": true,
          "internalType": "address",
          "name": "origin",
          "type": "address"
        },
        {
          "indexed": true,
          "internalType": "address",
          "name": "sender",
          "type": "address"
        },
        {
          "components": [
            {
              "internalType": "contract IProtocolGovernance",
              "name": "protocolGovernance",
              "type": "address"
            }
          ],
          "indexed": false,
          "internalType": "struct IBaseValidator.ValidatorParams",
          "name": "newParams",
          "type": "tuple"
        },
        {
          "indexed": false,
          "internalType": "uint256",
          "name": "when",
          "type": "uint256"
        }
      ],
      "name": "StagedValidatorParams",
      "type": "event"
    },
    {
      "inputs": [],
      "name": "EXCHANGE_SELECTOR",
      "outputs": [
        {
          "internalType": "bytes4",
          "name": "",
          "type": "bytes4"
        }
      ],
      "stateMutability": "view",
      "type": "function"
    },
    {
      "inputs": [],
      "name": "commitValidatorParams",
      "outputs": [],
      "stateMutability": "nonpayable",
      "type": "function"
    },
    {
      "inputs": [],
      "name": "contractName",
      "outputs": [
        {
          "internalType": "string",
          "name": "",
          "type": "string"
        }
      ],
      "stateMutability": "pure",
      "type": "function"
    },
    {
      "inputs": [],
      "name": "contractNameBytes",
      "outputs": [
        {
          "internalType": "bytes32",
          "name": "",
          "type": "bytes32"
        }
      ],
      "stateMutability": "pure",
      "type": "function"
    },
    {
      "inputs": [],
      "name": "contractVersion",
      "outputs": [
        {
          "internalType": "string",
          "name": "",
          "type": "string"
        }
      ],
      "stateMutability": "pure",
      "type": "function"
    },
    {
      "inputs": [],
      "name": "contractVersionBytes",
      "outputs": [
        {
          "internalType": "bytes32",
          "name": "",
          "type": "bytes32"
        }
      ],
      "stateMutability": "pure",
      "type": "function"
    },
    {
      "inputs": [
        {
          "components": [
            {
              "internalType": "contract IProtocolGovernance",
              "name": "protocolGovernance",
              "type": "address"
            }
          ],
          "internalType": "struct IBaseValidator.ValidatorParams",
          "name": "newParams",
          "type": "tuple"
        }
      ],
      "name": "stageValidatorParams",
      "outputs": [],
      "stateMutability": "nonpayable",
      "type": "function"
    },
    {
      "inputs": [],
      "name": "stagedValidatorParams",
      "outputs": [
        {
          "components": [
            {
              "internalType": "contract IProtocolGovernance",
              "name": "protocolGovernance",
              "type": "address"
            }
          ],
          "internalType": "struct IBaseValidator.ValidatorParams",
          "name": "",
          "type": "tuple"
        }
      ],
      "stateMutability": "view",
      "type": "function"
    },
    {
      "inputs": [],
      "name": "stagedValidatorParamsTimestamp",
      "outputs": [
        {
          "internalType": "uint256",
          "name": "",
          "type": "uint256"
        }
      ],
      "stateMutability": "view",
      "type": "function"
    },
    {
      "inputs": [
        {
          "internalType": "bytes4",
          "name": "interfaceId",
          "type": "bytes4"
        }
      ],
      "name": "supportsInterface",
      "outputs": [
        {
          "internalType": "bool",
          "name": "",
          "type": "bool"
        }
      ],
      "stateMutability": "view",
      "type": "function"
    },
    {
      "inputs": [
        {
          "internalType": "address",
          "name": "",
          "type": "address"
        },
        {
          "internalType": "address",
          "name": "addr",
          "type": "address"
        },
        {
          "internalType": "uint256",
          "name": "",
          "type": "uint256"
        },
        {
          "internalType": "bytes4",
          "name": "selector",
          "type": "bytes4"
        },
        {
          "internalType": "bytes",
          "name": "data",
          "type": "bytes"
        }
      ],
      "name": "validate",
      "outputs": [],
      "stateMutability": "view",
      "type": "function"
    },
    {
      "inputs": [],
      "name": "validatorParams",
      "outputs": [
        {
          "components": [
            {
              "internalType": "contract IProtocolGovernance",
              "name": "protocolGovernance",
              "type": "address"
            }
          ],
          "internalType": "struct IBaseValidator.ValidatorParams",
          "name": "",
          "type": "tuple"
        }
      ],
      "stateMutability": "view",
      "type": "function"
    }
  ],
  "bytecode": {
    "object": "0x608060405234801561001057600080fd5b50604051610c61380380610c6183398101604081905261002f91610061565b60408051602081019091526001600160a01b0390911690819052600080546001600160a01b0319169091179055610091565b60006020828403121561007357600080fd5b81516001600160a01b038116811461008a57600080fd5b9392505050565b610bc1806100a06000396000f3fe608060405234801561001057600080fd5b50600436106100b45760003560e01c80634c39da1b116100715780634c39da1b1461015457806357acc302146101935780635e585c34146101bd57806375d0c0dc146101d0578063a0a8e460146101e5578063e6ab042c146101ed57600080fd5b806301ffc9a7146100b957806302430111146100e157806306a46239146101085780630768b496146101205780630e3e80ac1461012857806347c0a4ed1461013f575b600080fd5b6100cc6100c73660046108d7565b6101f5565b60405190151581526020015b60405180910390f35b6100ef630f7c084960e21b81565b6040516001600160e01b031990911681526020016100d8565b640312e302e360dc1b5b6040519081526020016100d8565b600254610112565b6d21bab93b32ab30b634b230ba37b960911b610112565b61015261014d3660046108f9565b610231565b005b6040805160208082018352600090915281519081019091526001546001600160a01b031681525b60405190516001600160a01b031681526020016100d8565b60408051602080820183526000918290528251908101909252546001600160a01b0316815261017b565b6101526101cb366004610929565b6103c3565b6101d8610682565b6040516100d891906109da565b6101d861069e565b6101526106b1565b60006001600160e01b03198216631796170d60e21b148061022657506301ffc9a760e01b6001600160e01b03198316145b92915050565b905090565b600054604051630935e01b60e21b81523360048201526001600160a01b039091169081906324d7806c9060240160206040518083038186803b15801561027657600080fd5b505afa15801561028a573d6000803e3d6000fd5b505050506040513d601f19601f820116820180604052508101906102ae9190610a2f565b6040518060400160405280600381526020016223292160e91b815250906102f15760405162461bcd60e51b81526004016102e891906109da565b60405180910390fd5b508160016102ff8282610a51565b905050806001600160a01b031663bba329396040518163ffffffff1660e01b815260040160206040518083038186803b15801561033b57600080fd5b505afa15801561034f573d6000803e3d6000fd5b505050506040513d601f19601f820116820180604052508101906103739190610a7a565b61037d9042610aa9565b6002819055604051339132917f660ad6a797f71286627569396d4046567822701c6afd27f47d280dee5e2ce181916103b791879190610ac1565b60405180910390a35050565b336001600160e01b03198416630f7c084960e21b1415610649576000806103ec84860186610afb565b50509150915080600f0b82600f0b14156040518060400160405280600381526020016224a72b60e91b815250906104365760405162461bcd60e51b81526004016102e891906109da565b5060405163c661065760e01b81526fffffffffffffffffffffffffffffffff821660048201526000906001600160a01b038a169063c66106579060240160206040518083038186803b15801561048b57600080fd5b505afa15801561049f573d6000803e3d6000fd5b505050506040513d601f19601f820116820180604052508101906104c39190610b3d565b60405163338c4ccb60e01b81526001600160a01b0380831660048301529192509085169063338c4ccb9060240160206040518083038186803b15801561050857600080fd5b505afa15801561051c573d6000803e3d6000fd5b505050506040513d601f19601f820116820180604052508101906105409190610a2f565b60405180604001604052806005815260200164494e56544f60d81b8152509061057c5760405162461bcd60e51b81526004016102e891906109da565b506000546040516363e85d2d60e01b81526001600160a01b038b811660048084019190915260248301529091169081906363e85d2d9060440160206040518083038186803b1580156105cd57600080fd5b505afa1580156105e1573d6000803e3d6000fd5b505050506040513d601f19601f820116820180604052508101906106059190610a2f565b6040518060400160405280600381526020016223292160e91b8152509061063f5760405162461bcd60e51b81526004016102e891906109da565b5050505050610679565b604080518082018252600480825263494e565360e01b6020830152915162461bcd60e51b81526102e892016109da565b50505050505050565b606061022c6d21bab93b32ab30b634b230ba37b960911b61084e565b606061022c640312e302e360dc1b61084e565b60025460408051808201909152600581526412539594d560da1b6020820152906106ee5760405162461bcd60e51b81526004016102e891906109da565b50600054604051630935e01b60e21b81523360048201526001600160a01b039091169081906324d7806c9060240160206040518083038186803b15801561073457600080fd5b505afa158015610748573d6000803e3d6000fd5b505050506040513d601f19601f8201168201806040525081019061076c9190610a2f565b6040518060400160405280600381526020016223292160e91b815250906107a65760405162461bcd60e51b81526004016102e891906109da565b5060025442101560405180604001604052806002815260200161545360f01b815250906107e65760405162461bcd60e51b81526004016102e891906109da565b5060018054600080546001600160a01b0383166001600160a01b0319918216811783559216909255600291909155604051908152339032907f15f858bb04b5aa79f0fafddd94b014ab8bf8ceae94724b7074c7b4940be688b49060200160405180910390a350565b604080516020808252818301909252606091602082018180368337019050509050602060005b60208110156108ac5783816020811061088f5761088f610b5a565b1a61089c578091506108ac565b6108a581610b70565b9050610874565b508152602081019190915290565b80356001600160e01b0319811681146108d257600080fd5b919050565b6000602082840312156108e957600080fd5b6108f2826108ba565b9392505050565b60006020828403121561090b57600080fd5b50919050565b6001600160a01b038116811461092657600080fd5b50565b60008060008060008060a0878903121561094257600080fd5b863561094d81610911565b9550602087013561095d81610911565b945060408701359350610972606088016108ba565b9250608087013567ffffffffffffffff8082111561098f57600080fd5b818901915089601f8301126109a357600080fd5b8135818111156109b257600080fd5b8a60208285010111156109c457600080fd5b6020830194508093505050509295509295509295565b600060208083528351808285015260005b81811015610a07578581018301518582016040015282016109eb565b81811115610a19576000604083870101525b50601f01601f1916929092016040019392505050565b600060208284031215610a4157600080fd5b815180151581146108f257600080fd5b8135610a5c81610911565b81546001600160a01b0319166001600160a01b039190911617905550565b600060208284031215610a8c57600080fd5b5051919050565b634e487b7160e01b600052601160045260246000fd5b60008219821115610abc57610abc610a93565b500190565b604081018335610ad081610911565b6001600160a01b03168252602090910191909152919050565b8035600f81900b81146108d257600080fd5b60008060008060808587031215610b1157600080fd5b610b1a85610ae9565b9350610b2860208601610ae9565b93969395505050506040820135916060013590565b600060208284031215610b4f57600080fd5b81516108f281610911565b634e487b7160e01b600052603260045260246000fd5b6000600019821415610b8457610b84610a93565b506001019056fea264697066735822122023fb409dac52d12e68607587d831e07ae5bb92498adedfa84fa67160ee38cf7964736f6c63430008090033",
    "linkReferences": {}
  },
  "methodIdentifiers": {
    "EXCHANGE_SELECTOR()": "02430111",
    "commitValidatorParams()": "e6ab042c",
    "contractName()": "75d0c0dc",
    "contractNameBytes()": "0e3e80ac",
    "contractVersion()": "a0a8e460",
    "contractVersionBytes()": "06a46239",
    "stageValidatorParams((address))": "47c0a4ed",
    "stagedValidatorParams()": "4c39da1b",
    "stagedValidatorParamsTimestamp()": "0768b496",
    "supportsInterface(bytes4)": "01ffc9a7",
    "validate(address,address,uint256,bytes4,bytes)": "5e585c34",
    "validatorParams()": "57acc302"
  },
  "id": 439
}