{
  "abi": [
    {
      "inputs": [
        {
          "internalType": "address",
          "name": "admin_",
          "type": "address"
        },
        {
          "internalType": "contract BasePulseStrategy",
          "name": "baseStrategy_",
          "type": "address"
        },
        {
          "internalType": "contract IOlympusRange",
          "name": "range_",
          "type": "address"
        },
        {
          "internalType": "int24",
          "name": "tickSpacing_",
          "type": "int24"
        },
        {
          "internalType": "uint8",
          "name": "ohmDecimals_",
          "type": "uint8"
        },
        {
          "internalType": "uint8",
          "name": "reserveDecimals_",
          "type": "uint8"
        },
        {
          "internalType": "uint8",
          "name": "priceDecimals_",
          "type": "uint8"
        },
        {
          "internalType": "bool",
          "name": "isFirstOhm_",
          "type": "bool"
        }
      ],
      "stateMutability": "nonpayable",
      "type": "constructor"
    },
    {
      "anonymous": false,
      "inputs": [
        {
          "indexed": true,
          "internalType": "bytes32",
          "name": "role",
          "type": "bytes32"
        },
        {
          "indexed": true,
          "internalType": "bytes32",
          "name": "previousAdminRole",
          "type": "bytes32"
        },
        {
          "indexed": true,
          "internalType": "bytes32",
          "name": "newAdminRole",
          "type": "bytes32"
        }
      ],
      "name": "RoleAdminChanged",
      "type": "event"
    },
    {
      "anonymous": false,
      "inputs": [
        {
          "indexed": true,
          "internalType": "bytes32",
          "name": "role",
          "type": "bytes32"
        },
        {
          "indexed": true,
          "internalType": "address",
          "name": "account",
          "type": "address"
        },
        {
          "indexed": true,
          "internalType": "address",
          "name": "sender",
          "type": "address"
        }
      ],
      "name": "RoleGranted",
      "type": "event"
    },
    {
      "anonymous": false,
      "inputs": [
        {
          "indexed": true,
          "internalType": "bytes32",
          "name": "role",
          "type": "bytes32"
        },
        {
          "indexed": true,
          "internalType": "address",
          "name": "account",
          "type": "address"
        },
        {
          "indexed": true,
          "internalType": "address",
          "name": "sender",
          "type": "address"
        }
      ],
      "name": "RoleRevoked",
      "type": "event"
    },
    {
      "inputs": [],
      "name": "ADMIN_DELEGATE_ROLE",
      "outputs": [
        {
          "internalType": "bytes32",
          "name": "",
          "type": "bytes32"
        }
      ],
      "stateMutability": "view",
      "type": "function"
    },
    {
      "inputs": [],
      "name": "ADMIN_ROLE",
      "outputs": [
        {
          "internalType": "bytes32",
          "name": "",
          "type": "bytes32"
        }
      ],
      "stateMutability": "view",
      "type": "function"
    },
    {
      "inputs": [],
      "name": "DEFAULT_ADMIN_ROLE",
      "outputs": [
        {
          "internalType": "bytes32",
          "name": "",
          "type": "bytes32"
        }
      ],
      "stateMutability": "view",
      "type": "function"
    },
    {
      "inputs": [],
      "name": "OPERATOR",
      "outputs": [
        {
          "internalType": "bytes32",
          "name": "",
          "type": "bytes32"
        }
      ],
      "stateMutability": "view",
      "type": "function"
    },
    {
      "inputs": [],
      "name": "Q96",
      "outputs": [
        {
          "internalType": "uint256",
          "name": "",
          "type": "uint256"
        }
      ],
      "stateMutability": "view",
      "type": "function"
    },
    {
      "inputs": [],
      "name": "baseStrategy",
      "outputs": [
        {
          "internalType": "contract BasePulseStrategy",
          "name": "",
          "type": "address"
        }
      ],
      "stateMutability": "view",
      "type": "function"
    },
    {
      "inputs": [],
      "name": "calculateInterval",
      "outputs": [
        {
          "components": [
            {
              "internalType": "int24",
              "name": "lowerTick",
              "type": "int24"
            },
            {
              "internalType": "int24",
              "name": "upperTick",
              "type": "int24"
            }
          ],
          "internalType": "struct BasePulseStrategy.Interval",
          "name": "",
          "type": "tuple"
        }
      ],
      "stateMutability": "view",
      "type": "function"
    },
    {
      "inputs": [
        {
          "internalType": "bytes32",
          "name": "role",
          "type": "bytes32"
        }
      ],
      "name": "getRoleAdmin",
      "outputs": [
        {
          "internalType": "bytes32",
          "name": "",
          "type": "bytes32"
        }
      ],
      "stateMutability": "view",
      "type": "function"
    },
    {
      "inputs": [
        {
          "internalType": "bytes32",
          "name": "role",
          "type": "bytes32"
        },
        {
          "internalType": "uint256",
          "name": "index",
          "type": "uint256"
        }
      ],
      "name": "getRoleMember",
      "outputs": [
        {
          "internalType": "address",
          "name": "",
          "type": "address"
        }
      ],
      "stateMutability": "view",
      "type": "function"
    },
    {
      "inputs": [
        {
          "internalType": "bytes32",
          "name": "role",
          "type": "bytes32"
        }
      ],
      "name": "getRoleMemberCount",
      "outputs": [
        {
          "internalType": "uint256",
          "name": "",
          "type": "uint256"
        }
      ],
      "stateMutability": "view",
      "type": "function"
    },
    {
      "inputs": [
        {
          "internalType": "bytes32",
          "name": "role",
          "type": "bytes32"
        },
        {
          "internalType": "address",
          "name": "account",
          "type": "address"
        }
      ],
      "name": "grantRole",
      "outputs": [],
      "stateMutability": "nonpayable",
      "type": "function"
    },
    {
      "inputs": [
        {
          "internalType": "bytes32",
          "name": "role",
          "type": "bytes32"
        },
        {
          "internalType": "address",
          "name": "account",
          "type": "address"
        }
      ],
      "name": "hasRole",
      "outputs": [
        {
          "internalType": "bool",
          "name": "",
          "type": "bool"
        }
      ],
      "stateMutability": "view",
      "type": "function"
    },
    {
      "inputs": [
        {
          "internalType": "address",
          "name": "sender",
          "type": "address"
        }
      ],
      "name": "isAdmin",
      "outputs": [
        {
          "internalType": "bool",
          "name": "",
          "type": "bool"
        }
      ],
      "stateMutability": "view",
      "type": "function"
    },
    {
      "inputs": [],
      "name": "isFirstOhm",
      "outputs": [
        {
          "internalType": "bool",
          "name": "",
          "type": "bool"
        }
      ],
      "stateMutability": "view",
      "type": "function"
    },
    {
      "inputs": [
        {
          "internalType": "address",
          "name": "sender",
          "type": "address"
        }
      ],
      "name": "isOperator",
      "outputs": [
        {
          "internalType": "bool",
          "name": "",
          "type": "bool"
        }
      ],
      "stateMutability": "view",
      "type": "function"
    },
    {
      "inputs": [],
      "name": "ohmDecimals",
      "outputs": [
        {
          "internalType": "uint8",
          "name": "",
          "type": "uint8"
        }
      ],
      "stateMutability": "view",
      "type": "function"
    },
    {
      "inputs": [],
      "name": "priceDecimals",
      "outputs": [
        {
          "internalType": "uint8",
          "name": "",
          "type": "uint8"
        }
      ],
      "stateMutability": "view",
      "type": "function"
    },
    {
      "inputs": [],
      "name": "range",
      "outputs": [
        {
          "internalType": "contract IOlympusRange",
          "name": "",
          "type": "address"
        }
      ],
      "stateMutability": "view",
      "type": "function"
    },
    {
      "inputs": [
        {
          "internalType": "uint256",
          "name": "deadline",
          "type": "uint256"
        },
        {
          "internalType": "bytes",
          "name": "swapData",
          "type": "bytes"
        },
        {
          "internalType": "uint256",
          "name": "minAmountInCaseOfSwap",
          "type": "uint256"
        }
      ],
      "name": "rebalance",
      "outputs": [],
      "stateMutability": "nonpayable",
      "type": "function"
    },
    {
      "inputs": [
        {
          "internalType": "bytes32",
          "name": "role",
          "type": "bytes32"
        },
        {
          "internalType": "address",
          "name": "account",
          "type": "address"
        }
      ],
      "name": "renounceRole",
      "outputs": [],
      "stateMutability": "nonpayable",
      "type": "function"
    },
    {
      "inputs": [],
      "name": "reserveDecimals",
      "outputs": [
        {
          "internalType": "uint8",
          "name": "",
          "type": "uint8"
        }
      ],
      "stateMutability": "view",
      "type": "function"
    },
    {
      "inputs": [
        {
          "internalType": "bytes32",
          "name": "role",
          "type": "bytes32"
        },
        {
          "internalType": "address",
          "name": "account",
          "type": "address"
        }
      ],
      "name": "revokeRole",
      "outputs": [],
      "stateMutability": "nonpayable",
      "type": "function"
    },
    {
      "inputs": [
        {
          "internalType": "bytes4",
          "name": "interfaceId",
          "type": "bytes4"
        }
      ],
      "name": "supportsInterface",
      "outputs": [
        {
          "internalType": "bool",
          "name": "",
          "type": "bool"
        }
      ],
      "stateMutability": "view",
      "type": "function"
    },
    {
      "inputs": [],
      "name": "tickSpacing",
      "outputs": [
        {
          "internalType": "int24",
          "name": "",
          "type": "int24"
        }
      ],
      "stateMutability": "view",
      "type": "function"
    }
  ],
  "bytecode": {
    "object": "0x6101606040523480156200001257600080fd5b506040516200277e3803806200277e83398101604081905262000035916200036d565b60408051808201909152600281526120ad60f11b602082015288906001600160a01b038216620000835760405162461bcd60e51b81526004016200007a91906200042e565b60405180910390fd5b506200009f6000805160206200275e833981519152826200018d565b620000ba6000805160206200273e833981519152826200018d565b620000d56000805160206200273e833981519152806200019d565b620001107fc171260023d22a25a00a2789664c9334017843b831138c8ef03cc8897e5873d76000805160206200273e8339815191526200019d565b6200014b6000805160206200275e8339815191527fc171260023d22a25a00a2789664c9334017843b831138c8ef03cc8897e5873d76200019d565b506001600160a01b039687166080529490951660a05260029290920b60c05260ff90811660e05290811661010052909116610120521515610140525062000486565b620001998282620001e8565b5050565b600082815260208190526040808220600101805490849055905190918391839186917fbd79b86ffe0ab8e8776151514217cd7cacd52c909f66475c3af44e129f0b00ff9190a4505050565b620001ff82826200022b60201b62000baf1760201c565b60008281526001602090815260409091206200022691839062000c33620002cb821b17901c565b505050565b6000828152602081815260408083206001600160a01b038516845290915290205460ff1662000199576000828152602081815260408083206001600160a01b03851684529091529020805460ff19166001179055620002873390565b6001600160a01b0316816001600160a01b0316837f2f8788117e7eff1d82e926ec794901d17c78024a50270940304540a733656f0d60405160405180910390a45050565b6000620002e2836001600160a01b038416620002eb565b90505b92915050565b60008181526001830160205260408120546200033457508154600181810184556000848152602080822090930184905584548482528286019093526040902091909155620002e5565b506000620002e5565b6001600160a01b03811681146200035357600080fd5b50565b805160ff811681146200036857600080fd5b919050565b600080600080600080600080610100898b0312156200038b57600080fd5b885162000398816200033d565b60208a0151909850620003ab816200033d565b60408a0151909750620003be816200033d565b8096505060608901518060020b8114620003d757600080fd5b9450620003e760808a0162000356565b9350620003f760a08a0162000356565b92506200040760c08a0162000356565b915060e089015180151581146200041d57600080fd5b809150509295985092959890939650565b600060208083528351808285015260005b818110156200045d578581018301518582016040015282016200043f565b8181111562000470576000604083870101525b50601f01601f1916929092016040019392505050565b60805160a05160c05160e0516101005161012051610140516121d8620005666000396000818161032901526107a701526000818161018a0152818161080e015281816108b8015261094e0152600081816102c6015281816107d90152818161087e0152818161091901526109af0152600081816103a501528181610839015281816108e301526109790152600081816103df01528181610a1101528181610a4301528181610a7a01528181610aac0152610ad701526000818161042c0152818161067a0152610726015260008181610274015261048301526121d86000f3fe608060405234801561001057600080fd5b50600436106101585760003560e01c806375b238fc116100c3578063a217fddf1161007c578063a217fddf14610398578063aea564af146103a0578063ca15c873146103c7578063d0c93a7c146103da578063d547741f14610414578063e97206a91461042757600080fd5b806375b238fc146102e85780637b7bd9831461030f5780638f1d0d26146103245780639010d07c1461034b57806391d148541461035e578063983d27371461037157600080fd5b80632f2ff15d116101155780632f2ff15d1461023e57806336568abe146102515780634079246514610264578063565832da1461026f5780636d70f7ae146102ae5780636e703c2e146102c157600080fd5b806301ffc9a71461015d57806305300b28146101855780630952ff54146101be578063163cacd5146101f3578063248a9ca31461020857806324d7806c1461022b575b600080fd5b61017061016b366004611aca565b61044e565b60405190151581526020015b60405180910390f35b6101ac7f000000000000000000000000000000000000000000000000000000000000000081565b60405160ff909116815260200161017c565b6101e57fc171260023d22a25a00a2789664c9334017843b831138c8ef03cc8897e5873d781565b60405190815260200161017c565b610206610201366004611b0a565b610479565b005b6101e5610216366004611bce565b60009081526020819052604090206001015490565b610170610239366004611c03565b610511565b61020661024c366004611c1e565b61056d565b61020661025f366004611c1e565b610597565b6101e5600160601b81565b6102967f000000000000000000000000000000000000000000000000000000000000000081565b6040516001600160a01b03909116815260200161017c565b6101706102bc366004611c03565b61061a565b6101ac7f000000000000000000000000000000000000000000000000000000000000000081565b6101e57ff23ec0bb4210edd5cba85afd05127efcd2fc6a781bfed49188da1081670b22d881565b610317610646565b60405161017c9190611c4a565b6101707f000000000000000000000000000000000000000000000000000000000000000081565b610296610359366004611c6b565b610b2b565b61017061036c366004611c1e565b610b4a565b6101e57f46a52cf33029de9f84853745a87af28464c80bf0346df1b32e205fc73319f62281565b6101e5600081565b6101ac7f000000000000000000000000000000000000000000000000000000000000000081565b6101e56103d5366004611bce565b610b73565b6104017f000000000000000000000000000000000000000000000000000000000000000081565b60405160029190910b815260200161017c565b610206610422366004611c1e565b610b8a565b6102967f000000000000000000000000000000000000000000000000000000000000000081565b60006001600160e01b03198216635a05180f60e01b1480610473575061047382610c48565b92915050565b610481610c7d565b7f00000000000000000000000000000000000000000000000000000000000000006001600160a01b03166389eddfea846104b9610646565b85856040518563ffffffff1660e01b81526004016104da9493929190611ce9565b600060405180830381600087803b1580156104f457600080fd5b505af1158015610508573d6000803e3d6000fd5b50505050505050565b600061053d7ff23ec0bb4210edd5cba85afd05127efcd2fc6a781bfed49188da1081670b22d883610b4a565b8061047357506104737fc171260023d22a25a00a2789664c9334017843b831138c8ef03cc8897e5873d783610b4a565b60008281526020819052604090206001015461058881610cd2565b6105928383610cdc565b505050565b6001600160a01b038116331461060c5760405162461bcd60e51b815260206004820152602f60248201527f416363657373436f6e74726f6c3a2063616e206f6e6c792072656e6f756e636560448201526e103937b632b9903337b91039b2b63360891b60648201526084015b60405180910390fd5b6106168282610cfe565b5050565b60006104737f46a52cf33029de9f84853745a87af28464c80bf0346df1b32e205fc73319f62283610b4a565b6040805180820190915260008082526020820152604051631bbc615960e11b815260006004820181905260248201819052907f00000000000000000000000000000000000000000000000000000000000000006001600160a01b031690633778c2b29060440160206040518083038186803b1580156106c457600080fd5b505afa1580156106d8573d6000803e3d6000fd5b505050506040513d601f19601f820116820180604052508101906106fc9190611d33565b604051631bbc615960e11b8152600060048201819052600160248301529192506001600160a01b037f00000000000000000000000000000000000000000000000000000000000000001690633778c2b29060440160206040518083038186803b15801561076857600080fd5b505afa15801561077c573d6000803e3d6000fd5b505050506040513d601f19601f820116820180604052508101906107a09190611d33565b90506000807f0000000000000000000000000000000000000000000000000000000000000000156108ab5761086e600160601b856107ff7f0000000000000000000000000000000000000000000000000000000000000000600a611e46565b6108099190611e55565b6108347f0000000000000000000000000000000000000000000000000000000000000000600a611e46565b61085f7f0000000000000000000000000000000000000000000000000000000000000000600a611e46565b6108699190611e55565b610d20565b91506108a4600160601b846107ff7f0000000000000000000000000000000000000000000000000000000000000000600a611e46565b90506109d8565b61093f600160601b6108de7f0000000000000000000000000000000000000000000000000000000000000000600a611e46565b6109097f0000000000000000000000000000000000000000000000000000000000000000600a611e46565b6109139190611e55565b8561085f7f0000000000000000000000000000000000000000000000000000000000000000600a611e46565b91506109d5600160601b6109747f0000000000000000000000000000000000000000000000000000000000000000600a611e46565b61099f7f0000000000000000000000000000000000000000000000000000000000000000600a611e46565b6109a99190611e55565b8661085f7f0000000000000000000000000000000000000000000000000000000000000000600a611e46565b90505b60006109e383610dd3565b905060006109f083610dd3565b905060006109fd83610de9565b90506000610a0a83610de9565b9050610a367f000000000000000000000000000000000000000000000000000000000000000083611e8a565b60020b15610a7557610a687f000000000000000000000000000000000000000000000000000000000000000083611e8a565b610a729083611eac565b91505b610a9f7f000000000000000000000000000000000000000000000000000000000000000082611e8a565b60020b15610b0857610ad17f000000000000000000000000000000000000000000000000000000000000000082611e8a565b610afb907f0000000000000000000000000000000000000000000000000000000000000000611eac565b610b059082611ef4565b90505b60408051808201909152600292830b8152910b6020820152979650505050505050565b6000828152600160205260408120610b43908361112c565b9392505050565b6000918252602082815260408084206001600160a01b0393909316845291905290205460ff1690565b600081815260016020526040812061047390611138565b600082815260208190526040902060010154610ba581610cd2565b6105928383610cfe565b610bb98282610b4a565b610616576000828152602081815260408083206001600160a01b03851684529091529020805460ff19166001179055610bef3390565b6001600160a01b0316816001600160a01b0316837f2f8788117e7eff1d82e926ec794901d17c78024a50270940304540a733656f0d60405160405180910390a45050565b6000610b43836001600160a01b038416611142565b60006001600160e01b03198216637965db0b60e01b148061047357506301ffc9a760e01b6001600160e01b0319831614610473565b610c8633610511565b80610c955750610c953361061a565b6040518060400160405280600381526020016223292160e91b81525090610ccf5760405162461bcd60e51b81526004016106039190611f3b565b50565b610ccf8133611191565b610ce68282610baf565b60008281526001602052604090206105929082610c33565b610d0882826111ea565b6000828152600160205260409020610592908261124f565b600080806000198587098587029250828110838203039150508060001415610d5a5760008411610d4f57600080fd5b508290049050610b43565b808411610d6657600080fd5b6000848688096000868103871696879004966002600389028118808a02820302808a02820302808a02820302808a02820302808a02820302808a02909103029181900381900460010186841190950394909402919094039290920491909117919091029150509392505050565b600080610ddf83611264565b60301b9392505050565b60006401000276a36001600160a01b03831610801590610e25575073fffd8963efd1fc6a506488495d951d5263988d266001600160a01b038316105b610e555760405162461bcd60e51b81526020600482015260016024820152602960f91b6044820152606401610603565b640100000000600160c01b03602083901b166fffffffffffffffffffffffffffffffff811160071b81811c67ffffffffffffffff811160061b90811c63ffffffff811160051b90811c61ffff811160041b90811c60ff8111600390811b91821c600f811160021b90811c918211600190811b92831c97908811961790941790921717909117171760808110610ef957610eef607f82611f4e565b83901c9150610f0a565b610f0481607f611f4e565b83901b91505b60006040610f19608084611f65565b901b9050828302607f1c92508260801c80603f1b8217915083811c935050828302607f1c92508260801c80603e1b8217915083811c935050828302607f1c92508260801c80603d1b8217915083811c935050828302607f1c92508260801c80603c1b8217915083811c935050828302607f1c92508260801c80603b1b8217915083811c935050828302607f1c92508260801c80603a1b8217915083811c935050828302607f1c92508260801c8060391b8217915083811c935050828302607f1c92508260801c8060381b8217915083811c935050828302607f1c92508260801c8060371b8217915083811c935050828302607f1c92508260801c8060361b8217915083811c935050828302607f1c92508260801c8060351b8217915083811c935050828302607f1c92508260801c8060341b8217915083811c935050828302607f1c92508260801c8060331b8217915083811c935050828302607f1c92508260801c8060321b8217915050600081693627a301d71055774c8561109c9190611fa4565b9050600060806110bc6f028f6481ab7f045a5af012a19d003aaa84611f65565b901d9050600060806110de846fdb2df09e81959a81455e260799a0632f612029565b901d90508060020b8260020b1461111d57886001600160a01b0316611102826113e2565b6001600160a01b03161115611117578161111f565b8061111f565b815b9998505050505050505050565b6000610b4383836117ff565b6000610473825490565b600081815260018301602052604081205461118957508154600181810184556000848152602080822090930184905584548482528286019093526040902091909155610473565b506000610473565b61119b8282610b4a565b610616576111a881611829565b6111b383602061183b565b6040516020016111c492919061206a565b60408051601f198184030181529082905262461bcd60e51b825261060391600401611f3b565b6111f48282610b4a565b15610616576000828152602081815260408083206001600160a01b0385168085529252808320805460ff1916905551339285917ff6391f5c32d9c69d2a47ea670b442974b53935d1edc7fd64eb21e047a839171b9190a45050565b6000610b43836001600160a01b0384166119d7565b60008161127357506000919050565b816001600160801b821061128c5760809190911c9060401b5b6801000000000000000082106112a75760409190911c9060201b5b64010000000082106112be5760209190911c9060101b5b6201000082106112d35760109190911c9060081b5b61010082106112e75760089190911c9060041b5b601082106112fa5760049190911c9060021b5b600882106113065760011b5b600161131282866120df565b61131c90836120f3565b901c9050600161132c82866120df565b61133690836120f3565b901c9050600161134682866120df565b61135090836120f3565b901c9050600161136082866120df565b61136a90836120f3565b901c9050600161137a82866120df565b61138490836120f3565b901c9050600161139482866120df565b61139e90836120f3565b901c905060016113ae82866120df565b6113b890836120f3565b901c905060006113c882866120df565b90508082106113d757806113d9565b815b95945050505050565b60008060008360020b126113f9578260020b611406565b8260020b6114069061210b565b9050611415620d89e719612128565b60020b81111561144b5760405162461bcd60e51b81526020600482015260016024820152601560fa1b6044820152606401610603565b60006001821661145f57600160801b611471565b6ffffcb933bd6fad37aa2d162d1a5940015b70ffffffffffffffffffffffffffffffffff16905060028216156114b05760806114ab826ffff97272373d413259a46990580e213a611e55565b901c90505b60048216156114da5760806114d5826ffff2e50f5f656932ef12357cf3c7fdcc611e55565b901c90505b60088216156115045760806114ff826fffe5caca7e10e4e61c3624eaa0941cd0611e55565b901c90505b601082161561152e576080611529826fffcb9843d60f6159c9db58835c926644611e55565b901c90505b6020821615611558576080611553826fff973b41fa98c081472e6896dfb254c0611e55565b901c90505b604082161561158257608061157d826fff2ea16466c96a3843ec78b326b52861611e55565b901c90505b60808216156115ac5760806115a7826ffe5dee046a99a2a811c461f1969c3053611e55565b901c90505b6101008216156115d75760806115d2826ffcbe86c7900a88aedcffc83b479aa3a4611e55565b901c90505b6102008216156116025760806115fd826ff987a7253ac413176f2b074cf7815e54611e55565b901c90505b61040082161561162d576080611628826ff3392b0822b70005940c7a398e4b70f3611e55565b901c90505b610800821615611658576080611653826fe7159475a2c29b7443b29c7fa6e889d9611e55565b901c90505b61100082161561168357608061167e826fd097f3bdfd2022b8845ad8f792aa5825611e55565b901c90505b6120008216156116ae5760806116a9826fa9f746462d870fdf8a65dc1f90e061e5611e55565b901c90505b6140008216156116d95760806116d4826f70d869a156d2a1b890bb3df62baf32f7611e55565b901c90505b6180008216156117045760806116ff826f31be135f97d08fd981231505542fcfa6611e55565b901c90505b6201000082161561173057608061172b826f09aa508b5b7a84e1c677de54f3e99bc9611e55565b901c90505b6202000082161561175b576080611756826e5d6af8dedb81196699c329225ee604611e55565b901c90505b62040000821615611785576080611780826d2216e584f5fa1ea926041bedfe98611e55565b901c90505b620800008216156117ad5760806117a8826b048a170391f7dc42444e8fa2611e55565b901c90505b60008460020b13156117c8576117c5816000196120df565b90505b6117d76401000000008261214b565b156117e35760016117e6565b60005b6117f79060ff16602083901c6120f3565b949350505050565b60008260000182815481106118165761181661215f565b9060005260206000200154905092915050565b60606104736001600160a01b03831660145b6060600061184a836002611e55565b6118559060026120f3565b67ffffffffffffffff81111561186d5761186d611af4565b6040519080825280601f01601f191660200182016040528015611897576020820181803683370190505b509050600360fc1b816000815181106118b2576118b261215f565b60200101906001600160f81b031916908160001a905350600f60fb1b816001815181106118e1576118e161215f565b60200101906001600160f81b031916908160001a9053506000611905846002611e55565b6119109060016120f3565b90505b6001811115611988576f181899199a1a9b1b9c1cb0b131b232b360811b85600f16601081106119445761194461215f565b1a60f81b82828151811061195a5761195a61215f565b60200101906001600160f81b031916908160001a90535060049490941c9361198181612175565b9050611913565b508315610b435760405162461bcd60e51b815260206004820181905260248201527f537472696e67733a20686578206c656e67746820696e73756666696369656e746044820152606401610603565b60008181526001830160205260408120548015611ac05760006119fb600183611f4e565b8554909150600090611a0f90600190611f4e565b9050818114611a74576000866000018281548110611a2f57611a2f61215f565b9060005260206000200154905080876000018481548110611a5257611a5261215f565b6000918252602080832090910192909255918252600188019052604090208390555b8554869080611a8557611a8561218c565b600190038181906000526020600020016000905590558560010160008681526020019081526020016000206000905560019350505050610473565b6000915050610473565b600060208284031215611adc57600080fd5b81356001600160e01b031981168114610b4357600080fd5b634e487b7160e01b600052604160045260246000fd5b600080600060608486031215611b1f57600080fd5b83359250602084013567ffffffffffffffff80821115611b3e57600080fd5b818601915086601f830112611b5257600080fd5b813581811115611b6457611b64611af4565b604051601f8201601f19908116603f01168101908382118183101715611b8c57611b8c611af4565b81604052828152896020848701011115611ba557600080fd5b826020860160208301376000602084830101528096505050505050604084013590509250925092565b600060208284031215611be057600080fd5b5035919050565b80356001600160a01b0381168114611bfe57600080fd5b919050565b600060208284031215611c1557600080fd5b610b4382611be7565b60008060408385031215611c3157600080fd5b82359150611c4160208401611be7565b90509250929050565b604081016104738284805160020b8252602081015160020b60208301525050565b60008060408385031215611c7e57600080fd5b50508035926020909101359150565b60005b83811015611ca8578181015183820152602001611c90565b83811115611cb7576000848401525b50505050565b60008151808452611cd5816020860160208601611c8d565b601f01601f19169290920160200192915050565b848152611d0c6020820185805160020b8252602081015160020b60208301525050565b60a060608201526000611d2260a0830185611cbd565b905082608083015295945050505050565b600060208284031215611d4557600080fd5b5051919050565b634e487b7160e01b600052601160045260246000fd5b600181815b80851115611d9d578160001904821115611d8357611d83611d4c565b80851615611d9057918102915b93841c9390800290611d67565b509250929050565b600082611db457506001610473565b81611dc157506000610473565b8160018114611dd75760028114611de157611dfd565b6001915050610473565b60ff841115611df257611df2611d4c565b50506001821b610473565b5060208310610133831016604e8410600b8410161715611e20575081810a610473565b611e2a8383611d62565b8060001904821115611e3e57611e3e611d4c565b029392505050565b6000610b4360ff841683611da5565b6000816000190483118215151615611e6f57611e6f611d4c565b500290565b634e487b7160e01b600052601260045260246000fd5b60008260020b80611e9d57611e9d611e74565b808360020b0791505092915050565b60008160020b8360020b6000811281627fffff1901831281151615611ed357611ed3611d4c565b81627fffff018313811615611eea57611eea611d4c565b5090039392505050565b60008160020b8360020b6000821282627fffff03821381151615611f1a57611f1a611d4c565b82627fffff19038212811615611f3257611f32611d4c565b50019392505050565b602081526000610b436020830184611cbd565b600082821015611f6057611f60611d4c565b500390565b60008083128015600160ff1b850184121615611f8357611f83611d4c565b6001600160ff1b0384018313811615611f9e57611f9e611d4c565b50500390565b60006001600160ff1b0381841382841380821686840486111615611fca57611fca611d4c565b600160ff1b6000871282811687830589121615611fe957611fe9611d4c565b6000871292508782058712848416161561200557612005611d4c565b8785058712818416161561201b5761201b611d4c565b505050929093029392505050565b600080821280156001600160ff1b038490038513161561204b5761204b611d4c565b600160ff1b839003841281161561206457612064611d4c565b50500190565b7f416363657373436f6e74726f6c3a206163636f756e74200000000000000000008152600083516120a2816017850160208801611c8d565b7001034b99036b4b9b9b4b733903937b6329607d1b60179184019182015283516120d3816028840160208801611c8d565b01602801949350505050565b6000826120ee576120ee611e74565b500490565b6000821982111561210657612106611d4c565b500190565b6000600160ff1b82141561212157612121611d4c565b5060000390565b60008160020b627fffff1981141561214257612142611d4c565b60000392915050565b60008261215a5761215a611e74565b500690565b634e487b7160e01b600052603260045260246000fd5b60008161218457612184611d4c565b506000190190565b634e487b7160e01b600052603160045260246000fdfea2646970667358221220496ec2e5c4ec97e1101adf007eef69d40a1724d69bcb1dd7defadb7cbfd06e3964736f6c63430008090033f23ec0bb4210edd5cba85afd05127efcd2fc6a781bfed49188da1081670b22d846a52cf33029de9f84853745a87af28464c80bf0346df1b32e205fc73319f622",
    "linkReferences": {}
  },
  "methodIdentifiers": {
    "ADMIN_DELEGATE_ROLE()": "0952ff54",
    "ADMIN_ROLE()": "75b238fc",
    "DEFAULT_ADMIN_ROLE()": "a217fddf",
    "OPERATOR()": "983d2737",
    "Q96()": "40792465",
    "baseStrategy()": "565832da",
    "calculateInterval()": "7b7bd983",
    "getRoleAdmin(bytes32)": "248a9ca3",
    "getRoleMember(bytes32,uint256)": "9010d07c",
    "getRoleMemberCount(bytes32)": "ca15c873",
    "grantRole(bytes32,address)": "2f2ff15d",
    "hasRole(bytes32,address)": "91d14854",
    "isAdmin(address)": "24d7806c",
    "isFirstOhm()": "8f1d0d26",
    "isOperator(address)": "6d70f7ae",
    "ohmDecimals()": "aea564af",
    "priceDecimals()": "05300b28",
    "range()": "e97206a9",
    "rebalance(uint256,bytes,uint256)": "163cacd5",
    "renounceRole(bytes32,address)": "36568abe",
    "reserveDecimals()": "6e703c2e",
    "revokeRole(bytes32,address)": "d547741f",
    "supportsInterface(bytes4)": "01ffc9a7",
    "tickSpacing()": "d0c93a7c"
  },
  "id": 395
}