{
  "abi": [
    {
      "inputs": [
        {
          "internalType": "contract IUniswapV3Factory",
          "name": "factory_",
          "type": "address"
        },
        {
          "internalType": "contract IUniswapV3Pool[]",
          "name": "pools",
          "type": "address[]"
        },
        {
          "internalType": "address",
          "name": "admin",
          "type": "address"
        }
      ],
      "stateMutability": "nonpayable",
      "type": "constructor"
    },
    {
      "anonymous": false,
      "inputs": [
        {
          "indexed": true,
          "internalType": "address",
          "name": "origin",
          "type": "address"
        },
        {
          "indexed": true,
          "internalType": "address",
          "name": "sender",
          "type": "address"
        },
        {
          "indexed": false,
          "internalType": "contract IUniswapV3Pool[]",
          "name": "pools",
          "type": "address[]"
        },
        {
          "indexed": false,
          "internalType": "contract IUniswapV3Pool[]",
          "name": "replacedPools",
          "type": "address[]"
        }
      ],
      "name": "PoolsUpdated",
      "type": "event"
    },
    {
      "anonymous": false,
      "inputs": [
        {
          "indexed": true,
          "internalType": "bytes32",
          "name": "role",
          "type": "bytes32"
        },
        {
          "indexed": true,
          "internalType": "bytes32",
          "name": "previousAdminRole",
          "type": "bytes32"
        },
        {
          "indexed": true,
          "internalType": "bytes32",
          "name": "newAdminRole",
          "type": "bytes32"
        }
      ],
      "name": "RoleAdminChanged",
      "type": "event"
    },
    {
      "anonymous": false,
      "inputs": [
        {
          "indexed": true,
          "internalType": "bytes32",
          "name": "role",
          "type": "bytes32"
        },
        {
          "indexed": true,
          "internalType": "address",
          "name": "account",
          "type": "address"
        },
        {
          "indexed": true,
          "internalType": "address",
          "name": "sender",
          "type": "address"
        }
      ],
      "name": "RoleGranted",
      "type": "event"
    },
    {
      "anonymous": false,
      "inputs": [
        {
          "indexed": true,
          "internalType": "bytes32",
          "name": "role",
          "type": "bytes32"
        },
        {
          "indexed": true,
          "internalType": "address",
          "name": "account",
          "type": "address"
        },
        {
          "indexed": true,
          "internalType": "address",
          "name": "sender",
          "type": "address"
        }
      ],
      "name": "RoleRevoked",
      "type": "event"
    },
    {
      "inputs": [],
      "name": "ADMIN_DELEGATE_ROLE",
      "outputs": [
        {
          "internalType": "bytes32",
          "name": "",
          "type": "bytes32"
        }
      ],
      "stateMutability": "view",
      "type": "function"
    },
    {
      "inputs": [],
      "name": "ADMIN_ROLE",
      "outputs": [
        {
          "internalType": "bytes32",
          "name": "",
          "type": "bytes32"
        }
      ],
      "stateMutability": "view",
      "type": "function"
    },
    {
      "inputs": [],
      "name": "DEFAULT_ADMIN_ROLE",
      "outputs": [
        {
          "internalType": "bytes32",
          "name": "",
          "type": "bytes32"
        }
      ],
      "stateMutability": "view",
      "type": "function"
    },
    {
      "inputs": [],
      "name": "HIGH_OBS_DELTA",
      "outputs": [
        {
          "internalType": "uint32",
          "name": "",
          "type": "uint32"
        }
      ],
      "stateMutability": "view",
      "type": "function"
    },
    {
      "inputs": [],
      "name": "LOW_OBS_DELTA",
      "outputs": [
        {
          "internalType": "uint32",
          "name": "",
          "type": "uint32"
        }
      ],
      "stateMutability": "view",
      "type": "function"
    },
    {
      "inputs": [],
      "name": "MID_OBS_DELTA",
      "outputs": [
        {
          "internalType": "uint32",
          "name": "",
          "type": "uint32"
        }
      ],
      "stateMutability": "view",
      "type": "function"
    },
    {
      "inputs": [],
      "name": "OPERATOR",
      "outputs": [
        {
          "internalType": "bytes32",
          "name": "",
          "type": "bytes32"
        }
      ],
      "stateMutability": "view",
      "type": "function"
    },
    {
      "inputs": [
        {
          "internalType": "contract IUniswapV3Pool[]",
          "name": "pools",
          "type": "address[]"
        }
      ],
      "name": "addUniV3Pools",
      "outputs": [],
      "stateMutability": "nonpayable",
      "type": "function"
    },
    {
      "inputs": [],
      "name": "contractName",
      "outputs": [
        {
          "internalType": "string",
          "name": "",
          "type": "string"
        }
      ],
      "stateMutability": "pure",
      "type": "function"
    },
    {
      "inputs": [],
      "name": "contractNameBytes",
      "outputs": [
        {
          "internalType": "bytes32",
          "name": "",
          "type": "bytes32"
        }
      ],
      "stateMutability": "pure",
      "type": "function"
    },
    {
      "inputs": [],
      "name": "contractVersion",
      "outputs": [
        {
          "internalType": "string",
          "name": "",
          "type": "string"
        }
      ],
      "stateMutability": "pure",
      "type": "function"
    },
    {
      "inputs": [],
      "name": "contractVersionBytes",
      "outputs": [
        {
          "internalType": "bytes32",
          "name": "",
          "type": "bytes32"
        }
      ],
      "stateMutability": "pure",
      "type": "function"
    },
    {
      "inputs": [],
      "name": "factory",
      "outputs": [
        {
          "internalType": "contract IUniswapV3Factory",
          "name": "",
          "type": "address"
        }
      ],
      "stateMutability": "view",
      "type": "function"
    },
    {
      "inputs": [
        {
          "internalType": "bytes32",
          "name": "role",
          "type": "bytes32"
        }
      ],
      "name": "getRoleAdmin",
      "outputs": [
        {
          "internalType": "bytes32",
          "name": "",
          "type": "bytes32"
        }
      ],
      "stateMutability": "view",
      "type": "function"
    },
    {
      "inputs": [
        {
          "internalType": "bytes32",
          "name": "role",
          "type": "bytes32"
        },
        {
          "internalType": "uint256",
          "name": "index",
          "type": "uint256"
        }
      ],
      "name": "getRoleMember",
      "outputs": [
        {
          "internalType": "address",
          "name": "",
          "type": "address"
        }
      ],
      "stateMutability": "view",
      "type": "function"
    },
    {
      "inputs": [
        {
          "internalType": "bytes32",
          "name": "role",
          "type": "bytes32"
        }
      ],
      "name": "getRoleMemberCount",
      "outputs": [
        {
          "internalType": "uint256",
          "name": "",
          "type": "uint256"
        }
      ],
      "stateMutability": "view",
      "type": "function"
    },
    {
      "inputs": [
        {
          "internalType": "bytes32",
          "name": "role",
          "type": "bytes32"
        },
        {
          "internalType": "address",
          "name": "account",
          "type": "address"
        }
      ],
      "name": "grantRole",
      "outputs": [],
      "stateMutability": "nonpayable",
      "type": "function"
    },
    {
      "inputs": [
        {
          "internalType": "bytes32",
          "name": "role",
          "type": "bytes32"
        },
        {
          "internalType": "address",
          "name": "account",
          "type": "address"
        }
      ],
      "name": "hasRole",
      "outputs": [
        {
          "internalType": "bool",
          "name": "",
          "type": "bool"
        }
      ],
      "stateMutability": "view",
      "type": "function"
    },
    {
      "inputs": [
        {
          "internalType": "address",
          "name": "sender",
          "type": "address"
        }
      ],
      "name": "isAdmin",
      "outputs": [
        {
          "internalType": "bool",
          "name": "",
          "type": "bool"
        }
      ],
      "stateMutability": "view",
      "type": "function"
    },
    {
      "inputs": [
        {
          "internalType": "address",
          "name": "sender",
          "type": "address"
        }
      ],
      "name": "isOperator",
      "outputs": [
        {
          "internalType": "bool",
          "name": "",
          "type": "bool"
        }
      ],
      "stateMutability": "view",
      "type": "function"
    },
    {
      "inputs": [
        {
          "internalType": "address",
          "name": "",
          "type": "address"
        },
        {
          "internalType": "address",
          "name": "",
          "type": "address"
        }
      ],
      "name": "poolsIndex",
      "outputs": [
        {
          "internalType": "contract IUniswapV3Pool",
          "name": "",
          "type": "address"
        }
      ],
      "stateMutability": "view",
      "type": "function"
    },
    {
      "inputs": [
        {
          "internalType": "address",
          "name": "token0",
          "type": "address"
        },
        {
          "internalType": "address",
          "name": "token1",
          "type": "address"
        },
        {
          "internalType": "uint256",
          "name": "safetyIndicesSet",
          "type": "uint256"
        }
      ],
      "name": "priceX96",
      "outputs": [
        {
          "internalType": "uint256[]",
          "name": "pricesX96",
          "type": "uint256[]"
        },
        {
          "internalType": "uint256[]",
          "name": "safetyIndices",
          "type": "uint256[]"
        }
      ],
      "stateMutability": "view",
      "type": "function"
    },
    {
      "inputs": [
        {
          "internalType": "bytes32",
          "name": "role",
          "type": "bytes32"
        },
        {
          "internalType": "address",
          "name": "account",
          "type": "address"
        }
      ],
      "name": "renounceRole",
      "outputs": [],
      "stateMutability": "nonpayable",
      "type": "function"
    },
    {
      "inputs": [
        {
          "internalType": "bytes32",
          "name": "role",
          "type": "bytes32"
        },
        {
          "internalType": "address",
          "name": "account",
          "type": "address"
        }
      ],
      "name": "revokeRole",
      "outputs": [],
      "stateMutability": "nonpayable",
      "type": "function"
    },
    {
      "inputs": [
        {
          "internalType": "bytes4",
          "name": "interfaceId",
          "type": "bytes4"
        }
      ],
      "name": "supportsInterface",
      "outputs": [
        {
          "internalType": "bool",
          "name": "",
          "type": "bool"
        }
      ],
      "stateMutability": "view",
      "type": "function"
    }
  ],
  "bytecode": {
    "object": "0x60a06040523480156200001157600080fd5b5060405162002c0038038062002c00833981016040819052620000349162000680565b60408051808201909152600281526120ad60f11b602082015281906001600160a01b038216620000825760405162461bcd60e51b81526004016200007991906200077d565b60405180910390fd5b506200009e60008051602062002be0833981519152826200016c565b620000b960008051602062002bc0833981519152826200016c565b620000d460008051602062002bc0833981519152806200017c565b6200010f7fc171260023d22a25a00a2789664c9334017843b831138c8ef03cc8897e5873d760008051602062002bc08339815191526200017c565b6200014a60008051602062002be08339815191527fc171260023d22a25a00a2789664c9334017843b831138c8ef03cc8897e5873d76200017c565b506001600160a01b0383166080526200016382620001c7565b505050620008d9565b620001788282620004ea565b5050565b600082815260208190526040808220600101805490849055905190918391839186917fbd79b86ffe0ab8e8776151514217cd7cacd52c909f66475c3af44e129f0b00ff9190a4505050565b600081516001600160401b03811115620001e557620001e562000658565b6040519080825280602002602001820160405280156200020f578160200160208202803683370190505b509050600082516001600160401b0381111562000230576200023062000658565b6040519080825280602002602001820160405280156200025a578160200160208202803683370190505b50905060008060005b85518110156200049c576000868281518110620002845762000284620007d5565b602002602001015190506000816001600160a01b0316630dfe16816040518163ffffffff1660e01b815260040160206040518083038186803b158015620002ca57600080fd5b505afa158015620002df573d6000803e3d6000fd5b505050506040513d601f19601f82011682018060405250810190620003059190620007eb565b90506000826001600160a01b031663d21220a76040518163ffffffff1660e01b815260040160206040518083038186803b1580156200034357600080fd5b505afa15801562000358573d6000803e3d6000fd5b505050506040513d601f19601f820116820180604052508101906200037e9190620007eb565b90506200039b8360036200052d60201b620009511790919060201c565b506001600160a01b03808316600090815260026020908152604080832085851684529091529020541680156200040e5780898881518110620003e157620003e1620007d5565b6001600160a01b03909216602092830291909101909101526200040660018862000828565b96506200044c565b83888781518110620004245762000424620007d5565b6001600160a01b03909216602092830291909101909101526200044960018762000828565b95505b506001600160a01b0391821660009081526002602090815260408083209385168352929052208054919092166001600160a01b031990911617905580620004938162000843565b91505062000263565b50818452808352604051339032907fc0909fcbc4405f12670d8b4939afb70a097b244885804cb37bd46969bd20a8ce90620004db9087908990620008a7565b60405180910390a35050505050565b6200050182826200054d60201b620009661760201c565b600082815260016020908152604090912062000528918390620009516200052d821b17901c565b505050565b600062000544836001600160a01b038416620005ed565b90505b92915050565b6000828152602081815260408083206001600160a01b038516845290915290205460ff1662000178576000828152602081815260408083206001600160a01b03851684529091529020805460ff19166001179055620005a93390565b6001600160a01b0316816001600160a01b0316837f2f8788117e7eff1d82e926ec794901d17c78024a50270940304540a733656f0d60405160405180910390a45050565b6000818152600183016020526040812054620006365750815460018181018455600084815260208082209093018490558454848252828601909352604090209190915562000547565b50600062000547565b6001600160a01b03811681146200065557600080fd5b50565b634e487b7160e01b600052604160045260246000fd5b80516200067b816200063f565b919050565b6000806000606084860312156200069657600080fd5b8351620006a3816200063f565b602085810151919450906001600160401b0380821115620006c357600080fd5b818701915087601f830112620006d857600080fd5b815181811115620006ed57620006ed62000658565b8060051b604051601f19603f8301168101818110858211171562000715576200071562000658565b60405291825284820192508381018501918a8311156200073457600080fd5b938501935b828510156200075d576200074d856200066e565b8452938501939285019262000739565b80975050505050505062000774604085016200066e565b90509250925092565b600060208083528351808285015260005b81811015620007ac578581018301518582016040015282016200078e565b81811115620007bf576000604083870101525b50601f01601f1916929092016040019392505050565b634e487b7160e01b600052603260045260246000fd5b600060208284031215620007fe57600080fd5b81516200080b816200063f565b9392505050565b634e487b7160e01b600052601160045260246000fd5b600082198211156200083e576200083e62000812565b500190565b60006000198214156200085a576200085a62000812565b5060010190565b600081518084526020808501945080840160005b838110156200089c5781516001600160a01b03168752958201959082019060010162000875565b509495945050505050565b604081526000620008bc604083018562000861565b8281036020840152620008d0818562000861565b95945050505050565b6080516122cb620008f5600039600061037d01526122cb6000f3fe608060405234801561001057600080fd5b50600436106101735760003560e01c806375b238fc116100de5780639d00926411610097578063c45a015511610071578063c45a015514610378578063c67e6b921461039f578063ca15c873146103d3578063d547741f146103e657600080fd5b80639d00926414610360578063a0a8e46014610368578063a217fddf1461037057600080fd5b806375b238fc146102ac57806375d0c0dc146102d35780638c48be07146102e85780639010d07c146102fb57806391d1485414610326578063983d27371461033957600080fd5b80632f2ff15d116101305780632f2ff15d1461022957806336568abe1461023e5780635956373514610251578063600c73471461026f5780636d70f7ae146102785780636d80125b1461028b57600080fd5b806301ffc9a71461017857806306a46239146101a05780630952ff54146101b85780630e3e80ac146101df578063248a9ca3146101f357806324d7806c14610216575b600080fd5b61018b6101863660046119cd565b6103f9565b60405190151581526020015b60405180910390f35b640312e302e360dc1b5b604051908152602001610197565b6101aa7fc171260023d22a25a00a2789664c9334017843b831138c8ef03cc8897e5873d781565b6a556e6956334f7261636c6560a81b6101aa565b6101aa6102013660046119f7565b60009081526020819052604090206001015490565b61018b610224366004611a25565b61042a565b61023c610237366004611a42565b610486565b005b61023c61024c366004611a42565b6104b0565b61025a61070881565b60405163ffffffff9091168152602001610197565b61025a6101c281565b61018b610286366004611a25565b610533565b61029e610299366004611a72565b61055f565b604051610197929190611aee565b6101aa7ff23ec0bb4210edd5cba85afd05127efcd2fc6a781bfed49188da1081670b22d881565b6102db61088d565b6040516101979190611b4c565b61023c6102f6366004611bea565b6108a6565b61030e610309366004611c89565b6108ba565b6040516001600160a01b039091168152602001610197565b61018b610334366004611a42565b6108d9565b6101aa7f46a52cf33029de9f84853745a87af28464c80bf0346df1b32e205fc73319f62281565b61025a609681565b6102db610902565b6101aa600081565b61030e7f000000000000000000000000000000000000000000000000000000000000000081565b61030e6103ad366004611cab565b60026020908152600092835260408084209091529082529020546001600160a01b031681565b6101aa6103e13660046119f7565b610915565b61023c6103f4366004611a42565b61092c565b6000610404826109ea565b8061041f575063151b016b60e11b6001600160e01b03198316145b92915050565b905090565b60006104567ff23ec0bb4210edd5cba85afd05127efcd2fc6a781bfed49188da1081670b22d8836108d9565b8061041f575061041f7fc171260023d22a25a00a2789664c9334017843b831138c8ef03cc8897e5873d7836108d9565b6000828152602081905260409020600101546104a181610a0f565b6104ab8383610a19565b505050565b6001600160a01b03811633146105255760405162461bcd60e51b815260206004820152602f60248201527f416363657373436f6e74726f6c3a2063616e206f6e6c792072656e6f756e636560448201526e103937b632b9903337b91039b2b63360891b60648201526084015b60405180910390fd5b61052f8282610a3b565b5050565b600061041f7f46a52cf33029de9f84853745a87af28464c80bf0346df1b32e205fc73319f622836108d9565b6060806000846001600160a01b0316866001600160a01b03161115610585575092939260015b6001600160a01b038087166000908152600260209081526040808320898516845290915290205416806105b9575050610885565b60408051600480825260a0820190925260009160208201608080368337505060408051600480825260a08201909252929350905060208201608080368337505060408051600480825260a08201909252929750905060208201608080368337019050509350600060028716156106fa576000836001600160a01b0316633850c7bd6040518163ffffffff1660e01b815260040160e06040518083038186803b15801561066457600080fd5b505afa158015610678573d6000803e3d6000fd5b505050506040513d601f19601f8201168201806040525081019061069c9190611ceb565b5050505050506001600160a01b03169050808383815181106106c0576106c0611d8f565b60200260200101818152505060018683815181106106e0576106e0611d8f565b60209081029190910101526106f6600183611dbb565b9150505b60025b60058110156107af576001811b88161561079d57600061071c82610a5d565b905060008061072b8784610acc565b9250509150801561073e575050506107af565b61074782610d26565b6001600160a01b031686868151811061076257610762611d8f565b6020026020010181815250508389868151811061078157610781611d8f565b6020908102919091010152610797600186611dbb565b94505050505b806107a781611dd3565b9150506106fd565b5080865280855260005b8181101561087f576108028382815181106107d6576107d6611d8f565b60200260200101518483815181106107f0576107f0611d8f565b6020026020010151600160601b611143565b87828151811061081457610814611d8f565b602002602001018181525050841561086d5761084e600160601b8089848151811061084157610841611d8f565b6020026020010151611143565b87828151811061086057610860611d8f565b6020026020010181815250505b8061087781611dd3565b9150506107b9565b50505050505b935093915050565b60606104256a556e6956334f7261636c6560a81b6111f6565b6108ae611262565b6108b7816112a5565b50565b60008281526001602052604081206108d29083611595565b9392505050565b6000918252602082815260408084206001600160a01b0393909316845291905290205460ff1690565b6060610425640312e302e360dc1b6111f6565b600081815260016020526040812061041f906115a1565b60008281526020819052604090206001015461094781610a0f565b6104ab8383610a3b565b60006108d2836001600160a01b0384166115ab565b61097082826108d9565b61052f576000828152602081815260408083206001600160a01b03851684529091529020805460ff191660011790556109a63390565b6001600160a01b0316816001600160a01b0316837f2f8788117e7eff1d82e926ec794901d17c78024a50270940304540a733656f0d60405160405180910390a45050565b60006001600160e01b03198216635a05180f60e01b148061041f575061041f826115fa565b6108b7813361162f565b610a238282610966565b60008281526001602052604090206104ab9082610951565b610a458282611688565b60008281526001602052604090206104ab90826116ed565b60008160021415610a7057506096919050565b8160031415610a8257506101c2919050565b60408051808201909152600381526224a72b60e91b602082015260048314610abd5760405162461bcd60e51b815260040161051c9190611b4c565b5061070892915050565b919050565b6000808063ffffffff8416610b085760405162461bcd60e51b8152602060048201526002602482015261042560f41b604482015260640161051c565b6040805160028082526060820183526000926020830190803683370190505090508481600081518110610b3d57610b3d611d8f565b602002602001019063ffffffff16908163ffffffff1681525050600081600181518110610b6c57610b6c611d8f565b63ffffffff9092166020928302919091019091015260405163883bdbfd60e01b81526001600160a01b0387169063883bdbfd90610bad908490600401611dee565b60006040518083038186803b158015610bc557600080fd5b505afa925050508015610bfa57506040513d6000823e601f3d908101601f19168201604052610bf79190810190611ea7565b60015b610c0f57600080600193509350935050610d1f565b600082600081518110610c2457610c24611d8f565b602002602001015183600181518110610c3f57610c3f611d8f565b6020026020010151610c519190611f73565b9050600082600081518110610c6857610c68611d8f565b602002602001015183600181518110610c8357610c83611d8f565b6020026020010151610c959190611fc3565b9050610ca763ffffffff8a1683612001565b975060008260060b128015610ccd5750610cc763ffffffff8a168361203f565b60060b15155b15610ce05787610cdc81612061565b9850505b6000610cf96001600160a01b0363ffffffff8c16612085565b9050610d16640100000000600160c01b03602084901b16826120b4565b97505050505050505b9250925092565b60008060008360020b12610d3d578260020b610d4a565b8260020b610d4a906120da565b9050610d59620d89e7196120f7565b60020b811115610d8f5760405162461bcd60e51b81526020600482015260016024820152601560fa1b604482015260640161051c565b600060018216610da357600160801b610db5565b6ffffcb933bd6fad37aa2d162d1a5940015b70ffffffffffffffffffffffffffffffffff1690506002821615610df4576080610def826ffff97272373d413259a46990580e213a61211a565b901c90505b6004821615610e1e576080610e19826ffff2e50f5f656932ef12357cf3c7fdcc61211a565b901c90505b6008821615610e48576080610e43826fffe5caca7e10e4e61c3624eaa0941cd061211a565b901c90505b6010821615610e72576080610e6d826fffcb9843d60f6159c9db58835c92664461211a565b901c90505b6020821615610e9c576080610e97826fff973b41fa98c081472e6896dfb254c061211a565b901c90505b6040821615610ec6576080610ec1826fff2ea16466c96a3843ec78b326b5286161211a565b901c90505b6080821615610ef0576080610eeb826ffe5dee046a99a2a811c461f1969c305361211a565b901c90505b610100821615610f1b576080610f16826ffcbe86c7900a88aedcffc83b479aa3a461211a565b901c90505b610200821615610f46576080610f41826ff987a7253ac413176f2b074cf7815e5461211a565b901c90505b610400821615610f71576080610f6c826ff3392b0822b70005940c7a398e4b70f361211a565b901c90505b610800821615610f9c576080610f97826fe7159475a2c29b7443b29c7fa6e889d961211a565b901c90505b611000821615610fc7576080610fc2826fd097f3bdfd2022b8845ad8f792aa582561211a565b901c90505b612000821615610ff2576080610fed826fa9f746462d870fdf8a65dc1f90e061e561211a565b901c90505b61400082161561101d576080611018826f70d869a156d2a1b890bb3df62baf32f761211a565b901c90505b618000821615611048576080611043826f31be135f97d08fd981231505542fcfa661211a565b901c90505b6201000082161561107457608061106f826f09aa508b5b7a84e1c677de54f3e99bc961211a565b901c90505b6202000082161561109f57608061109a826e5d6af8dedb81196699c329225ee60461211a565b901c90505b620400008216156110c95760806110c4826d2216e584f5fa1ea926041bedfe9861211a565b901c90505b620800008216156110f15760806110ec826b048a170391f7dc42444e8fa261211a565b901c90505b60008460020b131561110c5761110981600019612139565b90505b61111b6401000000008261214d565b1561112757600161112a565b60005b61113b9060ff16602083901c611dbb565b949350505050565b60008080600019858709858702925082811083820303915050806000141561117d576000841161117257600080fd5b5082900490506108d2565b80841161118957600080fd5b6000848688096000868103871696879004966002600389028118808a02820302808a02820302808a02820302808a02820302808a02820302808a02909103029181900381900460010186841190950394909402919094039290920491909117919091029150509392505050565b604080516020808252818301909252606091602082018180368337019050509050602060005b60208110156112545783816020811061123757611237611d8f565b1a61124457809150611254565b61124d81611dd3565b905061121c565b508152602081019190915290565b61126b3361042a565b6040518060400160405280600381526020016223292160e91b815250906108b75760405162461bcd60e51b815260040161051c9190611b4c565b6000815167ffffffffffffffff8111156112c1576112c1611b7f565b6040519080825280602002602001820160405280156112ea578160200160208202803683370190505b5090506000825167ffffffffffffffff81111561130957611309611b7f565b604051908082528060200260200182016040528015611332578160200160208202803683370190505b50905060008060005b855181101561154957600086828151811061135857611358611d8f565b602002602001015190506000816001600160a01b0316630dfe16816040518163ffffffff1660e01b815260040160206040518083038186803b15801561139d57600080fd5b505afa1580156113b1573d6000803e3d6000fd5b505050506040513d601f19601f820116820180604052508101906113d59190612161565b90506000826001600160a01b031663d21220a76040518163ffffffff1660e01b815260040160206040518083038186803b15801561141257600080fd5b505afa158015611426573d6000803e3d6000fd5b505050506040513d601f19601f8201168201806040525081019061144a9190612161565b9050611457600384610951565b506001600160a01b03808316600090815260026020908152604080832085851684529091529020541680156114c3578089888151811061149957611499611d8f565b6001600160a01b03909216602092830291909101909101526114bc600188611dbb565b96506114fc565b838887815181106114d6576114d6611d8f565b6001600160a01b03909216602092830291909101909101526114f9600187611dbb565b95505b506001600160a01b0391821660009081526002602090815260408083209385168352929052208054919092166001600160a01b03199091161790558061154181611dd3565b91505061133b565b50818452808352604051339032907fc0909fcbc4405f12670d8b4939afb70a097b244885804cb37bd46969bd20a8ce9061158690879089906121b7565b60405180910390a35050505050565b60006108d28383611702565b600061041f825490565b60008181526001830160205260408120546115f25750815460018181018455600084815260208082209093018490558454848252828601909352604090209190915561041f565b50600061041f565b60006001600160e01b03198216637965db0b60e01b148061041f57506301ffc9a760e01b6001600160e01b031983161461041f565b61163982826108d9565b61052f576116468161172c565b61165183602061173e565b6040516020016116629291906121dc565b60408051601f198184030181529082905262461bcd60e51b825261051c91600401611b4c565b61169282826108d9565b1561052f576000828152602081815260408083206001600160a01b0385168085529252808320805460ff1916905551339285917ff6391f5c32d9c69d2a47ea670b442974b53935d1edc7fd64eb21e047a839171b9190a45050565b60006108d2836001600160a01b0384166118da565b600082600001828154811061171957611719611d8f565b9060005260206000200154905092915050565b606061041f6001600160a01b03831660145b6060600061174d83600261211a565b611758906002611dbb565b67ffffffffffffffff81111561177057611770611b7f565b6040519080825280601f01601f19166020018201604052801561179a576020820181803683370190505b509050600360fc1b816000815181106117b5576117b5611d8f565b60200101906001600160f81b031916908160001a905350600f60fb1b816001815181106117e4576117e4611d8f565b60200101906001600160f81b031916908160001a905350600061180884600261211a565b611813906001611dbb565b90505b600181111561188b576f181899199a1a9b1b9c1cb0b131b232b360811b85600f166010811061184757611847611d8f565b1a60f81b82828151811061185d5761185d611d8f565b60200101906001600160f81b031916908160001a90535060049490941c9361188481612251565b9050611816565b5083156108d25760405162461bcd60e51b815260206004820181905260248201527f537472696e67733a20686578206c656e67746820696e73756666696369656e74604482015260640161051c565b600081815260018301602052604081205480156119c35760006118fe600183612268565b855490915060009061191290600190612268565b905081811461197757600086600001828154811061193257611932611d8f565b906000526020600020015490508087600001848154811061195557611955611d8f565b6000918252602080832090910192909255918252600188019052604090208390555b85548690806119885761198861227f565b60019003818190600052602060002001600090559055856001016000868152602001908152602001600020600090556001935050505061041f565b600091505061041f565b6000602082840312156119df57600080fd5b81356001600160e01b0319811681146108d257600080fd5b600060208284031215611a0957600080fd5b5035919050565b6001600160a01b03811681146108b757600080fd5b600060208284031215611a3757600080fd5b81356108d281611a10565b60008060408385031215611a5557600080fd5b823591506020830135611a6781611a10565b809150509250929050565b600080600060608486031215611a8757600080fd5b8335611a9281611a10565b92506020840135611aa281611a10565b929592945050506040919091013590565b600081518084526020808501945080840160005b83811015611ae357815187529582019590820190600101611ac7565b509495945050505050565b604081526000611b016040830185611ab3565b8281036020840152611b138185611ab3565b95945050505050565b60005b83811015611b37578181015183820152602001611b1f565b83811115611b46576000848401525b50505050565b6020815260008251806020840152611b6b816040850160208701611b1c565b601f01601f19169190910160400192915050565b634e487b7160e01b600052604160045260246000fd5b604051601f8201601f1916810167ffffffffffffffff81118282101715611bbe57611bbe611b7f565b604052919050565b600067ffffffffffffffff821115611be057611be0611b7f565b5060051b60200190565b60006020808385031215611bfd57600080fd5b823567ffffffffffffffff811115611c1457600080fd5b8301601f81018513611c2557600080fd5b8035611c38611c3382611bc6565b611b95565b81815260059190911b82018301908381019087831115611c5757600080fd5b928401925b82841015611c7e578335611c6f81611a10565b82529284019290840190611c5c565b979650505050505050565b60008060408385031215611c9c57600080fd5b50508035926020909101359150565b60008060408385031215611cbe57600080fd5b8235611cc981611a10565b91506020830135611a6781611a10565b805161ffff81168114610ac757600080fd5b600080600080600080600060e0888a031215611d0657600080fd5b8751611d1181611a10565b8097505060208801518060020b8114611d2957600080fd5b9550611d3760408901611cd9565b9450611d4560608901611cd9565b9350611d5360808901611cd9565b925060a088015160ff81168114611d6957600080fd5b60c08901519092508015158114611d7f57600080fd5b8091505092959891949750929550565b634e487b7160e01b600052603260045260246000fd5b634e487b7160e01b600052601160045260246000fd5b60008219821115611dce57611dce611da5565b500190565b6000600019821415611de757611de7611da5565b5060010190565b6020808252825182820181905260009190848201906040850190845b81811015611e2c57835163ffffffff1683529284019291840191600101611e0a565b50909695505050505050565b600082601f830112611e4957600080fd5b81516020611e59611c3383611bc6565b82815260059290921b84018101918181019086841115611e7857600080fd5b8286015b84811015611e9c578051611e8f81611a10565b8352918301918301611e7c565b509695505050505050565b60008060408385031215611eba57600080fd5b825167ffffffffffffffff80821115611ed257600080fd5b818501915085601f830112611ee657600080fd5b81516020611ef6611c3383611bc6565b82815260059290921b84018101918181019089841115611f1557600080fd5b948201945b83861015611f435785518060060b8114611f345760008081fd5b82529482019490820190611f1a565b91880151919650909350505080821115611f5c57600080fd5b50611f6985828601611e38565b9150509250929050565b60008160060b8360060b6000811281667fffffffffffff1901831281151615611f9e57611f9e611da5565b81667fffffffffffff018313811615611fb957611fb9611da5565b5090039392505050565b60006001600160a01b0383811690831681811015611fe357611fe3611da5565b039392505050565b634e487b7160e01b600052601260045260246000fd5b60008160060b8360060b8061201857612018611feb565b667fffffffffffff1982146000198214161561203657612036611da5565b90059392505050565b60008260060b8061205257612052611feb565b808360060b0791505092915050565b60008160020b627fffff1981141561207b5761207b611da5565b6000190192915050565b60006001600160c01b03828116848216811515828404821116156120ab576120ab611da5565b02949350505050565b60006001600160c01b03838116806120ce576120ce611feb565b92169190910492915050565b6000600160ff1b8214156120f0576120f0611da5565b5060000390565b60008160020b627fffff1981141561211157612111611da5565b60000392915050565b600081600019048311821515161561213457612134611da5565b500290565b60008261214857612148611feb565b500490565b60008261215c5761215c611feb565b500690565b60006020828403121561217357600080fd5b81516108d281611a10565b600081518084526020808501945080840160005b83811015611ae35781516001600160a01b031687529582019590820190600101612192565b6040815260006121ca604083018561217e565b8281036020840152611b13818561217e565b7f416363657373436f6e74726f6c3a206163636f756e7420000000000000000000815260008351612214816017850160208801611b1c565b7001034b99036b4b9b9b4b733903937b6329607d1b6017918401918201528351612245816028840160208801611b1c565b01602801949350505050565b60008161226057612260611da5565b506000190190565b60008282101561227a5761227a611da5565b500390565b634e487b7160e01b600052603160045260246000fdfea2646970667358221220d729848f6d5e5786d0d98870e44529f2cc34eed40d855aae0187d47dd1afba2c64736f6c63430008090033f23ec0bb4210edd5cba85afd05127efcd2fc6a781bfed49188da1081670b22d846a52cf33029de9f84853745a87af28464c80bf0346df1b32e205fc73319f622",
    "linkReferences": {}
  },
  "methodIdentifiers": {
    "ADMIN_DELEGATE_ROLE()": "0952ff54",
    "ADMIN_ROLE()": "75b238fc",
    "DEFAULT_ADMIN_ROLE()": "a217fddf",
    "HIGH_OBS_DELTA()": "59563735",
    "LOW_OBS_DELTA()": "9d009264",
    "MID_OBS_DELTA()": "600c7347",
    "OPERATOR()": "983d2737",
    "addUniV3Pools(address[])": "8c48be07",
    "contractName()": "75d0c0dc",
    "contractNameBytes()": "0e3e80ac",
    "contractVersion()": "a0a8e460",
    "contractVersionBytes()": "06a46239",
    "factory()": "c45a0155",
    "getRoleAdmin(bytes32)": "248a9ca3",
    "getRoleMember(bytes32,uint256)": "9010d07c",
    "getRoleMemberCount(bytes32)": "ca15c873",
    "grantRole(bytes32,address)": "2f2ff15d",
    "hasRole(bytes32,address)": "91d14854",
    "isAdmin(address)": "24d7806c",
    "isOperator(address)": "6d70f7ae",
    "poolsIndex(address,address)": "c67e6b92",
    "priceX96(address,address,uint256)": "6d80125b",
    "renounceRole(bytes32,address)": "36568abe",
    "revokeRole(bytes32,address)": "d547741f",
    "supportsInterface(bytes4)": "01ffc9a7"
  },
  "id": 386
}