{
  "abi": [
    {
      "anonymous": false,
      "inputs": [
        {
          "indexed": true,
          "internalType": "address",
          "name": "origin",
          "type": "address"
        },
        {
          "indexed": true,
          "internalType": "address",
          "name": "sender",
          "type": "address"
        },
        {
          "indexed": false,
          "internalType": "address[]",
          "name": "vaultTokens_",
          "type": "address[]"
        },
        {
          "indexed": false,
          "internalType": "uint256",
          "name": "nft_",
          "type": "uint256"
        }
      ],
      "name": "Initialized",
      "type": "event"
    },
    {
      "anonymous": false,
      "inputs": [
        {
          "indexed": false,
          "internalType": "address",
          "name": "to",
          "type": "address"
        },
        {
          "indexed": false,
          "internalType": "uint256[]",
          "name": "tokenAmounts",
          "type": "uint256[]"
        }
      ],
      "name": "Pull",
      "type": "event"
    },
    {
      "anonymous": false,
      "inputs": [
        {
          "indexed": false,
          "internalType": "uint256[]",
          "name": "tokenAmounts",
          "type": "uint256[]"
        }
      ],
      "name": "Push",
      "type": "event"
    },
    {
      "anonymous": false,
      "inputs": [
        {
          "indexed": false,
          "internalType": "address",
          "name": "to",
          "type": "address"
        },
        {
          "indexed": false,
          "internalType": "address[]",
          "name": "tokens",
          "type": "address[]"
        },
        {
          "indexed": false,
          "internalType": "uint256[]",
          "name": "tokenAmounts",
          "type": "uint256[]"
        }
      ],
      "name": "ReclaimTokens",
      "type": "event"
    },
    {
      "inputs": [
        {
          "internalType": "address",
          "name": "to",
          "type": "address"
        },
        {
          "internalType": "bytes4",
          "name": "selector",
          "type": "bytes4"
        },
        {
          "internalType": "bytes",
          "name": "data",
          "type": "bytes"
        }
      ],
      "name": "externalCall",
      "outputs": [
        {
          "internalType": "bytes",
          "name": "result",
          "type": "bytes"
        }
      ],
      "stateMutability": "payable",
      "type": "function"
    },
    {
      "inputs": [
        {
          "internalType": "uint256",
          "name": "nft_",
          "type": "uint256"
        },
        {
          "internalType": "address[]",
          "name": "vaultTokens_",
          "type": "address[]"
        }
      ],
      "name": "initialize",
      "outputs": [],
      "stateMutability": "nonpayable",
      "type": "function"
    },
    {
      "inputs": [],
      "name": "initialized",
      "outputs": [
        {
          "internalType": "bool",
          "name": "",
          "type": "bool"
        }
      ],
      "stateMutability": "view",
      "type": "function"
    },
    {
      "inputs": [
        {
          "internalType": "bytes32",
          "name": "_hash",
          "type": "bytes32"
        },
        {
          "internalType": "bytes",
          "name": "_signature",
          "type": "bytes"
        }
      ],
      "name": "isValidSignature",
      "outputs": [
        {
          "internalType": "bytes4",
          "name": "magicValue",
          "type": "bytes4"
        }
      ],
      "stateMutability": "view",
      "type": "function"
    },
    {
      "inputs": [
        {
          "internalType": "address",
          "name": "token",
          "type": "address"
        }
      ],
      "name": "isVaultToken",
      "outputs": [
        {
          "internalType": "bool",
          "name": "",
          "type": "bool"
        }
      ],
      "stateMutability": "view",
      "type": "function"
    },
    {
      "inputs": [],
      "name": "nft",
      "outputs": [
        {
          "internalType": "uint256",
          "name": "",
          "type": "uint256"
        }
      ],
      "stateMutability": "view",
      "type": "function"
    },
    {
      "inputs": [
        {
          "internalType": "address",
          "name": "to",
          "type": "address"
        },
        {
          "internalType": "address[]",
          "name": "tokens",
          "type": "address[]"
        },
        {
          "internalType": "uint256[]",
          "name": "tokenAmounts",
          "type": "uint256[]"
        },
        {
          "internalType": "bytes",
          "name": "options",
          "type": "bytes"
        }
      ],
      "name": "pull",
      "outputs": [
        {
          "internalType": "uint256[]",
          "name": "actualTokenAmounts",
          "type": "uint256[]"
        }
      ],
      "stateMutability": "nonpayable",
      "type": "function"
    },
    {
      "inputs": [],
      "name": "pullExistentials",
      "outputs": [
        {
          "internalType": "uint256[]",
          "name": "",
          "type": "uint256[]"
        }
      ],
      "stateMutability": "view",
      "type": "function"
    },
    {
      "inputs": [
        {
          "internalType": "address[]",
          "name": "tokens",
          "type": "address[]"
        },
        {
          "internalType": "uint256[]",
          "name": "tokenAmounts",
          "type": "uint256[]"
        },
        {
          "internalType": "bytes",
          "name": "options",
          "type": "bytes"
        }
      ],
      "name": "push",
      "outputs": [
        {
          "internalType": "uint256[]",
          "name": "actualTokenAmounts",
          "type": "uint256[]"
        }
      ],
      "stateMutability": "nonpayable",
      "type": "function"
    },
    {
      "inputs": [
        {
          "internalType": "address[]",
          "name": "tokens",
          "type": "address[]"
        }
      ],
      "name": "reclaimTokens",
      "outputs": [
        {
          "internalType": "uint256[]",
          "name": "actualTokenAmounts",
          "type": "uint256[]"
        }
      ],
      "stateMutability": "nonpayable",
      "type": "function"
    },
    {
      "inputs": [
        {
          "internalType": "bytes4",
          "name": "interfaceId",
          "type": "bytes4"
        }
      ],
      "name": "supportsInterface",
      "outputs": [
        {
          "internalType": "bool",
          "name": "",
          "type": "bool"
        }
      ],
      "stateMutability": "view",
      "type": "function"
    },
    {
      "inputs": [
        {
          "internalType": "address",
          "name": "from",
          "type": "address"
        },
        {
          "internalType": "address[]",
          "name": "tokens",
          "type": "address[]"
        },
        {
          "internalType": "uint256[]",
          "name": "tokenAmounts",
          "type": "uint256[]"
        },
        {
          "internalType": "bytes",
          "name": "options",
          "type": "bytes"
        }
      ],
      "name": "transferAndPush",
      "outputs": [
        {
          "internalType": "uint256[]",
          "name": "actualTokenAmounts",
          "type": "uint256[]"
        }
      ],
      "stateMutability": "nonpayable",
      "type": "function"
    },
    {
      "inputs": [],
      "name": "tvl",
      "outputs": [
        {
          "internalType": "uint256[]",
          "name": "minTokenAmounts",
          "type": "uint256[]"
        },
        {
          "internalType": "uint256[]",
          "name": "maxTokenAmounts",
          "type": "uint256[]"
        }
      ],
      "stateMutability": "view",
      "type": "function"
    },
    {
      "inputs": [],
      "name": "vaultGovernance",
      "outputs": [
        {
          "internalType": "contract IVaultGovernance",
          "name": "",
          "type": "address"
        }
      ],
      "stateMutability": "view",
      "type": "function"
    },
    {
      "inputs": [],
      "name": "vaultTokens",
      "outputs": [
        {
          "internalType": "address[]",
          "name": "",
          "type": "address[]"
        }
      ],
      "stateMutability": "view",
      "type": "function"
    }
  ],
  "bytecode": {
    "object": "0x608060405234801561001057600080fd5b5060016000556000196004556139988061002b6000396000f3fe6080604052600436106100e85760003560e01c8063338c4ccb1161008a578063a920b78c11610059578063a920b78c14610297578063d2c219b0146102b9578063e5328e06146102ce578063fe255a5e146102f157600080fd5b8063338c4ccb146101ff57806347ccca0214610237578063566ca6b414610255578063697222331461027557600080fd5b80631626ba7e116100c65780631626ba7e146101665780632062d7541461019f57806327a35e5a146101bf5780632e2f4cc2146101df57600080fd5b806301ffc9a7146100ed57806305e1c94214610122578063158ef93e1461014f575b600080fd5b3480156100f957600080fd5b5061010d610108366004612f2d565b610319565b60405190151581526020015b60405180910390f35b34801561012e57600080fd5b5061014261013d36600461303c565b610345565b60405161011991906130ab565b34801561015b57600080fd5b50600454151561010d565b34801561017257600080fd5b5061018661018136600461312d565b6107c2565b6040516001600160e01b03199091168152602001610119565b3480156101ab57600080fd5b506101426101ba3660046131ce565b610b0f565b3480156101cb57600080fd5b506101426101da3660046131ce565b610fbb565b6101f26101ed366004613268565b611142565b6040516101199190613351565b34801561020b57600080fd5b5061010d61021a366004613364565b6001600160a01b0316600090815260036020526040902054151590565b34801561024357600080fd5b50600454604051908152602001610119565b34801561026157600080fd5b50610142610270366004613381565b611416565b34801561028157600080fd5b5061028a6116dd565b6040516101199190613441565b3480156102a357600080fd5b506102b76102b2366004613454565b61173f565b005b3480156102c557600080fd5b5061014261174d565b3480156102da57600080fd5b506102e36117a4565b604051610119929190613490565b3480156102fd57600080fd5b506001546040516001600160a01b039091168152602001610119565b600061032482611925565b8061033f57506001600160e01b03198216632a482de360e21b145b92915050565b606061034f61196b565b6004805460408051808201909152918252631253925560e21b602083015290816103955760405162461bcd60e51b815260040161038c9190613351565b60405180910390fd5b5060015460408051637ac46fbb60e01b815290516000926001600160a01b031691637ac46fbb916004808301926060929190829003018186803b1580156103db57600080fd5b505afa1580156103ef573d6000803e3d6000fd5b505050506040513d601f19601f8201168201806040525081019061041391906134be565b805160208201516040516331a9108f60e11b81526004810186905292935090916000906001600160a01b03831690636352211e9060240160206040518083038186803b15801561046257600080fd5b505afa158015610476573d6000803e3d6000fd5b505050506040513d601f19601f8201168201806040525081019061049a919061352f565b905060006104a98387846119c5565b604051639bd0911b60e01b8152600060048201526001600160a01b039190911690639bd0911b9060240160206040518083038186803b1580156104eb57600080fd5b505afa1580156104ff573d6000803e3d6000fd5b505050506040513d601f19601f82011682018060405250810190610523919061352f565b905087516001600160401b0381111561053e5761053e612f4a565b604051908082528060200260200182016040528015610567578160200160208202803683370190505b5096506001600160a01b038116301415610586575050505050506107b3565b60005b8851811015610770576105b48982815181106105a7576105a761354c565b6020026020010151611a98565b806106665750846001600160a01b03166363e85d2d8a83815181106105db576105db61354c565b60209081029190910101516040516001600160e01b031960e084901b1681526001600160a01b0390911660048201526002602482015260440160206040518083038186803b15801561062c57600080fd5b505afa158015610640573d6000803e3d6000fd5b505050506040513d601f19601f820116820180604052508101906106649190613562565b155b1561067057610760565b60008982815181106106845761068461354c565b60209081029190910101516040516370a0823160e01b81523060048201529091506001600160a01b038216906370a082319060240160206040518083038186803b1580156106d157600080fd5b505afa1580156106e5573d6000803e3d6000fd5b505050506040513d601f19601f820116820180604052508101906107099190613584565b89838151811061071b5761071b61354c565b60200260200101818152505061075e838a848151811061073d5761073d61354c565b6020026020010151836001600160a01b0316611afe9092919063ffffffff16565b505b610769816135b3565b9050610589565b507f9efcb26e0cf572bd9171640e114f387cef91cd3e38532ed6b3f80c7f2e758f878189896040516107a4939291906135ce565b60405180910390a15050505050505b6107bd6001600055565b919050565b600080600160009054906101000a90046001600160a01b03166001600160a01b0316637ac46fbb6040518163ffffffff1660e01b815260040160606040518083038186803b15801561081357600080fd5b505afa158015610827573d6000803e3d6000fd5b505050506040513d601f19601f8201168201806040525081019061084b91906134be565b6020810151815160045492935090918061087457506001600160e01b0319935061033f92505050565b60405163020604bf60e21b8152600481018290526000906001600160a01b0385169063081812fc9060240160206040518083038186803b1580156108b757600080fd5b505afa1580156108cb573d6000803e3d6000fd5b505050506040513d601f19601f820116820180604052508101906108ef919061352f565b6040516363e85d2d60e01b81526001600160a01b03808316600483015260066024830152919250908416906363e85d2d9060440160206040518083038186803b15801561093b57600080fd5b505afa15801561094f573d6000803e3d6000fd5b505050506040513d601f19601f820116820180604052508101906109739190613562565b61098d57506001600160e01b0319945061033f9350505050565b803b63ffffffff811615610ac0576040516301ffc9a760e01b8152630b135d3f60e11b60048201526001600160a01b038316906301ffc9a79060240160206040518083038186803b1580156109e157600080fd5b505afa1580156109f5573d6000803e3d6000fd5b505050506040513d601f19601f82011682018060405250810190610a199190613562565b15610aa957604051630b135d3f60e11b81526001600160a01b03831690631626ba7e90610a4c908c908c9060040161360e565b60206040518083038186803b158015610a6457600080fd5b505afa158015610a78573d6000803e3d6000fd5b505050506040513d601f19601f82011682018060405250810190610a9c9190613627565b965050505050505061033f565b506001600160e01b0319955061033f945050505050565b816001600160a01b0316610ad48a8a611b66565b6001600160a01b03161415610af95750630b135d3f60e11b955061033f945050505050565b506001600160e01b031998975050505050505050565b6060610b1961196b565b6004805460408051808201909152918252631253925560e21b60208301529081610b565760405162461bcd60e51b815260040161038c9190613351565b50610b6033611be5565b6040518060400160405280600381526020016223292160e91b81525090610b9a5760405162461bcd60e51b815260040161038c9190613351565b5060015460408051637ac46fbb60e01b815290516000926001600160a01b031691637ac46fbb916004808301926060929190829003018186803b158015610be057600080fd5b505afa158015610bf4573d6000803e3d6000fd5b505050506040513d601f19601f82011682018060405250810190610c1891906134be565b602001516040516331a9108f60e11b8152600481018490529091506000906001600160a01b03831690636352211e9060240160206040518083038186803b158015610c6257600080fd5b505afa158015610c76573d6000803e3d6000fd5b505050506040513d601f19601f82011682018060405250810190610c9a919061352f565b90506000610ca98385846119c5565b90506001600160a01b0382163314610ee657604051639bd0911b60e01b8152600060048201819052906001600160a01b03831690639bd0911b9060240160206040518083038186803b158015610cfe57600080fd5b505afa158015610d12573d6000803e3d6000fd5b505050506040513d601f19601f82011682018060405250810190610d36919061352f565b90506001600160a01b038116301415610e915760405163fcdabd2760e01b81526001600160a01b038b8116600483015280841691639d9fd0d99187169063fcdabd279060240160206040518083038186803b158015610d9457600080fd5b505afa158015610da8573d6000803e3d6000fd5b505050506040513d601f19601f82011682018060405250810190610dcc9190613584565b6040518263ffffffff1660e01b8152600401610dea91815260200190565b60206040518083038186803b158015610e0257600080fd5b505afa158015610e16573d6000803e3d6000fd5b505050506040513d601f19601f82011682018060405250810190610e3a9190613562565b8015610e4f57506001600160a01b038a163014155b6040518060400160405280600581526020016424a72b2a2960d91b81525090610e8b5760405162461bcd60e51b815260040161038c9190613351565b50610ee4565b896001600160a01b0316816001600160a01b0316146040518060400160405280600581526020016424a72b2a2960d91b81525090610ee25760405162461bcd60e51b815260040161038c9190613351565b505b505b6000610ef28989611da3565b90506000610f018b838a611e8f565b9050610f688a6002805480602002602001604051908101604052809291908181526020018280548015610f5d57602002820191906000526020600020905b81546001600160a01b03168152600190910190602001808311610f3f575b505050505083612481565b96507f54f9e6ef58e36de62f59f9ee6c4b878af84989c53a3642eba415ac3ac4e11cda8b88604051610f9b929190613644565b60405180910390a1505050505050610fb36001600055565b949350505050565b825160609060005b8181101561104e57848181518110610fdd57610fdd61354c565b602002602001015160001461103e5761103e87308784815181106110035761100361354c565b602002602001015189858151811061101d5761101d61354c565b60200260200101516001600160a01b03166126a2909392919063ffffffff16565b611047816135b3565b9050610fc3565b5061105a858585611416565b915060005b855181101561113857600085828151811061107c5761107c61354c565b60200260200101518483815181106110965761109661354c565b6020026020010151106110aa5760006110e8565b8382815181106110bc576110bc61354c565b60200260200101518683815181106110d6576110d661354c565b60200260200101516110e89190613668565b905080156111275761112788828985815181106111075761110761354c565b60200260200101516001600160a01b0316611afe9092919063ffffffff16565b50611131816135b3565b905061105f565b5050949350505050565b606061114c61196b565b6004805460408051808201909152918252631253925560e21b60208301526111875760405162461bcd60e51b815260040161038c9190613351565b5061119133611be5565b6040518060400160405280600381526020016223292160e91b815250906111cb5760405162461bcd60e51b815260040161038c9190613351565b5060015460408051637ac46fbb60e01b815290516000926001600160a01b031691637ac46fbb916004808301926060929190829003018186803b15801561121157600080fd5b505afa158015611225573d6000803e3d6000fd5b505050506040513d601f19601f8201168201806040525081019061124991906134be565b51604051631f4a58fb60e31b81526001600160a01b03888116600483015291925060009183169063fa52c7d89060240160206040518083038186803b15801561129157600080fd5b505afa1580156112a5573d6000803e3d6000fd5b505050506040513d601f19601f820116820180604052508101906112c9919061352f565b60408051808201909152600381526223292160e91b60208201529091506001600160a01b03821661130d5760405162461bcd60e51b815260040161038c9190613351565b50604051631796170d60e21b81526001600160a01b03821690635e585c34906113449033908b9034908c908c908c9060040161367f565b60006040518083038186803b15801561135c57600080fd5b505afa158015611370573d6000803e3d6000fd5b50505050600080886001600160a01b031634898989604051602001611397939291906136e4565b60408051601f19818403018152908290526113b191613708565b60006040518083038185875af1925050503d80600081146113ee576040519150601f19603f3d011682016040523d82523d6000602084013e6113f3565b606091505b5091509150816114065780518082602001fd5b60016000559350610fb392505050565b606061142061196b565b6004805460408051808201909152918252631253925560e21b6020830152908161145d5760405162461bcd60e51b815260040161038c9190613351565b5060015460408051637ac46fbb60e01b815290516000926001600160a01b031691637ac46fbb916004808301926060929190829003018186803b1580156114a357600080fd5b505afa1580156114b7573d6000803e3d6000fd5b505050506040513d601f19601f820116820180604052508101906114db91906134be565b602001516040516331a9108f60e11b8152600481018490529091506000906001600160a01b03831690636352211e9060240160206040518083038186803b15801561152557600080fd5b505afa158015611539573d6000803e3d6000fd5b505050506040513d601f19601f8201168201806040525081019061155d919061352f565b60405163fcdabd2760e01b81526001600160a01b03808316600483015291925060009184169063fcdabd279060240160206040518083038186803b1580156115a457600080fd5b505afa1580156115b8573d6000803e3d6000fd5b505050506040513d601f19601f820116820180604052508101906115dc9190613584565b604080518082019091526002815261272360f11b6020820152909150816116165760405162461bcd60e51b815260040161038c9190613351565b5060006116238989611da3565b9050600081905061168d8a6002805480602002602001604051908101604052809291908181526020018280548015610f5d576020028201919060005260206000209081546001600160a01b03168152600190910190602001808311610f3f57505050505083612481565b96507f08e404e978692dd1b8275016b7a7b0b3ae4afd06b0cec7228060bb2da18c84fd816040516116be91906130ab565b60405180910390a15050505050506116d66001600055565b9392505050565b6060600280548060200260200160405190810160405280929190818152602001828054801561173557602002820191906000526020600020905b81546001600160a01b03168152600190910190602001808311611717575b5050505050905090565b61174981836126e0565b5050565b6060600580548060200260200160405190810160405280929190818152602001828054801561173557602002820191906000526020600020905b815481526020019060010190808311611787575050505050905090565b606080600060028054806020026020016040519081016040528092919081815260200182805480156117ff57602002820191906000526020600020905b81546001600160a01b031681526001909101906020018083116117e1575b5050835193945083925050506001600160401b0381111561182257611822612f4a565b60405190808252806020026020018201604052801561184b578160200160208202803683370190505b50935060005b8181101561191b5782818151811061186b5761186b61354c565b60209081029190910101516040516370a0823160e01b81523060048201526001600160a01b03909116906370a082319060240160206040518083038186803b1580156118b657600080fd5b505afa1580156118ca573d6000803e3d6000fd5b505050506040513d601f19601f820116820180604052508101906118ee9190613584565b8582815181106119005761190061354c565b6020908102919091010152611914816135b3565b9050611851565b5083925050509091565b600061193082612b6b565b8061194b57506001600160e01b03198216633d31d51d60e11b145b8061033f57506001600160e01b03198216630b135d3f60e11b1492915050565b600260005414156119be5760405162461bcd60e51b815260206004820152601f60248201527f5265656e7472616e637947756172643a207265656e7472616e742063616c6c00604482015260640161038c565b6002600055565b60405163fcdabd2760e01b81526001600160a01b038281166004830152600091829186169063fcdabd279060240160206040518083038186803b158015611a0b57600080fd5b505afa158015611a1f573d6000803e3d6000fd5b505050506040513d601f19601f82011682018060405250810190611a439190613584565b90508315801590611a5357508015155b604051806040016040528060048152602001631253925560e21b81525090611a8e5760405162461bcd60e51b815260040161038c9190613351565b5091949350505050565b600254600090815b81811015611af45760028181548110611abb57611abb61354c565b6000918252602090912001546001600160a01b0385811691161415611ae4575060019392505050565b611aed816135b3565b9050611aa0565b5060009392505050565b6040516001600160a01b038316602482015260448101829052611b6190849063a9059cbb60e01b906064015b60408051601f198184030181529190526020810180516001600160e01b03166001600160e01b031990931692909217909152612ba1565b505050565b600080600080611b7585612c73565b6040805160008152602081018083528b905260ff8316918101919091526060810184905260808101839052929550909350915060019060a0016020604051602081039080840390855afa158015611bd0573d6000803e3d6000fd5b5050604051601f190151979650505050505050565b600080600160009054906101000a90046001600160a01b03166001600160a01b0316637ac46fbb6040518163ffffffff1660e01b815260040160606040518083038186803b158015611c3657600080fd5b505afa158015611c4a573d6000803e3d6000fd5b505050506040513d601f19601f82011682018060405250810190611c6e91906134be565b6020015160045490915080611c87575060009392505050565b60405163020604bf60e21b8152600481018290526001600160a01b03808616919084169063081812fc9060240160206040518083038186803b158015611ccc57600080fd5b505afa158015611ce0573d6000803e3d6000fd5b505050506040513d601f19601f82011682018060405250810190611d04919061352f565b6001600160a01b03161480610fb357506040516331a9108f60e11b8152600481018290526001600160a01b038086169190841690636352211e9060240160206040518083038186803b158015611d5957600080fd5b505afa158015611d6d573d6000803e3d6000fd5b505050506040513d601f19601f82011682018060405250810190611d91919061352f565b6001600160a01b031614949350505050565b6060611dae83612cd7565b60405180604001604052806004815260200163494e564160e01b81525090611de95760405162461bcd60e51b815260040161038c9190613351565b5081518351146040518060400160405280600381526020016224a72b60e91b81525090611e295760405162461bcd60e51b815260040161038c9190613351565b506116d66002805480602002602001604051908101604052809291908181526020018280548015611e8357602002820191906000526020600020905b81546001600160a01b03168152600190910190602001808311611e65575b50505050508484612481565b606082516001600160401b03811115611eaa57611eaa612f4a565b604051908082528060200260200182016040528015611ed3578160200160208202803683370190505b509050600083516001600160401b03811115611ef157611ef1612f4a565b604051908082528060200260200182016040528015611f1a578160200160208202803683370190505b50905060006002805480602002602001604051908101604052809291908181526020018280548015611f7557602002820191906000526020600020905b81546001600160a01b03168152600190910190602001808311611f57575b505050505090506000600160009054906101000a90046001600160a01b03166001600160a01b0316637ac46fbb6040518163ffffffff1660e01b815260040160606040518083038186803b158015611fcc57600080fd5b505afa158015611fe0573d6000803e3d6000fd5b505050506040513d601f19601f8201168201806040525081019061200491906134be565b60200151600480546040516331a9108f60e11b8152918201529091506000906001600160a01b03831690636352211e9060240160206040518083038186803b15801561204f57600080fd5b505afa158015612063573d6000803e3d6000fd5b505050506040513d601f19601f82011682018060405250810190612087919061352f565b905060005b87518110156122915760008482815181106120a9576120a961354c565b60209081029190910101516040516370a0823160e01b81523060048201529091506000906001600160a01b038316906370a082319060240160206040518083038186803b1580156120f957600080fd5b505afa15801561210d573d6000803e3d6000fd5b505050506040513d601f19601f820116820180604052508101906121319190613584565b90506000818b85815181106121485761214861354c565b60200260200101511061215b5781612176565b8a848151811061216d5761216d61354c565b60200260200101515b905061218f8c828987815181106111075761110761354c565b808985815181106121a2576121a261354c565b6020026020010181815250508b6001600160a01b0316856001600160a01b03161461227d578684815181106121d9576121d961354c565b60209081029190910101516040516370a0823160e01b81526001600160a01b038e81166004830152909116906370a082319060240160206040518083038186803b15801561222657600080fd5b505afa15801561223a573d6000803e3d6000fd5b505050506040513d601f19601f8201168201806040525081019061225e9190613584565b8885815181106122705761227061354c565b6020026020010181815250505b5050508061228a906135b3565b905061208c565b50876001600160a01b0316816001600160a01b0316146124765760405163159b29ad60e21b81526001600160a01b0389169063566ca6b4906122db90869088908b90600401613724565b600060405180830381600087803b1580156122f557600080fd5b505af1158015612309573d6000803e3d6000fd5b505050506040513d6000823e601f3d908101601f19168201604052612331919081019061375d565b506040516302f0e4a160e11b81526000906001600160a01b038a16906305e1c94290612361908790600401613441565b600060405180830381600087803b15801561237b57600080fd5b505af115801561238f573d6000803e3d6000fd5b505050506040513d6000823e601f3d908101601f191682016040526123b7919081019061375d565b905060005b8851811015612473578181815181106123d7576123d761354c565b60200260200101518782815181106123f1576123f161354c565b60200260200101511015612406576000612444565b8181815181106124185761241861354c565b60200260200101518782815181106124325761243261354c565b60200260200101516124449190613668565b8782815181106124565761245661354c565b60209081029190910101528061246b816135b3565b9150506123bc565b50505b505050509392505050565b6060600084516001600160401b0381111561249e5761249e612f4a565b6040519080825280602002602001820160405280156124c7578160200160208202803683370190505b5090506000805b8651821080156124de5750855181105b1561265d578581815181106124f5576124f561354c565b60200260200101516001600160a01b03168783815181106125185761251861354c565b60200260200101516001600160a01b031610156125605760008383815181106125435761254361354c565b602090810291909101015281612558816135b3565b9250506124ce565b8581815181106125725761257261354c565b60200260200101516001600160a01b03168783815181106125955761259561354c565b60200260200101516001600160a01b0316111561260e578481815181106125be576125be61354c565b6020026020010151600014156125e057806125d8816135b3565b9150506124ce565b60405162461bcd60e51b815260206004820152600360248201526254505360e81b604482015260640161038c565b8481815181106126205761262061354c565b602002602001015183838151811061263a5761263a61354c565b60209081029190910101528161264f816135b3565b92505080806125d8906135b3565b865182101561269757600083838151811061267a5761267a61354c565b60209081029190910101528161268f816135b3565b92505061265d565b509095945050505050565b6040516001600160a01b03808516602483015283166044820152606481018290526126da9085906323b872dd60e01b90608401611b2a565b50505050565b6004805460408051808201909152918252631253925560e21b60208301521561271c5760405162461bcd60e51b815260040161038c9190613351565b5061272682612cd7565b60405180604001604052806004815260200163494e564160e01b815250906127615760405162461bcd60e51b815260040161038c9190613351565b506040805180820190915260028152612b2d60f11b6020820152816127995760405162461bcd60e51b815260040161038c9190613351565b506000336001600160a01b0316637ac46fbb6040518163ffffffff1660e01b815260040160606040518083038186803b1580156127d557600080fd5b505afa1580156127e9573d6000803e3d6000fd5b505050506040513d601f19601f8201168201806040525081019061280d91906134be565b518351909150158015906128925750806001600160a01b03166378546fa26040518163ffffffff1660e01b815260040160206040518083038186803b15801561285557600080fd5b505afa158015612869573d6000803e3d6000fd5b505050506040513d601f19601f8201168201806040525081019061288d9190613584565b835111155b6040518060400160405280600381526020016224a72b60e91b815250906128cc5760405162461bcd60e51b815260040161038c9190613351565b5060005b83518110156129d057816001600160a01b03166363e85d2d8583815181106128fa576128fa61354c565b60209081029190910101516040516001600160e01b031960e084901b1681526001600160a01b0390911660048201526003602482015260440160206040518083038186803b15801561294b57600080fd5b505afa15801561295f573d6000803e3d6000fd5b505050506040513d601f19601f820116820180604052508101906129839190613562565b6040518060400160405280600381526020016223292160e91b815250906129bd5760405162461bcd60e51b815260040161038c9190613351565b50806129c8816135b3565b9150506128d0565b50600180546001600160a01b0319163317905582516129f6906002906020860190612e9a565b50600482905560025460005b81811015612b2657612a158160016137e2565b60036000878481518110612a2b57612a2b61354c565b60200260200101516001600160a01b03166001600160a01b03168152602001908152602001600020819055506000858281518110612a6b57612a6b61354c565b6020026020010151905060056002826001600160a01b031663313ce5676040518163ffffffff1660e01b815260040160206040518083038186803b158015612ab257600080fd5b505afa158015612ac6573d6000803e3d6000fd5b505050506040513d601f19601f82011682018060405250810190612aea91906137fa565b612af4919061381d565b612aff90600a613931565b8154600181018355600092835260209092209091015550612b1f816135b3565b9050612a02565b50604051339032907f0f043e55a1ce0d7ce25125ccbc2800b540d83e21abf7250f0156c2091a28b22190612b5d9088908890613940565b60405180910390a350505050565b60006301ffc9a760e01b6001600160e01b03198316148061033f57506001600160e01b0319821663305a640b60e21b1492915050565b6000612bf6826040518060400160405280602081526020017f5361666545524332303a206c6f772d6c6576656c2063616c6c206661696c6564815250856001600160a01b0316612d7a9092919063ffffffff16565b805190915015611b615780806020019051810190612c149190613562565b611b615760405162461bcd60e51b815260206004820152602a60248201527f5361666545524332303a204552433230206f7065726174696f6e20646964206e6044820152691bdd081cdd58d8d9595960b21b606482015260840161038c565b60008060008351604114604051806040016040528060048152602001631253959360e21b81525090612cb85760405162461bcd60e51b815260040161038c9190613351565b5050505060208101516040820151606090920151909260009190911a90565b6000600282511015612ceb57506001919050565b60005b60018351612cfc9190613668565b811015612d715782612d0f8260016137e2565b81518110612d1f57612d1f61354c565b60200260200101516001600160a01b0316838281518110612d4257612d4261354c565b60200260200101516001600160a01b031610612d615750600092915050565b612d6a816135b3565b9050612cee565b50600192915050565b6060610fb3848460008585600080866001600160a01b03168587604051612da19190613708565b60006040518083038185875af1925050503d8060008114612dde576040519150601f19603f3d011682016040523d82523d6000602084013e612de3565b606091505b5091509150612df487838387612dff565b979650505050505050565b60608315612e6b578251612e64576001600160a01b0385163b612e645760405162461bcd60e51b815260206004820152601d60248201527f416464726573733a2063616c6c20746f206e6f6e2d636f6e7472616374000000604482015260640161038c565b5081610fb3565b610fb38383815115612e805781518083602001fd5b8060405162461bcd60e51b815260040161038c9190613351565b828054828255906000526020600020908101928215612eef579160200282015b82811115612eef57825182546001600160a01b0319166001600160a01b03909116178255602090920191600190910190612eba565b50612efb929150612eff565b5090565b5b80821115612efb5760008155600101612f00565b6001600160e01b031981168114612f2a57600080fd5b50565b600060208284031215612f3f57600080fd5b81356116d681612f14565b634e487b7160e01b600052604160045260246000fd5b604051601f8201601f191681016001600160401b0381118282101715612f8857612f88612f4a565b604052919050565b60006001600160401b03821115612fa957612fa9612f4a565b5060051b60200190565b6001600160a01b0381168114612f2a57600080fd5b600082601f830112612fd957600080fd5b81356020612fee612fe983612f90565b612f60565b82815260059290921b8401810191818101908684111561300d57600080fd5b8286015b8481101561303157803561302481612fb3565b8352918301918301613011565b509695505050505050565b60006020828403121561304e57600080fd5b81356001600160401b0381111561306457600080fd5b610fb384828501612fc8565b600081518084526020808501945080840160005b838110156130a057815187529582019590820190600101613084565b509495945050505050565b6020815260006116d66020830184613070565b600082601f8301126130cf57600080fd5b81356001600160401b038111156130e8576130e8612f4a565b6130fb601f8201601f1916602001612f60565b81815284602083860101111561311057600080fd5b816020850160208301376000918101602001919091529392505050565b6000806040838503121561314057600080fd5b8235915060208301356001600160401b0381111561315d57600080fd5b613169858286016130be565b9150509250929050565b600082601f83011261318457600080fd5b81356020613194612fe983612f90565b82815260059290921b840181019181810190868411156131b357600080fd5b8286015b8481101561303157803583529183019183016131b7565b600080600080608085870312156131e457600080fd5b84356131ef81612fb3565b935060208501356001600160401b038082111561320b57600080fd5b61321788838901612fc8565b9450604087013591508082111561322d57600080fd5b61323988838901613173565b9350606087013591508082111561324f57600080fd5b5061325c878288016130be565b91505092959194509250565b6000806000806060858703121561327e57600080fd5b843561328981612fb3565b9350602085013561329981612f14565b925060408501356001600160401b03808211156132b557600080fd5b818701915087601f8301126132c957600080fd5b8135818111156132d857600080fd5b8860208285010111156132ea57600080fd5b95989497505060200194505050565b60005b838110156133145781810151838201526020016132fc565b838111156126da5750506000910152565b6000815180845261333d8160208601602086016132f9565b601f01601f19169290920160200192915050565b6020815260006116d66020830184613325565b60006020828403121561337657600080fd5b81356116d681612fb3565b60008060006060848603121561339657600080fd5b83356001600160401b03808211156133ad57600080fd5b6133b987838801612fc8565b945060208601359150808211156133cf57600080fd5b6133db87838801613173565b935060408601359150808211156133f157600080fd5b506133fe868287016130be565b9150509250925092565b600081518084526020808501945080840160005b838110156130a05781516001600160a01b03168752958201959082019060010161341c565b6020815260006116d66020830184613408565b6000806040838503121561346757600080fd5b8235915060208301356001600160401b0381111561348457600080fd5b61316985828601612fc8565b6040815260006134a36040830185613070565b82810360208401526134b58185613070565b95945050505050565b6000606082840312156134d057600080fd5b604051606081018181106001600160401b03821117156134f2576134f2612f4a565b604052825161350081612fb3565b8152602083015161351081612fb3565b6020820152604083015161352381612fb3565b60408201529392505050565b60006020828403121561354157600080fd5b81516116d681612fb3565b634e487b7160e01b600052603260045260246000fd5b60006020828403121561357457600080fd5b815180151581146116d657600080fd5b60006020828403121561359657600080fd5b5051919050565b634e487b7160e01b600052601160045260246000fd5b60006000198214156135c7576135c761359d565b5060010190565b6001600160a01b03841681526060602082018190526000906135f290830185613408565b82810360408401526136048185613070565b9695505050505050565b828152604060208201526000610fb36040830184613325565b60006020828403121561363957600080fd5b81516116d681612f14565b6001600160a01b0383168152604060208201819052600090610fb390830184613070565b60008282101561367a5761367a61359d565b500390565b6001600160a01b03878116825286166020820152604081018590526001600160e01b03198416606082015260a06080820181905281018290526000828460c0840137600060c0848401015260c0601f19601f8501168301019050979650505050505050565b6001600160e01b031984168152818360048301376000910160040190815292915050565b6000825161371a8184602087016132f9565b9190910192915050565b6060815260006137376060830186613408565b82810360208401526137498186613070565b905082810360408401526136048185613325565b6000602080838503121561377057600080fd5b82516001600160401b0381111561378657600080fd5b8301601f8101851361379757600080fd5b80516137a5612fe982612f90565b81815260059190911b820183019083810190878311156137c457600080fd5b928401925b82841015612df4578351825292840192908401906137c9565b600082198211156137f5576137f561359d565b500190565b60006020828403121561380c57600080fd5b815160ff811681146116d657600080fd5b600060ff83168061383e57634e487b7160e01b600052601260045260246000fd5b8060ff84160491505092915050565b600181815b8085111561388857816000190482111561386e5761386e61359d565b8085161561387b57918102915b93841c9390800290613852565b509250929050565b60008261389f5750600161033f565b816138ac5750600061033f565b81600181146138c257600281146138cc576138e8565b600191505061033f565b60ff8411156138dd576138dd61359d565b50506001821b61033f565b5060208310610133831016604e8410600b841016171561390b575081810a61033f565b613915838361384d565b80600019048211156139295761392961359d565b029392505050565b60006116d660ff841683613890565b6040815260006139536040830185613408565b9050826020830152939250505056fea264697066735822122047add6b3d6a4c0b6b0f954c01d0a263e26966eef14ae04eac6696b1a7d0ab52d64736f6c63430008090033",
    "linkReferences": {}
  },
  "methodIdentifiers": {
    "externalCall(address,bytes4,bytes)": "2e2f4cc2",
    "initialize(uint256,address[])": "a920b78c",
    "initialized()": "158ef93e",
    "isValidSignature(bytes32,bytes)": "1626ba7e",
    "isVaultToken(address)": "338c4ccb",
    "nft()": "47ccca02",
    "pull(address,address[],uint256[],bytes)": "2062d754",
    "pullExistentials()": "d2c219b0",
    "push(address[],uint256[],bytes)": "566ca6b4",
    "reclaimTokens(address[])": "05e1c942",
    "supportsInterface(bytes4)": "01ffc9a7",
    "transferAndPush(address,address[],uint256[],bytes)": "27a35e5a",
    "tvl()": "e5328e06",
    "vaultGovernance()": "fe255a5e",
    "vaultTokens()": "69722233"
  },
  "id": 79
}