{
  "abi": [
    {
      "inputs": [
        {
          "components": [
            {
              "internalType": "contract IProtocolGovernance",
              "name": "protocolGovernance",
              "type": "address"
            },
            {
              "internalType": "contract IVaultRegistry",
              "name": "registry",
              "type": "address"
            },
            {
              "internalType": "contract IVault",
              "name": "singleton",
              "type": "address"
            }
          ],
          "internalType": "struct IVaultGovernance.InternalParams",
          "name": "internalParams_",
          "type": "tuple"
        },
        {
          "components": [
            {
              "internalType": "contract IYearnProtocolVaultRegistry",
              "name": "yearnVaultRegistry",
              "type": "address"
            }
          ],
          "internalType": "struct IYearnVaultGovernance.DelayedProtocolParams",
          "name": "delayedProtocolParams_",
          "type": "tuple"
        }
      ],
      "stateMutability": "nonpayable",
      "type": "constructor"
    },
    {
      "anonymous": false,
      "inputs": [
        {
          "indexed": true,
          "internalType": "address",
          "name": "origin",
          "type": "address"
        },
        {
          "indexed": true,
          "internalType": "address",
          "name": "sender",
          "type": "address"
        },
        {
          "components": [
            {
              "internalType": "contract IYearnProtocolVaultRegistry",
              "name": "yearnVaultRegistry",
              "type": "address"
            }
          ],
          "indexed": false,
          "internalType": "struct IYearnVaultGovernance.DelayedProtocolParams",
          "name": "params",
          "type": "tuple"
        }
      ],
      "name": "CommitDelayedProtocolParams",
      "type": "event"
    },
    {
      "anonymous": false,
      "inputs": [
        {
          "indexed": true,
          "internalType": "address",
          "name": "origin",
          "type": "address"
        },
        {
          "indexed": true,
          "internalType": "address",
          "name": "sender",
          "type": "address"
        },
        {
          "components": [
            {
              "internalType": "contract IProtocolGovernance",
              "name": "protocolGovernance",
              "type": "address"
            },
            {
              "internalType": "contract IVaultRegistry",
              "name": "registry",
              "type": "address"
            },
            {
              "internalType": "contract IVault",
              "name": "singleton",
              "type": "address"
            }
          ],
          "indexed": false,
          "internalType": "struct IVaultGovernance.InternalParams",
          "name": "params",
          "type": "tuple"
        }
      ],
      "name": "CommitedInternalParams",
      "type": "event"
    },
    {
      "anonymous": false,
      "inputs": [
        {
          "indexed": true,
          "internalType": "address",
          "name": "origin",
          "type": "address"
        },
        {
          "indexed": true,
          "internalType": "address",
          "name": "sender",
          "type": "address"
        },
        {
          "indexed": false,
          "internalType": "address[]",
          "name": "vaultTokens",
          "type": "address[]"
        },
        {
          "indexed": false,
          "internalType": "bytes",
          "name": "options",
          "type": "bytes"
        },
        {
          "indexed": false,
          "internalType": "address",
          "name": "owner",
          "type": "address"
        },
        {
          "indexed": false,
          "internalType": "address",
          "name": "vaultAddress",
          "type": "address"
        },
        {
          "indexed": false,
          "internalType": "uint256",
          "name": "vaultNft",
          "type": "uint256"
        }
      ],
      "name": "DeployedVault",
      "type": "event"
    },
    {
      "anonymous": false,
      "inputs": [
        {
          "indexed": true,
          "internalType": "address",
          "name": "origin",
          "type": "address"
        },
        {
          "indexed": true,
          "internalType": "address",
          "name": "sender",
          "type": "address"
        },
        {
          "indexed": true,
          "internalType": "address",
          "name": "token",
          "type": "address"
        },
        {
          "indexed": false,
          "internalType": "address",
          "name": "yToken",
          "type": "address"
        }
      ],
      "name": "SetYToken",
      "type": "event"
    },
    {
      "anonymous": false,
      "inputs": [
        {
          "indexed": true,
          "internalType": "address",
          "name": "origin",
          "type": "address"
        },
        {
          "indexed": true,
          "internalType": "address",
          "name": "sender",
          "type": "address"
        },
        {
          "components": [
            {
              "internalType": "contract IYearnProtocolVaultRegistry",
              "name": "yearnVaultRegistry",
              "type": "address"
            }
          ],
          "indexed": false,
          "internalType": "struct IYearnVaultGovernance.DelayedProtocolParams",
          "name": "params",
          "type": "tuple"
        },
        {
          "indexed": false,
          "internalType": "uint256",
          "name": "when",
          "type": "uint256"
        }
      ],
      "name": "StageDelayedProtocolParams",
      "type": "event"
    },
    {
      "anonymous": false,
      "inputs": [
        {
          "indexed": true,
          "internalType": "address",
          "name": "origin",
          "type": "address"
        },
        {
          "indexed": true,
          "internalType": "address",
          "name": "sender",
          "type": "address"
        },
        {
          "components": [
            {
              "internalType": "contract IProtocolGovernance",
              "name": "protocolGovernance",
              "type": "address"
            },
            {
              "internalType": "contract IVaultRegistry",
              "name": "registry",
              "type": "address"
            },
            {
              "internalType": "contract IVault",
              "name": "singleton",
              "type": "address"
            }
          ],
          "indexed": false,
          "internalType": "struct IVaultGovernance.InternalParams",
          "name": "params",
          "type": "tuple"
        },
        {
          "indexed": false,
          "internalType": "uint256",
          "name": "when",
          "type": "uint256"
        }
      ],
      "name": "StagedInternalParams",
      "type": "event"
    },
    {
      "inputs": [],
      "name": "commitDelayedProtocolParams",
      "outputs": [],
      "stateMutability": "nonpayable",
      "type": "function"
    },
    {
      "inputs": [],
      "name": "commitInternalParams",
      "outputs": [],
      "stateMutability": "nonpayable",
      "type": "function"
    },
    {
      "inputs": [],
      "name": "contractName",
      "outputs": [
        {
          "internalType": "string",
          "name": "",
          "type": "string"
        }
      ],
      "stateMutability": "pure",
      "type": "function"
    },
    {
      "inputs": [],
      "name": "contractNameBytes",
      "outputs": [
        {
          "internalType": "bytes32",
          "name": "",
          "type": "bytes32"
        }
      ],
      "stateMutability": "pure",
      "type": "function"
    },
    {
      "inputs": [],
      "name": "contractVersion",
      "outputs": [
        {
          "internalType": "string",
          "name": "",
          "type": "string"
        }
      ],
      "stateMutability": "pure",
      "type": "function"
    },
    {
      "inputs": [],
      "name": "contractVersionBytes",
      "outputs": [
        {
          "internalType": "bytes32",
          "name": "",
          "type": "bytes32"
        }
      ],
      "stateMutability": "pure",
      "type": "function"
    },
    {
      "inputs": [
        {
          "internalType": "address[]",
          "name": "vaultTokens_",
          "type": "address[]"
        },
        {
          "internalType": "address",
          "name": "owner_",
          "type": "address"
        }
      ],
      "name": "createVault",
      "outputs": [
        {
          "internalType": "contract IYearnVault",
          "name": "vault",
          "type": "address"
        },
        {
          "internalType": "uint256",
          "name": "nft",
          "type": "uint256"
        }
      ],
      "stateMutability": "nonpayable",
      "type": "function"
    },
    {
      "inputs": [],
      "name": "delayedProtocolParams",
      "outputs": [
        {
          "components": [
            {
              "internalType": "contract IYearnProtocolVaultRegistry",
              "name": "yearnVaultRegistry",
              "type": "address"
            }
          ],
          "internalType": "struct IYearnVaultGovernance.DelayedProtocolParams",
          "name": "",
          "type": "tuple"
        }
      ],
      "stateMutability": "view",
      "type": "function"
    },
    {
      "inputs": [],
      "name": "delayedProtocolParamsTimestamp",
      "outputs": [
        {
          "internalType": "uint256",
          "name": "",
          "type": "uint256"
        }
      ],
      "stateMutability": "view",
      "type": "function"
    },
    {
      "inputs": [
        {
          "internalType": "uint256",
          "name": "nft",
          "type": "uint256"
        }
      ],
      "name": "delayedProtocolPerVaultParamsTimestamp",
      "outputs": [
        {
          "internalType": "uint256",
          "name": "",
          "type": "uint256"
        }
      ],
      "stateMutability": "view",
      "type": "function"
    },
    {
      "inputs": [
        {
          "internalType": "uint256",
          "name": "nft",
          "type": "uint256"
        }
      ],
      "name": "delayedStrategyParamsTimestamp",
      "outputs": [
        {
          "internalType": "uint256",
          "name": "",
          "type": "uint256"
        }
      ],
      "stateMutability": "view",
      "type": "function"
    },
    {
      "inputs": [],
      "name": "internalParams",
      "outputs": [
        {
          "components": [
            {
              "internalType": "contract IProtocolGovernance",
              "name": "protocolGovernance",
              "type": "address"
            },
            {
              "internalType": "contract IVaultRegistry",
              "name": "registry",
              "type": "address"
            },
            {
              "internalType": "contract IVault",
              "name": "singleton",
              "type": "address"
            }
          ],
          "internalType": "struct IVaultGovernance.InternalParams",
          "name": "",
          "type": "tuple"
        }
      ],
      "stateMutability": "view",
      "type": "function"
    },
    {
      "inputs": [],
      "name": "internalParamsTimestamp",
      "outputs": [
        {
          "internalType": "uint256",
          "name": "",
          "type": "uint256"
        }
      ],
      "stateMutability": "view",
      "type": "function"
    },
    {
      "inputs": [
        {
          "internalType": "address",
          "name": "token",
          "type": "address"
        },
        {
          "internalType": "address",
          "name": "yToken",
          "type": "address"
        }
      ],
      "name": "setYTokenForToken",
      "outputs": [],
      "stateMutability": "nonpayable",
      "type": "function"
    },
    {
      "inputs": [
        {
          "components": [
            {
              "internalType": "contract IYearnProtocolVaultRegistry",
              "name": "yearnVaultRegistry",
              "type": "address"
            }
          ],
          "internalType": "struct IYearnVaultGovernance.DelayedProtocolParams",
          "name": "params",
          "type": "tuple"
        }
      ],
      "name": "stageDelayedProtocolParams",
      "outputs": [],
      "stateMutability": "nonpayable",
      "type": "function"
    },
    {
      "inputs": [
        {
          "components": [
            {
              "internalType": "contract IProtocolGovernance",
              "name": "protocolGovernance",
              "type": "address"
            },
            {
              "internalType": "contract IVaultRegistry",
              "name": "registry",
              "type": "address"
            },
            {
              "internalType": "contract IVault",
              "name": "singleton",
              "type": "address"
            }
          ],
          "internalType": "struct IVaultGovernance.InternalParams",
          "name": "newParams",
          "type": "tuple"
        }
      ],
      "name": "stageInternalParams",
      "outputs": [],
      "stateMutability": "nonpayable",
      "type": "function"
    },
    {
      "inputs": [],
      "name": "stagedDelayedProtocolParams",
      "outputs": [
        {
          "components": [
            {
              "internalType": "contract IYearnProtocolVaultRegistry",
              "name": "yearnVaultRegistry",
              "type": "address"
            }
          ],
          "internalType": "struct IYearnVaultGovernance.DelayedProtocolParams",
          "name": "",
          "type": "tuple"
        }
      ],
      "stateMutability": "view",
      "type": "function"
    },
    {
      "inputs": [],
      "name": "stagedInternalParams",
      "outputs": [
        {
          "components": [
            {
              "internalType": "contract IProtocolGovernance",
              "name": "protocolGovernance",
              "type": "address"
            },
            {
              "internalType": "contract IVaultRegistry",
              "name": "registry",
              "type": "address"
            },
            {
              "internalType": "contract IVault",
              "name": "singleton",
              "type": "address"
            }
          ],
          "internalType": "struct IVaultGovernance.InternalParams",
          "name": "",
          "type": "tuple"
        }
      ],
      "stateMutability": "view",
      "type": "function"
    },
    {
      "inputs": [
        {
          "internalType": "bytes4",
          "name": "interfaceId",
          "type": "bytes4"
        }
      ],
      "name": "supportsInterface",
      "outputs": [
        {
          "internalType": "bool",
          "name": "",
          "type": "bool"
        }
      ],
      "stateMutability": "view",
      "type": "function"
    },
    {
      "inputs": [
        {
          "internalType": "address",
          "name": "token",
          "type": "address"
        }
      ],
      "name": "yTokenForToken",
      "outputs": [
        {
          "internalType": "address",
          "name": "",
          "type": "address"
        }
      ],
      "stateMutability": "view",
      "type": "function"
    }
  ],
  "bytecode": {
    "object": "0x60806040523480156200001157600080fd5b5060405162001c6838038062001c688339810160408190526200003491620002df565b815160408051808201909152600281526120ad60f11b602082015283916001600160a01b0316620000835760405162461bcd60e51b81526004016200007a9190620003ad565b60405180910390fd5b5060006001600160a01b031681602001516001600160a01b031614156040518060400160405280600281526020016120ad60f11b81525090620000db5760405162461bcd60e51b81526004016200007a9190620003ad565b506040808201518151808301909252600282526120ad60f11b60208301526001600160a01b0316620001225760405162461bcd60e51b81526004016200007a9190620003ad565b508051600080546001600160a01b03199081166001600160a01b039384161790915560208084015160018054841691851691909117905560409384015160028054909316908416178255845184518086019095529184526120ad60f11b9084015216620001a45760405162461bcd60e51b81526004016200007a9190620003ad565b506040805182516001600160a01b0316602082015201604051602081830303815290604052600d9080519060200190620001e0929190620001e9565b50505062000442565b828054620001f79062000405565b90600052602060002090601f0160209004810192826200021b576000855562000266565b82601f106200023657805160ff191683800117855562000266565b8280016001018555821562000266579182015b828111156200026657825182559160200191906001019062000249565b506200027492915062000278565b5090565b5b8082111562000274576000815560010162000279565b604051602081016001600160401b0381118282101715620002c057634e487b7160e01b600052604160045260246000fd5b60405290565b6001600160a01b0381168114620002dc57600080fd5b50565b6000808284036080811215620002f457600080fd5b60608112156200030357600080fd5b604051606081016001600160401b03811182821017156200033457634e487b7160e01b600052604160045260246000fd5b60405284516200034481620002c6565b815260208501516200035681620002c6565b602082015260408501516200036b81620002c6565b604082015292506020605f19820112156200038557600080fd5b50620003906200028f565b6060840151620003a081620002c6565b8152919491935090915050565b600060208083528351808285015260005b81811015620003dc57858101830151858201604001528201620003be565b81811115620003ef576000604083870101525b50601f01601f1916929092016040019392505050565b600181811c908216806200041a57607f821691505b602082108114156200043c57634e487b7160e01b600052602260045260246000fd5b50919050565b61181680620004526000396000f3fe608060405234801561001057600080fd5b506004361061012c5760003560e01c806376acd782116100ad578063b32c12d811610071578063b32c12d814610333578063c2cbdc6714610346578063d34cc38014610366578063d4a07d341461036e578063e4af6e791461037657600080fd5b806376acd7821461025d5780637ac46fbb1461027057806386c6be3e146102d057806398347a5d14610323578063a0a8e4601461032b57600080fd5b80631c7f4c73116100f45780631c7f4c73146101d5578063511ce798146101dd57806356c9ff9a146101fd5780636707acee1461022857806375d0c0dc1461024857600080fd5b806301ffc9a71461013157806306a462391461015957806309946538146101715780630e3e80ac146101865780630fb27e4d146101a3575b600080fd5b61014461013f366004611281565b61037e565b60405190151581526020015b60405180910390f35b640312e302e360dc1b5b604051908152602001610150565b61018461017f36600461130e565b6103af565b005b73596561726e5661756c74476f7665726e616e636560601b610163565b6101b66101b1366004611390565b6105a1565b604080516001600160a01b039093168352602083019190915201610150565b600654610163565b6101636101eb366004611454565b6000908152600c602052604090205490565b61021061020b36600461146d565b610661565b6040516001600160a01b039091168152602001610150565b610163610236366004611454565b60009081526009602052604090205490565b610250610751565b604051610150919061148a565b61018461026b3660046114df565b610773565b6102c3604080516060810182526000808252602082018190529181019190915250604080516060810182526000546001600160a01b03908116825260015481166020830152600254169181019190915290565b6040516101509190611518565b6102c3604080516060810182526000808252602082018190529181019190915250604080516060810182526003546001600160a01b03908116825260045481166020830152600554169181019190915290565b6101846107e6565b6102506108df565b610184610341366004611548565b6108f2565b61034e6109a6565b60405190516001600160a01b03168152602001610150565b61034e610a7b565b610184610a97565b600f54610163565b600061038982610bbc565b806103a45750631548213760e01b6001600160e01b03198316145b92915050565b905090565b6103b7610bf2565b805160408051808201909152600281526120ad60f11b6020820152906001600160a01b03166104025760405162461bcd60e51b81526004016103f9919061148a565b60405180910390fd5b5060006001600160a01b031681602001516001600160a01b031614156040518060400160405280600281526020016120ad60f11b815250906104575760405162461bcd60e51b81526004016103f9919061148a565b506040808201518151808301909252600282526120ad60f11b60208301526001600160a01b031661049b5760405162461bcd60e51b81526004016103f9919061148a565b508051600380546001600160a01b03199081166001600160a01b03938416179091556020808401516004805484169185169190911781556040808601516005805490951690861617909355600054835163bba3293960e01b8152935194169363bba3293993808301939290829003018186803b15801561051a57600080fd5b505afa15801561052e573d6000803e3d6000fd5b505050506040513d601f19601f820116820180604052508101906105529190611560565b61055c904261158f565b6006819055604051339132917f0887cab3184f7c02b16978ab31f8acee05979f59fc3da6abe5bf71105ec3179d91610596918691906115a7565b60405180910390a350565b60008060006105af84610caa565b604051632a482de360e21b815291945092508391506001600160a01b0382169063a920b78c906105e59085908990600401611628565b600060405180830381600087803b1580156105ff57600080fd5b505af1158015610613573d6000803e3d6000fd5b50506040513392503291507f8a4513c05d15df8ece912856923273e166e39f5c9c2b43d2b38594023494a0e090610651908990899087908990611641565b60405180910390a3509250929050565b6001600160a01b03808216600090815260136020526040812054909116801561068a5792915050565b6000610694610a7b565b51604051630e177dc760e41b81526001600160a01b0386811660048301529192509082169063e177dc709060240160206040518083038186803b1580156106da57600080fd5b505afa92505050801561070a575060408051601f3d908101601f1916820190925261070791810190611688565b60015b610749573d808015610738576040519150601f19603f3d011682016040523d82523d6000602084013e61073d565b606091505b50600095945050505050565b949350505050565b60606103aa73596561726e5661756c74476f7665726e616e636560601b610e9b565b61077b610bf2565b6001600160a01b0382811660008181526013602090815260409182902080546001600160a01b031916948616948517905590519283529091339132917fd1ed798313b9cf761ada33e274b1ac263028477049b674602f8ffbeb22abe5ac910160405180910390a45050565b6107ee610f07565b336001600160a01b0316326001600160a01b03167fd0bd0864aed00de35801c29364a347e4a81f620231a4f13dc3ada2bddff7dfc1600d8054610830906116a5565b80601f016020809104026020016040519081016040528092919081815260200182805461085c906116a5565b80156108a95780601f1061087e576101008083540402835291602001916108a9565b820191906000526020600020905b81548152906001019060200180831161088c57829003601f168201915b50505050508060200190518101906108c191906116da565b60405190516001600160a01b031681526020015b60405180910390a3565b60606103aa640312e302e360dc1b610e9b565b6000610901602083018361146d565b6001600160a01b031614156040518060400160405280600281526020016120ad60f11b815250906109455760405162461bcd60e51b81526004016103f9919061148a565b5061096e8160405160200161095a9190611726565b604051602081830303815290604052610fbb565b600f54604051339132917f56b6c947728bda5a1251d4300168d688a46ddb97148c0e3f0034f2776418c2759161059691869190611746565b604080516020810190915260008152600e80546109c2906116a5565b151590506109dd575060408051602081019091526000815290565b600e80546109ea906116a5565b80601f0160208091040260200160405190810160405280929190818152602001828054610a16906116a5565b8015610a635780601f10610a3857610100808354040283529160200191610a63565b820191906000526020600020905b815481529060010190602001808311610a4657829003601f168201915b50505050508060200190518101906103aa91906116da565b604080516020810190915260008152600d80546109ea906116a5565b610a9f610bf2565b6006546040805180820190915260048152631395531360e21b602082015290610adb5760405162461bcd60e51b81526004016103f9919061148a565b5060065442101560405180604001604052806002815260200161545360f01b81525090610b1b5760405162461bcd60e51b81526004016103f9919061148a565b5060038054600080546001600160a01b038084166001600160a01b03199283168117845560048054600180548286169087168117909155600580546002805497821697891688179055600698909855978616909855841690559290911690925560408051918252602082019390935291820152339032907fef3e4bc9725fa684957d7de03c6dcd01078ee86cf78ceef25c5f8346df69cc99906060016108d5565b60006301ffc9a760e01b6001600160e01b0319831614806103a457506001600160e01b0319821663effda0f560e01b1492915050565b600054604051630935e01b60e21b81523360048201526001600160a01b03909116906324d7806c9060240160206040518083038186803b158015610c3557600080fd5b505afa158015610c49573d6000803e3d6000fd5b505050506040513d601f19601f82011682018060405250810190610c6d919061176e565b6040518060400160405280600381526020016223292160e91b81525090610ca75760405162461bcd60e51b81526004016103f9919061148a565b50565b600080546040516363e85d2d60e01b81523360048201526001602482015282916001600160a01b03169081906363e85d2d9060440160206040518083038186803b158015610cf757600080fd5b505afa158015610d0b573d6000803e3d6000fd5b505050506040513d601f19601f82011682018060405250810190610d2f919061176e565b6040518060400160405280600381526020016223292160e91b81525090610d695760405162461bcd60e51b81526004016103f9919061148a565b5060015460408051631112eee760e31b815290516001600160a01b039092169182916388977738916004808301926020929190829003018186803b158015610db057600080fd5b505afa158015610dc4573d6000803e3d6000fd5b505050506040513d601f19601f82011682018060405250810190610de89190611560565b610df390600161158f565b600254909350610e0c906001600160a01b031684611096565b6040516305c4fdf960e01b81526001600160a01b0380831660048301528781166024830152919550908216906305c4fdf990604401602060405180830381600087803b158015610e5b57600080fd5b505af1158015610e6f573d6000803e3d6000fd5b505050506040513d601f19601f82011682018060405250810190610e939190611560565b505050915091565b604080516020808252818301909252606091602082018180368337019050509050602060005b6020811015610ef957838160208110610edc57610edc611790565b1a610ee957809150610ef9565b610ef2816117a6565b9050610ec1565b508152602081019190915290565b610f0f610bf2565b600f546040805180820190915260048152631395531360e21b602082015290610f4b5760405162461bcd60e51b81526004016103f9919061148a565b50600f5442101560405180604001604052806002815260200161545360f01b81525090610f8b5760405162461bcd60e51b81526004016103f9919061148a565b50600e600d908054610f9c906116a5565b610fa7929190611133565b50610fb4600e60006111be565b6000600f55565b610fc3610bf2565b6000600d8054610fd2906116a5565b159050610fe0576001610fe3565b60005b60ff16905081600e9080519060200190610ffe9291906111f8565b506000546040805163bba3293960e01b8152905183926001600160a01b03169163bba32939916004808301926020929190829003018186803b15801561104357600080fd5b505afa158015611057573d6000803e3d6000fd5b505050506040513d601f19601f8201168201806040525081019061107b9190611560565b61108591906117c1565b61108f904261158f565b600f555050565b6000763d602d80600a3d3981f3363d3d373d3d3d363d730000008360601b60e81c176000526e5af43d82803e903d91602b57fd5bf38360781b1760205281603760096000f590506001600160a01b0381166103a45760405162461bcd60e51b815260206004820152601760248201527f455243313136373a2063726561746532206661696c656400000000000000000060448201526064016103f9565b82805461113f906116a5565b90600052602060002090601f01602090048101928261116157600085556111ae565b82601f1061117257805485556111ae565b828001600101855582156111ae57600052602060002091601f016020900482015b828111156111ae578254825591600101919060010190611193565b506111ba92915061126c565b5090565b5080546111ca906116a5565b6000825580601f106111da575050565b601f016020900490600052602060002090810190610ca7919061126c565b828054611204906116a5565b90600052602060002090601f01602090048101928261122657600085556111ae565b82601f1061123f57805160ff19168380011785556111ae565b828001600101855582156111ae579182015b828111156111ae578251825591602001919060010190611251565b5b808211156111ba576000815560010161126d565b60006020828403121561129357600080fd5b81356001600160e01b0319811681146112ab57600080fd5b9392505050565b634e487b7160e01b600052604160045260246000fd5b604051601f8201601f1916810167ffffffffffffffff811182821017156112f1576112f16112b2565b604052919050565b6001600160a01b0381168114610ca757600080fd5b60006060828403121561132057600080fd5b6040516060810181811067ffffffffffffffff82111715611343576113436112b2565b6040528235611351816112f9565b81526020830135611361816112f9565b60208201526040830135611374816112f9565b60408201529392505050565b803561138b816112f9565b919050565b600080604083850312156113a357600080fd5b823567ffffffffffffffff808211156113bb57600080fd5b818501915085601f8301126113cf57600080fd5b81356020828211156113e3576113e36112b2565b8160051b92506113f48184016112c8565b828152928401810192818101908985111561140e57600080fd5b948201945b848610156114385785359350611428846112f9565b8382529482019490820190611413565b96506114479050878201611380565b9450505050509250929050565b60006020828403121561146657600080fd5b5035919050565b60006020828403121561147f57600080fd5b81356112ab816112f9565b600060208083528351808285015260005b818110156114b75785810183015185820160400152820161149b565b818111156114c9576000604083870101525b50601f01601f1916929092016040019392505050565b600080604083850312156114f257600080fd5b82356114fd816112f9565b9150602083013561150d816112f9565b809150509250929050565b606081016103a4828480516001600160a01b03908116835260208083015182169084015260409182015116910152565b60006020828403121561155a57600080fd5b50919050565b60006020828403121561157257600080fd5b5051919050565b634e487b7160e01b600052601160045260246000fd5b600082198211156115a2576115a2611579565b500190565b608081016115d7828580516001600160a01b03908116835260208083015182169084015260409182015116910152565b8260608301529392505050565b600081518084526020808501945080840160005b8381101561161d5781516001600160a01b0316875295820195908201906001016115f8565b509495945050505050565b82815260406020820152600061074960408301846115e4565b60a08152600061165460a08301876115e4565b828103602080850191909152600082526001600160a01b039687166040850152949095166060830152506080015201919050565b60006020828403121561169a57600080fd5b81516112ab816112f9565b600181811c908216806116b957607f821691505b6020821081141561155a57634e487b7160e01b600052602260045260246000fd5b6000602082840312156116ec57600080fd5b6040516020810181811067ffffffffffffffff8211171561170f5761170f6112b2565b604052825161171d816112f9565b81529392505050565b602081018235611735816112f9565b6001600160a01b0316909152919050565b604081018335611755816112f9565b6001600160a01b03168252602090910191909152919050565b60006020828403121561178057600080fd5b815180151581146112ab57600080fd5b634e487b7160e01b600052603260045260246000fd5b60006000198214156117ba576117ba611579565b5060010190565b60008160001904831182151516156117db576117db611579565b50029056fea2646970667358221220b248defc370a8d0cd378fb52769d4b1bf52143558f9cc4a49fe170c8edf197ac64736f6c63430008090033",
    "linkReferences": {}
  },
  "methodIdentifiers": {
    "commitDelayedProtocolParams()": "98347a5d",
    "commitInternalParams()": "d4a07d34",
    "contractName()": "75d0c0dc",
    "contractNameBytes()": "0e3e80ac",
    "contractVersion()": "a0a8e460",
    "contractVersionBytes()": "06a46239",
    "createVault(address[],address)": "0fb27e4d",
    "delayedProtocolParams()": "d34cc380",
    "delayedProtocolParamsTimestamp()": "e4af6e79",
    "delayedProtocolPerVaultParamsTimestamp(uint256)": "511ce798",
    "delayedStrategyParamsTimestamp(uint256)": "6707acee",
    "internalParams()": "7ac46fbb",
    "internalParamsTimestamp()": "1c7f4c73",
    "setYTokenForToken(address,address)": "76acd782",
    "stageDelayedProtocolParams((address))": "b32c12d8",
    "stageInternalParams((address,address,address))": "09946538",
    "stagedDelayedProtocolParams()": "c2cbdc67",
    "stagedInternalParams()": "86c6be3e",
    "supportsInterface(bytes4)": "01ffc9a7",
    "yTokenForToken(address)": "56c9ff9a"
  },
  "id": 479
}