{
  "abi": [
    {
      "inputs": [
        {
          "internalType": "contract IBasePositionManager",
          "name": "positionManager_",
          "type": "address"
        },
        {
          "internalType": "contract IRouter",
          "name": "router_",
          "type": "address"
        },
        {
          "internalType": "contract IKyberHelper",
          "name": "helper_",
          "type": "address"
        },
        {
          "internalType": "contract IOracle",
          "name": "oracle_",
          "type": "address"
        }
      ],
      "stateMutability": "nonpayable",
      "type": "constructor"
    },
    {
      "anonymous": false,
      "inputs": [
        {
          "indexed": true,
          "internalType": "address",
          "name": "origin",
          "type": "address"
        },
        {
          "indexed": true,
          "internalType": "address",
          "name": "sender",
          "type": "address"
        },
        {
          "indexed": false,
          "internalType": "address[]",
          "name": "vaultTokens_",
          "type": "address[]"
        },
        {
          "indexed": false,
          "internalType": "uint256",
          "name": "nft_",
          "type": "uint256"
        }
      ],
      "name": "Initialized",
      "type": "event"
    },
    {
      "anonymous": false,
      "inputs": [
        {
          "indexed": false,
          "internalType": "address",
          "name": "to",
          "type": "address"
        },
        {
          "indexed": false,
          "internalType": "uint256[]",
          "name": "tokenAmounts",
          "type": "uint256[]"
        }
      ],
      "name": "Pull",
      "type": "event"
    },
    {
      "anonymous": false,
      "inputs": [
        {
          "indexed": false,
          "internalType": "uint256[]",
          "name": "tokenAmounts",
          "type": "uint256[]"
        }
      ],
      "name": "Push",
      "type": "event"
    },
    {
      "anonymous": false,
      "inputs": [
        {
          "indexed": false,
          "internalType": "address",
          "name": "to",
          "type": "address"
        },
        {
          "indexed": false,
          "internalType": "address[]",
          "name": "tokens",
          "type": "address[]"
        },
        {
          "indexed": false,
          "internalType": "uint256[]",
          "name": "tokenAmounts",
          "type": "uint256[]"
        }
      ],
      "name": "ReclaimTokens",
      "type": "event"
    },
    {
      "inputs": [
        {
          "internalType": "address",
          "name": "to",
          "type": "address"
        },
        {
          "internalType": "bytes4",
          "name": "selector",
          "type": "bytes4"
        },
        {
          "internalType": "bytes",
          "name": "data",
          "type": "bytes"
        }
      ],
      "name": "externalCall",
      "outputs": [
        {
          "internalType": "bytes",
          "name": "result",
          "type": "bytes"
        }
      ],
      "stateMutability": "payable",
      "type": "function"
    },
    {
      "inputs": [],
      "name": "farm",
      "outputs": [
        {
          "internalType": "contract IKyberSwapElasticLM",
          "name": "",
          "type": "address"
        }
      ],
      "stateMutability": "view",
      "type": "function"
    },
    {
      "inputs": [
        {
          "internalType": "uint256",
          "name": "nft_",
          "type": "uint256"
        },
        {
          "internalType": "address[]",
          "name": "vaultTokens_",
          "type": "address[]"
        },
        {
          "internalType": "uint24",
          "name": "fee_",
          "type": "uint24"
        }
      ],
      "name": "initialize",
      "outputs": [],
      "stateMutability": "nonpayable",
      "type": "function"
    },
    {
      "inputs": [],
      "name": "initialized",
      "outputs": [
        {
          "internalType": "bool",
          "name": "",
          "type": "bool"
        }
      ],
      "stateMutability": "view",
      "type": "function"
    },
    {
      "inputs": [],
      "name": "isLiquidityInFarm",
      "outputs": [
        {
          "internalType": "bool",
          "name": "",
          "type": "bool"
        }
      ],
      "stateMutability": "view",
      "type": "function"
    },
    {
      "inputs": [
        {
          "internalType": "bytes32",
          "name": "_hash",
          "type": "bytes32"
        },
        {
          "internalType": "bytes",
          "name": "_signature",
          "type": "bytes"
        }
      ],
      "name": "isValidSignature",
      "outputs": [
        {
          "internalType": "bytes4",
          "name": "magicValue",
          "type": "bytes4"
        }
      ],
      "stateMutability": "view",
      "type": "function"
    },
    {
      "inputs": [
        {
          "internalType": "address",
          "name": "token",
          "type": "address"
        }
      ],
      "name": "isVaultToken",
      "outputs": [
        {
          "internalType": "bool",
          "name": "",
          "type": "bool"
        }
      ],
      "stateMutability": "view",
      "type": "function"
    },
    {
      "inputs": [],
      "name": "kyberHelper",
      "outputs": [
        {
          "internalType": "contract IKyberHelper",
          "name": "",
          "type": "address"
        }
      ],
      "stateMutability": "view",
      "type": "function"
    },
    {
      "inputs": [],
      "name": "kyberNft",
      "outputs": [
        {
          "internalType": "uint256",
          "name": "",
          "type": "uint256"
        }
      ],
      "stateMutability": "view",
      "type": "function"
    },
    {
      "inputs": [],
      "name": "mellowOracle",
      "outputs": [
        {
          "internalType": "contract IOracle",
          "name": "",
          "type": "address"
        }
      ],
      "stateMutability": "view",
      "type": "function"
    },
    {
      "inputs": [],
      "name": "nft",
      "outputs": [
        {
          "internalType": "uint256",
          "name": "",
          "type": "uint256"
        }
      ],
      "stateMutability": "view",
      "type": "function"
    },
    {
      "inputs": [
        {
          "internalType": "address",
          "name": "operator",
          "type": "address"
        },
        {
          "internalType": "address",
          "name": "from",
          "type": "address"
        },
        {
          "internalType": "uint256",
          "name": "tokenId",
          "type": "uint256"
        },
        {
          "internalType": "bytes",
          "name": "",
          "type": "bytes"
        }
      ],
      "name": "onERC721Received",
      "outputs": [
        {
          "internalType": "bytes4",
          "name": "",
          "type": "bytes4"
        }
      ],
      "stateMutability": "nonpayable",
      "type": "function"
    },
    {
      "inputs": [],
      "name": "pid",
      "outputs": [
        {
          "internalType": "uint256",
          "name": "",
          "type": "uint256"
        }
      ],
      "stateMutability": "view",
      "type": "function"
    },
    {
      "inputs": [],
      "name": "pool",
      "outputs": [
        {
          "internalType": "contract IPool",
          "name": "",
          "type": "address"
        }
      ],
      "stateMutability": "view",
      "type": "function"
    },
    {
      "inputs": [],
      "name": "positionManager",
      "outputs": [
        {
          "internalType": "contract IBasePositionManager",
          "name": "",
          "type": "address"
        }
      ],
      "stateMutability": "view",
      "type": "function"
    },
    {
      "inputs": [
        {
          "internalType": "address",
          "name": "to",
          "type": "address"
        },
        {
          "internalType": "address[]",
          "name": "tokens",
          "type": "address[]"
        },
        {
          "internalType": "uint256[]",
          "name": "tokenAmounts",
          "type": "uint256[]"
        },
        {
          "internalType": "bytes",
          "name": "options",
          "type": "bytes"
        }
      ],
      "name": "pull",
      "outputs": [
        {
          "internalType": "uint256[]",
          "name": "actualTokenAmounts",
          "type": "uint256[]"
        }
      ],
      "stateMutability": "nonpayable",
      "type": "function"
    },
    {
      "inputs": [],
      "name": "pullExistentials",
      "outputs": [
        {
          "internalType": "uint256[]",
          "name": "",
          "type": "uint256[]"
        }
      ],
      "stateMutability": "view",
      "type": "function"
    },
    {
      "inputs": [
        {
          "internalType": "address[]",
          "name": "tokens",
          "type": "address[]"
        },
        {
          "internalType": "uint256[]",
          "name": "tokenAmounts",
          "type": "uint256[]"
        },
        {
          "internalType": "bytes",
          "name": "options",
          "type": "bytes"
        }
      ],
      "name": "push",
      "outputs": [
        {
          "internalType": "uint256[]",
          "name": "actualTokenAmounts",
          "type": "uint256[]"
        }
      ],
      "stateMutability": "nonpayable",
      "type": "function"
    },
    {
      "inputs": [
        {
          "internalType": "address[]",
          "name": "tokens",
          "type": "address[]"
        }
      ],
      "name": "reclaimTokens",
      "outputs": [
        {
          "internalType": "uint256[]",
          "name": "actualTokenAmounts",
          "type": "uint256[]"
        }
      ],
      "stateMutability": "nonpayable",
      "type": "function"
    },
    {
      "inputs": [],
      "name": "router",
      "outputs": [
        {
          "internalType": "contract IRouter",
          "name": "",
          "type": "address"
        }
      ],
      "stateMutability": "view",
      "type": "function"
    },
    {
      "inputs": [
        {
          "internalType": "bytes4",
          "name": "interfaceId",
          "type": "bytes4"
        }
      ],
      "name": "supportsInterface",
      "outputs": [
        {
          "internalType": "bool",
          "name": "",
          "type": "bool"
        }
      ],
      "stateMutability": "view",
      "type": "function"
    },
    {
      "inputs": [
        {
          "internalType": "address",
          "name": "from",
          "type": "address"
        },
        {
          "internalType": "address[]",
          "name": "tokens",
          "type": "address[]"
        },
        {
          "internalType": "uint256[]",
          "name": "tokenAmounts",
          "type": "uint256[]"
        },
        {
          "internalType": "bytes",
          "name": "options",
          "type": "bytes"
        }
      ],
      "name": "transferAndPush",
      "outputs": [
        {
          "internalType": "uint256[]",
          "name": "actualTokenAmounts",
          "type": "uint256[]"
        }
      ],
      "stateMutability": "nonpayable",
      "type": "function"
    },
    {
      "inputs": [],
      "name": "tvl",
      "outputs": [
        {
          "internalType": "uint256[]",
          "name": "minTokenAmounts",
          "type": "uint256[]"
        },
        {
          "internalType": "uint256[]",
          "name": "maxTokenAmounts",
          "type": "uint256[]"
        }
      ],
      "stateMutability": "view",
      "type": "function"
    },
    {
      "inputs": [],
      "name": "updateFarmInfo",
      "outputs": [],
      "stateMutability": "nonpayable",
      "type": "function"
    },
    {
      "inputs": [],
      "name": "vaultGovernance",
      "outputs": [
        {
          "internalType": "contract IVaultGovernance",
          "name": "",
          "type": "address"
        }
      ],
      "stateMutability": "view",
      "type": "function"
    },
    {
      "inputs": [],
      "name": "vaultTokens",
      "outputs": [
        {
          "internalType": "address[]",
          "name": "",
          "type": "address[]"
        }
      ],
      "stateMutability": "view",
      "type": "function"
    }
  ],
  "bytecode": {
    "object": "0x6101006040523480156200001257600080fd5b50604051620060333803806200603383398101604081905262000035916200007c565b60016000556000196004556001600160a01b0393841660805291831660a052821660c0521660e052620000e4565b6001600160a01b03811681146200007957600080fd5b50565b600080600080608085870312156200009357600080fd5b8451620000a08162000063565b6020860151909450620000b38162000063565b6040860151909350620000c68162000063565b6060860151909250620000d98162000063565b939692955090935050565b60805160a05160c05160e051615e976200019c60003960006104c20152600081816101cd015281816120df015281816138b301526145f001526000818161050c01528181612cf601528181612d670152612e4601526000818161042001528181610a0201528181610a8701528181610c8501528181610d9501528181611eff0152818161283601528181612f9f01528181613070015281816139cc01528181613a3701528181613bc501526148540152615e976000f3fe6080604052600436106101815760003560e01c8063566ca6b4116100d1578063c91688921161008a578063ee11735511610064578063ee117355146104b0578063f1068454146104e4578063f887ea40146104fa578063fe255a5e1461052e57600080fd5b8063c916889214610458578063d2c219b014610478578063e5328e061461048d57600080fd5b8063566ca6b41461039b5780636719d376146103bb57806369722233146103d25780636fbed9e8146103f4578063791b98bc1461040e578063a7788fd91461044257600080fd5b806316f0115b1161013e5780632e2f4cc2116101185780632e2f4cc214610304578063338c4ccb1461032457806336e9332d1461035c57806347ccca021461037c57600080fd5b806316f0115b146102a45780632062d754146102c457806327a35e5a146102e457600080fd5b806301ffc9a71461018657806305cf2a44146101bb57806305e1c94214610207578063150b7a0214610234578063158ef93e1461026d5780631626ba7e14610284575b600080fd5b34801561019257600080fd5b506101a66101a1366004614cf9565b61054c565b60405190151581526020015b60405180910390f35b3480156101c757600080fd5b506101ef7f000000000000000000000000000000000000000000000000000000000000000081565b6040516001600160a01b0390911681526020016101b2565b34801561021357600080fd5b50610227610222366004614e53565b610578565b6040516101b29190614ec2565b34801561024057600080fd5b5061025461024f366004614f4d565b6109f5565b6040516001600160e01b031990911681526020016101b2565b34801561027957600080fd5b5060045415156101a6565b34801561029057600080fd5b5061025461029f366004614fb8565b610e16565b3480156102b057600080fd5b506006546101ef906001600160a01b031681565b3480156102d057600080fd5b506102276102df366004615059565b611163565b3480156102f057600080fd5b506102276102ff366004615059565b611607565b6103176103123660046150e7565b61178e565b6040516101b291906151d0565b34801561033057600080fd5b506101a661033f3660046151e3565b6001600160a01b0316600090815260036020526040902054151590565b34801561036857600080fd5b506008546101ef906001600160a01b031681565b34801561038857600080fd5b506004545b6040519081526020016101b2565b3480156103a757600080fd5b506102276103b6366004615200565b611a62565b3480156103c757600080fd5b506103d0611d32565b005b3480156103de57600080fd5b506103e7611e51565b6040516101b291906152c0565b34801561040057600080fd5b50600a546101a69060ff1681565b34801561041a57600080fd5b506101ef7f000000000000000000000000000000000000000000000000000000000000000081565b34801561044e57600080fd5b5061038d60075481565b34801561046457600080fd5b506103d06104733660046152e4565b611eb3565b34801561048457600080fd5b50610227612083565b34801561049957600080fd5b506104a26120da565b6040516101b292919061533e565b3480156104bc57600080fd5b506101ef7f000000000000000000000000000000000000000000000000000000000000000081565b3480156104f057600080fd5b5061038d60095481565b34801561050657600080fd5b506101ef7f000000000000000000000000000000000000000000000000000000000000000081565b34801561053a57600080fd5b506001546001600160a01b03166101ef565b60006105578261217b565b8061057257506001600160e01b03198216631289b52d60e11b145b92915050565b60606105826121c1565b6004805460408051808201909152918252631253925560e21b602083015290816105c85760405162461bcd60e51b81526004016105bf91906151d0565b60405180910390fd5b5060015460408051637ac46fbb60e01b815290516000926001600160a01b031691637ac46fbb916004808301926060929190829003018186803b15801561060e57600080fd5b505afa158015610622573d6000803e3d6000fd5b505050506040513d601f19601f82011682018060405250810190610646919061536c565b805160208201516040516331a9108f60e11b81526004810186905292935090916000906001600160a01b03831690636352211e9060240160206040518083038186803b15801561069557600080fd5b505afa1580156106a9573d6000803e3d6000fd5b505050506040513d601f19601f820116820180604052508101906106cd91906153cb565b905060006106dc83878461221b565b604051639bd0911b60e01b8152600060048201526001600160a01b039190911690639bd0911b9060240160206040518083038186803b15801561071e57600080fd5b505afa158015610732573d6000803e3d6000fd5b505050506040513d601f19601f8201168201806040525081019061075691906153cb565b905087516001600160401b0381111561077157610771614d16565b60405190808252806020026020018201604052801561079a578160200160208202803683370190505b5096506001600160a01b0381163014156107b9575050505050506109e6565b60005b88518110156109a3576107e78982815181106107da576107da6153e8565b60200260200101516122ee565b806108995750846001600160a01b03166363e85d2d8a838151811061080e5761080e6153e8565b60209081029190910101516040516001600160e01b031960e084901b1681526001600160a01b0390911660048201526002602482015260440160206040518083038186803b15801561085f57600080fd5b505afa158015610873573d6000803e3d6000fd5b505050506040513d601f19601f8201168201806040525081019061089791906153fe565b155b156108a357610993565b60008982815181106108b7576108b76153e8565b60209081029190910101516040516370a0823160e01b81523060048201529091506001600160a01b038216906370a082319060240160206040518083038186803b15801561090457600080fd5b505afa158015610918573d6000803e3d6000fd5b505050506040513d601f19601f8201168201806040525081019061093c9190615420565b89838151811061094e5761094e6153e8565b602002602001018181525050610991838a8481518110610970576109706153e8565b6020026020010151836001600160a01b03166123ca9092919063ffffffff16565b505b61099c8161544f565b90506107bc565b507f9efcb26e0cf572bd9171640e114f387cef91cd3e38532ed6b3f80c7f2e758f878189896040516109d79392919061546a565b60405180910390a15050505050505b6109f06001600055565b919050565b6000336001600160a01b037f000000000000000000000000000000000000000000000000000000000000000016148015610a335750610a3385612432565b6040518060400160405280600381526020016223292160e91b81525090610a6d5760405162461bcd60e51b81526004016105bf91906151d0565b5060405163133f757160e31b8152600481018490526000907f00000000000000000000000000000000000000000000000000000000000000006001600160a01b0316906399fbab88906024016101606040518083038186803b158015610ad257600080fd5b505afa158015610ae6573d6000803e3d6000fd5b505050506040513d601f19601f82011682018060405250810190610b0a9190615542565b9150506002600081548110610b2157610b216153e8565b60009182526020909120015481516001600160a01b039081169116148015610b7857506002600181548110610b5857610b586153e8565b60009182526020909120015460408201516001600160a01b039081169116145b8015610c165750600660009054906101000a90046001600160a01b03166001600160a01b031663c79a590e6040518163ffffffff1660e01b815260040160206040518083038186803b158015610bcd57600080fd5b505afa158015610be1573d6000803e3d6000fd5b505050506040513d601f19601f82011682018060405250810190610c059190615612565b62ffffff16816020015162ffffff16145b60405180604001604052806005815260200164494e56544f60d81b81525090610c525760405162461bcd60e51b81526004016105bf91906151d0565b5060075415610df557610c6b610c66612552565b6126da565b5060405163133f757160e31b8152600481018590526000907f00000000000000000000000000000000000000000000000000000000000000006001600160a01b0316906399fbab88906024016101606040518083038186803b158015610cd057600080fd5b505afa158015610ce4573d6000803e3d6000fd5b505050506040513d601f19601f82011682018060405250810190610d089190615542565b5090508060a001516001600160801b03166000148015610d2a575060c0810151155b6040518060400160405280600381526020016224a72b60e91b81525090610d645760405162461bcd60e51b81526004016105bf91906151d0565b506007546040516323b872dd60e01b81523060048201526001600160a01b03888116602483015260448201929092527f0000000000000000000000000000000000000000000000000000000000000000909116906323b872dd90606401600060405180830381600087803b158015610ddb57600080fd5b505af1158015610def573d6000803e3d6000fd5b50505050505b6007849055610e02612f63565b50630a85bd0160e11b90505b949350505050565b600080600160009054906101000a90046001600160a01b03166001600160a01b0316637ac46fbb6040518163ffffffff1660e01b815260040160606040518083038186803b158015610e6757600080fd5b505afa158015610e7b573d6000803e3d6000fd5b505050506040513d601f19601f82011682018060405250810190610e9f919061536c565b60208101518151600454929350909180610ec857506001600160e01b0319935061057292505050565b60405163020604bf60e21b8152600481018290526000906001600160a01b0385169063081812fc9060240160206040518083038186803b158015610f0b57600080fd5b505afa158015610f1f573d6000803e3d6000fd5b505050506040513d601f19601f82011682018060405250810190610f4391906153cb565b6040516363e85d2d60e01b81526001600160a01b03808316600483015260066024830152919250908416906363e85d2d9060440160206040518083038186803b158015610f8f57600080fd5b505afa158015610fa3573d6000803e3d6000fd5b505050506040513d601f19601f82011682018060405250810190610fc791906153fe565b610fe157506001600160e01b031994506105729350505050565b803b63ffffffff811615611114576040516301ffc9a760e01b8152630b135d3f60e11b60048201526001600160a01b038316906301ffc9a79060240160206040518083038186803b15801561103557600080fd5b505afa158015611049573d6000803e3d6000fd5b505050506040513d601f19601f8201168201806040525081019061106d91906153fe565b156110fd57604051630b135d3f60e11b81526001600160a01b03831690631626ba7e906110a0908c908c9060040161562f565b60206040518083038186803b1580156110b857600080fd5b505afa1580156110cc573d6000803e3d6000fd5b505050506040513d601f19601f820116820180604052508101906110f09190615648565b9650505050505050610572565b506001600160e01b03199550610572945050505050565b816001600160a01b03166111288a8a613252565b6001600160a01b0316141561114d5750630b135d3f60e11b9550610572945050505050565b506001600160e01b031998975050505050505050565b606061116d6121c1565b6004805460408051808201909152918252631253925560e21b602083015290816111aa5760405162461bcd60e51b81526004016105bf91906151d0565b506111b4336132d1565b6040518060400160405280600381526020016223292160e91b815250906111ee5760405162461bcd60e51b81526004016105bf91906151d0565b5060015460408051637ac46fbb60e01b815290516000926001600160a01b031691637ac46fbb916004808301926060929190829003018186803b15801561123457600080fd5b505afa158015611248573d6000803e3d6000fd5b505050506040513d601f19601f8201168201806040525081019061126c919061536c565b602001516040516331a9108f60e11b8152600481018490529091506000906001600160a01b03831690636352211e9060240160206040518083038186803b1580156112b657600080fd5b505afa1580156112ca573d6000803e3d6000fd5b505050506040513d601f19601f820116820180604052508101906112ee91906153cb565b905060006112fd83858461221b565b90506001600160a01b038216331461153a57604051639bd0911b60e01b8152600060048201819052906001600160a01b03831690639bd0911b9060240160206040518083038186803b15801561135257600080fd5b505afa158015611366573d6000803e3d6000fd5b505050506040513d601f19601f8201168201806040525081019061138a91906153cb565b90506001600160a01b0381163014156114e55760405163fcdabd2760e01b81526001600160a01b038b8116600483015280841691639d9fd0d99187169063fcdabd279060240160206040518083038186803b1580156113e857600080fd5b505afa1580156113fc573d6000803e3d6000fd5b505050506040513d601f19601f820116820180604052508101906114209190615420565b6040518263ffffffff1660e01b815260040161143e91815260200190565b60206040518083038186803b15801561145657600080fd5b505afa15801561146a573d6000803e3d6000fd5b505050506040513d601f19601f8201168201806040525081019061148e91906153fe565b80156114a357506001600160a01b038a163014155b6040518060400160405280600581526020016424a72b2a2960d91b815250906114df5760405162461bcd60e51b81526004016105bf91906151d0565b50611538565b896001600160a01b0316816001600160a01b0316146040518060400160405280600581526020016424a72b2a2960d91b815250906115365760405162461bcd60e51b81526004016105bf91906151d0565b505b505b6000611546898961348f565b905060006115558b838a61357b565b90506115bc8a60028054806020026020016040519081016040528092919081815260200182805480156115b157602002820191906000526020600020905b81546001600160a01b03168152600190910190602001808311611593575b50505050508361360b565b96507f54f9e6ef58e36de62f59f9ee6c4b878af84989c53a3642eba415ac3ac4e11cda8b886040516115ef929190615665565b60405180910390a1505050505050610e0e6001600055565b825160609060005b8181101561169a57848181518110611629576116296153e8565b602002602001015160001461168a5761168a873087848151811061164f5761164f6153e8565b6020026020010151898581518110611669576116696153e8565b60200260200101516001600160a01b031661382c909392919063ffffffff16565b6116938161544f565b905061160f565b506116a6858585611a62565b915060005b85518110156117845760008582815181106116c8576116c86153e8565b60200260200101518483815181106116e2576116e26153e8565b6020026020010151106116f6576000611734565b838281518110611708576117086153e8565b6020026020010151868381518110611722576117226153e8565b60200260200101516117349190615689565b90508015611773576117738882898581518110611753576117536153e8565b60200260200101516001600160a01b03166123ca9092919063ffffffff16565b5061177d8161544f565b90506116ab565b5050949350505050565b60606117986121c1565b6004805460408051808201909152918252631253925560e21b60208301526117d35760405162461bcd60e51b81526004016105bf91906151d0565b506117dd336132d1565b6040518060400160405280600381526020016223292160e91b815250906118175760405162461bcd60e51b81526004016105bf91906151d0565b5060015460408051637ac46fbb60e01b815290516000926001600160a01b031691637ac46fbb916004808301926060929190829003018186803b15801561185d57600080fd5b505afa158015611871573d6000803e3d6000fd5b505050506040513d601f19601f82011682018060405250810190611895919061536c565b51604051631f4a58fb60e31b81526001600160a01b03888116600483015291925060009183169063fa52c7d89060240160206040518083038186803b1580156118dd57600080fd5b505afa1580156118f1573d6000803e3d6000fd5b505050506040513d601f19601f8201168201806040525081019061191591906153cb565b60408051808201909152600381526223292160e91b60208201529091506001600160a01b0382166119595760405162461bcd60e51b81526004016105bf91906151d0565b50604051631796170d60e21b81526001600160a01b03821690635e585c34906119909033908b9034908c908c908c906004016156a0565b60006040518083038186803b1580156119a857600080fd5b505afa1580156119bc573d6000803e3d6000fd5b50505050600080886001600160a01b0316348989896040516020016119e393929190615705565b60408051601f19818403018152908290526119fd91615729565b60006040518083038185875af1925050503d8060008114611a3a576040519150601f19603f3d011682016040523d82523d6000602084013e611a3f565b606091505b509150915081611a525780518082602001fd5b60016000559350610e0e92505050565b6060611a6c6121c1565b6004805460408051808201909152918252631253925560e21b60208301529081611aa95760405162461bcd60e51b81526004016105bf91906151d0565b5060015460408051637ac46fbb60e01b815290516000926001600160a01b031691637ac46fbb916004808301926060929190829003018186803b158015611aef57600080fd5b505afa158015611b03573d6000803e3d6000fd5b505050506040513d601f19601f82011682018060405250810190611b27919061536c565b602001516040516331a9108f60e11b8152600481018490529091506000906001600160a01b03831690636352211e9060240160206040518083038186803b158015611b7157600080fd5b505afa158015611b85573d6000803e3d6000fd5b505050506040513d601f19601f82011682018060405250810190611ba991906153cb565b60405163fcdabd2760e01b81526001600160a01b03808316600483015291925060009184169063fcdabd279060240160206040518083038186803b158015611bf057600080fd5b505afa158015611c04573d6000803e3d6000fd5b505050506040513d601f19601f82011682018060405250810190611c289190615420565b604080518082019091526002815261272360f11b602082015290915081611c625760405162461bcd60e51b81526004016105bf91906151d0565b506000611c6f898961348f565b90506000611c7d828961386a565b9050611ce28a60028054806020026020016040519081016040528092919081815260200182805480156115b1576020028201919060005260206000209081546001600160a01b031681526001909101906020018083116115935750505050508361360b565b96507f08e404e978692dd1b8275016b7a7b0b3ae4afd06b0cec7228060bb2da18c84fd81604051611d139190614ec2565b60405180910390a1505050505050611d2b6001600055565b9392505050565b60015460048054604051630248cd6d60e31b8152918201526001600160a01b03909116906312466b689060240160006040518083038186803b158015611d7757600080fd5b505afa158015611d8b573d6000803e3d6000fd5b505050506040513d6000823e601f3d908101601f19168201604052611db39190810190615800565b51600880546001600160a01b0319166001600160a01b0392831617905560015460048054604051630248cd6d60e31b8152918201529116906312466b689060240160006040518083038186803b158015611e0c57600080fd5b505afa158015611e20573d6000803e3d6000fd5b505050506040513d6000823e601f3d908101601f19168201604052611e489190810190615800565b60400151600955565b60606002805480602002602001604051908101604052809291908181526020018280548015611ea957602002820191906000526020600020905b81546001600160a01b03168152600190910190602001808311611e8b575b5050505050905090565b81516002146040518060400160405280600381526020016224a72b60e91b81525090611ef25760405162461bcd60e51b81526004016105bf91906151d0565b50611efd8284613c19565b7f00000000000000000000000000000000000000000000000000000000000000006001600160a01b031663c45a01556040518163ffffffff1660e01b815260040160206040518083038186803b158015611f5657600080fd5b505afa158015611f6a573d6000803e3d6000fd5b505050506040513d601f19601f82011682018060405250810190611f8e91906153cb565b6001600160a01b0316631698ee8283600081518110611faf57611faf6153e8565b602002602001015184600181518110611fca57611fca6153e8565b60209081029190910101516040516001600160e01b031960e085901b1681526001600160a01b0392831660048201529116602482015262ffffff8416604482015260640160206040518083038186803b15801561202657600080fd5b505afa15801561203a573d6000803e3d6000fd5b505050506040513d601f19601f8201168201806040525081019061205e91906153cb565b600680546001600160a01b0319166001600160a01b0392909216919091179055505050565b60606005805480602002602001604051908101604052809291908181526020018280548015611ea957602002820191906000526020600020905b8154815260200190600101908083116120bd575050505050905090565b6060807f00000000000000000000000000000000000000000000000000000000000000006001600160a01b0316632765b2ce6040518163ffffffff1660e01b815260040160006040518083038186803b15801561213657600080fd5b505afa15801561214a573d6000803e3d6000fd5b505050506040513d6000823e601f3d908101601f1916820160405261217291908101906158e7565b90939092509050565b6000612186826140a4565b806121a157506001600160e01b03198216633d31d51d60e11b145b8061057257506001600160e01b03198216630b135d3f60e11b1492915050565b600260005414156122145760405162461bcd60e51b815260206004820152601f60248201527f5265656e7472616e637947756172643a207265656e7472616e742063616c6c0060448201526064016105bf565b6002600055565b60405163fcdabd2760e01b81526001600160a01b038281166004830152600091829186169063fcdabd279060240160206040518083038186803b15801561226157600080fd5b505afa158015612275573d6000803e3d6000fd5b505050506040513d601f19601f820116820180604052508101906122999190615420565b905083158015906122a957508015155b604051806040016040528060048152602001631253925560e21b815250906122e45760405162461bcd60e51b81526004016105bf91906151d0565b5091949350505050565b600080600280548060200260200160405190810160405280929190818152602001828054801561234757602002820191906000526020600020905b81546001600160a01b03168152600190910190602001808311612329575b5050505050905080600081518110612361576123616153e8565b60200260200101516001600160a01b0316836001600160a01b031614806123b3575080600181518110612396576123966153e8565b60200260200101516001600160a01b0316836001600160a01b0316145b156123c15750600092915050565b50600192915050565b6040516001600160a01b03831660248201526044810182905261242d90849063a9059cbb60e01b906064015b60408051601f198184030181529190526020810180516001600160e01b03166001600160e01b0319909316929092179091526140da565b505050565b6000816001600160a01b0316600160009054906101000a90046001600160a01b03166001600160a01b0316637ac46fbb6040518163ffffffff1660e01b815260040160606040518083038186803b15801561248c57600080fd5b505afa1580156124a0573d6000803e3d6000fd5b505050506040513d601f19601f820116820180604052508101906124c4919061536c565b602001516004805460405163020604bf60e21b8152918201526001600160a01b039091169063081812fc9060240160206040518083038186803b15801561250a57600080fd5b505afa15801561251e573d6000803e3d6000fd5b505050506040513d601f19601f8201168201806040525081019061254291906153cb565b6001600160a01b03161492915050565b600080600160009054906101000a90046001600160a01b03166001600160a01b0316637ac46fbb6040518163ffffffff1660e01b815260040160606040518083038186803b1580156125a357600080fd5b505afa1580156125b7573d6000803e3d6000fd5b505050506040513d601f19601f820116820180604052508101906125db919061536c565b60200151600480546040516331a9108f60e11b8152918201526001600160a01b0390911690636352211e9060240160206040518083038186803b15801561262157600080fd5b505afa158015612635573d6000803e3d6000fd5b505050506040513d601f19601f8201168201806040525081019061265991906153cb565b604051639bd0911b60e01b8152600060048201529091506001600160a01b03821690639bd0911b9060240160206040518083038186803b15801561269c57600080fd5b505afa1580156126b0573d6000803e3d6000fd5b505050506040513d601f19601f820116820180604052508101906126d491906153cb565b91505090565b60408051600280825260608083018452926020830190803683375050600854919250506001600160a01b031615806127125750600754155b806127205750600a5460ff16155b1561272a57919050565b600854600754600954604051636e0b454960e11b81526000936001600160a01b03169263dc168a929261276892600401918252602082015260400190565b60006040518083038186803b15801561278057600080fd5b505afa158015612794573d6000803e3d6000fd5b505050506040513d6000823e601f3d908101601f191682016040526127bc9190810190615940565b50600a805460ff19169055604080516001808252818301909252919350600092506020808301908036833701905050905060075481600081518110612803576128036153e8565b602090810291909101015260408051600180825281830190925260009181602001602082028036833701905050905060007f00000000000000000000000000000000000000000000000000000000000000006001600160a01b03166399fbab886007546040518263ffffffff1660e01b815260040161288491815260200190565b6101606040518083038186803b15801561289d57600080fd5b505afa1580156128b1573d6000803e3d6000fd5b505050506040513d601f19601f820116820180604052508101906128d59190615542565b5090508060a001516001600160801b0316826000815181106128f9576128f96153e8565b60209081029190910101526008546009546040516319ad699960e21b81526001600160a01b03909216916366b5a6649161293991879087906004016159a2565b600060405180830381600087803b15801561295357600080fd5b505af1158015612967573d6000803e3d6000fd5b5050600854604051634c1ecae760e11b81526001600160a01b03909116925063983d95ce915061299b908690600401614ec2565b600060405180830381600087803b1580156129b557600080fd5b505af11580156129c9573d6000803e3d6000fd5b5050600854600954604051632f380b3560e01b81526004810191909152600093506001600160a01b039091169150632f380b359060240160006040518083038186803b158015612a1857600080fd5b505afa158015612a2c573d6000803e3d6000fd5b505050506040513d6000823e601f3d908101601f19168201604052612a5491908101906159cf565b509750505050505050506000806002805480602002602001604051908101604052809291908181526020018280548015612ab757602002820191906000526020600020905b81546001600160a01b03168152600190910190602001808311612a99575b5050505050905060005b8351811015612f56576000805b8351811015612bab57838181518110612ae957612ae96153e8565b60200260200101516001600160a01b0316868481518110612b0c57612b0c6153e8565b60200260200101516001600160a01b03161415612b9b5760019150612b578c8b8581518110612b3d57612b3d6153e8565b6020026020010151888681518110611753576117536153e8565b898381518110612b6957612b696153e8565b60200260200101518b8281518110612b8357612b836153e8565b60200260200101818151612b979190615afa565b9052505b612ba48161544f565b9050612ace565b5080612f455760015460048054604051630248cd6d60e31b8152918201526000916001600160a01b0316906312466b689060240160006040518083038186803b158015612bf757600080fd5b505afa158015612c0b573d6000803e3d6000fd5b505050506040513d6000823e601f3d908101601f19168201604052612c339190810190615800565b602001518581518110612c4857612c486153e8565b602002602001015190506000868481518110612c6657612c666153e8565b60209081029190910101516040516370a0823160e01b81523060048201526001600160a01b03909116906370a082319060240160206040518083038186803b158015612cb157600080fd5b505afa158015612cc5573d6000803e3d6000fd5b505050506040513d601f19601f82011682018060405250810190612ce99190615420565b90508015612f3557612d487f000000000000000000000000000000000000000000000000000000000000000082898781518110612d2857612d286153e8565b60200260200101516001600160a01b03166141af9092919063ffffffff16565b6000612d618360148551612d5c9190615689565b61426b565b905060007f00000000000000000000000000000000000000000000000000000000000000006001600160a01b0316635d946c256040518060a00160405280878152602001306001600160a01b03168152602001426001612dc19190615afa565b815260200186815260200160008152506040518263ffffffff1660e01b8152600401612ded9190615b12565b602060405180830381600087803b158015612e0757600080fd5b505af1158015612e1b573d6000803e3d6000fd5b505050506040513d601f19601f82011682018060405250810190612e3f9190615420565b9050612e997f000000000000000000000000000000000000000000000000000000000000000060008b8981518110612e7957612e796153e8565b60200260200101516001600160a01b031661431f9092919063ffffffff16565b612eb78f82846001600160a01b03166123ca9092919063ffffffff16565b60005b8751811015612f3157826001600160a01b0316888281518110612edf57612edf6153e8565b60200260200101516001600160a01b03161415612f2157818f8281518110612f0957612f096153e8565b60200260200101818151612f1d9190615afa565b9052505b612f2a8161544f565b9050612eba565b5050505b612f40600187615afa565b955050505b50612f4f8161544f565b9050612ac1565b5050505050505050919050565b6008546001600160a01b03161580612f7b5750600754155b15612f8257565b60075460405163133f757160e31b81526000916001600160a01b037f000000000000000000000000000000000000000000000000000000000000000016916399fbab8891612fd69160040190815260200190565b6101606040518083038186803b158015612fef57600080fd5b505afa158015613003573d6000803e3d6000fd5b505050506040513d601f19601f820116820180604052508101906130279190615542565b5090508060a001516001600160801b0316600014156130435750565b60085460075460405163095ea7b360e01b81526001600160a01b03928316600482015260248101919091527f00000000000000000000000000000000000000000000000000000000000000009091169063095ea7b390604401600060405180830381600087803b1580156130b657600080fd5b505af11580156130ca573d6000803e3d6000fd5b5060009250600191506130da9050565b604051908082528060200260200182016040528015613103578160200160208202803683370190505b5090506007548160008151811061311c5761311c6153e8565b60209081029190910101526040805160018082528183019092526000918160200160208202803683370190505090508260a001516001600160801b03168160008151811061316c5761316c6153e8565b602090810291909101015260085460405163598b8e7160e01b81526001600160a01b039091169063598b8e71906131a7908590600401614ec2565b600060405180830381600087803b1580156131c157600080fd5b505af11580156131d5573d6000803e3d6000fd5b50506008546009546040516341e817ab60e01b81526001600160a01b0390921693506341e817ab925061320e91869086906004016159a2565b600060405180830381600087803b15801561322857600080fd5b505af115801561323c573d6000803e3d6000fd5b5050600a805460ff191660011790555050505050565b60008060008061326185614443565b6040805160008152602081018083528b905260ff8316918101919091526060810184905260808101839052929550909350915060019060a0016020604051602081039080840390855afa1580156132bc573d6000803e3d6000fd5b5050604051601f190151979650505050505050565b600080600160009054906101000a90046001600160a01b03166001600160a01b0316637ac46fbb6040518163ffffffff1660e01b815260040160606040518083038186803b15801561332257600080fd5b505afa158015613336573d6000803e3d6000fd5b505050506040513d601f19601f8201168201806040525081019061335a919061536c565b6020015160045490915080613373575060009392505050565b60405163020604bf60e21b8152600481018290526001600160a01b03808616919084169063081812fc9060240160206040518083038186803b1580156133b857600080fd5b505afa1580156133cc573d6000803e3d6000fd5b505050506040513d601f19601f820116820180604052508101906133f091906153cb565b6001600160a01b03161480610e0e57506040516331a9108f60e11b8152600481018290526001600160a01b038086169190841690636352211e9060240160206040518083038186803b15801561344557600080fd5b505afa158015613459573d6000803e3d6000fd5b505050506040513d601f19601f8201168201806040525081019061347d91906153cb565b6001600160a01b031614949350505050565b606061349a836144a7565b60405180604001604052806004815260200163494e564160e01b815250906134d55760405162461bcd60e51b81526004016105bf91906151d0565b5081518351146040518060400160405280600381526020016224a72b60e91b815250906135155760405162461bcd60e51b81526004016105bf91906151d0565b50611d2b600280548060200260200160405190810160405280929190818152602001828054801561356f57602002820191906000526020600020905b81546001600160a01b03168152600190910190602001808311613551575b5050505050848461360b565b60408051600280825260608083018452926020830190803683375050600754919250506135a757611d2b565b60006135b283614541565b90506135bf8585836145e9565b836000815181106135d2576135d26153e8565b60200260200101846001815181106135ec576135ec6153e8565b602090810291909101019190915252613603612f63565b509392505050565b6060600084516001600160401b0381111561362857613628614d16565b604051908082528060200260200182016040528015613651578160200160208202803683370190505b5090506000805b8651821080156136685750855181105b156137e75785818151811061367f5761367f6153e8565b60200260200101516001600160a01b03168783815181106136a2576136a26153e8565b60200260200101516001600160a01b031610156136ea5760008383815181106136cd576136cd6153e8565b6020908102919091010152816136e28161544f565b925050613658565b8581815181106136fc576136fc6153e8565b60200260200101516001600160a01b031687838151811061371f5761371f6153e8565b60200260200101516001600160a01b0316111561379857848181518110613748576137486153e8565b60200260200101516000141561376a57806137628161544f565b915050613658565b60405162461bcd60e51b815260206004820152600360248201526254505360e81b60448201526064016105bf565b8481815181106137aa576137aa6153e8565b60200260200101518383815181106137c4576137c46153e8565b6020908102919091010152816137d98161544f565b92505080806137629061544f565b8651821015613821576000838381518110613804576138046153e8565b6020908102919091010152816138198161544f565b9250506137e7565b509095945050505050565b6040516001600160a01b03808516602483015283166044820152606481018290526138649085906323b872dd60e01b906084016123f6565b50505050565b604080516002808252606080830184529260208301908036833750506007549192505061389657610572565b600654600754604051630edda83760e41b81526001600160a01b037f000000000000000000000000000000000000000000000000000000000000000081169363edda8370936138ee9389939290921691600401615b6a565b60206040518083038186803b15801561390657600080fd5b505afa15801561391a573d6000803e3d6000fd5b505050506040513d601f19601f8201168201806040525081019061393e9190615b98565b6001600160801b031661395057610572565b61395b610c66612552565b50600060028054806020026020016040519081016040528092919081815260200182805480156139b457602002820191906000526020600020905b81546001600160a01b03168152600190910190602001808311613996575b5050505050905060005b8151811015613a2757613a177f00000000000000000000000000000000000000000000000000000000000000008683815181106139fd576139fd6153e8565b6020026020010151848481518110612d2857612d286153e8565b613a208161544f565b90506139be565b506000613a3384614541565b90507f00000000000000000000000000000000000000000000000000000000000000006001600160a01b0316632f45d9b16040518060c00160405280600754815260200188600081518110613a8a57613a8a6153e8565b6020026020010151815260200188600181518110613aaa57613aaa6153e8565b6020908102919091018101518252855182820152858101516040808401919091528087015160609384015280516001600160e01b031960e087901b1681528451600482015291840151602483015283015160448201529082015160648201526080820151608482015260a09091015160a482015260c401608060405180830381600087803b158015613b3b57600080fd5b505af1158015613b4f573d6000803e3d6000fd5b505050506040513d601f19601f82011682018060405250810190613b739190615bb3565b909192505084600081518110613b8b57613b8b6153e8565b6020026020010185600181518110613ba557613ba56153e8565b60209081029190910101919091525260005b8251811015613c0857613bf87f00000000000000000000000000000000000000000000000000000000000000006000858481518110612e7957612e796153e8565b613c018161544f565b9050613bb7565b50613c11612f63565b505092915050565b6004805460408051808201909152918252631253925560e21b602083015215613c555760405162461bcd60e51b81526004016105bf91906151d0565b50613c5f826144a7565b60405180604001604052806004815260200163494e564160e01b81525090613c9a5760405162461bcd60e51b81526004016105bf91906151d0565b506040805180820190915260028152612b2d60f11b602082015281613cd25760405162461bcd60e51b81526004016105bf91906151d0565b506000336001600160a01b0316637ac46fbb6040518163ffffffff1660e01b815260040160606040518083038186803b158015613d0e57600080fd5b505afa158015613d22573d6000803e3d6000fd5b505050506040513d601f19601f82011682018060405250810190613d46919061536c565b51835190915015801590613dcb5750806001600160a01b03166378546fa26040518163ffffffff1660e01b815260040160206040518083038186803b158015613d8e57600080fd5b505afa158015613da2573d6000803e3d6000fd5b505050506040513d601f19601f82011682018060405250810190613dc69190615420565b835111155b6040518060400160405280600381526020016224a72b60e91b81525090613e055760405162461bcd60e51b81526004016105bf91906151d0565b5060005b8351811015613f0957816001600160a01b03166363e85d2d858381518110613e3357613e336153e8565b60209081029190910101516040516001600160e01b031960e084901b1681526001600160a01b0390911660048201526003602482015260440160206040518083038186803b158015613e8457600080fd5b505afa158015613e98573d6000803e3d6000fd5b505050506040513d601f19601f82011682018060405250810190613ebc91906153fe565b6040518060400160405280600381526020016223292160e91b81525090613ef65760405162461bcd60e51b81526004016105bf91906151d0565b5080613f018161544f565b915050613e09565b50600180546001600160a01b031916331790558251613f2f906002906020860190614c66565b50600482905560025460005b8181101561405f57613f4e816001615afa565b60036000878481518110613f6457613f646153e8565b60200260200101516001600160a01b03166001600160a01b03168152602001908152602001600020819055506000858281518110613fa457613fa46153e8565b6020026020010151905060056002826001600160a01b031663313ce5676040518163ffffffff1660e01b815260040160206040518083038186803b158015613feb57600080fd5b505afa158015613fff573d6000803e3d6000fd5b505050506040513d601f19601f820116820180604052508101906140239190615bf0565b61402d9190615c13565b61403890600a615d27565b81546001810183556000928352602090922090910155506140588161544f565b9050613f3b565b50604051339032907f0f043e55a1ce0d7ce25125ccbc2800b540d83e21abf7250f0156c2091a28b221906140969088908890615d36565b60405180910390a350505050565b60006301ffc9a760e01b6001600160e01b03198316148061057257506001600160e01b0319821663305a640b60e21b1492915050565b600061412f826040518060400160405280602081526020017f5361666545524332303a206c6f772d6c6576656c2063616c6c206661696c6564815250856001600160a01b0316614b469092919063ffffffff16565b905080516000148061415057508080602001905181019061415091906153fe565b61242d5760405162461bcd60e51b815260206004820152602a60248201527f5361666545524332303a204552433230206f7065726174696f6e20646964206e6044820152691bdd081cdd58d8d9595960b21b60648201526084016105bf565b604051636eb1769f60e11b81523060048201526001600160a01b0383811660248301526000919085169063dd62ed3e9060440160206040518083038186803b1580156141fa57600080fd5b505afa15801561420e573d6000803e3d6000fd5b505050506040513d601f19601f820116820180604052508101906142329190615420565b90506138648463095ea7b360e01b8561424b8686615afa565b6040516001600160a01b03909216602483015260448201526064016123f6565b600081614279816014615afa565b10156142bc5760405162461bcd60e51b8152602060048201526012602482015271746f416464726573735f6f766572666c6f7760701b60448201526064016105bf565b6142c7826014615afa565b8351101561430f5760405162461bcd60e51b8152602060048201526015602482015274746f416464726573735f6f75744f66426f756e647360581b60448201526064016105bf565b500160200151600160601b900490565b8015806143a85750604051636eb1769f60e11b81523060048201526001600160a01b03838116602483015284169063dd62ed3e9060440160206040518083038186803b15801561436e57600080fd5b505afa158015614382573d6000803e3d6000fd5b505050506040513d601f19601f820116820180604052508101906143a69190615420565b155b6144135760405162461bcd60e51b815260206004820152603660248201527f5361666545524332303a20617070726f76652066726f6d206e6f6e2d7a65726f60448201527520746f206e6f6e2d7a65726f20616c6c6f77616e636560501b60648201526084016105bf565b6040516001600160a01b03831660248201526044810182905261242d90849063095ea7b360e01b906064016123f6565b60008060008351604114604051806040016040528060048152602001631253959360e21b815250906144885760405162461bcd60e51b81526004016105bf91906151d0565b5050505060208101516040820151606090920151909260009190911a90565b60006002825110156144bb57506001919050565b60005b600183516144cc9190615689565b8110156123c157826144df826001615afa565b815181106144ef576144ef6153e8565b60200260200101516001600160a01b0316838281518110614512576145126153e8565b60200260200101516001600160a01b0316106145315750600092915050565b61453a8161544f565b90506144be565b61456560405180606001604052806000815260200160008152602001600081525090565b815161459557604080516060810182526000808252602082015290810161458d426001615afa565b905292915050565b81516060146040518060400160405280600381526020016224a72b60e91b815250906145d45760405162461bcd60e51b81526004016105bf91906151d0565b50818060200190518101906105729190615d58565b60008060007f00000000000000000000000000000000000000000000000000000000000000006001600160a01b0316634a9acd5f86866040518363ffffffff1660e01b815260040161463c929190615d94565b60006040518083038186803b15801561465457600080fd5b505afa158015614668573d6000803e3d6000fd5b505050506040513d6000823e601f3d908101601f191682016040526146909190810190615dcb565b9050600061469d876126da565b9050600060028054806020026020016040519081016040528092919081815260200182805480156146f757602002820191906000526020600020905b81546001600160a01b031681526001909101906020018083116146d9575b50505050509050600083511115614a315760008160008151811061471d5761471d6153e8565b60209081029190910101516040516370a0823160e01b81523060048201526001600160a01b03909116906370a082319060240160206040518083038186803b15801561476857600080fd5b505afa15801561477c573d6000803e3d6000fd5b505050506040513d601f19601f820116820180604052508101906147a09190615420565b90506000826001815181106147b7576147b76153e8565b60209081029190910101516040516370a0823160e01b81523060048201526001600160a01b03909116906370a082319060240160206040518083038186803b15801561480257600080fd5b505afa158015614816573d6000803e3d6000fd5b505050506040513d601f19601f8201168201806040525081019061483a9190615420565b604051631592ca1b60e31b81529091506001600160a01b037f0000000000000000000000000000000000000000000000000000000000000000169063ac9650d890614889908890600401615dff565b600060405180830381600087803b1580156148a357600080fd5b505af11580156148b7573d6000803e3d6000fd5b505050506040513d6000823e601f3d908101601f191682016040526148df9190810190615dcb565b506000836000815181106148f5576148f56153e8565b60209081029190910101516040516370a0823160e01b81523060048201526001600160a01b03909116906370a082319060240160206040518083038186803b15801561494057600080fd5b505afa158015614954573d6000803e3d6000fd5b505050506040513d601f19601f820116820180604052508101906149789190615420565b905060008460018151811061498f5761498f6153e8565b60209081029190910101516040516370a0823160e01b81523060048201526001600160a01b03909116906370a082319060240160206040518083038186803b1580156149da57600080fd5b505afa1580156149ee573d6000803e3d6000fd5b505050506040513d601f19601f82011682018060405250810190614a129190615420565b9050614a1e8483615689565b9850614a2a8382615689565b9750505050505b614a49888683600081518110611753576117536153e8565b614a61888583600181518110611753576117536153e8565b81600081518110614a7457614a746153e8565b602002602001015185614a879190615afa565b945081600181518110614a9c57614a9c6153e8565b602002602001015184614aaf9190615afa565b935086600081518110614ac457614ac46153e8565b60200260200101518511614ad85784614af4565b86600081518110614aeb57614aeb6153e8565b60200260200101515b945086600181518110614b0957614b096153e8565b60200260200101518411614b1d5783614b39565b86600181518110614b3057614b306153e8565b60200260200101515b9350505050935093915050565b6060610e0e848460008585600080866001600160a01b03168587604051614b6d9190615729565b60006040518083038185875af1925050503d8060008114614baa576040519150601f19603f3d011682016040523d82523d6000602084013e614baf565b606091505b5091509150614bc087838387614bcb565b979650505050505050565b60608315614c37578251614c30576001600160a01b0385163b614c305760405162461bcd60e51b815260206004820152601d60248201527f416464726573733a2063616c6c20746f206e6f6e2d636f6e747261637400000060448201526064016105bf565b5081610e0e565b610e0e8383815115614c4c5781518083602001fd5b8060405162461bcd60e51b81526004016105bf91906151d0565b828054828255906000526020600020908101928215614cbb579160200282015b82811115614cbb57825182546001600160a01b0319166001600160a01b03909116178255602090920191600190910190614c86565b50614cc7929150614ccb565b5090565b5b80821115614cc75760008155600101614ccc565b6001600160e01b031981168114614cf657600080fd5b50565b600060208284031215614d0b57600080fd5b8135611d2b81614ce0565b634e487b7160e01b600052604160045260246000fd5b604051606081016001600160401b0381118282101715614d4e57614d4e614d16565b60405290565b60405161010081016001600160401b0381118282101715614d4e57614d4e614d16565b604051601f8201601f191681016001600160401b0381118282101715614d9f57614d9f614d16565b604052919050565b60006001600160401b03821115614dc057614dc0614d16565b5060051b60200190565b6001600160a01b0381168114614cf657600080fd5b600082601f830112614df057600080fd5b81356020614e05614e0083614da7565b614d77565b82815260059290921b84018101918181019086841115614e2457600080fd5b8286015b84811015614e48578035614e3b81614dca565b8352918301918301614e28565b509695505050505050565b600060208284031215614e6557600080fd5b81356001600160401b03811115614e7b57600080fd5b610e0e84828501614ddf565b600081518084526020808501945080840160005b83811015614eb757815187529582019590820190600101614e9b565b509495945050505050565b602081526000611d2b6020830184614e87565b60006001600160401b03821115614eee57614eee614d16565b50601f01601f191660200190565b600082601f830112614f0d57600080fd5b8135614f1b614e0082614ed5565b818152846020838601011115614f3057600080fd5b816020850160208301376000918101602001919091529392505050565b60008060008060808587031215614f6357600080fd5b8435614f6e81614dca565b93506020850135614f7e81614dca565b92506040850135915060608501356001600160401b03811115614fa057600080fd5b614fac87828801614efc565b91505092959194509250565b60008060408385031215614fcb57600080fd5b8235915060208301356001600160401b03811115614fe857600080fd5b614ff485828601614efc565b9150509250929050565b600082601f83011261500f57600080fd5b8135602061501f614e0083614da7565b82815260059290921b8401810191818101908684111561503e57600080fd5b8286015b84811015614e485780358352918301918301615042565b6000806000806080858703121561506f57600080fd5b843561507a81614dca565b935060208501356001600160401b038082111561509657600080fd5b6150a288838901614ddf565b945060408701359150808211156150b857600080fd5b6150c488838901614ffe565b935060608701359150808211156150da57600080fd5b50614fac87828801614efc565b600080600080606085870312156150fd57600080fd5b843561510881614dca565b9350602085013561511881614ce0565b925060408501356001600160401b038082111561513457600080fd5b818701915087601f83011261514857600080fd5b81358181111561515757600080fd5b88602082850101111561516957600080fd5b95989497505060200194505050565b60005b8381101561519357818101518382015260200161517b565b838111156138645750506000910152565b600081518084526151bc816020860160208601615178565b601f01601f19169290920160200192915050565b602081526000611d2b60208301846151a4565b6000602082840312156151f557600080fd5b8135611d2b81614dca565b60008060006060848603121561521557600080fd5b83356001600160401b038082111561522c57600080fd5b61523887838801614ddf565b9450602086013591508082111561524e57600080fd5b61525a87838801614ffe565b9350604086013591508082111561527057600080fd5b5061527d86828701614efc565b9150509250925092565b600081518084526020808501945080840160005b83811015614eb75781516001600160a01b03168752958201959082019060010161529b565b602081526000611d2b6020830184615287565b62ffffff81168114614cf657600080fd5b6000806000606084860312156152f957600080fd5b8335925060208401356001600160401b0381111561531657600080fd5b61532286828701614ddf565b9250506040840135615333816152d3565b809150509250925092565b6040815260006153516040830185614e87565b82810360208401526153638185614e87565b95945050505050565b60006060828403121561537e57600080fd5b615386614d2c565b825161539181614dca565b815260208301516153a181614dca565b602082015260408301516153b481614dca565b60408201529392505050565b80516109f081614dca565b6000602082840312156153dd57600080fd5b8151611d2b81614dca565b634e487b7160e01b600052603260045260246000fd5b60006020828403121561541057600080fd5b81518015158114611d2b57600080fd5b60006020828403121561543257600080fd5b5051919050565b634e487b7160e01b600052601160045260246000fd5b600060001982141561546357615463615439565b5060010190565b6001600160a01b038416815260606020820181905260009061548e90830185615287565b82810360408401526154a08185614e87565b9695505050505050565b805169ffffffffffffffffffff811681146109f057600080fd5b8051600281900b81146109f057600080fd5b80516001600160801b03811681146109f057600080fd5b6000606082840312156154ff57600080fd5b615507614d2c565b9050815161551481614dca565b81526020820151615524816152d3565b6020820152604082015161553781614dca565b604082015292915050565b60008082840361016081121561555757600080fd5b6101008082121561556757600080fd5b61556f614d54565b915084516bffffffffffffffffffffffff8116811461558d57600080fd5b825261559b602086016153c0565b60208301526155ac604086016154aa565b60408301526155bd606086016154c4565b60608301526155ce608086016154c4565b60808301526155df60a086016154d6565b60a083015260c085015160c083015260e085015160e0830152819350615607868287016154ed565b925050509250929050565b60006020828403121561562457600080fd5b8151611d2b816152d3565b828152604060208201526000610e0e60408301846151a4565b60006020828403121561565a57600080fd5b8151611d2b81614ce0565b6001600160a01b0383168152604060208201819052600090610e0e90830184614e87565b60008282101561569b5761569b615439565b500390565b6001600160a01b03878116825286166020820152604081018590526001600160e01b03198416606082015260a06080820181905281018290526000828460c0840137600060c0848401015260c0601f19601f8501168301019050979650505050505050565b6001600160e01b031984168152818360048301376000910160040190815292915050565b6000825161573b818460208701615178565b9190910192915050565b600082601f83011261575657600080fd5b81516020615766614e0083614da7565b82815260059290921b8401810191818101908684111561578557600080fd5b8286015b84811015614e485780516001600160401b038111156157a85760008081fd5b8701603f810189136157ba5760008081fd5b8481015160406157cc614e0083614ed5565b8281528b828486010111156157e15760008081fd5b6157f083898301848701615178565b8652505050918301918301615789565b60006020828403121561581257600080fd5b81516001600160401b038082111561582957600080fd5b908301906060828603121561583d57600080fd5b615845614d2c565b825161585081614dca565b815260208301518281111561586457600080fd5b61587087828601615745565b6020830152506040830151604082015280935050505092915050565b600082601f83011261589d57600080fd5b815160206158ad614e0083614da7565b82815260059290921b840181019181810190868411156158cc57600080fd5b8286015b84811015614e4857805183529183019183016158d0565b600080604083850312156158fa57600080fd5b82516001600160401b038082111561591157600080fd5b61591d8683870161588c565b9350602085015191508082111561593357600080fd5b50614ff48582860161588c565b60008060006060848603121561595557600080fd5b8351925060208401516001600160401b038082111561597357600080fd5b61597f8783880161588c565b9350604086015191508082111561599557600080fd5b5061527d8682870161588c565b83815260606020820152600061548e6060830185614e87565b805163ffffffff811681146109f057600080fd5b60008060008060008060008060006101208a8c0312156159ee57600080fd5b89516159f981614dca565b9850615a0760208b016159bb565b9750615a1560408b016159bb565b9650615a2360608b016159bb565b955060808a0151945060a08a0151935060c08a0151925060e08a01516001600160401b0380821115615a5457600080fd5b818c0191508c601f830112615a6857600080fd5b8151615a76614e0082614da7565b8082825260208201915060208360051b86010192508f831115615a9857600080fd5b6020850194505b82851015615ac3578451615ab281614dca565b825260209485019490910190615a9f565b6101008f01519096509350505080821115615add57600080fd5b50615aea8c828d0161588c565b9150509295985092959850929598565b60008219821115615b0d57615b0d615439565b500190565b602081526000825160a06020840152615b2e60c08401826151a4565b905060018060a01b0360208501511660408401526040840151606084015260608401516080840152608084015160a08401528091505092915050565b606081526000615b7d6060830186614e87565b6001600160a01b039490941660208301525060400152919050565b600060208284031215615baa57600080fd5b611d2b826154d6565b60008060008060808587031215615bc957600080fd5b615bd2856154d6565b60208601516040870151606090970151919890975090945092505050565b600060208284031215615c0257600080fd5b815160ff81168114611d2b57600080fd5b600060ff831680615c3457634e487b7160e01b600052601260045260246000fd5b8060ff84160491505092915050565b600181815b80851115615c7e578160001904821115615c6457615c64615439565b80851615615c7157918102915b93841c9390800290615c48565b509250929050565b600082615c9557506001610572565b81615ca257506000610572565b8160018114615cb85760028114615cc257615cde565b6001915050610572565b60ff841115615cd357615cd3615439565b50506001821b610572565b5060208310610133831016604e8410600b8410161715615d01575081810a610572565b615d0b8383615c43565b8060001904821115615d1f57615d1f615439565b029392505050565b6000611d2b60ff841683615c86565b604081526000615d496040830185615287565b90508260208301529392505050565b600060608284031215615d6a57600080fd5b615d72614d2c565b8251815260208301516020820152604083015160408201528091505092915050565b608081526000615da76080830185614e87565b90508251602083015260208301516040830152604083015160608301529392505050565b600060208284031215615ddd57600080fd5b81516001600160401b03811115615df357600080fd5b610e0e84828501615745565b6000602080830181845280855180835260408601915060408160051b870101925083870160005b82811015615e5457603f19888603018452615e428583516151a4565b94509285019290850190600101615e26565b509297965050505050505056fea2646970667358221220f1f6121d45041a0a8cc42638effd9a93b84e7e76c71f969f81121fbb740e0a2664736f6c63430008090033",
    "linkReferences": {}
  },
  "methodIdentifiers": {
    "externalCall(address,bytes4,bytes)": "2e2f4cc2",
    "farm()": "36e9332d",
    "initialize(uint256,address[],uint24)": "c9168892",
    "initialized()": "158ef93e",
    "isLiquidityInFarm()": "6fbed9e8",
    "isValidSignature(bytes32,bytes)": "1626ba7e",
    "isVaultToken(address)": "338c4ccb",
    "kyberHelper()": "05cf2a44",
    "kyberNft()": "a7788fd9",
    "mellowOracle()": "ee117355",
    "nft()": "47ccca02",
    "onERC721Received(address,address,uint256,bytes)": "150b7a02",
    "pid()": "f1068454",
    "pool()": "16f0115b",
    "positionManager()": "791b98bc",
    "pull(address,address[],uint256[],bytes)": "2062d754",
    "pullExistentials()": "d2c219b0",
    "push(address[],uint256[],bytes)": "566ca6b4",
    "reclaimTokens(address[])": "05e1c942",
    "router()": "f887ea40",
    "supportsInterface(bytes4)": "01ffc9a7",
    "transferAndPush(address,address[],uint256[],bytes)": "27a35e5a",
    "tvl()": "e5328e06",
    "updateFarmInfo()": "6719d376",
    "vaultGovernance()": "fe255a5e",
    "vaultTokens()": "69722233"
  },
  "id": 466
}