{
  "abi": [
    {
      "inputs": [
        {
          "internalType": "contract IProtocolGovernance",
          "name": "protocolGovernance_",
          "type": "address"
        },
        {
          "internalType": "address",
          "name": "swapRouter_",
          "type": "address"
        },
        {
          "internalType": "contract IUniswapV2Factory",
          "name": "factory_",
          "type": "address"
        }
      ],
      "stateMutability": "nonpayable",
      "type": "constructor"
    },
    {
      "anonymous": false,
      "inputs": [
        {
          "indexed": true,
          "internalType": "address",
          "name": "origin",
          "type": "address"
        },
        {
          "indexed": true,
          "internalType": "address",
          "name": "sender",
          "type": "address"
        },
        {
          "components": [
            {
              "internalType": "contract IProtocolGovernance",
              "name": "protocolGovernance",
              "type": "address"
            }
          ],
          "indexed": false,
          "internalType": "struct IBaseValidator.ValidatorParams",
          "name": "params",
          "type": "tuple"
        }
      ],
      "name": "CommittedValidatorParams",
      "type": "event"
    },
    {
      "anonymous": false,
      "inputs": [
        {
          "indexed": true,
          "internalType": "address",
          "name": "origin",
          "type": "address"
        },
        {
          "indexed": true,
          "internalType": "address",
          "name": "sender",
          "type": "address"
        },
        {
          "components": [
            {
              "internalType": "contract IProtocolGovernance",
              "name": "protocolGovernance",
              "type": "address"
            }
          ],
          "indexed": false,
          "internalType": "struct IBaseValidator.ValidatorParams",
          "name": "newParams",
          "type": "tuple"
        },
        {
          "indexed": false,
          "internalType": "uint256",
          "name": "when",
          "type": "uint256"
        }
      ],
      "name": "StagedValidatorParams",
      "type": "event"
    },
    {
      "inputs": [],
      "name": "EXACT_ETH_INPUT_SELECTOR",
      "outputs": [
        {
          "internalType": "bytes4",
          "name": "",
          "type": "bytes4"
        }
      ],
      "stateMutability": "view",
      "type": "function"
    },
    {
      "inputs": [],
      "name": "EXACT_ETH_OUTPUT_SELECTOR",
      "outputs": [
        {
          "internalType": "bytes4",
          "name": "",
          "type": "bytes4"
        }
      ],
      "stateMutability": "view",
      "type": "function"
    },
    {
      "inputs": [],
      "name": "EXACT_INPUT_SELECTOR",
      "outputs": [
        {
          "internalType": "bytes4",
          "name": "",
          "type": "bytes4"
        }
      ],
      "stateMutability": "view",
      "type": "function"
    },
    {
      "inputs": [],
      "name": "EXACT_OUTPUT_SELECTOR",
      "outputs": [
        {
          "internalType": "bytes4",
          "name": "",
          "type": "bytes4"
        }
      ],
      "stateMutability": "view",
      "type": "function"
    },
    {
      "inputs": [],
      "name": "EXACT_TOKENS_INPUT_SELECTOR",
      "outputs": [
        {
          "internalType": "bytes4",
          "name": "",
          "type": "bytes4"
        }
      ],
      "stateMutability": "view",
      "type": "function"
    },
    {
      "inputs": [],
      "name": "EXACT_TOKENS_OUTPUT_SELECTOR",
      "outputs": [
        {
          "internalType": "bytes4",
          "name": "",
          "type": "bytes4"
        }
      ],
      "stateMutability": "view",
      "type": "function"
    },
    {
      "inputs": [],
      "name": "commitValidatorParams",
      "outputs": [],
      "stateMutability": "nonpayable",
      "type": "function"
    },
    {
      "inputs": [],
      "name": "contractName",
      "outputs": [
        {
          "internalType": "string",
          "name": "",
          "type": "string"
        }
      ],
      "stateMutability": "pure",
      "type": "function"
    },
    {
      "inputs": [],
      "name": "contractNameBytes",
      "outputs": [
        {
          "internalType": "bytes32",
          "name": "",
          "type": "bytes32"
        }
      ],
      "stateMutability": "pure",
      "type": "function"
    },
    {
      "inputs": [],
      "name": "contractVersion",
      "outputs": [
        {
          "internalType": "string",
          "name": "",
          "type": "string"
        }
      ],
      "stateMutability": "pure",
      "type": "function"
    },
    {
      "inputs": [],
      "name": "contractVersionBytes",
      "outputs": [
        {
          "internalType": "bytes32",
          "name": "",
          "type": "bytes32"
        }
      ],
      "stateMutability": "pure",
      "type": "function"
    },
    {
      "inputs": [],
      "name": "factory",
      "outputs": [
        {
          "internalType": "contract IUniswapV2Factory",
          "name": "",
          "type": "address"
        }
      ],
      "stateMutability": "view",
      "type": "function"
    },
    {
      "inputs": [
        {
          "components": [
            {
              "internalType": "contract IProtocolGovernance",
              "name": "protocolGovernance",
              "type": "address"
            }
          ],
          "internalType": "struct IBaseValidator.ValidatorParams",
          "name": "newParams",
          "type": "tuple"
        }
      ],
      "name": "stageValidatorParams",
      "outputs": [],
      "stateMutability": "nonpayable",
      "type": "function"
    },
    {
      "inputs": [],
      "name": "stagedValidatorParams",
      "outputs": [
        {
          "components": [
            {
              "internalType": "contract IProtocolGovernance",
              "name": "protocolGovernance",
              "type": "address"
            }
          ],
          "internalType": "struct IBaseValidator.ValidatorParams",
          "name": "",
          "type": "tuple"
        }
      ],
      "stateMutability": "view",
      "type": "function"
    },
    {
      "inputs": [],
      "name": "stagedValidatorParamsTimestamp",
      "outputs": [
        {
          "internalType": "uint256",
          "name": "",
          "type": "uint256"
        }
      ],
      "stateMutability": "view",
      "type": "function"
    },
    {
      "inputs": [
        {
          "internalType": "bytes4",
          "name": "interfaceId",
          "type": "bytes4"
        }
      ],
      "name": "supportsInterface",
      "outputs": [
        {
          "internalType": "bool",
          "name": "",
          "type": "bool"
        }
      ],
      "stateMutability": "view",
      "type": "function"
    },
    {
      "inputs": [],
      "name": "swapRouter",
      "outputs": [
        {
          "internalType": "address",
          "name": "",
          "type": "address"
        }
      ],
      "stateMutability": "view",
      "type": "function"
    },
    {
      "inputs": [
        {
          "internalType": "address",
          "name": "",
          "type": "address"
        },
        {
          "internalType": "address",
          "name": "addr",
          "type": "address"
        },
        {
          "internalType": "uint256",
          "name": "value",
          "type": "uint256"
        },
        {
          "internalType": "bytes4",
          "name": "selector",
          "type": "bytes4"
        },
        {
          "internalType": "bytes",
          "name": "data",
          "type": "bytes"
        }
      ],
      "name": "validate",
      "outputs": [],
      "stateMutability": "view",
      "type": "function"
    },
    {
      "inputs": [],
      "name": "validatorParams",
      "outputs": [
        {
          "components": [
            {
              "internalType": "contract IProtocolGovernance",
              "name": "protocolGovernance",
              "type": "address"
            }
          ],
          "internalType": "struct IBaseValidator.ValidatorParams",
          "name": "",
          "type": "tuple"
        }
      ],
      "stateMutability": "view",
      "type": "function"
    }
  ],
  "bytecode": {
    "object": "0x60c060405234801561001057600080fd5b506040516111bd3803806111bd83398101604081905261002f91610083565b60408051602081019091526001600160a01b0393841690819052600080546001600160a01b03191690911790559082166080521660a0526100d0565b6001600160a01b038116811461008057600080fd5b50565b60008060006060848603121561009857600080fd5b83516100a38161006b565b60208501519093506100b48161006b565b60408501519092506100c58161006b565b809150509250925092565b60805160a0516110ba610103600039600081816102d60152610a9c01526000818161029701526104e801526110ba6000f3fe608060405234801561001057600080fd5b50600436106101215760003560e01c80635e585c34116100ad578063a0a8e46011610071578063a0a8e4601461028a578063c31c9c0714610292578063c45a0155146102d1578063c8991b9e146102f8578063e6ab042c1461030657600080fd5b80635e585c341461023857806370655fa01461024b57806374ed429a1461025957806375d0c0dc14610267578063764ff9ee1461027c57600080fd5b80632da5f5c7116100f45780632da5f5c71461018557806337c85920146101ac57806347c0a4ed146101ba5780634c39da1b146101cf57806357acc3021461020e57600080fd5b806301ffc9a71461012657806306a462391461014e5780630768b496146101665780630e3e80ac1461016e575b600080fd5b610139610134366004610c7e565b61030e565b60405190151581526020015b60405180910390f35b640312e302e360dc1b5b604051908152602001610145565b600254610158565b6d2ab734ab192b30b634b230ba37b960911b610158565b610193632512eca560e11b81565b6040516001600160e01b03199091168152602001610145565b61019363fb3bdb4160e01b81565b6101cd6101c8366004610ca0565b61034a565b005b6040805160208082018352600090915281519081019091526001546001600160a01b031681525b60405190516001600160a01b03168152602001610145565b60408051602080820183526000918290528251908101909252546001600160a01b031681526101f6565b6101cd610246366004610cdb565b6104dc565b610193634401edf760e11b81565b610193637ff36ab560e01b81565b61026f6106b8565b6040516101459190610d8c565b6101936318cbafe560e01b81565b61026f6106d4565b6102b97f000000000000000000000000000000000000000000000000000000000000000081565b6040516001600160a01b039091168152602001610145565b6102b97f000000000000000000000000000000000000000000000000000000000000000081565b6101936338ed173960e01b81565b6101cd6106e7565b60006001600160e01b03198216631796170d60e21b148061033f57506301ffc9a760e01b6001600160e01b03198316145b92915050565b905090565b600054604051630935e01b60e21b81523360048201526001600160a01b039091169081906324d7806c9060240160206040518083038186803b15801561038f57600080fd5b505afa1580156103a3573d6000803e3d6000fd5b505050506040513d601f19601f820116820180604052508101906103c79190610de1565b6040518060400160405280600381526020016223292160e91b8152509061040a5760405162461bcd60e51b81526004016104019190610d8c565b60405180910390fd5b508160016104188282610e03565b905050806001600160a01b031663bba329396040518163ffffffff1660e01b815260040160206040518083038186803b15801561045457600080fd5b505afa158015610468573d6000803e3d6000fd5b505050506040513d601f19601f8201168201806040525081019061048c9190610e2c565b6104969042610e5b565b6002819055604051339132917f660ad6a797f71286627569396d4046567822701c6afd27f47d280dee5e2ce181916104d091879190610e73565b60405180910390a35050565b846001600160a01b03167f00000000000000000000000000000000000000000000000000000000000000006001600160a01b0316146040518060400160405280600581526020016424a72b2a2960d91b8152509061054d5760405162461bcd60e51b81526004016104019190610d8c565b5033606060006001600160e01b03198616637ff36ab560e01b148061058257506001600160e01b0319861663fb3bdb4160e01b145b156105a05761059384860186610f53565b50909350915061068e9050565b6001600160e01b03198616632512eca560e11b14806105cf57506001600160e01b031986166318cbafe560e01b145b806105ea57506001600160e01b031986166338ed173960e01b145b8061060557506001600160e01b03198616634401edf760e11b145b1561065e5760408051808201909152600381526224a72b60e91b602082015287156106435760405162461bcd60e51b81526004016104019190610d8c565b5061065084860186610fb4565b50909450925061068e915050565b604080518082018252600480825263494e565360e01b6020830152915162461bcd60e51b81526104019201610d8c565b6001600160a01b03811633146106a357600080fd5b6106ad8383610884565b505050505050505050565b60606103456d2ab734ab192b30b634b230ba37b960911b610bf5565b6060610345640312e302e360dc1b610bf5565b60025460408051808201909152600581526412539594d560da1b6020820152906107245760405162461bcd60e51b81526004016104019190610d8c565b50600054604051630935e01b60e21b81523360048201526001600160a01b039091169081906324d7806c9060240160206040518083038186803b15801561076a57600080fd5b505afa15801561077e573d6000803e3d6000fd5b505050506040513d601f19601f820116820180604052508101906107a29190610de1565b6040518060400160405280600381526020016223292160e91b815250906107dc5760405162461bcd60e51b81526004016104019190610d8c565b5060025442101560405180604001604052806002815260200161545360f01b8152509061081c5760405162461bcd60e51b81526004016104019190610d8c565b5060018054600080546001600160a01b0383166001600160a01b0319918216811783559216909255600291909155604051908152339032907f15f858bb04b5aa79f0fafddd94b014ab8bf8ceae94724b7074c7b4940be688b49060200160405180910390a350565b6001815111604051806040016040528060048152602001631253959360e21b815250906108c45760405162461bcd60e51b81526004016104019190610d8c565b50816001600160a01b031663338c4ccb82600184516108e3919061101f565b815181106108f3576108f3611036565b60200260200101516040518263ffffffff1660e01b815260040161092691906001600160a01b0391909116815260200190565b60206040518083038186803b15801561093e57600080fd5b505afa158015610952573d6000803e3d6000fd5b505050506040513d601f19601f820116820180604052508101906109769190610de1565b60405180604001604052806005815260200164494e56544f60d81b815250906109b25760405162461bcd60e51b81526004016104019190610d8c565b50600080546001600160a01b0316905b600183516109d0919061101f565b811015610bef5760008382815181106109eb576109eb611036565b60200260200101519050600084836001610a059190610e5b565b81518110610a1557610a15611036565b60200260200101519050806001600160a01b0316826001600160a01b0316141560405180604001604052806005815260200164494e56544f60d81b81525090610a715760405162461bcd60e51b81526004016104019190610d8c565b5060405163e6a4390560e01b81526001600160a01b03838116600483015282811660248301526000917f00000000000000000000000000000000000000000000000000000000000000009091169063e6a439059060440160206040518083038186803b158015610ae057600080fd5b505afa158015610af4573d6000803e3d6000fd5b505050506040513d601f19601f82011682018060405250810190610b18919061104c565b6040516363e85d2d60e01b81526001600160a01b038083166004808401919091526024830152919250908616906363e85d2d9060440160206040518083038186803b158015610b6657600080fd5b505afa158015610b7a573d6000803e3d6000fd5b505050506040513d601f19601f82011682018060405250810190610b9e9190610de1565b6040518060400160405280600381526020016223292160e91b81525090610bd85760405162461bcd60e51b81526004016104019190610d8c565b505050508080610be790611069565b9150506109c2565b50505050565b604080516020808252818301909252606091602082018180368337019050509050602060005b6020811015610c5357838160208110610c3657610c36611036565b1a610c4357809150610c53565b610c4c81611069565b9050610c1b565b508152602081019190915290565b80356001600160e01b031981168114610c7957600080fd5b919050565b600060208284031215610c9057600080fd5b610c9982610c61565b9392505050565b600060208284031215610cb257600080fd5b50919050565b6001600160a01b0381168114610ccd57600080fd5b50565b8035610c7981610cb8565b60008060008060008060a08789031215610cf457600080fd5b8635610cff81610cb8565b95506020870135610d0f81610cb8565b945060408701359350610d2460608801610c61565b9250608087013567ffffffffffffffff80821115610d4157600080fd5b818901915089601f830112610d5557600080fd5b813581811115610d6457600080fd5b8a6020828501011115610d7657600080fd5b6020830194508093505050509295509295509295565b600060208083528351808285015260005b81811015610db957858101830151858201604001528201610d9d565b81811115610dcb576000604083870101525b50601f01601f1916929092016040019392505050565b600060208284031215610df357600080fd5b81518015158114610c9957600080fd5b8135610e0e81610cb8565b81546001600160a01b0319166001600160a01b039190911617905550565b600060208284031215610e3e57600080fd5b5051919050565b634e487b7160e01b600052601160045260246000fd5b60008219821115610e6e57610e6e610e45565b500190565b604081018335610e8281610cb8565b6001600160a01b03168252602090910191909152919050565b634e487b7160e01b600052604160045260246000fd5b600082601f830112610ec257600080fd5b8135602067ffffffffffffffff80831115610edf57610edf610e9b565b8260051b604051601f19603f83011681018181108482111715610f0457610f04610e9b565b604052938452858101830193838101925087851115610f2257600080fd5b83870191505b84821015610f4857610f3982610cd0565b83529183019190830190610f28565b979650505050505050565b60008060008060808587031215610f6957600080fd5b84359350602085013567ffffffffffffffff811115610f8757600080fd5b610f9387828801610eb1565b9350506040850135610fa481610cb8565b9396929550929360600135925050565b600080600080600060a08688031215610fcc57600080fd5b8535945060208601359350604086013567ffffffffffffffff811115610ff157600080fd5b610ffd88828901610eb1565b935050606086013561100e81610cb8565b949793965091946080013592915050565b60008282101561103157611031610e45565b500390565b634e487b7160e01b600052603260045260246000fd5b60006020828403121561105e57600080fd5b8151610c9981610cb8565b600060001982141561107d5761107d610e45565b506001019056fea26469706673582212208d4faded66700f1281b20d9c50824847b460211b372dc42844437e04bed32fa064736f6c63430008090033",
    "linkReferences": {}
  },
  "methodIdentifiers": {
    "EXACT_ETH_INPUT_SELECTOR()": "74ed429a",
    "EXACT_ETH_OUTPUT_SELECTOR()": "2da5f5c7",
    "EXACT_INPUT_SELECTOR()": "c8991b9e",
    "EXACT_OUTPUT_SELECTOR()": "70655fa0",
    "EXACT_TOKENS_INPUT_SELECTOR()": "764ff9ee",
    "EXACT_TOKENS_OUTPUT_SELECTOR()": "37c85920",
    "commitValidatorParams()": "e6ab042c",
    "contractName()": "75d0c0dc",
    "contractNameBytes()": "0e3e80ac",
    "contractVersion()": "a0a8e460",
    "contractVersionBytes()": "06a46239",
    "factory()": "c45a0155",
    "stageValidatorParams((address))": "47c0a4ed",
    "stagedValidatorParams()": "4c39da1b",
    "stagedValidatorParamsTimestamp()": "0768b496",
    "supportsInterface(bytes4)": "01ffc9a7",
    "swapRouter()": "c31c9c07",
    "validate(address,address,uint256,bytes4,bytes)": "5e585c34",
    "validatorParams()": "57acc302"
  },
  "id": 442
}