{
  "abi": [
    {
      "inputs": [
        {
          "internalType": "contract IAlgebraNonfungiblePositionManager",
          "name": "positionManager_",
          "type": "address"
        }
      ],
      "stateMutability": "nonpayable",
      "type": "constructor"
    },
    {
      "anonymous": false,
      "inputs": [
        {
          "indexed": false,
          "internalType": "uint256",
          "name": "tokenId",
          "type": "uint256"
        }
      ],
      "name": "PositionBurned",
      "type": "event"
    },
    {
      "anonymous": false,
      "inputs": [
        {
          "indexed": false,
          "internalType": "uint256",
          "name": "tokenId",
          "type": "uint256"
        }
      ],
      "name": "PositionMinted",
      "type": "event"
    },
    {
      "anonymous": false,
      "inputs": [
        {
          "indexed": true,
          "internalType": "address",
          "name": "origin",
          "type": "address"
        },
        {
          "indexed": true,
          "internalType": "address",
          "name": "sender",
          "type": "address"
        }
      ],
      "name": "Rebalance",
      "type": "event"
    },
    {
      "anonymous": false,
      "inputs": [
        {
          "indexed": true,
          "internalType": "bytes32",
          "name": "role",
          "type": "bytes32"
        },
        {
          "indexed": true,
          "internalType": "bytes32",
          "name": "previousAdminRole",
          "type": "bytes32"
        },
        {
          "indexed": true,
          "internalType": "bytes32",
          "name": "newAdminRole",
          "type": "bytes32"
        }
      ],
      "name": "RoleAdminChanged",
      "type": "event"
    },
    {
      "anonymous": false,
      "inputs": [
        {
          "indexed": true,
          "internalType": "bytes32",
          "name": "role",
          "type": "bytes32"
        },
        {
          "indexed": true,
          "internalType": "address",
          "name": "account",
          "type": "address"
        },
        {
          "indexed": true,
          "internalType": "address",
          "name": "sender",
          "type": "address"
        }
      ],
      "name": "RoleGranted",
      "type": "event"
    },
    {
      "anonymous": false,
      "inputs": [
        {
          "indexed": true,
          "internalType": "bytes32",
          "name": "role",
          "type": "bytes32"
        },
        {
          "indexed": true,
          "internalType": "address",
          "name": "account",
          "type": "address"
        },
        {
          "indexed": true,
          "internalType": "address",
          "name": "sender",
          "type": "address"
        }
      ],
      "name": "RoleRevoked",
      "type": "event"
    },
    {
      "anonymous": false,
      "inputs": [
        {
          "indexed": false,
          "internalType": "uint256",
          "name": "amountIn",
          "type": "uint256"
        },
        {
          "indexed": false,
          "internalType": "uint256",
          "name": "amountOut",
          "type": "uint256"
        },
        {
          "indexed": false,
          "internalType": "uint256",
          "name": "tokenInIndex",
          "type": "uint256"
        }
      ],
      "name": "TokensSwapped",
      "type": "event"
    },
    {
      "anonymous": false,
      "inputs": [
        {
          "indexed": true,
          "internalType": "address",
          "name": "origin",
          "type": "address"
        },
        {
          "indexed": true,
          "internalType": "address",
          "name": "sender",
          "type": "address"
        },
        {
          "components": [
            {
              "internalType": "int24",
              "name": "priceImpactD6",
              "type": "int24"
            },
            {
              "internalType": "int24",
              "name": "intervalWidth",
              "type": "int24"
            },
            {
              "internalType": "int24",
              "name": "tickNeighborhood",
              "type": "int24"
            },
            {
              "internalType": "int24",
              "name": "maxDeviationForVaultPool",
              "type": "int24"
            },
            {
              "internalType": "uint32",
              "name": "timespanForAverageTick",
              "type": "uint32"
            },
            {
              "internalType": "uint256",
              "name": "amount0Desired",
              "type": "uint256"
            },
            {
              "internalType": "uint256",
              "name": "amount1Desired",
              "type": "uint256"
            },
            {
              "internalType": "uint256",
              "name": "swapSlippageD",
              "type": "uint256"
            },
            {
              "internalType": "uint256",
              "name": "swappingAmountsCoefficientD",
              "type": "uint256"
            },
            {
              "internalType": "uint256[]",
              "name": "minSwapAmounts",
              "type": "uint256[]"
            }
          ],
          "indexed": false,
          "internalType": "struct QuickPulseStrategy.MutableParams",
          "name": "mutableParams",
          "type": "tuple"
        }
      ],
      "name": "UpdateMutableParams",
      "type": "event"
    },
    {
      "inputs": [],
      "name": "ADMIN_DELEGATE_ROLE",
      "outputs": [
        {
          "internalType": "bytes32",
          "name": "",
          "type": "bytes32"
        }
      ],
      "stateMutability": "view",
      "type": "function"
    },
    {
      "inputs": [],
      "name": "ADMIN_ROLE",
      "outputs": [
        {
          "internalType": "bytes32",
          "name": "",
          "type": "bytes32"
        }
      ],
      "stateMutability": "view",
      "type": "function"
    },
    {
      "inputs": [],
      "name": "D6",
      "outputs": [
        {
          "internalType": "uint256",
          "name": "",
          "type": "uint256"
        }
      ],
      "stateMutability": "view",
      "type": "function"
    },
    {
      "inputs": [],
      "name": "D9",
      "outputs": [
        {
          "internalType": "uint256",
          "name": "",
          "type": "uint256"
        }
      ],
      "stateMutability": "view",
      "type": "function"
    },
    {
      "inputs": [],
      "name": "DEFAULT_ADMIN_ROLE",
      "outputs": [
        {
          "internalType": "bytes32",
          "name": "",
          "type": "bytes32"
        }
      ],
      "stateMutability": "view",
      "type": "function"
    },
    {
      "inputs": [],
      "name": "OPERATOR",
      "outputs": [
        {
          "internalType": "bytes32",
          "name": "",
          "type": "bytes32"
        }
      ],
      "stateMutability": "view",
      "type": "function"
    },
    {
      "inputs": [],
      "name": "Q96",
      "outputs": [
        {
          "internalType": "uint256",
          "name": "",
          "type": "uint256"
        }
      ],
      "stateMutability": "view",
      "type": "function"
    },
    {
      "inputs": [],
      "name": "algebraPool",
      "outputs": [
        {
          "internalType": "contract IAlgebraPool",
          "name": "",
          "type": "address"
        }
      ],
      "stateMutability": "view",
      "type": "function"
    },
    {
      "inputs": [
        {
          "components": [
            {
              "internalType": "address",
              "name": "router",
              "type": "address"
            },
            {
              "internalType": "contract IERC20Vault",
              "name": "erc20Vault",
              "type": "address"
            },
            {
              "internalType": "contract IQuickSwapVault",
              "name": "quickSwapVault",
              "type": "address"
            },
            {
              "internalType": "address[]",
              "name": "tokens",
              "type": "address[]"
            }
          ],
          "internalType": "struct QuickPulseStrategy.ImmutableParams",
          "name": "immutableParams_",
          "type": "tuple"
        },
        {
          "components": [
            {
              "internalType": "int24",
              "name": "priceImpactD6",
              "type": "int24"
            },
            {
              "internalType": "int24",
              "name": "intervalWidth",
              "type": "int24"
            },
            {
              "internalType": "int24",
              "name": "tickNeighborhood",
              "type": "int24"
            },
            {
              "internalType": "int24",
              "name": "maxDeviationForVaultPool",
              "type": "int24"
            },
            {
              "internalType": "uint32",
              "name": "timespanForAverageTick",
              "type": "uint32"
            },
            {
              "internalType": "uint256",
              "name": "amount0Desired",
              "type": "uint256"
            },
            {
              "internalType": "uint256",
              "name": "amount1Desired",
              "type": "uint256"
            },
            {
              "internalType": "uint256",
              "name": "swapSlippageD",
              "type": "uint256"
            },
            {
              "internalType": "uint256",
              "name": "swappingAmountsCoefficientD",
              "type": "uint256"
            },
            {
              "internalType": "uint256[]",
              "name": "minSwapAmounts",
              "type": "uint256[]"
            }
          ],
          "internalType": "struct QuickPulseStrategy.MutableParams",
          "name": "mutableParams_",
          "type": "tuple"
        },
        {
          "internalType": "uint256",
          "name": "priceX96",
          "type": "uint256"
        },
        {
          "internalType": "uint256",
          "name": "targetRatioOfToken1X96",
          "type": "uint256"
        }
      ],
      "name": "calculateAmountsForSwap",
      "outputs": [
        {
          "internalType": "uint256",
          "name": "tokenInIndex",
          "type": "uint256"
        },
        {
          "internalType": "uint256",
          "name": "amountIn",
          "type": "uint256"
        }
      ],
      "stateMutability": "view",
      "type": "function"
    },
    {
      "inputs": [
        {
          "components": [
            {
              "internalType": "int24",
              "name": "priceImpactD6",
              "type": "int24"
            },
            {
              "internalType": "int24",
              "name": "intervalWidth",
              "type": "int24"
            },
            {
              "internalType": "int24",
              "name": "tickNeighborhood",
              "type": "int24"
            },
            {
              "internalType": "int24",
              "name": "maxDeviationForVaultPool",
              "type": "int24"
            },
            {
              "internalType": "uint32",
              "name": "timespanForAverageTick",
              "type": "uint32"
            },
            {
              "internalType": "uint256",
              "name": "amount0Desired",
              "type": "uint256"
            },
            {
              "internalType": "uint256",
              "name": "amount1Desired",
              "type": "uint256"
            },
            {
              "internalType": "uint256",
              "name": "swapSlippageD",
              "type": "uint256"
            },
            {
              "internalType": "uint256",
              "name": "swappingAmountsCoefficientD",
              "type": "uint256"
            },
            {
              "internalType": "uint256[]",
              "name": "minSwapAmounts",
              "type": "uint256[]"
            }
          ],
          "internalType": "struct QuickPulseStrategy.MutableParams",
          "name": "mutableParams_",
          "type": "tuple"
        },
        {
          "internalType": "int24",
          "name": "spotTick",
          "type": "int24"
        },
        {
          "internalType": "contract IAlgebraPool",
          "name": "pool",
          "type": "address"
        },
        {
          "internalType": "uint256",
          "name": "positionNft",
          "type": "uint256"
        }
      ],
      "name": "calculateNewPosition",
      "outputs": [
        {
          "components": [
            {
              "internalType": "int24",
              "name": "lowerTick",
              "type": "int24"
            },
            {
              "internalType": "int24",
              "name": "upperTick",
              "type": "int24"
            }
          ],
          "internalType": "struct QuickPulseStrategy.Interval",
          "name": "newInterval",
          "type": "tuple"
        },
        {
          "internalType": "bool",
          "name": "neededNewInterval",
          "type": "bool"
        }
      ],
      "stateMutability": "view",
      "type": "function"
    },
    {
      "inputs": [
        {
          "components": [
            {
              "internalType": "int24",
              "name": "lowerTick",
              "type": "int24"
            },
            {
              "internalType": "int24",
              "name": "upperTick",
              "type": "int24"
            }
          ],
          "internalType": "struct QuickPulseStrategy.Interval",
          "name": "interval",
          "type": "tuple"
        },
        {
          "internalType": "uint160",
          "name": "sqrtSpotPriceX96",
          "type": "uint160"
        },
        {
          "internalType": "uint256",
          "name": "spotPriceX96",
          "type": "uint256"
        }
      ],
      "name": "calculateTargetRatioOfToken1",
      "outputs": [
        {
          "internalType": "uint256",
          "name": "targetRatioOfToken1X96",
          "type": "uint256"
        }
      ],
      "stateMutability": "pure",
      "type": "function"
    },
    {
      "inputs": [
        {
          "components": [
            {
              "internalType": "address",
              "name": "router",
              "type": "address"
            },
            {
              "internalType": "contract IERC20Vault",
              "name": "erc20Vault",
              "type": "address"
            },
            {
              "internalType": "contract IQuickSwapVault",
              "name": "quickSwapVault",
              "type": "address"
            },
            {
              "internalType": "address[]",
              "name": "tokens",
              "type": "address[]"
            }
          ],
          "internalType": "struct QuickPulseStrategy.ImmutableParams",
          "name": "params",
          "type": "tuple"
        }
      ],
      "name": "checkImmutableParams",
      "outputs": [],
      "stateMutability": "view",
      "type": "function"
    },
    {
      "inputs": [
        {
          "components": [
            {
              "internalType": "int24",
              "name": "priceImpactD6",
              "type": "int24"
            },
            {
              "internalType": "int24",
              "name": "intervalWidth",
              "type": "int24"
            },
            {
              "internalType": "int24",
              "name": "tickNeighborhood",
              "type": "int24"
            },
            {
              "internalType": "int24",
              "name": "maxDeviationForVaultPool",
              "type": "int24"
            },
            {
              "internalType": "uint32",
              "name": "timespanForAverageTick",
              "type": "uint32"
            },
            {
              "internalType": "uint256",
              "name": "amount0Desired",
              "type": "uint256"
            },
            {
              "internalType": "uint256",
              "name": "amount1Desired",
              "type": "uint256"
            },
            {
              "internalType": "uint256",
              "name": "swapSlippageD",
              "type": "uint256"
            },
            {
              "internalType": "uint256",
              "name": "swappingAmountsCoefficientD",
              "type": "uint256"
            },
            {
              "internalType": "uint256[]",
              "name": "minSwapAmounts",
              "type": "uint256[]"
            }
          ],
          "internalType": "struct QuickPulseStrategy.MutableParams",
          "name": "params",
          "type": "tuple"
        }
      ],
      "name": "checkMutableParams",
      "outputs": [],
      "stateMutability": "view",
      "type": "function"
    },
    {
      "inputs": [
        {
          "components": [
            {
              "internalType": "int24",
              "name": "priceImpactD6",
              "type": "int24"
            },
            {
              "internalType": "int24",
              "name": "intervalWidth",
              "type": "int24"
            },
            {
              "internalType": "int24",
              "name": "tickNeighborhood",
              "type": "int24"
            },
            {
              "internalType": "int24",
              "name": "maxDeviationForVaultPool",
              "type": "int24"
            },
            {
              "internalType": "uint32",
              "name": "timespanForAverageTick",
              "type": "uint32"
            },
            {
              "internalType": "uint256",
              "name": "amount0Desired",
              "type": "uint256"
            },
            {
              "internalType": "uint256",
              "name": "amount1Desired",
              "type": "uint256"
            },
            {
              "internalType": "uint256",
              "name": "swapSlippageD",
              "type": "uint256"
            },
            {
              "internalType": "uint256",
              "name": "swappingAmountsCoefficientD",
              "type": "uint256"
            },
            {
              "internalType": "uint256[]",
              "name": "minSwapAmounts",
              "type": "uint256[]"
            }
          ],
          "internalType": "struct QuickPulseStrategy.MutableParams",
          "name": "mutableParams_",
          "type": "tuple"
        },
        {
          "internalType": "contract IAlgebraPool",
          "name": "vaultPool",
          "type": "address"
        }
      ],
      "name": "checkTickDeviation",
      "outputs": [],
      "stateMutability": "view",
      "type": "function"
    },
    {
      "inputs": [],
      "name": "contractName",
      "outputs": [
        {
          "internalType": "string",
          "name": "",
          "type": "string"
        }
      ],
      "stateMutability": "pure",
      "type": "function"
    },
    {
      "inputs": [],
      "name": "contractNameBytes",
      "outputs": [
        {
          "internalType": "bytes32",
          "name": "",
          "type": "bytes32"
        }
      ],
      "stateMutability": "pure",
      "type": "function"
    },
    {
      "inputs": [],
      "name": "contractVersion",
      "outputs": [
        {
          "internalType": "string",
          "name": "",
          "type": "string"
        }
      ],
      "stateMutability": "pure",
      "type": "function"
    },
    {
      "inputs": [],
      "name": "contractVersionBytes",
      "outputs": [
        {
          "internalType": "bytes32",
          "name": "",
          "type": "bytes32"
        }
      ],
      "stateMutability": "pure",
      "type": "function"
    },
    {
      "inputs": [],
      "name": "depositCallback",
      "outputs": [],
      "stateMutability": "nonpayable",
      "type": "function"
    },
    {
      "inputs": [
        {
          "internalType": "bytes32",
          "name": "role",
          "type": "bytes32"
        }
      ],
      "name": "getRoleAdmin",
      "outputs": [
        {
          "internalType": "bytes32",
          "name": "",
          "type": "bytes32"
        }
      ],
      "stateMutability": "view",
      "type": "function"
    },
    {
      "inputs": [
        {
          "internalType": "bytes32",
          "name": "role",
          "type": "bytes32"
        },
        {
          "internalType": "uint256",
          "name": "index",
          "type": "uint256"
        }
      ],
      "name": "getRoleMember",
      "outputs": [
        {
          "internalType": "address",
          "name": "",
          "type": "address"
        }
      ],
      "stateMutability": "view",
      "type": "function"
    },
    {
      "inputs": [
        {
          "internalType": "bytes32",
          "name": "role",
          "type": "bytes32"
        }
      ],
      "name": "getRoleMemberCount",
      "outputs": [
        {
          "internalType": "uint256",
          "name": "",
          "type": "uint256"
        }
      ],
      "stateMutability": "view",
      "type": "function"
    },
    {
      "inputs": [
        {
          "internalType": "bytes32",
          "name": "role",
          "type": "bytes32"
        },
        {
          "internalType": "address",
          "name": "account",
          "type": "address"
        }
      ],
      "name": "grantRole",
      "outputs": [],
      "stateMutability": "nonpayable",
      "type": "function"
    },
    {
      "inputs": [
        {
          "internalType": "bytes32",
          "name": "role",
          "type": "bytes32"
        },
        {
          "internalType": "address",
          "name": "account",
          "type": "address"
        }
      ],
      "name": "hasRole",
      "outputs": [
        {
          "internalType": "bool",
          "name": "",
          "type": "bool"
        }
      ],
      "stateMutability": "view",
      "type": "function"
    },
    {
      "inputs": [],
      "name": "immutableParams",
      "outputs": [
        {
          "internalType": "address",
          "name": "router",
          "type": "address"
        },
        {
          "internalType": "contract IERC20Vault",
          "name": "erc20Vault",
          "type": "address"
        },
        {
          "internalType": "contract IQuickSwapVault",
          "name": "quickSwapVault",
          "type": "address"
        }
      ],
      "stateMutability": "view",
      "type": "function"
    },
    {
      "inputs": [
        {
          "internalType": "address",
          "name": "admin",
          "type": "address"
        }
      ],
      "name": "init",
      "outputs": [],
      "stateMutability": "nonpayable",
      "type": "function"
    },
    {
      "inputs": [
        {
          "components": [
            {
              "internalType": "address",
              "name": "router",
              "type": "address"
            },
            {
              "internalType": "contract IERC20Vault",
              "name": "erc20Vault",
              "type": "address"
            },
            {
              "internalType": "contract IQuickSwapVault",
              "name": "quickSwapVault",
              "type": "address"
            },
            {
              "internalType": "address[]",
              "name": "tokens",
              "type": "address[]"
            }
          ],
          "internalType": "struct QuickPulseStrategy.ImmutableParams",
          "name": "immutableParams_",
          "type": "tuple"
        },
        {
          "internalType": "address",
          "name": "admin",
          "type": "address"
        }
      ],
      "name": "initialize",
      "outputs": [],
      "stateMutability": "nonpayable",
      "type": "function"
    },
    {
      "inputs": [],
      "name": "initialized",
      "outputs": [
        {
          "internalType": "bool",
          "name": "",
          "type": "bool"
        }
      ],
      "stateMutability": "view",
      "type": "function"
    },
    {
      "inputs": [
        {
          "internalType": "address",
          "name": "sender",
          "type": "address"
        }
      ],
      "name": "isAdmin",
      "outputs": [
        {
          "internalType": "bool",
          "name": "",
          "type": "bool"
        }
      ],
      "stateMutability": "view",
      "type": "function"
    },
    {
      "inputs": [
        {
          "internalType": "address",
          "name": "sender",
          "type": "address"
        }
      ],
      "name": "isOperator",
      "outputs": [
        {
          "internalType": "bool",
          "name": "",
          "type": "bool"
        }
      ],
      "stateMutability": "view",
      "type": "function"
    },
    {
      "inputs": [
        {
          "internalType": "bytes[]",
          "name": "data",
          "type": "bytes[]"
        }
      ],
      "name": "multicall",
      "outputs": [
        {
          "internalType": "bytes[]",
          "name": "results",
          "type": "bytes[]"
        }
      ],
      "stateMutability": "nonpayable",
      "type": "function"
    },
    {
      "inputs": [],
      "name": "mutableParams",
      "outputs": [
        {
          "internalType": "int24",
          "name": "priceImpactD6",
          "type": "int24"
        },
        {
          "internalType": "int24",
          "name": "intervalWidth",
          "type": "int24"
        },
        {
          "internalType": "int24",
          "name": "tickNeighborhood",
          "type": "int24"
        },
        {
          "internalType": "int24",
          "name": "maxDeviationForVaultPool",
          "type": "int24"
        },
        {
          "internalType": "uint32",
          "name": "timespanForAverageTick",
          "type": "uint32"
        },
        {
          "internalType": "uint256",
          "name": "amount0Desired",
          "type": "uint256"
        },
        {
          "internalType": "uint256",
          "name": "amount1Desired",
          "type": "uint256"
        },
        {
          "internalType": "uint256",
          "name": "swapSlippageD",
          "type": "uint256"
        },
        {
          "internalType": "uint256",
          "name": "swappingAmountsCoefficientD",
          "type": "uint256"
        }
      ],
      "stateMutability": "view",
      "type": "function"
    },
    {
      "inputs": [
        {
          "internalType": "address",
          "name": "",
          "type": "address"
        },
        {
          "internalType": "address",
          "name": "",
          "type": "address"
        },
        {
          "internalType": "uint256",
          "name": "",
          "type": "uint256"
        },
        {
          "internalType": "bytes",
          "name": "",
          "type": "bytes"
        }
      ],
      "name": "onERC721Received",
      "outputs": [
        {
          "internalType": "bytes4",
          "name": "",
          "type": "bytes4"
        }
      ],
      "stateMutability": "pure",
      "type": "function"
    },
    {
      "inputs": [],
      "name": "positionManager",
      "outputs": [
        {
          "internalType": "contract IAlgebraNonfungiblePositionManager",
          "name": "",
          "type": "address"
        }
      ],
      "stateMutability": "view",
      "type": "function"
    },
    {
      "inputs": [
        {
          "internalType": "uint256",
          "name": "deadline",
          "type": "uint256"
        },
        {
          "internalType": "bytes",
          "name": "swapData",
          "type": "bytes"
        }
      ],
      "name": "rebalance",
      "outputs": [],
      "stateMutability": "nonpayable",
      "type": "function"
    },
    {
      "inputs": [
        {
          "internalType": "bytes32",
          "name": "role",
          "type": "bytes32"
        },
        {
          "internalType": "address",
          "name": "account",
          "type": "address"
        }
      ],
      "name": "renounceRole",
      "outputs": [],
      "stateMutability": "nonpayable",
      "type": "function"
    },
    {
      "inputs": [
        {
          "internalType": "bytes32",
          "name": "role",
          "type": "bytes32"
        },
        {
          "internalType": "address",
          "name": "account",
          "type": "address"
        }
      ],
      "name": "revokeRole",
      "outputs": [],
      "stateMutability": "nonpayable",
      "type": "function"
    },
    {
      "inputs": [
        {
          "internalType": "bytes4",
          "name": "interfaceId",
          "type": "bytes4"
        }
      ],
      "name": "supportsInterface",
      "outputs": [
        {
          "internalType": "bool",
          "name": "",
          "type": "bool"
        }
      ],
      "stateMutability": "view",
      "type": "function"
    },
    {
      "inputs": [
        {
          "components": [
            {
              "internalType": "int24",
              "name": "priceImpactD6",
              "type": "int24"
            },
            {
              "internalType": "int24",
              "name": "intervalWidth",
              "type": "int24"
            },
            {
              "internalType": "int24",
              "name": "tickNeighborhood",
              "type": "int24"
            },
            {
              "internalType": "int24",
              "name": "maxDeviationForVaultPool",
              "type": "int24"
            },
            {
              "internalType": "uint32",
              "name": "timespanForAverageTick",
              "type": "uint32"
            },
            {
              "internalType": "uint256",
              "name": "amount0Desired",
              "type": "uint256"
            },
            {
              "internalType": "uint256",
              "name": "amount1Desired",
              "type": "uint256"
            },
            {
              "internalType": "uint256",
              "name": "swapSlippageD",
              "type": "uint256"
            },
            {
              "internalType": "uint256",
              "name": "swappingAmountsCoefficientD",
              "type": "uint256"
            },
            {
              "internalType": "uint256[]",
              "name": "minSwapAmounts",
              "type": "uint256[]"
            }
          ],
          "internalType": "struct QuickPulseStrategy.MutableParams",
          "name": "mutableParams_",
          "type": "tuple"
        }
      ],
      "name": "updateMutableParams",
      "outputs": [],
      "stateMutability": "nonpayable",
      "type": "function"
    },
    {
      "inputs": [],
      "name": "withdrawCallback",
      "outputs": [],
      "stateMutability": "nonpayable",
      "type": "function"
    }
  ],
  "bytecode": {
    "object": "0x60a06040523480156200001157600080fd5b5060405162005e0038038062005e00833981016040819052620000349162000093565b60408051808201909152600281526120ad60f11b60208201526001600160a01b038216620000805760405162461bcd60e51b8152600401620000779190620000c5565b60405180910390fd5b506001600160a01b03166080526200011d565b600060208284031215620000a657600080fd5b81516001600160a01b0381168114620000be57600080fd5b9392505050565b600060208083528351808285015260005b81811015620000f457858101830151858201604001528201620000d6565b8181111562000107576000604083870101525b50601f01601f1916929092016040019392505050565b608051615ca46200015c600039600081816104c8015281816112cd0152818161213d015281816135a60152818161372901526137dd0152615ca46000f3fe608060405234801561001057600080fd5b50600436106102485760003560e01c806375d0c0dc1161013b578063ac9650d8116100b8578063d7a678c01161007c578063d7a678c014610612578063e521826f14610625578063f05329b21461062d578063f936506c14610640578063fe57ed611461065357600080fd5b8063ac9650d814610582578063b4559f3e14610309578063c8014d53146105a2578063ca15c873146105ec578063d547741f146105ff57600080fd5b80639bb37ba8116100ff5780639bb37ba81461053d5780639f747b2014610550578063a0a8e46014610568578063a11bac7414610570578063a217fddf1461057a57600080fd5b806375d0c0dc146104ae578063791b98bc146104c35780639010d07c1461050257806391d1485414610515578063983d27371461052857600080fd5b806336568abe116101c95780635f408a211161018d5780635f408a21146103b857806360aa2705146104605780636d70f7ae146104735780636ff0b3581461048657806375b238fc1461049957600080fd5b806336568abe146103545780634079246514610367578063475cffef1461037257806350c9d3bb14610385578063551530ae146103ad57600080fd5b8063158ef93e11610210578063158ef93e146102e957806319ab453c146102f6578063248a9ca31461030b57806324d7806c1461032e5780632f2ff15d1461034157600080fd5b806301ffc9a71461024d57806306a46239146102755780630952ff541461028d5780630e3e80ac146102a2578063150b7a02146102bd575b600080fd5b61026061025b3660046145af565b610691565b60405190151581526020015b60405180910390f35b640312e302e360dc1b5b60405190815260200161026c565b61027f600080516020615be883398151915281565b71517569636b50756c7365537472617465677960701b61027f565b6102d06102cb3660046146a6565b6106c1565b6040516001600160e01b0319909116815260200161026c565b6002546102609060ff1681565b610309610304366004614754565b6106d2565b005b61027f610319366004614771565b60009081526020819052604090206001015490565b61026061033c366004614754565b610801565b61030961034f36600461478a565b610839565b61030961036236600461478a565b610863565b61027f600160601b81565b6103096103803660046148ba565b6108e1565b610398610393366004614a59565b610e80565b6040805192835260208301919091520161026c565b61027f633b9aca0081565b600754600854600954600a54600b5461040694600281810b9563010000008304820b95600160301b8404830b95600160481b850490930b94600160601b90940463ffffffff16939192909189565b6040805160029a8b0b8152988a0b60208a015296890b968801969096529390960b606086015263ffffffff909116608085015260a084015260c083019390935260e08201929092526101008101919091526101200161026c565b61030961046e366004614acc565b61110e565b610260610481366004614754565b611234565b610309610494366004614b00565b61124e565b61027f600080516020615c0883398151915281565b6104b6611597565b60405161026c9190614b9e565b6104ea7f000000000000000000000000000000000000000000000000000000000000000081565b6040516001600160a01b03909116815260200161026c565b6104ea610510366004614bb1565b6115b7565b61026061052336600461478a565b6115d6565b61027f600080516020615c2883398151915281565b61027f61054b366004614bd3565b6115ff565b6002546104ea9061010090046001600160a01b031681565b6104b66116ea565b61027f620f424081565b61027f600081565b610595610590366004614c5e565b6116fd565b60405161026c9190614cd2565b6003546004546005546105c2926001600160a01b03908116928116911683565b604080516001600160a01b039485168152928416602084015292169181019190915260600161026c565b61027f6105fa366004614771565b6117f3565b61030961060d36600461478a565b61180a565b610309610620366004614acc565b61182f565b610309611c65565b61030961063b366004614d34565b611cff565b61030961064e366004614d69565b611e45565b610666610661366004614de4565b6120f1565b604080518351600290810b8252602094850151900b938101939093529015159082015260600161026c565b60006001600160e01b03198216635a05180f60e01b14806106b657506106b682612357565b92915050565b905090565b630a85bd0160e11b5b949350505050565b60408051808201909152600281526120ad60f11b60208201526001600160a01b03821661071b5760405162461bcd60e51b81526004016107129190614b9e565b60405180910390fd5b506002546040805180820190915260048152631253925560e21b60208201529060ff161561075c5760405162461bcd60e51b81526004016107129190614b9e565b50610775600080516020615c288339815191528261238c565b61078d600080516020615c088339815191528261238c565b6107a5600080516020615c0883398151915280612396565b6107cb600080516020615be8833981519152600080516020615c08833981519152612396565b6107f1600080516020615c28833981519152600080516020615be8833981519152612396565b506002805460ff19166001179055565b600061081b600080516020615c08833981519152836115d6565b806106b657506106b6600080516020615be8833981519152836115d6565b600082815260208190526040902060010154610854816123e1565b61085e83836123ee565b505050565b6001600160a01b03811633146108d35760405162461bcd60e51b815260206004820152602f60248201527f416363657373436f6e74726f6c3a2063616e206f6e6c792072656e6f756e636560448201526e103937b632b9903337b91039b2b63360891b6064820152608401610712565b6108dd8282612410565b5050565b806060015151600214604051806040016040528060048152602001631253959360e21b815250906109255760405162461bcd60e51b81526004016107129190614b9e565b5060006001600160a01b0316816060015160008151811061094857610948614e4d565b60200260200101516001600160a01b031614156040518060400160405280600281526020016120ad60f11b815250906109945760405162461bcd60e51b81526004016107129190614b9e565b5060006001600160a01b031681606001516001815181106109b7576109b7614e4d565b60200260200101516001600160a01b031614156040518060400160405280600281526020016120ad60f11b81525090610a035760405162461bcd60e51b81526004016107129190614b9e565b50805160408051808201909152600281526120ad60f11b6020820152906001600160a01b0316610a465760405162461bcd60e51b81526004016107129190614b9e565b5060006001600160a01b031681602001516001600160a01b031614156040518060400160405280600281526020016120ad60f11b81525090610a9b5760405162461bcd60e51b81526004016107129190614b9e565b50600081602001516001600160a01b031663697222336040518163ffffffff1660e01b815260040160006040518083038186803b158015610adb57600080fd5b505afa158015610aef573d6000803e3d6000fd5b505050506040513d6000823e601f3d908101601f19168201604052610b179190810190614e6e565b90508051600214604051806040016040528060048152602001631253959360e21b81525090610b595760405162461bcd60e51b81526004016107129190614b9e565b508160600151600081518110610b7157610b71614e4d565b60200260200101516001600160a01b031681600081518110610b9557610b95614e4d565b60200260200101516001600160a01b03161460405180604001604052806004815260200163494e564160e01b81525090610be25760405162461bcd60e51b81526004016107129190614b9e565b508160600151600181518110610bfa57610bfa614e4d565b60200260200101516001600160a01b031681600181518110610c1e57610c1e614e4d565b60200260200101516001600160a01b03161460405180604001604052806004815260200163494e564160e01b81525090610c6b5760405162461bcd60e51b81526004016107129190614b9e565b50506040808201518151808301909252600282526120ad60f11b60208301526001600160a01b0316610cb05760405162461bcd60e51b81526004016107129190614b9e565b50600081604001516001600160a01b031663697222336040518163ffffffff1660e01b815260040160006040518083038186803b158015610cf057600080fd5b505afa158015610d04573d6000803e3d6000fd5b505050506040513d6000823e601f3d908101601f19168201604052610d2c9190810190614e6e565b90508051600214604051806040016040528060048152602001631253959360e21b81525090610d6e5760405162461bcd60e51b81526004016107129190614b9e565b508160600151600081518110610d8657610d86614e4d565b60200260200101516001600160a01b031681600081518110610daa57610daa614e4d565b60200260200101516001600160a01b03161460405180604001604052806004815260200163494e564160e01b81525090610df75760405162461bcd60e51b81526004016107129190614b9e565b508160600151600181518110610e0f57610e0f614e4d565b60200260200101516001600160a01b031681600181518110610e3357610e33614e4d565b60200260200101516001600160a01b03161460405180604001604052806004815260200163494e564160e01b8152509061085e5760405162461bcd60e51b81526004016107129190614b9e565b60008080610e9284600160601b614f12565b9050600087602001516001600160a01b031663e5328e066040518163ffffffff1660e01b815260040160006040518083038186803b158015610ed357600080fd5b505afa158015610ee7573d6000803e3d6000fd5b505050506040513d6000823e601f3d908101601f19168201604052610f0f9190810190614f84565b5090506000610f8a82600181518110610f2a57610f2a614e4d565b6020026020010151600160601b610f6085600081518110610f4d57610f4d614e4d565b60200260200101518b600160601b612432565b85600181518110610f7357610f73614e4d565b6020026020010151610f859190614fe7565b612432565b90506000610fa7600160601b8a6000015160020b620f4240612432565b90508682111561104d57600195506000610fc6600160601b808b612432565b9050611045610ff08986600081518110610fe257610fe2614e4d565b602002602001015184612432565b6110198660018151811061100657611006614e4d565b602002602001015188600160601b612432565b6110239190614f12565b600160601b6110378b86600160601b612432565b610f8590600160601b614f12565b9550506110c3565b600095506110c0611079858560018151811061106b5761106b614e4d565b60200260200101518b612432565b6110a28560008151811061108f5761108f614e4d565b60200260200101518a600160601b612432565b6110ac9190614f12565b600160601b6110378785600160601b612432565b94505b8286815181106110d5576110d5614e4d565b6020026020010151851115611101578286815181106110f6576110f6614e4d565b602002602001015194505b5050505094509492505050565b6111166124e5565b61111f8161182f565b80516007805460208085015160408601516060870151608088015163ffffffff16600160601b0263ffffffff60601b1962ffffff928316600160481b026bffffff00000000000000000019948416600160301b02949094166bffffffffffff0000000000001995841663010000000265ffffffffffff199098169390991692909217959095179290921695909517949094179390931617815560a083015160085560c083015160095560e0830151600a55610100830151600b55610120830151805184936111f292600c929101906144fa565b505060405133915032907faccfbfe1fb913357d3f38219613942ea367e6b50b076facee40e8400cf114f289061122990859061503a565b60405180910390a350565b60006106b6600080516020615c28833981519152836115d6565b611257826108e1565b8151600380546001600160a01b03199081166001600160a01b0393841617825560208086015160048054841691861691909117905560408601516005805490931694169390931790556060840151805185936112b892600692910190614545565b5090505060005b6002811015611424576113257f00000000000000000000000000000000000000000000000000000000000000006000198560600151848151811061130557611305614e4d565b60200260200101516001600160a01b03166125289092919063ffffffff16565b82602001516001600160a01b0316632e2f4cc28460600151838151811061134e5761134e614e4d565b602002602001015163095ea7b360e01b866000015160001960405160200161138b9291906001600160a01b03929092168252602082015260400190565b6040516020818303038152906040526040518463ffffffff1660e01b81526004016113b8939291906150ef565b600060405180830381600087803b1580156113d257600080fd5b505af192505050801561140757506040513d6000823e601f3d908101601f19168201604052611404919081019061512c565b60015b61141057611412565b505b8061141c81615199565b9150506112bf565b5081604001516001600160a01b031663c45a01556040518163ffffffff1660e01b815260040160206040518083038186803b15801561146257600080fd5b505afa158015611476573d6000803e3d6000fd5b505050506040513d601f19601f8201168201806040525081019061149a91906151b4565b6001600160a01b031663d9a641e183606001516000815181106114bf576114bf614e4d565b602002602001015184606001516001815181106114de576114de614e4d565b60200260200101516040518363ffffffff1660e01b81526004016115189291906001600160a01b0392831681529116602082015260400190565b60206040518083038186803b15801561153057600080fd5b505afa158015611544573d6000803e3d6000fd5b505050506040513d601f19601f8201168201806040525081019061156891906151b4565b600260016101000a8154816001600160a01b0302191690836001600160a01b031602179055506108dd816106d2565b60606106bc71517569636b50756c7365537472617465677960701b61261c565b60008281526001602052604081206115cf9083612688565b9392505050565b6000918252602082815260408084206001600160a01b0393909316845291905290205460ff1690565b60008061160f8560000151612694565b6001600160a01b0316905060006116298660200151612694565b6001600160a01b03169050846001600160a01b0316821061164f576000925050506115cf565b846001600160a01b0316811161166d57600160601b925050506115cf565b60006116a26116856001600160a01b03881684614f12565b600160601b610f85896001600160a01b031686600160601b612432565b905060006116b9846001600160a01b038916614f12565b90506116de81600160601b836116d4868b600160601b612432565b610f859190614fe7565b98975050505050505050565b60606106bc640312e302e360dc1b61261c565b6060816001600160401b03811115611717576117176145ee565b60405190808252806020026020018201604052801561174a57816020015b60608152602001906001900390816117355790505b50905060005b828110156117ea576117ba3085858481811061176e5761176e614e4d565b905060200281019061178091906151d1565b8080601f016020809104026020016040519081016040528093929190818152602001838380828437600092019190915250612aa992505050565b8282815181106117cc576117cc614e4d565b602002602001018190525080806117e290615199565b915050611750565b5092915050565b565b60008181526001602052604081206106b690612ace565b600082815260208190526040902060010154611825816123e1565b61085e8383612410565b6000600260019054906101000a90046001600160a01b03166001600160a01b031663d0c93a7c6040518163ffffffff1660e01b815260040160206040518083038186803b15801561187f57600080fd5b505afa158015611893573d6000803e3d6000fd5b505050506040513d601f19601f820116820180604052508101906118b79190615222565b90506000826020015160020b1380156118ea57506118d681600261523f565b82602001516118e591906152e2565b60020b155b6040518060400160405280600381526020016224a72b60e91b815250906119245760405162461bcd60e51b81526004016107129190614b9e565b50816020015161193390615304565b60020b826040015160020b121580156119665750600282602001516119589190615327565b60020b826040015160020b13155b604051806040016040528060048152602001634c494d4f60e01b815250906119a15760405162461bcd60e51b81526004016107129190614b9e565b506000826060015160020b13604051806040016040528060048152602001634c494d5560e01b815250906119e85760405162461bcd60e51b81526004016107129190614b9e565b506000826080015163ffffffff1611604051806040016040528060028152602001612b2d60f11b81525090611a305760405162461bcd60e51b81526004016107129190614b9e565b5062093a80826080015163ffffffff1610604051806040016040528060028152602001612b2d60f11b81525090611a7a5760405162461bcd60e51b81526004016107129190614b9e565b5060008260a0015111604051806040016040528060028152602001612b2d60f11b81525090611abc5760405162461bcd60e51b81526004016107129190614b9e565b50633b9aca008260a001511115604051806040016040528060048152602001634c494d4f60e01b81525090611b045760405162461bcd60e51b81526004016107129190614b9e565b5060008260c0015111604051806040016040528060028152602001612b2d60f11b81525090611b465760405162461bcd60e51b81526004016107129190614b9e565b50633b9aca008260c001511115604051806040016040528060048152602001634c494d4f60e01b81525090611b8e5760405162461bcd60e51b81526004016107129190614b9e565b5081610120015151600214604051806040016040528060048152602001631253959360e21b81525090611bd45760405162461bcd60e51b81526004016107129190614b9e565b50633b9aca008260e001511115604051806040016040528060048152602001634c494d4f60e01b81525090611c1c5760405162461bcd60e51b81526004016107129190614b9e565b50633b9aca008261010001511115604051806040016040528060048152602001634c494d4f60e01b8152509061085e5760405162461bcd60e51b81526004016107129190614b9e565b60408051608081018252600380546001600160a01b039081168352600454811660208085019190915260055490911683850152600680548551818402810184019096528086526117f195606086019390929190830182828015611cf157602002820191906000526020600020905b81546001600160a01b03168152600190910190602001808311611cd3575b505050505081525050612ad8565b6000816001600160a01b031663e76c01e46040518163ffffffff1660e01b815260040160e06040518083038186803b158015611d3a57600080fd5b505afa158015611d4e573d6000803e3d6000fd5b505050506040513d601f19601f82011682018060405250810190611d729190615394565b5050505050915050600080611d8b848660800151612e8c565b9150915080156040518060400160405280600581526020016412539594d560da1b81525090611dcd5760405162461bcd60e51b81526004016107129190614b9e565b506000611dda838561541f565b905060008160020b1215611df457611df181615304565b90505b856060015160020b8160020b12604051806040016040528060048152602001634c494d4f60e01b81525090611e3c5760405162461bcd60e51b81526004016107129190614b9e565b50505050505050565b8242111560405180604001604052806002815260200161545360f01b81525090611e825760405162461bcd60e51b81526004016107129190614b9e565b50611e8b61306f565b60408051608081018252600380546001600160a01b03908116835260045481166020808501919091526005549091168385015260068054855181840281018401909652808652600095606086019390929190830182828015611f1657602002820191906000526020600020905b81546001600160a01b03168152600190910190602001808311611ef8575b505050919092525050604080516101408101825260078054600281810b845263010000008204810b602080860191909152600160301b8304820b85870152600160481b830490910b6060850152600160601b90910463ffffffff16608084015260085460a084015260095460c0840152600a5460e0840152600b54610100840152600c80548551818402810184019096528086529697506000969395509193610120860193909291830182828015611fed57602002820191906000526020600020905b815481526020019060010190808311611fd9575b5050509190925250506002549192505061010090046001600160a01b03166120158282611cff565b600080826001600160a01b031663e76c01e46040518163ffffffff1660e01b815260040160e06040518083038186803b15801561205157600080fd5b505afa158015612065573d6000803e3d6000fd5b505050506040513d601f19601f820116820180604052508101906120899190615394565b50505050509150915060006120a086868487613087565b90506120b0868683868c8c613889565b6120b986612ad8565b604051339032907f6dcf4e69cd04d9def52d660ea37a5b366adb7701505e48e75c03d6a51a343f6490600090a3505050505050505050565b6040805180820190915260008082526020820152600082156122475760408051808201825260008082526020820152905163133f757160e31b8152600481018590526001600160a01b037f000000000000000000000000000000000000000000000000000000000000000016906399fbab88906024016101606040518083038186803b15801561218057600080fd5b505afa158015612194573d6000803e3d6000fd5b505050506040513d601f19601f820116820180604052508101906121b8919061547e565b50505050600291820b60208901525090810b80875260408d0151918c900b95506121e6945092509050615555565b60020b13158015612210575086604001518160200151612206919061541f565b60020b8660020b13155b8015612235575080516020820151612228919061541f565b60020b876020015160020b145b156122455791506000905061234e565b505b6000846001600160a01b031663d0c93a7c6040518163ffffffff1660e01b815260040160206040518083038186803b15801561228257600080fd5b505afa158015612296573d6000803e3d6000fd5b505050506040513d601f19601f820116820180604052508101906122ba9190615222565b905060006122c882886152e2565b6122d2908861541f565b9050600282900b6122e383896152e2565b6122ee90600261523f565b60020b1315612304576123018282615555565b90505b600288602001516123159190615327565b61231f908261541f565b600290810b855260208901516123359190615327565b61233f9082615555565b60020b60208501525060019150505b94509492505050565b60006001600160e01b03198216637965db0b60e01b14806106b657506301ffc9a760e01b6001600160e01b03198316146106b6565b6108dd82826123ee565b600082815260208190526040808220600101805490849055905190918391839186917fbd79b86ffe0ab8e8776151514217cd7cacd52c909f66475c3af44e129f0b00ff9190a4505050565b6123eb8133613d9e565b50565b6123f88282613df7565b600082815260016020526040902061085e9082613e7b565b61241a8282613e90565b600082815260016020526040902061085e9082613ef5565b60008080600019858709858702925082811083820303915050806000141561246c576000841161246157600080fd5b5082900490506115cf565b80841161247857600080fd5b6000848688096000868103871696879004966002600389028118808a02820302808a02820302808a02820302808a02820302808a02820302808a02909103029181900381900460010186841190950394909402919094039290920491909117919091029150509392505050565b6124ee33610801565b6040518060400160405280600381526020016223292160e91b815250906123eb5760405162461bcd60e51b81526004016107129190614b9e565b604051636eb1769f60e11b81523060048201526001600160a01b0383811660248301526000919085169063dd62ed3e9060440160206040518083038186803b15801561257357600080fd5b505afa158015612587573d6000803e3d6000fd5b505050506040513d601f19601f820116820180604052508101906125ab919061559c565b90506126168463095ea7b360e01b856125c48686614fe7565b6040516001600160a01b039092166024830152604482015260640160408051601f198184030181529190526020810180516001600160e01b03166001600160e01b031990931692909217909152613f0a565b50505050565b604080516020808252818301909252606091602082018180368337019050509050602060005b602081101561267a5783816020811061265d5761265d614e4d565b1a61266a5780915061267a565b61267381615199565b9050612642565b508152602081019190915290565b60006115cf8383613fdf565b60008060008360020b126126ab578260020b6126b8565b8260020b6126b8906155b5565b90506126c7620d89e719615304565b60020b8111156126fd5760405162461bcd60e51b81526020600482015260016024820152601560fa1b6044820152606401610712565b60006001821661271157600160801b612723565b6ffffcb933bd6fad37aa2d162d1a5940015b70ffffffffffffffffffffffffffffffffff169050600282161561276257608061275d826ffff97272373d413259a46990580e213a6155d2565b901c90505b600482161561278c576080612787826ffff2e50f5f656932ef12357cf3c7fdcc6155d2565b901c90505b60088216156127b65760806127b1826fffe5caca7e10e4e61c3624eaa0941cd06155d2565b901c90505b60108216156127e05760806127db826fffcb9843d60f6159c9db58835c9266446155d2565b901c90505b602082161561280a576080612805826fff973b41fa98c081472e6896dfb254c06155d2565b901c90505b604082161561283457608061282f826fff2ea16466c96a3843ec78b326b528616155d2565b901c90505b608082161561285e576080612859826ffe5dee046a99a2a811c461f1969c30536155d2565b901c90505b610100821615612889576080612884826ffcbe86c7900a88aedcffc83b479aa3a46155d2565b901c90505b6102008216156128b45760806128af826ff987a7253ac413176f2b074cf7815e546155d2565b901c90505b6104008216156128df5760806128da826ff3392b0822b70005940c7a398e4b70f36155d2565b901c90505b61080082161561290a576080612905826fe7159475a2c29b7443b29c7fa6e889d96155d2565b901c90505b611000821615612935576080612930826fd097f3bdfd2022b8845ad8f792aa58256155d2565b901c90505b61200082161561296057608061295b826fa9f746462d870fdf8a65dc1f90e061e56155d2565b901c90505b61400082161561298b576080612986826f70d869a156d2a1b890bb3df62baf32f76155d2565b901c90505b6180008216156129b65760806129b1826f31be135f97d08fd981231505542fcfa66155d2565b901c90505b620100008216156129e25760806129dd826f09aa508b5b7a84e1c677de54f3e99bc96155d2565b901c90505b62020000821615612a0d576080612a08826e5d6af8dedb81196699c329225ee6046155d2565b901c90505b62040000821615612a37576080612a32826d2216e584f5fa1ea926041bedfe986155d2565b901c90505b62080000821615612a5f576080612a5a826b048a170391f7dc42444e8fa26155d2565b901c90505b60008460020b1315612a7a57612a77816000196155f1565b90505b612a8964010000000082615605565b15612a95576001612a98565b60005b6106ca9060ff16602083901c614fe7565b60606115cf8383604051806060016040528060278152602001615c4860279139614009565b60006106b6825490565b600081604001516001600160a01b031663ef7d80376040518163ffffffff1660e01b815260040160206040518083038186803b158015612b1757600080fd5b505afa158015612b2b573d6000803e3d6000fd5b505050506040513d601f19601f82011682018060405250810190612b4f919061559c565b9050600082604001516001600160a01b031663dd56e5d86040518163ffffffff1660e01b815260040160206040518083038186803b158015612b9057600080fd5b505afa158015612ba4573d6000803e3d6000fd5b505050506040513d601f19601f82011682018060405250810190612bc891906151b4565b604051630b02c43d60e41b8152600481018490529091506000906001600160a01b0383169063b02c43d09060240160806040518083038186803b158015612c0e57600080fd5b505afa158015612c22573d6000803e3d6000fd5b505050506040513d601f19601f82011682018060405250810190612c469190615619565b505050905080600014612cbc576040808501519051630f451b7760e41b8152600481018590526001600160a01b0384811660248301529091169063f451b77090604401600060405180830381600087803b158015612ca357600080fd5b505af1158015612cb7573d6000803e3d6000fd5b505050505b600084602001516001600160a01b031663e5328e066040518163ffffffff1660e01b815260040160006040518083038186803b158015612cfb57600080fd5b505afa158015612d0f573d6000803e3d6000fd5b505050506040513d6000823e601f3d908101601f19168201604052612d379190810190614f84565b509050600081600081518110612d4f57612d4f614e4d565b60200260200101511180612d7d5750600081600181518110612d7357612d73614e4d565b6020026020010151115b15612e165784602001516001600160a01b0316632062d75486604001518760600151846040518463ffffffff1660e01b8152600401612dbe9392919061566a565b600060405180830381600087803b158015612dd857600080fd5b505af1158015612dec573d6000803e3d6000fd5b505050506040513d6000823e601f3d908101601f19168201604052612e1491908101906156ea565b505b8115612e8557604080860151905163d82f726760e01b8152600481018690526001600160a01b0385811660248301529091169063d82f726790604401600060405180830381600087803b158015612e6c57600080fd5b505af1158015612e80573d6000803e3d6000fd5b505050505b5050505050565b60008063ffffffff8316612ec75760405162461bcd60e51b8152602060048201526002602482015261042560f41b6044820152606401610712565b6040805160028082526060820183526000926020830190803683370190505090508381600081518110612efc57612efc614e4d565b602002602001019063ffffffff16908163ffffffff1681525050600081600181518110612f2b57612f2b614e4d565b63ffffffff90921660209283029190910190910152604051639d3a524160e01b81526001600160a01b03861690639d3a524190612f6c90849060040161571e565b60006040518083038186803b158015612f8457600080fd5b505afa925050508015612fb957506040513d6000823e601f3d908101601f19168201604052612fb69190810190615844565b60015b612fcb57600060019250925050613068565b600084600081518110612fe057612fe0614e4d565b602002602001015185600181518110612ffb57612ffb614e4d565b60200260200101510390508863ffffffff1660060b8160060b81613021576130216152cc565b05975060008160060b12801561305457508863ffffffff1660060b8160060b8161304d5761304d6152cc565b0760060b15155b1561306157600019909701965b5050505050505b9250929050565b61307833610801565b806124ee57506124ee33611234565b60408051808201909152600080825260208201526000856040015190506000816001600160a01b031663ef7d80376040518163ffffffff1660e01b815260040160206040518083038186803b1580156130df57600080fd5b505afa1580156130f3573d6000803e3d6000fd5b505050506040513d601f19601f82011682018060405250810190613117919061559c565b9050600080613128888888866120f1565b915091508061322d57836001600160a01b03166370bb45b36040518163ffffffff1660e01b8152600401600060405180830381600087803b15801561316c57600080fd5b505af1158015613180573d6000803e3d6000fd5b505050506040513d6000823e601f3d908101601f191682016040526131a891908101906156ea565b50836001600160a01b031663c27b2c2d6040518163ffffffff1660e01b8152600401600060405180830381600087803b1580156131e457600080fd5b505af11580156131f8573d6000803e3d6000fd5b505050506040513d6000823e601f3d908101601f1916820160405261322091908101906156ea565b50819450505050506106ca565b82156135a257836001600160a01b031663f451b77084866001600160a01b031663dd56e5d86040518163ffffffff1660e01b815260040160206040518083038186803b15801561327c57600080fd5b505afa158015613290573d6000803e3d6000fd5b505050506040513d601f19601f820116820180604052508101906132b491906151b4565b6040516001600160e01b031960e085901b16815260048101929092526001600160a01b03166024820152604401600060405180830381600087803b1580156132fb57600080fd5b505af115801561330f573d6000803e3d6000fd5b505050506000866001600160a01b031663e76c01e46040518163ffffffff1660e01b815260040160e06040518083038186803b15801561334e57600080fd5b505afa158015613362573d6000803e3d6000fd5b505050506040513d601f19601f820116820180604052508101906133869190615394565b5050505050509050600060026001600160401b038111156133a9576133a96145ee565b6040519080825280602002602001820160405280156133d2578160200160208202803683370190505b509050856001600160a01b03166363b0e66a6040518163ffffffff1660e01b815260040160206040518083038186803b15801561340e57600080fd5b505afa158015613422573d6000803e3d6000fd5b505050506040513d601f19601f8201168201806040525081019061344691906151b4565b60405163b5ce1db960e01b8152600481018790526001600160a01b0384811660248301526001600160801b036044830152919091169063b5ce1db990606401604080518083038186803b15801561349c57600080fd5b505afa1580156134b0573d6000803e3d6000fd5b505050506040513d601f19601f820116820180604052508101906134d49190615958565b826000815181106134e7576134e7614e4d565b602002602001018360018151811061350157613501614e4d565b602090810291909101810192909252919091528b015160608c0151604051630818b5d560e21b81526001600160a01b03891692632062d7549261354892869060040161566a565b600060405180830381600087803b15801561356257600080fd5b505af1158015613576573d6000803e3d6000fd5b505050506040513d6000823e601f3d908101601f1916820160405261359e91908101906156ea565b5050505b60007f00000000000000000000000000000000000000000000000000000000000000006001600160a01b0316639cc1a2836040518061014001604052808d606001516000815181106135f6576135f6614e4d565b60200260200101516001600160a01b031681526020018d6060015160018151811061362357613623614e4d565b60200260200101516001600160a01b03168152602001866000015160020b8152602001866020015160020b81526020018c60a0015181526020018c60c0015181526020016000815260200160008152602001306001600160a01b031681526020016000198152506040518263ffffffff1660e01b81526004016136a6919061597c565b608060405180830381600087803b1580156136c057600080fd5b505af11580156136d4573d6000803e3d6000fd5b505050506040513d601f19601f820116820180604052508101906136f89190615a27565b5050604051632142170760e11b81523060048201526001600160a01b038881166024830152604482018490529293507f0000000000000000000000000000000000000000000000000000000000000000909216916342842e0e9150606401600060405180830381600087803b15801561377057600080fd5b505af1158015613784573d6000803e3d6000fd5b505050507face8748d23af65e86cf543d0298345b95115752e382befe3e832eacd1508adb0816040516137b991815260200190565b60405180910390a1831561387b57604051630852cd8d60e31b8152600481018590527f00000000000000000000000000000000000000000000000000000000000000006001600160a01b0316906342966c6890602401600060405180830381600087803b15801561382957600080fd5b505af115801561383d573d6000803e3d6000fd5b505050507f65d33d8ef62a81711748bbe2a7b67aef94d1a9af04a2690d3a4dfd13d9c1d22b8460405161387291815260200190565b60405180910390a15b509098975050505050505050565b60006138a36001600160a01b03851680600160601b612432565b90506000806138b98989856103938b8b896115ff565b9150915087610120015182815181106138d4576138d4614e4d565b60200260200101518110156138eb57505050613d96565b816001141561390657613903600160601b8085612432565b92505b600089602001516001600160a01b031663e5328e066040518163ffffffff1660e01b815260040160006040518083038186803b15801561394557600080fd5b505afa158015613959573d6000803e3d6000fd5b505050506040513d6000823e601f3d908101601f191682016040526139819190810190614f84565b5060208b01518b519192506001600160a01b031690632e2f4cc2906139aa600460008a8c615a63565b6139b391615a8d565b6139c0896004818d615a63565b6040518563ffffffff1660e01b81526004016139df9493929190615abd565b600060405180830381600087803b1580156139f957600080fd5b505af1158015613a0d573d6000803e3d6000fd5b505050506040513d6000823e601f3d908101601f19168201604052613a35919081019061512c565b5060008a602001516001600160a01b031663e5328e066040518163ffffffff1660e01b815260040160006040518083038186803b158015613a7557600080fd5b505afa158015613a89573d6000803e3d6000fd5b505050506040513d6000823e601f3d908101601f19168201604052613ab19190810190614f84565b509050818481518110613ac657613ac6614e4d565b6020026020010151818581518110613ae057613ae0614e4d565b6020026020010151111560405180604001604052806004815260200163494e564160e01b81525090613b255760405162461bcd60e51b81526004016107129190614b9e565b50818460011881518110613b3b57613b3b614e4d565b6020026020010151818560011881518110613b5857613b58614e4d565b6020026020010151101560405180604001604052806004815260200163494e564160e01b81525090613b9d5760405162461bcd60e51b81526004016107129190614b9e565b506000818581518110613bb257613bb2614e4d565b6020026020010151838681518110613bcc57613bcc614e4d565b6020026020010151613bde9190614f12565b90506000838660011881518110613bf757613bf7614e4d565b6020026020010151838760011881518110613c1457613c14614e4d565b6020026020010151613c269190614f12565b90506000613c3982600160601b85612432565b905080613c5e898f60e00151633b9aca00613c549190614f12565b633b9aca00612432565b1115604051806040016040528060048152602001634c494d5560e01b81525090613c9b5760405162461bcd60e51b81526004016107129190614b9e565b5082613cb6878f6101000151633b9aca00613c549190614f12565b1115604051806040016040528060048152602001634c494d5560e01b81525090613cf35760405162461bcd60e51b81526004016107129190614b9e565b5085613d0e848f6101000151633b9aca00613c549190614f12565b1115604051806040016040528060048152602001634c494d5560e01b81525090613d4b5760405162461bcd60e51b81526004016107129190614b9e565b5060408051848152602081018490529081018890527f984c316f55901f828cae2a57394002595129e75b4546d4a80c6c1a4787d748c29060600160405180910390a150505050505050505b505050505050565b613da882826115d6565b6108dd57613db581614081565b613dc0836020614093565b604051602001613dd1929190615b0e565b60408051601f198184030181529082905262461bcd60e51b825261071291600401614b9e565b613e0182826115d6565b6108dd576000828152602081815260408083206001600160a01b03851684529091529020805460ff19166001179055613e373390565b6001600160a01b0316816001600160a01b0316837f2f8788117e7eff1d82e926ec794901d17c78024a50270940304540a733656f0d60405160405180910390a45050565b60006115cf836001600160a01b03841661422e565b613e9a82826115d6565b156108dd576000828152602081815260408083206001600160a01b0385168085529252808320805460ff1916905551339285917ff6391f5c32d9c69d2a47ea670b442974b53935d1edc7fd64eb21e047a839171b9190a45050565b60006115cf836001600160a01b03841661427d565b6000613f5f826040518060400160405280602081526020017f5361666545524332303a206c6f772d6c6576656c2063616c6c206661696c6564815250856001600160a01b03166143709092919063ffffffff16565b9050805160001480613f80575080806020019051810190613f809190615b83565b61085e5760405162461bcd60e51b815260206004820152602a60248201527f5361666545524332303a204552433230206f7065726174696f6e20646964206e6044820152691bdd081cdd58d8d9595960b21b6064820152608401610712565b6000826000018281548110613ff657613ff6614e4d565b9060005260206000200154905092915050565b6060600080856001600160a01b0316856040516140269190615b9e565b600060405180830381855af49150503d8060008114614061576040519150601f19603f3d011682016040523d82523d6000602084013e614066565b606091505b50915091506140778683838761437f565b9695505050505050565b60606106b66001600160a01b03831660145b606060006140a28360026155d2565b6140ad906002614fe7565b6001600160401b038111156140c4576140c46145ee565b6040519080825280601f01601f1916602001820160405280156140ee576020820181803683370190505b509050600360fc1b8160008151811061410957614109614e4d565b60200101906001600160f81b031916908160001a905350600f60fb1b8160018151811061413857614138614e4d565b60200101906001600160f81b031916908160001a905350600061415c8460026155d2565b614167906001614fe7565b90505b60018111156141df576f181899199a1a9b1b9c1cb0b131b232b360811b85600f166010811061419b5761419b614e4d565b1a60f81b8282815181106141b1576141b1614e4d565b60200101906001600160f81b031916908160001a90535060049490941c936141d881615bba565b905061416a565b5083156115cf5760405162461bcd60e51b815260206004820181905260248201527f537472696e67733a20686578206c656e67746820696e73756666696369656e746044820152606401610712565b6000818152600183016020526040812054614275575081546001818101845560008481526020808220909301849055845484825282860190935260409020919091556106b6565b5060006106b6565b600081815260018301602052604081205480156143665760006142a1600183614f12565b85549091506000906142b590600190614f12565b905081811461431a5760008660000182815481106142d5576142d5614e4d565b90600052602060002001549050808760000184815481106142f8576142f8614e4d565b6000918252602080832090910192909255918252600188019052604090208390555b855486908061432b5761432b615bd1565b6001900381819060005260206000200160009055905585600101600086815260200190815260200160002060009055600193505050506106b6565b60009150506106b6565b60606106ca84846000856143f5565b606083156143eb5782516143e4576001600160a01b0385163b6143e45760405162461bcd60e51b815260206004820152601d60248201527f416464726573733a2063616c6c20746f206e6f6e2d636f6e74726163740000006044820152606401610712565b50816106ca565b6106ca83836144d0565b6060824710156144565760405162461bcd60e51b815260206004820152602660248201527f416464726573733a20696e73756666696369656e742062616c616e636520666f6044820152651c8818d85b1b60d21b6064820152608401610712565b600080866001600160a01b031685876040516144729190615b9e565b60006040518083038185875af1925050503d80600081146144af576040519150601f19603f3d011682016040523d82523d6000602084013e6144b4565b606091505b50915091506144c58783838761437f565b979650505050505050565b8151156144e05781518083602001fd5b8060405162461bcd60e51b81526004016107129190614b9e565b828054828255906000526020600020908101928215614535579160200282015b8281111561453557825182559160200191906001019061451a565b5061454192915061459a565b5090565b828054828255906000526020600020908101928215614535579160200282015b8281111561453557825182546001600160a01b0319166001600160a01b03909116178255602090920191600190910190614565565b5b80821115614541576000815560010161459b565b6000602082840312156145c157600080fd5b81356001600160e01b0319811681146115cf57600080fd5b6001600160a01b03811681146123eb57600080fd5b634e487b7160e01b600052604160045260246000fd5b604051608081016001600160401b0381118282101715614626576146266145ee565b60405290565b60405161014081016001600160401b0381118282101715614626576146266145ee565b604051601f8201601f191681016001600160401b0381118282101715614677576146776145ee565b604052919050565b60006001600160401b03821115614698576146986145ee565b50601f01601f191660200190565b600080600080608085870312156146bc57600080fd5b84356146c7816145d9565b935060208501356146d7816145d9565b92506040850135915060608501356001600160401b038111156146f957600080fd5b8501601f8101871361470a57600080fd5b803561471d6147188261467f565b61464f565b81815288602083850101111561473257600080fd5b8160208401602083013760006020838301015280935050505092959194509250565b60006020828403121561476657600080fd5b81356115cf816145d9565b60006020828403121561478357600080fd5b5035919050565b6000806040838503121561479d57600080fd5b8235915060208301356147af816145d9565b809150509250929050565b60006001600160401b038211156147d3576147d36145ee565b5060051b60200190565b6000608082840312156147ef57600080fd5b6147f7614604565b90508135614804816145d9565b8152602082810135614815816145d9565b828201526040830135614827816145d9565b604083015260608301356001600160401b0381111561484557600080fd5b8301601f8101851361485657600080fd5b8035614864614718826147ba565b81815260059190911b8201830190838101908783111561488357600080fd5b928401925b828410156148aa57833561489b816145d9565b82529284019290840190614888565b6060860152509295945050505050565b6000602082840312156148cc57600080fd5b81356001600160401b038111156148e257600080fd5b6106ca848285016147dd565b8060020b81146123eb57600080fd5b8035614908816148ee565b919050565b63ffffffff811681146123eb57600080fd5b80356149088161490d565b600082601f83011261493b57600080fd5b8135602061494b614718836147ba565b82815260059290921b8401810191818101908684111561496a57600080fd5b8286015b84811015614985578035835291830191830161496e565b509695505050505050565b600061014082840312156149a357600080fd5b6149ab61462c565b90506149b6826148fd565b81526149c4602083016148fd565b60208201526149d5604083016148fd565b60408201526149e6606083016148fd565b60608201526149f76080830161491f565b608082015260a082013560a082015260c082013560c082015260e082013560e0820152610100808301358183015250610120808301356001600160401b03811115614a4157600080fd5b614a4d8582860161492a565b82840152505092915050565b60008060008060808587031215614a6f57600080fd5b84356001600160401b0380821115614a8657600080fd5b614a92888389016147dd565b95506020870135915080821115614aa857600080fd5b50614ab587828801614990565b949794965050505060408301359260600135919050565b600060208284031215614ade57600080fd5b81356001600160401b03811115614af457600080fd5b6106ca84828501614990565b60008060408385031215614b1357600080fd5b82356001600160401b03811115614b2957600080fd5b614b35858286016147dd565b92505060208301356147af816145d9565b60005b83811015614b61578181015183820152602001614b49565b838111156126165750506000910152565b60008151808452614b8a816020860160208601614b46565b601f01601f19169290920160200192915050565b6020815260006115cf6020830184614b72565b60008060408385031215614bc457600080fd5b50508035926020909101359150565b60008060008385036080811215614be957600080fd5b6040811215614bf757600080fd5b50604051604081018181106001600160401b0382111715614c1a57614c1a6145ee565b6040528435614c28816148ee565b81526020850135614c38816148ee565b602082015292506040840135614c4d816145d9565b929592945050506060919091013590565b60008060208385031215614c7157600080fd5b82356001600160401b0380821115614c8857600080fd5b818501915085601f830112614c9c57600080fd5b813581811115614cab57600080fd5b8660208260051b8501011115614cc057600080fd5b60209290920196919550909350505050565b6000602080830181845280855180835260408601915060408160051b870101925083870160005b82811015614d2757603f19888603018452614d15858351614b72565b94509285019290850190600101614cf9565b5092979650505050505050565b60008060408385031215614d4757600080fd5b82356001600160401b03811115614d5d57600080fd5b614b3585828601614990565b600080600060408486031215614d7e57600080fd5b8335925060208401356001600160401b0380821115614d9c57600080fd5b818601915086601f830112614db057600080fd5b813581811115614dbf57600080fd5b876020828501011115614dd157600080fd5b6020830194508093505050509250925092565b60008060008060808587031215614dfa57600080fd5b84356001600160401b03811115614e1057600080fd5b614e1c87828801614990565b9450506020850135614e2d816148ee565b92506040850135614e3d816145d9565b9396929550929360600135925050565b634e487b7160e01b600052603260045260246000fd5b8051614908816145d9565b60006020808385031215614e8157600080fd5b82516001600160401b03811115614e9757600080fd5b8301601f81018513614ea857600080fd5b8051614eb6614718826147ba565b81815260059190911b82018301908381019087831115614ed557600080fd5b928401925b828410156144c5578351614eed816145d9565b82529284019290840190614eda565b634e487b7160e01b600052601160045260246000fd5b600082821015614f2457614f24614efc565b500390565b600082601f830112614f3a57600080fd5b81516020614f4a614718836147ba565b82815260059290921b84018101918181019086841115614f6957600080fd5b8286015b848110156149855780518352918301918301614f6d565b60008060408385031215614f9757600080fd5b82516001600160401b0380821115614fae57600080fd5b614fba86838701614f29565b93506020850151915080821115614fd057600080fd5b50614fdd85828601614f29565b9150509250929050565b60008219821115614ffa57614ffa614efc565b500190565b600081518084526020808501945080840160005b8381101561502f57815187529582019590820190600101615013565b509495945050505050565b6020815261504e60208201835160020b9052565b60006020830151615064604084018260020b9052565b506040830151615079606084018260020b9052565b50606083015161508e608084018260020b9052565b50608083015163ffffffff811660a08401525060a083015160c083015260c083015160e083015260e08301516101008181850152808501519150506101208181850152808501519150506101408081850152506106ca610160840182614fff565b6001600160a01b03841681526001600160e01b03198316602082015260606040820181905260009061512390830184614b72565b95945050505050565b60006020828403121561513e57600080fd5b81516001600160401b0381111561515457600080fd5b8201601f8101841361516557600080fd5b80516151736147188261467f565b81815285602083850101111561518857600080fd5b615123826020830160208601614b46565b60006000198214156151ad576151ad614efc565b5060010190565b6000602082840312156151c657600080fd5b81516115cf816145d9565b6000808335601e198436030181126151e857600080fd5b8301803591506001600160401b0382111561520257600080fd5b60200191503681900382131561306857600080fd5b8051614908816148ee565b60006020828403121561523457600080fd5b81516115cf816148ee565b60008160020b8360020b627fffff60008213600084138383048511828216161561526b5761526b614efc565b627fffff19600085128281168783058712161561528a5761528a614efc565b600087129250858205871284841616156152a6576152a6614efc565b858505871281841616156152bc576152bc614efc565b5050509290910295945050505050565b634e487b7160e01b600052601260045260246000fd5b60008260020b806152f5576152f56152cc565b808360020b0791505092915050565b60008160020b627fffff1981141561531e5761531e614efc565b60000392915050565b60008160020b8360020b8061533e5761533e6152cc565b627fffff1982146000198214161561535857615358614efc565b90059392505050565b805161ffff8116811461490857600080fd5b805160ff8116811461490857600080fd5b8051801515811461490857600080fd5b600080600080600080600060e0888a0312156153af57600080fd5b87516153ba816145d9565b60208901519097506153cb816148ee565b95506153d960408901615361565b94506153e760608901615361565b93506153f560808901615373565b925061540360a08901615373565b915061541160c08901615384565b905092959891949750929550565b60008160020b8360020b6000811281627fffff190183128115161561544657615446614efc565b81627fffff01831381161561545d5761545d614efc565b5090039392505050565b80516001600160801b038116811461490857600080fd5b60008060008060008060008060008060006101608c8e0312156154a057600080fd5b8b516bffffffffffffffffffffffff811681146154bc57600080fd5b60208d0151909b506154cd816145d9565b60408d0151909a506154de816145d9565b98506154ec60608d01614e63565b97506154fa60808d01615217565b965061550860a08d01615217565b955061551660c08d01615467565b945060e08c015193506101008c015192506155346101208d01615467565b91506155436101408d01615467565b90509295989b509295989b9093969950565b60008160020b8360020b6000821282627fffff0382138115161561557b5761557b614efc565b82627fffff1903821281161561559357615593614efc565b50019392505050565b6000602082840312156155ae57600080fd5b5051919050565b6000600160ff1b8214156155cb576155cb614efc565b5060000390565b60008160001904831182151516156155ec576155ec614efc565b500290565b600082615600576156006152cc565b500490565b600082615614576156146152cc565b500690565b6000806000806080858703121561562f57600080fd5b8451935060208501516156418161490d565b925061564f60408601615384565b9150606085015161565f816145d9565b939692955090935050565b6001600160a01b0384811682526080602080840182905285519184018290526000928682019290919060a0860190855b818110156156b857855185168352948301949183019160010161569a565b505085810360408701526156cc8188614fff565b86810360609097019690965250600085529093019695505050505050565b6000602082840312156156fc57600080fd5b81516001600160401b0381111561571257600080fd5b6106ca84828501614f29565b6020808252825182820181905260009190848201906040850190845b8181101561575c57835163ffffffff168352928401929184019160010161573a565b50909695505050505050565b600082601f83011261577957600080fd5b81516020615789614718836147ba565b82815260059290921b840181019181810190868411156157a857600080fd5b8286015b848110156149855780516157bf816145d9565b83529183019183016157ac565b600082601f8301126157dd57600080fd5b815160206157ed614718836147ba565b82815260059290921b8401810191818101908684111561580c57600080fd5b8286015b848110156149855780516dffffffffffffffffffffffffffff811681146158375760008081fd5b8352918301918301615810565b6000806000806080858703121561585a57600080fd5b84516001600160401b038082111561587157600080fd5b818701915087601f83011261588557600080fd5b81516020615895614718836147ba565b82815260059290921b8401810191818101908b8411156158b457600080fd5b948201945b838610156158e25785518060060b81146158d35760008081fd5b825294820194908201906158b9565b918a01519198509093505050808211156158fb57600080fd5b61590788838901615768565b9450604087015191508082111561591d57600080fd5b615929888389016157cc565b9350606087015191508082111561593f57600080fd5b5061594c87828801614f29565b91505092959194509250565b6000806040838503121561596b57600080fd5b505080516020909101519092909150565b81516001600160a01b03168152610140810160208301516159a860208401826001600160a01b03169052565b5060408301516159bd604084018260020b9052565b5060608301516159d2606084018260020b9052565b506080830151608083015260a083015160a083015260c083015160c083015260e083015160e083015261010080840151615a16828501826001600160a01b03169052565b505061012092830151919092015290565b60008060008060808587031215615a3d57600080fd5b84519350615a4d60208601615467565b6040860151606090960151949790965092505050565b60008085851115615a7357600080fd5b83861115615a8057600080fd5b5050820193919092039150565b6001600160e01b03198135818116916004851015615ab55780818660040360031b1b83161692505b505092915050565b6001600160a01b03851681526001600160e01b0319841660208201526060604082018190528101829052818360808301376000818301608090810191909152601f909201601f191601019392505050565b7f416363657373436f6e74726f6c3a206163636f756e7420000000000000000000815260008351615b46816017850160208801614b46565b7001034b99036b4b9b9b4b733903937b6329607d1b6017918401918201528351615b77816028840160208801614b46565b01602801949350505050565b600060208284031215615b9557600080fd5b6115cf82615384565b60008251615bb0818460208701614b46565b9190910192915050565b600081615bc957615bc9614efc565b506000190190565b634e487b7160e01b600052603160045260246000fdfec171260023d22a25a00a2789664c9334017843b831138c8ef03cc8897e5873d7f23ec0bb4210edd5cba85afd05127efcd2fc6a781bfed49188da1081670b22d846a52cf33029de9f84853745a87af28464c80bf0346df1b32e205fc73319f622416464726573733a206c6f772d6c6576656c2064656c65676174652063616c6c206661696c6564a2646970667358221220e1f7e9985888a67224fb85e3fafbccf955502b63e174bb33f19e0332c30de6fb64736f6c63430008090033",
    "linkReferences": {}
  },
  "methodIdentifiers": {
    "ADMIN_DELEGATE_ROLE()": "0952ff54",
    "ADMIN_ROLE()": "75b238fc",
    "D6()": "a11bac74",
    "D9()": "551530ae",
    "DEFAULT_ADMIN_ROLE()": "a217fddf",
    "OPERATOR()": "983d2737",
    "Q96()": "40792465",
    "algebraPool()": "9f747b20",
    "calculateAmountsForSwap((address,address,address,address[]),(int24,int24,int24,int24,uint32,uint256,uint256,uint256,uint256,uint256[]),uint256,uint256)": "50c9d3bb",
    "calculateNewPosition((int24,int24,int24,int24,uint32,uint256,uint256,uint256,uint256,uint256[]),int24,address,uint256)": "fe57ed61",
    "calculateTargetRatioOfToken1((int24,int24),uint160,uint256)": "9bb37ba8",
    "checkImmutableParams((address,address,address,address[]))": "475cffef",
    "checkMutableParams((int24,int24,int24,int24,uint32,uint256,uint256,uint256,uint256,uint256[]))": "d7a678c0",
    "checkTickDeviation((int24,int24,int24,int24,uint32,uint256,uint256,uint256,uint256,uint256[]),address)": "f05329b2",
    "contractName()": "75d0c0dc",
    "contractNameBytes()": "0e3e80ac",
    "contractVersion()": "a0a8e460",
    "contractVersionBytes()": "06a46239",
    "depositCallback()": "e521826f",
    "getRoleAdmin(bytes32)": "248a9ca3",
    "getRoleMember(bytes32,uint256)": "9010d07c",
    "getRoleMemberCount(bytes32)": "ca15c873",
    "grantRole(bytes32,address)": "2f2ff15d",
    "hasRole(bytes32,address)": "91d14854",
    "immutableParams()": "c8014d53",
    "init(address)": "19ab453c",
    "initialize((address,address,address,address[]),address)": "6ff0b358",
    "initialized()": "158ef93e",
    "isAdmin(address)": "24d7806c",
    "isOperator(address)": "6d70f7ae",
    "multicall(bytes[])": "ac9650d8",
    "mutableParams()": "5f408a21",
    "onERC721Received(address,address,uint256,bytes)": "150b7a02",
    "positionManager()": "791b98bc",
    "rebalance(uint256,bytes)": "f936506c",
    "renounceRole(bytes32,address)": "36568abe",
    "revokeRole(bytes32,address)": "d547741f",
    "supportsInterface(bytes4)": "01ffc9a7",
    "updateMutableParams((int24,int24,int24,int24,uint32,uint256,uint256,uint256,uint256,uint256[]))": "60aa2705",
    "withdrawCallback()": "b4559f3e"
  },
  "id": 400
}