{
  "abi": [
    {
      "inputs": [
        {
          "internalType": "address",
          "name": "pool",
          "type": "address"
        },
        {
          "internalType": "int24",
          "name": "maxDeviation",
          "type": "int24"
        },
        {
          "internalType": "uint32",
          "name": "timespan",
          "type": "uint32"
        }
      ],
      "name": "checkAlgebraPoolState",
      "outputs": [],
      "stateMutability": "view",
      "type": "function"
    },
    {
      "inputs": [
        {
          "internalType": "address",
          "name": "pool",
          "type": "address"
        },
        {
          "internalType": "int24",
          "name": "maxDeviation",
          "type": "int24"
        },
        {
          "internalType": "uint32",
          "name": "timespan",
          "type": "uint32"
        }
      ],
      "name": "checkUniV3PoolState",
      "outputs": [],
      "stateMutability": "view",
      "type": "function"
    }
  ],
  "bytecode": {
    "object": "0x608060405234801561001057600080fd5b50610e42806100206000396000f3fe608060405234801561001057600080fd5b50600436106100365760003560e01c80635176e37e1461003b578063c4408e6b14610050575b600080fd5b61004e6100493660046106da565b610063565b005b61004e61005e3660046106da565b6101ac565b6000836001600160a01b0316633850c7bd6040518163ffffffff1660e01b815260040160e06040518083038186803b15801561009e57600080fd5b505afa1580156100b2573d6000803e3d6000fd5b505050506040513d601f19601f820116820180604052508101906100d69190610766565b50505050509150506000806100eb8685610276565b925050915080156040518060400160405280600581526020016412539594d560da1b815250906101375760405162461bcd60e51b815260040161012e91906107f1565b60405180910390fd5b506000610144838561085c565b905060008160020b121561015e5761015b816108a4565b90505b8560020b8160020b12604051806040016040528060048152602001634c494d4f60e01b815250906101a25760405162461bcd60e51b815260040161012e91906107f1565b5050505050505050565b6000836001600160a01b031663e76c01e46040518163ffffffff1660e01b815260040160e06040518083038186803b1580156101e757600080fd5b505afa1580156101fb573d6000803e3d6000fd5b505050506040513d601f19601f8201168201806040525081019061021f91906108c7565b505050505091505060008061023486856104d0565b9150915080156040518060400160405280600581526020016412539594d560da1b815250906101375760405162461bcd60e51b815260040161012e91906107f1565b6000808063ffffffff84166102b25760405162461bcd60e51b8152602060048201526002602482015261042560f41b604482015260640161012e565b60408051600280825260608201835260009260208301908036833701905050905084816000815181106102e7576102e761093e565b602002602001019063ffffffff16908163ffffffff16815250506000816001815181106103165761031661093e565b63ffffffff9092166020928302919091019091015260405163883bdbfd60e01b81526001600160a01b0387169063883bdbfd90610357908490600401610954565b60006040518083038186803b15801561036f57600080fd5b505afa9250505080156103a457506040513d6000823e601f3d908101601f191682016040526103a19190810190610ad2565b60015b6103b9576000806001935093509350506104c9565b6000826000815181106103ce576103ce61093e565b6020026020010151836001815181106103e9576103e961093e565b60200260200101516103fb9190610b36565b90506000826000815181106104125761041261093e565b60200260200101518360018151811061042d5761042d61093e565b602002602001015161043f9190610b7c565b905061045163ffffffff8a1683610bba565b975060008260060b128015610477575061047163ffffffff8a1683610bf8565b60060b15155b1561048a578761048681610c1a565b9850505b60006104a36001600160a01b0363ffffffff8c16610c3e565b90506104c0640100000000600160c01b03602084901b1682610c6d565b97505050505050505b9250925092565b60008063ffffffff831661050b5760405162461bcd60e51b8152602060048201526002602482015261042560f41b604482015260640161012e565b60408051600280825260608201835260009260208301908036833701905050905083816000815181106105405761054061093e565b602002602001019063ffffffff16908163ffffffff168152505060008160018151811061056f5761056f61093e565b63ffffffff90921660209283029190910190910152604051639d3a524160e01b81526001600160a01b03861690639d3a5241906105b0908490600401610954565b60006040518083038186803b1580156105c857600080fd5b505afa9250505080156105fd57506040513d6000823e601f3d908101601f191682016040526105fa9190810190610cee565b60015b61060f576000600192509250506106ac565b6000846000815181106106245761062461093e565b60200260200101518560018151811061063f5761063f61093e565b60200260200101510390508863ffffffff1660060b8160060b8161066557610665610ba4565b05975060008160060b12801561069857508863ffffffff1660060b8160060b8161069157610691610ba4565b0760060b15155b156106a557600019909701965b5050505050505b9250929050565b6001600160a01b03811681146106c857600080fd5b50565b8060020b81146106c857600080fd5b6000806000606084860312156106ef57600080fd5b83356106fa816106b3565b9250602084013561070a816106cb565b9150604084013563ffffffff8116811461072357600080fd5b809150509250925092565b805161ffff8116811461074057600080fd5b919050565b805160ff8116811461074057600080fd5b8051801515811461074057600080fd5b600080600080600080600060e0888a03121561078157600080fd5b875161078c816106b3565b602089015190975061079d816106cb565b95506107ab6040890161072e565b94506107b96060890161072e565b93506107c76080890161072e565b92506107d560a08901610745565b91506107e360c08901610756565b905092959891949750929550565b600060208083528351808285015260005b8181101561081e57858101830151858201604001528201610802565b81811115610830576000604083870101525b50601f01601f1916929092016040019392505050565b634e487b7160e01b600052601160045260246000fd5b60008160020b8360020b6000811281627fffff190183128115161561088357610883610846565b81627fffff01831381161561089a5761089a610846565b5090039392505050565b60008160020b627fffff198114156108be576108be610846565b60000392915050565b600080600080600080600060e0888a0312156108e257600080fd5b87516108ed816106b3565b60208901519097506108fe816106cb565b955061090c6040890161072e565b945061091a6060890161072e565b93506107c760808901610745565b634e487b7160e01b600052604160045260246000fd5b634e487b7160e01b600052603260045260246000fd5b6020808252825182820181905260009190848201906040850190845b8181101561099257835163ffffffff1683529284019291840191600101610970565b50909695505050505050565b604051601f8201601f1916810167ffffffffffffffff811182821017156109c7576109c7610928565b604052919050565b600067ffffffffffffffff8211156109e9576109e9610928565b5060051b60200190565b600082601f830112610a0457600080fd5b81516020610a19610a14836109cf565b61099e565b82815260059290921b84018101918181019086841115610a3857600080fd5b8286015b84811015610a635780518060060b8114610a565760008081fd5b8352918301918301610a3c565b509695505050505050565b600082601f830112610a7f57600080fd5b81516020610a8f610a14836109cf565b82815260059290921b84018101918181019086841115610aae57600080fd5b8286015b84811015610a63578051610ac5816106b3565b8352918301918301610ab2565b60008060408385031215610ae557600080fd5b825167ffffffffffffffff80821115610afd57600080fd5b610b09868387016109f3565b93506020850151915080821115610b1f57600080fd5b50610b2c85828601610a6e565b9150509250929050565b60008160060b8360060b6000811281667fffffffffffff1901831281151615610b6157610b61610846565b81667fffffffffffff01831381161561089a5761089a610846565b60006001600160a01b0383811690831681811015610b9c57610b9c610846565b039392505050565b634e487b7160e01b600052601260045260246000fd5b60008160060b8360060b80610bd157610bd1610ba4565b667fffffffffffff19821460001982141615610bef57610bef610846565b90059392505050565b60008260060b80610c0b57610c0b610ba4565b808360060b0791505092915050565b60008160020b627fffff19811415610c3457610c34610846565b6000190192915050565b60006001600160c01b0382811684821681151582840482111615610c6457610c64610846565b02949350505050565b60006001600160c01b0383811680610c8757610c87610ba4565b92169190910492915050565b600082601f830112610ca457600080fd5b81516020610cb4610a14836109cf565b82815260059290921b84018101918181019086841115610cd357600080fd5b8286015b84811015610a635780518352918301918301610cd7565b60008060008060808587031215610d0457600080fd5b845167ffffffffffffffff80821115610d1c57600080fd5b610d28888389016109f3565b9550602091508187015181811115610d3f57600080fd5b610d4b89828a01610a6e565b955050604087015181811115610d6057600080fd5b8701601f81018913610d7157600080fd5b8051610d7f610a14826109cf565b81815260059190911b8201840190848101908b831115610d9e57600080fd5b928501925b82841015610dd95783516dffffffffffffffffffffffffffff81168114610dca5760008081fd5b82529285019290850190610da3565b60608b0151909750945050505080821115610df357600080fd5b50610e0087828801610c93565b9150509295919450925056fea26469706673582212200a3db09a8acebebf1e641dc9729dce29780b2c5b649cc6b10c8837955b7d651164736f6c63430008090033",
    "linkReferences": {}
  },
  "methodIdentifiers": {
    "checkAlgebraPoolState(address,int24,uint32)": "c4408e6b",
    "checkUniV3PoolState(address,int24,uint32)": "5176e37e"
  },
  "id": 433
}