{
  "abi": [
    {
      "anonymous": false,
      "inputs": [
        {
          "indexed": true,
          "internalType": "address",
          "name": "origin",
          "type": "address"
        },
        {
          "indexed": true,
          "internalType": "address",
          "name": "sender",
          "type": "address"
        },
        {
          "indexed": false,
          "internalType": "address[]",
          "name": "vaultTokens_",
          "type": "address[]"
        },
        {
          "indexed": false,
          "internalType": "uint256",
          "name": "nft_",
          "type": "uint256"
        }
      ],
      "name": "Initialized",
      "type": "event"
    },
    {
      "anonymous": false,
      "inputs": [
        {
          "indexed": false,
          "internalType": "address",
          "name": "to",
          "type": "address"
        },
        {
          "indexed": false,
          "internalType": "uint256[]",
          "name": "tokenAmounts",
          "type": "uint256[]"
        }
      ],
      "name": "Pull",
      "type": "event"
    },
    {
      "anonymous": false,
      "inputs": [
        {
          "indexed": false,
          "internalType": "uint256[]",
          "name": "tokenAmounts",
          "type": "uint256[]"
        }
      ],
      "name": "Push",
      "type": "event"
    },
    {
      "anonymous": false,
      "inputs": [
        {
          "indexed": false,
          "internalType": "address",
          "name": "to",
          "type": "address"
        },
        {
          "indexed": false,
          "internalType": "address[]",
          "name": "tokens",
          "type": "address[]"
        },
        {
          "indexed": false,
          "internalType": "uint256[]",
          "name": "tokenAmounts",
          "type": "uint256[]"
        }
      ],
      "name": "ReclaimTokens",
      "type": "event"
    },
    {
      "inputs": [],
      "name": "D9",
      "outputs": [
        {
          "internalType": "uint256",
          "name": "",
          "type": "uint256"
        }
      ],
      "stateMutability": "view",
      "type": "function"
    },
    {
      "inputs": [],
      "name": "Q96",
      "outputs": [
        {
          "internalType": "uint256",
          "name": "",
          "type": "uint256"
        }
      ],
      "stateMutability": "view",
      "type": "function"
    },
    {
      "inputs": [],
      "name": "balancerMinter",
      "outputs": [
        {
          "internalType": "contract IBalancerMinter",
          "name": "",
          "type": "address"
        }
      ],
      "stateMutability": "view",
      "type": "function"
    },
    {
      "inputs": [],
      "name": "balancerVault",
      "outputs": [
        {
          "internalType": "contract IVault",
          "name": "",
          "type": "address"
        }
      ],
      "stateMutability": "view",
      "type": "function"
    },
    {
      "inputs": [],
      "name": "claimBalancerRewardToken",
      "outputs": [
        {
          "internalType": "uint256",
          "name": "amount",
          "type": "uint256"
        }
      ],
      "stateMutability": "nonpayable",
      "type": "function"
    },
    {
      "inputs": [],
      "name": "claimRewards",
      "outputs": [],
      "stateMutability": "nonpayable",
      "type": "function"
    },
    {
      "inputs": [
        {
          "internalType": "address",
          "name": "to",
          "type": "address"
        },
        {
          "internalType": "bytes4",
          "name": "selector",
          "type": "bytes4"
        },
        {
          "internalType": "bytes",
          "name": "data",
          "type": "bytes"
        }
      ],
      "name": "externalCall",
      "outputs": [
        {
          "internalType": "bytes",
          "name": "result",
          "type": "bytes"
        }
      ],
      "stateMutability": "payable",
      "type": "function"
    },
    {
      "inputs": [
        {
          "internalType": "contract IAggregatorV3",
          "name": "oracle",
          "type": "address"
        },
        {
          "internalType": "contract IAsset",
          "name": "token",
          "type": "address"
        }
      ],
      "name": "getPriceToUSDX96",
      "outputs": [
        {
          "internalType": "uint256",
          "name": "priceX96",
          "type": "uint256"
        }
      ],
      "stateMutability": "view",
      "type": "function"
    },
    {
      "inputs": [
        {
          "internalType": "uint256",
          "name": "nft_",
          "type": "uint256"
        },
        {
          "internalType": "address[]",
          "name": "vaultTokens_",
          "type": "address[]"
        },
        {
          "internalType": "address",
          "name": "pool_",
          "type": "address"
        },
        {
          "internalType": "address",
          "name": "balancerVault_",
          "type": "address"
        },
        {
          "internalType": "address",
          "name": "stakingLiquidityGauge_",
          "type": "address"
        },
        {
          "internalType": "address",
          "name": "balancerMinter_",
          "type": "address"
        }
      ],
      "name": "initialize",
      "outputs": [],
      "stateMutability": "nonpayable",
      "type": "function"
    },
    {
      "inputs": [],
      "name": "initialized",
      "outputs": [
        {
          "internalType": "bool",
          "name": "",
          "type": "bool"
        }
      ],
      "stateMutability": "view",
      "type": "function"
    },
    {
      "inputs": [
        {
          "internalType": "bytes32",
          "name": "_hash",
          "type": "bytes32"
        },
        {
          "internalType": "bytes",
          "name": "_signature",
          "type": "bytes"
        }
      ],
      "name": "isValidSignature",
      "outputs": [
        {
          "internalType": "bytes4",
          "name": "magicValue",
          "type": "bytes4"
        }
      ],
      "stateMutability": "view",
      "type": "function"
    },
    {
      "inputs": [
        {
          "internalType": "address",
          "name": "token",
          "type": "address"
        }
      ],
      "name": "isVaultToken",
      "outputs": [
        {
          "internalType": "bool",
          "name": "",
          "type": "bool"
        }
      ],
      "stateMutability": "view",
      "type": "function"
    },
    {
      "inputs": [],
      "name": "nft",
      "outputs": [
        {
          "internalType": "uint256",
          "name": "",
          "type": "uint256"
        }
      ],
      "stateMutability": "view",
      "type": "function"
    },
    {
      "inputs": [],
      "name": "pool",
      "outputs": [
        {
          "internalType": "contract IManagedPool",
          "name": "",
          "type": "address"
        }
      ],
      "stateMutability": "view",
      "type": "function"
    },
    {
      "inputs": [
        {
          "internalType": "address",
          "name": "to",
          "type": "address"
        },
        {
          "internalType": "address[]",
          "name": "tokens",
          "type": "address[]"
        },
        {
          "internalType": "uint256[]",
          "name": "tokenAmounts",
          "type": "uint256[]"
        },
        {
          "internalType": "bytes",
          "name": "options",
          "type": "bytes"
        }
      ],
      "name": "pull",
      "outputs": [
        {
          "internalType": "uint256[]",
          "name": "actualTokenAmounts",
          "type": "uint256[]"
        }
      ],
      "stateMutability": "nonpayable",
      "type": "function"
    },
    {
      "inputs": [],
      "name": "pullExistentials",
      "outputs": [
        {
          "internalType": "uint256[]",
          "name": "",
          "type": "uint256[]"
        }
      ],
      "stateMutability": "view",
      "type": "function"
    },
    {
      "inputs": [
        {
          "internalType": "address[]",
          "name": "tokens",
          "type": "address[]"
        },
        {
          "internalType": "uint256[]",
          "name": "tokenAmounts",
          "type": "uint256[]"
        },
        {
          "internalType": "bytes",
          "name": "options",
          "type": "bytes"
        }
      ],
      "name": "push",
      "outputs": [
        {
          "internalType": "uint256[]",
          "name": "actualTokenAmounts",
          "type": "uint256[]"
        }
      ],
      "stateMutability": "nonpayable",
      "type": "function"
    },
    {
      "inputs": [
        {
          "internalType": "address[]",
          "name": "tokens",
          "type": "address[]"
        }
      ],
      "name": "reclaimTokens",
      "outputs": [
        {
          "internalType": "uint256[]",
          "name": "actualTokenAmounts",
          "type": "uint256[]"
        }
      ],
      "stateMutability": "nonpayable",
      "type": "function"
    },
    {
      "inputs": [],
      "name": "stakingLiquidityGauge",
      "outputs": [
        {
          "internalType": "contract IStakingLiquidityGauge",
          "name": "",
          "type": "address"
        }
      ],
      "stateMutability": "view",
      "type": "function"
    },
    {
      "inputs": [
        {
          "internalType": "bytes4",
          "name": "interfaceId",
          "type": "bytes4"
        }
      ],
      "name": "supportsInterface",
      "outputs": [
        {
          "internalType": "bool",
          "name": "",
          "type": "bool"
        }
      ],
      "stateMutability": "view",
      "type": "function"
    },
    {
      "inputs": [
        {
          "internalType": "address",
          "name": "from",
          "type": "address"
        },
        {
          "internalType": "address[]",
          "name": "tokens",
          "type": "address[]"
        },
        {
          "internalType": "uint256[]",
          "name": "tokenAmounts",
          "type": "uint256[]"
        },
        {
          "internalType": "bytes",
          "name": "options",
          "type": "bytes"
        }
      ],
      "name": "transferAndPush",
      "outputs": [
        {
          "internalType": "uint256[]",
          "name": "actualTokenAmounts",
          "type": "uint256[]"
        }
      ],
      "stateMutability": "nonpayable",
      "type": "function"
    },
    {
      "inputs": [],
      "name": "tvl",
      "outputs": [
        {
          "internalType": "uint256[]",
          "name": "minTokenAmounts",
          "type": "uint256[]"
        },
        {
          "internalType": "uint256[]",
          "name": "maxTokenAmounts",
          "type": "uint256[]"
        }
      ],
      "stateMutability": "view",
      "type": "function"
    },
    {
      "inputs": [],
      "name": "vaultGovernance",
      "outputs": [
        {
          "internalType": "contract IVaultGovernance",
          "name": "",
          "type": "address"
        }
      ],
      "stateMutability": "view",
      "type": "function"
    },
    {
      "inputs": [],
      "name": "vaultTokens",
      "outputs": [
        {
          "internalType": "address[]",
          "name": "",
          "type": "address[]"
        }
      ],
      "stateMutability": "view",
      "type": "function"
    }
  ],
  "bytecode": {
    "object": "0x608060405234801561001057600080fd5b5060016000556000196004556152e98061002b6000396000f3fe60806040526004361061014a5760003560e01c8063338c4ccb116100b6578063697222331161006f57806369722233146103d0578063823c5d7c146103f2578063d2c219b014610412578063d3d338ae14610427578063e5328e0614610447578063fe255a5e1461046a57600080fd5b8063338c4ccb1461031c578063372500ab14610354578063407924651461036b57806347ccca0214610383578063551530ae14610398578063566ca6b4146103b057600080fd5b8063158ef93e11610108578063158ef93e1461024c5780631626ba7e1461026357806316f0115b1461029c5780632062d754146102bc57806327a35e5a146102dc5780632e2f4cc2146102fc57600080fd5b8062b17aaf1461014f57806301ffc9a71461018c57806302f345b2146101bc57806305e1c942146101df5780630a41ac321461020c578063158274a51461022c575b600080fd5b34801561015b57600080fd5b5060095461016f906001600160a01b031681565b6040516001600160a01b0390911681526020015b60405180910390f35b34801561019857600080fd5b506101ac6101a73660046140ad565b610488565b6040519015158152602001610183565b3480156101c857600080fd5b506101d16104b4565b604051908152602001610183565b3480156101eb57600080fd5b506101ff6101fa366004614206565b61084a565b6040516101839190614275565b34801561021857600080fd5b506101d1610227366004614288565b610cc2565b34801561023857600080fd5b5060075461016f906001600160a01b031681565b34801561025857600080fd5b5060045415156101ac565b34801561026f57600080fd5b5061028361027e366004614339565b610e54565b6040516001600160e01b03199091168152602001610183565b3480156102a857600080fd5b5060065461016f906001600160a01b031681565b3480156102c857600080fd5b506101ff6102d73660046143da565b6111a1565b3480156102e857600080fd5b506101ff6102f73660046143da565b61164d565b61030f61030a366004614474565b6117d4565b604051610183919061455d565b34801561032857600080fd5b506101ac610337366004614570565b6001600160a01b0316600090815260036020526040902054151590565b34801561036057600080fd5b50610369611aa8565b005b34801561037757600080fd5b506101d1600160601b81565b34801561038f57600080fd5b506004546101d1565b3480156103a457600080fd5b506101d1633b9aca0081565b3480156103bc57600080fd5b506101ff6103cb36600461458d565b611b97565b3480156103dc57600080fd5b506103e5611e67565b604051610183919061464d565b3480156103fe57600080fd5b5060085461016f906001600160a01b031681565b34801561041e57600080fd5b506101ff611ec9565b34801561043357600080fd5b50610369610442366004614660565b611f20565b34801561045357600080fd5b5061045c61222d565b6040516101839291906146f1565b34801561047657600080fd5b506001546001600160a01b031661016f565b600061049382612589565b806104ae57506001600160e01b0319821663ec44d18560e01b145b92915050565b6009546008546040516335313c2160e11b81526001600160a01b0391821660048201526000929190911690636a62784290602401602060405180830381600087803b15801561050257600080fd5b505af1158015610516573d6000803e3d6000fd5b505050506040513d601f19601f8201168201806040525081019061053a919061471f565b9050806105475750600090565b60015460048054604051630248cd6d60e31b8152918201526000916001600160a01b0316906312466b689060240160006040518083038186803b15801561058d57600080fd5b505afa1580156105a1573d6000803e3d6000fd5b505050506040513d6000823e601f3d908101601f191682016040526105c99190810190614963565b905060008160200151516001600160401b038111156105ea576105ea6140ca565b604051908082528060200260200182016040528015610613578160200160208202803683370190505b50905060006106448360600151846020015160008151811061063757610637614a34565b6020026020010151610cc2565b9050600061067384608001518560200151600186516106639190614a60565b8151811061063757610637614a34565b905060006106828684846125cf565b90506106a6818660a00151633b9aca0061069c9190614a60565b633b9aca006125cf565b905085846000815181106106bc576106bc614a34565b60209081029190910101526106d081614a77565b84600186516106df9190614a60565b815181106106ef576106ef614a34565b60200260200101818152505085856000015160008151811061071357610713614a34565b60200260200101516060018181525050610774600760009054906101000a90046001600160a01b031687876020015160008151811061075457610754614a34565b60200260200101516001600160a01b03166126829092919063ffffffff16565b60075485516020870151604080890151905163945bcec960e01b81526000946001600160a01b03169363945bcec9936107b79387938c9060001990600401614aaa565b600060405180830381600087803b1580156107d157600080fd5b505af11580156107e5573d6000803e3d6000fd5b505050506040513d6000823e601f3d908101601f1916820160405261080d9190810190614bcc565b9050806001865161081e9190614a60565b8151811061082e5761082e614a34565b602002602001015161083f90614a77565b965050505050505090565b6060610854612771565b6004805460408051808201909152918252631253925560e21b6020830152908161089a5760405162461bcd60e51b8152600401610891919061455d565b60405180910390fd5b5060015460408051637ac46fbb60e01b815290516000926001600160a01b031691637ac46fbb916004808301926060929190829003018186803b1580156108e057600080fd5b505afa1580156108f4573d6000803e3d6000fd5b505050506040513d601f19601f820116820180604052508101906109189190614c51565b805160208201516040516331a9108f60e11b81526004810186905292935090916000906001600160a01b03831690636352211e9060240160206040518083038186803b15801561096757600080fd5b505afa15801561097b573d6000803e3d6000fd5b505050506040513d601f19601f8201168201806040525081019061099f9190614cc2565b905060006109ae8387846127cb565b604051639bd0911b60e01b8152600060048201526001600160a01b039190911690639bd0911b9060240160206040518083038186803b1580156109f057600080fd5b505afa158015610a04573d6000803e3d6000fd5b505050506040513d601f19601f82011682018060405250810190610a289190614cc2565b905087516001600160401b03811115610a4357610a436140ca565b604051908082528060200260200182016040528015610a6c578160200160208202803683370190505b5096506001600160a01b038116301415610a8b57505050505050610cb3565b60005b8851811015610c7057610ab4898281518110610aac57610aac614a34565b506000919050565b80610b665750846001600160a01b03166363e85d2d8a8381518110610adb57610adb614a34565b60209081029190910101516040516001600160e01b031960e084901b1681526001600160a01b0390911660048201526002602482015260440160206040518083038186803b158015610b2c57600080fd5b505afa158015610b40573d6000803e3d6000fd5b505050506040513d601f19601f82011682018060405250810190610b649190614cdf565b155b15610b7057610c60565b6000898281518110610b8457610b84614a34565b60209081029190910101516040516370a0823160e01b81523060048201529091506001600160a01b038216906370a082319060240160206040518083038186803b158015610bd157600080fd5b505afa158015610be5573d6000803e3d6000fd5b505050506040513d601f19601f82011682018060405250810190610c09919061471f565b898381518110610c1b57610c1b614a34565b602002602001018181525050610c5e838a8481518110610c3d57610c3d614a34565b6020026020010151836001600160a01b031661289e9092919063ffffffff16565b505b610c6981614cfa565b9050610a8e565b507f9efcb26e0cf572bd9171640e114f387cef91cd3e38532ed6b3f80c7f2e758f87818989604051610ca493929190614d15565b60405180910390a15050505050505b610cbd6001600055565b919050565b600080836001600160a01b031663feaf968c6040518163ffffffff1660e01b815260040160a06040518083038186803b158015610cfe57600080fd5b505afa158015610d12573d6000803e3d6000fd5b505050506040513d601f19601f82011682018060405250810190610d369190614d65565b5050509150506000836001600160a01b031663313ce5676040518163ffffffff1660e01b815260040160206040518083038186803b158015610d7757600080fd5b505afa158015610d8b573d6000803e3d6000fd5b505050506040513d601f19601f82011682018060405250810190610daf9190614db5565b90506000856001600160a01b031663313ce5676040518163ffffffff1660e01b815260040160206040518083038186803b158015610dec57600080fd5b505afa158015610e00573d6000803e3d6000fd5b505050506040513d601f19601f82011682018060405250810190610e249190614db5565b9050610e4a613d0960661b84610e3a8585614dd8565b610e4590600a614ee1565b6125cf565b9695505050505050565b600080600160009054906101000a90046001600160a01b03166001600160a01b0316637ac46fbb6040518163ffffffff1660e01b815260040160606040518083038186803b158015610ea557600080fd5b505afa158015610eb9573d6000803e3d6000fd5b505050506040513d601f19601f82011682018060405250810190610edd9190614c51565b60208101518151600454929350909180610f0657506001600160e01b031993506104ae92505050565b60405163020604bf60e21b8152600481018290526000906001600160a01b0385169063081812fc9060240160206040518083038186803b158015610f4957600080fd5b505afa158015610f5d573d6000803e3d6000fd5b505050506040513d601f19601f82011682018060405250810190610f819190614cc2565b6040516363e85d2d60e01b81526001600160a01b03808316600483015260066024830152919250908416906363e85d2d9060440160206040518083038186803b158015610fcd57600080fd5b505afa158015610fe1573d6000803e3d6000fd5b505050506040513d601f19601f820116820180604052508101906110059190614cdf565b61101f57506001600160e01b031994506104ae9350505050565b803b63ffffffff811615611152576040516301ffc9a760e01b8152630b135d3f60e11b60048201526001600160a01b038316906301ffc9a79060240160206040518083038186803b15801561107357600080fd5b505afa158015611087573d6000803e3d6000fd5b505050506040513d601f19601f820116820180604052508101906110ab9190614cdf565b1561113b57604051630b135d3f60e11b81526001600160a01b03831690631626ba7e906110de908c908c90600401614ef0565b60206040518083038186803b1580156110f657600080fd5b505afa15801561110a573d6000803e3d6000fd5b505050506040513d601f19601f8201168201806040525081019061112e9190614f09565b96505050505050506104ae565b506001600160e01b031995506104ae945050505050565b816001600160a01b03166111668a8a6128d3565b6001600160a01b0316141561118b5750630b135d3f60e11b95506104ae945050505050565b506001600160e01b031998975050505050505050565b60606111ab612771565b6004805460408051808201909152918252631253925560e21b602083015290816111e85760405162461bcd60e51b8152600401610891919061455d565b506111f233612952565b6040518060400160405280600381526020016223292160e91b8152509061122c5760405162461bcd60e51b8152600401610891919061455d565b5060015460408051637ac46fbb60e01b815290516000926001600160a01b031691637ac46fbb916004808301926060929190829003018186803b15801561127257600080fd5b505afa158015611286573d6000803e3d6000fd5b505050506040513d601f19601f820116820180604052508101906112aa9190614c51565b602001516040516331a9108f60e11b8152600481018490529091506000906001600160a01b03831690636352211e9060240160206040518083038186803b1580156112f457600080fd5b505afa158015611308573d6000803e3d6000fd5b505050506040513d601f19601f8201168201806040525081019061132c9190614cc2565b9050600061133b8385846127cb565b90506001600160a01b038216331461157857604051639bd0911b60e01b8152600060048201819052906001600160a01b03831690639bd0911b9060240160206040518083038186803b15801561139057600080fd5b505afa1580156113a4573d6000803e3d6000fd5b505050506040513d601f19601f820116820180604052508101906113c89190614cc2565b90506001600160a01b0381163014156115235760405163fcdabd2760e01b81526001600160a01b038b8116600483015280841691639d9fd0d99187169063fcdabd279060240160206040518083038186803b15801561142657600080fd5b505afa15801561143a573d6000803e3d6000fd5b505050506040513d601f19601f8201168201806040525081019061145e919061471f565b6040518263ffffffff1660e01b815260040161147c91815260200190565b60206040518083038186803b15801561149457600080fd5b505afa1580156114a8573d6000803e3d6000fd5b505050506040513d601f19601f820116820180604052508101906114cc9190614cdf565b80156114e157506001600160a01b038a163014155b6040518060400160405280600581526020016424a72b2a2960d91b8152509061151d5760405162461bcd60e51b8152600401610891919061455d565b50611576565b896001600160a01b0316816001600160a01b0316146040518060400160405280600581526020016424a72b2a2960d91b815250906115745760405162461bcd60e51b8152600401610891919061455d565b505b505b60006115848989612b10565b905060006115938b838a612bfc565b90506115fa8a60028054806020026020016040519081016040528092919081815260200182805480156115ef57602002820191906000526020600020905b81546001600160a01b031681526001909101906020018083116115d1575b50505050508361313d565b96507f54f9e6ef58e36de62f59f9ee6c4b878af84989c53a3642eba415ac3ac4e11cda8b8860405161162d929190614f26565b60405180910390a15050505050506116456001600055565b949350505050565b825160609060005b818110156116e05784818151811061166f5761166f614a34565b60200260200101516000146116d0576116d0873087848151811061169557611695614a34565b60200260200101518985815181106116af576116af614a34565b60200260200101516001600160a01b031661335e909392919063ffffffff16565b6116d981614cfa565b9050611655565b506116ec858585611b97565b915060005b85518110156117ca57600085828151811061170e5761170e614a34565b602002602001015184838151811061172857611728614a34565b60200260200101511061173c57600061177a565b83828151811061174e5761174e614a34565b602002602001015186838151811061176857611768614a34565b602002602001015161177a9190614a60565b905080156117b9576117b9888289858151811061179957611799614a34565b60200260200101516001600160a01b031661289e9092919063ffffffff16565b506117c381614cfa565b90506116f1565b5050949350505050565b60606117de612771565b6004805460408051808201909152918252631253925560e21b60208301526118195760405162461bcd60e51b8152600401610891919061455d565b5061182333612952565b6040518060400160405280600381526020016223292160e91b8152509061185d5760405162461bcd60e51b8152600401610891919061455d565b5060015460408051637ac46fbb60e01b815290516000926001600160a01b031691637ac46fbb916004808301926060929190829003018186803b1580156118a357600080fd5b505afa1580156118b7573d6000803e3d6000fd5b505050506040513d601f19601f820116820180604052508101906118db9190614c51565b51604051631f4a58fb60e31b81526001600160a01b03888116600483015291925060009183169063fa52c7d89060240160206040518083038186803b15801561192357600080fd5b505afa158015611937573d6000803e3d6000fd5b505050506040513d601f19601f8201168201806040525081019061195b9190614cc2565b60408051808201909152600381526223292160e91b60208201529091506001600160a01b03821661199f5760405162461bcd60e51b8152600401610891919061455d565b50604051631796170d60e21b81526001600160a01b03821690635e585c34906119d69033908b9034908c908c908c90600401614f4a565b60006040518083038186803b1580156119ee57600080fd5b505afa158015611a02573d6000803e3d6000fd5b50505050600080886001600160a01b031634898989604051602001611a2993929190614faf565b60408051601f1981840301815290829052611a4391614fd3565b60006040518083038185875af1925050503d8060008114611a80576040519150601f19603f3d011682016040523d82523d6000602084013e611a85565b606091505b509150915081611a985780518082602001fd5b6001600055935061164592505050565b60085460015460048054604051630248cd6d60e31b8152918201526001600160a01b03928316926384e9bd7e9216906312466b689060240160006040518083038186803b158015611af857600080fd5b505afa158015611b0c573d6000803e3d6000fd5b505050506040513d6000823e601f3d908101601f19168201604052611b349190810190614963565b60409081015181015190516001600160e01b031960e084901b1681526001600160a01b039091166004820152602401600060405180830381600087803b158015611b7d57600080fd5b505af1158015611b91573d6000803e3d6000fd5b50505050565b6060611ba1612771565b6004805460408051808201909152918252631253925560e21b60208301529081611bde5760405162461bcd60e51b8152600401610891919061455d565b5060015460408051637ac46fbb60e01b815290516000926001600160a01b031691637ac46fbb916004808301926060929190829003018186803b158015611c2457600080fd5b505afa158015611c38573d6000803e3d6000fd5b505050506040513d601f19601f82011682018060405250810190611c5c9190614c51565b602001516040516331a9108f60e11b8152600481018490529091506000906001600160a01b03831690636352211e9060240160206040518083038186803b158015611ca657600080fd5b505afa158015611cba573d6000803e3d6000fd5b505050506040513d601f19601f82011682018060405250810190611cde9190614cc2565b60405163fcdabd2760e01b81526001600160a01b03808316600483015291925060009184169063fcdabd279060240160206040518083038186803b158015611d2557600080fd5b505afa158015611d39573d6000803e3d6000fd5b505050506040513d601f19601f82011682018060405250810190611d5d919061471f565b604080518082019091526002815261272360f11b602082015290915081611d975760405162461bcd60e51b8152600401610891919061455d565b506000611da48989612b10565b90506000611db28289613396565b9050611e178a60028054806020026020016040519081016040528092919081815260200182805480156115ef576020028201919060005260206000209081546001600160a01b031681526001909101906020018083116115d15750505050508361313d565b96507f08e404e978692dd1b8275016b7a7b0b3ae4afd06b0cec7228060bb2da18c84fd81604051611e489190614275565b60405180910390a1505050505050611e606001600055565b9392505050565b60606002805480602002602001604051908101604052809291908181526020018280548015611ebf57602002820191906000526020600020905b81546001600160a01b03168152600190910190602001808311611ea1575b5050505050905090565b60606005805480602002602001604051908101604052809291908181526020018280548015611ebf57602002820191906000526020600020905b815481526020019060010190808311611f03575050505050905090565b6001600160a01b03841615801590611f4057506001600160a01b03831615155b8015611f5457506001600160a01b03821615155b8015611f6857506001600160a01b03811615155b6040518060400160405280600281526020016120ad60f11b81525090611fa15760405162461bcd60e51b8152600401610891919061455d565b50600680546001600160a01b038087166001600160a01b03199283168117909355600780548783169084168117909155600980548684169085161790556008805492871692909316919091179091556040805163038fff2d60e41b8152905160009363f94d46689290916338fff2d091600480820192602092909190829003018186803b15801561203157600080fd5b505afa158015612045573d6000803e3d6000fd5b505050506040513d601f19601f82011682018060405250810190612069919061471f565b6040518263ffffffff1660e01b815260040161208791815260200190565b60006040518083038186803b15801561209f57600080fd5b505afa1580156120b3573d6000803e3d6000fd5b505050506040513d6000823e601f3d908101601f191682016040526120db919081019061504a565b5050905080518651146040518060400160405280600381526020016224a72b60e91b8152509061211e5760405162461bcd60e51b8152600401610891919061455d565b5060005b81518110156121fa5786818151811061213d5761213d614a34565b60200260200101516001600160a01b031682828151811061216057612160614a34565b60200260200101516001600160a01b03161460405180604001604052806005815260200164494e56544f60d81b815250906121ae5760405162461bcd60e51b8152600401610891919061455d565b506121e8856000198484815181106121c8576121c8614a34565b60200260200101516001600160a01b03166137399092919063ffffffff16565b806121f281614cfa565b915050612122565b5060085460065461221a916001600160a01b039182169116600019613739565b612224868861385d565b50505050505050565b6060806000600660009054906101000a90046001600160a01b03166001600160a01b03166338fff2d06040518163ffffffff1660e01b815260040160206040518083038186803b15801561228057600080fd5b505afa158015612294573d6000803e3d6000fd5b505050506040513d601f19601f820116820180604052508101906122b8919061471f565b600754604051631f29a8cd60e31b81526004810183905291925060009182916001600160a01b03169063f94d46689060240160006040518083038186803b15801561230257600080fd5b505afa158015612316573d6000803e3d6000fd5b505050506040513d6000823e601f3d908101601f1916820160405261233e919081019061504a565b509150915081516001600160401b0381111561235c5761235c6140ca565b604051908082528060200260200182016040528015612385578160200160208202803683370190505b5094506000600660009054906101000a90046001600160a01b03166001600160a01b031663876f303b6040518163ffffffff1660e01b815260040160206040518083038186803b1580156123d857600080fd5b505afa1580156123ec573d6000803e3d6000fd5b505050506040513d601f19601f82011682018060405250810190612410919061471f565b9050801561257e576008546040516370a0823160e01b81523060048201526000916001600160a01b0316906370a082319060240160206040518083038186803b15801561245c57600080fd5b505afa158015612470573d6000803e3d6000fd5b505050506040513d601f19601f82011682018060405250810190612494919061471f565b6006546040516370a0823160e01b81523060048201529192506001600160a01b0316906370a082319060240160206040518083038186803b1580156124d857600080fd5b505afa1580156124ec573d6000803e3d6000fd5b505050506040513d601f19601f82011682018060405250810190612510919061471f565b61251a9082615117565b905060005b845181101561257b5761254c84828151811061253d5761253d614a34565b602002602001015183856125cf565b88828151811061255e5761255e614a34565b60209081029190910101528061257381614cfa565b91505061251f565b50505b859450505050509091565b600061259482613ce8565b806125af57506001600160e01b03198216633d31d51d60e11b145b806104ae57506001600160e01b03198216630b135d3f60e11b1492915050565b60008080600019858709858702925082811083820303915050806000141561260957600084116125fe57600080fd5b508290049050611e60565b80841161261557600080fd5b6000848688096000868103871696879004966002600389028118808a02820302808a02820302808a02820302808a02820302808a02820302808a02909103029181900381900460010186841190950394909402919094039290920491909117919091029150509392505050565b604051636eb1769f60e11b81523060048201526001600160a01b0383811660248301526000919085169063dd62ed3e9060440160206040518083038186803b1580156126cd57600080fd5b505afa1580156126e1573d6000803e3d6000fd5b505050506040513d601f19601f82011682018060405250810190612705919061471f565b9050611b918463095ea7b360e01b8561271e8686615117565b6040516001600160a01b03909216602483015260448201526064015b60408051601f198184030181529190526020810180516001600160e01b03166001600160e01b031990931692909217909152613d1e565b600260005414156127c45760405162461bcd60e51b815260206004820152601f60248201527f5265656e7472616e637947756172643a207265656e7472616e742063616c6c006044820152606401610891565b6002600055565b60405163fcdabd2760e01b81526001600160a01b038281166004830152600091829186169063fcdabd279060240160206040518083038186803b15801561281157600080fd5b505afa158015612825573d6000803e3d6000fd5b505050506040513d601f19601f82011682018060405250810190612849919061471f565b9050831580159061285957508015155b604051806040016040528060048152602001631253925560e21b815250906128945760405162461bcd60e51b8152600401610891919061455d565b5091949350505050565b6040516001600160a01b0383166024820152604481018290526128ce90849063a9059cbb60e01b9060640161273a565b505050565b6000806000806128e285613df3565b6040805160008152602081018083528b905260ff8316918101919091526060810184905260808101839052929550909350915060019060a0016020604051602081039080840390855afa15801561293d573d6000803e3d6000fd5b5050604051601f190151979650505050505050565b600080600160009054906101000a90046001600160a01b03166001600160a01b0316637ac46fbb6040518163ffffffff1660e01b815260040160606040518083038186803b1580156129a357600080fd5b505afa1580156129b7573d6000803e3d6000fd5b505050506040513d601f19601f820116820180604052508101906129db9190614c51565b60200151600454909150806129f4575060009392505050565b60405163020604bf60e21b8152600481018290526001600160a01b03808616919084169063081812fc9060240160206040518083038186803b158015612a3957600080fd5b505afa158015612a4d573d6000803e3d6000fd5b505050506040513d601f19601f82011682018060405250810190612a719190614cc2565b6001600160a01b0316148061164557506040516331a9108f60e11b8152600481018290526001600160a01b038086169190841690636352211e9060240160206040518083038186803b158015612ac657600080fd5b505afa158015612ada573d6000803e3d6000fd5b505050506040513d601f19601f82011682018060405250810190612afe9190614cc2565b6001600160a01b031614949350505050565b6060612b1b83613e57565b60405180604001604052806004815260200163494e564160e01b81525090612b565760405162461bcd60e51b8152600401610891919061455d565b5081518351146040518060400160405280600381526020016224a72b60e91b81525090612b965760405162461bcd60e51b8152600401610891919061455d565b50611e606002805480602002602001604051908101604052809291908181526020018280548015612bf057602002820191906000526020600020905b81546001600160a01b03168152600190910190602001808311612bd2575b5050505050848461313d565b606082516001600160401b03811115612c1757612c176140ca565b604051908082528060200260200182016040528015612c40578160200160208202803683370190505b506008546040516370a0823160e01b81523060048201529192506001600160a01b031690632e1a7d4d9082906370a082319060240160206040518083038186803b158015612c8d57600080fd5b505afa158015612ca1573d6000803e3d6000fd5b505050506040513d601f19601f82011682018060405250810190612cc5919061471f565b6040518263ffffffff1660e01b8152600401612ce391815260200190565b600060405180830381600087803b158015612cfd57600080fd5b505af1158015612d11573d6000803e3d6000fd5b505050506000600660009054906101000a90046001600160a01b03166001600160a01b03166338fff2d06040518163ffffffff1660e01b815260040160206040518083038186803b158015612d6557600080fd5b505afa158015612d79573d6000803e3d6000fd5b505050506040513d601f19601f82011682018060405250810190612d9d919061471f565b600754604051631f29a8cd60e31b81526004810183905291925060009182916001600160a01b03169063f94d46689060240160006040518083038186803b158015612de757600080fd5b505afa158015612dfb573d6000803e3d6000fd5b505050506040513d6000823e601f3d908101601f19168201604052612e23919081019061504a565b509150915060008083516001600160401b03811115612e4457612e446140ca565b604051908082528060200260200182016040528015612e6d578160200160208202803683370190505b50905060005b8151811015612f2c57848181518110612e8e57612e8e614a34565b6020026020010151828281518110612ea857612ea8614a34565b60200260200101906001600160a01b031690816001600160a01b0316815250506000612f0b8a8381518110612edf57612edf614a34565b6020026020010151600160601b878581518110612efe57612efe614a34565b60200260200101516125cf565b905080841015612f19578093505b5080612f2481614cfa565b915050612e73565b5060005b8651811015612f9057612f6183858381518110612f4f57612f4f614a34565b6020026020010151600160601b6125cf565b878281518110612f7357612f73614a34565b602090810291909101015280612f8881614cfa565b915050612f30565b50600760009054906101000a90046001600160a01b03166001600160a01b0316638bdb391386308c60405180608001604052808781526020018c815260200160028d600019604051602001612fe79392919061512f565b6040516020818303038152906040528152602001600015158152506040518563ffffffff1660e01b815260040161302194939291906151f3565b600060405180830381600087803b15801561303b57600080fd5b505af115801561304f573d6000803e3d6000fd5b50506008546006546040516370a0823160e01b81523060048201526001600160a01b039283169450636e553f6593509116906370a082319060240160206040518083038186803b1580156130a257600080fd5b505afa1580156130b6573d6000803e3d6000fd5b505050506040513d601f19601f820116820180604052508101906130da919061471f565b6040516001600160e01b031960e084901b1681526004810191909152306024820152604401600060405180830381600087803b15801561311957600080fd5b505af115801561312d573d6000803e3d6000fd5b5050505050505050509392505050565b6060600084516001600160401b0381111561315a5761315a6140ca565b604051908082528060200260200182016040528015613183578160200160208202803683370190505b5090506000805b86518210801561319a5750855181105b15613319578581815181106131b1576131b1614a34565b60200260200101516001600160a01b03168783815181106131d4576131d4614a34565b60200260200101516001600160a01b0316101561321c5760008383815181106131ff576131ff614a34565b60209081029190910101528161321481614cfa565b92505061318a565b85818151811061322e5761322e614a34565b60200260200101516001600160a01b031687838151811061325157613251614a34565b60200260200101516001600160a01b031611156132ca5784818151811061327a5761327a614a34565b60200260200101516000141561329c578061329481614cfa565b91505061318a565b60405162461bcd60e51b815260206004820152600360248201526254505360e81b6044820152606401610891565b8481815181106132dc576132dc614a34565b60200260200101518383815181106132f6576132f6614a34565b60209081029190910101528161330b81614cfa565b925050808061329490614cfa565b865182101561335357600083838151811061333657613336614a34565b60209081029190910101528161334b81614cfa565b925050613319565b509095945050505050565b6040516001600160a01b0380851660248301528316604482015260648101829052611b919085906323b872dd60e01b9060840161273a565b60606000600660009054906101000a90046001600160a01b03166001600160a01b03166338fff2d06040518163ffffffff1660e01b815260040160206040518083038186803b1580156133e857600080fd5b505afa1580156133fc573d6000803e3d6000fd5b505050506040513d601f19601f82011682018060405250810190613420919061471f565b90506000600280548060200260200160405190810160405280929190818152602001828054801561347a57602002820191906000526020600020905b81546001600160a01b0316815260019091019060200180831161345c575b50505050509050600081516001600160401b0381111561349c5761349c6140ca565b6040519080825280602002602001820160405280156134c5578160200160208202803683370190505b50905060005b815181101561352a578281815181106134e6576134e6614a34565b602002602001015182828151811061350057613500614a34565b6001600160a01b03909216602092830291909101909101528061352281614cfa565b9150506134cb565b50600760009054906101000a90046001600160a01b03166001600160a01b031663b95cac2884303060405180608001604052808781526020018c815260200160018d600060405160200161358093929190615225565b6040516020818303038152906040528152602001600015158152506040518563ffffffff1660e01b81526004016135ba94939291906151f3565b600060405180830381600087803b1580156135d457600080fd5b505af11580156135e8573d6000803e3d6000fd5b50506006546040516370a0823160e01b8152306004820152600093506001600160a01b0390911691506370a082319060240160206040518083038186803b15801561363257600080fd5b505afa158015613646573d6000803e3d6000fd5b505050506040513d601f19601f8201168201806040525081019061366a919061471f565b8651909150156136c85785806020019051810190613688919061471f565b811015604051806040016040528060048152602001634c494d5560e01b815250906136c65760405162461bcd60e51b8152600401610891919061455d565b505b600854604051636e553f6560e01b8152600481018390523060248201528896506001600160a01b0390911690636e553f6590604401600060405180830381600087803b15801561371757600080fd5b505af115801561372b573d6000803e3d6000fd5b505050505050505092915050565b8015806137c25750604051636eb1769f60e11b81523060048201526001600160a01b03838116602483015284169063dd62ed3e9060440160206040518083038186803b15801561378857600080fd5b505afa15801561379c573d6000803e3d6000fd5b505050506040513d601f19601f820116820180604052508101906137c0919061471f565b155b61382d5760405162461bcd60e51b815260206004820152603660248201527f5361666545524332303a20617070726f76652066726f6d206e6f6e2d7a65726f60448201527520746f206e6f6e2d7a65726f20616c6c6f77616e636560501b6064820152608401610891565b6040516001600160a01b0383166024820152604481018290526128ce90849063095ea7b360e01b9060640161273a565b6004805460408051808201909152918252631253925560e21b6020830152156138995760405162461bcd60e51b8152600401610891919061455d565b506138a382613e57565b60405180604001604052806004815260200163494e564160e01b815250906138de5760405162461bcd60e51b8152600401610891919061455d565b506040805180820190915260028152612b2d60f11b6020820152816139165760405162461bcd60e51b8152600401610891919061455d565b506000336001600160a01b0316637ac46fbb6040518163ffffffff1660e01b815260040160606040518083038186803b15801561395257600080fd5b505afa158015613966573d6000803e3d6000fd5b505050506040513d601f19601f8201168201806040525081019061398a9190614c51565b51835190915015801590613a0f5750806001600160a01b03166378546fa26040518163ffffffff1660e01b815260040160206040518083038186803b1580156139d257600080fd5b505afa1580156139e6573d6000803e3d6000fd5b505050506040513d601f19601f82011682018060405250810190613a0a919061471f565b835111155b6040518060400160405280600381526020016224a72b60e91b81525090613a495760405162461bcd60e51b8152600401610891919061455d565b5060005b8351811015613b4d57816001600160a01b03166363e85d2d858381518110613a7757613a77614a34565b60209081029190910101516040516001600160e01b031960e084901b1681526001600160a01b0390911660048201526003602482015260440160206040518083038186803b158015613ac857600080fd5b505afa158015613adc573d6000803e3d6000fd5b505050506040513d601f19601f82011682018060405250810190613b009190614cdf565b6040518060400160405280600381526020016223292160e91b81525090613b3a5760405162461bcd60e51b8152600401610891919061455d565b5080613b4581614cfa565b915050613a4d565b50600180546001600160a01b031916331790558251613b7390600290602086019061401a565b50600482905560025460005b81811015613ca357613b92816001615117565b60036000878481518110613ba857613ba8614a34565b60200260200101516001600160a01b03166001600160a01b03168152602001908152602001600020819055506000858281518110613be857613be8614a34565b6020026020010151905060056002826001600160a01b031663313ce5676040518163ffffffff1660e01b815260040160206040518083038186803b158015613c2f57600080fd5b505afa158015613c43573d6000803e3d6000fd5b505050506040513d601f19601f82011682018060405250810190613c679190614db5565b613c719190615261565b613c7c90600a614ee1565b8154600181018355600092835260209092209091015550613c9c81614cfa565b9050613b7f565b50604051339032907f0f043e55a1ce0d7ce25125ccbc2800b540d83e21abf7250f0156c2091a28b22190613cda9088908890615291565b60405180910390a350505050565b60006301ffc9a760e01b6001600160e01b0319831614806104ae57506001600160e01b0319821663305a640b60e21b1492915050565b6000613d73826040518060400160405280602081526020017f5361666545524332303a206c6f772d6c6576656c2063616c6c206661696c6564815250856001600160a01b0316613efa9092919063ffffffff16565b9050805160001480613d94575080806020019051810190613d949190614cdf565b6128ce5760405162461bcd60e51b815260206004820152602a60248201527f5361666545524332303a204552433230206f7065726174696f6e20646964206e6044820152691bdd081cdd58d8d9595960b21b6064820152608401610891565b60008060008351604114604051806040016040528060048152602001631253959360e21b81525090613e385760405162461bcd60e51b8152600401610891919061455d565b5050505060208101516040820151606090920151909260009190911a90565b6000600282511015613e6b57506001919050565b60005b60018351613e7c9190614a60565b811015613ef15782613e8f826001615117565b81518110613e9f57613e9f614a34565b60200260200101516001600160a01b0316838281518110613ec257613ec2614a34565b60200260200101516001600160a01b031610613ee15750600092915050565b613eea81614cfa565b9050613e6e565b50600192915050565b6060611645848460008585600080866001600160a01b03168587604051613f219190614fd3565b60006040518083038185875af1925050503d8060008114613f5e576040519150601f19603f3d011682016040523d82523d6000602084013e613f63565b606091505b5091509150613f7487838387613f7f565b979650505050505050565b60608315613feb578251613fe4576001600160a01b0385163b613fe45760405162461bcd60e51b815260206004820152601d60248201527f416464726573733a2063616c6c20746f206e6f6e2d636f6e74726163740000006044820152606401610891565b5081611645565b61164583838151156140005781518083602001fd5b8060405162461bcd60e51b8152600401610891919061455d565b82805482825590600052602060002090810192821561406f579160200282015b8281111561406f57825182546001600160a01b0319166001600160a01b0390911617825560209092019160019091019061403a565b5061407b92915061407f565b5090565b5b8082111561407b5760008155600101614080565b6001600160e01b0319811681146140aa57600080fd5b50565b6000602082840312156140bf57600080fd5b8135611e6081614094565b634e487b7160e01b600052604160045260246000fd5b60405160a081016001600160401b0381118282101715614102576141026140ca565b60405290565b60405160c081016001600160401b0381118282101715614102576141026140ca565b604051601f8201601f191681016001600160401b0381118282101715614152576141526140ca565b604052919050565b60006001600160401b03821115614173576141736140ca565b5060051b60200190565b6001600160a01b03811681146140aa57600080fd5b600082601f8301126141a357600080fd5b813560206141b86141b38361415a565b61412a565b82815260059290921b840181019181810190868411156141d757600080fd5b8286015b848110156141fb5780356141ee8161417d565b83529183019183016141db565b509695505050505050565b60006020828403121561421857600080fd5b81356001600160401b0381111561422e57600080fd5b61164584828501614192565b600081518084526020808501945080840160005b8381101561426a5781518752958201959082019060010161424e565b509495945050505050565b602081526000611e60602083018461423a565b6000806040838503121561429b57600080fd5b82356142a68161417d565b915060208301356142b68161417d565b809150509250929050565b60006001600160401b038211156142da576142da6140ca565b50601f01601f191660200190565b600082601f8301126142f957600080fd5b81356143076141b3826142c1565b81815284602083860101111561431c57600080fd5b816020850160208301376000918101602001919091529392505050565b6000806040838503121561434c57600080fd5b8235915060208301356001600160401b0381111561436957600080fd5b614375858286016142e8565b9150509250929050565b600082601f83011261439057600080fd5b813560206143a06141b38361415a565b82815260059290921b840181019181810190868411156143bf57600080fd5b8286015b848110156141fb57803583529183019183016143c3565b600080600080608085870312156143f057600080fd5b84356143fb8161417d565b935060208501356001600160401b038082111561441757600080fd5b61442388838901614192565b9450604087013591508082111561443957600080fd5b6144458883890161437f565b9350606087013591508082111561445b57600080fd5b50614468878288016142e8565b91505092959194509250565b6000806000806060858703121561448a57600080fd5b84356144958161417d565b935060208501356144a581614094565b925060408501356001600160401b03808211156144c157600080fd5b818701915087601f8301126144d557600080fd5b8135818111156144e457600080fd5b8860208285010111156144f657600080fd5b95989497505060200194505050565b60005b83811015614520578181015183820152602001614508565b83811115611b915750506000910152565b60008151808452614549816020860160208601614505565b601f01601f19169290920160200192915050565b602081526000611e606020830184614531565b60006020828403121561458257600080fd5b8135611e608161417d565b6000806000606084860312156145a257600080fd5b83356001600160401b03808211156145b957600080fd5b6145c587838801614192565b945060208601359150808211156145db57600080fd5b6145e78783880161437f565b935060408601359150808211156145fd57600080fd5b5061460a868287016142e8565b9150509250925092565b600081518084526020808501945080840160005b8381101561426a5781516001600160a01b031687529582019590820190600101614628565b602081526000611e606020830184614614565b60008060008060008060c0878903121561467957600080fd5b8635955060208701356001600160401b0381111561469657600080fd5b6146a289828a01614192565b95505060408701356146b38161417d565b935060608701356146c38161417d565b925060808701356146d38161417d565b915060a08701356146e38161417d565b809150509295509295509295565b604081526000614704604083018561423a565b8281036020840152614716818561423a565b95945050505050565b60006020828403121561473157600080fd5b5051919050565b600082601f83011261474957600080fd5b815160206147596141b38361415a565b82815260059290921b8401810191818101908684111561477857600080fd5b8286015b848110156141fb5780516001600160401b038082111561479c5760008081fd5b9088019060a0828b03601f19018113156147b65760008081fd5b6147be6140e0565b838801518152604080850151828a015260608086015182840152608080870151828501529386015193858511156147f757600091508182fd5b84870196508e603f88011261480e57600095508586fd5b8a87015195506148206141b3876142c1565b94508585528e8387890101111561483957600091508182fd5b614848868c8701858a01614505565b83019390935250865250505091830191830161477c565b600082601f83011261487057600080fd5b815160206148806141b38361415a565b82815260059290921b8401810191818101908684111561489f57600080fd5b8286015b848110156141fb5780516148b68161417d565b83529183019183016148a3565b80518015158114610cbd57600080fd5b6000608082840312156148e557600080fd5b604051608081018181106001600160401b0382111715614907576149076140ca565b8060405250809150825161491a8161417d565b8152614928602084016148c3565b6020820152604083015161493b8161417d565b604082015261494c606084016148c3565b60608201525092915050565b8051610cbd8161417d565b60006020828403121561497557600080fd5b81516001600160401b038082111561498c57600080fd5b9083019061012082860312156149a157600080fd5b6149a9614108565b8251828111156149b857600080fd5b6149c487828601614738565b8252506020830151828111156149d957600080fd5b6149e58782860161485f565b6020830152506149f886604085016148d3565b6040820152614a0960c08401614958565b6060820152614a1a60e08401614958565b6080820152610100929092015160a0830152509392505050565b634e487b7160e01b600052603260045260246000fd5b634e487b7160e01b600052601160045260246000fd5b600082821015614a7257614a72614a4a565b500390565b6000600160ff1b821415614a8d57614a8d614a4a565b5060000390565b634e487b7160e01b600052602160045260246000fd5b600061012080830160028a10614ac257614ac2614a94565b89845260208085019290925288519081905261014080850192600583901b8601909101918a820160005b82811015614b4f5787850361013f190186528151805186528481015185870152604080820151908701526060808201519087015260809081015160a091870182905290614b3b81880183614531565b978601979650505090830190600101614aec565b505050508381036040850152614b658189614614565b915050614ba5606084018780516001600160a01b039081168352602080830151151590840152604080830151909116908301526060908101511515910152565b82810360e0840152614bb7818661423a565b91505082610100830152979650505050505050565b60006020808385031215614bdf57600080fd5b82516001600160401b03811115614bf557600080fd5b8301601f81018513614c0657600080fd5b8051614c146141b38261415a565b81815260059190911b82018301908381019087831115614c3357600080fd5b928401925b82841015613f7457835182529284019290840190614c38565b600060608284031215614c6357600080fd5b604051606081018181106001600160401b0382111715614c8557614c856140ca565b6040528251614c938161417d565b81526020830151614ca38161417d565b60208201526040830151614cb68161417d565b60408201529392505050565b600060208284031215614cd457600080fd5b8151611e608161417d565b600060208284031215614cf157600080fd5b611e60826148c3565b6000600019821415614d0e57614d0e614a4a565b5060010190565b6001600160a01b0384168152606060208201819052600090614d3990830185614614565b8281036040840152610e4a818561423a565b805169ffffffffffffffffffff81168114610cbd57600080fd5b600080600080600060a08688031215614d7d57600080fd5b614d8686614d4b565b9450602086015193506040860151925060608601519150614da960808701614d4b565b90509295509295909350565b600060208284031215614dc757600080fd5b815160ff81168114611e6057600080fd5b600060ff821660ff84168060ff03821115614df557614df5614a4a565b019392505050565b600181815b80851115614e38578160001904821115614e1e57614e1e614a4a565b80851615614e2b57918102915b93841c9390800290614e02565b509250929050565b600082614e4f575060016104ae565b81614e5c575060006104ae565b8160018114614e725760028114614e7c57614e98565b60019150506104ae565b60ff841115614e8d57614e8d614a4a565b50506001821b6104ae565b5060208310610133831016604e8410600b8410161715614ebb575081810a6104ae565b614ec58383614dfd565b8060001904821115614ed957614ed9614a4a565b029392505050565b6000611e6060ff841683614e40565b8281526040602082015260006116456040830184614531565b600060208284031215614f1b57600080fd5b8151611e6081614094565b6001600160a01b03831681526040602082018190526000906116459083018461423a565b6001600160a01b03878116825286166020820152604081018590526001600160e01b03198416606082015260a06080820181905281018290526000828460c0840137600060c0848401015260c0601f19601f8501168301019050979650505050505050565b6001600160e01b031984168152818360048301376000910160040190815292915050565b60008251614fe5818460208701614505565b9190910192915050565b600082601f83011261500057600080fd5b815160206150106141b38361415a565b82815260059290921b8401810191818101908684111561502f57600080fd5b8286015b848110156141fb5780518352918301918301615033565b60008060006060848603121561505f57600080fd5b83516001600160401b038082111561507657600080fd5b818601915086601f83011261508a57600080fd5b8151602061509a6141b38361415a565b82815260059290921b8401810191818101908a8411156150b957600080fd5b948201945b838610156150e05785516150d18161417d565b825294820194908201906150be565b918901519197509093505050808211156150f957600080fd5b5061510686828701614fef565b925050604084015190509250925092565b6000821982111561512a5761512a614a4a565b500190565b60006003851061514157615141614a94565b84825260606020830152615158606083018561423a565b9050826040830152949350505050565b600081516080845261517d6080850182614614565b60208481015186830387830152805180845290820193509091600091908301905b808310156151be578451825293830193600192909201919083019061519e565b506040860151935086810360408801526151d88185614531565b93505050506060830151151560608501528091505092915050565b8481526001600160a01b03848116602083015283166040820152608060608201819052600090610e4a90830184615168565b60006004851061523757615237614a94565b8482526060602083015261524e606083018561423a565b905060ff83166040830152949350505050565b600060ff83168061528257634e487b7160e01b600052601260045260246000fd5b8060ff84160491505092915050565b6040815260006152a46040830185614614565b9050826020830152939250505056fea2646970667358221220e0e15728d6f209d9e62d2010211c76570a09d8c315477f9042085f5678dee5c064736f6c63430008090033",
    "linkReferences": {}
  },
  "methodIdentifiers": {
    "D9()": "551530ae",
    "Q96()": "40792465",
    "balancerMinter()": "00b17aaf",
    "balancerVault()": "158274a5",
    "claimBalancerRewardToken()": "02f345b2",
    "claimRewards()": "372500ab",
    "externalCall(address,bytes4,bytes)": "2e2f4cc2",
    "getPriceToUSDX96(address,address)": "0a41ac32",
    "initialize(uint256,address[],address,address,address,address)": "d3d338ae",
    "initialized()": "158ef93e",
    "isValidSignature(bytes32,bytes)": "1626ba7e",
    "isVaultToken(address)": "338c4ccb",
    "nft()": "47ccca02",
    "pool()": "16f0115b",
    "pull(address,address[],uint256[],bytes)": "2062d754",
    "pullExistentials()": "d2c219b0",
    "push(address[],uint256[],bytes)": "566ca6b4",
    "reclaimTokens(address[])": "05e1c942",
    "stakingLiquidityGauge()": "823c5d7c",
    "supportsInterface(bytes4)": "01ffc9a7",
    "transferAndPush(address,address[],uint256[],bytes)": "27a35e5a",
    "tvl()": "e5328e06",
    "vaultGovernance()": "fe255a5e",
    "vaultTokens()": "69722233"
  },
  "id": 452
}