{
  "abi": [
    {
      "inputs": [
        {
          "components": [
            {
              "internalType": "contract IProtocolGovernance",
              "name": "protocolGovernance",
              "type": "address"
            },
            {
              "internalType": "contract IVaultRegistry",
              "name": "registry",
              "type": "address"
            },
            {
              "internalType": "contract IVault",
              "name": "singleton",
              "type": "address"
            }
          ],
          "internalType": "struct IVaultGovernance.InternalParams",
          "name": "internalParams_",
          "type": "tuple"
        }
      ],
      "stateMutability": "nonpayable",
      "type": "constructor"
    },
    {
      "anonymous": false,
      "inputs": [
        {
          "indexed": true,
          "internalType": "address",
          "name": "origin",
          "type": "address"
        },
        {
          "indexed": true,
          "internalType": "address",
          "name": "sender",
          "type": "address"
        },
        {
          "components": [
            {
              "internalType": "contract IProtocolGovernance",
              "name": "protocolGovernance",
              "type": "address"
            },
            {
              "internalType": "contract IVaultRegistry",
              "name": "registry",
              "type": "address"
            },
            {
              "internalType": "contract IVault",
              "name": "singleton",
              "type": "address"
            }
          ],
          "indexed": false,
          "internalType": "struct IVaultGovernance.InternalParams",
          "name": "params",
          "type": "tuple"
        }
      ],
      "name": "CommitedInternalParams",
      "type": "event"
    },
    {
      "anonymous": false,
      "inputs": [
        {
          "indexed": true,
          "internalType": "address",
          "name": "origin",
          "type": "address"
        },
        {
          "indexed": true,
          "internalType": "address",
          "name": "sender",
          "type": "address"
        },
        {
          "indexed": false,
          "internalType": "address[]",
          "name": "vaultTokens",
          "type": "address[]"
        },
        {
          "indexed": false,
          "internalType": "bytes",
          "name": "options",
          "type": "bytes"
        },
        {
          "indexed": false,
          "internalType": "address",
          "name": "owner",
          "type": "address"
        },
        {
          "indexed": false,
          "internalType": "address",
          "name": "vaultAddress",
          "type": "address"
        },
        {
          "indexed": false,
          "internalType": "uint256",
          "name": "vaultNft",
          "type": "uint256"
        }
      ],
      "name": "DeployedVault",
      "type": "event"
    },
    {
      "anonymous": false,
      "inputs": [
        {
          "indexed": true,
          "internalType": "address",
          "name": "origin",
          "type": "address"
        },
        {
          "indexed": true,
          "internalType": "address",
          "name": "sender",
          "type": "address"
        },
        {
          "indexed": true,
          "internalType": "uint256",
          "name": "nft",
          "type": "uint256"
        },
        {
          "components": [
            {
              "internalType": "contract IKyberSwapElasticLM",
              "name": "farm",
              "type": "address"
            },
            {
              "internalType": "bytes[]",
              "name": "paths",
              "type": "bytes[]"
            },
            {
              "internalType": "uint256",
              "name": "pid",
              "type": "uint256"
            }
          ],
          "indexed": false,
          "internalType": "struct IKyberVaultGovernance.StrategyParams",
          "name": "params",
          "type": "tuple"
        }
      ],
      "name": "SetStrategyParams",
      "type": "event"
    },
    {
      "anonymous": false,
      "inputs": [
        {
          "indexed": true,
          "internalType": "address",
          "name": "origin",
          "type": "address"
        },
        {
          "indexed": true,
          "internalType": "address",
          "name": "sender",
          "type": "address"
        },
        {
          "components": [
            {
              "internalType": "contract IProtocolGovernance",
              "name": "protocolGovernance",
              "type": "address"
            },
            {
              "internalType": "contract IVaultRegistry",
              "name": "registry",
              "type": "address"
            },
            {
              "internalType": "contract IVault",
              "name": "singleton",
              "type": "address"
            }
          ],
          "indexed": false,
          "internalType": "struct IVaultGovernance.InternalParams",
          "name": "params",
          "type": "tuple"
        },
        {
          "indexed": false,
          "internalType": "uint256",
          "name": "when",
          "type": "uint256"
        }
      ],
      "name": "StagedInternalParams",
      "type": "event"
    },
    {
      "inputs": [],
      "name": "commitInternalParams",
      "outputs": [],
      "stateMutability": "nonpayable",
      "type": "function"
    },
    {
      "inputs": [],
      "name": "contractName",
      "outputs": [
        {
          "internalType": "string",
          "name": "",
          "type": "string"
        }
      ],
      "stateMutability": "pure",
      "type": "function"
    },
    {
      "inputs": [],
      "name": "contractNameBytes",
      "outputs": [
        {
          "internalType": "bytes32",
          "name": "",
          "type": "bytes32"
        }
      ],
      "stateMutability": "pure",
      "type": "function"
    },
    {
      "inputs": [],
      "name": "contractVersion",
      "outputs": [
        {
          "internalType": "string",
          "name": "",
          "type": "string"
        }
      ],
      "stateMutability": "pure",
      "type": "function"
    },
    {
      "inputs": [],
      "name": "contractVersionBytes",
      "outputs": [
        {
          "internalType": "bytes32",
          "name": "",
          "type": "bytes32"
        }
      ],
      "stateMutability": "pure",
      "type": "function"
    },
    {
      "inputs": [
        {
          "internalType": "address[]",
          "name": "vaultTokens_",
          "type": "address[]"
        },
        {
          "internalType": "address",
          "name": "owner_",
          "type": "address"
        },
        {
          "internalType": "uint24",
          "name": "fee_",
          "type": "uint24"
        }
      ],
      "name": "createVault",
      "outputs": [
        {
          "internalType": "contract IKyberVault",
          "name": "vault",
          "type": "address"
        },
        {
          "internalType": "uint256",
          "name": "nft",
          "type": "uint256"
        }
      ],
      "stateMutability": "nonpayable",
      "type": "function"
    },
    {
      "inputs": [],
      "name": "delayedProtocolParamsTimestamp",
      "outputs": [
        {
          "internalType": "uint256",
          "name": "",
          "type": "uint256"
        }
      ],
      "stateMutability": "view",
      "type": "function"
    },
    {
      "inputs": [
        {
          "internalType": "uint256",
          "name": "nft",
          "type": "uint256"
        }
      ],
      "name": "delayedProtocolPerVaultParamsTimestamp",
      "outputs": [
        {
          "internalType": "uint256",
          "name": "",
          "type": "uint256"
        }
      ],
      "stateMutability": "view",
      "type": "function"
    },
    {
      "inputs": [
        {
          "internalType": "uint256",
          "name": "nft",
          "type": "uint256"
        }
      ],
      "name": "delayedStrategyParamsTimestamp",
      "outputs": [
        {
          "internalType": "uint256",
          "name": "",
          "type": "uint256"
        }
      ],
      "stateMutability": "view",
      "type": "function"
    },
    {
      "inputs": [],
      "name": "internalParams",
      "outputs": [
        {
          "components": [
            {
              "internalType": "contract IProtocolGovernance",
              "name": "protocolGovernance",
              "type": "address"
            },
            {
              "internalType": "contract IVaultRegistry",
              "name": "registry",
              "type": "address"
            },
            {
              "internalType": "contract IVault",
              "name": "singleton",
              "type": "address"
            }
          ],
          "internalType": "struct IVaultGovernance.InternalParams",
          "name": "",
          "type": "tuple"
        }
      ],
      "stateMutability": "view",
      "type": "function"
    },
    {
      "inputs": [],
      "name": "internalParamsTimestamp",
      "outputs": [
        {
          "internalType": "uint256",
          "name": "",
          "type": "uint256"
        }
      ],
      "stateMutability": "view",
      "type": "function"
    },
    {
      "inputs": [
        {
          "internalType": "uint256",
          "name": "nft",
          "type": "uint256"
        },
        {
          "components": [
            {
              "internalType": "contract IKyberSwapElasticLM",
              "name": "farm",
              "type": "address"
            },
            {
              "internalType": "bytes[]",
              "name": "paths",
              "type": "bytes[]"
            },
            {
              "internalType": "uint256",
              "name": "pid",
              "type": "uint256"
            }
          ],
          "internalType": "struct IKyberVaultGovernance.StrategyParams",
          "name": "params",
          "type": "tuple"
        }
      ],
      "name": "setStrategyParams",
      "outputs": [],
      "stateMutability": "nonpayable",
      "type": "function"
    },
    {
      "inputs": [
        {
          "components": [
            {
              "internalType": "contract IProtocolGovernance",
              "name": "protocolGovernance",
              "type": "address"
            },
            {
              "internalType": "contract IVaultRegistry",
              "name": "registry",
              "type": "address"
            },
            {
              "internalType": "contract IVault",
              "name": "singleton",
              "type": "address"
            }
          ],
          "internalType": "struct IVaultGovernance.InternalParams",
          "name": "newParams",
          "type": "tuple"
        }
      ],
      "name": "stageInternalParams",
      "outputs": [],
      "stateMutability": "nonpayable",
      "type": "function"
    },
    {
      "inputs": [],
      "name": "stagedInternalParams",
      "outputs": [
        {
          "components": [
            {
              "internalType": "contract IProtocolGovernance",
              "name": "protocolGovernance",
              "type": "address"
            },
            {
              "internalType": "contract IVaultRegistry",
              "name": "registry",
              "type": "address"
            },
            {
              "internalType": "contract IVault",
              "name": "singleton",
              "type": "address"
            }
          ],
          "internalType": "struct IVaultGovernance.InternalParams",
          "name": "",
          "type": "tuple"
        }
      ],
      "stateMutability": "view",
      "type": "function"
    },
    {
      "inputs": [
        {
          "internalType": "uint256",
          "name": "nft",
          "type": "uint256"
        }
      ],
      "name": "strategyParams",
      "outputs": [
        {
          "components": [
            {
              "internalType": "contract IKyberSwapElasticLM",
              "name": "farm",
              "type": "address"
            },
            {
              "internalType": "bytes[]",
              "name": "paths",
              "type": "bytes[]"
            },
            {
              "internalType": "uint256",
              "name": "pid",
              "type": "uint256"
            }
          ],
          "internalType": "struct IKyberVaultGovernance.StrategyParams",
          "name": "",
          "type": "tuple"
        }
      ],
      "stateMutability": "view",
      "type": "function"
    },
    {
      "inputs": [
        {
          "internalType": "bytes4",
          "name": "interfaceId",
          "type": "bytes4"
        }
      ],
      "name": "supportsInterface",
      "outputs": [
        {
          "internalType": "bool",
          "name": "",
          "type": "bool"
        }
      ],
      "stateMutability": "view",
      "type": "function"
    }
  ],
  "bytecode": {
    "object": "0x60806040523480156200001157600080fd5b50604051620022973803806200229783398101604081905262000034916200018a565b805160408051808201909152600281526120ad60f11b602082015282916001600160a01b0316620000835760405162461bcd60e51b81526004016200007a919062000211565b60405180910390fd5b5060006001600160a01b031681602001516001600160a01b031614156040518060400160405280600281526020016120ad60f11b81525090620000db5760405162461bcd60e51b81526004016200007a919062000211565b506040808201518151808301909252600282526120ad60f11b60208301526001600160a01b0316620001225760405162461bcd60e51b81526004016200007a919062000211565b508051600080546001600160a01b03199081166001600160a01b039384161790915560208301516001805483169184169190911790556040909201516002805490931691161790555062000269565b6001600160a01b03811681146200018757600080fd5b50565b6000606082840312156200019d57600080fd5b604051606081016001600160401b0381118282101715620001ce57634e487b7160e01b600052604160045260246000fd5b6040528251620001de8162000171565b81526020830151620001f08162000171565b60208201526040830151620002058162000171565b60408201529392505050565b600060208083528351808285015260005b81811015620002405785810183015185820160400152820162000222565b8181111562000253576000604083870101525b50601f01601f1916929092016040019392505050565b61201e80620002796000396000f3fe608060405234801561001057600080fd5b50600436106101005760003560e01c806375d0c0dc11610097578063a0a8e46011610066578063a0a8e460146102ba578063a515d1bf146102c2578063d4a07d34146102f4578063e4af6e79146102fc57600080fd5b806375d0c0dc146101df5780637ac46fbb146101f457806386c6be3e146102545780639f6ae799146102a757600080fd5b806312466b68116100d357806312466b68146101775780631c7f4c7314610197578063511ce7981461019f5780636707acee146101bf57600080fd5b806301ffc9a71461010557806306a462391461012d57806309946538146101455780630e3e80ac1461015a575b600080fd5b61011861011336600461150c565b610304565b60405190151581526020015b60405180910390f35b640312e302e360dc1b5b604051908152602001610124565b6101586101533660046115c2565b610335565b005b734b796265725661756c74476f7665726e616e636560601b610137565b61018a610185366004611634565b610527565b60405161012491906116a9565b600654610137565b6101376101ad366004611634565b6000908152600c602052604090205490565b6101376101cd366004611634565b60009081526009602052604090205490565b6101e761066f565b6040516101249190611732565b610247604080516060810182526000808252602082018190529181019190915250604080516060810182526000546001600160a01b03908116825260015481166020830152600254169181019190915290565b6040516101249190611745565b610247604080516060810182526000808252602082018190529181019190915250604080516060810182526003546001600160a01b03908116825260045481166020830152600554169181019190915290565b6101586102b5366004611775565b610691565b6101e7610bb8565b6102d56102d036600461180a565b610bcb565b604080516001600160a01b039093168352602083019190915201610124565b610158610cad565b600f54610137565b600061030f82610dd7565b8061032a575063141caea760e11b6001600160e01b03198316145b92915050565b905090565b61033d610e0d565b805160408051808201909152600281526120ad60f11b6020820152906001600160a01b03166103885760405162461bcd60e51b815260040161037f9190611732565b60405180910390fd5b5060006001600160a01b031681602001516001600160a01b031614156040518060400160405280600281526020016120ad60f11b815250906103dd5760405162461bcd60e51b815260040161037f9190611732565b506040808201518151808301909252600282526120ad60f11b60208301526001600160a01b03166104215760405162461bcd60e51b815260040161037f9190611732565b508051600380546001600160a01b03199081166001600160a01b03938416179091556020808401516004805484169185169190911781556040808601516005805490951690861617909355600054835163bba3293960e01b8152935194169363bba3293993808301939290829003018186803b1580156104a057600080fd5b505afa1580156104b4573d6000803e3d6000fd5b505050506040513d601f19601f820116820180604052508101906104d891906118cb565b6104e290426118fa565b6006819055604051339132917f0887cab3184f7c02b16978ab31f8acee05979f59fc3da6abe5bf71105ec3179d9161051c91869190611912565b60405180910390a350565b610554604051806060016040528060006001600160a01b0316815260200160608152602001600081525090565b6000828152601060205260409020805461056d9061194f565b151590506105c55760408051600080825260208201909252816105a0565b606081526020019060019003908161058b5790505b5060408051606081018252600081526020810192909252600019908201529392505050565b600082815260106020526040902080546105de9061194f565b80601f016020809104026020016040519081016040528092919081815260200182805461060a9061194f565b80156106575780601f1061062c57610100808354040283529160200191610657565b820191906000526020600020905b81548152906001019060200180831161063a57829003601f168201915b505050505080602001905181019061032a919061198a565b6060610330734b796265725661756c74476f7665726e616e636560601b610ec5565b60006106a06020830183611ad8565b6001600160a01b031614156040518060400160405280600281526020016120ad60f11b815250906106e45760405162461bcd60e51b815260040161037f9190611732565b50600154604051639c94d85360e01b8152600481018490526000916001600160a01b031690639c94d8539060240160206040518083038186803b15801561072a57600080fd5b505afa15801561073e573d6000803e3d6000fd5b505050506040513d601f19601f820116820180604052508101906107629190611af5565b905060005b6107746020840184611b12565b9050811015610aea5760006107eb61078f6020860186611b12565b8481811061079f5761079f611b63565b90506020028101906107b19190611b79565b8080601f01602080910402602001604051908101604052809392919081815260200183838082843760009201829052509250610f31915050565b905060006108986107ff6020870187611b12565b8581811061080f5761080f611b63565b90506020028101906108219190611b79565b8080601f016020809104026020016040519081016040528093929190818152602001838380828437600092019190915250601492506108669150506020890189611b12565b8781811061087657610876611b63565b90506020028101906108889190611b79565b610893929150611bc0565b610f31565b905060006108a96020870187611ad8565b6001600160a01b0316632f380b3587604001356040518263ffffffff1660e01b81526004016108da91815260200190565b60006040518083038186803b1580156108f257600080fd5b505afa158015610906573d6000803e3d6000fd5b505050506040513d6000823e601f3d908101601f1916820160405261092e9190810190611c5a565b509750505050505050506000805b825181101561098d57846001600160a01b031683828151811061096157610961611b63565b60200260200101516001600160a01b0316141561097d57600191505b61098681611d76565b905061093c565b50604080518082019091526004815263494e564160e01b6020820152816109c75760405162461bcd60e51b815260040161037f9190611732565b50600090506000866001600160a01b031663697222336040518163ffffffff1660e01b815260040160006040518083038186803b158015610a0757600080fd5b505afa158015610a1b573d6000803e3d6000fd5b505050506040513d6000823e601f3d908101601f19168201604052610a439190810190611d91565b905060005b8151811015610a9957846001600160a01b0316828281518110610a6d57610a6d611b63565b60200260200101516001600160a01b03161415610a8957600192505b610a9281611d76565b9050610a48565b50604080518082019091526004815263494e564160e01b602082015282610ad35760405162461bcd60e51b815260040161037f9190611732565b50505050505080610ae390611d76565b9050610767565b50610b148383604051602001610b009190611df7565b604051602081830303815290604052610fe5565b806001600160a01b0316636719d3766040518163ffffffff1660e01b8152600401600060405180830381600087803b158015610b4f57600080fd5b505af1158015610b63573d6000803e3d6000fd5b5050505082336001600160a01b0316326001600160a01b03167f058d6426583faa83c46869be4fe65c54e6a5f4a4db12d88131d4a45fc099055185604051610bab9190611df7565b60405180910390a4505050565b6060610330640312e302e360dc1b610ec5565b6000806000610bd985611012565b60405163648b444960e11b815291945092508391506001600160a01b0382169063c916889290610c119085908a908990600401611f4e565b600060405180830381600087803b158015610c2b57600080fd5b505af1158015610c3f573d6000803e3d6000fd5b50506040805162ffffff881660208201523393503292507f8a4513c05d15df8ece912856923273e166e39f5c9c2b43d2b38594023494a0e0918a910160408051601f1981840301815290829052610c9c92918b9088908a90611f7c565b60405180910390a350935093915050565b610cb5610e0d565b6006546040805180820190915260048152631395531360e21b602082015290610cf15760405162461bcd60e51b815260040161037f9190611732565b5060065442101560405180604001604052806002815260200161545360f01b81525090610d315760405162461bcd60e51b815260040161037f9190611732565b5060038054600080546001600160a01b038084166001600160a01b03199283168117845560048054600180548286169087168117909155600580546002805497821697891688179055600698909855978616909855841690559290911690925560408051918252602082019390935291820152339032907fef3e4bc9725fa684957d7de03c6dcd01078ee86cf78ceef25c5f8346df69cc999060600160405180910390a3565b60006301ffc9a760e01b6001600160e01b03198316148061032a57506001600160e01b0319821663effda0f560e01b1492915050565b600054604051630935e01b60e21b81523360048201526001600160a01b03909116906324d7806c9060240160206040518083038186803b158015610e5057600080fd5b505afa158015610e64573d6000803e3d6000fd5b505050506040513d601f19601f82011682018060405250810190610e889190611fc6565b6040518060400160405280600381526020016223292160e91b81525090610ec25760405162461bcd60e51b815260040161037f9190611732565b50565b604080516020808252818301909252606091602082018180368337019050509050602060005b6020811015610f2357838160208110610f0657610f06611b63565b1a610f1357809150610f23565b610f1c81611d76565b9050610eeb565b508152602081019190915290565b600081610f3f8160146118fa565b1015610f825760405162461bcd60e51b8152602060048201526012602482015271746f416464726573735f6f766572666c6f7760701b604482015260640161037f565b610f8d8260146118fa565b83511015610fd55760405162461bcd60e51b8152602060048201526015602482015274746f416464726573735f6f75744f66426f756e647360581b604482015260640161037f565b500160200151600160601b900490565b610fee82611203565b6000828152601060209081526040909120825161100d92840190611473565b505050565b600080546040516363e85d2d60e01b81523360048201526001602482015282916001600160a01b03169081906363e85d2d9060440160206040518083038186803b15801561105f57600080fd5b505afa158015611073573d6000803e3d6000fd5b505050506040513d601f19601f820116820180604052508101906110979190611fc6565b6040518060400160405280600381526020016223292160e91b815250906110d15760405162461bcd60e51b815260040161037f9190611732565b5060015460408051631112eee760e31b815290516001600160a01b039092169182916388977738916004808301926020929190829003018186803b15801561111857600080fd5b505afa15801561112c573d6000803e3d6000fd5b505050506040513d601f19601f8201168201806040525081019061115091906118cb565b61115b9060016118fa565b600254909350611174906001600160a01b0316846113d6565b6040516305c4fdf960e01b81526001600160a01b0380831660048301528781166024830152919550908216906305c4fdf990604401602060405180830381600087803b1580156111c357600080fd5b505af11580156111d7573d6000803e3d6000fd5b505050506040513d601f19601f820116820180604052508101906111fb91906118cb565b505050915091565b600054604051630935e01b60e21b81523360048201526001600160a01b03909116906324d7806c9060240160206040518083038186803b15801561124657600080fd5b505afa15801561125a573d6000803e3d6000fd5b505050506040513d601f19601f8201168201806040525081019061127e9190611fc6565b8061130b575060015460405163020604bf60e21b81526004810183905233916001600160a01b03169063081812fc9060240160206040518083038186803b1580156112c857600080fd5b505afa1580156112dc573d6000803e3d6000fd5b505050506040513d601f19601f820116820180604052508101906113009190611af5565b6001600160a01b0316145b8061139857506001546040516331a9108f60e11b81526004810183905233916001600160a01b031690636352211e9060240160206040518083038186803b15801561135557600080fd5b505afa158015611369573d6000803e3d6000fd5b505050506040513d601f19601f8201168201806040525081019061138d9190611af5565b6001600160a01b0316145b6040518060400160405280600381526020016223292160e91b815250906113d25760405162461bcd60e51b815260040161037f9190611732565b5050565b6000763d602d80600a3d3981f3363d3d373d3d3d363d730000008360601b60e81c176000526e5af43d82803e903d91602b57fd5bf38360781b1760205281603760096000f590506001600160a01b03811661032a5760405162461bcd60e51b815260206004820152601760248201527f455243313136373a2063726561746532206661696c6564000000000000000000604482015260640161037f565b82805461147f9061194f565b90600052602060002090601f0160209004810192826114a157600085556114e7565b82601f106114ba57805160ff19168380011785556114e7565b828001600101855582156114e7579182015b828111156114e75782518255916020019190600101906114cc565b506114f39291506114f7565b5090565b5b808211156114f357600081556001016114f8565b60006020828403121561151e57600080fd5b81356001600160e01b03198116811461153657600080fd5b9392505050565b634e487b7160e01b600052604160045260246000fd5b6040516060810167ffffffffffffffff811182821017156115765761157661153d565b60405290565b604051601f8201601f1916810167ffffffffffffffff811182821017156115a5576115a561153d565b604052919050565b6001600160a01b0381168114610ec257600080fd5b6000606082840312156115d457600080fd5b6040516060810181811067ffffffffffffffff821117156115f7576115f761153d565b6040528235611605816115ad565b81526020830135611615816115ad565b60208201526040830135611628816115ad565b60408201529392505050565b60006020828403121561164657600080fd5b5035919050565b60005b83811015611668578181015183820152602001611650565b83811115611677576000848401525b50505050565b6000815180845261169581602086016020860161164d565b601f01601f19169290920160200192915050565b602080825282516001600160a01b03168282015282810151606060408401528051608084018190526000929160a0600583901b86018101929184019190860190855b8181101561171957609f1988860301835261170785855161167d565b945092850192918501916001016116eb565b5050505060408501516060850152809250505092915050565b602081526000611536602083018461167d565b6060810161032a828480516001600160a01b03908116835260208083015182169084015260409182015116910152565b6000806040838503121561178857600080fd5b82359150602083013567ffffffffffffffff8111156117a657600080fd5b8301606081860312156117b857600080fd5b809150509250929050565b600067ffffffffffffffff8211156117dd576117dd61153d565b5060051b60200190565b80356117f2816115ad565b919050565b803562ffffff811681146117f257600080fd5b60008060006060848603121561181f57600080fd5b833567ffffffffffffffff81111561183657600080fd5b8401601f8101861361184757600080fd5b8035602061185c611857836117c3565b61157c565b82815260059290921b8301810191818101908984111561187b57600080fd5b938201935b838510156118a2578435611893816115ad565b82529382019390820190611880565b96506118b190508782016117e7565b94505050506118c2604085016117f7565b90509250925092565b6000602082840312156118dd57600080fd5b5051919050565b634e487b7160e01b600052601160045260246000fd5b6000821982111561190d5761190d6118e4565b500190565b60808101611942828580516001600160a01b03908116835260208083015182169084015260409182015116910152565b8260608301529392505050565b600181811c9082168061196357607f821691505b6020821081141561198457634e487b7160e01b600052602260045260246000fd5b50919050565b6000602080838503121561199d57600080fd5b825167ffffffffffffffff808211156119b557600080fd5b90840190606082870312156119c957600080fd5b6119d1611553565b82516119dc816115ad565b815282840151828111156119ef57600080fd5b8301601f81018813611a0057600080fd5b8051611a0e611857826117c3565b81815260059190911b8201860190868101908a831115611a2d57600080fd5b8784015b83811015611ab757805187811115611a495760008081fd5b8501603f81018d13611a5b5760008081fd5b89810151604089821115611a7157611a7161153d565b611a83601f8301601f19168d0161157c565b8281528f82848601011115611a985760008081fd5b611aa7838e830184870161164d565b8652505050918801918801611a31565b50808886015250505050604083015160408201528094505050505092915050565b600060208284031215611aea57600080fd5b8135611536816115ad565b600060208284031215611b0757600080fd5b8151611536816115ad565b6000808335601e19843603018112611b2957600080fd5b83018035915067ffffffffffffffff821115611b4457600080fd5b6020019150600581901b3603821315611b5c57600080fd5b9250929050565b634e487b7160e01b600052603260045260246000fd5b6000808335601e19843603018112611b9057600080fd5b83018035915067ffffffffffffffff821115611bab57600080fd5b602001915036819003821315611b5c57600080fd5b600082821015611bd257611bd26118e4565b500390565b805163ffffffff811681146117f257600080fd5b600082601f830112611bfc57600080fd5b81516020611c0c611857836117c3565b82815260059290921b84018101918181019086841115611c2b57600080fd5b8286015b84811015611c4f578051611c42816115ad565b8352918301918301611c2f565b509695505050505050565b60008060008060008060008060006101208a8c031215611c7957600080fd5b8951611c84816115ad565b98506020611c938b8201611bd7565b9850611ca160408c01611bd7565b9750611caf60608c01611bd7565b965060808b0151955060a08b0151945060c08b0151935060e08b015167ffffffffffffffff80821115611ce157600080fd5b611ced8e838f01611beb565b94506101008d0151915080821115611d0457600080fd5b508b01601f81018d13611d1657600080fd5b8051611d24611857826117c3565b81815260059190911b8201830190838101908f831115611d4357600080fd5b928401925b82841015611d6157835182529284019290840190611d48565b80955050505050509295985092959850929598565b6000600019821415611d8a57611d8a6118e4565b5060010190565b600060208284031215611da357600080fd5b815167ffffffffffffffff811115611dba57600080fd5b611dc684828501611beb565b949350505050565b81835281816020850137506000828201602090810191909152601f909101601f19169091010190565b60006020808352608083018435611e0d816115ad565b6001600160a01b0316848301528482013536869003601e19018112611e3157600080fd5b8501803583820167ffffffffffffffff80831115611e4e57600080fd5b8260051b8036038a1315611e6157600080fd5b606060408a81019190915295849052880160a09081019583918a01600036889003603e19015b87821015611eed578c8a03609f190183528435818112611ea657600080fd5b89018b81013587811115611eb957600080fd5b803603891315611ec857600080fd5b611ed58c82888501611dce565b9b505050938a0193918a019160019190910190611e87565b505050808b013560608b0152505050505050809250505092915050565b600081518084526020808501945080840160005b83811015611f435781516001600160a01b031687529582019590820190600101611f1e565b509495945050505050565b838152606060208201526000611f676060830185611f0a565b905062ffffff83166040830152949350505050565b60a081526000611f8f60a0830188611f0a565b8281036020840152611fa1818861167d565b6001600160a01b03968716604085015294909516606083015250608001529392505050565b600060208284031215611fd857600080fd5b8151801515811461153657600080fdfea2646970667358221220f8e69c973d005f8fd87391880458f955b7ae57556e7d95055e2434fe9dac7e4264736f6c63430008090033",
    "linkReferences": {}
  },
  "methodIdentifiers": {
    "commitInternalParams()": "d4a07d34",
    "contractName()": "75d0c0dc",
    "contractNameBytes()": "0e3e80ac",
    "contractVersion()": "a0a8e460",
    "contractVersionBytes()": "06a46239",
    "createVault(address[],address,uint24)": "a515d1bf",
    "delayedProtocolParamsTimestamp()": "e4af6e79",
    "delayedProtocolPerVaultParamsTimestamp(uint256)": "511ce798",
    "delayedStrategyParamsTimestamp(uint256)": "6707acee",
    "internalParams()": "7ac46fbb",
    "internalParamsTimestamp()": "1c7f4c73",
    "setStrategyParams(uint256,(address,bytes[],uint256))": "9f6ae799",
    "stageInternalParams((address,address,address))": "09946538",
    "stagedInternalParams()": "86c6be3e",
    "strategyParams(uint256)": "12466b68",
    "supportsInterface(bytes4)": "01ffc9a7"
  },
  "id": 467
}