{
  "abi": [
    {
      "inputs": [
        {
          "internalType": "contract INonfungiblePositionManager",
          "name": "positionManager_",
          "type": "address"
        }
      ],
      "stateMutability": "nonpayable",
      "type": "constructor"
    },
    {
      "anonymous": false,
      "inputs": [
        {
          "indexed": false,
          "internalType": "uint256",
          "name": "tokenId",
          "type": "uint256"
        }
      ],
      "name": "PositionBurned",
      "type": "event"
    },
    {
      "anonymous": false,
      "inputs": [
        {
          "indexed": false,
          "internalType": "uint256",
          "name": "tokenId",
          "type": "uint256"
        }
      ],
      "name": "PositionMinted",
      "type": "event"
    },
    {
      "anonymous": false,
      "inputs": [
        {
          "indexed": true,
          "internalType": "address",
          "name": "origin",
          "type": "address"
        },
        {
          "indexed": true,
          "internalType": "address",
          "name": "sender",
          "type": "address"
        }
      ],
      "name": "Rebalance",
      "type": "event"
    },
    {
      "anonymous": false,
      "inputs": [
        {
          "indexed": true,
          "internalType": "bytes32",
          "name": "role",
          "type": "bytes32"
        },
        {
          "indexed": true,
          "internalType": "bytes32",
          "name": "previousAdminRole",
          "type": "bytes32"
        },
        {
          "indexed": true,
          "internalType": "bytes32",
          "name": "newAdminRole",
          "type": "bytes32"
        }
      ],
      "name": "RoleAdminChanged",
      "type": "event"
    },
    {
      "anonymous": false,
      "inputs": [
        {
          "indexed": true,
          "internalType": "bytes32",
          "name": "role",
          "type": "bytes32"
        },
        {
          "indexed": true,
          "internalType": "address",
          "name": "account",
          "type": "address"
        },
        {
          "indexed": true,
          "internalType": "address",
          "name": "sender",
          "type": "address"
        }
      ],
      "name": "RoleGranted",
      "type": "event"
    },
    {
      "anonymous": false,
      "inputs": [
        {
          "indexed": true,
          "internalType": "bytes32",
          "name": "role",
          "type": "bytes32"
        },
        {
          "indexed": true,
          "internalType": "address",
          "name": "account",
          "type": "address"
        },
        {
          "indexed": true,
          "internalType": "address",
          "name": "sender",
          "type": "address"
        }
      ],
      "name": "RoleRevoked",
      "type": "event"
    },
    {
      "anonymous": false,
      "inputs": [
        {
          "indexed": false,
          "internalType": "uint256",
          "name": "amountIn",
          "type": "uint256"
        },
        {
          "indexed": false,
          "internalType": "uint256",
          "name": "amountOut",
          "type": "uint256"
        },
        {
          "indexed": false,
          "internalType": "uint256",
          "name": "tokenInIndex",
          "type": "uint256"
        }
      ],
      "name": "TokensSwapped",
      "type": "event"
    },
    {
      "anonymous": false,
      "inputs": [
        {
          "indexed": true,
          "internalType": "address",
          "name": "origin",
          "type": "address"
        },
        {
          "indexed": true,
          "internalType": "address",
          "name": "sender",
          "type": "address"
        },
        {
          "components": [
            {
              "internalType": "int24",
              "name": "priceImpactD6",
              "type": "int24"
            },
            {
              "internalType": "int24",
              "name": "maxDeviationForVaultPool",
              "type": "int24"
            },
            {
              "internalType": "uint32",
              "name": "timespanForAverageTick",
              "type": "uint32"
            },
            {
              "internalType": "uint256",
              "name": "swapSlippageD",
              "type": "uint256"
            },
            {
              "internalType": "uint256",
              "name": "swappingAmountsCoefficientD",
              "type": "uint256"
            },
            {
              "internalType": "uint256[]",
              "name": "minSwapAmounts",
              "type": "uint256[]"
            }
          ],
          "indexed": false,
          "internalType": "struct BasePulseStrategy.MutableParams",
          "name": "mutableParams",
          "type": "tuple"
        }
      ],
      "name": "UpdateMutableParams",
      "type": "event"
    },
    {
      "inputs": [],
      "name": "ADMIN_DELEGATE_ROLE",
      "outputs": [
        {
          "internalType": "bytes32",
          "name": "",
          "type": "bytes32"
        }
      ],
      "stateMutability": "view",
      "type": "function"
    },
    {
      "inputs": [],
      "name": "ADMIN_ROLE",
      "outputs": [
        {
          "internalType": "bytes32",
          "name": "",
          "type": "bytes32"
        }
      ],
      "stateMutability": "view",
      "type": "function"
    },
    {
      "inputs": [],
      "name": "D6",
      "outputs": [
        {
          "internalType": "uint256",
          "name": "",
          "type": "uint256"
        }
      ],
      "stateMutability": "view",
      "type": "function"
    },
    {
      "inputs": [],
      "name": "D9",
      "outputs": [
        {
          "internalType": "uint256",
          "name": "",
          "type": "uint256"
        }
      ],
      "stateMutability": "view",
      "type": "function"
    },
    {
      "inputs": [],
      "name": "DEFAULT_ADMIN_ROLE",
      "outputs": [
        {
          "internalType": "bytes32",
          "name": "",
          "type": "bytes32"
        }
      ],
      "stateMutability": "view",
      "type": "function"
    },
    {
      "inputs": [],
      "name": "OPERATOR",
      "outputs": [
        {
          "internalType": "bytes32",
          "name": "",
          "type": "bytes32"
        }
      ],
      "stateMutability": "view",
      "type": "function"
    },
    {
      "inputs": [],
      "name": "Q96",
      "outputs": [
        {
          "internalType": "uint256",
          "name": "",
          "type": "uint256"
        }
      ],
      "stateMutability": "view",
      "type": "function"
    },
    {
      "inputs": [
        {
          "components": [
            {
              "internalType": "contract IERC20Vault",
              "name": "erc20Vault",
              "type": "address"
            },
            {
              "internalType": "contract IUniV3Vault",
              "name": "uniV3Vault",
              "type": "address"
            },
            {
              "internalType": "address",
              "name": "router",
              "type": "address"
            },
            {
              "internalType": "address[]",
              "name": "tokens",
              "type": "address[]"
            }
          ],
          "internalType": "struct BasePulseStrategy.ImmutableParams",
          "name": "immutableParams_",
          "type": "tuple"
        },
        {
          "components": [
            {
              "internalType": "int24",
              "name": "priceImpactD6",
              "type": "int24"
            },
            {
              "internalType": "int24",
              "name": "maxDeviationForVaultPool",
              "type": "int24"
            },
            {
              "internalType": "uint32",
              "name": "timespanForAverageTick",
              "type": "uint32"
            },
            {
              "internalType": "uint256",
              "name": "swapSlippageD",
              "type": "uint256"
            },
            {
              "internalType": "uint256",
              "name": "swappingAmountsCoefficientD",
              "type": "uint256"
            },
            {
              "internalType": "uint256[]",
              "name": "minSwapAmounts",
              "type": "uint256[]"
            }
          ],
          "internalType": "struct BasePulseStrategy.MutableParams",
          "name": "mutableParams_",
          "type": "tuple"
        },
        {
          "internalType": "uint256",
          "name": "priceX96",
          "type": "uint256"
        },
        {
          "internalType": "uint256",
          "name": "targetRatioOfToken1X96",
          "type": "uint256"
        }
      ],
      "name": "calculateAmountsForSwap",
      "outputs": [
        {
          "internalType": "uint256",
          "name": "tokenInIndex",
          "type": "uint256"
        },
        {
          "internalType": "uint256",
          "name": "amountIn",
          "type": "uint256"
        }
      ],
      "stateMutability": "view",
      "type": "function"
    },
    {
      "inputs": [
        {
          "components": [
            {
              "internalType": "int24",
              "name": "lowerTick",
              "type": "int24"
            },
            {
              "internalType": "int24",
              "name": "upperTick",
              "type": "int24"
            }
          ],
          "internalType": "struct BasePulseStrategy.Interval",
          "name": "interval",
          "type": "tuple"
        },
        {
          "internalType": "uint160",
          "name": "sqrtSpotPriceX96",
          "type": "uint160"
        },
        {
          "internalType": "uint256",
          "name": "spotPriceX96",
          "type": "uint256"
        }
      ],
      "name": "calculateTargetRatioOfToken1",
      "outputs": [
        {
          "internalType": "uint256",
          "name": "targetRatioOfToken1X96",
          "type": "uint256"
        }
      ],
      "stateMutability": "pure",
      "type": "function"
    },
    {
      "inputs": [
        {
          "components": [
            {
              "internalType": "contract IERC20Vault",
              "name": "erc20Vault",
              "type": "address"
            },
            {
              "internalType": "contract IUniV3Vault",
              "name": "uniV3Vault",
              "type": "address"
            },
            {
              "internalType": "address",
              "name": "router",
              "type": "address"
            },
            {
              "internalType": "address[]",
              "name": "tokens",
              "type": "address[]"
            }
          ],
          "internalType": "struct BasePulseStrategy.ImmutableParams",
          "name": "params",
          "type": "tuple"
        }
      ],
      "name": "checkImmutableParams",
      "outputs": [],
      "stateMutability": "view",
      "type": "function"
    },
    {
      "inputs": [
        {
          "components": [
            {
              "internalType": "int24",
              "name": "priceImpactD6",
              "type": "int24"
            },
            {
              "internalType": "int24",
              "name": "maxDeviationForVaultPool",
              "type": "int24"
            },
            {
              "internalType": "uint32",
              "name": "timespanForAverageTick",
              "type": "uint32"
            },
            {
              "internalType": "uint256",
              "name": "swapSlippageD",
              "type": "uint256"
            },
            {
              "internalType": "uint256",
              "name": "swappingAmountsCoefficientD",
              "type": "uint256"
            },
            {
              "internalType": "uint256[]",
              "name": "minSwapAmounts",
              "type": "uint256[]"
            }
          ],
          "internalType": "struct BasePulseStrategy.MutableParams",
          "name": "params",
          "type": "tuple"
        }
      ],
      "name": "checkMutableParams",
      "outputs": [],
      "stateMutability": "pure",
      "type": "function"
    },
    {
      "inputs": [
        {
          "components": [
            {
              "internalType": "int24",
              "name": "priceImpactD6",
              "type": "int24"
            },
            {
              "internalType": "int24",
              "name": "maxDeviationForVaultPool",
              "type": "int24"
            },
            {
              "internalType": "uint32",
              "name": "timespanForAverageTick",
              "type": "uint32"
            },
            {
              "internalType": "uint256",
              "name": "swapSlippageD",
              "type": "uint256"
            },
            {
              "internalType": "uint256",
              "name": "swappingAmountsCoefficientD",
              "type": "uint256"
            },
            {
              "internalType": "uint256[]",
              "name": "minSwapAmounts",
              "type": "uint256[]"
            }
          ],
          "internalType": "struct BasePulseStrategy.MutableParams",
          "name": "mutableParams_",
          "type": "tuple"
        },
        {
          "internalType": "contract IUniswapV3Pool",
          "name": "vaultPool",
          "type": "address"
        }
      ],
      "name": "checkTickDeviation",
      "outputs": [],
      "stateMutability": "view",
      "type": "function"
    },
    {
      "inputs": [
        {
          "components": [
            {
              "internalType": "int24",
              "name": "lowerTick",
              "type": "int24"
            },
            {
              "internalType": "int24",
              "name": "upperTick",
              "type": "int24"
            }
          ],
          "internalType": "struct BasePulseStrategy.Interval",
          "name": "newInterval",
          "type": "tuple"
        },
        {
          "internalType": "uint256",
          "name": "nft",
          "type": "uint256"
        }
      ],
      "name": "compareIntervals",
      "outputs": [
        {
          "internalType": "bool",
          "name": "",
          "type": "bool"
        }
      ],
      "stateMutability": "view",
      "type": "function"
    },
    {
      "inputs": [],
      "name": "contractName",
      "outputs": [
        {
          "internalType": "string",
          "name": "",
          "type": "string"
        }
      ],
      "stateMutability": "pure",
      "type": "function"
    },
    {
      "inputs": [],
      "name": "contractNameBytes",
      "outputs": [
        {
          "internalType": "bytes32",
          "name": "",
          "type": "bytes32"
        }
      ],
      "stateMutability": "pure",
      "type": "function"
    },
    {
      "inputs": [],
      "name": "contractVersion",
      "outputs": [
        {
          "internalType": "string",
          "name": "",
          "type": "string"
        }
      ],
      "stateMutability": "pure",
      "type": "function"
    },
    {
      "inputs": [],
      "name": "contractVersionBytes",
      "outputs": [
        {
          "internalType": "bytes32",
          "name": "",
          "type": "bytes32"
        }
      ],
      "stateMutability": "pure",
      "type": "function"
    },
    {
      "inputs": [],
      "name": "depositCallback",
      "outputs": [],
      "stateMutability": "nonpayable",
      "type": "function"
    },
    {
      "inputs": [],
      "name": "desiredAmounts",
      "outputs": [
        {
          "internalType": "uint256",
          "name": "amount0Desired",
          "type": "uint256"
        },
        {
          "internalType": "uint256",
          "name": "amount1Desired",
          "type": "uint256"
        }
      ],
      "stateMutability": "view",
      "type": "function"
    },
    {
      "inputs": [],
      "name": "forceRebalanceWidthFlag",
      "outputs": [
        {
          "internalType": "bool",
          "name": "",
          "type": "bool"
        }
      ],
      "stateMutability": "view",
      "type": "function"
    },
    {
      "inputs": [
        {
          "internalType": "bytes32",
          "name": "role",
          "type": "bytes32"
        }
      ],
      "name": "getRoleAdmin",
      "outputs": [
        {
          "internalType": "bytes32",
          "name": "",
          "type": "bytes32"
        }
      ],
      "stateMutability": "view",
      "type": "function"
    },
    {
      "inputs": [
        {
          "internalType": "bytes32",
          "name": "role",
          "type": "bytes32"
        },
        {
          "internalType": "uint256",
          "name": "index",
          "type": "uint256"
        }
      ],
      "name": "getRoleMember",
      "outputs": [
        {
          "internalType": "address",
          "name": "",
          "type": "address"
        }
      ],
      "stateMutability": "view",
      "type": "function"
    },
    {
      "inputs": [
        {
          "internalType": "bytes32",
          "name": "role",
          "type": "bytes32"
        }
      ],
      "name": "getRoleMemberCount",
      "outputs": [
        {
          "internalType": "uint256",
          "name": "",
          "type": "uint256"
        }
      ],
      "stateMutability": "view",
      "type": "function"
    },
    {
      "inputs": [
        {
          "internalType": "bytes32",
          "name": "role",
          "type": "bytes32"
        },
        {
          "internalType": "address",
          "name": "account",
          "type": "address"
        }
      ],
      "name": "grantRole",
      "outputs": [],
      "stateMutability": "nonpayable",
      "type": "function"
    },
    {
      "inputs": [
        {
          "internalType": "bytes32",
          "name": "role",
          "type": "bytes32"
        },
        {
          "internalType": "address",
          "name": "account",
          "type": "address"
        }
      ],
      "name": "hasRole",
      "outputs": [
        {
          "internalType": "bool",
          "name": "",
          "type": "bool"
        }
      ],
      "stateMutability": "view",
      "type": "function"
    },
    {
      "inputs": [],
      "name": "immutableParams",
      "outputs": [
        {
          "internalType": "contract IERC20Vault",
          "name": "erc20Vault",
          "type": "address"
        },
        {
          "internalType": "contract IUniV3Vault",
          "name": "uniV3Vault",
          "type": "address"
        },
        {
          "internalType": "address",
          "name": "router",
          "type": "address"
        }
      ],
      "stateMutability": "view",
      "type": "function"
    },
    {
      "inputs": [
        {
          "internalType": "address",
          "name": "admin",
          "type": "address"
        }
      ],
      "name": "init",
      "outputs": [],
      "stateMutability": "nonpayable",
      "type": "function"
    },
    {
      "inputs": [
        {
          "components": [
            {
              "internalType": "contract IERC20Vault",
              "name": "erc20Vault",
              "type": "address"
            },
            {
              "internalType": "contract IUniV3Vault",
              "name": "uniV3Vault",
              "type": "address"
            },
            {
              "internalType": "address",
              "name": "router",
              "type": "address"
            },
            {
              "internalType": "address[]",
              "name": "tokens",
              "type": "address[]"
            }
          ],
          "internalType": "struct BasePulseStrategy.ImmutableParams",
          "name": "immutableParams_",
          "type": "tuple"
        },
        {
          "internalType": "address",
          "name": "admin",
          "type": "address"
        }
      ],
      "name": "initialize",
      "outputs": [],
      "stateMutability": "nonpayable",
      "type": "function"
    },
    {
      "inputs": [],
      "name": "initialized",
      "outputs": [
        {
          "internalType": "bool",
          "name": "",
          "type": "bool"
        }
      ],
      "stateMutability": "view",
      "type": "function"
    },
    {
      "inputs": [
        {
          "internalType": "address",
          "name": "sender",
          "type": "address"
        }
      ],
      "name": "isAdmin",
      "outputs": [
        {
          "internalType": "bool",
          "name": "",
          "type": "bool"
        }
      ],
      "stateMutability": "view",
      "type": "function"
    },
    {
      "inputs": [
        {
          "internalType": "address",
          "name": "sender",
          "type": "address"
        }
      ],
      "name": "isOperator",
      "outputs": [
        {
          "internalType": "bool",
          "name": "",
          "type": "bool"
        }
      ],
      "stateMutability": "view",
      "type": "function"
    },
    {
      "inputs": [],
      "name": "mutableParams",
      "outputs": [
        {
          "internalType": "int24",
          "name": "priceImpactD6",
          "type": "int24"
        },
        {
          "internalType": "int24",
          "name": "maxDeviationForVaultPool",
          "type": "int24"
        },
        {
          "internalType": "uint32",
          "name": "timespanForAverageTick",
          "type": "uint32"
        },
        {
          "internalType": "uint256",
          "name": "swapSlippageD",
          "type": "uint256"
        },
        {
          "internalType": "uint256",
          "name": "swappingAmountsCoefficientD",
          "type": "uint256"
        }
      ],
      "stateMutability": "view",
      "type": "function"
    },
    {
      "inputs": [],
      "name": "positionManager",
      "outputs": [
        {
          "internalType": "contract INonfungiblePositionManager",
          "name": "",
          "type": "address"
        }
      ],
      "stateMutability": "view",
      "type": "function"
    },
    {
      "inputs": [
        {
          "internalType": "uint256",
          "name": "deadline",
          "type": "uint256"
        },
        {
          "components": [
            {
              "internalType": "int24",
              "name": "lowerTick",
              "type": "int24"
            },
            {
              "internalType": "int24",
              "name": "upperTick",
              "type": "int24"
            }
          ],
          "internalType": "struct BasePulseStrategy.Interval",
          "name": "newInterval",
          "type": "tuple"
        },
        {
          "internalType": "bytes",
          "name": "swapData",
          "type": "bytes"
        },
        {
          "internalType": "uint256",
          "name": "minAmountOutInCaseOfSwap",
          "type": "uint256"
        }
      ],
      "name": "rebalance",
      "outputs": [],
      "stateMutability": "nonpayable",
      "type": "function"
    },
    {
      "inputs": [
        {
          "internalType": "bytes32",
          "name": "role",
          "type": "bytes32"
        },
        {
          "internalType": "address",
          "name": "account",
          "type": "address"
        }
      ],
      "name": "renounceRole",
      "outputs": [],
      "stateMutability": "nonpayable",
      "type": "function"
    },
    {
      "inputs": [
        {
          "internalType": "bytes32",
          "name": "role",
          "type": "bytes32"
        },
        {
          "internalType": "address",
          "name": "account",
          "type": "address"
        }
      ],
      "name": "revokeRole",
      "outputs": [],
      "stateMutability": "nonpayable",
      "type": "function"
    },
    {
      "inputs": [
        {
          "internalType": "bool",
          "name": "newValue",
          "type": "bool"
        }
      ],
      "name": "setForceRebalanceFlag",
      "outputs": [],
      "stateMutability": "nonpayable",
      "type": "function"
    },
    {
      "inputs": [
        {
          "internalType": "bytes4",
          "name": "interfaceId",
          "type": "bytes4"
        }
      ],
      "name": "supportsInterface",
      "outputs": [
        {
          "internalType": "bool",
          "name": "",
          "type": "bool"
        }
      ],
      "stateMutability": "view",
      "type": "function"
    },
    {
      "inputs": [
        {
          "components": [
            {
              "internalType": "uint256",
              "name": "amount0Desired",
              "type": "uint256"
            },
            {
              "internalType": "uint256",
              "name": "amount1Desired",
              "type": "uint256"
            }
          ],
          "internalType": "struct BasePulseStrategy.DesiredAmounts",
          "name": "params",
          "type": "tuple"
        }
      ],
      "name": "updateDesiredAmounts",
      "outputs": [],
      "stateMutability": "nonpayable",
      "type": "function"
    },
    {
      "inputs": [
        {
          "components": [
            {
              "internalType": "int24",
              "name": "priceImpactD6",
              "type": "int24"
            },
            {
              "internalType": "int24",
              "name": "maxDeviationForVaultPool",
              "type": "int24"
            },
            {
              "internalType": "uint32",
              "name": "timespanForAverageTick",
              "type": "uint32"
            },
            {
              "internalType": "uint256",
              "name": "swapSlippageD",
              "type": "uint256"
            },
            {
              "internalType": "uint256",
              "name": "swappingAmountsCoefficientD",
              "type": "uint256"
            },
            {
              "internalType": "uint256[]",
              "name": "minSwapAmounts",
              "type": "uint256[]"
            }
          ],
          "internalType": "struct BasePulseStrategy.MutableParams",
          "name": "mutableParams_",
          "type": "tuple"
        }
      ],
      "name": "updateMutableParams",
      "outputs": [],
      "stateMutability": "nonpayable",
      "type": "function"
    },
    {
      "inputs": [],
      "name": "withdrawCallback",
      "outputs": [],
      "stateMutability": "nonpayable",
      "type": "function"
    }
  ],
  "bytecode": {
    "object": "0x60a06040523480156200001157600080fd5b506040516200501c3803806200501c833981016040819052620000349162000093565b60408051808201909152600281526120ad60f11b60208201526001600160a01b038216620000805760405162461bcd60e51b8152600401620000779190620000c5565b60405180910390fd5b506001600160a01b03166080526200011d565b600060208284031215620000a657600080fd5b81516001600160a01b0381168114620000be57600080fd5b9392505050565b600060208083528351808285015260005b81811015620000f457858101830151858201604001528201620000d6565b8181111562000107576000604083870101525b50601f01601f1916929092016040019392505050565b608051614ec06200015c600039600081816104af015281816111dc0152818161160a015281816125a9015281816127a9015261285d0152614ec06000f3fe608060405234801561001057600080fd5b50600436106102535760003560e01c80636d70f7ae11610146578063a0a8e460116100c3578063b4559f3e11610087578063b4559f3e146102e7578063c8014d531461058a578063ca15c873146105d4578063d3277e86146105e7578063d547741f146105f5578063e521826f1461060857600080fd5b8063a0a8e4601461054a578063a11bac7414610552578063a217fddf1461055c578063a8470bcc14610564578063ace4d0fd1461057757600080fd5b806389eddfea1161010a57806389eddfea146104e95780639010d07c146104fc57806391d148541461050f578063983d2737146105225780639bb37ba81461053757600080fd5b80636d70f7ae1461045a5780636ff0b3581461046d57806375b238fc1461048057806375d0c0dc14610495578063791b98bc146104aa57600080fd5b806332f893a7116101d45780634ef78a52116101985780634ef78a521461039657806351c5d0c0146103a9578063551530ae146103bc5780635a9edefb146103c75780635f408a21146103ef57600080fd5b806332f893a71461033f57806336568abe14610352578063407924651461036557806340a78e7314610370578063475cffef1461038357600080fd5b806319ab453c1161021b57806319ab453c146102d45780631e63f062146102e9578063248a9ca3146102f657806324d7806c146103195780632f2ff15d1461032c57600080fd5b806301ffc9a71461025857806306a46239146102805780630952ff54146102985780630e3e80ac146102ad578063158ef93e146102c7575b600080fd5b61026b610266366004613b11565b610610565b60405190151581526020015b60405180910390f35b640312e302e360dc1b5b604051908152602001610277565b61028a600080516020614e2b83398151915281565b704261736550756c7365537472617465677960781b61028a565b60025461026b9060ff1681565b6102e76102e2366004613b50565b610640565b005b600d5461026b9060ff1681565b61028a610304366004613b6d565b60009081526020819052604090206001015490565b61026b610327366004613b50565b61076f565b6102e761033a366004613b86565b6107a7565b6102e761034d366004613d82565b6107d1565b6102e7610360366004613b86565b6108a0565b61028a600160601b81565b6102e761037e366004613d82565b61091e565b6102e7610391366004613e93565b610ac4565b6102e76103a4366004613ec7565b611063565b61026b6103b7366004613f6f565b6111aa565b61028a633b9aca0081565b6103da6103d5366004613f9a565b611290565b60408051928352602083019190915201610277565b60075460085460095461041f92600281810b936301000000830490910b92600160301b90920463ffffffff169185565b60408051600296870b81529490950b602085015263ffffffff909216938301939093526060820192909252608081019190915260a001610277565b61026b610468366004613b50565b611571565b6102e761047b36600461400d565b61158b565b61028a600080516020614e4b83398151915281565b61049d61176a565b604051610277919061409a565b6104d17f000000000000000000000000000000000000000000000000000000000000000081565b6040516001600160a01b039091168152602001610277565b6102e76104f73660046140ad565b611789565b6104d161050a36600461413c565b611a74565b61026b61051d366004613b86565b611a93565b61028a600080516020614e6b83398151915281565b61028a61054536600461415e565b611abc565b61049d611ba7565b61028a620f424081565b61028a600081565b6102e76105723660046141ac565b611bba565b6102e76105853660046141c9565b611bd5565b6003546004546005546105aa926001600160a01b03908116928116911683565b604080516001600160a01b0394851681529284166020840152921691810191909152606001610277565b61028a6105e2366004613b6d565b611cf4565b600b54600c546103da919082565b6102e7610603366004613b86565b611d0b565b6102e7611d30565b60006001600160e01b03198216635a05180f60e01b1480610635575061063582611dca565b92915050565b905090565b60408051808201909152600281526120ad60f11b60208201526001600160a01b0382166106895760405162461bcd60e51b8152600401610680919061409a565b60405180910390fd5b506002546040805180820190915260048152631253925560e21b60208201529060ff16156106ca5760405162461bcd60e51b8152600401610680919061409a565b506106e3600080516020614e6b83398151915282611dff565b6106fb600080516020614e4b83398151915282611dff565b610713600080516020614e4b83398151915280611e09565b610739600080516020614e2b833981519152600080516020614e4b833981519152611e09565b61075f600080516020614e6b833981519152600080516020614e2b833981519152611e09565b506002805460ff19166001179055565b6000610789600080516020614e4b83398151915283611a93565b806106355750610635600080516020614e2b83398151915283611a93565b6000828152602081905260409020600101546107c281611e54565b6107cc8383611e61565b505050565b6107d9611e83565b6107e28161091e565b805160078054602080850151604086015163ffffffff16600160301b0269ffffffff0000000000001962ffffff92831663010000000265ffffffffffff19909516929096169190911792909217939093161781556060830151600855608083015160095560a08301518051849361085e92600a92910190613a5c565b505060405133915032907f9770ef9b933ab26abe24bb989b4f4b81b4f0e53915099295010b216fe6b6d63390610895908590614252565b60405180910390a350565b6001600160a01b03811633146109105760405162461bcd60e51b815260206004820152602f60248201527f416363657373436f6e74726f6c3a2063616e206f6e6c792072656e6f756e636560448201526e103937b632b9903337b91039b2b63360891b6064820152608401610680565b61091a8282611ec6565b5050565b6000816020015160020b13604051806040016040528060048152602001634c494d5560e01b815250906109645760405162461bcd60e51b8152600401610680919061409a565b50604080820151815180830190925260028252612b2d60f11b602083015263ffffffff166109a55760405162461bcd60e51b8152600401610680919061409a565b5062093a80816040015163ffffffff1610604051806040016040528060028152602001612b2d60f11b815250906109ef5760405162461bcd60e51b8152600401610680919061409a565b508060a0015151600214604051806040016040528060048152602001631253959360e21b81525090610a345760405162461bcd60e51b8152600401610680919061409a565b50633b9aca0081606001511115604051806040016040528060048152602001634c494d4f60e01b81525090610a7c5760405162461bcd60e51b8152600401610680919061409a565b50633b9aca0081608001511115604051806040016040528060048152602001634c494d4f60e01b8152509061091a5760405162461bcd60e51b8152600401610680919061409a565b6040808201518151808301909252600282526120ad60f11b60208301526001600160a01b0316610b075760405162461bcd60e51b8152600401610680919061409a565b50806060015151600214604051806040016040528060048152602001631253959360e21b81525090610b4c5760405162461bcd60e51b8152600401610680919061409a565b5060006001600160a01b03168160600151600081518110610b6f57610b6f6142ab565b60200260200101516001600160a01b031614156040518060400160405280600281526020016120ad60f11b81525090610bbb5760405162461bcd60e51b8152600401610680919061409a565b5060006001600160a01b03168160600151600181518110610bde57610bde6142ab565b60200260200101516001600160a01b031614156040518060400160405280600281526020016120ad60f11b81525090610c2a5760405162461bcd60e51b8152600401610680919061409a565b50805160408051808201909152600281526120ad60f11b6020820152906001600160a01b0316610c6d5760405162461bcd60e51b8152600401610680919061409a565b50600081600001516001600160a01b031663697222336040518163ffffffff1660e01b815260040160006040518083038186803b158015610cad57600080fd5b505afa158015610cc1573d6000803e3d6000fd5b505050506040513d6000823e601f3d908101601f19168201604052610ce991908101906142d1565b90508051600214604051806040016040528060048152602001631253959360e21b81525090610d2b5760405162461bcd60e51b8152600401610680919061409a565b508160600151600081518110610d4357610d436142ab565b60200260200101516001600160a01b031681600081518110610d6757610d676142ab565b60200260200101516001600160a01b03161460405180604001604052806004815260200163494e564160e01b81525090610db45760405162461bcd60e51b8152600401610680919061409a565b508160600151600181518110610dcc57610dcc6142ab565b60200260200101516001600160a01b031681600181518110610df057610df06142ab565b60200260200101516001600160a01b03161460405180604001604052806004815260200163494e564160e01b81525090610e3d5760405162461bcd60e51b8152600401610680919061409a565b505060006001600160a01b031681602001516001600160a01b031614156040518060400160405280600281526020016120ad60f11b81525090610e935760405162461bcd60e51b8152600401610680919061409a565b50600081602001516001600160a01b031663697222336040518163ffffffff1660e01b815260040160006040518083038186803b158015610ed357600080fd5b505afa158015610ee7573d6000803e3d6000fd5b505050506040513d6000823e601f3d908101601f19168201604052610f0f91908101906142d1565b90508051600214604051806040016040528060048152602001631253959360e21b81525090610f515760405162461bcd60e51b8152600401610680919061409a565b508160600151600081518110610f6957610f696142ab565b60200260200101516001600160a01b031681600081518110610f8d57610f8d6142ab565b60200260200101516001600160a01b03161460405180604001604052806004815260200163494e564160e01b81525090610fda5760405162461bcd60e51b8152600401610680919061409a565b508160600151600181518110610ff257610ff26142ab565b60200260200101516001600160a01b031681600181518110611016576110166142ab565b60200260200101516001600160a01b03161460405180604001604052806004815260200163494e564160e01b815250906107cc5760405162461bcd60e51b8152600401610680919061409a565b6000816001600160a01b0316633850c7bd6040518163ffffffff1660e01b815260040160e06040518083038186803b15801561109e57600080fd5b505afa1580156110b2573d6000803e3d6000fd5b505050506040513d601f19601f820116820180604052508101906110d6919061437c565b50505050509150506000806110ef848660400151611ee8565b925050915080156040518060400160405280600581526020016412539594d560da1b815250906111325760405162461bcd60e51b8152600401610680919061409a565b50600061113f838561442a565b905060008160020b12156111595761115681614472565b90505b856020015160020b8160020b12604051806040016040528060048152602001634c494d4f60e01b815250906111a15760405162461bcd60e51b8152600401610680919061409a565b50505050505050565b6000816111b957506000610635565b60405163133f757160e31b81526004810183905260009081906001600160a01b037f000000000000000000000000000000000000000000000000000000000000000016906399fbab88906024016101806040518083038186803b15801561121f57600080fd5b505afa158015611233573d6000803e3d6000fd5b505050506040513d601f19601f8201168201806040525081019061125791906144bf565b50505050509650965050505050508160020b856000015160020b14801561128757508060020b856020015160020b145b95945050505050565b600080806112a284600160601b6145a0565b9050600087600001516001600160a01b031663e5328e066040518163ffffffff1660e01b815260040160006040518083038186803b1580156112e357600080fd5b505afa1580156112f7573d6000803e3d6000fd5b505050506040513d6000823e601f3d908101601f1916820160405261131f9190810190614612565b50905080600181518110611335576113356142ab565b602002602001015181600081518110611350576113506142ab565b60200260200101516113629190614675565b61137457600080935093505050611568565b60006113ec8260018151811061138c5761138c6142ab565b6020026020010151600160601b6113c2856000815181106113af576113af6142ab565b60200260200101518b600160601b612142565b856001815181106113d5576113d56142ab565b60200260200101516113e79190614675565b612142565b90506000611409600160601b8a6000015160020b620f4240612142565b9050868211156114af57600195506000611428600160601b808b612142565b90506114a76114528986600081518110611444576114446142ab565b602002602001015184612142565b61147b86600181518110611468576114686142ab565b602002602001015188600160601b612142565b61148591906145a0565b600160601b6114998b86600160601b612142565b6113e790600160601b6145a0565b955050611525565b600095506115226114db85856001815181106114cd576114cd6142ab565b60200260200101518b612142565b611504856000815181106114f1576114f16142ab565b60200260200101518a600160601b612142565b61150e91906145a0565b600160601b6114998785600160601b612142565b94505b828681518110611537576115376142ab565b602002602001015185111561156357828681518110611558576115586142ab565b602002602001015194505b505050505b94509492505050565b6000610635600080516020614e6b83398151915283611a93565b61159482610ac4565b8151600380546001600160a01b03199081166001600160a01b0393841617825560208086015160048054841691861691909117905560408601516005805490931694169390931790556060840151805185936115f592600692910190613aa7565b5090505060005b6002811015611760576116627f000000000000000000000000000000000000000000000000000000000000000060001985606001518481518110611642576116426142ab565b60200260200101516001600160a01b03166121f59092919063ffffffff16565b600354600680546001600160a01b0390921691632e2f4cc291908490811061168c5761168c6142ab565b60009182526020918290200154600554604080516001600160a01b039283169481019490945260001990840152169063095ea7b360e01b906060016040516020818303038152906040526040518463ffffffff1660e01b81526004016116f49392919061468d565b600060405180830381600087803b15801561170e57600080fd5b505af192505050801561174357506040513d6000823e601f3d908101601f1916820160405261174091908101906146c1565b60015b61174c5761174e565b505b8061175881614754565b9150506115fc565b5061091a81610640565b606061063b704261736550756c7365537472617465677960781b6122e9565b8442111560405180604001604052806002815260200161545360f01b815250906117c65760405162461bcd60e51b8152600401610680919061409a565b506117cf612355565b60408051608081018252600380546001600160a01b0390811683526004548116602080850191909152600554909116838501526006805485518184028101840190965280865260009560608601939092919083018282801561185a57602002820191906000526020600020905b81546001600160a01b0316815260019091019060200180831161183c575b5050509190925250506040805160c08101825260078054600281810b845263010000008204900b602080850191909152600160301b90910463ffffffff168385015260085460608401526009546080840152600a8054855181840281018401909652808652969750600096939550919360a086019390929183018282801561190157602002820191906000526020600020905b8154815260200190600101908083116118ed575b5050505050815250509050600082602001516001600160a01b03166316f0115b6040518163ffffffff1660e01b815260040160206040518083038186803b15801561194b57600080fd5b505afa15801561195f573d6000803e3d6000fd5b505050506040513d601f19601f82011682018060405250810190611983919061476f565b905061198f8282611063565b6000816001600160a01b0316633850c7bd6040518163ffffffff1660e01b815260040160e06040518083038186803b1580156119ca57600080fd5b505afa1580156119de573d6000803e3d6000fd5b505050506040513d601f19601f82011682018060405250810190611a02919061437c565b50505050505090506000611a17858a8561236d565b600d805460ff191690559050611a32858583858c8c8c612907565b611a3b85612e58565b604051339032907f6dcf4e69cd04d9def52d660ea37a5b366adb7701505e48e75c03d6a51a343f6490600090a350505050505050505050565b6000828152600160205260408120611a8c9083612faf565b9392505050565b6000918252602082815260408084206001600160a01b0393909316845291905290205460ff1690565b600080611acc8560000151612fbb565b6001600160a01b031690506000611ae68660200151612fbb565b6001600160a01b03169050846001600160a01b03168210611b0c57600092505050611a8c565b846001600160a01b03168111611b2a57600160601b92505050611a8c565b6000611b5f611b426001600160a01b038816846145a0565b600160601b6113e7896001600160a01b031686600160601b612142565b90506000611b76846001600160a01b0389166145a0565b9050611b9b81600160601b83611b91868b600160601b612142565b6113e79190614675565b98975050505050505050565b606061063b640312e302e360dc1b6122e9565b611bc2611e83565b600d805460ff1916911515919091179055565b611bdd611e83565b80516040805180820190915260028152612b2d60f11b602082015290611c165760405162461bcd60e51b8152600401610680919061409a565b5080516040805180820190915260048152634c494d4f60e01b602082015290633b9aca001015611c595760405162461bcd60e51b8152600401610680919061409a565b506000816020015111604051806040016040528060028152602001612b2d60f11b81525090611c9b5760405162461bcd60e51b8152600401610680919061409a565b50633b9aca0081602001511115604051806040016040528060048152602001634c494d4f60e01b81525090611ce35760405162461bcd60e51b8152600401610680919061409a565b508051600b5560200151600c55565b565b6000818152600160205260408120610635906133d8565b600082815260208190526040902060010154611d2681611e54565b6107cc8383611ec6565b60408051608081018252600380546001600160a01b03908116835260045481166020808501919091526005549091168385015260068054855181840281018401909652808652611cf295606086019390929190830182828015611dbc57602002820191906000526020600020905b81546001600160a01b03168152600190910190602001808311611d9e575b505050505081525050612e58565b60006001600160e01b03198216637965db0b60e01b148061063557506301ffc9a760e01b6001600160e01b0319831614610635565b61091a8282611e61565b600082815260208190526040808220600101805490849055905190918391839186917fbd79b86ffe0ab8e8776151514217cd7cacd52c909f66475c3af44e129f0b00ff9190a4505050565b611e5e81336133e2565b50565b611e6b828261343b565b60008281526001602052604090206107cc90826134bf565b611e8c3361076f565b6040518060400160405280600381526020016223292160e91b81525090611e5e5760405162461bcd60e51b8152600401610680919061409a565b611ed082826134d4565b60008281526001602052604090206107cc9082613539565b6000808063ffffffff8416611f245760405162461bcd60e51b8152602060048201526002602482015261042560f41b6044820152606401610680565b6040805160028082526060820183526000926020830190803683370190505090508481600081518110611f5957611f596142ab565b602002602001019063ffffffff16908163ffffffff1681525050600081600181518110611f8857611f886142ab565b63ffffffff9092166020928302919091019091015260405163883bdbfd60e01b81526001600160a01b0387169063883bdbfd90611fc990849060040161478c565b60006040518083038186803b158015611fe157600080fd5b505afa92505050801561201657506040513d6000823e601f3d908101601f19168201604052612013919081019061483a565b60015b61202b5760008060019350935093505061213b565b600082600081518110612040576120406142ab565b60200260200101518360018151811061205b5761205b6142ab565b602002602001015161206d91906148fb565b9050600082600081518110612084576120846142ab565b60200260200101518360018151811061209f5761209f6142ab565b60200260200101516120b19190614941565b90506120c363ffffffff8a168361497f565b975060008260060b1280156120e957506120e363ffffffff8a16836149bd565b60060b15155b156120fc57876120f8816149df565b9850505b60006121156001600160a01b0363ffffffff8c16614a03565b9050612132640100000000600160c01b03602084901b1682614a32565b97505050505050505b9250925092565b60008080600019858709858702925082811083820303915050806000141561217c576000841161217157600080fd5b508290049050611a8c565b80841161218857600080fd5b6000848688096000868103871696879004966002600389028118808a02820302808a02820302808a02820302808a02820302808a02820302808a02909103029181900381900460010186841190950394909402919094039290920491909117919091029150509392505050565b604051636eb1769f60e11b81523060048201526001600160a01b0383811660248301526000919085169063dd62ed3e9060440160206040518083038186803b15801561224057600080fd5b505afa158015612254573d6000803e3d6000fd5b505050506040513d601f19601f820116820180604052508101906122789190614a58565b90506122e38463095ea7b360e01b856122918686614675565b6040516001600160a01b039092166024830152604482015260640160408051601f198184030181529190526020810180516001600160e01b03166001600160e01b03199093169290921790915261354e565b50505050565b604080516020808252818301909252606091602082018180368337019050509050602060005b60208110156123475783816020811061232a5761232a6142ab565b1a61233757809150612347565b61234081614754565b905061230f565b508152602081019190915290565b61235e3361076f565b80611e8c5750611e8c33611571565b60408051808201909152600080825260208201526000846020015190506000816001600160a01b031663f4adc08b6040518163ffffffff1660e01b815260040160206040518083038186803b1580156123c557600080fd5b505afa1580156123d9573d6000803e3d6000fd5b505050506040513d601f19601f820116820180604052508101906123fd9190614a58565b9050600061240b86836111aa565b9050801561249657826001600160a01b031663c27b2c2d6040518163ffffffff1660e01b8152600401600060405180830381600087803b15801561244e57600080fd5b505af1158015612462573d6000803e3d6000fd5b505050506040513d6000823e601f3d908101601f1916820160405261248a9190810190614a71565b50859350505050611a8c565b81156125a557865160608801516040516303217f1d60e61b81526001600160801b0360048201526001600160a01b03861692632062d754929091849063c85fc7409060240160006040518083038186803b1580156124f357600080fd5b505afa158015612507573d6000803e3d6000fd5b505050506040513d6000823e601f3d908101601f1916820160405261252f9190810190614a71565b6040518463ffffffff1660e01b815260040161254d93929190614aa5565b600060405180830381600087803b15801561256757600080fd5b505af115801561257b573d6000803e3d6000fd5b505050506040513d6000823e601f3d908101601f191682016040526125a39190810190614a71565b505b60007f00000000000000000000000000000000000000000000000000000000000000006001600160a01b031663883164566040518061016001604052808b606001516000815181106125f9576125f96142ab565b60200260200101516001600160a01b031681526020018b60600151600181518110612626576126266142ab565b60200260200101516001600160a01b03168152602001896001600160a01b031663ddca3f436040518163ffffffff1660e01b815260040160206040518083038186803b15801561267557600080fd5b505afa158015612689573d6000803e3d6000fd5b505050506040513d601f19601f820116820180604052508101906126ad9190614b25565b62ffffff1681526020018a6000015160020b81526020018a6020015160020b8152602001600b600001548152602001600b6001015481526020016000815260200160008152602001306001600160a01b031681526020016000198152506040518263ffffffff1660e01b81526004016127269190614b40565b608060405180830381600087803b15801561274057600080fd5b505af1158015612754573d6000803e3d6000fd5b505050506040513d601f19601f820116820180604052508101906127789190614c04565b5050604051632142170760e11b81523060048201526001600160a01b038781166024830152604482018490529293507f0000000000000000000000000000000000000000000000000000000000000000909216916342842e0e9150606401600060405180830381600087803b1580156127f057600080fd5b505af1158015612804573d6000803e3d6000fd5b505050507face8748d23af65e86cf543d0298345b95115752e382befe3e832eacd1508adb08160405161283991815260200190565b60405180910390a182156128fb57604051630852cd8d60e31b8152600481018490527f00000000000000000000000000000000000000000000000000000000000000006001600160a01b0316906342966c6890602401600060405180830381600087803b1580156128a957600080fd5b505af11580156128bd573d6000803e3d6000fd5b505050507f65d33d8ef62a81711748bbe2a7b67aef94d1a9af04a2690d3a4dfd13d9c1d22b836040516128f291815260200190565b60405180910390a15b50949695505050505050565b60006129216001600160a01b03861680600160601b612142565b90506000806129378a8a856103d58c8c89611abc565b915091508860a001518281518110612951576129516142ab565b6020026020010151811015612968575050506111a1565b816001141561298357612980600160601b8085612142565b92505b60008a600001516001600160a01b031663e5328e066040518163ffffffff1660e01b815260040160006040518083038186803b1580156129c257600080fd5b505afa1580156129d6573d6000803e3d6000fd5b505050506040513d6000823e601f3d908101601f191682016040526129fe9190810190614612565b508b5160408d01519192506001600160a01b031690632e2f4cc290612a27600460008b8d614c40565b612a3091614c6a565b612a3d8a6004818e614c40565b6040518563ffffffff1660e01b8152600401612a5c9493929190614c9a565b600060405180830381600087803b158015612a7657600080fd5b505af1158015612a8a573d6000803e3d6000fd5b505050506040513d6000823e601f3d908101601f19168201604052612ab291908101906146c1565b5060008060008d600001516001600160a01b031663e5328e066040518163ffffffff1660e01b815260040160006040518083038186803b158015612af557600080fd5b505afa158015612b09573d6000803e3d6000fd5b505050506040513d6000823e601f3d908101601f19168201604052612b319190810190614612565b509050838681518110612b4657612b466142ab565b6020026020010151818781518110612b6057612b606142ab565b6020026020010151111560405180604001604052806004815260200163494e564160e01b81525090612ba55760405162461bcd60e51b8152600401610680919061409a565b50838660011881518110612bbb57612bbb6142ab565b6020026020010151818760011881518110612bd857612bd86142ab565b6020026020010151101560405180604001604052806004815260200163494e564160e01b81525090612c1d5760405162461bcd60e51b8152600401610680919061409a565b50808681518110612c3057612c306142ab565b6020026020010151848781518110612c4a57612c4a6142ab565b6020026020010151612c5c91906145a0565b9250838660011881518110612c7357612c736142ab565b6020026020010151818760011881518110612c9057612c906142ab565b6020026020010151612ca291906145a0565b9150506000612cb682600160601b85612142565b905087821015604051806040016040528060048152602001634c494d5560e01b81525090612cf75760405162461bcd60e51b8152600401610680919061409a565b5080612d1b888f60600151633b9aca00612d1191906145a0565b633b9aca00612142565b1115604051806040016040528060048152602001634c494d5560e01b81525090612d585760405162461bcd60e51b8152600401610680919061409a565b5082612d72868f60800151633b9aca00612d1191906145a0565b1115604051806040016040528060048152602001634c494d5560e01b81525090612daf5760405162461bcd60e51b8152600401610680919061409a565b5084612dc9848f60800151633b9aca00612d1191906145a0565b1115604051806040016040528060048152602001634c494d5560e01b81525090612e065760405162461bcd60e51b8152600401610680919061409a565b5060408051848152602081018490529081018790527f984c316f55901f828cae2a57394002595129e75b4546d4a80c6c1a4787d748c29060600160405180910390a15050505050505050505050505050565b600081600001516001600160a01b031663e5328e066040518163ffffffff1660e01b815260040160006040518083038186803b158015612e9757600080fd5b505afa158015612eab573d6000803e3d6000fd5b505050506040513d6000823e601f3d908101601f19168201604052612ed39190810190614612565b509050600081600081518110612eeb57612eeb6142ab565b60200260200101511180612f195750600081600181518110612f0f57612f0f6142ab565b6020026020010151115b1561091a57815160208301516060840151604051630818b5d560e21b81526001600160a01b0390931692632062d75492612f599290918690600401614aa5565b600060405180830381600087803b158015612f7357600080fd5b505af1158015612f87573d6000803e3d6000fd5b505050506040513d6000823e601f3d908101601f191682016040526107cc9190810190614a71565b6000611a8c8383613623565b60008060008360020b12612fd2578260020b612fdf565b8260020b612fdf90614ceb565b9050612fee620d89e719614472565b60020b8111156130245760405162461bcd60e51b81526020600482015260016024820152601560fa1b6044820152606401610680565b60006001821661303857600160801b61304a565b6ffffcb933bd6fad37aa2d162d1a5940015b70ffffffffffffffffffffffffffffffffff1690506002821615613089576080613084826ffff97272373d413259a46990580e213a614d08565b901c90505b60048216156130b35760806130ae826ffff2e50f5f656932ef12357cf3c7fdcc614d08565b901c90505b60088216156130dd5760806130d8826fffe5caca7e10e4e61c3624eaa0941cd0614d08565b901c90505b6010821615613107576080613102826fffcb9843d60f6159c9db58835c926644614d08565b901c90505b602082161561313157608061312c826fff973b41fa98c081472e6896dfb254c0614d08565b901c90505b604082161561315b576080613156826fff2ea16466c96a3843ec78b326b52861614d08565b901c90505b6080821615613185576080613180826ffe5dee046a99a2a811c461f1969c3053614d08565b901c90505b6101008216156131b05760806131ab826ffcbe86c7900a88aedcffc83b479aa3a4614d08565b901c90505b6102008216156131db5760806131d6826ff987a7253ac413176f2b074cf7815e54614d08565b901c90505b610400821615613206576080613201826ff3392b0822b70005940c7a398e4b70f3614d08565b901c90505b61080082161561323157608061322c826fe7159475a2c29b7443b29c7fa6e889d9614d08565b901c90505b61100082161561325c576080613257826fd097f3bdfd2022b8845ad8f792aa5825614d08565b901c90505b612000821615613287576080613282826fa9f746462d870fdf8a65dc1f90e061e5614d08565b901c90505b6140008216156132b25760806132ad826f70d869a156d2a1b890bb3df62baf32f7614d08565b901c90505b6180008216156132dd5760806132d8826f31be135f97d08fd981231505542fcfa6614d08565b901c90505b62010000821615613309576080613304826f09aa508b5b7a84e1c677de54f3e99bc9614d08565b901c90505b6202000082161561333457608061332f826e5d6af8dedb81196699c329225ee604614d08565b901c90505b6204000082161561335e576080613359826d2216e584f5fa1ea926041bedfe98614d08565b901c90505b62080000821615613386576080613381826b048a170391f7dc42444e8fa2614d08565b901c90505b60008460020b13156133a15761339e81600019614d27565b90505b6133b064010000000082614d3b565b156133bc5760016133bf565b60005b6133d09060ff16602083901c614675565b949350505050565b6000610635825490565b6133ec8282611a93565b61091a576133f98161364d565b61340483602061365f565b604051602001613415929190614d4f565b60408051601f198184030181529082905262461bcd60e51b82526106809160040161409a565b6134458282611a93565b61091a576000828152602081815260408083206001600160a01b03851684529091529020805460ff1916600117905561347b3390565b6001600160a01b0316816001600160a01b0316837f2f8788117e7eff1d82e926ec794901d17c78024a50270940304540a733656f0d60405160405180910390a45050565b6000611a8c836001600160a01b0384166137fa565b6134de8282611a93565b1561091a576000828152602081815260408083206001600160a01b0385168085529252808320805460ff1916905551339285917ff6391f5c32d9c69d2a47ea670b442974b53935d1edc7fd64eb21e047a839171b9190a45050565b6000611a8c836001600160a01b038416613849565b60006135a3826040518060400160405280602081526020017f5361666545524332303a206c6f772d6c6576656c2063616c6c206661696c6564815250856001600160a01b031661393c9092919063ffffffff16565b90508051600014806135c45750808060200190518101906135c49190614dc4565b6107cc5760405162461bcd60e51b815260206004820152602a60248201527f5361666545524332303a204552433230206f7065726174696f6e20646964206e6044820152691bdd081cdd58d8d9595960b21b6064820152608401610680565b600082600001828154811061363a5761363a6142ab565b9060005260206000200154905092915050565b60606106356001600160a01b03831660145b6060600061366e836002614d08565b613679906002614675565b6001600160401b0381111561369057613690613bb6565b6040519080825280601f01601f1916602001820160405280156136ba576020820181803683370190505b509050600360fc1b816000815181106136d5576136d56142ab565b60200101906001600160f81b031916908160001a905350600f60fb1b81600181518110613704576137046142ab565b60200101906001600160f81b031916908160001a9053506000613728846002614d08565b613733906001614675565b90505b60018111156137ab576f181899199a1a9b1b9c1cb0b131b232b360811b85600f1660108110613767576137676142ab565b1a60f81b82828151811061377d5761377d6142ab565b60200101906001600160f81b031916908160001a90535060049490941c936137a481614de1565b9050613736565b508315611a8c5760405162461bcd60e51b815260206004820181905260248201527f537472696e67733a20686578206c656e67746820696e73756666696369656e746044820152606401610680565b600081815260018301602052604081205461384157508154600181810184556000848152602080822090930184905584548482528286019093526040902091909155610635565b506000610635565b6000818152600183016020526040812054801561393257600061386d6001836145a0565b8554909150600090613881906001906145a0565b90508181146138e65760008660000182815481106138a1576138a16142ab565b90600052602060002001549050808760000184815481106138c4576138c46142ab565b6000918252602080832090910192909255918252600188019052604090208390555b85548690806138f7576138f7614df8565b600190038181906000526020600020016000905590558560010160008681526020019081526020016000206000905560019350505050610635565b6000915050610635565b60606133d0848460008585600080866001600160a01b031685876040516139639190614e0e565b60006040518083038185875af1925050503d80600081146139a0576040519150601f19603f3d011682016040523d82523d6000602084013e6139a5565b606091505b50915091506139b6878383876139c1565b979650505050505050565b60608315613a2d578251613a26576001600160a01b0385163b613a265760405162461bcd60e51b815260206004820152601d60248201527f416464726573733a2063616c6c20746f206e6f6e2d636f6e74726163740000006044820152606401610680565b50816133d0565b6133d08383815115613a425781518083602001fd5b8060405162461bcd60e51b8152600401610680919061409a565b828054828255906000526020600020908101928215613a97579160200282015b82811115613a97578251825591602001919060010190613a7c565b50613aa3929150613afc565b5090565b828054828255906000526020600020908101928215613a97579160200282015b82811115613a9757825182546001600160a01b0319166001600160a01b03909116178255602090920191600190910190613ac7565b5b80821115613aa35760008155600101613afd565b600060208284031215613b2357600080fd5b81356001600160e01b031981168114611a8c57600080fd5b6001600160a01b0381168114611e5e57600080fd5b600060208284031215613b6257600080fd5b8135611a8c81613b3b565b600060208284031215613b7f57600080fd5b5035919050565b60008060408385031215613b9957600080fd5b823591506020830135613bab81613b3b565b809150509250929050565b634e487b7160e01b600052604160045260246000fd5b60405160c081016001600160401b0381118282101715613bee57613bee613bb6565b60405290565b604051608081016001600160401b0381118282101715613bee57613bee613bb6565b604051601f8201601f191681016001600160401b0381118282101715613c3e57613c3e613bb6565b604052919050565b8060020b8114611e5e57600080fd5b60006001600160401b03821115613c6e57613c6e613bb6565b5060051b60200190565b600082601f830112613c8957600080fd5b81356020613c9e613c9983613c55565b613c16565b82815260059290921b84018101918181019086841115613cbd57600080fd5b8286015b84811015613cd85780358352918301918301613cc1565b509695505050505050565b600060c08284031215613cf557600080fd5b613cfd613bcc565b90508135613d0a81613c46565b81526020820135613d1a81613c46565b6020820152604082013563ffffffff81168114613d3657600080fd5b80604083015250606082013560608201526080820135608082015260a08201356001600160401b03811115613d6a57600080fd5b613d7684828501613c78565b60a08301525092915050565b600060208284031215613d9457600080fd5b81356001600160401b03811115613daa57600080fd5b6133d084828501613ce3565b600060808284031215613dc857600080fd5b613dd0613bf4565b90508135613ddd81613b3b565b8152602082810135613dee81613b3b565b828201526040830135613e0081613b3b565b604083015260608301356001600160401b03811115613e1e57600080fd5b8301601f81018513613e2f57600080fd5b8035613e3d613c9982613c55565b81815260059190911b82018301908381019087831115613e5c57600080fd5b928401925b82841015613e83578335613e7481613b3b565b82529284019290840190613e61565b6060860152509295945050505050565b600060208284031215613ea557600080fd5b81356001600160401b03811115613ebb57600080fd5b6133d084828501613db6565b60008060408385031215613eda57600080fd5b82356001600160401b03811115613ef057600080fd5b613efc85828601613ce3565b9250506020830135613bab81613b3b565b600060408284031215613f1f57600080fd5b604051604081018181106001600160401b0382111715613f4157613f41613bb6565b6040529050808235613f5281613c46565b81526020830135613f6281613c46565b6020919091015292915050565b60008060608385031215613f8257600080fd5b613f8c8484613f0d565b946040939093013593505050565b60008060008060808587031215613fb057600080fd5b84356001600160401b0380821115613fc757600080fd5b613fd388838901613db6565b95506020870135915080821115613fe957600080fd5b50613ff687828801613ce3565b949794965050505060408301359260600135919050565b6000806040838503121561402057600080fd5b82356001600160401b0381111561403657600080fd5b613efc85828601613db6565b60005b8381101561405d578181015183820152602001614045565b838111156122e35750506000910152565b60008151808452614086816020860160208601614042565b601f01601f19169290920160200192915050565b602081526000611a8c602083018461406e565b600080600080600060a086880312156140c557600080fd5b853594506140d68760208801613f0d565b935060608601356001600160401b03808211156140f257600080fd5b818801915088601f83011261410657600080fd5b81358181111561411557600080fd5b89602082850101111561412757600080fd5b96999598505060200195608001359392505050565b6000806040838503121561414f57600080fd5b50508035926020909101359150565b60008060006080848603121561417357600080fd5b61417d8585613f0d565b9250604084013561418d81613b3b565b929592945050506060919091013590565b8015158114611e5e57600080fd5b6000602082840312156141be57600080fd5b8135611a8c8161419e565b6000604082840312156141db57600080fd5b604051604081018181106001600160401b03821117156141fd576141fd613bb6565b604052823581526020928301359281019290925250919050565b600081518084526020808501945080840160005b838110156142475781518752958201959082019060010161422b565b509495945050505050565b60208152815160020b6020820152602082015160020b604082015263ffffffff604083015116606082015260608201516080820152608082015160a0820152600060a083015160c0808401526133d060e0840182614217565b634e487b7160e01b600052603260045260246000fd5b80516142cc81613b3b565b919050565b600060208083850312156142e457600080fd5b82516001600160401b038111156142fa57600080fd5b8301601f8101851361430b57600080fd5b8051614319613c9982613c55565b81815260059190911b8201830190838101908783111561433857600080fd5b928401925b828410156139b657835161435081613b3b565b8252928401929084019061433d565b80516142cc81613c46565b805161ffff811681146142cc57600080fd5b600080600080600080600060e0888a03121561439757600080fd5b87516143a281613b3b565b60208901519097506143b381613c46565b95506143c16040890161436a565b94506143cf6060890161436a565b93506143dd6080890161436a565b925060a088015160ff811681146143f357600080fd5b60c08901519092506144048161419e565b8091505092959891949750929550565b634e487b7160e01b600052601160045260246000fd5b60008160020b8360020b6000811281627fffff190183128115161561445157614451614414565b81627fffff01831381161561446857614468614414565b5090039392505050565b60008160020b627fffff1981141561448c5761448c614414565b60000392915050565b805162ffffff811681146142cc57600080fd5b80516001600160801b03811681146142cc57600080fd5b6000806000806000806000806000806000806101808d8f0312156144e257600080fd5b8c516bffffffffffffffffffffffff811681146144fe57600080fd5b9b5061450c60208e016142c1565b9a5061451a60408e016142c1565b995061452860608e016142c1565b985061453660808e01614495565b975061454460a08e0161435f565b965061455260c08e0161435f565b955061456060e08e016144a8565b94506101008d015193506101208d0151925061457f6101408e016144a8565b915061458e6101608e016144a8565b90509295989b509295989b509295989b565b6000828210156145b2576145b2614414565b500390565b600082601f8301126145c857600080fd5b815160206145d8613c9983613c55565b82815260059290921b840181019181810190868411156145f757600080fd5b8286015b84811015613cd857805183529183019183016145fb565b6000806040838503121561462557600080fd5b82516001600160401b038082111561463c57600080fd5b614648868387016145b7565b9350602085015191508082111561465e57600080fd5b5061466b858286016145b7565b9150509250929050565b6000821982111561468857614688614414565b500190565b6001600160a01b03841681526001600160e01b0319831660208201526060604082018190526000906112879083018461406e565b6000602082840312156146d357600080fd5b81516001600160401b03808211156146ea57600080fd5b818401915084601f8301126146fe57600080fd5b81518181111561471057614710613bb6565b614723601f8201601f1916602001613c16565b915080825285602082850101111561473a57600080fd5b61474b816020840160208601614042565b50949350505050565b600060001982141561476857614768614414565b5060010190565b60006020828403121561478157600080fd5b8151611a8c81613b3b565b6020808252825182820181905260009190848201906040850190845b818110156147ca57835163ffffffff16835292840192918401916001016147a8565b50909695505050505050565b600082601f8301126147e757600080fd5b815160206147f7613c9983613c55565b82815260059290921b8401810191818101908684111561481657600080fd5b8286015b84811015613cd857805161482d81613b3b565b835291830191830161481a565b6000806040838503121561484d57600080fd5b82516001600160401b038082111561486457600080fd5b818501915085601f83011261487857600080fd5b81516020614888613c9983613c55565b82815260059290921b840181019181810190898411156148a757600080fd5b948201945b838610156148d55785518060060b81146148c65760008081fd5b825294820194908201906148ac565b918801519196509093505050808211156148ee57600080fd5b5061466b858286016147d6565b60008160060b8360060b6000811281667fffffffffffff190183128115161561492657614926614414565b81667fffffffffffff01831381161561446857614468614414565b60006001600160a01b038381169083168181101561496157614961614414565b039392505050565b634e487b7160e01b600052601260045260246000fd5b60008160060b8360060b8061499657614996614969565b667fffffffffffff198214600019821416156149b4576149b4614414565b90059392505050565b60008260060b806149d0576149d0614969565b808360060b0791505092915050565b60008160020b627fffff198114156149f9576149f9614414565b6000190192915050565b60006001600160c01b0382811684821681151582840482111615614a2957614a29614414565b02949350505050565b60006001600160c01b0383811680614a4c57614a4c614969565b92169190910492915050565b600060208284031215614a6a57600080fd5b5051919050565b600060208284031215614a8357600080fd5b81516001600160401b03811115614a9957600080fd5b6133d0848285016145b7565b6001600160a01b0384811682526080602080840182905285519184018290526000928682019290919060a0860190855b81811015614af3578551851683529483019491830191600101614ad5565b50508581036040870152614b078188614217565b86810360609097019690965250600085529093019695505050505050565b600060208284031215614b3757600080fd5b611a8c82614495565b81516001600160a01b0316815261016081016020830151614b6c60208401826001600160a01b03169052565b506040830151614b83604084018262ffffff169052565b506060830151614b98606084018260020b9052565b506080830151614bad608084018260020b9052565b5060a083015160a083015260c083015160c083015260e083015160e083015261010080840151818401525061012080840151614bf3828501826001600160a01b03169052565b505061014092830151919092015290565b60008060008060808587031215614c1a57600080fd5b84519350614c2a602086016144a8565b6040860151606090960151949790965092505050565b60008085851115614c5057600080fd5b83861115614c5d57600080fd5b5050820193919092039150565b6001600160e01b03198135818116916004851015614c925780818660040360031b1b83161692505b505092915050565b6001600160a01b03851681526001600160e01b0319841660208201526060604082018190528101829052818360808301376000818301608090810191909152601f909201601f191601019392505050565b6000600160ff1b821415614d0157614d01614414565b5060000390565b6000816000190483118215151615614d2257614d22614414565b500290565b600082614d3657614d36614969565b500490565b600082614d4a57614d4a614969565b500690565b7f416363657373436f6e74726f6c3a206163636f756e7420000000000000000000815260008351614d87816017850160208801614042565b7001034b99036b4b9b9b4b733903937b6329607d1b6017918401918201528351614db8816028840160208801614042565b01602801949350505050565b600060208284031215614dd657600080fd5b8151611a8c8161419e565b600081614df057614df0614414565b506000190190565b634e487b7160e01b600052603160045260246000fd5b60008251614e20818460208701614042565b919091019291505056fec171260023d22a25a00a2789664c9334017843b831138c8ef03cc8897e5873d7f23ec0bb4210edd5cba85afd05127efcd2fc6a781bfed49188da1081670b22d846a52cf33029de9f84853745a87af28464c80bf0346df1b32e205fc73319f622a26469706673582212204392e30c43e64bb9e0f3f8c13b9ee7af42de502c87d7ffe3ccfdeaa38e5aa01f64736f6c63430008090033",
    "linkReferences": {}
  },
  "methodIdentifiers": {
    "ADMIN_DELEGATE_ROLE()": "0952ff54",
    "ADMIN_ROLE()": "75b238fc",
    "D6()": "a11bac74",
    "D9()": "551530ae",
    "DEFAULT_ADMIN_ROLE()": "a217fddf",
    "OPERATOR()": "983d2737",
    "Q96()": "40792465",
    "calculateAmountsForSwap((address,address,address,address[]),(int24,int24,uint32,uint256,uint256,uint256[]),uint256,uint256)": "5a9edefb",
    "calculateTargetRatioOfToken1((int24,int24),uint160,uint256)": "9bb37ba8",
    "checkImmutableParams((address,address,address,address[]))": "475cffef",
    "checkMutableParams((int24,int24,uint32,uint256,uint256,uint256[]))": "40a78e73",
    "checkTickDeviation((int24,int24,uint32,uint256,uint256,uint256[]),address)": "4ef78a52",
    "compareIntervals((int24,int24),uint256)": "51c5d0c0",
    "contractName()": "75d0c0dc",
    "contractNameBytes()": "0e3e80ac",
    "contractVersion()": "a0a8e460",
    "contractVersionBytes()": "06a46239",
    "depositCallback()": "e521826f",
    "desiredAmounts()": "d3277e86",
    "forceRebalanceWidthFlag()": "1e63f062",
    "getRoleAdmin(bytes32)": "248a9ca3",
    "getRoleMember(bytes32,uint256)": "9010d07c",
    "getRoleMemberCount(bytes32)": "ca15c873",
    "grantRole(bytes32,address)": "2f2ff15d",
    "hasRole(bytes32,address)": "91d14854",
    "immutableParams()": "c8014d53",
    "init(address)": "19ab453c",
    "initialize((address,address,address,address[]),address)": "6ff0b358",
    "initialized()": "158ef93e",
    "isAdmin(address)": "24d7806c",
    "isOperator(address)": "6d70f7ae",
    "mutableParams()": "5f408a21",
    "positionManager()": "791b98bc",
    "rebalance(uint256,(int24,int24),bytes,uint256)": "89eddfea",
    "renounceRole(bytes32,address)": "36568abe",
    "revokeRole(bytes32,address)": "d547741f",
    "setForceRebalanceFlag(bool)": "a8470bcc",
    "supportsInterface(bytes4)": "01ffc9a7",
    "updateDesiredAmounts((uint256,uint256))": "ace4d0fd",
    "updateMutableParams((int24,int24,uint32,uint256,uint256,uint256[]))": "32f893a7",
    "withdrawCallback()": "b4559f3e"
  },
  "id": 387
}