{
  "abi": [
    {
      "inputs": [
        {
          "internalType": "address",
          "name": "_governance",
          "type": "address"
        }
      ],
      "stateMutability": "nonpayable",
      "type": "constructor"
    },
    {
      "anonymous": false,
      "inputs": [
        {
          "indexed": true,
          "internalType": "address",
          "name": "origin",
          "type": "address"
        },
        {
          "indexed": true,
          "internalType": "address",
          "name": "sender",
          "type": "address"
        },
        {
          "indexed": true,
          "internalType": "bytes32",
          "name": "name",
          "type": "bytes32"
        },
        {
          "indexed": false,
          "internalType": "bytes32",
          "name": "version",
          "type": "bytes32"
        },
        {
          "indexed": false,
          "internalType": "address",
          "name": "target",
          "type": "address"
        }
      ],
      "name": "ContractRegistered",
      "type": "event"
    },
    {
      "inputs": [],
      "name": "addresses",
      "outputs": [
        {
          "internalType": "address[]",
          "name": "",
          "type": "address[]"
        }
      ],
      "stateMutability": "view",
      "type": "function"
    },
    {
      "inputs": [],
      "name": "contractName",
      "outputs": [
        {
          "internalType": "string",
          "name": "",
          "type": "string"
        }
      ],
      "stateMutability": "pure",
      "type": "function"
    },
    {
      "inputs": [],
      "name": "contractNameBytes",
      "outputs": [
        {
          "internalType": "bytes32",
          "name": "",
          "type": "bytes32"
        }
      ],
      "stateMutability": "pure",
      "type": "function"
    },
    {
      "inputs": [],
      "name": "contractVersion",
      "outputs": [
        {
          "internalType": "string",
          "name": "",
          "type": "string"
        }
      ],
      "stateMutability": "pure",
      "type": "function"
    },
    {
      "inputs": [],
      "name": "contractVersionBytes",
      "outputs": [
        {
          "internalType": "bytes32",
          "name": "",
          "type": "bytes32"
        }
      ],
      "stateMutability": "pure",
      "type": "function"
    },
    {
      "inputs": [],
      "name": "governance",
      "outputs": [
        {
          "internalType": "contract IProtocolGovernance",
          "name": "",
          "type": "address"
        }
      ],
      "stateMutability": "view",
      "type": "function"
    },
    {
      "inputs": [
        {
          "internalType": "string",
          "name": "name_",
          "type": "string"
        }
      ],
      "name": "latestVersion",
      "outputs": [
        {
          "internalType": "string",
          "name": "",
          "type": "string"
        },
        {
          "internalType": "address",
          "name": "",
          "type": "address"
        }
      ],
      "stateMutability": "view",
      "type": "function"
    },
    {
      "inputs": [
        {
          "internalType": "bytes[]",
          "name": "data",
          "type": "bytes[]"
        }
      ],
      "name": "multicall",
      "outputs": [
        {
          "internalType": "bytes[]",
          "name": "results",
          "type": "bytes[]"
        }
      ],
      "stateMutability": "nonpayable",
      "type": "function"
    },
    {
      "inputs": [],
      "name": "names",
      "outputs": [
        {
          "internalType": "string[]",
          "name": "result",
          "type": "string[]"
        }
      ],
      "stateMutability": "view",
      "type": "function"
    },
    {
      "inputs": [
        {
          "internalType": "address",
          "name": "target",
          "type": "address"
        }
      ],
      "name": "registerContract",
      "outputs": [],
      "stateMutability": "nonpayable",
      "type": "function"
    },
    {
      "inputs": [
        {
          "internalType": "string",
          "name": "name_",
          "type": "string"
        },
        {
          "internalType": "string",
          "name": "version",
          "type": "string"
        }
      ],
      "name": "versionAddress",
      "outputs": [
        {
          "internalType": "address",
          "name": "",
          "type": "address"
        }
      ],
      "stateMutability": "view",
      "type": "function"
    },
    {
      "inputs": [
        {
          "internalType": "string",
          "name": "name_",
          "type": "string"
        }
      ],
      "name": "versions",
      "outputs": [
        {
          "internalType": "string[]",
          "name": "result",
          "type": "string[]"
        }
      ],
      "stateMutability": "view",
      "type": "function"
    }
  ],
  "bytecode": {
    "object": "0x608060405234801561001057600080fd5b5060405161189138038061189183398101604081905261002f91610054565b600080546001600160a01b0319166001600160a01b0392909216919091179055610084565b60006020828403121561006657600080fd5b81516001600160a01b038116811461007d57600080fd5b9392505050565b6117fe806100936000396000f3fe608060405234801561001057600080fd5b50600436106100b45760003560e01c80635107f348116100715780635107f348146101695780635aa6e6751461017c57806375d0c0dc1461018f578063a0a8e460146101a4578063ac9650d8146101ac578063da0321cd146101cc57600080fd5b8063056da048146100b957806306a46239146100d7578063070f8f5a146100ef5780630e3e80ac1461011057806322a5dde4146101295780634e3889961461013e575b600080fd5b6100c16101e1565b6040516100ce9190611216565b60405180910390f35b640312e302e360dc1b5b6040519081526020016100ce565b6101026100fd36600461133d565b610295565b6040516100ce929190611372565b6f436f6e7472616374526567697374727960801b6100e1565b61013c61013736600461139c565b610309565b005b61015161014c3660046113c5565b61065b565b6040516001600160a01b0390911681526020016100ce565b6100c161017736600461133d565b6106a2565b600054610151906001600160a01b031681565b6101976107c5565b6040516100ce9190611429565b6101976107e3565b6101bf6101ba36600461143c565b6107f6565b6040516100ce91906114b1565b6101d46108eb565b6040516100ce9190611506565b606060006101ef60056108f7565b90508067ffffffffffffffff81111561020a5761020a611278565b60405190808252806020026020018201604052801561023d57816020015b60608152602001906001900390816102285790505b50915060005b81811461028b5761025d610258600583610901565b610914565b83828151811061026f5761026f611553565b6020026020010181905250806102849061157f565b9050610243565b505090565b905090565b6060600080836040516020016102ab919061159a565b6040516020818303038152906040526102c3906115b6565b905060006102d082610980565b90506102db816109d6565b600092835260016020908152604080852093855292905291205490946001600160a01b039091169350915050565b610311610a80565b61031c600382610bb9565b6040518060400160405280600381526020016204455560ec1b8152509061035f5760405162461bcd60e51b81526004016103569190611429565b60405180910390fd5b5060008190506000816001600160a01b0316630e3e80ac6040518163ffffffff1660e01b815260040160206040518083038186803b1580156103a057600080fd5b505afa1580156103b4573d6000803e3d6000fd5b505050506040513d601f19601f820116820180604052508101906103d891906115dd565b90506103e381610bce565b6040518060400160405280600381526020016224a72b60e91b8152509061041d5760405162461bcd60e51b81526004016103569190611429565b506000826001600160a01b03166306a462396040518163ffffffff1660e01b815260040160206040518083038186803b15801561045957600080fd5b505afa15801561046d573d6000803e3d6000fd5b505050506040513d601f19601f8201168201806040525081019061049191906115dd565b90506000610512846001600160a01b031663a0a8e4606040518163ffffffff1660e01b815260040160006040518083038186803b1580156104d157600080fd5b505afa1580156104e5573d6000803e3d6000fd5b505050506040513d6000823e601f3d908101601f1916820160405261050d91908101906115f6565b610c89565b9050600061051f84610980565b905080821160405180604001604052806004815260200163494e564160e01b8152509061055f5760405162461bcd60e51b81526004016103569190611429565b50601082811c9082901c60016105758284611664565b111560405180604001604052806004815260200163494e564160e01b815250906105b25760405162461bcd60e51b81526004016103569190611429565b506000868152600160208181526040808420888552825280842080546001600160a01b0319166001600160a01b038e1617905589845260028252832080549283018155835290912001849055610609600587610df4565b50604080518681526001600160a01b038a1660208201528791339132917f7e8be5380240a9107eaeb7481a3915da9f146bbebc641a9367d620b78650ffa3910160405180910390a45050505050505050565b600080610667846115b6565b9050600061067484610c89565b6000928352600160209081526040808520928552919052909120546001600160a01b03169150505b92915050565b606060006106af836115b6565b60008181526002602090815260408083208054825181850281018501909352808352949550929390929183018282801561070857602002820191906000526020600020905b8154815260200190600101908083116106f4575b50505050509050805167ffffffffffffffff81111561072957610729611278565b60405190808252806020026020018201604052801561075c57816020015b60608152602001906001900390816107475790505b50925060005b81518110156107bd5761078d82828151811061078057610780611553565b60200260200101516109d6565b84828151811061079f5761079f611553565b602002602001018190525080806107b59061157f565b915050610762565b505050919050565b60606102906f436f6e7472616374526567697374727960801b610914565b6060610290640312e302e360dc1b610914565b60608167ffffffffffffffff81111561081157610811611278565b60405190808252806020026020018201604052801561084457816020015b606081526020019060019003908161082f5790505b50905060005b828110156108e4576108b43085858481811061086857610868611553565b905060200281019061087a919061167b565b8080601f016020809104026020016040519081016040528093929190818152602001838380828437600092019190915250610e0092505050565b8282815181106108c6576108c6611553565b602002602001018190525080806108dc9061157f565b91505061084a565b5092915050565b60606102906003610e25565b600061069c825490565b600061090d8383610e32565b9392505050565b604080516020808252818301909252606091602082018180368337019050509050602060005b60208110156109725783816020811061095557610955611553565b1a61096257809150610972565b61096b8161157f565b905061093a565b508152602081019190915290565b6000818152600260205260408120548061099b57600061090d565b60008381526002602052604090206109b4600183611664565b815481106109c4576109c4611553565b90600052602060002001549392505050565b606063010000008210610a005750506040805180820190915260018152600360fc1b602082015290565b6000610a0f601084901c610e5c565b90506000610a23600885901c60ff16610e5c565b90506000610a338560ff16610e5c565b9050828282604051602001610a4a939291906116c9565b60408051601f1981840301815290829052610a679160200161159a565b6040516020818303038152906040529350505050919050565b6000546040516336b87bd760e11b81523360048201526001600160a01b0390911690636d70f7ae9060240160206040518083038186803b158015610ac357600080fd5b505afa158015610ad7573d6000803e3d6000fd5b505050506040513d601f19601f82011682018060405250810190610afb9190611723565b80610b7c5750600054604051630935e01b60e21b81523360048201526001600160a01b03909116906324d7806c9060240160206040518083038186803b158015610b4457600080fd5b505afa158015610b58573d6000803e3d6000fd5b505050506040513d601f19601f82011682018060405250810190610b7c9190611723565b6040518060400160405280600381526020016223292160e91b81525090610bb65760405162461bcd60e51b81526004016103569190611429565b50565b600061090d836001600160a01b038416610ef9565b600080610bda83610914565b905060005b8151811015610c7f576000828281518110610bfc57610bfc611553565b016020015160f81c9050600060618210801590610c1d5750607a8260ff1611155b80610c3b57508160ff16604111158015610c3b5750605a8260ff1611155b80610c5957508160ff16603011158015610c59575060398260ff1611155b905080610c6c5750600095945050505050565b505080610c789061157f565b9050610bdf565b5060019392505050565b6000610c9361119c565b60008060005b855181108015610ca95750600383105b15610da6576000868281518110610cc257610cc2611553565b016020015160f81c9050602e811415610cfe5782610ce7575060009695505050505050565b610cf2600185611745565b93506000925050610d94565b603060ff82161080610d205750610d176030600961175d565b60ff168160ff16115b15610d32575060009695505050505050565b603060ff8216868660038110610d4a57610d4a611553565b6020020151610d5a90600a611782565b610d649190611745565b610d6e9190611664565b858560038110610d8057610d80611553565b6020020152610d90600184611745565b9250505b80610d9e8161157f565b915050610c99565b50816002141580610db5575080155b15610dc557506000949350505050565b604083015160208401518451610de19160081b9060101b611745565b610deb9190611745565b95945050505050565b600061090d8383610ef9565b606061090d83836040518060600160405280602781526020016117a260279139610f48565b6060600061090d83610fc0565b6000826000018281548110610e4957610e49611553565b9060005260206000200154905092915050565b60606000610e698361101c565b600101905060008167ffffffffffffffff811115610e8957610e89611278565b6040519080825280601f01601f191660200182016040528015610eb3576020820181803683370190505b5090508181016020015b600019016f181899199a1a9b1b9c1cb0b131b232b360811b600a86061a8153600a8504945084610eec57610ef1565b610ebd565b509392505050565b6000818152600183016020526040812054610f405750815460018181018455600084815260208082209093018490558454848252828601909352604090209190915561069c565b50600061069c565b6060600080856001600160a01b031685604051610f65919061159a565b600060405180830381855af49150503d8060008114610fa0576040519150601f19603f3d011682016040523d82523d6000602084013e610fa5565b606091505b5091509150610fb6868383876110f4565b9695505050505050565b60608160000180548060200260200160405190810160405280929190818152602001828054801561101057602002820191906000526020600020905b815481526020019060010190808311610ffc575b50505050509050919050565b60008072184f03e93ff9f4daa797ed6e38ed64bf6a1f0160401b831061105b5772184f03e93ff9f4daa797ed6e38ed64bf6a1f0160401b830492506040015b6d04ee2d6d415b85acef81000000008310611087576d04ee2d6d415b85acef8100000000830492506020015b662386f26fc1000083106110a557662386f26fc10000830492506010015b6305f5e10083106110bd576305f5e100830492506008015b61271083106110d157612710830492506004015b606483106110e3576064830492506002015b600a831061069c5760010192915050565b60608315611160578251611159576001600160a01b0385163b6111595760405162461bcd60e51b815260206004820152601d60248201527f416464726573733a2063616c6c20746f206e6f6e2d636f6e74726163740000006044820152606401610356565b508161116a565b61116a8383611172565b949350505050565b8151156111825781518083602001fd5b8060405162461bcd60e51b81526004016103569190611429565b60405180606001604052806003906020820280368337509192915050565b60005b838110156111d55781810151838201526020016111bd565b838111156111e4576000848401525b50505050565b600081518084526112028160208601602086016111ba565b601f01601f19169290920160200192915050565b6000602080830181845280855180835260408601915060408160051b870101925083870160005b8281101561126b57603f198886030184526112598583516111ea565b9450928501929085019060010161123d565b5092979650505050505050565b634e487b7160e01b600052604160045260246000fd5b604051601f8201601f1916810167ffffffffffffffff811182821017156112b7576112b7611278565b604052919050565b600067ffffffffffffffff8211156112d9576112d9611278565b50601f01601f191660200190565b600082601f8301126112f857600080fd5b813561130b611306826112bf565b61128e565b81815284602083860101111561132057600080fd5b816020850160208301376000918101602001919091529392505050565b60006020828403121561134f57600080fd5b813567ffffffffffffffff81111561136657600080fd5b61116a848285016112e7565b60408152600061138560408301856111ea565b905060018060a01b03831660208301529392505050565b6000602082840312156113ae57600080fd5b81356001600160a01b038116811461090d57600080fd5b600080604083850312156113d857600080fd5b823567ffffffffffffffff808211156113f057600080fd5b6113fc868387016112e7565b9350602085013591508082111561141257600080fd5b5061141f858286016112e7565b9150509250929050565b60208152600061090d60208301846111ea565b6000806020838503121561144f57600080fd5b823567ffffffffffffffff8082111561146757600080fd5b818501915085601f83011261147b57600080fd5b81358181111561148a57600080fd5b8660208260051b850101111561149f57600080fd5b60209290920196919550909350505050565b6000602080830181845280855180835260408601915060408160051b870101925083870160005b8281101561126b57603f198886030184526114f48583516111ea565b945092850192908501906001016114d8565b6020808252825182820181905260009190848201906040850190845b818110156115475783516001600160a01b031683529284019291840191600101611522565b50909695505050505050565b634e487b7160e01b600052603260045260246000fd5b634e487b7160e01b600052601160045260246000fd5b600060001982141561159357611593611569565b5060010190565b600082516115ac8184602087016111ba565b9190910192915050565b805160208083015191908110156115d7576000198160200360031b1b821691505b50919050565b6000602082840312156115ef57600080fd5b5051919050565b60006020828403121561160857600080fd5b815167ffffffffffffffff81111561161f57600080fd5b8201601f8101841361163057600080fd5b805161163e611306826112bf565b81815285602083850101111561165357600080fd5b610deb8260208301602086016111ba565b60008282101561167657611676611569565b500390565b6000808335601e1984360301811261169257600080fd5b83018035915067ffffffffffffffff8211156116ad57600080fd5b6020019150368190038213156116c257600080fd5b9250929050565b600084516116db8184602089016111ba565b8083019050601760f91b80825285516116fb816001850160208a016111ba565b600192019182015283516117168160028401602088016111ba565b0160020195945050505050565b60006020828403121561173557600080fd5b8151801515811461090d57600080fd5b6000821982111561175857611758611569565b500190565b600060ff821660ff84168060ff0382111561177a5761177a611569565b019392505050565b600081600019048311821515161561179c5761179c611569565b50029056fe416464726573733a206c6f772d6c6576656c2064656c65676174652063616c6c206661696c6564a2646970667358221220ab9cd91d41f21ae86af3a1737216609b381e05e876e32783f5d29a3d02985fd264736f6c63430008090033",
    "linkReferences": {}
  },
  "methodIdentifiers": {
    "addresses()": "da0321cd",
    "contractName()": "75d0c0dc",
    "contractNameBytes()": "0e3e80ac",
    "contractVersion()": "a0a8e460",
    "contractVersionBytes()": "06a46239",
    "governance()": "5aa6e675",
    "latestVersion(string)": "070f8f5a",
    "multicall(bytes[])": "ac9650d8",
    "names()": "056da048",
    "registerContract(address)": "22a5dde4",
    "versionAddress(string,string)": "4e388996",
    "versions(string)": "5107f348"
  },
  "id": 54
}