{
  "abi": [
    {
      "inputs": [
        {
          "internalType": "address",
          "name": "admin",
          "type": "address"
        }
      ],
      "stateMutability": "nonpayable",
      "type": "constructor"
    },
    {
      "anonymous": false,
      "inputs": [
        {
          "indexed": true,
          "internalType": "bytes32",
          "name": "role",
          "type": "bytes32"
        },
        {
          "indexed": true,
          "internalType": "bytes32",
          "name": "previousAdminRole",
          "type": "bytes32"
        },
        {
          "indexed": true,
          "internalType": "bytes32",
          "name": "newAdminRole",
          "type": "bytes32"
        }
      ],
      "name": "RoleAdminChanged",
      "type": "event"
    },
    {
      "anonymous": false,
      "inputs": [
        {
          "indexed": true,
          "internalType": "bytes32",
          "name": "role",
          "type": "bytes32"
        },
        {
          "indexed": true,
          "internalType": "address",
          "name": "account",
          "type": "address"
        },
        {
          "indexed": true,
          "internalType": "address",
          "name": "sender",
          "type": "address"
        }
      ],
      "name": "RoleGranted",
      "type": "event"
    },
    {
      "anonymous": false,
      "inputs": [
        {
          "indexed": true,
          "internalType": "bytes32",
          "name": "role",
          "type": "bytes32"
        },
        {
          "indexed": true,
          "internalType": "address",
          "name": "account",
          "type": "address"
        },
        {
          "indexed": true,
          "internalType": "address",
          "name": "sender",
          "type": "address"
        }
      ],
      "name": "RoleRevoked",
      "type": "event"
    },
    {
      "anonymous": false,
      "inputs": [
        {
          "indexed": true,
          "internalType": "address",
          "name": "origin",
          "type": "address"
        },
        {
          "indexed": true,
          "internalType": "address",
          "name": "sender",
          "type": "address"
        },
        {
          "indexed": false,
          "internalType": "address",
          "name": "token",
          "type": "address"
        },
        {
          "indexed": false,
          "internalType": "uint256",
          "name": "unitPrice",
          "type": "uint256"
        }
      ],
      "name": "UnitPriceCommitted",
      "type": "event"
    },
    {
      "anonymous": false,
      "inputs": [
        {
          "indexed": true,
          "internalType": "address",
          "name": "origin",
          "type": "address"
        },
        {
          "indexed": true,
          "internalType": "address",
          "name": "sender",
          "type": "address"
        },
        {
          "indexed": false,
          "internalType": "address",
          "name": "token",
          "type": "address"
        }
      ],
      "name": "UnitPriceRolledBack",
      "type": "event"
    },
    {
      "anonymous": false,
      "inputs": [
        {
          "indexed": true,
          "internalType": "address",
          "name": "origin",
          "type": "address"
        },
        {
          "indexed": true,
          "internalType": "address",
          "name": "sender",
          "type": "address"
        },
        {
          "indexed": false,
          "internalType": "address",
          "name": "token",
          "type": "address"
        },
        {
          "indexed": false,
          "internalType": "uint256",
          "name": "unitPrice",
          "type": "uint256"
        }
      ],
      "name": "UnitPriceStaged",
      "type": "event"
    },
    {
      "inputs": [],
      "name": "ADMIN_DELEGATE_ROLE",
      "outputs": [
        {
          "internalType": "bytes32",
          "name": "",
          "type": "bytes32"
        }
      ],
      "stateMutability": "view",
      "type": "function"
    },
    {
      "inputs": [],
      "name": "ADMIN_ROLE",
      "outputs": [
        {
          "internalType": "bytes32",
          "name": "",
          "type": "bytes32"
        }
      ],
      "stateMutability": "view",
      "type": "function"
    },
    {
      "inputs": [],
      "name": "DEFAULT_ADMIN_ROLE",
      "outputs": [
        {
          "internalType": "bytes32",
          "name": "",
          "type": "bytes32"
        }
      ],
      "stateMutability": "view",
      "type": "function"
    },
    {
      "inputs": [],
      "name": "DELAY",
      "outputs": [
        {
          "internalType": "uint256",
          "name": "",
          "type": "uint256"
        }
      ],
      "stateMutability": "view",
      "type": "function"
    },
    {
      "inputs": [],
      "name": "OPERATOR",
      "outputs": [
        {
          "internalType": "bytes32",
          "name": "",
          "type": "bytes32"
        }
      ],
      "stateMutability": "view",
      "type": "function"
    },
    {
      "inputs": [
        {
          "internalType": "address",
          "name": "token",
          "type": "address"
        }
      ],
      "name": "commitUnitPrice",
      "outputs": [],
      "stateMutability": "nonpayable",
      "type": "function"
    },
    {
      "inputs": [
        {
          "internalType": "bytes32",
          "name": "role",
          "type": "bytes32"
        }
      ],
      "name": "getRoleAdmin",
      "outputs": [
        {
          "internalType": "bytes32",
          "name": "",
          "type": "bytes32"
        }
      ],
      "stateMutability": "view",
      "type": "function"
    },
    {
      "inputs": [
        {
          "internalType": "bytes32",
          "name": "role",
          "type": "bytes32"
        },
        {
          "internalType": "uint256",
          "name": "index",
          "type": "uint256"
        }
      ],
      "name": "getRoleMember",
      "outputs": [
        {
          "internalType": "address",
          "name": "",
          "type": "address"
        }
      ],
      "stateMutability": "view",
      "type": "function"
    },
    {
      "inputs": [
        {
          "internalType": "bytes32",
          "name": "role",
          "type": "bytes32"
        }
      ],
      "name": "getRoleMemberCount",
      "outputs": [
        {
          "internalType": "uint256",
          "name": "",
          "type": "uint256"
        }
      ],
      "stateMutability": "view",
      "type": "function"
    },
    {
      "inputs": [
        {
          "internalType": "bytes32",
          "name": "role",
          "type": "bytes32"
        },
        {
          "internalType": "address",
          "name": "account",
          "type": "address"
        }
      ],
      "name": "grantRole",
      "outputs": [],
      "stateMutability": "nonpayable",
      "type": "function"
    },
    {
      "inputs": [
        {
          "internalType": "bytes32",
          "name": "role",
          "type": "bytes32"
        },
        {
          "internalType": "address",
          "name": "account",
          "type": "address"
        }
      ],
      "name": "hasRole",
      "outputs": [
        {
          "internalType": "bool",
          "name": "",
          "type": "bool"
        }
      ],
      "stateMutability": "view",
      "type": "function"
    },
    {
      "inputs": [
        {
          "internalType": "address",
          "name": "sender",
          "type": "address"
        }
      ],
      "name": "isAdmin",
      "outputs": [
        {
          "internalType": "bool",
          "name": "",
          "type": "bool"
        }
      ],
      "stateMutability": "view",
      "type": "function"
    },
    {
      "inputs": [
        {
          "internalType": "address",
          "name": "sender",
          "type": "address"
        }
      ],
      "name": "isOperator",
      "outputs": [
        {
          "internalType": "bool",
          "name": "",
          "type": "bool"
        }
      ],
      "stateMutability": "view",
      "type": "function"
    },
    {
      "inputs": [
        {
          "internalType": "bytes32",
          "name": "role",
          "type": "bytes32"
        },
        {
          "internalType": "address",
          "name": "account",
          "type": "address"
        }
      ],
      "name": "renounceRole",
      "outputs": [],
      "stateMutability": "nonpayable",
      "type": "function"
    },
    {
      "inputs": [
        {
          "internalType": "bytes32",
          "name": "role",
          "type": "bytes32"
        },
        {
          "internalType": "address",
          "name": "account",
          "type": "address"
        }
      ],
      "name": "revokeRole",
      "outputs": [],
      "stateMutability": "nonpayable",
      "type": "function"
    },
    {
      "inputs": [
        {
          "internalType": "address",
          "name": "token",
          "type": "address"
        }
      ],
      "name": "rollbackUnitPrice",
      "outputs": [],
      "stateMutability": "nonpayable",
      "type": "function"
    },
    {
      "inputs": [
        {
          "internalType": "address",
          "name": "token",
          "type": "address"
        },
        {
          "internalType": "uint256",
          "name": "value",
          "type": "uint256"
        }
      ],
      "name": "stageUnitPrice",
      "outputs": [],
      "stateMutability": "nonpayable",
      "type": "function"
    },
    {
      "inputs": [
        {
          "internalType": "address",
          "name": "",
          "type": "address"
        }
      ],
      "name": "stagedUnitPrices",
      "outputs": [
        {
          "internalType": "uint256",
          "name": "",
          "type": "uint256"
        }
      ],
      "stateMutability": "view",
      "type": "function"
    },
    {
      "inputs": [
        {
          "internalType": "address",
          "name": "",
          "type": "address"
        }
      ],
      "name": "stagedUnitPricesTimestamps",
      "outputs": [
        {
          "internalType": "uint256",
          "name": "",
          "type": "uint256"
        }
      ],
      "stateMutability": "view",
      "type": "function"
    },
    {
      "inputs": [
        {
          "internalType": "bytes4",
          "name": "interfaceId",
          "type": "bytes4"
        }
      ],
      "name": "supportsInterface",
      "outputs": [
        {
          "internalType": "bool",
          "name": "",
          "type": "bool"
        }
      ],
      "stateMutability": "view",
      "type": "function"
    },
    {
      "inputs": [
        {
          "internalType": "address",
          "name": "",
          "type": "address"
        }
      ],
      "name": "unitPrices",
      "outputs": [
        {
          "internalType": "uint256",
          "name": "",
          "type": "uint256"
        }
      ],
      "stateMutability": "view",
      "type": "function"
    }
  ],
  "bytecode": {
    "object": "0x60806040523480156200001157600080fd5b50604051620013cf380380620013cf833981016040819052620000349162000302565b60408051808201909152600281526120ad60f11b602082015281906001600160a01b038216620000825760405162461bcd60e51b815260040162000079919062000334565b60405180910390fd5b506200009e600080516020620013af8339815191528262000152565b620000b96000805160206200138f8339815191528262000152565b620000d46000805160206200138f8339815191528062000162565b6200010f7fc171260023d22a25a00a2789664c9334017843b831138c8ef03cc8897e5873d76000805160206200138f83398151915262000162565b6200014a600080516020620013af8339815191527fc171260023d22a25a00a2789664c9334017843b831138c8ef03cc8897e5873d762000162565b50506200038c565b6200015e8282620001ad565b5050565b600082815260208190526040808220600101805490849055905190918391839186917fbd79b86ffe0ab8e8776151514217cd7cacd52c909f66475c3af44e129f0b00ff9190a4505050565b620001c48282620001f060201b620007ac1760201c565b6000828152600160209081526040909120620001eb9183906200083062000290821b17901c565b505050565b6000828152602081815260408083206001600160a01b038516845290915290205460ff166200015e576000828152602081815260408083206001600160a01b03851684529091529020805460ff191660011790556200024c3390565b6001600160a01b0316816001600160a01b0316837f2f8788117e7eff1d82e926ec794901d17c78024a50270940304540a733656f0d60405160405180910390a45050565b6000620002a7836001600160a01b038416620002b0565b90505b92915050565b6000818152600183016020526040812054620002f957508154600181810184556000848152602080822090930184905584548482528286019093526040902091909155620002aa565b506000620002aa565b6000602082840312156200031557600080fd5b81516001600160a01b03811681146200032d57600080fd5b9392505050565b600060208083528351808285015260005b81811015620003635785810183015185820160400152820162000345565b8181111562000376576000604083870101525b50601f01601f1916929092016040019392505050565b610ff3806200039c6000396000f3fe608060405234801561001057600080fd5b50600436106101375760003560e01c80636d70f7ae116100b857806391d148541161007c57806391d14854146102df578063983d2737146102f2578063a217fddf14610319578063ae24e14a14610321578063ca15c87314610341578063d547741f1461035457600080fd5b80636d70f7ae1461024757806373680db41461025a57806375b238fc1461026d578063768a1bfc146102945780639010d07c146102b457600080fd5b80632f2ff15d116100ff5780632f2ff15d146101ef57806336568abe146102045780633837a1a31461021757806356f46d721461022a57806369b411701461023d57600080fd5b806301ffc9a71461013c5780630952ff541461016457806312c2d87414610199578063248a9ca3146101b957806324d7806c146101dc575b600080fd5b61014f61014a366004610d36565b610367565b60405190151581526020015b60405180910390f35b61018b7fc171260023d22a25a00a2789664c9334017843b831138c8ef03cc8897e5873d781565b60405190815260200161015b565b61018b6101a7366004610d7c565b60046020526000908152604090205481565b61018b6101c7366004610d97565b60009081526020819052604090206001015490565b61014f6101ea366004610d7c565b610392565b6102026101fd366004610db0565b6103ee565b005b610202610212366004610db0565b610418565b610202610225366004610d7c565b61049b565b610202610238366004610ddc565b6105ae565b61018b6212750081565b61014f610255366004610d7c565b610694565b610202610268366004610d7c565b6106c0565b61018b7ff23ec0bb4210edd5cba85afd05127efcd2fc6a781bfed49188da1081670b22d881565b61018b6102a2366004610d7c565b60026020526000908152604090205481565b6102c76102c2366004610e06565b610728565b6040516001600160a01b03909116815260200161015b565b61014f6102ed366004610db0565b610747565b61018b7f46a52cf33029de9f84853745a87af28464c80bf0346df1b32e205fc73319f62281565b61018b600081565b61018b61032f366004610d7c565b60036020526000908152604090205481565b61018b61034f366004610d97565b610770565b610202610362366004610db0565b610787565b60006001600160e01b0319821663d7c7e3a760e01b148061038c575061038c82610845565b92915050565b60006103be7ff23ec0bb4210edd5cba85afd05127efcd2fc6a781bfed49188da1081670b22d883610747565b8061038c575061038c7fc171260023d22a25a00a2789664c9334017843b831138c8ef03cc8897e5873d783610747565b6000828152602081905260409020600101546104098161086a565b6104138383610877565b505050565b6001600160a01b038116331461048d5760405162461bcd60e51b815260206004820152602f60248201527f416363657373436f6e74726f6c3a2063616e206f6e6c792072656e6f756e636560448201526e103937b632b9903337b91039b2b63360891b60648201526084015b60405180910390fd5b6104978282610899565b5050565b6104a36108bb565b6001600160a01b038116600090815260046020908152604091829020548251808401909352600583526412539594d560da1b9183019190915290816104fb5760405162461bcd60e51b81526004016104849190610e58565b50604080518082019091526002815261545360f01b6020820152428211156105365760405162461bcd60e51b81526004016104849190610e58565b506001600160a01b038216600081815260036020908152604080832080546002845282852081905590849055600483528184209390935580519384529083018290529091339132917f99745c5bf4e5d496dd70013ac2b6bae4262c471986c2b157141d8c4d570bc039910160405180910390a3505050565b60408051808201909152600281526120ad60f11b60208201526001600160a01b0383166105ee5760405162461bcd60e51b81526004016104849190610e58565b506105f76108bb565b6001600160a01b03821660009081526003602090815260408083208490556002909152902054156106345761062f6212750042610ea1565b610636565b425b6001600160a01b038316600081815260046020908152604091829020939093558051918252918101839052339132917fc8a6c4dcd4038ea437d00baa434c23066bf4cc6cd661a55bcb754f58d670b6e5910160405180910390a35050565b600061038c7f46a52cf33029de9f84853745a87af28464c80bf0346df1b32e205fc73319f62283610747565b6106c86108bb565b6001600160a01b038116600081815260036020908152604080832083905560048252808320929092559051918252339132917fe157c01d7fdfb7981107455af06f96f3d8a289a8925529bb12d8a3706f2f9238910160405180910390a350565b600082815260016020526040812061074090836108fe565b9392505050565b6000918252602082815260408084206001600160a01b0393909316845291905290205460ff1690565b600081815260016020526040812061038c9061090a565b6000828152602081905260409020600101546107a28161086a565b6104138383610899565b6107b68282610747565b610497576000828152602081815260408083206001600160a01b03851684529091529020805460ff191660011790556107ec3390565b6001600160a01b0316816001600160a01b0316837f2f8788117e7eff1d82e926ec794901d17c78024a50270940304540a733656f0d60405160405180910390a45050565b6000610740836001600160a01b038416610914565b60006001600160e01b03198216635a05180f60e01b148061038c575061038c82610963565b6108748133610998565b50565b61088182826107ac565b60008281526001602052604090206104139082610830565b6108a382826109f1565b60008281526001602052604090206104139082610a56565b6108c433610392565b6040518060400160405280600381526020016223292160e91b815250906108745760405162461bcd60e51b81526004016104849190610e58565b60006107408383610a6b565b600061038c825490565b600081815260018301602052604081205461095b5750815460018181018455600084815260208082209093018490558454848252828601909352604090209190915561038c565b50600061038c565b60006001600160e01b03198216637965db0b60e01b148061038c57506301ffc9a760e01b6001600160e01b031983161461038c565b6109a28282610747565b610497576109af81610a95565b6109ba836020610aa7565b6040516020016109cb929190610eb9565b60408051601f198184030181529082905262461bcd60e51b825261048491600401610e58565b6109fb8282610747565b15610497576000828152602081815260408083206001600160a01b0385168085529252808320805460ff1916905551339285917ff6391f5c32d9c69d2a47ea670b442974b53935d1edc7fd64eb21e047a839171b9190a45050565b6000610740836001600160a01b038416610c43565b6000826000018281548110610a8257610a82610f2e565b9060005260206000200154905092915050565b606061038c6001600160a01b03831660145b60606000610ab6836002610f44565b610ac1906002610ea1565b67ffffffffffffffff811115610ad957610ad9610f63565b6040519080825280601f01601f191660200182016040528015610b03576020820181803683370190505b509050600360fc1b81600081518110610b1e57610b1e610f2e565b60200101906001600160f81b031916908160001a905350600f60fb1b81600181518110610b4d57610b4d610f2e565b60200101906001600160f81b031916908160001a9053506000610b71846002610f44565b610b7c906001610ea1565b90505b6001811115610bf4576f181899199a1a9b1b9c1cb0b131b232b360811b85600f1660108110610bb057610bb0610f2e565b1a60f81b828281518110610bc657610bc6610f2e565b60200101906001600160f81b031916908160001a90535060049490941c93610bed81610f79565b9050610b7f565b5083156107405760405162461bcd60e51b815260206004820181905260248201527f537472696e67733a20686578206c656e67746820696e73756666696369656e746044820152606401610484565b60008181526001830160205260408120548015610d2c576000610c67600183610f90565b8554909150600090610c7b90600190610f90565b9050818114610ce0576000866000018281548110610c9b57610c9b610f2e565b9060005260206000200154905080876000018481548110610cbe57610cbe610f2e565b6000918252602080832090910192909255918252600188019052604090208390555b8554869080610cf157610cf1610fa7565b60019003818190600052602060002001600090559055856001016000868152602001908152602001600020600090556001935050505061038c565b600091505061038c565b600060208284031215610d4857600080fd5b81356001600160e01b03198116811461074057600080fd5b80356001600160a01b0381168114610d7757600080fd5b919050565b600060208284031215610d8e57600080fd5b61074082610d60565b600060208284031215610da957600080fd5b5035919050565b60008060408385031215610dc357600080fd5b82359150610dd360208401610d60565b90509250929050565b60008060408385031215610def57600080fd5b610df883610d60565b946020939093013593505050565b60008060408385031215610e1957600080fd5b50508035926020909101359150565b60005b83811015610e43578181015183820152602001610e2b565b83811115610e52576000848401525b50505050565b6020815260008251806020840152610e77816040850160208701610e28565b601f01601f19169190910160400192915050565b634e487b7160e01b600052601160045260246000fd5b60008219821115610eb457610eb4610e8b565b500190565b7f416363657373436f6e74726f6c3a206163636f756e7420000000000000000000815260008351610ef1816017850160208801610e28565b7001034b99036b4b9b9b4b733903937b6329607d1b6017918401918201528351610f22816028840160208801610e28565b01602801949350505050565b634e487b7160e01b600052603260045260246000fd5b6000816000190483118215151615610f5e57610f5e610e8b565b500290565b634e487b7160e01b600052604160045260246000fd5b600081610f8857610f88610e8b565b506000190190565b600082821015610fa257610fa2610e8b565b500390565b634e487b7160e01b600052603160045260246000fdfea26469706673582212203f391590ff36c670c53eae494666a1ee5508d152685ad29c157ed043d46c0cce64736f6c63430008090033f23ec0bb4210edd5cba85afd05127efcd2fc6a781bfed49188da1081670b22d846a52cf33029de9f84853745a87af28464c80bf0346df1b32e205fc73319f622",
    "linkReferences": {}
  },
  "methodIdentifiers": {
    "ADMIN_DELEGATE_ROLE()": "0952ff54",
    "ADMIN_ROLE()": "75b238fc",
    "DEFAULT_ADMIN_ROLE()": "a217fddf",
    "DELAY()": "69b41170",
    "OPERATOR()": "983d2737",
    "commitUnitPrice(address)": "3837a1a3",
    "getRoleAdmin(bytes32)": "248a9ca3",
    "getRoleMember(bytes32,uint256)": "9010d07c",
    "getRoleMemberCount(bytes32)": "ca15c873",
    "grantRole(bytes32,address)": "2f2ff15d",
    "hasRole(bytes32,address)": "91d14854",
    "isAdmin(address)": "24d7806c",
    "isOperator(address)": "6d70f7ae",
    "renounceRole(bytes32,address)": "36568abe",
    "revokeRole(bytes32,address)": "d547741f",
    "rollbackUnitPrice(address)": "73680db4",
    "stageUnitPrice(address,uint256)": "56f46d72",
    "stagedUnitPrices(address)": "ae24e14a",
    "stagedUnitPricesTimestamps(address)": "12c2d874",
    "supportsInterface(bytes4)": "01ffc9a7",
    "unitPrices(address)": "768a1bfc"
  },
  "id": 30
}