{
  "abi": [
    {
      "inputs": [
        {
          "internalType": "contract IProtocolGovernance",
          "name": "protocolGovernance",
          "type": "address"
        }
      ],
      "stateMutability": "nonpayable",
      "type": "constructor"
    },
    {
      "anonymous": false,
      "inputs": [
        {
          "indexed": true,
          "internalType": "address",
          "name": "origin",
          "type": "address"
        },
        {
          "indexed": true,
          "internalType": "address",
          "name": "sender",
          "type": "address"
        },
        {
          "components": [
            {
              "internalType": "contract IProtocolGovernance",
              "name": "protocolGovernance",
              "type": "address"
            }
          ],
          "indexed": false,
          "internalType": "struct IBaseValidator.ValidatorParams",
          "name": "params",
          "type": "tuple"
        }
      ],
      "name": "CommittedValidatorParams",
      "type": "event"
    },
    {
      "anonymous": false,
      "inputs": [
        {
          "indexed": true,
          "internalType": "address",
          "name": "origin",
          "type": "address"
        },
        {
          "indexed": true,
          "internalType": "address",
          "name": "sender",
          "type": "address"
        },
        {
          "components": [
            {
              "internalType": "contract IProtocolGovernance",
              "name": "protocolGovernance",
              "type": "address"
            }
          ],
          "indexed": false,
          "internalType": "struct IBaseValidator.ValidatorParams",
          "name": "newParams",
          "type": "tuple"
        },
        {
          "indexed": false,
          "internalType": "uint256",
          "name": "when",
          "type": "uint256"
        }
      ],
      "name": "StagedValidatorParams",
      "type": "event"
    },
    {
      "inputs": [],
      "name": "commitValidatorParams",
      "outputs": [],
      "stateMutability": "nonpayable",
      "type": "function"
    },
    {
      "inputs": [
        {
          "components": [
            {
              "internalType": "contract IProtocolGovernance",
              "name": "protocolGovernance",
              "type": "address"
            }
          ],
          "internalType": "struct IBaseValidator.ValidatorParams",
          "name": "newParams",
          "type": "tuple"
        }
      ],
      "name": "stageValidatorParams",
      "outputs": [],
      "stateMutability": "nonpayable",
      "type": "function"
    },
    {
      "inputs": [],
      "name": "stagedValidatorParams",
      "outputs": [
        {
          "components": [
            {
              "internalType": "contract IProtocolGovernance",
              "name": "protocolGovernance",
              "type": "address"
            }
          ],
          "internalType": "struct IBaseValidator.ValidatorParams",
          "name": "",
          "type": "tuple"
        }
      ],
      "stateMutability": "view",
      "type": "function"
    },
    {
      "inputs": [],
      "name": "stagedValidatorParamsTimestamp",
      "outputs": [
        {
          "internalType": "uint256",
          "name": "",
          "type": "uint256"
        }
      ],
      "stateMutability": "view",
      "type": "function"
    },
    {
      "inputs": [],
      "name": "validatorParams",
      "outputs": [
        {
          "components": [
            {
              "internalType": "contract IProtocolGovernance",
              "name": "protocolGovernance",
              "type": "address"
            }
          ],
          "internalType": "struct IBaseValidator.ValidatorParams",
          "name": "",
          "type": "tuple"
        }
      ],
      "stateMutability": "view",
      "type": "function"
    }
  ],
  "bytecode": {
    "object": "0x608060405234801561001057600080fd5b5060405161063b38038061063b83398101604081905261002f91610061565b60408051602081019091526001600160a01b0390911690819052600080546001600160a01b0319169091179055610091565b60006020828403121561007357600080fd5b81516001600160a01b038116811461008a57600080fd5b9392505050565b61059b806100a06000396000f3fe608060405234801561001057600080fd5b50600436106100575760003560e01c80630768b4961461005c57806347c0a4ed146100725780634c39da1b1461008757806357acc302146100c6578063e6ab042c146100f0575b600080fd5b6002546040519081526020015b60405180910390f35b610085610080366004610427565b6100f8565b005b6040805160208082018352600090915281519081019091526001546001600160a01b031681525b60405190516001600160a01b03168152602001610069565b60408051602080820183526000918290528251908101909252546001600160a01b031681526100ae565b61008561028a565b600054604051630935e01b60e21b81523360048201526001600160a01b039091169081906324d7806c9060240160206040518083038186803b15801561013d57600080fd5b505afa158015610151573d6000803e3d6000fd5b505050506040513d601f19601f82011682018060405250810190610175919061043f565b6040518060400160405280600381526020016223292160e91b815250906101b85760405162461bcd60e51b81526004016101af9190610468565b60405180910390fd5b508160016101c682826104d5565b905050806001600160a01b031663bba329396040518163ffffffff1660e01b815260040160206040518083038186803b15801561020257600080fd5b505afa158015610216573d6000803e3d6000fd5b505050506040513d601f19601f8201168201806040525081019061023a91906104fe565b6102449042610517565b6002819055604051339132917f660ad6a797f71286627569396d4046567822701c6afd27f47d280dee5e2ce1819161027e9187919061053d565b60405180910390a35050565b60025460408051808201909152600581526412539594d560da1b6020820152906102c75760405162461bcd60e51b81526004016101af9190610468565b50600054604051630935e01b60e21b81523360048201526001600160a01b039091169081906324d7806c9060240160206040518083038186803b15801561030d57600080fd5b505afa158015610321573d6000803e3d6000fd5b505050506040513d601f19601f82011682018060405250810190610345919061043f565b6040518060400160405280600381526020016223292160e91b8152509061037f5760405162461bcd60e51b81526004016101af9190610468565b5060025442101560405180604001604052806002815260200161545360f01b815250906103bf5760405162461bcd60e51b81526004016101af9190610468565b5060018054600080546001600160a01b0383166001600160a01b0319918216811783559216909255600291909155604051908152339032907f15f858bb04b5aa79f0fafddd94b014ab8bf8ceae94724b7074c7b4940be688b49060200160405180910390a350565b60006020828403121561043957600080fd5b50919050565b60006020828403121561045157600080fd5b8151801515811461046157600080fd5b9392505050565b600060208083528351808285015260005b8181101561049557858101830151858201604001528201610479565b818111156104a7576000604083870101525b50601f01601f1916929092016040019392505050565b6001600160a01b03811681146104d257600080fd5b50565b81356104e0816104bd565b81546001600160a01b0319166001600160a01b039190911617905550565b60006020828403121561051057600080fd5b5051919050565b6000821982111561053857634e487b7160e01b600052601160045260246000fd5b500190565b60408101833561054c816104bd565b6001600160a01b0316825260209091019190915291905056fea26469706673582212209e338b0e130fb3df9982a0afc7567142b67327e3a791f25e6ce629b34bda60a264736f6c63430008090033",
    "linkReferences": {}
  },
  "methodIdentifiers": {
    "commitValidatorParams()": "e6ab042c",
    "stageValidatorParams((address))": "47c0a4ed",
    "stagedValidatorParams()": "4c39da1b",
    "stagedValidatorParamsTimestamp()": "0768b496",
    "validatorParams()": "57acc302"
  },
  "id": 437
}