{
  "abi": [
    {
      "inputs": [],
      "name": "Q96",
      "outputs": [
        {
          "internalType": "uint256",
          "name": "",
          "type": "uint256"
        }
      ],
      "stateMutability": "view",
      "type": "function"
    },
    {
      "inputs": [
        {
          "internalType": "contract BasePulseStrategy",
          "name": "strategy",
          "type": "address"
        },
        {
          "components": [
            {
              "internalType": "int24",
              "name": "lowerTick",
              "type": "int24"
            },
            {
              "internalType": "int24",
              "name": "upperTick",
              "type": "int24"
            }
          ],
          "internalType": "struct BasePulseStrategy.Interval",
          "name": "interval",
          "type": "tuple"
        }
      ],
      "name": "calculateAmountForSwap",
      "outputs": [
        {
          "internalType": "uint256",
          "name": "amountIn",
          "type": "uint256"
        },
        {
          "internalType": "address",
          "name": "from",
          "type": "address"
        },
        {
          "internalType": "address",
          "name": "to",
          "type": "address"
        },
        {
          "internalType": "contract IERC20Vault",
          "name": "erc20Vault",
          "type": "address"
        }
      ],
      "stateMutability": "view",
      "type": "function"
    },
    {
      "inputs": [
        {
          "internalType": "contract BasePulseStrategy",
          "name": "strategy",
          "type": "address"
        }
      ],
      "name": "getStrategyParams",
      "outputs": [
        {
          "components": [
            {
              "internalType": "contract IERC20Vault",
              "name": "erc20Vault",
              "type": "address"
            },
            {
              "internalType": "contract IUniV3Vault",
              "name": "uniV3Vault",
              "type": "address"
            },
            {
              "internalType": "address",
              "name": "router",
              "type": "address"
            },
            {
              "internalType": "address[]",
              "name": "tokens",
              "type": "address[]"
            }
          ],
          "internalType": "struct BasePulseStrategy.ImmutableParams",
          "name": "immutableParams",
          "type": "tuple"
        },
        {
          "components": [
            {
              "internalType": "int24",
              "name": "priceImpactD6",
              "type": "int24"
            },
            {
              "internalType": "int24",
              "name": "maxDeviationForVaultPool",
              "type": "int24"
            },
            {
              "internalType": "uint32",
              "name": "timespanForAverageTick",
              "type": "uint32"
            },
            {
              "internalType": "uint256",
              "name": "swapSlippageD",
              "type": "uint256"
            },
            {
              "internalType": "uint256",
              "name": "swappingAmountsCoefficientD",
              "type": "uint256"
            },
            {
              "internalType": "uint256[]",
              "name": "minSwapAmounts",
              "type": "uint256[]"
            }
          ],
          "internalType": "struct BasePulseStrategy.MutableParams",
          "name": "mutableParams",
          "type": "tuple"
        }
      ],
      "stateMutability": "view",
      "type": "function"
    }
  ],
  "bytecode": {
    "object": "0x608060405234801561001057600080fd5b50611acb806100206000396000f3fe608060405234801561001057600080fd5b50600436106100415760003560e01c806340792465146100465780637b23e1bd14610064578063d02660a214610085575b600080fd5b610051600160601b81565b6040519081526020015b60405180910390f35b610077610072366004611292565b6100c7565b60405161005b92919061133a565b610098610093366004611426565b610353565b604080519485526001600160a01b0393841660208601529183169184019190915216606082015260800161005b565b6040805160808082018352600080835260208084018290528385018290526060808501819052855160c0810187528381529182018390529481018290528085018290529182015260a0810192909252906000806000856001600160a01b031663c8014d536040518163ffffffff1660e01b815260040160606040518083038186803b15801561015557600080fd5b505afa158015610169573d6000803e3d6000fd5b505050506040513d601f19601f8201168201806040525081019061018d91906114be565b9250925092506040518060800160405280846001600160a01b03168152602001836001600160a01b03168152602001826001600160a01b03168152602001846001600160a01b031663697222336040518163ffffffff1660e01b815260040160006040518083038186803b15801561020457600080fd5b505afa158015610218573d6000803e3d6000fd5b505050506040513d6000823e601f3d908101601f19168201604052610240919081019061152f565b81525094505050506000806000806000876001600160a01b0316635f408a216040518163ffffffff1660e01b815260040160a06040518083038186803b15801561028957600080fd5b505afa15801561029d573d6000803e3d6000fd5b505050506040513d601f19601f820116820180604052508101906102c191906115ed565b945094509450945094506040518060c001604052808660020b81526020018560020b81526020018463ffffffff168152602001838152602001828152602001600267ffffffffffffffff81111561031a5761031a6113d0565b604051908082528060200260200182016040528015610343578160200160208202803683370190505b5081525095505050505050915091565b600080600080600080610365886100c7565b91509150600082602001516001600160a01b03166316f0115b6040518163ffffffff1660e01b815260040160206040518083038186803b1580156103a857600080fd5b505afa1580156103bc573d6000803e3d6000fd5b505050506040513d601f19601f820116820180604052508101906103e09190611648565b90506000816001600160a01b0316633850c7bd6040518163ffffffff1660e01b815260040160e06040518083038186803b15801561041d57600080fd5b505afa158015610431573d6000803e3d6000fd5b505050506040513d601f19601f820116820180604052508101906104559190611687565b505050505050905083600001519450600080610488836001600160a01b0316846001600160a01b0316600160601b61084e565b604080516002808252606082018352929350600092909160208301908036833701905050905060008d6001600160a01b03166351c5d0c08e8a602001516001600160a01b031663f4adc08b6040518163ffffffff1660e01b815260040160206040518083038186803b1580156104fd57600080fd5b505afa158015610511573d6000803e3d6000fd5b505050506040513d601f19601f82011682018060405250810190610535919061171a565b6040518363ffffffff1660e01b8152600401610552929190611733565b60206040518083038186803b15801561056a57600080fd5b505afa15801561057e573d6000803e3d6000fd5b505050506040513d601f19601f820116820180604052508101906105a29190611761565b90508061062a5787602001516001600160a01b031663e5328e066040518163ffffffff1660e01b815260040160006040518083038186803b1580156105e657600080fd5b505afa1580156105fa573d6000803e3d6000fd5b505050506040513d6000823e601f3d908101601f1916820160405261062291908101906117d7565b509150610759565b61071c88602001516001600160a01b031663791b98bc6040518163ffffffff1660e01b815260040160206040518083038186803b15801561066a57600080fd5b505afa15801561067e573d6000803e3d6000fd5b505050506040513d601f19601f820116820180604052508101906106a29190611648565b89602001516001600160a01b031663f4adc08b6040518163ffffffff1660e01b815260040160206040518083038186803b1580156106df57600080fd5b505afa1580156106f3573d6000803e3d6000fd5b505050506040513d601f19601f82011682018060405250810190610717919061171a565b610902565b8360008151811061072f5761072f61183b565b60200260200101846001815181106107495761074961183b565b6020908102919091010191909152525b8d6001600160a01b0316639bb37ba88e87866040518463ffffffff1660e01b815260040161078993929190611851565b60206040518083038186803b1580156107a157600080fd5b505afa1580156107b5573d6000803e3d6000fd5b505050506040513d601f19601f820116820180604052508101906107d9919061171a565b93505060006107eb848a858a86610a45565b809250819d505050876060015181815181106108095761080961183b565b60200260200101519a508760600151816001188151811061082c5761082c61183b565b6020026020010151995087600001519850505050505050505092959194509250565b600080806000198587098587029250828110838203039150508060001415610888576000841161087d57600080fd5b5082900490506108fb565b80841161089457600080fd5b6000848688096000868103871696879004966002600389028118808a02820302808a02820302808a02820302808a02820302808a02820302808a02909103029181900381900460010186841190950394909402919094039290920491909117919091029150505b9392505050565b6000806000806000806000806000806000808d6001600160a01b03166399fbab888e6040518263ffffffff1660e01b815260040161094291815260200190565b6101806040518083038186803b15801561095b57600080fd5b505afa15801561096f573d6000803e3d6000fd5b505050506040513d601f19601f8201168201806040525081019061099391906118b6565b6001600160801b03169b506001600160801b03169b509b509b509b509b509b509b509b509b505050610a308e6040518061014001604052808d6001600160a01b031681526020018c6001600160a01b031681526020018b62ffffff1681526020018a60020b81526020018960020b8152602001886001600160801b0316815260200187815260200186815260200185815260200184815250610d85565b9b509b50505050505050505050509250929050565b60008080610a5788600160601b6119ad565b90506000876001600160a01b031663e5328e066040518163ffffffff1660e01b815260040160006040518083038186803b158015610a9457600080fd5b505afa158015610aa8573d6000803e3d6000fd5b505050506040513d6000823e601f3d908101601f19168201604052610ad091908101906117d7565b50905060005b6002811015610b3457858181518110610af157610af161183b565b6020026020010151828281518110610b0b57610b0b61183b565b60200260200101818151610b1f91906119c4565b90525080610b2c816119dc565b915050610ad6565b5080600181518110610b4857610b4861183b565b602002602001015181600081518110610b6357610b6361183b565b6020026020010151610b7591906119c4565b610b8757600080935093505050610d7b565b6000610bff82600181518110610b9f57610b9f61183b565b6020026020010151600160601b610bd585600081518110610bc257610bc261183b565b60200260200101518c600160601b61084e565b85600181518110610be857610be861183b565b6020026020010151610bfa91906119c4565b61084e565b90506000610c1c600160601b896000015160020b620f424061084e565b90508a821115610cc257600194506000610c3b600160601b808c61084e565b9050610cba610c658d86600081518110610c5757610c5761183b565b60200260200101518461084e565b610c8e86600181518110610c7b57610c7b61183b565b602002602001015188600160601b61084e565b610c9891906119ad565b600160601b610cac8f86600160601b61084e565b610bfa90600160601b6119ad565b965050610d38565b60009450610d35610cee8585600181518110610ce057610ce061183b565b60200260200101518c61084e565b610d1785600081518110610d0457610d0461183b565b60200260200101518e600160601b61084e565b610d2191906119ad565b600160601b610cac8785600160601b61084e565b95505b828581518110610d4a57610d4a61183b565b6020026020010151861115610d7657828581518110610d6b57610d6b61183b565b602002602001015195505b505050505b9550959350505050565b600080600080610e54610e45876001600160a01b031663c45a01556040518163ffffffff1660e01b815260040160206040518083038186803b158015610dca57600080fd5b505afa158015610dde573d6000803e3d6000fd5b505050506040513d601f19601f82011682018060405250810190610e029190611648565b604051806060016040528089600001516001600160a01b0316815260200189602001516001600160a01b03168152602001896040015162ffffff16815250610eb7565b86606001518760800151610fa0565b91509150846101000151610e808660c0015184038760a001516001600160801b0316600160801b61084e565b019350846101200151610eab8660e0015183038760a001516001600160801b0316600160801b61084e565b01925050509250929050565b600081602001516001600160a01b031682600001516001600160a01b031610610edf57600080fd5b815160208084015160408086015181516001600160a01b0395861681860152949092168482015262ffffff90911660608085019190915281518085038201815260808501909252815191909201206001600160f81b031960a08401529085901b6bffffffffffffffffffffffff191660a183015260b58201527fe34f199b19b2b4f47f68442619d555527d244f78a3297ea89325f843f87b8b5460d582015260f50160408051601f1981840301815291905280516020909101209392505050565b6000806000856001600160a01b0316633850c7bd6040518163ffffffff1660e01b815260040160e06040518083038186803b158015610fde57600080fd5b505afa158015610ff2573d6000803e3d6000fd5b505050506040513d601f19601f820116820180604052508101906110169190611687565b505060405163f30dba9360e01b815260028b900b60048201529395506000945084936001600160a01b038c16935063f30dba93925060240190506101006040518083038186803b15801561106957600080fd5b505afa15801561107d573d6000803e3d6000fd5b505050506040513d601f19601f820116820180604052508101906110a191906119f7565b505060405163f30dba9360e01b815260028d900b600482015293975091955060009450849350506001600160a01b038c169163f30dba9391506024016101006040518083038186803b1580156110f657600080fd5b505afa15801561110a573d6000803e3d6000fd5b505050506040513d601f19601f8201168201806040525081019061112e91906119f7565b505050509350935050508860020b8560020b1215611155578184039650808303955061126d565b8760020b8560020b12156112625760008a6001600160a01b031663f30583996040518163ffffffff1660e01b815260040160206040518083038186803b15801561119e57600080fd5b505afa1580156111b2573d6000803e3d6000fd5b505050506040513d601f19601f820116820180604052508101906111d6919061171a565b905060008b6001600160a01b031663461413196040518163ffffffff1660e01b815260040160206040518083038186803b15801561121357600080fd5b505afa158015611227573d6000803e3d6000fd5b505050506040513d601f19601f8201168201806040525081019061124b919061171a565b90508386830303985082858203039750505061126d565b838203965082810395505b5050505050935093915050565b6001600160a01b038116811461128f57600080fd5b50565b6000602082840312156112a457600080fd5b81356108fb8161127a565b600060c08301825160020b845260208084015160020b8186015263ffffffff6040850151166040860152606084015160608601526080840151608086015260a084015160c060a087015282815180855260e0880191508383019450600092505b8083101561132f578451825293830193600192909201919083019061130f565b509695505050505050565b60408152600060c0820160018060a01b03808651166040850152602081818801511660608601528160408801511660808601526060870151608060a087015283815180865260e0880191508383019550600092505b808310156113b15785518516825294830194600192909201919083019061138f565b50868103838801526113c381896112af565b9998505050505050505050565b634e487b7160e01b600052604160045260246000fd5b604051601f8201601f1916810167ffffffffffffffff8111828210171561140f5761140f6113d0565b604052919050565b8060020b811461128f57600080fd5b600080828403606081121561143a57600080fd5b83356114458161127a565b92506040601f198201121561145957600080fd5b506040516040810181811067ffffffffffffffff8211171561147d5761147d6113d0565b604052602084013561148e81611417565b8152604084013561149e81611417565b6020820152919491935090915050565b80516114b98161127a565b919050565b6000806000606084860312156114d357600080fd5b83516114de8161127a565b60208501519093506114ef8161127a565b60408501519092506115008161127a565b809150509250925092565b600067ffffffffffffffff821115611525576115256113d0565b5060051b60200190565b6000602080838503121561154257600080fd5b825167ffffffffffffffff81111561155957600080fd5b8301601f8101851361156a57600080fd5b805161157d6115788261150b565b6113e6565b81815260059190911b8201830190838101908783111561159c57600080fd5b928401925b828410156115c35783516115b48161127a565b825292840192908401906115a1565b979650505050505050565b80516114b981611417565b805163ffffffff811681146114b957600080fd5b600080600080600060a0868803121561160557600080fd5b855161161081611417565b602087015190955061162181611417565b935061162f604087016115d9565b6060870151608090970151959894975095949392505050565b60006020828403121561165a57600080fd5b81516108fb8161127a565b805161ffff811681146114b957600080fd5b805180151581146114b957600080fd5b600080600080600080600060e0888a0312156116a257600080fd5b87516116ad8161127a565b60208901519097506116be81611417565b95506116cc60408901611665565b94506116da60608901611665565b93506116e860808901611665565b925060a088015160ff811681146116fe57600080fd5b915061170c60c08901611677565b905092959891949750929550565b60006020828403121561172c57600080fd5b5051919050565b606081016117548285805160020b8252602081015160020b60208301525050565b8260408301529392505050565b60006020828403121561177357600080fd5b6108fb82611677565b600082601f83011261178d57600080fd5b8151602061179d6115788361150b565b82815260059290921b840181019181810190868411156117bc57600080fd5b8286015b8481101561132f57805183529183019183016117c0565b600080604083850312156117ea57600080fd5b825167ffffffffffffffff8082111561180257600080fd5b61180e8683870161177c565b9350602085015191508082111561182457600080fd5b506118318582860161177c565b9150509250929050565b634e487b7160e01b600052603260045260246000fd5b608081016118728286805160020b8252602081015160020b60208301525050565b6001600160a01b0393909316604082015260600152919050565b805162ffffff811681146114b957600080fd5b80516001600160801b03811681146114b957600080fd5b6000806000806000806000806000806000806101808d8f0312156118d957600080fd5b8c516bffffffffffffffffffffffff811681146118f557600080fd5b9b5061190360208e016114ae565b9a5061191160408e016114ae565b995061191f60608e016114ae565b985061192d60808e0161188c565b975061193b60a08e016115ce565b965061194960c08e016115ce565b955061195760e08e0161189f565b94506101008d015193506101208d015192506119766101408e0161189f565b91506119856101608e0161189f565b90509295989b509295989b509295989b565b634e487b7160e01b600052601160045260246000fd5b6000828210156119bf576119bf611997565b500390565b600082198211156119d7576119d7611997565b500190565b60006000198214156119f0576119f0611997565b5060010190565b600080600080600080600080610100898b031215611a1457600080fd5b611a1d8961189f565b9750602089015180600f0b8114611a3357600080fd5b80975050604089015195506060890151945060808901518060060b8114611a5957600080fd5b60a08a0151909450611a6a8161127a565b9250611a7860c08a016115d9565b9150611a8660e08a01611677565b9050929598509295989093965056fea2646970667358221220f85c9bcfa21fdedf9a719d1dcd500a90c77b889b9568cf36b90ff7a5b05646a564736f6c63430008090033",
    "linkReferences": {}
  },
  "methodIdentifiers": {
    "Q96()": "40792465",
    "calculateAmountForSwap(address,(int24,int24))": "d02660a2",
    "getStrategyParams(address)": "7b23e1bd"
  },
  "id": 406
}