{
  "abi": [
    {
      "inputs": [
        {
          "internalType": "contract IBasePositionManager",
          "name": "positionManager_",
          "type": "address"
        },
        {
          "internalType": "contract TicksFeesReader",
          "name": "ticksManager_",
          "type": "address"
        }
      ],
      "stateMutability": "nonpayable",
      "type": "constructor"
    },
    {
      "inputs": [],
      "name": "calcTvl",
      "outputs": [
        {
          "internalType": "uint256[]",
          "name": "minTokenAmounts",
          "type": "uint256[]"
        },
        {
          "internalType": "uint256[]",
          "name": "maxTokenAmounts",
          "type": "uint256[]"
        }
      ],
      "stateMutability": "view",
      "type": "function"
    },
    {
      "inputs": [
        {
          "internalType": "contract IPool",
          "name": "pool",
          "type": "address"
        },
        {
          "internalType": "uint256",
          "name": "kyberNft",
          "type": "uint256"
        },
        {
          "internalType": "uint160",
          "name": "sqrtPriceX96",
          "type": "uint160"
        }
      ],
      "name": "calculateTvlBySqrtPriceX96",
      "outputs": [
        {
          "internalType": "uint256[]",
          "name": "tokenAmounts",
          "type": "uint256[]"
        }
      ],
      "stateMutability": "view",
      "type": "function"
    },
    {
      "inputs": [
        {
          "internalType": "uint256[]",
          "name": "tokenAmounts",
          "type": "uint256[]"
        },
        {
          "components": [
            {
              "internalType": "uint256",
              "name": "amount0Min",
              "type": "uint256"
            },
            {
              "internalType": "uint256",
              "name": "amount1Min",
              "type": "uint256"
            },
            {
              "internalType": "uint256",
              "name": "deadline",
              "type": "uint256"
            }
          ],
          "internalType": "struct IKyberVault.Options",
          "name": "opts",
          "type": "tuple"
        }
      ],
      "name": "getBytesToMulticall",
      "outputs": [
        {
          "internalType": "bytes[]",
          "name": "data",
          "type": "bytes[]"
        }
      ],
      "stateMutability": "view",
      "type": "function"
    },
    {
      "inputs": [
        {
          "internalType": "uint128",
          "name": "liquidity",
          "type": "uint128"
        },
        {
          "internalType": "contract IPool",
          "name": "pool",
          "type": "address"
        },
        {
          "internalType": "uint256",
          "name": "kyberNft",
          "type": "uint256"
        }
      ],
      "name": "liquidityToTokenAmounts",
      "outputs": [
        {
          "internalType": "uint256[]",
          "name": "tokenAmounts",
          "type": "uint256[]"
        }
      ],
      "stateMutability": "view",
      "type": "function"
    },
    {
      "inputs": [],
      "name": "positionManager",
      "outputs": [
        {
          "internalType": "contract IBasePositionManager",
          "name": "",
          "type": "address"
        }
      ],
      "stateMutability": "view",
      "type": "function"
    },
    {
      "inputs": [],
      "name": "ticksManager",
      "outputs": [
        {
          "internalType": "contract TicksFeesReader",
          "name": "",
          "type": "address"
        }
      ],
      "stateMutability": "view",
      "type": "function"
    },
    {
      "inputs": [
        {
          "internalType": "uint256[]",
          "name": "tokenAmounts",
          "type": "uint256[]"
        },
        {
          "internalType": "contract IPool",
          "name": "pool",
          "type": "address"
        },
        {
          "internalType": "uint256",
          "name": "kyberNft",
          "type": "uint256"
        }
      ],
      "name": "tokenAmountsToLiquidity",
      "outputs": [
        {
          "internalType": "uint128",
          "name": "liquidity",
          "type": "uint128"
        }
      ],
      "stateMutability": "view",
      "type": "function"
    },
    {
      "inputs": [
        {
          "internalType": "uint160",
          "name": "sqrtRatioX96",
          "type": "uint160"
        },
        {
          "internalType": "int24",
          "name": "tickLower",
          "type": "int24"
        },
        {
          "internalType": "int24",
          "name": "tickUpper",
          "type": "int24"
        },
        {
          "internalType": "uint256",
          "name": "amount0",
          "type": "uint256"
        },
        {
          "internalType": "uint256",
          "name": "amount1",
          "type": "uint256"
        }
      ],
      "name": "tokenAmountsToMaximalLiquidity",
      "outputs": [
        {
          "internalType": "uint128",
          "name": "liquidity",
          "type": "uint128"
        }
      ],
      "stateMutability": "pure",
      "type": "function"
    }
  ],
  "bytecode": {
    "object": "0x60c06040523480156200001157600080fd5b506040516200307c3803806200307c833981016040819052620000349162000079565b6001600160a01b0382166200004857600080fd5b6001600160a01b039182166080521660a052620000b8565b6001600160a01b03811681146200007657600080fd5b50565b600080604083850312156200008d57600080fd5b82516200009a8162000060565b6020840151909250620000ad8162000060565b809150509250929050565b60805160a051612f67620001156000396000818161016a01528181610f57015261157a01526000818160f801528181610d3101528181610f1d015281816114390152818161153e0152818161169f01526118310152612f676000f3fe608060405234801561001057600080fd5b50600436106100885760003560e01c8063886223161161005b5780638862231614610132578063db9936bf14610152578063e70783f214610165578063edda83701461018c57600080fd5b80631aa54edb1461008d5780632765b2ce146100bd5780634a9acd5f146100d3578063791b98bc146100f3575b600080fd5b6100a061009b36600461238f565b61019f565b6040516001600160801b0390911681526020015b60405180910390f35b6100c561025f565b6040516100b4929190612425565b6100e66100e136600461256d565b610bc2565b6040516100b49190612618565b61011a7f000000000000000000000000000000000000000000000000000000000000000081565b6040516001600160a01b0390911681526020016100b4565b610145610140366004612692565b6113f7565b6040516100b491906126d4565b6101456101603660046126fc565b61165d565b61011a7f000000000000000000000000000000000000000000000000000000000000000081565b6100a061019a36600461273d565b61180e565b6000806101ab86611996565b905060006101b886611996565b9050816001600160a01b0316886001600160a01b0316116101e4576101de828287611db8565b50610254565b806001600160a01b0316886001600160a01b0316101561024657600061020b898388611db8565b9050600061021a848b88611e07565b9050806001600160801b0316826001600160801b03161161023b578061023d565b815b94505050610254565b610251828286611e07565b92505b505095945050505050565b60608060003390506000816001600160a01b031663a7788fd96040518163ffffffff1660e01b815260040160206040518083038186803b1580156102a257600080fd5b505afa1580156102b6573d6000803e3d6000fd5b505050506040513d601f19601f820116820180604052508101906102da9190612786565b905080610327576040805160028082526060820183529091602083019080368337505060408051600280825260608201835290925090602083019080368337019050509350935050509091565b6000826001600160a01b03166336e9332d6040518163ffffffff1660e01b815260040160206040518083038186803b15801561036257600080fd5b505afa158015610376573d6000803e3d6000fd5b505050506040513d601f19601f8201168201806040525081019061039a919061279f565b90506000836001600160a01b031663697222336040518163ffffffff1660e01b815260040160006040518083038186803b1580156103d757600080fd5b505afa1580156103eb573d6000803e3d6000fd5b505050506040513d6000823e601f3d908101601f19168201604052610413919081019061282b565b90506000846001600160a01b03166316f0115b6040518163ffffffff1660e01b815260040160206040518083038186803b15801561045057600080fd5b505afa158015610464573d6000803e3d6000fd5b505050506040513d601f19601f82011682018060405250810190610488919061279f565b90506000816001600160a01b031663217ac2376040518163ffffffff1660e01b815260040160806040518083038186803b1580156104c557600080fd5b505afa1580156104d9573d6000803e3d6000fd5b505050506040513d601f19601f820116820180604052508101906104fd919061287b565b50919250610510915083905086836113f7565b97505050836001600160a01b0316636fbed9e86040518163ffffffff1660e01b815260040160206040518083038186803b15801561054d57600080fd5b505afa158015610561573d6000803e3d6000fd5b505050506040513d601f19601f8201168201806040525081019061058591906128d7565b15610bb75760006060806000876001600160a01b031663f10684546040518163ffffffff1660e01b815260040160206040518083038186803b1580156105ca57600080fd5b505afa1580156105de573d6000803e3d6000fd5b505050506040513d601f19601f820116820180604052508101906106029190612786565b604051632f380b3560e01b8152600481018290529091506001600160a01b03871690632f380b359060240160006040518083038186803b15801561064557600080fd5b505afa158015610659573d6000803e3d6000fd5b505050506040513d6000823e601f3d908101601f191682016040526106819190810190612961565b50604051636e0b454960e11b8152909a506001600160a01b038e16975063dc168a9296506106bc95508e94508893506004019150612a279050565b60006040518083038186803b1580156106d457600080fd5b505afa1580156106e8573d6000803e3d6000fd5b505050506040513d6000823e601f3d908101601f191682016040526107109190810190612a35565b50925060009150505b8251811015610bb2576000805b86518110156107d35786818151811061074157610741612aa2565b60200260200101516001600160a01b031685848151811061076457610764612aa2565b60200260200101516001600160a01b031614156107c3576001915083838151811061079157610791612aa2565b60200260200101518c82815181106107ab576107ab612aa2565b602002602001018181516107bf9190612ace565b9052505b6107cc81612ae6565b9050610726565b5080610ba1576000808a6001600160a01b031663fe255a5e6040518163ffffffff1660e01b815260040160206040518083038186803b15801561081557600080fd5b505afa158015610829573d6000803e3d6000fd5b505050506040513d601f19601f8201168201806040525081019061084d919061279f565b6001600160a01b03166312466b688c6001600160a01b03166347ccca026040518163ffffffff1660e01b815260040160206040518083038186803b15801561089457600080fd5b505afa1580156108a8573d6000803e3d6000fd5b505050506040513d601f19601f820116820180604052508101906108cc9190612786565b6040518263ffffffff1660e01b81526004016108ea91815260200190565b60006040518083038186803b15801561090257600080fd5b505afa158015610916573d6000803e3d6000fd5b505050506040513d6000823e601f3d908101601f1916820160405261093e9190810190612b01565b60200151878151811061095357610953612aa2565b60200260200101519050610974816014835161096f9190612c4f565b611e26565b915050606060008b6001600160a01b031663ee1173556040518163ffffffff1660e01b815260040160206040518083038186803b1580156109b457600080fd5b505afa1580156109c8573d6000803e3d6000fd5b505050506040513d601f19601f820116820180604052508101906109ec919061279f565b9050806001600160a01b0316636d80125b888781518110610a0f57610a0f612aa2565b6020908102919091018101516040516001600160e01b031960e085901b1681526001600160a01b0391821660048201529087166024820152604481019190915260640160006040518083038186803b158015610a6a57600080fd5b505afa158015610a7e573d6000803e3d6000fd5b505050506040513d6000823e601f3d908101601f19168201604052610aa69190810190612c66565b50809250505080600081518110610abf57610abf612aa2565b6020026020010151600014610b91576000610b12868681518110610ae557610ae5612aa2565b602002602001015183600081518110610b0057610b00612aa2565b6020026020010151600160601b611eda565b905060005b8951811015610b8e57898181518110610b3257610b32612aa2565b60200260200101516001600160a01b0316846001600160a01b03161415610b7e57818f8281518110610b6657610b66612aa2565b60200260200101818151610b7a9190612ace565b9052505b610b8781612ae6565b9050610b17565b50505b610b9c600188612ace565b965050505b50610bab81612ae6565b9050610719565b505050505b859450505050509091565b606060003390506000816001600160a01b031663a7788fd96040518163ffffffff1660e01b815260040160206040518083038186803b158015610c0457600080fd5b505afa158015610c18573d6000803e3d6000fd5b505050506040513d601f19601f82011682018060405250810190610c3c9190612786565b90506000826001600160a01b03166316f0115b6040518163ffffffff1660e01b815260040160206040518083038186803b158015610c7957600080fd5b505afa158015610c8d573d6000803e3d6000fd5b505050506040513d601f19601f82011682018060405250810190610cb1919061279f565b90506000836001600160a01b031663697222336040518163ffffffff1660e01b815260040160006040518083038186803b158015610cee57600080fd5b505afa158015610d02573d6000803e3d6000fd5b505050506040513d6000823e601f3d908101601f19168201604052610d2a919081019061282b565b90506000807f00000000000000000000000000000000000000000000000000000000000000006001600160a01b03166399fbab88866040518263ffffffff1660e01b8152600401610d7d91815260200190565b6101606040518083038186803b158015610d9657600080fd5b505afa158015610daa573d6000803e3d6000fd5b505050506040513d601f19601f82011682018060405250810190610dce9190612d4c565b5090506000846001600160a01b031663217ac2376040518163ffffffff1660e01b815260040160806040518083038186803b158015610e0c57600080fd5b505afa158015610e20573d6000803e3d6000fd5b505050506040513d601f19601f82011682018060405250810190610e44919061287b565b5050509050610e9281836060015184608001518d600081518110610e6a57610e6a612aa2565b60200260200101518e600181518110610e8557610e85612aa2565b602002602001015161019f565b9250826001600160801b03168260a001516001600160801b031610610eb75782610ebd565b8160a001515b925050506001600160801b038116610f07576040805160008082526020820190925290610efa565b6060815260200190600190039081610ee55790505b50955050505050506113f1565b604051620220ad60e91b81526001600160a01b037f0000000000000000000000000000000000000000000000000000000000000000811660048301528481166024830152604482018690526000917f0000000000000000000000000000000000000000000000000000000000000000909116906304415a009060640160206040518083038186803b158015610f9b57600080fd5b505afa158015610faf573d6000803e3d6000fd5b505050506040513d601f19601f82011682018060405250810190610fd39190612786565b11156112275760408051600480825260a0820190925290816020015b6060815260200190600190039081610fef57505087516020808a01516040808c015181519384018a90526001600160801b038716848301526060840194909452608083019190915260a0808301939093528051808303909301835260c082019052919750611069916398e04d7760e01b919060e001612e1c565b6040516020818303038152906040528660008151811061108b5761108b612aa2565b6020908102919091010152637686c6e960e11b846000806110ad426001612ace565b60408051602081019590955260ff9384169085015291166060830152608082015260a00160408051601f19818403018152908290526110ef9291602001612e1c565b6040516020818303038152906040528660018151811061111157611111612aa2565b602002602001018190525063bf1316c160e01b8260008151811061113757611137612aa2565b602002602001015160003360405160200161115493929190612e4d565b60408051601f19818403018152908290526111729291602001612e1c565b6040516020818303038152906040528660028151811061119457611194612aa2565b602002602001018190525063bf1316c160e01b826001815181106111ba576111ba612aa2565b60200260200101516000336040516020016111d793929190612e4d565b60408051601f19818403018152908290526111f59291602001612e1c565b6040516020818303038152906040528660038151811061121757611217612aa2565b60200260200101819052506113eb565b6040805160038082526080820190925290816020015b606081526020019060019003908161123d57505087516020808a01516040808c015181519384018a90526001600160801b038716848301526060840194909452608083019190915260a0808301939093528051808303909301835260c0820190529197506112b7916398e04d7760e01b919060e001612e1c565b604051602081830303815290604052866000815181106112d9576112d9612aa2565b602002602001018190525063bf1316c160e01b826000815181106112ff576112ff612aa2565b602002602001015160003360405160200161131c93929190612e4d565b60408051601f198184030181529082905261133a9291602001612e1c565b6040516020818303038152906040528660018151811061135c5761135c612aa2565b602002602001018190525063bf1316c160e01b8260018151811061138257611382612aa2565b602002602001015160003360405160200161139f93929190612e4d565b60408051601f19818403018152908290526113bd9291602001612e1c565b604051602081830303815290604052866002815181106113df576113df612aa2565b60200260200101819052505b50505050505b92915050565b60408051600280825260608083018452926020830190803683370190505060405163133f757160e31b8152600481018590529091506000906001600160a01b037f000000000000000000000000000000000000000000000000000000000000000016906399fbab88906024016101606040518083038186803b15801561147c57600080fd5b505afa158015611490573d6000803e3d6000fd5b505050506040513d601f19601f820116820180604052508101906114b49190612d4c565b50905060006114c68260600151611996565b905060006114d78360800151611996565b90506114eb8583838660a001516001611f8d565b856000815181106114fe576114fe612aa2565b602002602001018660018151811061151857611518612aa2565b602090810291909101019190915252604051631858f16760e21b81526001600160a01b037f00000000000000000000000000000000000000000000000000000000000000008116600483015288811660248301526044820188905260009182917f00000000000000000000000000000000000000000000000000000000000000001690636163c59c90606401604080518083038186803b1580156115bb57600080fd5b505afa1580156115cf573d6000803e3d6000fd5b505050506040513d601f19601f820116820180604052508101906115f39190612e70565b91509150818660008151811061160b5761160b612aa2565b6020026020010181815161161f9190612ace565b905250855181908790600190811061163957611639612aa2565b6020026020010181815161164d9190612ace565b9052509498975050505050505050565b60408051600280825260608083018452926020830190803683370190505060405163133f757160e31b8152600481018490529091506000906001600160a01b037f000000000000000000000000000000000000000000000000000000000000000016906399fbab88906024016101606040518083038186803b1580156116e257600080fd5b505afa1580156116f6573d6000803e3d6000fd5b505050506040513d601f19601f8201168201806040525081019061171a9190612d4c565b5090506000846001600160a01b031663217ac2376040518163ffffffff1660e01b815260040160806040518083038186803b15801561175857600080fd5b505afa15801561176c573d6000803e3d6000fd5b505050506040513d601f19601f82011682018060405250810190611790919061287b565b505050905060006117a48360600151611996565b905060006117b58460800151611996565b90506117c58383838b6001611f8d565b866000815181106117d8576117d8612aa2565b60200260200101876001815181106117f2576117f2612aa2565b6020026020010182815250828152505050505050509392505050565b60405163133f757160e31b81526004810182905260009081906001600160a01b037f000000000000000000000000000000000000000000000000000000000000000016906399fbab88906024016101606040518083038186803b15801561187457600080fd5b505afa158015611888573d6000803e3d6000fd5b505050506040513d601f19601f820116820180604052508101906118ac9190612d4c565b5090506000846001600160a01b031663217ac2376040518163ffffffff1660e01b815260040160806040518083038186803b1580156118ea57600080fd5b505afa1580156118fe573d6000803e3d6000fd5b505050506040513d601f19601f82011682018060405250810190611922919061287b565b505050905060006119368360600151611996565b905060006119478460800151611996565b905061198a8383838b60008151811061196257611962612aa2565b60200260200101518c60018151811061197d5761197d612aa2565b602002602001015161202e565b98975050505050505050565b60008060008360020b126119ad578260020b6119ba565b8260020b6119ba90612e94565b90506119c9620d89e719612eb1565b60020b811115611a045760405162461bcd60e51b81526020600482015260016024820152601560fa1b60448201526064015b60405180910390fd5b600060018216611a1857600160801b611a2a565b6ffffcb933bd6fad37aa2d162d1a5940015b70ffffffffffffffffffffffffffffffffff1690506002821615611a69576080611a64826ffff97272373d413259a46990580e213a612ed4565b901c90505b6004821615611a93576080611a8e826ffff2e50f5f656932ef12357cf3c7fdcc612ed4565b901c90505b6008821615611abd576080611ab8826fffe5caca7e10e4e61c3624eaa0941cd0612ed4565b901c90505b6010821615611ae7576080611ae2826fffcb9843d60f6159c9db58835c926644612ed4565b901c90505b6020821615611b11576080611b0c826fff973b41fa98c081472e6896dfb254c0612ed4565b901c90505b6040821615611b3b576080611b36826fff2ea16466c96a3843ec78b326b52861612ed4565b901c90505b6080821615611b65576080611b60826ffe5dee046a99a2a811c461f1969c3053612ed4565b901c90505b610100821615611b90576080611b8b826ffcbe86c7900a88aedcffc83b479aa3a4612ed4565b901c90505b610200821615611bbb576080611bb6826ff987a7253ac413176f2b074cf7815e54612ed4565b901c90505b610400821615611be6576080611be1826ff3392b0822b70005940c7a398e4b70f3612ed4565b901c90505b610800821615611c11576080611c0c826fe7159475a2c29b7443b29c7fa6e889d9612ed4565b901c90505b611000821615611c3c576080611c37826fd097f3bdfd2022b8845ad8f792aa5825612ed4565b901c90505b612000821615611c67576080611c62826fa9f746462d870fdf8a65dc1f90e061e5612ed4565b901c90505b614000821615611c92576080611c8d826f70d869a156d2a1b890bb3df62baf32f7612ed4565b901c90505b618000821615611cbd576080611cb8826f31be135f97d08fd981231505542fcfa6612ed4565b901c90505b62010000821615611ce9576080611ce4826f09aa508b5b7a84e1c677de54f3e99bc9612ed4565b901c90505b62020000821615611d14576080611d0f826e5d6af8dedb81196699c329225ee604612ed4565b901c90505b62040000821615611d3e576080611d39826d2216e584f5fa1ea926041bedfe98612ed4565b901c90505b62080000821615611d66576080611d61826b048a170391f7dc42444e8fa2612ed4565b901c90505b60008460020b1315611d8157611d7e81600019612f09565b90505b611d9064010000000082612f1d565b15611d9c576001611d9f565b60005b611db09060ff16602083901c612ace565b949350505050565b600080611ddc856001600160a01b0316856001600160a01b0316600160601b6120c9565b9050611dfc611df782858888036001600160a01b03166120c9565b6121dd565b9150505b9392505050565b6000611db0611df783600160601b8787036001600160a01b03166120c9565b600081611e34816014612ace565b1015611e775760405162461bcd60e51b8152602060048201526012602482015271746f416464726573735f6f766572666c6f7760701b60448201526064016119fb565b611e82826014612ace565b83511015611eca5760405162461bcd60e51b8152602060048201526015602482015274746f416464726573735f6f75744f66426f756e647360581b60448201526064016119fb565b500160200151600160601b900490565b600080806000198587098587029250828110838203039150508060001415611f145760008411611f0957600080fd5b508290049050611e00565b808411611f2057600080fd5b6000848688096000868103871696879004966002600389028118808a02820302808a02820302808a02820302808a02820302808a02820302808a02909103029181900381900460010186841190950394909402919094039290920491909117919091029150509392505050565b600080846001600160a01b0316866001600160a01b03161115611fae579394935b856001600160a01b0316876001600160a01b031611611fda57611fd3868686866121f8565b9150612024565b846001600160a01b0316876001600160a01b0316101561201557612000878686866121f8565b915061200e86888686612293565b9050612024565b61202186868686612293565b90505b9550959350505050565b6000846001600160a01b0316866001600160a01b03161161205b57612054858585611db8565b90506120c0565b836001600160a01b0316866001600160a01b03161061207f57612054858584611e07565b600061208c878686611db8565b9050600061209b878986611e07565b9050806001600160801b0316826001600160801b0316106120bc5780610251565b5090505b95945050505050565b6000808060001985870985870292508281108382030391505080600014156121255760008411611f095760405162461bcd60e51b8152602060048201526007602482015266302064656e6f6d60c81b60448201526064016119fb565b8084116121655760405162461bcd60e51b815260206004820152600e60248201526d64656e6f6d203c3d2070726f643160901b60448201526064016119fb565b600084868809808403938111909203919050600061218586196001612ace565b8616958690049560026003880281188089028203028089028203028089028203028089028203028089028203028089029091030260008290038290046001019490940294049390931791909102925050509392505050565b806001600160801b03811681146121f357600080fd5b919050565b60006fffffffffffffffffffffffffffffffff60601b606084901b166001600160a01b03868603168361225a57612255876001600160a01b031661224684848a6001600160a01b03166120c9565b6122509190612f09565b6122eb565b612288565b61228861228361227484848a6001600160a01b0316612306565b896001600160a01b0316612338565b612352565b979650505050505050565b6000816122c5576122c0612250846001600160801b03168787036001600160a01b0316600160601b6120c9565b6120c0565b6120c0612283846001600160801b03168787036001600160a01b0316600160601b612306565b6000600160ff1b82106122fd57600080fd5b6113f182612e94565b60006123138484846120c9565b90506000828061232557612325612ef3565b8486091115611e005780611dfc81612ae6565b600080821161234657600080fd5b50808204910615150190565b6000600160ff1b821061236457600080fd5b5090565b6001600160a01b038116811461237d57600080fd5b50565b8060020b811461237d57600080fd5b600080600080600060a086880312156123a757600080fd5b85356123b281612368565b945060208601356123c281612380565b935060408601356123d281612380565b94979396509394606081013594506080013592915050565b600081518084526020808501945080840160005b8381101561241a578151875295820195908201906001016123fe565b509495945050505050565b60408152600061243860408301856123ea565b8281036020840152611dfc81856123ea565b634e487b7160e01b600052604160045260246000fd5b6040516060810167ffffffffffffffff811182821017156124835761248361244a565b60405290565b604051610100810167ffffffffffffffff811182821017156124835761248361244a565b604051601f8201601f1916810167ffffffffffffffff811182821017156124d6576124d661244a565b604052919050565b600067ffffffffffffffff8211156124f8576124f861244a565b5060051b60200190565b600082601f83011261251357600080fd5b81356020612528612523836124de565b6124ad565b82815260059290921b8401810191818101908684111561254757600080fd5b8286015b84811015612562578035835291830191830161254b565b509695505050505050565b600080828403608081121561258157600080fd5b833567ffffffffffffffff81111561259857600080fd5b6125a486828701612502565b9350506060601f19820112156125b957600080fd5b506125c2612460565b602084013581526040840135602082015260608401356040820152809150509250929050565b60005b838110156126035781810151838201526020016125eb565b83811115612612576000848401525b50505050565b6000602080830181845280855180835260408601915060408160051b870101925083870160005b8281101561268557878503603f1901845281518051808752612666818989018a85016125e8565b601f01601f19169590950186019450928501929085019060010161263f565b5092979650505050505050565b6000806000606084860312156126a757600080fd5b83356126b281612368565b92506020840135915060408401356126c981612368565b809150509250925092565b602081526000611e0060208301846123ea565b6001600160801b038116811461237d57600080fd5b60008060006060848603121561271157600080fd5b833561271c816126e7565b9250602084013561272c81612368565b929592945050506040919091013590565b60008060006060848603121561275257600080fd5b833567ffffffffffffffff81111561276957600080fd5b61277586828701612502565b935050602084013561272c81612368565b60006020828403121561279857600080fd5b5051919050565b6000602082840312156127b157600080fd5b8151611e0081612368565b80516121f381612368565b600082601f8301126127d857600080fd5b815160206127e8612523836124de565b82815260059290921b8401810191818101908684111561280757600080fd5b8286015b8481101561256257805161281e81612368565b835291830191830161280b565b60006020828403121561283d57600080fd5b815167ffffffffffffffff81111561285457600080fd5b611db0848285016127c7565b80516121f381612380565b805180151581146121f357600080fd5b6000806000806080858703121561289157600080fd5b845161289c81612368565b60208601519094506128ad81612380565b60408601519093506128be81612380565b91506128cc6060860161286b565b905092959194509250565b6000602082840312156128e957600080fd5b611e008261286b565b805163ffffffff811681146121f357600080fd5b600082601f83011261291757600080fd5b81516020612927612523836124de565b82815260059290921b8401810191818101908684111561294657600080fd5b8286015b84811015612562578051835291830191830161294a565b60008060008060008060008060006101208a8c03121561298057600080fd5b895161298b81612368565b985061299960208b016128f2565b97506129a760408b016128f2565b96506129b560608b016128f2565b955060808a0151945060a08a0151935060c08a0151925060e08a015167ffffffffffffffff808211156129e757600080fd5b6129f38d838e016127c7565b93506101008c0151915080821115612a0a57600080fd5b50612a178c828d01612906565b9150509295985092959850929598565b918252602082015260400190565b600080600060608486031215612a4a57600080fd5b83519250602084015167ffffffffffffffff80821115612a6957600080fd5b612a7587838801612906565b93506040860151915080821115612a8b57600080fd5b50612a9886828701612906565b9150509250925092565b634e487b7160e01b600052603260045260246000fd5b634e487b7160e01b600052601160045260246000fd5b60008219821115612ae157612ae1612ab8565b500190565b6000600019821415612afa57612afa612ab8565b5060010190565b60006020808385031215612b1457600080fd5b825167ffffffffffffffff80821115612b2c57600080fd5b9084019060608287031215612b4057600080fd5b612b48612460565b8251612b5381612368565b81528284015182811115612b6657600080fd5b8301601f81018813612b7757600080fd5b8051612b85612523826124de565b81815260059190911b8201860190868101908a831115612ba457600080fd5b8784015b83811015612c2e57805187811115612bc05760008081fd5b8501603f81018d13612bd25760008081fd5b89810151604089821115612be857612be861244a565b612bfa601f8301601f19168d016124ad565b8281528f82848601011115612c0f5760008081fd5b612c1e838e83018487016125e8565b8652505050918801918801612ba8565b50808886015250505050604083015160408201528094505050505092915050565b600082821015612c6157612c61612ab8565b500390565b60008060408385031215612c7957600080fd5b825167ffffffffffffffff80821115612c9157600080fd5b612c9d86838701612906565b93506020850151915080821115612cb357600080fd5b50612cc085828601612906565b9150509250929050565b805169ffffffffffffffffffff811681146121f357600080fd5b80516121f3816126e7565b600060608284031215612d0157600080fd5b612d09612460565b90508151612d1681612368565b8152602082015162ffffff81168114612d2e57600080fd5b60208201526040820151612d4181612368565b604082015292915050565b600080828403610160811215612d6157600080fd5b61010080821215612d7157600080fd5b612d79612489565b915084516bffffffffffffffffffffffff81168114612d9757600080fd5b8252612da5602086016127bc565b6020830152612db660408601612cca565b6040830152612dc760608601612860565b6060830152612dd860808601612860565b6080830152612de960a08601612ce4565b60a083015260c085015160c083015260e085015160e0830152819350612e1186828701612cef565b925050509250929050565b6001600160e01b0319831681528151600090612e3f8160048501602087016125e8565b919091016004019392505050565b6001600160a01b0393841681526020810192909252909116604082015260600190565b60008060408385031215612e8357600080fd5b505080516020909101519092909150565b6000600160ff1b821415612eaa57612eaa612ab8565b5060000390565b60008160020b627fffff19811415612ecb57612ecb612ab8565b60000392915050565b6000816000190483118215151615612eee57612eee612ab8565b500290565b634e487b7160e01b600052601260045260246000fd5b600082612f1857612f18612ef3565b500490565b600082612f2c57612f2c612ef3565b50069056fea2646970667358221220361e8e2c4425d448fb3b41626838a322d270014278f71f64ab46d74d5c9ed1ce64736f6c63430008090033",
    "linkReferences": {}
  },
  "methodIdentifiers": {
    "calcTvl()": "2765b2ce",
    "calculateTvlBySqrtPriceX96(address,uint256,uint160)": "88622316",
    "getBytesToMulticall(uint256[],(uint256,uint256,uint256))": "4a9acd5f",
    "liquidityToTokenAmounts(uint128,address,uint256)": "db9936bf",
    "positionManager()": "791b98bc",
    "ticksManager()": "e70783f2",
    "tokenAmountsToLiquidity(uint256[],address,uint256)": "edda8370",
    "tokenAmountsToMaximalLiquidity(uint160,int24,int24,uint256,uint256)": "1aa54edb"
  },
  "id": 422
}