{
  "abi": [
    {
      "anonymous": false,
      "inputs": [
        {
          "indexed": true,
          "internalType": "address",
          "name": "origin",
          "type": "address"
        },
        {
          "indexed": true,
          "internalType": "address",
          "name": "sender",
          "type": "address"
        },
        {
          "indexed": false,
          "internalType": "address[]",
          "name": "vaultTokens_",
          "type": "address[]"
        },
        {
          "indexed": false,
          "internalType": "uint256",
          "name": "nft_",
          "type": "uint256"
        }
      ],
      "name": "Initialized",
      "type": "event"
    },
    {
      "anonymous": false,
      "inputs": [
        {
          "indexed": false,
          "internalType": "address",
          "name": "to",
          "type": "address"
        },
        {
          "indexed": false,
          "internalType": "uint256[]",
          "name": "tokenAmounts",
          "type": "uint256[]"
        }
      ],
      "name": "Pull",
      "type": "event"
    },
    {
      "anonymous": false,
      "inputs": [
        {
          "indexed": false,
          "internalType": "uint256[]",
          "name": "tokenAmounts",
          "type": "uint256[]"
        }
      ],
      "name": "Push",
      "type": "event"
    },
    {
      "anonymous": false,
      "inputs": [
        {
          "indexed": false,
          "internalType": "address",
          "name": "to",
          "type": "address"
        },
        {
          "indexed": false,
          "internalType": "address[]",
          "name": "tokens",
          "type": "address[]"
        },
        {
          "indexed": false,
          "internalType": "uint256[]",
          "name": "tokenAmounts",
          "type": "uint256[]"
        }
      ],
      "name": "ReclaimTokens",
      "type": "event"
    },
    {
      "inputs": [],
      "name": "D9",
      "outputs": [
        {
          "internalType": "uint256",
          "name": "",
          "type": "uint256"
        }
      ],
      "stateMutability": "view",
      "type": "function"
    },
    {
      "inputs": [],
      "name": "Q96",
      "outputs": [
        {
          "internalType": "uint256",
          "name": "",
          "type": "uint256"
        }
      ],
      "stateMutability": "view",
      "type": "function"
    },
    {
      "inputs": [],
      "name": "balancerMinter",
      "outputs": [
        {
          "internalType": "contract IBalancerMinter",
          "name": "",
          "type": "address"
        }
      ],
      "stateMutability": "view",
      "type": "function"
    },
    {
      "inputs": [],
      "name": "balancerVault",
      "outputs": [
        {
          "internalType": "contract IVault",
          "name": "",
          "type": "address"
        }
      ],
      "stateMutability": "view",
      "type": "function"
    },
    {
      "inputs": [],
      "name": "claimBalancerRewardToken",
      "outputs": [
        {
          "internalType": "uint256",
          "name": "amount",
          "type": "uint256"
        }
      ],
      "stateMutability": "nonpayable",
      "type": "function"
    },
    {
      "inputs": [],
      "name": "claimRewards",
      "outputs": [],
      "stateMutability": "nonpayable",
      "type": "function"
    },
    {
      "inputs": [
        {
          "internalType": "address",
          "name": "to",
          "type": "address"
        },
        {
          "internalType": "bytes4",
          "name": "selector",
          "type": "bytes4"
        },
        {
          "internalType": "bytes",
          "name": "data",
          "type": "bytes"
        }
      ],
      "name": "externalCall",
      "outputs": [
        {
          "internalType": "bytes",
          "name": "result",
          "type": "bytes"
        }
      ],
      "stateMutability": "payable",
      "type": "function"
    },
    {
      "inputs": [
        {
          "internalType": "contract IAggregatorV3",
          "name": "oracle",
          "type": "address"
        },
        {
          "internalType": "contract IAsset",
          "name": "token",
          "type": "address"
        }
      ],
      "name": "getPriceToUSDX96",
      "outputs": [
        {
          "internalType": "uint256",
          "name": "priceX96",
          "type": "uint256"
        }
      ],
      "stateMutability": "view",
      "type": "function"
    },
    {
      "inputs": [
        {
          "internalType": "uint256",
          "name": "nft_",
          "type": "uint256"
        },
        {
          "internalType": "address[]",
          "name": "vaultTokens_",
          "type": "address[]"
        },
        {
          "internalType": "address",
          "name": "pool_",
          "type": "address"
        },
        {
          "internalType": "address",
          "name": "balancerVault_",
          "type": "address"
        },
        {
          "internalType": "address",
          "name": "stakingLiquidityGauge_",
          "type": "address"
        },
        {
          "internalType": "address",
          "name": "balancerMinter_",
          "type": "address"
        }
      ],
      "name": "initialize",
      "outputs": [],
      "stateMutability": "nonpayable",
      "type": "function"
    },
    {
      "inputs": [],
      "name": "initialized",
      "outputs": [
        {
          "internalType": "bool",
          "name": "",
          "type": "bool"
        }
      ],
      "stateMutability": "view",
      "type": "function"
    },
    {
      "inputs": [
        {
          "internalType": "bytes32",
          "name": "_hash",
          "type": "bytes32"
        },
        {
          "internalType": "bytes",
          "name": "_signature",
          "type": "bytes"
        }
      ],
      "name": "isValidSignature",
      "outputs": [
        {
          "internalType": "bytes4",
          "name": "magicValue",
          "type": "bytes4"
        }
      ],
      "stateMutability": "view",
      "type": "function"
    },
    {
      "inputs": [
        {
          "internalType": "address",
          "name": "token",
          "type": "address"
        }
      ],
      "name": "isVaultToken",
      "outputs": [
        {
          "internalType": "bool",
          "name": "",
          "type": "bool"
        }
      ],
      "stateMutability": "view",
      "type": "function"
    },
    {
      "inputs": [],
      "name": "nft",
      "outputs": [
        {
          "internalType": "uint256",
          "name": "",
          "type": "uint256"
        }
      ],
      "stateMutability": "view",
      "type": "function"
    },
    {
      "inputs": [],
      "name": "pool",
      "outputs": [
        {
          "internalType": "contract IManagedPool",
          "name": "",
          "type": "address"
        }
      ],
      "stateMutability": "view",
      "type": "function"
    },
    {
      "inputs": [
        {
          "internalType": "address",
          "name": "to",
          "type": "address"
        },
        {
          "internalType": "address[]",
          "name": "tokens",
          "type": "address[]"
        },
        {
          "internalType": "uint256[]",
          "name": "tokenAmounts",
          "type": "uint256[]"
        },
        {
          "internalType": "bytes",
          "name": "options",
          "type": "bytes"
        }
      ],
      "name": "pull",
      "outputs": [
        {
          "internalType": "uint256[]",
          "name": "actualTokenAmounts",
          "type": "uint256[]"
        }
      ],
      "stateMutability": "nonpayable",
      "type": "function"
    },
    {
      "inputs": [],
      "name": "pullExistentials",
      "outputs": [
        {
          "internalType": "uint256[]",
          "name": "",
          "type": "uint256[]"
        }
      ],
      "stateMutability": "view",
      "type": "function"
    },
    {
      "inputs": [
        {
          "internalType": "address[]",
          "name": "tokens",
          "type": "address[]"
        },
        {
          "internalType": "uint256[]",
          "name": "tokenAmounts",
          "type": "uint256[]"
        },
        {
          "internalType": "bytes",
          "name": "options",
          "type": "bytes"
        }
      ],
      "name": "push",
      "outputs": [
        {
          "internalType": "uint256[]",
          "name": "actualTokenAmounts",
          "type": "uint256[]"
        }
      ],
      "stateMutability": "nonpayable",
      "type": "function"
    },
    {
      "inputs": [
        {
          "internalType": "address[]",
          "name": "tokens",
          "type": "address[]"
        }
      ],
      "name": "reclaimTokens",
      "outputs": [
        {
          "internalType": "uint256[]",
          "name": "actualTokenAmounts",
          "type": "uint256[]"
        }
      ],
      "stateMutability": "nonpayable",
      "type": "function"
    },
    {
      "inputs": [],
      "name": "stakingLiquidityGauge",
      "outputs": [
        {
          "internalType": "contract IStakingLiquidityGauge",
          "name": "",
          "type": "address"
        }
      ],
      "stateMutability": "view",
      "type": "function"
    },
    {
      "inputs": [
        {
          "internalType": "bytes4",
          "name": "interfaceId",
          "type": "bytes4"
        }
      ],
      "name": "supportsInterface",
      "outputs": [
        {
          "internalType": "bool",
          "name": "",
          "type": "bool"
        }
      ],
      "stateMutability": "view",
      "type": "function"
    },
    {
      "inputs": [
        {
          "internalType": "address",
          "name": "from",
          "type": "address"
        },
        {
          "internalType": "address[]",
          "name": "tokens",
          "type": "address[]"
        },
        {
          "internalType": "uint256[]",
          "name": "tokenAmounts",
          "type": "uint256[]"
        },
        {
          "internalType": "bytes",
          "name": "options",
          "type": "bytes"
        }
      ],
      "name": "transferAndPush",
      "outputs": [
        {
          "internalType": "uint256[]",
          "name": "actualTokenAmounts",
          "type": "uint256[]"
        }
      ],
      "stateMutability": "nonpayable",
      "type": "function"
    },
    {
      "inputs": [],
      "name": "tvl",
      "outputs": [
        {
          "internalType": "uint256[]",
          "name": "minTokenAmounts",
          "type": "uint256[]"
        },
        {
          "internalType": "uint256[]",
          "name": "maxTokenAmounts",
          "type": "uint256[]"
        }
      ],
      "stateMutability": "view",
      "type": "function"
    },
    {
      "inputs": [],
      "name": "vaultGovernance",
      "outputs": [
        {
          "internalType": "contract IVaultGovernance",
          "name": "",
          "type": "address"
        }
      ],
      "stateMutability": "view",
      "type": "function"
    },
    {
      "inputs": [],
      "name": "vaultTokens",
      "outputs": [
        {
          "internalType": "address[]",
          "name": "",
          "type": "address[]"
        }
      ],
      "stateMutability": "view",
      "type": "function"
    }
  ],
  "bytecode": {
    "object": "0x608060405234801561001057600080fd5b5060016000556000196004556155b9806200002c6000396000f3fe60806040526004361061014a5760003560e01c8063338c4ccb116100b6578063697222331161006f57806369722233146103d0578063823c5d7c146103f2578063d2c219b014610412578063d3d338ae14610427578063e5328e0614610447578063fe255a5e1461046a57600080fd5b8063338c4ccb1461031c578063372500ab14610354578063407924651461036b57806347ccca0214610383578063551530ae14610398578063566ca6b4146103b057600080fd5b8063158ef93e11610108578063158ef93e1461024c5780631626ba7e1461026357806316f0115b1461029c5780632062d754146102bc57806327a35e5a146102dc5780632e2f4cc2146102fc57600080fd5b8062b17aaf1461014f57806301ffc9a71461018c57806302f345b2146101bc57806305e1c942146101df5780630a41ac321461020c578063158274a51461022c575b600080fd5b34801561015b57600080fd5b5060095461016f906001600160a01b031681565b6040516001600160a01b0390911681526020015b60405180910390f35b34801561019857600080fd5b506101ac6101a736600461437d565b610488565b6040519015158152602001610183565b3480156101c857600080fd5b506101d16104b4565b604051908152602001610183565b3480156101eb57600080fd5b506101ff6101fa3660046144d6565b61084a565b6040516101839190614545565b34801561021857600080fd5b506101d1610227366004614558565b610cc2565b34801561023857600080fd5b5060075461016f906001600160a01b031681565b34801561025857600080fd5b5060045415156101ac565b34801561026f57600080fd5b5061028361027e366004614609565b610e54565b6040516001600160e01b03199091168152602001610183565b3480156102a857600080fd5b5060065461016f906001600160a01b031681565b3480156102c857600080fd5b506101ff6102d73660046146aa565b6111a1565b3480156102e857600080fd5b506101ff6102f73660046146aa565b61164d565b61030f61030a366004614744565b6117d4565b604051610183919061482d565b34801561032857600080fd5b506101ac610337366004614840565b6001600160a01b0316600090815260036020526040902054151590565b34801561036057600080fd5b50610369611aa8565b005b34801561037757600080fd5b506101d1600160601b81565b34801561038f57600080fd5b506004546101d1565b3480156103a457600080fd5b506101d1633b9aca0081565b3480156103bc57600080fd5b506101ff6103cb36600461485d565b611b97565b3480156103dc57600080fd5b506103e5611e67565b604051610183919061491d565b3480156103fe57600080fd5b5060085461016f906001600160a01b031681565b34801561041e57600080fd5b506101ff611ec9565b34801561043357600080fd5b50610369610442366004614930565b611f20565b34801561045357600080fd5b5061045c612249565b6040516101839291906149c1565b34801561047657600080fd5b506001546001600160a01b031661016f565b600061049382612601565b806104ae57506001600160e01b0319821663ec44d18560e01b145b92915050565b6009546008546040516335313c2160e11b81526001600160a01b0391821660048201526000929190911690636a62784290602401602060405180830381600087803b15801561050257600080fd5b505af1158015610516573d6000803e3d6000fd5b505050506040513d601f19601f8201168201806040525081019061053a91906149ef565b9050806105475750600090565b60015460048054604051630248cd6d60e31b8152918201526000916001600160a01b0316906312466b689060240160006040518083038186803b15801561058d57600080fd5b505afa1580156105a1573d6000803e3d6000fd5b505050506040513d6000823e601f3d908101601f191682016040526105c99190810190614c33565b905060008160200151516001600160401b038111156105ea576105ea61439a565b604051908082528060200260200182016040528015610613578160200160208202803683370190505b50905060006106448360600151846020015160008151811061063757610637614d04565b6020026020010151610cc2565b9050600061067384608001518560200151600186516106639190614d30565b8151811061063757610637614d04565b90506000610682868484612647565b90506106a6818660a00151633b9aca0061069c9190614d30565b633b9aca00612647565b905085846000815181106106bc576106bc614d04565b60209081029190910101526106d081614d47565b84600186516106df9190614d30565b815181106106ef576106ef614d04565b60200260200101818152505085856000015160008151811061071357610713614d04565b60200260200101516060018181525050610774600760009054906101000a90046001600160a01b031687876020015160008151811061075457610754614d04565b60200260200101516001600160a01b03166126fa9092919063ffffffff16565b60075485516020870151604080890151905163945bcec960e01b81526000946001600160a01b03169363945bcec9936107b79387938c9060001990600401614d7a565b600060405180830381600087803b1580156107d157600080fd5b505af11580156107e5573d6000803e3d6000fd5b505050506040513d6000823e601f3d908101601f1916820160405261080d9190810190614e9c565b9050806001865161081e9190614d30565b8151811061082e5761082e614d04565b602002602001015161083f90614d47565b965050505050505090565b60606108546127e9565b6004805460408051808201909152918252631253925560e21b6020830152908161089a5760405162461bcd60e51b8152600401610891919061482d565b60405180910390fd5b5060015460408051637ac46fbb60e01b815290516000926001600160a01b031691637ac46fbb916004808301926060929190829003018186803b1580156108e057600080fd5b505afa1580156108f4573d6000803e3d6000fd5b505050506040513d601f19601f820116820180604052508101906109189190614f21565b805160208201516040516331a9108f60e11b81526004810186905292935090916000906001600160a01b03831690636352211e9060240160206040518083038186803b15801561096757600080fd5b505afa15801561097b573d6000803e3d6000fd5b505050506040513d601f19601f8201168201806040525081019061099f9190614f92565b905060006109ae838784612843565b604051639bd0911b60e01b8152600060048201526001600160a01b039190911690639bd0911b9060240160206040518083038186803b1580156109f057600080fd5b505afa158015610a04573d6000803e3d6000fd5b505050506040513d601f19601f82011682018060405250810190610a289190614f92565b905087516001600160401b03811115610a4357610a4361439a565b604051908082528060200260200182016040528015610a6c578160200160208202803683370190505b5096506001600160a01b038116301415610a8b57505050505050610cb3565b60005b8851811015610c7057610ab4898281518110610aac57610aac614d04565b506000919050565b80610b665750846001600160a01b03166363e85d2d8a8381518110610adb57610adb614d04565b60209081029190910101516040516001600160e01b031960e084901b1681526001600160a01b0390911660048201526002602482015260440160206040518083038186803b158015610b2c57600080fd5b505afa158015610b40573d6000803e3d6000fd5b505050506040513d601f19601f82011682018060405250810190610b649190614faf565b155b15610b7057610c60565b6000898281518110610b8457610b84614d04565b60209081029190910101516040516370a0823160e01b81523060048201529091506001600160a01b038216906370a082319060240160206040518083038186803b158015610bd157600080fd5b505afa158015610be5573d6000803e3d6000fd5b505050506040513d601f19601f82011682018060405250810190610c0991906149ef565b898381518110610c1b57610c1b614d04565b602002602001018181525050610c5e838a8481518110610c3d57610c3d614d04565b6020026020010151836001600160a01b03166129169092919063ffffffff16565b505b610c6981614fca565b9050610a8e565b507f9efcb26e0cf572bd9171640e114f387cef91cd3e38532ed6b3f80c7f2e758f87818989604051610ca493929190614fe5565b60405180910390a15050505050505b610cbd6001600055565b919050565b600080836001600160a01b031663feaf968c6040518163ffffffff1660e01b815260040160a06040518083038186803b158015610cfe57600080fd5b505afa158015610d12573d6000803e3d6000fd5b505050506040513d601f19601f82011682018060405250810190610d369190615035565b5050509150506000836001600160a01b031663313ce5676040518163ffffffff1660e01b815260040160206040518083038186803b158015610d7757600080fd5b505afa158015610d8b573d6000803e3d6000fd5b505050506040513d601f19601f82011682018060405250810190610daf9190615085565b90506000856001600160a01b031663313ce5676040518163ffffffff1660e01b815260040160206040518083038186803b158015610dec57600080fd5b505afa158015610e00573d6000803e3d6000fd5b505050506040513d601f19601f82011682018060405250810190610e249190615085565b9050610e4a613d0960661b84610e3a85856150a8565b610e4590600a6151b1565b612647565b9695505050505050565b600080600160009054906101000a90046001600160a01b03166001600160a01b0316637ac46fbb6040518163ffffffff1660e01b815260040160606040518083038186803b158015610ea557600080fd5b505afa158015610eb9573d6000803e3d6000fd5b505050506040513d601f19601f82011682018060405250810190610edd9190614f21565b60208101518151600454929350909180610f0657506001600160e01b031993506104ae92505050565b60405163020604bf60e21b8152600481018290526000906001600160a01b0385169063081812fc9060240160206040518083038186803b158015610f4957600080fd5b505afa158015610f5d573d6000803e3d6000fd5b505050506040513d601f19601f82011682018060405250810190610f819190614f92565b6040516363e85d2d60e01b81526001600160a01b03808316600483015260066024830152919250908416906363e85d2d9060440160206040518083038186803b158015610fcd57600080fd5b505afa158015610fe1573d6000803e3d6000fd5b505050506040513d601f19601f820116820180604052508101906110059190614faf565b61101f57506001600160e01b031994506104ae9350505050565b803b63ffffffff811615611152576040516301ffc9a760e01b8152630b135d3f60e11b60048201526001600160a01b038316906301ffc9a79060240160206040518083038186803b15801561107357600080fd5b505afa158015611087573d6000803e3d6000fd5b505050506040513d601f19601f820116820180604052508101906110ab9190614faf565b1561113b57604051630b135d3f60e11b81526001600160a01b03831690631626ba7e906110de908c908c906004016151c0565b60206040518083038186803b1580156110f657600080fd5b505afa15801561110a573d6000803e3d6000fd5b505050506040513d601f19601f8201168201806040525081019061112e91906151d9565b96505050505050506104ae565b506001600160e01b031995506104ae945050505050565b816001600160a01b03166111668a8a61294b565b6001600160a01b0316141561118b5750630b135d3f60e11b95506104ae945050505050565b506001600160e01b031998975050505050505050565b60606111ab6127e9565b6004805460408051808201909152918252631253925560e21b602083015290816111e85760405162461bcd60e51b8152600401610891919061482d565b506111f2336129ca565b6040518060400160405280600381526020016223292160e91b8152509061122c5760405162461bcd60e51b8152600401610891919061482d565b5060015460408051637ac46fbb60e01b815290516000926001600160a01b031691637ac46fbb916004808301926060929190829003018186803b15801561127257600080fd5b505afa158015611286573d6000803e3d6000fd5b505050506040513d601f19601f820116820180604052508101906112aa9190614f21565b602001516040516331a9108f60e11b8152600481018490529091506000906001600160a01b03831690636352211e9060240160206040518083038186803b1580156112f457600080fd5b505afa158015611308573d6000803e3d6000fd5b505050506040513d601f19601f8201168201806040525081019061132c9190614f92565b9050600061133b838584612843565b90506001600160a01b038216331461157857604051639bd0911b60e01b8152600060048201819052906001600160a01b03831690639bd0911b9060240160206040518083038186803b15801561139057600080fd5b505afa1580156113a4573d6000803e3d6000fd5b505050506040513d601f19601f820116820180604052508101906113c89190614f92565b90506001600160a01b0381163014156115235760405163fcdabd2760e01b81526001600160a01b038b8116600483015280841691639d9fd0d99187169063fcdabd279060240160206040518083038186803b15801561142657600080fd5b505afa15801561143a573d6000803e3d6000fd5b505050506040513d601f19601f8201168201806040525081019061145e91906149ef565b6040518263ffffffff1660e01b815260040161147c91815260200190565b60206040518083038186803b15801561149457600080fd5b505afa1580156114a8573d6000803e3d6000fd5b505050506040513d601f19601f820116820180604052508101906114cc9190614faf565b80156114e157506001600160a01b038a163014155b6040518060400160405280600581526020016424a72b2a2960d91b8152509061151d5760405162461bcd60e51b8152600401610891919061482d565b50611576565b896001600160a01b0316816001600160a01b0316146040518060400160405280600581526020016424a72b2a2960d91b815250906115745760405162461bcd60e51b8152600401610891919061482d565b505b505b60006115848989612b88565b905060006115938b838a612c74565b90506115fa8a60028054806020026020016040519081016040528092919081815260200182805480156115ef57602002820191906000526020600020905b81546001600160a01b031681526001909101906020018083116115d1575b505050505083613320565b96507f54f9e6ef58e36de62f59f9ee6c4b878af84989c53a3642eba415ac3ac4e11cda8b8860405161162d9291906151f6565b60405180910390a15050505050506116456001600055565b949350505050565b825160609060005b818110156116e05784818151811061166f5761166f614d04565b60200260200101516000146116d0576116d0873087848151811061169557611695614d04565b60200260200101518985815181106116af576116af614d04565b60200260200101516001600160a01b0316613541909392919063ffffffff16565b6116d981614fca565b9050611655565b506116ec858585611b97565b915060005b85518110156117ca57600085828151811061170e5761170e614d04565b602002602001015184838151811061172857611728614d04565b60200260200101511061173c57600061177a565b83828151811061174e5761174e614d04565b602002602001015186838151811061176857611768614d04565b602002602001015161177a9190614d30565b905080156117b9576117b9888289858151811061179957611799614d04565b60200260200101516001600160a01b03166129169092919063ffffffff16565b506117c381614fca565b90506116f1565b5050949350505050565b60606117de6127e9565b6004805460408051808201909152918252631253925560e21b60208301526118195760405162461bcd60e51b8152600401610891919061482d565b50611823336129ca565b6040518060400160405280600381526020016223292160e91b8152509061185d5760405162461bcd60e51b8152600401610891919061482d565b5060015460408051637ac46fbb60e01b815290516000926001600160a01b031691637ac46fbb916004808301926060929190829003018186803b1580156118a357600080fd5b505afa1580156118b7573d6000803e3d6000fd5b505050506040513d601f19601f820116820180604052508101906118db9190614f21565b51604051631f4a58fb60e31b81526001600160a01b03888116600483015291925060009183169063fa52c7d89060240160206040518083038186803b15801561192357600080fd5b505afa158015611937573d6000803e3d6000fd5b505050506040513d601f19601f8201168201806040525081019061195b9190614f92565b60408051808201909152600381526223292160e91b60208201529091506001600160a01b03821661199f5760405162461bcd60e51b8152600401610891919061482d565b50604051631796170d60e21b81526001600160a01b03821690635e585c34906119d69033908b9034908c908c908c9060040161521a565b60006040518083038186803b1580156119ee57600080fd5b505afa158015611a02573d6000803e3d6000fd5b50505050600080886001600160a01b031634898989604051602001611a299392919061527f565b60408051601f1981840301815290829052611a43916152a3565b60006040518083038185875af1925050503d8060008114611a80576040519150601f19603f3d011682016040523d82523d6000602084013e611a85565b606091505b509150915081611a985780518082602001fd5b6001600055935061164592505050565b60085460015460048054604051630248cd6d60e31b8152918201526001600160a01b03928316926384e9bd7e9216906312466b689060240160006040518083038186803b158015611af857600080fd5b505afa158015611b0c573d6000803e3d6000fd5b505050506040513d6000823e601f3d908101601f19168201604052611b349190810190614c33565b60409081015181015190516001600160e01b031960e084901b1681526001600160a01b039091166004820152602401600060405180830381600087803b158015611b7d57600080fd5b505af1158015611b91573d6000803e3d6000fd5b50505050565b6060611ba16127e9565b6004805460408051808201909152918252631253925560e21b60208301529081611bde5760405162461bcd60e51b8152600401610891919061482d565b5060015460408051637ac46fbb60e01b815290516000926001600160a01b031691637ac46fbb916004808301926060929190829003018186803b158015611c2457600080fd5b505afa158015611c38573d6000803e3d6000fd5b505050506040513d601f19601f82011682018060405250810190611c5c9190614f21565b602001516040516331a9108f60e11b8152600481018490529091506000906001600160a01b03831690636352211e9060240160206040518083038186803b158015611ca657600080fd5b505afa158015611cba573d6000803e3d6000fd5b505050506040513d601f19601f82011682018060405250810190611cde9190614f92565b60405163fcdabd2760e01b81526001600160a01b03808316600483015291925060009184169063fcdabd279060240160206040518083038186803b158015611d2557600080fd5b505afa158015611d39573d6000803e3d6000fd5b505050506040513d601f19601f82011682018060405250810190611d5d91906149ef565b604080518082019091526002815261272360f11b602082015290915081611d975760405162461bcd60e51b8152600401610891919061482d565b506000611da48989612b88565b90506000611db28289613579565b9050611e178a60028054806020026020016040519081016040528092919081815260200182805480156115ef576020028201919060005260206000209081546001600160a01b031681526001909101906020018083116115d157505050505083613320565b96507f08e404e978692dd1b8275016b7a7b0b3ae4afd06b0cec7228060bb2da18c84fd81604051611e489190614545565b60405180910390a1505050505050611e606001600055565b9392505050565b60606002805480602002602001604051908101604052809291908181526020018280548015611ebf57602002820191906000526020600020905b81546001600160a01b03168152600190910190602001808311611ea1575b5050505050905090565b60606005805480602002602001604051908101604052809291908181526020018280548015611ebf57602002820191906000526020600020905b815481526020019060010190808311611f03575050505050905090565b6001600160a01b03841615801590611f4057506001600160a01b03831615155b8015611f5457506001600160a01b03821615155b8015611f6857506001600160a01b03811615155b6040518060400160405280600281526020016120ad60f11b81525090611fa15760405162461bcd60e51b8152600401610891919061482d565b50600680546001600160a01b038087166001600160a01b03199283168117909355600780548783169084168117909155600980548684169085161790556008805492871692909316919091179091556040805163038fff2d60e41b8152905160009363f94d46689290916338fff2d091600480820192602092909190829003018186803b15801561203157600080fd5b505afa158015612045573d6000803e3d6000fd5b505050506040513d601f19601f8201168201806040525081019061206991906149ef565b6040518263ffffffff1660e01b815260040161208791815260200190565b60006040518083038186803b15801561209f57600080fd5b505afa1580156120b3573d6000803e3d6000fd5b505050506040513d6000823e601f3d908101601f191682016040526120db919081019061531a565b505090508051865160016120ef91906153e7565b146040518060400160405280600381526020016224a72b60e91b8152509061212a5760405162461bcd60e51b8152600401610891919061482d565b506000805b825181101561221857600083828151811061214c5761214c614d04565b6020026020010151905088838151811061216857612168614d04565b60200260200101516001600160a01b0316816001600160a01b031614156121b2578261219381614fca565b93506121ad90506001600160a01b03821688600019613a09565b612205565b876001600160a01b0316816001600160a01b03161460405180604001604052806005815260200164494e56544f60d81b815250906122035760405162461bcd60e51b8152600401610891919061482d565b505b508061221081614fca565b91505061212f565b50600854612235906001600160a01b038881169116600019613a09565b61223f8789613b2d565b5050505050505050565b6060806000600660009054906101000a90046001600160a01b03166001600160a01b03166338fff2d06040518163ffffffff1660e01b815260040160206040518083038186803b15801561229c57600080fd5b505afa1580156122b0573d6000803e3d6000fd5b505050506040513d601f19601f820116820180604052508101906122d491906149ef565b600754604051631f29a8cd60e31b81526004810183905291925060009182916001600160a01b03169063f94d46689060240160006040518083038186803b15801561231e57600080fd5b505afa158015612332573d6000803e3d6000fd5b505050506040513d6000823e601f3d908101601f1916820160405261235a919081019061531a565b50915091506001825161236d9190614d30565b6001600160401b038111156123845761238461439a565b6040519080825280602002602001820160405280156123ad578160200160208202803683370190505b5094506000600660009054906101000a90046001600160a01b03166001600160a01b031663876f303b6040518163ffffffff1660e01b815260040160206040518083038186803b15801561240057600080fd5b505afa158015612414573d6000803e3d6000fd5b505050506040513d601f19601f8201168201806040525081019061243891906149ef565b9050600081156125f5576008546040516370a0823160e01b81523060048201526000916001600160a01b0316906370a082319060240160206040518083038186803b15801561248657600080fd5b505afa15801561249a573d6000803e3d6000fd5b505050506040513d601f19601f820116820180604052508101906124be91906149ef565b6006546040516370a0823160e01b81523060048201529192506001600160a01b0316906370a082319060240160206040518083038186803b15801561250257600080fd5b505afa158015612516573d6000803e3d6000fd5b505050506040513d601f19601f8201168201806040525081019061253a91906149ef565b61254490826153e7565b905060005b85518110156125f25760065486516001600160a01b039091169087908390811061257557612575614d04565b60200260200101516001600160a01b03161415612591576125e0565b6125b58582815181106125a6576125a6614d04565b60200260200101518386612647565b8984815181106125c7576125c7614d04565b6020908102919091010152826125dc81614fca565b9350505b806125ea81614fca565b915050612549565b50505b86955050505050509091565b600061260c82613fb8565b8061262757506001600160e01b03198216633d31d51d60e11b145b806104ae57506001600160e01b03198216630b135d3f60e11b1492915050565b600080806000198587098587029250828110838203039150508060001415612681576000841161267657600080fd5b508290049050611e60565b80841161268d57600080fd5b6000848688096000868103871696879004966002600389028118808a02820302808a02820302808a02820302808a02820302808a02820302808a02909103029181900381900460010186841190950394909402919094039290920491909117919091029150509392505050565b604051636eb1769f60e11b81523060048201526001600160a01b0383811660248301526000919085169063dd62ed3e9060440160206040518083038186803b15801561274557600080fd5b505afa158015612759573d6000803e3d6000fd5b505050506040513d601f19601f8201168201806040525081019061277d91906149ef565b9050611b918463095ea7b360e01b8561279686866153e7565b6040516001600160a01b03909216602483015260448201526064015b60408051601f198184030181529190526020810180516001600160e01b03166001600160e01b031990931692909217909152613fee565b6002600054141561283c5760405162461bcd60e51b815260206004820152601f60248201527f5265656e7472616e637947756172643a207265656e7472616e742063616c6c006044820152606401610891565b6002600055565b60405163fcdabd2760e01b81526001600160a01b038281166004830152600091829186169063fcdabd279060240160206040518083038186803b15801561288957600080fd5b505afa15801561289d573d6000803e3d6000fd5b505050506040513d601f19601f820116820180604052508101906128c191906149ef565b905083158015906128d157508015155b604051806040016040528060048152602001631253925560e21b8152509061290c5760405162461bcd60e51b8152600401610891919061482d565b5091949350505050565b6040516001600160a01b03831660248201526044810182905261294690849063a9059cbb60e01b906064016127b2565b505050565b60008060008061295a856140c3565b6040805160008152602081018083528b905260ff8316918101919091526060810184905260808101839052929550909350915060019060a0016020604051602081039080840390855afa1580156129b5573d6000803e3d6000fd5b5050604051601f190151979650505050505050565b600080600160009054906101000a90046001600160a01b03166001600160a01b0316637ac46fbb6040518163ffffffff1660e01b815260040160606040518083038186803b158015612a1b57600080fd5b505afa158015612a2f573d6000803e3d6000fd5b505050506040513d601f19601f82011682018060405250810190612a539190614f21565b6020015160045490915080612a6c575060009392505050565b60405163020604bf60e21b8152600481018290526001600160a01b03808616919084169063081812fc9060240160206040518083038186803b158015612ab157600080fd5b505afa158015612ac5573d6000803e3d6000fd5b505050506040513d601f19601f82011682018060405250810190612ae99190614f92565b6001600160a01b0316148061164557506040516331a9108f60e11b8152600481018290526001600160a01b038086169190841690636352211e9060240160206040518083038186803b158015612b3e57600080fd5b505afa158015612b52573d6000803e3d6000fd5b505050506040513d601f19601f82011682018060405250810190612b769190614f92565b6001600160a01b031614949350505050565b6060612b9383614127565b60405180604001604052806004815260200163494e564160e01b81525090612bce5760405162461bcd60e51b8152600401610891919061482d565b5081518351146040518060400160405280600381526020016224a72b60e91b81525090612c0e5760405162461bcd60e51b8152600401610891919061482d565b50611e606002805480602002602001604051908101604052809291908181526020018280548015612c6857602002820191906000526020600020905b81546001600160a01b03168152600190910190602001808311612c4a575b50505050508484613320565b606082516001600160401b03811115612c8f57612c8f61439a565b604051908082528060200260200182016040528015612cb8578160200160208202803683370190505b506008546040516370a0823160e01b81523060048201529192506001600160a01b031690632e1a7d4d9082906370a082319060240160206040518083038186803b158015612d0557600080fd5b505afa158015612d19573d6000803e3d6000fd5b505050506040513d601f19601f82011682018060405250810190612d3d91906149ef565b6040518263ffffffff1660e01b8152600401612d5b91815260200190565b600060405180830381600087803b158015612d7557600080fd5b505af1158015612d89573d6000803e3d6000fd5b505050506000600660009054906101000a90046001600160a01b03166001600160a01b03166338fff2d06040518163ffffffff1660e01b815260040160206040518083038186803b158015612ddd57600080fd5b505afa158015612df1573d6000803e3d6000fd5b505050506040513d601f19601f82011682018060405250810190612e1591906149ef565b600754604051631f29a8cd60e31b81526004810183905291925060009182916001600160a01b03169063f94d46689060240160006040518083038186803b158015612e5f57600080fd5b505afa158015612e73573d6000803e3d6000fd5b505050506040513d6000823e601f3d908101601f19168201604052612e9b919081019061531a565b509150915060008060005b8451811015612f5957848181518110612ec157612ec1614d04565b60209081029190910101516006546001600160a01b0390811691161415612ee757612f47565b6000612f2a8a8481518110612efe57612efe614d04565b6020026020010151600160601b878581518110612f1d57612f1d614d04565b6020026020010151612647565b905082612f3681614fca565b93505080841015612f45578093505b505b80612f5181614fca565b915050612ea6565b50506000805b845181101561300557848181518110612f7a57612f7a614d04565b60209081029190910101516006546001600160a01b0390811691161415612fa057612ff3565b612fc883858381518110612fb657612fb6614d04565b6020026020010151600160601b612647565b878381518110612fda57612fda614d04565b602090810291909101015281612fef81614fca565b9250505b80612ffd81614fca565b915050612f5f565b5050600083516001600160401b038111156130225761302261439a565b60405190808252806020026020018201604052801561304b578160200160208202803683370190505b509050600084516001600160401b038111156130695761306961439a565b604051908082528060200260200182016040528015613092578160200160208202803683370190505b5090506000805b8651811015613171578681815181106130b4576130b4614d04565b60200260200101518382815181106130ce576130ce614d04565b6001600160a01b03928316602091820292909201015260065488519116908890839081106130fe576130fe614d04565b60200260200101516001600160a01b0316141561311a5761315f565b88828151811061312c5761312c614d04565b602002602001015184828151811061314657613146614d04565b60209081029190910101528161315b81614fca565b9250505b8061316981614fca565b915050613099565b5050600760009054906101000a90046001600160a01b03166001600160a01b0316638bdb391387308d604051806080016040528087815260200188815260200160018e6000196040516020016131c9939291906153ff565b6040516020818303038152906040528152602001600015158152506040518563ffffffff1660e01b815260040161320394939291906154c3565b600060405180830381600087803b15801561321d57600080fd5b505af1158015613231573d6000803e3d6000fd5b50506008546006546040516370a0823160e01b81523060048201526001600160a01b039283169450636e553f6593509116906370a082319060240160206040518083038186803b15801561328457600080fd5b505afa158015613298573d6000803e3d6000fd5b505050506040513d601f19601f820116820180604052508101906132bc91906149ef565b6040516001600160e01b031960e084901b1681526004810191909152306024820152604401600060405180830381600087803b1580156132fb57600080fd5b505af115801561330f573d6000803e3d6000fd5b505050505050505050509392505050565b6060600084516001600160401b0381111561333d5761333d61439a565b604051908082528060200260200182016040528015613366578160200160208202803683370190505b5090506000805b86518210801561337d5750855181105b156134fc5785818151811061339457613394614d04565b60200260200101516001600160a01b03168783815181106133b7576133b7614d04565b60200260200101516001600160a01b031610156133ff5760008383815181106133e2576133e2614d04565b6020908102919091010152816133f781614fca565b92505061336d565b85818151811061341157613411614d04565b60200260200101516001600160a01b031687838151811061343457613434614d04565b60200260200101516001600160a01b031611156134ad5784818151811061345d5761345d614d04565b60200260200101516000141561347f578061347781614fca565b91505061336d565b60405162461bcd60e51b815260206004820152600360248201526254505360e81b6044820152606401610891565b8481815181106134bf576134bf614d04565b60200260200101518383815181106134d9576134d9614d04565b6020908102919091010152816134ee81614fca565b925050808061347790614fca565b865182101561353657600083838151811061351957613519614d04565b60209081029190910101528161352e81614fca565b9250506134fc565b509095945050505050565b6040516001600160a01b0380851660248301528316604482015260648101829052611b919085906323b872dd60e01b906084016127b2565b60606000600660009054906101000a90046001600160a01b03166001600160a01b03166338fff2d06040518163ffffffff1660e01b815260040160206040518083038186803b1580156135cb57600080fd5b505afa1580156135df573d6000803e3d6000fd5b505050506040513d601f19601f8201168201806040525081019061360391906149ef565b600754604051631f29a8cd60e31b81526004810183905291925060609182916000916001600160a01b039091169063f94d46689060240160006040518083038186803b15801561365257600080fd5b505afa158015613666573d6000803e3d6000fd5b505050506040513d6000823e601f3d908101601f1916820160405261368e919081019061531a565b5050905080516001600160401b038111156136ab576136ab61439a565b6040519080825280602002602001820160405280156136d4578160200160208202803683370190505b50915080516001600160401b038111156136f0576136f061439a565b604051908082528060200260200182016040528015613719578160200160208202803683370190505b5092506000805b82518110156137f85782818151811061373b5761373b614d04565b602002602001015185828151811061375557613755614d04565b6001600160a01b039283166020918202929092010152600654845191169084908390811061378557613785614d04565b60200260200101516001600160a01b031614156137a1576137e6565b8882815181106137b3576137b3614d04565b60200260200101518482815181106137cd576137cd614d04565b6020908102919091010152816137e281614fca565b9250505b806137f081614fca565b915050613720565b505050600760009054906101000a90046001600160a01b03166001600160a01b031663b95cac28843030604051806080016040528088815260200187815260200160018d6000604051602001613850939291906154f5565b6040516020818303038152906040528152602001600015158152506040518563ffffffff1660e01b815260040161388a94939291906154c3565b600060405180830381600087803b1580156138a457600080fd5b505af11580156138b8573d6000803e3d6000fd5b50506006546040516370a0823160e01b8152306004820152600093506001600160a01b0390911691506370a082319060240160206040518083038186803b15801561390257600080fd5b505afa158015613916573d6000803e3d6000fd5b505050506040513d601f19601f8201168201806040525081019061393a91906149ef565b865190915015613998578580602001905181019061395891906149ef565b811015604051806040016040528060048152602001634c494d5560e01b815250906139965760405162461bcd60e51b8152600401610891919061482d565b505b600854604051636e553f6560e01b8152600481018390523060248201528896506001600160a01b0390911690636e553f6590604401600060405180830381600087803b1580156139e757600080fd5b505af11580156139fb573d6000803e3d6000fd5b505050505050505092915050565b801580613a925750604051636eb1769f60e11b81523060048201526001600160a01b03838116602483015284169063dd62ed3e9060440160206040518083038186803b158015613a5857600080fd5b505afa158015613a6c573d6000803e3d6000fd5b505050506040513d601f19601f82011682018060405250810190613a9091906149ef565b155b613afd5760405162461bcd60e51b815260206004820152603660248201527f5361666545524332303a20617070726f76652066726f6d206e6f6e2d7a65726f60448201527520746f206e6f6e2d7a65726f20616c6c6f77616e636560501b6064820152608401610891565b6040516001600160a01b03831660248201526044810182905261294690849063095ea7b360e01b906064016127b2565b6004805460408051808201909152918252631253925560e21b602083015215613b695760405162461bcd60e51b8152600401610891919061482d565b50613b7382614127565b60405180604001604052806004815260200163494e564160e01b81525090613bae5760405162461bcd60e51b8152600401610891919061482d565b506040805180820190915260028152612b2d60f11b602082015281613be65760405162461bcd60e51b8152600401610891919061482d565b506000336001600160a01b0316637ac46fbb6040518163ffffffff1660e01b815260040160606040518083038186803b158015613c2257600080fd5b505afa158015613c36573d6000803e3d6000fd5b505050506040513d601f19601f82011682018060405250810190613c5a9190614f21565b51835190915015801590613cdf5750806001600160a01b03166378546fa26040518163ffffffff1660e01b815260040160206040518083038186803b158015613ca257600080fd5b505afa158015613cb6573d6000803e3d6000fd5b505050506040513d601f19601f82011682018060405250810190613cda91906149ef565b835111155b6040518060400160405280600381526020016224a72b60e91b81525090613d195760405162461bcd60e51b8152600401610891919061482d565b5060005b8351811015613e1d57816001600160a01b03166363e85d2d858381518110613d4757613d47614d04565b60209081029190910101516040516001600160e01b031960e084901b1681526001600160a01b0390911660048201526003602482015260440160206040518083038186803b158015613d9857600080fd5b505afa158015613dac573d6000803e3d6000fd5b505050506040513d601f19601f82011682018060405250810190613dd09190614faf565b6040518060400160405280600381526020016223292160e91b81525090613e0a5760405162461bcd60e51b8152600401610891919061482d565b5080613e1581614fca565b915050613d1d565b50600180546001600160a01b031916331790558251613e439060029060208601906142ea565b50600482905560025460005b81811015613f7357613e628160016153e7565b60036000878481518110613e7857613e78614d04565b60200260200101516001600160a01b03166001600160a01b03168152602001908152602001600020819055506000858281518110613eb857613eb8614d04565b6020026020010151905060056002826001600160a01b031663313ce5676040518163ffffffff1660e01b815260040160206040518083038186803b158015613eff57600080fd5b505afa158015613f13573d6000803e3d6000fd5b505050506040513d601f19601f82011682018060405250810190613f379190615085565b613f419190615531565b613f4c90600a6151b1565b8154600181018355600092835260209092209091015550613f6c81614fca565b9050613e4f565b50604051339032907f0f043e55a1ce0d7ce25125ccbc2800b540d83e21abf7250f0156c2091a28b22190613faa9088908890615561565b60405180910390a350505050565b60006301ffc9a760e01b6001600160e01b0319831614806104ae57506001600160e01b0319821663305a640b60e21b1492915050565b6000614043826040518060400160405280602081526020017f5361666545524332303a206c6f772d6c6576656c2063616c6c206661696c6564815250856001600160a01b03166141ca9092919063ffffffff16565b90508051600014806140645750808060200190518101906140649190614faf565b6129465760405162461bcd60e51b815260206004820152602a60248201527f5361666545524332303a204552433230206f7065726174696f6e20646964206e6044820152691bdd081cdd58d8d9595960b21b6064820152608401610891565b60008060008351604114604051806040016040528060048152602001631253959360e21b815250906141085760405162461bcd60e51b8152600401610891919061482d565b5050505060208101516040820151606090920151909260009190911a90565b600060028251101561413b57506001919050565b60005b6001835161414c9190614d30565b8110156141c1578261415f8260016153e7565b8151811061416f5761416f614d04565b60200260200101516001600160a01b031683828151811061419257614192614d04565b60200260200101516001600160a01b0316106141b15750600092915050565b6141ba81614fca565b905061413e565b50600192915050565b6060611645848460008585600080866001600160a01b031685876040516141f191906152a3565b60006040518083038185875af1925050503d806000811461422e576040519150601f19603f3d011682016040523d82523d6000602084013e614233565b606091505b50915091506142448783838761424f565b979650505050505050565b606083156142bb5782516142b4576001600160a01b0385163b6142b45760405162461bcd60e51b815260206004820152601d60248201527f416464726573733a2063616c6c20746f206e6f6e2d636f6e74726163740000006044820152606401610891565b5081611645565b61164583838151156142d05781518083602001fd5b8060405162461bcd60e51b8152600401610891919061482d565b82805482825590600052602060002090810192821561433f579160200282015b8281111561433f57825182546001600160a01b0319166001600160a01b0390911617825560209092019160019091019061430a565b5061434b92915061434f565b5090565b5b8082111561434b5760008155600101614350565b6001600160e01b03198116811461437a57600080fd5b50565b60006020828403121561438f57600080fd5b8135611e6081614364565b634e487b7160e01b600052604160045260246000fd5b60405160a081016001600160401b03811182821017156143d2576143d261439a565b60405290565b60405160c081016001600160401b03811182821017156143d2576143d261439a565b604051601f8201601f191681016001600160401b03811182821017156144225761442261439a565b604052919050565b60006001600160401b038211156144435761444361439a565b5060051b60200190565b6001600160a01b038116811461437a57600080fd5b600082601f83011261447357600080fd5b813560206144886144838361442a565b6143fa565b82815260059290921b840181019181810190868411156144a757600080fd5b8286015b848110156144cb5780356144be8161444d565b83529183019183016144ab565b509695505050505050565b6000602082840312156144e857600080fd5b81356001600160401b038111156144fe57600080fd5b61164584828501614462565b600081518084526020808501945080840160005b8381101561453a5781518752958201959082019060010161451e565b509495945050505050565b602081526000611e60602083018461450a565b6000806040838503121561456b57600080fd5b82356145768161444d565b915060208301356145868161444d565b809150509250929050565b60006001600160401b038211156145aa576145aa61439a565b50601f01601f191660200190565b600082601f8301126145c957600080fd5b81356145d761448382614591565b8181528460208386010111156145ec57600080fd5b816020850160208301376000918101602001919091529392505050565b6000806040838503121561461c57600080fd5b8235915060208301356001600160401b0381111561463957600080fd5b614645858286016145b8565b9150509250929050565b600082601f83011261466057600080fd5b813560206146706144838361442a565b82815260059290921b8401810191818101908684111561468f57600080fd5b8286015b848110156144cb5780358352918301918301614693565b600080600080608085870312156146c057600080fd5b84356146cb8161444d565b935060208501356001600160401b03808211156146e757600080fd5b6146f388838901614462565b9450604087013591508082111561470957600080fd5b6147158883890161464f565b9350606087013591508082111561472b57600080fd5b50614738878288016145b8565b91505092959194509250565b6000806000806060858703121561475a57600080fd5b84356147658161444d565b9350602085013561477581614364565b925060408501356001600160401b038082111561479157600080fd5b818701915087601f8301126147a557600080fd5b8135818111156147b457600080fd5b8860208285010111156147c657600080fd5b95989497505060200194505050565b60005b838110156147f05781810151838201526020016147d8565b83811115611b915750506000910152565b600081518084526148198160208601602086016147d5565b601f01601f19169290920160200192915050565b602081526000611e606020830184614801565b60006020828403121561485257600080fd5b8135611e608161444d565b60008060006060848603121561487257600080fd5b83356001600160401b038082111561488957600080fd5b61489587838801614462565b945060208601359150808211156148ab57600080fd5b6148b78783880161464f565b935060408601359150808211156148cd57600080fd5b506148da868287016145b8565b9150509250925092565b600081518084526020808501945080840160005b8381101561453a5781516001600160a01b0316875295820195908201906001016148f8565b602081526000611e6060208301846148e4565b60008060008060008060c0878903121561494957600080fd5b8635955060208701356001600160401b0381111561496657600080fd5b61497289828a01614462565b95505060408701356149838161444d565b935060608701356149938161444d565b925060808701356149a38161444d565b915060a08701356149b38161444d565b809150509295509295509295565b6040815260006149d4604083018561450a565b82810360208401526149e6818561450a565b95945050505050565b600060208284031215614a0157600080fd5b5051919050565b600082601f830112614a1957600080fd5b81516020614a296144838361442a565b82815260059290921b84018101918181019086841115614a4857600080fd5b8286015b848110156144cb5780516001600160401b0380821115614a6c5760008081fd5b9088019060a0828b03601f1901811315614a865760008081fd5b614a8e6143b0565b838801518152604080850151828a01526060808601518284015260808087015182850152938601519385851115614ac757600091508182fd5b84870196508e603f880112614ade57600095508586fd5b8a8701519550614af061448387614591565b94508585528e83878901011115614b0957600091508182fd5b614b18868c8701858a016147d5565b830193909352508652505050918301918301614a4c565b600082601f830112614b4057600080fd5b81516020614b506144838361442a565b82815260059290921b84018101918181019086841115614b6f57600080fd5b8286015b848110156144cb578051614b868161444d565b8352918301918301614b73565b80518015158114610cbd57600080fd5b600060808284031215614bb557600080fd5b604051608081018181106001600160401b0382111715614bd757614bd761439a565b80604052508091508251614bea8161444d565b8152614bf860208401614b93565b60208201526040830151614c0b8161444d565b6040820152614c1c60608401614b93565b60608201525092915050565b8051610cbd8161444d565b600060208284031215614c4557600080fd5b81516001600160401b0380821115614c5c57600080fd5b908301906101208286031215614c7157600080fd5b614c796143d8565b825182811115614c8857600080fd5b614c9487828601614a08565b825250602083015182811115614ca957600080fd5b614cb587828601614b2f565b602083015250614cc88660408501614ba3565b6040820152614cd960c08401614c28565b6060820152614cea60e08401614c28565b6080820152610100929092015160a0830152509392505050565b634e487b7160e01b600052603260045260246000fd5b634e487b7160e01b600052601160045260246000fd5b600082821015614d4257614d42614d1a565b500390565b6000600160ff1b821415614d5d57614d5d614d1a565b5060000390565b634e487b7160e01b600052602160045260246000fd5b600061012080830160028a10614d9257614d92614d64565b89845260208085019290925288519081905261014080850192600583901b8601909101918a820160005b82811015614e1f5787850361013f190186528151805186528481015185870152604080820151908701526060808201519087015260809081015160a091870182905290614e0b81880183614801565b978601979650505090830190600101614dbc565b505050508381036040850152614e3581896148e4565b915050614e75606084018780516001600160a01b039081168352602080830151151590840152604080830151909116908301526060908101511515910152565b82810360e0840152614e87818661450a565b91505082610100830152979650505050505050565b60006020808385031215614eaf57600080fd5b82516001600160401b03811115614ec557600080fd5b8301601f81018513614ed657600080fd5b8051614ee46144838261442a565b81815260059190911b82018301908381019087831115614f0357600080fd5b928401925b8284101561424457835182529284019290840190614f08565b600060608284031215614f3357600080fd5b604051606081018181106001600160401b0382111715614f5557614f5561439a565b6040528251614f638161444d565b81526020830151614f738161444d565b60208201526040830151614f868161444d565b60408201529392505050565b600060208284031215614fa457600080fd5b8151611e608161444d565b600060208284031215614fc157600080fd5b611e6082614b93565b6000600019821415614fde57614fde614d1a565b5060010190565b6001600160a01b0384168152606060208201819052600090615009908301856148e4565b8281036040840152610e4a818561450a565b805169ffffffffffffffffffff81168114610cbd57600080fd5b600080600080600060a0868803121561504d57600080fd5b6150568661501b565b94506020860151935060408601519250606086015191506150796080870161501b565b90509295509295909350565b60006020828403121561509757600080fd5b815160ff81168114611e6057600080fd5b600060ff821660ff84168060ff038211156150c5576150c5614d1a565b019392505050565b600181815b808511156151085781600019048211156150ee576150ee614d1a565b808516156150fb57918102915b93841c93908002906150d2565b509250929050565b60008261511f575060016104ae565b8161512c575060006104ae565b8160018114615142576002811461514c57615168565b60019150506104ae565b60ff84111561515d5761515d614d1a565b50506001821b6104ae565b5060208310610133831016604e8410600b841016171561518b575081810a6104ae565b61519583836150cd565b80600019048211156151a9576151a9614d1a565b029392505050565b6000611e6060ff841683615110565b8281526040602082015260006116456040830184614801565b6000602082840312156151eb57600080fd5b8151611e6081614364565b6001600160a01b03831681526040602082018190526000906116459083018461450a565b6001600160a01b03878116825286166020820152604081018590526001600160e01b03198416606082015260a06080820181905281018290526000828460c0840137600060c0848401015260c0601f19601f8501168301019050979650505050505050565b6001600160e01b031984168152818360048301376000910160040190815292915050565b600082516152b58184602087016147d5565b9190910192915050565b600082601f8301126152d057600080fd5b815160206152e06144838361442a565b82815260059290921b840181019181810190868411156152ff57600080fd5b8286015b848110156144cb5780518352918301918301615303565b60008060006060848603121561532f57600080fd5b83516001600160401b038082111561534657600080fd5b818601915086601f83011261535a57600080fd5b8151602061536a6144838361442a565b82815260059290921b8401810191818101908a84111561538957600080fd5b948201945b838610156153b05785516153a18161444d565b8252948201949082019061538e565b918901519197509093505050808211156153c957600080fd5b506153d6868287016152bf565b925050604084015190509250925092565b600082198211156153fa576153fa614d1a565b500190565b60006003851061541157615411614d64565b84825260606020830152615428606083018561450a565b9050826040830152949350505050565b600081516080845261544d60808501826148e4565b60208481015186830387830152805180845290820193509091600091908301905b8083101561548e578451825293830193600192909201919083019061546e565b506040860151935086810360408801526154a88185614801565b93505050506060830151151560608501528091505092915050565b8481526001600160a01b03848116602083015283166040820152608060608201819052600090610e4a90830184615438565b60006004851061550757615507614d64565b8482526060602083015261551e606083018561450a565b905060ff83166040830152949350505050565b600060ff83168061555257634e487b7160e01b600052601260045260246000fd5b8060ff84160491505092915050565b60408152600061557460408301856148e4565b9050826020830152939250505056fea26469706673582212201bb431f83437e13895a382cbbb5762731566bd4a9a1c89672c4493450d29cb9f64736f6c63430008090033",
    "linkReferences": {}
  },
  "methodIdentifiers": {
    "D9()": "551530ae",
    "Q96()": "40792465",
    "balancerMinter()": "00b17aaf",
    "balancerVault()": "158274a5",
    "claimBalancerRewardToken()": "02f345b2",
    "claimRewards()": "372500ab",
    "externalCall(address,bytes4,bytes)": "2e2f4cc2",
    "getPriceToUSDX96(address,address)": "0a41ac32",
    "initialize(uint256,address[],address,address,address,address)": "d3d338ae",
    "initialized()": "158ef93e",
    "isValidSignature(bytes32,bytes)": "1626ba7e",
    "isVaultToken(address)": "338c4ccb",
    "nft()": "47ccca02",
    "pool()": "16f0115b",
    "pull(address,address[],uint256[],bytes)": "2062d754",
    "pullExistentials()": "d2c219b0",
    "push(address[],uint256[],bytes)": "566ca6b4",
    "reclaimTokens(address[])": "05e1c942",
    "stakingLiquidityGauge()": "823c5d7c",
    "supportsInterface(bytes4)": "01ffc9a7",
    "transferAndPush(address,address[],uint256[],bytes)": "27a35e5a",
    "tvl()": "e5328e06",
    "vaultGovernance()": "fe255a5e",
    "vaultTokens()": "69722233"
  },
  "id": 450
}