{
  "abi": [
    {
      "inputs": [
        {
          "internalType": "contract IAlgebraNonfungiblePositionManager",
          "name": "positionManager_",
          "type": "address"
        },
        {
          "internalType": "contract IQuickSwapHelper",
          "name": "helper_",
          "type": "address"
        },
        {
          "internalType": "contract IAlgebraSwapRouter",
          "name": "swapRouter_",
          "type": "address"
        },
        {
          "internalType": "contract IFarmingCenter",
          "name": "farmingCenter_",
          "type": "address"
        },
        {
          "internalType": "address",
          "name": "dQuickToken_",
          "type": "address"
        },
        {
          "internalType": "address",
          "name": "quickToken_",
          "type": "address"
        }
      ],
      "stateMutability": "nonpayable",
      "type": "constructor"
    },
    {
      "anonymous": false,
      "inputs": [
        {
          "indexed": true,
          "internalType": "address",
          "name": "origin",
          "type": "address"
        },
        {
          "indexed": true,
          "internalType": "address",
          "name": "sender",
          "type": "address"
        },
        {
          "indexed": false,
          "internalType": "uint256",
          "name": "amount0",
          "type": "uint256"
        },
        {
          "indexed": false,
          "internalType": "uint256",
          "name": "amount1",
          "type": "uint256"
        }
      ],
      "name": "CollectedEarnings",
      "type": "event"
    },
    {
      "anonymous": false,
      "inputs": [
        {
          "indexed": true,
          "internalType": "address",
          "name": "origin",
          "type": "address"
        },
        {
          "indexed": true,
          "internalType": "address",
          "name": "sender",
          "type": "address"
        },
        {
          "indexed": false,
          "internalType": "uint256",
          "name": "amount0",
          "type": "uint256"
        },
        {
          "indexed": false,
          "internalType": "uint256",
          "name": "amount1",
          "type": "uint256"
        }
      ],
      "name": "CollectedRewards",
      "type": "event"
    },
    {
      "anonymous": false,
      "inputs": [
        {
          "indexed": true,
          "internalType": "address",
          "name": "origin",
          "type": "address"
        },
        {
          "indexed": true,
          "internalType": "address",
          "name": "sender",
          "type": "address"
        },
        {
          "indexed": false,
          "internalType": "address[]",
          "name": "vaultTokens_",
          "type": "address[]"
        },
        {
          "indexed": false,
          "internalType": "uint256",
          "name": "nft_",
          "type": "uint256"
        }
      ],
      "name": "Initialized",
      "type": "event"
    },
    {
      "anonymous": false,
      "inputs": [
        {
          "indexed": false,
          "internalType": "address",
          "name": "to",
          "type": "address"
        },
        {
          "indexed": false,
          "internalType": "uint256[]",
          "name": "tokenAmounts",
          "type": "uint256[]"
        }
      ],
      "name": "Pull",
      "type": "event"
    },
    {
      "anonymous": false,
      "inputs": [
        {
          "indexed": false,
          "internalType": "uint256[]",
          "name": "tokenAmounts",
          "type": "uint256[]"
        }
      ],
      "name": "Push",
      "type": "event"
    },
    {
      "anonymous": false,
      "inputs": [
        {
          "indexed": false,
          "internalType": "address",
          "name": "to",
          "type": "address"
        },
        {
          "indexed": false,
          "internalType": "address[]",
          "name": "tokens",
          "type": "address[]"
        },
        {
          "indexed": false,
          "internalType": "uint256[]",
          "name": "tokenAmounts",
          "type": "uint256[]"
        }
      ],
      "name": "ReclaimTokens",
      "type": "event"
    },
    {
      "inputs": [],
      "name": "D9",
      "outputs": [
        {
          "internalType": "uint256",
          "name": "",
          "type": "uint256"
        }
      ],
      "stateMutability": "view",
      "type": "function"
    },
    {
      "inputs": [],
      "name": "Q96",
      "outputs": [
        {
          "internalType": "uint256",
          "name": "",
          "type": "uint256"
        }
      ],
      "stateMutability": "view",
      "type": "function"
    },
    {
      "inputs": [
        {
          "internalType": "uint256",
          "name": "nft",
          "type": "uint256"
        },
        {
          "internalType": "contract IFarmingCenter",
          "name": "farmingCenter_",
          "type": "address"
        }
      ],
      "name": "burnFarmingPosition",
      "outputs": [],
      "stateMutability": "nonpayable",
      "type": "function"
    },
    {
      "inputs": [],
      "name": "collectEarnings",
      "outputs": [
        {
          "internalType": "uint256[]",
          "name": "collectedFees",
          "type": "uint256[]"
        }
      ],
      "stateMutability": "nonpayable",
      "type": "function"
    },
    {
      "inputs": [],
      "name": "collectRewards",
      "outputs": [
        {
          "internalType": "uint256[]",
          "name": "collectedRewards",
          "type": "uint256[]"
        }
      ],
      "stateMutability": "nonpayable",
      "type": "function"
    },
    {
      "inputs": [],
      "name": "dQuickToken",
      "outputs": [
        {
          "internalType": "address",
          "name": "",
          "type": "address"
        }
      ],
      "stateMutability": "view",
      "type": "function"
    },
    {
      "inputs": [],
      "name": "erc20Vault",
      "outputs": [
        {
          "internalType": "address",
          "name": "",
          "type": "address"
        }
      ],
      "stateMutability": "view",
      "type": "function"
    },
    {
      "inputs": [
        {
          "internalType": "address",
          "name": "to",
          "type": "address"
        },
        {
          "internalType": "bytes4",
          "name": "selector",
          "type": "bytes4"
        },
        {
          "internalType": "bytes",
          "name": "data",
          "type": "bytes"
        }
      ],
      "name": "externalCall",
      "outputs": [
        {
          "internalType": "bytes",
          "name": "result",
          "type": "bytes"
        }
      ],
      "stateMutability": "payable",
      "type": "function"
    },
    {
      "inputs": [],
      "name": "factory",
      "outputs": [
        {
          "internalType": "contract IAlgebraFactory",
          "name": "",
          "type": "address"
        }
      ],
      "stateMutability": "view",
      "type": "function"
    },
    {
      "inputs": [],
      "name": "farmingCenter",
      "outputs": [
        {
          "internalType": "contract IFarmingCenter",
          "name": "",
          "type": "address"
        }
      ],
      "stateMutability": "view",
      "type": "function"
    },
    {
      "inputs": [],
      "name": "helper",
      "outputs": [
        {
          "internalType": "contract IQuickSwapHelper",
          "name": "",
          "type": "address"
        }
      ],
      "stateMutability": "view",
      "type": "function"
    },
    {
      "inputs": [
        {
          "internalType": "uint256",
          "name": "nft_",
          "type": "uint256"
        },
        {
          "internalType": "address",
          "name": "erc20Vault_",
          "type": "address"
        },
        {
          "internalType": "address[]",
          "name": "vaultTokens_",
          "type": "address[]"
        }
      ],
      "name": "initialize",
      "outputs": [],
      "stateMutability": "nonpayable",
      "type": "function"
    },
    {
      "inputs": [],
      "name": "initialized",
      "outputs": [
        {
          "internalType": "bool",
          "name": "",
          "type": "bool"
        }
      ],
      "stateMutability": "view",
      "type": "function"
    },
    {
      "inputs": [
        {
          "internalType": "bytes32",
          "name": "_hash",
          "type": "bytes32"
        },
        {
          "internalType": "bytes",
          "name": "_signature",
          "type": "bytes"
        }
      ],
      "name": "isValidSignature",
      "outputs": [
        {
          "internalType": "bytes4",
          "name": "magicValue",
          "type": "bytes4"
        }
      ],
      "stateMutability": "view",
      "type": "function"
    },
    {
      "inputs": [
        {
          "internalType": "address",
          "name": "token",
          "type": "address"
        }
      ],
      "name": "isVaultToken",
      "outputs": [
        {
          "internalType": "bool",
          "name": "",
          "type": "bool"
        }
      ],
      "stateMutability": "view",
      "type": "function"
    },
    {
      "inputs": [],
      "name": "nft",
      "outputs": [
        {
          "internalType": "uint256",
          "name": "",
          "type": "uint256"
        }
      ],
      "stateMutability": "view",
      "type": "function"
    },
    {
      "inputs": [
        {
          "internalType": "address",
          "name": "operator",
          "type": "address"
        },
        {
          "internalType": "address",
          "name": "from",
          "type": "address"
        },
        {
          "internalType": "uint256",
          "name": "tokenId",
          "type": "uint256"
        },
        {
          "internalType": "bytes",
          "name": "",
          "type": "bytes"
        }
      ],
      "name": "onERC721Received",
      "outputs": [
        {
          "internalType": "bytes4",
          "name": "",
          "type": "bytes4"
        }
      ],
      "stateMutability": "nonpayable",
      "type": "function"
    },
    {
      "inputs": [
        {
          "internalType": "uint256",
          "name": "nft",
          "type": "uint256"
        },
        {
          "internalType": "contract IFarmingCenter",
          "name": "farmingCenter_",
          "type": "address"
        }
      ],
      "name": "openFarmingPosition",
      "outputs": [],
      "stateMutability": "nonpayable",
      "type": "function"
    },
    {
      "inputs": [],
      "name": "positionManager",
      "outputs": [
        {
          "internalType": "contract IAlgebraNonfungiblePositionManager",
          "name": "",
          "type": "address"
        }
      ],
      "stateMutability": "view",
      "type": "function"
    },
    {
      "inputs": [],
      "name": "positionNft",
      "outputs": [
        {
          "internalType": "uint256",
          "name": "",
          "type": "uint256"
        }
      ],
      "stateMutability": "view",
      "type": "function"
    },
    {
      "inputs": [
        {
          "internalType": "address",
          "name": "to",
          "type": "address"
        },
        {
          "internalType": "address[]",
          "name": "tokens",
          "type": "address[]"
        },
        {
          "internalType": "uint256[]",
          "name": "tokenAmounts",
          "type": "uint256[]"
        },
        {
          "internalType": "bytes",
          "name": "options",
          "type": "bytes"
        }
      ],
      "name": "pull",
      "outputs": [
        {
          "internalType": "uint256[]",
          "name": "actualTokenAmounts",
          "type": "uint256[]"
        }
      ],
      "stateMutability": "nonpayable",
      "type": "function"
    },
    {
      "inputs": [],
      "name": "pullExistentials",
      "outputs": [
        {
          "internalType": "uint256[]",
          "name": "",
          "type": "uint256[]"
        }
      ],
      "stateMutability": "view",
      "type": "function"
    },
    {
      "inputs": [
        {
          "internalType": "address[]",
          "name": "tokens",
          "type": "address[]"
        },
        {
          "internalType": "uint256[]",
          "name": "tokenAmounts",
          "type": "uint256[]"
        },
        {
          "internalType": "bytes",
          "name": "options",
          "type": "bytes"
        }
      ],
      "name": "push",
      "outputs": [
        {
          "internalType": "uint256[]",
          "name": "actualTokenAmounts",
          "type": "uint256[]"
        }
      ],
      "stateMutability": "nonpayable",
      "type": "function"
    },
    {
      "inputs": [],
      "name": "quickToken",
      "outputs": [
        {
          "internalType": "address",
          "name": "",
          "type": "address"
        }
      ],
      "stateMutability": "view",
      "type": "function"
    },
    {
      "inputs": [
        {
          "internalType": "address[]",
          "name": "tokens",
          "type": "address[]"
        }
      ],
      "name": "reclaimTokens",
      "outputs": [
        {
          "internalType": "uint256[]",
          "name": "actualTokenAmounts",
          "type": "uint256[]"
        }
      ],
      "stateMutability": "nonpayable",
      "type": "function"
    },
    {
      "inputs": [],
      "name": "strategyParams",
      "outputs": [
        {
          "components": [
            {
              "components": [
                {
                  "internalType": "contract IERC20Minimal",
                  "name": "rewardToken",
                  "type": "address"
                },
                {
                  "internalType": "contract IERC20Minimal",
                  "name": "bonusRewardToken",
                  "type": "address"
                },
                {
                  "internalType": "contract IAlgebraPool",
                  "name": "pool",
                  "type": "address"
                },
                {
                  "internalType": "uint256",
                  "name": "startTime",
                  "type": "uint256"
                },
                {
                  "internalType": "uint256",
                  "name": "endTime",
                  "type": "uint256"
                }
              ],
              "internalType": "struct IIncentiveKey.IncentiveKey",
              "name": "key",
              "type": "tuple"
            },
            {
              "internalType": "address",
              "name": "bonusTokenToUnderlying",
              "type": "address"
            },
            {
              "internalType": "address",
              "name": "rewardTokenToUnderlying",
              "type": "address"
            },
            {
              "internalType": "uint256",
              "name": "swapSlippageD",
              "type": "uint256"
            },
            {
              "internalType": "uint32",
              "name": "rewardPoolTimespan",
              "type": "uint32"
            }
          ],
          "internalType": "struct IQuickSwapVaultGovernance.StrategyParams",
          "name": "params",
          "type": "tuple"
        }
      ],
      "stateMutability": "view",
      "type": "function"
    },
    {
      "inputs": [
        {
          "internalType": "bytes4",
          "name": "interfaceId",
          "type": "bytes4"
        }
      ],
      "name": "supportsInterface",
      "outputs": [
        {
          "internalType": "bool",
          "name": "",
          "type": "bool"
        }
      ],
      "stateMutability": "view",
      "type": "function"
    },
    {
      "inputs": [],
      "name": "swapRouter",
      "outputs": [
        {
          "internalType": "contract IAlgebraSwapRouter",
          "name": "",
          "type": "address"
        }
      ],
      "stateMutability": "view",
      "type": "function"
    },
    {
      "inputs": [
        {
          "internalType": "address",
          "name": "from",
          "type": "address"
        },
        {
          "internalType": "address[]",
          "name": "tokens",
          "type": "address[]"
        },
        {
          "internalType": "uint256[]",
          "name": "tokenAmounts",
          "type": "uint256[]"
        },
        {
          "internalType": "bytes",
          "name": "options",
          "type": "bytes"
        }
      ],
      "name": "transferAndPush",
      "outputs": [
        {
          "internalType": "uint256[]",
          "name": "actualTokenAmounts",
          "type": "uint256[]"
        }
      ],
      "stateMutability": "nonpayable",
      "type": "function"
    },
    {
      "inputs": [],
      "name": "tvl",
      "outputs": [
        {
          "internalType": "uint256[]",
          "name": "minTokenAmounts",
          "type": "uint256[]"
        },
        {
          "internalType": "uint256[]",
          "name": "maxTokenAmounts",
          "type": "uint256[]"
        }
      ],
      "stateMutability": "view",
      "type": "function"
    },
    {
      "inputs": [],
      "name": "vaultGovernance",
      "outputs": [
        {
          "internalType": "contract IVaultGovernance",
          "name": "",
          "type": "address"
        }
      ],
      "stateMutability": "view",
      "type": "function"
    },
    {
      "inputs": [],
      "name": "vaultTokens",
      "outputs": [
        {
          "internalType": "address[]",
          "name": "",
          "type": "address[]"
        }
      ],
      "stateMutability": "view",
      "type": "function"
    }
  ],
  "bytecode": {
    "object": "0x6101606040523480156200001257600080fd5b506040516200613e3803806200613e83398101604081905262000035916200010d565b600160005560001960049081556001600160a01b0387166101008190526040805163c45a015560e01b81529051919263c45a0155928282019260209290829003018186803b1580156200008757600080fd5b505afa1580156200009c573d6000803e3d6000fd5b505050506040513d601f19601f82011682018060405250810190620000c29190620001a1565b6001600160a01b03908116610120529485166101405292841660e05290831660c05282166080521660a05250620001c8565b6001600160a01b03811681146200010a57600080fd5b50565b60008060008060008060c087890312156200012757600080fd5b86516200013481620000f4565b60208801519096506200014781620000f4565b60408801519095506200015a81620000f4565b60608801519094506200016d81620000f4565b60808801519093506200018081620000f4565b60a08801519092506200019381620000f4565b809150509295509295509295565b600060208284031215620001b457600080fd5b8151620001c181620000f4565b9392505050565b60805160a05160c05160e051610100516101205161014051615e6c620002d26000396000818161043101528181612197015281816128d10152818161338a0152613f71015260008181610581015261439301526000818161049c01528181610b9301528181610ca401528181610def01528181610fad01528181611cf401528181612e1b015281816134bf01528181613585015261403d01526000818161054d0152818161458d015281816145b4015261470c0152600081816105ea01528181610b68015281816120bb015281816126d10152818161290b015261321e01526000818161050401526142b60152600081816104d0015281816141f1015261423f0152615e6c6000f3fe6080604052600436106101e35760003560e01c80636972223311610102578063d2c219b011610095578063ef7d803711610064578063ef7d80371461062f578063f451b77014610645578063f57f33d014610665578063fe255a5e1461068757600080fd5b8063d2c219b0146105a3578063d82f7267146105b8578063dd56e5d8146105d8578063e5328e061461060c57600080fd5b8063aec2609d116100d1578063aec2609d146104f2578063c27b2c2d14610526578063c31c9c071461053b578063c45a01551461056f57600080fd5b8063697222331461045357806370bb45b314610475578063791b98bc1461048a5780639eb25aa9146104be57600080fd5b80632e2f4cc21161017a57806347ccca021161014957806347ccca02146103d2578063551530ae146103e7578063566ca6b4146103ff57806363b0e66a1461041f57600080fd5b80632e2f4cc214610332578063338c4ccb14610352578063407924651461038a578063463e34be146103b057600080fd5b8063158ef93e116101b6578063158ef93e146102bb5780631626ba7e146102d25780632062d754146102f257806327a35e5a1461031257600080fd5b806301ffc9a7146101e857806305e1c9421461021d578063090f92211461024a578063150b7a0214610282575b600080fd5b3480156101f457600080fd5b50610208610203366004614e1e565b6106a5565b60405190151581526020015b60405180910390f35b34801561022957600080fd5b5061023d610238366004614f55565b6106d1565b6040516102149190614fc4565b34801561025657600080fd5b5060075461026a906001600160a01b031681565b6040516001600160a01b039091168152602001610214565b34801561028e57600080fd5b506102a261029d366004615046565b610b49565b6040516001600160e01b03199091168152602001610214565b3480156102c757600080fd5b506004541515610208565b3480156102de57600080fd5b506102a26102ed3660046150b1565b611032565b3480156102fe57600080fd5b5061023d61030d366004615152565b61137f565b34801561031e57600080fd5b5061023d61032d366004615152565b611823565b6103456103403660046151e0565b6119aa565b60405161021491906152c9565b34801561035e57600080fd5b5061020861036d3660046152dc565b6001600160a01b0316600090815260036020526040902054151590565b34801561039657600080fd5b506103a2600160601b81565b604051908152602001610214565b3480156103bc57600080fd5b506103d06103cb3660046152f9565b611c7e565b005b3480156103de57600080fd5b506004546103a2565b3480156103f357600080fd5b506103a2633b9aca0081565b34801561040b57600080fd5b5061023d61041a366004615351565b611d60565b34801561042b57600080fd5b5061026a7f000000000000000000000000000000000000000000000000000000000000000081565b34801561045f57600080fd5b50610468612030565b6040516102149190615407565b34801561048157600080fd5b5061023d612092565b34801561049657600080fd5b5061026a7f000000000000000000000000000000000000000000000000000000000000000081565b3480156104ca57600080fd5b5061026a7f000000000000000000000000000000000000000000000000000000000000000081565b3480156104fe57600080fd5b5061026a7f000000000000000000000000000000000000000000000000000000000000000081565b34801561053257600080fd5b5061023d612640565b34801561054757600080fd5b5061026a7f000000000000000000000000000000000000000000000000000000000000000081565b34801561057b57600080fd5b5061026a7f000000000000000000000000000000000000000000000000000000000000000081565b3480156105af57600080fd5b5061023d612823565b3480156105c457600080fd5b506103d06105d336600461541a565b61287a565b3480156105e457600080fd5b5061026a7f000000000000000000000000000000000000000000000000000000000000000081565b34801561061857600080fd5b506106216128cc565b60405161021492919061544a565b34801561063b57600080fd5b506103a260065481565b34801561065157600080fd5b506103d061066036600461541a565b6129d3565b34801561067157600080fd5b5061067a612a21565b60405161021491906154fd565b34801561069357600080fd5b506001546001600160a01b031661026a565b60006106b082612af4565b806106cb57506001600160e01b03198216633b46859960e01b145b92915050565b60606106db612b3a565b6004805460408051808201909152918252631253925560e21b602083015290816107215760405162461bcd60e51b815260040161071891906152c9565b60405180910390fd5b5060015460408051637ac46fbb60e01b815290516000926001600160a01b031691637ac46fbb916004808301926060929190829003018186803b15801561076757600080fd5b505afa15801561077b573d6000803e3d6000fd5b505050506040513d601f19601f8201168201806040525081019061079f919061550c565b805160208201516040516331a9108f60e11b81526004810186905292935090916000906001600160a01b03831690636352211e9060240160206040518083038186803b1580156107ee57600080fd5b505afa158015610802573d6000803e3d6000fd5b505050506040513d601f19601f820116820180604052508101906108269190615588565b90506000610835838784612b94565b604051639bd0911b60e01b8152600060048201526001600160a01b039190911690639bd0911b9060240160206040518083038186803b15801561087757600080fd5b505afa15801561088b573d6000803e3d6000fd5b505050506040513d601f19601f820116820180604052508101906108af9190615588565b905087516001600160401b038111156108ca576108ca614e3b565b6040519080825280602002602001820160405280156108f3578160200160208202803683370190505b5096506001600160a01b03811630141561091257505050505050610b3a565b60005b8851811015610af75761093b898281518110610933576109336155a5565b506000919050565b806109ed5750846001600160a01b03166363e85d2d8a8381518110610962576109626155a5565b60209081029190910101516040516001600160e01b031960e084901b1681526001600160a01b0390911660048201526002602482015260440160206040518083038186803b1580156109b357600080fd5b505afa1580156109c7573d6000803e3d6000fd5b505050506040513d601f19601f820116820180604052508101906109eb91906155cb565b155b156109f757610ae7565b6000898281518110610a0b57610a0b6155a5565b60209081029190910101516040516370a0823160e01b81523060048201529091506001600160a01b038216906370a082319060240160206040518083038186803b158015610a5857600080fd5b505afa158015610a6c573d6000803e3d6000fd5b505050506040513d601f19601f82011682018060405250810190610a9091906155e6565b898381518110610aa257610aa26155a5565b602002602001018181525050610ae5838a8481518110610ac457610ac46155a5565b6020026020010151836001600160a01b0316612c679092919063ffffffff16565b505b610af081615615565b9050610915565b507f9efcb26e0cf572bd9171640e114f387cef91cd3e38532ed6b3f80c7f2e758f87818989604051610b2b93929190615630565b60405180910390a15050505050505b610b446001600055565b919050565b60408051808201909152600381526223292160e91b60208201526000907f000000000000000000000000000000000000000000000000000000000000000090336001600160a01b037f00000000000000000000000000000000000000000000000000000000000000001614610bd15760405162461bcd60e51b815260040161071891906152c9565b50806001600160a01b0316866001600160a01b03161415610c3d5760065484146040518060400160405280600381526020016223292160e91b81525090610c2b5760405162461bcd60e51b815260040161071891906152c9565b50630a85bd0160e11b915061102a9050565b610c4686612ccf565b6040518060400160405280600381526020016223292160e91b81525090610c805760405162461bcd60e51b815260040161071891906152c9565b5060405163133f757160e31b81526004810185905260009081906001600160a01b037f000000000000000000000000000000000000000000000000000000000000000016906399fbab88906024016101606040518083038186803b158015610ce757600080fd5b505afa158015610cfb573d6000803e3d6000fd5b505050506040513d601f19601f82011682018060405250810190610d1f9190615699565b505050505050509350935050506002600081548110610d4057610d406155a5565b6000918252602090912001546001600160a01b038381169116148015610d9057506002600181548110610d7557610d756155a5565b6000918252602090912001546001600160a01b038281169116145b60405180604001604052806005815260200164494e56544f60d81b81525090610dcc5760405162461bcd60e51b815260040161071891906152c9565b50600654801561100c5760405163133f757160e31b8152600481018290526000907f00000000000000000000000000000000000000000000000000000000000000006001600160a01b0316906399fbab88906024016101606040518083038186803b158015610e3a57600080fd5b505afa158015610e4e573d6000803e3d6000fd5b505050506040513d601f19601f82011682018060405250810190610e729190615699565b505050509650505050505050806001600160801b03166000146040518060400160405280600381526020016224a72b60e91b81525090610ec55760405162461bcd60e51b815260040161071891906152c9565b50604051630b02c43d60e41b8152600481018390526000906001600160a01b0387169063b02c43d09060240160806040518083038186803b158015610f0957600080fd5b505afa158015610f1d573d6000803e3d6000fd5b505050506040513d601f19601f82011682018060405250810190610f419190615784565b505060408051808201909152600381526224a72b60e91b6020820152919250508115610f805760405162461bcd60e51b815260040161071891906152c9565b50604051632142170760e11b81523060048201526001600160a01b038b81166024830152604482018590527f000000000000000000000000000000000000000000000000000000000000000016906342842e0e90606401600060405180830381600087803b158015610ff157600080fd5b505af1158015611005573d6000803e3d6000fd5b5050505050505b6110168785612def565b505050600684905550630a85bd0160e11b90505b949350505050565b600080600160009054906101000a90046001600160a01b03166001600160a01b0316637ac46fbb6040518163ffffffff1660e01b815260040160606040518083038186803b15801561108357600080fd5b505afa158015611097573d6000803e3d6000fd5b505050506040513d601f19601f820116820180604052508101906110bb919061550c565b602081015181516004549293509091806110e457506001600160e01b031993506106cb92505050565b60405163020604bf60e21b8152600481018290526000906001600160a01b0385169063081812fc9060240160206040518083038186803b15801561112757600080fd5b505afa15801561113b573d6000803e3d6000fd5b505050506040513d601f19601f8201168201806040525081019061115f9190615588565b6040516363e85d2d60e01b81526001600160a01b03808316600483015260066024830152919250908416906363e85d2d9060440160206040518083038186803b1580156111ab57600080fd5b505afa1580156111bf573d6000803e3d6000fd5b505050506040513d601f19601f820116820180604052508101906111e391906155cb565b6111fd57506001600160e01b031994506106cb9350505050565b803b63ffffffff811615611330576040516301ffc9a760e01b8152630b135d3f60e11b60048201526001600160a01b038316906301ffc9a79060240160206040518083038186803b15801561125157600080fd5b505afa158015611265573d6000803e3d6000fd5b505050506040513d601f19601f8201168201806040525081019061128991906155cb565b1561131957604051630b135d3f60e11b81526001600160a01b03831690631626ba7e906112bc908c908c906004016157d3565b60206040518083038186803b1580156112d457600080fd5b505afa1580156112e8573d6000803e3d6000fd5b505050506040513d601f19601f8201168201806040525081019061130c91906157ec565b96505050505050506106cb565b506001600160e01b031995506106cb945050505050565b816001600160a01b03166113448a8a612eed565b6001600160a01b031614156113695750630b135d3f60e11b95506106cb945050505050565b506001600160e01b031998975050505050505050565b6060611389612b3a565b6004805460408051808201909152918252631253925560e21b602083015290816113c65760405162461bcd60e51b815260040161071891906152c9565b506113d033612f6c565b6040518060400160405280600381526020016223292160e91b8152509061140a5760405162461bcd60e51b815260040161071891906152c9565b5060015460408051637ac46fbb60e01b815290516000926001600160a01b031691637ac46fbb916004808301926060929190829003018186803b15801561145057600080fd5b505afa158015611464573d6000803e3d6000fd5b505050506040513d601f19601f82011682018060405250810190611488919061550c565b602001516040516331a9108f60e11b8152600481018490529091506000906001600160a01b03831690636352211e9060240160206040518083038186803b1580156114d257600080fd5b505afa1580156114e6573d6000803e3d6000fd5b505050506040513d601f19601f8201168201806040525081019061150a9190615588565b90506000611519838584612b94565b90506001600160a01b038216331461175657604051639bd0911b60e01b8152600060048201819052906001600160a01b03831690639bd0911b9060240160206040518083038186803b15801561156e57600080fd5b505afa158015611582573d6000803e3d6000fd5b505050506040513d601f19601f820116820180604052508101906115a69190615588565b90506001600160a01b0381163014156117015760405163fcdabd2760e01b81526001600160a01b038b8116600483015280841691639d9fd0d99187169063fcdabd279060240160206040518083038186803b15801561160457600080fd5b505afa158015611618573d6000803e3d6000fd5b505050506040513d601f19601f8201168201806040525081019061163c91906155e6565b6040518263ffffffff1660e01b815260040161165a91815260200190565b60206040518083038186803b15801561167257600080fd5b505afa158015611686573d6000803e3d6000fd5b505050506040513d601f19601f820116820180604052508101906116aa91906155cb565b80156116bf57506001600160a01b038a163014155b6040518060400160405280600581526020016424a72b2a2960d91b815250906116fb5760405162461bcd60e51b815260040161071891906152c9565b50611754565b896001600160a01b0316816001600160a01b0316146040518060400160405280600581526020016424a72b2a2960d91b815250906117525760405162461bcd60e51b815260040161071891906152c9565b505b505b6000611762898961312a565b905060006117718b838a613216565b90506117d88a60028054806020026020016040519081016040528092919081815260200182805480156117cd57602002820191906000526020600020905b81546001600160a01b031681526001909101906020018083116117af575b505050505083613714565b96507f54f9e6ef58e36de62f59f9ee6c4b878af84989c53a3642eba415ac3ac4e11cda8b8860405161180b929190615809565b60405180910390a150505050505061102a6001600055565b825160609060005b818110156118b657848181518110611845576118456155a5565b60200260200101516000146118a6576118a6873087848151811061186b5761186b6155a5565b6020026020010151898581518110611885576118856155a5565b60200260200101516001600160a01b0316613935909392919063ffffffff16565b6118af81615615565b905061182b565b506118c2858585611d60565b915060005b85518110156119a05760008582815181106118e4576118e46155a5565b60200260200101518483815181106118fe576118fe6155a5565b602002602001015110611912576000611950565b838281518110611924576119246155a5565b602002602001015186838151811061193e5761193e6155a5565b6020026020010151611950919061582d565b9050801561198f5761198f888289858151811061196f5761196f6155a5565b60200260200101516001600160a01b0316612c679092919063ffffffff16565b5061199981615615565b90506118c7565b5050949350505050565b60606119b4612b3a565b6004805460408051808201909152918252631253925560e21b60208301526119ef5760405162461bcd60e51b815260040161071891906152c9565b506119f933612f6c565b6040518060400160405280600381526020016223292160e91b81525090611a335760405162461bcd60e51b815260040161071891906152c9565b5060015460408051637ac46fbb60e01b815290516000926001600160a01b031691637ac46fbb916004808301926060929190829003018186803b158015611a7957600080fd5b505afa158015611a8d573d6000803e3d6000fd5b505050506040513d601f19601f82011682018060405250810190611ab1919061550c565b51604051631f4a58fb60e31b81526001600160a01b03888116600483015291925060009183169063fa52c7d89060240160206040518083038186803b158015611af957600080fd5b505afa158015611b0d573d6000803e3d6000fd5b505050506040513d601f19601f82011682018060405250810190611b319190615588565b60408051808201909152600381526223292160e91b60208201529091506001600160a01b038216611b755760405162461bcd60e51b815260040161071891906152c9565b50604051631796170d60e21b81526001600160a01b03821690635e585c3490611bac9033908b9034908c908c908c90600401615844565b60006040518083038186803b158015611bc457600080fd5b505afa158015611bd8573d6000803e3d6000fd5b50505050600080886001600160a01b031634898989604051602001611bff939291906158a9565b60408051601f1981840301815290829052611c19916158cd565b60006040518083038185875af1925050503d8060008114611c56576040519150601f19603f3d011682016040523d82523d6000602084013e611c5b565b606091505b509150915081611c6e5780518082602001fd5b6001600055935061102a92505050565b80516002146040518060400160405280600381526020016224a72b60e91b81525090611cbd5760405162461bcd60e51b815260040161071891906152c9565b50600780546001600160a01b0319166001600160a01b038416179055611ce3818461396d565b60005b6002811015611d5a57611d487f0000000000000000000000000000000000000000000000000000000000000000600019848481518110611d2857611d286155a5565b60200260200101516001600160a01b0316613df89092919063ffffffff16565b80611d5281615615565b915050611ce6565b50505050565b6060611d6a612b3a565b6004805460408051808201909152918252631253925560e21b60208301529081611da75760405162461bcd60e51b815260040161071891906152c9565b5060015460408051637ac46fbb60e01b815290516000926001600160a01b031691637ac46fbb916004808301926060929190829003018186803b158015611ded57600080fd5b505afa158015611e01573d6000803e3d6000fd5b505050506040513d601f19601f82011682018060405250810190611e25919061550c565b602001516040516331a9108f60e11b8152600481018490529091506000906001600160a01b03831690636352211e9060240160206040518083038186803b158015611e6f57600080fd5b505afa158015611e83573d6000803e3d6000fd5b505050506040513d601f19601f82011682018060405250810190611ea79190615588565b60405163fcdabd2760e01b81526001600160a01b03808316600483015291925060009184169063fcdabd279060240160206040518083038186803b158015611eee57600080fd5b505afa158015611f02573d6000803e3d6000fd5b505050506040513d601f19601f82011682018060405250810190611f2691906155e6565b604080518082019091526002815261272360f11b602082015290915081611f605760405162461bcd60e51b815260040161071891906152c9565b506000611f6d898961312a565b90506000611f7b8289613eb4565b9050611fe08a60028054806020026020016040519081016040528092919081815260200182805480156117cd576020028201919060005260206000209081546001600160a01b031681526001909101906020018083116117af57505050505083613714565b96507f08e404e978692dd1b8275016b7a7b0b3ae4afd06b0cec7228060bb2da18c84fd816040516120119190614fc4565b60405180910390a15050505050506120296001600055565b9392505050565b6060600280548060200260200160405190810160405280929190818152602001828054801561208857602002820191906000526020600020905b81546001600160a01b0316815260019091019060200180831161206a575b5050505050905090565b6060600061209e612a21565b600654604051630b02c43d60e41b815260048101829052919250907f0000000000000000000000000000000000000000000000000000000000000000906000906001600160a01b0383169063b02c43d09060240160806040518083038186803b15801561210a57600080fd5b505afa15801561211e573d6000803e3d6000fd5b505050506040513d601f19601f820116820180604052508101906121429190615784565b50919250600291506121519050565b60405190808252806020026020018201604052801561217a578160200160208202803683370190505b50945080612189575050505090565b6000846000015190506000807f00000000000000000000000000000000000000000000000000000000000000006001600160a01b0316632b674502866001600160a01b031663de2356d16040518163ffffffff1660e01b815260040160206040518083038186803b1580156121fd57600080fd5b505afa158015612211573d6000803e3d6000fd5b505050506040513d601f19601f820116820180604052508101906122359190615588565b85896040518463ffffffff1660e01b8152600401612255939291906158e9565b604080518083038186803b15801561226c57600080fd5b505afa158015612280573d6000803e3d6000fd5b505050506040513d601f19601f820116820180604052508101906122a49190615914565b90925090506122b38183615938565b6122c1575050505050505090565b6040516307cf0b0f60e31b81526001600160a01b03861690633e785878906122ef9086908a90600401615950565b6040805180830381600087803b15801561230857600080fd5b505af115801561231c573d6000803e3d6000fd5b505050506040513d601f19601f820116820180604052508101906123409190615914565b50508251604051633f46232960e21b81526001600160a01b0391821660048201523060248201526000604482015260001960648201529086169063fd188ca490608401602060405180830381600087803b15801561239d57600080fd5b505af11580156123b1573d6000803e3d6000fd5b505050506040513d601f19601f820116820180604052508101906123d591906155e6565b6020840151604051633f46232960e21b81526001600160a01b03918216600482015230602482015260006044820152600019606482015291935086169063fd188ca490608401602060405180830381600087803b15801561243557600080fd5b505af1158015612449573d6000803e3d6000fd5b505050506040513d601f19601f8201168201806040525081019061246d91906155e6565b600754845160408a015160608b01519394506001600160a01b0390921692612497928692916141c3565b896000815181106124aa576124aa6155a5565b6020026020010181815250506000896000815181106124cb576124cb6155a5565b6020026020010151111561251557612515818a6000815181106124f0576124f06155a5565b60200260200101518a604001516001600160a01b0316612c679092919063ffffffff16565b61252d8285602001518a602001518b606001516141c3565b89600181518110612540576125406155a5565b602002602001018181525050600089600181518110612561576125616155a5565b602002602001015111156125ab576125ab818a600181518110612586576125866155a5565b60200260200101518a602001516001600160a01b0316612c679092919063ffffffff16565b336001600160a01b0316326001600160a01b03167f72faf48bdef0aac244b3a52a00ee74636b204027cd53cb9544d1e55be4fa76878b6000815181106125f3576125f36155a5565b60200260200101518c60018151811061260e5761260e6155a5565b602002602001015160405161262d929190918252602082015260400190565b60405180910390a3505050505050505090565b6006546060908061266f5760408051600280825260608201835290916020830190803683370190505091505090565b604080516002808252606082018352909160208301908036833701905050604080516080810182528381526007546001600160a01b0390811660208301526001600160801b038284018190526060830152915163fc6f786560e01b81529294507f00000000000000000000000000000000000000000000000000000000000000009091169163fc6f7865916127069160040161596b565b6040805180830381600087803b15801561271f57600080fd5b505af1158015612733573d6000803e3d6000fd5b505050506040513d601f19601f820116820180604052508101906127579190615914565b8360008151811061276a5761276a6155a5565b6020026020010184600181518110612784576127846155a5565b6020026020010182815250828152505050336001600160a01b0316326001600160a01b03167f148a74163008e35e1831546f25b89a4cacad54c2ff2080ca8b839d37da13b6d7846000815181106127dd576127dd6155a5565b6020026020010151856001815181106127f8576127f86155a5565b6020026020010151604051612817929190918252602082015260400190565b60405180910390a35090565b6060600580548060200260200160405190810160405280929190818152602001828054801561208857602002820191906000526020600020905b81548152602001906001019080831161285d575050505050905090565b61288333612ccf565b6040518060400160405280600381526020016223292160e91b815250906128bd5760405162461bcd60e51b815260040161071891906152c9565b506128c88282612def565b5050565b6060807f00000000000000000000000000000000000000000000000000000000000000006001600160a01b031663a510a401600654612909612a21565b7f0000000000000000000000000000000000000000000000000000000000000000600260008154811061293e5761293e6155a5565b6000918252602090912001546040516001600160e01b031960e087901b168152612977949392916001600160a01b0316906004016159ae565b60006040518083038186803b15801561298f57600080fd5b505afa1580156129a3573d6000803e3d6000fd5b505050506040513d6000823e601f3d908101601f191682016040526129cb91908101906159e8565b928392509050565b6129dc33612ccf565b6040518060400160405280600381526020016223292160e91b81525090612a165760405162461bcd60e51b815260040161071891906152c9565b506128c8828261473e565b6040805161014081018252600060a0820181815260c0830182905260e083018290526101008301829052610120830182905282526020820181905291810182905260608101829052608081019190915260015460048054604051630248cd6d60e31b8152918201526001600160a01b03909116906312466b68906024016101206040518083038186803b158015612ab757600080fd5b505afa158015612acb573d6000803e3d6000fd5b505050506040513d601f19601f82011682018060405250810190612aef9190615a6d565b905090565b6000612aff826147f8565b80612b1a57506001600160e01b03198216633d31d51d60e11b145b806106cb57506001600160e01b03198216630b135d3f60e11b1492915050565b60026000541415612b8d5760405162461bcd60e51b815260206004820152601f60248201527f5265656e7472616e637947756172643a207265656e7472616e742063616c6c006044820152606401610718565b6002600055565b60405163fcdabd2760e01b81526001600160a01b038281166004830152600091829186169063fcdabd279060240160206040518083038186803b158015612bda57600080fd5b505afa158015612bee573d6000803e3d6000fd5b505050506040513d601f19601f82011682018060405250810190612c1291906155e6565b90508315801590612c2257508015155b604051806040016040528060048152602001631253925560e21b81525090612c5d5760405162461bcd60e51b815260040161071891906152c9565b5091949350505050565b6040516001600160a01b038316602482015260448101829052612cca90849063a9059cbb60e01b906064015b60408051601f198184030181529190526020810180516001600160e01b03166001600160e01b03199093169290921790915261482e565b505050565b6000816001600160a01b0316600160009054906101000a90046001600160a01b03166001600160a01b0316637ac46fbb6040518163ffffffff1660e01b815260040160606040518083038186803b158015612d2957600080fd5b505afa158015612d3d573d6000803e3d6000fd5b505050506040513d601f19601f82011682018060405250810190612d61919061550c565b602001516004805460405163020604bf60e21b8152918201526001600160a01b039091169063081812fc9060240160206040518083038186803b158015612da757600080fd5b505afa158015612dbb573d6000803e3d6000fd5b505050506040513d601f19601f82011682018060405250810190612ddf9190615588565b6001600160a01b03161492915050565b604051632142170760e11b81523060048201526001600160a01b038281166024830152604482018490527f000000000000000000000000000000000000000000000000000000000000000016906342842e0e90606401600060405180830381600087803b158015612e5f57600080fd5b505af1158015612e73573d6000803e3d6000fd5b50505050806001600160a01b03166322872ce2612e8e612a21565b516040516001600160e01b031960e084901b168152612eb7919086906000908190600401615b33565b600060405180830381600087803b158015612ed157600080fd5b505af1158015612ee5573d6000803e3d6000fd5b505050505050565b600080600080612efc85614903565b6040805160008152602081018083528b905260ff8316918101919091526060810184905260808101839052929550909350915060019060a0016020604051602081039080840390855afa158015612f57573d6000803e3d6000fd5b5050604051601f190151979650505050505050565b600080600160009054906101000a90046001600160a01b03166001600160a01b0316637ac46fbb6040518163ffffffff1660e01b815260040160606040518083038186803b158015612fbd57600080fd5b505afa158015612fd1573d6000803e3d6000fd5b505050506040513d601f19601f82011682018060405250810190612ff5919061550c565b602001516004549091508061300e575060009392505050565b60405163020604bf60e21b8152600481018290526001600160a01b03808616919084169063081812fc9060240160206040518083038186803b15801561305357600080fd5b505afa158015613067573d6000803e3d6000fd5b505050506040513d601f19601f8201168201806040525081019061308b9190615588565b6001600160a01b0316148061102a57506040516331a9108f60e11b8152600481018290526001600160a01b038086169190841690636352211e9060240160206040518083038186803b1580156130e057600080fd5b505afa1580156130f4573d6000803e3d6000fd5b505050506040513d601f19601f820116820180604052508101906131189190615588565b6001600160a01b031614949350505050565b606061313583614967565b60405180604001604052806004815260200163494e564160e01b815250906131705760405162461bcd60e51b815260040161071891906152c9565b5081518351146040518060400160405280600381526020016224a72b60e91b815250906131b05760405162461bcd60e51b815260040161071891906152c9565b50612029600280548060200260200160405190810160405280929190818152602001828054801561320a57602002820191906000526020600020905b81546001600160a01b031681526001909101906020018083116131ec575b50505050508484613714565b6006546060907f0000000000000000000000000000000000000000000000000000000000000000908061326a5760408051600280825260608201835290916020830190803683370190505092505050612029565b604051630b02c43d60e41b8152600481018290526000906001600160a01b0384169063b02c43d09060240160806040518083038186803b1580156132ad57600080fd5b505afa1580156132c1573d6000803e3d6000fd5b505050506040513d601f19601f820116820180604052508101906132e59190615784565b5050509050806000146132fc576132fc828461473e565b6000613306612a21565b60000151604001516001600160a01b031663e76c01e46040518163ffffffff1660e01b815260040160e06040518083038186803b15801561334657600080fd5b505afa15801561335a573d6000803e3d6000fd5b505050506040513d601f19601f8201168201806040525081019061337e9190615b82565b505050505050905060007f00000000000000000000000000000000000000000000000000000000000000006001600160a01b031663e5573ac285848b6040518463ffffffff1660e01b81526004016133d893929190615c0a565b60206040518083038186803b1580156133f057600080fd5b505afa158015613404573d6000803e3d6000fd5b505050506040513d601f19601f820116820180604052508101906134289190615c34565b90506001600160801b038116156135405760008060006134478a614a0a565b6040805160a08101825260065481526001600160801b03808a166020830190815282840187815260608401878152608085018781529551630624e65f60e11b81529451600486015291519092166024840152905160448301525160648201529051608482015292955090935091506001600160a01b037f00000000000000000000000000000000000000000000000000000000000000001690630c49ccbe9060a4016040805180830381600087803b15801561350257600080fd5b505af1158015613516573d6000803e3d6000fd5b505050506040513d601f19601f8201168201806040525081019061353a9190615914565b50505050505b6040805160808101825260065481526001600160a01b038b811660208301526001600160801b038284018190526060830152915163fc6f786560e01b815260009283927f00000000000000000000000000000000000000000000000000000000000000009091169163fc6f7865916135ba9160040161596b565b6040805180830381600087803b1580156135d357600080fd5b505af11580156135e7573d6000803e3d6000fd5b505050506040513d601f19601f8201168201806040525081019061360b9190615914565b6040805160028082526060820190925292945090925081602001602082028036833701905050975089600081518110613646576136466155a5565b6020026020010151821161365a5781613676565b8960008151811061366d5761366d6155a5565b60200260200101515b88600081518110613689576136896155a5565b602002602001018181525050896001815181106136a8576136a86155a5565b602002602001015181116136bc57806136d8565b896001815181106136cf576136cf6155a5565b60200260200101515b886001815181106136eb576136eb6155a5565b60209081029190910101528415613706576137068688612def565b505050505050509392505050565b6060600084516001600160401b0381111561373157613731614e3b565b60405190808252806020026020018201604052801561375a578160200160208202803683370190505b5090506000805b8651821080156137715750855181105b156138f057858181518110613788576137886155a5565b60200260200101516001600160a01b03168783815181106137ab576137ab6155a5565b60200260200101516001600160a01b031610156137f35760008383815181106137d6576137d66155a5565b6020908102919091010152816137eb81615615565b925050613761565b858181518110613805576138056155a5565b60200260200101516001600160a01b0316878381518110613828576138286155a5565b60200260200101516001600160a01b031611156138a157848181518110613851576138516155a5565b602002602001015160001415613873578061386b81615615565b915050613761565b60405162461bcd60e51b815260206004820152600360248201526254505360e81b6044820152606401610718565b8481815181106138b3576138b36155a5565b60200260200101518383815181106138cd576138cd6155a5565b6020908102919091010152816138e281615615565b925050808061386b90615615565b865182101561392a57600083838151811061390d5761390d6155a5565b60209081029190910101528161392281615615565b9250506138f0565b509095945050505050565b6040516001600160a01b0380851660248301528316604482015260648101829052611d5a9085906323b872dd60e01b90608401612c93565b6004805460408051808201909152918252631253925560e21b6020830152156139a95760405162461bcd60e51b815260040161071891906152c9565b506139b382614967565b60405180604001604052806004815260200163494e564160e01b815250906139ee5760405162461bcd60e51b815260040161071891906152c9565b506040805180820190915260028152612b2d60f11b602082015281613a265760405162461bcd60e51b815260040161071891906152c9565b506000336001600160a01b0316637ac46fbb6040518163ffffffff1660e01b815260040160606040518083038186803b158015613a6257600080fd5b505afa158015613a76573d6000803e3d6000fd5b505050506040513d601f19601f82011682018060405250810190613a9a919061550c565b51835190915015801590613b1f5750806001600160a01b03166378546fa26040518163ffffffff1660e01b815260040160206040518083038186803b158015613ae257600080fd5b505afa158015613af6573d6000803e3d6000fd5b505050506040513d601f19601f82011682018060405250810190613b1a91906155e6565b835111155b6040518060400160405280600381526020016224a72b60e91b81525090613b595760405162461bcd60e51b815260040161071891906152c9565b5060005b8351811015613c5d57816001600160a01b03166363e85d2d858381518110613b8757613b876155a5565b60209081029190910101516040516001600160e01b031960e084901b1681526001600160a01b0390911660048201526003602482015260440160206040518083038186803b158015613bd857600080fd5b505afa158015613bec573d6000803e3d6000fd5b505050506040513d601f19601f82011682018060405250810190613c1091906155cb565b6040518060400160405280600381526020016223292160e91b81525090613c4a5760405162461bcd60e51b815260040161071891906152c9565b5080613c5581615615565b915050613b5d565b50600180546001600160a01b031916331790558251613c83906002906020860190614d8b565b50600482905560025460005b81811015613db357613ca2816001615938565b60036000878481518110613cb857613cb86155a5565b60200260200101516001600160a01b03166001600160a01b03168152602001908152602001600020819055506000858281518110613cf857613cf86155a5565b6020026020010151905060056002826001600160a01b031663313ce5676040518163ffffffff1660e01b815260040160206040518083038186803b158015613d3f57600080fd5b505afa158015613d53573d6000803e3d6000fd5b505050506040513d601f19601f82011682018060405250810190613d779190615c4f565b613d819190615c6a565b613d8c90600a615d7e565b8154600181018355600092835260209092209091015550613dac81615615565b9050613c8f565b50604051339032907f0f043e55a1ce0d7ce25125ccbc2800b540d83e21abf7250f0156c2091a28b22190613dea9088908890615d8d565b60405180910390a350505050565b604051636eb1769f60e11b81523060048201526001600160a01b0383811660248301526000919085169063dd62ed3e9060440160206040518083038186803b158015613e4357600080fd5b505afa158015613e57573d6000803e3d6000fd5b505050506040513d601f19601f82011682018060405250810190613e7b91906155e6565b9050611d5a8463095ea7b360e01b85613e948686615938565b6040516001600160a01b0390921660248301526044820152606401612c93565b60408051600280825260608083018452926020830190803683370190505060065490915080613ee357506106cb565b6000613eed612a21565b60000151604001516001600160a01b031663e76c01e46040518163ffffffff1660e01b815260040160e06040518083038186803b158015613f2d57600080fd5b505afa158015613f41573d6000803e3d6000fd5b505050506040513d601f19601f82011682018060405250810190613f659190615b82565b505050505050905060007f00000000000000000000000000000000000000000000000000000000000000006001600160a01b03166385b286578484896040518463ffffffff1660e01b8152600401613fbf93929190615c0a565b60206040518083038186803b158015613fd757600080fd5b505afa158015613feb573d6000803e3d6000fd5b505050506040513d601f19601f8201168201806040525081019061400f9190615c34565b90506001600160801b038116614027575050506106cb565b600080600061403588614a0a565b9250925092507f00000000000000000000000000000000000000000000000000000000000000006001600160a01b031663219f5d176040518060c001604052808981526020018c60008151811061408e5761408e6155a5565b602002602001015181526020018c6001815181106140ae576140ae6155a5565b60200260200101518152602001868152602001858152602001848152506040518263ffffffff1660e01b81526004016141269190600060c082019050825182526020830151602083015260408301516040830152606083015160608301526080830151608083015260a083015160a083015292915050565b606060405180830381600087803b15801561414057600080fd5b505af1158015614154573d6000803e3d6000fd5b505050506040513d601f19601f820116820180604052508101906141789190615daf565b9091508860008151811061418e5761418e6155a5565b60200260200101896001815181106141a8576141a86155a5565b60209081029190910101919091525250505050505092915050565b6000826001600160a01b0316846001600160a01b031614806141e3575084155b156141ef57508361102a565b7f00000000000000000000000000000000000000000000000000000000000000006001600160a01b0316846001600160a01b03161415614369576040516367dfd4c960e01b8152600481018690527f00000000000000000000000000000000000000000000000000000000000000006001600160a01b0316906367dfd4c990602401600060405180830381600087803b15801561428b57600080fd5b505af115801561429f573d6000803e3d6000fd5b50506040516370a0823160e01b81523060048201527f000000000000000000000000000000000000000000000000000000000000000096506001600160a01b03871692506370a08231915060240160206040518083038186803b15801561430557600080fd5b505afa158015614319573d6000803e3d6000fd5b505050506040513d601f19601f8201168201806040525081019061433d91906155e6565b9450826001600160a01b0316846001600160a01b0316148061435d575084155b1561436957508361102a565b60405163d9a641e160e01b81526001600160a01b03858116600483015284811660248301526000917f00000000000000000000000000000000000000000000000000000000000000009091169063d9a641e19060440160206040518083038186803b1580156143d757600080fd5b505afa1580156143eb573d6000803e3d6000fd5b505050506040513d601f19601f8201168201806040525081019061440f9190615588565b90506000816001600160a01b031663e76c01e46040518163ffffffff1660e01b815260040160e06040518083038186803b15801561444c57600080fd5b505afa158015614460573d6000803e3d6000fd5b505050506040513d601f19601f820116820180604052508101906144849190615b82565b505050505050905060006144af826001600160a01b0316836001600160a01b0316600160601b614a94565b9050856001600160a01b0316836001600160a01b0316630dfe16816040518163ffffffff1660e01b815260040160206040518083038186803b1580156144f457600080fd5b505afa158015614508573d6000803e3d6000fd5b505050506040513d601f19601f8201168201806040525081019061452c9190615588565b6001600160a01b0316141561454d5761454a600160601b8083614a94565b90505b600061455e8983600160601b614a94565b905061457c8161457288633b9aca0061582d565b633b9aca00614a94565b90506145b26001600160a01b0389167f00000000000000000000000000000000000000000000000000000000000000008b613df8565b7f00000000000000000000000000000000000000000000000000000000000000006001600160a01b031663bc6511886040518060e001604052808b6001600160a01b031681526020018a6001600160a01b03168152602001306001600160a01b031681526020014260016146269190615938565b815260208082018e90526040808301879052600060609384015280516001600160e01b031960e087901b16815284516001600160a01b039081166004830152928501518316602482015290840151821660448201529183015160648301526080830151608483015260a083015160a483015260c09092015190911660c482015260e401602060405180830381600087803b1580156146c357600080fd5b505af11580156146d7573d6000803e3d6000fd5b505050506040513d601f19601f820116820180604052508101906146fb91906155e6565b94506147326001600160a01b0389167f00000000000000000000000000000000000000000000000000000000000000006000614b47565b50505050949350505050565b614746612092565b50806001600160a01b03166334267cbc61475e612a21565b516040516001600160e01b031960e084901b16815261478591908690600090600401615de4565b600060405180830381600087803b15801561479f57600080fd5b505af11580156147b3573d6000803e3d6000fd5b5050604051633c423f0b60e01b81526004810185905230602482015260606044820152600060648201526001600160a01b0384169250633c423f0b9150608401612eb7565b60006301ffc9a760e01b6001600160e01b0319831614806106cb57506001600160e01b0319821663305a640b60e21b1492915050565b6000614883826040518060400160405280602081526020017f5361666545524332303a206c6f772d6c6576656c2063616c6c206661696c6564815250856001600160a01b0316614c6b9092919063ffffffff16565b90508051600014806148a45750808060200190518101906148a491906155cb565b612cca5760405162461bcd60e51b815260206004820152602a60248201527f5361666545524332303a204552433230206f7065726174696f6e20646964206e6044820152691bdd081cdd58d8d9595960b21b6064820152608401610718565b60008060008351604114604051806040016040528060048152602001631253959360e21b815250906149485760405162461bcd60e51b815260040161071891906152c9565b5050505060208101516040820151606090920151909260009190911a90565b600060028251101561497b57506001919050565b60005b6001835161498c919061582d565b811015614a01578261499f826001615938565b815181106149af576149af6155a5565b60200260200101516001600160a01b03168382815181106149d2576149d26155a5565b60200260200101516001600160a01b0316106149f15750600092915050565b6149fa81615615565b905061497e565b50600192915050565b6000806000835160001415614a3257600080614a27426001615938565b925092509250614a8d565b83516060146040518060400160405280600381526020016224a72b60e91b81525090614a715760405162461bcd60e51b815260040161071891906152c9565b5083806020019051810190614a869190615e08565b9250925092505b9193909250565b600080806000198587098587029250828110838203039150508060001415614ace5760008411614ac357600080fd5b508290049050612029565b808411614ada57600080fd5b6000848688096000868103871696879004966002600389028118808a02820302808a02820302808a02820302808a02820302808a02820302808a02909103029181900381900460010186841190950394909402919094039290920491909117919091029150509392505050565b801580614bd05750604051636eb1769f60e11b81523060048201526001600160a01b03838116602483015284169063dd62ed3e9060440160206040518083038186803b158015614b9657600080fd5b505afa158015614baa573d6000803e3d6000fd5b505050506040513d601f19601f82011682018060405250810190614bce91906155e6565b155b614c3b5760405162461bcd60e51b815260206004820152603660248201527f5361666545524332303a20617070726f76652066726f6d206e6f6e2d7a65726f60448201527520746f206e6f6e2d7a65726f20616c6c6f77616e636560501b6064820152608401610718565b6040516001600160a01b038316602482015260448101829052612cca90849063095ea7b360e01b90606401612c93565b606061102a848460008585600080866001600160a01b03168587604051614c9291906158cd565b60006040518083038185875af1925050503d8060008114614ccf576040519150601f19603f3d011682016040523d82523d6000602084013e614cd4565b606091505b5091509150614ce587838387614cf0565b979650505050505050565b60608315614d5c578251614d55576001600160a01b0385163b614d555760405162461bcd60e51b815260206004820152601d60248201527f416464726573733a2063616c6c20746f206e6f6e2d636f6e74726163740000006044820152606401610718565b508161102a565b61102a8383815115614d715781518083602001fd5b8060405162461bcd60e51b815260040161071891906152c9565b828054828255906000526020600020908101928215614de0579160200282015b82811115614de057825182546001600160a01b0319166001600160a01b03909116178255602090920191600190910190614dab565b50614dec929150614df0565b5090565b5b80821115614dec5760008155600101614df1565b6001600160e01b031981168114614e1b57600080fd5b50565b600060208284031215614e3057600080fd5b813561202981614e05565b634e487b7160e01b600052604160045260246000fd5b60405160a081016001600160401b0381118282101715614e7357614e73614e3b565b60405290565b604051601f8201601f191681016001600160401b0381118282101715614ea157614ea1614e3b565b604052919050565b60006001600160401b03821115614ec257614ec2614e3b565b5060051b60200190565b6001600160a01b0381168114614e1b57600080fd5b600082601f830112614ef257600080fd5b81356020614f07614f0283614ea9565b614e79565b82815260059290921b84018101918181019086841115614f2657600080fd5b8286015b84811015614f4a578035614f3d81614ecc565b8352918301918301614f2a565b509695505050505050565b600060208284031215614f6757600080fd5b81356001600160401b03811115614f7d57600080fd5b61102a84828501614ee1565b600081518084526020808501945080840160005b83811015614fb957815187529582019590820190600101614f9d565b509495945050505050565b6020815260006120296020830184614f89565b600082601f830112614fe857600080fd5b81356001600160401b0381111561500157615001614e3b565b615014601f8201601f1916602001614e79565b81815284602083860101111561502957600080fd5b816020850160208301376000918101602001919091529392505050565b6000806000806080858703121561505c57600080fd5b843561506781614ecc565b9350602085013561507781614ecc565b92506040850135915060608501356001600160401b0381111561509957600080fd5b6150a587828801614fd7565b91505092959194509250565b600080604083850312156150c457600080fd5b8235915060208301356001600160401b038111156150e157600080fd5b6150ed85828601614fd7565b9150509250929050565b600082601f83011261510857600080fd5b81356020615118614f0283614ea9565b82815260059290921b8401810191818101908684111561513757600080fd5b8286015b84811015614f4a578035835291830191830161513b565b6000806000806080858703121561516857600080fd5b843561517381614ecc565b935060208501356001600160401b038082111561518f57600080fd5b61519b88838901614ee1565b945060408701359150808211156151b157600080fd5b6151bd888389016150f7565b935060608701359150808211156151d357600080fd5b506150a587828801614fd7565b600080600080606085870312156151f657600080fd5b843561520181614ecc565b9350602085013561521181614e05565b925060408501356001600160401b038082111561522d57600080fd5b818701915087601f83011261524157600080fd5b81358181111561525057600080fd5b88602082850101111561526257600080fd5b95989497505060200194505050565b60005b8381101561528c578181015183820152602001615274565b83811115611d5a5750506000910152565b600081518084526152b5816020860160208601615271565b601f01601f19169290920160200192915050565b602081526000612029602083018461529d565b6000602082840312156152ee57600080fd5b813561202981614ecc565b60008060006060848603121561530e57600080fd5b83359250602084013561532081614ecc565b915060408401356001600160401b0381111561533b57600080fd5b61534786828701614ee1565b9150509250925092565b60008060006060848603121561536657600080fd5b83356001600160401b038082111561537d57600080fd5b61538987838801614ee1565b9450602086013591508082111561539f57600080fd5b6153ab878388016150f7565b935060408601359150808211156153c157600080fd5b5061534786828701614fd7565b600081518084526020808501945080840160005b83811015614fb95781516001600160a01b0316875295820195908201906001016153e2565b60208152600061202960208301846153ce565b6000806040838503121561542d57600080fd5b82359150602083013561543f81614ecc565b809150509250929050565b60408152600061545d6040830185614f89565b828103602084015261546f8185614f89565b95945050505050565b80516001600160a01b0390811683526020808301518216908401526040808301519091169083015260608082015190830152608090810151910152565b6154c0828251615478565b60208101516001600160a01b0390811660a084015260408201511660c0830152606081015160e08301526080015163ffffffff1661010090910152565b61012081016106cb82846154b5565b60006060828403121561551e57600080fd5b604051606081018181106001600160401b038211171561554057615540614e3b565b604052825161554e81614ecc565b8152602083015161555e81614ecc565b6020820152604083015161557181614ecc565b60408201529392505050565b8051610b4481614ecc565b60006020828403121561559a57600080fd5b815161202981614ecc565b634e487b7160e01b600052603260045260246000fd5b80518015158114610b4457600080fd5b6000602082840312156155dd57600080fd5b612029826155bb565b6000602082840312156155f857600080fd5b5051919050565b634e487b7160e01b600052601160045260246000fd5b6000600019821415615629576156296155ff565b5060010190565b6001600160a01b0384168152606060208201819052600090615654908301856153ce565b82810360408401526156668185614f89565b9695505050505050565b8051600281900b8114610b4457600080fd5b80516001600160801b0381168114610b4457600080fd5b60008060008060008060008060008060006101608c8e0312156156bb57600080fd5b8b516bffffffffffffffffffffffff811681146156d757600080fd5b60208d0151909b506156e881614ecc565b60408d0151909a506156f981614ecc565b985061570760608d0161557d565b975061571560808d01615670565b965061572360a08d01615670565b955061573160c08d01615682565b945060e08c015193506101008c0151925061574f6101208d01615682565b915061575e6101408d01615682565b90509295989b509295989b9093969950565b805163ffffffff81168114610b4457600080fd5b6000806000806080858703121561579a57600080fd5b845193506157aa60208601615770565b92506157b8604086016155bb565b915060608501516157c881614ecc565b939692955090935050565b82815260406020820152600061102a604083018461529d565b6000602082840312156157fe57600080fd5b815161202981614e05565b6001600160a01b038316815260406020820181905260009061102a90830184614f89565b60008282101561583f5761583f6155ff565b500390565b6001600160a01b03878116825286166020820152604081018590526001600160e01b03198416606082015260a06080820181905281018290526000828460c0840137600060c0848401015260c0601f19601f8501168301019050979650505050505050565b6001600160e01b031984168152818360048301376000910160040190815292915050565b600082516158df818460208701615271565b9190910192915050565b6001600160a01b038416815260e081016159066020830185615478565b8260c0830152949350505050565b6000806040838503121561592757600080fd5b505080516020909101519092909150565b6000821982111561594b5761594b6155ff565b500190565b60c0810161595e8285615478565b8260a08301529392505050565b815181526020808301516001600160a01b0316908201526040808301516001600160801b0390811691830191909152606092830151169181019190915260800190565b84815261018081016159c360208301866154b5565b6001600160a01b03938416610140830152919092166101609092019190915292915050565b600060208083850312156159fb57600080fd5b82516001600160401b03811115615a1157600080fd5b8301601f81018513615a2257600080fd5b8051615a30614f0282614ea9565b81815260059190911b82018301908381019087831115615a4f57600080fd5b928401925b82841015614ce557835182529284019290840190615a54565b6000818303610120811215615a8157600080fd5b615a89614e51565b60a0821215615a9757600080fd5b615a9f614e51565b91508351615aac81614ecc565b82526020840151615abc81614ecc565b60208301526040840151615acf81614ecc565b806040840152506060840151606083015260808401516080830152818152615af960a0850161557d565b6020820152615b0a60c0850161557d565b604082015260e08401516060820152615b266101008501615770565b6080820152949350505050565b6101008101615b428287615478565b8460a08301528360c083015282151560e083015295945050505050565b805161ffff81168114610b4457600080fd5b805160ff81168114610b4457600080fd5b600080600080600080600060e0888a031215615b9d57600080fd5b8751615ba881614ecc565b9650615bb660208901615670565b9550615bc460408901615b5f565b9450615bd260608901615b5f565b9350615be060808901615b71565b9250615bee60a08901615b71565b9150615bfc60c089016155bb565b905092959891949750929550565b8381526001600160a01b038316602082015260606040820181905260009061546f90830184614f89565b600060208284031215615c4657600080fd5b61202982615682565b600060208284031215615c6157600080fd5b61202982615b71565b600060ff831680615c8b57634e487b7160e01b600052601260045260246000fd5b8060ff84160491505092915050565b600181815b80851115615cd5578160001904821115615cbb57615cbb6155ff565b80851615615cc857918102915b93841c9390800290615c9f565b509250929050565b600082615cec575060016106cb565b81615cf9575060006106cb565b8160018114615d0f5760028114615d1957615d35565b60019150506106cb565b60ff841115615d2a57615d2a6155ff565b50506001821b6106cb565b5060208310610133831016604e8410600b8410161715615d58575081810a6106cb565b615d628383615c9a565b8060001904821115615d7657615d766155ff565b029392505050565b600061202960ff841683615cdd565b604081526000615da060408301856153ce565b90508260208301529392505050565b600080600060608486031215615dc457600080fd5b615dcd84615682565b925060208401519150604084015190509250925092565b60e08101615df28286615478565b8360a083015282151560c0830152949350505050565b600080600060608486031215615e1d57600080fd5b835192506020840151915060408401519050925092509256fea26469706673582212206535092aeffedce68f09a2f3f89a37e7f6de0831ef519a5e9edf207a30410f5564736f6c63430008090033",
    "linkReferences": {}
  },
  "methodIdentifiers": {
    "D9()": "551530ae",
    "Q96()": "40792465",
    "burnFarmingPosition(uint256,address)": "f451b770",
    "collectEarnings()": "c27b2c2d",
    "collectRewards()": "70bb45b3",
    "dQuickToken()": "9eb25aa9",
    "erc20Vault()": "090f9221",
    "externalCall(address,bytes4,bytes)": "2e2f4cc2",
    "factory()": "c45a0155",
    "farmingCenter()": "dd56e5d8",
    "helper()": "63b0e66a",
    "initialize(uint256,address,address[])": "463e34be",
    "initialized()": "158ef93e",
    "isValidSignature(bytes32,bytes)": "1626ba7e",
    "isVaultToken(address)": "338c4ccb",
    "nft()": "47ccca02",
    "onERC721Received(address,address,uint256,bytes)": "150b7a02",
    "openFarmingPosition(uint256,address)": "d82f7267",
    "positionManager()": "791b98bc",
    "positionNft()": "ef7d8037",
    "pull(address,address[],uint256[],bytes)": "2062d754",
    "pullExistentials()": "d2c219b0",
    "push(address[],uint256[],bytes)": "566ca6b4",
    "quickToken()": "aec2609d",
    "reclaimTokens(address[])": "05e1c942",
    "strategyParams()": "f57f33d0",
    "supportsInterface(bytes4)": "01ffc9a7",
    "swapRouter()": "c31c9c07",
    "transferAndPush(address,address[],uint256[],bytes)": "27a35e5a",
    "tvl()": "e5328e06",
    "vaultGovernance()": "fe255a5e",
    "vaultTokens()": "69722233"
  },
  "id": 472
}