{
  "abi": [
    {
      "inputs": [
        {
          "internalType": "contract IPoolStorage",
          "name": "pool",
          "type": "address"
        }
      ],
      "name": "getAllTicks",
      "outputs": [
        {
          "internalType": "int24[]",
          "name": "allTicks",
          "type": "int24[]"
        }
      ],
      "stateMutability": "view",
      "type": "function"
    },
    {
      "inputs": [
        {
          "internalType": "contract IPoolStorage",
          "name": "pool",
          "type": "address"
        },
        {
          "internalType": "int24",
          "name": "tick",
          "type": "int24"
        }
      ],
      "name": "getNearestInitializedTicks",
      "outputs": [
        {
          "internalType": "int24",
          "name": "previous",
          "type": "int24"
        },
        {
          "internalType": "int24",
          "name": "next",
          "type": "int24"
        }
      ],
      "stateMutability": "view",
      "type": "function"
    },
    {
      "inputs": [
        {
          "internalType": "contract IPoolStorage",
          "name": "pool",
          "type": "address"
        },
        {
          "internalType": "int24",
          "name": "startTick",
          "type": "int24"
        },
        {
          "internalType": "uint32",
          "name": "length",
          "type": "uint32"
        }
      ],
      "name": "getTicksInRange",
      "outputs": [
        {
          "internalType": "int24[]",
          "name": "allTicks",
          "type": "int24[]"
        }
      ],
      "stateMutability": "view",
      "type": "function"
    },
    {
      "inputs": [
        {
          "internalType": "contract IBasePositionManager",
          "name": "posManager",
          "type": "address"
        },
        {
          "internalType": "contract IPoolStorage",
          "name": "pool",
          "type": "address"
        },
        {
          "internalType": "uint256",
          "name": "tokenId",
          "type": "uint256"
        }
      ],
      "name": "getTotalFeesOwedToPosition",
      "outputs": [
        {
          "internalType": "uint256",
          "name": "token0Owed",
          "type": "uint256"
        },
        {
          "internalType": "uint256",
          "name": "token1Owed",
          "type": "uint256"
        }
      ],
      "stateMutability": "view",
      "type": "function"
    },
    {
      "inputs": [
        {
          "internalType": "contract IBasePositionManager",
          "name": "posManager",
          "type": "address"
        },
        {
          "internalType": "contract IPoolStorage",
          "name": "pool",
          "type": "address"
        },
        {
          "internalType": "uint256",
          "name": "tokenId",
          "type": "uint256"
        }
      ],
      "name": "getTotalRTokensOwedToPosition",
      "outputs": [
        {
          "internalType": "uint256",
          "name": "rTokenOwed",
          "type": "uint256"
        }
      ],
      "stateMutability": "view",
      "type": "function"
    }
  ],
  "bytecode": {
    "object": "0x608060405234801561001057600080fd5b50611ab7806100206000396000f3fe608060405234801561001057600080fd5b50600436106100575760003560e01c806304415a001461005c578063529eebbe146100825780636163c59c146100a25780636bea4865146100ca578063e5a9cc56146100dd575b600080fd5b61006f61006a366004611422565b61010a565b6040519081526020015b60405180910390f35b610095610090366004611463565b6102e4565b6040516100799190611480565b6100b56100b0366004611422565b6104ec565b60408051928352602083019190915201610079565b6100956100d83660046114d6565b6107ed565b6100f06100eb36600461152a565b610ac3565b60408051600293840b81529190920b602082015201610079565b60405163133f757160e31b81526004810182905260009081906001600160a01b038616906399fbab88906024016101606040518083038186803b15801561015057600080fd5b505afa158015610164573d6000803e3d6000fd5b505050506040513d601f19601f820116820180604052508101906101889190611691565b50604080820151905163097fc67360e31b81526001600160a01b0387811660048301529293506001600160501b0390911691871690634bfe33989060240160206040518083038186803b1580156101de57600080fd5b505afa1580156101f2573d6000803e3d6000fd5b505050506040513d601f19601f820116820180604052508101906102169190611761565b6001600160501b0316146102715760405162461bcd60e51b815260206004820152601b60248201527f746f6b656e496420616e6420706f6f6c20646f6e74206d61746368000000000060448201526064015b60405180910390fd5b600061027c85610db3565b509050600061028c868484610f7e565b90508260e0015181146102d65760008360e00151820390506102c08460a001516001600160801b031682600160601b611154565b8460c0018181516102d19190611792565b905250505b505060c00151949350505050565b60606000826001600160a01b03166348626a8c6040518163ffffffff1660e01b815260040160206040518083038186803b15801561032157600080fd5b505afa158015610335573d6000803e3d6000fd5b505050506040513d601f19601f8201168201806040525081019061035991906117aa565b610366620d89e7196117c7565b61037091906117ea565b60020b600261037f9190611832565b61038a906003611792565b90508063ffffffff1667ffffffffffffffff8111156103ab576103ab611563565b6040519080825280602002602001820160405280156103d4578160200160208202803683370190505b5091506000620d89e719905080836000815181106103f4576103f4611851565b60029290920b6020928302919091019091015260015b610417620d89e7196117c7565b60020b8260020b12156104e45760405163c0ac75cf60e01b8152600283900b60048201526001600160a01b0386169063c0ac75cf90602401604080518083038186803b15801561046657600080fd5b505afa15801561047a573d6000803e3d6000fd5b505050506040513d601f19601f8201168201806040525081019061049e9190611867565b90508092505081848263ffffffff16815181106104bd576104bd611851565b602002602001019060020b908160020b8152505080806104dc90611896565b91505061040a565b505050919050565b6000806000856001600160a01b03166399fbab88856040518263ffffffff1660e01b815260040161051f91815260200190565b6101606040518083038186803b15801561053857600080fd5b505afa15801561054c573d6000803e3d6000fd5b505050506040513d601f19601f820116820180604052508101906105709190611691565b50604080820151905163097fc67360e31b81526001600160a01b0388811660048301529293506001600160501b0390911691881690634bfe33989060240160206040518083038186803b1580156105c657600080fd5b505afa1580156105da573d6000803e3d6000fd5b505050506040513d601f19601f820116820180604052508101906105fe9190611761565b6001600160501b0316146106545760405162461bcd60e51b815260206004820152601b60248201527f746f6b656e496420616e6420706f6f6c20646f6e74206d6174636800000000006044820152606401610268565b60008061066087610db3565b915091506000610671888585610f7e565b90508360e0015181146106bb5760008460e00151820390506106a58560a001516001600160801b031682600160601b611154565b8560c0018181516106b69190611792565b905250505b6000886001600160a01b031663ab612f2b6040518163ffffffff1660e01b815260040160606040518083038186803b1580156106f657600080fd5b505afa15801561070a573d6000803e3d6000fd5b505050506040513d601f19601f8201168201806040525081019061072e91906118ba565b50915050600061074c8660c00151836001600160801b031686611154565b905060008a6001600160a01b031663217ac2376040518163ffffffff1660e01b815260040160806040518083038186803b15801561078957600080fd5b505afa15801561079d573d6000803e3d6000fd5b505050506040513d601f19601f820116820180604052508101906107c191906118fd565b50505090506107d08183611273565b98506107dc8183611296565b975050505050505050935093915050565b60405163c0ac75cf60e01b8152600283900b600482015260609060009081906001600160a01b0387169063c0ac75cf90602401604080518083038186803b15801561083757600080fd5b505afa15801561084b573d6000803e3d6000fd5b505050506040513d601f19601f8201168201806040525081019061086f9190611867565b915091508160020b600014801561088957508060020b6000145b15610895575050610abc565b600063ffffffff851661097557866001600160a01b03166348626a8c6040518163ffffffff1660e01b815260040160206040518083038186803b1580156108db57600080fd5b505afa1580156108ef573d6000803e3d6000fd5b505050506040513d601f19601f8201168201806040525081019061091391906117aa565b86610921620d89e7196117c7565b61092b9190611961565b61093591906117ea565b60020b90508560020b6000148061095d5750610954620d89e7196117c7565b60020b8660020b145b15610970578061096c81611896565b9150505b610978565b50835b8063ffffffff1667ffffffffffffffff81111561099757610997611563565b6040519080825280602002602001820160405280156109c0578160200160208202803683370190505b50935060005b8163ffffffff168163ffffffff161015610ab75786858263ffffffff16815181106109f3576109f3611851565b602002602001019060020b908160020b81525050620d89e719610a15906117c7565b60020b8760020b1415610a2757610ab7565b60405163c0ac75cf60e01b8152600288900b60048201526001600160a01b0389169063c0ac75cf90602401604080518083038186803b158015610a6957600080fd5b505afa158015610a7d573d6000803e3d6000fd5b505050506040513d601f19601f82011682018060405250810190610aa19190611867565b9750819050610aaf81611896565b9150506109c6565b505050505b9392505050565b60405163c0ac75cf60e01b8152600282900b600482015260009081906001600160a01b0385169063c0ac75cf90602401604080518083038186803b158015610b0a57600080fd5b505afa158015610b1e573d6000803e3d6000fd5b505050506040513d601f19601f82011682018060405250810190610b429190611867565b9092509050600282900b151580610b5d57508060020b600014155b15610b6757610dac565b60008360020b1315610c9657610b80620d89e7196117c7565b91505b8260020b8260020b1315610c135760405163c0ac75cf60e01b8152600283900b60048201526001600160a01b0385169063c0ac75cf90602401604080518083038186803b158015610bd357600080fd5b505afa158015610be7573d6000803e3d6000fd5b505050506040513d601f19601f82011682018060405250810190610c0b9190611867565b509150610b83565b60405163c0ac75cf60e01b8152600283900b60048201526001600160a01b0385169063c0ac75cf90602401604080518083038186803b158015610c5557600080fd5b505afa158015610c69573d6000803e3d6000fd5b505050506040513d601f19601f82011682018060405250810190610c8d9190611867565b9150610dac9050565b50620d89e7195b8260020b8160020b1215610d2e5760405163c0ac75cf60e01b8152600282900b60048201526001600160a01b0385169063c0ac75cf90602401604080518083038186803b158015610ced57600080fd5b505afa158015610d01573d6000803e3d6000fd5b505050506040513d601f19601f82011682018060405250810190610d259190611867565b9150610c9d9050565b60405163c0ac75cf60e01b8152600282900b60048201526001600160a01b0385169063c0ac75cf90602401604080518083038186803b158015610d7057600080fd5b505afa158015610d84573d6000803e3d6000fd5b505050506040513d601f19601f82011682018060405250810190610da89190611867565b5091505b9250929050565b6000806000806000856001600160a01b031663ab612f2b6040518163ffffffff1660e01b815260040160606040518083038186803b158015610df457600080fd5b505afa158015610e08573d6000803e3d6000fd5b505050506040513d601f19601f82011682018060405250810190610e2c91906118ba565b925092509250856001600160a01b03166372cc51486040518163ffffffff1660e01b815260040160206040518083038186803b158015610e6b57600080fd5b505afa158015610e7f573d6000803e3d6000fd5b505050506040513d601f19601f82011682018060405250810190610ea391906119a9565b9450856001600160a01b03166318160ddd6040518163ffffffff1660e01b815260040160206040518083038186803b158015610ede57600080fd5b505afa158015610ef2573d6000803e3d6000fd5b505050506040513d601f19601f82011682018060405250810190610f1691906119a9565b93506000610f38836001600160801b0316836001600160801b031686886112b0565b90508015610f7557610f4a8186611792565b9450610f5687826112f9565b9050610f7081600160601b866001600160801b0316611154565b860195505b50505050915091565b606082015160405163f30dba9360e01b815260029190910b600482015260009081906001600160a01b0386169063f30dba939060240160806040518083038186803b158015610fcc57600080fd5b505afa158015610fe0573d6000803e3d6000fd5b505050506040513d601f19601f8201168201806040525081019061100491906119c2565b50608087015160405163f30dba9360e01b815260029190910b6004820152909350600092506001600160a01b038816915063f30dba939060240160806040518083038186803b15801561105657600080fd5b505afa15801561106a573d6000803e3d6000fd5b505050506040513d601f19601f8201168201806040525081019061108e91906119c2565b50925050506000866001600160a01b031663217ac2376040518163ffffffff1660e01b815260040160806040518083038186803b1580156110ce57600080fd5b505afa1580156110e2573d6000803e3d6000fd5b505050506040513d601f19601f8201168201806040525081019061110691906118fd565b5050915050856060015160020b8160020b121561112757818303935061114a565b856080015160020b8160020b1261114257828203935061114a565b818386030393505b5050509392505050565b6000808060001985870985870292508281108382030391505080600014156111bb57600084116111b05760405162461bcd60e51b8152602060048201526007602482015266302064656e6f6d60c81b6044820152606401610268565b508290049050610abc565b8084116111fb5760405162461bcd60e51b815260206004820152600e60248201526d64656e6f6d203c3d2070726f643160901b6044820152606401610268565b600084868809808403938111909203919050600061121b86196001611792565b8616958690049560026003880281188089028203028089028203028089028203028089028203028089028203028089029091030260008290038290046001019490940294049390931791909102925050509392505050565b600061128d82600160601b856001600160a01b0316611154565b90505b92915050565b600061128d82846001600160a01b0316600160601b611154565b6000806112e26001600160801b0385166112ca8789611a18565b6112dd896001600160801b038916611792565b611154565b90506112ef838287611154565b9695505050505050565b600080836001600160a01b031663c45a01556040518163ffffffff1660e01b815260040160206040518083038186803b15801561133557600080fd5b505afa158015611349573d6000803e3d6000fd5b505050506040513d601f19601f8201168201806040525081019061136d9190611a2f565b6001600160a01b03166398c47e8c6040518163ffffffff1660e01b8152600401604080518083038186803b1580156113a457600080fd5b505afa1580156113b8573d6000803e3d6000fd5b505050506040513d601f19601f820116820180604052508101906113dc9190611a4c565b91505062ffffff81166113f25782915050611290565b620186a062ffffff9190911683020490910392915050565b6001600160a01b038116811461141f57600080fd5b50565b60008060006060848603121561143757600080fd5b83356114428161140a565b925060208401356114528161140a565b929592945050506040919091013590565b60006020828403121561147557600080fd5b8135610abc8161140a565b6020808252825182820181905260009190848201906040850190845b818110156114bb57835160020b8352928401929184019160010161149c565b50909695505050505050565b8060020b811461141f57600080fd5b6000806000606084860312156114eb57600080fd5b83356114f68161140a565b92506020840135611506816114c7565b9150604084013563ffffffff8116811461151f57600080fd5b809150509250925092565b6000806040838503121561153d57600080fd5b82356115488161140a565b91506020830135611558816114c7565b809150509250929050565b634e487b7160e01b600052604160045260246000fd5b604051610100810167ffffffffffffffff811182821017156115ab57634e487b7160e01b600052604160045260246000fd5b60405290565b80516115bc8161140a565b919050565b80516001600160501b03811681146115bc57600080fd5b80516115bc816114c7565b80516001600160801b03811681146115bc57600080fd5b805162ffffff811681146115bc57600080fd5b60006060828403121561161f57600080fd5b6040516060810181811067ffffffffffffffff8211171561165057634e487b7160e01b600052604160045260246000fd5b806040525080915082516116638161140a565b8152611671602084016115fa565b602082015260408301516116848161140a565b6040919091015292915050565b6000808284036101608112156116a657600080fd5b610100808212156116b657600080fd5b6116be611579565b915084516bffffffffffffffffffffffff811681146116dc57600080fd5b82526116ea602086016115b1565b60208301526116fb604086016115c1565b604083015261170c606086016115d8565b606083015261171d608086016115d8565b608083015261172e60a086016115e3565b60a083015260c085015160c083015260e085015160e08301528193506117568682870161160d565b925050509250929050565b60006020828403121561177357600080fd5b61128d826115c1565b634e487b7160e01b600052601160045260246000fd5b600082198211156117a5576117a561177c565b500190565b6000602082840312156117bc57600080fd5b8151610abc816114c7565b60008160020b627fffff198114156117e1576117e161177c565b60000392915050565b60008160020b8360020b8061180f57634e487b7160e01b600052601260045260246000fd5b627fffff198214600019821416156118295761182961177c565b90059392505050565b600081600019048311821515161561184c5761184c61177c565b500290565b634e487b7160e01b600052603260045260246000fd5b6000806040838503121561187a57600080fd5b8251611885816114c7565b6020840151909250611558816114c7565b600063ffffffff808316818114156118b0576118b061177c565b6001019392505050565b6000806000606084860312156118cf57600080fd5b6118d8846115e3565b92506118e6602085016115e3565b91506118f4604085016115e3565b90509250925092565b6000806000806080858703121561191357600080fd5b845161191e8161140a565b602086015190945061192f816114c7565b6040860151909350611940816114c7565b6060860151909250801515811461195657600080fd5b939692955090935050565b60008160020b8360020b6000811281627fffff19018312811516156119885761198861177c565b81627fffff01831381161561199f5761199f61177c565b5090039392505050565b6000602082840312156119bb57600080fd5b5051919050565b600080600080608085870312156119d857600080fd5b6119e1856115e3565b9350602085015180600f0b81146119f757600080fd5b60408601519093509150611a0d606086016115e3565b905092959194509250565b600082821015611a2a57611a2a61177c565b500390565b600060208284031215611a4157600080fd5b8151610abc8161140a565b60008060408385031215611a5f57600080fd5b8251611a6a8161140a565b9150611a78602084016115fa565b9050925092905056fea2646970667358221220678d19f57209f5dc20a542e91f73ceb23d7c71b3dd143b3858d5e615bbcbd78b64736f6c63430008090033",
    "linkReferences": {}
  },
  "methodIdentifiers": {
    "getAllTicks(address)": "529eebbe",
    "getNearestInitializedTicks(address,int24)": "e5a9cc56",
    "getTicksInRange(address,int24,uint32)": "6bea4865",
    "getTotalFeesOwedToPosition(address,address,uint256)": "6163c59c",
    "getTotalRTokensOwedToPosition(address,address,uint256)": "04415a00"
  },
  "id": 224
}