{
  "abi": [
    {
      "inputs": [
        {
          "internalType": "contract IAlgebraNonfungiblePositionManager",
          "name": "positionManager_",
          "type": "address"
        },
        {
          "internalType": "address",
          "name": "quickToken_",
          "type": "address"
        },
        {
          "internalType": "address",
          "name": "dQuickToken_",
          "type": "address"
        }
      ],
      "stateMutability": "nonpayable",
      "type": "constructor"
    },
    {
      "inputs": [],
      "name": "Q128",
      "outputs": [
        {
          "internalType": "uint256",
          "name": "",
          "type": "uint256"
        }
      ],
      "stateMutability": "view",
      "type": "function"
    },
    {
      "inputs": [],
      "name": "Q96",
      "outputs": [
        {
          "internalType": "uint256",
          "name": "",
          "type": "uint256"
        }
      ],
      "stateMutability": "view",
      "type": "function"
    },
    {
      "inputs": [
        {
          "internalType": "contract IAlgebraEternalFarming",
          "name": "farming",
          "type": "address"
        },
        {
          "components": [
            {
              "internalType": "contract IERC20Minimal",
              "name": "rewardToken",
              "type": "address"
            },
            {
              "internalType": "contract IERC20Minimal",
              "name": "bonusRewardToken",
              "type": "address"
            },
            {
              "internalType": "contract IAlgebraPool",
              "name": "pool",
              "type": "address"
            },
            {
              "internalType": "uint256",
              "name": "startTime",
              "type": "uint256"
            },
            {
              "internalType": "uint256",
              "name": "endTime",
              "type": "uint256"
            }
          ],
          "internalType": "struct IIncentiveKey.IncentiveKey",
          "name": "key",
          "type": "tuple"
        },
        {
          "internalType": "uint256",
          "name": "nft",
          "type": "uint256"
        }
      ],
      "name": "calculateCollectableRewards",
      "outputs": [
        {
          "internalType": "uint256",
          "name": "rewardAmount",
          "type": "uint256"
        },
        {
          "internalType": "uint256",
          "name": "bonusRewardAmount",
          "type": "uint256"
        }
      ],
      "stateMutability": "view",
      "type": "function"
    },
    {
      "inputs": [
        {
          "internalType": "contract IAlgebraEternalVirtualPool",
          "name": "virtualPool",
          "type": "address"
        },
        {
          "internalType": "int24",
          "name": "tickLower",
          "type": "int24"
        },
        {
          "internalType": "int24",
          "name": "tickUpper",
          "type": "int24"
        }
      ],
      "name": "calculateInnerFeesGrow",
      "outputs": [
        {
          "internalType": "uint256",
          "name": "virtualPoolInnerRewardGrowth0",
          "type": "uint256"
        },
        {
          "internalType": "uint256",
          "name": "virtualPoolInnerRewardGrowth1",
          "type": "uint256"
        }
      ],
      "stateMutability": "view",
      "type": "function"
    },
    {
      "inputs": [
        {
          "internalType": "uint256",
          "name": "nft",
          "type": "uint256"
        },
        {
          "internalType": "uint160",
          "name": "sqrtRatioX96",
          "type": "uint160"
        },
        {
          "internalType": "uint256[]",
          "name": "tokenAmounts",
          "type": "uint256[]"
        }
      ],
      "name": "calculateLiquidityToPull",
      "outputs": [
        {
          "internalType": "uint128",
          "name": "liquidity",
          "type": "uint128"
        }
      ],
      "stateMutability": "view",
      "type": "function"
    },
    {
      "inputs": [
        {
          "internalType": "uint256",
          "name": "nft",
          "type": "uint256"
        },
        {
          "components": [
            {
              "components": [
                {
                  "internalType": "contract IERC20Minimal",
                  "name": "rewardToken",
                  "type": "address"
                },
                {
                  "internalType": "contract IERC20Minimal",
                  "name": "bonusRewardToken",
                  "type": "address"
                },
                {
                  "internalType": "contract IAlgebraPool",
                  "name": "pool",
                  "type": "address"
                },
                {
                  "internalType": "uint256",
                  "name": "startTime",
                  "type": "uint256"
                },
                {
                  "internalType": "uint256",
                  "name": "endTime",
                  "type": "uint256"
                }
              ],
              "internalType": "struct IIncentiveKey.IncentiveKey",
              "name": "key",
              "type": "tuple"
            },
            {
              "internalType": "address",
              "name": "bonusTokenToUnderlying",
              "type": "address"
            },
            {
              "internalType": "address",
              "name": "rewardTokenToUnderlying",
              "type": "address"
            },
            {
              "internalType": "uint256",
              "name": "swapSlippageD",
              "type": "uint256"
            },
            {
              "internalType": "uint32",
              "name": "rewardPoolTimespan",
              "type": "uint32"
            }
          ],
          "internalType": "struct IQuickSwapVaultGovernance.StrategyParams",
          "name": "strategyParams",
          "type": "tuple"
        },
        {
          "internalType": "contract IFarmingCenter",
          "name": "farmingCenter",
          "type": "address"
        },
        {
          "internalType": "address",
          "name": "token0",
          "type": "address"
        }
      ],
      "name": "calculateTvl",
      "outputs": [
        {
          "internalType": "uint256[]",
          "name": "tokenAmounts",
          "type": "uint256[]"
        }
      ],
      "stateMutability": "view",
      "type": "function"
    },
    {
      "inputs": [
        {
          "internalType": "uint256",
          "name": "amount",
          "type": "uint256"
        },
        {
          "internalType": "address",
          "name": "from",
          "type": "address"
        },
        {
          "internalType": "address",
          "name": "to",
          "type": "address"
        },
        {
          "internalType": "uint32",
          "name": "timespan",
          "type": "uint32"
        }
      ],
      "name": "convertTokenToUnderlying",
      "outputs": [
        {
          "internalType": "uint256",
          "name": "",
          "type": "uint256"
        }
      ],
      "stateMutability": "view",
      "type": "function"
    },
    {
      "inputs": [],
      "name": "dQuickToken",
      "outputs": [
        {
          "internalType": "address",
          "name": "",
          "type": "address"
        }
      ],
      "stateMutability": "view",
      "type": "function"
    },
    {
      "inputs": [],
      "name": "factory",
      "outputs": [
        {
          "internalType": "contract IAlgebraFactory",
          "name": "",
          "type": "address"
        }
      ],
      "stateMutability": "view",
      "type": "function"
    },
    {
      "inputs": [
        {
          "internalType": "uint32",
          "name": "currentTimestamp",
          "type": "uint32"
        },
        {
          "internalType": "contract IAlgebraEternalVirtualPool",
          "name": "virtualPool",
          "type": "address"
        }
      ],
      "name": "increaseCumulative",
      "outputs": [
        {
          "internalType": "uint256",
          "name": "deltaTotalRewardGrowth0",
          "type": "uint256"
        },
        {
          "internalType": "uint256",
          "name": "deltaTotalRewardGrowth1",
          "type": "uint256"
        }
      ],
      "stateMutability": "view",
      "type": "function"
    },
    {
      "inputs": [
        {
          "internalType": "uint256",
          "name": "nft",
          "type": "uint256"
        },
        {
          "internalType": "uint160",
          "name": "sqrtRatioX96",
          "type": "uint160"
        },
        {
          "internalType": "uint128",
          "name": "liquidity",
          "type": "uint128"
        }
      ],
      "name": "liquidityToTokenAmounts",
      "outputs": [
        {
          "internalType": "uint256",
          "name": "amount0",
          "type": "uint256"
        },
        {
          "internalType": "uint256",
          "name": "amount1",
          "type": "uint256"
        }
      ],
      "stateMutability": "view",
      "type": "function"
    },
    {
      "inputs": [],
      "name": "positionManager",
      "outputs": [
        {
          "internalType": "contract IAlgebraNonfungiblePositionManager",
          "name": "",
          "type": "address"
        }
      ],
      "stateMutability": "view",
      "type": "function"
    },
    {
      "inputs": [],
      "name": "quickToken",
      "outputs": [
        {
          "internalType": "address",
          "name": "",
          "type": "address"
        }
      ],
      "stateMutability": "view",
      "type": "function"
    },
    {
      "inputs": [
        {
          "internalType": "uint256",
          "name": "nft",
          "type": "uint256"
        },
        {
          "internalType": "uint160",
          "name": "sqrtRatioX96",
          "type": "uint160"
        },
        {
          "internalType": "uint256[]",
          "name": "amounts",
          "type": "uint256[]"
        }
      ],
      "name": "tokenAmountsToLiquidity",
      "outputs": [
        {
          "internalType": "uint128",
          "name": "liquidity",
          "type": "uint128"
        }
      ],
      "stateMutability": "view",
      "type": "function"
    },
    {
      "inputs": [
        {
          "internalType": "uint256",
          "name": "nft",
          "type": "uint256"
        },
        {
          "internalType": "uint160",
          "name": "sqrtRatioX96",
          "type": "uint160"
        },
        {
          "internalType": "uint256[]",
          "name": "amounts",
          "type": "uint256[]"
        }
      ],
      "name": "tokenAmountsToMaxLiquidity",
      "outputs": [
        {
          "internalType": "uint128",
          "name": "liquidity",
          "type": "uint128"
        }
      ],
      "stateMutability": "view",
      "type": "function"
    }
  ],
  "bytecode": {
    "object": "0x6101006040523480156200001257600080fd5b506040516200364338038062003643833981016040819052620000359162000102565b6001600160a01b0383166200004957600080fd5b6001600160a01b03831660808190526040805163c45a015560e01b8152905163c45a015591600480820192602092909190829003018186803b1580156200008f57600080fd5b505afa158015620000a4573d6000803e3d6000fd5b505050506040513d601f19601f82011682018060405250810190620000ca919062000156565b6001600160a01b0390811660a05291821660c0521660e052506200017d565b6001600160a01b0381168114620000ff57600080fd5b50565b6000806000606084860312156200011857600080fd5b83516200012581620000e9565b60208501519093506200013881620000e9565b60408501519092506200014b81620000e9565b809150509250925092565b6000602082840312156200016957600080fd5b81516200017681620000e9565b9392505050565b60805160a05160c05160e05161344d620001f6600039600081816101fb01528181610d770152610dc50152600081816102420152610e4b0152600081816102870152610ec00152600081816101a901528181610b910152818161109c01528181611290015281816115d801526116db015261344d6000f3fe608060405234801561001057600080fd5b50600436106100f55760003560e01c806385b2865711610097578063b4b15f7111610066578063b4b15f7114610264578063b5ce1db91461026f578063c45a015514610282578063e5573ac2146102a957600080fd5b806385b28657146101e35780639eb25aa9146101f6578063a510a4011461021d578063aec2609d1461023d57600080fd5b806340792465116100d3578063407924651461014d57806369272a6b1461016657806375a7bc5014610191578063791b98bc146101a457600080fd5b806315a8adb0146100fa5780632b67450214610127578063406e7a2a1461013a575b600080fd5b61010d6101083660046127cc565b6102bc565b604080519283526020830191909152015b60405180910390f35b61010d610135366004612915565b6105e7565b61010d610148366004612966565b610823565b610158600160601b81565b60405190815260200161011e565b6101796101743660046129c3565b610b8a565b6040516001600160801b03909116815260200161011e565b61015861019f366004612a82565b610d49565b6101cb7f000000000000000000000000000000000000000000000000000000000000000081565b6040516001600160a01b03909116815260200161011e565b6101796101f13660046129c3565b611095565b6101cb7f000000000000000000000000000000000000000000000000000000000000000081565b61023061022b366004612ad5565b6111a1565b60405161011e9190612b89565b6101cb7f000000000000000000000000000000000000000000000000000000000000000081565b610158600160801b81565b61010d61027d366004612be2565b6115d0565b6101cb7f000000000000000000000000000000000000000000000000000000000000000081565b6101796102b73660046129c3565b6116b8565b60405163f30dba9360e01b8152600283900b60048201526000908190819081906001600160a01b0388169063f30dba93906024016101006040518083038186803b15801561030957600080fd5b505afa15801561031d573d6000803e3d6000fd5b505050506040513d601f19601f820116820180604052508101906103419190612c46565b505060405163f30dba9360e01b815260028c900b600482015293975091955060009450849350506001600160a01b038b169163f30dba9391506024016101006040518083038186803b15801561039657600080fd5b505afa1580156103aa573d6000803e3d6000fd5b505050506040513d601f19601f820116820180604052508101906103ce9190612c46565b505050509350935050506000896001600160a01b0316638e76c3326040518163ffffffff1660e01b815260040160206040518083038186803b15801561041357600080fd5b505afa158015610427573d6000803e3d6000fd5b505050506040513d601f19601f8201168201806040525081019061044b9190612cec565b905060008a6001600160a01b031663a69252af6040518163ffffffff1660e01b815260040160206040518083038186803b15801561048857600080fd5b505afa15801561049c573d6000803e3d6000fd5b505050506040513d601f19601f820116820180604052508101906104c09190612d09565b905060008b6001600160a01b03166363f0580b6040518163ffffffff1660e01b815260040160206040518083038186803b1580156104fd57600080fd5b505afa158015610511573d6000803e3d6000fd5b505050506040513d601f19601f820116820180604052508101906105359190612d09565b9050600080610544428f610823565b90925090506105538285612d38565b935061055f8184612d38565b92508b60020b8560020b12156105bd578c60020b8560020b12610599576105868985612d50565b9a506105928884612d50565b99506105a0565b889a508799505b6105aa878c612d50565b9a506105b6868b612d50565b99506105d6565b6105c78988612d50565b9a506105d38887612d50565b99505b505050505050505050935093915050565b60008060008460405160200161063d919081516001600160a01b03908116825260208084015182169083015260408084015190911690820152606080830151908201526080918201519181019190915260a00190565b604051602081830303815290604052805190602001209050600080876001600160a01b03166360777795846040518263ffffffff1660e01b815260040161068691815260200190565b6101806040518083038186803b15801561069f57600080fd5b505afa1580156106b3573d6000803e3d6000fd5b505050506040513d601f19601f820116820180604052508101906106d79190612d72565b50505050925050915081600014156106f8576000809450945050505061081b565b6040516313f354cd60e11b81526004810187905260248101849052819060009081908190819081906001600160a01b038f16906327e6a99a9060440160a06040518083038186803b15801561074c57600080fd5b505afa158015610760573d6000803e3d6000fd5b505050506040513d601f19601f820116820180604052508101906107849190612e76565b94509450945094509450846001600160801b0316600014156107b5576000809a509a5050505050505050505061081b565b6000806107c38887876102bc565b90925090506107e96107d58584612d50565b886001600160801b0316600160801b611799565b61080a6107f68584612d50565b896001600160801b0316600160801b611799565b909d509b5050505050505050505050505b935093915050565b6000806000836001600160a01b031663d576dfc06040518163ffffffff1660e01b815260040160206040518083038186803b15801561086157600080fd5b505afa158015610875573d6000803e3d6000fd5b505050506040513d601f19601f820116820180604052508101906108999190612ed4565b850363ffffffff16905080600014156108b9576000809250925050610b83565b6000846001600160a01b03166346caf2ae6040518163ffffffff1660e01b815260040160206040518083038186803b1580156108f457600080fd5b505afa158015610908573d6000803e3d6000fd5b505050506040513d601f19601f8201168201806040525081019061092c9190612ef1565b6001600160801b031690508015610b80576000856001600160a01b0316632ca1a8956040518163ffffffff1660e01b815260040160206040518083038186803b15801561097857600080fd5b505afa15801561098c573d6000803e3d6000fd5b505050506040513d601f19601f820116820180604052508101906109b09190612d09565b90506000866001600160a01b031663a1ec508a6040518163ffffffff1660e01b815260040160206040518083038186803b1580156109ed57600080fd5b505afa158015610a01573d6000803e3d6000fd5b505050506040513d601f19601f82011682018060405250810190610a259190612d09565b90506000808311610a37576000610aa8565b876001600160a01b031663735dd1896040518163ffffffff1660e01b815260040160206040518083038186803b158015610a7057600080fd5b505afa158015610a84573d6000803e3d6000fd5b505050506040513d601f19601f82011682018060405250810190610aa89190612d09565b90506000808311610aba576000610b2b565b886001600160a01b0316635354d98a6040518163ffffffff1660e01b815260040160206040518083038186803b158015610af357600080fd5b505afa158015610b07573d6000803e3d6000fd5b505050506040513d601f19601f82011682018060405250810190610b2b9190612d09565b90508115610b545783860282811115610b415750815b610b5081600160801b88611799565b9850505b8015610b7b5782860281811115610b685750805b610b7781600160801b88611799565b9750505b505050505b50505b9250929050565b60008060007f00000000000000000000000000000000000000000000000000000000000000006001600160a01b03166399fbab88876040518263ffffffff1660e01b8152600401610bdd91815260200190565b6101606040518083038186803b158015610bf657600080fd5b505afa158015610c0a573d6000803e3d6000fd5b505050506040513d601f19601f82011682018060405250810190610c2e9190612f0e565b505050505095509550505050506000610c468361184d565b90506000610c538361184d565b9050816001600160a01b0316876001600160a01b031611610c9a57610c93828288600081518110610c8657610c86612fe5565b6020026020010151611c62565b9450610d3e565b806001600160a01b0316876001600160a01b03161015610d23576000610cce888389600081518110610c8657610c86612fe5565b90506000610cf7848a8a600181518110610cea57610cea612fe5565b6020026020010151611ccc565b9050806001600160801b0316826001600160801b031611610d185780610d1a565b815b96505050610d3e565b610d3b828288600181518110610cea57610cea612fe5565b94505b505050509392505050565b6000826001600160a01b0316846001600160a01b03161480610d69575084155b15610d7557508361108d565b7f00000000000000000000000000000000000000000000000000000000000000006001600160a01b0316846001600160a01b03161415610e96576040516315a33b5f60e31b8152600481018690527f00000000000000000000000000000000000000000000000000000000000000006001600160a01b03169063ad19daf89060240160206040518083038186803b158015610e0f57600080fd5b505afa158015610e23573d6000803e3d6000fd5b505050506040513d601f19601f82011682018060405250810190610e479190612d09565b94507f00000000000000000000000000000000000000000000000000000000000000009350826001600160a01b0316846001600160a01b03161480610e8a575084155b15610e9657508361108d565b60405163d9a641e160e01b81526001600160a01b03858116600483015284811660248301526000917f00000000000000000000000000000000000000000000000000000000000000009091169063d9a641e19060440160206040518083038186803b158015610f0457600080fd5b505afa158015610f18573d6000803e3d6000fd5b505050506040513d601f19601f82011682018060405250810190610f3c9190612ffb565b9050600080610f4b8386611d02565b915091508015610fb15760405162461bcd60e51b815260206004820152602660248201527f4e6f7420656e6f756768206f62736572766174696f6e7320696e20726577617260448201526519081c1bdbdb60d21b60648201526084015b60405180910390fd5b6000610fbc8361184d565b90506000610fd86001600160a01b03831680600160601b611799565b9050876001600160a01b0316856001600160a01b0316630dfe16816040518163ffffffff1660e01b815260040160206040518083038186803b15801561101d57600080fd5b505afa158015611031573d6000803e3d6000fd5b505050506040513d601f19601f820116820180604052508101906110559190612ffb565b6001600160a01b0316141561107657611073600160601b8083611799565b90505b6110858a82600160601b611799565b955050505050505b949350505050565b60008060007f00000000000000000000000000000000000000000000000000000000000000006001600160a01b03166399fbab88876040518263ffffffff1660e01b81526004016110e891815260200190565b6101606040518083038186803b15801561110157600080fd5b505afa158015611115573d6000803e3d6000fd5b505050506040513d601f19601f820116820180604052508101906111399190612f0e565b5050505050955095505050505060006111518361184d565b9050600061115e8361184d565b9050610d3b8783838960008151811061117957611179612fe5565b60200260200101518a60018151811061119457611194612fe5565b6020026020010151611ee3565b6060846111cd57604080516002808252606082018352909160208301908036833701905050905061108d565b600084600001519050600081604001516001600160a01b031663e76c01e46040518163ffffffff1660e01b815260040160e06040518083038186803b15801561121557600080fd5b505afa158015611229573d6000803e3d6000fd5b505050506040513d601f19601f8201168201806040525081019061124d919061303b565b509495506002945061125f9350505050565b604051908082528060200260200182016040528015611288578160200160208202803683370190505b5092506112b67f00000000000000000000000000000000000000000000000000000000000000008883611fa5565b846000815181106112c9576112c9612fe5565b60200260200101856001815181106112e3576112e3612fe5565b60200260200101828152508281525050506000856001600160a01b031663de2356d16040518163ffffffff1660e01b815260040160206040518083038186803b15801561132f57600080fd5b505afa158015611343573d6000803e3d6000fd5b505050506040513d601f19601f820116820180604052508101906113679190612ffb565b905060008061137783868c6105e7565b865160405163e70b9e2760e01b81523060048201526001600160a01b03918216602482015292945090925084169063e70b9e279060440160206040518083038186803b1580156113c657600080fd5b505afa1580156113da573d6000803e3d6000fd5b505050506040513d601f19601f820116820180604052508101906113fe9190612d09565b6114089083612d38565b602086015160405163e70b9e2760e01b81523060048201526001600160a01b03918216602482015291935084169063e70b9e279060440160206040518083038186803b15801561145757600080fd5b505afa15801561146b573d6000803e3d6000fd5b505050506040513d601f19601f8201168201806040525081019061148f9190612d09565b6114999082612d38565b90506114b38286600001518b604001518c60800151610d49565b91506114cd8186602001518b602001518c60800151610d49565b9050866001600160a01b031689604001516001600160a01b0316141561151d57818660008151811061150157611501612fe5565b602002602001018181516115159190612d38565b905250611549565b818660018151811061153157611531612fe5565b602002602001018181516115459190612d38565b9052505b866001600160a01b031689602001516001600160a01b0316141561159757808660008151811061157b5761157b612fe5565b6020026020010181815161158f9190612d38565b9052506115c3565b80866001815181106115ab576115ab612fe5565b602002602001018181516115bf9190612d38565b9052505b5050505050949350505050565b6000806000807f00000000000000000000000000000000000000000000000000000000000000006001600160a01b03166399fbab88886040518263ffffffff1660e01b815260040161162491815260200190565b6101606040518083038186803b15801561163d57600080fd5b505afa158015611651573d6000803e3d6000fd5b505050506040513d601f19601f820116820180604052508101906116759190612f0e565b50505050509550955050505050600061168d8361184d565b9050600061169a8361184d565b90506116a88883838a611ff0565b909a909950975050505050505050565b60405163133f757160e31b81526004810184905260009081906001600160a01b037f000000000000000000000000000000000000000000000000000000000000000016906399fbab88906024016101606040518083038186803b15801561171e57600080fd5b505afa158015611732573d6000803e3d6000fd5b505050506040513d601f19601f820116820180604052508101906117569190612f0e565b50505050965050505050505061176d858585610b8a565b9150806001600160801b0316826001600160801b03161061178e5780611790565b815b95945050505050565b6000808060001985870985870292508281108382030391505080600014156117d357600084116117c857600080fd5b508290049050611846565b8084116117df57600080fd5b6000848688096000868103871696879004966002600389028118808a02820302808a02820302808a02820302808a02820302808a02820302808a02909103029181900381900460010186841190950394909402919094039290920491909117919091029150505b9392505050565b60008060008360020b12611864578260020b611871565b8260020b611871906130c6565b9050611880620d89e7196130e3565b60020b8111156118b65760405162461bcd60e51b81526020600482015260016024820152601560fa1b6044820152606401610fa8565b6000600182166118ca57600160801b6118dc565b6ffffcb933bd6fad37aa2d162d1a5940015b70ffffffffffffffffffffffffffffffffff169050600282161561191b576080611916826ffff97272373d413259a46990580e213a613106565b901c90505b6004821615611945576080611940826ffff2e50f5f656932ef12357cf3c7fdcc613106565b901c90505b600882161561196f57608061196a826fffe5caca7e10e4e61c3624eaa0941cd0613106565b901c90505b6010821615611999576080611994826fffcb9843d60f6159c9db58835c926644613106565b901c90505b60208216156119c35760806119be826fff973b41fa98c081472e6896dfb254c0613106565b901c90505b60408216156119ed5760806119e8826fff2ea16466c96a3843ec78b326b52861613106565b901c90505b6080821615611a17576080611a12826ffe5dee046a99a2a811c461f1969c3053613106565b901c90505b610100821615611a42576080611a3d826ffcbe86c7900a88aedcffc83b479aa3a4613106565b901c90505b610200821615611a6d576080611a68826ff987a7253ac413176f2b074cf7815e54613106565b901c90505b610400821615611a98576080611a93826ff3392b0822b70005940c7a398e4b70f3613106565b901c90505b610800821615611ac3576080611abe826fe7159475a2c29b7443b29c7fa6e889d9613106565b901c90505b611000821615611aee576080611ae9826fd097f3bdfd2022b8845ad8f792aa5825613106565b901c90505b612000821615611b19576080611b14826fa9f746462d870fdf8a65dc1f90e061e5613106565b901c90505b614000821615611b44576080611b3f826f70d869a156d2a1b890bb3df62baf32f7613106565b901c90505b618000821615611b6f576080611b6a826f31be135f97d08fd981231505542fcfa6613106565b901c90505b62010000821615611b9b576080611b96826f09aa508b5b7a84e1c677de54f3e99bc9613106565b901c90505b62020000821615611bc6576080611bc1826e5d6af8dedb81196699c329225ee604613106565b901c90505b62040000821615611bf0576080611beb826d2216e584f5fa1ea926041bedfe98613106565b901c90505b62080000821615611c18576080611c13826b048a170391f7dc42444e8fa2613106565b901c90505b60008460020b1315611c3357611c308160001961313b565b90505b611c426401000000008261314f565b15611c4e576001611c51565b60005b61108d9060ff16602083901c612d38565b6000826001600160a01b0316846001600160a01b03161115611c82579192915b6000611ca5856001600160a01b0316856001600160a01b0316600160601b611799565b9050611790611cc78483611cb98989613163565b6001600160a01b0316611799565b61208c565b6000826001600160a01b0316846001600160a01b03161115611cec579192915b61108d611cc783600160601b611cb98888613163565b60008063ffffffff8316611d3d5760405162461bcd60e51b8152602060048201526002602482015261042560f41b6044820152606401610fa8565b6040805160028082526060820183526000926020830190803683370190505090508381600081518110611d7257611d72612fe5565b602002602001019063ffffffff16908163ffffffff1681525050600081600181518110611da157611da1612fe5565b63ffffffff90921660209283029190910190910152604051639d3a524160e01b81526001600160a01b03861690639d3a524190611de290849060040161318b565b60006040518083038186803b158015611dfa57600080fd5b505afa925050508015611e2f57506040513d6000823e601f3d908101601f19168201604052611e2c919081019061330b565b60015b611e4157600060019250925050610b83565b600084600081518110611e5657611e56612fe5565b602002602001015185600181518110611e7157611e71612fe5565b60200260200101510390508863ffffffff1660060b8160060b81611e9757611e97613125565b05975060008160060b128015611eca57508863ffffffff1660060b8160060b81611ec357611ec3613125565b0760060b15155b15610b7b57600019909701965050505050509250929050565b6000836001600160a01b0316856001600160a01b03161115611f03579293925b846001600160a01b0316866001600160a01b031611611f2e57611f27858585611c62565b9050611790565b836001600160a01b0316866001600160a01b03161015611f90576000611f55878686611c62565b90506000611f64878986611ccc565b9050806001600160801b0316826001600160801b031610611f855780611f87565b815b92505050611790565b611f9b858584611ccc565b9695505050505050565b600080600080611fb68787876120a7565b91509150600080611fc78989612167565b9092509050611fd68285612d38565b611fe08285612d38565b9550955050505050935093915050565b600080836001600160a01b0316856001600160a01b03161115612011579293925b846001600160a01b0316866001600160a01b03161161203c5761203585858561229b565b9150612083565b836001600160a01b0316866001600160a01b031610156120755761206186858561229b565b915061206e85878561230e565b9050612083565b61208085858561230e565b90505b94509492505050565b806001600160801b03811681146120a257600080fd5b919050565b6000806000806000876001600160a01b03166399fbab88886040518263ffffffff1660e01b81526004016120dd91815260200190565b6101606040518083038186803b1580156120f657600080fd5b505afa15801561210a573d6000803e3d6000fd5b505050506040513d601f19601f8201168201806040525081019061212e9190612f0e565b5050505096509650965050505050612158866121498561184d565b6121528561184d565b84611ff0565b94509450505050935093915050565b60008060008060008060008060008060008c6001600160a01b03166399fbab888d6040518263ffffffff1660e01b81526004016121a691815260200190565b6101606040518083038186803b1580156121bf57600080fd5b505afa1580156121d3573d6000803e3d6000fd5b505050506040513d601f19601f820116820180604052508101906121f79190612f0e565b6001600160801b03169a506001600160801b03169a509a509a509a509a509a509a509a5050506122878d6040518061012001604052808c6001600160a01b031681526020018b6001600160a01b031681526020018a60020b81526020018960020b8152602001886001600160801b0316815260200187815260200186815260200185815260200184815250612358565b9a509a505050505050505050509250929050565b6000826001600160a01b0316846001600160a01b031611156122bb579192915b6001600160a01b0384166123046fffffffffffffffffffffffffffffffff60601b606085901b166122ec8787613163565b6001600160a01b0316866001600160a01b0316611799565b61108d919061313b565b6000826001600160a01b0316846001600160a01b0316111561232e579192915b61108d6001600160801b0383166123458686613163565b6001600160a01b0316600160601b611799565b600080600080612469866001600160a01b031663c45a01556040518163ffffffff1660e01b815260040160206040518083038186803b15801561239a57600080fd5b505afa1580156123ae573d6000803e3d6000fd5b505050506040513d601f19601f820116820180604052508101906123d29190612ffb565b8651602088015160405163d9a641e160e01b81526001600160a01b039283166004820152908216602482015291169063d9a641e19060440160206040518083038186803b15801561242257600080fd5b505afa158015612436573d6000803e3d6000fd5b505050506040513d601f19601f8201168201806040525081019061245a9190612ffb565b866040015187606001516124cb565b915091508460e001516124948660a00151840387608001516001600160801b0316600160801b611799565b0193508461010001516124bf8660c00151830387608001516001600160801b0316600160801b611799565b01925050509250929050565b6000806000856001600160a01b031663e76c01e46040518163ffffffff1660e01b815260040160e06040518083038186803b15801561250957600080fd5b505afa15801561251d573d6000803e3d6000fd5b505050506040513d601f19601f82011682018060405250810190612541919061303b565b505060405163f30dba9360e01b815260028b900b60048201529395506000945084936001600160a01b038c16935063f30dba93925060240190506101006040518083038186803b15801561259457600080fd5b505afa1580156125a8573d6000803e3d6000fd5b505050506040513d601f19601f820116820180604052508101906125cc9190612c46565b505060405163f30dba9360e01b815260028d900b600482015293975091955060009450849350506001600160a01b038c169163f30dba9391506024016101006040518083038186803b15801561262157600080fd5b505afa158015612635573d6000803e3d6000fd5b505050506040513d601f19601f820116820180604052508101906126599190612c46565b505050509350935050508860020b8560020b12156126805781840396508083039550612798565b8760020b8560020b121561278d5760008a6001600160a01b0316636378ae446040518163ffffffff1660e01b815260040160206040518083038186803b1580156126c957600080fd5b505afa1580156126dd573d6000803e3d6000fd5b505050506040513d601f19601f820116820180604052508101906127019190612d09565b905060008b6001600160a01b031663ecdecf426040518163ffffffff1660e01b815260040160206040518083038186803b15801561273e57600080fd5b505afa158015612752573d6000803e3d6000fd5b505050506040513d601f19601f820116820180604052508101906127769190612d09565b905083868303039850828582030397505050612798565b838203965082810395505b5050505050935093915050565b6001600160a01b03811681146127ba57600080fd5b50565b8060020b81146127ba57600080fd5b6000806000606084860312156127e157600080fd5b83356127ec816127a5565b925060208401356127fc816127bd565b9150604084013561280c816127bd565b809150509250925092565b634e487b7160e01b600052604160045260246000fd5b60405160a0810167ffffffffffffffff8111828210171561285057612850612817565b60405290565b60405160c0810167ffffffffffffffff8111828210171561285057612850612817565b604051601f8201601f1916810167ffffffffffffffff811182821017156128a2576128a2612817565b604052919050565b600060a082840312156128bc57600080fd5b6128c461282d565b905081356128d1816127a5565b815260208201356128e1816127a5565b602082015260408201356128f4816127a5565b80604083015250606082013560608201526080820135608082015292915050565b600080600060e0848603121561292a57600080fd5b8335612935816127a5565b925061294485602086016128aa565b915060c084013590509250925092565b63ffffffff811681146127ba57600080fd5b6000806040838503121561297957600080fd5b823561298481612954565b91506020830135612994816127a5565b809150509250929050565b600067ffffffffffffffff8211156129b9576129b9612817565b5060051b60200190565b6000806000606084860312156129d857600080fd5b833592506020808501356129eb816127a5565b9250604085013567ffffffffffffffff811115612a0757600080fd5b8501601f81018713612a1857600080fd5b8035612a2b612a268261299f565b612879565b81815260059190911b82018301908381019089831115612a4a57600080fd5b928401925b82841015612a6857833582529284019290840190612a4f565b80955050505050509250925092565b80356120a2816127a5565b60008060008060808587031215612a9857600080fd5b843593506020850135612aaa816127a5565b92506040850135612aba816127a5565b91506060850135612aca81612954565b939692955090935050565b600080600080848603610180811215612aed57600080fd5b8535945061012080601f1983011215612b0557600080fd5b612b0d61282d565b9150612b1c88602089016128aa565b825260c0870135612b2c816127a5565b602083015260e0870135612b3f816127a5565b60408301526101008701356060830152860135612b5b81612954565b60808201529250612b6f6101408601612a77565b9150612b7e6101608601612a77565b905092959194509250565b6020808252825182820181905260009190848201906040850190845b81811015612bc157835183529284019291840191600101612ba5565b50909695505050505050565b6001600160801b03811681146127ba57600080fd5b600080600060608486031215612bf757600080fd5b833592506020840135612c09816127a5565b9150604084013561280c81612bcd565b80516120a281612bcd565b8051600681900b81146120a257600080fd5b805180151581146120a257600080fd5b600080600080600080600080610100898b031215612c6357600080fd5b8851612c6e81612bcd565b80985050602089015180600f0b8114612c8657600080fd5b60408a015160608b015191985096509450612ca360808a01612c24565b935060a0890151612cb3816127a5565b60c08a0151909350612cc481612954565b9150612cd260e08a01612c36565b90509295985092959890939650565b80516120a2816127bd565b600060208284031215612cfe57600080fd5b8151611846816127bd565b600060208284031215612d1b57600080fd5b5051919050565b634e487b7160e01b600052601160045260246000fd5b60008219821115612d4b57612d4b612d22565b500190565b600082821015612d6257612d62612d22565b500390565b80516120a2816127a5565b6000806000806000806000878903610180811215612d8f57600080fd5b88519750602089015196506040890151612da8816127a5565b60608a015190965062ffffff81168114612dc157600080fd5b60808a01519095506001600160e01b0381168114612dde57600080fd5b60a08a0151909450612def816127a5565b925060c060bf1982011215612e0357600080fd5b50612e0c612856565b60c0890151815260e089015160208201526101008901516040820152610120890151612e3781612954565b6060820152610140890151612e4b81612954565b6080820152610160890151612e5f81612954565b8060a0830152508091505092959891949750929550565b600080600080600060a08688031215612e8e57600080fd5b8551612e9981612bcd565b6020870151909550612eaa816127bd565b6040870151909450612ebb816127bd565b6060870151608090970151959894975095949392505050565b600060208284031215612ee657600080fd5b815161184681612954565b600060208284031215612f0357600080fd5b815161184681612bcd565b60008060008060008060008060008060006101608c8e031215612f3057600080fd5b8b516bffffffffffffffffffffffff81168114612f4c57600080fd5b60208d0151909b50612f5d816127a5565b60408d0151909a50612f6e816127a5565b9850612f7c60608d01612d67565b9750612f8a60808d01612ce1565b9650612f9860a08d01612ce1565b9550612fa660c08d01612c19565b945060e08c015193506101008c01519250612fc46101208d01612c19565b9150612fd36101408d01612c19565b90509295989b509295989b9093969950565b634e487b7160e01b600052603260045260246000fd5b60006020828403121561300d57600080fd5b8151611846816127a5565b805161ffff811681146120a257600080fd5b805160ff811681146120a257600080fd5b600080600080600080600060e0888a03121561305657600080fd5b8751613061816127a5565b6020890151909750613072816127bd565b955061308060408901613018565b945061308e60608901613018565b935061309c6080890161302a565b92506130aa60a0890161302a565b91506130b860c08901612c36565b905092959891949750929550565b6000600160ff1b8214156130dc576130dc612d22565b5060000390565b60008160020b627fffff198114156130fd576130fd612d22565b60000392915050565b600081600019048311821515161561312057613120612d22565b500290565b634e487b7160e01b600052601260045260246000fd5b60008261314a5761314a613125565b500490565b60008261315e5761315e613125565b500690565b60006001600160a01b038381169083168181101561318357613183612d22565b039392505050565b6020808252825182820181905260009190848201906040850190845b81811015612bc157835163ffffffff16835292840192918401916001016131a7565b600082601f8301126131da57600080fd5b815160206131ea612a268361299f565b82815260059290921b8401810191818101908684111561320957600080fd5b8286015b8481101561322d578051613220816127a5565b835291830191830161320d565b509695505050505050565b600082601f83011261324957600080fd5b81516020613259612a268361299f565b82815260059290921b8401810191818101908684111561327857600080fd5b8286015b8481101561322d5780516dffffffffffffffffffffffffffff811681146132a35760008081fd5b835291830191830161327c565b600082601f8301126132c157600080fd5b815160206132d1612a268361299f565b82815260059290921b840181019181810190868411156132f057600080fd5b8286015b8481101561322d57805183529183019183016132f4565b6000806000806080858703121561332157600080fd5b845167ffffffffffffffff8082111561333957600080fd5b818701915087601f83011261334d57600080fd5b8151602061335d612a268361299f565b82815260059290921b8401810191818101908b84111561337c57600080fd5b948201945b838610156133a15761339286612c24565b82529482019490820190613381565b918a01519198509093505050808211156133ba57600080fd5b6133c6888389016131c9565b945060408701519150808211156133dc57600080fd5b6133e888838901613238565b935060608701519150808211156133fe57600080fd5b5061340b878288016132b0565b9150509295919450925056fea2646970667358221220166c54e8281f5e50682afe96d3b0844ce40cae311f3b5fdd25421312ce1b4de664736f6c63430008090033",
    "linkReferences": {}
  },
  "methodIdentifiers": {
    "Q128()": "b4b15f71",
    "Q96()": "40792465",
    "calculateCollectableRewards(address,(address,address,address,uint256,uint256),uint256)": "2b674502",
    "calculateInnerFeesGrow(address,int24,int24)": "15a8adb0",
    "calculateLiquidityToPull(uint256,uint160,uint256[])": "e5573ac2",
    "calculateTvl(uint256,((address,address,address,uint256,uint256),address,address,uint256,uint32),address,address)": "a510a401",
    "convertTokenToUnderlying(uint256,address,address,uint32)": "75a7bc50",
    "dQuickToken()": "9eb25aa9",
    "factory()": "c45a0155",
    "increaseCumulative(uint32,address)": "406e7a2a",
    "liquidityToTokenAmounts(uint256,uint160,uint128)": "b5ce1db9",
    "positionManager()": "791b98bc",
    "quickToken()": "aec2609d",
    "tokenAmountsToLiquidity(uint256,uint160,uint256[])": "85b28657",
    "tokenAmountsToMaxLiquidity(uint256,uint160,uint256[])": "69272a6b"
  },
  "id": 432
}