{
  "abi": [
    {
      "inputs": [
        {
          "internalType": "address",
          "name": "admin",
          "type": "address"
        }
      ],
      "stateMutability": "nonpayable",
      "type": "constructor"
    },
    {
      "anonymous": false,
      "inputs": [
        {
          "indexed": true,
          "internalType": "address",
          "name": "from",
          "type": "address"
        },
        {
          "indexed": true,
          "internalType": "address",
          "name": "to",
          "type": "address"
        },
        {
          "indexed": false,
          "internalType": "address[]",
          "name": "tokens",
          "type": "address[]"
        },
        {
          "indexed": false,
          "internalType": "uint256[]",
          "name": "actualTokenAmounts",
          "type": "uint256[]"
        },
        {
          "indexed": false,
          "internalType": "uint256",
          "name": "lpTokenMinted",
          "type": "uint256"
        }
      ],
      "name": "Deposit",
      "type": "event"
    },
    {
      "anonymous": false,
      "inputs": [
        {
          "indexed": true,
          "internalType": "bytes32",
          "name": "role",
          "type": "bytes32"
        },
        {
          "indexed": true,
          "internalType": "bytes32",
          "name": "previousAdminRole",
          "type": "bytes32"
        },
        {
          "indexed": true,
          "internalType": "bytes32",
          "name": "newAdminRole",
          "type": "bytes32"
        }
      ],
      "name": "RoleAdminChanged",
      "type": "event"
    },
    {
      "anonymous": false,
      "inputs": [
        {
          "indexed": true,
          "internalType": "bytes32",
          "name": "role",
          "type": "bytes32"
        },
        {
          "indexed": true,
          "internalType": "address",
          "name": "account",
          "type": "address"
        },
        {
          "indexed": true,
          "internalType": "address",
          "name": "sender",
          "type": "address"
        }
      ],
      "name": "RoleGranted",
      "type": "event"
    },
    {
      "anonymous": false,
      "inputs": [
        {
          "indexed": true,
          "internalType": "bytes32",
          "name": "role",
          "type": "bytes32"
        },
        {
          "indexed": true,
          "internalType": "address",
          "name": "account",
          "type": "address"
        },
        {
          "indexed": true,
          "internalType": "address",
          "name": "sender",
          "type": "address"
        }
      ],
      "name": "RoleRevoked",
      "type": "event"
    },
    {
      "inputs": [],
      "name": "ADMIN_DELEGATE_ROLE",
      "outputs": [
        {
          "internalType": "bytes32",
          "name": "",
          "type": "bytes32"
        }
      ],
      "stateMutability": "view",
      "type": "function"
    },
    {
      "inputs": [],
      "name": "ADMIN_ROLE",
      "outputs": [
        {
          "internalType": "bytes32",
          "name": "",
          "type": "bytes32"
        }
      ],
      "stateMutability": "view",
      "type": "function"
    },
    {
      "inputs": [],
      "name": "DEFAULT_ADMIN_ROLE",
      "outputs": [
        {
          "internalType": "bytes32",
          "name": "",
          "type": "bytes32"
        }
      ],
      "stateMutability": "view",
      "type": "function"
    },
    {
      "inputs": [],
      "name": "OPERATOR",
      "outputs": [
        {
          "internalType": "bytes32",
          "name": "",
          "type": "bytes32"
        }
      ],
      "stateMutability": "view",
      "type": "function"
    },
    {
      "inputs": [
        {
          "internalType": "contract IERC20RootVault",
          "name": "vault",
          "type": "address"
        },
        {
          "internalType": "uint256[]",
          "name": "tokenAmounts",
          "type": "uint256[]"
        },
        {
          "internalType": "uint256",
          "name": "minLpTokens",
          "type": "uint256"
        },
        {
          "internalType": "bytes",
          "name": "vaultOptions",
          "type": "bytes"
        },
        {
          "internalType": "bytes32[]",
          "name": "proof",
          "type": "bytes32[]"
        }
      ],
      "name": "deposit",
      "outputs": [
        {
          "internalType": "uint256[]",
          "name": "actualTokenAmounts",
          "type": "uint256[]"
        }
      ],
      "stateMutability": "nonpayable",
      "type": "function"
    },
    {
      "inputs": [
        {
          "internalType": "bytes32",
          "name": "role",
          "type": "bytes32"
        }
      ],
      "name": "getRoleAdmin",
      "outputs": [
        {
          "internalType": "bytes32",
          "name": "",
          "type": "bytes32"
        }
      ],
      "stateMutability": "view",
      "type": "function"
    },
    {
      "inputs": [
        {
          "internalType": "bytes32",
          "name": "role",
          "type": "bytes32"
        },
        {
          "internalType": "uint256",
          "name": "index",
          "type": "uint256"
        }
      ],
      "name": "getRoleMember",
      "outputs": [
        {
          "internalType": "address",
          "name": "",
          "type": "address"
        }
      ],
      "stateMutability": "view",
      "type": "function"
    },
    {
      "inputs": [
        {
          "internalType": "bytes32",
          "name": "role",
          "type": "bytes32"
        }
      ],
      "name": "getRoleMemberCount",
      "outputs": [
        {
          "internalType": "uint256",
          "name": "",
          "type": "uint256"
        }
      ],
      "stateMutability": "view",
      "type": "function"
    },
    {
      "inputs": [
        {
          "internalType": "bytes32",
          "name": "role",
          "type": "bytes32"
        },
        {
          "internalType": "address",
          "name": "account",
          "type": "address"
        }
      ],
      "name": "grantRole",
      "outputs": [],
      "stateMutability": "nonpayable",
      "type": "function"
    },
    {
      "inputs": [
        {
          "internalType": "bytes32",
          "name": "role",
          "type": "bytes32"
        },
        {
          "internalType": "address",
          "name": "account",
          "type": "address"
        }
      ],
      "name": "hasRole",
      "outputs": [
        {
          "internalType": "bool",
          "name": "",
          "type": "bool"
        }
      ],
      "stateMutability": "view",
      "type": "function"
    },
    {
      "inputs": [
        {
          "internalType": "address",
          "name": "sender",
          "type": "address"
        }
      ],
      "name": "isAdmin",
      "outputs": [
        {
          "internalType": "bool",
          "name": "",
          "type": "bool"
        }
      ],
      "stateMutability": "view",
      "type": "function"
    },
    {
      "inputs": [
        {
          "internalType": "address",
          "name": "sender",
          "type": "address"
        }
      ],
      "name": "isOperator",
      "outputs": [
        {
          "internalType": "bool",
          "name": "",
          "type": "bool"
        }
      ],
      "stateMutability": "view",
      "type": "function"
    },
    {
      "inputs": [
        {
          "internalType": "bytes32",
          "name": "role",
          "type": "bytes32"
        },
        {
          "internalType": "address",
          "name": "account",
          "type": "address"
        }
      ],
      "name": "renounceRole",
      "outputs": [],
      "stateMutability": "nonpayable",
      "type": "function"
    },
    {
      "inputs": [
        {
          "internalType": "bytes32",
          "name": "role",
          "type": "bytes32"
        },
        {
          "internalType": "address",
          "name": "account",
          "type": "address"
        }
      ],
      "name": "revokeRole",
      "outputs": [],
      "stateMutability": "nonpayable",
      "type": "function"
    },
    {
      "inputs": [],
      "name": "root",
      "outputs": [
        {
          "internalType": "bytes32",
          "name": "",
          "type": "bytes32"
        }
      ],
      "stateMutability": "view",
      "type": "function"
    },
    {
      "inputs": [
        {
          "internalType": "bytes4",
          "name": "interfaceId",
          "type": "bytes4"
        }
      ],
      "name": "supportsInterface",
      "outputs": [
        {
          "internalType": "bool",
          "name": "",
          "type": "bool"
        }
      ],
      "stateMutability": "view",
      "type": "function"
    },
    {
      "inputs": [
        {
          "internalType": "bytes32",
          "name": "root_",
          "type": "bytes32"
        }
      ],
      "name": "updateRoot",
      "outputs": [],
      "stateMutability": "nonpayable",
      "type": "function"
    }
  ],
  "bytecode": {
    "object": "0x60806040523480156200001157600080fd5b5060405162001f0f38038062001f0f833981016040819052620000349162000302565b60408051808201909152600281526120ad60f11b602082015281906001600160a01b038216620000825760405162461bcd60e51b815260040162000079919062000334565b60405180910390fd5b506200009e60008051602062001eef8339815191528262000152565b620000b960008051602062001ecf8339815191528262000152565b620000d460008051602062001ecf8339815191528062000162565b6200010f7fc171260023d22a25a00a2789664c9334017843b831138c8ef03cc8897e5873d760008051602062001ecf83398151915262000162565b6200014a60008051602062001eef8339815191527fc171260023d22a25a00a2789664c9334017843b831138c8ef03cc8897e5873d762000162565b50506200038c565b6200015e8282620001ad565b5050565b600082815260208190526040808220600101805490849055905190918391839186917fbd79b86ffe0ab8e8776151514217cd7cacd52c909f66475c3af44e129f0b00ff9190a4505050565b620001c48282620001f060201b620009941760201c565b6000828152600160209081526040909120620001eb91839062000a1862000290821b17901c565b505050565b6000828152602081815260408083206001600160a01b038516845290915290205460ff166200015e576000828152602081815260408083206001600160a01b03851684529091529020805460ff191660011790556200024c3390565b6001600160a01b0316816001600160a01b0316837f2f8788117e7eff1d82e926ec794901d17c78024a50270940304540a733656f0d60405160405180910390a45050565b6000620002a7836001600160a01b038416620002b0565b90505b92915050565b6000818152600183016020526040812054620002f957508154600181810184556000848152602080822090930184905584548482528286019093526040902091909155620002aa565b506000620002aa565b6000602082840312156200031557600080fd5b81516001600160a01b03811681146200032d57600080fd5b9392505050565b600060208083528351808285015260005b81811015620003635785810183015185820160400152820162000345565b8181111562000376576000604083870101525b50601f01601f1916929092016040019392505050565b611b33806200039c6000396000f3fe608060405234801561001057600080fd5b506004361061010b5760003560e01c80636d70f7ae116100a2578063983d273711610071578063983d273714610276578063a217fddf1461029d578063ca15c873146102a5578063d547741f146102b8578063ebf0c717146102cb57600080fd5b80636d70f7ae146101fe57806375b238fc146102115780639010d07c1461023857806391d148541461026357600080fd5b806324d7806c116100de57806324d7806c146101a55780632f2ff15d146101b857806336568abe146101cb5780636c5d6eea146101de57600080fd5b806301ffc9a7146101105780630952ff541461013857806321ff99701461016d578063248a9ca314610182575b600080fd5b61012361011e36600461146e565b6102d4565b60405190151581526020015b60405180910390f35b61015f7fc171260023d22a25a00a2789664c9334017843b831138c8ef03cc8897e5873d781565b60405190815260200161012f565b61018061017b366004611498565b6102ff565b005b61015f610190366004611498565b60009081526020819052604090206001015490565b6101236101b33660046114c6565b61030c565b6101806101c63660046114e3565b610368565b6101806101d93660046114e3565b610392565b6101f16101ec36600461155f565b610415565b60405161012f919061167e565b61012361020c3660046114c6565b6108e4565b61015f7ff23ec0bb4210edd5cba85afd05127efcd2fc6a781bfed49188da1081670b22d881565b61024b610246366004611691565b610910565b6040516001600160a01b03909116815260200161012f565b6101236102713660046114e3565b61092f565b61015f7f46a52cf33029de9f84853745a87af28464c80bf0346df1b32e205fc73319f62281565b61015f600081565b61015f6102b3366004611498565b610958565b6101806102c63660046114e3565b61096f565b61015f60025481565b60006001600160e01b03198216635a05180f60e01b14806102f957506102f982610a2d565b92915050565b610307610a62565b600255565b60006103387ff23ec0bb4210edd5cba85afd05127efcd2fc6a781bfed49188da1081670b22d88361092f565b806102f957506102f97fc171260023d22a25a00a2789664c9334017843b831138c8ef03cc8897e5873d78361092f565b60008281526020819052604090206001015461038381610aa8565b61038d8383610ab2565b505050565b6001600160a01b03811633146104075760405162461bcd60e51b815260206004820152602f60248201527f416363657373436f6e74726f6c3a2063616e206f6e6c792072656e6f756e636560448201526e103937b632b9903337b91039b2b63360891b60648201526084015b60405180910390fd5b6104118282610ad4565b5050565b6060600033604051602001610442919060609190911b6bffffffffffffffffffffffff1916815260140190565b60405160208183030381529060405280519060200120905061049b848480806020026020016040519081016040528093929190818152602001838360200280828437600092019190915250506002549150849050610af6565b6040518060400160405280600381526020016223292160e91b815250906104d55760405162461bcd60e51b81526004016103fe91906116df565b5060008a6001600160a01b031663697222336040518163ffffffff1660e01b815260040160006040518083038186803b15801561051157600080fd5b505afa158015610525573d6000803e3d6000fd5b505050506040513d6000823e601f3d908101601f1916820160405261054d919081019061177d565b80516040805180820190915260048152631253959360e21b60208201529192508a1461058c5760405162461bcd60e51b81526004016103fe91906116df565b5060005b8151811015610649576105ea33308d8d858181106105b0576105b0611811565b905060200201358585815181106105c9576105c9611811565b60200260200101516001600160a01b0316610b0c909392919063ffffffff16565b6106398c8c8c8481811061060057610600611811565b9050602002013584848151811061061957610619611811565b60200260200101516001600160a01b0316610b7d9092919063ffffffff16565b6106428161183d565b9050610590565b50604051631528fd1d60e21b81526001600160a01b038c16906354a3f4749061067e908d908d908d908d908d90600401611858565b600060405180830381600087803b15801561069857600080fd5b505af11580156106ac573d6000803e3d6000fd5b505050506040513d6000823e601f3d908101601f191682016040526106d491908101906118c8565b925060005b81518110156107f55761071a8c60008484815181106106fa576106fa611811565b60200260200101516001600160a01b0316610c399092919063ffffffff16565b6107e53383838151811061073057610730611811565b60209081029190910101516040516370a0823160e01b81523060048201526001600160a01b03909116906370a082319060240160206040518083038186803b15801561077b57600080fd5b505afa15801561078f573d6000803e3d6000fd5b505050506040513d601f19601f820116820180604052508101906107b3919061194e565b8484815181106107c5576107c5611811565b60200260200101516001600160a01b0316610d5d9092919063ffffffff16565b6107ee8161183d565b90506106d9565b506040516370a0823160e01b81523060048201526000906001600160a01b038d16906370a082319060240160206040518083038186803b15801561083857600080fd5b505afa15801561084c573d6000803e3d6000fd5b505050506040513d601f19601f82011682018060405250810190610870919061194e565b90506108866001600160a01b038d163383610d5d565b8b6001600160a01b0316336001600160a01b03167fcca721777a6ecfefca61eb6abe93dd4f6bc3798df0cf7aacedffc26fbd7521c08487856040516108cd93929190611967565b60405180910390a350505098975050505050505050565b60006102f97f46a52cf33029de9f84853745a87af28464c80bf0346df1b32e205fc73319f6228361092f565b60008281526001602052604081206109289083610d8d565b9392505050565b6000918252602082815260408084206001600160a01b0393909316845291905290205460ff1690565b60008181526001602052604081206102f990610d99565b60008281526020819052604090206001015461098a81610aa8565b61038d8383610ad4565b61099e828261092f565b610411576000828152602081815260408083206001600160a01b03851684529091529020805460ff191660011790556109d43390565b6001600160a01b0316816001600160a01b0316837f2f8788117e7eff1d82e926ec794901d17c78024a50270940304540a733656f0d60405160405180910390a45050565b6000610928836001600160a01b038416610da3565b60006001600160e01b03198216637965db0b60e01b14806102f957506301ffc9a760e01b6001600160e01b03198316146102f9565b610a6b3361030c565b6040518060400160405280600381526020016223292160e91b81525090610aa55760405162461bcd60e51b81526004016103fe91906116df565b50565b610aa58133610df2565b610abc8282610994565b600082815260016020526040902061038d9082610a18565b610ade8282610e4b565b600082815260016020526040902061038d9082610eb0565b600082610b038584610ec5565b14949350505050565b6040516001600160a01b0380851660248301528316604482015260648101829052610b779085906323b872dd60e01b906084015b60408051601f198184030181529190526020810180516001600160e01b03166001600160e01b031990931692909217909152610f12565b50505050565b604051636eb1769f60e11b81523060048201526001600160a01b0383811660248301526000919085169063dd62ed3e9060440160206040518083038186803b158015610bc857600080fd5b505afa158015610bdc573d6000803e3d6000fd5b505050506040513d601f19601f82011682018060405250810190610c00919061194e565b9050610b778463095ea7b360e01b85610c1986866119cf565b6040516001600160a01b0390921660248301526044820152606401610b40565b801580610cc25750604051636eb1769f60e11b81523060048201526001600160a01b03838116602483015284169063dd62ed3e9060440160206040518083038186803b158015610c8857600080fd5b505afa158015610c9c573d6000803e3d6000fd5b505050506040513d601f19601f82011682018060405250810190610cc0919061194e565b155b610d2d5760405162461bcd60e51b815260206004820152603660248201527f5361666545524332303a20617070726f76652066726f6d206e6f6e2d7a65726f60448201527520746f206e6f6e2d7a65726f20616c6c6f77616e636560501b60648201526084016103fe565b6040516001600160a01b03831660248201526044810182905261038d90849063095ea7b360e01b90606401610b40565b6040516001600160a01b03831660248201526044810182905261038d90849063a9059cbb60e01b90606401610b40565b60006109288383610fe7565b60006102f9825490565b6000818152600183016020526040812054610dea575081546001818101845560008481526020808220909301849055845484825282860190935260409020919091556102f9565b5060006102f9565b610dfc828261092f565b61041157610e0981611011565b610e14836020611023565b604051602001610e259291906119e7565b60408051601f198184030181529082905262461bcd60e51b82526103fe916004016116df565b610e55828261092f565b15610411576000828152602081815260408083206001600160a01b0385168085529252808320805460ff1916905551339285917ff6391f5c32d9c69d2a47ea670b442974b53935d1edc7fd64eb21e047a839171b9190a45050565b6000610928836001600160a01b0384166111bf565b600081815b8451811015610f0a57610ef682868381518110610ee957610ee9611811565b60200260200101516112b2565b915080610f028161183d565b915050610eca565b509392505050565b6000610f67826040518060400160405280602081526020017f5361666545524332303a206c6f772d6c6576656c2063616c6c206661696c6564815250856001600160a01b03166112e19092919063ffffffff16565b9050805160001480610f88575080806020019051810190610f889190611a5c565b61038d5760405162461bcd60e51b815260206004820152602a60248201527f5361666545524332303a204552433230206f7065726174696f6e20646964206e6044820152691bdd081cdd58d8d9595960b21b60648201526084016103fe565b6000826000018281548110610ffe57610ffe611811565b9060005260206000200154905092915050565b60606102f96001600160a01b03831660145b60606000611032836002611a7e565b61103d9060026119cf565b67ffffffffffffffff81111561105557611055611712565b6040519080825280601f01601f19166020018201604052801561107f576020820181803683370190505b509050600360fc1b8160008151811061109a5761109a611811565b60200101906001600160f81b031916908160001a905350600f60fb1b816001815181106110c9576110c9611811565b60200101906001600160f81b031916908160001a90535060006110ed846002611a7e565b6110f89060016119cf565b90505b6001811115611170576f181899199a1a9b1b9c1cb0b131b232b360811b85600f166010811061112c5761112c611811565b1a60f81b82828151811061114257611142611811565b60200101906001600160f81b031916908160001a90535060049490941c9361116981611a9d565b90506110fb565b5083156109285760405162461bcd60e51b815260206004820181905260248201527f537472696e67733a20686578206c656e67746820696e73756666696369656e7460448201526064016103fe565b600081815260018301602052604081205480156112a85760006111e3600183611ab4565b85549091506000906111f790600190611ab4565b905081811461125c57600086600001828154811061121757611217611811565b906000526020600020015490508087600001848154811061123a5761123a611811565b6000918252602080832090910192909255918252600188019052604090208390555b855486908061126d5761126d611acb565b6001900381819060005260206000200160009055905585600101600086815260200190815260200160002060009055600193505050506102f9565b60009150506102f9565b60008183106112ce576000828152602084905260409020610928565b6000838152602083905260409020610928565b60606112f084846000856112f8565b949350505050565b6060824710156113595760405162461bcd60e51b815260206004820152602660248201527f416464726573733a20696e73756666696369656e742062616c616e636520666f6044820152651c8818d85b1b60d21b60648201526084016103fe565b600080866001600160a01b031685876040516113759190611ae1565b60006040518083038185875af1925050503d80600081146113b2576040519150601f19603f3d011682016040523d82523d6000602084013e6113b7565b606091505b50915091506113c8878383876113d3565b979650505050505050565b6060831561143f578251611438576001600160a01b0385163b6114385760405162461bcd60e51b815260206004820152601d60248201527f416464726573733a2063616c6c20746f206e6f6e2d636f6e747261637400000060448201526064016103fe565b50816112f0565b6112f083838151156114545781518083602001fd5b8060405162461bcd60e51b81526004016103fe91906116df565b60006020828403121561148057600080fd5b81356001600160e01b03198116811461092857600080fd5b6000602082840312156114aa57600080fd5b5035919050565b6001600160a01b0381168114610aa557600080fd5b6000602082840312156114d857600080fd5b8135610928816114b1565b600080604083850312156114f657600080fd5b823591506020830135611508816114b1565b809150509250929050565b60008083601f84011261152557600080fd5b50813567ffffffffffffffff81111561153d57600080fd5b6020830191508360208260051b850101111561155857600080fd5b9250929050565b60008060008060008060008060a0898b03121561157b57600080fd5b8835611586816114b1565b9750602089013567ffffffffffffffff808211156115a357600080fd5b6115af8c838d01611513565b909950975060408b0135965060608b01359150808211156115cf57600080fd5b818b0191508b601f8301126115e357600080fd5b8135818111156115f257600080fd5b8c602082850101111561160457600080fd5b6020830196508095505060808b013591508082111561162257600080fd5b5061162f8b828c01611513565b999c989b5096995094979396929594505050565b600081518084526020808501945080840160005b8381101561167357815187529582019590820190600101611657565b509495945050505050565b6020815260006109286020830184611643565b600080604083850312156116a457600080fd5b50508035926020909101359150565b60005b838110156116ce5781810151838201526020016116b6565b83811115610b775750506000910152565b60208152600082518060208401526116fe8160408501602087016116b3565b601f01601f19169190910160400192915050565b634e487b7160e01b600052604160045260246000fd5b604051601f8201601f1916810167ffffffffffffffff8111828210171561175157611751611712565b604052919050565b600067ffffffffffffffff82111561177357611773611712565b5060051b60200190565b6000602080838503121561179057600080fd5b825167ffffffffffffffff8111156117a757600080fd5b8301601f810185136117b857600080fd5b80516117cb6117c682611759565b611728565b81815260059190911b820183019083810190878311156117ea57600080fd5b928401925b828410156113c8578351611802816114b1565b825292840192908401906117ef565b634e487b7160e01b600052603260045260246000fd5b634e487b7160e01b600052601160045260246000fd5b600060001982141561185157611851611827565b5060010190565b6060808252810185905260006001600160fb1b0386111561187857600080fd5b8560051b80886080850137602083018690528201828103608090810160408501528101849052838560a0830137600060a0858301015260a0601f19601f8601168201019150509695505050505050565b600060208083850312156118db57600080fd5b825167ffffffffffffffff8111156118f257600080fd5b8301601f8101851361190357600080fd5b80516119116117c682611759565b81815260059190911b8201830190838101908783111561193057600080fd5b928401925b828410156113c857835182529284019290840190611935565b60006020828403121561196057600080fd5b5051919050565b606080825284519082018190526000906020906080840190828801845b828110156119a95781516001600160a01b031684529284019290840190600101611984565b505050838103828501526119bd8187611643565b92505050826040830152949350505050565b600082198211156119e2576119e2611827565b500190565b7f416363657373436f6e74726f6c3a206163636f756e7420000000000000000000815260008351611a1f8160178501602088016116b3565b7001034b99036b4b9b9b4b733903937b6329607d1b6017918401918201528351611a508160288401602088016116b3565b01602801949350505050565b600060208284031215611a6e57600080fd5b8151801515811461092857600080fd5b6000816000190483118215151615611a9857611a98611827565b500290565b600081611aac57611aac611827565b506000190190565b600082821015611ac657611ac6611827565b500390565b634e487b7160e01b600052603160045260246000fd5b60008251611af38184602087016116b3565b919091019291505056fea2646970667358221220c5769bc0c94f466f1a1f1c5fa4190577448532daa344c7122b0a51541738054064736f6c63430008090033f23ec0bb4210edd5cba85afd05127efcd2fc6a781bfed49188da1081670b22d846a52cf33029de9f84853745a87af28464c80bf0346df1b32e205fc73319f622",
    "linkReferences": {}
  },
  "methodIdentifiers": {
    "ADMIN_DELEGATE_ROLE()": "0952ff54",
    "ADMIN_ROLE()": "75b238fc",
    "DEFAULT_ADMIN_ROLE()": "a217fddf",
    "OPERATOR()": "983d2737",
    "deposit(address,uint256[],uint256,bytes,bytes32[])": "6c5d6eea",
    "getRoleAdmin(bytes32)": "248a9ca3",
    "getRoleMember(bytes32,uint256)": "9010d07c",
    "getRoleMemberCount(bytes32)": "ca15c873",
    "grantRole(bytes32,address)": "2f2ff15d",
    "hasRole(bytes32,address)": "91d14854",
    "isAdmin(address)": "24d7806c",
    "isOperator(address)": "6d70f7ae",
    "renounceRole(bytes32,address)": "36568abe",
    "revokeRole(bytes32,address)": "d547741f",
    "root()": "ebf0c717",
    "supportsInterface(bytes4)": "01ffc9a7",
    "updateRoot(bytes32)": "21ff9970"
  },
  "id": 435
}