{
  "abi": [
    {
      "inputs": [
        {
          "components": [
            {
              "internalType": "contract IProtocolGovernance",
              "name": "protocolGovernance",
              "type": "address"
            },
            {
              "internalType": "contract IVaultRegistry",
              "name": "registry",
              "type": "address"
            },
            {
              "internalType": "contract IVault",
              "name": "singleton",
              "type": "address"
            }
          ],
          "internalType": "struct IVaultGovernance.InternalParams",
          "name": "internalParams_",
          "type": "tuple"
        },
        {
          "components": [
            {
              "internalType": "contract ILendingPool",
              "name": "lendingPool",
              "type": "address"
            },
            {
              "internalType": "uint256",
              "name": "estimatedAaveAPY",
              "type": "uint256"
            }
          ],
          "internalType": "struct IAaveVaultGovernance.DelayedProtocolParams",
          "name": "delayedProtocolParams_",
          "type": "tuple"
        }
      ],
      "stateMutability": "nonpayable",
      "type": "constructor"
    },
    {
      "anonymous": false,
      "inputs": [
        {
          "indexed": true,
          "internalType": "address",
          "name": "origin",
          "type": "address"
        },
        {
          "indexed": true,
          "internalType": "address",
          "name": "sender",
          "type": "address"
        },
        {
          "components": [
            {
              "internalType": "contract ILendingPool",
              "name": "lendingPool",
              "type": "address"
            },
            {
              "internalType": "uint256",
              "name": "estimatedAaveAPY",
              "type": "uint256"
            }
          ],
          "indexed": false,
          "internalType": "struct IAaveVaultGovernance.DelayedProtocolParams",
          "name": "params",
          "type": "tuple"
        }
      ],
      "name": "CommitDelayedProtocolParams",
      "type": "event"
    },
    {
      "anonymous": false,
      "inputs": [
        {
          "indexed": true,
          "internalType": "address",
          "name": "origin",
          "type": "address"
        },
        {
          "indexed": true,
          "internalType": "address",
          "name": "sender",
          "type": "address"
        },
        {
          "components": [
            {
              "internalType": "contract IProtocolGovernance",
              "name": "protocolGovernance",
              "type": "address"
            },
            {
              "internalType": "contract IVaultRegistry",
              "name": "registry",
              "type": "address"
            },
            {
              "internalType": "contract IVault",
              "name": "singleton",
              "type": "address"
            }
          ],
          "indexed": false,
          "internalType": "struct IVaultGovernance.InternalParams",
          "name": "params",
          "type": "tuple"
        }
      ],
      "name": "CommitedInternalParams",
      "type": "event"
    },
    {
      "anonymous": false,
      "inputs": [
        {
          "indexed": true,
          "internalType": "address",
          "name": "origin",
          "type": "address"
        },
        {
          "indexed": true,
          "internalType": "address",
          "name": "sender",
          "type": "address"
        },
        {
          "indexed": false,
          "internalType": "address[]",
          "name": "vaultTokens",
          "type": "address[]"
        },
        {
          "indexed": false,
          "internalType": "bytes",
          "name": "options",
          "type": "bytes"
        },
        {
          "indexed": false,
          "internalType": "address",
          "name": "owner",
          "type": "address"
        },
        {
          "indexed": false,
          "internalType": "address",
          "name": "vaultAddress",
          "type": "address"
        },
        {
          "indexed": false,
          "internalType": "uint256",
          "name": "vaultNft",
          "type": "uint256"
        }
      ],
      "name": "DeployedVault",
      "type": "event"
    },
    {
      "anonymous": false,
      "inputs": [
        {
          "indexed": true,
          "internalType": "address",
          "name": "origin",
          "type": "address"
        },
        {
          "indexed": true,
          "internalType": "address",
          "name": "sender",
          "type": "address"
        },
        {
          "components": [
            {
              "internalType": "contract ILendingPool",
              "name": "lendingPool",
              "type": "address"
            },
            {
              "internalType": "uint256",
              "name": "estimatedAaveAPY",
              "type": "uint256"
            }
          ],
          "indexed": false,
          "internalType": "struct IAaveVaultGovernance.DelayedProtocolParams",
          "name": "params",
          "type": "tuple"
        },
        {
          "indexed": false,
          "internalType": "uint256",
          "name": "when",
          "type": "uint256"
        }
      ],
      "name": "StageDelayedProtocolParams",
      "type": "event"
    },
    {
      "anonymous": false,
      "inputs": [
        {
          "indexed": true,
          "internalType": "address",
          "name": "origin",
          "type": "address"
        },
        {
          "indexed": true,
          "internalType": "address",
          "name": "sender",
          "type": "address"
        },
        {
          "components": [
            {
              "internalType": "contract IProtocolGovernance",
              "name": "protocolGovernance",
              "type": "address"
            },
            {
              "internalType": "contract IVaultRegistry",
              "name": "registry",
              "type": "address"
            },
            {
              "internalType": "contract IVault",
              "name": "singleton",
              "type": "address"
            }
          ],
          "indexed": false,
          "internalType": "struct IVaultGovernance.InternalParams",
          "name": "params",
          "type": "tuple"
        },
        {
          "indexed": false,
          "internalType": "uint256",
          "name": "when",
          "type": "uint256"
        }
      ],
      "name": "StagedInternalParams",
      "type": "event"
    },
    {
      "inputs": [],
      "name": "MAX_ESTIMATED_AAVE_APY",
      "outputs": [
        {
          "internalType": "uint256",
          "name": "",
          "type": "uint256"
        }
      ],
      "stateMutability": "view",
      "type": "function"
    },
    {
      "inputs": [],
      "name": "commitDelayedProtocolParams",
      "outputs": [],
      "stateMutability": "nonpayable",
      "type": "function"
    },
    {
      "inputs": [],
      "name": "commitInternalParams",
      "outputs": [],
      "stateMutability": "nonpayable",
      "type": "function"
    },
    {
      "inputs": [],
      "name": "contractName",
      "outputs": [
        {
          "internalType": "string",
          "name": "",
          "type": "string"
        }
      ],
      "stateMutability": "pure",
      "type": "function"
    },
    {
      "inputs": [],
      "name": "contractNameBytes",
      "outputs": [
        {
          "internalType": "bytes32",
          "name": "",
          "type": "bytes32"
        }
      ],
      "stateMutability": "pure",
      "type": "function"
    },
    {
      "inputs": [],
      "name": "contractVersion",
      "outputs": [
        {
          "internalType": "string",
          "name": "",
          "type": "string"
        }
      ],
      "stateMutability": "pure",
      "type": "function"
    },
    {
      "inputs": [],
      "name": "contractVersionBytes",
      "outputs": [
        {
          "internalType": "bytes32",
          "name": "",
          "type": "bytes32"
        }
      ],
      "stateMutability": "pure",
      "type": "function"
    },
    {
      "inputs": [
        {
          "internalType": "address[]",
          "name": "vaultTokens_",
          "type": "address[]"
        },
        {
          "internalType": "address",
          "name": "owner_",
          "type": "address"
        }
      ],
      "name": "createVault",
      "outputs": [
        {
          "internalType": "contract IAaveVault",
          "name": "vault",
          "type": "address"
        },
        {
          "internalType": "uint256",
          "name": "nft",
          "type": "uint256"
        }
      ],
      "stateMutability": "nonpayable",
      "type": "function"
    },
    {
      "inputs": [],
      "name": "delayedProtocolParams",
      "outputs": [
        {
          "components": [
            {
              "internalType": "contract ILendingPool",
              "name": "lendingPool",
              "type": "address"
            },
            {
              "internalType": "uint256",
              "name": "estimatedAaveAPY",
              "type": "uint256"
            }
          ],
          "internalType": "struct IAaveVaultGovernance.DelayedProtocolParams",
          "name": "",
          "type": "tuple"
        }
      ],
      "stateMutability": "view",
      "type": "function"
    },
    {
      "inputs": [],
      "name": "delayedProtocolParamsTimestamp",
      "outputs": [
        {
          "internalType": "uint256",
          "name": "",
          "type": "uint256"
        }
      ],
      "stateMutability": "view",
      "type": "function"
    },
    {
      "inputs": [
        {
          "internalType": "uint256",
          "name": "nft",
          "type": "uint256"
        }
      ],
      "name": "delayedProtocolPerVaultParamsTimestamp",
      "outputs": [
        {
          "internalType": "uint256",
          "name": "",
          "type": "uint256"
        }
      ],
      "stateMutability": "view",
      "type": "function"
    },
    {
      "inputs": [
        {
          "internalType": "uint256",
          "name": "nft",
          "type": "uint256"
        }
      ],
      "name": "delayedStrategyParamsTimestamp",
      "outputs": [
        {
          "internalType": "uint256",
          "name": "",
          "type": "uint256"
        }
      ],
      "stateMutability": "view",
      "type": "function"
    },
    {
      "inputs": [],
      "name": "internalParams",
      "outputs": [
        {
          "components": [
            {
              "internalType": "contract IProtocolGovernance",
              "name": "protocolGovernance",
              "type": "address"
            },
            {
              "internalType": "contract IVaultRegistry",
              "name": "registry",
              "type": "address"
            },
            {
              "internalType": "contract IVault",
              "name": "singleton",
              "type": "address"
            }
          ],
          "internalType": "struct IVaultGovernance.InternalParams",
          "name": "",
          "type": "tuple"
        }
      ],
      "stateMutability": "view",
      "type": "function"
    },
    {
      "inputs": [],
      "name": "internalParamsTimestamp",
      "outputs": [
        {
          "internalType": "uint256",
          "name": "",
          "type": "uint256"
        }
      ],
      "stateMutability": "view",
      "type": "function"
    },
    {
      "inputs": [
        {
          "components": [
            {
              "internalType": "contract ILendingPool",
              "name": "lendingPool",
              "type": "address"
            },
            {
              "internalType": "uint256",
              "name": "estimatedAaveAPY",
              "type": "uint256"
            }
          ],
          "internalType": "struct IAaveVaultGovernance.DelayedProtocolParams",
          "name": "params",
          "type": "tuple"
        }
      ],
      "name": "stageDelayedProtocolParams",
      "outputs": [],
      "stateMutability": "nonpayable",
      "type": "function"
    },
    {
      "inputs": [
        {
          "components": [
            {
              "internalType": "contract IProtocolGovernance",
              "name": "protocolGovernance",
              "type": "address"
            },
            {
              "internalType": "contract IVaultRegistry",
              "name": "registry",
              "type": "address"
            },
            {
              "internalType": "contract IVault",
              "name": "singleton",
              "type": "address"
            }
          ],
          "internalType": "struct IVaultGovernance.InternalParams",
          "name": "newParams",
          "type": "tuple"
        }
      ],
      "name": "stageInternalParams",
      "outputs": [],
      "stateMutability": "nonpayable",
      "type": "function"
    },
    {
      "inputs": [],
      "name": "stagedDelayedProtocolParams",
      "outputs": [
        {
          "components": [
            {
              "internalType": "contract ILendingPool",
              "name": "lendingPool",
              "type": "address"
            },
            {
              "internalType": "uint256",
              "name": "estimatedAaveAPY",
              "type": "uint256"
            }
          ],
          "internalType": "struct IAaveVaultGovernance.DelayedProtocolParams",
          "name": "",
          "type": "tuple"
        }
      ],
      "stateMutability": "view",
      "type": "function"
    },
    {
      "inputs": [],
      "name": "stagedInternalParams",
      "outputs": [
        {
          "components": [
            {
              "internalType": "contract IProtocolGovernance",
              "name": "protocolGovernance",
              "type": "address"
            },
            {
              "internalType": "contract IVaultRegistry",
              "name": "registry",
              "type": "address"
            },
            {
              "internalType": "contract IVault",
              "name": "singleton",
              "type": "address"
            }
          ],
          "internalType": "struct IVaultGovernance.InternalParams",
          "name": "",
          "type": "tuple"
        }
      ],
      "stateMutability": "view",
      "type": "function"
    },
    {
      "inputs": [
        {
          "internalType": "bytes4",
          "name": "interfaceId",
          "type": "bytes4"
        }
      ],
      "name": "supportsInterface",
      "outputs": [
        {
          "internalType": "bool",
          "name": "",
          "type": "bool"
        }
      ],
      "stateMutability": "view",
      "type": "function"
    }
  ],
  "bytecode": {
    "object": "0x60806040523480156200001157600080fd5b5060405162001bdb38038062001bdb833981016040819052620000349162000378565b815160408051808201909152600281526120ad60f11b602082015283916001600160a01b0316620000835760405162461bcd60e51b81526004016200007a919062000451565b60405180910390fd5b5060006001600160a01b031681602001516001600160a01b031614156040518060400160405280600281526020016120ad60f11b81525090620000db5760405162461bcd60e51b81526004016200007a919062000451565b506040808201518151808301909252600282526120ad60f11b60208301526001600160a01b0316620001225760405162461bcd60e51b81526004016200007a919062000451565b508051600080546001600160a01b03199081166001600160a01b039384161790915560208084015160018054841691851691909117905560409384015160028054909316908416178255845184518086019095529184526120ad60f11b9084015216620001a45760405162461bcd60e51b81526004016200007a919062000451565b50806020015160001415604051806040016040528060028152602001612b2d60f11b81525090620001ea5760405162461bcd60e51b81526004016200007a919062000451565b50633b9aca0081602001511115604051806040016040528060048152602001634c494d4f60e01b81525090620002355760405162461bcd60e51b81526004016200007a919062000451565b506040805182516001600160a01b03166020808301919091528084015182840152825180830384018152606090920190925280516200027992600d92019062000282565b505050620004e6565b8280546200029090620004a9565b90600052602060002090601f016020900481019282620002b45760008555620002ff565b82601f10620002cf57805160ff1916838001178555620002ff565b82800160010185558215620002ff579182015b82811115620002ff578251825591602001919060010190620002e2565b506200030d92915062000311565b5090565b5b808211156200030d576000815560010162000312565b604080519081016001600160401b03811182821017156200035957634e487b7160e01b600052604160045260246000fd5b60405290565b6001600160a01b03811681146200037557600080fd5b50565b60008082840360a08112156200038d57600080fd5b60608112156200039c57600080fd5b604051606081016001600160401b0381118282101715620003cd57634e487b7160e01b600052604160045260246000fd5b6040528451620003dd816200035f565b81526020850151620003ef816200035f565b6020820152604085015162000404816200035f565b604082810191909152909350605f19820112156200042157600080fd5b506200042c62000328565b60608401516200043c816200035f565b81526080939093015160208401525092909150565b600060208083528351808285015260005b81811015620004805785810183015185820160400152820162000462565b8181111562000493576000604083870101525b50601f01601f1916929092016040019392505050565b600181811c90821680620004be57607f821691505b60208210811415620004e057634e487b7160e01b600052602260045260246000fd5b50919050565b6116e580620004f66000396000f3fe608060405234801561001057600080fd5b50600436106101215760003560e01c80637ac46fbb116100ad578063a98d240411610071578063a98d2404146102f4578063c2cbdc6714610307578063d34cc38014610333578063d4a07d341461033b578063e4af6e791461034357600080fd5b80637ac46fbb1461022657806386c6be3e146102865780638f3563ae146102d957806398347a5d146102e4578063a0a8e460146102ec57600080fd5b80630fb27e4d116100f45780630fb27e4d146101975780631c7f4c73146101c9578063511ce798146101d15780636707acee146101f157806375d0c0dc1461021157600080fd5b806301ffc9a71461012657806306a462391461014e57806309946538146101665780630e3e80ac1461017b575b600080fd5b610139610134366004611190565b61034b565b60405190151581526020015b60405180910390f35b640312e302e360dc1b5b604051908152602001610145565b61017961017436600461121d565b61037c565b005b72416176655661756c74476f7665726e616e636560681b610158565b6101aa6101a536600461129f565b61056e565b604080516001600160a01b039093168352602083019190915201610145565b600654610158565b6101586101df366004611363565b6000908152600c602052604090205490565b6101586101ff366004611363565b60009081526009602052604090205490565b61021961062e565b604051610145919061137c565b610279604080516060810182526000808252602082018190529181019190915250604080516060810182526000546001600160a01b03908116825260015481166020830152600254169181019190915290565b60405161014591906113d1565b610279604080516060810182526000808252602082018190529181019190915250604080516060810182526003546001600160a01b03908116825260045481166020830152600554169181019190915290565b610158633b9aca0081565b61017961064f565b610219610754565b610179610302366004611401565b610767565b61030f6108a6565b6040805182516001600160a01b031681526020928301519281019290925201610145565b61030f610985565b6101796109a6565b600f54610158565b600061035682610acb565b8061037157506001600160e01b03198216632f8c3ff360e01b145b92915050565b905090565b610384610b01565b805160408051808201909152600281526120ad60f11b6020820152906001600160a01b03166103cf5760405162461bcd60e51b81526004016103c6919061137c565b60405180910390fd5b5060006001600160a01b031681602001516001600160a01b031614156040518060400160405280600281526020016120ad60f11b815250906104245760405162461bcd60e51b81526004016103c6919061137c565b506040808201518151808301909252600282526120ad60f11b60208301526001600160a01b03166104685760405162461bcd60e51b81526004016103c6919061137c565b508051600380546001600160a01b03199081166001600160a01b03938416179091556020808401516004805484169185169190911781556040808601516005805490951690861617909355600054835163bba3293960e01b8152935194169363bba3293993808301939290829003018186803b1580156104e757600080fd5b505afa1580156104fb573d6000803e3d6000fd5b505050506040513d601f19601f8201168201806040525081019061051f9190611419565b6105299042611448565b6006819055604051339132917f0887cab3184f7c02b16978ab31f8acee05979f59fc3da6abe5bf71105ec3179d9161056391869190611460565b60405180910390a350565b600080600061057c84610bb9565b604051632a482de360e21b815291945092508391506001600160a01b0382169063a920b78c906105b290859089906004016114e1565b600060405180830381600087803b1580156105cc57600080fd5b505af11580156105e0573d6000803e3d6000fd5b50506040513392503291507f8a4513c05d15df8ece912856923273e166e39f5c9c2b43d2b38594023494a0e09061061e908990899087908990611502565b60405180910390a3509250929050565b606061037772416176655661756c74476f7665726e616e636560681b610daa565b610657610e16565b336001600160a01b0316326001600160a01b03167f850d4a23f65292fef516cc26a66c6a16f90a209716d4212291ed3be3ea6b5ffc600d805461069990611549565b80601f01602080910402602001604051908101604052809291908181526020018280546106c590611549565b80156107125780601f106106e757610100808354040283529160200191610712565b820191906000526020600020905b8154815290600101906020018083116106f557829003601f168201915b505050505080602001905181019061072a919061157e565b6040805182516001600160a01b0316815260209283015192810192909252015b60405180910390a3565b6060610377640312e302e360dc1b610daa565b600061077660208301836115d6565b6001600160a01b031614156040518060400160405280600281526020016120ad60f11b815250906107ba5760405162461bcd60e51b81526004016103c6919061137c565b50806020013560001415604051806040016040528060028152602001612b2d60f11b815250906107fd5760405162461bcd60e51b81526004016103c6919061137c565b50633b9aca0081602001351115604051806040016040528060048152602001634c494d4f60e01b815250906108455760405162461bcd60e51b81526004016103c6919061137c565b5061086e8160405160200161085a9190611614565b604051602081830303815290604052610eca565b600f54604051339132917f43175376a088eb6b6ca797a7434b76a44c5b3b9d0eb8f9d42c8e0aa8881271df9161056391869190611622565b6040805180820190915260008082526020820152600e80546108c790611549565b151590506108e75750604080518082019091526000808252602082015290565b600e80546108f490611549565b80601f016020809104026020016040519081016040528092919081815260200182805461092090611549565b801561096d5780601f106109425761010080835404028352916020019161096d565b820191906000526020600020905b81548152906001019060200180831161095057829003601f168201915b5050505050806020019051810190610377919061157e565b6040805180820190915260008082526020820152600d80546108f490611549565b6109ae610b01565b6006546040805180820190915260048152631395531360e21b6020820152906109ea5760405162461bcd60e51b81526004016103c6919061137c565b5060065442101560405180604001604052806002815260200161545360f01b81525090610a2a5760405162461bcd60e51b81526004016103c6919061137c565b5060038054600080546001600160a01b038084166001600160a01b03199283168117845560048054600180548286169087168117909155600580546002805497821697891688179055600698909855978616909855841690559290911690925560408051918252602082019390935291820152339032907fef3e4bc9725fa684957d7de03c6dcd01078ee86cf78ceef25c5f8346df69cc999060600161074a565b60006301ffc9a760e01b6001600160e01b03198316148061037157506001600160e01b0319821663effda0f560e01b1492915050565b600054604051630935e01b60e21b81523360048201526001600160a01b03909116906324d7806c9060240160206040518083038186803b158015610b4457600080fd5b505afa158015610b58573d6000803e3d6000fd5b505050506040513d601f19601f82011682018060405250810190610b7c919061163d565b6040518060400160405280600381526020016223292160e91b81525090610bb65760405162461bcd60e51b81526004016103c6919061137c565b50565b600080546040516363e85d2d60e01b81523360048201526001602482015282916001600160a01b03169081906363e85d2d9060440160206040518083038186803b158015610c0657600080fd5b505afa158015610c1a573d6000803e3d6000fd5b505050506040513d601f19601f82011682018060405250810190610c3e919061163d565b6040518060400160405280600381526020016223292160e91b81525090610c785760405162461bcd60e51b81526004016103c6919061137c565b5060015460408051631112eee760e31b815290516001600160a01b039092169182916388977738916004808301926020929190829003018186803b158015610cbf57600080fd5b505afa158015610cd3573d6000803e3d6000fd5b505050506040513d601f19601f82011682018060405250810190610cf79190611419565b610d02906001611448565b600254909350610d1b906001600160a01b031684610fa5565b6040516305c4fdf960e01b81526001600160a01b0380831660048301528781166024830152919550908216906305c4fdf990604401602060405180830381600087803b158015610d6a57600080fd5b505af1158015610d7e573d6000803e3d6000fd5b505050506040513d601f19601f82011682018060405250810190610da29190611419565b505050915091565b604080516020808252818301909252606091602082018180368337019050509050602060005b6020811015610e0857838160208110610deb57610deb61165f565b1a610df857809150610e08565b610e0181611675565b9050610dd0565b508152602081019190915290565b610e1e610b01565b600f546040805180820190915260048152631395531360e21b602082015290610e5a5760405162461bcd60e51b81526004016103c6919061137c565b50600f5442101560405180604001604052806002815260200161545360f01b81525090610e9a5760405162461bcd60e51b81526004016103c6919061137c565b50600e600d908054610eab90611549565b610eb6929190611042565b50610ec3600e60006110cd565b6000600f55565b610ed2610b01565b6000600d8054610ee190611549565b159050610eef576001610ef2565b60005b60ff16905081600e9080519060200190610f0d929190611107565b506000546040805163bba3293960e01b8152905183926001600160a01b03169163bba32939916004808301926020929190829003018186803b158015610f5257600080fd5b505afa158015610f66573d6000803e3d6000fd5b505050506040513d601f19601f82011682018060405250810190610f8a9190611419565b610f949190611690565b610f9e9042611448565b600f555050565b6000763d602d80600a3d3981f3363d3d373d3d3d363d730000008360601b60e81c176000526e5af43d82803e903d91602b57fd5bf38360781b1760205281603760096000f590506001600160a01b0381166103715760405162461bcd60e51b815260206004820152601760248201527f455243313136373a2063726561746532206661696c656400000000000000000060448201526064016103c6565b82805461104e90611549565b90600052602060002090601f01602090048101928261107057600085556110bd565b82601f1061108157805485556110bd565b828001600101855582156110bd57600052602060002091601f016020900482015b828111156110bd5782548255916001019190600101906110a2565b506110c992915061117b565b5090565b5080546110d990611549565b6000825580601f106110e9575050565b601f016020900490600052602060002090810190610bb6919061117b565b82805461111390611549565b90600052602060002090601f01602090048101928261113557600085556110bd565b82601f1061114e57805160ff19168380011785556110bd565b828001600101855582156110bd579182015b828111156110bd578251825591602001919060010190611160565b5b808211156110c9576000815560010161117c565b6000602082840312156111a257600080fd5b81356001600160e01b0319811681146111ba57600080fd5b9392505050565b634e487b7160e01b600052604160045260246000fd5b604051601f8201601f1916810167ffffffffffffffff81118282101715611200576112006111c1565b604052919050565b6001600160a01b0381168114610bb657600080fd5b60006060828403121561122f57600080fd5b6040516060810181811067ffffffffffffffff82111715611252576112526111c1565b604052823561126081611208565b8152602083013561127081611208565b6020820152604083013561128381611208565b60408201529392505050565b803561129a81611208565b919050565b600080604083850312156112b257600080fd5b823567ffffffffffffffff808211156112ca57600080fd5b818501915085601f8301126112de57600080fd5b81356020828211156112f2576112f26111c1565b8160051b92506113038184016111d7565b828152928401810192818101908985111561131d57600080fd5b948201945b84861015611347578535935061133784611208565b8382529482019490820190611322565b9650611356905087820161128f565b9450505050509250929050565b60006020828403121561137557600080fd5b5035919050565b600060208083528351808285015260005b818110156113a95785810183015185820160400152820161138d565b818111156113bb576000604083870101525b50601f01601f1916929092016040019392505050565b60608101610371828480516001600160a01b03908116835260208083015182169084015260409182015116910152565b60006040828403121561141357600080fd5b50919050565b60006020828403121561142b57600080fd5b5051919050565b634e487b7160e01b600052601160045260246000fd5b6000821982111561145b5761145b611432565b500190565b60808101611490828580516001600160a01b03908116835260208083015182169084015260409182015116910152565b8260608301529392505050565b600081518084526020808501945080840160005b838110156114d65781516001600160a01b0316875295820195908201906001016114b1565b509495945050505050565b8281526040602082015260006114fa604083018461149d565b949350505050565b60a08152600061151560a083018761149d565b828103602080850191909152600082526001600160a01b039687166040850152949095166060830152506080015201919050565b600181811c9082168061155d57607f821691505b6020821081141561141357634e487b7160e01b600052602260045260246000fd5b60006040828403121561159057600080fd5b6040516040810181811067ffffffffffffffff821117156115b3576115b36111c1565b60405282516115c181611208565b81526020928301519281019290925250919050565b6000602082840312156115e857600080fd5b81356111ba81611208565b80356115fe81611208565b6001600160a01b03168252602090810135910152565b6040810161037182846115f3565b6060810161163082856115f3565b8260408301529392505050565b60006020828403121561164f57600080fd5b815180151581146111ba57600080fd5b634e487b7160e01b600052603260045260246000fd5b600060001982141561168957611689611432565b5060010190565b60008160001904831182151516156116aa576116aa611432565b50029056fea26469706673582212204bf495013a2ca285ad572d7b3b4cecaee958bf0773656e73666a8e8aa0a9782064736f6c63430008090033",
    "linkReferences": {}
  },
  "methodIdentifiers": {
    "MAX_ESTIMATED_AAVE_APY()": "8f3563ae",
    "commitDelayedProtocolParams()": "98347a5d",
    "commitInternalParams()": "d4a07d34",
    "contractName()": "75d0c0dc",
    "contractNameBytes()": "0e3e80ac",
    "contractVersion()": "a0a8e460",
    "contractVersionBytes()": "06a46239",
    "createVault(address[],address)": "0fb27e4d",
    "delayedProtocolParams()": "d34cc380",
    "delayedProtocolParamsTimestamp()": "e4af6e79",
    "delayedProtocolPerVaultParamsTimestamp(uint256)": "511ce798",
    "delayedStrategyParamsTimestamp(uint256)": "6707acee",
    "internalParams()": "7ac46fbb",
    "internalParamsTimestamp()": "1c7f4c73",
    "stageDelayedProtocolParams((address,uint256))": "a98d2404",
    "stageInternalParams((address,address,address))": "09946538",
    "stagedDelayedProtocolParams()": "c2cbdc67",
    "stagedInternalParams()": "86c6be3e",
    "supportsInterface(bytes4)": "01ffc9a7"
  },
  "id": 446
}