{
  "abi": [
    {
      "inputs": [
        {
          "internalType": "contract INonfungiblePositionManager",
          "name": "positionManager_",
          "type": "address"
        }
      ],
      "stateMutability": "nonpayable",
      "type": "constructor"
    },
    {
      "inputs": [
        {
          "internalType": "uint256",
          "name": "uniV3Nft",
          "type": "uint256"
        },
        {
          "internalType": "uint256",
          "name": "minPriceX96",
          "type": "uint256"
        },
        {
          "internalType": "uint256",
          "name": "maxPriceX96",
          "type": "uint256"
        }
      ],
      "name": "calculateTvlByMinMaxPrices",
      "outputs": [
        {
          "internalType": "uint256[]",
          "name": "minTokenAmounts",
          "type": "uint256[]"
        },
        {
          "internalType": "uint256[]",
          "name": "maxTokenAmounts",
          "type": "uint256[]"
        }
      ],
      "stateMutability": "view",
      "type": "function"
    },
    {
      "inputs": [
        {
          "internalType": "uint256",
          "name": "uniV3Nft",
          "type": "uint256"
        },
        {
          "internalType": "uint160",
          "name": "sqrtPriceX96",
          "type": "uint160"
        }
      ],
      "name": "calculateTvlBySqrtPriceX96",
      "outputs": [
        {
          "internalType": "uint256[]",
          "name": "tokenAmounts",
          "type": "uint256[]"
        }
      ],
      "stateMutability": "view",
      "type": "function"
    },
    {
      "inputs": [
        {
          "internalType": "uint256",
          "name": "uniV3Nft",
          "type": "uint256"
        }
      ],
      "name": "getFeesByNft",
      "outputs": [
        {
          "internalType": "uint256",
          "name": "fees0",
          "type": "uint256"
        },
        {
          "internalType": "uint256",
          "name": "fees1",
          "type": "uint256"
        }
      ],
      "stateMutability": "view",
      "type": "function"
    },
    {
      "inputs": [
        {
          "internalType": "uint256",
          "name": "uniV3Nft",
          "type": "uint256"
        }
      ],
      "name": "getPoolByNft",
      "outputs": [
        {
          "internalType": "contract IUniswapV3Pool",
          "name": "pool",
          "type": "address"
        }
      ],
      "stateMutability": "view",
      "type": "function"
    },
    {
      "inputs": [
        {
          "internalType": "uint256",
          "name": "lowerPriceSqrtX96",
          "type": "uint256"
        },
        {
          "internalType": "uint256",
          "name": "upperPriceSqrtX96",
          "type": "uint256"
        },
        {
          "internalType": "uint256",
          "name": "spotPriceForSqrtFormulasX96",
          "type": "uint256"
        },
        {
          "internalType": "uint256",
          "name": "spotPriceX96",
          "type": "uint256"
        },
        {
          "internalType": "uint256",
          "name": "capital",
          "type": "uint256"
        }
      ],
      "name": "getPositionTokenAmountsByCapitalOfToken0",
      "outputs": [
        {
          "internalType": "uint256",
          "name": "token0Amount",
          "type": "uint256"
        },
        {
          "internalType": "uint256",
          "name": "token1Amount",
          "type": "uint256"
        }
      ],
      "stateMutability": "pure",
      "type": "function"
    },
    {
      "inputs": [
        {
          "internalType": "int24",
          "name": "tick",
          "type": "int24"
        },
        {
          "internalType": "address",
          "name": "pool_",
          "type": "address"
        },
        {
          "internalType": "uint32",
          "name": "secondsAgo",
          "type": "uint32"
        }
      ],
      "name": "getTickDeviationForTimeSpan",
      "outputs": [
        {
          "internalType": "bool",
          "name": "withFail",
          "type": "bool"
        },
        {
          "internalType": "int24",
          "name": "deviation",
          "type": "int24"
        }
      ],
      "stateMutability": "view",
      "type": "function"
    },
    {
      "inputs": [
        {
          "internalType": "uint128",
          "name": "liquidity",
          "type": "uint128"
        },
        {
          "internalType": "contract IUniswapV3Pool",
          "name": "pool",
          "type": "address"
        },
        {
          "internalType": "uint256",
          "name": "uniV3Nft",
          "type": "uint256"
        }
      ],
      "name": "liquidityToTokenAmounts",
      "outputs": [
        {
          "internalType": "uint256[]",
          "name": "tokenAmounts",
          "type": "uint256[]"
        }
      ],
      "stateMutability": "view",
      "type": "function"
    },
    {
      "inputs": [],
      "name": "positionManager",
      "outputs": [
        {
          "internalType": "contract INonfungiblePositionManager",
          "name": "",
          "type": "address"
        }
      ],
      "stateMutability": "view",
      "type": "function"
    },
    {
      "inputs": [
        {
          "internalType": "uint256[]",
          "name": "tokenAmounts",
          "type": "uint256[]"
        },
        {
          "internalType": "contract IUniswapV3Pool",
          "name": "pool",
          "type": "address"
        },
        {
          "internalType": "uint256",
          "name": "uniV3Nft",
          "type": "uint256"
        }
      ],
      "name": "tokenAmountsToLiquidity",
      "outputs": [
        {
          "internalType": "uint128",
          "name": "liquidity",
          "type": "uint128"
        }
      ],
      "stateMutability": "view",
      "type": "function"
    },
    {
      "inputs": [
        {
          "internalType": "uint160",
          "name": "sqrtRatioX96",
          "type": "uint160"
        },
        {
          "internalType": "int24",
          "name": "tickLower",
          "type": "int24"
        },
        {
          "internalType": "int24",
          "name": "tickUpper",
          "type": "int24"
        },
        {
          "internalType": "uint256",
          "name": "amount0",
          "type": "uint256"
        },
        {
          "internalType": "uint256",
          "name": "amount1",
          "type": "uint256"
        }
      ],
      "name": "tokenAmountsToMaximalLiquidity",
      "outputs": [
        {
          "internalType": "uint128",
          "name": "liquidity",
          "type": "uint128"
        }
      ],
      "stateMutability": "pure",
      "type": "function"
    }
  ],
  "bytecode": {
    "object": "0x60a06040523480156200001157600080fd5b50604051620029323803806200293283398101604081905262000034916200005a565b6001600160a01b0381166200004857600080fd5b6001600160a01b03166080526200008c565b6000602082840312156200006d57600080fd5b81516001600160a01b03811681146200008557600080fd5b9392505050565b60805161284b620000e76000396000818161016c015281816101fc015281816102aa015281816104b601528181610526015281816105a1015281816105ec0152818161061e0152818161077d01526108f8015261284b6000f3fe608060405234801561001057600080fd5b506004361061009e5760003560e01c8063791b98bc11610066578063791b98bc146101675780638a2405f61461018e578063db9936bf146101bb578063edda8370146101ce578063faa0b1d5146101e157600080fd5b8063073e3c0b146100a35780631aa54edb146100d35780631c92ce35146100fe578063345058ea1461011e5780635a7fed0014610146575b600080fd5b6100b66100b1366004611de6565b6101f4565b6040516001600160a01b0390911681526020015b60405180910390f35b6100e66100e1366004611e26565b6103d0565b6040516001600160801b0390911681526020016100ca565b61011161010c366004611e81565b610491565b6040516100ca9190611eec565b61013161012c366004611de6565b61051e565b604080519283526020830191909152016100ca565b610159610154366004611eff565b610555565b6040516100ca929190611f2b565b6100b67f000000000000000000000000000000000000000000000000000000000000000081565b6101a161019c366004611f62565b61070f565b60408051921515835260029190910b6020830152016100ca565b6101116101c9366004611fcd565b61073a565b6100e66101dc366004612079565b6108f1565b6101316101ef36600461212a565b610a86565b6000806000807f00000000000000000000000000000000000000000000000000000000000000006001600160a01b03166399fbab88866040518263ffffffff1660e01b815260040161024891815260200190565b6101806040518083038186803b15801561026157600080fd5b505afa158015610275573d6000803e3d6000fd5b505050506040513d601f19601f820116820180604052508101906102999190612199565b5050505050505094509450945050507f00000000000000000000000000000000000000000000000000000000000000006001600160a01b031663c45a01556040518163ffffffff1660e01b815260040160206040518083038186803b15801561030157600080fd5b505afa158015610315573d6000803e3d6000fd5b505050506040513d601f19601f82011682018060405250810190610339919061227a565b604051630b4c774160e11b81526001600160a01b038581166004830152848116602483015262ffffff841660448301529190911690631698ee829060640160206040518083038186803b15801561038f57600080fd5b505afa1580156103a3573d6000803e3d6000fd5b505050506040513d601f19601f820116820180604052508101906103c7919061227a565b95945050505050565b6000806103dc86610b01565b905060006103e986610b01565b9050816001600160a01b0316886001600160a01b0316116104165761040f828287610f23565b9250610486565b806001600160a01b0316886001600160a01b0316101561047857600061043d898388610f23565b9050600061044c848b88610f98565b9050806001600160801b0316826001600160801b03161161046d578061046f565b815b94505050610486565b610483828286610f98565b92505b505095945050505050565b60408051600280825260608083018452926020830190803683370190505090506104dc7f00000000000000000000000000000000000000000000000000000000000000008484610fce565b826000815181106104ef576104ef612297565b602002602001018360018151811061050957610509612297565b60209081029190910101919091525292915050565b60008061054b7f000000000000000000000000000000000000000000000000000000000000000084611019565b9094909350915050565b60408051600280825260608083018452928392919060208301908036833750506040805160028082526060820183529395509291506020830190803683370190505090506000806105c67f000000000000000000000000000000000000000000000000000000000000000088611019565b9150915060006105d58761115c565b905060006105e28761115c565b90506000806106127f00000000000000000000000000000000000000000000000000000000000000008c86611172565b915091506000806106447f00000000000000000000000000000000000000000000000000000000000000008e87611172565b9150915081841115610654579092905b8083111561065e57915b61066888856122c3565b8a60008151811061067b5761067b612297565b602090810291909101015261069088836122c3565b896000815181106106a3576106a3612297565b60209081029190910101526106b887846122c3565b8a6001815181106106cb576106cb612297565b60209081029190910101526106e087826122c3565b896001815181106106f3576106f3612297565b6020026020010181815250505050505050505050935093915050565b600080600061071e8585611233565b945090915061072f905081876122db565b915050935093915050565b6040805160028082526060808301845292602083019080368337505060405163133f757160e31b8152600481018590529192506000918291506001600160a01b037f000000000000000000000000000000000000000000000000000000000000000016906399fbab88906024016101806040518083038186803b1580156107c057600080fd5b505afa1580156107d4573d6000803e3d6000fd5b505050506040513d601f19601f820116820180604052508101906107f89190612199565b50505050509650965050505050506000856001600160a01b0316633850c7bd6040518163ffffffff1660e01b815260040160e06040518083038186803b15801561084157600080fd5b505afa158015610855573d6000803e3d6000fd5b505050506040513d601f19601f820116820180604052508101906108799190612345565b5050505050509050600061088c84610b01565b9050600061089984610b01565b90506108a78383838c61148d565b876000815181106108ba576108ba612297565b60200260200101886001815181106108d4576108d4612297565b602002602001018281525082815250505050505050509392505050565b60008060007f00000000000000000000000000000000000000000000000000000000000000006001600160a01b03166399fbab88856040518263ffffffff1660e01b815260040161094491815260200190565b6101806040518083038186803b15801561095d57600080fd5b505afa158015610971573d6000803e3d6000fd5b505050506040513d601f19601f820116820180604052508101906109959190612199565b50505050509650965050505050506000856001600160a01b0316633850c7bd6040518163ffffffff1660e01b815260040160e06040518083038186803b1580156109de57600080fd5b505afa1580156109f2573d6000803e3d6000fd5b505050506040513d601f19601f82011682018060405250810190610a169190612345565b50505050505090506000610a2984610b01565b90506000610a3684610b01565b9050610a798383838c600081518110610a5157610a51612297565b60200260200101518d600181518110610a6c57610a6c612297565b6020026020010151611529565b9998505050505050505050565b60008080610aa287610a988a896123d8565b600160601b6115eb565b90506000610ab487610a98818b6123d8565b9050610ad8610ac88688600160601b6115eb565b83610ad384826122c3565b6115eb565b9250610ae983600160601b886115eb565b610af390866123d8565b935050509550959350505050565b60008060008360020b12610b18578260020b610b25565b8260020b610b25906123ef565b9050610b34620d89e71961240c565b60020b811115610b6f5760405162461bcd60e51b81526020600482015260016024820152601560fa1b60448201526064015b60405180910390fd5b600060018216610b8357600160801b610b95565b6ffffcb933bd6fad37aa2d162d1a5940015b70ffffffffffffffffffffffffffffffffff1690506002821615610bd4576080610bcf826ffff97272373d413259a46990580e213a61242f565b901c90505b6004821615610bfe576080610bf9826ffff2e50f5f656932ef12357cf3c7fdcc61242f565b901c90505b6008821615610c28576080610c23826fffe5caca7e10e4e61c3624eaa0941cd061242f565b901c90505b6010821615610c52576080610c4d826fffcb9843d60f6159c9db58835c92664461242f565b901c90505b6020821615610c7c576080610c77826fff973b41fa98c081472e6896dfb254c061242f565b901c90505b6040821615610ca6576080610ca1826fff2ea16466c96a3843ec78b326b5286161242f565b901c90505b6080821615610cd0576080610ccb826ffe5dee046a99a2a811c461f1969c305361242f565b901c90505b610100821615610cfb576080610cf6826ffcbe86c7900a88aedcffc83b479aa3a461242f565b901c90505b610200821615610d26576080610d21826ff987a7253ac413176f2b074cf7815e5461242f565b901c90505b610400821615610d51576080610d4c826ff3392b0822b70005940c7a398e4b70f361242f565b901c90505b610800821615610d7c576080610d77826fe7159475a2c29b7443b29c7fa6e889d961242f565b901c90505b611000821615610da7576080610da2826fd097f3bdfd2022b8845ad8f792aa582561242f565b901c90505b612000821615610dd2576080610dcd826fa9f746462d870fdf8a65dc1f90e061e561242f565b901c90505b614000821615610dfd576080610df8826f70d869a156d2a1b890bb3df62baf32f761242f565b901c90505b618000821615610e28576080610e23826f31be135f97d08fd981231505542fcfa661242f565b901c90505b62010000821615610e54576080610e4f826f09aa508b5b7a84e1c677de54f3e99bc961242f565b901c90505b62020000821615610e7f576080610e7a826e5d6af8dedb81196699c329225ee60461242f565b901c90505b62040000821615610ea9576080610ea4826d2216e584f5fa1ea926041bedfe9861242f565b901c90505b62080000821615610ed1576080610ecc826b048a170391f7dc42444e8fa261242f565b901c90505b60008460020b1315610eec57610ee981600019612464565b90505b610efb64010000000082612478565b15610f07576001610f0a565b60005b610f1b9060ff16602083901c6122c3565b949350505050565b6000826001600160a01b0316846001600160a01b03161115610f43579192915b6000610f66856001600160a01b0316856001600160a01b0316600160601b6115eb565b9050610f8d610f888483610f7a898961248c565b6001600160a01b03166115eb565b61169e565b9150505b9392505050565b6000826001600160a01b0316846001600160a01b03161115610fb8579192915b610f1b610f8883600160601b610f7a888861248c565b600080600080610fdf878787611172565b91509150600080610ff08989611019565b9092509050610fff82856122c3565b61100982856122c3565b9550955050505050935093915050565b6000806000806000806000806000806000808d6001600160a01b03166399fbab888e6040518263ffffffff1660e01b815260040161105991815260200190565b6101806040518083038186803b15801561107257600080fd5b505afa158015611086573d6000803e3d6000fd5b505050506040513d601f19601f820116820180604052508101906110aa9190612199565b6001600160801b03169b506001600160801b03169b509b509b509b509b509b509b509b509b5050506111478e6040518061014001604052808d6001600160a01b031681526020018c6001600160a01b031681526020018b62ffffff1681526020018a60020b81526020018960020b8152602001886001600160801b03168152602001878152602001868152602001858152602001848152506116b9565b9b509b50505050505050505050509250929050565b600080611168836117eb565b60301b9392505050565b6000806000806000876001600160a01b03166399fbab88886040518263ffffffff1660e01b81526004016111a891815260200190565b6101806040518083038186803b1580156111c157600080fd5b505afa1580156111d5573d6000803e3d6000fd5b505050506040513d601f19601f820116820180604052508101906111f99190612199565b5050505097509750975050505050506112248661121585610b01565b61121e85610b01565b8461148d565b94509450505050935093915050565b6000808063ffffffff841661126f5760405162461bcd60e51b8152602060048201526002602482015261042560f41b6044820152606401610b66565b60408051600280825260608201835260009260208301908036833701905050905084816000815181106112a4576112a4612297565b602002602001019063ffffffff16908163ffffffff16815250506000816001815181106112d3576112d3612297565b63ffffffff9092166020928302919091019091015260405163883bdbfd60e01b81526001600160a01b0387169063883bdbfd906113149084906004016124b4565b60006040518083038186803b15801561132c57600080fd5b505afa92505050801561136157506040513d6000823e601f3d908101601f1916820160405261135e919081019061257f565b60015b61137657600080600193509350935050611486565b60008260008151811061138b5761138b612297565b6020026020010151836001815181106113a6576113a6612297565b60200260200101516113b89190612642565b90506000826000815181106113cf576113cf612297565b6020026020010151836001815181106113ea576113ea612297565b60200260200101516113fc919061248c565b905061140e63ffffffff8a1683612688565b975060008260060b128015611434575061142e63ffffffff8a16836126c6565b60060b15155b156114475787611443816126e8565b9850505b60006114606001600160a01b0363ffffffff8c1661270c565b905061147d640100000000600160c01b03602084901b168261273b565b97505050505050505b9250925092565b600080836001600160a01b0316856001600160a01b031611156114ae579293925b846001600160a01b0316866001600160a01b0316116114d9576114d2858585611966565b9150611520565b836001600160a01b0316866001600160a01b03161015611512576114fe868585611966565b915061150b8587856119d9565b9050611520565b61151d8585856119d9565b90505b94509492505050565b6000836001600160a01b0316856001600160a01b03161115611549579293925b846001600160a01b0316866001600160a01b0316116115745761156d858585610f23565b90506103c7565b836001600160a01b0316866001600160a01b031610156115d657600061159b878686610f23565b905060006115aa878986610f98565b9050806001600160801b0316826001600160801b0316106115cb57806115cd565b815b925050506103c7565b6115e1858584610f98565b9695505050505050565b600080806000198587098587029250828110838203039150508060001415611625576000841161161a57600080fd5b508290049050610f91565b80841161163157600080fd5b6000848688096000868103871696879004966002600389028118808a02820302808a02820302808a02820302808a02820302808a02820302808a02909103029181900381900460010186841190950394909402919094039290920491909117919091029150509392505050565b806001600160801b03811681146116b457600080fd5b919050565b600080600080611788611779876001600160a01b031663c45a01556040518163ffffffff1660e01b815260040160206040518083038186803b1580156116fe57600080fd5b505afa158015611712573d6000803e3d6000fd5b505050506040513d601f19601f82011682018060405250810190611736919061227a565b604051806060016040528089600001516001600160a01b0316815260200189602001516001600160a01b03168152602001896040015162ffffff16815250611a23565b86606001518760800151611b0c565b915091508461010001516117b48660c0015184038760a001516001600160801b0316600160801b6115eb565b0193508461012001516117df8660e0015183038760a001516001600160801b0316600160801b6115eb565b01925050509250929050565b6000816117fa57506000919050565b816001600160801b82106118135760809190911c9060401b5b68010000000000000000821061182e5760409190911c9060201b5b64010000000082106118455760209190911c9060101b5b62010000821061185a5760109190911c9060081b5b610100821061186e5760089190911c9060041b5b601082106118815760049190911c9060021b5b6008821061188d5760011b5b60016118998286612464565b6118a390836122c3565b901c905060016118b38286612464565b6118bd90836122c3565b901c905060016118cd8286612464565b6118d790836122c3565b901c905060016118e78286612464565b6118f190836122c3565b901c905060016119018286612464565b61190b90836122c3565b901c9050600161191b8286612464565b61192590836122c3565b901c905060016119358286612464565b61193f90836122c3565b901c9050600061194f8286612464565b905080821061195e57806103c7565b509392505050565b6000826001600160a01b0316846001600160a01b03161115611986579192915b6001600160a01b0384166119cf6fffffffffffffffffffffffffffffffff60601b606085901b166119b7878761248c565b6001600160a01b0316866001600160a01b03166115eb565b610f1b9190612464565b6000826001600160a01b0316846001600160a01b031611156119f9579192915b610f1b6001600160801b038316611a10868661248c565b6001600160a01b0316600160601b6115eb565b600081602001516001600160a01b031682600001516001600160a01b031610611a4b57600080fd5b815160208084015160408086015181516001600160a01b0395861681860152949092168482015262ffffff90911660608085019190915281518085038201815260808501909252815191909201206001600160f81b031960a08401529085901b6bffffffffffffffffffffffff191660a183015260b58201527fe34f199b19b2b4f47f68442619d555527d244f78a3297ea89325f843f87b8b5460d582015260f50160408051601f1981840301815291905280516020909101209392505050565b6000806000856001600160a01b0316633850c7bd6040518163ffffffff1660e01b815260040160e06040518083038186803b158015611b4a57600080fd5b505afa158015611b5e573d6000803e3d6000fd5b505050506040513d601f19601f82011682018060405250810190611b829190612345565b505060405163f30dba9360e01b815260028b900b60048201529395506000945084936001600160a01b038c16935063f30dba93925060240190506101006040518083038186803b158015611bd557600080fd5b505afa158015611be9573d6000803e3d6000fd5b505050506040513d601f19601f82011682018060405250810190611c0d9190612761565b505060405163f30dba9360e01b815260028d900b600482015293975091955060009450849350506001600160a01b038c169163f30dba9391506024016101006040518083038186803b158015611c6257600080fd5b505afa158015611c76573d6000803e3d6000fd5b505050506040513d601f19601f82011682018060405250810190611c9a9190612761565b505050509350935050508860020b8560020b1215611cc15781840396508083039550611dd9565b8760020b8560020b1215611dce5760008a6001600160a01b031663f30583996040518163ffffffff1660e01b815260040160206040518083038186803b158015611d0a57600080fd5b505afa158015611d1e573d6000803e3d6000fd5b505050506040513d601f19601f82011682018060405250810190611d4291906127fc565b905060008b6001600160a01b031663461413196040518163ffffffff1660e01b815260040160206040518083038186803b158015611d7f57600080fd5b505afa158015611d93573d6000803e3d6000fd5b505050506040513d601f19601f82011682018060405250810190611db791906127fc565b905083868303039850828582030397505050611dd9565b838203965082810395505b5050505050935093915050565b600060208284031215611df857600080fd5b5035919050565b6001600160a01b0381168114611e1457600080fd5b50565b8060020b8114611e1457600080fd5b600080600080600060a08688031215611e3e57600080fd5b8535611e4981611dff565b94506020860135611e5981611e17565b93506040860135611e6981611e17565b94979396509394606081013594506080013592915050565b60008060408385031215611e9457600080fd5b823591506020830135611ea681611dff565b809150509250929050565b600081518084526020808501945080840160005b83811015611ee157815187529582019590820190600101611ec5565b509495945050505050565b602081526000610f916020830184611eb1565b600080600060608486031215611f1457600080fd5b505081359360208301359350604090920135919050565b604081526000611f3e6040830185611eb1565b8281036020840152610f8d8185611eb1565b63ffffffff81168114611e1457600080fd5b600080600060608486031215611f7757600080fd5b8335611f8281611e17565b92506020840135611f9281611dff565b91506040840135611fa281611f50565b809150509250925092565b6001600160801b0381168114611e1457600080fd5b80356116b481611dff565b600080600060608486031215611fe257600080fd5b8335611fed81611fad565b92506020840135611ffd81611dff565b929592945050506040919091013590565b634e487b7160e01b600052604160045260246000fd5b604051601f8201601f1916810167ffffffffffffffff8111828210171561204d5761204d61200e565b604052919050565b600067ffffffffffffffff82111561206f5761206f61200e565b5060051b60200190565b60008060006060848603121561208e57600080fd5b833567ffffffffffffffff8111156120a557600080fd5b8401601f810186136120b657600080fd5b803560206120cb6120c683612055565b612024565b82815260059290921b830181019181810190898411156120ea57600080fd5b938201935b83851015612108578435825293820193908201906120ef565b96506121179050878201611fc2565b9450505050604084013590509250925092565b600080600080600060a0868803121561214257600080fd5b505083359560208501359550604085013594606081013594506080013592509050565b80516116b481611dff565b805162ffffff811681146116b457600080fd5b80516116b481611e17565b80516116b481611fad565b6000806000806000806000806000806000806101808d8f0312156121bc57600080fd5b8c516bffffffffffffffffffffffff811681146121d857600080fd5b9b506121e660208e01612165565b9a506121f460408e01612165565b995061220260608e01612165565b985061221060808e01612170565b975061221e60a08e01612183565b965061222c60c08e01612183565b955061223a60e08e0161218e565b94506101008d015193506101208d015192506122596101408e0161218e565b91506122686101608e0161218e565b90509295989b509295989b509295989b565b60006020828403121561228c57600080fd5b8151610f9181611dff565b634e487b7160e01b600052603260045260246000fd5b634e487b7160e01b600052601160045260246000fd5b600082198211156122d6576122d66122ad565b500190565b60008160020b8360020b6000811281627fffff1901831281151615612302576123026122ad565b81627fffff018313811615612319576123196122ad565b5090039392505050565b805161ffff811681146116b457600080fd5b805180151581146116b457600080fd5b600080600080600080600060e0888a03121561236057600080fd5b875161236b81611dff565b602089015190975061237c81611e17565b955061238a60408901612323565b945061239860608901612323565b93506123a660808901612323565b925060a088015160ff811681146123bc57600080fd5b91506123ca60c08901612335565b905092959891949750929550565b6000828210156123ea576123ea6122ad565b500390565b6000600160ff1b821415612405576124056122ad565b5060000390565b60008160020b627fffff19811415612426576124266122ad565b60000392915050565b6000816000190483118215151615612449576124496122ad565b500290565b634e487b7160e01b600052601260045260246000fd5b6000826124735761247361244e565b500490565b6000826124875761248761244e565b500690565b60006001600160a01b03838116908316818110156124ac576124ac6122ad565b039392505050565b6020808252825182820181905260009190848201906040850190845b818110156124f257835163ffffffff16835292840192918401916001016124d0565b50909695505050505050565b8051600681900b81146116b457600080fd5b600082601f83011261252157600080fd5b815160206125316120c683612055565b82815260059290921b8401810191818101908684111561255057600080fd5b8286015b8481101561257457805161256781611dff565b8352918301918301612554565b509695505050505050565b6000806040838503121561259257600080fd5b825167ffffffffffffffff808211156125aa57600080fd5b818501915085601f8301126125be57600080fd5b815160206125ce6120c683612055565b82815260059290921b840181019181810190898411156125ed57600080fd5b948201945b8386101561261257612603866124fe565b825294820194908201906125f2565b9188015191965090935050508082111561262b57600080fd5b5061263885828601612510565b9150509250929050565b60008160060b8360060b6000811281667fffffffffffff190183128115161561266d5761266d6122ad565b81667fffffffffffff018313811615612319576123196122ad565b60008160060b8360060b8061269f5761269f61244e565b667fffffffffffff198214600019821416156126bd576126bd6122ad565b90059392505050565b60008260060b806126d9576126d961244e565b808360060b0791505092915050565b60008160020b627fffff19811415612702576127026122ad565b6000190192915050565b60006001600160c01b0382811684821681151582840482111615612732576127326122ad565b02949350505050565b60006001600160c01b03838116806127555761275561244e565b92169190910492915050565b600080600080600080600080610100898b03121561277e57600080fd5b885161278981611fad565b80985050602089015180600f0b81146127a157600080fd5b60408a015160608b0151919850965094506127be60808a016124fe565b935060a08901516127ce81611dff565b60c08a01519093506127df81611f50565b91506127ed60e08a01612335565b90509295985092959890939650565b60006020828403121561280e57600080fd5b505191905056fea264697066735822122067d8fd8c76c1d8534510e0f664760d542c97ca8e6b057cdb9b82cfb467e2805c64736f6c63430008090033",
    "linkReferences": {}
  },
  "methodIdentifiers": {
    "calculateTvlByMinMaxPrices(uint256,uint256,uint256)": "5a7fed00",
    "calculateTvlBySqrtPriceX96(uint256,uint160)": "1c92ce35",
    "getFeesByNft(uint256)": "345058ea",
    "getPoolByNft(uint256)": "073e3c0b",
    "getPositionTokenAmountsByCapitalOfToken0(uint256,uint256,uint256,uint256,uint256)": "faa0b1d5",
    "getTickDeviationForTimeSpan(int24,address,uint32)": "8a2405f6",
    "liquidityToTokenAmounts(uint128,address,uint256)": "db9936bf",
    "positionManager()": "791b98bc",
    "tokenAmountsToLiquidity(uint256[],address,uint256)": "edda8370",
    "tokenAmountsToMaximalLiquidity(uint160,int24,int24,uint256,uint256)": "1aa54edb"
  },
  "id": 434
}