{
  "abi": [
    {
      "anonymous": false,
      "inputs": [
        {
          "indexed": true,
          "internalType": "address",
          "name": "owner",
          "type": "address"
        },
        {
          "indexed": true,
          "internalType": "address",
          "name": "spender",
          "type": "address"
        },
        {
          "indexed": false,
          "internalType": "uint256",
          "name": "value",
          "type": "uint256"
        }
      ],
      "name": "Approval",
      "type": "event"
    },
    {
      "anonymous": false,
      "inputs": [
        {
          "indexed": true,
          "internalType": "address",
          "name": "from",
          "type": "address"
        },
        {
          "indexed": false,
          "internalType": "address[]",
          "name": "tokens",
          "type": "address[]"
        },
        {
          "indexed": false,
          "internalType": "uint256[]",
          "name": "actualTokenAmounts",
          "type": "uint256[]"
        },
        {
          "indexed": false,
          "internalType": "uint256",
          "name": "lpTokenMinted",
          "type": "uint256"
        }
      ],
      "name": "Deposit",
      "type": "event"
    },
    {
      "anonymous": false,
      "inputs": [
        {
          "indexed": false,
          "internalType": "string",
          "name": "reason",
          "type": "string"
        }
      ],
      "name": "DepositCallbackLog",
      "type": "event"
    },
    {
      "anonymous": false,
      "inputs": [
        {
          "indexed": true,
          "internalType": "address",
          "name": "origin",
          "type": "address"
        },
        {
          "indexed": true,
          "internalType": "address",
          "name": "sender",
          "type": "address"
        },
        {
          "indexed": false,
          "internalType": "address[]",
          "name": "vaultTokens_",
          "type": "address[]"
        },
        {
          "indexed": false,
          "internalType": "uint256",
          "name": "nft_",
          "type": "uint256"
        }
      ],
      "name": "Initialized",
      "type": "event"
    },
    {
      "anonymous": false,
      "inputs": [
        {
          "indexed": true,
          "internalType": "address",
          "name": "treasury",
          "type": "address"
        },
        {
          "indexed": false,
          "internalType": "uint256",
          "name": "feeRate",
          "type": "uint256"
        },
        {
          "indexed": false,
          "internalType": "uint256",
          "name": "amount",
          "type": "uint256"
        }
      ],
      "name": "ManagementFeesCharged",
      "type": "event"
    },
    {
      "anonymous": false,
      "inputs": [
        {
          "indexed": true,
          "internalType": "address",
          "name": "treasury",
          "type": "address"
        },
        {
          "indexed": false,
          "internalType": "uint256",
          "name": "feeRate",
          "type": "uint256"
        },
        {
          "indexed": false,
          "internalType": "uint256",
          "name": "amount",
          "type": "uint256"
        }
      ],
      "name": "PerformanceFeesCharged",
      "type": "event"
    },
    {
      "anonymous": false,
      "inputs": [
        {
          "indexed": true,
          "internalType": "address",
          "name": "treasury",
          "type": "address"
        },
        {
          "indexed": false,
          "internalType": "uint256",
          "name": "feeRate",
          "type": "uint256"
        },
        {
          "indexed": false,
          "internalType": "uint256",
          "name": "amount",
          "type": "uint256"
        }
      ],
      "name": "ProtocolFeesCharged",
      "type": "event"
    },
    {
      "anonymous": false,
      "inputs": [
        {
          "indexed": true,
          "internalType": "address",
          "name": "from",
          "type": "address"
        },
        {
          "indexed": true,
          "internalType": "address",
          "name": "to",
          "type": "address"
        },
        {
          "indexed": false,
          "internalType": "uint256",
          "name": "value",
          "type": "uint256"
        }
      ],
      "name": "Transfer",
      "type": "event"
    },
    {
      "anonymous": false,
      "inputs": [
        {
          "indexed": true,
          "internalType": "address",
          "name": "from",
          "type": "address"
        },
        {
          "indexed": false,
          "internalType": "address[]",
          "name": "tokens",
          "type": "address[]"
        },
        {
          "indexed": false,
          "internalType": "uint256[]",
          "name": "actualTokenAmounts",
          "type": "uint256[]"
        },
        {
          "indexed": false,
          "internalType": "uint256",
          "name": "lpTokenBurned",
          "type": "uint256"
        }
      ],
      "name": "Withdraw",
      "type": "event"
    },
    {
      "anonymous": false,
      "inputs": [
        {
          "indexed": false,
          "internalType": "string",
          "name": "reason",
          "type": "string"
        }
      ],
      "name": "WithdrawCallbackLog",
      "type": "event"
    },
    {
      "inputs": [],
      "name": "DOMAIN_SEPARATOR",
      "outputs": [
        {
          "internalType": "bytes32",
          "name": "",
          "type": "bytes32"
        }
      ],
      "stateMutability": "view",
      "type": "function"
    },
    {
      "inputs": [],
      "name": "PERMIT_TYPEHASH",
      "outputs": [
        {
          "internalType": "bytes32",
          "name": "",
          "type": "bytes32"
        }
      ],
      "stateMutability": "view",
      "type": "function"
    },
    {
      "inputs": [
        {
          "internalType": "address[]",
          "name": "depositors",
          "type": "address[]"
        }
      ],
      "name": "addDepositorsToAllowlist",
      "outputs": [],
      "stateMutability": "nonpayable",
      "type": "function"
    },
    {
      "inputs": [
        {
          "internalType": "address",
          "name": "",
          "type": "address"
        },
        {
          "internalType": "address",
          "name": "",
          "type": "address"
        }
      ],
      "name": "allowance",
      "outputs": [
        {
          "internalType": "uint256",
          "name": "",
          "type": "uint256"
        }
      ],
      "stateMutability": "view",
      "type": "function"
    },
    {
      "inputs": [
        {
          "internalType": "address",
          "name": "spender",
          "type": "address"
        },
        {
          "internalType": "uint256",
          "name": "amount",
          "type": "uint256"
        }
      ],
      "name": "approve",
      "outputs": [
        {
          "internalType": "bool",
          "name": "",
          "type": "bool"
        }
      ],
      "stateMutability": "nonpayable",
      "type": "function"
    },
    {
      "inputs": [
        {
          "internalType": "address",
          "name": "",
          "type": "address"
        }
      ],
      "name": "balanceOf",
      "outputs": [
        {
          "internalType": "uint256",
          "name": "",
          "type": "uint256"
        }
      ],
      "stateMutability": "view",
      "type": "function"
    },
    {
      "inputs": [],
      "name": "decimals",
      "outputs": [
        {
          "internalType": "uint8",
          "name": "",
          "type": "uint8"
        }
      ],
      "stateMutability": "view",
      "type": "function"
    },
    {
      "inputs": [
        {
          "internalType": "uint256[]",
          "name": "tokenAmounts",
          "type": "uint256[]"
        },
        {
          "internalType": "uint256",
          "name": "minLpTokens",
          "type": "uint256"
        },
        {
          "internalType": "bytes",
          "name": "vaultOptions",
          "type": "bytes"
        }
      ],
      "name": "deposit",
      "outputs": [
        {
          "internalType": "uint256[]",
          "name": "actualTokenAmounts",
          "type": "uint256[]"
        }
      ],
      "stateMutability": "nonpayable",
      "type": "function"
    },
    {
      "inputs": [],
      "name": "depositorsAllowlist",
      "outputs": [
        {
          "internalType": "address[]",
          "name": "",
          "type": "address[]"
        }
      ],
      "stateMutability": "view",
      "type": "function"
    },
    {
      "inputs": [
        {
          "internalType": "uint256",
          "name": "nft_",
          "type": "uint256"
        }
      ],
      "name": "hasSubvault",
      "outputs": [
        {
          "internalType": "bool",
          "name": "",
          "type": "bool"
        }
      ],
      "stateMutability": "view",
      "type": "function"
    },
    {
      "inputs": [],
      "name": "helper",
      "outputs": [
        {
          "internalType": "contract IERC20RootVaultHelper",
          "name": "",
          "type": "address"
        }
      ],
      "stateMutability": "view",
      "type": "function"
    },
    {
      "inputs": [
        {
          "internalType": "uint256",
          "name": "nft_",
          "type": "uint256"
        },
        {
          "internalType": "address[]",
          "name": "vaultTokens_",
          "type": "address[]"
        },
        {
          "internalType": "address",
          "name": "strategy_",
          "type": "address"
        },
        {
          "internalType": "uint256[]",
          "name": "subvaultNfts_",
          "type": "uint256[]"
        },
        {
          "internalType": "contract IERC20RootVaultHelper",
          "name": "helper_",
          "type": "address"
        },
        {
          "internalType": "address",
          "name": "pool_",
          "type": "address"
        }
      ],
      "name": "initialize",
      "outputs": [],
      "stateMutability": "nonpayable",
      "type": "function"
    },
    {
      "inputs": [],
      "name": "initialized",
      "outputs": [
        {
          "internalType": "bool",
          "name": "",
          "type": "bool"
        }
      ],
      "stateMutability": "view",
      "type": "function"
    },
    {
      "inputs": [
        {
          "internalType": "address",
          "name": "token",
          "type": "address"
        }
      ],
      "name": "isVaultToken",
      "outputs": [
        {
          "internalType": "bool",
          "name": "",
          "type": "bool"
        }
      ],
      "stateMutability": "view",
      "type": "function"
    },
    {
      "inputs": [],
      "name": "lastFeeCharge",
      "outputs": [
        {
          "internalType": "uint64",
          "name": "",
          "type": "uint64"
        }
      ],
      "stateMutability": "view",
      "type": "function"
    },
    {
      "inputs": [],
      "name": "lpPriceHighWaterMarkD18",
      "outputs": [
        {
          "internalType": "uint256",
          "name": "",
          "type": "uint256"
        }
      ],
      "stateMutability": "view",
      "type": "function"
    },
    {
      "inputs": [],
      "name": "name",
      "outputs": [
        {
          "internalType": "string",
          "name": "",
          "type": "string"
        }
      ],
      "stateMutability": "view",
      "type": "function"
    },
    {
      "inputs": [],
      "name": "nft",
      "outputs": [
        {
          "internalType": "uint256",
          "name": "",
          "type": "uint256"
        }
      ],
      "stateMutability": "view",
      "type": "function"
    },
    {
      "inputs": [
        {
          "internalType": "address",
          "name": "",
          "type": "address"
        }
      ],
      "name": "nonces",
      "outputs": [
        {
          "internalType": "uint256",
          "name": "",
          "type": "uint256"
        }
      ],
      "stateMutability": "view",
      "type": "function"
    },
    {
      "inputs": [
        {
          "internalType": "address",
          "name": "owner",
          "type": "address"
        },
        {
          "internalType": "address",
          "name": "spender",
          "type": "address"
        },
        {
          "internalType": "uint256",
          "name": "value",
          "type": "uint256"
        },
        {
          "internalType": "uint256",
          "name": "deadline",
          "type": "uint256"
        },
        {
          "internalType": "uint8",
          "name": "v",
          "type": "uint8"
        },
        {
          "internalType": "bytes32",
          "name": "r",
          "type": "bytes32"
        },
        {
          "internalType": "bytes32",
          "name": "s",
          "type": "bytes32"
        }
      ],
      "name": "permit",
      "outputs": [],
      "stateMutability": "nonpayable",
      "type": "function"
    },
    {
      "inputs": [],
      "name": "pool",
      "outputs": [
        {
          "internalType": "address",
          "name": "",
          "type": "address"
        }
      ],
      "stateMutability": "view",
      "type": "function"
    },
    {
      "inputs": [],
      "name": "pullExistentials",
      "outputs": [
        {
          "internalType": "uint256[]",
          "name": "",
          "type": "uint256[]"
        }
      ],
      "stateMutability": "view",
      "type": "function"
    },
    {
      "inputs": [
        {
          "internalType": "address[]",
          "name": "depositors",
          "type": "address[]"
        }
      ],
      "name": "removeDepositorsFromAllowlist",
      "outputs": [],
      "stateMutability": "nonpayable",
      "type": "function"
    },
    {
      "inputs": [
        {
          "internalType": "uint256",
          "name": "index",
          "type": "uint256"
        }
      ],
      "name": "subvaultAt",
      "outputs": [
        {
          "internalType": "address",
          "name": "",
          "type": "address"
        }
      ],
      "stateMutability": "view",
      "type": "function"
    },
    {
      "inputs": [],
      "name": "subvaultNfts",
      "outputs": [
        {
          "internalType": "uint256[]",
          "name": "",
          "type": "uint256[]"
        }
      ],
      "stateMutability": "view",
      "type": "function"
    },
    {
      "inputs": [
        {
          "internalType": "uint256",
          "name": "nft_",
          "type": "uint256"
        }
      ],
      "name": "subvaultOneBasedIndex",
      "outputs": [
        {
          "internalType": "uint256",
          "name": "",
          "type": "uint256"
        }
      ],
      "stateMutability": "view",
      "type": "function"
    },
    {
      "inputs": [
        {
          "internalType": "bytes4",
          "name": "interfaceId",
          "type": "bytes4"
        }
      ],
      "name": "supportsInterface",
      "outputs": [
        {
          "internalType": "bool",
          "name": "",
          "type": "bool"
        }
      ],
      "stateMutability": "view",
      "type": "function"
    },
    {
      "inputs": [],
      "name": "symbol",
      "outputs": [
        {
          "internalType": "string",
          "name": "",
          "type": "string"
        }
      ],
      "stateMutability": "view",
      "type": "function"
    },
    {
      "inputs": [],
      "name": "totalSupply",
      "outputs": [
        {
          "internalType": "uint256",
          "name": "",
          "type": "uint256"
        }
      ],
      "stateMutability": "view",
      "type": "function"
    },
    {
      "inputs": [
        {
          "internalType": "uint256",
          "name": "",
          "type": "uint256"
        }
      ],
      "name": "totalWithdrawnAmounts",
      "outputs": [
        {
          "internalType": "uint256",
          "name": "",
          "type": "uint256"
        }
      ],
      "stateMutability": "view",
      "type": "function"
    },
    {
      "inputs": [],
      "name": "totalWithdrawnAmountsTimestamp",
      "outputs": [
        {
          "internalType": "uint64",
          "name": "",
          "type": "uint64"
        }
      ],
      "stateMutability": "view",
      "type": "function"
    },
    {
      "inputs": [
        {
          "internalType": "address",
          "name": "to",
          "type": "address"
        },
        {
          "internalType": "uint256",
          "name": "amount",
          "type": "uint256"
        }
      ],
      "name": "transfer",
      "outputs": [
        {
          "internalType": "bool",
          "name": "",
          "type": "bool"
        }
      ],
      "stateMutability": "nonpayable",
      "type": "function"
    },
    {
      "inputs": [
        {
          "internalType": "address",
          "name": "from",
          "type": "address"
        },
        {
          "internalType": "address",
          "name": "to",
          "type": "address"
        },
        {
          "internalType": "uint256",
          "name": "amount",
          "type": "uint256"
        }
      ],
      "name": "transferFrom",
      "outputs": [
        {
          "internalType": "bool",
          "name": "",
          "type": "bool"
        }
      ],
      "stateMutability": "nonpayable",
      "type": "function"
    },
    {
      "inputs": [],
      "name": "tvl",
      "outputs": [
        {
          "internalType": "uint256[]",
          "name": "minTokenAmounts",
          "type": "uint256[]"
        },
        {
          "internalType": "uint256[]",
          "name": "maxTokenAmounts",
          "type": "uint256[]"
        }
      ],
      "stateMutability": "view",
      "type": "function"
    },
    {
      "inputs": [],
      "name": "vaultGovernance",
      "outputs": [
        {
          "internalType": "contract IVaultGovernance",
          "name": "",
          "type": "address"
        }
      ],
      "stateMutability": "view",
      "type": "function"
    },
    {
      "inputs": [],
      "name": "vaultTokens",
      "outputs": [
        {
          "internalType": "address[]",
          "name": "",
          "type": "address[]"
        }
      ],
      "stateMutability": "view",
      "type": "function"
    },
    {
      "inputs": [
        {
          "internalType": "address",
          "name": "to",
          "type": "address"
        },
        {
          "internalType": "uint256",
          "name": "lpTokenAmount",
          "type": "uint256"
        },
        {
          "internalType": "uint256[]",
          "name": "minTokenAmounts",
          "type": "uint256[]"
        },
        {
          "internalType": "bytes[]",
          "name": "vaultsOptions",
          "type": "bytes[]"
        }
      ],
      "name": "withdraw",
      "outputs": [
        {
          "internalType": "uint256[]",
          "name": "actualTokenAmounts",
          "type": "uint256[]"
        }
      ],
      "stateMutability": "nonpayable",
      "type": "function"
    }
  ],
  "bytecode": {
    "object": "0x60a060405234801561001057600080fd5b50466080526001600755600019600b55608051615dd36200003c60003960006107a00152615dd36000f3fe608060405234801561001057600080fd5b50600436106102275760003560e01c806363b0e66a116101305780639d9fd0d9116100b8578063d505accf1161007c578063d505accf14610503578063dd62ed3e14610516578063e273d23e14610541578063e5328e0614610554578063fe255a5e1461056a57600080fd5b80639d9fd0d91461049e5780639ddc875f146104c0578063a09eb0e7146104e0578063a9059cbb146104e8578063d2c219b0146104fb57600080fd5b80637ecebe00116100ff5780637ecebe001461043d57806382491fac1461045d57806391b7ab471461047057806395d89b41146104835780639bd0911b1461048b57600080fd5b806363b0e66a146103ed578063697222331461040057806370a0823114610415578063791839731461043557600080fd5b806330adf81f116101b35780633da7463f116101825780633da7463f1461036b578063407a31c01461039657806347ccca02146103b057806349b0460c146103b857806354a3f474146103cd57600080fd5b806330adf81f146102f7578063313ce5671461031e578063338c4ccb146103385780633644e5151461036357600080fd5b8063158ef93e116101fa578063158ef93e1461029d57806316f0115b146102a757806318160ddd146102d257806323b872dd146102db57806324004a66146102ee57600080fd5b806301ffc9a71461022c57806306fdde0314610254578063095ea7b314610269578063151bb8d11461027c575b600080fd5b61023f61023a366004614d54565b61057b565b60405190151581526020015b60405180910390f35b61025c6105a7565b60405161024b9190614dd6565b61023f610277366004614e11565b610635565b61028f61028a366004614e3d565b6106a1565b60405190815260200161024b565b600b54151561023f565b6012546102ba906001600160a01b031681565b6040516001600160a01b03909116815260200161024b565b61028f60025481565b61023f6102e9366004614e56565b6106c2565b61028f60115481565b61028f7f6e71edae12b1b97f4d1f60370fef10105fa2faae0126114a169c64845d6126c981565b610326601281565b60405160ff909116815260200161024b565b61023f610346366004614e97565b6001600160a01b03166000908152600a6020526040902054151590565b61028f61079c565b600f5461037e906001600160401b031681565b6040516001600160401b03909116815260200161024b565b600f5461037e90600160401b90046001600160401b031681565b600b5461028f565b6103cb6103c6366004614fce565b6107d9565b005b6103e06103db36600461514a565b6108ed565b60405161024b91906151f1565b6015546102ba906001600160a01b031681565b6104086111da565b60405161024b919061523d565b61028f610423366004614e97565b60006020819052908152604090205481565b6103e061123c565b61028f61044b366004614e97565b60066020526000908152604090205481565b6103e061046b366004615250565b611293565b6103cb61047e36600461534c565b6117dd565b61025c61183a565b6102ba610499366004614e3d565b611847565b61023f6104ac366004614e3d565b6000908152600e6020526040902054151590565b61028f6104ce366004614e3d565b6000908152600e602052604090205490565b61040861196d565b61023f6104f6366004614e11565b611979565b6103e06119dc565b6103cb6105113660046153cf565b611a32565b61028f610524366004615440565b600160209081526000928352604080842090915290825290205481565b6103cb61054f36600461534c565b611c7f565b61055c611cd7565b60405161024b929190615479565b6008546001600160a01b03166102ba565b600061058682612119565b806105a15750631636f05960e01b6001600160e01b03198316145b92915050565b600380546105b4906154a7565b80601f01602080910402602001604051908101604052809291908181526020018280546105e0906154a7565b801561062d5780601f106106025761010080835404028352916020019161062d565b820191906000526020600020905b81548152906001019060200180831161061057829003601f168201915b505050505081565b3360008181526001602090815260408083206001600160a01b038716808552925280832085905551919290917f8c5be1e5ebec7d5bd14f71427d1e84f3dd0314c0f7b2291e5b200ac8c7c3b925906106909086815260200190565b60405180910390a350600192915050565b601081815481106106b157600080fd5b600091825260209091200154905081565b6001600160a01b0383166000908152600160209081526040808320338452909152812054600019811461071e576106f983826154f8565b6001600160a01b03861660009081526001602090815260408083203384529091529020555b6001600160a01b038516600090815260208190526040812080548592906107469084906154f8565b90915550506001600160a01b038481166000818152602081815260409182902080548801905590518681529192881691600080516020615d7e833981519152910160405180910390a360019150505b9392505050565b60007f000000000000000000000000000000000000000000000000000000000000000046146107d2576107cd612139565b905090565b5060055490565b6107e5858786866121d3565b61084461081a6040518060400160405280601081526020016f026b2b63637bb902638102a37b5b2b7160851b815250886124a6565b61083f6040518060400160405280600381526020016204d4c560ec1b815250896124a6565b6124e0565b8451806001600160401b0381111561085e5761085e614eb4565b604051908082528060200260200182016040528015610887578160200160208202803683370190505b50805161089c91601091602090910190614c2c565b5050600f805467ffffffffffffffff1916426001600160401b0316179055601580546001600160a01b03199081166001600160a01b0394851617909155601280549091169190921617905550505050565b60606108f7612517565b600860009054906101000a90046001600160a01b03166001600160a01b031663db2030aa6040518163ffffffff1660e01b815260040160206040518083038186803b15801561094557600080fd5b505afa158015610959573d6000803e3d6000fd5b505050506040513d601f19601f8201168201806040525081019061097d919061551f565b5160408051808201909152600381526223292160e91b602082015290156109c05760405162461bcd60e51b81526004016109b79190614dd6565b60405180910390fd5b5060006009805480602002602001604051908101604052809291908181526020018280548015610a1957602002820191906000526020600020905b81546001600160a01b031681526001909101906020018083116109fb575b505060025493945050508115159050610b6a5760005b8251811015610b6857600c8181548110610a4b57610a4b61554f565b9060005260206000200154600a610a629190615565565b878281518110610a7457610a7461554f565b60200260200101511015604051806040016040528060048152602001634c494d5560e01b81525090610ab95760405162461bcd60e51b81526004016109b79190614dd6565b50600c8181548110610acd57610acd61554f565b9060005260206000200154600c8281548110610aeb57610aeb61554f565b9060005260206000200154610b009190615565565b878281518110610b1257610b1261554f565b60200260200101511115604051806040016040528060048152602001634c494d4f60e01b81525090610b575760405162461bcd60e51b81526004016109b79190614dd6565b50610b6181615584565b9050610a2f565b505b600080610b75611cd7565b600b549193509150610b8981848688612571565b60025460085460405163110c1a4960e31b8152600481018490529195506000916001600160a01b0390911690638860d2489060240160e06040518083038186803b158015610bd657600080fd5b505afa158015610bea573d6000803e3d6000fd5b505050506040513d601f19601f82011682018060405250810190610c0e91906155aa565b905080604001511580610c275750610c2760133361293b565b6040518060400160405280600381526020016223292160e91b81525090610c615760405162461bcd60e51b81526004016109b79190614dd6565b506000808b516001600160401b03811115610c7e57610c7e614eb4565b604051908082528060200260200182016040528015610ca7578160200160208202803683370190505b5090506000610cb7868e8a61295d565b909350905060005b8951811015610da557610d25878281518110610cdd57610cdd61554f565b60200260200101518f8381518110610cf757610cf761554f565b6020026020010151868c86600c8781548110610d1557610d1561554f565b9060005260206000200154612b4c565b838281518110610d3757610d3761554f565b602002602001018181525050610d953330858481518110610d5a57610d5a61554f565b60200260200101518d8581518110610d7457610d7461554f565b60200260200101516001600160a01b0316612b9c909392919063ffffffff16565b610d9e81615584565b9050610cbf565b5050610db1818b612c07565b98506000610dc0868b8a61295d565b5090508b811015604051806040016040528060048152602001634c494d5560e01b81525090610e025760405162461bcd60e51b81526004016109b79190614dd6565b506040805180820190915260028152612b2d60f11b602082015281610e3a5760405162461bcd60e51b81526004016109b79190614dd6565b50600854604051630248cd6d60e31b8152600481018790526000916001600160a01b0316906312466b6890602401604080518083038186803b158015610e7f57600080fd5b505afa158015610e93573d6000803e3d6000fd5b505050506040513d601f19601f82011682018060405250810190610eb7919061564f565b80513360009081526020819052604090205491925090610ed79084615685565b1115604051806040016040528060048152602001634c494d4f60e01b81525090610f145760405162461bcd60e51b81526004016109b79190614dd6565b506020810151610f248a84615685565b1115604051806040016040528060048152602001634c494d4f60e01b81525090610f615760405162461bcd60e51b81526004016109b79190614dd6565b5088610f7757610f72600083612f0e565b610f81565b610f813383612f0e565b60005b600954811015611049578b8181518110610fa057610fa061554f565b6020026020010151848281518110610fba57610fba61554f565b6020026020010151111561103957611039338d8381518110610fde57610fde61554f565b6020026020010151868481518110610ff857610ff861554f565b602002602001015161100a91906154f8565b6009848154811061101d5761101d61554f565b6000918252602090912001546001600160a01b03169190612f66565b61104281615584565b9050610f84565b5060a08501516001600160a01b031615611180578460a001516001600160a01b031663e521826f6040518163ffffffff1660e01b8152600401600060405180830381600087803b15801561109c57600080fd5b505af19250505080156110ad575060015b611180576110b961569d565b806308c379a0141561111657506110ce6156b9565b806110d95750611118565b7f15cdeddb22bdd09b20096a7331e944fed9e31228f6f906decf45288b8e4e4a78816040516111089190614dd6565b60405180910390a150611180565b505b7f15cdeddb22bdd09b20096a7331e944fed9e31228f6f906decf45288b8e4e4a78604051611177906020808252601e908201527f63616c6c6261636b206661696c656420776974686f757420726561736f6e0000604082015260600190565b60405180910390a15b336001600160a01b03167f8a0e0d2e597a2c18e7266d384fcd37c696485c4f2d04f8f90cebe3cf9453a15b60098d856040516111be93929190615780565b60405180910390a2505050505050505050506107956001600755565b6060600980548060200260200160405190810160405280929190818152602001828054801561123257602002820191906000526020600020905b81546001600160a01b03168152600190910190602001808311611214575b5050505050905090565b6060600d80548060200260200160405190810160405280929190818152602001828054801561123257602002820191906000526020600020905b815481526020019060010190808311611276575050505050905090565b606061129d612517565b6002805460408051808201909152918252612b2d60f11b602083015290816112d85760405162461bcd60e51b81526004016109b79190614dd6565b506000600980548060200260200160405190810160405280929190818152602001828054801561133157602002820191906000526020600020905b81546001600160a01b03168152600190910190602001808311611313575b5050505050905060006009805490506001600160401b0381111561135757611357614eb4565b604051908082528060200260200182016040528015611380578160200160208202803683370190505b509050600061138d611cd7565b50905061139e600b54828686612571565b60025433600090815260208190526040902054909450808911156113c0578098505b60005b845181101561141d576113f08a8483815181106113e2576113e261554f565b602002602001015188612f96565b8482815181106114025761140261554f565b602090810291909101015261141681615584565b90506113c3565b50611429308489613049565b95506000805b855181101561159b5789818151811061144a5761144a61554f565b60200260200101518882815181106114645761146461554f565b60200260200101511015604051806040016040528060048152602001634c494d5560e01b815250906114a95760405162461bcd60e51b81526004016109b79190614dd6565b508781815181106114bc576114bc61554f565b6020026020010151600c82815481106114d7576114d761554f565b90600052602060002001546114ec9190615685565b611510848684815181106115025761150261554f565b60200260200101518a612f96565b1061151a57600191505b87818151811061152c5761152c61554f565b602002602001015160001461158b5761158b8c8983815181106115515761155161554f565b602002602001015188848151811061156b5761156b61554f565b60200260200101516001600160a01b0316612f669092919063ffffffff16565b61159481615584565b905061142f565b506115a5876137a7565b80156115ba576115b5338b613ab2565b6115c4565b6115c43383613ab2565b600b5460085460405163110c1a4960e31b8152600481018390526000916001600160a01b031690638860d2489060240160e06040518083038186803b15801561160c57600080fd5b505afa158015611620573d6000803e3d6000fd5b505050506040513d601f19601f8201168201806040525081019061164491906155aa565b60c08101519091506001600160a01b03161561177d578060c001516001600160a01b031663b4559f3e6040518163ffffffff1660e01b8152600401600060405180830381600087803b15801561169957600080fd5b505af19250505080156116aa575060015b61177d576116b661569d565b806308c379a0141561171357506116cb6156b9565b806116d65750611715565b7f463d36dc456538707e7943e90baea3c0f5b709889785a57b9736e5ae56b4b130816040516117059190614dd6565b60405180910390a15061177d565b505b7f463d36dc456538707e7943e90baea3c0f5b709889785a57b9736e5ae56b4b130604051611774906020808252601e908201527f63616c6c6261636b206661696c656420776974686f757420726561736f6e0000604082015260600190565b60405180910390a15b336001600160a01b03167f91e54360cfab588303c49bbbb2869608cb9a9fd5ff9b4431f86988f91290421d60098b8f6040516117bb93929190615780565b60405180910390a250505050505050506117d56001600755565b949350505050565b6117e5613b14565b60005b81811015611835576118228383838181106118055761180561554f565b905060200201602081019061181a9190614e97565b601390613d67565b508061182d81615584565b9150506117e8565b505050565b600480546105b4906154a7565b600080600d838154811061185d5761185d61554f565b90600052602060002001549050600860009054906101000a90046001600160a01b03166001600160a01b0316637ac46fbb6040518163ffffffff1660e01b815260040160606040518083038186803b1580156118b857600080fd5b505afa1580156118cc573d6000803e3d6000fd5b505050506040513d601f19601f820116820180604052508101906118f091906157b6565b60200151604051639c94d85360e01b8152600481018390526001600160a01b0390911690639c94d8539060240160206040518083038186803b15801561193557600080fd5b505afa158015611949573d6000803e3d6000fd5b505050506040513d601f19601f820116820180604052508101906107959190615827565b60606107cd6013613d7c565b3360009081526020819052604081208054839190839061199a9084906154f8565b90915550506001600160a01b0383166000818152602081815260409182902080548601905590518481523391600080516020615d7e8339815191529101610690565b6060600c8054806020026020016040519081016040528092919081815260200182805480156112325760200282019190600052602060002090815481526020019060010190808311611276575050505050905090565b604080518082019091526002815261545360f01b602082015242851015611a6c5760405162461bcd60e51b81526004016109b79190614dd6565b506000611a7761079c565b6001600160a01b038981166000818152600660209081526040918290205482517f6e71edae12b1b97f4d1f60370fef10105fa2faae0126114a169c64845d6126c98184015280840194909452938c166060840152608083018b905260a083019390935260c08083018a90528151808403909101815260e08301909152805192019190912061190160f01b6101008301526101028201929092526101228101919091526101420160408051808303601f1901815282825280516020918201206001600160a01b038c166000908152600683528381208054600190810190915581865292850180855282905260ff89169385019390935260608401879052608084018690529350909160a0016020604051602081039080840390855afa158015611ba3573d6000803e3d6000fd5b5050604051601f1901519150506001600160a01b03811615801590611bd95750886001600160a01b0316816001600160a01b0316145b6040518060400160405280600381526020016223292160e91b81525090611c135760405162461bcd60e51b81526004016109b79190614dd6565b506001600160a01b0390811660009081526001602090815260408083208b8516808552908352928190208a905551898152919350918a16917f8c5be1e5ebec7d5bd14f71427d1e84f3dd0314c0f7b2291e5b200ac8c7c3b925910160405180910390a350505050505050565b611c87613b14565b60005b8181101561183557611cc4838383818110611ca757611ca761554f565b9050602002016020810190611cbc9190614e97565b601390613d89565b5080611ccf81615584565b915050611c8a565b6060806000600860009054906101000a90046001600160a01b03166001600160a01b0316637ac46fbb6040518163ffffffff1660e01b815260040160606040518083038186803b158015611d2a57600080fd5b505afa158015611d3e573d6000803e3d6000fd5b505050506040513d601f19601f82011682018060405250810190611d6291906157b6565b60200151905060006009805480602002602001604051908101604052809291908181526020018280548015611dc057602002820191906000526020600020905b81546001600160a01b03168152600190910190602001808311611da2575b5050505050905080516001600160401b03811115611de057611de0614eb4565b604051908082528060200260200182016040528015611e09578160200160208202803683370190505b50935080516001600160401b03811115611e2557611e25614eb4565b604051908082528060200260200182016040528015611e4e578160200160208202803683370190505b50925060005b600d54811015612112576000836001600160a01b0316639c94d853600d8481548110611e8257611e8261554f565b90600052602060002001546040518263ffffffff1660e01b8152600401611eab91815260200190565b60206040518083038186803b158015611ec357600080fd5b505afa158015611ed7573d6000803e3d6000fd5b505050506040513d601f19601f82011682018060405250810190611efb9190615827565b9050600080826001600160a01b031663e5328e066040518163ffffffff1660e01b815260040160006040518083038186803b158015611f3957600080fd5b505afa158015611f4d573d6000803e3d6000fd5b505050506040513d6000823e601f3d908101601f19168201604052611f7591908101906158aa565b915091506000836001600160a01b031663697222336040518163ffffffff1660e01b815260040160006040518083038186803b158015611fb457600080fd5b505afa158015611fc8573d6000803e3d6000fd5b505050506040513d6000823e601f3d908101601f19168201604052611ff0919081019061590d565b90506000805b8751811080156120065750825182105b156120fb5787818151811061201d5761201d61554f565b60200260200101516001600160a01b03168383815181106120405761204061554f565b60200260200101516001600160a01b031614156120eb578482815181106120695761206961554f565b60200260200101518b82815181106120835761208361554f565b602002602001018181516120979190615685565b90525083518490839081106120ae576120ae61554f565b60200260200101518a82815181106120c8576120c861554f565b602002602001018181516120dc9190615685565b9052506120e882615584565b91505b6120f481615584565b9050611ff6565b5050505050508061210b90615584565b9050611e54565b5050509091565b600061212482613d9e565b806105a15750506001600160e01b0319161590565b60007f8b73c3c69bb8fe3d512ecc4cf759cc79239f7b179b0ffacaa9a75d522b39400f600360405161216b91906159a6565b6040805191829003822060208301939093528101919091527fc89efdaa54c0f20c7adf612882df0950f5a951637e0307cdcb4c672f298b8bc660608201524660808201523060a082015260c00160405160208183030381529060405280519060200120905090565b6000336001600160a01b0316637ac46fbb6040518163ffffffff1660e01b815260040160606040518083038186803b15801561220e57600080fd5b505afa158015612222573d6000803e3d6000fd5b505050506040513d601f19601f8201168201806040525081019061224691906157b6565b60200151905060005b825181101561248057600083828151811061226c5761226c61554f565b60200260200101519050306001600160a01b0316836001600160a01b0316636352211e836040518263ffffffff1660e01b81526004016122ae91815260200190565b60206040518083038186803b1580156122c657600080fd5b505afa1580156122da573d6000803e3d6000fd5b505050506040513d601f19601f820116820180604052508101906122fe9190615827565b6001600160a01b0316146040518060400160405280600381526020016223292160e91b815250906123425760405162461bcd60e51b81526004016109b79190614dd6565b50600e6000828152602001908152602001600020546000146040518060400160405280600381526020016204455560ec1b815250906123945760405162461bcd60e51b81526004016109b79190614dd6565b5060405163095ea7b360e01b81526001600160a01b0386811660048301526024820183905284169063095ea7b390604401600060405180830381600087803b1580156123df57600080fd5b505af11580156123f3573d6000803e3d6000fd5b5050604051634dcbc73960e01b8152600481018490526001600160a01b0386169250634dcbc7399150602401600060405180830381600087803b15801561243957600080fd5b505af115801561244d573d6000803e3d6000fd5b5050505081600161245e9190615685565b6000918252600e6020526040909120558061247881615584565b91505061224f565b50815161249490600d906020850190614c2c565b5061249f8585613dd4565b5050505050565b606060006124b383614260565b905083816040516020016124c8929190615a42565b60405160208183030381529060405291505092915050565b81516124f3906003906020850190614c77565b508051612507906004906020840190614c77565b50612510612139565b6005555050565b6002600754141561256a5760405162461bcd60e51b815260206004820152601f60248201527f5265656e7472616e637947756172643a207265656e7472616e742063616c6c0060448201526064016109b7565b6002600755565b600854600f546001600160a01b0390911690600090612599906001600160401b0316426154f8565b90506000826001600160a01b031663d34cc3806040518163ffffffff1660e01b8152600401604080518083038186803b1580156125d557600080fd5b505afa1580156125e9573d6000803e3d6000fd5b505050506040513d601f19601f8201168201806040525081019061260d9190615a71565b805190915082101561262157505050612935565b600f805467ffffffffffffffff1916426001600160401b03161790558461264a57505050612935565b6000600190506000600c80548060200260200160405190810160405280929190818152602001828054801561269e57602002820191906000526020600020905b81548152602001906001019080831161268a575b5050505050905060005b8151811015612703578181815181106126c3576126c361554f565b60200260200101518982815181106126dd576126dd61554f565b6020026020010151106126f35760009250612703565b6126fc81615584565b90506126a8565b508115612714575050505050612935565b505060405163110c1a4960e31b8152600481018890526000906001600160a01b03851690638860d2489060240160e06040518083038186803b15801561275957600080fd5b505afa15801561276d573d6000803e3d6000fd5b505050506040513d601f19601f8201168201806040525081019061279191906155aa565b60405163dbb1c35f60e01b8152600481018a90529091506000906001600160a01b0386169063dbb1c35f9060240160206040518083038186803b1580156127d757600080fd5b505afa1580156127eb573d6000803e3d6000fd5b505050506040513d601f19601f8201168201806040525081019061280f9190615aad565b6000015190506000856001600160a01b0316637ac46fbb6040518163ffffffff1660e01b815260040160606040518083038186803b15801561285057600080fd5b505afa158015612864573d6000803e3d6000fd5b505050506040513d601f19601f8201168201806040525081019061288891906157b6565b600001516001600160a01b031663803db96d6040518163ffffffff1660e01b815260040160206040518083038186803b1580156128c457600080fd5b505afa1580156128d8573d6000803e3d6000fd5b505050506040513d601f19601f820116820180604052508101906128fc9190615827565b9050612914836060015183856000015184898d6142fc565b61292e888a856080015186602001518b89602001516143ea565b5050505050505b50505050565b6001600160a01b03811660009081526001830160205260408120541515610795565b600080826129c95760005b85518110156129bf57828582815181106129845761298461554f565b602002602001015111156129af578481815181106129a4576129a461554f565b602002602001015192505b6129b881615584565b9050612968565b5060009050612b44565b600085519050600080600c805480602002602001604051908101604052809291908181526020018280548015612a1e57602002820191906000526020600020905b815481526020019060010190808311612a0a575b5050505050905060005b83811015612adb57818181518110612a4257612a4261554f565b6020026020010151898281518110612a5c57612a5c61554f565b60200260200101511015612a6f57612acb565b6000612aae898381518110612a8657612a8661554f565b6020026020010151898c8581518110612aa157612aa161554f565b6020026020010151612f96565b905086811080612abc575083155b15612ac957600193508096505b505b612ad481615584565b9050612a28565b5081935083612b405760005b8851811015612b3e5785888281518110612b0357612b0361554f565b60200260200101511115612b2e57878181518110612b2357612b2361554f565b602002602001015195505b612b3781615584565b9050612ae7565b505b5050505b935093915050565b6000831580612b59575082155b15612b65575084612b92565b81871015612b7557506000612b92565b6000612b82888787612f96565b905086811115612b8f5750855b90505b9695505050505050565b6040516001600160a01b03808516602483015283166044820152606481018290526129359085906323b872dd60e01b906084015b60408051601f198184030181529190526020810180516001600160e01b03166001600160e01b03199093169290921790915261453e565b600b546040805180820190915260048152631253925560e21b6020820152606091612c455760405162461bcd60e51b81526004016109b79190614dd6565b5060085460408051637ac46fbb60e01b815290516000926001600160a01b031691637ac46fbb916004808301926060929190829003018186803b158015612c8b57600080fd5b505afa158015612c9f573d6000803e3d6000fd5b505050506040513d601f19601f82011682018060405250810190612cc391906157b6565b90506000600d600081548110612cdb57612cdb61554f565b906000526020600020015490506000826020015190506000816001600160a01b0316639c94d853846040518263ffffffff1660e01b8152600401612d2191815260200190565b60206040518083038186803b158015612d3957600080fd5b505afa158015612d4d573d6000803e3d6000fd5b505050506040513d601f19601f82011682018060405250810190612d719190615827565b905060005b600954811015612e01576000888281518110612d9457612d9461554f565b60200260200101511115612def57612def82898381518110612db857612db861554f565b602002602001015160098481548110612dd357612dd361554f565b6000918252602090912001546001600160a01b03169190614613565b80612df981615584565b915050612d76565b506040516313d1af2d60e11b81526001600160a01b038216906327a35e5a90612e359030906009908c908c90600401615ad5565b600060405180830381600087803b158015612e4f57600080fd5b505af1158015612e63573d6000803e3d6000fd5b505050506040513d6000823e601f3d908101601f19168201604052612e8b9190810190615b1f565b945060005b600954811015612f03576000888281518110612eae57612eae61554f565b60200260200101511115612ef157612ef182600060098481548110612ed557612ed561554f565b6000918252602090912001546001600160a01b031691906146cf565b80612efb81615584565b915050612e90565b505050505092915050565b8060026000828254612f209190615685565b90915550506001600160a01b03821660008181526020818152604080832080548601905551848152600080516020615d7e83398151915291015b60405180910390a35050565b6040516001600160a01b03831660248201526044810182905261183590849063a9059cbb60e01b90606401612bd0565b600080806000198587098587029250828110838203039150508060001415612fd05760008411612fc557600080fd5b508290049050610795565b808411612fdc57600080fd5b6000848688096000868103871696879004966002600389028118808a02820302808a02820302808a02820302808a02820302808a02820302808a02909103029181900381900460010186841190950394909402919094039290920491909117919091029150509392505050565b600b546040805180820190915260048152631253925560e21b60208201526060916130875760405162461bcd60e51b81526004016109b79190614dd6565b50600d5482516040805180820190915260048152631253959360e21b602082015291146130c75760405162461bcd60e51b81526004016109b79190614dd6565b5060085460408051637ac46fbb60e01b815290516000926001600160a01b031691637ac46fbb916004808301926060929190829003018186803b15801561310d57600080fd5b505afa158015613121573d6000803e3d6000fd5b505050506040513d601f19601f8201168201806040525081019061314591906157b6565b60200151905083516001600160401b0381111561316457613164614eb4565b60405190808252806020026020018201604052801561318d578160200160208202803683370190505b509150600060098054806020026020016040519081016040528092919081815260200182805480156131e857602002820191906000526020600020905b81546001600160a01b031681526001909101906020018083116131ca575b505050505090506000600c80548060200260200160405190810160405280929190818152602001828054801561323d57602002820191906000526020600020905b815481526020019060010190808311613229575b50505050509050600086516001600160401b0381111561325f5761325f614eb4565b604051908082528060200260200182016040528015613288578160200160208202803683370190505b50905060005b83518110156132e0578781815181106132a9576132a961554f565b60200260200101518282815181106132c3576132c361554f565b6020908102919091010152806132d881615584565b91505061328e565b5060005b600d54811015613542576000600d82815481106133035761330361554f565b6000918252602082200154604051639c94d85360e01b8152600481018290529092506001600160a01b03881690639c94d8539060240160206040518083038186803b15801561335157600080fd5b505afa158015613365573d6000803e3d6000fd5b505050506040513d601f19601f820116820180604052508101906133899190615827565b90506000816001600160a01b0316632062d7543089888e89815181106133b1576133b161554f565b60200260200101516040518563ffffffff1660e01b81526004016133d89493929190615b53565b600060405180830381600087803b1580156133f257600080fd5b505af1158015613406573d6000803e3d6000fd5b505050506040513d6000823e601f3d908101601f1916820160405261342e9190810190615b1f565b9050600160005b885181101561351b578781815181106134505761345061554f565b602002602001015183828151811061346a5761346a61554f565b602002602001015161347c9190615685565b87828151811061348e5761348e61554f565b602002602001015111156134e857600091508281815181106134b2576134b261554f565b60200260200101518782815181106134cc576134cc61554f565b602002602001018181516134e091906154f8565b905250613509565b60008782815181106134fc576134fc61554f565b6020026020010181815250505b8061351381615584565b915050613435565b50801561352b5750505050613542565b50505050808061353a90615584565b9150506132e4565b506000846001600160a01b0316639c94d853600d6000815481106135685761356861554f565b90600052602060002001546040518263ffffffff1660e01b815260040161359191815260200190565b60206040518083038186803b1580156135a957600080fd5b505afa1580156135bd573d6000803e3d6000fd5b505050506040513d601f19601f820116820180604052508101906135e19190615827565b905060005b845181101561379a5760008582815181106136035761360361554f565b60209081029190910101516040516370a0823160e01b81523060048201526001600160a01b03909116906370a082319060240160206040518083038186803b15801561364e57600080fd5b505afa158015613662573d6000803e3d6000fd5b505050506040513d601f19601f820116820180604052508101906136869190615b77565b9050808a838151811061369b5761369b61554f565b60200260200101511015613751578982815181106136bb576136bb61554f565b60200260200101518883815181106136d5576136d561554f565b6020026020010181815250506137118b8b84815181106136f7576136f761554f565b602002602001015188858151811061156b5761156b61554f565b61374c838b84815181106137275761372761554f565b60200260200101518361373a91906154f8565b88858151811061156b5761156b61554f565b613787565b808883815181106137645761376461554f565b6020026020010181815250506137878b8288858151811061156b5761156b61554f565b508061379281615584565b9150506135e6565b5050505050509392505050565b600081516001600160401b038111156137c2576137c2614eb4565b6040519080825280602002602001820160405280156137eb578160200160208202803683370190505b5060085460408051637ac46fbb60e01b8152905192935042926000926001600160a01b031691637ac46fbb916004808301926060929190829003018186803b15801561383657600080fd5b505afa15801561384a573d6000803e3d6000fd5b505050506040513d601f19601f8201168201806040525081019061386e91906157b6565b51600f549091506001600160401b03838116600160401b90920416146138bd57600f80546fffffffffffffffff00000000000000001916600160401b6001600160401b03851602179055613918565b60005b845181101561391657601081815481106138dc576138dc61554f565b90600052602060002001548482815181106138f9576138f961554f565b60209081029190910101528061390e81615584565b9150506138c0565b505b60005b845181101561249f578481815181106139365761393661554f565b60200260200101518482815181106139505761395061554f565b602002602001018181516139649190615685565b905250600980546001600160a01b0384169163fce33f01918490811061398c5761398c61554f565b60009182526020909120015460405160e083901b6001600160e01b03191681526001600160a01b03909116600482015260240160206040518083038186803b1580156139d757600080fd5b505afa1580156139eb573d6000803e3d6000fd5b505050506040513d601f19601f82011682018060405250810190613a0f9190615b77565b848281518110613a2157613a2161554f565b60200260200101511115604051806040016040528060048152602001634c494d4f60e01b81525090613a665760405162461bcd60e51b81526004016109b79190614dd6565b50838181518110613a7957613a7961554f565b602002602001015160108281548110613a9457613a9461554f565b60009182526020909120015580613aaa81615584565b91505061391b565b6001600160a01b03821660009081526020819052604081208054839290613ada9084906154f8565b90915550506002805482900390556040518181526000906001600160a01b03841690600080516020615d7e83398151915290602001612f5a565b600b5460085460408051637ac46fbb60e01b815290516000926001600160a01b031691637ac46fbb916004808301926060929190829003018186803b158015613b5c57600080fd5b505afa158015613b70573d6000803e3d6000fd5b505050506040513d601f19601f82011682018060405250810190613b9491906157b6565b8051604051630935e01b60e21b81523360048201529192506001600160a01b0316906324d7806c9060240160206040518083038186803b158015613bd757600080fd5b505afa158015613beb573d6000803e3d6000fd5b505050506040513d601f19601f82011682018060405250810190613c0f9190615b90565b80613c9e5750602081015160405163020604bf60e21b81526004810184905233916001600160a01b03169063081812fc9060240160206040518083038186803b158015613c5b57600080fd5b505afa158015613c6f573d6000803e3d6000fd5b505050506040513d601f19601f82011682018060405250810190613c939190615827565b6001600160a01b0316145b80613d2d575060208101516040516331a9108f60e11b81526004810184905233916001600160a01b031690636352211e9060240160206040518083038186803b158015613cea57600080fd5b505afa158015613cfe573d6000803e3d6000fd5b505050506040513d601f19601f82011682018060405250810190613d229190615827565b6001600160a01b0316145b6040518060400160405280600381526020016223292160e91b815250906118355760405162461bcd60e51b81526004016109b79190614dd6565b6000610795836001600160a01b0384166147f3565b6060600061079583614842565b6000610795836001600160a01b03841661489e565b60006301ffc9a760e01b6001600160e01b0319831614806105a157506001600160e01b0319821663305a640b60e21b1492915050565b600b546040805180820190915260048152631253925560e21b60208201529015613e115760405162461bcd60e51b81526004016109b79190614dd6565b50613e1b82614991565b60405180604001604052806004815260200163494e564160e01b81525090613e565760405162461bcd60e51b81526004016109b79190614dd6565b506040805180820190915260028152612b2d60f11b602082015281613e8e5760405162461bcd60e51b81526004016109b79190614dd6565b506000336001600160a01b0316637ac46fbb6040518163ffffffff1660e01b815260040160606040518083038186803b158015613eca57600080fd5b505afa158015613ede573d6000803e3d6000fd5b505050506040513d601f19601f82011682018060405250810190613f0291906157b6565b51835190915015801590613f875750806001600160a01b03166378546fa26040518163ffffffff1660e01b815260040160206040518083038186803b158015613f4a57600080fd5b505afa158015613f5e573d6000803e3d6000fd5b505050506040513d601f19601f82011682018060405250810190613f829190615b77565b835111155b6040518060400160405280600381526020016224a72b60e91b81525090613fc15760405162461bcd60e51b81526004016109b79190614dd6565b5060005b83518110156140c557816001600160a01b03166363e85d2d858381518110613fef57613fef61554f565b60209081029190910101516040516001600160e01b031960e084901b1681526001600160a01b0390911660048201526003602482015260440160206040518083038186803b15801561404057600080fd5b505afa158015614054573d6000803e3d6000fd5b505050506040513d601f19601f820116820180604052508101906140789190615b90565b6040518060400160405280600381526020016223292160e91b815250906140b25760405162461bcd60e51b81526004016109b79190614dd6565b50806140bd81615584565b915050613fc5565b50600880546001600160a01b0319163317905582516140eb906009906020860190614cea565b50600b82905560095460005b8181101561421b5761410a816001615685565b600a60008784815181106141205761412061554f565b60200260200101516001600160a01b03166001600160a01b031681526020019081526020016000208190555060008582815181106141605761416061554f565b60200260200101519050600c6002826001600160a01b031663313ce5676040518163ffffffff1660e01b815260040160206040518083038186803b1580156141a757600080fd5b505afa1580156141bb573d6000803e3d6000fd5b505050506040513d601f19601f820116820180604052508101906141df9190615bab565b6141e99190615bc8565b6141f490600a615cdc565b815460018101835560009283526020909220909101555061421481615584565b90506140f7565b50604051339032907f0f043e55a1ce0d7ce25125ccbc2800b540d83e21abf7250f0156c2091a28b221906142529088908890615ceb565b60405180910390a350505050565b6060600061426d83614a34565b60010190506000816001600160401b0381111561428c5761428c614eb4565b6040519080825280601f01601f1916602001820160405280156142b6576020820181803683370190505b5090508181016020015b600019016f181899199a1a9b1b9c1cb0b131b232b360811b600a86061a8153600a85049450846142ef576142f4565b6142c0565b509392505050565b851561437b5760006143296143118489615565565b83614324633b9aca006301e13380615565565b612f96565b90506143358582612f0e565b60408051888152602081018390526001600160a01b038716917ff128e63f8c1601609ed0ca497b3c0aef18a94da6579e4230bae6eca9c5de3c0b910160405180910390a2505b84156143e25760006143906143118488615565565b905061439c8482612f0e565b60408051878152602081018390526001600160a01b038616917f8e65e88a246d15f0b922b1ccbe4df44ab60cdea0aead3dfe00faebea0d8817b0910160405180910390a2505b505050505050565b8315806143f5575085155b156143ff576143e2565b6015546040516312f6244560e21b81526000916001600160a01b031690634bd891149061443490899087908790600401615d0d565b60206040518083038186803b15801561444c57600080fd5b505afa158015614460573d6000803e3d6000fd5b505050506040513d601f19601f820116820180604052508101906144849190615b77565b9050600061449b82670de0b6b3a76400008a612f96565b6011549091508082116144b0575050506143e2565b600081156144e9576144cc8a6144c684866154f8565b84612f96565b90506144dd8189633b9aca00612f96565b90506144e98782612f0e565b601183905560408051898152602081018390526001600160a01b038916917fd935d6b9af5232b71790c40552a0436920efa18da75df1474e95aef999d8f5f8910160405180910390a250505050505050505050565b6000614593826040518060400160405280602081526020017f5361666545524332303a206c6f772d6c6576656c2063616c6c206661696c6564815250856001600160a01b0316614b0c9092919063ffffffff16565b90508051600014806145b45750808060200190518101906145b49190615b90565b6118355760405162461bcd60e51b815260206004820152602a60248201527f5361666545524332303a204552433230206f7065726174696f6e20646964206e6044820152691bdd081cdd58d8d9595960b21b60648201526084016109b7565b604051636eb1769f60e11b81523060048201526001600160a01b0383811660248301526000919085169063dd62ed3e9060440160206040518083038186803b15801561465e57600080fd5b505afa158015614672573d6000803e3d6000fd5b505050506040513d601f19601f820116820180604052508101906146969190615b77565b90506129358463095ea7b360e01b856146af8686615685565b6040516001600160a01b0390921660248301526044820152606401612bd0565b8015806147585750604051636eb1769f60e11b81523060048201526001600160a01b03838116602483015284169063dd62ed3e9060440160206040518083038186803b15801561471e57600080fd5b505afa158015614732573d6000803e3d6000fd5b505050506040513d601f19601f820116820180604052508101906147569190615b77565b155b6147c35760405162461bcd60e51b815260206004820152603660248201527f5361666545524332303a20617070726f76652066726f6d206e6f6e2d7a65726f60448201527520746f206e6f6e2d7a65726f20616c6c6f77616e636560501b60648201526084016109b7565b6040516001600160a01b03831660248201526044810182905261183590849063095ea7b360e01b90606401612bd0565b600081815260018301602052604081205461483a575081546001818101845560008481526020808220909301849055845484825282860190935260409020919091556105a1565b5060006105a1565b60608160000180548060200260200160405190810160405280929190818152602001828054801561489257602002820191906000526020600020905b81548152602001906001019080831161487e575b50505050509050919050565b600081815260018301602052604081205480156149875760006148c26001836154f8565b85549091506000906148d6906001906154f8565b905081811461493b5760008660000182815481106148f6576148f661554f565b90600052602060002001549050808760000184815481106149195761491961554f565b6000918252602080832090910192909255918252600188019052604090208390555b855486908061494c5761494c615d4b565b6001900381819060005260206000200160009055905585600101600086815260200190815260200160002060009055600193505050506105a1565b60009150506105a1565b60006002825110156149a557506001919050565b60005b600183516149b691906154f8565b811015614a2b57826149c9826001615685565b815181106149d9576149d961554f565b60200260200101516001600160a01b03168382815181106149fc576149fc61554f565b60200260200101516001600160a01b031610614a1b5750600092915050565b614a2481615584565b90506149a8565b50600192915050565b60008072184f03e93ff9f4daa797ed6e38ed64bf6a1f0160401b8310614a735772184f03e93ff9f4daa797ed6e38ed64bf6a1f0160401b830492506040015b6d04ee2d6d415b85acef81000000008310614a9f576d04ee2d6d415b85acef8100000000830492506020015b662386f26fc100008310614abd57662386f26fc10000830492506010015b6305f5e1008310614ad5576305f5e100830492506008015b6127108310614ae957612710830492506004015b60648310614afb576064830492506002015b600a83106105a15760010192915050565b60606117d5848460008585600080866001600160a01b03168587604051614b339190615d61565b60006040518083038185875af1925050503d8060008114614b70576040519150601f19603f3d011682016040523d82523d6000602084013e614b75565b606091505b5091509150614b8687838387614b91565b979650505050505050565b60608315614bfd578251614bf6576001600160a01b0385163b614bf65760405162461bcd60e51b815260206004820152601d60248201527f416464726573733a2063616c6c20746f206e6f6e2d636f6e747261637400000060448201526064016109b7565b50816117d5565b6117d58383815115614c125781518083602001fd5b8060405162461bcd60e51b81526004016109b79190614dd6565b828054828255906000526020600020908101928215614c67579160200282015b82811115614c67578251825591602001919060010190614c4c565b50614c73929150614d3f565b5090565b828054614c83906154a7565b90600052602060002090601f016020900481019282614ca55760008555614c67565b82601f10614cbe57805160ff1916838001178555614c67565b82800160010185558215614c675791820182811115614c67578251825591602001919060010190614c4c565b828054828255906000526020600020908101928215614c67579160200282015b82811115614c6757825182546001600160a01b0319166001600160a01b03909116178255602090920191600190910190614d0a565b5b80821115614c735760008155600101614d40565b600060208284031215614d6657600080fd5b81356001600160e01b03198116811461079557600080fd5b60005b83811015614d99578181015183820152602001614d81565b838111156129355750506000910152565b60008151808452614dc2816020860160208601614d7e565b601f01601f19169290920160200192915050565b6020815260006107956020830184614daa565b6001600160a01b0381168114614dfe57600080fd5b50565b8035614e0c81614de9565b919050565b60008060408385031215614e2457600080fd5b8235614e2f81614de9565b946020939093013593505050565b600060208284031215614e4f57600080fd5b5035919050565b600080600060608486031215614e6b57600080fd5b8335614e7681614de9565b92506020840135614e8681614de9565b929592945050506040919091013590565b600060208284031215614ea957600080fd5b813561079581614de9565b634e487b7160e01b600052604160045260246000fd5b602081018181106001600160401b0382111715614ee957614ee9614eb4565b60405250565b604081018181106001600160401b0382111715614ee957614ee9614eb4565b601f8201601f191681016001600160401b0381118282101715614f3357614f33614eb4565b6040525050565b60006001600160401b03821115614f5357614f53614eb4565b5060051b60200190565b600082601f830112614f6e57600080fd5b81356020614f7b82614f3a565b604051614f888282614f0e565b83815260059390931b8501820192828101915086841115614fa857600080fd5b8286015b84811015614fc35780358352918301918301614fac565b509695505050505050565b60008060008060008060c08789031215614fe757600080fd5b863595506020808801356001600160401b038082111561500657600080fd5b818a0191508a601f83011261501a57600080fd5b813561502581614f3a565b6040516150328282614f0e565b82815260059290921b840185019185810191508d83111561505257600080fd5b938501935b8285101561507957843561506a81614de9565b82529385019390850190615057565b995061508a91505060408b01614e01565b965060608a01359250808311156150a057600080fd5b50506150ae89828a01614f5d565b9350506150bd60808801614e01565b91506150cb60a08801614e01565b90509295509295509295565b600082601f8301126150e857600080fd5b81356001600160401b0381111561510157615101614eb4565b604051615118601f8301601f191660200182614f0e565b81815284602083860101111561512d57600080fd5b816020850160208301376000918101602001919091529392505050565b60008060006060848603121561515f57600080fd5b83356001600160401b038082111561517657600080fd5b61518287838801614f5d565b945060208601359350604086013591508082111561519f57600080fd5b506151ac868287016150d7565b9150509250925092565b600081518084526020808501945080840160005b838110156151e6578151875295820195908201906001016151ca565b509495945050505050565b60208152600061079560208301846151b6565b600081518084526020808501945080840160005b838110156151e65781516001600160a01b031687529582019590820190600101615218565b6020815260006107956020830184615204565b6000806000806080858703121561526657600080fd5b843561527181614de9565b9350602085810135935060408601356001600160401b038082111561529557600080fd5b6152a189838a01614f5d565b945060608801359150808211156152b757600080fd5b818801915088601f8301126152cb57600080fd5b81356152d681614f3a565b6040516152e38282614f0e565b82815260059290921b840185019185810191508b83111561530357600080fd5b8585015b8381101561533b5780358581111561531f5760008081fd5b61532d8e89838a01016150d7565b845250918601918601615307565b50989b979a50959850505050505050565b6000806020838503121561535f57600080fd5b82356001600160401b038082111561537657600080fd5b818501915085601f83011261538a57600080fd5b81358181111561539957600080fd5b8660208260051b85010111156153ae57600080fd5b60209290920196919550909350505050565b60ff81168114614dfe57600080fd5b600080600080600080600060e0888a0312156153ea57600080fd5b87356153f581614de9565b9650602088013561540581614de9565b955060408801359450606088013593506080880135615423816153c0565b9699959850939692959460a0840135945060c09093013592915050565b6000806040838503121561545357600080fd5b823561545e81614de9565b9150602083013561546e81614de9565b809150509250929050565b60408152600061548c60408301856151b6565b828103602084015261549e81856151b6565b95945050505050565b600181811c908216806154bb57607f821691505b602082108114156154dc57634e487b7160e01b600052602260045260246000fd5b50919050565b634e487b7160e01b600052601160045260246000fd5b60008282101561550a5761550a6154e2565b500390565b80518015158114614e0c57600080fd5b60006020828403121561553157600080fd5b60405161553d81614eca565b6155468361550f565b81529392505050565b634e487b7160e01b600052603260045260246000fd5b600081600019048311821515161561557f5761557f6154e2565b500290565b6000600019821415615598576155986154e2565b5060010190565b8051614e0c81614de9565b600060e082840312156155bc57600080fd5b60405160e081018181106001600160401b03821117156155de576155de614eb4565b60405282516155ec81614de9565b815260208301516155fc81614de9565b602082015261560d6040840161550f565b6040820152606083015160608201526080830151608082015261563260a0840161559f565b60a082015261564360c0840161559f565b60c08201529392505050565b60006040828403121561566157600080fd5b60405161566d81614eef565b82518152602083015160208201528091505092915050565b60008219821115615698576156986154e2565b500190565b600060033d11156156b65760046000803e5060005160e01c5b90565b600060443d10156156c75790565b6040516003193d81016004833e81513d6001600160401b0381602484011181841117156156f657505050505090565b828501915081518181111561570e5750505050505090565b843d87010160208285010111156157285750505050505090565b61573760208286010187614f0e565b509095945050505050565b6000815480845260208085019450836000528060002060005b838110156151e65781546001600160a01b03168752958201956001918201910161575b565b6060815260006157936060830186615742565b82810360208401526157a581866151b6565b915050826040830152949350505050565b6000606082840312156157c857600080fd5b604051606081018181106001600160401b03821117156157ea576157ea614eb4565b60405282516157f881614de9565b8152602083015161580881614de9565b6020820152604083015161581b81614de9565b60408201529392505050565b60006020828403121561583957600080fd5b815161079581614de9565b600082601f83011261585557600080fd5b8151602061586282614f3a565b60405161586f8282614f0e565b83815260059390931b850182019282810191508684111561588f57600080fd5b8286015b84811015614fc35780518352918301918301615893565b600080604083850312156158bd57600080fd5b82516001600160401b03808211156158d457600080fd5b6158e086838701615844565b935060208501519150808211156158f657600080fd5b5061590385828601615844565b9150509250929050565b6000602080838503121561592057600080fd5b82516001600160401b0381111561593657600080fd5b8301601f8101851361594757600080fd5b805161595281614f3a565b60405161595f8282614f0e565b82815260059290921b830184019184810191508783111561597f57600080fd5b928401925b82841015614b8657835161599781614de9565b82529284019290840190615984565b600080835481600182811c9150808316806159c257607f831692505b60208084108214156159e257634e487b7160e01b86526022600452602486fd5b8180156159f65760018114615a0757615a34565b60ff19861689528489019650615a34565b60008a81526020902060005b86811015615a2c5781548b820152908501908301615a13565b505084890196505b509498975050505050505050565b60008351615a54818460208801614d7e565b835190830190615a68818360208801614d7e565b01949350505050565b600060408284031215615a8357600080fd5b604051615a8f81614eef565b825181526020830151615aa181614de9565b60208201529392505050565b600060208284031215615abf57600080fd5b604051615acb81614eca565b9151825250919050565b6001600160a01b0385168152608060208201819052600090615af990830186615742565b8281036040840152615b0b81866151b6565b90508281036060840152614b868185614daa565b600060208284031215615b3157600080fd5b81516001600160401b03811115615b4757600080fd5b6117d584828501615844565b6001600160a01b0385168152608060208201819052600090615af990830186615204565b600060208284031215615b8957600080fd5b5051919050565b600060208284031215615ba257600080fd5b6107958261550f565b600060208284031215615bbd57600080fd5b8151610795816153c0565b600060ff831680615be957634e487b7160e01b600052601260045260246000fd5b8060ff84160491505092915050565b600181815b80851115615c33578160001904821115615c1957615c196154e2565b80851615615c2657918102915b93841c9390800290615bfd565b509250929050565b600082615c4a575060016105a1565b81615c57575060006105a1565b8160018114615c6d5760028114615c7757615c93565b60019150506105a1565b60ff841115615c8857615c886154e2565b50506001821b6105a1565b5060208310610133831016604e8410600b8410161715615cb6575081810a6105a1565b615cc08383615bf8565b8060001904821115615cd457615cd46154e2565b029392505050565b600061079560ff841683615c3b565b604081526000615cfe6040830185615204565b90508260208301529392505050565b606081526000615d2060608301866151b6565b8281036020840152615d328186615204565b91505060018060a01b0383166040830152949350505050565b634e487b7160e01b600052603160045260246000fd5b60008251615d73818460208701614d7e565b919091019291505056feddf252ad1be2c89b69c2b068fc378daa952ba7f163c4a11628f55a4df523b3efa264697066735822122013b229c84bc7e85ef20743792fa690a5ecdb858a087bc504c226edf70bdb16e164736f6c63430008090033",
    "linkReferences": {}
  },
  "methodIdentifiers": {
    "DOMAIN_SEPARATOR()": "3644e515",
    "PERMIT_TYPEHASH()": "30adf81f",
    "addDepositorsToAllowlist(address[])": "91b7ab47",
    "allowance(address,address)": "dd62ed3e",
    "approve(address,uint256)": "095ea7b3",
    "balanceOf(address)": "70a08231",
    "decimals()": "313ce567",
    "deposit(uint256[],uint256,bytes)": "54a3f474",
    "depositorsAllowlist()": "a09eb0e7",
    "hasSubvault(uint256)": "9d9fd0d9",
    "helper()": "63b0e66a",
    "initialize(uint256,address[],address,uint256[],address,address)": "49b0460c",
    "initialized()": "158ef93e",
    "isVaultToken(address)": "338c4ccb",
    "lastFeeCharge()": "3da7463f",
    "lpPriceHighWaterMarkD18()": "24004a66",
    "name()": "06fdde03",
    "nft()": "47ccca02",
    "nonces(address)": "7ecebe00",
    "permit(address,address,uint256,uint256,uint8,bytes32,bytes32)": "d505accf",
    "pool()": "16f0115b",
    "pullExistentials()": "d2c219b0",
    "removeDepositorsFromAllowlist(address[])": "e273d23e",
    "subvaultAt(uint256)": "9bd0911b",
    "subvaultNfts()": "79183973",
    "subvaultOneBasedIndex(uint256)": "9ddc875f",
    "supportsInterface(bytes4)": "01ffc9a7",
    "symbol()": "95d89b41",
    "totalSupply()": "18160ddd",
    "totalWithdrawnAmounts(uint256)": "151bb8d1",
    "totalWithdrawnAmountsTimestamp()": "407a31c0",
    "transfer(address,uint256)": "a9059cbb",
    "transferFrom(address,address,uint256)": "23b872dd",
    "tvl()": "e5328e06",
    "vaultGovernance()": "fe255a5e",
    "vaultTokens()": "69722233",
    "withdraw(address,uint256,uint256[],bytes[])": "82491fac"
  },
  "id": 456
}