{
  "abi": [
    {
      "inputs": [
        {
          "internalType": "contract IPancakeNonfungiblePositionManager",
          "name": "positionManager_",
          "type": "address"
        }
      ],
      "stateMutability": "nonpayable",
      "type": "constructor"
    },
    {
      "anonymous": false,
      "inputs": [
        {
          "indexed": false,
          "internalType": "uint256",
          "name": "tokenId",
          "type": "uint256"
        }
      ],
      "name": "PositionBurned",
      "type": "event"
    },
    {
      "anonymous": false,
      "inputs": [
        {
          "indexed": false,
          "internalType": "uint256",
          "name": "tokenId",
          "type": "uint256"
        }
      ],
      "name": "PositionMinted",
      "type": "event"
    },
    {
      "anonymous": false,
      "inputs": [
        {
          "indexed": true,
          "internalType": "address",
          "name": "origin",
          "type": "address"
        },
        {
          "indexed": true,
          "internalType": "address",
          "name": "sender",
          "type": "address"
        }
      ],
      "name": "Rebalance",
      "type": "event"
    },
    {
      "anonymous": false,
      "inputs": [
        {
          "indexed": true,
          "internalType": "bytes32",
          "name": "role",
          "type": "bytes32"
        },
        {
          "indexed": true,
          "internalType": "bytes32",
          "name": "previousAdminRole",
          "type": "bytes32"
        },
        {
          "indexed": true,
          "internalType": "bytes32",
          "name": "newAdminRole",
          "type": "bytes32"
        }
      ],
      "name": "RoleAdminChanged",
      "type": "event"
    },
    {
      "anonymous": false,
      "inputs": [
        {
          "indexed": true,
          "internalType": "bytes32",
          "name": "role",
          "type": "bytes32"
        },
        {
          "indexed": true,
          "internalType": "address",
          "name": "account",
          "type": "address"
        },
        {
          "indexed": true,
          "internalType": "address",
          "name": "sender",
          "type": "address"
        }
      ],
      "name": "RoleGranted",
      "type": "event"
    },
    {
      "anonymous": false,
      "inputs": [
        {
          "indexed": true,
          "internalType": "bytes32",
          "name": "role",
          "type": "bytes32"
        },
        {
          "indexed": true,
          "internalType": "address",
          "name": "account",
          "type": "address"
        },
        {
          "indexed": true,
          "internalType": "address",
          "name": "sender",
          "type": "address"
        }
      ],
      "name": "RoleRevoked",
      "type": "event"
    },
    {
      "anonymous": false,
      "inputs": [
        {
          "indexed": false,
          "internalType": "uint256",
          "name": "amountIn",
          "type": "uint256"
        },
        {
          "indexed": false,
          "internalType": "uint256",
          "name": "amountOut",
          "type": "uint256"
        },
        {
          "indexed": false,
          "internalType": "uint256",
          "name": "tokenInIndex",
          "type": "uint256"
        }
      ],
      "name": "TokensSwapped",
      "type": "event"
    },
    {
      "anonymous": false,
      "inputs": [
        {
          "indexed": true,
          "internalType": "address",
          "name": "origin",
          "type": "address"
        },
        {
          "indexed": true,
          "internalType": "address",
          "name": "sender",
          "type": "address"
        },
        {
          "components": [
            {
              "internalType": "int24",
              "name": "priceImpactD6",
              "type": "int24"
            },
            {
              "internalType": "int24",
              "name": "defaultIntervalWidth",
              "type": "int24"
            },
            {
              "internalType": "int24",
              "name": "maxPositionLengthInTicks",
              "type": "int24"
            },
            {
              "internalType": "int24",
              "name": "maxDeviationForVaultPool",
              "type": "int24"
            },
            {
              "internalType": "uint32",
              "name": "timespanForAverageTick",
              "type": "uint32"
            },
            {
              "internalType": "uint256",
              "name": "neighborhoodFactorD",
              "type": "uint256"
            },
            {
              "internalType": "uint256",
              "name": "extensionFactorD",
              "type": "uint256"
            },
            {
              "internalType": "uint256",
              "name": "swapSlippageD",
              "type": "uint256"
            },
            {
              "internalType": "uint256",
              "name": "swappingAmountsCoefficientD",
              "type": "uint256"
            },
            {
              "internalType": "uint256[]",
              "name": "minSwapAmounts",
              "type": "uint256[]"
            }
          ],
          "indexed": false,
          "internalType": "struct PancakeSwapPulseStrategyV2.MutableParams",
          "name": "mutableParams",
          "type": "tuple"
        }
      ],
      "name": "UpdateMutableParams",
      "type": "event"
    },
    {
      "inputs": [],
      "name": "ADMIN_DELEGATE_ROLE",
      "outputs": [
        {
          "internalType": "bytes32",
          "name": "",
          "type": "bytes32"
        }
      ],
      "stateMutability": "view",
      "type": "function"
    },
    {
      "inputs": [],
      "name": "ADMIN_ROLE",
      "outputs": [
        {
          "internalType": "bytes32",
          "name": "",
          "type": "bytes32"
        }
      ],
      "stateMutability": "view",
      "type": "function"
    },
    {
      "inputs": [],
      "name": "D6",
      "outputs": [
        {
          "internalType": "uint256",
          "name": "",
          "type": "uint256"
        }
      ],
      "stateMutability": "view",
      "type": "function"
    },
    {
      "inputs": [],
      "name": "D9",
      "outputs": [
        {
          "internalType": "uint256",
          "name": "",
          "type": "uint256"
        }
      ],
      "stateMutability": "view",
      "type": "function"
    },
    {
      "inputs": [],
      "name": "DEFAULT_ADMIN_ROLE",
      "outputs": [
        {
          "internalType": "bytes32",
          "name": "",
          "type": "bytes32"
        }
      ],
      "stateMutability": "view",
      "type": "function"
    },
    {
      "inputs": [],
      "name": "OPERATOR",
      "outputs": [
        {
          "internalType": "bytes32",
          "name": "",
          "type": "bytes32"
        }
      ],
      "stateMutability": "view",
      "type": "function"
    },
    {
      "inputs": [],
      "name": "Q96",
      "outputs": [
        {
          "internalType": "uint256",
          "name": "",
          "type": "uint256"
        }
      ],
      "stateMutability": "view",
      "type": "function"
    },
    {
      "inputs": [
        {
          "components": [
            {
              "internalType": "contract IERC20Vault",
              "name": "erc20Vault",
              "type": "address"
            },
            {
              "internalType": "contract IPancakeSwapVault",
              "name": "pancakeSwapVault",
              "type": "address"
            },
            {
              "internalType": "address",
              "name": "router",
              "type": "address"
            },
            {
              "internalType": "address[]",
              "name": "tokens",
              "type": "address[]"
            }
          ],
          "internalType": "struct PancakeSwapPulseStrategyV2.ImmutableParams",
          "name": "immutableParams_",
          "type": "tuple"
        },
        {
          "components": [
            {
              "internalType": "int24",
              "name": "priceImpactD6",
              "type": "int24"
            },
            {
              "internalType": "int24",
              "name": "defaultIntervalWidth",
              "type": "int24"
            },
            {
              "internalType": "int24",
              "name": "maxPositionLengthInTicks",
              "type": "int24"
            },
            {
              "internalType": "int24",
              "name": "maxDeviationForVaultPool",
              "type": "int24"
            },
            {
              "internalType": "uint32",
              "name": "timespanForAverageTick",
              "type": "uint32"
            },
            {
              "internalType": "uint256",
              "name": "neighborhoodFactorD",
              "type": "uint256"
            },
            {
              "internalType": "uint256",
              "name": "extensionFactorD",
              "type": "uint256"
            },
            {
              "internalType": "uint256",
              "name": "swapSlippageD",
              "type": "uint256"
            },
            {
              "internalType": "uint256",
              "name": "swappingAmountsCoefficientD",
              "type": "uint256"
            },
            {
              "internalType": "uint256[]",
              "name": "minSwapAmounts",
              "type": "uint256[]"
            }
          ],
          "internalType": "struct PancakeSwapPulseStrategyV2.MutableParams",
          "name": "mutableParams_",
          "type": "tuple"
        },
        {
          "internalType": "uint256",
          "name": "priceX96",
          "type": "uint256"
        },
        {
          "internalType": "uint256",
          "name": "targetRatioOfToken1X96",
          "type": "uint256"
        }
      ],
      "name": "calculateAmountsForSwap",
      "outputs": [
        {
          "internalType": "uint256",
          "name": "tokenInIndex",
          "type": "uint256"
        },
        {
          "internalType": "uint256",
          "name": "amountIn",
          "type": "uint256"
        }
      ],
      "stateMutability": "view",
      "type": "function"
    },
    {
      "inputs": [
        {
          "components": [
            {
              "internalType": "int24",
              "name": "priceImpactD6",
              "type": "int24"
            },
            {
              "internalType": "int24",
              "name": "defaultIntervalWidth",
              "type": "int24"
            },
            {
              "internalType": "int24",
              "name": "maxPositionLengthInTicks",
              "type": "int24"
            },
            {
              "internalType": "int24",
              "name": "maxDeviationForVaultPool",
              "type": "int24"
            },
            {
              "internalType": "uint32",
              "name": "timespanForAverageTick",
              "type": "uint32"
            },
            {
              "internalType": "uint256",
              "name": "neighborhoodFactorD",
              "type": "uint256"
            },
            {
              "internalType": "uint256",
              "name": "extensionFactorD",
              "type": "uint256"
            },
            {
              "internalType": "uint256",
              "name": "swapSlippageD",
              "type": "uint256"
            },
            {
              "internalType": "uint256",
              "name": "swappingAmountsCoefficientD",
              "type": "uint256"
            },
            {
              "internalType": "uint256[]",
              "name": "minSwapAmounts",
              "type": "uint256[]"
            }
          ],
          "internalType": "struct PancakeSwapPulseStrategyV2.MutableParams",
          "name": "mutableParams_",
          "type": "tuple"
        },
        {
          "internalType": "int24",
          "name": "spotTick",
          "type": "int24"
        },
        {
          "internalType": "contract IPancakeV3Pool",
          "name": "pool",
          "type": "address"
        },
        {
          "internalType": "uint256",
          "name": "uniV3Nft",
          "type": "uint256"
        }
      ],
      "name": "calculateNewPosition",
      "outputs": [
        {
          "components": [
            {
              "internalType": "int24",
              "name": "lowerTick",
              "type": "int24"
            },
            {
              "internalType": "int24",
              "name": "upperTick",
              "type": "int24"
            }
          ],
          "internalType": "struct PancakeSwapPulseStrategyV2.Interval",
          "name": "newInterval",
          "type": "tuple"
        },
        {
          "internalType": "bool",
          "name": "neededNewInterval",
          "type": "bool"
        }
      ],
      "stateMutability": "view",
      "type": "function"
    },
    {
      "inputs": [
        {
          "components": [
            {
              "internalType": "int24",
              "name": "lowerTick",
              "type": "int24"
            },
            {
              "internalType": "int24",
              "name": "upperTick",
              "type": "int24"
            }
          ],
          "internalType": "struct PancakeSwapPulseStrategyV2.Interval",
          "name": "interval",
          "type": "tuple"
        },
        {
          "internalType": "uint160",
          "name": "sqrtSpotPriceX96",
          "type": "uint160"
        },
        {
          "internalType": "uint256",
          "name": "spotPriceX96",
          "type": "uint256"
        }
      ],
      "name": "calculateTargetRatioOfToken1",
      "outputs": [
        {
          "internalType": "uint256",
          "name": "targetRatioOfToken1X96",
          "type": "uint256"
        }
      ],
      "stateMutability": "pure",
      "type": "function"
    },
    {
      "inputs": [
        {
          "components": [
            {
              "internalType": "contract IERC20Vault",
              "name": "erc20Vault",
              "type": "address"
            },
            {
              "internalType": "contract IPancakeSwapVault",
              "name": "pancakeSwapVault",
              "type": "address"
            },
            {
              "internalType": "address",
              "name": "router",
              "type": "address"
            },
            {
              "internalType": "address[]",
              "name": "tokens",
              "type": "address[]"
            }
          ],
          "internalType": "struct PancakeSwapPulseStrategyV2.ImmutableParams",
          "name": "params",
          "type": "tuple"
        }
      ],
      "name": "checkImmutableParams",
      "outputs": [],
      "stateMutability": "view",
      "type": "function"
    },
    {
      "inputs": [
        {
          "components": [
            {
              "internalType": "int24",
              "name": "priceImpactD6",
              "type": "int24"
            },
            {
              "internalType": "int24",
              "name": "defaultIntervalWidth",
              "type": "int24"
            },
            {
              "internalType": "int24",
              "name": "maxPositionLengthInTicks",
              "type": "int24"
            },
            {
              "internalType": "int24",
              "name": "maxDeviationForVaultPool",
              "type": "int24"
            },
            {
              "internalType": "uint32",
              "name": "timespanForAverageTick",
              "type": "uint32"
            },
            {
              "internalType": "uint256",
              "name": "neighborhoodFactorD",
              "type": "uint256"
            },
            {
              "internalType": "uint256",
              "name": "extensionFactorD",
              "type": "uint256"
            },
            {
              "internalType": "uint256",
              "name": "swapSlippageD",
              "type": "uint256"
            },
            {
              "internalType": "uint256",
              "name": "swappingAmountsCoefficientD",
              "type": "uint256"
            },
            {
              "internalType": "uint256[]",
              "name": "minSwapAmounts",
              "type": "uint256[]"
            }
          ],
          "internalType": "struct PancakeSwapPulseStrategyV2.MutableParams",
          "name": "params",
          "type": "tuple"
        },
        {
          "components": [
            {
              "internalType": "contract IERC20Vault",
              "name": "erc20Vault",
              "type": "address"
            },
            {
              "internalType": "contract IPancakeSwapVault",
              "name": "pancakeSwapVault",
              "type": "address"
            },
            {
              "internalType": "address",
              "name": "router",
              "type": "address"
            },
            {
              "internalType": "address[]",
              "name": "tokens",
              "type": "address[]"
            }
          ],
          "internalType": "struct PancakeSwapPulseStrategyV2.ImmutableParams",
          "name": "immutableParams_",
          "type": "tuple"
        }
      ],
      "name": "checkMutableParams",
      "outputs": [],
      "stateMutability": "view",
      "type": "function"
    },
    {
      "inputs": [
        {
          "components": [
            {
              "internalType": "int24",
              "name": "priceImpactD6",
              "type": "int24"
            },
            {
              "internalType": "int24",
              "name": "defaultIntervalWidth",
              "type": "int24"
            },
            {
              "internalType": "int24",
              "name": "maxPositionLengthInTicks",
              "type": "int24"
            },
            {
              "internalType": "int24",
              "name": "maxDeviationForVaultPool",
              "type": "int24"
            },
            {
              "internalType": "uint32",
              "name": "timespanForAverageTick",
              "type": "uint32"
            },
            {
              "internalType": "uint256",
              "name": "neighborhoodFactorD",
              "type": "uint256"
            },
            {
              "internalType": "uint256",
              "name": "extensionFactorD",
              "type": "uint256"
            },
            {
              "internalType": "uint256",
              "name": "swapSlippageD",
              "type": "uint256"
            },
            {
              "internalType": "uint256",
              "name": "swappingAmountsCoefficientD",
              "type": "uint256"
            },
            {
              "internalType": "uint256[]",
              "name": "minSwapAmounts",
              "type": "uint256[]"
            }
          ],
          "internalType": "struct PancakeSwapPulseStrategyV2.MutableParams",
          "name": "mutableParams_",
          "type": "tuple"
        },
        {
          "internalType": "contract IPancakeV3Pool",
          "name": "vaultPool",
          "type": "address"
        }
      ],
      "name": "checkTickDeviation",
      "outputs": [],
      "stateMutability": "view",
      "type": "function"
    },
    {
      "inputs": [],
      "name": "contractName",
      "outputs": [
        {
          "internalType": "string",
          "name": "",
          "type": "string"
        }
      ],
      "stateMutability": "pure",
      "type": "function"
    },
    {
      "inputs": [],
      "name": "contractNameBytes",
      "outputs": [
        {
          "internalType": "bytes32",
          "name": "",
          "type": "bytes32"
        }
      ],
      "stateMutability": "pure",
      "type": "function"
    },
    {
      "inputs": [],
      "name": "contractVersion",
      "outputs": [
        {
          "internalType": "string",
          "name": "",
          "type": "string"
        }
      ],
      "stateMutability": "pure",
      "type": "function"
    },
    {
      "inputs": [],
      "name": "contractVersionBytes",
      "outputs": [
        {
          "internalType": "bytes32",
          "name": "",
          "type": "bytes32"
        }
      ],
      "stateMutability": "pure",
      "type": "function"
    },
    {
      "inputs": [],
      "name": "depositCallback",
      "outputs": [],
      "stateMutability": "nonpayable",
      "type": "function"
    },
    {
      "inputs": [],
      "name": "desiredAmounts",
      "outputs": [
        {
          "internalType": "uint256",
          "name": "amount0Desired",
          "type": "uint256"
        },
        {
          "internalType": "uint256",
          "name": "amount1Desired",
          "type": "uint256"
        }
      ],
      "stateMutability": "view",
      "type": "function"
    },
    {
      "inputs": [],
      "name": "forceRebalanceWidthFlag",
      "outputs": [
        {
          "internalType": "bool",
          "name": "",
          "type": "bool"
        }
      ],
      "stateMutability": "view",
      "type": "function"
    },
    {
      "inputs": [
        {
          "components": [
            {
              "internalType": "int24",
              "name": "priceImpactD6",
              "type": "int24"
            },
            {
              "internalType": "int24",
              "name": "defaultIntervalWidth",
              "type": "int24"
            },
            {
              "internalType": "int24",
              "name": "maxPositionLengthInTicks",
              "type": "int24"
            },
            {
              "internalType": "int24",
              "name": "maxDeviationForVaultPool",
              "type": "int24"
            },
            {
              "internalType": "uint32",
              "name": "timespanForAverageTick",
              "type": "uint32"
            },
            {
              "internalType": "uint256",
              "name": "neighborhoodFactorD",
              "type": "uint256"
            },
            {
              "internalType": "uint256",
              "name": "extensionFactorD",
              "type": "uint256"
            },
            {
              "internalType": "uint256",
              "name": "swapSlippageD",
              "type": "uint256"
            },
            {
              "internalType": "uint256",
              "name": "swappingAmountsCoefficientD",
              "type": "uint256"
            },
            {
              "internalType": "uint256[]",
              "name": "minSwapAmounts",
              "type": "uint256[]"
            }
          ],
          "internalType": "struct PancakeSwapPulseStrategyV2.MutableParams",
          "name": "mutableParams_",
          "type": "tuple"
        },
        {
          "internalType": "int24",
          "name": "spotTick",
          "type": "int24"
        },
        {
          "internalType": "int24",
          "name": "tickSpacing",
          "type": "int24"
        }
      ],
      "name": "formPositionWithSpotTickInCenter",
      "outputs": [
        {
          "components": [
            {
              "internalType": "int24",
              "name": "lowerTick",
              "type": "int24"
            },
            {
              "internalType": "int24",
              "name": "upperTick",
              "type": "int24"
            }
          ],
          "internalType": "struct PancakeSwapPulseStrategyV2.Interval",
          "name": "newInterval",
          "type": "tuple"
        }
      ],
      "stateMutability": "pure",
      "type": "function"
    },
    {
      "inputs": [
        {
          "internalType": "bytes32",
          "name": "role",
          "type": "bytes32"
        }
      ],
      "name": "getRoleAdmin",
      "outputs": [
        {
          "internalType": "bytes32",
          "name": "",
          "type": "bytes32"
        }
      ],
      "stateMutability": "view",
      "type": "function"
    },
    {
      "inputs": [
        {
          "internalType": "bytes32",
          "name": "role",
          "type": "bytes32"
        },
        {
          "internalType": "uint256",
          "name": "index",
          "type": "uint256"
        }
      ],
      "name": "getRoleMember",
      "outputs": [
        {
          "internalType": "address",
          "name": "",
          "type": "address"
        }
      ],
      "stateMutability": "view",
      "type": "function"
    },
    {
      "inputs": [
        {
          "internalType": "bytes32",
          "name": "role",
          "type": "bytes32"
        }
      ],
      "name": "getRoleMemberCount",
      "outputs": [
        {
          "internalType": "uint256",
          "name": "",
          "type": "uint256"
        }
      ],
      "stateMutability": "view",
      "type": "function"
    },
    {
      "inputs": [
        {
          "internalType": "bytes32",
          "name": "role",
          "type": "bytes32"
        },
        {
          "internalType": "address",
          "name": "account",
          "type": "address"
        }
      ],
      "name": "grantRole",
      "outputs": [],
      "stateMutability": "nonpayable",
      "type": "function"
    },
    {
      "inputs": [
        {
          "internalType": "bytes32",
          "name": "role",
          "type": "bytes32"
        },
        {
          "internalType": "address",
          "name": "account",
          "type": "address"
        }
      ],
      "name": "hasRole",
      "outputs": [
        {
          "internalType": "bool",
          "name": "",
          "type": "bool"
        }
      ],
      "stateMutability": "view",
      "type": "function"
    },
    {
      "inputs": [],
      "name": "immutableParams",
      "outputs": [
        {
          "internalType": "contract IERC20Vault",
          "name": "erc20Vault",
          "type": "address"
        },
        {
          "internalType": "contract IPancakeSwapVault",
          "name": "pancakeSwapVault",
          "type": "address"
        },
        {
          "internalType": "address",
          "name": "router",
          "type": "address"
        }
      ],
      "stateMutability": "view",
      "type": "function"
    },
    {
      "inputs": [
        {
          "internalType": "address",
          "name": "admin",
          "type": "address"
        }
      ],
      "name": "init",
      "outputs": [],
      "stateMutability": "nonpayable",
      "type": "function"
    },
    {
      "inputs": [
        {
          "components": [
            {
              "internalType": "contract IERC20Vault",
              "name": "erc20Vault",
              "type": "address"
            },
            {
              "internalType": "contract IPancakeSwapVault",
              "name": "pancakeSwapVault",
              "type": "address"
            },
            {
              "internalType": "address",
              "name": "router",
              "type": "address"
            },
            {
              "internalType": "address[]",
              "name": "tokens",
              "type": "address[]"
            }
          ],
          "internalType": "struct PancakeSwapPulseStrategyV2.ImmutableParams",
          "name": "immutableParams_",
          "type": "tuple"
        },
        {
          "internalType": "address",
          "name": "admin",
          "type": "address"
        }
      ],
      "name": "initialize",
      "outputs": [],
      "stateMutability": "nonpayable",
      "type": "function"
    },
    {
      "inputs": [],
      "name": "initialized",
      "outputs": [
        {
          "internalType": "bool",
          "name": "",
          "type": "bool"
        }
      ],
      "stateMutability": "view",
      "type": "function"
    },
    {
      "inputs": [
        {
          "internalType": "address",
          "name": "sender",
          "type": "address"
        }
      ],
      "name": "isAdmin",
      "outputs": [
        {
          "internalType": "bool",
          "name": "",
          "type": "bool"
        }
      ],
      "stateMutability": "view",
      "type": "function"
    },
    {
      "inputs": [
        {
          "internalType": "address",
          "name": "sender",
          "type": "address"
        }
      ],
      "name": "isOperator",
      "outputs": [
        {
          "internalType": "bool",
          "name": "",
          "type": "bool"
        }
      ],
      "stateMutability": "view",
      "type": "function"
    },
    {
      "inputs": [
        {
          "internalType": "contract IIntegrationVault",
          "name": "fromVault",
          "type": "address"
        },
        {
          "internalType": "contract IIntegrationVault",
          "name": "toVault",
          "type": "address"
        },
        {
          "internalType": "uint256[]",
          "name": "tokenAmounts",
          "type": "uint256[]"
        },
        {
          "internalType": "bytes",
          "name": "vaultOptions",
          "type": "bytes"
        }
      ],
      "name": "manualPull",
      "outputs": [],
      "stateMutability": "nonpayable",
      "type": "function"
    },
    {
      "inputs": [
        {
          "internalType": "bytes[]",
          "name": "data",
          "type": "bytes[]"
        }
      ],
      "name": "multicall",
      "outputs": [
        {
          "internalType": "bytes[]",
          "name": "results",
          "type": "bytes[]"
        }
      ],
      "stateMutability": "nonpayable",
      "type": "function"
    },
    {
      "inputs": [],
      "name": "mutableParams",
      "outputs": [
        {
          "internalType": "int24",
          "name": "priceImpactD6",
          "type": "int24"
        },
        {
          "internalType": "int24",
          "name": "defaultIntervalWidth",
          "type": "int24"
        },
        {
          "internalType": "int24",
          "name": "maxPositionLengthInTicks",
          "type": "int24"
        },
        {
          "internalType": "int24",
          "name": "maxDeviationForVaultPool",
          "type": "int24"
        },
        {
          "internalType": "uint32",
          "name": "timespanForAverageTick",
          "type": "uint32"
        },
        {
          "internalType": "uint256",
          "name": "neighborhoodFactorD",
          "type": "uint256"
        },
        {
          "internalType": "uint256",
          "name": "extensionFactorD",
          "type": "uint256"
        },
        {
          "internalType": "uint256",
          "name": "swapSlippageD",
          "type": "uint256"
        },
        {
          "internalType": "uint256",
          "name": "swappingAmountsCoefficientD",
          "type": "uint256"
        }
      ],
      "stateMutability": "view",
      "type": "function"
    },
    {
      "inputs": [],
      "name": "positionManager",
      "outputs": [
        {
          "internalType": "contract IPancakeNonfungiblePositionManager",
          "name": "",
          "type": "address"
        }
      ],
      "stateMutability": "view",
      "type": "function"
    },
    {
      "inputs": [
        {
          "internalType": "uint256",
          "name": "deadline",
          "type": "uint256"
        },
        {
          "internalType": "bytes",
          "name": "swapData",
          "type": "bytes"
        },
        {
          "internalType": "uint256",
          "name": "minAmountOutInCaseOfSwap",
          "type": "uint256"
        }
      ],
      "name": "rebalance",
      "outputs": [],
      "stateMutability": "nonpayable",
      "type": "function"
    },
    {
      "inputs": [
        {
          "internalType": "bytes32",
          "name": "role",
          "type": "bytes32"
        },
        {
          "internalType": "address",
          "name": "account",
          "type": "address"
        }
      ],
      "name": "renounceRole",
      "outputs": [],
      "stateMutability": "nonpayable",
      "type": "function"
    },
    {
      "inputs": [
        {
          "internalType": "bytes32",
          "name": "role",
          "type": "bytes32"
        },
        {
          "internalType": "address",
          "name": "account",
          "type": "address"
        }
      ],
      "name": "revokeRole",
      "outputs": [],
      "stateMutability": "nonpayable",
      "type": "function"
    },
    {
      "inputs": [
        {
          "internalType": "bool",
          "name": "newValue",
          "type": "bool"
        }
      ],
      "name": "setForceRebalanceFlag",
      "outputs": [],
      "stateMutability": "nonpayable",
      "type": "function"
    },
    {
      "inputs": [
        {
          "internalType": "bytes4",
          "name": "interfaceId",
          "type": "bytes4"
        }
      ],
      "name": "supportsInterface",
      "outputs": [
        {
          "internalType": "bool",
          "name": "",
          "type": "bool"
        }
      ],
      "stateMutability": "view",
      "type": "function"
    },
    {
      "inputs": [
        {
          "components": [
            {
              "internalType": "uint256",
              "name": "amount0Desired",
              "type": "uint256"
            },
            {
              "internalType": "uint256",
              "name": "amount1Desired",
              "type": "uint256"
            }
          ],
          "internalType": "struct PancakeSwapPulseStrategyV2.DesiredAmounts",
          "name": "params",
          "type": "tuple"
        }
      ],
      "name": "updateDesiredAmounts",
      "outputs": [],
      "stateMutability": "nonpayable",
      "type": "function"
    },
    {
      "inputs": [
        {
          "components": [
            {
              "internalType": "int24",
              "name": "priceImpactD6",
              "type": "int24"
            },
            {
              "internalType": "int24",
              "name": "defaultIntervalWidth",
              "type": "int24"
            },
            {
              "internalType": "int24",
              "name": "maxPositionLengthInTicks",
              "type": "int24"
            },
            {
              "internalType": "int24",
              "name": "maxDeviationForVaultPool",
              "type": "int24"
            },
            {
              "internalType": "uint32",
              "name": "timespanForAverageTick",
              "type": "uint32"
            },
            {
              "internalType": "uint256",
              "name": "neighborhoodFactorD",
              "type": "uint256"
            },
            {
              "internalType": "uint256",
              "name": "extensionFactorD",
              "type": "uint256"
            },
            {
              "internalType": "uint256",
              "name": "swapSlippageD",
              "type": "uint256"
            },
            {
              "internalType": "uint256",
              "name": "swappingAmountsCoefficientD",
              "type": "uint256"
            },
            {
              "internalType": "uint256[]",
              "name": "minSwapAmounts",
              "type": "uint256[]"
            }
          ],
          "internalType": "struct PancakeSwapPulseStrategyV2.MutableParams",
          "name": "mutableParams_",
          "type": "tuple"
        }
      ],
      "name": "updateMutableParams",
      "outputs": [],
      "stateMutability": "nonpayable",
      "type": "function"
    },
    {
      "inputs": [
        {
          "internalType": "address",
          "name": "newHelper",
          "type": "address"
        }
      ],
      "name": "updatePancakeVaultHelper",
      "outputs": [],
      "stateMutability": "nonpayable",
      "type": "function"
    },
    {
      "inputs": [],
      "name": "withdrawCallback",
      "outputs": [],
      "stateMutability": "nonpayable",
      "type": "function"
    }
  ],
  "bytecode": {
    "object": "0x60a06040523480156200001157600080fd5b5060405162005ec938038062005ec9833981016040819052620000349162000093565b60408051808201909152600281526120ad60f11b60208201526001600160a01b038216620000805760405162461bcd60e51b8152600401620000779190620000c5565b60405180910390fd5b506001600160a01b03166080526200011d565b600060208284031215620000a657600080fd5b81516001600160a01b0381168114620000be57600080fd5b9392505050565b600060208083528351808285015260005b81811015620000f457858101830151858201604001528201620000d6565b8181111562000107576000604083870101525b50601f01601f1916929092016040019392505050565b608051615d6d6200015c6000396000818161052401528181611aad01528181612468015281816129ce01528181612bce0152612c820152615d6d6000f3fe608060405234801561001057600080fd5b506004361061027f5760003560e01c806375b238fc1161015c578063a8470bcc116100ce578063ca15c87311610087578063ca15c87314610689578063d3277e861461069c578063d547741f146106aa578063e521826f146106bd578063f05329b2146106c5578063fe57ed61146106d857600080fd5b8063a8470bcc146105e6578063ac9650d8146105f9578063ace4d0fd14610619578063b4559f3e146102ec578063baca12191461062c578063c8014d531461063f57600080fd5b806395aa080d1161012057806395aa080d14610584578063983d2737146105a45780639bb37ba8146105b9578063a0a8e460146105cc578063a11bac74146105d4578063a217fddf146105de57600080fd5b806375b238fc146104f557806375d0c0dc1461050a578063791b98bc1461051f5780639010d07c1461055e57806391d148541461057157600080fd5b80632f2ff15d116101f557806350c9d3bb116101b957806350c9d3bb146103e1578063551530ae146104095780635f408a211461041457806360aa2705146104bc5780636d70f7ae146104cf5780636ff0b358146104e257600080fd5b80632f2ff15d1461038a57806336568abe1461039d57806340792465146103b0578063475cffef146103bb5780634e7af1ad146103ce57600080fd5b8063158ef93e11610247578063158ef93e14610314578063163cacd51461032157806319ab453c146103345780631e63f06214610347578063248a9ca31461035457806324d7806c1461037757600080fd5b806301ffc9a71461028457806306a46239146102ac5780630952ff54146102c45780630e305515146102d95780630e3e80ac146102ee575b600080fd5b610297610292366004614553565b6106f9565b60405190151581526020015b60405180910390f35b640312e302e360dc1b5b6040519081526020016102a3565b6102b6600080516020615cb183398151915281565b6102ec6102e7366004614893565b610729565b005b7f50616e63616b655377617050756c7365537472617465677956320000000000006102b6565b6002546102979060ff1681565b6102ec61032f3660046148f6565b610a9d565b6102ec610342366004614977565b610dbb565b600f546102979060ff1681565b6102b6610362366004614994565b60009081526020819052604090206001015490565b610297610385366004614977565b610ee1565b6102ec6103983660046149ad565b610f19565b6102ec6103ab3660046149ad565b610f43565b6102b6600160601b81565b6102ec6103c93660046149dd565b610fc1565b6102ec6103dc366004614977565b611560565b6103f46103ef366004614a11565b6115cc565b604080519283526020830191909152016102a3565b6102b6633b9aca0081565b600754600854600954600a54600b5461046294600281810b9563010000008304820b95600160301b8404830b95600160481b850490930b94600160601b90940463ffffffff16939192909189565b6040805160029a8b0b8152988a0b60208a015296890b968801969096529390960b606086015263ffffffff909116608085015260a084015260c083019390935260e0820192909252610100810191909152610120016102a3565b6102ec6104ca366004614a84565b61185a565b6102976104dd366004614977565b611a14565b6102ec6104f0366004614ab8565b611a2e565b6102b6600080516020615cd183398151915281565b610512611c0d565b6040516102a39190614b56565b6105467f000000000000000000000000000000000000000000000000000000000000000081565b6040516001600160a01b0390911681526020016102a3565b61054661056c366004614b69565b611c38565b61029761057f3660046149ad565b611c57565b610597610592366004614b8b565b611c80565b6040516102a39190614bee565b6102b6600080516020615cf183398151915281565b6102b66105c7366004614c0f565b611d27565b610512611e12565b6102b6620f424081565b6102b6600081565b6102ec6105f4366004614ca8565b611e25565b61060c610607366004614cc5565b611e40565b6040516102a39190614d39565b6102ec610627366004614d9b565b611f34565b6102ec61063a366004614e10565b612051565b60035460045460055461065f926001600160a01b03908116928116911683565b604080516001600160a01b03948516815292841660208401529216918101919091526060016102a3565b6102b6610697366004614994565b6120e2565b600d54600e546103f4919082565b6102ec6106b83660046149ad565b6120f9565b6102ec61211e565b6102ec6106d3366004614ed6565b61223c565b6106eb6106e6366004614f0b565b612383565b6040516102a3929190614f74565b60006001600160e01b03198216635a05180f60e01b148061071e575061071e826126b3565b92915050565b905090565b600081602001516001600160a01b03166316f0115b6040518163ffffffff1660e01b815260040160206040518083038186803b15801561076857600080fd5b505afa15801561077c573d6000803e3d6000fd5b505050506040513d601f19601f820116820180604052508101906107a09190614fa4565b6001600160a01b031663d0c93a7c6040518163ffffffff1660e01b815260040160206040518083038186803b1580156107d857600080fd5b505afa1580156107ec573d6000803e3d6000fd5b505050506040513d601f19601f820116820180604052508101906108109190614fcc565b90506000836020015160020b138015610843575061082f816002614fff565b836020015161083e91906150a2565b60020b155b6040518060400160405280600381526020016224a72b60e91b815250906108865760405162461bcd60e51b815260040161087d9190614b56565b60405180910390fd5b50610894620d89e7196150c4565b61089f906002614fff565b60020b836040015160020b1315604051806040016040528060048152602001634c494d4f60e01b815250906108e75760405162461bcd60e51b815260040161087d9190614b56565b506000836060015160020b13604051806040016040528060048152602001634c494d5560e01b8152509061092e5760405162461bcd60e51b815260040161087d9190614b56565b506000836080015163ffffffff1611604051806040016040528060028152602001612b2d60f11b815250906109765760405162461bcd60e51b815260040161087d9190614b56565b5062093a80836080015163ffffffff1610604051806040016040528060028152602001612b2d60f11b815250906109c05760405162461bcd60e51b815260040161087d9190614b56565b5082610120015151600214604051806040016040528060048152602001631253959360e21b81525090610a065760405162461bcd60e51b815260040161087d9190614b56565b50633b9aca008360e001511115604051806040016040528060048152602001634c494d4f60e01b81525090610a4e5760405162461bcd60e51b815260040161087d9190614b56565b50633b9aca008361010001511115604051806040016040528060048152602001634c494d4f60e01b81525090610a975760405162461bcd60e51b815260040161087d9190614b56565b50505050565b8342111560405180604001604052806002815260200161545360f01b81525090610ada5760405162461bcd60e51b815260040161087d9190614b56565b50610ae36126e8565b60408051608081018252600380546001600160a01b03908116835260045481166020808501919091526005549091168385015260068054855181840281018401909652808652600095606086019390929190830182828015610b6e57602002820191906000526020600020905b81546001600160a01b03168152600190910190602001808311610b50575b505050919092525050604080516101408101825260078054600281810b845263010000008204810b602080860191909152600160301b8304820b85870152600160481b830490910b6060850152600160601b90910463ffffffff16608084015260085460a084015260095460c0840152600a5460e0840152600b54610100840152600c80548551818402810184019096528086529697506000969395509193610120860193909291830182828015610c4557602002820191906000526020600020905b815481526020019060010190808311610c31575b5050505050815250509050600082602001516001600160a01b03166316f0115b6040518163ffffffff1660e01b815260040160206040518083038186803b158015610c8f57600080fd5b505afa158015610ca3573d6000803e3d6000fd5b505050506040513d601f19601f82011682018060405250810190610cc79190614fa4565b9050610cd3828261223c565b600080826001600160a01b0316633850c7bd6040518163ffffffff1660e01b815260040160e06040518083038186803b158015610d0f57600080fd5b505afa158015610d23573d6000803e3d6000fd5b505050506040513d601f19601f82011682018060405250810190610d4791906150f9565b5050505050915091506000610d5e8686848761273a565b600f805460ff191690559050610d79868683868d8d8d612d30565b610d8286613284565b604051339032907f6dcf4e69cd04d9def52d660ea37a5b366adb7701505e48e75c03d6a51a343f6490600090a350505050505050505050565b60408051808201909152600281526120ad60f11b60208201526001600160a01b038216610dfb5760405162461bcd60e51b815260040161087d9190614b56565b506002546040805180820190915260048152631253925560e21b60208201529060ff1615610e3c5760405162461bcd60e51b815260040161087d9190614b56565b50610e55600080516020615cf1833981519152826133db565b610e6d600080516020615cd1833981519152826133db565b610e85600080516020615cd1833981519152806133e5565b610eab600080516020615cb1833981519152600080516020615cd18339815191526133e5565b610ed1600080516020615cf1833981519152600080516020615cb18339815191526133e5565b506002805460ff19166001179055565b6000610efb600080516020615cd183398151915283611c57565b8061071e575061071e600080516020615cb183398151915283611c57565b600082815260208190526040902060010154610f3481613430565b610f3e838361343a565b505050565b6001600160a01b0381163314610fb35760405162461bcd60e51b815260206004820152602f60248201527f416363657373436f6e74726f6c3a2063616e206f6e6c792072656e6f756e636560448201526e103937b632b9903337b91039b2b63360891b606482015260840161087d565b610fbd828261345c565b5050565b6040808201518151808301909252600282526120ad60f11b60208301526001600160a01b03166110045760405162461bcd60e51b815260040161087d9190614b56565b50806060015151600214604051806040016040528060048152602001631253959360e21b815250906110495760405162461bcd60e51b815260040161087d9190614b56565b5060006001600160a01b0316816060015160008151811061106c5761106c61518b565b60200260200101516001600160a01b031614156040518060400160405280600281526020016120ad60f11b815250906110b85760405162461bcd60e51b815260040161087d9190614b56565b5060006001600160a01b031681606001516001815181106110db576110db61518b565b60200260200101516001600160a01b031614156040518060400160405280600281526020016120ad60f11b815250906111275760405162461bcd60e51b815260040161087d9190614b56565b50805160408051808201909152600281526120ad60f11b6020820152906001600160a01b031661116a5760405162461bcd60e51b815260040161087d9190614b56565b50600081600001516001600160a01b031663697222336040518163ffffffff1660e01b815260040160006040518083038186803b1580156111aa57600080fd5b505afa1580156111be573d6000803e3d6000fd5b505050506040513d6000823e601f3d908101601f191682016040526111e691908101906151ac565b90508051600214604051806040016040528060048152602001631253959360e21b815250906112285760405162461bcd60e51b815260040161087d9190614b56565b5081606001516000815181106112405761124061518b565b60200260200101516001600160a01b0316816000815181106112645761126461518b565b60200260200101516001600160a01b03161460405180604001604052806004815260200163494e564160e01b815250906112b15760405162461bcd60e51b815260040161087d9190614b56565b5081606001516001815181106112c9576112c961518b565b60200260200101516001600160a01b0316816001815181106112ed576112ed61518b565b60200260200101516001600160a01b03161460405180604001604052806004815260200163494e564160e01b8152509061133a5760405162461bcd60e51b815260040161087d9190614b56565b505060006001600160a01b031681602001516001600160a01b031614156040518060400160405280600281526020016120ad60f11b815250906113905760405162461bcd60e51b815260040161087d9190614b56565b50600081602001516001600160a01b031663697222336040518163ffffffff1660e01b815260040160006040518083038186803b1580156113d057600080fd5b505afa1580156113e4573d6000803e3d6000fd5b505050506040513d6000823e601f3d908101601f1916820160405261140c91908101906151ac565b90508051600214604051806040016040528060048152602001631253959360e21b8152509061144e5760405162461bcd60e51b815260040161087d9190614b56565b5081606001516000815181106114665761146661518b565b60200260200101516001600160a01b03168160008151811061148a5761148a61518b565b60200260200101516001600160a01b03161460405180604001604052806004815260200163494e564160e01b815250906114d75760405162461bcd60e51b815260040161087d9190614b56565b5081606001516001815181106114ef576114ef61518b565b60200260200101516001600160a01b0316816001815181106115135761151361518b565b60200260200101516001600160a01b03161460405180604001604052806004815260200163494e564160e01b81525090610f3e5760405162461bcd60e51b815260040161087d9190614b56565b61156861347e565b600480546040516345e620b360e11b81526001600160a01b0384811693820193909352911690638bcc416690602401600060405180830381600087803b1580156115b157600080fd5b505af11580156115c5573d6000803e3d6000fd5b5050505050565b600080806115de84600160601b61523a565b9050600087600001516001600160a01b031663e5328e066040518163ffffffff1660e01b815260040160006040518083038186803b15801561161f57600080fd5b505afa158015611633573d6000803e3d6000fd5b505050506040513d6000823e601f3d908101601f1916820160405261165b91908101906152ac565b50905060006116d6826001815181106116765761167661518b565b6020026020010151600160601b6116ac856000815181106116995761169961518b565b60200260200101518b600160601b613487565b856001815181106116bf576116bf61518b565b60200260200101516116d19190615305565b613487565b905060006116f3600160601b8a6000015160020b620f4240613487565b90508682111561179957600195506000611712600160601b808b613487565b905061179161173c898660008151811061172e5761172e61518b565b602002602001015184613487565b611765866001815181106117525761175261518b565b602002602001015188600160601b613487565b61176f919061523a565b600160601b6117838b86600160601b613487565b6116d190600160601b61523a565b95505061180f565b6000955061180c6117c585856001815181106117b7576117b761518b565b60200260200101518b613487565b6117ee856000815181106117db576117db61518b565b60200260200101518a600160601b613487565b6117f8919061523a565b600160601b6117838785600160601b613487565b94505b8286815181106118215761182161518b565b602002602001015185111561184d578286815181106118425761184261518b565b602002602001015194505b5050505094509492505050565b61186261347e565b60408051608081018252600380546001600160a01b039081168352600454811660208085019190915260055490911683850152600680548551818402810184019096528086526118ff958795949360608601939192908301828280156118f157602002820191906000526020600020905b81546001600160a01b031681526001909101906020018083116118d3575b505050505081525050610729565b80516007805460208085015160408601516060870151608088015163ffffffff16600160601b0263ffffffff60601b1962ffffff928316600160481b026bffffff00000000000000000019948416600160301b02949094166bffffffffffff0000000000001995841663010000000265ffffffffffff199098169390991692909217959095179290921695909517949094179390931617815560a083015160085560c083015160095560e0830151600a55610100830151600b55610120830151805184936119d292600c9291019061449e565b505060405133915032907faccfbfe1fb913357d3f38219613942ea367e6b50b076facee40e8400cf114f2890611a09908590615358565b60405180910390a350565b600061071e600080516020615cf183398151915283611c57565b611a3782610fc1565b8151600380546001600160a01b03199081166001600160a01b039384161782556020808601516004805484169186169190911790556040860151600580549093169416939093179055606084015180518593611a98926006929101906144e9565b5090505060005b6002811015611c0357611b057f000000000000000000000000000000000000000000000000000000000000000060001985606001518481518110611ae557611ae561518b565b60200260200101516001600160a01b031661353a9092919063ffffffff16565b600354600680546001600160a01b0390921691632e2f4cc2919084908110611b2f57611b2f61518b565b60009182526020918290200154600554604080516001600160a01b039283169481019490945260001990840152169063095ea7b360e01b906060016040516020818303038152906040526040518463ffffffff1660e01b8152600401611b979392919061540d565b600060405180830381600087803b158015611bb157600080fd5b505af1925050508015611be657506040513d6000823e601f3d908101601f19168201604052611be3919081019061544a565b60015b611bef57611bf1565b505b80611bfb816154b7565b915050611a9f565b50610fbd81610dbb565b60606107247f50616e63616b655377617050756c736553747261746567795632000000000000613628565b6000828152600160205260408120611c509083613694565b9392505050565b6000918252602082815260408084206001600160a01b0393909316845291905290205460ff1690565b60408051808201909152600080825260208201526000611ca083856150a2565b611caa90856154d2565b9050600283900b611cbb84866150a2565b611cc6906002614fff565b60020b1315611cdc57611cd9838261551a565b90505b60028560200151611ced9190615561565b611cf790826154d2565b600290810b83526020860151611d0d9190615561565b611d17908261551a565b60020b6020830152509392505050565b600080611d3785600001516136a0565b6001600160a01b031690506000611d5186602001516136a0565b6001600160a01b03169050846001600160a01b03168210611d7757600092505050611c50565b846001600160a01b03168111611d9557600160601b92505050611c50565b6000611dca611dad6001600160a01b0388168461523a565b600160601b6116d1896001600160a01b031686600160601b613487565b90506000611de1846001600160a01b03891661523a565b9050611e0681600160601b83611dfc868b600160601b613487565b6116d19190615305565b98975050505050505050565b6060610724640312e302e360dc1b613628565b611e2d61347e565b600f805460ff1916911515919091179055565b6060816001600160401b03811115611e5a57611e5a61457d565b604051908082528060200260200182016040528015611e8d57816020015b6060815260200190600190039081611e785790505b50905060005b82811015611f2d57611efd30858584818110611eb157611eb161518b565b9050602002810190611ec3919061559b565b8080601f016020809104026020016040519081016040528093929190818152602001838380828437600092019190915250613ab592505050565b828281518110611f0f57611f0f61518b565b60200260200101819052508080611f25906154b7565b915050611e93565b5092915050565b611f3c61347e565b80516040805180820190915260028152612b2d60f11b602082015290611f755760405162461bcd60e51b815260040161087d9190614b56565b5080516040805180820190915260048152634c494d4f60e01b602082015290633b9aca001015611fb85760405162461bcd60e51b815260040161087d9190614b56565b506000816020015111604051806040016040528060028152602001612b2d60f11b81525090611ffa5760405162461bcd60e51b815260040161087d9190614b56565b50633b9aca0081602001511115604051806040016040528060048152602001634c494d4f60e01b815250906120425760405162461bcd60e51b815260040161087d9190614b56565b508051600d5560200151600e55565b61205961347e565b604051630818b5d560e21b81526001600160a01b03851690632062d7549061208c908690600690879087906004016155e8565b600060405180830381600087803b1580156120a657600080fd5b505af11580156120ba573d6000803e3d6000fd5b505050506040513d6000823e601f3d908101601f191682016040526115c59190810190615664565b600081815260016020526040812061071e90613ada565b60008281526020819052604090206001015461211481613430565b610f3e838361345c565b60408051608081018252600380546001600160a01b039081168352600454811660208085019190915260055490911683850152600680548551818402810184019096528086526000956060860193909291908301828280156121a957602002820191906000526020600020905b81546001600160a01b0316815260019091019060200180831161218b575b505050505081525050905080602001516001600160a01b031663c27b2c2d6040518163ffffffff1660e01b8152600401600060405180830381600087803b1580156121f357600080fd5b505af1158015612207573d6000803e3d6000fd5b505050506040513d6000823e601f3d908101601f1916820160405261222f9190810190615664565b5061223981613284565b50565b6000816001600160a01b0316633850c7bd6040518163ffffffff1660e01b815260040160e06040518083038186803b15801561227757600080fd5b505afa15801561228b573d6000803e3d6000fd5b505050506040513d601f19601f820116820180604052508101906122af91906150f9565b50505050509150506000806122c8848660800151613ae4565b925050915080156040518060400160405280600581526020016412539594d560da1b8152509061230b5760405162461bcd60e51b815260040161087d9190614b56565b50600061231883856154d2565b905060008160020b12156123325761232f816150c4565b90505b856060015160020b8160020b12604051806040016040528060048152602001634c494d4f60e01b8152509061237a5760405162461bcd60e51b815260040161087d9190614b56565b50505050505050565b6040805180820190915260008082526020820152600080846001600160a01b031663d0c93a7c6040518163ffffffff1660e01b815260040160206040518083038186803b1580156123d357600080fd5b505afa1580156123e7573d6000803e3d6000fd5b505050506040513d601f19601f8201168201806040525081019061240b9190614fcc565b905083158061241c5750600f5460ff165b156124385761242c878783611c80565b600192509250506126aa565b60408051808201825260008082526020820152905163133f757160e31b8152600481018690526001600160a01b037f000000000000000000000000000000000000000000000000000000000000000016906399fbab88906024016101806040518083038186803b1580156124ab57600080fd5b505afa1580156124bf573d6000803e3d6000fd5b505050506040513d601f19601f820116820180604052508101906124e391906156c2565b50505050600291820b60208a018190529290910b80895260009750612510965094509092506154d2915050565b9050600061252c8262ffffff168b60a00151633b9aca00613487565b90506000818460000151612540919061551a565b9050600082856020015161255491906154d2565b90508a60020b8260020b1315801561257257508060020b8b60020b13155b1561258957846000975097505050505050506126aa565b60006125958c846154d2565b9050600281900b6125a6838e6154d2565b60020b13156125bc576125b9828d6154d2565b90505b60006125d68562ffffff168f60c00151633b9aca00613487565b6125e0908361551a565b90506125ec88826150a2565b60020b1515806125ff57508060020b6000145b156126275761260e888261551a565b905061261a88826150a2565b61262490826154d2565b90505b86516126349082906154d2565b60020b8a52602087015161264990829061551a565b8a6020019060020b908160020b815250508d6040015160020b8a600001518b6020015161267691906154d2565b60020b131561269d5761268a8e8e8a611c80565b60019950995050505050505050506126aa565b6001985050505050505050505b94509492505050565b60006001600160e01b03198216637965db0b60e01b148061071e57506301ffc9a760e01b6001600160e01b031983161461071e565b6126f133610ee1565b80612700575061270033611a14565b6040518060400160405280600381526020016223292160e91b815250906122395760405162461bcd60e51b815260040161087d9190614b56565b60408051808201909152600080825260208201526000856020015190506000816001600160a01b031663f4adc08b6040518163ffffffff1660e01b815260040160206040518083038186803b15801561279257600080fd5b505afa1580156127a6573d6000803e3d6000fd5b505050506040513d601f19601f820116820180604052508101906127ca91906157a3565b90506000806127db88888886612383565b915091508061286857836001600160a01b031663c27b2c2d6040518163ffffffff1660e01b8152600401600060405180830381600087803b15801561281f57600080fd5b505af1158015612833573d6000803e3d6000fd5b505050506040513d6000823e601f3d908101601f1916820160405261285b9190810190615664565b5081945050505050612d28565b82156129ca57885160608a01516040516303217f1d60e61b81526001600160801b0360048201526001600160a01b03871692632062d754929091849063c85fc7409060240160006040518083038186803b1580156128c557600080fd5b505afa1580156128d9573d6000803e3d6000fd5b505050506040513d6000823e601f3d908101601f191682016040526129019190810190615664565b6040518463ffffffff1660e01b815260040161291f939291906157bc565b600060405180830381600087803b15801561293957600080fd5b505af115801561294d573d6000803e3d6000fd5b505050506040513d6000823e601f3d908101601f191682016040526129759190810190615664565b50836001600160a01b0316633f74cc986040518163ffffffff1660e01b8152600401600060405180830381600087803b1580156129b157600080fd5b505af11580156129c5573d6000803e3d6000fd5b505050505b60007f00000000000000000000000000000000000000000000000000000000000000006001600160a01b031663883164566040518061016001604052808d60600151600081518110612a1e57612a1e61518b565b60200260200101516001600160a01b031681526020018d60600151600181518110612a4b57612a4b61518b565b60200260200101516001600160a01b031681526020018a6001600160a01b031663ddca3f436040518163ffffffff1660e01b815260040160206040518083038186803b158015612a9a57600080fd5b505afa158015612aae573d6000803e3d6000fd5b505050506040513d601f19601f82011682018060405250810190612ad2919061583c565b62ffffff168152602001866000015160020b8152602001866020015160020b8152602001600d600001548152602001600d6001015481526020016000815260200160008152602001306001600160a01b031681526020016000198152506040518263ffffffff1660e01b8152600401612b4b9190615857565b608060405180830381600087803b158015612b6557600080fd5b505af1158015612b79573d6000803e3d6000fd5b505050506040513d601f19601f82011682018060405250810190612b9d919061591b565b5050604051632142170760e11b81523060048201526001600160a01b038881166024830152604482018490529293507f0000000000000000000000000000000000000000000000000000000000000000909216916342842e0e9150606401600060405180830381600087803b158015612c1557600080fd5b505af1158015612c29573d6000803e3d6000fd5b505050507face8748d23af65e86cf543d0298345b95115752e382befe3e832eacd1508adb081604051612c5e91815260200190565b60405180910390a18315612d2057604051630852cd8d60e31b8152600481018590527f00000000000000000000000000000000000000000000000000000000000000006001600160a01b0316906342966c6890602401600060405180830381600087803b158015612cce57600080fd5b505af1158015612ce2573d6000803e3d6000fd5b505050507f65d33d8ef62a81711748bbe2a7b67aef94d1a9af04a2690d3a4dfd13d9c1d22b84604051612d1791815260200190565b60405180910390a15b509093505050505b949350505050565b6000612d4a6001600160a01b03861680600160601b613487565b9050600080612d608a8a856103ef8c8c89611d27565b915091508861012001518281518110612d7b57612d7b61518b565b6020026020010151811015612d925750505061237a565b8160011415612dad57612daa600160601b8085613487565b92505b60008a600001516001600160a01b031663e5328e066040518163ffffffff1660e01b815260040160006040518083038186803b158015612dec57600080fd5b505afa158015612e00573d6000803e3d6000fd5b505050506040513d6000823e601f3d908101601f19168201604052612e2891908101906152ac565b508b5160408d01519192506001600160a01b031690632e2f4cc290612e51600460008b8d615957565b612e5a91615981565b612e678a6004818e615957565b6040518563ffffffff1660e01b8152600401612e8694939291906159b1565b600060405180830381600087803b158015612ea057600080fd5b505af1158015612eb4573d6000803e3d6000fd5b505050506040513d6000823e601f3d908101601f19168201604052612edc919081019061544a565b5060008060008d600001516001600160a01b031663e5328e066040518163ffffffff1660e01b815260040160006040518083038186803b158015612f1f57600080fd5b505afa158015612f33573d6000803e3d6000fd5b505050506040513d6000823e601f3d908101601f19168201604052612f5b91908101906152ac565b509050838681518110612f7057612f7061518b565b6020026020010151818781518110612f8a57612f8a61518b565b6020026020010151111560405180604001604052806004815260200163494e564160e01b81525090612fcf5760405162461bcd60e51b815260040161087d9190614b56565b50838660011881518110612fe557612fe561518b565b60200260200101518187600118815181106130025761300261518b565b6020026020010151101560405180604001604052806004815260200163494e564160e01b815250906130475760405162461bcd60e51b815260040161087d9190614b56565b5080868151811061305a5761305a61518b565b60200260200101518487815181106130745761307461518b565b6020026020010151613086919061523a565b925083866001188151811061309d5761309d61518b565b60200260200101518187600118815181106130ba576130ba61518b565b60200260200101516130cc919061523a565b91505060006130e082600160601b85613487565b905087821015604051806040016040528060048152602001634c494d5560e01b815250906131215760405162461bcd60e51b815260040161087d9190614b56565b5080613145888f60e00151633b9aca0061313b919061523a565b633b9aca00613487565b1115604051806040016040528060048152602001634c494d5560e01b815250906131825760405162461bcd60e51b815260040161087d9190614b56565b508261319d868f6101000151633b9aca0061313b919061523a565b1115604051806040016040528060048152602001634c494d5560e01b815250906131da5760405162461bcd60e51b815260040161087d9190614b56565b50846131f5848f6101000151633b9aca0061313b919061523a565b1115604051806040016040528060048152602001634c494d5560e01b815250906132325760405162461bcd60e51b815260040161087d9190614b56565b5060408051848152602081018490529081018790527f984c316f55901f828cae2a57394002595129e75b4546d4a80c6c1a4787d748c29060600160405180910390a15050505050505050505050505050565b600081600001516001600160a01b031663e5328e066040518163ffffffff1660e01b815260040160006040518083038186803b1580156132c357600080fd5b505afa1580156132d7573d6000803e3d6000fd5b505050506040513d6000823e601f3d908101601f191682016040526132ff91908101906152ac565b5090506000816000815181106133175761331761518b565b60200260200101511180613345575060008160018151811061333b5761333b61518b565b6020026020010151115b15610fbd57815160208301516060840151604051630818b5d560e21b81526001600160a01b0390931692632062d7549261338592909186906004016157bc565b600060405180830381600087803b15801561339f57600080fd5b505af11580156133b3573d6000803e3d6000fd5b505050506040513d6000823e601f3d908101601f19168201604052610f3e9190810190615664565b610fbd828261343a565b600082815260208190526040808220600101805490849055905190918391839186917fbd79b86ffe0ab8e8776151514217cd7cacd52c909f66475c3af44e129f0b00ff9190a4505050565b6122398133613d42565b6134448282613d9b565b6000828152600160205260409020610f3e9082613e1f565b6134668282613e34565b6000828152600160205260409020610f3e9082613e99565b61270033610ee1565b6000808060001985870985870292508281108382030391505080600014156134c157600084116134b657600080fd5b508290049050611c50565b8084116134cd57600080fd5b6000848688096000868103871696879004966002600389028118808a02820302808a02820302808a02820302808a02820302808a02820302808a02909103029181900381900460010186841190950394909402919094039290920491909117919091029150509392505050565b604051636eb1769f60e11b81523060048201526001600160a01b0383811660248301526000919085169063dd62ed3e9060440160206040518083038186803b15801561358557600080fd5b505afa158015613599573d6000803e3d6000fd5b505050506040513d601f19601f820116820180604052508101906135bd91906157a3565b9050610a978463095ea7b360e01b856135d68686615305565b6040516001600160a01b039092166024830152604482015260640160408051601f198184030181529190526020810180516001600160e01b03166001600160e01b031990931692909217909152613eae565b604080516020808252818301909252606091602082018180368337019050509050602060005b6020811015613686578381602081106136695761366961518b565b1a61367657809150613686565b61367f816154b7565b905061364e565b508152602081019190915290565b6000611c508383613f83565b60008060008360020b126136b7578260020b6136c4565b8260020b6136c490615a02565b90506136d3620d89e7196150c4565b60020b8111156137095760405162461bcd60e51b81526020600482015260016024820152601560fa1b604482015260640161087d565b60006001821661371d57600160801b61372f565b6ffffcb933bd6fad37aa2d162d1a5940015b70ffffffffffffffffffffffffffffffffff169050600282161561376e576080613769826ffff97272373d413259a46990580e213a615a1f565b901c90505b6004821615613798576080613793826ffff2e50f5f656932ef12357cf3c7fdcc615a1f565b901c90505b60088216156137c25760806137bd826fffe5caca7e10e4e61c3624eaa0941cd0615a1f565b901c90505b60108216156137ec5760806137e7826fffcb9843d60f6159c9db58835c926644615a1f565b901c90505b6020821615613816576080613811826fff973b41fa98c081472e6896dfb254c0615a1f565b901c90505b604082161561384057608061383b826fff2ea16466c96a3843ec78b326b52861615a1f565b901c90505b608082161561386a576080613865826ffe5dee046a99a2a811c461f1969c3053615a1f565b901c90505b610100821615613895576080613890826ffcbe86c7900a88aedcffc83b479aa3a4615a1f565b901c90505b6102008216156138c05760806138bb826ff987a7253ac413176f2b074cf7815e54615a1f565b901c90505b6104008216156138eb5760806138e6826ff3392b0822b70005940c7a398e4b70f3615a1f565b901c90505b610800821615613916576080613911826fe7159475a2c29b7443b29c7fa6e889d9615a1f565b901c90505b61100082161561394157608061393c826fd097f3bdfd2022b8845ad8f792aa5825615a1f565b901c90505b61200082161561396c576080613967826fa9f746462d870fdf8a65dc1f90e061e5615a1f565b901c90505b614000821615613997576080613992826f70d869a156d2a1b890bb3df62baf32f7615a1f565b901c90505b6180008216156139c25760806139bd826f31be135f97d08fd981231505542fcfa6615a1f565b901c90505b620100008216156139ee5760806139e9826f09aa508b5b7a84e1c677de54f3e99bc9615a1f565b901c90505b62020000821615613a19576080613a14826e5d6af8dedb81196699c329225ee604615a1f565b901c90505b62040000821615613a43576080613a3e826d2216e584f5fa1ea926041bedfe98615a1f565b901c90505b62080000821615613a6b576080613a66826b048a170391f7dc42444e8fa2615a1f565b901c90505b60008460020b1315613a8657613a8381600019615a3e565b90505b613a9564010000000082615a52565b15613aa1576001613aa4565b60005b612d289060ff16602083901c615305565b6060611c508383604051806060016040528060278152602001615d1160279139613fad565b600061071e825490565b6000808063ffffffff8416613b205760405162461bcd60e51b8152602060048201526002602482015261042560f41b604482015260640161087d565b6040805160028082526060820183526000926020830190803683370190505090508481600081518110613b5557613b5561518b565b602002602001019063ffffffff16908163ffffffff1681525050600081600181518110613b8457613b8461518b565b63ffffffff9092166020928302919091019091015260405163883bdbfd60e01b81526001600160a01b0387169063883bdbfd90613bc5908490600401615a66565b60006040518083038186803b158015613bdd57600080fd5b505afa925050508015613c1257506040513d6000823e601f3d908101601f19168201604052613c0f9190810190615b14565b60015b613c2757600080600193509350935050613d3b565b600082600081518110613c3c57613c3c61518b565b602002602001015183600181518110613c5757613c5761518b565b6020026020010151039050600082600081518110613c7757613c7761518b565b602002602001015183600181518110613c9257613c9261518b565b60200260200101510390508863ffffffff1660060b8260060b81613cb857613cb861508c565b05975060008260060b128015613ceb57508863ffffffff1660060b8260060b81613ce457613ce461508c565b0760060b15155b15613cf857600019909701965b63ffffffff89166001600160a01b0302640100000000600160c01b03602083901b166001600160c01b03821681613d3157613d3161508c565b0497505050505050505b9250925092565b613d4c8282611c57565b610fbd57613d5981614025565b613d64836020614037565b604051602001613d75929190615bd5565b60408051601f198184030181529082905262461bcd60e51b825261087d91600401614b56565b613da58282611c57565b610fbd576000828152602081815260408083206001600160a01b03851684529091529020805460ff19166001179055613ddb3390565b6001600160a01b0316816001600160a01b0316837f2f8788117e7eff1d82e926ec794901d17c78024a50270940304540a733656f0d60405160405180910390a45050565b6000611c50836001600160a01b0384166141d2565b613e3e8282611c57565b15610fbd576000828152602081815260408083206001600160a01b0385168085529252808320805460ff1916905551339285917ff6391f5c32d9c69d2a47ea670b442974b53935d1edc7fd64eb21e047a839171b9190a45050565b6000611c50836001600160a01b038416614221565b6000613f03826040518060400160405280602081526020017f5361666545524332303a206c6f772d6c6576656c2063616c6c206661696c6564815250856001600160a01b03166143149092919063ffffffff16565b9050805160001480613f24575080806020019051810190613f249190615c4a565b610f3e5760405162461bcd60e51b815260206004820152602a60248201527f5361666545524332303a204552433230206f7065726174696f6e20646964206e6044820152691bdd081cdd58d8d9595960b21b606482015260840161087d565b6000826000018281548110613f9a57613f9a61518b565b9060005260206000200154905092915050565b6060600080856001600160a01b031685604051613fca9190615c67565b600060405180830381855af49150503d8060008114614005576040519150601f19603f3d011682016040523d82523d6000602084013e61400a565b606091505b509150915061401b86838387614323565b9695505050505050565b606061071e6001600160a01b03831660145b60606000614046836002615a1f565b614051906002615305565b6001600160401b038111156140685761406861457d565b6040519080825280601f01601f191660200182016040528015614092576020820181803683370190505b509050600360fc1b816000815181106140ad576140ad61518b565b60200101906001600160f81b031916908160001a905350600f60fb1b816001815181106140dc576140dc61518b565b60200101906001600160f81b031916908160001a9053506000614100846002615a1f565b61410b906001615305565b90505b6001811115614183576f181899199a1a9b1b9c1cb0b131b232b360811b85600f166010811061413f5761413f61518b565b1a60f81b8282815181106141555761415561518b565b60200101906001600160f81b031916908160001a90535060049490941c9361417c81615c83565b905061410e565b508315611c505760405162461bcd60e51b815260206004820181905260248201527f537472696e67733a20686578206c656e67746820696e73756666696369656e74604482015260640161087d565b60008181526001830160205260408120546142195750815460018181018455600084815260208082209093018490558454848252828601909352604090209190915561071e565b50600061071e565b6000818152600183016020526040812054801561430a57600061424560018361523a565b85549091506000906142599060019061523a565b90508181146142be5760008660000182815481106142795761427961518b565b906000526020600020015490508087600001848154811061429c5761429c61518b565b6000918252602080832090910192909255918252600188019052604090208390555b85548690806142cf576142cf615c9a565b60019003818190600052602060002001600090559055856001016000868152602001908152602001600020600090556001935050505061071e565b600091505061071e565b6060612d288484600085614399565b6060831561438f578251614388576001600160a01b0385163b6143885760405162461bcd60e51b815260206004820152601d60248201527f416464726573733a2063616c6c20746f206e6f6e2d636f6e7472616374000000604482015260640161087d565b5081612d28565b612d288383614474565b6060824710156143fa5760405162461bcd60e51b815260206004820152602660248201527f416464726573733a20696e73756666696369656e742062616c616e636520666f6044820152651c8818d85b1b60d21b606482015260840161087d565b600080866001600160a01b031685876040516144169190615c67565b60006040518083038185875af1925050503d8060008114614453576040519150601f19603f3d011682016040523d82523d6000602084013e614458565b606091505b509150915061446987838387614323565b979650505050505050565b8151156144845781518083602001fd5b8060405162461bcd60e51b815260040161087d9190614b56565b8280548282559060005260206000209081019282156144d9579160200282015b828111156144d95782518255916020019190600101906144be565b506144e592915061453e565b5090565b8280548282559060005260206000209081019282156144d9579160200282015b828111156144d957825182546001600160a01b0319166001600160a01b03909116178255602090920191600190910190614509565b5b808211156144e5576000815560010161453f565b60006020828403121561456557600080fd5b81356001600160e01b031981168114611c5057600080fd5b634e487b7160e01b600052604160045260246000fd5b60405161014081016001600160401b03811182821017156145b6576145b661457d565b60405290565b604051608081016001600160401b03811182821017156145b6576145b661457d565b604051601f8201601f191681016001600160401b03811182821017156146065761460661457d565b604052919050565b8060020b811461223957600080fd5b80356146288161460e565b919050565b63ffffffff8116811461223957600080fd5b80356146288161462d565b60006001600160401b038211156146635761466361457d565b5060051b60200190565b600082601f83011261467e57600080fd5b8135602061469361468e8361464a565b6145de565b82815260059290921b840181019181810190868411156146b257600080fd5b8286015b848110156146cd57803583529183019183016146b6565b509695505050505050565b600061014082840312156146eb57600080fd5b6146f3614593565b90506146fe8261461d565b815261470c6020830161461d565b602082015261471d6040830161461d565b604082015261472e6060830161461d565b606082015261473f6080830161463f565b608082015260a082013560a082015260c082013560c082015260e082013560e0820152610100808301358183015250610120808301356001600160401b0381111561478957600080fd5b6147958582860161466d565b82840152505092915050565b6001600160a01b038116811461223957600080fd5b6000608082840312156147c857600080fd5b6147d06145bc565b905081356147dd816147a1565b81526020828101356147ee816147a1565b828201526040830135614800816147a1565b604083015260608301356001600160401b0381111561481e57600080fd5b8301601f8101851361482f57600080fd5b803561483d61468e8261464a565b81815260059190911b8201830190838101908783111561485c57600080fd5b928401925b82841015614883578335614874816147a1565b82529284019290840190614861565b6060860152509295945050505050565b600080604083850312156148a657600080fd5b82356001600160401b03808211156148bd57600080fd5b6148c9868387016146d8565b935060208501359150808211156148df57600080fd5b506148ec858286016147b6565b9150509250929050565b6000806000806060858703121561490c57600080fd5b8435935060208501356001600160401b038082111561492a57600080fd5b818701915087601f83011261493e57600080fd5b81358181111561494d57600080fd5b88602082850101111561495f57600080fd5b95986020929092019750949560400135945092505050565b60006020828403121561498957600080fd5b8135611c50816147a1565b6000602082840312156149a657600080fd5b5035919050565b600080604083850312156149c057600080fd5b8235915060208301356149d2816147a1565b809150509250929050565b6000602082840312156149ef57600080fd5b81356001600160401b03811115614a0557600080fd5b612d28848285016147b6565b60008060008060808587031215614a2757600080fd5b84356001600160401b0380821115614a3e57600080fd5b614a4a888389016147b6565b95506020870135915080821115614a6057600080fd5b50614a6d878288016146d8565b949794965050505060408301359260600135919050565b600060208284031215614a9657600080fd5b81356001600160401b03811115614aac57600080fd5b612d28848285016146d8565b60008060408385031215614acb57600080fd5b82356001600160401b03811115614ae157600080fd5b614aed858286016147b6565b92505060208301356149d2816147a1565b60005b83811015614b19578181015183820152602001614b01565b83811115610a975750506000910152565b60008151808452614b42816020860160208601614afe565b601f01601f19169290920160200192915050565b602081526000611c506020830184614b2a565b60008060408385031215614b7c57600080fd5b50508035926020909101359150565b600080600060608486031215614ba057600080fd5b83356001600160401b03811115614bb657600080fd5b614bc2868287016146d8565b9350506020840135614bd38161460e565b91506040840135614be38161460e565b809150509250925092565b6040810161071e8284805160020b8252602081015160020b60208301525050565b60008060008385036080811215614c2557600080fd5b6040811215614c3357600080fd5b50604051604081018181106001600160401b0382111715614c5657614c5661457d565b6040528435614c648161460e565b81526020850135614c748161460e565b602082015292506040840135614c89816147a1565b929592945050506060919091013590565b801515811461223957600080fd5b600060208284031215614cba57600080fd5b8135611c5081614c9a565b60008060208385031215614cd857600080fd5b82356001600160401b0380821115614cef57600080fd5b818501915085601f830112614d0357600080fd5b813581811115614d1257600080fd5b8660208260051b8501011115614d2757600080fd5b60209290920196919550909350505050565b6000602080830181845280855180835260408601915060408160051b870101925083870160005b82811015614d8e57603f19888603018452614d7c858351614b2a565b94509285019290850190600101614d60565b5092979650505050505050565b600060408284031215614dad57600080fd5b604051604081018181106001600160401b0382111715614dcf57614dcf61457d565b604052823581526020928301359281019290925250919050565b60006001600160401b03821115614e0257614e0261457d565b50601f01601f191660200190565b60008060008060808587031215614e2657600080fd5b8435614e31816147a1565b93506020850135614e41816147a1565b925060408501356001600160401b0380821115614e5d57600080fd5b614e698883890161466d565b93506060870135915080821115614e7f57600080fd5b508501601f81018713614e9157600080fd5b8035614e9f61468e82614de9565b818152886020838501011115614eb457600080fd5b8160208401602083013760006020838301015280935050505092959194509250565b60008060408385031215614ee957600080fd5b82356001600160401b03811115614eff57600080fd5b614aed858286016146d8565b60008060008060808587031215614f2157600080fd5b84356001600160401b03811115614f3757600080fd5b614f43878288016146d8565b9450506020850135614f548161460e565b92506040850135614f64816147a1565b9396929550929360600135925050565b60608101614f958285805160020b8252602081015160020b60208301525050565b82151560408301529392505050565b600060208284031215614fb657600080fd5b8151611c50816147a1565b80516146288161460e565b600060208284031215614fde57600080fd5b8151611c508161460e565b634e487b7160e01b600052601160045260246000fd5b60008160020b8360020b627fffff60008213600084138383048511828216161561502b5761502b614fe9565b627fffff19600085128281168783058712161561504a5761504a614fe9565b6000871292508582058712848416161561506657615066614fe9565b8585058712818416161561507c5761507c614fe9565b5050509290910295945050505050565b634e487b7160e01b600052601260045260246000fd5b60008260020b806150b5576150b561508c565b808360020b0791505092915050565b60008160020b627fffff198114156150de576150de614fe9565b60000392915050565b805161ffff8116811461462857600080fd5b600080600080600080600060e0888a03121561511457600080fd5b875161511f816147a1565b60208901519097506151308161460e565b955061513e604089016150e7565b945061514c606089016150e7565b935061515a608089016150e7565b925060a088015161516a8161462d565b60c089015190925061517b81614c9a565b8091505092959891949750929550565b634e487b7160e01b600052603260045260246000fd5b8051614628816147a1565b600060208083850312156151bf57600080fd5b82516001600160401b038111156151d557600080fd5b8301601f810185136151e657600080fd5b80516151f461468e8261464a565b81815260059190911b8201830190838101908783111561521357600080fd5b928401925b8284101561446957835161522b816147a1565b82529284019290840190615218565b60008282101561524c5761524c614fe9565b500390565b600082601f83011261526257600080fd5b8151602061527261468e8361464a565b82815260059290921b8401810191818101908684111561529157600080fd5b8286015b848110156146cd5780518352918301918301615295565b600080604083850312156152bf57600080fd5b82516001600160401b03808211156152d657600080fd5b6152e286838701615251565b935060208501519150808211156152f857600080fd5b506148ec85828601615251565b6000821982111561531857615318614fe9565b500190565b600081518084526020808501945080840160005b8381101561534d57815187529582019590820190600101615331565b509495945050505050565b6020815261536c60208201835160020b9052565b60006020830151615382604084018260020b9052565b506040830151615397606084018260020b9052565b5060608301516153ac608084018260020b9052565b50608083015163ffffffff811660a08401525060a083015160c083015260c083015160e083015260e0830151610100818185015280850151915050610120818185015280850151915050610140808185015250612d2861016084018261531d565b6001600160a01b03841681526001600160e01b03198316602082015260606040820181905260009061544190830184614b2a565b95945050505050565b60006020828403121561545c57600080fd5b81516001600160401b0381111561547257600080fd5b8201601f8101841361548357600080fd5b805161549161468e82614de9565b8181528560208385010111156154a657600080fd5b615441826020830160208601614afe565b60006000198214156154cb576154cb614fe9565b5060010190565b60008160020b8360020b6000811281627fffff19018312811516156154f9576154f9614fe9565b81627fffff01831381161561551057615510614fe9565b5090039392505050565b60008160020b8360020b6000821282627fffff0382138115161561554057615540614fe9565b82627fffff1903821281161561555857615558614fe9565b50019392505050565b60008160020b8360020b806155785761557861508c565b627fffff1982146000198214161561559257615592614fe9565b90059392505050565b6000808335601e198436030181126155b257600080fd5b8301803591506001600160401b038211156155cc57600080fd5b6020019150368190038213156155e157600080fd5b9250929050565b60006080820160018060a01b038088168452602060808186015282885480855260a0870191508960005282600020945060005b8181101561563957855485168352600195860195928401920161561b565b5050858103604087015261564d818961531d565b935050505082810360608401526144698185614b2a565b60006020828403121561567657600080fd5b81516001600160401b0381111561568c57600080fd5b612d2884828501615251565b805162ffffff8116811461462857600080fd5b80516001600160801b038116811461462857600080fd5b6000806000806000806000806000806000806101808d8f0312156156e557600080fd5b8c516bffffffffffffffffffffffff8116811461570157600080fd5b9b5061570f60208e016151a1565b9a5061571d60408e016151a1565b995061572b60608e016151a1565b985061573960808e01615698565b975061574760a08e01614fc1565b965061575560c08e01614fc1565b955061576360e08e016156ab565b94506101008d015193506101208d015192506157826101408e016156ab565b91506157916101608e016156ab565b90509295989b509295989b509295989b565b6000602082840312156157b557600080fd5b5051919050565b6001600160a01b0384811682526080602080840182905285519184018290526000928682019290919060a0860190855b8181101561580a5785518516835294830194918301916001016157ec565b5050858103604087015261581e818861531d565b86810360609097019690965250600085529093019695505050505050565b60006020828403121561584e57600080fd5b611c5082615698565b81516001600160a01b031681526101608101602083015161588360208401826001600160a01b03169052565b50604083015161589a604084018262ffffff169052565b5060608301516158af606084018260020b9052565b5060808301516158c4608084018260020b9052565b5060a083015160a083015260c083015160c083015260e083015160e08301526101008084015181840152506101208084015161590a828501826001600160a01b03169052565b505061014092830151919092015290565b6000806000806080858703121561593157600080fd5b84519350615941602086016156ab565b6040860151606090960151949790965092505050565b6000808585111561596757600080fd5b8386111561597457600080fd5b5050820193919092039150565b6001600160e01b031981358181169160048510156159a95780818660040360031b1b83161692505b505092915050565b6001600160a01b03851681526001600160e01b0319841660208201526060604082018190528101829052818360808301376000818301608090810191909152601f909201601f191601019392505050565b6000600160ff1b821415615a1857615a18614fe9565b5060000390565b6000816000190483118215151615615a3957615a39614fe9565b500290565b600082615a4d57615a4d61508c565b500490565b600082615a6157615a6161508c565b500690565b6020808252825182820181905260009190848201906040850190845b81811015615aa457835163ffffffff1683529284019291840191600101615a82565b50909695505050505050565b600082601f830112615ac157600080fd5b81516020615ad161468e8361464a565b82815260059290921b84018101918181019086841115615af057600080fd5b8286015b848110156146cd578051615b07816147a1565b8352918301918301615af4565b60008060408385031215615b2757600080fd5b82516001600160401b0380821115615b3e57600080fd5b818501915085601f830112615b5257600080fd5b81516020615b6261468e8361464a565b82815260059290921b84018101918181019089841115615b8157600080fd5b948201945b83861015615baf5785518060060b8114615ba05760008081fd5b82529482019490820190615b86565b91880151919650909350505080821115615bc857600080fd5b506148ec85828601615ab0565b7f416363657373436f6e74726f6c3a206163636f756e7420000000000000000000815260008351615c0d816017850160208801614afe565b7001034b99036b4b9b9b4b733903937b6329607d1b6017918401918201528351615c3e816028840160208801614afe565b01602801949350505050565b600060208284031215615c5c57600080fd5b8151611c5081614c9a565b60008251615c79818460208701614afe565b9190910192915050565b600081615c9257615c92614fe9565b506000190190565b634e487b7160e01b600052603160045260246000fdfec171260023d22a25a00a2789664c9334017843b831138c8ef03cc8897e5873d7f23ec0bb4210edd5cba85afd05127efcd2fc6a781bfed49188da1081670b22d846a52cf33029de9f84853745a87af28464c80bf0346df1b32e205fc73319f622416464726573733a206c6f772d6c6576656c2064656c65676174652063616c6c206661696c6564a2646970667358221220d431e6ba1214a7b83e7a0acb1e5d7fbe6b932d0cecbc9a393348108c10db093864736f6c63430008090033",
    "linkReferences": {}
  },
  "methodIdentifiers": {
    "ADMIN_DELEGATE_ROLE()": "0952ff54",
    "ADMIN_ROLE()": "75b238fc",
    "D6()": "a11bac74",
    "D9()": "551530ae",
    "DEFAULT_ADMIN_ROLE()": "a217fddf",
    "OPERATOR()": "983d2737",
    "Q96()": "40792465",
    "calculateAmountsForSwap((address,address,address,address[]),(int24,int24,int24,int24,uint32,uint256,uint256,uint256,uint256,uint256[]),uint256,uint256)": "50c9d3bb",
    "calculateNewPosition((int24,int24,int24,int24,uint32,uint256,uint256,uint256,uint256,uint256[]),int24,address,uint256)": "fe57ed61",
    "calculateTargetRatioOfToken1((int24,int24),uint160,uint256)": "9bb37ba8",
    "checkImmutableParams((address,address,address,address[]))": "475cffef",
    "checkMutableParams((int24,int24,int24,int24,uint32,uint256,uint256,uint256,uint256,uint256[]),(address,address,address,address[]))": "0e305515",
    "checkTickDeviation((int24,int24,int24,int24,uint32,uint256,uint256,uint256,uint256,uint256[]),address)": "f05329b2",
    "contractName()": "75d0c0dc",
    "contractNameBytes()": "0e3e80ac",
    "contractVersion()": "a0a8e460",
    "contractVersionBytes()": "06a46239",
    "depositCallback()": "e521826f",
    "desiredAmounts()": "d3277e86",
    "forceRebalanceWidthFlag()": "1e63f062",
    "formPositionWithSpotTickInCenter((int24,int24,int24,int24,uint32,uint256,uint256,uint256,uint256,uint256[]),int24,int24)": "95aa080d",
    "getRoleAdmin(bytes32)": "248a9ca3",
    "getRoleMember(bytes32,uint256)": "9010d07c",
    "getRoleMemberCount(bytes32)": "ca15c873",
    "grantRole(bytes32,address)": "2f2ff15d",
    "hasRole(bytes32,address)": "91d14854",
    "immutableParams()": "c8014d53",
    "init(address)": "19ab453c",
    "initialize((address,address,address,address[]),address)": "6ff0b358",
    "initialized()": "158ef93e",
    "isAdmin(address)": "24d7806c",
    "isOperator(address)": "6d70f7ae",
    "manualPull(address,address,uint256[],bytes)": "baca1219",
    "multicall(bytes[])": "ac9650d8",
    "mutableParams()": "5f408a21",
    "positionManager()": "791b98bc",
    "rebalance(uint256,bytes,uint256)": "163cacd5",
    "renounceRole(bytes32,address)": "36568abe",
    "revokeRole(bytes32,address)": "d547741f",
    "setForceRebalanceFlag(bool)": "a8470bcc",
    "supportsInterface(bytes4)": "01ffc9a7",
    "updateDesiredAmounts((uint256,uint256))": "ace4d0fd",
    "updateMutableParams((int24,int24,int24,int24,uint32,uint256,uint256,uint256,uint256,uint256[]))": "60aa2705",
    "updatePancakeVaultHelper(address)": "4e7af1ad",
    "withdrawCallback()": "b4559f3e"
  },
  "id": 396
}