{
  "abi": [
    {
      "inputs": [
        {
          "internalType": "contract INonfungiblePositionManager",
          "name": "positionManager_",
          "type": "address"
        },
        {
          "internalType": "contract ISwapRouter",
          "name": "router_",
          "type": "address"
        }
      ],
      "stateMutability": "nonpayable",
      "type": "constructor"
    },
    {
      "anonymous": false,
      "inputs": [
        {
          "indexed": false,
          "internalType": "int256[]",
          "name": "tokenAmounts",
          "type": "int256[]"
        }
      ],
      "name": "RebalancedPools",
      "type": "event"
    },
    {
      "anonymous": false,
      "inputs": [
        {
          "indexed": true,
          "internalType": "bytes32",
          "name": "role",
          "type": "bytes32"
        },
        {
          "indexed": true,
          "internalType": "bytes32",
          "name": "previousAdminRole",
          "type": "bytes32"
        },
        {
          "indexed": true,
          "internalType": "bytes32",
          "name": "newAdminRole",
          "type": "bytes32"
        }
      ],
      "name": "RoleAdminChanged",
      "type": "event"
    },
    {
      "anonymous": false,
      "inputs": [
        {
          "indexed": true,
          "internalType": "bytes32",
          "name": "role",
          "type": "bytes32"
        },
        {
          "indexed": true,
          "internalType": "address",
          "name": "account",
          "type": "address"
        },
        {
          "indexed": true,
          "internalType": "address",
          "name": "sender",
          "type": "address"
        }
      ],
      "name": "RoleGranted",
      "type": "event"
    },
    {
      "anonymous": false,
      "inputs": [
        {
          "indexed": true,
          "internalType": "bytes32",
          "name": "role",
          "type": "bytes32"
        },
        {
          "indexed": true,
          "internalType": "address",
          "name": "account",
          "type": "address"
        },
        {
          "indexed": true,
          "internalType": "address",
          "name": "sender",
          "type": "address"
        }
      ],
      "name": "RoleRevoked",
      "type": "event"
    },
    {
      "anonymous": false,
      "inputs": [
        {
          "indexed": true,
          "internalType": "address",
          "name": "origin",
          "type": "address"
        },
        {
          "indexed": true,
          "internalType": "address",
          "name": "sender",
          "type": "address"
        },
        {
          "components": [
            {
              "internalType": "uint32",
              "name": "oracleObservationDelta",
              "type": "uint32"
            },
            {
              "internalType": "uint24",
              "name": "maxTickDeviation",
              "type": "uint24"
            },
            {
              "internalType": "uint256",
              "name": "maxSlippageD",
              "type": "uint256"
            }
          ],
          "indexed": false,
          "internalType": "struct MStrategy.OracleParams",
          "name": "params",
          "type": "tuple"
        }
      ],
      "name": "SetOracleParams",
      "type": "event"
    },
    {
      "anonymous": false,
      "inputs": [
        {
          "indexed": true,
          "internalType": "address",
          "name": "origin",
          "type": "address"
        },
        {
          "indexed": true,
          "internalType": "address",
          "name": "sender",
          "type": "address"
        },
        {
          "components": [
            {
              "internalType": "int24",
              "name": "tickMin",
              "type": "int24"
            },
            {
              "internalType": "int24",
              "name": "tickMax",
              "type": "int24"
            },
            {
              "internalType": "int24",
              "name": "minTickRebalanceThreshold",
              "type": "int24"
            },
            {
              "internalType": "int24",
              "name": "tickNeighborhood",
              "type": "int24"
            },
            {
              "internalType": "int24",
              "name": "tickIncrease",
              "type": "int24"
            },
            {
              "internalType": "uint256",
              "name": "erc20MoneyRatioD",
              "type": "uint256"
            },
            {
              "internalType": "uint256",
              "name": "minErc20MoneyRatioDeviation0D",
              "type": "uint256"
            },
            {
              "internalType": "uint256",
              "name": "minErc20MoneyRatioDeviation1D",
              "type": "uint256"
            }
          ],
          "indexed": false,
          "internalType": "struct MStrategy.RatioParams",
          "name": "params",
          "type": "tuple"
        }
      ],
      "name": "SetRatioParams",
      "type": "event"
    },
    {
      "anonymous": false,
      "inputs": [
        {
          "components": [
            {
              "internalType": "uint256",
              "name": "amountIn",
              "type": "uint256"
            },
            {
              "internalType": "address[]",
              "name": "tokens",
              "type": "address[]"
            },
            {
              "internalType": "uint8",
              "name": "tokenInIndex",
              "type": "uint8"
            },
            {
              "internalType": "uint256",
              "name": "priceX96",
              "type": "uint256"
            },
            {
              "internalType": "uint256[]",
              "name": "erc20Tvl",
              "type": "uint256[]"
            },
            {
              "internalType": "contract IUniswapV3Pool",
              "name": "pool",
              "type": "address"
            },
            {
              "internalType": "contract ISwapRouter",
              "name": "router",
              "type": "address"
            },
            {
              "internalType": "contract IIntegrationVault",
              "name": "erc20Vault",
              "type": "address"
            },
            {
              "internalType": "contract IIntegrationVault",
              "name": "moneyVault",
              "type": "address"
            }
          ],
          "indexed": false,
          "internalType": "struct MStrategy.SwapToTargetParams",
          "name": "params",
          "type": "tuple"
        }
      ],
      "name": "SwappedTokens",
      "type": "event"
    },
    {
      "inputs": [],
      "name": "ADMIN_DELEGATE_ROLE",
      "outputs": [
        {
          "internalType": "bytes32",
          "name": "",
          "type": "bytes32"
        }
      ],
      "stateMutability": "view",
      "type": "function"
    },
    {
      "inputs": [],
      "name": "ADMIN_ROLE",
      "outputs": [
        {
          "internalType": "bytes32",
          "name": "",
          "type": "bytes32"
        }
      ],
      "stateMutability": "view",
      "type": "function"
    },
    {
      "inputs": [],
      "name": "APPROVE_SELECTOR",
      "outputs": [
        {
          "internalType": "bytes4",
          "name": "",
          "type": "bytes4"
        }
      ],
      "stateMutability": "view",
      "type": "function"
    },
    {
      "inputs": [],
      "name": "DEFAULT_ADMIN_ROLE",
      "outputs": [
        {
          "internalType": "bytes32",
          "name": "",
          "type": "bytes32"
        }
      ],
      "stateMutability": "view",
      "type": "function"
    },
    {
      "inputs": [],
      "name": "DENOMINATOR",
      "outputs": [
        {
          "internalType": "uint256",
          "name": "",
          "type": "uint256"
        }
      ],
      "stateMutability": "view",
      "type": "function"
    },
    {
      "inputs": [],
      "name": "EXACT_INPUT_SINGLE_SELECTOR",
      "outputs": [
        {
          "internalType": "bytes4",
          "name": "",
          "type": "bytes4"
        }
      ],
      "stateMutability": "view",
      "type": "function"
    },
    {
      "inputs": [],
      "name": "OPERATOR",
      "outputs": [
        {
          "internalType": "bytes32",
          "name": "",
          "type": "bytes32"
        }
      ],
      "stateMutability": "view",
      "type": "function"
    },
    {
      "inputs": [],
      "name": "contractName",
      "outputs": [
        {
          "internalType": "string",
          "name": "",
          "type": "string"
        }
      ],
      "stateMutability": "pure",
      "type": "function"
    },
    {
      "inputs": [],
      "name": "contractNameBytes",
      "outputs": [
        {
          "internalType": "bytes32",
          "name": "",
          "type": "bytes32"
        }
      ],
      "stateMutability": "pure",
      "type": "function"
    },
    {
      "inputs": [],
      "name": "contractVersion",
      "outputs": [
        {
          "internalType": "string",
          "name": "",
          "type": "string"
        }
      ],
      "stateMutability": "pure",
      "type": "function"
    },
    {
      "inputs": [],
      "name": "contractVersionBytes",
      "outputs": [
        {
          "internalType": "bytes32",
          "name": "",
          "type": "bytes32"
        }
      ],
      "stateMutability": "pure",
      "type": "function"
    },
    {
      "inputs": [
        {
          "internalType": "address[]",
          "name": "tokens_",
          "type": "address[]"
        },
        {
          "internalType": "contract IERC20Vault",
          "name": "erc20Vault_",
          "type": "address"
        },
        {
          "internalType": "contract IIntegrationVault",
          "name": "moneyVault_",
          "type": "address"
        },
        {
          "internalType": "uint24",
          "name": "fee_",
          "type": "uint24"
        },
        {
          "internalType": "address",
          "name": "admin_",
          "type": "address"
        }
      ],
      "name": "createStrategy",
      "outputs": [
        {
          "internalType": "contract MStrategy",
          "name": "strategy",
          "type": "address"
        }
      ],
      "stateMutability": "nonpayable",
      "type": "function"
    },
    {
      "inputs": [],
      "name": "erc20Vault",
      "outputs": [
        {
          "internalType": "contract IERC20Vault",
          "name": "",
          "type": "address"
        }
      ],
      "stateMutability": "view",
      "type": "function"
    },
    {
      "inputs": [],
      "name": "getAverageTick",
      "outputs": [
        {
          "internalType": "int24",
          "name": "averageTick",
          "type": "int24"
        },
        {
          "internalType": "int24",
          "name": "deviation",
          "type": "int24"
        }
      ],
      "stateMutability": "view",
      "type": "function"
    },
    {
      "inputs": [
        {
          "internalType": "bytes32",
          "name": "role",
          "type": "bytes32"
        }
      ],
      "name": "getRoleAdmin",
      "outputs": [
        {
          "internalType": "bytes32",
          "name": "",
          "type": "bytes32"
        }
      ],
      "stateMutability": "view",
      "type": "function"
    },
    {
      "inputs": [
        {
          "internalType": "bytes32",
          "name": "role",
          "type": "bytes32"
        },
        {
          "internalType": "uint256",
          "name": "index",
          "type": "uint256"
        }
      ],
      "name": "getRoleMember",
      "outputs": [
        {
          "internalType": "address",
          "name": "",
          "type": "address"
        }
      ],
      "stateMutability": "view",
      "type": "function"
    },
    {
      "inputs": [
        {
          "internalType": "bytes32",
          "name": "role",
          "type": "bytes32"
        }
      ],
      "name": "getRoleMemberCount",
      "outputs": [
        {
          "internalType": "uint256",
          "name": "",
          "type": "uint256"
        }
      ],
      "stateMutability": "view",
      "type": "function"
    },
    {
      "inputs": [
        {
          "internalType": "bytes32",
          "name": "role",
          "type": "bytes32"
        },
        {
          "internalType": "address",
          "name": "account",
          "type": "address"
        }
      ],
      "name": "grantRole",
      "outputs": [],
      "stateMutability": "nonpayable",
      "type": "function"
    },
    {
      "inputs": [
        {
          "internalType": "bytes32",
          "name": "role",
          "type": "bytes32"
        },
        {
          "internalType": "address",
          "name": "account",
          "type": "address"
        }
      ],
      "name": "hasRole",
      "outputs": [
        {
          "internalType": "bool",
          "name": "",
          "type": "bool"
        }
      ],
      "stateMutability": "view",
      "type": "function"
    },
    {
      "inputs": [
        {
          "internalType": "address",
          "name": "admin",
          "type": "address"
        }
      ],
      "name": "init",
      "outputs": [],
      "stateMutability": "nonpayable",
      "type": "function"
    },
    {
      "inputs": [
        {
          "internalType": "contract INonfungiblePositionManager",
          "name": "positionManager_",
          "type": "address"
        },
        {
          "internalType": "contract ISwapRouter",
          "name": "router_",
          "type": "address"
        },
        {
          "internalType": "address[]",
          "name": "tokens_",
          "type": "address[]"
        },
        {
          "internalType": "contract IERC20Vault",
          "name": "erc20Vault_",
          "type": "address"
        },
        {
          "internalType": "contract IIntegrationVault",
          "name": "moneyVault_",
          "type": "address"
        },
        {
          "internalType": "uint24",
          "name": "fee_",
          "type": "uint24"
        },
        {
          "internalType": "address",
          "name": "admin_",
          "type": "address"
        }
      ],
      "name": "initialize",
      "outputs": [],
      "stateMutability": "nonpayable",
      "type": "function"
    },
    {
      "inputs": [],
      "name": "initialized",
      "outputs": [
        {
          "internalType": "bool",
          "name": "",
          "type": "bool"
        }
      ],
      "stateMutability": "view",
      "type": "function"
    },
    {
      "inputs": [
        {
          "internalType": "address",
          "name": "sender",
          "type": "address"
        }
      ],
      "name": "isAdmin",
      "outputs": [
        {
          "internalType": "bool",
          "name": "",
          "type": "bool"
        }
      ],
      "stateMutability": "view",
      "type": "function"
    },
    {
      "inputs": [
        {
          "internalType": "address",
          "name": "sender",
          "type": "address"
        }
      ],
      "name": "isOperator",
      "outputs": [
        {
          "internalType": "bool",
          "name": "",
          "type": "bool"
        }
      ],
      "stateMutability": "view",
      "type": "function"
    },
    {
      "inputs": [],
      "name": "lastRebalanceTick",
      "outputs": [
        {
          "internalType": "int24",
          "name": "",
          "type": "int24"
        }
      ],
      "stateMutability": "view",
      "type": "function"
    },
    {
      "inputs": [
        {
          "internalType": "contract IIntegrationVault",
          "name": "fromVault",
          "type": "address"
        },
        {
          "internalType": "contract IIntegrationVault",
          "name": "toVault",
          "type": "address"
        },
        {
          "internalType": "uint256[]",
          "name": "tokenAmounts",
          "type": "uint256[]"
        },
        {
          "internalType": "bytes",
          "name": "vaultOptions",
          "type": "bytes"
        }
      ],
      "name": "manualPull",
      "outputs": [],
      "stateMutability": "nonpayable",
      "type": "function"
    },
    {
      "inputs": [],
      "name": "moneyVault",
      "outputs": [
        {
          "internalType": "contract IIntegrationVault",
          "name": "",
          "type": "address"
        }
      ],
      "stateMutability": "view",
      "type": "function"
    },
    {
      "inputs": [
        {
          "internalType": "bytes[]",
          "name": "data",
          "type": "bytes[]"
        }
      ],
      "name": "multicall",
      "outputs": [
        {
          "internalType": "bytes[]",
          "name": "results",
          "type": "bytes[]"
        }
      ],
      "stateMutability": "nonpayable",
      "type": "function"
    },
    {
      "inputs": [],
      "name": "oracleParams",
      "outputs": [
        {
          "internalType": "uint32",
          "name": "oracleObservationDelta",
          "type": "uint32"
        },
        {
          "internalType": "uint24",
          "name": "maxTickDeviation",
          "type": "uint24"
        },
        {
          "internalType": "uint256",
          "name": "maxSlippageD",
          "type": "uint256"
        }
      ],
      "stateMutability": "view",
      "type": "function"
    },
    {
      "inputs": [],
      "name": "pool",
      "outputs": [
        {
          "internalType": "contract IUniswapV3Pool",
          "name": "",
          "type": "address"
        }
      ],
      "stateMutability": "view",
      "type": "function"
    },
    {
      "inputs": [],
      "name": "positionManager",
      "outputs": [
        {
          "internalType": "contract INonfungiblePositionManager",
          "name": "",
          "type": "address"
        }
      ],
      "stateMutability": "view",
      "type": "function"
    },
    {
      "inputs": [],
      "name": "ratioParams",
      "outputs": [
        {
          "internalType": "int24",
          "name": "tickMin",
          "type": "int24"
        },
        {
          "internalType": "int24",
          "name": "tickMax",
          "type": "int24"
        },
        {
          "internalType": "int24",
          "name": "minTickRebalanceThreshold",
          "type": "int24"
        },
        {
          "internalType": "int24",
          "name": "tickNeighborhood",
          "type": "int24"
        },
        {
          "internalType": "int24",
          "name": "tickIncrease",
          "type": "int24"
        },
        {
          "internalType": "uint256",
          "name": "erc20MoneyRatioD",
          "type": "uint256"
        },
        {
          "internalType": "uint256",
          "name": "minErc20MoneyRatioDeviation0D",
          "type": "uint256"
        },
        {
          "internalType": "uint256",
          "name": "minErc20MoneyRatioDeviation1D",
          "type": "uint256"
        }
      ],
      "stateMutability": "view",
      "type": "function"
    },
    {
      "inputs": [
        {
          "internalType": "uint256[]",
          "name": "minTokensAmount",
          "type": "uint256[]"
        },
        {
          "internalType": "bytes",
          "name": "vaultOptions",
          "type": "bytes"
        }
      ],
      "name": "rebalance",
      "outputs": [
        {
          "internalType": "int256[]",
          "name": "poolAmounts",
          "type": "int256[]"
        },
        {
          "internalType": "uint256[]",
          "name": "tokenAmounts",
          "type": "uint256[]"
        },
        {
          "internalType": "bool",
          "name": "zeroToOne",
          "type": "bool"
        }
      ],
      "stateMutability": "nonpayable",
      "type": "function"
    },
    {
      "inputs": [
        {
          "internalType": "bytes32",
          "name": "role",
          "type": "bytes32"
        },
        {
          "internalType": "address",
          "name": "account",
          "type": "address"
        }
      ],
      "name": "renounceRole",
      "outputs": [],
      "stateMutability": "nonpayable",
      "type": "function"
    },
    {
      "inputs": [
        {
          "internalType": "bytes32",
          "name": "role",
          "type": "bytes32"
        },
        {
          "internalType": "address",
          "name": "account",
          "type": "address"
        }
      ],
      "name": "revokeRole",
      "outputs": [],
      "stateMutability": "nonpayable",
      "type": "function"
    },
    {
      "inputs": [],
      "name": "router",
      "outputs": [
        {
          "internalType": "contract ISwapRouter",
          "name": "",
          "type": "address"
        }
      ],
      "stateMutability": "view",
      "type": "function"
    },
    {
      "inputs": [
        {
          "components": [
            {
              "internalType": "uint32",
              "name": "oracleObservationDelta",
              "type": "uint32"
            },
            {
              "internalType": "uint24",
              "name": "maxTickDeviation",
              "type": "uint24"
            },
            {
              "internalType": "uint256",
              "name": "maxSlippageD",
              "type": "uint256"
            }
          ],
          "internalType": "struct MStrategy.OracleParams",
          "name": "params",
          "type": "tuple"
        }
      ],
      "name": "setOracleParams",
      "outputs": [],
      "stateMutability": "nonpayable",
      "type": "function"
    },
    {
      "inputs": [
        {
          "components": [
            {
              "internalType": "int24",
              "name": "tickMin",
              "type": "int24"
            },
            {
              "internalType": "int24",
              "name": "tickMax",
              "type": "int24"
            },
            {
              "internalType": "int24",
              "name": "minTickRebalanceThreshold",
              "type": "int24"
            },
            {
              "internalType": "int24",
              "name": "tickNeighborhood",
              "type": "int24"
            },
            {
              "internalType": "int24",
              "name": "tickIncrease",
              "type": "int24"
            },
            {
              "internalType": "uint256",
              "name": "erc20MoneyRatioD",
              "type": "uint256"
            },
            {
              "internalType": "uint256",
              "name": "minErc20MoneyRatioDeviation0D",
              "type": "uint256"
            },
            {
              "internalType": "uint256",
              "name": "minErc20MoneyRatioDeviation1D",
              "type": "uint256"
            }
          ],
          "internalType": "struct MStrategy.RatioParams",
          "name": "params",
          "type": "tuple"
        }
      ],
      "name": "setRatioParams",
      "outputs": [],
      "stateMutability": "nonpayable",
      "type": "function"
    },
    {
      "inputs": [
        {
          "internalType": "bytes4",
          "name": "interfaceId",
          "type": "bytes4"
        }
      ],
      "name": "supportsInterface",
      "outputs": [
        {
          "internalType": "bool",
          "name": "",
          "type": "bool"
        }
      ],
      "stateMutability": "view",
      "type": "function"
    },
    {
      "inputs": [
        {
          "internalType": "uint256",
          "name": "",
          "type": "uint256"
        }
      ],
      "name": "tokens",
      "outputs": [
        {
          "internalType": "address",
          "name": "",
          "type": "address"
        }
      ],
      "stateMutability": "view",
      "type": "function"
    }
  ],
  "bytecode": {
    "object": "0x60806040523480156200001157600080fd5b50604051620054df380380620054df83398101604081905262000034916200043e565b60408051808201909152600281526120ad60f11b60208201526001600160a01b038316620000805760405162461bcd60e51b81526004016200007791906200047d565b60405180910390fd5b5060408051808201909152600281526120ad60f11b60208201526001600160a01b038216620000c45760405162461bcd60e51b81526004016200007791906200047d565b50600780546001600160a01b03199081166001600160a01b0385811691909117909255600880549091169183169190911790556200010e3062000116602090811b62000f4417901c565b5050620004d5565b60408051808201909152600281526120ad60f11b60208201526001600160a01b038216620001595760405162461bcd60e51b81526004016200007791906200047d565b506002546040805180820190915260048152631253925560e21b60208201529060ff16156200019d5760405162461bcd60e51b81526004016200007791906200047d565b50620001b9600080516020620054bf8339815191528262000275565b620001d46000805160206200549f8339815191528262000275565b620001ef6000805160206200549f8339815191528062000285565b6200022a7fc171260023d22a25a00a2789664c9334017843b831138c8ef03cc8897e5873d76000805160206200549f83398151915262000285565b62000265600080516020620054bf8339815191527fc171260023d22a25a00a2789664c9334017843b831138c8ef03cc8897e5873d762000285565b506002805460ff19166001179055565b620002818282620002d0565b5050565b600082815260208190526040808220600101805490849055905190918391839186917fbd79b86ffe0ab8e8776151514217cd7cacd52c909f66475c3af44e129f0b00ff9190a4505050565b620002e782826200031360201b620016cb1760201c565b60008281526001602090815260409091206200030e9183906200174f620003b3821b17901c565b505050565b6000828152602081815260408083206001600160a01b038516845290915290205460ff1662000281576000828152602081815260408083206001600160a01b03851684529091529020805460ff191660011790556200036f3390565b6001600160a01b0316816001600160a01b0316837f2f8788117e7eff1d82e926ec794901d17c78024a50270940304540a733656f0d60405160405180910390a45050565b6000620003ca836001600160a01b038416620003d3565b90505b92915050565b60008181526001830160205260408120546200041c57508154600181810184556000848152602080822090930184905584548482528286019093526040902091909155620003cd565b506000620003cd565b6001600160a01b03811681146200043b57600080fd5b50565b600080604083850312156200045257600080fd5b82516200045f8162000425565b6020840151909250620004728162000425565b809150509250929050565b600060208083528351808285015260005b81811015620004ac578581018301518582016040015282016200048e565b81811115620004bf576000604083870101525b50601f01601f1916929092016040019392505050565b614fba80620004e56000396000f3fe608060405234801561001057600080fd5b50600436106102485760003560e01c80636d70f7ae1161013b578063a217fddf116100b8578063cf0d24831161007c578063cf0d248314610564578063d547741f146105ae578063d80c8a3f146105c1578063f887ea4014610653578063feca4a1d1461066657600080fd5b8063a217fddf14610503578063ac9650d81461050b578063baca12191461052b578063bc9f559e1461053e578063ca15c8731461055157600080fd5b8063918f8674116100ff578063918f8674146104a157806391d14854146104ac578063983d2737146104bf578063a0865839146104d4578063a0a8e460146104fb57600080fd5b80636d70f7ae1461043e57806375b238fc1461045157806375d0c0dc14610466578063791b98bc1461047b5780639010d07c1461048e57600080fd5b806316f0115b116101c957806336568abe1161018d57806336568abe146103cb5780634f64b2be146103de5780635bbc2ba6146103f1578063637444ee146104045780636888fc321461042b57600080fd5b806316f0115b1461035c57806319ab453c1461036f578063248a9ca31461038257806324d7806c146103a55780632f2ff15d146103b857600080fd5b80630952ff54116102105780630952ff54146102f35780630dc2f6d6146103085780630e3e80ac1461031b578063105088021461032d578063158ef93e1461034f57600080fd5b8063010e7f0d1461024d5780630144d52e1461026257806301ffc9a71461028d57806306a46239146102b0578063090f9221146102c8575b600080fd5b61026061025b366004613cdd565b610674565b005b610275610270366004613e56565b610768565b60405161028493929190613ef4565b60405180910390f35b6102a061029b366004613f2c565b6109f4565b6040519015158152602001610284565b640312e302e360dc1b5b604051908152602001610284565b6004546102db906001600160a01b031681565b6040516001600160a01b039091168152602001610284565b6102ba600080516020614efe83398151915281565b610260610316366004613fcf565b610a24565b684d537472617465677960b81b6102ba565b610335610f22565b60408051600293840b81529190920b602082015201610284565b6002546102a09060ff1681565b6006546102db906001600160a01b031681565b61026061037d36600461407d565b610f44565b6102ba61039036600461409a565b60009081526020819052604090206001015490565b6102a06103b336600461407d565b61106a565b6102606103c63660046140b3565b6110a2565b6102606103d93660046140b3565b6110cc565b6102db6103ec36600461409a565b61114a565b6102db6103ff3660046140e3565b611174565b60085461041890600160a01b900460020b81565b60405160029190910b8152602001610284565b610260610439366004614186565b6111fe565b6102a061044c36600461407d565b611477565b6102ba600080516020614f1e83398151915281565b61046e611491565b6040516102849190614299565b6007546102db906001600160a01b031681565b6102db61049c3660046142ac565b6114a8565b6102ba633b9aca0081565b6102a06104ba3660046140b3565b6114c7565b6102ba600080516020614f3e83398151915281565b6104e263095ea7b360e01b81565b6040516001600160e01b03199091168152602001610284565b61046e6114f0565b6102ba600081565b61051e6105193660046142ce565b611503565b6040516102849190614342565b6102606105393660046143a4565b6115f7565b6005546102db906001600160a01b031681565b6102ba61055f36600461409a565b61168f565b600954600a546105889163ffffffff81169164010000000090910462ffffff169083565b6040805163ffffffff909416845262ffffff909216602084015290820152606001610284565b6102606105bc3660046140b3565b6116a6565b600b54600c54600d54600e5461060693600281810b9463010000008304820b9466010000000000008404830b94600160481b8504840b94600160601b900490930b9288565b604080516002998a0b815297890b602089015295880b9587019590955292860b6060860152940b608084015260a083019390935260c082019290925260e081019190915261010001610284565b6008546102db906001600160a01b031681565b6104e263414bf38960e01b81565b61067c611764565b600081604001511180156106985750633b9aca00816040015111155b60405180604001604052806004815260200163494e564160e01b815250906106dc5760405162461bcd60e51b81526004016106d39190614299565b60405180910390fd5b508051600980546020808501805163ffffffff90951666ffffffffffffff19909316831764010000000062ffffff968716021790935560408086018051600a558151938452935190941690820152905191810191909152339032907f7fdab628f0fed6d2f4cd6d0c3c134e7a5552d7b3aea1783823005140ec0f490a906060015b60405180910390a350565b60608060006107756117aa565b6107eb6040518061012001604052806000815260200160608152602001600060ff168152602001600081526020016060815260200160006001600160a01b0316815260200160006001600160a01b0316815260200160006001600160a01b0316815260200160006001600160a01b031681525090565b600380548060200260200160405190810160405280929190818152602001828054801561084157602002820191906000526020600020905b81546001600160a01b03168152600190910190602001808311610823575b505050505060208201526006546001600160a01b0390811660a0830152600854811660c0830152600454811660e083015260055416610100820152604080516002808252606082019092529081602001602082028036833701905050925060008060006108c2848a600b60000160069054906101000a900460020b8b6117c2565b9194509250905060ff821661091a576001945082866000815181106108e9576108e961442c565b60200260200101818152505080866001815181106109095761090961442c565b60200260200101818152505061095f565b6000945080866000815181106109325761093261442c565b60200260200101818152505082866001815181106109525761095261442c565b6020026020010181815250505b5050604080516002808252606082018352600093509091602083019080368337019050509050600b600201548160008151811061099e5761099e61442c565b602002602001018181525050600b60030154816001815181106109c3576109c361442c565b6020026020010181815250506109e98260e001518361010001518460200151848a611d13565b945050509250925092565b60006001600160e01b03198216635a05180f60e01b1480610a195750610a1982612519565b92915050565b905090565b610a2d81610f44565b8451600214604051806040016040528060048152602001631253959360e21b81525090610a6d5760405162461bcd60e51b81526004016106d39190614299565b506000846001600160a01b031663697222336040518163ffffffff1660e01b815260040160006040518083038186803b158015610aa957600080fd5b505afa158015610abd573d6000803e3d6000fd5b505050506040513d6000823e601f3d908101601f19168201604052610ae59190810190614442565b90506000846001600160a01b031663697222336040518163ffffffff1660e01b815260040160006040518083038186803b158015610b2257600080fd5b505afa158015610b36573d6000803e3d6000fd5b505050506040513d6000823e601f3d908101601f19168201604052610b5e9190810190614442565b90508151600214604051806040016040528060048152602001631253959360e21b81525090610ba05760405162461bcd60e51b81526004016106d39190614299565b508051600214604051806040016040528060048152602001631253959360e21b81525090610be15760405162461bcd60e51b81526004016106d39190614299565b5060005b6002811015610d0657878181518110610c0057610c0061442c565b60200260200101516001600160a01b0316838281518110610c2357610c2361442c565b60200260200101516001600160a01b03161460405180604001604052806004815260200163494e564160e01b81525090610c705760405162461bcd60e51b81526004016106d39190614299565b50878181518110610c8357610c8361442c565b60200260200101516001600160a01b0316828281518110610ca657610ca661442c565b60200260200101516001600160a01b03161460405180604001604052806004815260200163494e564160e01b81525090610cf35760405162461bcd60e51b81526004016106d39190614299565b5080610cfe816144f1565b915050610be5565b50600780546001600160a01b03808c166001600160a01b031992831617909255600880548b84169083161790556004805489841690831617905560058054928816929091169190911790558651610d649060039060208a0190613c0c565b506000896001600160a01b031663c45a01556040518163ffffffff1660e01b815260040160206040518083038186803b158015610da057600080fd5b505afa158015610db4573d6000803e3d6000fd5b505050506040513d601f19601f82011682018060405250810190610dd8919061450c565b9050806001600160a01b0316631698ee826003600081548110610dfd57610dfd61442c565b600091825260209091200154600380546001600160a01b03909216916001908110610e2a57610e2a61442c565b60009182526020909120015460405160e084901b6001600160e01b03191681526001600160a01b0392831660048201529116602482015262ffffff8816604482015260640160206040518083038186803b158015610e8757600080fd5b505afa158015610e9b573d6000803e3d6000fd5b505050506040513d601f19601f82011682018060405250810190610ebf919061450c565b600680546001600160a01b0319166001600160a01b0392909216918217905560408051808201909152600281526120ad60f11b602082015290610f155760405162461bcd60e51b81526004016106d39190614299565b5050505050505050505050565b6006546000908190610f3c906001600160a01b031661254e565b915091509091565b60408051808201909152600281526120ad60f11b60208201526001600160a01b038216610f845760405162461bcd60e51b81526004016106d39190614299565b506002546040805180820190915260048152631253925560e21b60208201529060ff1615610fc55760405162461bcd60e51b81526004016106d39190614299565b50610fde600080516020614f3e83398151915282612617565b610ff6600080516020614f1e83398151915282612617565b61100e600080516020614f1e83398151915280612621565b611034600080516020614efe833981519152600080516020614f1e833981519152612621565b61105a600080516020614f3e833981519152600080516020614efe833981519152612621565b506002805460ff19166001179055565b6000611084600080516020614f1e833981519152836114c7565b80610a195750610a19600080516020614efe833981519152836114c7565b6000828152602081905260409020600101546110bd8161266c565b6110c78383612676565b505050565b6001600160a01b038116331461113c5760405162461bcd60e51b815260206004820152602f60248201527f416363657373436f6e74726f6c3a2063616e206f6e6c792072656e6f756e636560448201526e103937b632b9903337b91039b2b63360891b60648201526084016106d3565b6111468282612698565b5050565b6003818154811061115a57600080fd5b6000918252602090912001546001600160a01b0316905081565b600061117f306126ba565b6007546008546040516306e17b6b60e11b81529293506001600160a01b0380851693630dc2f6d6936111c3939083169216908b908b908b908b908b90600401614562565b600060405180830381600087803b1580156111dd57600080fd5b505af11580156111f1573d6000803e3d6000fd5b5050505095945050505050565b611206611764565b806020015160020b816000015160020b1315801561122c5750633b9aca008160a0015111155b80156112405750633b9aca008160c0015111155b80156112545750633b9aca008160e0015111155b801561126b57508051620d89e71960029190910b12155b801561128d575061127f620d89e7196145ba565b60020b816020015160020b13155b80156112a157506000816060015160020b12155b80156112c357506112b5620d89e7196145ba565b60020b816060015160020b13155b80156112d757506000816080015160020b12155b80156112f957506112eb620d89e7196145ba565b60020b816080015160020b13155b60405180604001604052806004815260200163494e564160e01b815250906113345760405162461bcd60e51b81526004016106d39190614299565b508051600b805460208401516040808601516060870151608088015162ffffff908116600160601b0262ffffff60601b19928216600160481b026bffffff00000000000000000019948316660100000000000002949094166bffffffffffff0000000000001996831663010000000265ffffffffffff199098169290991691909117959095179390931695909517949094171617905560a0820151600c5560c0820151600d5560e0820151600e5551339032907fc68b20ef72ee687a8777fb1749256e016aacb808a0c48ea55a3e5e81ba7b3e0b9061075d908590600061010082019050825160020b8252602083015160020b6020830152604083015160020b6040830152606083015160020b6060830152608083015160020b608083015260a083015160a083015260c083015160c083015260e083015160e083015292915050565b6000610a19600080516020614f3e833981519152836114c7565b6060610a1f684d537472617465677960b81b612754565b60008281526001602052604081206114c090836127c0565b9392505050565b6000918252602082815260408084206001600160a01b0393909316845291905290205460ff1690565b6060610a1f640312e302e360dc1b612754565b6060816001600160401b0381111561151d5761151d613c86565b60405190808252806020026020018201604052801561155057816020015b606081526020019060019003908161153b5790505b50905060005b828110156115f0576115c0308585848181106115745761157461442c565b905060200281019061158691906145dd565b8080601f0160208091040260200160405190810160405280939291908181526020018383808284376000920191909152506127cc92505050565b8282815181106115d2576115d261442c565b602002602001018190525080806115e8906144f1565b915050611556565b5092915050565b6115ff611764565b604051630818b5d560e21b81526001600160a01b03851690632062d754906116329086906003908790879060040161462a565b600060405180830381600087803b15801561164c57600080fd5b505af1158015611660573d6000803e3d6000fd5b505050506040513d6000823e601f3d908101601f191682016040526116889190810190614701565b5050505050565b6000818152600160205260408120610a19906127f1565b6000828152602081905260409020600101546116c18161266c565b6110c78383612698565b6116d582826114c7565b611146576000828152602081815260408083206001600160a01b03851684529091529020805460ff1916600117905561170b3390565b6001600160a01b0316816001600160a01b0316837f2f8788117e7eff1d82e926ec794901d17c78024a50270940304540a733656f0d60405160405180910390a45050565b60006114c0836001600160a01b0384166127fb565b61176d3361106a565b6040518060400160405280600381526020016223292160e91b815250906117a75760405162461bcd60e51b81526004016106d39190614299565b50565b6117b33361106a565b8061176d575061176d33611477565b60008060008060008060006117da8b60a0015161284a565b600b54909150600282810b916117fb91600160481b8204810b91900b614735565b60020b131561187357600b54600160601b8104600290810b91810b9083900b1261182a57600b5460020b61182c565b815b611836919061477c565b600b805462ffffff191662ffffff929092169190911790819055620d89e71960029190910b121561187357600b805462ffffff191662f276181790555b600b54600282810b9161189891600160481b8204810b9163010000009004900b61477c565b60020b121561195b57600b54600160601b8104600290810b9163010000009004810b9083900b136118d557600b546301000000900460020b6118d7565b815b6118e19190614735565b600b805462ffffff9290921663010000000265ffffff00000019909216919091179055611911620d89e7196145ba565b600b54600291820b630100000090910490910b131561195b57611937620d89e7196145ba565b600b805462ffffff9290921663010000000265ffffff000000199092169190911790555b600854611973908a90600160a01b900460020b614735565b60020b8160020b13806119a25750600854611999908a90600160a01b900460020b61477c565b60020b8160020b125b604051806040016040528060048152602001634c494d5560e01b815250906119dd5760405162461bcd60e51b81526004016106d39190614299565b506008805462ffffff60a01b1916600160a01b62ffffff841602179055611a03816128d2565b60608c0152600b54611a25908290600281810b9163010000009004900b6128f8565b9150508960e001516001600160a01b031663e5328e066040518163ffffffff1660e01b815260040160006040518083038186803b158015611a6557600080fd5b505afa158015611a79573d6000803e3d6000fd5b505050506040513d6000823e601f3d908101601f19168201604052611aa191908101906147c4565b508a608001819052506000808b61010001516001600160a01b031663e5328e066040518163ffffffff1660e01b815260040160006040518083038186803b158015611aeb57600080fd5b505afa158015611aff573d6000803e3d6000fd5b505050506040513d6000823e601f3d908101601f19168201604052611b2791908101906147c4565b50905080600081518110611b3d57611b3d61442c565b60200260200101518c60800151600081518110611b5c57611b5c61442c565b6020026020010151611b6e919061481d565b945080600181518110611b8357611b8361442c565b60200260200101518c60800151600181518110611ba257611ba261442c565b6020026020010151611bb4919061481d565b9150506000611bcc82600160601b8e60600151612966565b9050611be6611bdb868361481d565b84633b9aca00612966565b935050505081811015611c0b57611bfd8183614835565b8952600060408a0152611c31565b611c27611c188383614835565b8a60600151600160601b612966565b8952600160408a01525b885115611cf6576000611c448a88612a19565b9050888a6040015160011860ff1681518110611c6257611c6261442c565b6020026020010151811015604051806040016040528060048152602001634c494d5560e01b81525090611ca85760405162461bcd60e51b81526004016106d39190614299565b507f3506f08228590ac586cd841ae854b3ab66b30109e9ccd5aa8b1bce5d9a8e86238a604051611cd8919061484c565b60405180910390a1895160408b015190965094509250611d09915050565b5050865160408801519093509150600090505b9450945094915050565b60606000600b6001015490506000876001600160a01b031663e5328e066040518163ffffffff1660e01b815260040160006040518083038186803b158015611d5a57600080fd5b505afa158015611d6e573d6000803e3d6000fd5b505050506040513d6000823e601f3d908101601f19168201604052611d9691908101906147c4565b5090506000876001600160a01b031663e5328e066040518163ffffffff1660e01b815260040160006040518083038186803b158015611dd457600080fd5b505afa158015611de8573d6000803e3d6000fd5b505050506040513d6000823e601f3d908101601f19168201604052611e1091908101906147c4565b5060408051600280825260608201835292935091906020830190803683370190505093506000611e43600260001961492f565b90506000805b6002811015611ffc576000611ea0858381518110611e6957611e6961442c565b6020026020010151878481518110611e8357611e8361442c565b6020026020010151611e95919061481d565b88633b9aca00612966565b90506000868381518110611eb657611eb661442c565b6020026020010151821115611ef157868381518110611ed757611ed761442c565b602002602001015182611eea9190614835565b9050611f19565b81878481518110611f0457611f0461442c565b6020026020010151611f169190614835565b90505b6040805180820190915260048152634c494d4f60e01b6020820152858210611f545760405162461bcd60e51b81526004016106d39190614299565b50868381518110611f6757611f6761442c565b6020026020010151821115611f9a5780898481518110611f8957611f8961442c565b602002602001018181525050611fc2565b611fa381614943565b898481518110611fb557611fb561442c565b6020026020010181815250505b8a8381518110611fd457611fd461442c565b60200260200101518110611fe757600193505b50508080611ff4906144f1565b915050611e49565b508061202c5760408051600280825260608201835290916020830190803683370190505095505050505050612510565b6000866000815181106120415761204161442c565b60200260200101511315801561207257506000866001815181106120675761206761442c565b602002602001015113155b156121ac57604080516002808252606082018352600092602083019080368337019050509050866000815181106120ab576120ab61442c565b60200260200101516120bc90614943565b816000815181106120cf576120cf61442c565b602002602001018181525050866001815181106120ee576120ee61442c565b60200260200101516120ff90614943565b816001815181106121125761211261442c565b6020908102919091010152604051630818b5d560e21b81526001600160a01b038d1690632062d7549061214f908e908e9086908e90600401614960565b600060405180830381600087803b15801561216957600080fd5b505af115801561217d573d6000803e3d6000fd5b505050506040513d6000823e601f3d908101601f191682016040526121a59190810190614701565b50506124d3565b6000866000815181106121c1576121c161442c565b6020026020010151121580156121f257506000866001815181106121e7576121e761442c565b602002602001015112155b156122bd576040805160028082526060820183526000926020830190803683370190505090508660008151811061222b5761222b61442c565b6020026020010151816000815181106122465761224661442c565b602002602001018181525050866001815181106122655761226561442c565b6020026020010151816001815181106122805761228061442c565b6020908102919091010152604051630818b5d560e21b81526001600160a01b038c1690632062d7549061214f908f908e9086908e90600401614960565b60005b60028110156124d15760408051600280825260608201835260009260208301908036833701905050905060008883815181106122fe576122fe61442c565b602002602001015113156123d25787828151811061231e5761231e61442c565b60200260200101518183815181106123385761233861442c565b6020026020010181815250508b6001600160a01b0316632062d7548e8d848d6040518563ffffffff1660e01b81526004016123769493929190614960565b600060405180830381600087803b15801561239057600080fd5b505af11580156123a4573d6000803e3d6000fd5b505050506040513d6000823e601f3d908101601f191682016040526123cc9190810190614701565b506124be565b60008883815181106123e6576123e661442c565b602002602001015112156124be578782815181106124065761240661442c565b602002602001015161241790614943565b8183815181106124295761242961442c565b6020908102919091010152604051630818b5d560e21b81526001600160a01b038e1690632062d75490612466908f908f9086908f90600401614960565b600060405180830381600087803b15801561248057600080fd5b505af1158015612494573d6000803e3d6000fd5b505050506040513d6000823e601f3d908101601f191682016040526124bc9190810190614701565b505b50806124c9816144f1565b9150506122c0565b505b7f3adae9301e25ea4366429211b6c19193ce112a416d632df9426073159e6faca58660405161250291906149aa565b60405180910390a150505050505b95945050505050565b60006001600160e01b03198216637965db0b60e01b1480610a1957506301ffc9a760e01b6001600160e01b0319831614610a19565b6000806000600960000160009054906101000a900463ffffffff1690506000846001600160a01b0316633850c7bd6040518163ffffffff1660e01b815260040160e06040518083038186803b1580156125a657600080fd5b505afa1580156125ba573d6000803e3d6000fd5b505050506040513d601f19601f820116820180604052508101906125de91906149cf565b505050505091505060006125f286846130ed565b919650909150508015612603578194505b61260d858361477c565b9350505050915091565b6111468282612676565b600082815260208190526040808220600101805490849055905190918391839186917fbd79b86ffe0ab8e8776151514217cd7cacd52c909f66475c3af44e129f0b00ff9190a4505050565b6117a78133613347565b61268082826116cb565b60008281526001602052604090206110c7908261174f565b6126a282826133a0565b60008281526001602052604090206110c79082613405565b6000763d602d80600a3d3981f3363d3d373d3d3d363d730000008260601b60e81c176000526e5af43d82803e903d91602b57fd5bf38260781b17602052603760096000f090506001600160a01b03811661274f5760405162461bcd60e51b8152602060048201526016602482015275115490cc4c4d8dce8818dc99585d194819985a5b195960521b60448201526064016106d3565b919050565b604080516020808252818301909252606091602082018180368337019050509050602060005b60208110156127b2578381602081106127955761279561442c565b1a6127a2578091506127b2565b6127ab816144f1565b905061277a565b508152602081019190915290565b60006114c0838361341a565b60606114c08383604051806060016040528060278152602001614f5e60279139613444565b6000610a19825490565b600081815260018301602052604081205461284257508154600181810184556000848152602080822090930184905584548482528286019093526040902091909155610a19565b506000610a19565b60008060006128588461254e565b915091506000808260020b1261286e5781612877565b612877826145ba565b600954604080518082019091526004815263494e564160e01b602082015291925062ffffff6401000000009091048116908316106128c85760405162461bcd60e51b81526004016106d39190614299565b5091949350505050565b6000806128de836134bc565b6001600160a01b031690506114c08182600160601b612966565b60008260020b8460020b136129125750633b9aca006114c0565b8160020b8460020b12612927575060006114c0565b612931838361477c565b62ffffff16633b9aca00612945868561477c565b62ffffff166129549190614a5c565b61295e919061492f565b949350505050565b6000808060001985870985870292508281108382030391505080600014156129a0576000841161299557600080fd5b5082900490506114c0565b8084116129ac57600080fd5b6000848688096000868103871696879004966002600389028118808a02820302808a02820302808a02820302808a02820302808a02820302808a02909103029181900381900460010186841190950394909402919094039290920491909117919091029150509392505050565b6040805161010081018252600080825260208201819052918101829052606081018290526080810182905260a0810182905260c0810182905260e081018290526040840151845160c0860151606087015160808801518051819060ff8716908110612a8657612a8661442c565b6020026020010151841115612c4a57604080516002808252606082018352600092602083019080368337019050509050818660ff1681518110612acb57612acb61442c565b602002602001015185612ade9190614835565b818760ff1681518110612af357612af361442c565b6020026020010181815250508961010001516001600160a01b0316632062d7548b60e001518c60200151848d6040518563ffffffff1660e01b8152600401612b3e9493929190614960565b600060405180830381600087803b158015612b5857600080fd5b505af1158015612b6c573d6000803e3d6000fd5b505050506040513d6000823e601f3d908101601f19168201604052612b949190810190614701565b50600060038760ff1681548110612bad57612bad61442c565b600091825260209091200154600480546040516370a0823160e01b81526001600160a01b0391821692810192909252909116906370a082319060240160206040518083038186803b158015612c0157600080fd5b505afa158015612c15573d6000803e3d6000fd5b505050506040513d601f19601f82011682018060405250810190612c399190614a7b565b905085811015612c47578095505b50505b60008560ff1660011415612c6e57612c6785600160601b85612966565b9050612c80565b612c7d8584600160601b612966565b90505b600a54612ca1908290612c9790633b9aca00614835565b633b9aca00612966565b90506040518061010001604052808b602001518860ff1681518110612cc857612cc861442c565b60200260200101516001600160a01b031681526020018b60200151886001612cf09190614a94565b60ff1681518110612d0357612d0361442c565b60200260200101516001600160a01b031681526020018b60a001516001600160a01b031663ddca3f436040518163ffffffff1660e01b815260040160206040518083038186803b158015612d5657600080fd5b505afa158015612d6a573d6000803e3d6000fd5b505050506040513d601f19601f82011682018060405250810190612d8e9190614ab7565b62ffffff1681526004546001600160a01b03166020820152604001612db442600161481d565b815260200186815260200182815260200160006001600160a01b03168152509650505050600084604051602001612e4f919081516001600160a01b03908116825260208084015182169083015260408084015162ffffff16908301526060808401518216908301526080808401519083015260a0838101519083015260c0808401519083015260e09283015116918101919091526101000190565b60408051601f19818403018152919052600454600380549293506001600160a01b0390911691632e2f4cc2919060ff8816908110612e8f57612e8f61442c565b60009182526020918290200154604080516001600160a01b038881169482019490945290810188905291169063095ea7b360e01b906060016040516020818303038152906040526040518463ffffffff1660e01b8152600401612ef493929190614ad4565b600060405180830381600087803b158015612f0e57600080fd5b505af1158015612f22573d6000803e3d6000fd5b505050506040513d6000823e601f3d908101601f19168201604052612f4a9190810190614b08565b5060048054604051631717a66160e11b81526000926001600160a01b0390921691632e2f4cc291612f8891879163414bf38960e01b91889101614ad4565b600060405180830381600087803b158015612fa257600080fd5b505af1158015612fb6573d6000803e3d6000fd5b505050506040513d6000823e601f3d908101601f19168201604052612fde9190810190614b08565b600454600380549293506001600160a01b0390911691632e2f4cc2919060ff891690811061300e5761300e61442c565b600091825260208083209190910154604080516001600160a01b038a81169482019490945290810193909352169063095ea7b360e01b906060016040516020818303038152906040526040518463ffffffff1660e01b815260040161307593929190614ad4565b600060405180830381600087803b15801561308f57600080fd5b505af11580156130a3573d6000803e3d6000fd5b505050506040513d6000823e601f3d908101601f191682016040526130cb9190810190614b08565b50808060200190518101906130e09190614a7b565b9998505050505050505050565b6000808063ffffffff84166131295760405162461bcd60e51b8152602060048201526002602482015261042560f41b60448201526064016106d3565b604080516002808252606082018352600092602083019080368337019050509050848160008151811061315e5761315e61442c565b602002602001019063ffffffff16908163ffffffff168152505060008160018151811061318d5761318d61442c565b63ffffffff9092166020928302919091019091015260405163883bdbfd60e01b81526001600160a01b0387169063883bdbfd906131ce908490600401614b75565b60006040518083038186803b1580156131e657600080fd5b505afa92505050801561321b57506040513d6000823e601f3d908101601f191682016040526132189190810190614c23565b60015b61323057600080600193509350935050613340565b6000826000815181106132455761324561442c565b6020026020010151836001815181106132605761326061442c565b60200260200101516132729190614ce4565b90506000826000815181106132895761328961442c565b6020026020010151836001815181106132a4576132a461442c565b60200260200101516132b69190614d2a565b90506132c863ffffffff8a1683614d52565b975060008260060b1280156132ee57506132e863ffffffff8a1683614d90565b60060b15155b1561330157876132fd81614db2565b9850505b600061331a6001600160a01b0363ffffffff8c16614dd6565b9050613337640100000000600160c01b03602084901b1682614e05565b97505050505050505b9250925092565b61335182826114c7565b6111465761335e816138d1565b6133698360206138e3565b60405160200161337a929190614e2b565b60408051601f198184030181529082905262461bcd60e51b82526106d391600401614299565b6133aa82826114c7565b15611146576000828152602081815260408083206001600160a01b0385168085529252808320805460ff1916905551339285917ff6391f5c32d9c69d2a47ea670b442974b53935d1edc7fd64eb21e047a839171b9190a45050565b60006114c0836001600160a01b038416613a7e565b60008260000182815481106134315761343161442c565b9060005260206000200154905092915050565b6060600080856001600160a01b0316856040516134619190614ea0565b600060405180830381855af49150503d806000811461349c576040519150601f19603f3d011682016040523d82523d6000602084013e6134a1565b606091505b50915091506134b286838387613b71565b9695505050505050565b60008060008360020b126134d3578260020b6134e0565b8260020b6134e090614943565b90506134ef620d89e7196145ba565b60020b8111156135255760405162461bcd60e51b81526020600482015260016024820152601560fa1b60448201526064016106d3565b60006001821661353957600160801b61354b565b6ffffcb933bd6fad37aa2d162d1a5940015b70ffffffffffffffffffffffffffffffffff169050600282161561358a576080613585826ffff97272373d413259a46990580e213a614a5c565b901c90505b60048216156135b45760806135af826ffff2e50f5f656932ef12357cf3c7fdcc614a5c565b901c90505b60088216156135de5760806135d9826fffe5caca7e10e4e61c3624eaa0941cd0614a5c565b901c90505b6010821615613608576080613603826fffcb9843d60f6159c9db58835c926644614a5c565b901c90505b602082161561363257608061362d826fff973b41fa98c081472e6896dfb254c0614a5c565b901c90505b604082161561365c576080613657826fff2ea16466c96a3843ec78b326b52861614a5c565b901c90505b6080821615613686576080613681826ffe5dee046a99a2a811c461f1969c3053614a5c565b901c90505b6101008216156136b15760806136ac826ffcbe86c7900a88aedcffc83b479aa3a4614a5c565b901c90505b6102008216156136dc5760806136d7826ff987a7253ac413176f2b074cf7815e54614a5c565b901c90505b610400821615613707576080613702826ff3392b0822b70005940c7a398e4b70f3614a5c565b901c90505b61080082161561373257608061372d826fe7159475a2c29b7443b29c7fa6e889d9614a5c565b901c90505b61100082161561375d576080613758826fd097f3bdfd2022b8845ad8f792aa5825614a5c565b901c90505b612000821615613788576080613783826fa9f746462d870fdf8a65dc1f90e061e5614a5c565b901c90505b6140008216156137b35760806137ae826f70d869a156d2a1b890bb3df62baf32f7614a5c565b901c90505b6180008216156137de5760806137d9826f31be135f97d08fd981231505542fcfa6614a5c565b901c90505b6201000082161561380a576080613805826f09aa508b5b7a84e1c677de54f3e99bc9614a5c565b901c90505b62020000821615613835576080613830826e5d6af8dedb81196699c329225ee604614a5c565b901c90505b6204000082161561385f57608061385a826d2216e584f5fa1ea926041bedfe98614a5c565b901c90505b62080000821615613887576080613882826b048a170391f7dc42444e8fa2614a5c565b901c90505b60008460020b13156138a25761389f8160001961492f565b90505b6138b164010000000082614ebc565b156138bd5760016138c0565b60005b61295e9060ff16602083901c61481d565b6060610a196001600160a01b03831660145b606060006138f2836002614a5c565b6138fd90600261481d565b6001600160401b0381111561391457613914613c86565b6040519080825280601f01601f19166020018201604052801561393e576020820181803683370190505b509050600360fc1b816000815181106139595761395961442c565b60200101906001600160f81b031916908160001a905350600f60fb1b816001815181106139885761398861442c565b60200101906001600160f81b031916908160001a90535060006139ac846002614a5c565b6139b790600161481d565b90505b6001811115613a2f576f181899199a1a9b1b9c1cb0b131b232b360811b85600f16601081106139eb576139eb61442c565b1a60f81b828281518110613a0157613a0161442c565b60200101906001600160f81b031916908160001a90535060049490941c93613a2881614ed0565b90506139ba565b5083156114c05760405162461bcd60e51b815260206004820181905260248201527f537472696e67733a20686578206c656e67746820696e73756666696369656e7460448201526064016106d3565b60008181526001830160205260408120548015613b67576000613aa2600183614835565b8554909150600090613ab690600190614835565b9050818114613b1b576000866000018281548110613ad657613ad661442c565b9060005260206000200154905080876000018481548110613af957613af961442c565b6000918252602080832090910192909255918252600188019052604090208390555b8554869080613b2c57613b2c614ee7565b600190038181906000526020600020016000905590558560010160008681526020019081526020016000206000905560019350505050610a19565b6000915050610a19565b60608315613bdd578251613bd6576001600160a01b0385163b613bd65760405162461bcd60e51b815260206004820152601d60248201527f416464726573733a2063616c6c20746f206e6f6e2d636f6e747261637400000060448201526064016106d3565b508161295e565b61295e8383815115613bf25781518083602001fd5b8060405162461bcd60e51b81526004016106d39190614299565b828054828255906000526020600020908101928215613c61579160200282015b82811115613c6157825182546001600160a01b0319166001600160a01b03909116178255602090920191600190910190613c2c565b50613c6d929150613c71565b5090565b5b80821115613c6d5760008155600101613c72565b634e487b7160e01b600052604160045260246000fd5b604051601f8201601f191681016001600160401b0381118282101715613cc457613cc4613c86565b604052919050565b62ffffff811681146117a757600080fd5b600060608284031215613cef57600080fd5b604051606081018181106001600160401b0382111715613d1157613d11613c86565b604052823563ffffffff81168114613d2857600080fd5b81526020830135613d3881613ccc565b60208201526040928301359281019290925250919050565b60006001600160401b03821115613d6957613d69613c86565b5060051b60200190565b600082601f830112613d8457600080fd5b81356020613d99613d9483613d50565b613c9c565b82815260059290921b84018101918181019086841115613db857600080fd5b8286015b84811015613dd35780358352918301918301613dbc565b509695505050505050565b60006001600160401b03821115613df757613df7613c86565b50601f01601f191660200190565b600082601f830112613e1657600080fd5b8135613e24613d9482613dde565b818152846020838601011115613e3957600080fd5b816020850160208301376000918101602001919091529392505050565b60008060408385031215613e6957600080fd5b82356001600160401b0380821115613e8057600080fd5b613e8c86838701613d73565b93506020850135915080821115613ea257600080fd5b50613eaf85828601613e05565b9150509250929050565b600081518084526020808501945080840160005b83811015613ee957815187529582019590820190600101613ecd565b509495945050505050565b606081526000613f076060830186613eb9565b8281036020840152613f198186613eb9565b9150508215156040830152949350505050565b600060208284031215613f3e57600080fd5b81356001600160e01b0319811681146114c057600080fd5b6001600160a01b03811681146117a757600080fd5b600082601f830112613f7c57600080fd5b81356020613f8c613d9483613d50565b82815260059290921b84018101918181019086841115613fab57600080fd5b8286015b84811015613dd3578035613fc281613f56565b8352918301918301613faf565b600080600080600080600060e0888a031215613fea57600080fd5b8735613ff581613f56565b9650602088013561400581613f56565b955060408801356001600160401b0381111561402057600080fd5b61402c8a828b01613f6b565b955050606088013561403d81613f56565b9350608088013561404d81613f56565b925060a088013561405d81613ccc565b915060c088013561406d81613f56565b8091505092959891949750929550565b60006020828403121561408f57600080fd5b81356114c081613f56565b6000602082840312156140ac57600080fd5b5035919050565b600080604083850312156140c657600080fd5b8235915060208301356140d881613f56565b809150509250929050565b600080600080600060a086880312156140fb57600080fd5b85356001600160401b0381111561411157600080fd5b61411d88828901613f6b565b955050602086013561412e81613f56565b9350604086013561413e81613f56565b9250606086013561414e81613ccc565b9150608086013561415e81613f56565b809150509295509295909350565b8060020b81146117a757600080fd5b803561274f8161416c565b600061010080838503121561419a57600080fd5b604051908101906001600160401b03821181831017156141bc576141bc613c86565b81604052833591506141cd8261416c565b8181526141dc6020850161417b565b60208201526141ed6040850161417b565b60408201526141fe6060850161417b565b606082015261420f6080850161417b565b608082015260a084013560a082015260c084013560c082015260e084013560e0820152809250505092915050565b60005b83811015614258578181015183820152602001614240565b83811115614267576000848401525b50505050565b6000815180845261428581602086016020860161423d565b601f01601f19169290920160200192915050565b6020815260006114c0602083018461426d565b600080604083850312156142bf57600080fd5b50508035926020909101359150565b600080602083850312156142e157600080fd5b82356001600160401b03808211156142f857600080fd5b818501915085601f83011261430c57600080fd5b81358181111561431b57600080fd5b8660208260051b850101111561433057600080fd5b60209290920196919550909350505050565b6000602080830181845280855180835260408601915060408160051b870101925083870160005b8281101561439757603f1988860301845261438585835161426d565b94509285019290850190600101614369565b5092979650505050505050565b600080600080608085870312156143ba57600080fd5b84356143c581613f56565b935060208501356143d581613f56565b925060408501356001600160401b03808211156143f157600080fd5b6143fd88838901613d73565b9350606087013591508082111561441357600080fd5b5061442087828801613e05565b91505092959194509250565b634e487b7160e01b600052603260045260246000fd5b6000602080838503121561445557600080fd5b82516001600160401b0381111561446b57600080fd5b8301601f8101851361447c57600080fd5b805161448a613d9482613d50565b81815260059190911b820183019083810190878311156144a957600080fd5b928401925b828410156144d05783516144c181613f56565b825292840192908401906144ae565b979650505050505050565b634e487b7160e01b600052601160045260246000fd5b6000600019821415614505576145056144db565b5060010190565b60006020828403121561451e57600080fd5b81516114c081613f56565b600081518084526020808501945080840160005b83811015613ee95781516001600160a01b03168752958201959082019060010161453d565b600060018060a01b03808a168352808916602084015260e0604084015261458c60e0840189614529565b968116606084015294851660808301525062ffffff9290921660a083015290911660c0909101529392505050565b60008160020b627fffff198114156145d4576145d46144db565b60000392915050565b6000808335601e198436030181126145f457600080fd5b8301803591506001600160401b0382111561460e57600080fd5b60200191503681900382131561462357600080fd5b9250929050565b60006080820160018060a01b038088168452602060808186015282885480855260a0870191508960005282600020945060005b8181101561467b57855485168352600195860195928401920161465d565b5050858103604087015261468f8189613eb9565b935050505082810360608401526144d0818561426d565b600082601f8301126146b757600080fd5b815160206146c7613d9483613d50565b82815260059290921b840181019181810190868411156146e657600080fd5b8286015b84811015613dd357805183529183019183016146ea565b60006020828403121561471357600080fd5b81516001600160401b0381111561472957600080fd5b61295e848285016146a6565b60008160020b8360020b6000821282627fffff0382138115161561475b5761475b6144db565b82627fffff19038212811615614773576147736144db565b50019392505050565b60008160020b8360020b6000811281627fffff19018312811516156147a3576147a36144db565b81627fffff0183138116156147ba576147ba6144db565b5090039392505050565b600080604083850312156147d757600080fd5b82516001600160401b03808211156147ee57600080fd5b6147fa868387016146a6565b9350602085015191508082111561481057600080fd5b50613eaf858286016146a6565b60008219821115614830576148306144db565b500190565b600082821015614847576148476144db565b500390565b602081528151602082015260006020830151610120806040850152614875610140850183614529565b9150604085015161488b606086018260ff169052565b50606085015160808501526080850151601f198584030160a08601526148b18382613eb9565b92505060a08501516148ce60c08601826001600160a01b03169052565b5060c08501516001600160a01b03811660e08601525060e0850151610100614900818701836001600160a01b03169052565b909501516001600160a01b031693019290925250919050565b634e487b7160e01b600052601260045260246000fd5b60008261493e5761493e614919565b500490565b6000600160ff1b821415614959576149596144db565b5060000390565b6001600160a01b038516815260806020820181905260009061498490830186614529565b82810360408401526149968186613eb9565b905082810360608401526144d0818561426d565b6020815260006114c06020830184613eb9565b805161ffff8116811461274f57600080fd5b600080600080600080600060e0888a0312156149ea57600080fd5b87516149f581613f56565b6020890151909750614a068161416c565b9550614a14604089016149bd565b9450614a22606089016149bd565b9350614a30608089016149bd565b925060a088015160ff81168114614a4657600080fd5b60c0890151909250801515811461406d57600080fd5b6000816000190483118215151615614a7657614a766144db565b500290565b600060208284031215614a8d57600080fd5b5051919050565b600060ff821660ff841680821015614aae57614aae6144db565b90039392505050565b600060208284031215614ac957600080fd5b81516114c081613ccc565b6001600160a01b03841681526001600160e01b0319831660208201526060604082018190526000906125109083018461426d565b600060208284031215614b1a57600080fd5b81516001600160401b03811115614b3057600080fd5b8201601f81018413614b4157600080fd5b8051614b4f613d9482613dde565b818152856020838501011115614b6457600080fd5b61251082602083016020860161423d565b6020808252825182820181905260009190848201906040850190845b81811015614bb357835163ffffffff1683529284019291840191600101614b91565b50909695505050505050565b600082601f830112614bd057600080fd5b81516020614be0613d9483613d50565b82815260059290921b84018101918181019086841115614bff57600080fd5b8286015b84811015613dd3578051614c1681613f56565b8352918301918301614c03565b60008060408385031215614c3657600080fd5b82516001600160401b0380821115614c4d57600080fd5b818501915085601f830112614c6157600080fd5b81516020614c71613d9483613d50565b82815260059290921b84018101918181019089841115614c9057600080fd5b948201945b83861015614cbe5785518060060b8114614caf5760008081fd5b82529482019490820190614c95565b91880151919650909350505080821115614cd757600080fd5b50613eaf85828601614bbf565b60008160060b8360060b6000811281667fffffffffffff1901831281151615614d0f57614d0f6144db565b81667fffffffffffff0183138116156147ba576147ba6144db565b60006001600160a01b0383811690831681811015614d4a57614d4a6144db565b039392505050565b60008160060b8360060b80614d6957614d69614919565b667fffffffffffff19821460001982141615614d8757614d876144db565b90059392505050565b60008260060b80614da357614da3614919565b808360060b0791505092915050565b60008160020b627fffff19811415614dcc57614dcc6144db565b6000190192915050565b60006001600160c01b0382811684821681151582840482111615614dfc57614dfc6144db565b02949350505050565b60006001600160c01b0383811680614e1f57614e1f614919565b92169190910492915050565b7f416363657373436f6e74726f6c3a206163636f756e7420000000000000000000815260008351614e6381601785016020880161423d565b7001034b99036b4b9b9b4b733903937b6329607d1b6017918401918201528351614e9481602884016020880161423d565b01602801949350505050565b60008251614eb281846020870161423d565b9190910192915050565b600082614ecb57614ecb614919565b500690565b600081614edf57614edf6144db565b506000190190565b634e487b7160e01b600052603160045260246000fdfec171260023d22a25a00a2789664c9334017843b831138c8ef03cc8897e5873d7f23ec0bb4210edd5cba85afd05127efcd2fc6a781bfed49188da1081670b22d846a52cf33029de9f84853745a87af28464c80bf0346df1b32e205fc73319f622416464726573733a206c6f772d6c6576656c2064656c65676174652063616c6c206661696c6564a26469706673582212207871ab0f161798dfb232b1ef7fb7e97b974d9578cf579b9e73225c00254c4b6164736f6c63430008090033f23ec0bb4210edd5cba85afd05127efcd2fc6a781bfed49188da1081670b22d846a52cf33029de9f84853745a87af28464c80bf0346df1b32e205fc73319f622",
    "linkReferences": {}
  },
  "methodIdentifiers": {
    "ADMIN_DELEGATE_ROLE()": "0952ff54",
    "ADMIN_ROLE()": "75b238fc",
    "APPROVE_SELECTOR()": "a0865839",
    "DEFAULT_ADMIN_ROLE()": "a217fddf",
    "DENOMINATOR()": "918f8674",
    "EXACT_INPUT_SINGLE_SELECTOR()": "feca4a1d",
    "OPERATOR()": "983d2737",
    "contractName()": "75d0c0dc",
    "contractNameBytes()": "0e3e80ac",
    "contractVersion()": "a0a8e460",
    "contractVersionBytes()": "06a46239",
    "createStrategy(address[],address,address,uint24,address)": "5bbc2ba6",
    "erc20Vault()": "090f9221",
    "getAverageTick()": "10508802",
    "getRoleAdmin(bytes32)": "248a9ca3",
    "getRoleMember(bytes32,uint256)": "9010d07c",
    "getRoleMemberCount(bytes32)": "ca15c873",
    "grantRole(bytes32,address)": "2f2ff15d",
    "hasRole(bytes32,address)": "91d14854",
    "init(address)": "19ab453c",
    "initialize(address,address,address[],address,address,uint24,address)": "0dc2f6d6",
    "initialized()": "158ef93e",
    "isAdmin(address)": "24d7806c",
    "isOperator(address)": "6d70f7ae",
    "lastRebalanceTick()": "637444ee",
    "manualPull(address,address,uint256[],bytes)": "baca1219",
    "moneyVault()": "bc9f559e",
    "multicall(bytes[])": "ac9650d8",
    "oracleParams()": "cf0d2483",
    "pool()": "16f0115b",
    "positionManager()": "791b98bc",
    "ratioParams()": "d80c8a3f",
    "rebalance(uint256[],bytes)": "0144d52e",
    "renounceRole(bytes32,address)": "36568abe",
    "revokeRole(bytes32,address)": "d547741f",
    "router()": "f887ea40",
    "setOracleParams((uint32,uint24,uint256))": "010e7f0d",
    "setRatioParams((int24,int24,int24,int24,int24,uint256,uint256,uint256))": "6888fc32",
    "supportsInterface(bytes4)": "01ffc9a7",
    "tokens(uint256)": "4f64b2be"
  },
  "id": 393
}