{
  "abi": [
    {
      "inputs": [
        {
          "internalType": "contract INonfungiblePositionManager",
          "name": "positionManager_",
          "type": "address"
        }
      ],
      "stateMutability": "nonpayable",
      "type": "constructor"
    },
    {
      "anonymous": false,
      "inputs": [
        {
          "indexed": false,
          "internalType": "uint256[]",
          "name": "uniV3Nfts",
          "type": "uint256[]"
        }
      ],
      "name": "PositionsBurned",
      "type": "event"
    },
    {
      "anonymous": false,
      "inputs": [
        {
          "indexed": false,
          "internalType": "uint256[]",
          "name": "uniV3Nfts",
          "type": "uint256[]"
        }
      ],
      "name": "PositionsMinted",
      "type": "event"
    },
    {
      "anonymous": false,
      "inputs": [
        {
          "indexed": true,
          "internalType": "bytes32",
          "name": "role",
          "type": "bytes32"
        },
        {
          "indexed": true,
          "internalType": "bytes32",
          "name": "previousAdminRole",
          "type": "bytes32"
        },
        {
          "indexed": true,
          "internalType": "bytes32",
          "name": "newAdminRole",
          "type": "bytes32"
        }
      ],
      "name": "RoleAdminChanged",
      "type": "event"
    },
    {
      "anonymous": false,
      "inputs": [
        {
          "indexed": true,
          "internalType": "bytes32",
          "name": "role",
          "type": "bytes32"
        },
        {
          "indexed": true,
          "internalType": "address",
          "name": "account",
          "type": "address"
        },
        {
          "indexed": true,
          "internalType": "address",
          "name": "sender",
          "type": "address"
        }
      ],
      "name": "RoleGranted",
      "type": "event"
    },
    {
      "anonymous": false,
      "inputs": [
        {
          "indexed": true,
          "internalType": "bytes32",
          "name": "role",
          "type": "bytes32"
        },
        {
          "indexed": true,
          "internalType": "address",
          "name": "account",
          "type": "address"
        },
        {
          "indexed": true,
          "internalType": "address",
          "name": "sender",
          "type": "address"
        }
      ],
      "name": "RoleRevoked",
      "type": "event"
    },
    {
      "anonymous": false,
      "inputs": [
        {
          "components": [
            {
              "internalType": "address",
              "name": "tokenIn",
              "type": "address"
            },
            {
              "internalType": "address",
              "name": "tokenOut",
              "type": "address"
            },
            {
              "internalType": "uint24",
              "name": "fee",
              "type": "uint24"
            },
            {
              "internalType": "address",
              "name": "recipient",
              "type": "address"
            },
            {
              "internalType": "uint256",
              "name": "deadline",
              "type": "uint256"
            },
            {
              "internalType": "uint256",
              "name": "amountIn",
              "type": "uint256"
            },
            {
              "internalType": "uint256",
              "name": "amountOutMinimum",
              "type": "uint256"
            },
            {
              "internalType": "uint160",
              "name": "sqrtPriceLimitX96",
              "type": "uint160"
            }
          ],
          "indexed": false,
          "internalType": "struct ISwapRouter.ExactInputSingleParams",
          "name": "swapParams",
          "type": "tuple"
        },
        {
          "indexed": false,
          "internalType": "uint256",
          "name": "amountOut",
          "type": "uint256"
        }
      ],
      "name": "TokensSwapped",
      "type": "event"
    },
    {
      "inputs": [],
      "name": "ADMIN_DELEGATE_ROLE",
      "outputs": [
        {
          "internalType": "bytes32",
          "name": "",
          "type": "bytes32"
        }
      ],
      "stateMutability": "view",
      "type": "function"
    },
    {
      "inputs": [],
      "name": "ADMIN_ROLE",
      "outputs": [
        {
          "internalType": "bytes32",
          "name": "",
          "type": "bytes32"
        }
      ],
      "stateMutability": "view",
      "type": "function"
    },
    {
      "inputs": [],
      "name": "APPROVE_SELECTOR",
      "outputs": [
        {
          "internalType": "bytes4",
          "name": "",
          "type": "bytes4"
        }
      ],
      "stateMutability": "view",
      "type": "function"
    },
    {
      "inputs": [],
      "name": "DEFAULT_ADMIN_ROLE",
      "outputs": [
        {
          "internalType": "bytes32",
          "name": "",
          "type": "bytes32"
        }
      ],
      "stateMutability": "view",
      "type": "function"
    },
    {
      "inputs": [],
      "name": "DENOMINATOR",
      "outputs": [
        {
          "internalType": "uint256",
          "name": "",
          "type": "uint256"
        }
      ],
      "stateMutability": "view",
      "type": "function"
    },
    {
      "inputs": [],
      "name": "EXACT_INPUT_SINGLE_SELECTOR",
      "outputs": [
        {
          "internalType": "bytes4",
          "name": "",
          "type": "bytes4"
        }
      ],
      "stateMutability": "view",
      "type": "function"
    },
    {
      "inputs": [],
      "name": "OPERATOR",
      "outputs": [
        {
          "internalType": "bytes32",
          "name": "",
          "type": "bytes32"
        }
      ],
      "stateMutability": "view",
      "type": "function"
    },
    {
      "inputs": [],
      "name": "Q96",
      "outputs": [
        {
          "internalType": "uint256",
          "name": "",
          "type": "uint256"
        }
      ],
      "stateMutability": "view",
      "type": "function"
    },
    {
      "inputs": [
        {
          "components": [
            {
              "internalType": "int24",
              "name": "halfOfShortInterval",
              "type": "int24"
            },
            {
              "internalType": "int24",
              "name": "domainLowerTick",
              "type": "int24"
            },
            {
              "internalType": "int24",
              "name": "domainUpperTick",
              "type": "int24"
            },
            {
              "internalType": "int24",
              "name": "shortLowerTick",
              "type": "int24"
            },
            {
              "internalType": "int24",
              "name": "shortUpperTick",
              "type": "int24"
            },
            {
              "internalType": "int24",
              "name": "maxTickDeviation",
              "type": "int24"
            },
            {
              "internalType": "uint32",
              "name": "averageTickTimespan",
              "type": "uint32"
            },
            {
              "internalType": "contract IERC20Vault",
              "name": "erc20Vault",
              "type": "address"
            },
            {
              "internalType": "contract IIntegrationVault",
              "name": "moneyVault",
              "type": "address"
            },
            {
              "internalType": "contract IUniswapV3Pool",
              "name": "swapPool",
              "type": "address"
            },
            {
              "internalType": "address",
              "name": "router",
              "type": "address"
            },
            {
              "internalType": "uint256",
              "name": "amount0ForMint",
              "type": "uint256"
            },
            {
              "internalType": "uint256",
              "name": "amount1ForMint",
              "type": "uint256"
            },
            {
              "internalType": "uint256",
              "name": "erc20CapitalRatioD",
              "type": "uint256"
            },
            {
              "internalType": "uint256[]",
              "name": "uniV3Weights",
              "type": "uint256[]"
            },
            {
              "internalType": "address[]",
              "name": "tokens",
              "type": "address[]"
            },
            {
              "internalType": "contract IUniV3Vault[]",
              "name": "uniV3Vaults",
              "type": "address[]"
            }
          ],
          "internalType": "struct MultiPoolHStrategyRebalancer.StrategyData",
          "name": "data",
          "type": "tuple"
        },
        {
          "internalType": "uint160",
          "name": "sqrtPriceX96",
          "type": "uint160"
        },
        {
          "internalType": "uint256",
          "name": "totalToken0",
          "type": "uint256"
        },
        {
          "internalType": "uint256",
          "name": "totalToken1",
          "type": "uint256"
        }
      ],
      "name": "calculateExpectedAmounts",
      "outputs": [
        {
          "internalType": "uint256[]",
          "name": "moneyExpected",
          "type": "uint256[]"
        },
        {
          "internalType": "uint256[][]",
          "name": "uniV3Expected",
          "type": "uint256[][]"
        },
        {
          "internalType": "uint256",
          "name": "expectedAmountOfToken0",
          "type": "uint256"
        }
      ],
      "stateMutability": "view",
      "type": "function"
    },
    {
      "inputs": [
        {
          "components": [
            {
              "internalType": "int24",
              "name": "halfOfShortInterval",
              "type": "int24"
            },
            {
              "internalType": "int24",
              "name": "domainLowerTick",
              "type": "int24"
            },
            {
              "internalType": "int24",
              "name": "domainUpperTick",
              "type": "int24"
            },
            {
              "internalType": "int24",
              "name": "shortLowerTick",
              "type": "int24"
            },
            {
              "internalType": "int24",
              "name": "shortUpperTick",
              "type": "int24"
            },
            {
              "internalType": "int24",
              "name": "maxTickDeviation",
              "type": "int24"
            },
            {
              "internalType": "uint32",
              "name": "averageTickTimespan",
              "type": "uint32"
            },
            {
              "internalType": "contract IERC20Vault",
              "name": "erc20Vault",
              "type": "address"
            },
            {
              "internalType": "contract IIntegrationVault",
              "name": "moneyVault",
              "type": "address"
            },
            {
              "internalType": "contract IUniswapV3Pool",
              "name": "swapPool",
              "type": "address"
            },
            {
              "internalType": "address",
              "name": "router",
              "type": "address"
            },
            {
              "internalType": "uint256",
              "name": "amount0ForMint",
              "type": "uint256"
            },
            {
              "internalType": "uint256",
              "name": "amount1ForMint",
              "type": "uint256"
            },
            {
              "internalType": "uint256",
              "name": "erc20CapitalRatioD",
              "type": "uint256"
            },
            {
              "internalType": "uint256[]",
              "name": "uniV3Weights",
              "type": "uint256[]"
            },
            {
              "internalType": "address[]",
              "name": "tokens",
              "type": "address[]"
            },
            {
              "internalType": "contract IUniV3Vault[]",
              "name": "uniV3Vaults",
              "type": "address[]"
            }
          ],
          "internalType": "struct MultiPoolHStrategyRebalancer.StrategyData",
          "name": "data",
          "type": "tuple"
        },
        {
          "internalType": "int24",
          "name": "tick",
          "type": "int24"
        }
      ],
      "name": "calculateNewPosition",
      "outputs": [
        {
          "internalType": "int24",
          "name": "newShortLowerTick",
          "type": "int24"
        },
        {
          "internalType": "int24",
          "name": "newShortUpperTick",
          "type": "int24"
        }
      ],
      "stateMutability": "pure",
      "type": "function"
    },
    {
      "inputs": [
        {
          "internalType": "address",
          "name": "strategy",
          "type": "address"
        }
      ],
      "name": "createRebalancer",
      "outputs": [
        {
          "internalType": "contract MultiPoolHStrategyRebalancer",
          "name": "rebalancer",
          "type": "address"
        }
      ],
      "stateMutability": "nonpayable",
      "type": "function"
    },
    {
      "inputs": [
        {
          "internalType": "bytes32",
          "name": "role",
          "type": "bytes32"
        }
      ],
      "name": "getRoleAdmin",
      "outputs": [
        {
          "internalType": "bytes32",
          "name": "",
          "type": "bytes32"
        }
      ],
      "stateMutability": "view",
      "type": "function"
    },
    {
      "inputs": [
        {
          "internalType": "bytes32",
          "name": "role",
          "type": "bytes32"
        },
        {
          "internalType": "uint256",
          "name": "index",
          "type": "uint256"
        }
      ],
      "name": "getRoleMember",
      "outputs": [
        {
          "internalType": "address",
          "name": "",
          "type": "address"
        }
      ],
      "stateMutability": "view",
      "type": "function"
    },
    {
      "inputs": [
        {
          "internalType": "bytes32",
          "name": "role",
          "type": "bytes32"
        }
      ],
      "name": "getRoleMemberCount",
      "outputs": [
        {
          "internalType": "uint256",
          "name": "",
          "type": "uint256"
        }
      ],
      "stateMutability": "view",
      "type": "function"
    },
    {
      "inputs": [
        {
          "components": [
            {
              "internalType": "int24",
              "name": "halfOfShortInterval",
              "type": "int24"
            },
            {
              "internalType": "int24",
              "name": "domainLowerTick",
              "type": "int24"
            },
            {
              "internalType": "int24",
              "name": "domainUpperTick",
              "type": "int24"
            },
            {
              "internalType": "int24",
              "name": "shortLowerTick",
              "type": "int24"
            },
            {
              "internalType": "int24",
              "name": "shortUpperTick",
              "type": "int24"
            },
            {
              "internalType": "int24",
              "name": "maxTickDeviation",
              "type": "int24"
            },
            {
              "internalType": "uint32",
              "name": "averageTickTimespan",
              "type": "uint32"
            },
            {
              "internalType": "contract IERC20Vault",
              "name": "erc20Vault",
              "type": "address"
            },
            {
              "internalType": "contract IIntegrationVault",
              "name": "moneyVault",
              "type": "address"
            },
            {
              "internalType": "contract IUniswapV3Pool",
              "name": "swapPool",
              "type": "address"
            },
            {
              "internalType": "address",
              "name": "router",
              "type": "address"
            },
            {
              "internalType": "uint256",
              "name": "amount0ForMint",
              "type": "uint256"
            },
            {
              "internalType": "uint256",
              "name": "amount1ForMint",
              "type": "uint256"
            },
            {
              "internalType": "uint256",
              "name": "erc20CapitalRatioD",
              "type": "uint256"
            },
            {
              "internalType": "uint256[]",
              "name": "uniV3Weights",
              "type": "uint256[]"
            },
            {
              "internalType": "address[]",
              "name": "tokens",
              "type": "address[]"
            },
            {
              "internalType": "contract IUniV3Vault[]",
              "name": "uniV3Vaults",
              "type": "address[]"
            }
          ],
          "internalType": "struct MultiPoolHStrategyRebalancer.StrategyData",
          "name": "data",
          "type": "tuple"
        }
      ],
      "name": "getTvls",
      "outputs": [
        {
          "components": [
            {
              "internalType": "uint256[]",
              "name": "money",
              "type": "uint256[]"
            },
            {
              "internalType": "uint256[][]",
              "name": "uniV3",
              "type": "uint256[][]"
            },
            {
              "internalType": "uint256[]",
              "name": "erc20",
              "type": "uint256[]"
            },
            {
              "internalType": "uint256[]",
              "name": "total",
              "type": "uint256[]"
            },
            {
              "internalType": "uint256[]",
              "name": "totalUniV3",
              "type": "uint256[]"
            }
          ],
          "internalType": "struct MultiPoolHStrategyRebalancer.Tvls",
          "name": "tvls",
          "type": "tuple"
        }
      ],
      "stateMutability": "nonpayable",
      "type": "function"
    },
    {
      "inputs": [
        {
          "internalType": "bytes32",
          "name": "role",
          "type": "bytes32"
        },
        {
          "internalType": "address",
          "name": "account",
          "type": "address"
        }
      ],
      "name": "grantRole",
      "outputs": [],
      "stateMutability": "nonpayable",
      "type": "function"
    },
    {
      "inputs": [
        {
          "internalType": "bytes32",
          "name": "role",
          "type": "bytes32"
        },
        {
          "internalType": "address",
          "name": "account",
          "type": "address"
        }
      ],
      "name": "hasRole",
      "outputs": [
        {
          "internalType": "bool",
          "name": "",
          "type": "bool"
        }
      ],
      "stateMutability": "view",
      "type": "function"
    },
    {
      "inputs": [
        {
          "internalType": "address",
          "name": "admin",
          "type": "address"
        }
      ],
      "name": "init",
      "outputs": [],
      "stateMutability": "nonpayable",
      "type": "function"
    },
    {
      "inputs": [
        {
          "internalType": "address",
          "name": "strategy",
          "type": "address"
        }
      ],
      "name": "initialize",
      "outputs": [],
      "stateMutability": "nonpayable",
      "type": "function"
    },
    {
      "inputs": [],
      "name": "initialized",
      "outputs": [
        {
          "internalType": "bool",
          "name": "",
          "type": "bool"
        }
      ],
      "stateMutability": "view",
      "type": "function"
    },
    {
      "inputs": [
        {
          "internalType": "address",
          "name": "sender",
          "type": "address"
        }
      ],
      "name": "isAdmin",
      "outputs": [
        {
          "internalType": "bool",
          "name": "",
          "type": "bool"
        }
      ],
      "stateMutability": "view",
      "type": "function"
    },
    {
      "inputs": [
        {
          "internalType": "address",
          "name": "sender",
          "type": "address"
        }
      ],
      "name": "isOperator",
      "outputs": [
        {
          "internalType": "bool",
          "name": "",
          "type": "bool"
        }
      ],
      "stateMutability": "view",
      "type": "function"
    },
    {
      "inputs": [],
      "name": "positionManager",
      "outputs": [
        {
          "internalType": "contract INonfungiblePositionManager",
          "name": "",
          "type": "address"
        }
      ],
      "stateMutability": "view",
      "type": "function"
    },
    {
      "inputs": [
        {
          "components": [
            {
              "internalType": "int24",
              "name": "halfOfShortInterval",
              "type": "int24"
            },
            {
              "internalType": "int24",
              "name": "domainLowerTick",
              "type": "int24"
            },
            {
              "internalType": "int24",
              "name": "domainUpperTick",
              "type": "int24"
            },
            {
              "internalType": "int24",
              "name": "shortLowerTick",
              "type": "int24"
            },
            {
              "internalType": "int24",
              "name": "shortUpperTick",
              "type": "int24"
            },
            {
              "internalType": "int24",
              "name": "maxTickDeviation",
              "type": "int24"
            },
            {
              "internalType": "uint32",
              "name": "averageTickTimespan",
              "type": "uint32"
            },
            {
              "internalType": "contract IERC20Vault",
              "name": "erc20Vault",
              "type": "address"
            },
            {
              "internalType": "contract IIntegrationVault",
              "name": "moneyVault",
              "type": "address"
            },
            {
              "internalType": "contract IUniswapV3Pool",
              "name": "swapPool",
              "type": "address"
            },
            {
              "internalType": "address",
              "name": "router",
              "type": "address"
            },
            {
              "internalType": "uint256",
              "name": "amount0ForMint",
              "type": "uint256"
            },
            {
              "internalType": "uint256",
              "name": "amount1ForMint",
              "type": "uint256"
            },
            {
              "internalType": "uint256",
              "name": "erc20CapitalRatioD",
              "type": "uint256"
            },
            {
              "internalType": "uint256[]",
              "name": "uniV3Weights",
              "type": "uint256[]"
            },
            {
              "internalType": "address[]",
              "name": "tokens",
              "type": "address[]"
            },
            {
              "internalType": "contract IUniV3Vault[]",
              "name": "uniV3Vaults",
              "type": "address[]"
            }
          ],
          "internalType": "struct MultiPoolHStrategyRebalancer.StrategyData",
          "name": "data",
          "type": "tuple"
        },
        {
          "components": [
            {
              "internalType": "int24",
              "name": "newShortLowerTick",
              "type": "int24"
            },
            {
              "internalType": "int24",
              "name": "newShortUpperTick",
              "type": "int24"
            },
            {
              "internalType": "int256[]",
              "name": "swappedAmounts",
              "type": "int256[]"
            },
            {
              "internalType": "uint256[][]",
              "name": "drainedAmounts",
              "type": "uint256[][]"
            },
            {
              "internalType": "uint256[][]",
              "name": "pulledToUniV3",
              "type": "uint256[][]"
            },
            {
              "internalType": "uint256[][]",
              "name": "pulledFromUniV3",
              "type": "uint256[][]"
            },
            {
              "internalType": "uint256",
              "name": "deadline",
              "type": "uint256"
            }
          ],
          "internalType": "struct MultiPoolHStrategyRebalancer.Restrictions",
          "name": "restrictions",
          "type": "tuple"
        }
      ],
      "name": "processRebalance",
      "outputs": [
        {
          "components": [
            {
              "internalType": "int24",
              "name": "newShortLowerTick",
              "type": "int24"
            },
            {
              "internalType": "int24",
              "name": "newShortUpperTick",
              "type": "int24"
            },
            {
              "internalType": "int256[]",
              "name": "swappedAmounts",
              "type": "int256[]"
            },
            {
              "internalType": "uint256[][]",
              "name": "drainedAmounts",
              "type": "uint256[][]"
            },
            {
              "internalType": "uint256[][]",
              "name": "pulledToUniV3",
              "type": "uint256[][]"
            },
            {
              "internalType": "uint256[][]",
              "name": "pulledFromUniV3",
              "type": "uint256[][]"
            },
            {
              "internalType": "uint256",
              "name": "deadline",
              "type": "uint256"
            }
          ],
          "internalType": "struct MultiPoolHStrategyRebalancer.Restrictions",
          "name": "actualAmounts",
          "type": "tuple"
        }
      ],
      "stateMutability": "nonpayable",
      "type": "function"
    },
    {
      "inputs": [
        {
          "internalType": "bytes32",
          "name": "role",
          "type": "bytes32"
        },
        {
          "internalType": "address",
          "name": "account",
          "type": "address"
        }
      ],
      "name": "renounceRole",
      "outputs": [],
      "stateMutability": "nonpayable",
      "type": "function"
    },
    {
      "inputs": [
        {
          "internalType": "bytes32",
          "name": "role",
          "type": "bytes32"
        },
        {
          "internalType": "address",
          "name": "account",
          "type": "address"
        }
      ],
      "name": "revokeRole",
      "outputs": [],
      "stateMutability": "nonpayable",
      "type": "function"
    },
    {
      "inputs": [
        {
          "internalType": "bytes4",
          "name": "interfaceId",
          "type": "bytes4"
        }
      ],
      "name": "supportsInterface",
      "outputs": [
        {
          "internalType": "bool",
          "name": "",
          "type": "bool"
        }
      ],
      "stateMutability": "view",
      "type": "function"
    }
  ],
  "bytecode": {
    "object": "0x60a06040523480156200001157600080fd5b5060405162006286380380620062868339810160408190526200003491620003bb565b60408051808201909152600281526120ad60f11b60208201526001600160a01b038216620000805760405162461bcd60e51b8152600401620000779190620003ed565b60405180910390fd5b506001600160a01b038116608052620000a530620000ac602090811b62000af617901c565b5062000445565b60408051808201909152600281526120ad60f11b60208201526001600160a01b038216620000ef5760405162461bcd60e51b8152600401620000779190620003ed565b506002546040805180820190915260048152631253925560e21b60208201529060ff1615620001335760405162461bcd60e51b8152600401620000779190620003ed565b506200014f60008051602062006266833981519152826200020b565b6200016a60008051602062006246833981519152826200020b565b6200018560008051602062006246833981519152806200021b565b620001c07fc171260023d22a25a00a2789664c9334017843b831138c8ef03cc8897e5873d7600080516020620062468339815191526200021b565b620001fb600080516020620062668339815191527fc171260023d22a25a00a2789664c9334017843b831138c8ef03cc8897e5873d76200021b565b506002805460ff19166001179055565b62000217828262000266565b5050565b600082815260208190526040808220600101805490849055905190918391839186917fbd79b86ffe0ab8e8776151514217cd7cacd52c909f66475c3af44e129f0b00ff9190a4505050565b6200027d8282620002a960201b62001a911760201c565b6000828152600160209081526040909120620002a491839062001b1562000349821b17901c565b505050565b6000828152602081815260408083206001600160a01b038516845290915290205460ff1662000217576000828152602081815260408083206001600160a01b03851684529091529020805460ff19166001179055620003053390565b6001600160a01b0316816001600160a01b0316837f2f8788117e7eff1d82e926ec794901d17c78024a50270940304540a733656f0d60405160405180910390a45050565b600062000360836001600160a01b03841662000369565b90505b92915050565b6000818152600183016020526040812054620003b25750815460018181018455600084815260208082209093018490558454848252828601909352604090209190915562000363565b50600062000363565b600060208284031215620003ce57600080fd5b81516001600160a01b0381168114620003e657600080fd5b9392505050565b600060208083528351808285015260005b818110156200041c57858101830151858201604001528201620003fe565b818111156200042f576000604083870101525b50601f01601f1916929092016040019392505050565b608051615dad6200049960003960008181610347015281816113a30152818161323d015281816132b001528181613646015281816138b801528181613951015281816139ef0152613a4d0152615dad6000f3fe608060405234801561001057600080fd5b50600436106101a95760003560e01c80636d70f7ae116100f9578063983d273711610097578063c4d66de811610071578063c4d66de814610400578063ca15c87314610413578063d547741f14610426578063feca4a1d1461043957600080fd5b8063983d2737146103bc578063a0865839146103d1578063a217fddf146103f857600080fd5b8063804abc5a116100d3578063804abc5a146103695780639010d07c1461038b578063918f86741461039e57806391d14854146103a957600080fd5b80636d70f7ae1461031a57806375b238fc1461032d578063791b98bc1461034257600080fd5b806324d7806c1161016657806336568abe1161014057806336568abe146102b157806340792465146102c457806343582de2146102cf57806358dad965146102ef57600080fd5b806324d7806c1461025e5780632f2ff15d14610271578063322dba771461028457600080fd5b806301ffc9a7146101ae5780630952ff54146101d6578063098f319b146101f9578063158ef93e1461021957806319ab453c14610226578063248a9ca31461023b575b600080fd5b6101c16101bc3660046147a1565b610447565b60405190151581526020015b60405180910390f35b6101eb600080516020615d1883398151915281565b6040519081526020016101cd565b61020c610207366004614bfa565b610472565b6040516101cd9190614db5565b6002546101c19060ff1681565b610239610234366004614e64565b610af6565b005b6101eb610249366004614e81565b60009081526020819052604090206001015490565b6101c161026c366004614e64565b610c1c565b61023961027f366004614e9a565b610c54565b610297610292366004614eca565b610c7e565b60408051600293840b81529190920b6020820152016101cd565b6102396102bf366004614e9a565b610d85565b6101eb600160601b81565b6102e26102dd366004614f10565b610e03565b6040516101cd9190614f44565b6103026102fd366004614e64565b611678565b6040516001600160a01b0390911681526020016101cd565b6101c1610328366004614e64565b6116e7565b6101eb600080516020615d3883398151915281565b6103027f000000000000000000000000000000000000000000000000000000000000000081565b61037c610377366004614fd6565b611701565b6040516101cd93929190615034565b61030261039936600461506a565b611a01565b6101eb633b9aca0081565b6101c16103b7366004614e9a565b611a20565b6101eb600080516020615d5883398151915281565b6103df63095ea7b360e01b81565b6040516001600160e01b031990911681526020016101cd565b6101eb600081565b61023961040e366004614e64565b611a49565b6101eb610421366004614e81565b611a55565b610239610434366004614e9a565b611a6c565b6103df63414bf38960e01b81565b60006001600160e01b03198216635a05180f60e01b148061046c575061046c82611b2a565b92915050565b6104b86040518060e00160405280600060020b8152602001600060020b815260200160608152602001606081526020016060815260200160608152602001600081525090565b6104c0611b5f565b6000808461012001516001600160a01b0316633850c7bd6040518163ffffffff1660e01b815260040160e06040518083038186803b15801561050157600080fd5b505afa158015610515573d6000803e3d6000fd5b505050506040513d601f19601f8201168201806040525081019061053991906150b9565b505050505091509150600080806105598861012001518960c00151611ba2565b925050915080156040518060400160405280600581526020016412539594d560da1b815250906105a55760405162461bcd60e51b815260040161059c91906151a4565b60405180910390fd5b5060005b8861020001515181101561074657600089610200015182815181106105d0576105d06151b7565b60200260200101516001600160a01b03166316f0115b6040518163ffffffff1660e01b815260040160206040518083038186803b15801561061057600080fd5b505afa158015610624573d6000803e3d6000fd5b505050506040513d601f19601f8201168201806040525081019061064891906151cd565b6001600160a01b0316633850c7bd6040518163ffffffff1660e01b815260040160e06040518083038186803b15801561068057600080fd5b505afa158015610694573d6000803e3d6000fd5b505050506040513d601f19601f820116820180604052508101906106b891906150b9565b5050505050915050600084826106ce9190615200565b905060008160020b12156106e8576106e581615248565b90505b8a60a0015160020b8160020b12604051806040016040528060048152602001634c494d4f60e01b815250906107305760405162461bcd60e51b815260040161059c91906151a4565b505050808061073e9061526b565b9150506105a9565b505050610754868387611dfc565b6060880152600290810b60208801520b855290508015610787578351600290810b60608801526020850151900b60808701525b600061079287610e03565b905060008060006107e18a8886606001516000815181106107b5576107b56151b7565b602002602001015187606001516001815181106107d4576107d46151b7565b6020026020010151611701565b925092509250896102000151516001600160401b03811115610805576108056147cb565b60405190808252806020026020018201604052801561083857816020015b60608152602001906001900390816108235790505b5060a089015260005b8a61020001515181101561090b576108d98b6101e001518c6102000151838151811061086f5761086f6151b7565b60200260200101518d60e0015186858151811061088e5761088e6151b7565b6020026020010151896020015186815181106108ac576108ac6151b7565b60200260200101518f60a0015187815181106108ca576108ca6151b7565b60200260200101516001611f7f565b8960a0015182815181106108ef576108ef6151b7565b6020026020010181905250806109049061526b565b9050610841565b506101e08a01516101008b015160e08c0151865160408051600280825260608201835261094f969594938a9390929190602083019080368337019050506001611f7f565b5061097b8a888b876060015160008151811061096d5761096d6151b7565b60200260200101518561241f565b60408901526102008a0151516001600160401b0381111561099e5761099e6147cb565b6040519080825280602002602001820160405280156109d157816020015b60608152602001906001900390816109bc5790505b50608089015260005b8a610200015151811015610aa457610a728b6101e001518c61020001518381518110610a0857610a086151b7565b60200260200101518d60e00151868581518110610a2757610a276151b7565b602002602001015189602001518681518110610a4557610a456151b7565b60200260200101518f608001518781518110610a6357610a636151b7565b60200260200101516000611f7f565b89608001518281518110610a8857610a886151b7565b602002602001018190525080610a9d9061526b565b90506109da565b506101e08a01516101008b015160e08c01518651604080516002808252606082018352610ae8969594938a9390929190602083019080368337019050506000611f7f565b505050505050505092915050565b60408051808201909152600281526120ad60f11b60208201526001600160a01b038216610b365760405162461bcd60e51b815260040161059c91906151a4565b506002546040805180820190915260048152631253925560e21b60208201529060ff1615610b775760405162461bcd60e51b815260040161059c91906151a4565b50610b90600080516020615d5883398151915282612b35565b610ba8600080516020615d3883398151915282612b35565b610bc0600080516020615d3883398151915280612b3f565b610be6600080516020615d18833981519152600080516020615d38833981519152612b3f565b610c0c600080516020615d58833981519152600080516020615d18833981519152612b3f565b506002805460ff19166001179055565b6000610c36600080516020615d3883398151915283611a20565b8061046c575061046c600080516020615d1883398151915283611a20565b600082815260208190526040902060010154610c6f81612b8a565b610c798383612b94565b505050565b6000806000846000015184610c93919061529c565b610c9d9085615200565b8551909150600090610caf90836152be565b9050610cbb8582615200565b60020b610cc88387615200565b60020b13610cf2578551610cdc9083615200565b8651909450610ceb90836152be565b9250610d10565b8551610cfe9082615200565b8651909450610d0d90826152be565b92505b856020015160020b8460020b1215610d485760208601518651909450610d37906002615305565b610d4190856152be565b9250610d7c565b856040015160020b8360020b1315610d7c5760408601518651909350610d6f906002615305565b610d799084615200565b93505b50509250929050565b6001600160a01b0381163314610df55760405162461bcd60e51b815260206004820152602f60248201527f416363657373436f6e74726f6c3a2063616e206f6e6c792072656e6f756e636560448201526e103937b632b9903337b91039b2b63360891b606482015260840161059c565b610dff8282612bb6565b5050565b610e356040518060a0016040528060608152602001606081526020016060815260200160608152602001606081525090565b6000826102000151600081518110610e4f57610e4f6151b7565b60200260200101516001600160a01b031663f4adc08b6040518163ffffffff1660e01b815260040160206040518083038186803b158015610e8f57600080fd5b505afa158015610ea3573d6000803e3d6000fd5b505050506040513d601f19601f82011682018060405250810190610ec79190615392565b1580159150610f895760005b83610200015151811015610f87578361020001518181518110610ef857610ef86151b7565b60200260200101516001600160a01b031663c27b2c2d6040518163ffffffff1660e01b8152600401600060405180830381600087803b158015610f3a57600080fd5b505af1158015610f4e573d6000803e3d6000fd5b505050506040513d6000823e601f3d908101601f19168201604052610f769190810190615406565b50610f808161526b565b9050610ed3565b505b6101008301516040516301ffc9a760e01b81526218026560e81b60048201526001600160a01b03909116906301ffc9a79060240160206040518083038186803b158015610fd557600080fd5b505afa158015610fe9573d6000803e3d6000fd5b505050506040513d601f19601f8201168201806040525081019061100d919061543a565b1561106b578261010001516001600160a01b03166314b84bff6040518163ffffffff1660e01b8152600401600060405180830381600087803b15801561105257600080fd5b505af1158015611066573d6000803e3d6000fd5b505050505b8260e001516001600160a01b031663e5328e066040518163ffffffff1660e01b815260040160006040518083038186803b1580156110a857600080fd5b505afa1580156110bc573d6000803e3d6000fd5b505050506040513d6000823e601f3d908101601f191682016040526110e49190810190615455565b5082604001819052508261010001516001600160a01b031663e5328e066040518163ffffffff1660e01b815260040160006040518083038186803b15801561112b57600080fd5b505afa15801561113f573d6000803e3d6000fd5b505050506040513d6000823e601f3d908101601f191682016040526111679190810190615455565b5082526040805160028082526060820183529091602083019080368337505050606083810191909152604080516002808252928101825291906020830190803683375050506080830152815180516000906111c4576111c46151b7565b602002602001015182604001516000815181106111e3576111e36151b7565b60200260200101516111f591906154b8565b826060015160008151811061120c5761120c6151b7565b602090810291909101015281518051600190811061122c5761122c6151b7565b6020026020010151826040015160018151811061124b5761124b6151b7565b602002602001015161125d91906154b8565b8260600151600181518110611274576112746151b7565b602002602001018181525050826102000151516001600160401b0381111561129e5761129e6147cb565b6040519080825280602002602001820160405280156112d157816020015b60608152602001906001900390816112bc5790505b50602083015280156115d65760005b836102000151518110156115d45760008461020001518281518110611307576113076151b7565b60200260200101516001600160a01b031663f4adc08b6040518163ffffffff1660e01b815260040160206040518083038186803b15801561134757600080fd5b505afa15801561135b573d6000803e3d6000fd5b505050506040513d601f19601f8201168201806040525081019061137f9190615392565b60405163133f757160e31b8152600481018290529091506000906001600160a01b037f000000000000000000000000000000000000000000000000000000000000000016906399fbab88906024016101806040518083038186803b1580156113e657600080fd5b505afa1580156113fa573d6000803e3d6000fd5b505050506040513d601f19601f8201168201806040525081019061141e9190615505565b505050509750505050505050508561020001518381518110611442576114426151b7565b60209081029190910101516040516303217f1d60e61b81526001600160801b03831660048201526001600160a01b039091169063c85fc7409060240160006040518083038186803b15801561149657600080fd5b505afa1580156114aa573d6000803e3d6000fd5b505050506040513d6000823e601f3d908101601f191682016040526114d29190810190615406565b856020015184815181106114e8576114e86151b7565b602002602001018190525084602001518381518110611509576115096151b7565b6020026020010151600081518110611523576115236151b7565b60200260200101518560800151600081518110611542576115426151b7565b6020026020010181815161155691906154b8565b9052506020850151805184908110611570576115706151b7565b602002602001015160018151811061158a5761158a6151b7565b602002602001015185608001516001815181106115a9576115a96151b7565b602002602001018181516115bd91906154b8565b9052506115cd915082905061526b565b90506112e0565b505b81608001516000815181106115ed576115ed6151b7565b6020026020010151826060015160008151811061160c5761160c6151b7565b6020026020010181815161162091906154b8565b90525060808201518051600190811061163b5761163b6151b7565b6020026020010151826060015160018151811061165a5761165a6151b7565b6020026020010181815161166e91906154b8565b9052509092915050565b600061168330612bd8565b60405163189acdbd60e31b81526001600160a01b0384811660048301529192509082169063c4d66de890602401600060405180830381600087803b1580156116ca57600080fd5b505af11580156116de573d6000803e3d6000fd5b50505050919050565b600061046c600080516020615d5883398151915283611a20565b60608060008061171f6001600160a01b03881680600160601b612c72565b9050600061173286600160601b84612c72565b61173c90886154b8565b6040805160028082526060820183529293506000929091602083019080368337019050509050600061176d8b612d25565b905060008061177c838d612dbe565b905061178d8582633b9aca00612c72565b91505060006117a58c84600001518560200151612ea7565b90506117b68282633b9aca00612c72565b846000815181106117c9576117c96151b7565b602002602001018181525050611809846000815181106117eb576117eb6151b7565b6020026020010151836117fe91906155e6565b87600160601b612c72565b8460018151811061181c5761181c6151b7565b6020026020010181815250505060008c6102000151600081518110611843576118436151b7565b60200260200101516001600160a01b031662f73da2856040518263ffffffff1660e01b815260040161187591906155fd565b60206040518083038186803b15801561188d57600080fd5b505afa1580156118a1573d6000803e3d6000fd5b505050506040513d601f19601f820116820180604052508101906118c59190615610565b90506118d1818e612f1b565b809550819950505050506118fc836118f28c84604001518560600151612ea7565b633b9aca00612c72565b604080516002808252606082018352929750919060208301908036833701905050965061195c82600081518110611935576119356151b7565b60200260200101518661194891906155e6565b6101a08d01516118f290633b9aca006155e6565b8760008151811061196f5761196f6151b7565b6020908102919091010152600061199461198987866155e6565b86600160601b612c72565b90506119d3836001815181106119ac576119ac6151b7565b6020026020010151826119bf91906155e6565b6101a08e01516118f290633b9aca006155e6565b886001815181106119e6576119e66151b7565b60200260200101818152505050505050509450945094915050565b6000828152600160205260408120611a1990836131d1565b9392505050565b6000918252602082815260408084206001600160a01b0393909316845291905290205460ff1690565b611a5281610af6565b50565b600081815260016020526040812061046c906131dd565b600082815260208190526040902060010154611a8781612b8a565b610c798383612bb6565b611a9b8282611a20565b610dff576000828152602081815260408083206001600160a01b03851684529091529020805460ff19166001179055611ad13390565b6001600160a01b0316816001600160a01b0316837f2f8788117e7eff1d82e926ec794901d17c78024a50270940304540a733656f0d60405160405180910390a45050565b6000611a19836001600160a01b0384166131e7565b60006001600160e01b03198216637965db0b60e01b148061046c57506301ffc9a760e01b6001600160e01b031983161461046c565b611b6833610c1c565b6040518060400160405280600381526020016223292160e91b81525090611a525760405162461bcd60e51b815260040161059c91906151a4565b6000808063ffffffff8416611bde5760405162461bcd60e51b8152602060048201526002602482015261042560f41b604482015260640161059c565b6040805160028082526060820183526000926020830190803683370190505090508481600081518110611c1357611c136151b7565b602002602001019063ffffffff16908163ffffffff1681525050600081600181518110611c4257611c426151b7565b63ffffffff9092166020928302919091019091015260405163883bdbfd60e01b81526001600160a01b0387169063883bdbfd90611c8390849060040161562b565b60006040518083038186803b158015611c9b57600080fd5b505afa925050508015611cd057506040513d6000823e601f3d908101601f19168201604052611ccd91908101906156d9565b60015b611ce557600080600193509350935050611df5565b600082600081518110611cfa57611cfa6151b7565b602002602001015183600181518110611d1557611d156151b7565b6020026020010151611d27919061579a565b9050600082600081518110611d3e57611d3e6151b7565b602002602001015183600181518110611d5957611d596151b7565b6020026020010151611d6b91906157e0565b9050611d7d63ffffffff8a1683615808565b975060008260060b128015611da35750611d9d63ffffffff8a1683615846565b60060b15155b15611db65787611db281615868565b9850505b6000611dcf6001600160a01b0363ffffffff8c1661588c565b9050611dec640100000000600160c01b03602084901b16826158bb565b97505050505050505b9250925092565b60008060006060611e0d8787610c7e565b86519194509250600284810b91900b148015611e3257508160020b856020015160020b145b60405180604001604052806004815260200163494e564160e01b81525090611e6d5760405162461bcd60e51b815260040161059c91906151a4565b508260020b876060015160020b148015611e9057508160020b876080015160020b145b15611f53578460600151516001600160401b03811115611eb257611eb26147cb565b604051908082528060200260200182016040528015611ee557816020015b6060815260200190600190039081611ed05790505b50905060005b8151811015611f4257604080516002808252606082018352909160208301908036833701905050828281518110611f2457611f246151b7565b60200260200101819052508080611f3a9061526b565b915050611eeb565b506000806000935093509350611f76565b600283810b606089015282900b6080880152611f6f8786613236565b9050600193505b93509350935093565b606081156121b75760408051600280825260608201835260009260208301908036833701905050905085600081518110611fbb57611fbb6151b7565b602002602001015185600081518110611fd657611fd66151b7565b602002602001015111156120445785600081518110611ff757611ff76151b7565b602002602001015185600081518110612012576120126151b7565b602002602001015161202491906155e6565b81600081518110612037576120376151b7565b6020026020010181815250505b85600181518110612057576120576151b7565b602002602001015185600181518110612072576120726151b7565b602002602001015111156120e05785600181518110612093576120936151b7565b6020026020010151856001815181106120ae576120ae6151b7565b60200260200101516120c091906155e6565b816001815181106120d3576120d36151b7565b6020026020010181815250505b6000816000815181106120f5576120f56151b7565b602002602001015111806121235750600081600181518110612119576121196151b7565b6020026020010151115b156121b157604051630818b5d560e21b81526001600160a01b03891690632062d75490612158908a908d9086906004016158e1565b600060405180830381600087803b15801561217257600080fd5b505af1158015612186573d6000803e3d6000fd5b505050506040513d6000823e601f3d908101601f191682016040526121ae9190810190615406565b91505b506123e3565b604080516002808252606082018352600092602083019080368337019050509050856000815181106121eb576121eb6151b7565b602002602001015185600081518110612206576122066151b7565b602002602001015110156122745784600081518110612227576122276151b7565b602002602001015186600081518110612242576122426151b7565b602002602001015161225491906155e6565b81600081518110612267576122676151b7565b6020026020010181815250505b85600181518110612287576122876151b7565b6020026020010151856001815181106122a2576122a26151b7565b6020026020010151101561231057846001815181106122c3576122c36151b7565b6020026020010151866001815181106122de576122de6151b7565b60200260200101516122f091906155e6565b81600181518110612303576123036151b7565b6020026020010181815250505b600081600081518110612325576123256151b7565b602002602001015111806123535750600081600181518110612349576123496151b7565b6020026020010151115b156123e157604051630818b5d560e21b81526001600160a01b03881690632062d75490612388908b908d9086906004016158e1565b600060405180830381600087803b1580156123a257600080fd5b505af11580156123b6573d6000803e3d6000fd5b505050506040513d6000823e601f3d908101601f191682016040526123de9190810190615406565b91505b505b805161240a5760408051600280825260608201835290916020830190803683370190505090505b6124148184613b20565b979650505050505050565b6060600061243b6001600160a01b03871680600160601b612c72565b90506000808585111561246b576001915061246461245987876155e6565b84600160601b612c72565b905061247c565b6000915061247985876155e6565b90505b80612566578660400151826001188151811061249a5761249a6151b7565b6020026020010151600014604051806040016040528060048152602001634c494d4f60e01b815250906124e05760405162461bcd60e51b815260040161059c91906151a4565b50866040015182815181106124f7576124f76151b7565b6020026020010151600014604051806040016040528060048152602001634c494d5560e01b8152509061253d5760405162461bcd60e51b815260040161059c91906151a4565b506040805160028082526060820183529091602083019080368337019050509350505050612b2c565b600087604001518360011881518110612581576125816151b7565b6020026020010151121580156125b557506000876040015183815181106125aa576125aa6151b7565b602002602001015113155b60405180604001604052806004815260200163494e564160e01b815250906125f05760405162461bcd60e51b815260040161059c91906151a4565b50606060006040518061010001604052808c6101e001518681518110612618576126186151b7565b60200260200101516001600160a01b031681526020018c6101e001518660011881518110612648576126486151b7565b60200260200101516001600160a01b031681526020018c61012001516001600160a01b031663ddca3f436040518163ffffffff1660e01b815260040160206040518083038186803b15801561269c57600080fd5b505afa1580156126b0573d6000803e3d6000fd5b505050506040513d601f19601f820116820180604052508101906126d49190615961565b62ffffff1681526020018c60e001516001600160a01b031681526020018a60c0015181526020018481526020016000815260200160006001600160a01b031681525090508a60e001516001600160a01b0316632e2f4cc28c6101e001518681518110612742576127426151b7565b602002602001015163095ea7b360e01b8e61014001518760405160200161277e9291906001600160a01b03929092168252602082015260400190565b6040516020818303038152906040526040518463ffffffff1660e01b81526004016127ab9392919061597c565b600060405180830381600087803b1580156127c557600080fd5b505af11580156127d9573d6000803e3d6000fd5b505050506040513d6000823e601f3d908101601f1916820160405261280191908101906159b0565b508a60e001516001600160a01b0316632e2f4cc28c610140015163414bf38960e01b846040516020016128349190615aa3565b6040516020818303038152906040526040518463ffffffff1660e01b81526004016128619392919061597c565b600060405180830381600087803b15801561287b57600080fd5b505af115801561288f573d6000803e3d6000fd5b505050506040513d6000823e601f3d908101601f191682016040526128b791908101906159b0565b91508a60e001516001600160a01b0316632e2f4cc28c6101e0015186815181106128e3576128e36151b7565b602002602001015163095ea7b360e01b8e610140015160006040516020016129239291906001600160a01b0392909216825260ff16602082015260400190565b6040516020818303038152906040526040518463ffffffff1660e01b81526004016129509392919061597c565b600060405180830381600087803b15801561296a57600080fd5b505af115801561297e573d6000803e3d6000fd5b505050506040513d6000823e601f3d908101601f191682016040526129a691908101906159b0565b506000828060200190518101906129bd9190615392565b9050808a6040015186600118815181106129d9576129d96151b7565b60200260200101511315604051806040016040528060048152602001634c494d5560e01b81525090612a1e5760405162461bcd60e51b815260040161059c91906151a4565b50612a2884615ab2565b8a604001518681518110612a3e57612a3e6151b7565b60200260200101511215604051806040016040528060048152602001634c494d4f60e01b81525090612a835760405162461bcd60e51b815260040161059c91906151a4565b50604080516002808252606082018352909160208301908036833701905050965080878660011881518110612aba57612aba6151b7565b6020908102919091010152612ace84615ab2565b878681518110612ae057612ae06151b7565b6020026020010181815250507fd867318aaaaad41b7a88244f59a93ce252ee2cc55cd9855e5682780e5910c5c08282604051612b1d929190615acf565b60405180910390a15050505050505b95945050505050565b610dff8282612b94565b600082815260208190526040808220600101805490849055905190918391839186917fbd79b86ffe0ab8e8776151514217cd7cacd52c909f66475c3af44e129f0b00ff9190a4505050565b611a528133613bf1565b612b9e8282611a91565b6000828152600160205260409020610c799082611b15565b612bc08282613c4a565b6000828152600160205260409020610c799082613caf565b6000763d602d80600a3d3981f3363d3d373d3d3d363d730000008260601b60e81c176000526e5af43d82803e903d91602b57fd5bf38260781b17602052603760096000f090506001600160a01b038116612c6d5760405162461bcd60e51b8152602060048201526016602482015275115490cc4c4d8dce8818dc99585d194819985a5b195960521b604482015260640161059c565b919050565b600080806000198587098587029250828110838203039150508060001415612cac5760008411612ca157600080fd5b508290049050611a19565b808411612cb857600080fd5b6000848688096000868103871696879004966002600389028118808a02820302808a02820302808a02820302808a02820302808a02820302808a02909103029181900381900460010186841190950394909402919094039290920491909117919091029150509392505050565b604080516080810182526000808252602082018190529181018290526060810191909152612d568260600151613cc4565b6001600160a01b031681526080820151612d6f90613cc4565b6001600160a01b0316602080830191909152820151612d8d90613cc4565b6001600160a01b0316604080830191909152820151612dab90613cc4565b6001600160a01b03166060820152919050565b6000611a19633b9aca00612ded846001600160a01b0316600160601b87602001516001600160a01b0316612c72565b612e1286600001516001600160a01b0316600160601b876001600160a01b0316612c72565b612e21600160601b6002615aec565b612e2b91906155e6565b612e3591906155e6565b612e5a856001600160a01b0316600160601b88606001516001600160a01b0316612c72565b612e7f87604001516001600160a01b0316600160601b886001600160a01b0316612c72565b612e8e600160601b6002615aec565b612e9891906155e6565b612ea291906155e6565b612c72565b6000612f13633b9aca00612ebb86856157e0565b6001600160a01b0316612eea866001600160a01b0316866001600160a01b0316896001600160a01b0316612c72565b87612ef6876002615b0b565b612f0091906157e0565b6001600160a01b0316612ea291906155e6565b949350505050565b6060806000805b846101c0015151811015612f6c57846101c001518181518110612f4757612f476151b7565b602002602001015182612f5a91906154b8565b9150612f658161526b565b9050612f22565b506040805160028082526060820183529091602083019080368337019050509150836101c00151516001600160401b03811115612fab57612fab6147cb565b604051908082528060200260200182016040528015612fde57816020015b6060815260200190600190039081612fc95790505b50925060005b846101c0015151811015610d7c576000856101c00151828151811061300b5761300b6151b7565b60200260200101519050806000141561302457506131c1565b600061303a82896001600160801b031686612c72565b90508661020001518381518110613053576130536151b7565b60209081029190910101516040516303217f1d60e61b81526001600160801b03831660048201526001600160a01b039091169063c85fc7409060240160006040518083038186803b1580156130a757600080fd5b505afa1580156130bb573d6000803e3d6000fd5b505050506040513d6000823e601f3d908101601f191682016040526130e39190810190615406565b8684815181106130f5576130f56151b7565b6020026020010181905250858381518110613112576131126151b7565b602002602001015160008151811061312c5761312c6151b7565b602002602001015185600081518110613147576131476151b7565b6020026020010181815161315b91906154b8565b9052508551869084908110613172576131726151b7565b602002602001015160018151811061318c5761318c6151b7565b6020026020010151856001815181106131a7576131a76151b7565b602002602001018181516131bb91906154b8565b90525050505b6131ca8161526b565b9050612fe4565b6000611a1983836140d9565b600061046c825490565b600081815260018301602052604081205461322e5750815460018181018455600084815260208082209093018490558454848252828601909352604090209190915561046c565b50600061046c565b60606132ab7f0000000000000000000000000000000000000000000000000000000000000000846102000151518561016001516132739190615aec565b856101e0015160008151811061328b5761328b6151b7565b60200260200101516001600160a01b03166141039092919063ffffffff16565b6132fe7f0000000000000000000000000000000000000000000000000000000000000000846102000151518561018001516132e69190615aec565b856101e0015160018151811061328b5761328b6151b7565b6000836102000151516001600160401b0381111561331e5761331e6147cb565b604051908082528060200260200182016040528015613347578160200160208202803683370190505b5090506000846102000151516001600160401b0381111561336a5761336a6147cb565b604051908082528060200260200182016040528015613393578160200160208202803683370190505b509050846102000151516001600160401b038111156133b4576133b46147cb565b6040519080825280602002602001820160405280156133e757816020015b60608152602001906001900390816133d25790505b50925060005b856102000151518110156139e95760008661020001518281518110613414576134146151b7565b602002602001015190506000816001600160a01b031663f4adc08b6040518163ffffffff1660e01b815260040160206040518083038186803b15801561345957600080fd5b505afa15801561346d573d6000803e3d6000fd5b505050506040513d601f19601f820116820180604052508101906134919190615392565b905080156135c65760e08801516101e08901516040516303217f1d60e61b81526001600160801b0360048201526001600160a01b03851692632062d754929091849063c85fc7409060240160006040518083038186803b1580156134f457600080fd5b505afa158015613508573d6000803e3d6000fd5b505050506040513d6000823e601f3d908101601f191682016040526135309190810190615406565b6040518463ffffffff1660e01b815260040161354e939291906158e1565b600060405180830381600087803b15801561356857600080fd5b505af115801561357c573d6000803e3d6000fd5b505050506040513d6000823e601f3d908101601f191682016040526135a49190810190615406565b8684815181106135b6576135b66151b7565b6020026020010181905250613602565b6040805160028082526060820183529091602083019080368337019050508684815181106135f6576135f66151b7565b60200260200101819052505b613642868481518110613617576136176151b7565b602002602001015188606001518581518110613635576136356151b7565b6020026020010151613b20565b60007f00000000000000000000000000000000000000000000000000000000000000006001600160a01b031663883164566040518061016001604052808c6101e00151600081518110613697576136976151b7565b60200260200101516001600160a01b031681526020018c6101e001516001815181106136c5576136c56151b7565b60200260200101516001600160a01b03168152602001866001600160a01b03166316f0115b6040518163ffffffff1660e01b815260040160206040518083038186803b15801561371457600080fd5b505afa158015613728573d6000803e3d6000fd5b505050506040513d601f19601f8201168201806040525081019061374c91906151cd565b6001600160a01b031663ddca3f436040518163ffffffff1660e01b815260040160206040518083038186803b15801561378457600080fd5b505afa158015613798573d6000803e3d6000fd5b505050506040513d601f19601f820116820180604052508101906137bc9190615961565b62ffffff1681526020018c6060015160020b81526020018c6080015160020b81526020018c610160015181526020018c610180015181526020016000815260200160008152602001306001600160a01b031681526020016000198152506040518263ffffffff1660e01b81526004016138359190615b31565b608060405180830381600087803b15801561384f57600080fd5b505af1158015613863573d6000803e3d6000fd5b505050506040513d601f19601f820116820180604052508101906138879190615bf5565b5050604051632142170760e11b81523060048201526001600160a01b038681166024830152604482018490529293507f0000000000000000000000000000000000000000000000000000000000000000909216916342842e0e9150606401600060405180830381600087803b1580156138ff57600080fd5b505af1158015613913573d6000803e3d6000fd5b505050508086858151811061392a5761392a6151b7565b602090810291909101015281156139d557604051630852cd8d60e31b8152600481018390527f00000000000000000000000000000000000000000000000000000000000000006001600160a01b0316906342966c6890602401600060405180830381600087803b15801561399d57600080fd5b505af11580156139b1573d6000803e3d6000fd5b50505050818585815181106139c8576139c86151b7565b6020026020010181815250505b505050806139e29061526b565b90506133ed565b50613a487f00000000000000000000000000000000000000000000000000000000000000006000876101e00151600081518110613a2857613a286151b7565b60200260200101516001600160a01b03166141f89092919063ffffffff16565b613a867f00000000000000000000000000000000000000000000000000000000000000006000876101e00151600181518110613a2857613a286151b7565b7f1a1a0ec0de33cc39842c8122696aac6fb82e95c2fb23b63d68b326ac99c013bd82604051613ab591906155fd565b60405180910390a1600081600081518110613ad257613ad26151b7565b60200260200101511115613b18577fb4675b27bff61f359dcf82209d6e49adcfb1687010eba84087bdce7bf16fb35181604051613b0f91906155fd565b60405180910390a15b505092915050565b8051825114604051806040016040528060048152602001631253959360e21b81525090613b605760405162461bcd60e51b815260040161059c91906151a4565b5060005b8251811015610c7957818181518110613b7f57613b7f6151b7565b6020026020010151838281518110613b9957613b996151b7565b60200260200101511015604051806040016040528060048152602001634c494d5560e01b81525090613bde5760405162461bcd60e51b815260040161059c91906151a4565b5080613be98161526b565b915050613b64565b613bfb8282611a20565b610dff57613c088161431c565b613c1383602061432e565b604051602001613c24929190615c31565b60408051601f198184030181529082905262461bcd60e51b825261059c916004016151a4565b613c548282611a20565b15610dff576000828152602081815260408083206001600160a01b0385168085529252808320805460ff1916905551339285917ff6391f5c32d9c69d2a47ea670b442974b53935d1edc7fd64eb21e047a839171b9190a45050565b6000611a19836001600160a01b0384166144c9565b60008060008360020b12613cdb578260020b613ce8565b8260020b613ce890615ab2565b9050613cf7620d89e719615248565b60020b811115613d2d5760405162461bcd60e51b81526020600482015260016024820152601560fa1b604482015260640161059c565b600060018216613d4157600160801b613d53565b6ffffcb933bd6fad37aa2d162d1a5940015b70ffffffffffffffffffffffffffffffffff1690506002821615613d92576080613d8d826ffff97272373d413259a46990580e213a615aec565b901c90505b6004821615613dbc576080613db7826ffff2e50f5f656932ef12357cf3c7fdcc615aec565b901c90505b6008821615613de6576080613de1826fffe5caca7e10e4e61c3624eaa0941cd0615aec565b901c90505b6010821615613e10576080613e0b826fffcb9843d60f6159c9db58835c926644615aec565b901c90505b6020821615613e3a576080613e35826fff973b41fa98c081472e6896dfb254c0615aec565b901c90505b6040821615613e64576080613e5f826fff2ea16466c96a3843ec78b326b52861615aec565b901c90505b6080821615613e8e576080613e89826ffe5dee046a99a2a811c461f1969c3053615aec565b901c90505b610100821615613eb9576080613eb4826ffcbe86c7900a88aedcffc83b479aa3a4615aec565b901c90505b610200821615613ee4576080613edf826ff987a7253ac413176f2b074cf7815e54615aec565b901c90505b610400821615613f0f576080613f0a826ff3392b0822b70005940c7a398e4b70f3615aec565b901c90505b610800821615613f3a576080613f35826fe7159475a2c29b7443b29c7fa6e889d9615aec565b901c90505b611000821615613f65576080613f60826fd097f3bdfd2022b8845ad8f792aa5825615aec565b901c90505b612000821615613f90576080613f8b826fa9f746462d870fdf8a65dc1f90e061e5615aec565b901c90505b614000821615613fbb576080613fb6826f70d869a156d2a1b890bb3df62baf32f7615aec565b901c90505b618000821615613fe6576080613fe1826f31be135f97d08fd981231505542fcfa6615aec565b901c90505b6201000082161561401257608061400d826f09aa508b5b7a84e1c677de54f3e99bc9615aec565b901c90505b6202000082161561403d576080614038826e5d6af8dedb81196699c329225ee604615aec565b901c90505b62040000821615614067576080614062826d2216e584f5fa1ea926041bedfe98615aec565b901c90505b6208000082161561408f57608061408a826b048a170391f7dc42444e8fa2615aec565b901c90505b60008460020b13156140aa576140a781600019615ca6565b90505b6140b964010000000082615cba565b156140c55760016140c8565b60005b612f139060ff16602083901c6154b8565b60008260000182815481106140f0576140f06151b7565b9060005260206000200154905092915050565b604051636eb1769f60e11b81523060048201526001600160a01b0383811660248301526000919085169063dd62ed3e9060440160206040518083038186803b15801561414e57600080fd5b505afa158015614162573d6000803e3d6000fd5b505050506040513d601f19601f820116820180604052508101906141869190615392565b90506141f28463095ea7b360e01b8561419f86866154b8565b6040516001600160a01b03909216602483015260448201526064015b60408051601f198184030181529190526020810180516001600160e01b03166001600160e01b0319909316929092179091526145bc565b50505050565b8015806142815750604051636eb1769f60e11b81523060048201526001600160a01b03838116602483015284169063dd62ed3e9060440160206040518083038186803b15801561424757600080fd5b505afa15801561425b573d6000803e3d6000fd5b505050506040513d601f19601f8201168201806040525081019061427f9190615392565b155b6142ec5760405162461bcd60e51b815260206004820152603660248201527f5361666545524332303a20617070726f76652066726f6d206e6f6e2d7a65726f60448201527520746f206e6f6e2d7a65726f20616c6c6f77616e636560501b606482015260840161059c565b6040516001600160a01b038316602482015260448101829052610c7990849063095ea7b360e01b906064016141bb565b606061046c6001600160a01b03831660145b6060600061433d836002615aec565b6143489060026154b8565b6001600160401b0381111561435f5761435f6147cb565b6040519080825280601f01601f191660200182016040528015614389576020820181803683370190505b509050600360fc1b816000815181106143a4576143a46151b7565b60200101906001600160f81b031916908160001a905350600f60fb1b816001815181106143d3576143d36151b7565b60200101906001600160f81b031916908160001a90535060006143f7846002615aec565b6144029060016154b8565b90505b600181111561447a576f181899199a1a9b1b9c1cb0b131b232b360811b85600f1660108110614436576144366151b7565b1a60f81b82828151811061444c5761444c6151b7565b60200101906001600160f81b031916908160001a90535060049490941c9361447381615cce565b9050614405565b508315611a195760405162461bcd60e51b815260206004820181905260248201527f537472696e67733a20686578206c656e67746820696e73756666696369656e74604482015260640161059c565b600081815260018301602052604081205480156145b25760006144ed6001836155e6565b8554909150600090614501906001906155e6565b9050818114614566576000866000018281548110614521576145216151b7565b9060005260206000200154905080876000018481548110614544576145446151b7565b6000918252602080832090910192909255918252600188019052604090208390555b855486908061457757614577615ce5565b60019003818190600052602060002001600090559055856001016000868152602001908152602001600020600090556001935050505061046c565b600091505061046c565b6000614611826040518060400160405280602081526020017f5361666545524332303a206c6f772d6c6576656c2063616c6c206661696c6564815250856001600160a01b03166146919092919063ffffffff16565b9050805160001480614632575080806020019051810190614632919061543a565b610c795760405162461bcd60e51b815260206004820152602a60248201527f5361666545524332303a204552433230206f7065726174696f6e20646964206e6044820152691bdd081cdd58d8d9595960b21b606482015260840161059c565b6060612f13848460008585600080866001600160a01b031685876040516146b89190615cfb565b60006040518083038185875af1925050503d80600081146146f5576040519150601f19603f3d011682016040523d82523d6000602084013e6146fa565b606091505b5091509150612414878383876060831561477257825161476b576001600160a01b0385163b61476b5760405162461bcd60e51b815260206004820152601d60248201527f416464726573733a2063616c6c20746f206e6f6e2d636f6e7472616374000000604482015260640161059c565b5081612f13565b612f1383838151156147875781518083602001fd5b8060405162461bcd60e51b815260040161059c91906151a4565b6000602082840312156147b357600080fd5b81356001600160e01b031981168114611a1957600080fd5b634e487b7160e01b600052604160045260246000fd5b60405161022081016001600160401b0381118282101715614804576148046147cb565b60405290565b60405160e081016001600160401b0381118282101715614804576148046147cb565b604051601f8201601f191681016001600160401b0381118282101715614854576148546147cb565b604052919050565b8060020b8114611a5257600080fd5b8035612c6d8161485c565b803563ffffffff81168114612c6d57600080fd5b6001600160a01b0381168114611a5257600080fd5b8035612c6d8161488a565b60006001600160401b038211156148c3576148c36147cb565b5060051b60200190565b600082601f8301126148de57600080fd5b813560206148f36148ee836148aa565b61482c565b82815260059290921b8401810191818101908684111561491257600080fd5b8286015b8481101561492d5780358352918301918301614916565b509695505050505050565b600082601f83011261494957600080fd5b813560206149596148ee836148aa565b82815260059290921b8401810191818101908684111561497857600080fd5b8286015b8481101561492d57803561498f8161488a565b835291830191830161497c565b600082601f8301126149ad57600080fd5b813560206149bd6148ee836148aa565b82815260059290921b840181019181810190868411156149dc57600080fd5b8286015b8481101561492d5780356149f38161488a565b83529183019183016149e0565b60006102208284031215614a1357600080fd5b614a1b6147e1565b9050614a268261486b565b8152614a346020830161486b565b6020820152614a456040830161486b565b6040820152614a566060830161486b565b6060820152614a676080830161486b565b6080820152614a7860a0830161486b565b60a0820152614a8960c08301614876565b60c0820152614a9a60e0830161489f565b60e0820152610100614aad81840161489f565b90820152610120614abf83820161489f565b90820152610140614ad183820161489f565b90820152610160828101359082015261018080830135908201526101a080830135908201526101c0808301356001600160401b0380821115614b1257600080fd5b614b1e868387016148cd565b838501526101e0925082850135915080821115614b3a57600080fd5b614b4686838701614938565b83850152610200925082850135915080821115614b6257600080fd5b50614b6f8582860161499c565b82840152505092915050565b600082601f830112614b8c57600080fd5b81356020614b9c6148ee836148aa565b82815260059290921b84018101918181019086841115614bbb57600080fd5b8286015b8481101561492d5780356001600160401b03811115614bde5760008081fd5b614bec8986838b01016148cd565b845250918301918301614bbf565b60008060408385031215614c0d57600080fd5b82356001600160401b0380821115614c2457600080fd5b614c3086838701614a00565b93506020850135915080821115614c4657600080fd5b9084019060e08287031215614c5a57600080fd5b614c6261480a565b614c6b8361486b565b8152614c796020840161486b565b6020820152604083013582811115614c9057600080fd5b614c9c888286016148cd565b604083015250606083013582811115614cb457600080fd5b614cc088828601614b7b565b606083015250608083013582811115614cd857600080fd5b614ce488828601614b7b565b60808301525060a083013582811115614cfc57600080fd5b614d0888828601614b7b565b60a08301525060c083013560c08201528093505050509250929050565b600081518084526020808501945080840160005b83811015614d5557815187529582019590820190600101614d39565b509495945050505050565b600081518084526020808501808196508360051b8101915082860160005b85811015614da8578284038952614d96848351614d25565b98850198935090840190600101614d7e565b5091979650505050505050565b60208152815160020b602082015260006020830151614dd9604084018260020b9052565b50604083015160e06060840152614df4610100840182614d25565b90506060840151601f1980858403016080860152614e128383614d60565b925060808601519150808584030160a0860152614e2f8383614d60565b925060a08601519150808584030160c086015250614e4d8282614d60565b91505060c084015160e08401528091505092915050565b600060208284031215614e7657600080fd5b8135611a198161488a565b600060208284031215614e9357600080fd5b5035919050565b60008060408385031215614ead57600080fd5b823591506020830135614ebf8161488a565b809150509250929050565b60008060408385031215614edd57600080fd5b82356001600160401b03811115614ef357600080fd5b614eff85828601614a00565b9250506020830135614ebf8161485c565b600060208284031215614f2257600080fd5b81356001600160401b03811115614f3857600080fd5b612f1384828501614a00565b602081526000825160a06020840152614f6060c0840182614d25565b90506020840151601f1980858403016040860152614f7e8383614d60565b92506040860151915080858403016060860152614f9b8383614d25565b92506060860151915080858403016080860152614fb88383614d25565b925060808601519150808584030160a086015250612b2c8282614d25565b60008060008060808587031215614fec57600080fd5b84356001600160401b0381111561500257600080fd5b61500e87828801614a00565b945050602085013561501f8161488a565b93969395505050506040820135916060013590565b6060815260006150476060830186614d25565b82810360208401526150598186614d60565b915050826040830152949350505050565b6000806040838503121561507d57600080fd5b50508035926020909101359150565b8051612c6d8161485c565b805161ffff81168114612c6d57600080fd5b80518015158114612c6d57600080fd5b600080600080600080600060e0888a0312156150d457600080fd5b87516150df8161488a565b60208901519097506150f08161485c565b95506150fe60408901615097565b945061510c60608901615097565b935061511a60808901615097565b925060a088015160ff8116811461513057600080fd5b915061513e60c089016150a9565b905092959891949750929550565b60005b8381101561516757818101518382015260200161514f565b838111156141f25750506000910152565b6000815180845261519081602086016020860161514c565b601f01601f19169290920160200192915050565b602081526000611a196020830184615178565b634e487b7160e01b600052603260045260246000fd5b6000602082840312156151df57600080fd5b8151611a198161488a565b634e487b7160e01b600052601160045260246000fd5b60008160020b8360020b6000811281627fffff1901831281151615615227576152276151ea565b81627fffff01831381161561523e5761523e6151ea565b5090039392505050565b60008160020b627fffff19811415615262576152626151ea565b60000392915050565b600060001982141561527f5761527f6151ea565b5060010190565b634e487b7160e01b600052601260045260246000fd5b60008260020b806152af576152af615286565b808360020b0791505092915050565b60008160020b8360020b6000821282627fffff038213811516156152e4576152e46151ea565b82627fffff190382128116156152fc576152fc6151ea565b50019392505050565b60008160020b8360020b627fffff600082136000841383830485118282161615615331576153316151ea565b627fffff196000851282811687830587121615615350576153506151ea565b6000871292508582058712848416161561536c5761536c6151ea565b85850587128184161615615382576153826151ea565b5050509290910295945050505050565b6000602082840312156153a457600080fd5b5051919050565b600082601f8301126153bc57600080fd5b815160206153cc6148ee836148aa565b82815260059290921b840181019181810190868411156153eb57600080fd5b8286015b8481101561492d57805183529183019183016153ef565b60006020828403121561541857600080fd5b81516001600160401b0381111561542e57600080fd5b612f13848285016153ab565b60006020828403121561544c57600080fd5b611a19826150a9565b6000806040838503121561546857600080fd5b82516001600160401b038082111561547f57600080fd5b61548b868387016153ab565b935060208501519150808211156154a157600080fd5b506154ae858286016153ab565b9150509250929050565b600082198211156154cb576154cb6151ea565b500190565b8051612c6d8161488a565b805162ffffff81168114612c6d57600080fd5b80516001600160801b0381168114612c6d57600080fd5b6000806000806000806000806000806000806101808d8f03121561552857600080fd5b8c516bffffffffffffffffffffffff8116811461554457600080fd5b9b5061555260208e016154d0565b9a5061556060408e016154d0565b995061556e60608e016154d0565b985061557c60808e016154db565b975061558a60a08e0161508c565b965061559860c08e0161508c565b95506155a660e08e016154ee565b94506101008d015193506101208d015192506155c56101408e016154ee565b91506155d46101608e016154ee565b90509295989b509295989b509295989b565b6000828210156155f8576155f86151ea565b500390565b602081526000611a196020830184614d25565b60006020828403121561562257600080fd5b611a19826154ee565b6020808252825182820181905260009190848201906040850190845b8181101561566957835163ffffffff1683529284019291840191600101615647565b50909695505050505050565b600082601f83011261568657600080fd5b815160206156966148ee836148aa565b82815260059290921b840181019181810190868411156156b557600080fd5b8286015b8481101561492d5780516156cc8161488a565b83529183019183016156b9565b600080604083850312156156ec57600080fd5b82516001600160401b038082111561570357600080fd5b818501915085601f83011261571757600080fd5b815160206157276148ee836148aa565b82815260059290921b8401810191818101908984111561574657600080fd5b948201945b838610156157745785518060060b81146157655760008081fd5b8252948201949082019061574b565b9188015191965090935050508082111561578d57600080fd5b506154ae85828601615675565b60008160060b8360060b6000811281667fffffffffffff19018312811516156157c5576157c56151ea565b81667fffffffffffff01831381161561523e5761523e6151ea565b60006001600160a01b0383811690831681811015615800576158006151ea565b039392505050565b60008160060b8360060b8061581f5761581f615286565b667fffffffffffff1982146000198214161561583d5761583d6151ea565b90059392505050565b60008260060b8061585957615859615286565b808360060b0791505092915050565b60008160020b627fffff19811415615882576158826151ea565b6000190192915050565b60006001600160c01b03828116848216811515828404821116156158b2576158b26151ea565b02949350505050565b60006001600160c01b03838116806158d5576158d5615286565b92169190910492915050565b6001600160a01b0384811682526080602080840182905285519184018290526000928682019290919060a0860190855b8181101561592f578551851683529483019491830191600101615911565b505085810360408701526159438188614d25565b86810360609097019690965250600085529093019695505050505050565b60006020828403121561597357600080fd5b611a19826154db565b6001600160a01b03841681526001600160e01b031983166020820152606060408201819052600090612b2c90830184615178565b6000602082840312156159c257600080fd5b81516001600160401b03808211156159d957600080fd5b818401915084601f8301126159ed57600080fd5b8151818111156159ff576159ff6147cb565b615a12601f8201601f191660200161482c565b9150808252856020828501011115615a2957600080fd5b615a3a81602084016020860161514c565b50949350505050565b80516001600160a01b03908116835260208083015182169084015260408083015162ffffff16908401526060808301518216908401526080808301519084015260a0828101519084015260c0808301519084015260e09182015116910152565b610100810161046c8284615a43565b6000600160ff1b821415615ac857615ac86151ea565b5060000390565b6101208101615ade8285615a43565b826101008301529392505050565b6000816000190483118215151615615b0657615b066151ea565b500290565b60006001600160a01b03828116848216811515828404821116156158b2576158b26151ea565b81516001600160a01b0316815261016081016020830151615b5d60208401826001600160a01b03169052565b506040830151615b74604084018262ffffff169052565b506060830151615b89606084018260020b9052565b506080830151615b9e608084018260020b9052565b5060a083015160a083015260c083015160c083015260e083015160e083015261010080840151818401525061012080840151615be4828501826001600160a01b03169052565b505061014092830151919092015290565b60008060008060808587031215615c0b57600080fd5b84519350615c1b602086016154ee565b6040860151606090960151949790965092505050565b7f416363657373436f6e74726f6c3a206163636f756e7420000000000000000000815260008351615c6981601785016020880161514c565b7001034b99036b4b9b9b4b733903937b6329607d1b6017918401918201528351615c9a81602884016020880161514c565b01602801949350505050565b600082615cb557615cb5615286565b500490565b600082615cc957615cc9615286565b500690565b600081615cdd57615cdd6151ea565b506000190190565b634e487b7160e01b600052603160045260246000fd5b60008251615d0d81846020870161514c565b919091019291505056fec171260023d22a25a00a2789664c9334017843b831138c8ef03cc8897e5873d7f23ec0bb4210edd5cba85afd05127efcd2fc6a781bfed49188da1081670b22d846a52cf33029de9f84853745a87af28464c80bf0346df1b32e205fc73319f622a26469706673582212208e17af73fe34e27dc4698a119ab106d755a26c27e59bf8333174231ff79a55cf64736f6c63430008090033f23ec0bb4210edd5cba85afd05127efcd2fc6a781bfed49188da1081670b22d846a52cf33029de9f84853745a87af28464c80bf0346df1b32e205fc73319f622",
    "linkReferences": {}
  },
  "methodIdentifiers": {
    "ADMIN_DELEGATE_ROLE()": "0952ff54",
    "ADMIN_ROLE()": "75b238fc",
    "APPROVE_SELECTOR()": "a0865839",
    "DEFAULT_ADMIN_ROLE()": "a217fddf",
    "DENOMINATOR()": "918f8674",
    "EXACT_INPUT_SINGLE_SELECTOR()": "feca4a1d",
    "OPERATOR()": "983d2737",
    "Q96()": "40792465",
    "calculateExpectedAmounts((int24,int24,int24,int24,int24,int24,uint32,address,address,address,address,uint256,uint256,uint256,uint256[],address[],address[]),uint160,uint256,uint256)": "804abc5a",
    "calculateNewPosition((int24,int24,int24,int24,int24,int24,uint32,address,address,address,address,uint256,uint256,uint256,uint256[],address[],address[]),int24)": "322dba77",
    "createRebalancer(address)": "58dad965",
    "getRoleAdmin(bytes32)": "248a9ca3",
    "getRoleMember(bytes32,uint256)": "9010d07c",
    "getRoleMemberCount(bytes32)": "ca15c873",
    "getTvls((int24,int24,int24,int24,int24,int24,uint32,address,address,address,address,uint256,uint256,uint256,uint256[],address[],address[]))": "43582de2",
    "grantRole(bytes32,address)": "2f2ff15d",
    "hasRole(bytes32,address)": "91d14854",
    "init(address)": "19ab453c",
    "initialize(address)": "c4d66de8",
    "initialized()": "158ef93e",
    "isAdmin(address)": "24d7806c",
    "isOperator(address)": "6d70f7ae",
    "positionManager()": "791b98bc",
    "processRebalance((int24,int24,int24,int24,int24,int24,uint32,address,address,address,address,uint256,uint256,uint256,uint256[],address[],address[]),(int24,int24,int256[],uint256[][],uint256[][],uint256[][],uint256))": "098f319b",
    "renounceRole(bytes32,address)": "36568abe",
    "revokeRole(bytes32,address)": "d547741f",
    "supportsInterface(bytes4)": "01ffc9a7"
  },
  "id": 425
}