{
  "abi": [
    {
      "inputs": [
        {
          "internalType": "contract INonfungiblePositionManager",
          "name": "positionManager_",
          "type": "address"
        }
      ],
      "stateMutability": "nonpayable",
      "type": "constructor"
    },
    {
      "anonymous": false,
      "inputs": [
        {
          "indexed": false,
          "internalType": "uint256",
          "name": "tokenId",
          "type": "uint256"
        }
      ],
      "name": "PositionBurned",
      "type": "event"
    },
    {
      "anonymous": false,
      "inputs": [
        {
          "indexed": false,
          "internalType": "uint256",
          "name": "tokenId",
          "type": "uint256"
        }
      ],
      "name": "PositionMinted",
      "type": "event"
    },
    {
      "anonymous": false,
      "inputs": [
        {
          "indexed": true,
          "internalType": "address",
          "name": "origin",
          "type": "address"
        },
        {
          "indexed": true,
          "internalType": "address",
          "name": "sender",
          "type": "address"
        }
      ],
      "name": "Rebalance",
      "type": "event"
    },
    {
      "anonymous": false,
      "inputs": [
        {
          "indexed": true,
          "internalType": "bytes32",
          "name": "role",
          "type": "bytes32"
        },
        {
          "indexed": true,
          "internalType": "bytes32",
          "name": "previousAdminRole",
          "type": "bytes32"
        },
        {
          "indexed": true,
          "internalType": "bytes32",
          "name": "newAdminRole",
          "type": "bytes32"
        }
      ],
      "name": "RoleAdminChanged",
      "type": "event"
    },
    {
      "anonymous": false,
      "inputs": [
        {
          "indexed": true,
          "internalType": "bytes32",
          "name": "role",
          "type": "bytes32"
        },
        {
          "indexed": true,
          "internalType": "address",
          "name": "account",
          "type": "address"
        },
        {
          "indexed": true,
          "internalType": "address",
          "name": "sender",
          "type": "address"
        }
      ],
      "name": "RoleGranted",
      "type": "event"
    },
    {
      "anonymous": false,
      "inputs": [
        {
          "indexed": true,
          "internalType": "bytes32",
          "name": "role",
          "type": "bytes32"
        },
        {
          "indexed": true,
          "internalType": "address",
          "name": "account",
          "type": "address"
        },
        {
          "indexed": true,
          "internalType": "address",
          "name": "sender",
          "type": "address"
        }
      ],
      "name": "RoleRevoked",
      "type": "event"
    },
    {
      "anonymous": false,
      "inputs": [
        {
          "components": [
            {
              "internalType": "bytes",
              "name": "path",
              "type": "bytes"
            },
            {
              "internalType": "address",
              "name": "recipient",
              "type": "address"
            },
            {
              "internalType": "uint256",
              "name": "deadline",
              "type": "uint256"
            },
            {
              "internalType": "uint256",
              "name": "amountIn",
              "type": "uint256"
            },
            {
              "internalType": "uint256",
              "name": "amountOutMinimum",
              "type": "uint256"
            }
          ],
          "indexed": false,
          "internalType": "struct ISwapRouter.ExactInputParams",
          "name": "swapParams",
          "type": "tuple"
        },
        {
          "indexed": false,
          "internalType": "uint256",
          "name": "amountOut",
          "type": "uint256"
        }
      ],
      "name": "TokensSwapped",
      "type": "event"
    },
    {
      "anonymous": false,
      "inputs": [
        {
          "indexed": true,
          "internalType": "address",
          "name": "origin",
          "type": "address"
        },
        {
          "indexed": true,
          "internalType": "address",
          "name": "sender",
          "type": "address"
        },
        {
          "components": [
            {
              "internalType": "uint24",
              "name": "feeTierOfPoolOfAuxiliaryAnd0Tokens",
              "type": "uint24"
            },
            {
              "internalType": "uint24",
              "name": "feeTierOfPoolOfAuxiliaryAnd1Tokens",
              "type": "uint24"
            },
            {
              "internalType": "int24",
              "name": "priceImpactD6",
              "type": "int24"
            },
            {
              "internalType": "int24",
              "name": "intervalWidth",
              "type": "int24"
            },
            {
              "internalType": "int24",
              "name": "tickNeighborhood",
              "type": "int24"
            },
            {
              "internalType": "int24",
              "name": "maxDeviationForVaultPool",
              "type": "int24"
            },
            {
              "internalType": "int24",
              "name": "maxDeviationForPoolOfAuxiliaryAnd0Tokens",
              "type": "int24"
            },
            {
              "internalType": "int24",
              "name": "maxDeviationForPoolOfAuxiliaryAnd1Tokens",
              "type": "int24"
            },
            {
              "internalType": "uint32",
              "name": "timespanForAverageTick",
              "type": "uint32"
            },
            {
              "internalType": "address",
              "name": "auxiliaryToken",
              "type": "address"
            },
            {
              "internalType": "uint256",
              "name": "amount0Desired",
              "type": "uint256"
            },
            {
              "internalType": "uint256",
              "name": "amount1Desired",
              "type": "uint256"
            },
            {
              "internalType": "uint256",
              "name": "swapSlippageD",
              "type": "uint256"
            },
            {
              "internalType": "uint256[]",
              "name": "minSwapAmounts",
              "type": "uint256[]"
            }
          ],
          "indexed": false,
          "internalType": "struct SinglePositionStrategy.MutableParams",
          "name": "mutableParams",
          "type": "tuple"
        }
      ],
      "name": "UpdateMutableParams",
      "type": "event"
    },
    {
      "inputs": [],
      "name": "ADMIN_DELEGATE_ROLE",
      "outputs": [
        {
          "internalType": "bytes32",
          "name": "",
          "type": "bytes32"
        }
      ],
      "stateMutability": "view",
      "type": "function"
    },
    {
      "inputs": [],
      "name": "ADMIN_ROLE",
      "outputs": [
        {
          "internalType": "bytes32",
          "name": "",
          "type": "bytes32"
        }
      ],
      "stateMutability": "view",
      "type": "function"
    },
    {
      "inputs": [],
      "name": "D6",
      "outputs": [
        {
          "internalType": "uint256",
          "name": "",
          "type": "uint256"
        }
      ],
      "stateMutability": "view",
      "type": "function"
    },
    {
      "inputs": [],
      "name": "DEFAULT_ADMIN_ROLE",
      "outputs": [
        {
          "internalType": "bytes32",
          "name": "",
          "type": "bytes32"
        }
      ],
      "stateMutability": "view",
      "type": "function"
    },
    {
      "inputs": [],
      "name": "DENOMINATOR",
      "outputs": [
        {
          "internalType": "uint256",
          "name": "",
          "type": "uint256"
        }
      ],
      "stateMutability": "view",
      "type": "function"
    },
    {
      "inputs": [],
      "name": "MAX_MINTING_PARAMS",
      "outputs": [
        {
          "internalType": "uint256",
          "name": "",
          "type": "uint256"
        }
      ],
      "stateMutability": "view",
      "type": "function"
    },
    {
      "inputs": [],
      "name": "OPERATOR",
      "outputs": [
        {
          "internalType": "bytes32",
          "name": "",
          "type": "bytes32"
        }
      ],
      "stateMutability": "view",
      "type": "function"
    },
    {
      "inputs": [],
      "name": "Q96",
      "outputs": [
        {
          "internalType": "uint256",
          "name": "",
          "type": "uint256"
        }
      ],
      "stateMutability": "view",
      "type": "function"
    },
    {
      "inputs": [
        {
          "components": [
            {
              "internalType": "address",
              "name": "router",
              "type": "address"
            },
            {
              "internalType": "contract IERC20Vault",
              "name": "erc20Vault",
              "type": "address"
            },
            {
              "internalType": "contract IUniV3Vault",
              "name": "uniV3Vault",
              "type": "address"
            },
            {
              "internalType": "address[]",
              "name": "tokens",
              "type": "address[]"
            }
          ],
          "internalType": "struct SinglePositionStrategy.ImmutableParams",
          "name": "immutableParams_",
          "type": "tuple"
        },
        {
          "components": [
            {
              "internalType": "uint24",
              "name": "feeTierOfPoolOfAuxiliaryAnd0Tokens",
              "type": "uint24"
            },
            {
              "internalType": "uint24",
              "name": "feeTierOfPoolOfAuxiliaryAnd1Tokens",
              "type": "uint24"
            },
            {
              "internalType": "int24",
              "name": "priceImpactD6",
              "type": "int24"
            },
            {
              "internalType": "int24",
              "name": "intervalWidth",
              "type": "int24"
            },
            {
              "internalType": "int24",
              "name": "tickNeighborhood",
              "type": "int24"
            },
            {
              "internalType": "int24",
              "name": "maxDeviationForVaultPool",
              "type": "int24"
            },
            {
              "internalType": "int24",
              "name": "maxDeviationForPoolOfAuxiliaryAnd0Tokens",
              "type": "int24"
            },
            {
              "internalType": "int24",
              "name": "maxDeviationForPoolOfAuxiliaryAnd1Tokens",
              "type": "int24"
            },
            {
              "internalType": "uint32",
              "name": "timespanForAverageTick",
              "type": "uint32"
            },
            {
              "internalType": "address",
              "name": "auxiliaryToken",
              "type": "address"
            },
            {
              "internalType": "uint256",
              "name": "amount0Desired",
              "type": "uint256"
            },
            {
              "internalType": "uint256",
              "name": "amount1Desired",
              "type": "uint256"
            },
            {
              "internalType": "uint256",
              "name": "swapSlippageD",
              "type": "uint256"
            },
            {
              "internalType": "uint256[]",
              "name": "minSwapAmounts",
              "type": "uint256[]"
            }
          ],
          "internalType": "struct SinglePositionStrategy.MutableParams",
          "name": "mutableParams_",
          "type": "tuple"
        },
        {
          "internalType": "uint256",
          "name": "priceX96",
          "type": "uint256"
        },
        {
          "internalType": "uint256",
          "name": "targetRatioOfToken1X96",
          "type": "uint256"
        }
      ],
      "name": "calculateAmountsForSwap",
      "outputs": [
        {
          "internalType": "uint256",
          "name": "tokenInIndex",
          "type": "uint256"
        },
        {
          "internalType": "uint256",
          "name": "amountIn",
          "type": "uint256"
        }
      ],
      "stateMutability": "view",
      "type": "function"
    },
    {
      "inputs": [
        {
          "components": [
            {
              "internalType": "uint24",
              "name": "feeTierOfPoolOfAuxiliaryAnd0Tokens",
              "type": "uint24"
            },
            {
              "internalType": "uint24",
              "name": "feeTierOfPoolOfAuxiliaryAnd1Tokens",
              "type": "uint24"
            },
            {
              "internalType": "int24",
              "name": "priceImpactD6",
              "type": "int24"
            },
            {
              "internalType": "int24",
              "name": "intervalWidth",
              "type": "int24"
            },
            {
              "internalType": "int24",
              "name": "tickNeighborhood",
              "type": "int24"
            },
            {
              "internalType": "int24",
              "name": "maxDeviationForVaultPool",
              "type": "int24"
            },
            {
              "internalType": "int24",
              "name": "maxDeviationForPoolOfAuxiliaryAnd0Tokens",
              "type": "int24"
            },
            {
              "internalType": "int24",
              "name": "maxDeviationForPoolOfAuxiliaryAnd1Tokens",
              "type": "int24"
            },
            {
              "internalType": "uint32",
              "name": "timespanForAverageTick",
              "type": "uint32"
            },
            {
              "internalType": "address",
              "name": "auxiliaryToken",
              "type": "address"
            },
            {
              "internalType": "uint256",
              "name": "amount0Desired",
              "type": "uint256"
            },
            {
              "internalType": "uint256",
              "name": "amount1Desired",
              "type": "uint256"
            },
            {
              "internalType": "uint256",
              "name": "swapSlippageD",
              "type": "uint256"
            },
            {
              "internalType": "uint256[]",
              "name": "minSwapAmounts",
              "type": "uint256[]"
            }
          ],
          "internalType": "struct SinglePositionStrategy.MutableParams",
          "name": "mutableParams_",
          "type": "tuple"
        },
        {
          "internalType": "int24",
          "name": "tick",
          "type": "int24"
        },
        {
          "internalType": "contract IUniswapV3Pool",
          "name": "pool",
          "type": "address"
        }
      ],
      "name": "calculateNewInterval",
      "outputs": [
        {
          "internalType": "int24",
          "name": "lowerTick",
          "type": "int24"
        },
        {
          "internalType": "int24",
          "name": "upperTick",
          "type": "int24"
        }
      ],
      "stateMutability": "view",
      "type": "function"
    },
    {
      "inputs": [
        {
          "components": [
            {
              "internalType": "int24",
              "name": "lowerTick",
              "type": "int24"
            },
            {
              "internalType": "int24",
              "name": "upperTick",
              "type": "int24"
            }
          ],
          "internalType": "struct SinglePositionStrategy.Interval",
          "name": "interval",
          "type": "tuple"
        },
        {
          "internalType": "uint160",
          "name": "sqrtSpotPriceX96",
          "type": "uint160"
        },
        {
          "internalType": "uint256",
          "name": "spotPriceX96",
          "type": "uint256"
        }
      ],
      "name": "calculateTargetRatioOfToken1",
      "outputs": [
        {
          "internalType": "uint256",
          "name": "targetRatioOfToken1X96",
          "type": "uint256"
        }
      ],
      "stateMutability": "pure",
      "type": "function"
    },
    {
      "inputs": [
        {
          "components": [
            {
              "internalType": "address",
              "name": "router",
              "type": "address"
            },
            {
              "internalType": "contract IERC20Vault",
              "name": "erc20Vault",
              "type": "address"
            },
            {
              "internalType": "contract IUniV3Vault",
              "name": "uniV3Vault",
              "type": "address"
            },
            {
              "internalType": "address[]",
              "name": "tokens",
              "type": "address[]"
            }
          ],
          "internalType": "struct SinglePositionStrategy.ImmutableParams",
          "name": "params",
          "type": "tuple"
        }
      ],
      "name": "checkImmutableParams",
      "outputs": [],
      "stateMutability": "view",
      "type": "function"
    },
    {
      "inputs": [
        {
          "components": [
            {
              "internalType": "uint24",
              "name": "feeTierOfPoolOfAuxiliaryAnd0Tokens",
              "type": "uint24"
            },
            {
              "internalType": "uint24",
              "name": "feeTierOfPoolOfAuxiliaryAnd1Tokens",
              "type": "uint24"
            },
            {
              "internalType": "int24",
              "name": "priceImpactD6",
              "type": "int24"
            },
            {
              "internalType": "int24",
              "name": "intervalWidth",
              "type": "int24"
            },
            {
              "internalType": "int24",
              "name": "tickNeighborhood",
              "type": "int24"
            },
            {
              "internalType": "int24",
              "name": "maxDeviationForVaultPool",
              "type": "int24"
            },
            {
              "internalType": "int24",
              "name": "maxDeviationForPoolOfAuxiliaryAnd0Tokens",
              "type": "int24"
            },
            {
              "internalType": "int24",
              "name": "maxDeviationForPoolOfAuxiliaryAnd1Tokens",
              "type": "int24"
            },
            {
              "internalType": "uint32",
              "name": "timespanForAverageTick",
              "type": "uint32"
            },
            {
              "internalType": "address",
              "name": "auxiliaryToken",
              "type": "address"
            },
            {
              "internalType": "uint256",
              "name": "amount0Desired",
              "type": "uint256"
            },
            {
              "internalType": "uint256",
              "name": "amount1Desired",
              "type": "uint256"
            },
            {
              "internalType": "uint256",
              "name": "swapSlippageD",
              "type": "uint256"
            },
            {
              "internalType": "uint256[]",
              "name": "minSwapAmounts",
              "type": "uint256[]"
            }
          ],
          "internalType": "struct SinglePositionStrategy.MutableParams",
          "name": "params",
          "type": "tuple"
        },
        {
          "components": [
            {
              "internalType": "address",
              "name": "router",
              "type": "address"
            },
            {
              "internalType": "contract IERC20Vault",
              "name": "erc20Vault",
              "type": "address"
            },
            {
              "internalType": "contract IUniV3Vault",
              "name": "uniV3Vault",
              "type": "address"
            },
            {
              "internalType": "address[]",
              "name": "tokens",
              "type": "address[]"
            }
          ],
          "internalType": "struct SinglePositionStrategy.ImmutableParams",
          "name": "immutableParams_",
          "type": "tuple"
        }
      ],
      "name": "checkMutableParams",
      "outputs": [],
      "stateMutability": "view",
      "type": "function"
    },
    {
      "inputs": [
        {
          "components": [
            {
              "internalType": "address",
              "name": "router",
              "type": "address"
            },
            {
              "internalType": "contract IERC20Vault",
              "name": "erc20Vault",
              "type": "address"
            },
            {
              "internalType": "contract IUniV3Vault",
              "name": "uniV3Vault",
              "type": "address"
            },
            {
              "internalType": "address[]",
              "name": "tokens",
              "type": "address[]"
            }
          ],
          "internalType": "struct SinglePositionStrategy.ImmutableParams",
          "name": "immutableParams_",
          "type": "tuple"
        },
        {
          "components": [
            {
              "internalType": "uint24",
              "name": "feeTierOfPoolOfAuxiliaryAnd0Tokens",
              "type": "uint24"
            },
            {
              "internalType": "uint24",
              "name": "feeTierOfPoolOfAuxiliaryAnd1Tokens",
              "type": "uint24"
            },
            {
              "internalType": "int24",
              "name": "priceImpactD6",
              "type": "int24"
            },
            {
              "internalType": "int24",
              "name": "intervalWidth",
              "type": "int24"
            },
            {
              "internalType": "int24",
              "name": "tickNeighborhood",
              "type": "int24"
            },
            {
              "internalType": "int24",
              "name": "maxDeviationForVaultPool",
              "type": "int24"
            },
            {
              "internalType": "int24",
              "name": "maxDeviationForPoolOfAuxiliaryAnd0Tokens",
              "type": "int24"
            },
            {
              "internalType": "int24",
              "name": "maxDeviationForPoolOfAuxiliaryAnd1Tokens",
              "type": "int24"
            },
            {
              "internalType": "uint32",
              "name": "timespanForAverageTick",
              "type": "uint32"
            },
            {
              "internalType": "address",
              "name": "auxiliaryToken",
              "type": "address"
            },
            {
              "internalType": "uint256",
              "name": "amount0Desired",
              "type": "uint256"
            },
            {
              "internalType": "uint256",
              "name": "amount1Desired",
              "type": "uint256"
            },
            {
              "internalType": "uint256",
              "name": "swapSlippageD",
              "type": "uint256"
            },
            {
              "internalType": "uint256[]",
              "name": "minSwapAmounts",
              "type": "uint256[]"
            }
          ],
          "internalType": "struct SinglePositionStrategy.MutableParams",
          "name": "mutableParams_",
          "type": "tuple"
        },
        {
          "internalType": "contract IUniswapV3Pool",
          "name": "vaultPool",
          "type": "address"
        }
      ],
      "name": "checkTickDeviations",
      "outputs": [],
      "stateMutability": "view",
      "type": "function"
    },
    {
      "inputs": [],
      "name": "contractName",
      "outputs": [
        {
          "internalType": "string",
          "name": "",
          "type": "string"
        }
      ],
      "stateMutability": "pure",
      "type": "function"
    },
    {
      "inputs": [],
      "name": "contractNameBytes",
      "outputs": [
        {
          "internalType": "bytes32",
          "name": "",
          "type": "bytes32"
        }
      ],
      "stateMutability": "pure",
      "type": "function"
    },
    {
      "inputs": [],
      "name": "contractVersion",
      "outputs": [
        {
          "internalType": "string",
          "name": "",
          "type": "string"
        }
      ],
      "stateMutability": "pure",
      "type": "function"
    },
    {
      "inputs": [],
      "name": "contractVersionBytes",
      "outputs": [
        {
          "internalType": "bytes32",
          "name": "",
          "type": "bytes32"
        }
      ],
      "stateMutability": "pure",
      "type": "function"
    },
    {
      "inputs": [],
      "name": "depositCallback",
      "outputs": [],
      "stateMutability": "nonpayable",
      "type": "function"
    },
    {
      "inputs": [
        {
          "internalType": "bytes32",
          "name": "role",
          "type": "bytes32"
        }
      ],
      "name": "getRoleAdmin",
      "outputs": [
        {
          "internalType": "bytes32",
          "name": "",
          "type": "bytes32"
        }
      ],
      "stateMutability": "view",
      "type": "function"
    },
    {
      "inputs": [
        {
          "internalType": "bytes32",
          "name": "role",
          "type": "bytes32"
        },
        {
          "internalType": "uint256",
          "name": "index",
          "type": "uint256"
        }
      ],
      "name": "getRoleMember",
      "outputs": [
        {
          "internalType": "address",
          "name": "",
          "type": "address"
        }
      ],
      "stateMutability": "view",
      "type": "function"
    },
    {
      "inputs": [
        {
          "internalType": "bytes32",
          "name": "role",
          "type": "bytes32"
        }
      ],
      "name": "getRoleMemberCount",
      "outputs": [
        {
          "internalType": "uint256",
          "name": "",
          "type": "uint256"
        }
      ],
      "stateMutability": "view",
      "type": "function"
    },
    {
      "inputs": [
        {
          "internalType": "bytes32",
          "name": "role",
          "type": "bytes32"
        },
        {
          "internalType": "address",
          "name": "account",
          "type": "address"
        }
      ],
      "name": "grantRole",
      "outputs": [],
      "stateMutability": "nonpayable",
      "type": "function"
    },
    {
      "inputs": [
        {
          "internalType": "bytes32",
          "name": "role",
          "type": "bytes32"
        },
        {
          "internalType": "address",
          "name": "account",
          "type": "address"
        }
      ],
      "name": "hasRole",
      "outputs": [
        {
          "internalType": "bool",
          "name": "",
          "type": "bool"
        }
      ],
      "stateMutability": "view",
      "type": "function"
    },
    {
      "inputs": [],
      "name": "immutableParams",
      "outputs": [
        {
          "internalType": "address",
          "name": "router",
          "type": "address"
        },
        {
          "internalType": "contract IERC20Vault",
          "name": "erc20Vault",
          "type": "address"
        },
        {
          "internalType": "contract IUniV3Vault",
          "name": "uniV3Vault",
          "type": "address"
        }
      ],
      "stateMutability": "view",
      "type": "function"
    },
    {
      "inputs": [
        {
          "internalType": "address",
          "name": "admin",
          "type": "address"
        }
      ],
      "name": "init",
      "outputs": [],
      "stateMutability": "nonpayable",
      "type": "function"
    },
    {
      "inputs": [
        {
          "components": [
            {
              "internalType": "address",
              "name": "router",
              "type": "address"
            },
            {
              "internalType": "contract IERC20Vault",
              "name": "erc20Vault",
              "type": "address"
            },
            {
              "internalType": "contract IUniV3Vault",
              "name": "uniV3Vault",
              "type": "address"
            },
            {
              "internalType": "address[]",
              "name": "tokens",
              "type": "address[]"
            }
          ],
          "internalType": "struct SinglePositionStrategy.ImmutableParams",
          "name": "immutableParams_",
          "type": "tuple"
        },
        {
          "internalType": "address",
          "name": "admin",
          "type": "address"
        }
      ],
      "name": "initialize",
      "outputs": [],
      "stateMutability": "nonpayable",
      "type": "function"
    },
    {
      "inputs": [],
      "name": "initialized",
      "outputs": [
        {
          "internalType": "bool",
          "name": "",
          "type": "bool"
        }
      ],
      "stateMutability": "view",
      "type": "function"
    },
    {
      "inputs": [
        {
          "internalType": "address",
          "name": "sender",
          "type": "address"
        }
      ],
      "name": "isAdmin",
      "outputs": [
        {
          "internalType": "bool",
          "name": "",
          "type": "bool"
        }
      ],
      "stateMutability": "view",
      "type": "function"
    },
    {
      "inputs": [
        {
          "internalType": "address",
          "name": "sender",
          "type": "address"
        }
      ],
      "name": "isOperator",
      "outputs": [
        {
          "internalType": "bool",
          "name": "",
          "type": "bool"
        }
      ],
      "stateMutability": "view",
      "type": "function"
    },
    {
      "inputs": [
        {
          "internalType": "bytes[]",
          "name": "data",
          "type": "bytes[]"
        }
      ],
      "name": "multicall",
      "outputs": [
        {
          "internalType": "bytes[]",
          "name": "results",
          "type": "bytes[]"
        }
      ],
      "stateMutability": "nonpayable",
      "type": "function"
    },
    {
      "inputs": [],
      "name": "mutableParams",
      "outputs": [
        {
          "internalType": "uint24",
          "name": "feeTierOfPoolOfAuxiliaryAnd0Tokens",
          "type": "uint24"
        },
        {
          "internalType": "uint24",
          "name": "feeTierOfPoolOfAuxiliaryAnd1Tokens",
          "type": "uint24"
        },
        {
          "internalType": "int24",
          "name": "priceImpactD6",
          "type": "int24"
        },
        {
          "internalType": "int24",
          "name": "intervalWidth",
          "type": "int24"
        },
        {
          "internalType": "int24",
          "name": "tickNeighborhood",
          "type": "int24"
        },
        {
          "internalType": "int24",
          "name": "maxDeviationForVaultPool",
          "type": "int24"
        },
        {
          "internalType": "int24",
          "name": "maxDeviationForPoolOfAuxiliaryAnd0Tokens",
          "type": "int24"
        },
        {
          "internalType": "int24",
          "name": "maxDeviationForPoolOfAuxiliaryAnd1Tokens",
          "type": "int24"
        },
        {
          "internalType": "uint32",
          "name": "timespanForAverageTick",
          "type": "uint32"
        },
        {
          "internalType": "address",
          "name": "auxiliaryToken",
          "type": "address"
        },
        {
          "internalType": "uint256",
          "name": "amount0Desired",
          "type": "uint256"
        },
        {
          "internalType": "uint256",
          "name": "amount1Desired",
          "type": "uint256"
        },
        {
          "internalType": "uint256",
          "name": "swapSlippageD",
          "type": "uint256"
        }
      ],
      "stateMutability": "view",
      "type": "function"
    },
    {
      "inputs": [],
      "name": "positionManager",
      "outputs": [
        {
          "internalType": "contract INonfungiblePositionManager",
          "name": "",
          "type": "address"
        }
      ],
      "stateMutability": "view",
      "type": "function"
    },
    {
      "inputs": [
        {
          "internalType": "uint256",
          "name": "deadline",
          "type": "uint256"
        }
      ],
      "name": "rebalance",
      "outputs": [],
      "stateMutability": "nonpayable",
      "type": "function"
    },
    {
      "inputs": [
        {
          "internalType": "bytes32",
          "name": "role",
          "type": "bytes32"
        },
        {
          "internalType": "address",
          "name": "account",
          "type": "address"
        }
      ],
      "name": "renounceRole",
      "outputs": [],
      "stateMutability": "nonpayable",
      "type": "function"
    },
    {
      "inputs": [
        {
          "internalType": "bytes32",
          "name": "role",
          "type": "bytes32"
        },
        {
          "internalType": "address",
          "name": "account",
          "type": "address"
        }
      ],
      "name": "revokeRole",
      "outputs": [],
      "stateMutability": "nonpayable",
      "type": "function"
    },
    {
      "inputs": [
        {
          "internalType": "bytes4",
          "name": "interfaceId",
          "type": "bytes4"
        }
      ],
      "name": "supportsInterface",
      "outputs": [
        {
          "internalType": "bool",
          "name": "",
          "type": "bool"
        }
      ],
      "stateMutability": "view",
      "type": "function"
    },
    {
      "inputs": [
        {
          "components": [
            {
              "internalType": "uint24",
              "name": "feeTierOfPoolOfAuxiliaryAnd0Tokens",
              "type": "uint24"
            },
            {
              "internalType": "uint24",
              "name": "feeTierOfPoolOfAuxiliaryAnd1Tokens",
              "type": "uint24"
            },
            {
              "internalType": "int24",
              "name": "priceImpactD6",
              "type": "int24"
            },
            {
              "internalType": "int24",
              "name": "intervalWidth",
              "type": "int24"
            },
            {
              "internalType": "int24",
              "name": "tickNeighborhood",
              "type": "int24"
            },
            {
              "internalType": "int24",
              "name": "maxDeviationForVaultPool",
              "type": "int24"
            },
            {
              "internalType": "int24",
              "name": "maxDeviationForPoolOfAuxiliaryAnd0Tokens",
              "type": "int24"
            },
            {
              "internalType": "int24",
              "name": "maxDeviationForPoolOfAuxiliaryAnd1Tokens",
              "type": "int24"
            },
            {
              "internalType": "uint32",
              "name": "timespanForAverageTick",
              "type": "uint32"
            },
            {
              "internalType": "address",
              "name": "auxiliaryToken",
              "type": "address"
            },
            {
              "internalType": "uint256",
              "name": "amount0Desired",
              "type": "uint256"
            },
            {
              "internalType": "uint256",
              "name": "amount1Desired",
              "type": "uint256"
            },
            {
              "internalType": "uint256",
              "name": "swapSlippageD",
              "type": "uint256"
            },
            {
              "internalType": "uint256[]",
              "name": "minSwapAmounts",
              "type": "uint256[]"
            }
          ],
          "internalType": "struct SinglePositionStrategy.MutableParams",
          "name": "mutableParams_",
          "type": "tuple"
        }
      ],
      "name": "updateMutableParams",
      "outputs": [],
      "stateMutability": "nonpayable",
      "type": "function"
    },
    {
      "inputs": [],
      "name": "withdrawCallback",
      "outputs": [],
      "stateMutability": "nonpayable",
      "type": "function"
    }
  ],
  "bytecode": {
    "object": "0x60a06040523480156200001157600080fd5b5060405162005ebb38038062005ebb833981016040819052620000349162000093565b60408051808201909152600281526120ad60f11b60208201526001600160a01b038216620000805760405162461bcd60e51b8152600401620000779190620000c5565b60405180910390fd5b506001600160a01b03166080526200011d565b600060208284031215620000a657600080fd5b81516001600160a01b0381168114620000be57600080fd5b9392505050565b600060208083528351808285015260005b81811015620000f457858101830151858201604001528201620000d6565b8181111562000107576000604083870101525b50601f01601f1916929092016040019392505050565b608051615d58620001636000396000818161051a01528181610e7a015281816116f10152818161344e01528181613714015281816138fc01526139b00152615d586000f3fe608060405234801561001057600080fd5b506004361061023d5760003560e01c806375d0c0dc1161013b578063a4b7e9df116100b8578063cfb98a031161007c578063cfb98a0314610657578063d547741f1461066a578063e3b3f79914610567578063e521826f1461067d578063f49930181461068557600080fd5b8063a4b7e9df146105c7578063ac9650d8146105da578063b4559f3e146102d6578063c8014d53146105fa578063ca15c8731461064457600080fd5b8063983d2737116100ff578063983d2737146105855780639bb37ba81461059a578063a0a8e460146105ad578063a11bac74146105b5578063a217fddf146105bf57600080fd5b806375d0c0dc14610500578063791b98bc146105155780639010d07c14610554578063918f86741461056757806391d148541461057257600080fd5b806336568abe116101c95780635f408a211161018d5780635f408a211461038d5780636d70f7ae146104985780636f259f10146104ab5780636ff0b358146104d857806375b238fc146104eb57600080fd5b806336568abe146103215780634079246514610334578063475cffef1461033f5780634c41466a1461035257806352f344d01461036557600080fd5b8063158ef93e11610210578063158ef93e146102b657806319ab453c146102c3578063248a9ca3146102d857806324d7806c146102fb5780632f2ff15d1461030e57600080fd5b806301ffc9a71461024257806306a462391461026a5780630952ff54146102825780630e3e80ac14610297575b600080fd5b610255610250366004614566565b610698565b60405190151581526020015b60405180910390f35b640312e302e360dc1b5b604051908152602001610261565b610274600080516020615c9c83398151915281565b7553696e676c65506f736974696f6e537472617465677960501b610274565b6002546102559060ff1681565b6102d66102d13660046145b5565b6106c8565b005b6102746102e63660046145d2565b60009081526020819052604090206001015490565b6102556103093660046145b5565b6107f7565b6102d661031c3660046145eb565b61082f565b6102d661032f3660046145eb565b610859565b610274600160601b81565b6102d661034d3660046147b1565b6108d7565b6102d66103603660046149ac565b610e76565b610378610373366004614a23565b6112a8565b60408051928352602083019190915201610261565b600754600854600954600a54600b546104119462ffffff808216956301000000830490911694600160301b8304600290810b95600160481b8504820b95600160601b8604830b95600160781b8104840b95600160901b8204850b95600160a81b830490950b94600160c01b90920463ffffffff16936001600160a01b03909116928d565b6040805162ffffff9e8f1681529d909c1660208e015260029a8b0b9b8d019b909b5297890b60608c015295880b60808b015293870b60a08a015291860b60c089015290940b60e087015263ffffffff9093166101008601526001600160a01b039092166101208501526101408401919091526101608301526101808201526101a001610261565b6102556104a63660046145b5565b611554565b6104be6104b9366004614a96565b61156e565b60408051600293840b81529190920b602082015201610261565b6102d66104e6366004614aee565b611672565b610274600080516020615cbc83398151915281565b610508611852565b6040516102619190614b8c565b61053c7f000000000000000000000000000000000000000000000000000000000000000081565b6040516001600160a01b039091168152602001610261565b61053c610562366004614b9f565b611876565b610274633b9aca0081565b6102556105803660046145eb565b611895565b610274600080516020615cdc83398151915281565b6102746105a8366004614bc1565b6118be565b6105086119a9565b610274620f424081565b610274600081565b6102d66105d5366004614c4c565b6119bc565b6105ed6105e8366004614c80565b611c10565b6040516102619190614cf4565b60035460045460055461061a926001600160a01b03908116928116911683565b604080516001600160a01b0394851681529284166020840152921691810191909152606001610261565b6102746106523660046145d2565b611d06565b6102d6610665366004614d56565b611d1d565b6102d66106783660046145eb565b612423565b6102d6612448565b6102d66106933660046145d2565b6124e2565b60006001600160e01b03198216635a05180f60e01b14806106bd57506106bd82612839565b92915050565b905090565b60408051808201909152600281526120ad60f11b60208201526001600160a01b0382166107115760405162461bcd60e51b81526004016107089190614b8c565b60405180910390fd5b506002546040805180820190915260048152631253925560e21b60208201529060ff16156107525760405162461bcd60e51b81526004016107089190614b8c565b5061076b600080516020615cdc8339815191528261286e565b610783600080516020615cbc8339815191528261286e565b61079b600080516020615cbc83398151915280612878565b6107c1600080516020615c9c833981519152600080516020615cbc833981519152612878565b6107e7600080516020615cdc833981519152600080516020615c9c833981519152612878565b506002805460ff19166001179055565b6000610811600080516020615cbc83398151915283611895565b806106bd57506106bd600080516020615c9c83398151915283611895565b60008281526020819052604090206001015461084a816128c3565b61085483836128d0565b505050565b6001600160a01b03811633146108c95760405162461bcd60e51b815260206004820152602f60248201527f416363657373436f6e74726f6c3a2063616e206f6e6c792072656e6f756e636560448201526e103937b632b9903337b91039b2b63360891b6064820152608401610708565b6108d382826128f2565b5050565b806060015151600214604051806040016040528060048152602001631253959360e21b8152509061091b5760405162461bcd60e51b81526004016107089190614b8c565b5060006001600160a01b0316816060015160008151811061093e5761093e614db9565b60200260200101516001600160a01b031614156040518060400160405280600281526020016120ad60f11b8152509061098a5760405162461bcd60e51b81526004016107089190614b8c565b5060006001600160a01b031681606001516001815181106109ad576109ad614db9565b60200260200101516001600160a01b031614156040518060400160405280600281526020016120ad60f11b815250906109f95760405162461bcd60e51b81526004016107089190614b8c565b50805160408051808201909152600281526120ad60f11b6020820152906001600160a01b0316610a3c5760405162461bcd60e51b81526004016107089190614b8c565b5060006001600160a01b031681602001516001600160a01b031614156040518060400160405280600281526020016120ad60f11b81525090610a915760405162461bcd60e51b81526004016107089190614b8c565b50600081602001516001600160a01b031663697222336040518163ffffffff1660e01b815260040160006040518083038186803b158015610ad157600080fd5b505afa158015610ae5573d6000803e3d6000fd5b505050506040513d6000823e601f3d908101601f19168201604052610b0d9190810190614dda565b90508051600214604051806040016040528060048152602001631253959360e21b81525090610b4f5760405162461bcd60e51b81526004016107089190614b8c565b508160600151600081518110610b6757610b67614db9565b60200260200101516001600160a01b031681600081518110610b8b57610b8b614db9565b60200260200101516001600160a01b03161460405180604001604052806004815260200163494e564160e01b81525090610bd85760405162461bcd60e51b81526004016107089190614b8c565b508160600151600181518110610bf057610bf0614db9565b60200260200101516001600160a01b031681600181518110610c1457610c14614db9565b60200260200101516001600160a01b03161460405180604001604052806004815260200163494e564160e01b81525090610c615760405162461bcd60e51b81526004016107089190614b8c565b50506040808201518151808301909252600282526120ad60f11b60208301526001600160a01b0316610ca65760405162461bcd60e51b81526004016107089190614b8c565b50600081604001516001600160a01b031663697222336040518163ffffffff1660e01b815260040160006040518083038186803b158015610ce657600080fd5b505afa158015610cfa573d6000803e3d6000fd5b505050506040513d6000823e601f3d908101601f19168201604052610d229190810190614dda565b90508051600214604051806040016040528060048152602001631253959360e21b81525090610d645760405162461bcd60e51b81526004016107089190614b8c565b508160600151600081518110610d7c57610d7c614db9565b60200260200101516001600160a01b031681600081518110610da057610da0614db9565b60200260200101516001600160a01b03161460405180604001604052806004815260200163494e564160e01b81525090610ded5760405162461bcd60e51b81526004016107089190614b8c565b508160600151600181518110610e0557610e05614db9565b60200260200101516001600160a01b031681600181518110610e2957610e29614db9565b60200260200101516001600160a01b03161460405180604001604052806004815260200163494e564160e01b815250906108545760405162461bcd60e51b81526004016107089190614b8c565b60007f00000000000000000000000000000000000000000000000000000000000000006001600160a01b031663c45a01556040518163ffffffff1660e01b815260040160206040518083038186803b158015610ed157600080fd5b505afa158015610ee5573d6000803e3d6000fd5b505050506040513d601f19601f82011682018060405250810190610f099190614e68565b90506000816001600160a01b0316631698ee828660600151600081518110610f3357610f33614db9565b602090810291909101015161012087015187516040516001600160e01b031960e086901b1681526001600160a01b03938416600482015292909116602483015262ffffff16604482015260640160206040518083038186803b158015610f9857600080fd5b505afa158015610fac573d6000803e3d6000fd5b505050506040513d601f19601f82011682018060405250810190610fd09190614e68565b90506000826001600160a01b0316631698ee828760600151600181518110610ffa57610ffa614db9565b602002602001015187610120015188602001516040518463ffffffff1660e01b815260040161104f939291906001600160a01b03938416815291909216602082015262ffffff91909116604082015260600190565b60206040518083038186803b15801561106757600080fd5b505afa15801561107b573d6000803e3d6000fd5b505050506040513d601f19601f8201168201806040525081019061109f9190614e68565b60408051606080820183526001600160a01b038087168352808516602080850191909152908916838501528351918201845260c08a0151600290810b835260e08b0151810b9183019190915260a08a0151900b9281019290925291925060005b600381101561129d57600083826003811061111c5761111c614db9565b60200201516001600160a01b0316633850c7bd6040518163ffffffff1660e01b815260040160e06040518083038186803b15801561115957600080fd5b505afa15801561116d573d6000803e3d6000fd5b505050506040513d601f19601f820116820180604052508101906111919190614eb2565b50505050509150506000806111c18685600381106111b1576111b1614db9565b60200201518c6101000151612914565b925050915080156040518060400160405280600581526020016412539594d560da1b815250906112045760405162461bcd60e51b81526004016107089190614b8c565b5060006112118385614f5b565b905060008160020b121561122b5761122881614fa3565b90505b85856003811061123d5761123d614db9565b602002015160020b8160020b12604051806040016040528060048152602001634c494d4f60e01b815250906112855760405162461bcd60e51b81526004016107089190614b8c565b5050505050808061129590614fc6565b9150506110ff565b505050505050505050565b600080806112ba84600160601b614fe1565b9050600087602001516001600160a01b031663e5328e066040518163ffffffff1660e01b815260040160006040518083038186803b1580156112fb57600080fd5b505afa15801561130f573d6000803e3d6000fd5b505050506040513d6000823e601f3d908101601f191682016040526113379190810190615053565b50905060006113b28260018151811061135257611352614db9565b6020026020010151600160601b6113888560008151811061137557611375614db9565b60200260200101518b600160601b612b6e565b8560018151811061139b5761139b614db9565b60200260200101516113ad91906150ac565b612b6e565b905060006113ed600160601b8a604001518b602001518c600001516113d791906150c4565b6113e191906150c4565b60020b620f4240612b6e565b9050868211156114935760019550600061140c600160601b808b612b6e565b905061148b611436898660008151811061142857611428614db9565b602002602001015184612b6e565b61145f8660018151811061144c5761144c614db9565b602002602001015188600160601b612b6e565b6114699190614fe1565b600160601b61147d8b86600160601b612b6e565b6113ad90600160601b614fe1565b955050611509565b600095506115066114bf85856001815181106114b1576114b1614db9565b60200260200101518b612b6e565b6114e8856000815181106114d5576114d5614db9565b60200260200101518a600160601b612b6e565b6114f29190614fe1565b600160601b61147d8785600160601b612b6e565b94505b82868151811061151b5761151b614db9565b60200260200101518511156115475782868151811061153c5761153c614db9565b602002602001015194505b5050505094509492505050565b60006106bd600080516020615cdc83398151915283611895565b6000806000836001600160a01b031663d0c93a7c6040518163ffffffff1660e01b815260040160206040518083038186803b1580156115ac57600080fd5b505afa1580156115c0573d6000803e3d6000fd5b505050506040513d601f19601f820116820180604052508101906115e4919061510b565b905060006115f2828761513e565b6115fc9087614f5b565b9050600282900b61160d838861513e565b611618906002615160565b60020b131561162e5761162b82826150c4565b90505b6002876060015161163f91906151ed565b6116499082614f5b565b93506002876060015161165c91906151ed565b61166690826150c4565b92505050935093915050565b61167b826108d7565b8151600380546001600160a01b03199081166001600160a01b0393841617825560208086015160048054841691861691909117905560408601516005805490931694169390931790556060840151805185936116dc926006929101906144b1565b5090505060005b6002811015611848576117497f00000000000000000000000000000000000000000000000000000000000000006000198560600151848151811061172957611729614db9565b60200260200101516001600160a01b0316612c219092919063ffffffff16565b82602001516001600160a01b0316632e2f4cc28460600151838151811061177257611772614db9565b602002602001015163095ea7b360e01b86600001516000196040516020016117af9291906001600160a01b03929092168252602082015260400190565b6040516020818303038152906040526040518463ffffffff1660e01b81526004016117dc93929190615227565b600060405180830381600087803b1580156117f657600080fd5b505af192505050801561182b57506040513d6000823e601f3d908101601f191682016040526118289190810190615264565b60015b61183457611836565b505b8061184081614fc6565b9150506116e3565b506108d3816106c8565b60606106c37553696e676c65506f736974696f6e537472617465677960501b612d0f565b600082815260016020526040812061188e9083612d7b565b9392505050565b6000918252602082815260408084206001600160a01b0393909316845291905290205460ff1690565b6000806118ce8560000151612d87565b6001600160a01b0316905060006118e88660200151612d87565b6001600160a01b03169050846001600160a01b0316821061190e5760009250505061188e565b846001600160a01b0316811161192c57600160601b9250505061188e565b60006119616119446001600160a01b03881684614fe1565b600160601b6113ad896001600160a01b031686600160601b612b6e565b90506000611978846001600160a01b038916614fe1565b905061199d81600160601b83611993868b600160601b612b6e565b6113ad91906150ac565b98975050505050505050565b60606106c3640312e302e360dc1b612d0f565b6119c46131a4565b60408051608081018252600380546001600160a01b03908116835260045481166020808501919091526005549091168385015260068054855181840281018401909652808652611a6195879594936060860193919290830182828015611a5357602002820191906000526020600020905b81546001600160a01b03168152600190910190602001808311611a35575b505050505081525050611d1d565b80516007805460208085015160408601516060870151608088015160a089015160c08a015160e08b01516101008c015162ffffff9b8c1665ffffffffffff19909a16999099176301000000978c1697909702969096176bffffffffffff0000000000001916600160301b958b16959095026bffffff000000000000000000191694909417600160481b938a16939093029290921765ffffffffffff60601b1916600160601b9189169190910262ffffff60781b191617600160781b918816919091021765ffffffffffff60901b1916600160901b9187169190910262ffffff60a81b191617600160a81b95909116949094029390931763ffffffff60c01b1916600160c01b63ffffffff90921691909102178155610120830151600880546001600160a01b0319166001600160a01b03909216919091179055610140830151600955610160830151600a55610180830151600b556101a083015180518493611bce92600c92910190614516565b505060405133915032907f17625970c8998aa241179f136ece2f6357611fcb0416c0450f5001fd4f283f4790611c05908590615332565b60405180910390a350565b6060816001600160401b03811115611c2a57611c2a61461b565b604051908082528060200260200182016040528015611c5d57816020015b6060815260200190600190039081611c485790505b50905060005b82811015611cfd57611ccd30858584818110611c8157611c81614db9565b9050602002810190611c939190615456565b8080601f0160208091040260200160405190810160405280939291908181526020018383808284376000920191909152506131e792505050565b828281518110611cdf57611cdf614db9565b60200260200101819052508080611cf590614fc6565b915050611c63565b5092915050565b565b60008181526001602052604081206106bd9061320c565b600081604001516001600160a01b03166316f0115b6040518163ffffffff1660e01b815260040160206040518083038186803b158015611d5c57600080fd5b505afa158015611d70573d6000803e3d6000fd5b505050506040513d601f19601f82011682018060405250810190611d949190614e68565b6001600160a01b031663d0c93a7c6040518163ffffffff1660e01b815260040160206040518083038186803b158015611dcc57600080fd5b505afa158015611de0573d6000803e3d6000fd5b505050506040513d601f19601f82011682018060405250810190611e04919061510b565b90506000836060015160020b138015611e375750611e23816002615160565b8360600151611e32919061513e565b60020b155b6040518060400160405280600381526020016224a72b60e91b81525090611e715760405162461bcd60e51b81526004016107089190614b8c565b508260600151611e8090614fa3565b60020b836080015160020b12158015611eb3575060028360600151611ea591906151ed565b60020b836080015160020b13155b604051806040016040528060048152602001634c494d4f60e01b81525090611eee5760405162461bcd60e51b81526004016107089190614b8c565b5061012083015160408051808201909152600281526120ad60f11b6020820152906001600160a01b0316611f355760405162461bcd60e51b81526004016107089190614b8c565b50826000015162ffffff1660641480611f585750826000015162ffffff166101f4145b80611f6d5750826000015162ffffff16610bb8145b80611f825750826000015162ffffff16612710145b6040518060400160405280600381526020016224a72b60e91b81525090611fbc5760405162461bcd60e51b81526004016107089190614b8c565b50826020015162ffffff1660641480611fdf5750826020015162ffffff166101f4145b80611ff45750826020015162ffffff16610bb8145b806120095750826020015162ffffff16612710145b6040518060400160405280600381526020016224a72b60e91b815250906120435760405162461bcd60e51b81526004016107089190614b8c565b506040830151602084015184516000929161205d916150c4565b61206791906150c4565b60020b1215604051806040016040528060048152602001634c494d5560e01b815250906120a75760405162461bcd60e51b81526004016107089190614b8c565b5060008360a0015160020b13604051806040016040528060048152602001634c494d5560e01b815250906120ee5760405162461bcd60e51b81526004016107089190614b8c565b5060008360c0015160020b13604051806040016040528060048152602001634c494d5560e01b815250906121355760405162461bcd60e51b81526004016107089190614b8c565b5060008360e0015160020b13604051806040016040528060048152602001634c494d5560e01b8152509061217c5760405162461bcd60e51b81526004016107089190614b8c565b50600083610100015163ffffffff1611604051806040016040528060028152602001612b2d60f11b815250906121c55760405162461bcd60e51b81526004016107089190614b8c565b5062093a8083610100015163ffffffff1610604051806040016040528060028152602001612b2d60f11b815250906122105760405162461bcd60e51b81526004016107089190614b8c565b50600083610140015111604051806040016040528060028152602001612b2d60f11b815250906122535760405162461bcd60e51b81526004016107089190614b8c565b50633b9aca008361014001511115604051806040016040528060048152602001634c494d4f60e01b8152509061229c5760405162461bcd60e51b81526004016107089190614b8c565b50600083610160015111604051806040016040528060028152602001612b2d60f11b815250906122df5760405162461bcd60e51b81526004016107089190614b8c565b50633b9aca008361016001511115604051806040016040528060048152602001634c494d4f60e01b815250906123285760405162461bcd60e51b81526004016107089190614b8c565b50826101a0015151600214604051806040016040528060048152602001631253959360e21b8152509061236e5760405162461bcd60e51b81526004016107089190614b8c565b50633b9aca008361018001511115604051806040016040528060048152602001634c494d4f60e01b815250906123b75760405162461bcd60e51b81526004016107089190614b8c565b50602083015183516123c991906154a3565b6123d5906103e86154ca565b62ffffff168361018001511015604051806040016040528060048152602001634c494d5560e01b8152509061241d5760405162461bcd60e51b81526004016107089190614b8c565b50505050565b60008281526020819052604090206001015461243e816128c3565b61085483836128f2565b60408051608081018252600380546001600160a01b03908116835260045481166020808501919091526005549091168385015260068054855181840281018401909652808652611d04956060860193909291908301828280156124d457602002820191906000526020600020905b81546001600160a01b031681526001909101906020018083116124b6575b505050505081525050613216565b8042111560405180604001604052806002815260200161545360f01b8152509061251f5760405162461bcd60e51b81526004016107089190614b8c565b5061252861336e565b60408051608081018252600380546001600160a01b039081168352600454811660208085019190915260055490911683850152600680548551818402810184019096528086526000956060860193909291908301828280156125b357602002820191906000526020600020905b81546001600160a01b03168152600190910190602001808311612595575b505050919092525050604080516101c0810182526007805462ffffff80821684526301000000820416602080850191909152600160301b8204600290810b85870152600160481b8304810b6060860152600160601b8304810b6080860152600160781b8304810b60a0860152600160901b8304810b60c0860152600160a81b8304900b60e0850152600160c01b90910463ffffffff166101008401526008546001600160a01b0316610120840152600954610140840152600a54610160840152600b54610180840152600c805485518184028101840190965280865296975060009693955091936101a08601939092918301828280156126d257602002820191906000526020600020905b8154815260200190600101908083116126be575b5050505050815250509050600082604001516001600160a01b03166316f0115b6040518163ffffffff1660e01b815260040160206040518083038186803b15801561271c57600080fd5b505afa158015612730573d6000803e3d6000fd5b505050506040513d601f19601f820116820180604052508101906127549190614e68565b9050612761838383610e76565b600080826001600160a01b0316633850c7bd6040518163ffffffff1660e01b815260040160e06040518083038186803b15801561279d57600080fd5b505afa1580156127b1573d6000803e3d6000fd5b505050506040513d601f19601f820116820180604052508101906127d59190614eb2565b50505050509150915060006127ec86868487613386565b90506127fa86868386613a59565b61280386613216565b604051339032907f6dcf4e69cd04d9def52d660ea37a5b366adb7701505e48e75c03d6a51a343f6490600090a350505050505050565b60006001600160e01b03198216637965db0b60e01b14806106bd57506301ffc9a760e01b6001600160e01b03198316146106bd565b6108d382826128d0565b600082815260208190526040808220600101805490849055905190918391839186917fbd79b86ffe0ab8e8776151514217cd7cacd52c909f66475c3af44e129f0b00ff9190a4505050565b6128cd8133613d55565b50565b6128da8282613dae565b60008281526001602052604090206108549082613e32565b6128fc8282613e47565b60008281526001602052604090206108549082613eac565b6000808063ffffffff84166129505760405162461bcd60e51b8152602060048201526002602482015261042560f41b6044820152606401610708565b604080516002808252606082018352600092602083019080368337019050509050848160008151811061298557612985614db9565b602002602001019063ffffffff16908163ffffffff16815250506000816001815181106129b4576129b4614db9565b63ffffffff9092166020928302919091019091015260405163883bdbfd60e01b81526001600160a01b0387169063883bdbfd906129f59084906004016154f5565b60006040518083038186803b158015612a0d57600080fd5b505afa925050508015612a4257506040513d6000823e601f3d908101601f19168201604052612a3f91908101906155a3565b60015b612a5757600080600193509350935050612b67565b600082600081518110612a6c57612a6c614db9565b602002602001015183600181518110612a8757612a87614db9565b6020026020010151612a999190615664565b9050600082600081518110612ab057612ab0614db9565b602002602001015183600181518110612acb57612acb614db9565b6020026020010151612add91906156aa565b9050612aef63ffffffff8a16836156d2565b975060008260060b128015612b155750612b0f63ffffffff8a1683615707565b60060b15155b15612b285787612b2481615729565b9850505b6000612b416001600160a01b0363ffffffff8c1661574d565b9050612b5e640100000000600160c01b03602084901b1682615773565b97505050505050505b9250925092565b600080806000198587098587029250828110838203039150508060001415612ba85760008411612b9d57600080fd5b50829004905061188e565b808411612bb457600080fd5b6000848688096000868103871696879004966002600389028118808a02820302808a02820302808a02820302808a02820302808a02820302808a02909103029181900381900460010186841190950394909402919094039290920491909117919091029150509392505050565b604051636eb1769f60e11b81523060048201526001600160a01b0383811660248301526000919085169063dd62ed3e9060440160206040518083038186803b158015612c6c57600080fd5b505afa158015612c80573d6000803e3d6000fd5b505050506040513d601f19601f82011682018060405250810190612ca49190615799565b905061241d8463095ea7b360e01b85612cbd86866150ac565b6040516001600160a01b039092166024830152604482015260640160408051601f198184030181529190526020810180516001600160e01b03166001600160e01b031990931692909217909152613ec1565b604080516020808252818301909252606091602082018180368337019050509050602060005b6020811015612d6d57838160208110612d5057612d50614db9565b1a612d5d57809150612d6d565b612d6681614fc6565b9050612d35565b508152602081019190915290565b600061188e8383613f96565b60008060008360020b12612d9e578260020b612dab565b8260020b612dab906157b2565b9050612dba620d89e719614fa3565b60020b811115612df05760405162461bcd60e51b81526020600482015260016024820152601560fa1b6044820152606401610708565b600060018216612e0457600160801b612e16565b6ffffcb933bd6fad37aa2d162d1a5940015b70ffffffffffffffffffffffffffffffffff1690506002821615612e55576080612e50826ffff97272373d413259a46990580e213a6157cf565b901c90505b6004821615612e7f576080612e7a826ffff2e50f5f656932ef12357cf3c7fdcc6157cf565b901c90505b6008821615612ea9576080612ea4826fffe5caca7e10e4e61c3624eaa0941cd06157cf565b901c90505b6010821615612ed3576080612ece826fffcb9843d60f6159c9db58835c9266446157cf565b901c90505b6020821615612efd576080612ef8826fff973b41fa98c081472e6896dfb254c06157cf565b901c90505b6040821615612f27576080612f22826fff2ea16466c96a3843ec78b326b528616157cf565b901c90505b6080821615612f51576080612f4c826ffe5dee046a99a2a811c461f1969c30536157cf565b901c90505b610100821615612f7c576080612f77826ffcbe86c7900a88aedcffc83b479aa3a46157cf565b901c90505b610200821615612fa7576080612fa2826ff987a7253ac413176f2b074cf7815e546157cf565b901c90505b610400821615612fd2576080612fcd826ff3392b0822b70005940c7a398e4b70f36157cf565b901c90505b610800821615612ffd576080612ff8826fe7159475a2c29b7443b29c7fa6e889d96157cf565b901c90505b611000821615613028576080613023826fd097f3bdfd2022b8845ad8f792aa58256157cf565b901c90505b61200082161561305357608061304e826fa9f746462d870fdf8a65dc1f90e061e56157cf565b901c90505b61400082161561307e576080613079826f70d869a156d2a1b890bb3df62baf32f76157cf565b901c90505b6180008216156130a95760806130a4826f31be135f97d08fd981231505542fcfa66157cf565b901c90505b620100008216156130d55760806130d0826f09aa508b5b7a84e1c677de54f3e99bc96157cf565b901c90505b620200008216156131005760806130fb826e5d6af8dedb81196699c329225ee6046157cf565b901c90505b6204000082161561312a576080613125826d2216e584f5fa1ea926041bedfe986157cf565b901c90505b6208000082161561315257608061314d826b048a170391f7dc42444e8fa26157cf565b901c90505b60008460020b131561316d5761316a816000196157ee565b90505b61317c64010000000082615802565b1561318857600161318b565b60005b61319c9060ff16602083901c6150ac565b949350505050565b6131ad336107f7565b6040518060400160405280600381526020016223292160e91b815250906128cd5760405162461bcd60e51b81526004016107089190614b8c565b606061188e8383604051806060016040528060278152602001615cfc60279139613fc0565b60006106bd825490565b600081602001516001600160a01b031663e5328e066040518163ffffffff1660e01b815260040160006040518083038186803b15801561325557600080fd5b505afa158015613269573d6000803e3d6000fd5b505050506040513d6000823e601f3d908101601f191682016040526132919190810190615053565b5090506000816000815181106132a9576132a9614db9565b602002602001015111806132d757506000816001815181106132cd576132cd614db9565b6020026020010151115b156108d35781602001516001600160a01b0316632062d75483604001518460600151846040518463ffffffff1660e01b815260040161331893929190615816565b600060405180830381600087803b15801561333257600080fd5b505af1158015613346573d6000803e3d6000fd5b505050506040513d6000823e601f3d908101601f191682016040526108549190810190615896565b613377336107f7565b806131ad57506131ad33611554565b60408051808201909152600080825260208201526000856040015190506000816001600160a01b031663f4adc08b6040518163ffffffff1660e01b815260040160206040518083038186803b1580156133de57600080fd5b505afa1580156133f2573d6000803e3d6000fd5b505050506040513d601f19601f820116820180604052508101906134169190615799565b905080156136dc5760408051808201825260008082526020820152905163133f757160e31b8152600481018390526001600160a01b037f000000000000000000000000000000000000000000000000000000000000000016906399fbab88906024016101806040518083038186803b15801561349157600080fd5b505afa1580156134a5573d6000803e3d6000fd5b505050506040513d601f19601f820116820180604052508101906134c991906158ec565b50505050600291820b60208a01525090810b80885260808e0151918d900b96506134f99550935091506150c49050565b60020b131580156135235750866080015181602001516135199190614f5b565b60020b8660020b13155b801561354857508051602082015161353b9190614f5b565b60020b876060015160020b145b156135cf57826001600160a01b031663c27b2c2d6040518163ffffffff1660e01b8152600401600060405180830381600087803b15801561358857600080fd5b505af115801561359c573d6000803e3d6000fd5b505050506040513d6000823e601f3d908101601f191682016040526135c49190810190615896565b50925061319c915050565b602088015160608901516040516303217f1d60e61b81526001600160801b0360048201526001600160a01b03861692632062d754929091849063c85fc7409060240160006040518083038186803b15801561362957600080fd5b505afa15801561363d573d6000803e3d6000fd5b505050506040513d6000823e601f3d908101601f191682016040526136659190810190615896565b6040518463ffffffff1660e01b815260040161368393929190615816565b600060405180830381600087803b15801561369d57600080fd5b505af11580156136b1573d6000803e3d6000fd5b505050506040513d6000823e601f3d908101601f191682016040526136d99190810190615896565b50505b6136e786868661156e565b600290810b60208601520b8352604080516101608101909152606088015180516000926001600160a01b037f00000000000000000000000000000000000000000000000000000000000000001692638831645692829190869061374c5761374c614db9565b60200260200101516001600160a01b031681526020018b6060015160018151811061377957613779614db9565b60200260200101516001600160a01b03168152602001886001600160a01b031663ddca3f436040518163ffffffff1660e01b815260040160206040518083038186803b1580156137c857600080fd5b505afa1580156137dc573d6000803e3d6000fd5b505050506040513d601f19601f8201168201806040525081019061380091906159cd565b62ffffff168152602001876000015160020b8152602001876020015160020b81526020018a610140015181526020018a610160015181526020016000815260200160008152602001306001600160a01b031681526020016000198152506040518263ffffffff1660e01b815260040161387991906159ea565b608060405180830381600087803b15801561389357600080fd5b505af11580156138a7573d6000803e3d6000fd5b505050506040513d601f19601f820116820180604052508101906138cb9190615aae565b5050604051632142170760e11b81523060048201526001600160a01b038681166024830152604482018490529293507f0000000000000000000000000000000000000000000000000000000000000000909216916342842e0e9150606401600060405180830381600087803b15801561394357600080fd5b505af1158015613957573d6000803e3d6000fd5b505050507face8748d23af65e86cf543d0298345b95115752e382befe3e832eacd1508adb08160405161398c91815260200190565b60405180910390a18115613a4e57604051630852cd8d60e31b8152600481018390527f00000000000000000000000000000000000000000000000000000000000000006001600160a01b0316906342966c6890602401600060405180830381600087803b1580156139fc57600080fd5b505af1158015613a10573d6000803e3d6000fd5b505050507f65d33d8ef62a81711748bbe2a7b67aef94d1a9af04a2690d3a4dfd13d9c1d22b82604051613a4591815260200190565b60405180910390a15b505050949350505050565b6000613a736001600160a01b03831680600160601b612b6e565b90506000613a828484846118be565b9050600080613a93888886866112a8565b91509150866101a001518281518110613aae57613aae614db9565b6020026020010151811015613ac6575050505061241d565b6000606083613b5857613ade8387600160601b612b6e565b91508960600151600081518110613af757613af7614db9565b602002602001015189600001518a61012001518b602001518d60600151600181518110613b2657613b26614db9565b6020026020010151604051602001613b42959493929190615aea565b6040516020818303038152906040529050613bdd565b613b6783600160601b88612b6e565b91508960600151600181518110613b8057613b80614db9565b602002602001015189602001518a61012001518b600001518d60600151600081518110613baf57613baf614db9565b6020026020010151604051602001613bcb959493929190615aea565b60405160208183030381529060405290505b60006040518060a001604052808381526020018c602001516001600160a01b03168152602001426001613c1091906150ac565b8152602001858152602001613c3e858d6101800151633b9aca00613c349190614fe1565b633b9aca00612b6e565b815250905060008b602001516001600160a01b0316632e2f4cc28d6000015163c04b8d5960e01b85604051602001613c769190615b8d565b6040516020818303038152906040526040518463ffffffff1660e01b8152600401613ca393929190615227565b600060405180830381600087803b158015613cbd57600080fd5b505af1158015613cd1573d6000803e3d6000fd5b505050506040513d6000823e601f3d908101601f19168201604052613cf99190810190615264565b90507fe47c94818a08fa57483127c34e3f663971150243d5a1f25130242c281ea5023b8282806020019051810190613d319190615799565b604051613d3f929190615ba0565b60405180910390a1505050505050505050505050565b613d5f8282611895565b6108d357613d6c81614038565b613d7783602061404a565b604051602001613d88929190615bc2565b60408051601f198184030181529082905262461bcd60e51b825261070891600401614b8c565b613db88282611895565b6108d3576000828152602081815260408083206001600160a01b03851684529091529020805460ff19166001179055613dee3390565b6001600160a01b0316816001600160a01b0316837f2f8788117e7eff1d82e926ec794901d17c78024a50270940304540a733656f0d60405160405180910390a45050565b600061188e836001600160a01b0384166141e5565b613e518282611895565b156108d3576000828152602081815260408083206001600160a01b0385168085529252808320805460ff1916905551339285917ff6391f5c32d9c69d2a47ea670b442974b53935d1edc7fd64eb21e047a839171b9190a45050565b600061188e836001600160a01b038416614234565b6000613f16826040518060400160405280602081526020017f5361666545524332303a206c6f772d6c6576656c2063616c6c206661696c6564815250856001600160a01b03166143279092919063ffffffff16565b9050805160001480613f37575080806020019051810190613f379190615c37565b6108545760405162461bcd60e51b815260206004820152602a60248201527f5361666545524332303a204552433230206f7065726174696f6e20646964206e6044820152691bdd081cdd58d8d9595960b21b6064820152608401610708565b6000826000018281548110613fad57613fad614db9565b9060005260206000200154905092915050565b6060600080856001600160a01b031685604051613fdd9190615c52565b600060405180830381855af49150503d8060008114614018576040519150601f19603f3d011682016040523d82523d6000602084013e61401d565b606091505b509150915061402e86838387614336565b9695505050505050565b60606106bd6001600160a01b03831660145b606060006140598360026157cf565b6140649060026150ac565b6001600160401b0381111561407b5761407b61461b565b6040519080825280601f01601f1916602001820160405280156140a5576020820181803683370190505b509050600360fc1b816000815181106140c0576140c0614db9565b60200101906001600160f81b031916908160001a905350600f60fb1b816001815181106140ef576140ef614db9565b60200101906001600160f81b031916908160001a90535060006141138460026157cf565b61411e9060016150ac565b90505b6001811115614196576f181899199a1a9b1b9c1cb0b131b232b360811b85600f166010811061415257614152614db9565b1a60f81b82828151811061416857614168614db9565b60200101906001600160f81b031916908160001a90535060049490941c9361418f81615c6e565b9050614121565b50831561188e5760405162461bcd60e51b815260206004820181905260248201527f537472696e67733a20686578206c656e67746820696e73756666696369656e746044820152606401610708565b600081815260018301602052604081205461422c575081546001818101845560008481526020808220909301849055845484825282860190935260409020919091556106bd565b5060006106bd565b6000818152600183016020526040812054801561431d576000614258600183614fe1565b855490915060009061426c90600190614fe1565b90508181146142d157600086600001828154811061428c5761428c614db9565b90600052602060002001549050808760000184815481106142af576142af614db9565b6000918252602080832090910192909255918252600188019052604090208390555b85548690806142e2576142e2615c85565b6001900381819060005260206000200160009055905585600101600086815260200190815260200160002060009055600193505050506106bd565b60009150506106bd565b606061319c84846000856143ac565b606083156143a257825161439b576001600160a01b0385163b61439b5760405162461bcd60e51b815260206004820152601d60248201527f416464726573733a2063616c6c20746f206e6f6e2d636f6e74726163740000006044820152606401610708565b508161319c565b61319c8383614487565b60608247101561440d5760405162461bcd60e51b815260206004820152602660248201527f416464726573733a20696e73756666696369656e742062616c616e636520666f6044820152651c8818d85b1b60d21b6064820152608401610708565b600080866001600160a01b031685876040516144299190615c52565b60006040518083038185875af1925050503d8060008114614466576040519150601f19603f3d011682016040523d82523d6000602084013e61446b565b606091505b509150915061447c87838387614336565b979650505050505050565b8151156144975781518083602001fd5b8060405162461bcd60e51b81526004016107089190614b8c565b828054828255906000526020600020908101928215614506579160200282015b8281111561450657825182546001600160a01b0319166001600160a01b039091161782556020909201916001909101906144d1565b50614512929150614551565b5090565b828054828255906000526020600020908101928215614506579160200282015b82811115614506578251825591602001919060010190614536565b5b808211156145125760008155600101614552565b60006020828403121561457857600080fd5b81356001600160e01b03198116811461188e57600080fd5b6001600160a01b03811681146128cd57600080fd5b80356145b081614590565b919050565b6000602082840312156145c757600080fd5b813561188e81614590565b6000602082840312156145e457600080fd5b5035919050565b600080604083850312156145fe57600080fd5b82359150602083013561461081614590565b809150509250929050565b634e487b7160e01b600052604160045260246000fd5b604051608081016001600160401b03811182821017156146535761465361461b565b60405290565b6040516101c081016001600160401b03811182821017156146535761465361461b565b604051601f8201601f191681016001600160401b03811182821017156146a4576146a461461b565b604052919050565b60006001600160401b038211156146c5576146c561461b565b5060051b60200190565b6000608082840312156146e157600080fd5b6146e9614631565b905081356146f681614590565b815260208281013561470781614590565b82820152604083013561471981614590565b604083015260608301356001600160401b0381111561473757600080fd5b8301601f8101851361474857600080fd5b803561475b614756826146ac565b61467c565b81815260059190911b8201830190838101908783111561477a57600080fd5b928401925b828410156147a157833561479281614590565b8252928401929084019061477f565b6060860152509295945050505050565b6000602082840312156147c357600080fd5b81356001600160401b038111156147d957600080fd5b61319c848285016146cf565b62ffffff811681146128cd57600080fd5b80356145b0816147e5565b8060020b81146128cd57600080fd5b80356145b081614801565b803563ffffffff811681146145b057600080fd5b600082601f83011261484057600080fd5b81356020614850614756836146ac565b82815260059290921b8401810191818101908684111561486f57600080fd5b8286015b8481101561488a5780358352918301918301614873565b509695505050505050565b60006101c082840312156148a857600080fd5b6148b0614659565b90506148bb826147f6565b81526148c9602083016147f6565b60208201526148da60408301614810565b60408201526148eb60608301614810565b60608201526148fc60808301614810565b608082015261490d60a08301614810565b60a082015261491e60c08301614810565b60c082015261492f60e08301614810565b60e082015261010061494281840161481b565b908201526101206149548382016145a5565b908201526101408281013590820152610160808301359082015261018080830135908201526101a0808301356001600160401b0381111561499457600080fd5b6149a08582860161482f565b82840152505092915050565b6000806000606084860312156149c157600080fd5b83356001600160401b03808211156149d857600080fd5b6149e4878388016146cf565b945060208601359150808211156149fa57600080fd5b50614a0786828701614895565b9250506040840135614a1881614590565b809150509250925092565b60008060008060808587031215614a3957600080fd5b84356001600160401b0380821115614a5057600080fd5b614a5c888389016146cf565b95506020870135915080821115614a7257600080fd5b50614a7f87828801614895565b949794965050505060408301359260600135919050565b600080600060608486031215614aab57600080fd5b83356001600160401b03811115614ac157600080fd5b614acd86828701614895565b9350506020840135614ade81614801565b91506040840135614a1881614590565b60008060408385031215614b0157600080fd5b82356001600160401b03811115614b1757600080fd5b614b23858286016146cf565b925050602083013561461081614590565b60005b83811015614b4f578181015183820152602001614b37565b8381111561241d5750506000910152565b60008151808452614b78816020860160208601614b34565b601f01601f19169290920160200192915050565b60208152600061188e6020830184614b60565b60008060408385031215614bb257600080fd5b50508035926020909101359150565b60008060008385036080811215614bd757600080fd5b6040811215614be557600080fd5b50604051604081018181106001600160401b0382111715614c0857614c0861461b565b6040528435614c1681614801565b81526020850135614c2681614801565b602082015292506040840135614c3b81614590565b929592945050506060919091013590565b600060208284031215614c5e57600080fd5b81356001600160401b03811115614c7457600080fd5b61319c84828501614895565b60008060208385031215614c9357600080fd5b82356001600160401b0380821115614caa57600080fd5b818501915085601f830112614cbe57600080fd5b813581811115614ccd57600080fd5b8660208260051b8501011115614ce257600080fd5b60209290920196919550909350505050565b6000602080830181845280855180835260408601915060408160051b870101925083870160005b82811015614d4957603f19888603018452614d37858351614b60565b94509285019290850190600101614d1b565b5092979650505050505050565b60008060408385031215614d6957600080fd5b82356001600160401b0380821115614d8057600080fd5b614d8c86838701614895565b93506020850135915080821115614da257600080fd5b50614daf858286016146cf565b9150509250929050565b634e487b7160e01b600052603260045260246000fd5b80516145b081614590565b60006020808385031215614ded57600080fd5b82516001600160401b03811115614e0357600080fd5b8301601f81018513614e1457600080fd5b8051614e22614756826146ac565b81815260059190911b82018301908381019087831115614e4157600080fd5b928401925b8284101561447c578351614e5981614590565b82529284019290840190614e46565b600060208284031215614e7a57600080fd5b815161188e81614590565b80516145b081614801565b805161ffff811681146145b057600080fd5b805180151581146145b057600080fd5b600080600080600080600060e0888a031215614ecd57600080fd5b8751614ed881614590565b6020890151909750614ee981614801565b9550614ef760408901614e90565b9450614f0560608901614e90565b9350614f1360808901614e90565b925060a088015160ff81168114614f2957600080fd5b9150614f3760c08901614ea2565b905092959891949750929550565b634e487b7160e01b600052601160045260246000fd5b60008160020b8360020b6000811281627fffff1901831281151615614f8257614f82614f45565b81627fffff018313811615614f9957614f99614f45565b5090039392505050565b60008160020b627fffff19811415614fbd57614fbd614f45565b60000392915050565b6000600019821415614fda57614fda614f45565b5060010190565b600082821015614ff357614ff3614f45565b500390565b600082601f83011261500957600080fd5b81516020615019614756836146ac565b82815260059290921b8401810191818101908684111561503857600080fd5b8286015b8481101561488a578051835291830191830161503c565b6000806040838503121561506657600080fd5b82516001600160401b038082111561507d57600080fd5b61508986838701614ff8565b9350602085015191508082111561509f57600080fd5b50614daf85828601614ff8565b600082198211156150bf576150bf614f45565b500190565b60008160020b8360020b6000821282627fffff038213811516156150ea576150ea614f45565b82627fffff1903821281161561510257615102614f45565b50019392505050565b60006020828403121561511d57600080fd5b815161188e81614801565b634e487b7160e01b600052601260045260246000fd5b60008260020b8061515157615151615128565b808360020b0791505092915050565b60008160020b8360020b627fffff60008213600084138383048511828216161561518c5761518c614f45565b627fffff1960008512828116878305871216156151ab576151ab614f45565b600087129250858205871284841616156151c7576151c7614f45565b858505871281841616156151dd576151dd614f45565b5050509290910295945050505050565b60008160020b8360020b8061520457615204615128565b627fffff1982146000198214161561521e5761521e614f45565b90059392505050565b6001600160a01b03841681526001600160e01b03198316602082015260606040820181905260009061525b90830184614b60565b95945050505050565b60006020828403121561527657600080fd5b81516001600160401b038082111561528d57600080fd5b818401915084601f8301126152a157600080fd5b8151818111156152b3576152b361461b565b6152c6601f8201601f191660200161467c565b91508082528560208285010111156152dd57600080fd5b6152ee816020840160208601614b34565b50949350505050565b600081518084526020808501945080840160005b838110156153275781518752958201959082019060010161530b565b509495945050505050565b6020815261534860208201835162ffffff169052565b60006020830151615360604084018262ffffff169052565b506040830151615375606084018260020b9052565b50606083015161538a608084018260020b9052565b50608083015161539f60a084018260020b9052565b5060a08301516153b460c084018260020b9052565b5060c08301516153c960e084018260020b9052565b5060e08301516101006153e08185018360020b9052565b84015190506101206153f98482018363ffffffff169052565b8401519050610140615415848201836001600160a01b03169052565b84015161016084810191909152840151610180808501919091528401516101a0808501919091528401516101c080850152905061319c6101e08401826152f7565b6000808335601e1984360301811261546d57600080fd5b8301803591506001600160401b0382111561548757600080fd5b60200191503681900382131561549c57600080fd5b9250929050565b600062ffffff8083168185168083038211156154c1576154c1614f45565b01949350505050565b600062ffffff808316818516818304811182151516156154ec576154ec614f45565b02949350505050565b6020808252825182820181905260009190848201906040850190845b8181101561553357835163ffffffff1683529284019291840191600101615511565b50909695505050505050565b600082601f83011261555057600080fd5b81516020615560614756836146ac565b82815260059290921b8401810191818101908684111561557f57600080fd5b8286015b8481101561488a57805161559681614590565b8352918301918301615583565b600080604083850312156155b657600080fd5b82516001600160401b03808211156155cd57600080fd5b818501915085601f8301126155e157600080fd5b815160206155f1614756836146ac565b82815260059290921b8401810191818101908984111561561057600080fd5b948201945b8386101561563e5785518060060b811461562f5760008081fd5b82529482019490820190615615565b9188015191965090935050508082111561565757600080fd5b50614daf8582860161553f565b60008160060b8360060b6000811281667fffffffffffff190183128115161561568f5761568f614f45565b81667fffffffffffff018313811615614f9957614f99614f45565b60006001600160a01b03838116908316818110156156ca576156ca614f45565b039392505050565b60008160060b8360060b806156e9576156e9615128565b667fffffffffffff1982146000198214161561521e5761521e614f45565b60008260060b8061571a5761571a615128565b808360060b0791505092915050565b60008160020b627fffff1981141561574357615743614f45565b6000190192915050565b60006001600160c01b03828116848216811515828404821116156154ec576154ec614f45565b60006001600160c01b038381168061578d5761578d615128565b92169190910492915050565b6000602082840312156157ab57600080fd5b5051919050565b6000600160ff1b8214156157c8576157c8614f45565b5060000390565b60008160001904831182151516156157e9576157e9614f45565b500290565b6000826157fd576157fd615128565b500490565b60008261581157615811615128565b500690565b6001600160a01b0384811682526080602080840182905285519184018290526000928682019290919060a0860190855b81811015615864578551851683529483019491830191600101615846565b5050858103604087015261587881886152f7565b86810360609097019690965250600085529093019695505050505050565b6000602082840312156158a857600080fd5b81516001600160401b038111156158be57600080fd5b61319c84828501614ff8565b80516145b0816147e5565b80516001600160801b03811681146145b057600080fd5b6000806000806000806000806000806000806101808d8f03121561590f57600080fd5b8c516bffffffffffffffffffffffff8116811461592b57600080fd5b9b5061593960208e01614dcf565b9a5061594760408e01614dcf565b995061595560608e01614dcf565b985061596360808e016158ca565b975061597160a08e01614e85565b965061597f60c08e01614e85565b955061598d60e08e016158d5565b94506101008d015193506101208d015192506159ac6101408e016158d5565b91506159bb6101608e016158d5565b90509295989b509295989b509295989b565b6000602082840312156159df57600080fd5b815161188e816147e5565b81516001600160a01b0316815261016081016020830151615a1660208401826001600160a01b03169052565b506040830151615a2d604084018262ffffff169052565b506060830151615a42606084018260020b9052565b506080830151615a57608084018260020b9052565b5060a083015160a083015260c083015160c083015260e083015160e083015261010080840151818401525061012080840151615a9d828501826001600160a01b03169052565b505061014092830151919092015290565b60008060008060808587031215615ac457600080fd5b84519350615ad4602086016158d5565b6040860151606090960151949790965092505050565b6bffffffffffffffffffffffff19606096871b811682526001600160e81b031960e896871b8116601484015294871b811660178301529290941b909216602b840152921b909116602e82015260420190565b6000815160a08452615b5160a0850182614b60565b6020848101516001600160a01b031690860152604080850151908601526060808501519086015260809384015193909401929092525090919050565b60208152600061188e6020830184615b3c565b604081526000615bb36040830185615b3c565b90508260208301529392505050565b7f416363657373436f6e74726f6c3a206163636f756e7420000000000000000000815260008351615bfa816017850160208801614b34565b7001034b99036b4b9b9b4b733903937b6329607d1b6017918401918201528351615c2b816028840160208801614b34565b01602801949350505050565b600060208284031215615c4957600080fd5b61188e82614ea2565b60008251615c64818460208701614b34565b9190910192915050565b600081615c7d57615c7d614f45565b506000190190565b634e487b7160e01b600052603160045260246000fdfec171260023d22a25a00a2789664c9334017843b831138c8ef03cc8897e5873d7f23ec0bb4210edd5cba85afd05127efcd2fc6a781bfed49188da1081670b22d846a52cf33029de9f84853745a87af28464c80bf0346df1b32e205fc73319f622416464726573733a206c6f772d6c6576656c2064656c65676174652063616c6c206661696c6564a2646970667358221220cf54b61e9348e226c7b67fa9abac29a5916f8d51466742ea59bb5a2b888d158a64736f6c63430008090033",
    "linkReferences": {}
  },
  "methodIdentifiers": {
    "ADMIN_DELEGATE_ROLE()": "0952ff54",
    "ADMIN_ROLE()": "75b238fc",
    "D6()": "a11bac74",
    "DEFAULT_ADMIN_ROLE()": "a217fddf",
    "DENOMINATOR()": "918f8674",
    "MAX_MINTING_PARAMS()": "e3b3f799",
    "OPERATOR()": "983d2737",
    "Q96()": "40792465",
    "calculateAmountsForSwap((address,address,address,address[]),(uint24,uint24,int24,int24,int24,int24,int24,int24,uint32,address,uint256,uint256,uint256,uint256[]),uint256,uint256)": "52f344d0",
    "calculateNewInterval((uint24,uint24,int24,int24,int24,int24,int24,int24,uint32,address,uint256,uint256,uint256,uint256[]),int24,address)": "6f259f10",
    "calculateTargetRatioOfToken1((int24,int24),uint160,uint256)": "9bb37ba8",
    "checkImmutableParams((address,address,address,address[]))": "475cffef",
    "checkMutableParams((uint24,uint24,int24,int24,int24,int24,int24,int24,uint32,address,uint256,uint256,uint256,uint256[]),(address,address,address,address[]))": "cfb98a03",
    "checkTickDeviations((address,address,address,address[]),(uint24,uint24,int24,int24,int24,int24,int24,int24,uint32,address,uint256,uint256,uint256,uint256[]),address)": "4c41466a",
    "contractName()": "75d0c0dc",
    "contractNameBytes()": "0e3e80ac",
    "contractVersion()": "a0a8e460",
    "contractVersionBytes()": "06a46239",
    "depositCallback()": "e521826f",
    "getRoleAdmin(bytes32)": "248a9ca3",
    "getRoleMember(bytes32,uint256)": "9010d07c",
    "getRoleMemberCount(bytes32)": "ca15c873",
    "grantRole(bytes32,address)": "2f2ff15d",
    "hasRole(bytes32,address)": "91d14854",
    "immutableParams()": "c8014d53",
    "init(address)": "19ab453c",
    "initialize((address,address,address,address[]),address)": "6ff0b358",
    "initialized()": "158ef93e",
    "isAdmin(address)": "24d7806c",
    "isOperator(address)": "6d70f7ae",
    "multicall(bytes[])": "ac9650d8",
    "mutableParams()": "5f408a21",
    "positionManager()": "791b98bc",
    "rebalance(uint256)": "f4993018",
    "renounceRole(bytes32,address)": "36568abe",
    "revokeRole(bytes32,address)": "d547741f",
    "supportsInterface(bytes4)": "01ffc9a7",
    "updateMutableParams((uint24,uint24,int24,int24,int24,int24,int24,int24,uint32,address,uint256,uint256,uint256,uint256[]))": "a4b7e9df",
    "withdrawCallback()": "b4559f3e"
  },
  "id": 403
}