{
  "abi": [
    {
      "inputs": [
        {
          "components": [
            {
              "internalType": "contract IProtocolGovernance",
              "name": "protocolGovernance",
              "type": "address"
            },
            {
              "internalType": "contract IVaultRegistry",
              "name": "registry",
              "type": "address"
            },
            {
              "internalType": "contract IVault",
              "name": "singleton",
              "type": "address"
            }
          ],
          "internalType": "struct IVaultGovernance.InternalParams",
          "name": "internalParams_",
          "type": "tuple"
        }
      ],
      "stateMutability": "nonpayable",
      "type": "constructor"
    },
    {
      "anonymous": false,
      "inputs": [
        {
          "indexed": true,
          "internalType": "address",
          "name": "origin",
          "type": "address"
        },
        {
          "indexed": true,
          "internalType": "address",
          "name": "sender",
          "type": "address"
        },
        {
          "components": [
            {
              "internalType": "contract IProtocolGovernance",
              "name": "protocolGovernance",
              "type": "address"
            },
            {
              "internalType": "contract IVaultRegistry",
              "name": "registry",
              "type": "address"
            },
            {
              "internalType": "contract IVault",
              "name": "singleton",
              "type": "address"
            }
          ],
          "indexed": false,
          "internalType": "struct IVaultGovernance.InternalParams",
          "name": "params",
          "type": "tuple"
        }
      ],
      "name": "CommitedInternalParams",
      "type": "event"
    },
    {
      "anonymous": false,
      "inputs": [
        {
          "indexed": true,
          "internalType": "address",
          "name": "origin",
          "type": "address"
        },
        {
          "indexed": true,
          "internalType": "address",
          "name": "sender",
          "type": "address"
        },
        {
          "indexed": false,
          "internalType": "address[]",
          "name": "vaultTokens",
          "type": "address[]"
        },
        {
          "indexed": false,
          "internalType": "bytes",
          "name": "options",
          "type": "bytes"
        },
        {
          "indexed": false,
          "internalType": "address",
          "name": "owner",
          "type": "address"
        },
        {
          "indexed": false,
          "internalType": "address",
          "name": "vaultAddress",
          "type": "address"
        },
        {
          "indexed": false,
          "internalType": "uint256",
          "name": "vaultNft",
          "type": "uint256"
        }
      ],
      "name": "DeployedVault",
      "type": "event"
    },
    {
      "anonymous": false,
      "inputs": [
        {
          "indexed": true,
          "internalType": "address",
          "name": "origin",
          "type": "address"
        },
        {
          "indexed": true,
          "internalType": "address",
          "name": "sender",
          "type": "address"
        },
        {
          "indexed": true,
          "internalType": "uint256",
          "name": "nft",
          "type": "uint256"
        },
        {
          "components": [
            {
              "components": [
                {
                  "internalType": "bytes32",
                  "name": "poolId",
                  "type": "bytes32"
                },
                {
                  "internalType": "uint256",
                  "name": "assetInIndex",
                  "type": "uint256"
                },
                {
                  "internalType": "uint256",
                  "name": "assetOutIndex",
                  "type": "uint256"
                },
                {
                  "internalType": "uint256",
                  "name": "amount",
                  "type": "uint256"
                },
                {
                  "internalType": "bytes",
                  "name": "userData",
                  "type": "bytes"
                }
              ],
              "internalType": "struct IVault.BatchSwapStep[]",
              "name": "swaps",
              "type": "tuple[]"
            },
            {
              "internalType": "contract IAsset[]",
              "name": "assets",
              "type": "address[]"
            },
            {
              "components": [
                {
                  "internalType": "address",
                  "name": "sender",
                  "type": "address"
                },
                {
                  "internalType": "bool",
                  "name": "fromInternalBalance",
                  "type": "bool"
                },
                {
                  "internalType": "address payable",
                  "name": "recipient",
                  "type": "address"
                },
                {
                  "internalType": "bool",
                  "name": "toInternalBalance",
                  "type": "bool"
                }
              ],
              "internalType": "struct IVault.FundManagement",
              "name": "funds",
              "type": "tuple"
            },
            {
              "internalType": "contract IAggregatorV3",
              "name": "rewardOracle",
              "type": "address"
            },
            {
              "internalType": "contract IAggregatorV3",
              "name": "underlyingOracle",
              "type": "address"
            },
            {
              "internalType": "uint256",
              "name": "slippageD",
              "type": "uint256"
            }
          ],
          "indexed": false,
          "internalType": "struct IBalancerV2VaultGovernance.StrategyParams",
          "name": "params",
          "type": "tuple"
        }
      ],
      "name": "SetStrategyParams",
      "type": "event"
    },
    {
      "anonymous": false,
      "inputs": [
        {
          "indexed": true,
          "internalType": "address",
          "name": "origin",
          "type": "address"
        },
        {
          "indexed": true,
          "internalType": "address",
          "name": "sender",
          "type": "address"
        },
        {
          "components": [
            {
              "internalType": "contract IProtocolGovernance",
              "name": "protocolGovernance",
              "type": "address"
            },
            {
              "internalType": "contract IVaultRegistry",
              "name": "registry",
              "type": "address"
            },
            {
              "internalType": "contract IVault",
              "name": "singleton",
              "type": "address"
            }
          ],
          "indexed": false,
          "internalType": "struct IVaultGovernance.InternalParams",
          "name": "params",
          "type": "tuple"
        },
        {
          "indexed": false,
          "internalType": "uint256",
          "name": "when",
          "type": "uint256"
        }
      ],
      "name": "StagedInternalParams",
      "type": "event"
    },
    {
      "inputs": [],
      "name": "commitInternalParams",
      "outputs": [],
      "stateMutability": "nonpayable",
      "type": "function"
    },
    {
      "inputs": [],
      "name": "contractName",
      "outputs": [
        {
          "internalType": "string",
          "name": "",
          "type": "string"
        }
      ],
      "stateMutability": "pure",
      "type": "function"
    },
    {
      "inputs": [],
      "name": "contractNameBytes",
      "outputs": [
        {
          "internalType": "bytes32",
          "name": "",
          "type": "bytes32"
        }
      ],
      "stateMutability": "pure",
      "type": "function"
    },
    {
      "inputs": [],
      "name": "contractVersion",
      "outputs": [
        {
          "internalType": "string",
          "name": "",
          "type": "string"
        }
      ],
      "stateMutability": "pure",
      "type": "function"
    },
    {
      "inputs": [],
      "name": "contractVersionBytes",
      "outputs": [
        {
          "internalType": "bytes32",
          "name": "",
          "type": "bytes32"
        }
      ],
      "stateMutability": "pure",
      "type": "function"
    },
    {
      "inputs": [
        {
          "internalType": "address[]",
          "name": "vaultTokens_",
          "type": "address[]"
        },
        {
          "internalType": "address",
          "name": "owner_",
          "type": "address"
        },
        {
          "internalType": "address",
          "name": "pool_",
          "type": "address"
        },
        {
          "internalType": "address",
          "name": "balancerVault_",
          "type": "address"
        },
        {
          "internalType": "address",
          "name": "stakingLiquidityGauge_",
          "type": "address"
        },
        {
          "internalType": "address",
          "name": "balancerMinter_",
          "type": "address"
        }
      ],
      "name": "createVault",
      "outputs": [
        {
          "internalType": "contract IBalancerV2Vault",
          "name": "vault",
          "type": "address"
        },
        {
          "internalType": "uint256",
          "name": "nft",
          "type": "uint256"
        }
      ],
      "stateMutability": "nonpayable",
      "type": "function"
    },
    {
      "inputs": [],
      "name": "delayedProtocolParamsTimestamp",
      "outputs": [
        {
          "internalType": "uint256",
          "name": "",
          "type": "uint256"
        }
      ],
      "stateMutability": "view",
      "type": "function"
    },
    {
      "inputs": [
        {
          "internalType": "uint256",
          "name": "nft",
          "type": "uint256"
        }
      ],
      "name": "delayedProtocolPerVaultParamsTimestamp",
      "outputs": [
        {
          "internalType": "uint256",
          "name": "",
          "type": "uint256"
        }
      ],
      "stateMutability": "view",
      "type": "function"
    },
    {
      "inputs": [
        {
          "internalType": "uint256",
          "name": "nft",
          "type": "uint256"
        }
      ],
      "name": "delayedStrategyParamsTimestamp",
      "outputs": [
        {
          "internalType": "uint256",
          "name": "",
          "type": "uint256"
        }
      ],
      "stateMutability": "view",
      "type": "function"
    },
    {
      "inputs": [],
      "name": "internalParams",
      "outputs": [
        {
          "components": [
            {
              "internalType": "contract IProtocolGovernance",
              "name": "protocolGovernance",
              "type": "address"
            },
            {
              "internalType": "contract IVaultRegistry",
              "name": "registry",
              "type": "address"
            },
            {
              "internalType": "contract IVault",
              "name": "singleton",
              "type": "address"
            }
          ],
          "internalType": "struct IVaultGovernance.InternalParams",
          "name": "",
          "type": "tuple"
        }
      ],
      "stateMutability": "view",
      "type": "function"
    },
    {
      "inputs": [],
      "name": "internalParamsTimestamp",
      "outputs": [
        {
          "internalType": "uint256",
          "name": "",
          "type": "uint256"
        }
      ],
      "stateMutability": "view",
      "type": "function"
    },
    {
      "inputs": [
        {
          "internalType": "uint256",
          "name": "nft",
          "type": "uint256"
        },
        {
          "components": [
            {
              "components": [
                {
                  "internalType": "bytes32",
                  "name": "poolId",
                  "type": "bytes32"
                },
                {
                  "internalType": "uint256",
                  "name": "assetInIndex",
                  "type": "uint256"
                },
                {
                  "internalType": "uint256",
                  "name": "assetOutIndex",
                  "type": "uint256"
                },
                {
                  "internalType": "uint256",
                  "name": "amount",
                  "type": "uint256"
                },
                {
                  "internalType": "bytes",
                  "name": "userData",
                  "type": "bytes"
                }
              ],
              "internalType": "struct IVault.BatchSwapStep[]",
              "name": "swaps",
              "type": "tuple[]"
            },
            {
              "internalType": "contract IAsset[]",
              "name": "assets",
              "type": "address[]"
            },
            {
              "components": [
                {
                  "internalType": "address",
                  "name": "sender",
                  "type": "address"
                },
                {
                  "internalType": "bool",
                  "name": "fromInternalBalance",
                  "type": "bool"
                },
                {
                  "internalType": "address payable",
                  "name": "recipient",
                  "type": "address"
                },
                {
                  "internalType": "bool",
                  "name": "toInternalBalance",
                  "type": "bool"
                }
              ],
              "internalType": "struct IVault.FundManagement",
              "name": "funds",
              "type": "tuple"
            },
            {
              "internalType": "contract IAggregatorV3",
              "name": "rewardOracle",
              "type": "address"
            },
            {
              "internalType": "contract IAggregatorV3",
              "name": "underlyingOracle",
              "type": "address"
            },
            {
              "internalType": "uint256",
              "name": "slippageD",
              "type": "uint256"
            }
          ],
          "internalType": "struct IBalancerV2VaultGovernance.StrategyParams",
          "name": "params",
          "type": "tuple"
        }
      ],
      "name": "setStrategyParams",
      "outputs": [],
      "stateMutability": "nonpayable",
      "type": "function"
    },
    {
      "inputs": [
        {
          "components": [
            {
              "internalType": "contract IProtocolGovernance",
              "name": "protocolGovernance",
              "type": "address"
            },
            {
              "internalType": "contract IVaultRegistry",
              "name": "registry",
              "type": "address"
            },
            {
              "internalType": "contract IVault",
              "name": "singleton",
              "type": "address"
            }
          ],
          "internalType": "struct IVaultGovernance.InternalParams",
          "name": "newParams",
          "type": "tuple"
        }
      ],
      "name": "stageInternalParams",
      "outputs": [],
      "stateMutability": "nonpayable",
      "type": "function"
    },
    {
      "inputs": [],
      "name": "stagedInternalParams",
      "outputs": [
        {
          "components": [
            {
              "internalType": "contract IProtocolGovernance",
              "name": "protocolGovernance",
              "type": "address"
            },
            {
              "internalType": "contract IVaultRegistry",
              "name": "registry",
              "type": "address"
            },
            {
              "internalType": "contract IVault",
              "name": "singleton",
              "type": "address"
            }
          ],
          "internalType": "struct IVaultGovernance.InternalParams",
          "name": "",
          "type": "tuple"
        }
      ],
      "stateMutability": "view",
      "type": "function"
    },
    {
      "inputs": [
        {
          "internalType": "uint256",
          "name": "nft",
          "type": "uint256"
        }
      ],
      "name": "strategyParams",
      "outputs": [
        {
          "components": [
            {
              "components": [
                {
                  "internalType": "bytes32",
                  "name": "poolId",
                  "type": "bytes32"
                },
                {
                  "internalType": "uint256",
                  "name": "assetInIndex",
                  "type": "uint256"
                },
                {
                  "internalType": "uint256",
                  "name": "assetOutIndex",
                  "type": "uint256"
                },
                {
                  "internalType": "uint256",
                  "name": "amount",
                  "type": "uint256"
                },
                {
                  "internalType": "bytes",
                  "name": "userData",
                  "type": "bytes"
                }
              ],
              "internalType": "struct IVault.BatchSwapStep[]",
              "name": "swaps",
              "type": "tuple[]"
            },
            {
              "internalType": "contract IAsset[]",
              "name": "assets",
              "type": "address[]"
            },
            {
              "components": [
                {
                  "internalType": "address",
                  "name": "sender",
                  "type": "address"
                },
                {
                  "internalType": "bool",
                  "name": "fromInternalBalance",
                  "type": "bool"
                },
                {
                  "internalType": "address payable",
                  "name": "recipient",
                  "type": "address"
                },
                {
                  "internalType": "bool",
                  "name": "toInternalBalance",
                  "type": "bool"
                }
              ],
              "internalType": "struct IVault.FundManagement",
              "name": "funds",
              "type": "tuple"
            },
            {
              "internalType": "contract IAggregatorV3",
              "name": "rewardOracle",
              "type": "address"
            },
            {
              "internalType": "contract IAggregatorV3",
              "name": "underlyingOracle",
              "type": "address"
            },
            {
              "internalType": "uint256",
              "name": "slippageD",
              "type": "uint256"
            }
          ],
          "internalType": "struct IBalancerV2VaultGovernance.StrategyParams",
          "name": "",
          "type": "tuple"
        }
      ],
      "stateMutability": "view",
      "type": "function"
    },
    {
      "inputs": [
        {
          "internalType": "bytes4",
          "name": "interfaceId",
          "type": "bytes4"
        }
      ],
      "name": "supportsInterface",
      "outputs": [
        {
          "internalType": "bool",
          "name": "",
          "type": "bool"
        }
      ],
      "stateMutability": "view",
      "type": "function"
    }
  ],
  "bytecode": {
    "object": "0x60806040523480156200001157600080fd5b50604051620020bb380380620020bb83398101604081905262000034916200018a565b805160408051808201909152600281526120ad60f11b602082015282916001600160a01b0316620000835760405162461bcd60e51b81526004016200007a919062000211565b60405180910390fd5b5060006001600160a01b031681602001516001600160a01b031614156040518060400160405280600281526020016120ad60f11b81525090620000db5760405162461bcd60e51b81526004016200007a919062000211565b506040808201518151808301909252600282526120ad60f11b60208301526001600160a01b0316620001225760405162461bcd60e51b81526004016200007a919062000211565b508051600080546001600160a01b03199081166001600160a01b039384161790915560208301516001805483169184169190911790556040909201516002805490931691161790555062000269565b6001600160a01b03811681146200018757600080fd5b50565b6000606082840312156200019d57600080fd5b604051606081016001600160401b0381118282101715620001ce57634e487b7160e01b600052604160045260246000fd5b6040528251620001de8162000171565b81526020830151620001f08162000171565b60208201526040830151620002058162000171565b60408201529392505050565b600060208083528351808285015260005b81811015620002405785810183015185820160400152820162000222565b8181111562000253576000604083870101525b50601f01601f1916929092016040019392505050565b611e4280620002796000396000f3fe608060405234801561001057600080fd5b50600436106101005760003560e01c80636707acee11610097578063a0a8e46011610066578063a0a8e460146102c3578063c6be9b22146102cb578063d4a07d34146102fd578063e4af6e791461030557600080fd5b80636707acee146101db57806375d0c0dc146101fb5780637ac46fbb1461021057806386c6be3e1461027057600080fd5b806312466b68116100d357806312466b68146101805780631c7f4c73146101a0578063511ce798146101a85780635c7017cc146101c857600080fd5b806301ffc9a71461010557806306a462391461012d57806309946538146101455780630e3e80ac1461015a575b600080fd5b61011861011336600461114b565b61030d565b60405190151581526020015b60405180910390f35b640312e302e360dc1b5b604051908152602001610124565b610158610153366004611221565b61033e565b005b7f42616c616e63657256324353505661756c74476f7665726e616e636500000000610137565b61019361018e366004611292565b610530565b604051610124919061134b565b600654610137565b6101376101b6366004611292565b6000908152600c602052604090205490565b6101586101d636600461147d565b61072e565b6101376101e9366004611292565b60009081526009602052604090205490565b610203610856565b60405161012491906114cb565b610263604080516060810182526000808252602082018190529181019190915250604080516060810182526000546001600160a01b03908116825260015481166020830152600254169181019190915290565b60405161012491906114de565b610263604080516060810182526000808252602082018190529181019190915250604080516060810182526003546001600160a01b03908116825260045481166020830152600554169181019190915290565b610203610881565b6102de6102d9366004611541565b610894565b604080516001600160a01b039093168352602083019190915201610124565b6101586109a0565b600f54610137565b600061031882610aca565b80610333575063444473c360e11b6001600160e01b03198316145b92915050565b905090565b610346610b00565b805160408051808201909152600281526120ad60f11b6020820152906001600160a01b03166103915760405162461bcd60e51b815260040161038891906114cb565b60405180910390fd5b5060006001600160a01b031681602001516001600160a01b031614156040518060400160405280600281526020016120ad60f11b815250906103e65760405162461bcd60e51b815260040161038891906114cb565b506040808201518151808301909252600282526120ad60f11b60208301526001600160a01b031661042a5760405162461bcd60e51b815260040161038891906114cb565b508051600380546001600160a01b03199081166001600160a01b03938416179091556020808401516004805484169185169190911781556040808601516005805490951690861617909355600054835163bba3293960e01b8152935194169363bba3293993808301939290829003018186803b1580156104a957600080fd5b505afa1580156104bd573d6000803e3d6000fd5b505050506040513d601f19601f820116820180604052508101906104e19190611632565b6104eb9042611661565b6006819055604051339132917f0887cab3184f7c02b16978ab31f8acee05979f59fc3da6abe5bf71105ec3179d9161052591869190611679565b60405180910390a350565b6105876040805160c081018252606080825260208083018290528351608081018552600080825291810182905280850182905291820152909182019081526000602082018190526040820181905260609091015290565b600082815260106020526040902080546105a0906116b6565b151590506106845760408051600060c0820181815260e083019093529091829161060d565b6105fa6040518060a0016040528060008019168152602001600081526020016000815260200160008152602001606081525090565b8152602001906001900390816105c55790505b508152602001600060405190808252806020026020018201604052801561063e578160200160208202803683370190505b5081526040805160808082018352600080835260208381018290528385018290526060808501839052908601939093529284018390529083018290529091015292915050565b6000828152601060205260409020805461069d906116b6565b80601f01602080910402602001604051908101604052809291908181526020018280546106c9906116b6565b80156107165780601f106106eb57610100808354040283529160200191610716565b820191906000526020600020905b8154815290600101906020018083116106f957829003601f168201915b50505050508060200190518101906103339190611940565b600061073a8280611a11565b9050118015610757575060016107536020830183611a11565b9050115b801561077c5750600061077060e0830160c08401611a61565b6001600160a01b031614155b80156107a257506000610796610100830160e08401611a61565b6001600160a01b031614155b6040518060400160405280600381526020016224a72b60e91b815250906107dc5760405162461bcd60e51b815260040161038891906114cb565b5061080682826040516020016107f29190611b8c565b604051602081830303815290604052610bb8565b81336001600160a01b0316326001600160a01b03167f1fdaade9ffbe7e868e23f5165c1cda9a14042befdaf756413e8a1b48115d27e98460405161084a9190611b8c565b60405180910390a45050565b60606103397f42616c616e63657256324353505661756c74476f7665726e616e636500000000610be5565b6060610339640312e302e360dc1b610be5565b60008060006108a288610c51565b6040516369e99c5760e11b815291945092508391506001600160a01b0382169063d3d338ae906108e09085908d908c908c908c908c90600401611d0b565b600060405180830381600087803b1580156108fa57600080fd5b505af115801561090e573d6000803e3d6000fd5b5050604080516001600160a01b038b811660208301528a811692820192909252888216606082015290871660808201523392503291507f8a4513c05d15df8ece912856923273e166e39f5c9c2b43d2b38594023494a0e0908c9060a00160408051601f198184030181529082905261098c92918e9088908a90611d57565b60405180910390a350965096945050505050565b6109a8610b00565b6006546040805180820190915260048152631395531360e21b6020820152906109e45760405162461bcd60e51b815260040161038891906114cb565b5060065442101560405180604001604052806002815260200161545360f01b81525090610a245760405162461bcd60e51b815260040161038891906114cb565b5060038054600080546001600160a01b038084166001600160a01b03199283168117845560048054600180548286169087168117909155600580546002805497821697891688179055600698909855978616909855841690559290911690925560408051918252602082019390935291820152339032907fef3e4bc9725fa684957d7de03c6dcd01078ee86cf78ceef25c5f8346df69cc999060600160405180910390a3565b60006301ffc9a760e01b6001600160e01b03198316148061033357506001600160e01b0319821663effda0f560e01b1492915050565b600054604051630935e01b60e21b81523360048201526001600160a01b03909116906324d7806c9060240160206040518083038186803b158015610b4357600080fd5b505afa158015610b57573d6000803e3d6000fd5b505050506040513d601f19601f82011682018060405250810190610b7b9190611da1565b6040518060400160405280600381526020016223292160e91b81525090610bb55760405162461bcd60e51b815260040161038891906114cb565b50565b610bc182610e42565b60008281526010602090815260409091208251610be0928401906110b2565b505050565b604080516020808252818301909252606091602082018180368337019050509050602060005b6020811015610c4357838160208110610c2657610c26611dbe565b1a610c3357809150610c43565b610c3c81611dd4565b9050610c0b565b508152602081019190915290565b600080546040516363e85d2d60e01b81523360048201526001602482015282916001600160a01b03169081906363e85d2d9060440160206040518083038186803b158015610c9e57600080fd5b505afa158015610cb2573d6000803e3d6000fd5b505050506040513d601f19601f82011682018060405250810190610cd69190611da1565b6040518060400160405280600381526020016223292160e91b81525090610d105760405162461bcd60e51b815260040161038891906114cb565b5060015460408051631112eee760e31b815290516001600160a01b039092169182916388977738916004808301926020929190829003018186803b158015610d5757600080fd5b505afa158015610d6b573d6000803e3d6000fd5b505050506040513d601f19601f82011682018060405250810190610d8f9190611632565b610d9a906001611661565b600254909350610db3906001600160a01b031684611015565b6040516305c4fdf960e01b81526001600160a01b0380831660048301528781166024830152919550908216906305c4fdf990604401602060405180830381600087803b158015610e0257600080fd5b505af1158015610e16573d6000803e3d6000fd5b505050506040513d601f19601f82011682018060405250810190610e3a9190611632565b505050915091565b600054604051630935e01b60e21b81523360048201526001600160a01b03909116906324d7806c9060240160206040518083038186803b158015610e8557600080fd5b505afa158015610e99573d6000803e3d6000fd5b505050506040513d601f19601f82011682018060405250810190610ebd9190611da1565b80610f4a575060015460405163020604bf60e21b81526004810183905233916001600160a01b03169063081812fc9060240160206040518083038186803b158015610f0757600080fd5b505afa158015610f1b573d6000803e3d6000fd5b505050506040513d601f19601f82011682018060405250810190610f3f9190611def565b6001600160a01b0316145b80610fd757506001546040516331a9108f60e11b81526004810183905233916001600160a01b031690636352211e9060240160206040518083038186803b158015610f9457600080fd5b505afa158015610fa8573d6000803e3d6000fd5b505050506040513d601f19601f82011682018060405250810190610fcc9190611def565b6001600160a01b0316145b6040518060400160405280600381526020016223292160e91b815250906110115760405162461bcd60e51b815260040161038891906114cb565b5050565b6000763d602d80600a3d3981f3363d3d373d3d3d363d730000008360601b60e81c176000526e5af43d82803e903d91602b57fd5bf38360781b1760205281603760096000f590506001600160a01b0381166103335760405162461bcd60e51b815260206004820152601760248201527f455243313136373a2063726561746532206661696c65640000000000000000006044820152606401610388565b8280546110be906116b6565b90600052602060002090601f0160209004810192826110e05760008555611126565b82601f106110f957805160ff1916838001178555611126565b82800160010185558215611126579182015b8281111561112657825182559160200191906001019061110b565b50611132929150611136565b5090565b5b808211156111325760008155600101611137565b60006020828403121561115d57600080fd5b81356001600160e01b03198116811461117557600080fd5b9392505050565b634e487b7160e01b600052604160045260246000fd5b60405160a081016001600160401b03811182821017156111b4576111b461117c565b60405290565b60405160c081016001600160401b03811182821017156111b4576111b461117c565b604051601f8201601f191681016001600160401b03811182821017156112045761120461117c565b604052919050565b6001600160a01b0381168114610bb557600080fd5b60006060828403121561123357600080fd5b604051606081018181106001600160401b03821117156112555761125561117c565b60405282356112638161120c565b815260208301356112738161120c565b602082015260408301356112868161120c565b60408201529392505050565b6000602082840312156112a457600080fd5b5035919050565b60005b838110156112c65781810151838201526020016112ae565b838111156112d5576000848401525b50505050565b600081518084526112f38160208601602086016112ab565b601f01601f19169290920160200192915050565b600081518084526020808501945080840160005b838110156113405781516001600160a01b03168752958201959082019060010161131b565b509495945050505050565b602080825282516101208383018190528151610140850181905260009392610160600583901b87018101939185019290870190865b818110156113e35788860361015f190183528451805187528781015188880152604080820151908801526060808201519088015260809081015160a0918801829052906113cf818901836112db565b975050509386019391860191600101611380565b50505092860151858303601f19016040870152926114018385611307565b935060408701519250611447606087018480516001600160a01b039081168352602080830151151590840152604080830151909116908301526060908101511515910152565b60608701516001600160a01b0390811660e088015260808801511661010087015260a09096015195909401949094529392505050565b6000806040838503121561149057600080fd5b8235915060208301356001600160401b038111156114ad57600080fd5b830161012081860312156114c057600080fd5b809150509250929050565b60208152600061117560208301846112db565b60608101610333828480516001600160a01b03908116835260208083015182169084015260409182015116910152565b60006001600160401b038211156115275761152761117c565b5060051b60200190565b803561153c8161120c565b919050565b60008060008060008060c0878903121561155a57600080fd5b86356001600160401b0381111561157057600080fd5b8701601f8101891361158157600080fd5b803560206115966115918361150e565b6111dc565b82815260059290921b8301810191818101908c8411156115b557600080fd5b938201935b838510156115dc5784356115cd8161120c565b825293820193908201906115ba565b99506115eb90508a8201611531565b97505050506115fc60408801611531565b935061160a60608801611531565b925061161860808801611531565b915061162660a08801611531565b90509295509295509295565b60006020828403121561164457600080fd5b5051919050565b634e487b7160e01b600052601160045260246000fd5b600082198211156116745761167461164b565b500190565b608081016116a9828580516001600160a01b03908116835260208083015182169084015260409182015116910152565b8260608301529392505050565b600181811c908216806116ca57607f821691505b602082108114156116eb57634e487b7160e01b600052602260045260246000fd5b50919050565b600082601f83011261170257600080fd5b815160206117126115918361150e565b82815260059290921b8401810191818101908684111561173157600080fd5b8286015b8481101561182e5780516001600160401b03808211156117555760008081fd5b9088019060a0601f19838c0381018213156117705760008081fd5b611778611192565b848901518152604080860151828b015260608087015182840152608080880151828501529487015194868611156117b157600091508182fd5b85880197508f603f8901126117c857600095508586fd5b8b8801519550868611156117de576117de61117c565b6117ee8c86601f890116016111dc565b96508587528f83878a0101111561180757600094508485fd5b611816868d8901858b016112ab565b83019590955250875250505092840192508301611735565b509695505050505050565b600082601f83011261184a57600080fd5b8151602061185a6115918361150e565b82815260059290921b8401810191818101908684111561187957600080fd5b8286015b8481101561182e5780516118908161120c565b835291830191830161187d565b8015158114610bb557600080fd5b6000608082840312156118bd57600080fd5b604051608081018181106001600160401b03821117156118df576118df61117c565b806040525080915082516118f28161120c565b815260208301516119028161189d565b602082015260408301516119158161120c565b604082015260608301516119288161189d565b6060919091015292915050565b805161153c8161120c565b60006020828403121561195257600080fd5b81516001600160401b038082111561196957600080fd5b90830190610120828603121561197e57600080fd5b6119866111ba565b82518281111561199557600080fd5b6119a1878286016116f1565b8252506020830151828111156119b657600080fd5b6119c287828601611839565b6020830152506119d586604085016118ab565b60408201526119e660c08401611935565b60608201526119f760e08401611935565b6080820152610100929092015160a0830152509392505050565b6000808335601e19843603018112611a2857600080fd5b8301803591506001600160401b03821115611a4257600080fd5b6020019150600581901b3603821315611a5a57600080fd5b9250929050565b600060208284031215611a7357600080fd5b81356111758161120c565b6000808335601e19843603018112611a9557600080fd5b83016020810192503590506001600160401b03811115611ab457600080fd5b8060051b3603831315611a5a57600080fd5b81835281816020850137506000828201602090810191909152601f909101601f19169091010190565b8183526000602080850194508260005b85811015611340578135611b128161120c565b6001600160a01b031687529582019590820190600101611aff565b8035611b388161120c565b6001600160a01b039081168352602082013590611b548261189d565b9015156020840152604082013590611b6b8261120c565b1660408301526060810135611b7f8161189d565b8015156060840152505050565b600060208083526101408301611ba28586611a7e565b61012084870181905292819052610160600582901b87018101939087018360005b84811015611c795789870361015f19018352813536879003609e19018112611bea57600080fd5b8601803588528881013589890152604080820135908901526060808201359089015260a060808083013536849003601e19018112611c2757600080fd5b830180356001600160401b03811115611c3f57600080fd5b803603851315611c4e57600080fd5b83838d0152611c62848d01828f8501611ac6565b9b505050948a019450505090870190600101611bc3565b505050611c8885890189611a7e565b888603601f190160408a015295509250611ca3848685611aef565b9450611cb56060880160408a01611b2d565b611cc160c08901611531565b6001600160a01b03811660e08901529350611cde60e08901611531565b93506101009250611cf9838801856001600160a01b03169052565b91909601359401939093529392505050565b86815260c060208201526000611d2460c0830188611307565b6001600160a01b039687166040840152948616606083015250918416608083015290921660a09092019190915292915050565b60a081526000611d6a60a0830188611307565b8281036020840152611d7c81886112db565b6001600160a01b03968716604085015294909516606083015250608001529392505050565b600060208284031215611db357600080fd5b81516111758161189d565b634e487b7160e01b600052603260045260246000fd5b6000600019821415611de857611de861164b565b5060010190565b600060208284031215611e0157600080fd5b81516111758161120c56fea264697066735822122023f1ee4b55361f280e76cb3540f98e63c2c6c201100616ed44c54f14acc6c5f164736f6c63430008090033",
    "linkReferences": {}
  },
  "methodIdentifiers": {
    "commitInternalParams()": "d4a07d34",
    "contractName()": "75d0c0dc",
    "contractNameBytes()": "0e3e80ac",
    "contractVersion()": "a0a8e460",
    "contractVersionBytes()": "06a46239",
    "createVault(address[],address,address,address,address,address)": "c6be9b22",
    "delayedProtocolParamsTimestamp()": "e4af6e79",
    "delayedProtocolPerVaultParamsTimestamp(uint256)": "511ce798",
    "delayedStrategyParamsTimestamp(uint256)": "6707acee",
    "internalParams()": "7ac46fbb",
    "internalParamsTimestamp()": "1c7f4c73",
    "setStrategyParams(uint256,((bytes32,uint256,uint256,uint256,bytes)[],address[],(address,bool,address,bool),address,address,uint256))": "5c7017cc",
    "stageInternalParams((address,address,address))": "09946538",
    "stagedInternalParams()": "86c6be3e",
    "strategyParams(uint256)": "12466b68",
    "supportsInterface(bytes4)": "01ffc9a7"
  },
  "id": 451
}