{
  "abi": [
    {
      "anonymous": false,
      "inputs": [
        {
          "indexed": true,
          "internalType": "bytes32",
          "name": "role",
          "type": "bytes32"
        },
        {
          "indexed": true,
          "internalType": "bytes32",
          "name": "previousAdminRole",
          "type": "bytes32"
        },
        {
          "indexed": true,
          "internalType": "bytes32",
          "name": "newAdminRole",
          "type": "bytes32"
        }
      ],
      "name": "RoleAdminChanged",
      "type": "event"
    },
    {
      "anonymous": false,
      "inputs": [
        {
          "indexed": true,
          "internalType": "bytes32",
          "name": "role",
          "type": "bytes32"
        },
        {
          "indexed": true,
          "internalType": "address",
          "name": "account",
          "type": "address"
        },
        {
          "indexed": true,
          "internalType": "address",
          "name": "sender",
          "type": "address"
        }
      ],
      "name": "RoleGranted",
      "type": "event"
    },
    {
      "anonymous": false,
      "inputs": [
        {
          "indexed": true,
          "internalType": "bytes32",
          "name": "role",
          "type": "bytes32"
        },
        {
          "indexed": true,
          "internalType": "address",
          "name": "account",
          "type": "address"
        },
        {
          "indexed": true,
          "internalType": "address",
          "name": "sender",
          "type": "address"
        }
      ],
      "name": "RoleRevoked",
      "type": "event"
    },
    {
      "inputs": [],
      "name": "ADMIN_DELEGATE_ROLE",
      "outputs": [
        {
          "internalType": "bytes32",
          "name": "",
          "type": "bytes32"
        }
      ],
      "stateMutability": "view",
      "type": "function"
    },
    {
      "inputs": [],
      "name": "ADMIN_ROLE",
      "outputs": [
        {
          "internalType": "bytes32",
          "name": "",
          "type": "bytes32"
        }
      ],
      "stateMutability": "view",
      "type": "function"
    },
    {
      "inputs": [],
      "name": "DEFAULT_ADMIN_ROLE",
      "outputs": [
        {
          "internalType": "bytes32",
          "name": "",
          "type": "bytes32"
        }
      ],
      "stateMutability": "view",
      "type": "function"
    },
    {
      "inputs": [],
      "name": "OPERATOR",
      "outputs": [
        {
          "internalType": "bytes32",
          "name": "",
          "type": "bytes32"
        }
      ],
      "stateMutability": "view",
      "type": "function"
    },
    {
      "inputs": [
        {
          "internalType": "bytes32",
          "name": "role",
          "type": "bytes32"
        }
      ],
      "name": "getRoleAdmin",
      "outputs": [
        {
          "internalType": "bytes32",
          "name": "",
          "type": "bytes32"
        }
      ],
      "stateMutability": "view",
      "type": "function"
    },
    {
      "inputs": [
        {
          "internalType": "bytes32",
          "name": "role",
          "type": "bytes32"
        },
        {
          "internalType": "uint256",
          "name": "index",
          "type": "uint256"
        }
      ],
      "name": "getRoleMember",
      "outputs": [
        {
          "internalType": "address",
          "name": "",
          "type": "address"
        }
      ],
      "stateMutability": "view",
      "type": "function"
    },
    {
      "inputs": [
        {
          "internalType": "bytes32",
          "name": "role",
          "type": "bytes32"
        }
      ],
      "name": "getRoleMemberCount",
      "outputs": [
        {
          "internalType": "uint256",
          "name": "",
          "type": "uint256"
        }
      ],
      "stateMutability": "view",
      "type": "function"
    },
    {
      "inputs": [
        {
          "internalType": "bytes32",
          "name": "role",
          "type": "bytes32"
        },
        {
          "internalType": "address",
          "name": "account",
          "type": "address"
        }
      ],
      "name": "grantRole",
      "outputs": [],
      "stateMutability": "nonpayable",
      "type": "function"
    },
    {
      "inputs": [
        {
          "internalType": "bytes32",
          "name": "role",
          "type": "bytes32"
        },
        {
          "internalType": "address",
          "name": "account",
          "type": "address"
        }
      ],
      "name": "hasRole",
      "outputs": [
        {
          "internalType": "bool",
          "name": "",
          "type": "bool"
        }
      ],
      "stateMutability": "view",
      "type": "function"
    },
    {
      "inputs": [
        {
          "internalType": "address",
          "name": "admin",
          "type": "address"
        }
      ],
      "name": "init",
      "outputs": [],
      "stateMutability": "nonpayable",
      "type": "function"
    },
    {
      "inputs": [],
      "name": "initialized",
      "outputs": [
        {
          "internalType": "bool",
          "name": "",
          "type": "bool"
        }
      ],
      "stateMutability": "view",
      "type": "function"
    },
    {
      "inputs": [
        {
          "internalType": "address",
          "name": "sender",
          "type": "address"
        }
      ],
      "name": "isAdmin",
      "outputs": [
        {
          "internalType": "bool",
          "name": "",
          "type": "bool"
        }
      ],
      "stateMutability": "view",
      "type": "function"
    },
    {
      "inputs": [
        {
          "internalType": "address",
          "name": "sender",
          "type": "address"
        }
      ],
      "name": "isOperator",
      "outputs": [
        {
          "internalType": "bool",
          "name": "",
          "type": "bool"
        }
      ],
      "stateMutability": "view",
      "type": "function"
    },
    {
      "inputs": [
        {
          "internalType": "bytes32",
          "name": "role",
          "type": "bytes32"
        },
        {
          "internalType": "address",
          "name": "account",
          "type": "address"
        }
      ],
      "name": "renounceRole",
      "outputs": [],
      "stateMutability": "nonpayable",
      "type": "function"
    },
    {
      "inputs": [
        {
          "internalType": "bytes32",
          "name": "role",
          "type": "bytes32"
        },
        {
          "internalType": "address",
          "name": "account",
          "type": "address"
        }
      ],
      "name": "revokeRole",
      "outputs": [],
      "stateMutability": "nonpayable",
      "type": "function"
    },
    {
      "inputs": [
        {
          "internalType": "bytes4",
          "name": "interfaceId",
          "type": "bytes4"
        }
      ],
      "name": "supportsInterface",
      "outputs": [
        {
          "internalType": "bool",
          "name": "",
          "type": "bool"
        }
      ],
      "stateMutability": "view",
      "type": "function"
    }
  ],
  "bytecode": {
    "object": "0x608060405234801561001057600080fd5b50610db9806100206000396000f3fe608060405234801561001057600080fd5b50600436106101005760003560e01c80636d70f7ae11610097578063983d273711610066578063983d273714610234578063a217fddf14610249578063ca15c87314610251578063d547741f1461026457600080fd5b80636d70f7ae146101ce57806375b238fc146101e15780639010d07c146101f657806391d148541461022157600080fd5b8063248a9ca3116100d3578063248a9ca31461017257806324d7806c146101955780632f2ff15d146101a857806336568abe146101bb57600080fd5b806301ffc9a7146101055780630952ff541461012d578063158ef93e1461015057806319ab453c1461015d575b600080fd5b610118610113366004610ac6565b610277565b60405190151581526020015b60405180910390f35b610142600080516020610d2483398151915281565b604051908152602001610124565b6002546101189060ff1681565b61017061016b366004610b0c565b6102a2565b005b610142610180366004610b27565b60009081526020819052604090206001015490565b6101186101a3366004610b0c565b6103d1565b6101706101b6366004610b40565b610409565b6101706101c9366004610b40565b610433565b6101186101dc366004610b0c565b6104b1565b610142600080516020610d4483398151915281565b610209610204366004610b6c565b6104cb565b6040516001600160a01b039091168152602001610124565b61011861022f366004610b40565b6104ea565b610142600080516020610d6483398151915281565b610142600081565b61014261025f366004610b27565b610513565b610170610272366004610b40565b61052a565b60006001600160e01b03198216635a05180f60e01b148061029c575061029c8261054f565b92915050565b60408051808201909152600281526120ad60f11b60208201526001600160a01b0382166102eb5760405162461bcd60e51b81526004016102e29190610bbe565b60405180910390fd5b506002546040805180820190915260048152631253925560e21b60208201529060ff161561032c5760405162461bcd60e51b81526004016102e29190610bbe565b50610345600080516020610d6483398151915282610584565b61035d600080516020610d4483398151915282610584565b610375600080516020610d448339815191528061058e565b61039b600080516020610d24833981519152600080516020610d4483398151915261058e565b6103c1600080516020610d64833981519152600080516020610d2483398151915261058e565b506002805460ff19166001179055565b60006103eb600080516020610d44833981519152836104ea565b8061029c575061029c600080516020610d24833981519152836104ea565b600082815260208190526040902060010154610424816105d9565b61042e83836105e6565b505050565b6001600160a01b03811633146104a35760405162461bcd60e51b815260206004820152602f60248201527f416363657373436f6e74726f6c3a2063616e206f6e6c792072656e6f756e636560448201526e103937b632b9903337b91039b2b63360891b60648201526084016102e2565b6104ad8282610608565b5050565b600061029c600080516020610d64833981519152836104ea565b60008281526001602052604081206104e3908361062a565b9392505050565b6000918252602082815260408084206001600160a01b0393909316845291905290205460ff1690565b600081815260016020526040812061029c90610636565b600082815260208190526040902060010154610545816105d9565b61042e8383610608565b60006001600160e01b03198216637965db0b60e01b148061029c57506301ffc9a760e01b6001600160e01b031983161461029c565b6104ad82826105e6565b600082815260208190526040808220600101805490849055905190918391839186917fbd79b86ffe0ab8e8776151514217cd7cacd52c909f66475c3af44e129f0b00ff9190a4505050565b6105e38133610640565b50565b6105f08282610699565b600082815260016020526040902061042e908261071d565b6106128282610732565b600082815260016020526040902061042e9082610797565b60006104e383836107ac565b600061029c825490565b61064a82826104ea565b6104ad57610657816107d6565b6106628360206107e8565b604051602001610673929190610bf1565b60408051601f198184030181529082905262461bcd60e51b82526102e291600401610bbe565b6106a382826104ea565b6104ad576000828152602081815260408083206001600160a01b03851684529091529020805460ff191660011790556106d93390565b6001600160a01b0316816001600160a01b0316837f2f8788117e7eff1d82e926ec794901d17c78024a50270940304540a733656f0d60405160405180910390a45050565b60006104e3836001600160a01b038416610984565b61073c82826104ea565b156104ad576000828152602081815260408083206001600160a01b0385168085529252808320805460ff1916905551339285917ff6391f5c32d9c69d2a47ea670b442974b53935d1edc7fd64eb21e047a839171b9190a45050565b60006104e3836001600160a01b0384166109d3565b60008260000182815481106107c3576107c3610c66565b9060005260206000200154905092915050565b606061029c6001600160a01b03831660145b606060006107f7836002610c92565b610802906002610cb1565b67ffffffffffffffff81111561081a5761081a610cc9565b6040519080825280601f01601f191660200182016040528015610844576020820181803683370190505b509050600360fc1b8160008151811061085f5761085f610c66565b60200101906001600160f81b031916908160001a905350600f60fb1b8160018151811061088e5761088e610c66565b60200101906001600160f81b031916908160001a90535060006108b2846002610c92565b6108bd906001610cb1565b90505b6001811115610935576f181899199a1a9b1b9c1cb0b131b232b360811b85600f16601081106108f1576108f1610c66565b1a60f81b82828151811061090757610907610c66565b60200101906001600160f81b031916908160001a90535060049490941c9361092e81610cdf565b90506108c0565b5083156104e35760405162461bcd60e51b815260206004820181905260248201527f537472696e67733a20686578206c656e67746820696e73756666696369656e7460448201526064016102e2565b60008181526001830160205260408120546109cb5750815460018181018455600084815260208082209093018490558454848252828601909352604090209190915561029c565b50600061029c565b60008181526001830160205260408120548015610abc5760006109f7600183610cf6565b8554909150600090610a0b90600190610cf6565b9050818114610a70576000866000018281548110610a2b57610a2b610c66565b9060005260206000200154905080876000018481548110610a4e57610a4e610c66565b6000918252602080832090910192909255918252600188019052604090208390555b8554869080610a8157610a81610d0d565b60019003818190600052602060002001600090559055856001016000868152602001908152602001600020600090556001935050505061029c565b600091505061029c565b600060208284031215610ad857600080fd5b81356001600160e01b0319811681146104e357600080fd5b80356001600160a01b0381168114610b0757600080fd5b919050565b600060208284031215610b1e57600080fd5b6104e382610af0565b600060208284031215610b3957600080fd5b5035919050565b60008060408385031215610b5357600080fd5b82359150610b6360208401610af0565b90509250929050565b60008060408385031215610b7f57600080fd5b50508035926020909101359150565b60005b83811015610ba9578181015183820152602001610b91565b83811115610bb8576000848401525b50505050565b6020815260008251806020840152610bdd816040850160208701610b8e565b601f01601f19169190910160400192915050565b7f416363657373436f6e74726f6c3a206163636f756e7420000000000000000000815260008351610c29816017850160208801610b8e565b7001034b99036b4b9b9b4b733903937b6329607d1b6017918401918201528351610c5a816028840160208801610b8e565b01602801949350505050565b634e487b7160e01b600052603260045260246000fd5b634e487b7160e01b600052601160045260246000fd5b6000816000190483118215151615610cac57610cac610c7c565b500290565b60008219821115610cc457610cc4610c7c565b500190565b634e487b7160e01b600052604160045260246000fd5b600081610cee57610cee610c7c565b506000190190565b600082821015610d0857610d08610c7c565b500390565b634e487b7160e01b600052603160045260246000fdfec171260023d22a25a00a2789664c9334017843b831138c8ef03cc8897e5873d7f23ec0bb4210edd5cba85afd05127efcd2fc6a781bfed49188da1081670b22d846a52cf33029de9f84853745a87af28464c80bf0346df1b32e205fc73319f622a2646970667358221220df94c4975eb9a36af36113efca44bdc23465298c32d036618ccfcd39bb1b326464736f6c63430008090033",
    "linkReferences": {}
  },
  "methodIdentifiers": {
    "ADMIN_DELEGATE_ROLE()": "0952ff54",
    "ADMIN_ROLE()": "75b238fc",
    "DEFAULT_ADMIN_ROLE()": "a217fddf",
    "OPERATOR()": "983d2737",
    "getRoleAdmin(bytes32)": "248a9ca3",
    "getRoleMember(bytes32,uint256)": "9010d07c",
    "getRoleMemberCount(bytes32)": "ca15c873",
    "grantRole(bytes32,address)": "2f2ff15d",
    "hasRole(bytes32,address)": "91d14854",
    "init(address)": "19ab453c",
    "initialized()": "158ef93e",
    "isAdmin(address)": "24d7806c",
    "isOperator(address)": "6d70f7ae",
    "renounceRole(bytes32,address)": "36568abe",
    "revokeRole(bytes32,address)": "d547741f",
    "supportsInterface(bytes4)": "01ffc9a7"
  },
  "id": 413
}