{
  "abi": [
    {
      "inputs": [],
      "stateMutability": "nonpayable",
      "type": "constructor"
    },
    {
      "anonymous": false,
      "inputs": [
        {
          "indexed": true,
          "internalType": "address",
          "name": "sender",
          "type": "address"
        },
        {
          "indexed": true,
          "internalType": "address",
          "name": "origin",
          "type": "address"
        },
        {
          "components": [
            {
              "internalType": "int24",
              "name": "newShortLowerTick",
              "type": "int24"
            },
            {
              "internalType": "int24",
              "name": "newShortUpperTick",
              "type": "int24"
            },
            {
              "internalType": "int256[]",
              "name": "swappedAmounts",
              "type": "int256[]"
            },
            {
              "internalType": "uint256[][]",
              "name": "drainedAmounts",
              "type": "uint256[][]"
            },
            {
              "internalType": "uint256[][]",
              "name": "pulledToUniV3",
              "type": "uint256[][]"
            },
            {
              "internalType": "uint256[][]",
              "name": "pulledFromUniV3",
              "type": "uint256[][]"
            },
            {
              "internalType": "uint256",
              "name": "deadline",
              "type": "uint256"
            }
          ],
          "indexed": false,
          "internalType": "struct MultiPoolHStrategyRebalancer.Restrictions",
          "name": "expectedAmounts",
          "type": "tuple"
        },
        {
          "components": [
            {
              "internalType": "int24",
              "name": "newShortLowerTick",
              "type": "int24"
            },
            {
              "internalType": "int24",
              "name": "newShortUpperTick",
              "type": "int24"
            },
            {
              "internalType": "int256[]",
              "name": "swappedAmounts",
              "type": "int256[]"
            },
            {
              "internalType": "uint256[][]",
              "name": "drainedAmounts",
              "type": "uint256[][]"
            },
            {
              "internalType": "uint256[][]",
              "name": "pulledToUniV3",
              "type": "uint256[][]"
            },
            {
              "internalType": "uint256[][]",
              "name": "pulledFromUniV3",
              "type": "uint256[][]"
            },
            {
              "internalType": "uint256",
              "name": "deadline",
              "type": "uint256"
            }
          ],
          "indexed": false,
          "internalType": "struct MultiPoolHStrategyRebalancer.Restrictions",
          "name": "actualAmounts",
          "type": "tuple"
        }
      ],
      "name": "Rebalance",
      "type": "event"
    },
    {
      "anonymous": false,
      "inputs": [
        {
          "indexed": true,
          "internalType": "bytes32",
          "name": "role",
          "type": "bytes32"
        },
        {
          "indexed": true,
          "internalType": "bytes32",
          "name": "previousAdminRole",
          "type": "bytes32"
        },
        {
          "indexed": true,
          "internalType": "bytes32",
          "name": "newAdminRole",
          "type": "bytes32"
        }
      ],
      "name": "RoleAdminChanged",
      "type": "event"
    },
    {
      "anonymous": false,
      "inputs": [
        {
          "indexed": true,
          "internalType": "bytes32",
          "name": "role",
          "type": "bytes32"
        },
        {
          "indexed": true,
          "internalType": "address",
          "name": "account",
          "type": "address"
        },
        {
          "indexed": true,
          "internalType": "address",
          "name": "sender",
          "type": "address"
        }
      ],
      "name": "RoleGranted",
      "type": "event"
    },
    {
      "anonymous": false,
      "inputs": [
        {
          "indexed": true,
          "internalType": "bytes32",
          "name": "role",
          "type": "bytes32"
        },
        {
          "indexed": true,
          "internalType": "address",
          "name": "account",
          "type": "address"
        },
        {
          "indexed": true,
          "internalType": "address",
          "name": "sender",
          "type": "address"
        }
      ],
      "name": "RoleRevoked",
      "type": "event"
    },
    {
      "anonymous": false,
      "inputs": [
        {
          "indexed": true,
          "internalType": "address",
          "name": "origin",
          "type": "address"
        },
        {
          "indexed": true,
          "internalType": "address",
          "name": "sender",
          "type": "address"
        },
        {
          "components": [
            {
              "internalType": "int24",
              "name": "halfOfShortInterval",
              "type": "int24"
            },
            {
              "internalType": "int24",
              "name": "domainLowerTick",
              "type": "int24"
            },
            {
              "internalType": "int24",
              "name": "domainUpperTick",
              "type": "int24"
            },
            {
              "internalType": "int24",
              "name": "maxTickDeviation",
              "type": "int24"
            },
            {
              "internalType": "uint32",
              "name": "averageTickTimespan",
              "type": "uint32"
            },
            {
              "internalType": "uint256",
              "name": "amount0ForMint",
              "type": "uint256"
            },
            {
              "internalType": "uint256",
              "name": "amount1ForMint",
              "type": "uint256"
            },
            {
              "internalType": "uint256",
              "name": "erc20CapitalRatioD",
              "type": "uint256"
            },
            {
              "internalType": "uint256[]",
              "name": "uniV3Weights",
              "type": "uint256[]"
            },
            {
              "internalType": "contract IUniswapV3Pool",
              "name": "swapPool",
              "type": "address"
            }
          ],
          "indexed": false,
          "internalType": "struct MultiPoolHStrategy.MutableParams",
          "name": "mutableParams",
          "type": "tuple"
        }
      ],
      "name": "UpdateMutableParams",
      "type": "event"
    },
    {
      "inputs": [],
      "name": "ADMIN_DELEGATE_ROLE",
      "outputs": [
        {
          "internalType": "bytes32",
          "name": "",
          "type": "bytes32"
        }
      ],
      "stateMutability": "view",
      "type": "function"
    },
    {
      "inputs": [],
      "name": "ADMIN_ROLE",
      "outputs": [
        {
          "internalType": "bytes32",
          "name": "",
          "type": "bytes32"
        }
      ],
      "stateMutability": "view",
      "type": "function"
    },
    {
      "inputs": [],
      "name": "DEFAULT_ADMIN_ROLE",
      "outputs": [
        {
          "internalType": "bytes32",
          "name": "",
          "type": "bytes32"
        }
      ],
      "stateMutability": "view",
      "type": "function"
    },
    {
      "inputs": [],
      "name": "DENOMINATOR",
      "outputs": [
        {
          "internalType": "uint256",
          "name": "",
          "type": "uint256"
        }
      ],
      "stateMutability": "view",
      "type": "function"
    },
    {
      "inputs": [],
      "name": "OPERATOR",
      "outputs": [
        {
          "internalType": "bytes32",
          "name": "",
          "type": "bytes32"
        }
      ],
      "stateMutability": "view",
      "type": "function"
    },
    {
      "inputs": [
        {
          "components": [
            {
              "internalType": "int24",
              "name": "halfOfShortInterval",
              "type": "int24"
            },
            {
              "internalType": "int24",
              "name": "domainLowerTick",
              "type": "int24"
            },
            {
              "internalType": "int24",
              "name": "domainUpperTick",
              "type": "int24"
            },
            {
              "internalType": "int24",
              "name": "maxTickDeviation",
              "type": "int24"
            },
            {
              "internalType": "uint32",
              "name": "averageTickTimespan",
              "type": "uint32"
            },
            {
              "internalType": "uint256",
              "name": "amount0ForMint",
              "type": "uint256"
            },
            {
              "internalType": "uint256",
              "name": "amount1ForMint",
              "type": "uint256"
            },
            {
              "internalType": "uint256",
              "name": "erc20CapitalRatioD",
              "type": "uint256"
            },
            {
              "internalType": "uint256[]",
              "name": "uniV3Weights",
              "type": "uint256[]"
            },
            {
              "internalType": "contract IUniswapV3Pool",
              "name": "swapPool",
              "type": "address"
            }
          ],
          "internalType": "struct MultiPoolHStrategy.MutableParams",
          "name": "mutableParams_",
          "type": "tuple"
        }
      ],
      "name": "checkMutableParams",
      "outputs": [],
      "stateMutability": "view",
      "type": "function"
    },
    {
      "inputs": [],
      "name": "contractName",
      "outputs": [
        {
          "internalType": "string",
          "name": "",
          "type": "string"
        }
      ],
      "stateMutability": "pure",
      "type": "function"
    },
    {
      "inputs": [],
      "name": "contractNameBytes",
      "outputs": [
        {
          "internalType": "bytes32",
          "name": "",
          "type": "bytes32"
        }
      ],
      "stateMutability": "pure",
      "type": "function"
    },
    {
      "inputs": [],
      "name": "contractVersion",
      "outputs": [
        {
          "internalType": "string",
          "name": "",
          "type": "string"
        }
      ],
      "stateMutability": "pure",
      "type": "function"
    },
    {
      "inputs": [],
      "name": "contractVersionBytes",
      "outputs": [
        {
          "internalType": "bytes32",
          "name": "",
          "type": "bytes32"
        }
      ],
      "stateMutability": "pure",
      "type": "function"
    },
    {
      "inputs": [
        {
          "components": [
            {
              "internalType": "address[]",
              "name": "tokens",
              "type": "address[]"
            },
            {
              "internalType": "contract IERC20Vault",
              "name": "erc20Vault",
              "type": "address"
            },
            {
              "internalType": "contract IIntegrationVault",
              "name": "moneyVault",
              "type": "address"
            },
            {
              "internalType": "address",
              "name": "router",
              "type": "address"
            },
            {
              "internalType": "contract MultiPoolHStrategyRebalancer",
              "name": "rebalancer",
              "type": "address"
            },
            {
              "internalType": "contract IUniV3Vault[]",
              "name": "uniV3Vaults",
              "type": "address[]"
            },
            {
              "internalType": "int24",
              "name": "tickSpacing",
              "type": "int24"
            }
          ],
          "internalType": "struct MultiPoolHStrategy.ImmutableParams",
          "name": "immutableParams_",
          "type": "tuple"
        },
        {
          "components": [
            {
              "internalType": "int24",
              "name": "halfOfShortInterval",
              "type": "int24"
            },
            {
              "internalType": "int24",
              "name": "domainLowerTick",
              "type": "int24"
            },
            {
              "internalType": "int24",
              "name": "domainUpperTick",
              "type": "int24"
            },
            {
              "internalType": "int24",
              "name": "maxTickDeviation",
              "type": "int24"
            },
            {
              "internalType": "uint32",
              "name": "averageTickTimespan",
              "type": "uint32"
            },
            {
              "internalType": "uint256",
              "name": "amount0ForMint",
              "type": "uint256"
            },
            {
              "internalType": "uint256",
              "name": "amount1ForMint",
              "type": "uint256"
            },
            {
              "internalType": "uint256",
              "name": "erc20CapitalRatioD",
              "type": "uint256"
            },
            {
              "internalType": "uint256[]",
              "name": "uniV3Weights",
              "type": "uint256[]"
            },
            {
              "internalType": "contract IUniswapV3Pool",
              "name": "swapPool",
              "type": "address"
            }
          ],
          "internalType": "struct MultiPoolHStrategy.MutableParams",
          "name": "mutableParams_",
          "type": "tuple"
        },
        {
          "internalType": "address",
          "name": "admin",
          "type": "address"
        }
      ],
      "name": "createStrategy",
      "outputs": [
        {
          "internalType": "contract MultiPoolHStrategy",
          "name": "strategy",
          "type": "address"
        }
      ],
      "stateMutability": "nonpayable",
      "type": "function"
    },
    {
      "inputs": [
        {
          "internalType": "bytes32",
          "name": "role",
          "type": "bytes32"
        }
      ],
      "name": "getRoleAdmin",
      "outputs": [
        {
          "internalType": "bytes32",
          "name": "",
          "type": "bytes32"
        }
      ],
      "stateMutability": "view",
      "type": "function"
    },
    {
      "inputs": [
        {
          "internalType": "bytes32",
          "name": "role",
          "type": "bytes32"
        },
        {
          "internalType": "uint256",
          "name": "index",
          "type": "uint256"
        }
      ],
      "name": "getRoleMember",
      "outputs": [
        {
          "internalType": "address",
          "name": "",
          "type": "address"
        }
      ],
      "stateMutability": "view",
      "type": "function"
    },
    {
      "inputs": [
        {
          "internalType": "bytes32",
          "name": "role",
          "type": "bytes32"
        }
      ],
      "name": "getRoleMemberCount",
      "outputs": [
        {
          "internalType": "uint256",
          "name": "",
          "type": "uint256"
        }
      ],
      "stateMutability": "view",
      "type": "function"
    },
    {
      "inputs": [
        {
          "internalType": "bytes32",
          "name": "role",
          "type": "bytes32"
        },
        {
          "internalType": "address",
          "name": "account",
          "type": "address"
        }
      ],
      "name": "grantRole",
      "outputs": [],
      "stateMutability": "nonpayable",
      "type": "function"
    },
    {
      "inputs": [
        {
          "internalType": "bytes32",
          "name": "role",
          "type": "bytes32"
        },
        {
          "internalType": "address",
          "name": "account",
          "type": "address"
        }
      ],
      "name": "hasRole",
      "outputs": [
        {
          "internalType": "bool",
          "name": "",
          "type": "bool"
        }
      ],
      "stateMutability": "view",
      "type": "function"
    },
    {
      "inputs": [],
      "name": "immutableParams",
      "outputs": [
        {
          "internalType": "contract IERC20Vault",
          "name": "erc20Vault",
          "type": "address"
        },
        {
          "internalType": "contract IIntegrationVault",
          "name": "moneyVault",
          "type": "address"
        },
        {
          "internalType": "address",
          "name": "router",
          "type": "address"
        },
        {
          "internalType": "contract MultiPoolHStrategyRebalancer",
          "name": "rebalancer",
          "type": "address"
        },
        {
          "internalType": "int24",
          "name": "tickSpacing",
          "type": "int24"
        }
      ],
      "stateMutability": "view",
      "type": "function"
    },
    {
      "inputs": [
        {
          "internalType": "address",
          "name": "admin",
          "type": "address"
        }
      ],
      "name": "init",
      "outputs": [],
      "stateMutability": "nonpayable",
      "type": "function"
    },
    {
      "inputs": [
        {
          "components": [
            {
              "internalType": "address[]",
              "name": "tokens",
              "type": "address[]"
            },
            {
              "internalType": "contract IERC20Vault",
              "name": "erc20Vault",
              "type": "address"
            },
            {
              "internalType": "contract IIntegrationVault",
              "name": "moneyVault",
              "type": "address"
            },
            {
              "internalType": "address",
              "name": "router",
              "type": "address"
            },
            {
              "internalType": "contract MultiPoolHStrategyRebalancer",
              "name": "rebalancer",
              "type": "address"
            },
            {
              "internalType": "contract IUniV3Vault[]",
              "name": "uniV3Vaults",
              "type": "address[]"
            },
            {
              "internalType": "int24",
              "name": "tickSpacing",
              "type": "int24"
            }
          ],
          "internalType": "struct MultiPoolHStrategy.ImmutableParams",
          "name": "immutableParams_",
          "type": "tuple"
        },
        {
          "components": [
            {
              "internalType": "int24",
              "name": "halfOfShortInterval",
              "type": "int24"
            },
            {
              "internalType": "int24",
              "name": "domainLowerTick",
              "type": "int24"
            },
            {
              "internalType": "int24",
              "name": "domainUpperTick",
              "type": "int24"
            },
            {
              "internalType": "int24",
              "name": "maxTickDeviation",
              "type": "int24"
            },
            {
              "internalType": "uint32",
              "name": "averageTickTimespan",
              "type": "uint32"
            },
            {
              "internalType": "uint256",
              "name": "amount0ForMint",
              "type": "uint256"
            },
            {
              "internalType": "uint256",
              "name": "amount1ForMint",
              "type": "uint256"
            },
            {
              "internalType": "uint256",
              "name": "erc20CapitalRatioD",
              "type": "uint256"
            },
            {
              "internalType": "uint256[]",
              "name": "uniV3Weights",
              "type": "uint256[]"
            },
            {
              "internalType": "contract IUniswapV3Pool",
              "name": "swapPool",
              "type": "address"
            }
          ],
          "internalType": "struct MultiPoolHStrategy.MutableParams",
          "name": "mutableParams_",
          "type": "tuple"
        },
        {
          "internalType": "address",
          "name": "admin",
          "type": "address"
        }
      ],
      "name": "initialize",
      "outputs": [],
      "stateMutability": "nonpayable",
      "type": "function"
    },
    {
      "inputs": [],
      "name": "initialized",
      "outputs": [
        {
          "internalType": "bool",
          "name": "",
          "type": "bool"
        }
      ],
      "stateMutability": "view",
      "type": "function"
    },
    {
      "inputs": [
        {
          "internalType": "address",
          "name": "sender",
          "type": "address"
        }
      ],
      "name": "isAdmin",
      "outputs": [
        {
          "internalType": "bool",
          "name": "",
          "type": "bool"
        }
      ],
      "stateMutability": "view",
      "type": "function"
    },
    {
      "inputs": [
        {
          "internalType": "address",
          "name": "sender",
          "type": "address"
        }
      ],
      "name": "isOperator",
      "outputs": [
        {
          "internalType": "bool",
          "name": "",
          "type": "bool"
        }
      ],
      "stateMutability": "view",
      "type": "function"
    },
    {
      "inputs": [
        {
          "internalType": "bytes[]",
          "name": "data",
          "type": "bytes[]"
        }
      ],
      "name": "multicall",
      "outputs": [
        {
          "internalType": "bytes[]",
          "name": "results",
          "type": "bytes[]"
        }
      ],
      "stateMutability": "nonpayable",
      "type": "function"
    },
    {
      "inputs": [],
      "name": "mutableParams",
      "outputs": [
        {
          "internalType": "int24",
          "name": "halfOfShortInterval",
          "type": "int24"
        },
        {
          "internalType": "int24",
          "name": "domainLowerTick",
          "type": "int24"
        },
        {
          "internalType": "int24",
          "name": "domainUpperTick",
          "type": "int24"
        },
        {
          "internalType": "int24",
          "name": "maxTickDeviation",
          "type": "int24"
        },
        {
          "internalType": "uint32",
          "name": "averageTickTimespan",
          "type": "uint32"
        },
        {
          "internalType": "uint256",
          "name": "amount0ForMint",
          "type": "uint256"
        },
        {
          "internalType": "uint256",
          "name": "amount1ForMint",
          "type": "uint256"
        },
        {
          "internalType": "uint256",
          "name": "erc20CapitalRatioD",
          "type": "uint256"
        },
        {
          "internalType": "contract IUniswapV3Pool",
          "name": "swapPool",
          "type": "address"
        }
      ],
      "stateMutability": "view",
      "type": "function"
    },
    {
      "inputs": [
        {
          "components": [
            {
              "internalType": "int24",
              "name": "newShortLowerTick",
              "type": "int24"
            },
            {
              "internalType": "int24",
              "name": "newShortUpperTick",
              "type": "int24"
            },
            {
              "internalType": "int256[]",
              "name": "swappedAmounts",
              "type": "int256[]"
            },
            {
              "internalType": "uint256[][]",
              "name": "drainedAmounts",
              "type": "uint256[][]"
            },
            {
              "internalType": "uint256[][]",
              "name": "pulledToUniV3",
              "type": "uint256[][]"
            },
            {
              "internalType": "uint256[][]",
              "name": "pulledFromUniV3",
              "type": "uint256[][]"
            },
            {
              "internalType": "uint256",
              "name": "deadline",
              "type": "uint256"
            }
          ],
          "internalType": "struct MultiPoolHStrategyRebalancer.Restrictions",
          "name": "restrictions",
          "type": "tuple"
        }
      ],
      "name": "rebalance",
      "outputs": [
        {
          "components": [
            {
              "internalType": "int24",
              "name": "newShortLowerTick",
              "type": "int24"
            },
            {
              "internalType": "int24",
              "name": "newShortUpperTick",
              "type": "int24"
            },
            {
              "internalType": "int256[]",
              "name": "swappedAmounts",
              "type": "int256[]"
            },
            {
              "internalType": "uint256[][]",
              "name": "drainedAmounts",
              "type": "uint256[][]"
            },
            {
              "internalType": "uint256[][]",
              "name": "pulledToUniV3",
              "type": "uint256[][]"
            },
            {
              "internalType": "uint256[][]",
              "name": "pulledFromUniV3",
              "type": "uint256[][]"
            },
            {
              "internalType": "uint256",
              "name": "deadline",
              "type": "uint256"
            }
          ],
          "internalType": "struct MultiPoolHStrategyRebalancer.Restrictions",
          "name": "actualAmounts",
          "type": "tuple"
        }
      ],
      "stateMutability": "nonpayable",
      "type": "function"
    },
    {
      "inputs": [
        {
          "internalType": "bytes32",
          "name": "role",
          "type": "bytes32"
        },
        {
          "internalType": "address",
          "name": "account",
          "type": "address"
        }
      ],
      "name": "renounceRole",
      "outputs": [],
      "stateMutability": "nonpayable",
      "type": "function"
    },
    {
      "inputs": [
        {
          "internalType": "bytes32",
          "name": "role",
          "type": "bytes32"
        },
        {
          "internalType": "address",
          "name": "account",
          "type": "address"
        }
      ],
      "name": "revokeRole",
      "outputs": [],
      "stateMutability": "nonpayable",
      "type": "function"
    },
    {
      "inputs": [],
      "name": "shortInterval",
      "outputs": [
        {
          "internalType": "int24",
          "name": "lowerTick",
          "type": "int24"
        },
        {
          "internalType": "int24",
          "name": "upperTick",
          "type": "int24"
        }
      ],
      "stateMutability": "view",
      "type": "function"
    },
    {
      "inputs": [
        {
          "internalType": "bytes4",
          "name": "interfaceId",
          "type": "bytes4"
        }
      ],
      "name": "supportsInterface",
      "outputs": [
        {
          "internalType": "bool",
          "name": "",
          "type": "bool"
        }
      ],
      "stateMutability": "view",
      "type": "function"
    },
    {
      "inputs": [
        {
          "components": [
            {
              "internalType": "int24",
              "name": "halfOfShortInterval",
              "type": "int24"
            },
            {
              "internalType": "int24",
              "name": "domainLowerTick",
              "type": "int24"
            },
            {
              "internalType": "int24",
              "name": "domainUpperTick",
              "type": "int24"
            },
            {
              "internalType": "int24",
              "name": "maxTickDeviation",
              "type": "int24"
            },
            {
              "internalType": "uint32",
              "name": "averageTickTimespan",
              "type": "uint32"
            },
            {
              "internalType": "uint256",
              "name": "amount0ForMint",
              "type": "uint256"
            },
            {
              "internalType": "uint256",
              "name": "amount1ForMint",
              "type": "uint256"
            },
            {
              "internalType": "uint256",
              "name": "erc20CapitalRatioD",
              "type": "uint256"
            },
            {
              "internalType": "uint256[]",
              "name": "uniV3Weights",
              "type": "uint256[]"
            },
            {
              "internalType": "contract IUniswapV3Pool",
              "name": "swapPool",
              "type": "address"
            }
          ],
          "internalType": "struct MultiPoolHStrategy.MutableParams",
          "name": "mutableParams_",
          "type": "tuple"
        }
      ],
      "name": "updateMutableParams",
      "outputs": [],
      "stateMutability": "nonpayable",
      "type": "function"
    }
  ],
  "bytecode": {
    "object": "0x60806040523480156200001157600080fd5b5062000028306200002e60201b620005b11760201c565b6200039e565b60408051808201909152600281526120ad60f11b60208201526001600160a01b0382166200007a5760405162461bcd60e51b815260040162000071919062000346565b60405180910390fd5b506002546040805180820190915260048152631253925560e21b60208201529060ff1615620000be5760405162461bcd60e51b815260040162000071919062000346565b50620000da600080516020620045638339815191528262000196565b620000f5600080516020620045438339815191528262000196565b620001106000805160206200454383398151915280620001a6565b6200014b7fc171260023d22a25a00a2789664c9334017843b831138c8ef03cc8897e5873d760008051602062004543833981519152620001a6565b62000186600080516020620045638339815191527fc171260023d22a25a00a2789664c9334017843b831138c8ef03cc8897e5873d7620001a6565b506002805460ff19166001179055565b620001a28282620001f1565b5050565b600082815260208190526040808220600101805490849055905190918391839186917fbd79b86ffe0ab8e8776151514217cd7cacd52c909f66475c3af44e129f0b00ff9190a4505050565b6200020882826200023460201b620025631760201c565b60008281526001602090815260409091206200022f918390620025e7620002d4821b17901c565b505050565b6000828152602081815260408083206001600160a01b038516845290915290205460ff16620001a2576000828152602081815260408083206001600160a01b03851684529091529020805460ff19166001179055620002903390565b6001600160a01b0316816001600160a01b0316837f2f8788117e7eff1d82e926ec794901d17c78024a50270940304540a733656f0d60405160405180910390a45050565b6000620002eb836001600160a01b038416620002f4565b90505b92915050565b60008181526001830160205260408120546200033d57508154600181810184556000848152602080822090930184905584548482528286019093526040902091909155620002ee565b506000620002ee565b600060208083528351808285015260005b81811015620003755785810183015185820160400152820162000357565b8181111562000388576000604083870101525b50601f01601f1916929092016040019392505050565b61419580620003ae6000396000f3fe608060405234801561001057600080fd5b50600436106101da5760003560e01c806375d0c0dc11610104578063a0a8e460116100a2578063c8014d5311610071578063c8014d53146104dd578063ca15c87314610548578063d547741f1461055b578063e36c518f1461056e57600080fd5b8063a0a8e4601461049a578063a217fddf146104a2578063a71c1f98146104aa578063ac9650d8146104bd57600080fd5b80639010d07c116100de5780639010d07c14610454578063918f86741461046757806391d1485414610472578063983d27371461048557600080fd5b806375d0c0dc146103f95780638c0591501461040e5780638d75f7fb1461044157600080fd5b806324d7806c1161017c578063585a9cdc1161014b578063585a9cdc146102f85780635f408a21146103185780636d70f7ae146103d157806375b238fc146103e457600080fd5b806324d7806c146102945780632f2ff15d146102a757806336568abe146102ba57806356b78e30146102cd57600080fd5b80630e3e80ac116101b85780630e3e80ac14610234578063158ef93e1461024f57806319ab453c1461025c578063248a9ca31461027157600080fd5b806301ffc9a7146101df57806306a46239146102075780630952ff541461021f575b600080fd5b6101f26101ed366004612e34565b610581565b60405190151581526020015b60405180910390f35b640312e302e360dc1b5b6040519081526020016101fe565b6102116000805160206140d983398151915281565b714d756c7469506f6f6c48537472617465677960701b610211565b6002546101f29060ff1681565b61026f61026a366004612e7e565b6105b1565b005b61021161027f366004612e9b565b60009081526020819052604090206001015490565b6101f26102a2366004612e7e565b6106e0565b61026f6102b5366004612eb4565b610718565b61026f6102c8366004612eb4565b610742565b6102e06102db3660046131c8565b6107c0565b6040516001600160a01b0390911681526020016101fe565b61030b610306366004613361565b610837565b6040516101fe91906135bf565b600a54600b54600c54600d54600f5461036f94600281810b9563010000008304820b95600160301b8404830b95600160481b850490930b94600160601b90940463ffffffff1693919290916001600160a01b031689565b6040805160029a8b0b8152988a0b60208a015296890b968801969096529390960b606086015263ffffffff909116608085015260a084015260c083019390935260e08201929092526001600160a01b03909116610100820152610120016101fe565b6101f26103df366004612e7e565b610cd4565b6102116000805160206140f983398151915281565b610401610cee565b6040516101fe919061362e565b60105461042790600281810b9163010000009004900b82565b60408051600293840b81529190920b6020820152016101fe565b61026f61044f366004613641565b610d0e565b6102e0610462366004613675565b61155b565b610211633b9aca0081565b6101f2610480366004612eb4565b61157a565b61021160008051602061411983398151915281565b6104016115a3565b610211600081565b61026f6104b83660046131c8565b6115b6565b6104d06104cb366004613697565b6122f4565b6040516101fe919061370b565b60045460055460065460075460095461050a946001600160a01b0390811694811693811692169060020b85565b604080516001600160a01b039687168152948616602086015292851692840192909252909216606082015260029190910b608082015260a0016101fe565b610211610556366004612e9b565b6123e8565b61026f610569366004612eb4565b6123ff565b61026f61057c366004613641565b612424565b60006001600160e01b03198216635a05180f60e01b14806105a657506105a6826125fc565b92915050565b905090565b60408051808201909152600281526120ad60f11b60208201526001600160a01b0382166105fa5760405162461bcd60e51b81526004016105f1919061362e565b60405180910390fd5b506002546040805180820190915260048152631253925560e21b60208201529060ff161561063b5760405162461bcd60e51b81526004016105f1919061362e565b5061065460008051602061411983398151915282612631565b61066c6000805160206140f983398151915282612631565b6106846000805160206140f98339815191528061263b565b6106aa6000805160206140d98339815191526000805160206140f983398151915261263b565b6106d06000805160206141198339815191526000805160206140d983398151915261263b565b506002805460ff19166001179055565b60006106fa6000805160206140f98339815191528361157a565b806105a657506105a66000805160206140d98339815191528361157a565b60008281526020819052604090206001015461073381612686565b61073d8383612693565b505050565b6001600160a01b03811633146107b25760405162461bcd60e51b815260206004820152602f60248201527f416363657373436f6e74726f6c3a2063616e206f6e6c792072656e6f756e636560448201526e103937b632b9903337b91039b2b63360891b60648201526084016105f1565b6107bc82826126b5565b5050565b60006107cb306126d7565b6040516314e383f360e31b81529091506001600160a01b0382169063a71c1f98906107fe90879087908790600401613868565b600060405180830381600087803b15801561081857600080fd5b505af115801561082c573d6000803e3d6000fd5b505050509392505050565b61087d6040518060e00160405280600060020b8152602001600060020b815260200160608152602001606081526020016060815260200160608152602001600081525090565b610885612771565b6040805161014081018252600a8054600281810b845263010000008204810b602080860191909152600160301b8304820b85870152600160481b830490910b6060850152600160601b90910463ffffffff166080840152600b5460a0840152600c5460c0840152600d5460e0840152600e80548551818402810184019096528086526000956101008601939092919083018282801561094357602002820191906000526020600020905b81548152602001906001019080831161092f575b5050509183525050600591909101546001600160a01b0316602091820152604080518082018252601054600281810b83526301000000909104900b81840152815160038054948502820161010090810190945260e0820185815295965091946000949193849284918401828280156109e457602002820191906000526020600020905b81546001600160a01b031681526001909101906020018083116109c6575b505050918352505060018201546001600160a01b03908116602080840191909152600284015482166040808501919091526003850154831660608501526004850154909216608084015260058401805483518184028101840190945280845260a0909401939091830182828015610a8457602002820191906000526020600020905b81546001600160a01b03168152600190910190602001808311610a66575b505050505081526020016006820160009054906101000a900460020b60020b60020b8152505090506000604051806102200160405280856000015160020b8152602001856020015160020b8152602001856040015160020b8152602001846000015160020b8152602001846020015160020b8152602001856060015160020b8152602001856080015163ffffffff16815260200183602001516001600160a01b0316815260200183604001516001600160a01b031681526020018561012001516001600160a01b0316815260200183606001516001600160a01b031681526020018560a0015181526020018560c0015181526020018560e0015181526020018561010001518152602001836000015181526020018360a00151815250905081608001516001600160a01b031663098f319b82886040518363ffffffff1660e01b8152600401610bd4929190613935565b600060405180830381600087803b158015610bee57600080fd5b505af1158015610c02573d6000803e3d6000fd5b505050506040513d6000823e601f3d908101601f19168201604052610c2a9190810190613c24565b9450846020015160020b856000015160020b1215610c8d57604080518082019091528551600281810b83526020808901519182900b9301929092526010805462ffffff93841663010000000265ffffffffffff1990911693909216929092171790555b604051329033907fd21217919c12cd4d0084380f44df2e36bbc2203bbdce6f9a9c6620c83f1cdd4090610cc3908a908a90613d2b565b60405180910390a350505050919050565b60006105a66000805160206141198339815191528361157a565b60606105ac714d756c7469506f6f6c48537472617465677960701b6127c3565b6040805160038054610100602082028401810190945260e0830181815260009484928491840182828015610d6b57602002820191906000526020600020905b81546001600160a01b03168152600190910190602001808311610d4d575b505050918352505060018201546001600160a01b03908116602080840191909152600284015482166040808501919091526003850154831660608501526004850154909216608084015260058401805483518184028101840190945280845260a0909401939091830182828015610e0b57602002820191906000526020600020905b81546001600160a01b03168152600190910190602001808311610ded575b50505091835250506006919091015460020b60209182015260c08201519084015160408501519293509091600091610e4291613d66565b90506000846000015160020b13604051806040016040528060028152602001612b2d60f11b81525090610e885760405162461bcd60e51b81526004016105f1919061362e565b508351610e96908390613dc4565b60408051808201909152600381526224a72b60e91b60208201529060020b15610ed25760405162461bcd60e51b81526004016105f1919061362e565b506000846060015160020b13604051806040016040528060048152602001634c494d5560e01b81525090610f195760405162461bcd60e51b81526004016105f1919061362e565b50836000015160020b846060015160020b12604051806040016040528060048152602001634c494d4f60e01b81525090610f665760405162461bcd60e51b81526004016105f1919061362e565b50818460200151610f779190613dc4565b60408051808201909152600381526224a72b60e91b60208201529060020b15610fb35760405162461bcd60e51b81526004016105f1919061362e565b50818460400151610fc49190613dc4565b60408051808201909152600381526224a72b60e91b60208201529060020b156110005760405162461bcd60e51b81526004016105f1919061362e565b50836000015160020b8160020b13604051806040016040528060048152602001634c494d5560e01b815250906110495760405162461bcd60e51b81526004016105f1919061362e565b5083516110569082613dc4565b60408051808201909152600381526224a72b60e91b60208201529060020b156110925760405162461bcd60e51b81526004016105f1919061362e565b506000846080015163ffffffff1611604051806040016040528060028152602001612b2d60f11b815250906110da5760405162461bcd60e51b81526004016105f1919061362e565b5060008460e0015111604051806040016040528060028152602001612b2d60f11b8152509061111c5760405162461bcd60e51b81526004016105f1919061362e565b50633b9aca008460e0015110604051806040016040528060048152602001634c494d4f60e01b815250906111635760405162461bcd60e51b81526004016105f1919061362e565b5060008460a0015111604051806040016040528060028152602001612b2d60f11b815250906111a55760405162461bcd60e51b81526004016105f1919061362e565b50633b9aca008460a001511115604051806040016040528060048152602001634c494d4f60e01b815250906111ed5760405162461bcd60e51b81526004016105f1919061362e565b5060008460c0015111604051806040016040528060028152602001612b2d60f11b8152509061122f5760405162461bcd60e51b81526004016105f1919061362e565b50633b9aca008460c001511115604051806040016040528060048152602001634c494d4f60e01b815250906112775760405162461bcd60e51b81526004016105f1919061362e565b508260a00151518461010001515114604051806040016040528060048152602001631253959360e21b815250906112c15760405162461bcd60e51b81526004016105f1919061362e565b506000805b856101000151518110156113105785610100015181815181106112eb576112eb613de6565b6020026020010151826112fe9190613dfc565b915061130981613e14565b90506112c6565b506040805180820190915260028152612b2d60f11b6020820152816113485760405162461bcd60e51b81526004016105f1919061362e565b5061012085015160408051808201909152600281526120ad60f11b6020820152906001600160a01b031661138f5760405162461bcd60e51b81526004016105f1919061362e565b50835180516000906113a3576113a3613de6565b60200260200101516001600160a01b03168561012001516001600160a01b0316630dfe16816040518163ffffffff1660e01b815260040160206040518083038186803b1580156113f257600080fd5b505afa158015611406573d6000803e3d6000fd5b505050506040513d601f19601f8201168201806040525081019061142a9190613e2f565b6001600160a01b03161460405180604001604052806005815260200164494e56544f60d81b815250906114705760405162461bcd60e51b81526004016105f1919061362e565b5083518051600190811061148657611486613de6565b60200260200101516001600160a01b03168561012001516001600160a01b031663d21220a76040518163ffffffff1660e01b815260040160206040518083038186803b1580156114d557600080fd5b505afa1580156114e9573d6000803e3d6000fd5b505050506040513d601f19601f8201168201806040525081019061150d9190613e2f565b6001600160a01b03161460405180604001604052806005815260200164494e56544f60d81b815250906115535760405162461bcd60e51b81526004016105f1919061362e565b505050505050565b6000828152600160205260408120611573908361282f565b9392505050565b6000918252602082815260408084206001600160a01b0393909316845291905290205460ff1690565b60606105ac640312e302e360dc1b6127c3565b825180516000919082906115cc576115cc613de6565b60200260200101516001600160a01b031614156040518060400160405280600281526020016120ad60f11b815250906116185760405162461bcd60e51b81526004016105f1919061362e565b508251805160009190600190811061163257611632613de6565b60200260200101516001600160a01b031614156040518060400160405280600281526020016120ad60f11b8152509061167e5760405162461bcd60e51b81526004016105f1919061362e565b508251516040805180820190915260048152631253959360e21b6020820152906002146116be5760405162461bcd60e51b81526004016105f1919061362e565b5060006001600160a01b031683602001516001600160a01b031614156040518060400160405280600281526020016120ad60f11b815250906117135760405162461bcd60e51b81526004016105f1919061362e565b50600083602001516001600160a01b031663697222336040518163ffffffff1660e01b815260040160006040518083038186803b15801561175357600080fd5b505afa158015611767573d6000803e3d6000fd5b505050506040513d6000823e601f3d908101601f1916820160405261178f9190810190613e4c565b90508051600214604051806040016040528060048152602001631253959360e21b815250906117d15760405162461bcd60e51b81526004016105f1919061362e565b50835180516000906117e5576117e5613de6565b60200260200101516001600160a01b03168160008151811061180957611809613de6565b60200260200101516001600160a01b03161460405180604001604052806004815260200163494e564160e01b815250906118565760405162461bcd60e51b81526004016105f1919061362e565b5083518051600190811061186c5761186c613de6565b60200260200101516001600160a01b03168160018151811061189057611890613de6565b60200260200101516001600160a01b03161460405180604001604052806004815260200163494e564160e01b815250906118dd5760405162461bcd60e51b81526004016105f1919061362e565b506040808501518151808301909252600282526120ad60f11b60208301526001600160a01b03166119215760405162461bcd60e51b81526004016105f1919061362e565b50600084602001516001600160a01b031663697222336040518163ffffffff1660e01b815260040160006040518083038186803b15801561196157600080fd5b505afa158015611975573d6000803e3d6000fd5b505050506040513d6000823e601f3d908101601f1916820160405261199d9190810190613e4c565b90508051600214604051806040016040528060048152602001631253959360e21b815250906119df5760405162461bcd60e51b81526004016105f1919061362e565b50845180516000906119f3576119f3613de6565b60200260200101516001600160a01b031681600081518110611a1757611a17613de6565b60200260200101516001600160a01b03161460405180604001604052806004815260200163494e564160e01b81525090611a645760405162461bcd60e51b81526004016105f1919061362e565b50845180516001908110611a7a57611a7a613de6565b60200260200101516001600160a01b031681600181518110611a9e57611a9e613de6565b60200260200101516001600160a01b03161460405180604001604052806004815260200163494e564160e01b81525090611aeb5760405162461bcd60e51b81526004016105f1919061362e565b50606085015160408051808201909152600281526120ad60f11b6020820152906001600160a01b0316611b315760405162461bcd60e51b81526004016105f1919061362e565b50608085015160408051808201909152600281526120ad60f11b6020820152906001600160a01b0316611b775760405162461bcd60e51b81526004016105f1919061362e565b5060408051808201909152600281526120ad60f11b60208201526001600160a01b038416611bb85760405162461bcd60e51b81526004016105f1919061362e565b5060008560a001515111604051806040016040528060048152602001631253959360e21b81525090611bfd5760405162461bcd60e51b81526004016105f1919061362e565b506000805b8660a00151518110156120475760006001600160a01b03168760a001518281518110611c3057611c30613de6565b60200260200101516001600160a01b031614156040518060400160405280600281526020016120ad60f11b81525090611c7c5760405162461bcd60e51b81526004016105f1919061362e565b5060008760a001518281518110611c9557611c95613de6565b60200260200101516001600160a01b031663697222336040518163ffffffff1660e01b815260040160006040518083038186803b158015611cd557600080fd5b505afa158015611ce9573d6000803e3d6000fd5b505050506040513d6000823e601f3d908101601f19168201604052611d119190810190613e4c565b90508760000151600081518110611d2a57611d2a613de6565b60200260200101516001600160a01b031681600081518110611d4e57611d4e613de6565b60200260200101516001600160a01b03161460405180604001604052806004815260200163494e564160e01b81525090611d9b5760405162461bcd60e51b81526004016105f1919061362e565b50875180516001908110611db157611db1613de6565b60200260200101516001600160a01b031681600181518110611dd557611dd5613de6565b60200260200101516001600160a01b03161460405180604001604052806004815260200163494e564160e01b81525090611e225760405162461bcd60e51b81526004016105f1919061362e565b5060008860a001518381518110611e3b57611e3b613de6565b60200260200101516001600160a01b03166316f0115b6040518163ffffffff1660e01b815260040160206040518083038186803b158015611e7b57600080fd5b505afa158015611e8f573d6000803e3d6000fd5b505050506040513d601f19601f82011682018060405250810190611eb39190613e2f565b9050806001600160a01b031663d0c93a7c6040518163ffffffff1660e01b815260040160206040518083038186803b158015611eee57600080fd5b505afa158015611f02573d6000803e3d6000fd5b505050506040513d601f19601f82011682018060405250810190611f269190613ee5565b8960c00151611f359190613dc4565b604080518082019091526004815263494e564160e01b60208201529060020b15611f725760405162461bcd60e51b81526004016105f1919061362e565b506000816001600160a01b031663ddca3f436040518163ffffffff1660e01b815260040160206040518083038186803b158015611fae57600080fd5b505afa158015611fc2573d6000803e3d6000fd5b505050506040513d601f19601f82011682018060405250810190611fe69190613f02565b90508062ffffff168562ffffff161060405180604001604052806004815260200163494e564160e01b815250906120305760405162461bcd60e51b81526004016105f1919061362e565b5093506120409150829050613e14565b9050611c02565b506004612057620d89e719613f27565b6120619190613f4a565b60020b8660c0015160020b12604051806040016040528060048152602001634c494d4f60e01b815250906120a85760405162461bcd60e51b81526004016105f1919061362e565b5060808601516040516358dad96560e01b81523060048201526001600160a01b03909116906358dad96590602401602060405180830381600087803b1580156120f057600080fd5b505af1158015612104573d6000803e3d6000fd5b505050506040513d601f19601f820116820180604052508101906121289190613e2f565b6001600160a01b03166080870152855180518791600391612150918391602090910190612d7f565b506020828101516001830180546001600160a01b039283166001600160a01b03199182161790915560408501516002850180549184169183169190911790556060850151600385018054918416918316919091179055608085015160048501805491909316911617905560a083015180516121d19260058501920190612d7f565b5060c091909101516006909101805462ffffff191662ffffff9092169190911790556121fc85610d0e565b8451600a805460208089015160408a015160608b015160808c015163ffffffff16600160601b0263ffffffff60601b1962ffffff928316600160481b0262ffffff60481b19948416600160301b02949094166bffffffffffff0000000000001995841663010000000265ffffffffffff199098169390991692909217959095179290921695909517949094179390931617815560a0870151600b5560c0870151600c5560e0870151600d55610100870151805188936122c092600e92910190612de4565b506101209190910151600590910180546001600160a01b0319166001600160a01b03909216919091179055611553846105b1565b6060816001600160401b0381111561230e5761230e612ee4565b60405190808252806020026020018201604052801561234157816020015b606081526020019060019003908161232c5790505b50905060005b828110156123e1576123b13085858481811061236557612365613de6565b90506020028101906123779190613f84565b8080601f01602080910402602001604051908101604052809392919081815260200183838082843760009201919091525061283b92505050565b8282815181106123c3576123c3613de6565b602002602001018190525080806123d990613e14565b915050612347565b5092915050565b60008181526001602052604081206105a690612860565b60008281526020819052604090206001015461241a81612686565b61073d83836126b5565b61242c61286a565b61243581610d0e565b8051600a805460208085015160408601516060870151608088015163ffffffff16600160601b0263ffffffff60601b1962ffffff928316600160481b0262ffffff60481b19948416600160301b02949094166bffffffffffff0000000000001995841663010000000265ffffffffffff199098169390991692909217959095179290921695909517949094179390931617815560a0830151600b5560c0830151600c5560e0830151600d55610100830151805184936124f992600e92910190612de4565b506101209190910151600590910180546001600160a01b0319166001600160a01b03909216919091179055604051339032907ff7f2365bf195349cfbdc9022dff58a844ab99aa43644d69fe8c3c0501292587590612558908590613fd1565b60405180910390a350565b61256d828261157a565b6107bc576000828152602081815260408083206001600160a01b03851684529091529020805460ff191660011790556125a33390565b6001600160a01b0316816001600160a01b0316837f2f8788117e7eff1d82e926ec794901d17c78024a50270940304540a733656f0d60405160405180910390a45050565b6000611573836001600160a01b038416612873565b60006001600160e01b03198216637965db0b60e01b14806105a657506301ffc9a760e01b6001600160e01b03198316146105a6565b6107bc8282612693565b600082815260208190526040808220600101805490849055905190918391839186917fbd79b86ffe0ab8e8776151514217cd7cacd52c909f66475c3af44e129f0b00ff9190a4505050565b61269081336128c2565b50565b61269d8282612563565b600082815260016020526040902061073d90826125e7565b6126bf828261291b565b600082815260016020526040902061073d9082612980565b6000763d602d80600a3d3981f3363d3d373d3d3d363d730000008260601b60e81c176000526e5af43d82803e903d91602b57fd5bf38260781b17602052603760096000f090506001600160a01b03811661276c5760405162461bcd60e51b8152602060048201526016602482015275115490cc4c4d8dce8818dc99585d194819985a5b195960521b60448201526064016105f1565b919050565b61277a336106e0565b80612789575061278933610cd4565b6040518060400160405280600381526020016223292160e91b815250906126905760405162461bcd60e51b81526004016105f1919061362e565b604080516020808252818301909252606091602082018180368337019050509050602060005b60208110156128215783816020811061280457612804613de6565b1a61281157809150612821565b61281a81613e14565b90506127e9565b508152602081019190915290565b60006115738383612995565b60606115738383604051806060016040528060278152602001614139602791396129bf565b60006105a6825490565b612789336106e0565b60008181526001830160205260408120546128ba575081546001818101845560008481526020808220909301849055845484825282860190935260409020919091556105a6565b5060006105a6565b6128cc828261157a565b6107bc576128d981612a37565b6128e4836020612a49565b6040516020016128f5929190613fe4565b60408051601f198184030181529082905262461bcd60e51b82526105f19160040161362e565b612925828261157a565b156107bc576000828152602081815260408083206001600160a01b0385168085529252808320805460ff1916905551339285917ff6391f5c32d9c69d2a47ea670b442974b53935d1edc7fd64eb21e047a839171b9190a45050565b6000611573836001600160a01b038416612be4565b60008260000182815481106129ac576129ac613de6565b9060005260206000200154905092915050565b6060600080856001600160a01b0316856040516129dc9190614059565b600060405180830381855af49150503d8060008114612a17576040519150601f19603f3d011682016040523d82523d6000602084013e612a1c565b606091505b5091509150612a2d86838387612cd7565b9695505050505050565b60606105a66001600160a01b03831660145b60606000612a58836002614075565b612a63906002613dfc565b6001600160401b03811115612a7a57612a7a612ee4565b6040519080825280601f01601f191660200182016040528015612aa4576020820181803683370190505b509050600360fc1b81600081518110612abf57612abf613de6565b60200101906001600160f81b031916908160001a905350600f60fb1b81600181518110612aee57612aee613de6565b60200101906001600160f81b031916908160001a9053506000612b12846002614075565b612b1d906001613dfc565b90505b6001811115612b95576f181899199a1a9b1b9c1cb0b131b232b360811b85600f1660108110612b5157612b51613de6565b1a60f81b828281518110612b6757612b67613de6565b60200101906001600160f81b031916908160001a90535060049490941c93612b8e81614094565b9050612b20565b5083156115735760405162461bcd60e51b815260206004820181905260248201527f537472696e67733a20686578206c656e67746820696e73756666696369656e7460448201526064016105f1565b60008181526001830160205260408120548015612ccd576000612c086001836140ab565b8554909150600090612c1c906001906140ab565b9050818114612c81576000866000018281548110612c3c57612c3c613de6565b9060005260206000200154905080876000018481548110612c5f57612c5f613de6565b6000918252602080832090910192909255918252600188019052604090208390555b8554869080612c9257612c926140c2565b6001900381819060005260206000200160009055905585600101600086815260200190815260200160002060009055600193505050506105a6565b60009150506105a6565b60608315612d43578251612d3c576001600160a01b0385163b612d3c5760405162461bcd60e51b815260206004820152601d60248201527f416464726573733a2063616c6c20746f206e6f6e2d636f6e747261637400000060448201526064016105f1565b5081612d4d565b612d4d8383612d55565b949350505050565b815115612d655781518083602001fd5b8060405162461bcd60e51b81526004016105f1919061362e565b828054828255906000526020600020908101928215612dd4579160200282015b82811115612dd457825182546001600160a01b0319166001600160a01b03909116178255602090920191600190910190612d9f565b50612de0929150612e1f565b5090565b828054828255906000526020600020908101928215612dd4579160200282015b82811115612dd4578251825591602001919060010190612e04565b5b80821115612de05760008155600101612e20565b600060208284031215612e4657600080fd5b81356001600160e01b03198116811461157357600080fd5b6001600160a01b038116811461269057600080fd5b803561276c81612e5e565b600060208284031215612e9057600080fd5b813561157381612e5e565b600060208284031215612ead57600080fd5b5035919050565b60008060408385031215612ec757600080fd5b823591506020830135612ed981612e5e565b809150509250929050565b634e487b7160e01b600052604160045260246000fd5b60405161014081016001600160401b0381118282101715612f1d57612f1d612ee4565b60405290565b60405160e081016001600160401b0381118282101715612f1d57612f1d612ee4565b604051601f8201601f191681016001600160401b0381118282101715612f6d57612f6d612ee4565b604052919050565b60006001600160401b03821115612f8e57612f8e612ee4565b5060051b60200190565b600082601f830112612fa957600080fd5b81356020612fbe612fb983612f75565b612f45565b82815260059290921b84018101918181019086841115612fdd57600080fd5b8286015b84811015613001578035612ff481612e5e565b8352918301918301612fe1565b509695505050505050565b600082601f83011261301d57600080fd5b8135602061302d612fb983612f75565b82815260059290921b8401810191818101908684111561304c57600080fd5b8286015b8481101561300157803561306381612e5e565b8352918301918301613050565b8060020b811461269057600080fd5b803561276c81613070565b803563ffffffff8116811461276c57600080fd5b600082601f8301126130af57600080fd5b813560206130bf612fb983612f75565b82815260059290921b840181019181810190868411156130de57600080fd5b8286015b8481101561300157803583529183019183016130e2565b6000610140828403121561310c57600080fd5b613114612efa565b905061311f8261307f565b815261312d6020830161307f565b602082015261313e6040830161307f565b604082015261314f6060830161307f565b60608201526131606080830161308a565b608082015260a082013560a082015260c082013560c082015260e082013560e0820152610100808301356001600160401b0381111561319e57600080fd5b6131aa8582860161309e565b8284015250506101206131be818401612e73565b9082015292915050565b6000806000606084860312156131dd57600080fd5b83356001600160401b03808211156131f457600080fd5b9085019060e0828803121561320857600080fd5b613210612f23565b82358281111561321f57600080fd5b61322b89828601612f98565b82525061323a60208401612e73565b602082015261324b60408401612e73565b604082015261325c60608401612e73565b606082015261326d60808401612e73565b608082015260a08301358281111561328457600080fd5b6132908982860161300c565b60a0830152506132a260c0840161307f565b60c0820152945060208601359150808211156132bd57600080fd5b506132ca868287016130f9565b9250506132d960408501612e73565b90509250925092565b600082601f8301126132f357600080fd5b81356020613303612fb983612f75565b82815260059290921b8401810191818101908684111561332257600080fd5b8286015b848110156130015780356001600160401b038111156133455760008081fd5b6133538986838b010161309e565b845250918301918301613326565b60006020828403121561337357600080fd5b81356001600160401b038082111561338a57600080fd5b9083019060e0828603121561339e57600080fd5b6133a6612f23565b6133af8361307f565b81526133bd6020840161307f565b60208201526040830135828111156133d457600080fd5b6133e08782860161309e565b6040830152506060830135828111156133f857600080fd5b613404878286016132e2565b60608301525060808301358281111561341c57600080fd5b613428878286016132e2565b60808301525060a08301358281111561344057600080fd5b61344c878286016132e2565b60a08301525060c083013560c082015280935050505092915050565b600081518084526020808501945080840160005b838110156134985781518752958201959082019060010161347c565b509495945050505050565b600082825180855260208086019550808260051b84010181860160005b848110156134ee57601f198684030189526134dc838351613468565b988401989250908301906001016134c0565b5090979650505050505050565b600060e08301825160020b845260208084015160020b81860152604084015160e06040870152828151808552610100880191508383019450600092505b808310156135585784518252938301936001929092019190830190613538565b5060608601519350868103606088015261357281856134a3565b93505050506080830151848203608086015261358e82826134a3565b91505060a083015184820360a08601526135a882826134a3565b91505060c083015160c08501528091505092915050565b60208152600061157360208301846134fb565b60005b838110156135ed5781810151838201526020016135d5565b838111156135fc576000848401525b50505050565b6000815180845261361a8160208601602086016135d2565b601f01601f19169290920160200192915050565b6020815260006115736020830184613602565b60006020828403121561365357600080fd5b81356001600160401b0381111561366957600080fd5b612d4d848285016130f9565b6000806040838503121561368857600080fd5b50508035926020909101359150565b600080602083850312156136aa57600080fd5b82356001600160401b03808211156136c157600080fd5b818501915085601f8301126136d557600080fd5b8135818111156136e457600080fd5b8660208260051b85010111156136f957600080fd5b60209290920196919550909350505050565b6000602080830181845280855180835260408601915060408160051b870101925083870160005b8281101561376057603f1988860301845261374e858351613602565b94509285019290850190600101613732565b5092979650505050505050565b600081518084526020808501945080840160005b838110156134985781516001600160a01b031687529582019590820190600101613781565b805160020b8252600061014060208301516137c6602086018260020b9052565b5060408301516137db604086018260020b9052565b5060608301516137f0606086018260020b9052565b506080830151613808608086018263ffffffff169052565b5060a083015160a085015260c083015160c085015260e083015160e085015261010080840151828287015261383f83870182613468565b925050506101208084015161385e828701826001600160a01b03169052565b5090949350505050565b606081526000845160e0606084015261388561014084018261376d565b60208701516001600160a01b03908116608086015260408801511660a085015260608701519091506138c260c08501826001600160a01b03169052565b5060808601516001600160a01b031660e084015260a0860151838203605f19016101008501526138f2828261376d565b91505060c086015161390a61012085018260020b9052565b50828103602084015261391d81866137a6565b915050612d4d60408301846001600160a01b03169052565b6040815261394960408201845160020b9052565b6000602084015161395f606084018260020b9052565b506040840151613974608084018260020b9052565b50606084015161398960a084018260020b9052565b50608084015161399e60c084018260020b9052565b5060a08401516139b360e084018260020b9052565b5060c08401516101006139cd8185018363ffffffff169052565b60e086015191506101206139eb818601846001600160a01b03169052565b90860151915061014090613a09858301846001600160a01b03169052565b8601519150610160613a25858201846001600160a01b03169052565b90860151915061018090613a43858301846001600160a01b03169052565b8601516101a085810191909152908601516101c080860191909152908601516101e080860191909152908601516102206102008087018290529193509190613a8f610260870185613468565b9350818801519150603f19808786030184880152613aad858461376d565b94508189015193508087860301610240880152505050613acd828261376d565b9150508281036020840152613ae281856134fb565b95945050505050565b805161276c81613070565b600082601f830112613b0757600080fd5b81516020613b17612fb983612f75565b82815260059290921b84018101918181019086841115613b3657600080fd5b8286015b848110156130015780518352918301918301613b3a565b600082601f830112613b6257600080fd5b81516020613b72612fb983612f75565b828152600592831b8501820192828201919087851115613b9157600080fd5b8387015b858110156134ee5780516001600160401b03811115613bb45760008081fd5b8801603f81018a13613bc65760008081fd5b858101516040613bd8612fb983612f75565b82815291851b8301810191888101908d841115613bf55760008081fd5b938201935b83851015613c1357845182529389019390890190613bfa565b885250505093850193508401613b95565b600060208284031215613c3657600080fd5b81516001600160401b0380821115613c4d57600080fd5b9083019060e08286031215613c6157600080fd5b613c69612f23565b613c7283613aeb565b8152613c8060208401613aeb565b6020820152604083015182811115613c9757600080fd5b613ca387828601613af6565b604083015250606083015182811115613cbb57600080fd5b613cc787828601613b51565b606083015250608083015182811115613cdf57600080fd5b613ceb87828601613b51565b60808301525060a083015182811115613d0357600080fd5b613d0f87828601613b51565b60a08301525060c083015160c082015280935050505092915050565b604081526000613d3e60408301856134fb565b8281036020840152613ae281856134fb565b634e487b7160e01b600052601160045260246000fd5b60008160020b8360020b6000811281627fffff1901831281151615613d8d57613d8d613d50565b81627fffff018313811615613da457613da4613d50565b5090039392505050565b634e487b7160e01b600052601260045260246000fd5b60008260020b80613dd757613dd7613dae565b808360020b0791505092915050565b634e487b7160e01b600052603260045260246000fd5b60008219821115613e0f57613e0f613d50565b500190565b6000600019821415613e2857613e28613d50565b5060010190565b600060208284031215613e4157600080fd5b815161157381612e5e565b60006020808385031215613e5f57600080fd5b82516001600160401b03811115613e7557600080fd5b8301601f81018513613e8657600080fd5b8051613e94612fb982612f75565b81815260059190911b82018301908381019087831115613eb357600080fd5b928401925b82841015613eda578351613ecb81612e5e565b82529284019290840190613eb8565b979650505050505050565b600060208284031215613ef757600080fd5b815161157381613070565b600060208284031215613f1457600080fd5b815162ffffff8116811461157357600080fd5b60008160020b627fffff19811415613f4157613f41613d50565b60000392915050565b60008160020b8360020b80613f6157613f61613dae565b627fffff19821460001982141615613f7b57613f7b613d50565b90059392505050565b6000808335601e19843603018112613f9b57600080fd5b8301803591506001600160401b03821115613fb557600080fd5b602001915036819003821315613fca57600080fd5b9250929050565b60208152600061157360208301846137a6565b7f416363657373436f6e74726f6c3a206163636f756e742000000000000000000081526000835161401c8160178501602088016135d2565b7001034b99036b4b9b9b4b733903937b6329607d1b601791840191820152835161404d8160288401602088016135d2565b01602801949350505050565b6000825161406b8184602087016135d2565b9190910192915050565b600081600019048311821515161561408f5761408f613d50565b500290565b6000816140a3576140a3613d50565b506000190190565b6000828210156140bd576140bd613d50565b500390565b634e487b7160e01b600052603160045260246000fdfec171260023d22a25a00a2789664c9334017843b831138c8ef03cc8897e5873d7f23ec0bb4210edd5cba85afd05127efcd2fc6a781bfed49188da1081670b22d846a52cf33029de9f84853745a87af28464c80bf0346df1b32e205fc73319f622416464726573733a206c6f772d6c6576656c2064656c65676174652063616c6c206661696c6564a264697066735822122028890451b56e08f2f83fe5e407343ddeb307a5363321401f0ce84b33e5f0841f64736f6c63430008090033f23ec0bb4210edd5cba85afd05127efcd2fc6a781bfed49188da1081670b22d846a52cf33029de9f84853745a87af28464c80bf0346df1b32e205fc73319f622",
    "linkReferences": {}
  },
  "methodIdentifiers": {
    "ADMIN_DELEGATE_ROLE()": "0952ff54",
    "ADMIN_ROLE()": "75b238fc",
    "DEFAULT_ADMIN_ROLE()": "a217fddf",
    "DENOMINATOR()": "918f8674",
    "OPERATOR()": "983d2737",
    "checkMutableParams((int24,int24,int24,int24,uint32,uint256,uint256,uint256,uint256[],address))": "8d75f7fb",
    "contractName()": "75d0c0dc",
    "contractNameBytes()": "0e3e80ac",
    "contractVersion()": "a0a8e460",
    "contractVersionBytes()": "06a46239",
    "createStrategy((address[],address,address,address,address,address[],int24),(int24,int24,int24,int24,uint32,uint256,uint256,uint256,uint256[],address),address)": "56b78e30",
    "getRoleAdmin(bytes32)": "248a9ca3",
    "getRoleMember(bytes32,uint256)": "9010d07c",
    "getRoleMemberCount(bytes32)": "ca15c873",
    "grantRole(bytes32,address)": "2f2ff15d",
    "hasRole(bytes32,address)": "91d14854",
    "immutableParams()": "c8014d53",
    "init(address)": "19ab453c",
    "initialize((address[],address,address,address,address,address[],int24),(int24,int24,int24,int24,uint32,uint256,uint256,uint256,uint256[],address),address)": "a71c1f98",
    "initialized()": "158ef93e",
    "isAdmin(address)": "24d7806c",
    "isOperator(address)": "6d70f7ae",
    "multicall(bytes[])": "ac9650d8",
    "mutableParams()": "5f408a21",
    "rebalance((int24,int24,int256[],uint256[][],uint256[][],uint256[][],uint256))": "585a9cdc",
    "renounceRole(bytes32,address)": "36568abe",
    "revokeRole(bytes32,address)": "d547741f",
    "shortInterval()": "8c059150",
    "supportsInterface(bytes4)": "01ffc9a7",
    "updateMutableParams((int24,int24,int24,int24,uint32,uint256,uint256,uint256,uint256[],address))": "e36c518f"
  },
  "id": 394
}