{
  "abi": [
    {
      "inputs": [
        {
          "components": [
            {
              "internalType": "contract IProtocolGovernance",
              "name": "protocolGovernance",
              "type": "address"
            },
            {
              "internalType": "contract IVaultRegistry",
              "name": "registry",
              "type": "address"
            },
            {
              "internalType": "contract IVault",
              "name": "singleton",
              "type": "address"
            }
          ],
          "internalType": "struct IVaultGovernance.InternalParams",
          "name": "internalParams_",
          "type": "tuple"
        }
      ],
      "stateMutability": "nonpayable",
      "type": "constructor"
    },
    {
      "anonymous": false,
      "inputs": [
        {
          "indexed": true,
          "internalType": "address",
          "name": "origin",
          "type": "address"
        },
        {
          "indexed": true,
          "internalType": "address",
          "name": "sender",
          "type": "address"
        },
        {
          "components": [
            {
              "internalType": "contract IProtocolGovernance",
              "name": "protocolGovernance",
              "type": "address"
            },
            {
              "internalType": "contract IVaultRegistry",
              "name": "registry",
              "type": "address"
            },
            {
              "internalType": "contract IVault",
              "name": "singleton",
              "type": "address"
            }
          ],
          "indexed": false,
          "internalType": "struct IVaultGovernance.InternalParams",
          "name": "params",
          "type": "tuple"
        }
      ],
      "name": "CommitedInternalParams",
      "type": "event"
    },
    {
      "anonymous": false,
      "inputs": [
        {
          "indexed": true,
          "internalType": "address",
          "name": "origin",
          "type": "address"
        },
        {
          "indexed": true,
          "internalType": "address",
          "name": "sender",
          "type": "address"
        },
        {
          "indexed": false,
          "internalType": "address[]",
          "name": "vaultTokens",
          "type": "address[]"
        },
        {
          "indexed": false,
          "internalType": "bytes",
          "name": "options",
          "type": "bytes"
        },
        {
          "indexed": false,
          "internalType": "address",
          "name": "owner",
          "type": "address"
        },
        {
          "indexed": false,
          "internalType": "address",
          "name": "vaultAddress",
          "type": "address"
        },
        {
          "indexed": false,
          "internalType": "uint256",
          "name": "vaultNft",
          "type": "uint256"
        }
      ],
      "name": "DeployedVault",
      "type": "event"
    },
    {
      "anonymous": false,
      "inputs": [
        {
          "indexed": true,
          "internalType": "address",
          "name": "origin",
          "type": "address"
        },
        {
          "indexed": true,
          "internalType": "address",
          "name": "sender",
          "type": "address"
        },
        {
          "indexed": true,
          "internalType": "uint256",
          "name": "nft",
          "type": "uint256"
        },
        {
          "components": [
            {
              "components": [
                {
                  "internalType": "contract IERC20Minimal",
                  "name": "rewardToken",
                  "type": "address"
                },
                {
                  "internalType": "contract IERC20Minimal",
                  "name": "bonusRewardToken",
                  "type": "address"
                },
                {
                  "internalType": "contract IAlgebraPool",
                  "name": "pool",
                  "type": "address"
                },
                {
                  "internalType": "uint256",
                  "name": "startTime",
                  "type": "uint256"
                },
                {
                  "internalType": "uint256",
                  "name": "endTime",
                  "type": "uint256"
                }
              ],
              "internalType": "struct IIncentiveKey.IncentiveKey",
              "name": "key",
              "type": "tuple"
            },
            {
              "internalType": "address",
              "name": "bonusTokenToUnderlying",
              "type": "address"
            },
            {
              "internalType": "address",
              "name": "rewardTokenToUnderlying",
              "type": "address"
            },
            {
              "internalType": "uint256",
              "name": "swapSlippageD",
              "type": "uint256"
            },
            {
              "internalType": "uint32",
              "name": "rewardPoolTimespan",
              "type": "uint32"
            }
          ],
          "indexed": false,
          "internalType": "struct IQuickSwapVaultGovernance.StrategyParams",
          "name": "params",
          "type": "tuple"
        }
      ],
      "name": "SetStrategyParams",
      "type": "event"
    },
    {
      "anonymous": false,
      "inputs": [
        {
          "indexed": true,
          "internalType": "address",
          "name": "origin",
          "type": "address"
        },
        {
          "indexed": true,
          "internalType": "address",
          "name": "sender",
          "type": "address"
        },
        {
          "components": [
            {
              "internalType": "contract IProtocolGovernance",
              "name": "protocolGovernance",
              "type": "address"
            },
            {
              "internalType": "contract IVaultRegistry",
              "name": "registry",
              "type": "address"
            },
            {
              "internalType": "contract IVault",
              "name": "singleton",
              "type": "address"
            }
          ],
          "indexed": false,
          "internalType": "struct IVaultGovernance.InternalParams",
          "name": "params",
          "type": "tuple"
        },
        {
          "indexed": false,
          "internalType": "uint256",
          "name": "when",
          "type": "uint256"
        }
      ],
      "name": "StagedInternalParams",
      "type": "event"
    },
    {
      "inputs": [],
      "name": "commitInternalParams",
      "outputs": [],
      "stateMutability": "nonpayable",
      "type": "function"
    },
    {
      "inputs": [],
      "name": "contractName",
      "outputs": [
        {
          "internalType": "string",
          "name": "",
          "type": "string"
        }
      ],
      "stateMutability": "pure",
      "type": "function"
    },
    {
      "inputs": [],
      "name": "contractNameBytes",
      "outputs": [
        {
          "internalType": "bytes32",
          "name": "",
          "type": "bytes32"
        }
      ],
      "stateMutability": "pure",
      "type": "function"
    },
    {
      "inputs": [],
      "name": "contractVersion",
      "outputs": [
        {
          "internalType": "string",
          "name": "",
          "type": "string"
        }
      ],
      "stateMutability": "pure",
      "type": "function"
    },
    {
      "inputs": [],
      "name": "contractVersionBytes",
      "outputs": [
        {
          "internalType": "bytes32",
          "name": "",
          "type": "bytes32"
        }
      ],
      "stateMutability": "pure",
      "type": "function"
    },
    {
      "inputs": [
        {
          "internalType": "address[]",
          "name": "vaultTokens_",
          "type": "address[]"
        },
        {
          "internalType": "address",
          "name": "owner_",
          "type": "address"
        },
        {
          "internalType": "address",
          "name": "erc20Vault_",
          "type": "address"
        }
      ],
      "name": "createVault",
      "outputs": [
        {
          "internalType": "contract IQuickSwapVault",
          "name": "vault",
          "type": "address"
        },
        {
          "internalType": "uint256",
          "name": "nft",
          "type": "uint256"
        }
      ],
      "stateMutability": "nonpayable",
      "type": "function"
    },
    {
      "inputs": [],
      "name": "delayedProtocolParamsTimestamp",
      "outputs": [
        {
          "internalType": "uint256",
          "name": "",
          "type": "uint256"
        }
      ],
      "stateMutability": "view",
      "type": "function"
    },
    {
      "inputs": [
        {
          "internalType": "uint256",
          "name": "nft",
          "type": "uint256"
        }
      ],
      "name": "delayedProtocolPerVaultParamsTimestamp",
      "outputs": [
        {
          "internalType": "uint256",
          "name": "",
          "type": "uint256"
        }
      ],
      "stateMutability": "view",
      "type": "function"
    },
    {
      "inputs": [
        {
          "internalType": "uint256",
          "name": "nft",
          "type": "uint256"
        }
      ],
      "name": "delayedStrategyParamsTimestamp",
      "outputs": [
        {
          "internalType": "uint256",
          "name": "",
          "type": "uint256"
        }
      ],
      "stateMutability": "view",
      "type": "function"
    },
    {
      "inputs": [],
      "name": "internalParams",
      "outputs": [
        {
          "components": [
            {
              "internalType": "contract IProtocolGovernance",
              "name": "protocolGovernance",
              "type": "address"
            },
            {
              "internalType": "contract IVaultRegistry",
              "name": "registry",
              "type": "address"
            },
            {
              "internalType": "contract IVault",
              "name": "singleton",
              "type": "address"
            }
          ],
          "internalType": "struct IVaultGovernance.InternalParams",
          "name": "",
          "type": "tuple"
        }
      ],
      "stateMutability": "view",
      "type": "function"
    },
    {
      "inputs": [],
      "name": "internalParamsTimestamp",
      "outputs": [
        {
          "internalType": "uint256",
          "name": "",
          "type": "uint256"
        }
      ],
      "stateMutability": "view",
      "type": "function"
    },
    {
      "inputs": [
        {
          "internalType": "uint256",
          "name": "nft",
          "type": "uint256"
        },
        {
          "components": [
            {
              "components": [
                {
                  "internalType": "contract IERC20Minimal",
                  "name": "rewardToken",
                  "type": "address"
                },
                {
                  "internalType": "contract IERC20Minimal",
                  "name": "bonusRewardToken",
                  "type": "address"
                },
                {
                  "internalType": "contract IAlgebraPool",
                  "name": "pool",
                  "type": "address"
                },
                {
                  "internalType": "uint256",
                  "name": "startTime",
                  "type": "uint256"
                },
                {
                  "internalType": "uint256",
                  "name": "endTime",
                  "type": "uint256"
                }
              ],
              "internalType": "struct IIncentiveKey.IncentiveKey",
              "name": "key",
              "type": "tuple"
            },
            {
              "internalType": "address",
              "name": "bonusTokenToUnderlying",
              "type": "address"
            },
            {
              "internalType": "address",
              "name": "rewardTokenToUnderlying",
              "type": "address"
            },
            {
              "internalType": "uint256",
              "name": "swapSlippageD",
              "type": "uint256"
            },
            {
              "internalType": "uint32",
              "name": "rewardPoolTimespan",
              "type": "uint32"
            }
          ],
          "internalType": "struct IQuickSwapVaultGovernance.StrategyParams",
          "name": "params",
          "type": "tuple"
        }
      ],
      "name": "setStrategyParams",
      "outputs": [],
      "stateMutability": "nonpayable",
      "type": "function"
    },
    {
      "inputs": [
        {
          "components": [
            {
              "internalType": "contract IProtocolGovernance",
              "name": "protocolGovernance",
              "type": "address"
            },
            {
              "internalType": "contract IVaultRegistry",
              "name": "registry",
              "type": "address"
            },
            {
              "internalType": "contract IVault",
              "name": "singleton",
              "type": "address"
            }
          ],
          "internalType": "struct IVaultGovernance.InternalParams",
          "name": "newParams",
          "type": "tuple"
        }
      ],
      "name": "stageInternalParams",
      "outputs": [],
      "stateMutability": "nonpayable",
      "type": "function"
    },
    {
      "inputs": [],
      "name": "stagedInternalParams",
      "outputs": [
        {
          "components": [
            {
              "internalType": "contract IProtocolGovernance",
              "name": "protocolGovernance",
              "type": "address"
            },
            {
              "internalType": "contract IVaultRegistry",
              "name": "registry",
              "type": "address"
            },
            {
              "internalType": "contract IVault",
              "name": "singleton",
              "type": "address"
            }
          ],
          "internalType": "struct IVaultGovernance.InternalParams",
          "name": "",
          "type": "tuple"
        }
      ],
      "stateMutability": "view",
      "type": "function"
    },
    {
      "inputs": [
        {
          "internalType": "uint256",
          "name": "nft",
          "type": "uint256"
        }
      ],
      "name": "strategyParams",
      "outputs": [
        {
          "components": [
            {
              "components": [
                {
                  "internalType": "contract IERC20Minimal",
                  "name": "rewardToken",
                  "type": "address"
                },
                {
                  "internalType": "contract IERC20Minimal",
                  "name": "bonusRewardToken",
                  "type": "address"
                },
                {
                  "internalType": "contract IAlgebraPool",
                  "name": "pool",
                  "type": "address"
                },
                {
                  "internalType": "uint256",
                  "name": "startTime",
                  "type": "uint256"
                },
                {
                  "internalType": "uint256",
                  "name": "endTime",
                  "type": "uint256"
                }
              ],
              "internalType": "struct IIncentiveKey.IncentiveKey",
              "name": "key",
              "type": "tuple"
            },
            {
              "internalType": "address",
              "name": "bonusTokenToUnderlying",
              "type": "address"
            },
            {
              "internalType": "address",
              "name": "rewardTokenToUnderlying",
              "type": "address"
            },
            {
              "internalType": "uint256",
              "name": "swapSlippageD",
              "type": "uint256"
            },
            {
              "internalType": "uint32",
              "name": "rewardPoolTimespan",
              "type": "uint32"
            }
          ],
          "internalType": "struct IQuickSwapVaultGovernance.StrategyParams",
          "name": "",
          "type": "tuple"
        }
      ],
      "stateMutability": "view",
      "type": "function"
    },
    {
      "inputs": [
        {
          "internalType": "bytes4",
          "name": "interfaceId",
          "type": "bytes4"
        }
      ],
      "name": "supportsInterface",
      "outputs": [
        {
          "internalType": "bool",
          "name": "",
          "type": "bool"
        }
      ],
      "stateMutability": "view",
      "type": "function"
    }
  ],
  "bytecode": {
    "object": "0x60806040523480156200001157600080fd5b5060405162001c8238038062001c8283398101604081905262000034916200018a565b805160408051808201909152600281526120ad60f11b602082015282916001600160a01b0316620000835760405162461bcd60e51b81526004016200007a919062000211565b60405180910390fd5b5060006001600160a01b031681602001516001600160a01b031614156040518060400160405280600281526020016120ad60f11b81525090620000db5760405162461bcd60e51b81526004016200007a919062000211565b506040808201518151808301909252600282526120ad60f11b60208301526001600160a01b0316620001225760405162461bcd60e51b81526004016200007a919062000211565b508051600080546001600160a01b03199081166001600160a01b039384161790915560208301516001805483169184169190911790556040909201516002805490931691161790555062000269565b6001600160a01b03811681146200018757600080fd5b50565b6000606082840312156200019d57600080fd5b604051606081016001600160401b0381118282101715620001ce57634e487b7160e01b600052604160045260246000fd5b6040528251620001de8162000171565b81526020830151620001f08162000171565b60208201526040830151620002058162000171565b60408201529392505050565b600060208083528351808285015260005b81811015620002405785810183015185820160400152820162000222565b8181111562000253576000604083870101525b50601f01601f1916929092016040019392505050565b611a0980620002796000396000f3fe608060405234801561001057600080fd5b50600436106101005760003560e01c806375d0c0dc11610097578063a0a8e46011610066578063a0a8e46014610326578063d4a07d341461032e578063de2f76a414610336578063e4af6e791461036857600080fd5b806375d0c0dc1461024b5780637ac46fbb1461026057806386c6be3e146102c05780638f34822f1461031357600080fd5b806312466b68116100d357806312466b681461017b5780631c7f4c7314610203578063511ce7981461020b5780636707acee1461022b57600080fd5b806301ffc9a71461010557806306a462391461012d57806309946538146101455780630e3e80ac1461015a575b600080fd5b610118610113366004611307565b610370565b60405190151581526020015b60405180910390f35b640312e312e360dc1b5b604051908152602001610124565b6101586101533660046113bd565b6103a1565b005b77517569636b537761705661756c74476f7665726e616e636560401b610137565b61018e61018936600461142f565b610593565b60408051825180516001600160a01b03908116835260208083015182168185015282850151821684860152606080840151818601526080938401518486015290860151821660a0850152938501511660c08301529183015160e082015291015163ffffffff1661010082015261012001610124565b600654610137565b61013761021936600461142f565b6000908152600c602052604090205490565b61013761023936600461142f565b60009081526009602052604090205490565b610253610703565b6040516101249190611495565b6102b3604080516060810182526000808252602082018190529181019190915250604080516060810182526000546001600160a01b03908116825260015481166020830152600254169181019190915290565b60405161012491906114a8565b6102b3604080516060810182526000808252602082018190529181019190915250604080516060810182526003546001600160a01b03908116825260045481166020830152600554169181019190915290565b6101586103213660046114d8565b610729565b610253610a63565b610158610a76565b610349610344366004611522565b610ba0565b604080516001600160a01b039093168352602083019190915201610124565b600f54610137565b600061037b82610c86565b80610396575063435d9fe360e01b6001600160e01b03198316145b92915050565b905090565b6103a9610cbc565b805160408051808201909152600281526120ad60f11b6020820152906001600160a01b03166103f45760405162461bcd60e51b81526004016103eb9190611495565b60405180910390fd5b5060006001600160a01b031681602001516001600160a01b031614156040518060400160405280600281526020016120ad60f11b815250906104495760405162461bcd60e51b81526004016103eb9190611495565b506040808201518151808301909252600282526120ad60f11b60208301526001600160a01b031661048d5760405162461bcd60e51b81526004016103eb9190611495565b508051600380546001600160a01b03199081166001600160a01b03938416179091556020808401516004805484169185169190911781556040808601516005805490951690861617909355600054835163bba3293960e01b8152935194169363bba3293993808301939290829003018186803b15801561050c57600080fd5b505afa158015610520573d6000803e3d6000fd5b505050506040513d601f19601f8201168201806040525081019061054491906115f6565b61054e9042611625565b6006819055604051339132917f0887cab3184f7c02b16978ab31f8acee05979f59fc3da6abe5bf71105ec3179d916105889186919061163d565b60405180910390a350565b6040805161014081018252600060a0820181815260c0830182905260e0830182905261010083018290526101208301829052825260208201819052918101829052606081018290526080810191909152600082815260106020526040902080546105fc9061167a565b151590506106595750506040805161014081018252600060a0820181815260c0830182905260e083018290526101008301829052610120830182905282526020820181905291810182905260608101829052608081019190915290565b600082815260106020526040902080546106729061167a565b80601f016020809104026020016040519081016040528092919081815260200182805461069e9061167a565b80156106eb5780601f106106c0576101008083540402835291602001916106eb565b820191906000526020600020905b8154815290600101906020018083116106ce57829003601f168201915b505050505080602001905181019061039691906116dd565b606061039c77517569636b537761705661756c74476f7665726e616e636560401b610d74565b600061073b60c0830160a084016117a3565b6001600160a01b031614156040518060400160405280600281526020016120ad60f11b8152509061077f5760405162461bcd60e51b81526004016103eb9190611495565b50600061079260e0830160c084016117a3565b6001600160a01b031614156040518060400160405280600281526020016120ad60f11b815250906107d65760405162461bcd60e51b81526004016103eb9190611495565b506040805180820190915260048152634c494d4f60e01b6020820152633b9aca0060e08301351061081a5760405162461bcd60e51b81526004016103eb9190611495565b50600061082a60208301836117a3565b6001600160a01b031614156040518060400160405280600281526020016120ad60f11b8152509061086e5760405162461bcd60e51b81526004016103eb9190611495565b50600061088160408301602084016117a3565b6001600160a01b031614156040518060400160405280600281526020016120ad60f11b815250906108c55760405162461bcd60e51b81526004016103eb9190611495565b5060006108d860608301604084016117a3565b6001600160a01b031614156040518060400160405280600281526020016120ad60f11b8152509061091c5760405162461bcd60e51b81526004016103eb9190611495565b506040805180820190915260028152612b2d60f11b602082015260608201356109585760405162461bcd60e51b81526004016103eb9190611495565b506040805180820190915260028152612b2d60f11b602082015260808201356109945760405162461bcd60e51b81526004016103eb9190611495565b5060006109a9610120830161010084016117cb565b63ffffffff1611604051806040016040528060028152602001612b2d60f11b815250906109e95760405162461bcd60e51b81526004016103eb9190611495565b50610a1382826040516020016109ff91906117e8565b604051602081830303815290604052610de0565b81336001600160a01b0316326001600160a01b03167f49ca8d21dd11eb401e8328284a7a1a5ae51c53dd810d0afde842e341debded7c84604051610a5791906117e8565b60405180910390a45050565b606061039c640312e312e360dc1b610d74565b610a7e610cbc565b6006546040805180820190915260048152631395531360e21b602082015290610aba5760405162461bcd60e51b81526004016103eb9190611495565b5060065442101560405180604001604052806002815260200161545360f01b81525090610afa5760405162461bcd60e51b81526004016103eb9190611495565b5060038054600080546001600160a01b038084166001600160a01b03199283168117845560048054600180548286169087168117909155600580546002805497821697891688179055600698909855978616909855841690559290911690925560408051918252602082019390935291820152339032907fef3e4bc9725fa684957d7de03c6dcd01078ee86cf78ceef25c5f8346df69cc999060600160405180910390a3565b6000806000610bae85610e0d565b60405163231f1a5f60e11b815291945092508391506001600160a01b0382169063463e34be90610be690859088908b906004016118e6565b600060405180830381600087803b158015610c0057600080fd5b505af1158015610c14573d6000803e3d6000fd5b5050604080516001600160a01b03881660208201523393503292507f8a4513c05d15df8ece912856923273e166e39f5c9c2b43d2b38594023494a0e0918a910160408051601f1981840301815290829052610c7592918b9088908a90611919565b60405180910390a350935093915050565b60006301ffc9a760e01b6001600160e01b03198316148061039657506001600160e01b0319821663effda0f560e01b1492915050565b600054604051630935e01b60e21b81523360048201526001600160a01b03909116906324d7806c9060240160206040518083038186803b158015610cff57600080fd5b505afa158015610d13573d6000803e3d6000fd5b505050506040513d601f19601f82011682018060405250810190610d379190611963565b6040518060400160405280600381526020016223292160e91b81525090610d715760405162461bcd60e51b81526004016103eb9190611495565b50565b604080516020808252818301909252606091602082018180368337019050509050602060005b6020811015610dd257838160208110610db557610db5611985565b1a610dc257809150610dd2565b610dcb8161199b565b9050610d9a565b508152602081019190915290565b610de982610ffe565b60008281526010602090815260409091208251610e089284019061126e565b505050565b600080546040516363e85d2d60e01b81523360048201526001602482015282916001600160a01b03169081906363e85d2d9060440160206040518083038186803b158015610e5a57600080fd5b505afa158015610e6e573d6000803e3d6000fd5b505050506040513d601f19601f82011682018060405250810190610e929190611963565b6040518060400160405280600381526020016223292160e91b81525090610ecc5760405162461bcd60e51b81526004016103eb9190611495565b5060015460408051631112eee760e31b815290516001600160a01b039092169182916388977738916004808301926020929190829003018186803b158015610f1357600080fd5b505afa158015610f27573d6000803e3d6000fd5b505050506040513d601f19601f82011682018060405250810190610f4b91906115f6565b610f56906001611625565b600254909350610f6f906001600160a01b0316846111d1565b6040516305c4fdf960e01b81526001600160a01b0380831660048301528781166024830152919550908216906305c4fdf990604401602060405180830381600087803b158015610fbe57600080fd5b505af1158015610fd2573d6000803e3d6000fd5b505050506040513d601f19601f82011682018060405250810190610ff691906115f6565b505050915091565b600054604051630935e01b60e21b81523360048201526001600160a01b03909116906324d7806c9060240160206040518083038186803b15801561104157600080fd5b505afa158015611055573d6000803e3d6000fd5b505050506040513d601f19601f820116820180604052508101906110799190611963565b80611106575060015460405163020604bf60e21b81526004810183905233916001600160a01b03169063081812fc9060240160206040518083038186803b1580156110c357600080fd5b505afa1580156110d7573d6000803e3d6000fd5b505050506040513d601f19601f820116820180604052508101906110fb91906119b6565b6001600160a01b0316145b8061119357506001546040516331a9108f60e11b81526004810183905233916001600160a01b031690636352211e9060240160206040518083038186803b15801561115057600080fd5b505afa158015611164573d6000803e3d6000fd5b505050506040513d601f19601f8201168201806040525081019061118891906119b6565b6001600160a01b0316145b6040518060400160405280600381526020016223292160e91b815250906111cd5760405162461bcd60e51b81526004016103eb9190611495565b5050565b6000763d602d80600a3d3981f3363d3d373d3d3d363d730000008360601b60e81c176000526e5af43d82803e903d91602b57fd5bf38360781b1760205281603760096000f590506001600160a01b0381166103965760405162461bcd60e51b815260206004820152601760248201527f455243313136373a2063726561746532206661696c656400000000000000000060448201526064016103eb565b82805461127a9061167a565b90600052602060002090601f01602090048101928261129c57600085556112e2565b82601f106112b557805160ff19168380011785556112e2565b828001600101855582156112e2579182015b828111156112e25782518255916020019190600101906112c7565b506112ee9291506112f2565b5090565b5b808211156112ee57600081556001016112f3565b60006020828403121561131957600080fd5b81356001600160e01b03198116811461133157600080fd5b9392505050565b634e487b7160e01b600052604160045260246000fd5b60405160a0810167ffffffffffffffff8111828210171561137157611371611338565b60405290565b604051601f8201601f1916810167ffffffffffffffff811182821017156113a0576113a0611338565b604052919050565b6001600160a01b0381168114610d7157600080fd5b6000606082840312156113cf57600080fd5b6040516060810181811067ffffffffffffffff821117156113f2576113f2611338565b6040528235611400816113a8565b81526020830135611410816113a8565b60208201526040830135611423816113a8565b60408201529392505050565b60006020828403121561144157600080fd5b5035919050565b6000815180845260005b8181101561146e57602081850181015186830182015201611452565b81811115611480576000602083870101525b50601f01601f19169290920160200192915050565b6020815260006113316020830184611448565b60608101610396828480516001600160a01b03908116835260208083015182169084015260409182015116910152565b6000808284036101408112156114ed57600080fd5b83359250610120601f198201121561150457600080fd5b506020830190509250929050565b803561151d816113a8565b919050565b60008060006060848603121561153757600080fd5b833567ffffffffffffffff8082111561154f57600080fd5b818601915086601f83011261156357600080fd5b813560208282111561157757611577611338565b8160051b9250611588818401611377565b828152928401810192818101908a8511156115a257600080fd5b948201945b848610156115cc57853593506115bc846113a8565b83825294820194908201906115a7565b97506115db9050888201611512565b9550505050506115ed60408501611512565b90509250925092565b60006020828403121561160857600080fd5b5051919050565b634e487b7160e01b600052601160045260246000fd5b600082198211156116385761163861160f565b500190565b6080810161166d828580516001600160a01b03908116835260208083015182169084015260409182015116910152565b8260608301529392505050565b600181811c9082168061168e57607f821691505b602082108114156116af57634e487b7160e01b600052602260045260246000fd5b50919050565b805161151d816113a8565b63ffffffff81168114610d7157600080fd5b805161151d816116c0565b60008183036101208112156116f157600080fd5b6116f961134e565b60a082121561170757600080fd5b61170f61134e565b9150835161171c816113a8565b8252602084015161172c816113a8565b6020830152604084015161173f816113a8565b80604084015250606084015160608301526080840151608083015281815261176960a085016116b5565b602082015261177a60c085016116b5565b604082015260e0840151606082015261179661010085016116d2565b6080820152949350505050565b6000602082840312156117b557600080fd5b8135611331816113a8565b803561151d816116c0565b6000602082840312156117dd57600080fd5b8135611331816116c0565b610120810182356117f8816113a8565b6001600160a01b039081168352602084013590611814826113a8565b908116602084015260408401359061182b826113a8565b166040830152606083810135908301526080808401359083015261185160a08401611512565b6001600160a01b031660a083015261186b60c08401611512565b6001600160a01b031660c083015260e083810135908301526101006118918185016117c0565b63ffffffff16920191909152919050565b600081518084526020808501945080840160005b838110156118db5781516001600160a01b0316875295820195908201906001016118b6565b509495945050505050565b8381526001600160a01b0383166020820152606060408201819052600090611910908301846118a2565b95945050505050565b60a08152600061192c60a08301886118a2565b828103602084015261193e8188611448565b6001600160a01b03968716604085015294909516606083015250608001529392505050565b60006020828403121561197557600080fd5b8151801515811461133157600080fd5b634e487b7160e01b600052603260045260246000fd5b60006000198214156119af576119af61160f565b5060010190565b6000602082840312156119c857600080fd5b8151611331816113a856fea264697066735822122077e3a703cac66deb37ad12b2a8f6e2a57909cbf2b8ed4525eff3f6a3664e639b64736f6c63430008090033",
    "linkReferences": {}
  },
  "methodIdentifiers": {
    "commitInternalParams()": "d4a07d34",
    "contractName()": "75d0c0dc",
    "contractNameBytes()": "0e3e80ac",
    "contractVersion()": "a0a8e460",
    "contractVersionBytes()": "06a46239",
    "createVault(address[],address,address)": "de2f76a4",
    "delayedProtocolParamsTimestamp()": "e4af6e79",
    "delayedProtocolPerVaultParamsTimestamp(uint256)": "511ce798",
    "delayedStrategyParamsTimestamp(uint256)": "6707acee",
    "internalParams()": "7ac46fbb",
    "internalParamsTimestamp()": "1c7f4c73",
    "setStrategyParams(uint256,((address,address,address,uint256,uint256),address,address,uint256,uint32))": "8f34822f",
    "stageInternalParams((address,address,address))": "09946538",
    "stagedInternalParams()": "86c6be3e",
    "strategyParams(uint256)": "12466b68",
    "supportsInterface(bytes4)": "01ffc9a7"
  },
  "id": 473
}