{
  "abi": [
    {
      "anonymous": false,
      "inputs": [
        {
          "indexed": true,
          "internalType": "address",
          "name": "owner",
          "type": "address"
        },
        {
          "indexed": true,
          "internalType": "address",
          "name": "spender",
          "type": "address"
        },
        {
          "indexed": false,
          "internalType": "uint256",
          "name": "value",
          "type": "uint256"
        }
      ],
      "name": "Approval",
      "type": "event"
    },
    {
      "anonymous": false,
      "inputs": [
        {
          "indexed": true,
          "internalType": "address",
          "name": "from",
          "type": "address"
        },
        {
          "indexed": false,
          "internalType": "address[]",
          "name": "tokens",
          "type": "address[]"
        },
        {
          "indexed": false,
          "internalType": "uint256[]",
          "name": "actualTokenAmounts",
          "type": "uint256[]"
        },
        {
          "indexed": false,
          "internalType": "uint256",
          "name": "lpTokenMinted",
          "type": "uint256"
        }
      ],
      "name": "Deposit",
      "type": "event"
    },
    {
      "anonymous": false,
      "inputs": [
        {
          "indexed": false,
          "internalType": "string",
          "name": "reason",
          "type": "string"
        }
      ],
      "name": "DepositCallbackLog",
      "type": "event"
    },
    {
      "anonymous": false,
      "inputs": [
        {
          "indexed": true,
          "internalType": "address",
          "name": "sender",
          "type": "address"
        },
        {
          "indexed": false,
          "internalType": "uint256",
          "name": "amountWithdrawnToERC20",
          "type": "uint256"
        }
      ],
      "name": "ExecutionInvoked",
      "type": "event"
    },
    {
      "anonymous": false,
      "inputs": [
        {
          "indexed": true,
          "internalType": "address",
          "name": "origin",
          "type": "address"
        },
        {
          "indexed": true,
          "internalType": "address",
          "name": "sender",
          "type": "address"
        },
        {
          "indexed": false,
          "internalType": "address[]",
          "name": "vaultTokens_",
          "type": "address[]"
        },
        {
          "indexed": false,
          "internalType": "uint256",
          "name": "nft_",
          "type": "uint256"
        }
      ],
      "name": "Initialized",
      "type": "event"
    },
    {
      "anonymous": false,
      "inputs": [
        {
          "indexed": true,
          "internalType": "address",
          "name": "treasury",
          "type": "address"
        },
        {
          "indexed": false,
          "internalType": "uint256",
          "name": "feeRate",
          "type": "uint256"
        },
        {
          "indexed": false,
          "internalType": "uint256",
          "name": "amount",
          "type": "uint256"
        }
      ],
      "name": "ManagementFeesCharged",
      "type": "event"
    },
    {
      "anonymous": false,
      "inputs": [
        {
          "indexed": true,
          "internalType": "address",
          "name": "treasury",
          "type": "address"
        },
        {
          "indexed": false,
          "internalType": "uint256",
          "name": "feeRate",
          "type": "uint256"
        },
        {
          "indexed": false,
          "internalType": "uint256",
          "name": "amount",
          "type": "uint256"
        }
      ],
      "name": "PerformanceFeesCharged",
      "type": "event"
    },
    {
      "anonymous": false,
      "inputs": [
        {
          "indexed": true,
          "internalType": "address",
          "name": "treasury",
          "type": "address"
        },
        {
          "indexed": false,
          "internalType": "uint256",
          "name": "feeRate",
          "type": "uint256"
        },
        {
          "indexed": false,
          "internalType": "uint256",
          "name": "amount",
          "type": "uint256"
        }
      ],
      "name": "ProtocolFeesCharged",
      "type": "event"
    },
    {
      "anonymous": false,
      "inputs": [
        {
          "indexed": true,
          "internalType": "address",
          "name": "from",
          "type": "address"
        },
        {
          "indexed": true,
          "internalType": "address",
          "name": "to",
          "type": "address"
        },
        {
          "indexed": false,
          "internalType": "uint256",
          "name": "value",
          "type": "uint256"
        }
      ],
      "name": "Transfer",
      "type": "event"
    },
    {
      "anonymous": false,
      "inputs": [
        {
          "indexed": true,
          "internalType": "address",
          "name": "from",
          "type": "address"
        },
        {
          "indexed": false,
          "internalType": "uint256[]",
          "name": "actualTokenAmounts",
          "type": "uint256[]"
        },
        {
          "indexed": false,
          "internalType": "uint256",
          "name": "lpTokenBurned",
          "type": "uint256"
        }
      ],
      "name": "Withdraw",
      "type": "event"
    },
    {
      "anonymous": false,
      "inputs": [
        {
          "indexed": false,
          "internalType": "string",
          "name": "reason",
          "type": "string"
        }
      ],
      "name": "WithdrawCallbackLog",
      "type": "event"
    },
    {
      "anonymous": false,
      "inputs": [
        {
          "indexed": true,
          "internalType": "address",
          "name": "sender",
          "type": "address"
        },
        {
          "indexed": false,
          "internalType": "uint256",
          "name": "lpAmountCancelled",
          "type": "uint256"
        }
      ],
      "name": "WithdrawalCancelled",
      "type": "event"
    },
    {
      "anonymous": false,
      "inputs": [
        {
          "indexed": true,
          "internalType": "address",
          "name": "sender",
          "type": "address"
        },
        {
          "indexed": false,
          "internalType": "uint256",
          "name": "lpAmountRegistered",
          "type": "uint256"
        }
      ],
      "name": "WithdrawalRegistered",
      "type": "event"
    },
    {
      "inputs": [],
      "name": "D18",
      "outputs": [
        {
          "internalType": "uint256",
          "name": "",
          "type": "uint256"
        }
      ],
      "stateMutability": "view",
      "type": "function"
    },
    {
      "inputs": [],
      "name": "DOMAIN_SEPARATOR",
      "outputs": [
        {
          "internalType": "bytes32",
          "name": "",
          "type": "bytes32"
        }
      ],
      "stateMutability": "view",
      "type": "function"
    },
    {
      "inputs": [],
      "name": "PERMIT_TYPEHASH",
      "outputs": [
        {
          "internalType": "bytes32",
          "name": "",
          "type": "bytes32"
        }
      ],
      "stateMutability": "view",
      "type": "function"
    },
    {
      "inputs": [
        {
          "internalType": "address[]",
          "name": "depositors",
          "type": "address[]"
        }
      ],
      "name": "addDepositorsToAllowlist",
      "outputs": [],
      "stateMutability": "nonpayable",
      "type": "function"
    },
    {
      "inputs": [
        {
          "internalType": "address",
          "name": "",
          "type": "address"
        },
        {
          "internalType": "address",
          "name": "",
          "type": "address"
        }
      ],
      "name": "allowance",
      "outputs": [
        {
          "internalType": "uint256",
          "name": "",
          "type": "uint256"
        }
      ],
      "stateMutability": "view",
      "type": "function"
    },
    {
      "inputs": [
        {
          "internalType": "address",
          "name": "spender",
          "type": "address"
        },
        {
          "internalType": "uint256",
          "name": "amount",
          "type": "uint256"
        }
      ],
      "name": "approve",
      "outputs": [
        {
          "internalType": "bool",
          "name": "",
          "type": "bool"
        }
      ],
      "stateMutability": "nonpayable",
      "type": "function"
    },
    {
      "inputs": [
        {
          "internalType": "address",
          "name": "",
          "type": "address"
        }
      ],
      "name": "balanceOf",
      "outputs": [
        {
          "internalType": "uint256",
          "name": "",
          "type": "uint256"
        }
      ],
      "stateMutability": "view",
      "type": "function"
    },
    {
      "inputs": [
        {
          "internalType": "uint256",
          "name": "lpTokenAmount",
          "type": "uint256"
        }
      ],
      "name": "cancelWithdrawal",
      "outputs": [
        {
          "internalType": "uint256",
          "name": "amountRemained",
          "type": "uint256"
        }
      ],
      "stateMutability": "nonpayable",
      "type": "function"
    },
    {
      "inputs": [],
      "name": "currentEpoch",
      "outputs": [
        {
          "internalType": "uint256",
          "name": "",
          "type": "uint256"
        }
      ],
      "stateMutability": "view",
      "type": "function"
    },
    {
      "inputs": [],
      "name": "decimals",
      "outputs": [
        {
          "internalType": "uint8",
          "name": "",
          "type": "uint8"
        }
      ],
      "stateMutability": "view",
      "type": "function"
    },
    {
      "inputs": [
        {
          "internalType": "uint256[]",
          "name": "tokenAmounts",
          "type": "uint256[]"
        },
        {
          "internalType": "uint256",
          "name": "minLpTokens",
          "type": "uint256"
        },
        {
          "internalType": "bytes",
          "name": "vaultOptions",
          "type": "bytes"
        }
      ],
      "name": "deposit",
      "outputs": [
        {
          "internalType": "uint256[]",
          "name": "actualTokenAmounts",
          "type": "uint256[]"
        }
      ],
      "stateMutability": "nonpayable",
      "type": "function"
    },
    {
      "inputs": [],
      "name": "depositorsAllowlist",
      "outputs": [
        {
          "internalType": "address[]",
          "name": "",
          "type": "address[]"
        }
      ],
      "stateMutability": "view",
      "type": "function"
    },
    {
      "inputs": [
        {
          "internalType": "uint256",
          "name": "",
          "type": "uint256"
        }
      ],
      "name": "epochToPriceForLpTokenD18",
      "outputs": [
        {
          "internalType": "uint256",
          "name": "",
          "type": "uint256"
        }
      ],
      "stateMutability": "view",
      "type": "function"
    },
    {
      "inputs": [],
      "name": "erc20Vault",
      "outputs": [
        {
          "internalType": "contract IIntegrationVault",
          "name": "",
          "type": "address"
        }
      ],
      "stateMutability": "view",
      "type": "function"
    },
    {
      "inputs": [],
      "name": "gearboxVault",
      "outputs": [
        {
          "internalType": "contract IIntegrationVault",
          "name": "",
          "type": "address"
        }
      ],
      "stateMutability": "view",
      "type": "function"
    },
    {
      "inputs": [
        {
          "internalType": "uint256",
          "name": "nft_",
          "type": "uint256"
        }
      ],
      "name": "hasSubvault",
      "outputs": [
        {
          "internalType": "bool",
          "name": "",
          "type": "bool"
        }
      ],
      "stateMutability": "view",
      "type": "function"
    },
    {
      "inputs": [
        {
          "internalType": "uint256",
          "name": "nft_",
          "type": "uint256"
        },
        {
          "internalType": "address[]",
          "name": "vaultTokens_",
          "type": "address[]"
        },
        {
          "internalType": "address",
          "name": "strategy_",
          "type": "address"
        },
        {
          "internalType": "uint256[]",
          "name": "subvaultNfts_",
          "type": "uint256[]"
        },
        {
          "internalType": "address",
          "name": "",
          "type": "address"
        }
      ],
      "name": "initialize",
      "outputs": [],
      "stateMutability": "nonpayable",
      "type": "function"
    },
    {
      "inputs": [],
      "name": "initialized",
      "outputs": [
        {
          "internalType": "bool",
          "name": "",
          "type": "bool"
        }
      ],
      "stateMutability": "view",
      "type": "function"
    },
    {
      "inputs": [],
      "name": "invokeExecution",
      "outputs": [],
      "stateMutability": "nonpayable",
      "type": "function"
    },
    {
      "inputs": [],
      "name": "isClosed",
      "outputs": [
        {
          "internalType": "bool",
          "name": "",
          "type": "bool"
        }
      ],
      "stateMutability": "view",
      "type": "function"
    },
    {
      "inputs": [
        {
          "internalType": "address",
          "name": "token",
          "type": "address"
        }
      ],
      "name": "isVaultToken",
      "outputs": [
        {
          "internalType": "bool",
          "name": "",
          "type": "bool"
        }
      ],
      "stateMutability": "view",
      "type": "function"
    },
    {
      "inputs": [],
      "name": "lastEpochChangeTimestamp",
      "outputs": [
        {
          "internalType": "uint256",
          "name": "",
          "type": "uint256"
        }
      ],
      "stateMutability": "view",
      "type": "function"
    },
    {
      "inputs": [],
      "name": "lastFeeCharge",
      "outputs": [
        {
          "internalType": "uint64",
          "name": "",
          "type": "uint64"
        }
      ],
      "stateMutability": "view",
      "type": "function"
    },
    {
      "inputs": [
        {
          "internalType": "address",
          "name": "",
          "type": "address"
        }
      ],
      "name": "latestRequestEpoch",
      "outputs": [
        {
          "internalType": "uint256",
          "name": "",
          "type": "uint256"
        }
      ],
      "stateMutability": "view",
      "type": "function"
    },
    {
      "inputs": [],
      "name": "lpPriceHighWaterMarkD18",
      "outputs": [
        {
          "internalType": "uint256",
          "name": "",
          "type": "uint256"
        }
      ],
      "stateMutability": "view",
      "type": "function"
    },
    {
      "inputs": [
        {
          "internalType": "address",
          "name": "",
          "type": "address"
        }
      ],
      "name": "lpTokensWaitingForClaim",
      "outputs": [
        {
          "internalType": "uint256",
          "name": "",
          "type": "uint256"
        }
      ],
      "stateMutability": "view",
      "type": "function"
    },
    {
      "inputs": [],
      "name": "name",
      "outputs": [
        {
          "internalType": "string",
          "name": "",
          "type": "string"
        }
      ],
      "stateMutability": "view",
      "type": "function"
    },
    {
      "inputs": [],
      "name": "nft",
      "outputs": [
        {
          "internalType": "uint256",
          "name": "",
          "type": "uint256"
        }
      ],
      "stateMutability": "view",
      "type": "function"
    },
    {
      "inputs": [
        {
          "internalType": "address",
          "name": "",
          "type": "address"
        }
      ],
      "name": "nonces",
      "outputs": [
        {
          "internalType": "uint256",
          "name": "",
          "type": "uint256"
        }
      ],
      "stateMutability": "view",
      "type": "function"
    },
    {
      "inputs": [
        {
          "internalType": "address",
          "name": "owner",
          "type": "address"
        },
        {
          "internalType": "address",
          "name": "spender",
          "type": "address"
        },
        {
          "internalType": "uint256",
          "name": "value",
          "type": "uint256"
        },
        {
          "internalType": "uint256",
          "name": "deadline",
          "type": "uint256"
        },
        {
          "internalType": "uint8",
          "name": "v",
          "type": "uint8"
        },
        {
          "internalType": "bytes32",
          "name": "r",
          "type": "bytes32"
        },
        {
          "internalType": "bytes32",
          "name": "s",
          "type": "bytes32"
        }
      ],
      "name": "permit",
      "outputs": [],
      "stateMutability": "nonpayable",
      "type": "function"
    },
    {
      "inputs": [],
      "name": "primaryToken",
      "outputs": [
        {
          "internalType": "address",
          "name": "",
          "type": "address"
        }
      ],
      "stateMutability": "view",
      "type": "function"
    },
    {
      "inputs": [
        {
          "internalType": "address",
          "name": "",
          "type": "address"
        }
      ],
      "name": "primaryTokensToClaim",
      "outputs": [
        {
          "internalType": "uint256",
          "name": "",
          "type": "uint256"
        }
      ],
      "stateMutability": "view",
      "type": "function"
    },
    {
      "inputs": [],
      "name": "pullExistentials",
      "outputs": [
        {
          "internalType": "uint256[]",
          "name": "",
          "type": "uint256[]"
        }
      ],
      "stateMutability": "view",
      "type": "function"
    },
    {
      "inputs": [
        {
          "internalType": "uint256",
          "name": "lpTokenAmount",
          "type": "uint256"
        }
      ],
      "name": "registerWithdrawal",
      "outputs": [
        {
          "internalType": "uint256",
          "name": "amountRegistered",
          "type": "uint256"
        }
      ],
      "stateMutability": "nonpayable",
      "type": "function"
    },
    {
      "inputs": [
        {
          "internalType": "address[]",
          "name": "depositors",
          "type": "address[]"
        }
      ],
      "name": "removeDepositorsFromAllowlist",
      "outputs": [],
      "stateMutability": "nonpayable",
      "type": "function"
    },
    {
      "inputs": [],
      "name": "reopen",
      "outputs": [],
      "stateMutability": "nonpayable",
      "type": "function"
    },
    {
      "inputs": [],
      "name": "shutdown",
      "outputs": [],
      "stateMutability": "nonpayable",
      "type": "function"
    },
    {
      "inputs": [
        {
          "internalType": "uint256",
          "name": "index",
          "type": "uint256"
        }
      ],
      "name": "subvaultAt",
      "outputs": [
        {
          "internalType": "address",
          "name": "",
          "type": "address"
        }
      ],
      "stateMutability": "view",
      "type": "function"
    },
    {
      "inputs": [],
      "name": "subvaultNfts",
      "outputs": [
        {
          "internalType": "uint256[]",
          "name": "",
          "type": "uint256[]"
        }
      ],
      "stateMutability": "view",
      "type": "function"
    },
    {
      "inputs": [
        {
          "internalType": "uint256",
          "name": "nft_",
          "type": "uint256"
        }
      ],
      "name": "subvaultOneBasedIndex",
      "outputs": [
        {
          "internalType": "uint256",
          "name": "",
          "type": "uint256"
        }
      ],
      "stateMutability": "view",
      "type": "function"
    },
    {
      "inputs": [
        {
          "internalType": "bytes4",
          "name": "interfaceId",
          "type": "bytes4"
        }
      ],
      "name": "supportsInterface",
      "outputs": [
        {
          "internalType": "bool",
          "name": "",
          "type": "bool"
        }
      ],
      "stateMutability": "view",
      "type": "function"
    },
    {
      "inputs": [],
      "name": "symbol",
      "outputs": [
        {
          "internalType": "string",
          "name": "",
          "type": "string"
        }
      ],
      "stateMutability": "view",
      "type": "function"
    },
    {
      "inputs": [],
      "name": "totalCurrentEpochLpWitdrawalRequests",
      "outputs": [
        {
          "internalType": "uint256",
          "name": "",
          "type": "uint256"
        }
      ],
      "stateMutability": "view",
      "type": "function"
    },
    {
      "inputs": [],
      "name": "totalLpTokensWaitingWithdrawal",
      "outputs": [
        {
          "internalType": "uint256",
          "name": "",
          "type": "uint256"
        }
      ],
      "stateMutability": "view",
      "type": "function"
    },
    {
      "inputs": [],
      "name": "totalSupply",
      "outputs": [
        {
          "internalType": "uint256",
          "name": "",
          "type": "uint256"
        }
      ],
      "stateMutability": "view",
      "type": "function"
    },
    {
      "inputs": [
        {
          "internalType": "address",
          "name": "to",
          "type": "address"
        },
        {
          "internalType": "uint256",
          "name": "amount",
          "type": "uint256"
        }
      ],
      "name": "transfer",
      "outputs": [
        {
          "internalType": "bool",
          "name": "",
          "type": "bool"
        }
      ],
      "stateMutability": "nonpayable",
      "type": "function"
    },
    {
      "inputs": [
        {
          "internalType": "address",
          "name": "from",
          "type": "address"
        },
        {
          "internalType": "address",
          "name": "to",
          "type": "address"
        },
        {
          "internalType": "uint256",
          "name": "amount",
          "type": "uint256"
        }
      ],
      "name": "transferFrom",
      "outputs": [
        {
          "internalType": "bool",
          "name": "",
          "type": "bool"
        }
      ],
      "stateMutability": "nonpayable",
      "type": "function"
    },
    {
      "inputs": [],
      "name": "tvl",
      "outputs": [
        {
          "internalType": "uint256[]",
          "name": "minTokenAmounts",
          "type": "uint256[]"
        },
        {
          "internalType": "uint256[]",
          "name": "maxTokenAmounts",
          "type": "uint256[]"
        }
      ],
      "stateMutability": "view",
      "type": "function"
    },
    {
      "inputs": [],
      "name": "vaultGovernance",
      "outputs": [
        {
          "internalType": "contract IVaultGovernance",
          "name": "",
          "type": "address"
        }
      ],
      "stateMutability": "view",
      "type": "function"
    },
    {
      "inputs": [],
      "name": "vaultTokens",
      "outputs": [
        {
          "internalType": "address[]",
          "name": "",
          "type": "address[]"
        }
      ],
      "stateMutability": "view",
      "type": "function"
    },
    {
      "inputs": [
        {
          "internalType": "address",
          "name": "to",
          "type": "address"
        },
        {
          "internalType": "bytes[]",
          "name": "vaultsOptions",
          "type": "bytes[]"
        }
      ],
      "name": "withdraw",
      "outputs": [
        {
          "internalType": "uint256[]",
          "name": "actualTokenAmounts",
          "type": "uint256[]"
        }
      ],
      "stateMutability": "nonpayable",
      "type": "function"
    },
    {
      "inputs": [
        {
          "internalType": "address",
          "name": "",
          "type": "address"
        }
      ],
      "name": "withdrawalRequests",
      "outputs": [
        {
          "internalType": "uint256",
          "name": "",
          "type": "uint256"
        }
      ],
      "stateMutability": "view",
      "type": "function"
    }
  ],
  "bytecode": {
    "object": "0x60a060405234801561001057600080fd5b50466080526001600755600019600b55608051615ac16200003c6000396000610adf0152615ac16000f3fe608060405234801561001057600080fd5b506004361061030c5760003560e01c806370a082311161019d578063c2b6b58c116100e9578063dd62ed3e116100a2578063e3f5aeb91161007c578063e3f5aeb91461072d578063e5328e061461073c578063fc0e74d114610752578063fe255a5e1461075a57600080fd5b8063dd62ed3e146106cf578063e273d23e146106fa578063e2fd41991461070d57600080fd5b8063c2b6b58c14610670578063c8045c8814610684578063ccc108d71461068c578063d2c219b014610694578063d505accf1461069c578063dccc5573146106af57600080fd5b806395d89b41116101565780639ddc875f116101305780639ddc875f14610615578063a09eb0e714610635578063a6eea12a1461063d578063a9059cbb1461065d57600080fd5b806395d89b41146105d85780639bd0911b146105e05780639d9fd0d9146105f357600080fd5b806370a08231146105615780637667180814610581578063791839731461058a5780637ecebe001461059257806391ac094c146105b257806391b7ab47146105c557600080fd5b8063313ce5671161025c57806346dd883d1161021557806354a3f474116101ef57806354a3f4741461050457806369722233146105175780636a72a8041461052c5780636d3726391461054157600080fd5b806346dd883d146104d657806347ccca02146104e95780634c24c68b146104f157600080fd5b8063313ce56714610442578063338c4ccb1461045c578063342d84ae146104875780633644e515146104905780633da7463f146104985780633efcfda4146104c357600080fd5b806318160ddd116102c957806324004a66116102a357806324004a66146103e957806326351fa2146103f257806327b380f3146103fb57806330adf81f1461041b57600080fd5b806318160ddd146103ad5780631afd1b71146103b657806323b872dd146103d657600080fd5b806301ffc9a71461031157806306fdde0314610339578063090f92211461034e578063095ea7b314610379578063158ef93e1461038c5780631806080c14610396575b600080fd5b61032461031f366004614a64565b61076b565b60405190151581526020015b60405180910390f35b610341610797565b6040516103309190614ae6565b601454610361906001600160a01b031681565b6040516001600160a01b039091168152602001610330565b610324610387366004614b21565b610825565b600b541515610324565b61039f601e5481565b604051908152602001610330565b61039f60025481565b6103c96103c4366004614c92565b610891565b6040516103309190614d97565b6103246103e4366004614daa565b610a01565b61039f60105481565b61039f601c5481565b61039f610409366004614deb565b60196020526000908152604090205481565b61039f7f6e71edae12b1b97f4d1f60370fef10105fa2faae0126114a169c64845d6126c981565b61044a601281565b60405160ff9091168152602001610330565b61032461046a366004614deb565b6001600160a01b03166000908152600a6020526040902054151590565b61039f601d5481565b61039f610adb565b600f546104ab906001600160401b031681565b6040516001600160401b039091168152602001610330565b61039f6104d1366004614e08565b610b18565b601354610361906001600160a01b031681565b600b5461039f565b61039f6104ff366004614e08565b610c75565b6103c9610512366004614e87565b610dce565b61051f6114b3565b6040516103309190614f2c565b61053f61053a366004614f3f565b611515565b005b61039f61054f366004614e08565b601b6020526000908152604090205481565b61039f61056f366004614deb565b60006020819052908152604090205481565b61039f60165481565b6103c961174a565b61039f6105a0366004614deb565b60066020526000908152604090205481565b601554610361906001600160a01b031681565b61053f6105d336600461502e565b6117a1565b6103416117fe565b6103616105ee366004614e08565b61180b565b610324610601366004614e08565b6000908152600e6020526040902054151590565b61039f610623366004614e08565b6000908152600e602052604090205490565b61051f611931565b61039f61064b366004614deb565b60186020526000908152604090205481565b61032461066b366004614b21565b61193d565b60155461032490600160a01b900460ff1681565b61053f6119a0565b61053f611d74565b6103c9611d8b565b61053f6106aa3660046150b1565b611de1565b61039f6106bd366004614deb565b60176020526000908152604090205481565b61039f6106dd366004615122565b600160209081526000928352604080842090915290825290205481565b61053f61070836600461502e565b61202e565b61039f61071b366004614deb565b601a6020526000908152604090205481565b61039f670de0b6b3a764000081565b610744612086565b60405161033092919061515b565b61053f6124c8565b6008546001600160a01b0316610361565b600061077682612534565b80610791575063d628a7b960e01b6001600160e01b03198316145b92915050565b600380546107a490615189565b80601f01602080910402602001604051908101604052809291908181526020018280546107d090615189565b801561081d5780601f106107f25761010080835404028352916020019161081d565b820191906000526020600020905b81548152906001019060200180831161080057829003601f168201915b505050505081565b3360008181526001602090815260408083206001600160a01b038716808552925280832085905551919290917f8c5be1e5ebec7d5bd14f71427d1e84f3dd0314c0f7b2291e5b200ac8c7c3b925906108809086815260200190565b60405180910390a350600192915050565b606061089b612554565b336000908152601a602052604090205460165481148015906108bc57508015155b156108cc576108cc3360016125ae565b33600090815260186020908152604080832054601783528184205482516001808252818501909452919490939092908281019080368337019050509050818160008151811061091d5761091d6151c4565b6020026020010181815250506109333384612688565b61093e3082886126f2565b33600090815260186020908152604080832083905560179091528120819055601d805492975085929091906109749084906151f0565b925050819055506109b08786600081518110610992576109926151c4565b60209081029190910101516015546001600160a01b03169190612e70565b336001600160a01b03167fdc773daa5d6fcbffbef2cd461d3835a6ae3e00d1acd48364d883301acd1c3c4a86856040516109eb929190615207565b60405180910390a2505050506107916001600755565b6001600160a01b03831660009081526001602090815260408083203384529091528120546000198114610a5d57610a3883826151f0565b6001600160a01b03861660009081526001602090815260408083203384529091529020555b6001600160a01b03851660009081526020819052604081208054859290610a859084906151f0565b90915550506001600160a01b038481166000818152602081815260409182902080548801905590518681529192881691600080516020615a6c833981519152910160405180910390a360019150505b9392505050565b60007f00000000000000000000000000000000000000000000000000000000000000004614610b1157610b0c612ed3565b905090565b5060055490565b601654336000908152601a60209081526040808320548151808301909252600382526244495360e81b92820192909252919214610b715760405162461bcd60e51b8152600401610b689190614ae6565b60405180910390fd5b503360009081526019602052604090205482811115610c01573360009081526019602052604081208054859290610ba99084906151f0565b9250508190555082601c6000828254610bc291906151f0565b909155505060405183815233907f2eed97477f07c07ec48f8f678f4e84f7c0de55bf33f51c3dc989b133530803199060200160405180910390a2610c5e565b80601c6000828254610c1391906151f0565b909155505060405181815233907f2eed97477f07c07ec48f8f678f4e84f7c0de55bf33f51c3dc989b133530803199060200160405180910390a2336000908152601960205260408120555b505033600090815260196020526040902054919050565b336000908152601a6020526040812054601654811480610c93575080155b15610d1b5733600090815260196020908152604080832054601883528184205492849052908320549091610cc6916151f0565b610cd091906151f0565b905080841115610cde578093505b3360009081526019602052604081208054869290610cfd908490615229565b9091555050601654336000908152601a602052604090205550610d7b565b610d263360006125ae565b3360009081526018602090815260408083205491839052822054610d4a91906151f0565b905080841115610d58578093505b50336000908152601960209081526040808320869055601654601a909252909120555b82601c6000828254610d8d9190615229565b909155505060405183815233907f655c1cd0236fb6dc4916f34c8ff10e3b18fcaea5b344dfc16c36fbb1bdfc5df29060200160405180910390a25090919050565b6060610dd8612554565b60085484516040805180820190915260048152631253959360e21b60208201526001600160a01b039092169190600114610e255760405162461bcd60e51b8152600401610b689190614ae6565b50806001600160a01b031663db2030aa6040518163ffffffff1660e01b815260040160206040518083038186803b158015610e5f57600080fd5b505afa158015610e73573d6000803e3d6000fd5b505050506040513d601f19601f82011682018060405250810190610e979190615251565b5160408051808201909152600381526223292160e91b60208201529015610ed15760405162461bcd60e51b8152600401610b689190614ae6565b5060155460408051808201909152600381526223292160e91b602082015290600160a01b900460ff1615610f185760405162461bcd60e51b8152600401610b689190614ae6565b50600b54600254611011576000600c600081548110610f3957610f396151c4565b9060005260206000200154905080600a610f53919061527d565b87600081518110610f6657610f666151c4565b60200260200101511015604051806040016040528060048152602001634c494d5560e01b81525090610fab5760405162461bcd60e51b8152600401610b689190614ae6565b50610fb6818061527d565b87600081518110610fc957610fc96151c4565b60200260200101511115604051806040016040528060048152602001634c494d4f60e01b8152509061100e5760405162461bcd60e51b8152600401610b689190614ae6565b50505b60405163110c1a4960e31b8152600481018290526000906001600160a01b03841690638860d2489060240160e06040518083038186803b15801561105457600080fd5b505afa158015611068573d6000803e3d6000fd5b505050506040513d601f19601f8201168201806040525081019061108c91906152a7565b9050806040015115806110a557506110a5601133612f6d565b6040518060400160405280600381526020016223292160e91b815250906110df5760405162461bcd60e51b8152600401610b689190614ae6565b5060135460408051637299470360e11b815290516000926001600160a01b03169163e5328e069160048083019286929190829003018186803b15801561112457600080fd5b505afa158015611138573d6000803e3d6000fd5b505050506040513d6000823e601f3d908101601f1916820160405261116091908101906153ab565b509050611197838260008151811061117a5761117a6151c4565b6020026020010151601d5460025461119291906151f0565b612f8f565b6000601d546002546111a991906151f0565b90506000816111d457896000815181106111c5576111c56151c4565b60200260200101519050611246565b6000836000815181106111e9576111e96151c4565b60200260200101519050611218838c60008151811061120a5761120a6151c4565b602002602001015183613281565b9150611225818385613281565b8b600081518110611238576112386151c4565b602002602001018181525050505b6040805180820190915260048152634c494d5560e01b6020820152898210156112825760405162461bcd60e51b8152600401610b689190614ae6565b506040805180820190915260028152612b2d60f11b6020820152816112ba5760405162461bcd60e51b8152600401610b689190614ae6565b50604051630248cd6d60e31b8152600481018690526000906001600160a01b038816906312466b6890602401604080518083038186803b1580156112fd57600080fd5b505afa158015611311573d6000803e3d6000fd5b505050506040513d601f19601f82011682018060405250810190611335919061540e565b805133600090815260208190526040902054919250906113559084615229565b1115604051806040016040528060048152602001634c494d4f60e01b815250906113925760405162461bcd60e51b8152600401610b689190614ae6565b5060208101516113a28484615229565b1115604051806040016040528060048152602001634c494d4f60e01b815250906113df5760405162461bcd60e51b8152600401610b689190614ae6565b5061141733308d6000815181106113f8576113f86151c4565b60209081029190910101516015546001600160a01b0316929190613334565b8261142c57611427600083613372565b611436565b6114363383613372565b61145a8b60008151811061144c5761144c6151c4565b60200260200101518a6133c2565b9750336001600160a01b03167f8a0e0d2e597a2c18e7266d384fcd37c696485c4f2d04f8f90cebe3cf9453a15b60098a8560405161149a9392919061547e565b60405180910390a250505050505050610ad46001600755565b6060600980548060200260200160405190810160405280929190818152602001828054801561150b57602002820191906000526020600020905b81546001600160a01b031681526001909101906020018083116114ed575b5050505050905090565b8351600114604051806040016040528060048152602001631253959360e21b815250906115555760405162461bcd60e51b8152600401610b689190614ae6565b5061156284868585613515565b6115c16115976040518060400160405280601081526020016f026b2b63637bb902638102a37b5b2b7160851b815250876137e1565b6115bc6040518060400160405280600381526020016204d4c560ec1b815250886137e1565b61381b565b604051639bd0911b60e01b8152600060048201523090639bd0911b9060240160206040518083038186803b1580156115f857600080fd5b505afa15801561160c573d6000803e3d6000fd5b505050506040513d601f19601f8201168201806040525081019061163091906154b4565b601480546001600160a01b0319166001600160a01b0392909216919091179055604051639bd0911b60e01b8152600160048201523090639bd0911b9060240160206040518083038186803b15801561168757600080fd5b505afa15801561169b573d6000803e3d6000fd5b505050506040513d601f19601f820116820180604052508101906116bf91906154b4565b601360006101000a8154816001600160a01b0302191690836001600160a01b03160217905550836000815181106116f8576116f86151c4565b6020908102919091010151601580546001600160a01b0319166001600160a01b03909216919091179055505060016016555050600f805467ffffffffffffffff1916426001600160401b031617905550565b6060600d80548060200260200160405190810160405280929190818152602001828054801561150b57602002820191906000526020600020905b815481526020019060010190808311611784575050505050905090565b6117a9613852565b60005b818110156117f9576117e68383838181106117c9576117c96151c4565b90506020020160208101906117de9190614deb565b601190613aa5565b50806117f1816154d1565b9150506117ac565b505050565b600480546107a490615189565b600080600d8381548110611821576118216151c4565b90600052602060002001549050600860009054906101000a90046001600160a01b03166001600160a01b0316637ac46fbb6040518163ffffffff1660e01b815260040160606040518083038186803b15801561187c57600080fd5b505afa158015611890573d6000803e3d6000fd5b505050506040513d601f19601f820116820180604052508101906118b491906154ec565b60200151604051639c94d85360e01b8152600481018390526001600160a01b0390911690639c94d8539060240160206040518083038186803b1580156118f957600080fd5b505afa15801561190d573d6000803e3d6000fd5b505050506040513d601f19601f82011682018060405250810190610ad491906154b4565b6060610b0c6011613aba565b3360009081526020819052604081208054839190839061195e9084906151f0565b90915550506001600160a01b0383166000818152602081815260409182902080548601905590518481523391600080516020615a6c8339815191529101610880565b6119a8613852565b60135460408051637f12ad2f60e11b815290516001600160a01b0390921691600091839163fe255a5e91600480820192602092909190829003018186803b1580156119f257600080fd5b505afa158015611a06573d6000803e3d6000fd5b505050506040513d601f19601f82011682018060405250810190611a2a91906154b4565b90506000816001600160a01b031663d34cc3806040518163ffffffff1660e01b81526004016101206040518083038186803b158015611a6857600080fd5b505afa158015611a7c573d6000803e3d6000fd5b505050506040513d601f19601f82011682018060405250810190611aa0919061556f565b6000015190504281601e54611ab59190615229565b111580611acb5750601554600160a01b900460ff165b60405180604001604052806004815260200163494e564160e01b81525090611b065760405162461bcd60e51b8152600401610b689190614ae6565b5042601e819055506000836001600160a01b031663e5328e066040518163ffffffff1660e01b815260040160006040518083038186803b158015611b4957600080fd5b505afa158015611b5d573d6000803e3d6000fd5b505050506040513d6000823e601f3d908101601f19168201604052611b8591908101906153ab565b509050611ba1600b548260008151811061117a5761117a6151c4565b6000601c5490506000611bde8284600081518110611bc157611bc16151c4565b6020026020010151601d54600254611bd991906151f0565b613281565b60408051600180825281830190925291925060009190602080830190803683370190505090508181600081518110611c1857611c186151c4565b6020908102919091010152601454604051630818b5d560e21b81526000916001600160a01b03808b1692632062d75492611c5b9216906009908790600401615609565b600060405180830381600087803b158015611c7557600080fd5b505af1158015611c89573d6000803e3d6000fd5b505050506040513d6000823e601f3d908101601f19168201604052611cb1919081019061565b565b905080600081518110611cc657611cc66151c4565b602002602001015192506000841115611d1d5783601d6000828254611ceb9190615229565b90915550611d04905083670de0b6b3a764000086613281565b6016546000908152601b6020526040812091909155601c555b600160166000828254611d309190615229565b909155505060405183815233907f44fe1a5ee6786d190329355e1c261d153bebf67daea98d80b04da38f6796bd3a9060200160405180910390a25050505050505050565b611d7c613852565b6015805460ff60a01b19169055565b6060600c80548060200260200160405190810160405280929190818152602001828054801561150b5760200282019190600052602060002090815481526020019060010190808311611784575050505050905090565b604080518082019091526002815261545360f01b602082015242851015611e1b5760405162461bcd60e51b8152600401610b689190614ae6565b506000611e26610adb565b6001600160a01b038981166000818152600660209081526040918290205482517f6e71edae12b1b97f4d1f60370fef10105fa2faae0126114a169c64845d6126c98184015280840194909452938c166060840152608083018b905260a083019390935260c08083018a90528151808403909101815260e08301909152805192019190912061190160f01b6101008301526101028201929092526101228101919091526101420160408051808303601f1901815282825280516020918201206001600160a01b038c166000908152600683528381208054600190810190915581865292850180855282905260ff89169385019390935260608401879052608084018690529350909160a0016020604051602081039080840390855afa158015611f52573d6000803e3d6000fd5b5050604051601f1901519150506001600160a01b03811615801590611f885750886001600160a01b0316816001600160a01b0316145b6040518060400160405280600381526020016223292160e91b81525090611fc25760405162461bcd60e51b8152600401610b689190614ae6565b506001600160a01b0390811660009081526001602090815260408083208b8516808552908352928190208a905551898152919350918a16917f8c5be1e5ebec7d5bd14f71427d1e84f3dd0314c0f7b2291e5b200ac8c7c3b925910160405180910390a350505050505050565b612036613852565b60005b818110156117f957612073838383818110612056576120566151c4565b905060200201602081019061206b9190614deb565b601190613ac7565b508061207e816154d1565b915050612039565b6060806000600860009054906101000a90046001600160a01b03166001600160a01b0316637ac46fbb6040518163ffffffff1660e01b815260040160606040518083038186803b1580156120d957600080fd5b505afa1580156120ed573d6000803e3d6000fd5b505050506040513d601f19601f8201168201806040525081019061211191906154ec565b6020015190506000600980548060200260200160405190810160405280929190818152602001828054801561216f57602002820191906000526020600020905b81546001600160a01b03168152600190910190602001808311612151575b5050505050905080516001600160401b0381111561218f5761218f614b4d565b6040519080825280602002602001820160405280156121b8578160200160208202803683370190505b50935080516001600160401b038111156121d4576121d4614b4d565b6040519080825280602002602001820160405280156121fd578160200160208202803683370190505b50925060005b600d548110156124c1576000836001600160a01b0316639c94d853600d8481548110612231576122316151c4565b90600052602060002001546040518263ffffffff1660e01b815260040161225a91815260200190565b60206040518083038186803b15801561227257600080fd5b505afa158015612286573d6000803e3d6000fd5b505050506040513d601f19601f820116820180604052508101906122aa91906154b4565b9050600080826001600160a01b031663e5328e066040518163ffffffff1660e01b815260040160006040518083038186803b1580156122e857600080fd5b505afa1580156122fc573d6000803e3d6000fd5b505050506040513d6000823e601f3d908101601f1916820160405261232491908101906153ab565b915091506000836001600160a01b031663697222336040518163ffffffff1660e01b815260040160006040518083038186803b15801561236357600080fd5b505afa158015612377573d6000803e3d6000fd5b505050506040513d6000823e601f3d908101601f1916820160405261239f919081019061568f565b90506000805b8751811080156123b55750825182105b156124aa578781815181106123cc576123cc6151c4565b60200260200101516001600160a01b03168383815181106123ef576123ef6151c4565b60200260200101516001600160a01b0316141561249a57848281518110612418576124186151c4565b60200260200101518b8281518110612432576124326151c4565b602002602001018181516124469190615229565b905250835184908390811061245d5761245d6151c4565b60200260200101518a8281518110612477576124776151c4565b6020026020010181815161248b9190615229565b905250612497826154d1565b91505b6124a3816154d1565b90506123a5565b505050505050806124ba906154d1565b9050612203565b5050509091565b6124d0613852565b60155460408051808201909152600381526204455560ec1b602082015290600160a01b900460ff16156125165760405162461bcd60e51b8152600401610b689190614ae6565b506015805460ff60a01b1916600160a01b1790556125326119a0565b565b600061253f82613adc565b806107915750506001600160e01b0319161590565b600260075414156125a75760405162461bcd60e51b815260206004820152601f60248201527f5265656e7472616e637947756172643a207265656e7472616e742063616c6c006044820152606401610b68565b6002600755565b6001600160a01b038216600090815260196020908152604080832054601a835281842054808552601b909352908320549092906125f5908490670de0b6b3a7640000613281565b6001600160a01b038616600090815260176020526040812080549293508392909190612622908490615229565b90915550506001600160a01b0385166000908152601860205260408120805485929061264f908490615229565b90915550508315612681576001600160a01b0385166000908152601960209081526040808320839055601a9091528120555b5050505050565b6001600160a01b038216600090815260208190526040812080548392906126b09084906151f0565b90915550506002805482900390556040518181526000906001600160a01b03841690600080516020615a6c833981519152906020015b60405180910390a35050565b600b546040805180820190915260048152631253925560e21b60208201526060916127305760405162461bcd60e51b8152600401610b689190614ae6565b50600d5482516040805180820190915260048152631253959360e21b602082015291146127705760405162461bcd60e51b8152600401610b689190614ae6565b5060085460408051637ac46fbb60e01b815290516000926001600160a01b031691637ac46fbb916004808301926060929190829003018186803b1580156127b657600080fd5b505afa1580156127ca573d6000803e3d6000fd5b505050506040513d601f19601f820116820180604052508101906127ee91906154ec565b60200151905083516001600160401b0381111561280d5761280d614b4d565b604051908082528060200260200182016040528015612836578160200160208202803683370190505b5091506000600980548060200260200160405190810160405280929190818152602001828054801561289157602002820191906000526020600020905b81546001600160a01b03168152600190910190602001808311612873575b505050505090506000600c8054806020026020016040519081016040528092919081815260200182805480156128e657602002820191906000526020600020905b8154815260200190600101908083116128d2575b50505050509050600086516001600160401b0381111561290857612908614b4d565b604051908082528060200260200182016040528015612931578160200160208202803683370190505b50905060005b835181101561298957878181518110612952576129526151c4565b602002602001015182828151811061296c5761296c6151c4565b602090810291909101015280612981816154d1565b915050612937565b5060005b600d54811015612beb576000600d82815481106129ac576129ac6151c4565b6000918252602082200154604051639c94d85360e01b8152600481018290529092506001600160a01b03881690639c94d8539060240160206040518083038186803b1580156129fa57600080fd5b505afa158015612a0e573d6000803e3d6000fd5b505050506040513d601f19601f82011682018060405250810190612a3291906154b4565b90506000816001600160a01b0316632062d7543089888e8981518110612a5a57612a5a6151c4565b60200260200101516040518563ffffffff1660e01b8152600401612a81949392919061571d565b600060405180830381600087803b158015612a9b57600080fd5b505af1158015612aaf573d6000803e3d6000fd5b505050506040513d6000823e601f3d908101601f19168201604052612ad7919081019061565b565b9050600160005b8851811015612bc457878181518110612af957612af96151c4565b6020026020010151838281518110612b1357612b136151c4565b6020026020010151612b259190615229565b878281518110612b3757612b376151c4565b60200260200101511115612b915760009150828181518110612b5b57612b5b6151c4565b6020026020010151878281518110612b7557612b756151c4565b60200260200101818151612b8991906151f0565b905250612bb2565b6000878281518110612ba557612ba56151c4565b6020026020010181815250505b80612bbc816154d1565b915050612ade565b508015612bd45750505050612beb565b505050508080612be3906154d1565b91505061298d565b506000846001600160a01b0316639c94d853600d600081548110612c1157612c116151c4565b90600052602060002001546040518263ffffffff1660e01b8152600401612c3a91815260200190565b60206040518083038186803b158015612c5257600080fd5b505afa158015612c66573d6000803e3d6000fd5b505050506040513d601f19601f82011682018060405250810190612c8a91906154b4565b905060005b8451811015612e63576000858281518110612cac57612cac6151c4565b60209081029190910101516040516370a0823160e01b81523060048201526001600160a01b03909116906370a082319060240160206040518083038186803b158015612cf757600080fd5b505afa158015612d0b573d6000803e3d6000fd5b505050506040513d601f19601f82011682018060405250810190612d2f9190615767565b9050808a8381518110612d4457612d446151c4565b60200260200101511015612e1a57898281518110612d6457612d646151c4565b6020026020010151888381518110612d7e57612d7e6151c4565b602002602001018181525050612dda8b8b8481518110612da057612da06151c4565b6020026020010151888581518110612dba57612dba6151c4565b60200260200101516001600160a01b0316612e709092919063ffffffff16565b612e15838b8481518110612df057612df06151c4565b602002602001015183612e0391906151f0565b888581518110612dba57612dba6151c4565b612e50565b80888381518110612e2d57612e2d6151c4565b602002602001018181525050612e508b82888581518110612dba57612dba6151c4565b5080612e5b816154d1565b915050612c8f565b5050505050509392505050565b6040516001600160a01b0383166024820152604481018290526117f990849063a9059cbb60e01b906064015b60408051601f198184030181529190526020810180516001600160e01b03166001600160e01b031990931692909217909152613b12565b60007f8b73c3c69bb8fe3d512ecc4cf759cc79239f7b179b0ffacaa9a75d522b39400f6003604051612f059190615780565b6040805191829003822060208301939093528101919091527fc89efdaa54c0f20c7adf612882df0950f5a951637e0307cdcb4c672f298b8bc660608201524660808201523060a082015260c00160405160208183030381529060405280519060200120905090565b6001600160a01b03811660009081526001830160205260408120541515610ad4565b600854600f546001600160a01b0390911690600090612fb7906001600160401b0316426151f0565b90506000826001600160a01b031663d34cc3806040518163ffffffff1660e01b8152600401604080518083038186803b158015612ff357600080fd5b505afa158015613007573d6000803e3d6000fd5b505050506040513d601f19601f8201168201806040525081019061302b919061581c565b805190915082108061303b575083155b1561304857505050505050565b600f805467ffffffffffffffff1916426001600160401b031617905560405163110c1a4960e31b8152600481018790526000906001600160a01b03851690638860d2489060240160e06040518083038186803b1580156130a757600080fd5b505afa1580156130bb573d6000803e3d6000fd5b505050506040513d601f19601f820116820180604052508101906130df91906152a7565b60405163dbb1c35f60e01b8152600481018990529091506000906001600160a01b0386169063dbb1c35f9060240160206040518083038186803b15801561312557600080fd5b505afa158015613139573d6000803e3d6000fd5b505050506040513d601f19601f8201168201806040525081019061315d9190615854565b6000015190506000856001600160a01b0316637ac46fbb6040518163ffffffff1660e01b815260040160606040518083038186803b15801561319e57600080fd5b505afa1580156131b2573d6000803e3d6000fd5b505050506040513d601f19601f820116820180604052508101906131d691906154ec565b600001516001600160a01b031663803db96d6040518163ffffffff1660e01b815260040160206040518083038186803b15801561321257600080fd5b505afa158015613226573d6000803e3d6000fd5b505050506040513d601f19601f8201168201806040525081019061324a91906154b4565b9050613262836060015183856000015184898c613be7565b613276878985608001518660200151613cd1565b505050505050505050565b6000808060001985870985870292508281108382030391505080600014156132bb57600084116132b057600080fd5b508290049050610ad4565b8084116132c757600080fd5b6000848688096000868103871696879004966002600389028118808a02820302808a02820302808a02820302808a02820302808a02820302808a02909103029181900381900460010186841190950394909402919094039290920491909117919091029150509392505050565b6040516001600160a01b038085166024830152831660448201526064810182905261336c9085906323b872dd60e01b90608401612e9c565b50505050565b80600260008282546133849190615229565b90915550506001600160a01b03821660008181526020818152604080832080548601905551848152600080516020615a6c83398151915291016126e6565b600b546040805180820190915260048152631253925560e21b60208201526060916134005760405162461bcd60e51b8152600401610b689190614ae6565b506013546015546040805160018082528183019092526001600160a01b03938416939092169160009160208083019080368337019050509050858160008151811061344d5761344d6151c4565b602090810291909101015261346c6001600160a01b0383168488613d8e565b6040516313d1af2d60e11b81526001600160a01b038416906327a35e5a9061349f90309060099086908b90600401615878565b600060405180830381600087803b1580156134b957600080fd5b505af11580156134cd573d6000803e3d6000fd5b505050506040513d6000823e601f3d908101601f191682016040526134f5919081019061565b565b935061350c6001600160a01b038316846000613e4a565b50505092915050565b6000336001600160a01b0316637ac46fbb6040518163ffffffff1660e01b815260040160606040518083038186803b15801561355057600080fd5b505afa158015613564573d6000803e3d6000fd5b505050506040513d601f19601f8201168201806040525081019061358891906154ec565b60200151905060005b82518110156137c25760008382815181106135ae576135ae6151c4565b60200260200101519050306001600160a01b0316836001600160a01b0316636352211e836040518263ffffffff1660e01b81526004016135f091815260200190565b60206040518083038186803b15801561360857600080fd5b505afa15801561361c573d6000803e3d6000fd5b505050506040513d601f19601f8201168201806040525081019061364091906154b4565b6001600160a01b0316146040518060400160405280600381526020016223292160e91b815250906136845760405162461bcd60e51b8152600401610b689190614ae6565b50600e6000828152602001908152602001600020546000146040518060400160405280600381526020016204455560ec1b815250906136d65760405162461bcd60e51b8152600401610b689190614ae6565b5060405163095ea7b360e01b81526001600160a01b0386811660048301526024820183905284169063095ea7b390604401600060405180830381600087803b15801561372157600080fd5b505af1158015613735573d6000803e3d6000fd5b5050604051634dcbc73960e01b8152600481018490526001600160a01b0386169250634dcbc7399150602401600060405180830381600087803b15801561377b57600080fd5b505af115801561378f573d6000803e3d6000fd5b505050508160016137a09190615229565b6000918252600e602052604090912055806137ba816154d1565b915050613591565b5081516137d690600d90602085019061493c565b506126818585613f6e565b606060006137ee836143fa565b9050838160405160200161380392919061589c565b60405160208183030381529060405291505092915050565b815161382e906003906020850190614987565b508051613842906004906020840190614987565b5061384b612ed3565b6005555050565b600b5460085460408051637ac46fbb60e01b815290516000926001600160a01b031691637ac46fbb916004808301926060929190829003018186803b15801561389a57600080fd5b505afa1580156138ae573d6000803e3d6000fd5b505050506040513d601f19601f820116820180604052508101906138d291906154ec565b8051604051630935e01b60e21b81523360048201529192506001600160a01b0316906324d7806c9060240160206040518083038186803b15801561391557600080fd5b505afa158015613929573d6000803e3d6000fd5b505050506040513d601f19601f8201168201806040525081019061394d91906158cb565b806139dc5750602081015160405163020604bf60e21b81526004810184905233916001600160a01b03169063081812fc9060240160206040518083038186803b15801561399957600080fd5b505afa1580156139ad573d6000803e3d6000fd5b505050506040513d601f19601f820116820180604052508101906139d191906154b4565b6001600160a01b0316145b80613a6b575060208101516040516331a9108f60e11b81526004810184905233916001600160a01b031690636352211e9060240160206040518083038186803b158015613a2857600080fd5b505afa158015613a3c573d6000803e3d6000fd5b505050506040513d601f19601f82011682018060405250810190613a6091906154b4565b6001600160a01b0316145b6040518060400160405280600381526020016223292160e91b815250906117f95760405162461bcd60e51b8152600401610b689190614ae6565b6000610ad4836001600160a01b038416614496565b60606000610ad4836144e5565b6000610ad4836001600160a01b038416614541565b60006301ffc9a760e01b6001600160e01b03198316148061079157506001600160e01b0319821663305a640b60e21b1492915050565b6000613b67826040518060400160405280602081526020017f5361666545524332303a206c6f772d6c6576656c2063616c6c206661696c6564815250856001600160a01b03166146349092919063ffffffff16565b9050805160001480613b88575080806020019051810190613b8891906158cb565b6117f95760405162461bcd60e51b815260206004820152602a60248201527f5361666545524332303a204552433230206f7065726174696f6e20646964206e6044820152691bdd081cdd58d8d9595960b21b6064820152608401610b68565b8515613c61576000613c0f613bfc848961527d565b83611bd9633b9aca006301e1338061527d565b9050613c1b8582613372565b60408051888152602081018390526001600160a01b038716917ff128e63f8c1601609ed0ca497b3c0aef18a94da6579e4230bae6eca9c5de3c0b910160405180910390a2505b8415613cc9576000613c76613bfc848861527d565b9050613c828482613372565b60408051878152602081018390526001600160a01b038616917f8e65e88a246d15f0b922b1ccbe4df44ab60cdea0aead3dfe00faebea0d8817b091015b60405180910390a2505b505050505050565b811580613cdc575083155b15613ce65761336c565b6000613cfb84670de0b6b3a764000087613281565b601054909150808211613d0f57505061336c565b60008115613d4857613d2b87613d2584866151f0565b84613281565b9050613d3c8186633b9aca00613281565b9050613d488482613372565b601083905560408051868152602081018390526001600160a01b038616917fd935d6b9af5232b71790c40552a0436920efa18da75df1474e95aef999d8f5f89101613cbf565b604051636eb1769f60e11b81523060048201526001600160a01b0383811660248301526000919085169063dd62ed3e9060440160206040518083038186803b158015613dd957600080fd5b505afa158015613ded573d6000803e3d6000fd5b505050506040513d601f19601f82011682018060405250810190613e119190615767565b905061336c8463095ea7b360e01b85613e2a8686615229565b6040516001600160a01b0390921660248301526044820152606401612e9c565b801580613ed35750604051636eb1769f60e11b81523060048201526001600160a01b03838116602483015284169063dd62ed3e9060440160206040518083038186803b158015613e9957600080fd5b505afa158015613ead573d6000803e3d6000fd5b505050506040513d601f19601f82011682018060405250810190613ed19190615767565b155b613f3e5760405162461bcd60e51b815260206004820152603660248201527f5361666545524332303a20617070726f76652066726f6d206e6f6e2d7a65726f60448201527520746f206e6f6e2d7a65726f20616c6c6f77616e636560501b6064820152608401610b68565b6040516001600160a01b0383166024820152604481018290526117f990849063095ea7b360e01b90606401612e9c565b600b546040805180820190915260048152631253925560e21b60208201529015613fab5760405162461bcd60e51b8152600401610b689190614ae6565b50613fb58261464b565b60405180604001604052806004815260200163494e564160e01b81525090613ff05760405162461bcd60e51b8152600401610b689190614ae6565b506040805180820190915260028152612b2d60f11b6020820152816140285760405162461bcd60e51b8152600401610b689190614ae6565b506000336001600160a01b0316637ac46fbb6040518163ffffffff1660e01b815260040160606040518083038186803b15801561406457600080fd5b505afa158015614078573d6000803e3d6000fd5b505050506040513d601f19601f8201168201806040525081019061409c91906154ec565b518351909150158015906141215750806001600160a01b03166378546fa26040518163ffffffff1660e01b815260040160206040518083038186803b1580156140e457600080fd5b505afa1580156140f8573d6000803e3d6000fd5b505050506040513d601f19601f8201168201806040525081019061411c9190615767565b835111155b6040518060400160405280600381526020016224a72b60e91b8152509061415b5760405162461bcd60e51b8152600401610b689190614ae6565b5060005b835181101561425f57816001600160a01b03166363e85d2d858381518110614189576141896151c4565b60209081029190910101516040516001600160e01b031960e084901b1681526001600160a01b0390911660048201526003602482015260440160206040518083038186803b1580156141da57600080fd5b505afa1580156141ee573d6000803e3d6000fd5b505050506040513d601f19601f8201168201806040525081019061421291906158cb565b6040518060400160405280600381526020016223292160e91b8152509061424c5760405162461bcd60e51b8152600401610b689190614ae6565b5080614257816154d1565b91505061415f565b50600880546001600160a01b0319163317905582516142859060099060208601906149fa565b50600b82905560095460005b818110156143b5576142a4816001615229565b600a60008784815181106142ba576142ba6151c4565b60200260200101516001600160a01b03166001600160a01b031681526020019081526020016000208190555060008582815181106142fa576142fa6151c4565b60200260200101519050600c6002826001600160a01b031663313ce5676040518163ffffffff1660e01b815260040160206040518083038186803b15801561434157600080fd5b505afa158015614355573d6000803e3d6000fd5b505050506040513d601f19601f8201168201806040525081019061437991906158e6565b6143839190615903565b61438e90600a615a17565b81546001810183556000928352602090922090910155506143ae816154d1565b9050614291565b50604051339032907f0f043e55a1ce0d7ce25125ccbc2800b540d83e21abf7250f0156c2091a28b221906143ec9088908890615a26565b60405180910390a350505050565b60606000614407836146ee565b60010190506000816001600160401b0381111561442657614426614b4d565b6040519080825280601f01601f191660200182016040528015614450576020820181803683370190505b5090508181016020015b600019016f181899199a1a9b1b9c1cb0b131b232b360811b600a86061a8153600a85049450846144895761448e565b61445a565b509392505050565b60008181526001830160205260408120546144dd57508154600181810184556000848152602080822090930184905584548482528286019093526040902091909155610791565b506000610791565b60608160000180548060200260200160405190810160405280929190818152602001828054801561453557602002820191906000526020600020905b815481526020019060010190808311614521575b50505050509050919050565b6000818152600183016020526040812054801561462a5760006145656001836151f0565b8554909150600090614579906001906151f0565b90508181146145de576000866000018281548110614599576145996151c4565b90600052602060002001549050808760000184815481106145bc576145bc6151c4565b6000918252602080832090910192909255918252600188019052604090208390555b85548690806145ef576145ef615a39565b600190038181906000526020600020016000905590558560010160008681526020019081526020016000206000905560019350505050610791565b6000915050610791565b606061464384846000856147c6565b949350505050565b600060028251101561465f57506001919050565b60005b6001835161467091906151f0565b8110156146e55782614683826001615229565b81518110614693576146936151c4565b60200260200101516001600160a01b03168382815181106146b6576146b66151c4565b60200260200101516001600160a01b0316106146d55750600092915050565b6146de816154d1565b9050614662565b50600192915050565b60008072184f03e93ff9f4daa797ed6e38ed64bf6a1f0160401b831061472d5772184f03e93ff9f4daa797ed6e38ed64bf6a1f0160401b830492506040015b6d04ee2d6d415b85acef81000000008310614759576d04ee2d6d415b85acef8100000000830492506020015b662386f26fc10000831061477757662386f26fc10000830492506010015b6305f5e100831061478f576305f5e100830492506008015b61271083106147a357612710830492506004015b606483106147b5576064830492506002015b600a83106107915760010192915050565b6060824710156148275760405162461bcd60e51b815260206004820152602660248201527f416464726573733a20696e73756666696369656e742062616c616e636520666f6044820152651c8818d85b1b60d21b6064820152608401610b68565b600080866001600160a01b031685876040516148439190615a4f565b60006040518083038185875af1925050503d8060008114614880576040519150601f19603f3d011682016040523d82523d6000602084013e614885565b606091505b5091509150614896878383876148a1565b979650505050505050565b6060831561490d578251614906576001600160a01b0385163b6149065760405162461bcd60e51b815260206004820152601d60248201527f416464726573733a2063616c6c20746f206e6f6e2d636f6e74726163740000006044820152606401610b68565b5081614643565b61464383838151156149225781518083602001fd5b8060405162461bcd60e51b8152600401610b689190614ae6565b828054828255906000526020600020908101928215614977579160200282015b8281111561497757825182559160200191906001019061495c565b50614983929150614a4f565b5090565b82805461499390615189565b90600052602060002090601f0160209004810192826149b55760008555614977565b82601f106149ce57805160ff1916838001178555614977565b82800160010185558215614977579182018281111561497757825182559160200191906001019061495c565b828054828255906000526020600020908101928215614977579160200282015b8281111561497757825182546001600160a01b0319166001600160a01b03909116178255602090920191600190910190614a1a565b5b808211156149835760008155600101614a50565b600060208284031215614a7657600080fd5b81356001600160e01b031981168114610ad457600080fd5b60005b83811015614aa9578181015183820152602001614a91565b8381111561336c5750506000910152565b60008151808452614ad2816020860160208601614a8e565b601f01601f19169290920160200192915050565b602081526000610ad46020830184614aba565b6001600160a01b0381168114614b0e57600080fd5b50565b8035614b1c81614af9565b919050565b60008060408385031215614b3457600080fd5b8235614b3f81614af9565b946020939093013593505050565b634e487b7160e01b600052604160045260246000fd5b604051602081016001600160401b0381118282101715614b8557614b85614b4d565b60405290565b604080519081016001600160401b0381118282101715614b8557614b85614b4d565b60405161012081016001600160401b0381118282101715614b8557614b85614b4d565b604051601f8201601f191681016001600160401b0381118282101715614bf857614bf8614b4d565b604052919050565b60006001600160401b03821115614c1957614c19614b4d565b5060051b60200190565b600082601f830112614c3457600080fd5b81356001600160401b03811115614c4d57614c4d614b4d565b614c60601f8201601f1916602001614bd0565b818152846020838601011115614c7557600080fd5b816020850160208301376000918101602001919091529392505050565b60008060408385031215614ca557600080fd5b8235614cb081614af9565b91506020838101356001600160401b0380821115614ccd57600080fd5b818601915086601f830112614ce157600080fd5b8135614cf4614cef82614c00565b614bd0565b81815260059190911b83018401908481019089831115614d1357600080fd5b8585015b83811015614d4b57803585811115614d2f5760008081fd5b614d3d8c89838a0101614c23565b845250918601918601614d17565b508096505050505050509250929050565b600081518084526020808501945080840160005b83811015614d8c57815187529582019590820190600101614d70565b509495945050505050565b602081526000610ad46020830184614d5c565b600080600060608486031215614dbf57600080fd5b8335614dca81614af9565b92506020840135614dda81614af9565b929592945050506040919091013590565b600060208284031215614dfd57600080fd5b8135610ad481614af9565b600060208284031215614e1a57600080fd5b5035919050565b600082601f830112614e3257600080fd5b81356020614e42614cef83614c00565b82815260059290921b84018101918181019086841115614e6157600080fd5b8286015b84811015614e7c5780358352918301918301614e65565b509695505050505050565b600080600060608486031215614e9c57600080fd5b83356001600160401b0380821115614eb357600080fd5b614ebf87838801614e21565b9450602086013593506040860135915080821115614edc57600080fd5b50614ee986828701614c23565b9150509250925092565b600081518084526020808501945080840160005b83811015614d8c5781516001600160a01b031687529582019590820190600101614f07565b602081526000610ad46020830184614ef3565b600080600080600060a08688031215614f5757600080fd5b853594506020808701356001600160401b0380821115614f7657600080fd5b818901915089601f830112614f8a57600080fd5b8135614f98614cef82614c00565b81815260059190911b8301840190848101908c831115614fb757600080fd5b938501935b82851015614fde578435614fcf81614af9565b82529385019390850190614fbc565b9850614fef91505060408a01614b11565b9550606089013592508083111561500557600080fd5b505061501388828901614e21565b92505061502260808701614b11565b90509295509295909350565b6000806020838503121561504157600080fd5b82356001600160401b038082111561505857600080fd5b818501915085601f83011261506c57600080fd5b81358181111561507b57600080fd5b8660208260051b850101111561509057600080fd5b60209290920196919550909350505050565b60ff81168114614b0e57600080fd5b600080600080600080600060e0888a0312156150cc57600080fd5b87356150d781614af9565b965060208801356150e781614af9565b955060408801359450606088013593506080880135615105816150a2565b9699959850939692959460a0840135945060c09093013592915050565b6000806040838503121561513557600080fd5b823561514081614af9565b9150602083013561515081614af9565b809150509250929050565b60408152600061516e6040830185614d5c565b82810360208401526151808185614d5c565b95945050505050565b600181811c9082168061519d57607f821691505b602082108114156151be57634e487b7160e01b600052602260045260246000fd5b50919050565b634e487b7160e01b600052603260045260246000fd5b634e487b7160e01b600052601160045260246000fd5b600082821015615202576152026151da565b500390565b60408152600061521a6040830185614d5c565b90508260208301529392505050565b6000821982111561523c5761523c6151da565b500190565b80518015158114614b1c57600080fd5b60006020828403121561526357600080fd5b61526b614b63565b61527483615241565b81529392505050565b6000816000190483118215151615615297576152976151da565b500290565b8051614b1c81614af9565b600060e082840312156152b957600080fd5b60405160e081018181106001600160401b03821117156152db576152db614b4d565b60405282516152e981614af9565b815260208301516152f981614af9565b602082015261530a60408401615241565b6040820152606083015160608201526080830151608082015260a083015161533181614af9565b60a082015260c083015161534481614af9565b60c08201529392505050565b600082601f83011261536157600080fd5b81516020615371614cef83614c00565b82815260059290921b8401810191818101908684111561539057600080fd5b8286015b84811015614e7c5780518352918301918301615394565b600080604083850312156153be57600080fd5b82516001600160401b03808211156153d557600080fd5b6153e186838701615350565b935060208501519150808211156153f757600080fd5b5061540485828601615350565b9150509250929050565b60006040828403121561542057600080fd5b615428614b8b565b82518152602083015160208201528091505092915050565b6000815480845260208085019450836000528060002060005b83811015614d8c5781546001600160a01b031687529582019560019182019101615459565b6060815260006154916060830186615440565b82810360208401526154a38186614d5c565b915050826040830152949350505050565b6000602082840312156154c657600080fd5b8151610ad481614af9565b60006000198214156154e5576154e56151da565b5060010190565b6000606082840312156154fe57600080fd5b604051606081018181106001600160401b038211171561552057615520614b4d565b604052825161552e81614af9565b8152602083015161553e81614af9565b6020820152604083015161555181614af9565b60408201529392505050565b805161ffff81168114614b1c57600080fd5b6000610120828403121561558257600080fd5b61558a614bad565b8251815261559a6020840161555d565b60208201526155ab6040840161529c565b60408201526155bc6060840161529c565b60608201526155cd6080840161529c565b608082015260a083015160a082015260c083015160c082015260e083015160e08201526101006155fe81850161529c565b908201529392505050565b6001600160a01b038416815260806020820181905260009061562d90830185615440565b828103604084015261563f8185614d5c565b8381036060909401939093525050600081526020019392505050565b60006020828403121561566d57600080fd5b81516001600160401b0381111561568357600080fd5b61464384828501615350565b600060208083850312156156a257600080fd5b82516001600160401b038111156156b857600080fd5b8301601f810185136156c957600080fd5b80516156d7614cef82614c00565b81815260059190911b820183019083810190878311156156f657600080fd5b928401925b8284101561489657835161570e81614af9565b825292840192908401906156fb565b6001600160a01b038516815260806020820181905260009061574190830186614ef3565b82810360408401526157538186614d5c565b905082810360608401526148968185614aba565b60006020828403121561577957600080fd5b5051919050565b600080835481600182811c91508083168061579c57607f831692505b60208084108214156157bc57634e487b7160e01b86526022600452602486fd5b8180156157d057600181146157e15761580e565b60ff1986168952848901965061580e565b60008a81526020902060005b868110156158065781548b8201529085019083016157ed565b505084890196505b509498975050505050505050565b60006040828403121561582e57600080fd5b615836614b8b565b82518152602083015161584881614af9565b60208201529392505050565b60006020828403121561586657600080fd5b61586e614b63565b9151825250919050565b6001600160a01b038516815260806020820181905260009061574190830186615440565b600083516158ae818460208801614a8e565b8351908301906158c2818360208801614a8e565b01949350505050565b6000602082840312156158dd57600080fd5b610ad482615241565b6000602082840312156158f857600080fd5b8151610ad4816150a2565b600060ff83168061592457634e487b7160e01b600052601260045260246000fd5b8060ff84160491505092915050565b600181815b8085111561596e578160001904821115615954576159546151da565b8085161561596157918102915b93841c9390800290615938565b509250929050565b60008261598557506001610791565b8161599257506000610791565b81600181146159a857600281146159b2576159ce565b6001915050610791565b60ff8411156159c3576159c36151da565b50506001821b610791565b5060208310610133831016604e8410600b84101617156159f1575081810a610791565b6159fb8383615933565b8060001904821115615a0f57615a0f6151da565b029392505050565b6000610ad460ff841683615976565b60408152600061521a6040830185614ef3565b634e487b7160e01b600052603160045260246000fd5b60008251615a61818460208701614a8e565b919091019291505056feddf252ad1be2c89b69c2b068fc378daa952ba7f163c4a11628f55a4df523b3efa26469706673582212204f3e9fcf936bfa7f4b3e3c005174a935164f53c0e71152726c9e3015c31496c964736f6c63430008090033",
    "linkReferences": {}
  },
  "methodIdentifiers": {
    "D18()": "e3f5aeb9",
    "DOMAIN_SEPARATOR()": "3644e515",
    "PERMIT_TYPEHASH()": "30adf81f",
    "addDepositorsToAllowlist(address[])": "91b7ab47",
    "allowance(address,address)": "dd62ed3e",
    "approve(address,uint256)": "095ea7b3",
    "balanceOf(address)": "70a08231",
    "cancelWithdrawal(uint256)": "3efcfda4",
    "currentEpoch()": "76671808",
    "decimals()": "313ce567",
    "deposit(uint256[],uint256,bytes)": "54a3f474",
    "depositorsAllowlist()": "a09eb0e7",
    "epochToPriceForLpTokenD18(uint256)": "6d372639",
    "erc20Vault()": "090f9221",
    "gearboxVault()": "46dd883d",
    "hasSubvault(uint256)": "9d9fd0d9",
    "initialize(uint256,address[],address,uint256[],address)": "6a72a804",
    "initialized()": "158ef93e",
    "invokeExecution()": "c8045c88",
    "isClosed()": "c2b6b58c",
    "isVaultToken(address)": "338c4ccb",
    "lastEpochChangeTimestamp()": "1806080c",
    "lastFeeCharge()": "3da7463f",
    "latestRequestEpoch(address)": "e2fd4199",
    "lpPriceHighWaterMarkD18()": "24004a66",
    "lpTokensWaitingForClaim(address)": "a6eea12a",
    "name()": "06fdde03",
    "nft()": "47ccca02",
    "nonces(address)": "7ecebe00",
    "permit(address,address,uint256,uint256,uint8,bytes32,bytes32)": "d505accf",
    "primaryToken()": "91ac094c",
    "primaryTokensToClaim(address)": "dccc5573",
    "pullExistentials()": "d2c219b0",
    "registerWithdrawal(uint256)": "4c24c68b",
    "removeDepositorsFromAllowlist(address[])": "e273d23e",
    "reopen()": "ccc108d7",
    "shutdown()": "fc0e74d1",
    "subvaultAt(uint256)": "9bd0911b",
    "subvaultNfts()": "79183973",
    "subvaultOneBasedIndex(uint256)": "9ddc875f",
    "supportsInterface(bytes4)": "01ffc9a7",
    "symbol()": "95d89b41",
    "totalCurrentEpochLpWitdrawalRequests()": "26351fa2",
    "totalLpTokensWaitingWithdrawal()": "342d84ae",
    "totalSupply()": "18160ddd",
    "transfer(address,uint256)": "a9059cbb",
    "transferFrom(address,address,uint256)": "23b872dd",
    "tvl()": "e5328e06",
    "vaultGovernance()": "fe255a5e",
    "vaultTokens()": "69722233",
    "withdraw(address,bytes[])": "1afd1b71",
    "withdrawalRequests(address)": "27b380f3"
  },
  "id": 462
}