{
  "abi": [
    {
      "anonymous": false,
      "inputs": [
        {
          "indexed": true,
          "internalType": "address",
          "name": "owner",
          "type": "address"
        },
        {
          "indexed": true,
          "internalType": "address",
          "name": "spender",
          "type": "address"
        },
        {
          "indexed": false,
          "internalType": "uint256",
          "name": "value",
          "type": "uint256"
        }
      ],
      "name": "Approval",
      "type": "event"
    },
    {
      "anonymous": false,
      "inputs": [
        {
          "indexed": true,
          "internalType": "address",
          "name": "from",
          "type": "address"
        },
        {
          "indexed": false,
          "internalType": "address[]",
          "name": "tokens",
          "type": "address[]"
        },
        {
          "indexed": false,
          "internalType": "uint256[]",
          "name": "actualTokenAmounts",
          "type": "uint256[]"
        },
        {
          "indexed": false,
          "internalType": "uint256",
          "name": "lpTokenMinted",
          "type": "uint256"
        }
      ],
      "name": "Deposit",
      "type": "event"
    },
    {
      "anonymous": false,
      "inputs": [
        {
          "indexed": false,
          "internalType": "string",
          "name": "reason",
          "type": "string"
        }
      ],
      "name": "DepositCallbackLog",
      "type": "event"
    },
    {
      "anonymous": false,
      "inputs": [
        {
          "indexed": true,
          "internalType": "address",
          "name": "origin",
          "type": "address"
        },
        {
          "indexed": true,
          "internalType": "address",
          "name": "sender",
          "type": "address"
        },
        {
          "indexed": false,
          "internalType": "address[]",
          "name": "vaultTokens_",
          "type": "address[]"
        },
        {
          "indexed": false,
          "internalType": "uint256",
          "name": "nft_",
          "type": "uint256"
        }
      ],
      "name": "Initialized",
      "type": "event"
    },
    {
      "anonymous": false,
      "inputs": [
        {
          "indexed": true,
          "internalType": "address",
          "name": "treasury",
          "type": "address"
        },
        {
          "indexed": false,
          "internalType": "uint256",
          "name": "feeRate",
          "type": "uint256"
        },
        {
          "indexed": false,
          "internalType": "uint256",
          "name": "amount",
          "type": "uint256"
        }
      ],
      "name": "ManagementFeesCharged",
      "type": "event"
    },
    {
      "anonymous": false,
      "inputs": [
        {
          "indexed": true,
          "internalType": "address",
          "name": "treasury",
          "type": "address"
        },
        {
          "indexed": false,
          "internalType": "uint256",
          "name": "feeRate",
          "type": "uint256"
        },
        {
          "indexed": false,
          "internalType": "uint256",
          "name": "amount",
          "type": "uint256"
        }
      ],
      "name": "PerformanceFeesCharged",
      "type": "event"
    },
    {
      "anonymous": false,
      "inputs": [
        {
          "indexed": true,
          "internalType": "address",
          "name": "treasury",
          "type": "address"
        },
        {
          "indexed": false,
          "internalType": "uint256",
          "name": "feeRate",
          "type": "uint256"
        },
        {
          "indexed": false,
          "internalType": "uint256",
          "name": "amount",
          "type": "uint256"
        }
      ],
      "name": "ProtocolFeesCharged",
      "type": "event"
    },
    {
      "anonymous": false,
      "inputs": [
        {
          "indexed": true,
          "internalType": "address",
          "name": "from",
          "type": "address"
        },
        {
          "indexed": true,
          "internalType": "address",
          "name": "to",
          "type": "address"
        },
        {
          "indexed": false,
          "internalType": "uint256",
          "name": "value",
          "type": "uint256"
        }
      ],
      "name": "Transfer",
      "type": "event"
    },
    {
      "anonymous": false,
      "inputs": [
        {
          "indexed": true,
          "internalType": "address",
          "name": "from",
          "type": "address"
        },
        {
          "indexed": false,
          "internalType": "address[]",
          "name": "tokens",
          "type": "address[]"
        },
        {
          "indexed": false,
          "internalType": "uint256[]",
          "name": "actualTokenAmounts",
          "type": "uint256[]"
        },
        {
          "indexed": false,
          "internalType": "uint256",
          "name": "lpTokenBurned",
          "type": "uint256"
        }
      ],
      "name": "Withdraw",
      "type": "event"
    },
    {
      "anonymous": false,
      "inputs": [
        {
          "indexed": false,
          "internalType": "string",
          "name": "reason",
          "type": "string"
        }
      ],
      "name": "WithdrawCallbackLog",
      "type": "event"
    },
    {
      "inputs": [],
      "name": "DOMAIN_SEPARATOR",
      "outputs": [
        {
          "internalType": "bytes32",
          "name": "",
          "type": "bytes32"
        }
      ],
      "stateMutability": "view",
      "type": "function"
    },
    {
      "inputs": [],
      "name": "PERMIT_TYPEHASH",
      "outputs": [
        {
          "internalType": "bytes32",
          "name": "",
          "type": "bytes32"
        }
      ],
      "stateMutability": "view",
      "type": "function"
    },
    {
      "inputs": [
        {
          "internalType": "address[]",
          "name": "depositors",
          "type": "address[]"
        }
      ],
      "name": "addDepositorsToAllowlist",
      "outputs": [],
      "stateMutability": "nonpayable",
      "type": "function"
    },
    {
      "inputs": [
        {
          "internalType": "address",
          "name": "",
          "type": "address"
        },
        {
          "internalType": "address",
          "name": "",
          "type": "address"
        }
      ],
      "name": "allowance",
      "outputs": [
        {
          "internalType": "uint256",
          "name": "",
          "type": "uint256"
        }
      ],
      "stateMutability": "view",
      "type": "function"
    },
    {
      "inputs": [
        {
          "internalType": "address",
          "name": "spender",
          "type": "address"
        },
        {
          "internalType": "uint256",
          "name": "amount",
          "type": "uint256"
        }
      ],
      "name": "approve",
      "outputs": [
        {
          "internalType": "bool",
          "name": "",
          "type": "bool"
        }
      ],
      "stateMutability": "nonpayable",
      "type": "function"
    },
    {
      "inputs": [
        {
          "internalType": "address",
          "name": "",
          "type": "address"
        }
      ],
      "name": "balanceOf",
      "outputs": [
        {
          "internalType": "uint256",
          "name": "",
          "type": "uint256"
        }
      ],
      "stateMutability": "view",
      "type": "function"
    },
    {
      "inputs": [],
      "name": "decimals",
      "outputs": [
        {
          "internalType": "uint8",
          "name": "",
          "type": "uint8"
        }
      ],
      "stateMutability": "view",
      "type": "function"
    },
    {
      "inputs": [
        {
          "internalType": "uint256[]",
          "name": "tokenAmounts",
          "type": "uint256[]"
        },
        {
          "internalType": "uint256",
          "name": "minLpTokens",
          "type": "uint256"
        },
        {
          "internalType": "bytes",
          "name": "vaultOptions",
          "type": "bytes"
        }
      ],
      "name": "deposit",
      "outputs": [
        {
          "internalType": "uint256[]",
          "name": "actualTokenAmounts",
          "type": "uint256[]"
        }
      ],
      "stateMutability": "nonpayable",
      "type": "function"
    },
    {
      "inputs": [],
      "name": "depositorsAllowlist",
      "outputs": [
        {
          "internalType": "address[]",
          "name": "",
          "type": "address[]"
        }
      ],
      "stateMutability": "view",
      "type": "function"
    },
    {
      "inputs": [
        {
          "internalType": "uint256",
          "name": "nft_",
          "type": "uint256"
        }
      ],
      "name": "hasSubvault",
      "outputs": [
        {
          "internalType": "bool",
          "name": "",
          "type": "bool"
        }
      ],
      "stateMutability": "view",
      "type": "function"
    },
    {
      "inputs": [],
      "name": "helper",
      "outputs": [
        {
          "internalType": "contract IERC20RootVaultHelper",
          "name": "",
          "type": "address"
        }
      ],
      "stateMutability": "view",
      "type": "function"
    },
    {
      "inputs": [
        {
          "internalType": "uint256",
          "name": "nft_",
          "type": "uint256"
        },
        {
          "internalType": "address[]",
          "name": "vaultTokens_",
          "type": "address[]"
        },
        {
          "internalType": "address",
          "name": "strategy_",
          "type": "address"
        },
        {
          "internalType": "uint256[]",
          "name": "subvaultNfts_",
          "type": "uint256[]"
        },
        {
          "internalType": "contract IERC20RootVaultHelper",
          "name": "helper_",
          "type": "address"
        }
      ],
      "name": "initialize",
      "outputs": [],
      "stateMutability": "nonpayable",
      "type": "function"
    },
    {
      "inputs": [],
      "name": "initialized",
      "outputs": [
        {
          "internalType": "bool",
          "name": "",
          "type": "bool"
        }
      ],
      "stateMutability": "view",
      "type": "function"
    },
    {
      "inputs": [
        {
          "internalType": "address",
          "name": "token",
          "type": "address"
        }
      ],
      "name": "isVaultToken",
      "outputs": [
        {
          "internalType": "bool",
          "name": "",
          "type": "bool"
        }
      ],
      "stateMutability": "view",
      "type": "function"
    },
    {
      "inputs": [],
      "name": "lastFeeCharge",
      "outputs": [
        {
          "internalType": "uint64",
          "name": "",
          "type": "uint64"
        }
      ],
      "stateMutability": "view",
      "type": "function"
    },
    {
      "inputs": [],
      "name": "lpPriceHighWaterMarkD18",
      "outputs": [
        {
          "internalType": "uint256",
          "name": "",
          "type": "uint256"
        }
      ],
      "stateMutability": "view",
      "type": "function"
    },
    {
      "inputs": [],
      "name": "name",
      "outputs": [
        {
          "internalType": "string",
          "name": "",
          "type": "string"
        }
      ],
      "stateMutability": "view",
      "type": "function"
    },
    {
      "inputs": [],
      "name": "nft",
      "outputs": [
        {
          "internalType": "uint256",
          "name": "",
          "type": "uint256"
        }
      ],
      "stateMutability": "view",
      "type": "function"
    },
    {
      "inputs": [
        {
          "internalType": "address",
          "name": "",
          "type": "address"
        }
      ],
      "name": "nonces",
      "outputs": [
        {
          "internalType": "uint256",
          "name": "",
          "type": "uint256"
        }
      ],
      "stateMutability": "view",
      "type": "function"
    },
    {
      "inputs": [
        {
          "internalType": "address",
          "name": "owner",
          "type": "address"
        },
        {
          "internalType": "address",
          "name": "spender",
          "type": "address"
        },
        {
          "internalType": "uint256",
          "name": "value",
          "type": "uint256"
        },
        {
          "internalType": "uint256",
          "name": "deadline",
          "type": "uint256"
        },
        {
          "internalType": "uint8",
          "name": "v",
          "type": "uint8"
        },
        {
          "internalType": "bytes32",
          "name": "r",
          "type": "bytes32"
        },
        {
          "internalType": "bytes32",
          "name": "s",
          "type": "bytes32"
        }
      ],
      "name": "permit",
      "outputs": [],
      "stateMutability": "nonpayable",
      "type": "function"
    },
    {
      "inputs": [],
      "name": "pullExistentials",
      "outputs": [
        {
          "internalType": "uint256[]",
          "name": "",
          "type": "uint256[]"
        }
      ],
      "stateMutability": "view",
      "type": "function"
    },
    {
      "inputs": [
        {
          "internalType": "address[]",
          "name": "depositors",
          "type": "address[]"
        }
      ],
      "name": "removeDepositorsFromAllowlist",
      "outputs": [],
      "stateMutability": "nonpayable",
      "type": "function"
    },
    {
      "inputs": [
        {
          "internalType": "uint256",
          "name": "index",
          "type": "uint256"
        }
      ],
      "name": "subvaultAt",
      "outputs": [
        {
          "internalType": "address",
          "name": "",
          "type": "address"
        }
      ],
      "stateMutability": "view",
      "type": "function"
    },
    {
      "inputs": [],
      "name": "subvaultNfts",
      "outputs": [
        {
          "internalType": "uint256[]",
          "name": "",
          "type": "uint256[]"
        }
      ],
      "stateMutability": "view",
      "type": "function"
    },
    {
      "inputs": [
        {
          "internalType": "uint256",
          "name": "nft_",
          "type": "uint256"
        }
      ],
      "name": "subvaultOneBasedIndex",
      "outputs": [
        {
          "internalType": "uint256",
          "name": "",
          "type": "uint256"
        }
      ],
      "stateMutability": "view",
      "type": "function"
    },
    {
      "inputs": [
        {
          "internalType": "bytes4",
          "name": "interfaceId",
          "type": "bytes4"
        }
      ],
      "name": "supportsInterface",
      "outputs": [
        {
          "internalType": "bool",
          "name": "",
          "type": "bool"
        }
      ],
      "stateMutability": "view",
      "type": "function"
    },
    {
      "inputs": [],
      "name": "symbol",
      "outputs": [
        {
          "internalType": "string",
          "name": "",
          "type": "string"
        }
      ],
      "stateMutability": "view",
      "type": "function"
    },
    {
      "inputs": [],
      "name": "totalSupply",
      "outputs": [
        {
          "internalType": "uint256",
          "name": "",
          "type": "uint256"
        }
      ],
      "stateMutability": "view",
      "type": "function"
    },
    {
      "inputs": [
        {
          "internalType": "uint256",
          "name": "",
          "type": "uint256"
        }
      ],
      "name": "totalWithdrawnAmounts",
      "outputs": [
        {
          "internalType": "uint256",
          "name": "",
          "type": "uint256"
        }
      ],
      "stateMutability": "view",
      "type": "function"
    },
    {
      "inputs": [],
      "name": "totalWithdrawnAmountsTimestamp",
      "outputs": [
        {
          "internalType": "uint64",
          "name": "",
          "type": "uint64"
        }
      ],
      "stateMutability": "view",
      "type": "function"
    },
    {
      "inputs": [
        {
          "internalType": "address",
          "name": "to",
          "type": "address"
        },
        {
          "internalType": "uint256",
          "name": "amount",
          "type": "uint256"
        }
      ],
      "name": "transfer",
      "outputs": [
        {
          "internalType": "bool",
          "name": "",
          "type": "bool"
        }
      ],
      "stateMutability": "nonpayable",
      "type": "function"
    },
    {
      "inputs": [
        {
          "internalType": "address",
          "name": "from",
          "type": "address"
        },
        {
          "internalType": "address",
          "name": "to",
          "type": "address"
        },
        {
          "internalType": "uint256",
          "name": "amount",
          "type": "uint256"
        }
      ],
      "name": "transferFrom",
      "outputs": [
        {
          "internalType": "bool",
          "name": "",
          "type": "bool"
        }
      ],
      "stateMutability": "nonpayable",
      "type": "function"
    },
    {
      "inputs": [],
      "name": "tvl",
      "outputs": [
        {
          "internalType": "uint256[]",
          "name": "minTokenAmounts",
          "type": "uint256[]"
        },
        {
          "internalType": "uint256[]",
          "name": "maxTokenAmounts",
          "type": "uint256[]"
        }
      ],
      "stateMutability": "view",
      "type": "function"
    },
    {
      "inputs": [],
      "name": "vaultGovernance",
      "outputs": [
        {
          "internalType": "contract IVaultGovernance",
          "name": "",
          "type": "address"
        }
      ],
      "stateMutability": "view",
      "type": "function"
    },
    {
      "inputs": [],
      "name": "vaultTokens",
      "outputs": [
        {
          "internalType": "address[]",
          "name": "",
          "type": "address[]"
        }
      ],
      "stateMutability": "view",
      "type": "function"
    },
    {
      "inputs": [
        {
          "internalType": "address",
          "name": "to",
          "type": "address"
        },
        {
          "internalType": "uint256",
          "name": "lpTokenAmount",
          "type": "uint256"
        },
        {
          "internalType": "uint256[]",
          "name": "minTokenAmounts",
          "type": "uint256[]"
        },
        {
          "internalType": "bytes[]",
          "name": "vaultsOptions",
          "type": "bytes[]"
        }
      ],
      "name": "withdraw",
      "outputs": [
        {
          "internalType": "uint256[]",
          "name": "actualTokenAmounts",
          "type": "uint256[]"
        }
      ],
      "stateMutability": "nonpayable",
      "type": "function"
    }
  ],
  "bytecode": {
    "object": "0x60a060405234801561001057600080fd5b50466080526001600755600019600b55608051615dfe6200003c60003960006107820152615dfe6000f3fe608060405234801561001057600080fd5b506004361061021c5760003560e01c80636a72a804116101255780639ddc875f116100ad578063d505accf1161007c578063d505accf146104e5578063dd62ed3e146104f8578063e273d23e14610523578063e5328e0614610536578063fe255a5e1461054c57600080fd5b80639ddc875f146104a2578063a09eb0e7146104c2578063a9059cbb146104ca578063d2c219b0146104dd57600080fd5b806382491fac116100f457806382491fac1461043f57806391b7ab471461045257806395d89b41146104655780639bd0911b1461046d5780639d9fd0d91461048057600080fd5b80636a72a804146103e257806370a08231146103f757806379183973146104175780637ecebe001461041f57600080fd5b8063313ce567116101a8578063407a31c011610177578063407a31c01461036057806347ccca021461037a57806354a3f4741461038257806363b0e66a146103a257806369722233146103cd57600080fd5b8063313ce567146102e8578063338c4ccb146103025780633644e5151461032d5780633da7463f1461033557600080fd5b8063158ef93e116101ef578063158ef93e1461029257806318160ddd1461029c57806323b872dd146102a557806324004a66146102b857806330adf81f146102c157600080fd5b806301ffc9a71461022157806306fdde0314610249578063095ea7b31461025e578063151bb8d114610271575b600080fd5b61023461022f366004614d8e565b61055d565b60405190151581526020015b60405180910390f35b610251610589565b6040516102409190614e10565b61023461026c366004614e4b565b610617565b61028461027f366004614e77565b610683565b604051908152602001610240565b600b541515610234565b61028460025481565b6102346102b3366004614e90565b6106a4565b61028460115481565b6102847f6e71edae12b1b97f4d1f60370fef10105fa2faae0126114a169c64845d6126c981565b6102f0601281565b60405160ff9091168152602001610240565b610234610310366004614ed1565b6001600160a01b03166000908152600a6020526040902054151590565b61028461077e565b600f54610348906001600160401b031681565b6040516001600160401b039091168152602001610240565b600f5461034890600160401b90046001600160401b031681565b600b54610284565b61039561039036600461507b565b6107bb565b6040516102409190615122565b6014546103b5906001600160a01b031681565b6040516001600160a01b039091168152602001610240565b6103d56110a8565b604051610240919061516e565b6103f56103f0366004615181565b61110a565b005b610284610405366004614ed1565b60006020819052908152604090205481565b610395611211565b61028461042d366004614ed1565b60066020526000908152604090205481565b61039561044d36600461527b565b611268565b6103f5610460366004615377565b6117b2565b61025161180f565b6103b561047b366004614e77565b61181c565b61023461048e366004614e77565b6000908152600e6020526040902054151590565b6102846104b0366004614e77565b6000908152600e602052604090205490565b6103d5611942565b6102346104d8366004614e4b565b61194e565b6103956119b1565b6103f56104f33660046153fa565b611a07565b61028461050636600461546b565b600160209081526000928352604080842090915290825290205481565b6103f5610531366004615377565b611c54565b61053e611cac565b6040516102409291906154a4565b6008546001600160a01b03166103b5565b6000610568826120ee565b806105835750631182078560e11b6001600160e01b03198316145b92915050565b60038054610596906154d2565b80601f01602080910402602001604051908101604052809291908181526020018280546105c2906154d2565b801561060f5780601f106105e45761010080835404028352916020019161060f565b820191906000526020600020905b8154815290600101906020018083116105f257829003601f168201915b505050505081565b3360008181526001602090815260408083206001600160a01b038716808552925280832085905551919290917f8c5be1e5ebec7d5bd14f71427d1e84f3dd0314c0f7b2291e5b200ac8c7c3b925906106729086815260200190565b60405180910390a350600192915050565b6010818154811061069357600080fd5b600091825260209091200154905081565b6001600160a01b03831660009081526001602090815260408083203384529091528120546000198114610700576106db8382615523565b6001600160a01b03861660009081526001602090815260408083203384529091529020555b6001600160a01b03851660009081526020819052604081208054859290610728908490615523565b90915550506001600160a01b038481166000818152602081815260409182902080548801905590518681529192881691600080516020615da9833981519152910160405180910390a360019150505b9392505050565b60007f000000000000000000000000000000000000000000000000000000000000000046146107b4576107af61210e565b905090565b5060055490565b60606107c56121a8565b600860009054906101000a90046001600160a01b03166001600160a01b031663db2030aa6040518163ffffffff1660e01b815260040160206040518083038186803b15801561081357600080fd5b505afa158015610827573d6000803e3d6000fd5b505050506040513d601f19601f8201168201806040525081019061084b919061554a565b5160408051808201909152600381526223292160e91b6020820152901561088e5760405162461bcd60e51b81526004016108859190614e10565b60405180910390fd5b50600060098054806020026020016040519081016040528092919081815260200182805480156108e757602002820191906000526020600020905b81546001600160a01b031681526001909101906020018083116108c9575b505060025493945050508115159050610a385760005b8251811015610a3657600c81815481106109195761091961557a565b9060005260206000200154600a6109309190615590565b8782815181106109425761094261557a565b60200260200101511015604051806040016040528060048152602001634c494d5560e01b815250906109875760405162461bcd60e51b81526004016108859190614e10565b50600c818154811061099b5761099b61557a565b9060005260206000200154600c82815481106109b9576109b961557a565b90600052602060002001546109ce9190615590565b8782815181106109e0576109e061557a565b60200260200101511115604051806040016040528060048152602001634c494d4f60e01b81525090610a255760405162461bcd60e51b81526004016108859190614e10565b50610a2f816155af565b90506108fd565b505b600080610a43611cac565b600b549193509150610a5781848688612202565b60025460085460405163110c1a4960e31b8152600481018490529195506000916001600160a01b0390911690638860d2489060240160e06040518083038186803b158015610aa457600080fd5b505afa158015610ab8573d6000803e3d6000fd5b505050506040513d601f19601f82011682018060405250810190610adc91906155d5565b905080604001511580610af55750610af56012336125cc565b6040518060400160405280600381526020016223292160e91b81525090610b2f5760405162461bcd60e51b81526004016108859190614e10565b506000808b516001600160401b03811115610b4c57610b4c614eee565b604051908082528060200260200182016040528015610b75578160200160208202803683370190505b5090506000610b85868e8a6125ee565b909350905060005b8951811015610c7357610bf3878281518110610bab57610bab61557a565b60200260200101518f8381518110610bc557610bc561557a565b6020026020010151868c86600c8781548110610be357610be361557a565b90600052602060002001546127dd565b838281518110610c0557610c0561557a565b602002602001018181525050610c633330858481518110610c2857610c2861557a565b60200260200101518d8581518110610c4257610c4261557a565b60200260200101516001600160a01b031661282d909392919063ffffffff16565b610c6c816155af565b9050610b8d565b5050610c7f818b612898565b98506000610c8e868b8a6125ee565b5090508b811015604051806040016040528060048152602001634c494d5560e01b81525090610cd05760405162461bcd60e51b81526004016108859190614e10565b506040805180820190915260028152612b2d60f11b602082015281610d085760405162461bcd60e51b81526004016108859190614e10565b50600854604051630248cd6d60e31b8152600481018790526000916001600160a01b0316906312466b6890602401604080518083038186803b158015610d4d57600080fd5b505afa158015610d61573d6000803e3d6000fd5b505050506040513d601f19601f82011682018060405250810190610d85919061567a565b80513360009081526020819052604090205491925090610da590846156b0565b1115604051806040016040528060048152602001634c494d4f60e01b81525090610de25760405162461bcd60e51b81526004016108859190614e10565b506020810151610df28a846156b0565b1115604051806040016040528060048152602001634c494d4f60e01b81525090610e2f5760405162461bcd60e51b81526004016108859190614e10565b5088610e4557610e40600083612b9f565b610e4f565b610e4f3383612b9f565b60005b600954811015610f17578b8181518110610e6e57610e6e61557a565b6020026020010151848281518110610e8857610e8861557a565b60200260200101511115610f0757610f07338d8381518110610eac57610eac61557a565b6020026020010151868481518110610ec657610ec661557a565b6020026020010151610ed89190615523565b60098481548110610eeb57610eeb61557a565b6000918252602090912001546001600160a01b03169190612bf7565b610f10816155af565b9050610e52565b5060a08501516001600160a01b03161561104e578460a001516001600160a01b031663e521826f6040518163ffffffff1660e01b8152600401600060405180830381600087803b158015610f6a57600080fd5b505af1925050508015610f7b575060015b61104e57610f876156c8565b806308c379a01415610fe45750610f9c6156e4565b80610fa75750610fe6565b7f15cdeddb22bdd09b20096a7331e944fed9e31228f6f906decf45288b8e4e4a7881604051610fd69190614e10565b60405180910390a15061104e565b505b7f15cdeddb22bdd09b20096a7331e944fed9e31228f6f906decf45288b8e4e4a78604051611045906020808252601e908201527f63616c6c6261636b206661696c656420776974686f757420726561736f6e0000604082015260600190565b60405180910390a15b336001600160a01b03167f8a0e0d2e597a2c18e7266d384fcd37c696485c4f2d04f8f90cebe3cf9453a15b60098d8560405161108c939291906157ab565b60405180910390a2505050505050505050506107776001600755565b6060600980548060200260200160405190810160405280929190818152602001828054801561110057602002820191906000526020600020905b81546001600160a01b031681526001909101906020018083116110e2575b5050505050905090565b61111684868585612c27565b61117561114b6040518060400160405280601081526020016f026b2b63637bb902638102a37b5b2b7160851b81525087612efa565b6111706040518060400160405280600381526020016204d4c560ec1b81525088612efa565b612f34565b8351806001600160401b0381111561118f5761118f614eee565b6040519080825280602002602001820160405280156111b8578160200160208202803683370190505b5080516111cd91601091602090910190614c66565b5050600f805467ffffffffffffffff1916426001600160401b0316179055601480546001600160a01b0319166001600160a01b039290921691909117905550505050565b6060600d80548060200260200160405190810160405280929190818152602001828054801561110057602002820191906000526020600020905b81548152602001906001019080831161124b575050505050905090565b60606112726121a8565b6002805460408051808201909152918252612b2d60f11b602083015290816112ad5760405162461bcd60e51b81526004016108859190614e10565b506000600980548060200260200160405190810160405280929190818152602001828054801561130657602002820191906000526020600020905b81546001600160a01b031681526001909101906020018083116112e8575b5050505050905060006009805490506001600160401b0381111561132c5761132c614eee565b604051908082528060200260200182016040528015611355578160200160208202803683370190505b5090506000611362611cac565b509050611373600b54828686612202565b6002543360009081526020819052604090205490945080891115611395578098505b60005b84518110156113f2576113c58a8483815181106113b7576113b761557a565b602002602001015188612f6b565b8482815181106113d7576113d761557a565b60209081029190910101526113eb816155af565b9050611398565b506113fe30848961301e565b95506000805b85518110156115705789818151811061141f5761141f61557a565b60200260200101518882815181106114395761143961557a565b60200260200101511015604051806040016040528060048152602001634c494d5560e01b8152509061147e5760405162461bcd60e51b81526004016108859190614e10565b508781815181106114915761149161557a565b6020026020010151600c82815481106114ac576114ac61557a565b90600052602060002001546114c191906156b0565b6114e5848684815181106114d7576114d761557a565b60200260200101518a612f6b565b106114ef57600191505b8781815181106115015761150161557a565b6020026020010151600014611560576115608c8983815181106115265761152661557a565b60200260200101518884815181106115405761154061557a565b60200260200101516001600160a01b0316612bf79092919063ffffffff16565b611569816155af565b9050611404565b5061157a8761377c565b801561158f5761158a338b613a87565b611599565b6115993383613a87565b600b5460085460405163110c1a4960e31b8152600481018390526000916001600160a01b031690638860d2489060240160e06040518083038186803b1580156115e157600080fd5b505afa1580156115f5573d6000803e3d6000fd5b505050506040513d601f19601f8201168201806040525081019061161991906155d5565b60c08101519091506001600160a01b031615611752578060c001516001600160a01b031663b4559f3e6040518163ffffffff1660e01b8152600401600060405180830381600087803b15801561166e57600080fd5b505af192505050801561167f575060015b6117525761168b6156c8565b806308c379a014156116e857506116a06156e4565b806116ab57506116ea565b7f463d36dc456538707e7943e90baea3c0f5b709889785a57b9736e5ae56b4b130816040516116da9190614e10565b60405180910390a150611752565b505b7f463d36dc456538707e7943e90baea3c0f5b709889785a57b9736e5ae56b4b130604051611749906020808252601e908201527f63616c6c6261636b206661696c656420776974686f757420726561736f6e0000604082015260600190565b60405180910390a15b336001600160a01b03167f91e54360cfab588303c49bbbb2869608cb9a9fd5ff9b4431f86988f91290421d60098b8f604051611790939291906157ab565b60405180910390a250505050505050506117aa6001600755565b949350505050565b6117ba613ae9565b60005b8181101561180a576117f78383838181106117da576117da61557a565b90506020020160208101906117ef9190614ed1565b601290613d3c565b5080611802816155af565b9150506117bd565b505050565b60048054610596906154d2565b600080600d83815481106118325761183261557a565b90600052602060002001549050600860009054906101000a90046001600160a01b03166001600160a01b0316637ac46fbb6040518163ffffffff1660e01b815260040160606040518083038186803b15801561188d57600080fd5b505afa1580156118a1573d6000803e3d6000fd5b505050506040513d601f19601f820116820180604052508101906118c591906157e1565b60200151604051639c94d85360e01b8152600481018390526001600160a01b0390911690639c94d8539060240160206040518083038186803b15801561190a57600080fd5b505afa15801561191e573d6000803e3d6000fd5b505050506040513d601f19601f820116820180604052508101906107779190615852565b60606107af6012613d51565b3360009081526020819052604081208054839190839061196f908490615523565b90915550506001600160a01b0383166000818152602081815260409182902080548601905590518481523391600080516020615da98339815191529101610672565b6060600c805480602002602001604051908101604052809291908181526020018280548015611100576020028201919060005260206000209081548152602001906001019080831161124b575050505050905090565b604080518082019091526002815261545360f01b602082015242851015611a415760405162461bcd60e51b81526004016108859190614e10565b506000611a4c61077e565b6001600160a01b038981166000818152600660209081526040918290205482517f6e71edae12b1b97f4d1f60370fef10105fa2faae0126114a169c64845d6126c98184015280840194909452938c166060840152608083018b905260a083019390935260c08083018a90528151808403909101815260e08301909152805192019190912061190160f01b6101008301526101028201929092526101228101919091526101420160408051808303601f1901815282825280516020918201206001600160a01b038c166000908152600683528381208054600190810190915581865292850180855282905260ff89169385019390935260608401879052608084018690529350909160a0016020604051602081039080840390855afa158015611b78573d6000803e3d6000fd5b5050604051601f1901519150506001600160a01b03811615801590611bae5750886001600160a01b0316816001600160a01b0316145b6040518060400160405280600381526020016223292160e91b81525090611be85760405162461bcd60e51b81526004016108859190614e10565b506001600160a01b0390811660009081526001602090815260408083208b8516808552908352928190208a905551898152919350918a16917f8c5be1e5ebec7d5bd14f71427d1e84f3dd0314c0f7b2291e5b200ac8c7c3b925910160405180910390a350505050505050565b611c5c613ae9565b60005b8181101561180a57611c99838383818110611c7c57611c7c61557a565b9050602002016020810190611c919190614ed1565b601290613d5e565b5080611ca4816155af565b915050611c5f565b6060806000600860009054906101000a90046001600160a01b03166001600160a01b0316637ac46fbb6040518163ffffffff1660e01b815260040160606040518083038186803b158015611cff57600080fd5b505afa158015611d13573d6000803e3d6000fd5b505050506040513d601f19601f82011682018060405250810190611d3791906157e1565b60200151905060006009805480602002602001604051908101604052809291908181526020018280548015611d9557602002820191906000526020600020905b81546001600160a01b03168152600190910190602001808311611d77575b5050505050905080516001600160401b03811115611db557611db5614eee565b604051908082528060200260200182016040528015611dde578160200160208202803683370190505b50935080516001600160401b03811115611dfa57611dfa614eee565b604051908082528060200260200182016040528015611e23578160200160208202803683370190505b50925060005b600d548110156120e7576000836001600160a01b0316639c94d853600d8481548110611e5757611e5761557a565b90600052602060002001546040518263ffffffff1660e01b8152600401611e8091815260200190565b60206040518083038186803b158015611e9857600080fd5b505afa158015611eac573d6000803e3d6000fd5b505050506040513d601f19601f82011682018060405250810190611ed09190615852565b9050600080826001600160a01b031663e5328e066040518163ffffffff1660e01b815260040160006040518083038186803b158015611f0e57600080fd5b505afa158015611f22573d6000803e3d6000fd5b505050506040513d6000823e601f3d908101601f19168201604052611f4a91908101906158d5565b915091506000836001600160a01b031663697222336040518163ffffffff1660e01b815260040160006040518083038186803b158015611f8957600080fd5b505afa158015611f9d573d6000803e3d6000fd5b505050506040513d6000823e601f3d908101601f19168201604052611fc59190810190615938565b90506000805b875181108015611fdb5750825182105b156120d057878181518110611ff257611ff261557a565b60200260200101516001600160a01b03168383815181106120155761201561557a565b60200260200101516001600160a01b031614156120c05784828151811061203e5761203e61557a565b60200260200101518b82815181106120585761205861557a565b6020026020010181815161206c91906156b0565b90525083518490839081106120835761208361557a565b60200260200101518a828151811061209d5761209d61557a565b602002602001018181516120b191906156b0565b9052506120bd826155af565b91505b6120c9816155af565b9050611fcb565b505050505050806120e0906155af565b9050611e29565b5050509091565b60006120f982613d73565b806105835750506001600160e01b0319161590565b60007f8b73c3c69bb8fe3d512ecc4cf759cc79239f7b179b0ffacaa9a75d522b39400f600360405161214091906159d1565b6040805191829003822060208301939093528101919091527fc89efdaa54c0f20c7adf612882df0950f5a951637e0307cdcb4c672f298b8bc660608201524660808201523060a082015260c00160405160208183030381529060405280519060200120905090565b600260075414156121fb5760405162461bcd60e51b815260206004820152601f60248201527f5265656e7472616e637947756172643a207265656e7472616e742063616c6c006044820152606401610885565b6002600755565b600854600f546001600160a01b039091169060009061222a906001600160401b031642615523565b90506000826001600160a01b031663d34cc3806040518163ffffffff1660e01b8152600401604080518083038186803b15801561226657600080fd5b505afa15801561227a573d6000803e3d6000fd5b505050506040513d601f19601f8201168201806040525081019061229e9190615a6d565b80519091508210156122b2575050506125c6565b600f805467ffffffffffffffff1916426001600160401b0316179055846122db575050506125c6565b6000600190506000600c80548060200260200160405190810160405280929190818152602001828054801561232f57602002820191906000526020600020905b81548152602001906001019080831161231b575b5050505050905060005b8151811015612394578181815181106123545761235461557a565b602002602001015189828151811061236e5761236e61557a565b6020026020010151106123845760009250612394565b61238d816155af565b9050612339565b5081156123a55750505050506125c6565b505060405163110c1a4960e31b8152600481018890526000906001600160a01b03851690638860d2489060240160e06040518083038186803b1580156123ea57600080fd5b505afa1580156123fe573d6000803e3d6000fd5b505050506040513d601f19601f8201168201806040525081019061242291906155d5565b60405163dbb1c35f60e01b8152600481018a90529091506000906001600160a01b0386169063dbb1c35f9060240160206040518083038186803b15801561246857600080fd5b505afa15801561247c573d6000803e3d6000fd5b505050506040513d601f19601f820116820180604052508101906124a09190615aa9565b6000015190506000856001600160a01b0316637ac46fbb6040518163ffffffff1660e01b815260040160606040518083038186803b1580156124e157600080fd5b505afa1580156124f5573d6000803e3d6000fd5b505050506040513d601f19601f8201168201806040525081019061251991906157e1565b600001516001600160a01b031663803db96d6040518163ffffffff1660e01b815260040160206040518083038186803b15801561255557600080fd5b505afa158015612569573d6000803e3d6000fd5b505050506040513d601f19601f8201168201806040525081019061258d9190615852565b90506125a5836060015183856000015184898d613da9565b6125bf888a856080015186602001518b8960200151613e97565b5050505050505b50505050565b6001600160a01b03811660009081526001830160205260408120541515610777565b6000808261265a5760005b855181101561265057828582815181106126155761261561557a565b60200260200101511115612640578481815181106126355761263561557a565b602002602001015192505b612649816155af565b90506125f9565b50600090506127d5565b600085519050600080600c8054806020026020016040519081016040528092919081815260200182805480156126af57602002820191906000526020600020905b81548152602001906001019080831161269b575b5050505050905060005b8381101561276c578181815181106126d3576126d361557a565b60200260200101518982815181106126ed576126ed61557a565b602002602001015110156127005761275c565b600061273f8983815181106127175761271761557a565b6020026020010151898c85815181106127325761273261557a565b6020026020010151612f6b565b90508681108061274d575083155b1561275a57600193508096505b505b612765816155af565b90506126b9565b50819350836127d15760005b88518110156127cf57858882815181106127945761279461557a565b602002602001015111156127bf578781815181106127b4576127b461557a565b602002602001015195505b6127c8816155af565b9050612778565b505b5050505b935093915050565b60008315806127ea575082155b156127f6575084612823565b8187101561280657506000612823565b6000612813888787612f6b565b9050868111156128205750855b90505b9695505050505050565b6040516001600160a01b03808516602483015283166044820152606481018290526125c69085906323b872dd60e01b906084015b60408051601f198184030181529190526020810180516001600160e01b03166001600160e01b031990931692909217909152613feb565b600b546040805180820190915260048152631253925560e21b60208201526060916128d65760405162461bcd60e51b81526004016108859190614e10565b5060085460408051637ac46fbb60e01b815290516000926001600160a01b031691637ac46fbb916004808301926060929190829003018186803b15801561291c57600080fd5b505afa158015612930573d6000803e3d6000fd5b505050506040513d601f19601f8201168201806040525081019061295491906157e1565b90506000600d60008154811061296c5761296c61557a565b906000526020600020015490506000826020015190506000816001600160a01b0316639c94d853846040518263ffffffff1660e01b81526004016129b291815260200190565b60206040518083038186803b1580156129ca57600080fd5b505afa1580156129de573d6000803e3d6000fd5b505050506040513d601f19601f82011682018060405250810190612a029190615852565b905060005b600954811015612a92576000888281518110612a2557612a2561557a565b60200260200101511115612a8057612a8082898381518110612a4957612a4961557a565b602002602001015160098481548110612a6457612a6461557a565b6000918252602090912001546001600160a01b031691906140c0565b80612a8a816155af565b915050612a07565b506040516313d1af2d60e11b81526001600160a01b038216906327a35e5a90612ac69030906009908c908c90600401615ad1565b600060405180830381600087803b158015612ae057600080fd5b505af1158015612af4573d6000803e3d6000fd5b505050506040513d6000823e601f3d908101601f19168201604052612b1c9190810190615b1b565b945060005b600954811015612b94576000888281518110612b3f57612b3f61557a565b60200260200101511115612b8257612b8282600060098481548110612b6657612b6661557a565b6000918252602090912001546001600160a01b0316919061417c565b80612b8c816155af565b915050612b21565b505050505092915050565b8060026000828254612bb191906156b0565b90915550506001600160a01b03821660008181526020818152604080832080548601905551848152600080516020615da983398151915291015b60405180910390a35050565b6040516001600160a01b03831660248201526044810182905261180a90849063a9059cbb60e01b90606401612861565b6000336001600160a01b0316637ac46fbb6040518163ffffffff1660e01b815260040160606040518083038186803b158015612c6257600080fd5b505afa158015612c76573d6000803e3d6000fd5b505050506040513d601f19601f82011682018060405250810190612c9a91906157e1565b60200151905060005b8251811015612ed4576000838281518110612cc057612cc061557a565b60200260200101519050306001600160a01b0316836001600160a01b0316636352211e836040518263ffffffff1660e01b8152600401612d0291815260200190565b60206040518083038186803b158015612d1a57600080fd5b505afa158015612d2e573d6000803e3d6000fd5b505050506040513d601f19601f82011682018060405250810190612d529190615852565b6001600160a01b0316146040518060400160405280600381526020016223292160e91b81525090612d965760405162461bcd60e51b81526004016108859190614e10565b50600e6000828152602001908152602001600020546000146040518060400160405280600381526020016204455560ec1b81525090612de85760405162461bcd60e51b81526004016108859190614e10565b5060405163095ea7b360e01b81526001600160a01b0386811660048301526024820183905284169063095ea7b390604401600060405180830381600087803b158015612e3357600080fd5b505af1158015612e47573d6000803e3d6000fd5b5050604051634dcbc73960e01b8152600481018490526001600160a01b0386169250634dcbc7399150602401600060405180830381600087803b158015612e8d57600080fd5b505af1158015612ea1573d6000803e3d6000fd5b50505050816001612eb291906156b0565b6000918252600e60205260409091205580612ecc816155af565b915050612ca3565b508151612ee890600d906020850190614c66565b50612ef385856142a0565b5050505050565b60606000612f078361472c565b90508381604051602001612f1c929190615b4f565b60405160208183030381529060405291505092915050565b8151612f47906003906020850190614cb1565b508051612f5b906004906020840190614cb1565b50612f6461210e565b6005555050565b600080806000198587098587029250828110838203039150508060001415612fa55760008411612f9a57600080fd5b508290049050610777565b808411612fb157600080fd5b6000848688096000868103871696879004966002600389028118808a02820302808a02820302808a02820302808a02820302808a02820302808a02909103029181900381900460010186841190950394909402919094039290920491909117919091029150509392505050565b600b546040805180820190915260048152631253925560e21b602082015260609161305c5760405162461bcd60e51b81526004016108859190614e10565b50600d5482516040805180820190915260048152631253959360e21b6020820152911461309c5760405162461bcd60e51b81526004016108859190614e10565b5060085460408051637ac46fbb60e01b815290516000926001600160a01b031691637ac46fbb916004808301926060929190829003018186803b1580156130e257600080fd5b505afa1580156130f6573d6000803e3d6000fd5b505050506040513d601f19601f8201168201806040525081019061311a91906157e1565b60200151905083516001600160401b0381111561313957613139614eee565b604051908082528060200260200182016040528015613162578160200160208202803683370190505b509150600060098054806020026020016040519081016040528092919081815260200182805480156131bd57602002820191906000526020600020905b81546001600160a01b0316815260019091019060200180831161319f575b505050505090506000600c80548060200260200160405190810160405280929190818152602001828054801561321257602002820191906000526020600020905b8154815260200190600101908083116131fe575b50505050509050600086516001600160401b0381111561323457613234614eee565b60405190808252806020026020018201604052801561325d578160200160208202803683370190505b50905060005b83518110156132b55787818151811061327e5761327e61557a565b60200260200101518282815181106132985761329861557a565b6020908102919091010152806132ad816155af565b915050613263565b5060005b600d54811015613517576000600d82815481106132d8576132d861557a565b6000918252602082200154604051639c94d85360e01b8152600481018290529092506001600160a01b03881690639c94d8539060240160206040518083038186803b15801561332657600080fd5b505afa15801561333a573d6000803e3d6000fd5b505050506040513d601f19601f8201168201806040525081019061335e9190615852565b90506000816001600160a01b0316632062d7543089888e89815181106133865761338661557a565b60200260200101516040518563ffffffff1660e01b81526004016133ad9493929190615b7e565b600060405180830381600087803b1580156133c757600080fd5b505af11580156133db573d6000803e3d6000fd5b505050506040513d6000823e601f3d908101601f191682016040526134039190810190615b1b565b9050600160005b88518110156134f0578781815181106134255761342561557a565b602002602001015183828151811061343f5761343f61557a565b602002602001015161345191906156b0565b8782815181106134635761346361557a565b602002602001015111156134bd57600091508281815181106134875761348761557a565b60200260200101518782815181106134a1576134a161557a565b602002602001018181516134b59190615523565b9052506134de565b60008782815181106134d1576134d161557a565b6020026020010181815250505b806134e8816155af565b91505061340a565b5080156135005750505050613517565b50505050808061350f906155af565b9150506132b9565b506000846001600160a01b0316639c94d853600d60008154811061353d5761353d61557a565b90600052602060002001546040518263ffffffff1660e01b815260040161356691815260200190565b60206040518083038186803b15801561357e57600080fd5b505afa158015613592573d6000803e3d6000fd5b505050506040513d601f19601f820116820180604052508101906135b69190615852565b905060005b845181101561376f5760008582815181106135d8576135d861557a565b60209081029190910101516040516370a0823160e01b81523060048201526001600160a01b03909116906370a082319060240160206040518083038186803b15801561362357600080fd5b505afa158015613637573d6000803e3d6000fd5b505050506040513d601f19601f8201168201806040525081019061365b9190615ba2565b9050808a83815181106136705761367061557a565b60200260200101511015613726578982815181106136905761369061557a565b60200260200101518883815181106136aa576136aa61557a565b6020026020010181815250506136e68b8b84815181106136cc576136cc61557a565b60200260200101518885815181106115405761154061557a565b613721838b84815181106136fc576136fc61557a565b60200260200101518361370f9190615523565b8885815181106115405761154061557a565b61375c565b808883815181106137395761373961557a565b60200260200101818152505061375c8b828885815181106115405761154061557a565b5080613767816155af565b9150506135bb565b5050505050509392505050565b600081516001600160401b0381111561379757613797614eee565b6040519080825280602002602001820160405280156137c0578160200160208202803683370190505b5060085460408051637ac46fbb60e01b8152905192935042926000926001600160a01b031691637ac46fbb916004808301926060929190829003018186803b15801561380b57600080fd5b505afa15801561381f573d6000803e3d6000fd5b505050506040513d601f19601f8201168201806040525081019061384391906157e1565b51600f549091506001600160401b03838116600160401b909204161461389257600f80546fffffffffffffffff00000000000000001916600160401b6001600160401b038516021790556138ed565b60005b84518110156138eb57601081815481106138b1576138b161557a565b90600052602060002001548482815181106138ce576138ce61557a565b6020908102919091010152806138e3816155af565b915050613895565b505b60005b8451811015612ef35784818151811061390b5761390b61557a565b60200260200101518482815181106139255761392561557a565b6020026020010181815161393991906156b0565b905250600980546001600160a01b0384169163fce33f0191849081106139615761396161557a565b60009182526020909120015460405160e083901b6001600160e01b03191681526001600160a01b03909116600482015260240160206040518083038186803b1580156139ac57600080fd5b505afa1580156139c0573d6000803e3d6000fd5b505050506040513d601f19601f820116820180604052508101906139e49190615ba2565b8482815181106139f6576139f661557a565b60200260200101511115604051806040016040528060048152602001634c494d4f60e01b81525090613a3b5760405162461bcd60e51b81526004016108859190614e10565b50838181518110613a4e57613a4e61557a565b602002602001015160108281548110613a6957613a6961557a565b60009182526020909120015580613a7f816155af565b9150506138f0565b6001600160a01b03821660009081526020819052604081208054839290613aaf908490615523565b90915550506002805482900390556040518181526000906001600160a01b03841690600080516020615da983398151915290602001612beb565b600b5460085460408051637ac46fbb60e01b815290516000926001600160a01b031691637ac46fbb916004808301926060929190829003018186803b158015613b3157600080fd5b505afa158015613b45573d6000803e3d6000fd5b505050506040513d601f19601f82011682018060405250810190613b6991906157e1565b8051604051630935e01b60e21b81523360048201529192506001600160a01b0316906324d7806c9060240160206040518083038186803b158015613bac57600080fd5b505afa158015613bc0573d6000803e3d6000fd5b505050506040513d601f19601f82011682018060405250810190613be49190615bbb565b80613c735750602081015160405163020604bf60e21b81526004810184905233916001600160a01b03169063081812fc9060240160206040518083038186803b158015613c3057600080fd5b505afa158015613c44573d6000803e3d6000fd5b505050506040513d601f19601f82011682018060405250810190613c689190615852565b6001600160a01b0316145b80613d02575060208101516040516331a9108f60e11b81526004810184905233916001600160a01b031690636352211e9060240160206040518083038186803b158015613cbf57600080fd5b505afa158015613cd3573d6000803e3d6000fd5b505050506040513d601f19601f82011682018060405250810190613cf79190615852565b6001600160a01b0316145b6040518060400160405280600381526020016223292160e91b8152509061180a5760405162461bcd60e51b81526004016108859190614e10565b6000610777836001600160a01b0384166147c8565b6060600061077783614817565b6000610777836001600160a01b038416614873565b60006301ffc9a760e01b6001600160e01b03198316148061058357506001600160e01b0319821663305a640b60e21b1492915050565b8515613e28576000613dd6613dbe8489615590565b83613dd1633b9aca006301e13380615590565b612f6b565b9050613de28582612b9f565b60408051888152602081018390526001600160a01b038716917ff128e63f8c1601609ed0ca497b3c0aef18a94da6579e4230bae6eca9c5de3c0b910160405180910390a2505b8415613e8f576000613e3d613dbe8488615590565b9050613e498482612b9f565b60408051878152602081018390526001600160a01b038616917f8e65e88a246d15f0b922b1ccbe4df44ab60cdea0aead3dfe00faebea0d8817b0910160405180910390a2505b505050505050565b831580613ea2575085155b15613eac57613e8f565b6014546040516312f6244560e21b81526000916001600160a01b031690634bd8911490613ee190899087908790600401615bd6565b60206040518083038186803b158015613ef957600080fd5b505afa158015613f0d573d6000803e3d6000fd5b505050506040513d601f19601f82011682018060405250810190613f319190615ba2565b90506000613f4882670de0b6b3a76400008a612f6b565b601154909150808211613f5d57505050613e8f565b60008115613f9657613f798a613f738486615523565b84612f6b565b9050613f8a8189633b9aca00612f6b565b9050613f968782612b9f565b601183905560408051898152602081018390526001600160a01b038916917fd935d6b9af5232b71790c40552a0436920efa18da75df1474e95aef999d8f5f8910160405180910390a250505050505050505050565b6000614040826040518060400160405280602081526020017f5361666545524332303a206c6f772d6c6576656c2063616c6c206661696c6564815250856001600160a01b03166149669092919063ffffffff16565b90508051600014806140615750808060200190518101906140619190615bbb565b61180a5760405162461bcd60e51b815260206004820152602a60248201527f5361666545524332303a204552433230206f7065726174696f6e20646964206e6044820152691bdd081cdd58d8d9595960b21b6064820152608401610885565b604051636eb1769f60e11b81523060048201526001600160a01b0383811660248301526000919085169063dd62ed3e9060440160206040518083038186803b15801561410b57600080fd5b505afa15801561411f573d6000803e3d6000fd5b505050506040513d601f19601f820116820180604052508101906141439190615ba2565b90506125c68463095ea7b360e01b8561415c86866156b0565b6040516001600160a01b0390921660248301526044820152606401612861565b8015806142055750604051636eb1769f60e11b81523060048201526001600160a01b03838116602483015284169063dd62ed3e9060440160206040518083038186803b1580156141cb57600080fd5b505afa1580156141df573d6000803e3d6000fd5b505050506040513d601f19601f820116820180604052508101906142039190615ba2565b155b6142705760405162461bcd60e51b815260206004820152603660248201527f5361666545524332303a20617070726f76652066726f6d206e6f6e2d7a65726f60448201527520746f206e6f6e2d7a65726f20616c6c6f77616e636560501b6064820152608401610885565b6040516001600160a01b03831660248201526044810182905261180a90849063095ea7b360e01b90606401612861565b600b546040805180820190915260048152631253925560e21b602082015290156142dd5760405162461bcd60e51b81526004016108859190614e10565b506142e782614975565b60405180604001604052806004815260200163494e564160e01b815250906143225760405162461bcd60e51b81526004016108859190614e10565b506040805180820190915260028152612b2d60f11b60208201528161435a5760405162461bcd60e51b81526004016108859190614e10565b506000336001600160a01b0316637ac46fbb6040518163ffffffff1660e01b815260040160606040518083038186803b15801561439657600080fd5b505afa1580156143aa573d6000803e3d6000fd5b505050506040513d601f19601f820116820180604052508101906143ce91906157e1565b518351909150158015906144535750806001600160a01b03166378546fa26040518163ffffffff1660e01b815260040160206040518083038186803b15801561441657600080fd5b505afa15801561442a573d6000803e3d6000fd5b505050506040513d601f19601f8201168201806040525081019061444e9190615ba2565b835111155b6040518060400160405280600381526020016224a72b60e91b8152509061448d5760405162461bcd60e51b81526004016108859190614e10565b5060005b835181101561459157816001600160a01b03166363e85d2d8583815181106144bb576144bb61557a565b60209081029190910101516040516001600160e01b031960e084901b1681526001600160a01b0390911660048201526003602482015260440160206040518083038186803b15801561450c57600080fd5b505afa158015614520573d6000803e3d6000fd5b505050506040513d601f19601f820116820180604052508101906145449190615bbb565b6040518060400160405280600381526020016223292160e91b8152509061457e5760405162461bcd60e51b81526004016108859190614e10565b5080614589816155af565b915050614491565b50600880546001600160a01b0319163317905582516145b7906009906020860190614d24565b50600b82905560095460005b818110156146e7576145d68160016156b0565b600a60008784815181106145ec576145ec61557a565b60200260200101516001600160a01b03166001600160a01b0316815260200190815260200160002081905550600085828151811061462c5761462c61557a565b60200260200101519050600c6002826001600160a01b031663313ce5676040518163ffffffff1660e01b815260040160206040518083038186803b15801561467357600080fd5b505afa158015614687573d6000803e3d6000fd5b505050506040513d601f19601f820116820180604052508101906146ab9190615c14565b6146b59190615c31565b6146c090600a615d45565b81546001810183556000928352602090922090910155506146e0816155af565b90506145c3565b50604051339032907f0f043e55a1ce0d7ce25125ccbc2800b540d83e21abf7250f0156c2091a28b2219061471e9088908890615d54565b60405180910390a350505050565b6060600061473983614a18565b60010190506000816001600160401b0381111561475857614758614eee565b6040519080825280601f01601f191660200182016040528015614782576020820181803683370190505b5090508181016020015b600019016f181899199a1a9b1b9c1cb0b131b232b360811b600a86061a8153600a85049450846147bb576147c0565b61478c565b509392505050565b600081815260018301602052604081205461480f57508154600181810184556000848152602080822090930184905584548482528286019093526040902091909155610583565b506000610583565b60608160000180548060200260200160405190810160405280929190818152602001828054801561486757602002820191906000526020600020905b815481526020019060010190808311614853575b50505050509050919050565b6000818152600183016020526040812054801561495c576000614897600183615523565b85549091506000906148ab90600190615523565b90508181146149105760008660000182815481106148cb576148cb61557a565b90600052602060002001549050808760000184815481106148ee576148ee61557a565b6000918252602080832090910192909255918252600188019052604090208390555b855486908061492157614921615d76565b600190038181906000526020600020016000905590558560010160008681526020019081526020016000206000905560019350505050610583565b6000915050610583565b60606117aa8484600085614af0565b600060028251101561498957506001919050565b60005b6001835161499a9190615523565b811015614a0f57826149ad8260016156b0565b815181106149bd576149bd61557a565b60200260200101516001600160a01b03168382815181106149e0576149e061557a565b60200260200101516001600160a01b0316106149ff5750600092915050565b614a08816155af565b905061498c565b50600192915050565b60008072184f03e93ff9f4daa797ed6e38ed64bf6a1f0160401b8310614a575772184f03e93ff9f4daa797ed6e38ed64bf6a1f0160401b830492506040015b6d04ee2d6d415b85acef81000000008310614a83576d04ee2d6d415b85acef8100000000830492506020015b662386f26fc100008310614aa157662386f26fc10000830492506010015b6305f5e1008310614ab9576305f5e100830492506008015b6127108310614acd57612710830492506004015b60648310614adf576064830492506002015b600a83106105835760010192915050565b606082471015614b515760405162461bcd60e51b815260206004820152602660248201527f416464726573733a20696e73756666696369656e742062616c616e636520666f6044820152651c8818d85b1b60d21b6064820152608401610885565b600080866001600160a01b03168587604051614b6d9190615d8c565b60006040518083038185875af1925050503d8060008114614baa576040519150601f19603f3d011682016040523d82523d6000602084013e614baf565b606091505b5091509150614bc087838387614bcb565b979650505050505050565b60608315614c37578251614c30576001600160a01b0385163b614c305760405162461bcd60e51b815260206004820152601d60248201527f416464726573733a2063616c6c20746f206e6f6e2d636f6e74726163740000006044820152606401610885565b50816117aa565b6117aa8383815115614c4c5781518083602001fd5b8060405162461bcd60e51b81526004016108859190614e10565b828054828255906000526020600020908101928215614ca1579160200282015b82811115614ca1578251825591602001919060010190614c86565b50614cad929150614d79565b5090565b828054614cbd906154d2565b90600052602060002090601f016020900481019282614cdf5760008555614ca1565b82601f10614cf857805160ff1916838001178555614ca1565b82800160010185558215614ca15791820182811115614ca1578251825591602001919060010190614c86565b828054828255906000526020600020908101928215614ca1579160200282015b82811115614ca157825182546001600160a01b0319166001600160a01b03909116178255602090920191600190910190614d44565b5b80821115614cad5760008155600101614d7a565b600060208284031215614da057600080fd5b81356001600160e01b03198116811461077757600080fd5b60005b83811015614dd3578181015183820152602001614dbb565b838111156125c65750506000910152565b60008151808452614dfc816020860160208601614db8565b601f01601f19169290920160200192915050565b6020815260006107776020830184614de4565b6001600160a01b0381168114614e3857600080fd5b50565b8035614e4681614e23565b919050565b60008060408385031215614e5e57600080fd5b8235614e6981614e23565b946020939093013593505050565b600060208284031215614e8957600080fd5b5035919050565b600080600060608486031215614ea557600080fd5b8335614eb081614e23565b92506020840135614ec081614e23565b929592945050506040919091013590565b600060208284031215614ee357600080fd5b813561077781614e23565b634e487b7160e01b600052604160045260246000fd5b602081018181106001600160401b0382111715614f2357614f23614eee565b60405250565b604081018181106001600160401b0382111715614f2357614f23614eee565b601f8201601f191681016001600160401b0381118282101715614f6d57614f6d614eee565b6040525050565b60006001600160401b03821115614f8d57614f8d614eee565b5060051b60200190565b600082601f830112614fa857600080fd5b81356020614fb582614f74565b604051614fc28282614f48565b83815260059390931b8501820192828101915086841115614fe257600080fd5b8286015b84811015614ffd5780358352918301918301614fe6565b509695505050505050565b600082601f83011261501957600080fd5b81356001600160401b0381111561503257615032614eee565b604051615049601f8301601f191660200182614f48565b81815284602083860101111561505e57600080fd5b816020850160208301376000918101602001919091529392505050565b60008060006060848603121561509057600080fd5b83356001600160401b03808211156150a757600080fd5b6150b387838801614f97565b94506020860135935060408601359150808211156150d057600080fd5b506150dd86828701615008565b9150509250925092565b600081518084526020808501945080840160005b83811015615117578151875295820195908201906001016150fb565b509495945050505050565b60208152600061077760208301846150e7565b600081518084526020808501945080840160005b838110156151175781516001600160a01b031687529582019590820190600101615149565b6020815260006107776020830184615135565b600080600080600060a0868803121561519957600080fd5b853594506020808701356001600160401b03808211156151b857600080fd5b818901915089601f8301126151cc57600080fd5b81356151d781614f74565b6040516151e48282614f48565b82815260059290921b840185019185810191508c83111561520457600080fd5b938501935b8285101561522b57843561521c81614e23565b82529385019390850190615209565b985061523c91505060408a01614e3b565b9550606089013592508083111561525257600080fd5b505061526088828901614f97565b92505061526f60808701614e3b565b90509295509295909350565b6000806000806080858703121561529157600080fd5b843561529c81614e23565b9350602085810135935060408601356001600160401b03808211156152c057600080fd5b6152cc89838a01614f97565b945060608801359150808211156152e257600080fd5b818801915088601f8301126152f657600080fd5b813561530181614f74565b60405161530e8282614f48565b82815260059290921b840185019185810191508b83111561532e57600080fd5b8585015b838110156153665780358581111561534a5760008081fd5b6153588e89838a0101615008565b845250918601918601615332565b50989b979a50959850505050505050565b6000806020838503121561538a57600080fd5b82356001600160401b03808211156153a157600080fd5b818501915085601f8301126153b557600080fd5b8135818111156153c457600080fd5b8660208260051b85010111156153d957600080fd5b60209290920196919550909350505050565b60ff81168114614e3857600080fd5b600080600080600080600060e0888a03121561541557600080fd5b873561542081614e23565b9650602088013561543081614e23565b95506040880135945060608801359350608088013561544e816153eb565b9699959850939692959460a0840135945060c09093013592915050565b6000806040838503121561547e57600080fd5b823561548981614e23565b9150602083013561549981614e23565b809150509250929050565b6040815260006154b760408301856150e7565b82810360208401526154c981856150e7565b95945050505050565b600181811c908216806154e657607f821691505b6020821081141561550757634e487b7160e01b600052602260045260246000fd5b50919050565b634e487b7160e01b600052601160045260246000fd5b6000828210156155355761553561550d565b500390565b80518015158114614e4657600080fd5b60006020828403121561555c57600080fd5b60405161556881614f04565b6155718361553a565b81529392505050565b634e487b7160e01b600052603260045260246000fd5b60008160001904831182151516156155aa576155aa61550d565b500290565b60006000198214156155c3576155c361550d565b5060010190565b8051614e4681614e23565b600060e082840312156155e757600080fd5b60405160e081018181106001600160401b038211171561560957615609614eee565b604052825161561781614e23565b8152602083015161562781614e23565b60208201526156386040840161553a565b6040820152606083015160608201526080830151608082015261565d60a084016155ca565b60a082015261566e60c084016155ca565b60c08201529392505050565b60006040828403121561568c57600080fd5b60405161569881614f29565b82518152602083015160208201528091505092915050565b600082198211156156c3576156c361550d565b500190565b600060033d11156156e15760046000803e5060005160e01c5b90565b600060443d10156156f25790565b6040516003193d81016004833e81513d6001600160401b03816024840111818411171561572157505050505090565b82850191508151818111156157395750505050505090565b843d87010160208285010111156157535750505050505090565b61576260208286010187614f48565b509095945050505050565b6000815480845260208085019450836000528060002060005b838110156151175781546001600160a01b031687529582019560019182019101615786565b6060815260006157be606083018661576d565b82810360208401526157d081866150e7565b915050826040830152949350505050565b6000606082840312156157f357600080fd5b604051606081018181106001600160401b038211171561581557615815614eee565b604052825161582381614e23565b8152602083015161583381614e23565b6020820152604083015161584681614e23565b60408201529392505050565b60006020828403121561586457600080fd5b815161077781614e23565b600082601f83011261588057600080fd5b8151602061588d82614f74565b60405161589a8282614f48565b83815260059390931b85018201928281019150868411156158ba57600080fd5b8286015b84811015614ffd57805183529183019183016158be565b600080604083850312156158e857600080fd5b82516001600160401b03808211156158ff57600080fd5b61590b8683870161586f565b9350602085015191508082111561592157600080fd5b5061592e8582860161586f565b9150509250929050565b6000602080838503121561594b57600080fd5b82516001600160401b0381111561596157600080fd5b8301601f8101851361597257600080fd5b805161597d81614f74565b60405161598a8282614f48565b82815260059290921b83018401918481019150878311156159aa57600080fd5b928401925b82841015614bc05783516159c281614e23565b825292840192908401906159af565b600080835481600182811c9150808316806159ed57607f831692505b6020808410821415615a0d57634e487b7160e01b86526022600452602486fd5b818015615a215760018114615a3257615a5f565b60ff19861689528489019650615a5f565b60008a81526020902060005b86811015615a575781548b820152908501908301615a3e565b505084890196505b509498975050505050505050565b600060408284031215615a7f57600080fd5b604051615a8b81614f29565b825181526020830151615a9d81614e23565b60208201529392505050565b600060208284031215615abb57600080fd5b604051615ac781614f04565b9151825250919050565b6001600160a01b0385168152608060208201819052600090615af59083018661576d565b8281036040840152615b0781866150e7565b90508281036060840152614bc08185614de4565b600060208284031215615b2d57600080fd5b81516001600160401b03811115615b4357600080fd5b6117aa8482850161586f565b60008351615b61818460208801614db8565b835190830190615b75818360208801614db8565b01949350505050565b6001600160a01b0385168152608060208201819052600090615af590830186615135565b600060208284031215615bb457600080fd5b5051919050565b600060208284031215615bcd57600080fd5b6107778261553a565b606081526000615be960608301866150e7565b8281036020840152615bfb8186615135565b91505060018060a01b0383166040830152949350505050565b600060208284031215615c2657600080fd5b8151610777816153eb565b600060ff831680615c5257634e487b7160e01b600052601260045260246000fd5b8060ff84160491505092915050565b600181815b80851115615c9c578160001904821115615c8257615c8261550d565b80851615615c8f57918102915b93841c9390800290615c66565b509250929050565b600082615cb357506001610583565b81615cc057506000610583565b8160018114615cd65760028114615ce057615cfc565b6001915050610583565b60ff841115615cf157615cf161550d565b50506001821b610583565b5060208310610133831016604e8410600b8410161715615d1f575081810a610583565b615d298383615c61565b8060001904821115615d3d57615d3d61550d565b029392505050565b600061077760ff841683615ca4565b604081526000615d676040830185615135565b90508260208301529392505050565b634e487b7160e01b600052603160045260246000fd5b60008251615d9e818460208701614db8565b919091019291505056feddf252ad1be2c89b69c2b068fc378daa952ba7f163c4a11628f55a4df523b3efa2646970667358221220d51cbaee6030b5f2580036556ecb31f9619c27aee139c750cb1313c4800040fd64736f6c63430008090033",
    "linkReferences": {}
  },
  "methodIdentifiers": {
    "DOMAIN_SEPARATOR()": "3644e515",
    "PERMIT_TYPEHASH()": "30adf81f",
    "addDepositorsToAllowlist(address[])": "91b7ab47",
    "allowance(address,address)": "dd62ed3e",
    "approve(address,uint256)": "095ea7b3",
    "balanceOf(address)": "70a08231",
    "decimals()": "313ce567",
    "deposit(uint256[],uint256,bytes)": "54a3f474",
    "depositorsAllowlist()": "a09eb0e7",
    "hasSubvault(uint256)": "9d9fd0d9",
    "helper()": "63b0e66a",
    "initialize(uint256,address[],address,uint256[],address)": "6a72a804",
    "initialized()": "158ef93e",
    "isVaultToken(address)": "338c4ccb",
    "lastFeeCharge()": "3da7463f",
    "lpPriceHighWaterMarkD18()": "24004a66",
    "name()": "06fdde03",
    "nft()": "47ccca02",
    "nonces(address)": "7ecebe00",
    "permit(address,address,uint256,uint256,uint8,bytes32,bytes32)": "d505accf",
    "pullExistentials()": "d2c219b0",
    "removeDepositorsFromAllowlist(address[])": "e273d23e",
    "subvaultAt(uint256)": "9bd0911b",
    "subvaultNfts()": "79183973",
    "subvaultOneBasedIndex(uint256)": "9ddc875f",
    "supportsInterface(bytes4)": "01ffc9a7",
    "symbol()": "95d89b41",
    "totalSupply()": "18160ddd",
    "totalWithdrawnAmounts(uint256)": "151bb8d1",
    "totalWithdrawnAmountsTimestamp()": "407a31c0",
    "transfer(address,uint256)": "a9059cbb",
    "transferFrom(address,address,uint256)": "23b872dd",
    "tvl()": "e5328e06",
    "vaultGovernance()": "fe255a5e",
    "vaultTokens()": "69722233",
    "withdraw(address,uint256,uint256[],bytes[])": "82491fac"
  },
  "id": 458
}