{
  "abi": [
    {
      "anonymous": false,
      "inputs": [
        {
          "indexed": true,
          "internalType": "address",
          "name": "origin",
          "type": "address"
        },
        {
          "indexed": true,
          "internalType": "address",
          "name": "sender",
          "type": "address"
        },
        {
          "indexed": false,
          "internalType": "address[]",
          "name": "vaultTokens_",
          "type": "address[]"
        },
        {
          "indexed": false,
          "internalType": "uint256",
          "name": "nft_",
          "type": "uint256"
        }
      ],
      "name": "Initialized",
      "type": "event"
    },
    {
      "anonymous": false,
      "inputs": [
        {
          "indexed": false,
          "internalType": "address",
          "name": "to",
          "type": "address"
        },
        {
          "indexed": false,
          "internalType": "uint256[]",
          "name": "tokenAmounts",
          "type": "uint256[]"
        }
      ],
      "name": "Pull",
      "type": "event"
    },
    {
      "anonymous": false,
      "inputs": [
        {
          "indexed": false,
          "internalType": "uint256[]",
          "name": "tokenAmounts",
          "type": "uint256[]"
        }
      ],
      "name": "Push",
      "type": "event"
    },
    {
      "anonymous": false,
      "inputs": [
        {
          "indexed": false,
          "internalType": "address",
          "name": "to",
          "type": "address"
        },
        {
          "indexed": false,
          "internalType": "address[]",
          "name": "tokens",
          "type": "address[]"
        },
        {
          "indexed": false,
          "internalType": "uint256[]",
          "name": "tokenAmounts",
          "type": "uint256[]"
        }
      ],
      "name": "ReclaimTokens",
      "type": "event"
    },
    {
      "inputs": [],
      "name": "D9",
      "outputs": [
        {
          "internalType": "uint256",
          "name": "",
          "type": "uint256"
        }
      ],
      "stateMutability": "view",
      "type": "function"
    },
    {
      "inputs": [],
      "name": "Q96",
      "outputs": [
        {
          "internalType": "uint256",
          "name": "",
          "type": "uint256"
        }
      ],
      "stateMutability": "view",
      "type": "function"
    },
    {
      "inputs": [],
      "name": "auraBaseRewardPool",
      "outputs": [
        {
          "internalType": "contract IAuraBaseRewardPool",
          "name": "",
          "type": "address"
        }
      ],
      "stateMutability": "view",
      "type": "function"
    },
    {
      "inputs": [],
      "name": "auraBooster",
      "outputs": [
        {
          "internalType": "contract IAuraBooster",
          "name": "",
          "type": "address"
        }
      ],
      "stateMutability": "view",
      "type": "function"
    },
    {
      "inputs": [],
      "name": "balancerVault",
      "outputs": [
        {
          "internalType": "contract IVault",
          "name": "",
          "type": "address"
        }
      ],
      "stateMutability": "view",
      "type": "function"
    },
    {
      "inputs": [],
      "name": "claimRewards",
      "outputs": [
        {
          "internalType": "uint256",
          "name": "addedAmount",
          "type": "uint256"
        }
      ],
      "stateMutability": "nonpayable",
      "type": "function"
    },
    {
      "inputs": [
        {
          "internalType": "address",
          "name": "to",
          "type": "address"
        },
        {
          "internalType": "bytes4",
          "name": "selector",
          "type": "bytes4"
        },
        {
          "internalType": "bytes",
          "name": "data",
          "type": "bytes"
        }
      ],
      "name": "externalCall",
      "outputs": [
        {
          "internalType": "bytes",
          "name": "result",
          "type": "bytes"
        }
      ],
      "stateMutability": "payable",
      "type": "function"
    },
    {
      "inputs": [
        {
          "internalType": "contract IAggregatorV3",
          "name": "oracle",
          "type": "address"
        },
        {
          "internalType": "contract IAsset",
          "name": "token",
          "type": "address"
        }
      ],
      "name": "getPriceToUSDX96",
      "outputs": [
        {
          "internalType": "uint256",
          "name": "priceX96",
          "type": "uint256"
        }
      ],
      "stateMutability": "view",
      "type": "function"
    },
    {
      "inputs": [
        {
          "internalType": "uint256",
          "name": "nft_",
          "type": "uint256"
        },
        {
          "internalType": "address[]",
          "name": "vaultTokens_",
          "type": "address[]"
        },
        {
          "internalType": "address",
          "name": "pool_",
          "type": "address"
        },
        {
          "internalType": "address",
          "name": "balancerVault_",
          "type": "address"
        },
        {
          "internalType": "address",
          "name": "auraBooster_",
          "type": "address"
        },
        {
          "internalType": "address",
          "name": "auraBaseRewardPool_",
          "type": "address"
        }
      ],
      "name": "initialize",
      "outputs": [],
      "stateMutability": "nonpayable",
      "type": "function"
    },
    {
      "inputs": [],
      "name": "initialized",
      "outputs": [
        {
          "internalType": "bool",
          "name": "",
          "type": "bool"
        }
      ],
      "stateMutability": "view",
      "type": "function"
    },
    {
      "inputs": [
        {
          "internalType": "bytes32",
          "name": "_hash",
          "type": "bytes32"
        },
        {
          "internalType": "bytes",
          "name": "_signature",
          "type": "bytes"
        }
      ],
      "name": "isValidSignature",
      "outputs": [
        {
          "internalType": "bytes4",
          "name": "magicValue",
          "type": "bytes4"
        }
      ],
      "stateMutability": "view",
      "type": "function"
    },
    {
      "inputs": [
        {
          "internalType": "address",
          "name": "token",
          "type": "address"
        }
      ],
      "name": "isVaultToken",
      "outputs": [
        {
          "internalType": "bool",
          "name": "",
          "type": "bool"
        }
      ],
      "stateMutability": "view",
      "type": "function"
    },
    {
      "inputs": [],
      "name": "nft",
      "outputs": [
        {
          "internalType": "uint256",
          "name": "",
          "type": "uint256"
        }
      ],
      "stateMutability": "view",
      "type": "function"
    },
    {
      "inputs": [],
      "name": "pool",
      "outputs": [
        {
          "internalType": "contract IManagedPool",
          "name": "",
          "type": "address"
        }
      ],
      "stateMutability": "view",
      "type": "function"
    },
    {
      "inputs": [
        {
          "internalType": "address",
          "name": "to",
          "type": "address"
        },
        {
          "internalType": "address[]",
          "name": "tokens",
          "type": "address[]"
        },
        {
          "internalType": "uint256[]",
          "name": "tokenAmounts",
          "type": "uint256[]"
        },
        {
          "internalType": "bytes",
          "name": "options",
          "type": "bytes"
        }
      ],
      "name": "pull",
      "outputs": [
        {
          "internalType": "uint256[]",
          "name": "actualTokenAmounts",
          "type": "uint256[]"
        }
      ],
      "stateMutability": "nonpayable",
      "type": "function"
    },
    {
      "inputs": [],
      "name": "pullExistentials",
      "outputs": [
        {
          "internalType": "uint256[]",
          "name": "",
          "type": "uint256[]"
        }
      ],
      "stateMutability": "view",
      "type": "function"
    },
    {
      "inputs": [
        {
          "internalType": "address[]",
          "name": "tokens",
          "type": "address[]"
        },
        {
          "internalType": "uint256[]",
          "name": "tokenAmounts",
          "type": "uint256[]"
        },
        {
          "internalType": "bytes",
          "name": "options",
          "type": "bytes"
        }
      ],
      "name": "push",
      "outputs": [
        {
          "internalType": "uint256[]",
          "name": "actualTokenAmounts",
          "type": "uint256[]"
        }
      ],
      "stateMutability": "nonpayable",
      "type": "function"
    },
    {
      "inputs": [
        {
          "internalType": "address[]",
          "name": "tokens",
          "type": "address[]"
        }
      ],
      "name": "reclaimTokens",
      "outputs": [
        {
          "internalType": "uint256[]",
          "name": "actualTokenAmounts",
          "type": "uint256[]"
        }
      ],
      "stateMutability": "nonpayable",
      "type": "function"
    },
    {
      "inputs": [
        {
          "internalType": "bytes4",
          "name": "interfaceId",
          "type": "bytes4"
        }
      ],
      "name": "supportsInterface",
      "outputs": [
        {
          "internalType": "bool",
          "name": "",
          "type": "bool"
        }
      ],
      "stateMutability": "view",
      "type": "function"
    },
    {
      "inputs": [
        {
          "internalType": "address",
          "name": "from",
          "type": "address"
        },
        {
          "internalType": "address[]",
          "name": "tokens",
          "type": "address[]"
        },
        {
          "internalType": "uint256[]",
          "name": "tokenAmounts",
          "type": "uint256[]"
        },
        {
          "internalType": "bytes",
          "name": "options",
          "type": "bytes"
        }
      ],
      "name": "transferAndPush",
      "outputs": [
        {
          "internalType": "uint256[]",
          "name": "actualTokenAmounts",
          "type": "uint256[]"
        }
      ],
      "stateMutability": "nonpayable",
      "type": "function"
    },
    {
      "inputs": [],
      "name": "tvl",
      "outputs": [
        {
          "internalType": "uint256[]",
          "name": "minTokenAmounts",
          "type": "uint256[]"
        },
        {
          "internalType": "uint256[]",
          "name": "maxTokenAmounts",
          "type": "uint256[]"
        }
      ],
      "stateMutability": "view",
      "type": "function"
    },
    {
      "inputs": [],
      "name": "vaultGovernance",
      "outputs": [
        {
          "internalType": "contract IVaultGovernance",
          "name": "",
          "type": "address"
        }
      ],
      "stateMutability": "view",
      "type": "function"
    },
    {
      "inputs": [],
      "name": "vaultTokens",
      "outputs": [
        {
          "internalType": "address[]",
          "name": "",
          "type": "address[]"
        }
      ],
      "stateMutability": "view",
      "type": "function"
    }
  ],
  "bytecode": {
    "object": "0x608060405234801561001057600080fd5b5060016000556000196004556156fe806200002c6000396000f3fe6080604052600436106101405760003560e01c8063338c4ccb116100b6578063697222331161006f57806369722233146103af57806381bf829d146103d1578063d2c219b0146103f1578063d3d338ae14610406578063e5328e0614610428578063fe255a5e1461044b57600080fd5b8063338c4ccb146102fd578063372500ab14610335578063407924651461034a57806347ccca0214610362578063551530ae14610377578063566ca6b41461038f57600080fd5b806315b3a0de1161010857806315b3a0de146102245780631626ba7e1461024457806316f0115b1461027d5780632062d7541461029d57806327a35e5a146102bd5780632e2f4cc2146102dd57600080fd5b806301ffc9a71461014557806305e1c9421461017a5780630a41ac32146101a7578063158274a5146101d5578063158ef93e1461020d575b600080fd5b34801561015157600080fd5b506101656101603660046143fd565b610469565b60405190151581526020015b60405180910390f35b34801561018657600080fd5b5061019a610195366004614578565b610495565b60405161017191906145e7565b3480156101b357600080fd5b506101c76101c23660046145fa565b61090d565b604051908152602001610171565b3480156101e157600080fd5b506007546101f5906001600160a01b031681565b6040516001600160a01b039091168152602001610171565b34801561021957600080fd5b506004541515610165565b34801561023057600080fd5b506008546101f5906001600160a01b031681565b34801561025057600080fd5b5061026461025f3660046146ab565b610a9f565b6040516001600160e01b03199091168152602001610171565b34801561028957600080fd5b506006546101f5906001600160a01b031681565b3480156102a957600080fd5b5061019a6102b836600461474c565b610dec565b3480156102c957600080fd5b5061019a6102d836600461474c565b611298565b6102f06102eb3660046147e6565b61141f565b60405161017191906148cf565b34801561030957600080fd5b506101656103183660046148e2565b6001600160a01b0316600090815260036020526040902054151590565b34801561034157600080fd5b506101c76116f3565b34801561035657600080fd5b506101c7600160601b81565b34801561036e57600080fd5b506004546101c7565b34801561038357600080fd5b506101c7633b9aca0081565b34801561039b57600080fd5b5061019a6103aa3660046148ff565b611848565b3480156103bb57600080fd5b506103c4611b18565b60405161017191906149bf565b3480156103dd57600080fd5b506009546101f5906001600160a01b031681565b3480156103fd57600080fd5b5061019a611b7a565b34801561041257600080fd5b506104266104213660046149d2565b611bd1565b005b34801561043457600080fd5b5061043d611ef4565b604051610171929190614a63565b34801561045757600080fd5b506001546001600160a01b03166101f5565b6000610474826122ac565b8061048f57506001600160e01b0319821663eeb7943760e01b145b92915050565b606061049f6122f2565b6004805460408051808201909152918252631253925560e21b602083015290816104e55760405162461bcd60e51b81526004016104dc91906148cf565b60405180910390fd5b5060015460408051637ac46fbb60e01b815290516000926001600160a01b031691637ac46fbb916004808301926060929190829003018186803b15801561052b57600080fd5b505afa15801561053f573d6000803e3d6000fd5b505050506040513d601f19601f820116820180604052508101906105639190614a91565b805160208201516040516331a9108f60e11b81526004810186905292935090916000906001600160a01b03831690636352211e9060240160206040518083038186803b1580156105b257600080fd5b505afa1580156105c6573d6000803e3d6000fd5b505050506040513d601f19601f820116820180604052508101906105ea9190614b02565b905060006105f983878461234c565b604051639bd0911b60e01b8152600060048201526001600160a01b039190911690639bd0911b9060240160206040518083038186803b15801561063b57600080fd5b505afa15801561064f573d6000803e3d6000fd5b505050506040513d601f19601f820116820180604052508101906106739190614b02565b905087516001600160401b0381111561068e5761068e61441a565b6040519080825280602002602001820160405280156106b7578160200160208202803683370190505b5096506001600160a01b0381163014156106d6575050505050506108fe565b60005b88518110156108bb576106ff8982815181106106f7576106f7614b1f565b506000919050565b806107b15750846001600160a01b03166363e85d2d8a838151811061072657610726614b1f565b60209081029190910101516040516001600160e01b031960e084901b1681526001600160a01b0390911660048201526002602482015260440160206040518083038186803b15801561077757600080fd5b505afa15801561078b573d6000803e3d6000fd5b505050506040513d601f19601f820116820180604052508101906107af9190614b45565b155b156107bb576108ab565b60008982815181106107cf576107cf614b1f565b60209081029190910101516040516370a0823160e01b81523060048201529091506001600160a01b038216906370a082319060240160206040518083038186803b15801561081c57600080fd5b505afa158015610830573d6000803e3d6000fd5b505050506040513d601f19601f820116820180604052508101906108549190614b60565b89838151811061086657610866614b1f565b6020026020010181815250506108a9838a848151811061088857610888614b1f565b6020026020010151836001600160a01b031661241f9092919063ffffffff16565b505b6108b481614b8f565b90506106d9565b507f9efcb26e0cf572bd9171640e114f387cef91cd3e38532ed6b3f80c7f2e758f878189896040516108ef93929190614baa565b60405180910390a15050505050505b6109086001600055565b919050565b600080836001600160a01b031663feaf968c6040518163ffffffff1660e01b815260040160a06040518083038186803b15801561094957600080fd5b505afa15801561095d573d6000803e3d6000fd5b505050506040513d601f19601f820116820180604052508101906109819190614bfa565b5050509150506000836001600160a01b031663313ce5676040518163ffffffff1660e01b815260040160206040518083038186803b1580156109c257600080fd5b505afa1580156109d6573d6000803e3d6000fd5b505050506040513d601f19601f820116820180604052508101906109fa9190614c4a565b90506000856001600160a01b031663313ce5676040518163ffffffff1660e01b815260040160206040518083038186803b158015610a3757600080fd5b505afa158015610a4b573d6000803e3d6000fd5b505050506040513d601f19601f82011682018060405250810190610a6f9190614c4a565b9050610a95613d0960661b84610a858585614c6d565b610a9090600a614d76565b612487565b9695505050505050565b600080600160009054906101000a90046001600160a01b03166001600160a01b0316637ac46fbb6040518163ffffffff1660e01b815260040160606040518083038186803b158015610af057600080fd5b505afa158015610b04573d6000803e3d6000fd5b505050506040513d601f19601f82011682018060405250810190610b289190614a91565b60208101518151600454929350909180610b5157506001600160e01b0319935061048f92505050565b60405163020604bf60e21b8152600481018290526000906001600160a01b0385169063081812fc9060240160206040518083038186803b158015610b9457600080fd5b505afa158015610ba8573d6000803e3d6000fd5b505050506040513d601f19601f82011682018060405250810190610bcc9190614b02565b6040516363e85d2d60e01b81526001600160a01b03808316600483015260066024830152919250908416906363e85d2d9060440160206040518083038186803b158015610c1857600080fd5b505afa158015610c2c573d6000803e3d6000fd5b505050506040513d601f19601f82011682018060405250810190610c509190614b45565b610c6a57506001600160e01b0319945061048f9350505050565b803b63ffffffff811615610d9d576040516301ffc9a760e01b8152630b135d3f60e11b60048201526001600160a01b038316906301ffc9a79060240160206040518083038186803b158015610cbe57600080fd5b505afa158015610cd2573d6000803e3d6000fd5b505050506040513d601f19601f82011682018060405250810190610cf69190614b45565b15610d8657604051630b135d3f60e11b81526001600160a01b03831690631626ba7e90610d29908c908c90600401614d85565b60206040518083038186803b158015610d4157600080fd5b505afa158015610d55573d6000803e3d6000fd5b505050506040513d601f19601f82011682018060405250810190610d799190614d9e565b965050505050505061048f565b506001600160e01b0319955061048f945050505050565b816001600160a01b0316610db18a8a61253a565b6001600160a01b03161415610dd65750630b135d3f60e11b955061048f945050505050565b506001600160e01b031998975050505050505050565b6060610df66122f2565b6004805460408051808201909152918252631253925560e21b60208301529081610e335760405162461bcd60e51b81526004016104dc91906148cf565b50610e3d336125b9565b6040518060400160405280600381526020016223292160e91b81525090610e775760405162461bcd60e51b81526004016104dc91906148cf565b5060015460408051637ac46fbb60e01b815290516000926001600160a01b031691637ac46fbb916004808301926060929190829003018186803b158015610ebd57600080fd5b505afa158015610ed1573d6000803e3d6000fd5b505050506040513d601f19601f82011682018060405250810190610ef59190614a91565b602001516040516331a9108f60e11b8152600481018490529091506000906001600160a01b03831690636352211e9060240160206040518083038186803b158015610f3f57600080fd5b505afa158015610f53573d6000803e3d6000fd5b505050506040513d601f19601f82011682018060405250810190610f779190614b02565b90506000610f8683858461234c565b90506001600160a01b03821633146111c357604051639bd0911b60e01b8152600060048201819052906001600160a01b03831690639bd0911b9060240160206040518083038186803b158015610fdb57600080fd5b505afa158015610fef573d6000803e3d6000fd5b505050506040513d601f19601f820116820180604052508101906110139190614b02565b90506001600160a01b03811630141561116e5760405163fcdabd2760e01b81526001600160a01b038b8116600483015280841691639d9fd0d99187169063fcdabd279060240160206040518083038186803b15801561107157600080fd5b505afa158015611085573d6000803e3d6000fd5b505050506040513d601f19601f820116820180604052508101906110a99190614b60565b6040518263ffffffff1660e01b81526004016110c791815260200190565b60206040518083038186803b1580156110df57600080fd5b505afa1580156110f3573d6000803e3d6000fd5b505050506040513d601f19601f820116820180604052508101906111179190614b45565b801561112c57506001600160a01b038a163014155b6040518060400160405280600581526020016424a72b2a2960d91b815250906111685760405162461bcd60e51b81526004016104dc91906148cf565b506111c1565b896001600160a01b0316816001600160a01b0316146040518060400160405280600581526020016424a72b2a2960d91b815250906111bf5760405162461bcd60e51b81526004016104dc91906148cf565b505b505b60006111cf8989612777565b905060006111de8b838a612863565b90506112458a600280548060200260200160405190810160405280929190818152602001828054801561123a57602002820191906000526020600020905b81546001600160a01b0316815260019091019060200180831161121c575b505050505083612f3f565b96507f54f9e6ef58e36de62f59f9ee6c4b878af84989c53a3642eba415ac3ac4e11cda8b88604051611278929190614dbb565b60405180910390a15050505050506112906001600055565b949350505050565b825160609060005b8181101561132b578481815181106112ba576112ba614b1f565b602002602001015160001461131b5761131b87308784815181106112e0576112e0614b1f565b60200260200101518985815181106112fa576112fa614b1f565b60200260200101516001600160a01b0316613160909392919063ffffffff16565b61132481614b8f565b90506112a0565b50611337858585611848565b915060005b855181101561141557600085828151811061135957611359614b1f565b602002602001015184838151811061137357611373614b1f565b6020026020010151106113875760006113c5565b83828151811061139957611399614b1f565b60200260200101518683815181106113b3576113b3614b1f565b60200260200101516113c59190614ddf565b905080156114045761140488828985815181106113e4576113e4614b1f565b60200260200101516001600160a01b031661241f9092919063ffffffff16565b5061140e81614b8f565b905061133c565b5050949350505050565b60606114296122f2565b6004805460408051808201909152918252631253925560e21b60208301526114645760405162461bcd60e51b81526004016104dc91906148cf565b5061146e336125b9565b6040518060400160405280600381526020016223292160e91b815250906114a85760405162461bcd60e51b81526004016104dc91906148cf565b5060015460408051637ac46fbb60e01b815290516000926001600160a01b031691637ac46fbb916004808301926060929190829003018186803b1580156114ee57600080fd5b505afa158015611502573d6000803e3d6000fd5b505050506040513d601f19601f820116820180604052508101906115269190614a91565b51604051631f4a58fb60e31b81526001600160a01b03888116600483015291925060009183169063fa52c7d89060240160206040518083038186803b15801561156e57600080fd5b505afa158015611582573d6000803e3d6000fd5b505050506040513d601f19601f820116820180604052508101906115a69190614b02565b60408051808201909152600381526223292160e91b60208201529091506001600160a01b0382166115ea5760405162461bcd60e51b81526004016104dc91906148cf565b50604051631796170d60e21b81526001600160a01b03821690635e585c34906116219033908b9034908c908c908c90600401614df6565b60006040518083038186803b15801561163957600080fd5b505afa15801561164d573d6000803e3d6000fd5b50505050600080886001600160a01b03163489898960405160200161167493929190614e5b565b60408051601f198184030181529082905261168e91614e7f565b60006040518083038185875af1925050503d80600081146116cb576040519150601f19603f3d011682016040523d82523d6000602084013e6116d0565b606091505b5091509150816116e35780518082602001fd5b6001600055935061129092505050565b60085460408051631e8c5c8960e11b815290516000926001600160a01b031691633d18b91291600480830192602092919082900301818787803b15801561173957600080fd5b505af115801561174d573d6000803e3d6000fd5b505050506040513d601f19601f820116820180604052508101906117719190614b45565b5060015460048054604051630248cd6d60e31b8152918201526000916001600160a01b0316906312466b689060240160006040518083038186803b1580156117b857600080fd5b505afa1580156117cc573d6000803e3d6000fd5b505050506040513d6000823e601f3d908101601f191682016040526117f491908101906150b6565b51905060005b81518110156118435761182582828151811061181857611818614b1f565b602002602001015161319e565b61182f908461522a565b92508061183b81614b8f565b9150506117fa565b505090565b60606118526122f2565b6004805460408051808201909152918252631253925560e21b6020830152908161188f5760405162461bcd60e51b81526004016104dc91906148cf565b5060015460408051637ac46fbb60e01b815290516000926001600160a01b031691637ac46fbb916004808301926060929190829003018186803b1580156118d557600080fd5b505afa1580156118e9573d6000803e3d6000fd5b505050506040513d601f19601f8201168201806040525081019061190d9190614a91565b602001516040516331a9108f60e11b8152600481018490529091506000906001600160a01b03831690636352211e9060240160206040518083038186803b15801561195757600080fd5b505afa15801561196b573d6000803e3d6000fd5b505050506040513d601f19601f8201168201806040525081019061198f9190614b02565b60405163fcdabd2760e01b81526001600160a01b03808316600483015291925060009184169063fcdabd279060240160206040518083038186803b1580156119d657600080fd5b505afa1580156119ea573d6000803e3d6000fd5b505050506040513d601f19601f82011682018060405250810190611a0e9190614b60565b604080518082019091526002815261272360f11b602082015290915081611a485760405162461bcd60e51b81526004016104dc91906148cf565b506000611a558989612777565b90506000611a63828961349a565b9050611ac88a600280548060200260200160405190810160405280929190818152602001828054801561123a576020028201919060005260206000209081546001600160a01b0316815260019091019060200180831161121c57505050505083612f3f565b96507f08e404e978692dd1b8275016b7a7b0b3ae4afd06b0cec7228060bb2da18c84fd81604051611af991906145e7565b60405180910390a1505050505050611b116001600055565b9392505050565b60606002805480602002602001604051908101604052809291908181526020018280548015611b7057602002820191906000526020600020905b81546001600160a01b03168152600190910190602001808311611b52575b5050505050905090565b60606005805480602002602001604051908101604052809291908181526020018280548015611b7057602002820191906000526020600020905b815481526020019060010190808311611bb4575050505050905090565b6001600160a01b03841615801590611bf157506001600160a01b03831615155b8015611c0557506001600160a01b03811615155b8015611c1957506001600160a01b03821615155b6040518060400160405280600281526020016120ad60f11b81525090611c525760405162461bcd60e51b81526004016104dc91906148cf565b50600680546001600160a01b038087166001600160a01b03199283168117909355600780548783169084168117909155600980548784169085161790556008805492861692909316919091179091556040805163038fff2d60e41b8152905160009363f94d46689290916338fff2d091600480820192602092909190829003018186803b158015611ce257600080fd5b505afa158015611cf6573d6000803e3d6000fd5b505050506040513d601f19601f82011682018060405250810190611d1a9190614b60565b6040518263ffffffff1660e01b8152600401611d3891815260200190565b60006040518083038186803b158015611d5057600080fd5b505afa158015611d64573d6000803e3d6000fd5b505050506040513d6000823e601f3d908101601f19168201604052611d8c919081019061529d565b50509050805186516001611da0919061522a565b146040518060400160405280600381526020016224a72b60e91b81525090611ddb5760405162461bcd60e51b81526004016104dc91906148cf565b506000805b8251811015611ec9576000838281518110611dfd57611dfd614b1f565b60200260200101519050888381518110611e1957611e19614b1f565b60200260200101516001600160a01b0316816001600160a01b03161415611e635782611e4481614b8f565b9350611e5e90506001600160a01b038216886000196139cd565b611eb6565b876001600160a01b0316816001600160a01b03161460405180604001604052806005815260200164494e56544f60d81b81525090611eb45760405162461bcd60e51b81526004016104dc91906148cf565b505b5080611ec181614b8f565b915050611de0565b50611ee06001600160a01b038716856000196139cd565b611eea8789613af1565b5050505050505050565b6060806000600660009054906101000a90046001600160a01b03166001600160a01b03166338fff2d06040518163ffffffff1660e01b815260040160206040518083038186803b158015611f4757600080fd5b505afa158015611f5b573d6000803e3d6000fd5b505050506040513d601f19601f82011682018060405250810190611f7f9190614b60565b600754604051631f29a8cd60e31b81526004810183905291925060009182916001600160a01b03169063f94d46689060240160006040518083038186803b158015611fc957600080fd5b505afa158015611fdd573d6000803e3d6000fd5b505050506040513d6000823e601f3d908101601f19168201604052612005919081019061529d565b5091509150600182516120189190614ddf565b6001600160401b0381111561202f5761202f61441a565b604051908082528060200260200182016040528015612058578160200160208202803683370190505b5094506000600660009054906101000a90046001600160a01b03166001600160a01b031663876f303b6040518163ffffffff1660e01b815260040160206040518083038186803b1580156120ab57600080fd5b505afa1580156120bf573d6000803e3d6000fd5b505050506040513d601f19601f820116820180604052508101906120e39190614b60565b9050600081156122a0576008546040516370a0823160e01b81523060048201526000916001600160a01b0316906370a082319060240160206040518083038186803b15801561213157600080fd5b505afa158015612145573d6000803e3d6000fd5b505050506040513d601f19601f820116820180604052508101906121699190614b60565b6006546040516370a0823160e01b81523060048201529192506001600160a01b0316906370a082319060240160206040518083038186803b1580156121ad57600080fd5b505afa1580156121c1573d6000803e3d6000fd5b505050506040513d601f19601f820116820180604052508101906121e59190614b60565b6121ef908261522a565b905060005b855181101561229d5760065486516001600160a01b039091169087908390811061222057612220614b1f565b60200260200101516001600160a01b0316141561223c5761228b565b61226085828151811061225157612251614b1f565b60200260200101518386612487565b89848151811061227257612272614b1f565b60209081029190910101528261228781614b8f565b9350505b8061229581614b8f565b9150506121f4565b50505b86955050505050509091565b60006122b782613f7c565b806122d257506001600160e01b03198216633d31d51d60e11b145b8061048f57506001600160e01b03198216630b135d3f60e11b1492915050565b600260005414156123455760405162461bcd60e51b815260206004820152601f60248201527f5265656e7472616e637947756172643a207265656e7472616e742063616c6c0060448201526064016104dc565b6002600055565b60405163fcdabd2760e01b81526001600160a01b038281166004830152600091829186169063fcdabd279060240160206040518083038186803b15801561239257600080fd5b505afa1580156123a6573d6000803e3d6000fd5b505050506040513d601f19601f820116820180604052508101906123ca9190614b60565b905083158015906123da57508015155b604051806040016040528060048152602001631253925560e21b815250906124155760405162461bcd60e51b81526004016104dc91906148cf565b5091949350505050565b6040516001600160a01b03831660248201526044810182905261248290849063a9059cbb60e01b906064015b60408051601f198184030181529190526020810180516001600160e01b03166001600160e01b031990931692909217909152613fb2565b505050565b6000808060001985870985870292508281108382030391505080600014156124c157600084116124b657600080fd5b508290049050611b11565b8084116124cd57600080fd5b6000848688096000868103871696879004966002600389028118808a02820302808a02820302808a02820302808a02820302808a02820302808a02909103029181900381900460010186841190950394909402919094039290920491909117919091029150509392505050565b60008060008061254985614087565b6040805160008152602081018083528b905260ff8316918101919091526060810184905260808101839052929550909350915060019060a0016020604051602081039080840390855afa1580156125a4573d6000803e3d6000fd5b5050604051601f190151979650505050505050565b600080600160009054906101000a90046001600160a01b03166001600160a01b0316637ac46fbb6040518163ffffffff1660e01b815260040160606040518083038186803b15801561260a57600080fd5b505afa15801561261e573d6000803e3d6000fd5b505050506040513d601f19601f820116820180604052508101906126429190614a91565b602001516004549091508061265b575060009392505050565b60405163020604bf60e21b8152600481018290526001600160a01b03808616919084169063081812fc9060240160206040518083038186803b1580156126a057600080fd5b505afa1580156126b4573d6000803e3d6000fd5b505050506040513d601f19601f820116820180604052508101906126d89190614b02565b6001600160a01b0316148061129057506040516331a9108f60e11b8152600481018290526001600160a01b038086169190841690636352211e9060240160206040518083038186803b15801561272d57600080fd5b505afa158015612741573d6000803e3d6000fd5b505050506040513d601f19601f820116820180604052508101906127659190614b02565b6001600160a01b031614949350505050565b6060612782836140eb565b60405180604001604052806004815260200163494e564160e01b815250906127bd5760405162461bcd60e51b81526004016104dc91906148cf565b5081518351146040518060400160405280600381526020016224a72b60e91b815250906127fd5760405162461bcd60e51b81526004016104dc91906148cf565b50611b11600280548060200260200160405190810160405280929190818152602001828054801561285757602002820191906000526020600020905b81546001600160a01b03168152600190910190602001808311612839575b50505050508484612f3f565b606082516001600160401b0381111561287e5761287e61441a565b6040519080825280602002602001820160405280156128a7578160200160208202803683370190505b506008546040516324f81cd160e11b8152600060048201529192506001600160a01b0316906349f039a290602401600060405180830381600087803b1580156128ef57600080fd5b505af1158015612903573d6000803e3d6000fd5b505050506000600660009054906101000a90046001600160a01b03166001600160a01b03166338fff2d06040518163ffffffff1660e01b815260040160206040518083038186803b15801561295757600080fd5b505afa15801561296b573d6000803e3d6000fd5b505050506040513d601f19601f8201168201806040525081019061298f9190614b60565b600754604051631f29a8cd60e31b81526004810183905291925060009182916001600160a01b03169063f94d46689060240160006040518083038186803b1580156129d957600080fd5b505afa1580156129ed573d6000803e3d6000fd5b505050506040513d6000823e601f3d908101601f19168201604052612a15919081019061529d565b509150915060008060005b8451811015612ad357848181518110612a3b57612a3b614b1f565b60209081029190910101516006546001600160a01b0390811691161415612a6157612ac1565b6000612aa48a8481518110612a7857612a78614b1f565b6020026020010151600160601b878581518110612a9757612a97614b1f565b6020026020010151612487565b905082612ab081614b8f565b93505080841015612abf578093505b505b80612acb81614b8f565b915050612a20565b50506000805b8451811015612b7f57848181518110612af457612af4614b1f565b60209081029190910101516006546001600160a01b0390811691161415612b1a57612b6d565b612b4283858381518110612b3057612b30614b1f565b6020026020010151600160601b612487565b878381518110612b5457612b54614b1f565b602090810291909101015281612b6981614b8f565b9250505b80612b7781614b8f565b915050612ad9565b5050600083516001600160401b03811115612b9c57612b9c61441a565b604051908082528060200260200182016040528015612bc5578160200160208202803683370190505b509050600084516001600160401b03811115612be357612be361441a565b604051908082528060200260200182016040528015612c0c578160200160208202803683370190505b5090506000805b8651811015612ceb57868181518110612c2e57612c2e614b1f565b6020026020010151838281518110612c4857612c48614b1f565b6001600160a01b0392831660209182029290920101526006548851911690889083908110612c7857612c78614b1f565b60200260200101516001600160a01b03161415612c9457612cd9565b888281518110612ca657612ca6614b1f565b6020026020010151848281518110612cc057612cc0614b1f565b602090810291909101015281612cd581614b8f565b9250505b80612ce381614b8f565b915050612c13565b5050600760009054906101000a90046001600160a01b03166001600160a01b0316638bdb391387308d604051806080016040528087815260200188815260200160018e600019604051602001612d4393929190615380565b6040516020818303038152906040528152602001600015158152506040518563ffffffff1660e01b8152600401612d7d9493929190615444565b600060405180830381600087803b158015612d9757600080fd5b505af1158015612dab573d6000803e3d6000fd5b505060095460085460408051633c41a11560e21b815290516001600160a01b0393841695506343a0d0669450919092169163f1068454916004808301926020929190829003018186803b158015612e0157600080fd5b505afa158015612e15573d6000803e3d6000fd5b505050506040513d601f19601f82011682018060405250810190612e399190614b60565b6006546040516370a0823160e01b81523060048201526001600160a01b03909116906370a082319060240160206040518083038186803b158015612e7c57600080fd5b505afa158015612e90573d6000803e3d6000fd5b505050506040513d601f19601f82011682018060405250810190612eb49190614b60565b6040516001600160e01b031960e085901b1681526004810192909252602482015260016044820152606401602060405180830381600087803b158015612ef957600080fd5b505af1158015612f0d573d6000803e3d6000fd5b505050506040513d601f19601f82011682018060405250810190612f319190614b45565b505050505050509392505050565b6060600084516001600160401b03811115612f5c57612f5c61441a565b604051908082528060200260200182016040528015612f85578160200160208202803683370190505b5090506000805b865182108015612f9c5750855181105b1561311b57858181518110612fb357612fb3614b1f565b60200260200101516001600160a01b0316878381518110612fd657612fd6614b1f565b60200260200101516001600160a01b0316101561301e57600083838151811061300157613001614b1f565b60209081029190910101528161301681614b8f565b925050612f8c565b85818151811061303057613030614b1f565b60200260200101516001600160a01b031687838151811061305357613053614b1f565b60200260200101516001600160a01b031611156130cc5784818151811061307c5761307c614b1f565b60200260200101516000141561309e578061309681614b8f565b915050612f8c565b60405162461bcd60e51b815260206004820152600360248201526254505360e81b60448201526064016104dc565b8481815181106130de576130de614b1f565b60200260200101518383815181106130f8576130f8614b1f565b60209081029190910101528161310d81614b8f565b925050808061309690614b8f565b865182101561315557600083838151811061313857613138614b1f565b60209081029190910101528161314d81614b8f565b92505061311b565b509095945050505050565b6040516001600160a01b03808516602483015283166044820152606481018290526131989085906323b872dd60e01b9060840161244b565b50505050565b60008082602001516000815181106131b8576131b8614b1f565b60209081029190910101516040516370a0823160e01b81523060048201529091506000906001600160a01b038316906370a082319060240160206040518083038186803b15801561320857600080fd5b505afa15801561321c573d6000803e3d6000fd5b505050506040513d601f19601f820116820180604052508101906132409190614b60565b905080613251575060009392505050565b60008460200151516001600160401b038111156132705761327061441a565b604051908082528060200260200182016040528015613299578160200160208202803683370190505b50905060006132ca866060015187602001516000815181106132bd576132bd614b1f565b602002602001015161090d565b905060006132f987608001518860200151600186516132e99190614ddf565b815181106132bd576132bd614b1f565b90506000613308858484612487565b905061332c818960a00151633b9aca006133229190614ddf565b633b9aca00612487565b9050848460008151811061334257613342614b1f565b602090810291909101015261335681615476565b84600186516133659190614ddf565b8151811061337557613375614b1f565b60200260200101818152505084886000015160008151811061339957613399614b1f565b6020908102919091010151606001526007546133c2906001600160a01b0388811691168761418e565b600754885160208a01516040808c0151905163945bcec960e01b81526000946001600160a01b03169363945bcec9936134059387938c9060001990600401615493565b600060405180830381600087803b15801561341f57600080fd5b505af1158015613433573d6000803e3d6000fd5b505050506040513d6000823e601f3d908101601f1916820160405261345b91908101906155b5565b9050806001865161346c9190614ddf565b8151811061347c5761347c614b1f565b602002602001015161348d90615476565b9998505050505050505050565b60606000600660009054906101000a90046001600160a01b03166001600160a01b03166338fff2d06040518163ffffffff1660e01b815260040160206040518083038186803b1580156134ec57600080fd5b505afa158015613500573d6000803e3d6000fd5b505050506040513d601f19601f820116820180604052508101906135249190614b60565b600754604051631f29a8cd60e31b81526004810183905291925060609182916000916001600160a01b039091169063f94d46689060240160006040518083038186803b15801561357357600080fd5b505afa158015613587573d6000803e3d6000fd5b505050506040513d6000823e601f3d908101601f191682016040526135af919081019061529d565b5050905080516001600160401b038111156135cc576135cc61441a565b6040519080825280602002602001820160405280156135f5578160200160208202803683370190505b50915080516001600160401b038111156136115761361161441a565b60405190808252806020026020018201604052801561363a578160200160208202803683370190505b5092506000805b82518110156137195782818151811061365c5761365c614b1f565b602002602001015185828151811061367657613676614b1f565b6001600160a01b03928316602091820292909201015260065484519116908490839081106136a6576136a6614b1f565b60200260200101516001600160a01b031614156136c257613707565b8882815181106136d4576136d4614b1f565b60200260200101518482815181106136ee576136ee614b1f565b60209081029190910101528161370381614b8f565b9250505b8061371181614b8f565b915050613641565b505050600760009054906101000a90046001600160a01b03166001600160a01b031663b95cac28843030604051806080016040528088815260200187815260200160018d60006040516020016137719392919061563a565b6040516020818303038152906040528152602001600015158152506040518563ffffffff1660e01b81526004016137ab9493929190615444565b600060405180830381600087803b1580156137c557600080fd5b505af11580156137d9573d6000803e3d6000fd5b50506006546040516370a0823160e01b8152306004820152600093506001600160a01b0390911691506370a082319060240160206040518083038186803b15801561382357600080fd5b505afa158015613837573d6000803e3d6000fd5b505050506040513d601f19601f8201168201806040525081019061385b9190614b60565b8651909150156138b957858060200190518101906138799190614b60565b811015604051806040016040528060048152602001634c494d5560e01b815250906138b75760405162461bcd60e51b81526004016104dc91906148cf565b505b60095460085460408051633c41a11560e21b815290518a98506001600160a01b03938416936343a0d06693169163f1068454916004808301926020929190829003018186803b15801561390b57600080fd5b505afa15801561391f573d6000803e3d6000fd5b505050506040513d601f19601f820116820180604052508101906139439190614b60565b6040516001600160e01b031960e084901b16815260048101919091526024810184905260016044820152606401602060405180830381600087803b15801561398a57600080fd5b505af115801561399e573d6000803e3d6000fd5b505050506040513d601f19601f820116820180604052508101906139c29190614b45565b505050505092915050565b801580613a565750604051636eb1769f60e11b81523060048201526001600160a01b03838116602483015284169063dd62ed3e9060440160206040518083038186803b158015613a1c57600080fd5b505afa158015613a30573d6000803e3d6000fd5b505050506040513d601f19601f82011682018060405250810190613a549190614b60565b155b613ac15760405162461bcd60e51b815260206004820152603660248201527f5361666545524332303a20617070726f76652066726f6d206e6f6e2d7a65726f60448201527520746f206e6f6e2d7a65726f20616c6c6f77616e636560501b60648201526084016104dc565b6040516001600160a01b03831660248201526044810182905261248290849063095ea7b360e01b9060640161244b565b6004805460408051808201909152918252631253925560e21b602083015215613b2d5760405162461bcd60e51b81526004016104dc91906148cf565b50613b37826140eb565b60405180604001604052806004815260200163494e564160e01b81525090613b725760405162461bcd60e51b81526004016104dc91906148cf565b506040805180820190915260028152612b2d60f11b602082015281613baa5760405162461bcd60e51b81526004016104dc91906148cf565b506000336001600160a01b0316637ac46fbb6040518163ffffffff1660e01b815260040160606040518083038186803b158015613be657600080fd5b505afa158015613bfa573d6000803e3d6000fd5b505050506040513d601f19601f82011682018060405250810190613c1e9190614a91565b51835190915015801590613ca35750806001600160a01b03166378546fa26040518163ffffffff1660e01b815260040160206040518083038186803b158015613c6657600080fd5b505afa158015613c7a573d6000803e3d6000fd5b505050506040513d601f19601f82011682018060405250810190613c9e9190614b60565b835111155b6040518060400160405280600381526020016224a72b60e91b81525090613cdd5760405162461bcd60e51b81526004016104dc91906148cf565b5060005b8351811015613de157816001600160a01b03166363e85d2d858381518110613d0b57613d0b614b1f565b60209081029190910101516040516001600160e01b031960e084901b1681526001600160a01b0390911660048201526003602482015260440160206040518083038186803b158015613d5c57600080fd5b505afa158015613d70573d6000803e3d6000fd5b505050506040513d601f19601f82011682018060405250810190613d949190614b45565b6040518060400160405280600381526020016223292160e91b81525090613dce5760405162461bcd60e51b81526004016104dc91906148cf565b5080613dd981614b8f565b915050613ce1565b50600180546001600160a01b031916331790558251613e0790600290602086019061436a565b50600482905560025460005b81811015613f3757613e2681600161522a565b60036000878481518110613e3c57613e3c614b1f565b60200260200101516001600160a01b03166001600160a01b03168152602001908152602001600020819055506000858281518110613e7c57613e7c614b1f565b6020026020010151905060056002826001600160a01b031663313ce5676040518163ffffffff1660e01b815260040160206040518083038186803b158015613ec357600080fd5b505afa158015613ed7573d6000803e3d6000fd5b505050506040513d601f19601f82011682018060405250810190613efb9190614c4a565b613f059190615676565b613f1090600a614d76565b8154600181018355600092835260209092209091015550613f3081614b8f565b9050613e13565b50604051339032907f0f043e55a1ce0d7ce25125ccbc2800b540d83e21abf7250f0156c2091a28b22190613f6e90889088906156a6565b60405180910390a350505050565b60006301ffc9a760e01b6001600160e01b03198316148061048f57506001600160e01b0319821663305a640b60e21b1492915050565b6000614007826040518060400160405280602081526020017f5361666545524332303a206c6f772d6c6576656c2063616c6c206661696c6564815250856001600160a01b031661424a9092919063ffffffff16565b90508051600014806140285750808060200190518101906140289190614b45565b6124825760405162461bcd60e51b815260206004820152602a60248201527f5361666545524332303a204552433230206f7065726174696f6e20646964206e6044820152691bdd081cdd58d8d9595960b21b60648201526084016104dc565b60008060008351604114604051806040016040528060048152602001631253959360e21b815250906140cc5760405162461bcd60e51b81526004016104dc91906148cf565b5050505060208101516040820151606090920151909260009190911a90565b60006002825110156140ff57506001919050565b60005b600183516141109190614ddf565b811015614185578261412382600161522a565b8151811061413357614133614b1f565b60200260200101516001600160a01b031683828151811061415657614156614b1f565b60200260200101516001600160a01b0316106141755750600092915050565b61417e81614b8f565b9050614102565b50600192915050565b604051636eb1769f60e11b81523060048201526001600160a01b0383811660248301526000919085169063dd62ed3e9060440160206040518083038186803b1580156141d957600080fd5b505afa1580156141ed573d6000803e3d6000fd5b505050506040513d601f19601f820116820180604052508101906142119190614b60565b90506131988463095ea7b360e01b8561422a868661522a565b6040516001600160a01b039092166024830152604482015260640161244b565b6060611290848460008585600080866001600160a01b031685876040516142719190614e7f565b60006040518083038185875af1925050503d80600081146142ae576040519150601f19603f3d011682016040523d82523d6000602084013e6142b3565b606091505b50915091506142c4878383876142cf565b979650505050505050565b6060831561433b578251614334576001600160a01b0385163b6143345760405162461bcd60e51b815260206004820152601d60248201527f416464726573733a2063616c6c20746f206e6f6e2d636f6e747261637400000060448201526064016104dc565b5081611290565b61129083838151156143505781518083602001fd5b8060405162461bcd60e51b81526004016104dc91906148cf565b8280548282559060005260206000209081019282156143bf579160200282015b828111156143bf57825182546001600160a01b0319166001600160a01b0390911617825560209092019160019091019061438a565b506143cb9291506143cf565b5090565b5b808211156143cb57600081556001016143d0565b6001600160e01b0319811681146143fa57600080fd5b50565b60006020828403121561440f57600080fd5b8135611b11816143e4565b634e487b7160e01b600052604160045260246000fd5b60405160a081016001600160401b03811182821017156144525761445261441a565b60405290565b604051602081016001600160401b03811182821017156144525761445261441a565b60405160c081016001600160401b03811182821017156144525761445261441a565b604051601f8201601f191681016001600160401b03811182821017156144c4576144c461441a565b604052919050565b60006001600160401b038211156144e5576144e561441a565b5060051b60200190565b6001600160a01b03811681146143fa57600080fd5b600082601f83011261451557600080fd5b8135602061452a614525836144cc565b61449c565b82815260059290921b8401810191818101908684111561454957600080fd5b8286015b8481101561456d578035614560816144ef565b835291830191830161454d565b509695505050505050565b60006020828403121561458a57600080fd5b81356001600160401b038111156145a057600080fd5b61129084828501614504565b600081518084526020808501945080840160005b838110156145dc578151875295820195908201906001016145c0565b509495945050505050565b602081526000611b1160208301846145ac565b6000806040838503121561460d57600080fd5b8235614618816144ef565b91506020830135614628816144ef565b809150509250929050565b60006001600160401b0382111561464c5761464c61441a565b50601f01601f191660200190565b600082601f83011261466b57600080fd5b813561467961452582614633565b81815284602083860101111561468e57600080fd5b816020850160208301376000918101602001919091529392505050565b600080604083850312156146be57600080fd5b8235915060208301356001600160401b038111156146db57600080fd5b6146e78582860161465a565b9150509250929050565b600082601f83011261470257600080fd5b81356020614712614525836144cc565b82815260059290921b8401810191818101908684111561473157600080fd5b8286015b8481101561456d5780358352918301918301614735565b6000806000806080858703121561476257600080fd5b843561476d816144ef565b935060208501356001600160401b038082111561478957600080fd5b61479588838901614504565b945060408701359150808211156147ab57600080fd5b6147b7888389016146f1565b935060608701359150808211156147cd57600080fd5b506147da8782880161465a565b91505092959194509250565b600080600080606085870312156147fc57600080fd5b8435614807816144ef565b93506020850135614817816143e4565b925060408501356001600160401b038082111561483357600080fd5b818701915087601f83011261484757600080fd5b81358181111561485657600080fd5b88602082850101111561486857600080fd5b95989497505060200194505050565b60005b8381101561489257818101518382015260200161487a565b838111156131985750506000910152565b600081518084526148bb816020860160208601614877565b601f01601f19169290920160200192915050565b602081526000611b1160208301846148a3565b6000602082840312156148f457600080fd5b8135611b11816144ef565b60008060006060848603121561491457600080fd5b83356001600160401b038082111561492b57600080fd5b61493787838801614504565b9450602086013591508082111561494d57600080fd5b614959878388016146f1565b9350604086013591508082111561496f57600080fd5b5061497c8682870161465a565b9150509250925092565b600081518084526020808501945080840160005b838110156145dc5781516001600160a01b03168752958201959082019060010161499a565b602081526000611b116020830184614986565b60008060008060008060c087890312156149eb57600080fd5b8635955060208701356001600160401b03811115614a0857600080fd5b614a1489828a01614504565b9550506040870135614a25816144ef565b93506060870135614a35816144ef565b92506080870135614a45816144ef565b915060a0870135614a55816144ef565b809150509295509295509295565b604081526000614a7660408301856145ac565b8281036020840152614a8881856145ac565b95945050505050565b600060608284031215614aa357600080fd5b604051606081018181106001600160401b0382111715614ac557614ac561441a565b6040528251614ad3816144ef565b81526020830151614ae3816144ef565b60208201526040830151614af6816144ef565b60408201529392505050565b600060208284031215614b1457600080fd5b8151611b11816144ef565b634e487b7160e01b600052603260045260246000fd5b8051801515811461090857600080fd5b600060208284031215614b5757600080fd5b611b1182614b35565b600060208284031215614b7257600080fd5b5051919050565b634e487b7160e01b600052601160045260246000fd5b6000600019821415614ba357614ba3614b79565b5060010190565b6001600160a01b0384168152606060208201819052600090614bce90830185614986565b8281036040840152610a9581856145ac565b805169ffffffffffffffffffff8116811461090857600080fd5b600080600080600060a08688031215614c1257600080fd5b614c1b86614be0565b9450602086015193506040860151925060608601519150614c3e60808701614be0565b90509295509295909350565b600060208284031215614c5c57600080fd5b815160ff81168114611b1157600080fd5b600060ff821660ff84168060ff03821115614c8a57614c8a614b79565b019392505050565b600181815b80851115614ccd578160001904821115614cb357614cb3614b79565b80851615614cc057918102915b93841c9390800290614c97565b509250929050565b600082614ce45750600161048f565b81614cf15750600061048f565b8160018114614d075760028114614d1157614d2d565b600191505061048f565b60ff841115614d2257614d22614b79565b50506001821b61048f565b5060208310610133831016604e8410600b8410161715614d50575081810a61048f565b614d5a8383614c92565b8060001904821115614d6e57614d6e614b79565b029392505050565b6000611b1160ff841683614cd5565b82815260406020820152600061129060408301846148a3565b600060208284031215614db057600080fd5b8151611b11816143e4565b6001600160a01b0383168152604060208201819052600090611290908301846145ac565b600082821015614df157614df1614b79565b500390565b6001600160a01b03878116825286166020820152604081018590526001600160e01b03198416606082015260a06080820181905281018290526000828460c0840137600060c0848401015260c0601f19601f8501168301019050979650505050505050565b6001600160e01b031984168152818360048301376000910160040190815292915050565b60008251614e91818460208701614877565b9190910192915050565b600082601f830112614eac57600080fd5b81516020614ebc614525836144cc565b82815260059290921b84018101918181019086841115614edb57600080fd5b8286015b8481101561456d5780516001600160401b0380821115614eff5760008081fd5b9088019060a0828b03601f1901811315614f195760008081fd5b614f21614430565b838801518152604080850151828a01526060808601518284015260808087015182850152938601519385851115614f5a57600091508182fd5b84870196508e603f880112614f7157600095508586fd5b8a8701519550614f8361452587614633565b94508585528e83878901011115614f9c57600091508182fd5b614fab868c8701858a01614877565b830193909352508652505050918301918301614edf565b600082601f830112614fd357600080fd5b81516020614fe3614525836144cc565b82815260059290921b8401810191818101908684111561500257600080fd5b8286015b8481101561456d578051615019816144ef565b8352918301918301615006565b60006080828403121561503857600080fd5b604051608081018181106001600160401b038211171561505a5761505a61441a565b8060405250809150825161506d816144ef565b815261507b60208401614b35565b6020820152604083015161508e816144ef565b604082015261509f60608401614b35565b60608201525092915050565b8051610908816144ef565b600060208083850312156150c957600080fd5b82516001600160401b03808211156150e057600080fd5b81850191508282870312156150f457600080fd5b6150fc614458565b82518281111561510b57600080fd5b80840193505086601f84011261512057600080fd5b825161512e614525826144cc565b81815260059190911b8401850190858101908983111561514d57600080fd5b8686015b8381101561521a5780518681111561516857600080fd5b8701610120818d03601f190181131561518057600080fd5b61518861447a565b8a8301518981111561519957600080fd5b6151a78f8d83870101614e9b565b8252506040830151898111156151bd5760008081fd5b6151cb8f8d83870101614fc2565b8c8301525060606151de8f828601615026565b60408301526151ef60e085016150ab565b9082015261520061010084016150ab565b608082015291015160a08201528352918701918701615151565b5083525090979650505050505050565b6000821982111561523d5761523d614b79565b500190565b600082601f83011261525357600080fd5b81516020615263614525836144cc565b82815260059290921b8401810191818101908684111561528257600080fd5b8286015b8481101561456d5780518352918301918301615286565b6000806000606084860312156152b257600080fd5b83516001600160401b03808211156152c957600080fd5b818601915086601f8301126152dd57600080fd5b815160206152ed614525836144cc565b82815260059290921b8401810191818101908a84111561530c57600080fd5b948201945b83861015615333578551615324816144ef565b82529482019490820190615311565b9189015191975090935050508082111561534c57600080fd5b5061535986828701615242565b925050604084015190509250925092565b634e487b7160e01b600052602160045260246000fd5b6000600385106153925761539261536a565b848252606060208301526153a960608301856145ac565b9050826040830152949350505050565b60008151608084526153ce6080850182614986565b60208481015186830387830152805180845290820193509091600091908301905b8083101561540f57845182529383019360019290920191908301906153ef565b5060408601519350868103604088015261542981856148a3565b93505050506060830151151560608501528091505092915050565b8481526001600160a01b03848116602083015283166040820152608060608201819052600090610a95908301846153b9565b6000600160ff1b82141561548c5761548c614b79565b5060000390565b600061012080830160028a106154ab576154ab61536a565b89845260208085019290925288519081905261014080850192600583901b8601909101918a820160005b828110156155385787850361013f190186528151805186528481015185870152604080820151908701526060808201519087015260809081015160a091870182905290615524818801836148a3565b9786019796505050908301906001016154d5565b50505050838103604085015261554e8189614986565b91505061558e606084018780516001600160a01b039081168352602080830151151590840152604080830151909116908301526060908101511515910152565b82810360e08401526155a081866145ac565b91505082610100830152979650505050505050565b600060208083850312156155c857600080fd5b82516001600160401b038111156155de57600080fd5b8301601f810185136155ef57600080fd5b80516155fd614525826144cc565b81815260059190911b8201830190838101908783111561561c57600080fd5b928401925b828410156142c457835182529284019290840190615621565b60006004851061564c5761564c61536a565b8482526060602083015261566360608301856145ac565b905060ff83166040830152949350505050565b600060ff83168061569757634e487b7160e01b600052601260045260246000fd5b8060ff84160491505092915050565b6040815260006156b96040830185614986565b9050826020830152939250505056fea2646970667358221220aff1c371b46378f0a3640f8fd0387eb6ff0cceac551d236ba15a18554db7eb1764736f6c63430008090033",
    "linkReferences": {}
  },
  "methodIdentifiers": {
    "D9()": "551530ae",
    "Q96()": "40792465",
    "auraBaseRewardPool()": "15b3a0de",
    "auraBooster()": "81bf829d",
    "balancerVault()": "158274a5",
    "claimRewards()": "372500ab",
    "externalCall(address,bytes4,bytes)": "2e2f4cc2",
    "getPriceToUSDX96(address,address)": "0a41ac32",
    "initialize(uint256,address[],address,address,address,address)": "d3d338ae",
    "initialized()": "158ef93e",
    "isValidSignature(bytes32,bytes)": "1626ba7e",
    "isVaultToken(address)": "338c4ccb",
    "nft()": "47ccca02",
    "pool()": "16f0115b",
    "pull(address,address[],uint256[],bytes)": "2062d754",
    "pullExistentials()": "d2c219b0",
    "push(address[],uint256[],bytes)": "566ca6b4",
    "reclaimTokens(address[])": "05e1c942",
    "supportsInterface(bytes4)": "01ffc9a7",
    "transferAndPush(address,address[],uint256[],bytes)": "27a35e5a",
    "tvl()": "e5328e06",
    "vaultGovernance()": "fe255a5e",
    "vaultTokens()": "69722233"
  },
  "id": 448
}