{
  "abi": [
    {
      "inputs": [
        {
          "internalType": "address[]",
          "name": "targets",
          "type": "address[]"
        },
        {
          "internalType": "bytes[]",
          "name": "data",
          "type": "bytes[]"
        }
      ],
      "name": "batchcall",
      "outputs": [
        {
          "internalType": "bytes[]",
          "name": "results",
          "type": "bytes[]"
        }
      ],
      "stateMutability": "nonpayable",
      "type": "function"
    }
  ],
  "bytecode": {
    "object": "0x608060405234801561001057600080fd5b506105c3806100206000396000f3fe608060405234801561001057600080fd5b506004361061002b5760003560e01c806332dd2aba14610030575b600080fd5b61004361003e366004610348565b610059565b6040516100509190610410565b60405180910390f35b6040805180820190915260048152631253959360e21b60208201526060908483146100a05760405162461bcd60e51b81526004016100979190610472565b60405180910390fd5b508167ffffffffffffffff8111156100ba576100ba610485565b6040519080825280602002602001820160405280156100ed57816020015b60608152602001906001900390816100d85790505b50905060005b828110156101b3576101838686838181106101105761011061049b565b905060200201602081019061012591906104b1565b8585848181106101375761013761049b565b905060200281019061014991906104da565b8080601f0160208091040260200160405190810160405280939291908181526020018383808284376000920191909152506101bd92505050565b8282815181106101955761019561049b565b602002602001018190525080806101ab90610521565b9150506100f3565b505b949350505050565b60606101e28383604051806060016040528060278152602001610567602791396101e9565b9392505050565b6060600080856001600160a01b031685604051610206919061054a565b600060405180830381855af49150503d8060008114610241576040519150601f19603f3d011682016040523d82523d6000602084013e610246565b606091505b509150915061025786838387610261565b9695505050505050565b606083156102cd5782516102c6576001600160a01b0385163b6102c65760405162461bcd60e51b815260206004820152601d60248201527f416464726573733a2063616c6c20746f206e6f6e2d636f6e74726163740000006044820152606401610097565b50816101b5565b6101b583838151156102e25781518083602001fd5b8060405162461bcd60e51b81526004016100979190610472565b60008083601f84011261030e57600080fd5b50813567ffffffffffffffff81111561032657600080fd5b6020830191508360208260051b850101111561034157600080fd5b9250929050565b6000806000806040858703121561035e57600080fd5b843567ffffffffffffffff8082111561037657600080fd5b610382888389016102fc565b9096509450602087013591508082111561039b57600080fd5b506103a8878288016102fc565b95989497509550505050565b60005b838110156103cf5781810151838201526020016103b7565b838111156103de576000848401525b50505050565b600081518084526103fc8160208601602086016103b4565b601f01601f19169290920160200192915050565b6000602080830181845280855180835260408601915060408160051b870101925083870160005b8281101561046557603f198886030184526104538583516103e4565b94509285019290850190600101610437565b5092979650505050505050565b6020815260006101e260208301846103e4565b634e487b7160e01b600052604160045260246000fd5b634e487b7160e01b600052603260045260246000fd5b6000602082840312156104c357600080fd5b81356001600160a01b03811681146101e257600080fd5b6000808335601e198436030181126104f157600080fd5b83018035915067ffffffffffffffff82111561050c57600080fd5b60200191503681900382131561034157600080fd5b600060001982141561054357634e487b7160e01b600052601160045260246000fd5b5060010190565b6000825161055c8184602087016103b4565b919091019291505056fe416464726573733a206c6f772d6c6576656c2064656c65676174652063616c6c206661696c6564a26469706673582212204c4aa596d3e1353a212cc2d958d5b8537d39ba2e80daae1cd9c465f857ae458064736f6c63430008090033",
    "linkReferences": {}
  },
  "methodIdentifiers": {
    "batchcall(address[],bytes[])": "32dd2aba"
  },
  "id": 407
}