{
  "abi": [
    {
      "inputs": [
        {
          "internalType": "contract IAlgebraNonfungiblePositionManager",
          "name": "positionManager_",
          "type": "address"
        },
        {
          "internalType": "contract ICamelotHelper",
          "name": "helper_",
          "type": "address"
        }
      ],
      "stateMutability": "nonpayable",
      "type": "constructor"
    },
    {
      "anonymous": false,
      "inputs": [
        {
          "indexed": true,
          "internalType": "address",
          "name": "origin",
          "type": "address"
        },
        {
          "indexed": true,
          "internalType": "address",
          "name": "sender",
          "type": "address"
        },
        {
          "indexed": false,
          "internalType": "uint256",
          "name": "amount0",
          "type": "uint256"
        },
        {
          "indexed": false,
          "internalType": "uint256",
          "name": "amount1",
          "type": "uint256"
        }
      ],
      "name": "CollectedEarnings",
      "type": "event"
    },
    {
      "anonymous": false,
      "inputs": [
        {
          "indexed": true,
          "internalType": "address",
          "name": "origin",
          "type": "address"
        },
        {
          "indexed": true,
          "internalType": "address",
          "name": "sender",
          "type": "address"
        },
        {
          "indexed": false,
          "internalType": "uint256",
          "name": "amount0",
          "type": "uint256"
        },
        {
          "indexed": false,
          "internalType": "uint256",
          "name": "amount1",
          "type": "uint256"
        }
      ],
      "name": "CollectedRewards",
      "type": "event"
    },
    {
      "anonymous": false,
      "inputs": [
        {
          "indexed": true,
          "internalType": "address",
          "name": "origin",
          "type": "address"
        },
        {
          "indexed": true,
          "internalType": "address",
          "name": "sender",
          "type": "address"
        },
        {
          "indexed": false,
          "internalType": "address[]",
          "name": "vaultTokens_",
          "type": "address[]"
        },
        {
          "indexed": false,
          "internalType": "uint256",
          "name": "nft_",
          "type": "uint256"
        }
      ],
      "name": "Initialized",
      "type": "event"
    },
    {
      "anonymous": false,
      "inputs": [
        {
          "indexed": false,
          "internalType": "address",
          "name": "to",
          "type": "address"
        },
        {
          "indexed": false,
          "internalType": "uint256[]",
          "name": "tokenAmounts",
          "type": "uint256[]"
        }
      ],
      "name": "Pull",
      "type": "event"
    },
    {
      "anonymous": false,
      "inputs": [
        {
          "indexed": false,
          "internalType": "uint256[]",
          "name": "tokenAmounts",
          "type": "uint256[]"
        }
      ],
      "name": "Push",
      "type": "event"
    },
    {
      "anonymous": false,
      "inputs": [
        {
          "indexed": false,
          "internalType": "address",
          "name": "to",
          "type": "address"
        },
        {
          "indexed": false,
          "internalType": "address[]",
          "name": "tokens",
          "type": "address[]"
        },
        {
          "indexed": false,
          "internalType": "uint256[]",
          "name": "tokenAmounts",
          "type": "uint256[]"
        }
      ],
      "name": "ReclaimTokens",
      "type": "event"
    },
    {
      "inputs": [],
      "name": "D9",
      "outputs": [
        {
          "internalType": "uint256",
          "name": "",
          "type": "uint256"
        }
      ],
      "stateMutability": "view",
      "type": "function"
    },
    {
      "inputs": [],
      "name": "Q96",
      "outputs": [
        {
          "internalType": "uint256",
          "name": "",
          "type": "uint256"
        }
      ],
      "stateMutability": "view",
      "type": "function"
    },
    {
      "inputs": [],
      "name": "collectEarnings",
      "outputs": [
        {
          "internalType": "uint256[]",
          "name": "collectedFees",
          "type": "uint256[]"
        }
      ],
      "stateMutability": "nonpayable",
      "type": "function"
    },
    {
      "inputs": [],
      "name": "erc20Vault",
      "outputs": [
        {
          "internalType": "address",
          "name": "",
          "type": "address"
        }
      ],
      "stateMutability": "view",
      "type": "function"
    },
    {
      "inputs": [
        {
          "internalType": "address",
          "name": "to",
          "type": "address"
        },
        {
          "internalType": "bytes4",
          "name": "selector",
          "type": "bytes4"
        },
        {
          "internalType": "bytes",
          "name": "data",
          "type": "bytes"
        }
      ],
      "name": "externalCall",
      "outputs": [
        {
          "internalType": "bytes",
          "name": "result",
          "type": "bytes"
        }
      ],
      "stateMutability": "payable",
      "type": "function"
    },
    {
      "inputs": [],
      "name": "factory",
      "outputs": [
        {
          "internalType": "contract IAlgebraFactory",
          "name": "",
          "type": "address"
        }
      ],
      "stateMutability": "view",
      "type": "function"
    },
    {
      "inputs": [],
      "name": "helper",
      "outputs": [
        {
          "internalType": "contract ICamelotHelper",
          "name": "",
          "type": "address"
        }
      ],
      "stateMutability": "view",
      "type": "function"
    },
    {
      "inputs": [
        {
          "internalType": "uint256",
          "name": "nft_",
          "type": "uint256"
        },
        {
          "internalType": "address",
          "name": "erc20Vault_",
          "type": "address"
        },
        {
          "internalType": "address[]",
          "name": "vaultTokens_",
          "type": "address[]"
        }
      ],
      "name": "initialize",
      "outputs": [],
      "stateMutability": "nonpayable",
      "type": "function"
    },
    {
      "inputs": [],
      "name": "initialized",
      "outputs": [
        {
          "internalType": "bool",
          "name": "",
          "type": "bool"
        }
      ],
      "stateMutability": "view",
      "type": "function"
    },
    {
      "inputs": [
        {
          "internalType": "bytes32",
          "name": "_hash",
          "type": "bytes32"
        },
        {
          "internalType": "bytes",
          "name": "_signature",
          "type": "bytes"
        }
      ],
      "name": "isValidSignature",
      "outputs": [
        {
          "internalType": "bytes4",
          "name": "magicValue",
          "type": "bytes4"
        }
      ],
      "stateMutability": "view",
      "type": "function"
    },
    {
      "inputs": [
        {
          "internalType": "address",
          "name": "token",
          "type": "address"
        }
      ],
      "name": "isVaultToken",
      "outputs": [
        {
          "internalType": "bool",
          "name": "",
          "type": "bool"
        }
      ],
      "stateMutability": "view",
      "type": "function"
    },
    {
      "inputs": [],
      "name": "nft",
      "outputs": [
        {
          "internalType": "uint256",
          "name": "",
          "type": "uint256"
        }
      ],
      "stateMutability": "view",
      "type": "function"
    },
    {
      "inputs": [
        {
          "internalType": "address",
          "name": "operator",
          "type": "address"
        },
        {
          "internalType": "address",
          "name": "from",
          "type": "address"
        },
        {
          "internalType": "uint256",
          "name": "tokenId",
          "type": "uint256"
        },
        {
          "internalType": "bytes",
          "name": "",
          "type": "bytes"
        }
      ],
      "name": "onERC721Received",
      "outputs": [
        {
          "internalType": "bytes4",
          "name": "",
          "type": "bytes4"
        }
      ],
      "stateMutability": "nonpayable",
      "type": "function"
    },
    {
      "inputs": [],
      "name": "pool",
      "outputs": [
        {
          "internalType": "contract IAlgebraPool",
          "name": "",
          "type": "address"
        }
      ],
      "stateMutability": "view",
      "type": "function"
    },
    {
      "inputs": [],
      "name": "positionManager",
      "outputs": [
        {
          "internalType": "contract IAlgebraNonfungiblePositionManager",
          "name": "",
          "type": "address"
        }
      ],
      "stateMutability": "view",
      "type": "function"
    },
    {
      "inputs": [],
      "name": "positionNft",
      "outputs": [
        {
          "internalType": "uint256",
          "name": "",
          "type": "uint256"
        }
      ],
      "stateMutability": "view",
      "type": "function"
    },
    {
      "inputs": [
        {
          "internalType": "address",
          "name": "to",
          "type": "address"
        },
        {
          "internalType": "address[]",
          "name": "tokens",
          "type": "address[]"
        },
        {
          "internalType": "uint256[]",
          "name": "tokenAmounts",
          "type": "uint256[]"
        },
        {
          "internalType": "bytes",
          "name": "options",
          "type": "bytes"
        }
      ],
      "name": "pull",
      "outputs": [
        {
          "internalType": "uint256[]",
          "name": "actualTokenAmounts",
          "type": "uint256[]"
        }
      ],
      "stateMutability": "nonpayable",
      "type": "function"
    },
    {
      "inputs": [],
      "name": "pullExistentials",
      "outputs": [
        {
          "internalType": "uint256[]",
          "name": "",
          "type": "uint256[]"
        }
      ],
      "stateMutability": "view",
      "type": "function"
    },
    {
      "inputs": [
        {
          "internalType": "address[]",
          "name": "tokens",
          "type": "address[]"
        },
        {
          "internalType": "uint256[]",
          "name": "tokenAmounts",
          "type": "uint256[]"
        },
        {
          "internalType": "bytes",
          "name": "options",
          "type": "bytes"
        }
      ],
      "name": "push",
      "outputs": [
        {
          "internalType": "uint256[]",
          "name": "actualTokenAmounts",
          "type": "uint256[]"
        }
      ],
      "stateMutability": "nonpayable",
      "type": "function"
    },
    {
      "inputs": [
        {
          "internalType": "address[]",
          "name": "tokens",
          "type": "address[]"
        }
      ],
      "name": "reclaimTokens",
      "outputs": [
        {
          "internalType": "uint256[]",
          "name": "actualTokenAmounts",
          "type": "uint256[]"
        }
      ],
      "stateMutability": "nonpayable",
      "type": "function"
    },
    {
      "inputs": [
        {
          "internalType": "bytes4",
          "name": "interfaceId",
          "type": "bytes4"
        }
      ],
      "name": "supportsInterface",
      "outputs": [
        {
          "internalType": "bool",
          "name": "",
          "type": "bool"
        }
      ],
      "stateMutability": "view",
      "type": "function"
    },
    {
      "inputs": [
        {
          "internalType": "address",
          "name": "from",
          "type": "address"
        },
        {
          "internalType": "address[]",
          "name": "tokens",
          "type": "address[]"
        },
        {
          "internalType": "uint256[]",
          "name": "tokenAmounts",
          "type": "uint256[]"
        },
        {
          "internalType": "bytes",
          "name": "options",
          "type": "bytes"
        }
      ],
      "name": "transferAndPush",
      "outputs": [
        {
          "internalType": "uint256[]",
          "name": "actualTokenAmounts",
          "type": "uint256[]"
        }
      ],
      "stateMutability": "nonpayable",
      "type": "function"
    },
    {
      "inputs": [],
      "name": "tvl",
      "outputs": [
        {
          "internalType": "uint256[]",
          "name": "minTokenAmounts",
          "type": "uint256[]"
        },
        {
          "internalType": "uint256[]",
          "name": "maxTokenAmounts",
          "type": "uint256[]"
        }
      ],
      "stateMutability": "view",
      "type": "function"
    },
    {
      "inputs": [],
      "name": "vaultGovernance",
      "outputs": [
        {
          "internalType": "contract IVaultGovernance",
          "name": "",
          "type": "address"
        }
      ],
      "stateMutability": "view",
      "type": "function"
    },
    {
      "inputs": [],
      "name": "vaultTokens",
      "outputs": [
        {
          "internalType": "address[]",
          "name": "",
          "type": "address[]"
        }
      ],
      "stateMutability": "view",
      "type": "function"
    }
  ],
  "bytecode": {
    "object": "0x60e06040523480156200001157600080fd5b5060405162004a2a38038062004a2a8339810160408190526200003491620000f2565b600160005560001960049081556001600160a01b03831660808190526040805163c45a015560e01b81529051919263c45a0155928282019260209290829003018186803b1580156200008557600080fd5b505afa1580156200009a573d6000803e3d6000fd5b505050506040513d601f19601f82011682018060405250810190620000c0919062000131565b6001600160a01b0390811660a0521660c0525062000158565b6001600160a01b0381168114620000ef57600080fd5b50565b600080604083850312156200010657600080fd5b82516200011381620000d9565b60208401519092506200012681620000d9565b809150509250929050565b6000602082840312156200014457600080fd5b81516200015181620000d9565b9392505050565b60805160a05160c051614847620001e3600039600081816103d4015281816120df01528181612867015261343e0152600081816104730152611a6401526000818161042a015281816109cd01528181610a7301528181610bbe01528181610cc1015281816119fb01528181611f310152818161299c01528181612a62015261350a01526148476000f3fe6080604052600436106101665760003560e01c8063463e34be116100d1578063791b98bc1161008a578063d2c219b011610064578063d2c219b014610495578063e5328e06146104aa578063ef7d8037146104cd578063fe255a5e146104e357600080fd5b8063791b98bc14610418578063c27b2c2d1461044c578063c45a01551461046157600080fd5b8063463e34be1461035357806347ccca0214610375578063551530ae1461038a578063566ca6b4146103a257806363b0e66a146103c257806369722233146103f657600080fd5b806316f0115b1161012357806316f0115b146102755780632062d7541461029557806327a35e5a146102b55780632e2f4cc2146102d5578063338c4ccb146102f5578063407924651461032d57600080fd5b806301ffc9a71461016b57806305e1c942146101a0578063090f9221146101cd578063150b7a0214610205578063158ef93e1461023e5780631626ba7e14610255575b600080fd5b34801561017757600080fd5b5061018b610186366004613adf565b610501565b60405190151581526020015b60405180910390f35b3480156101ac57600080fd5b506101c06101bb366004613bee565b61052d565b6040516101979190613c5d565b3480156101d957600080fd5b506007546101ed906001600160a01b031681565b6040516001600160a01b039091168152602001610197565b34801561021157600080fd5b50610225610220366004613cdf565b6109a5565b6040516001600160e01b03199091168152602001610197565b34801561024a57600080fd5b50600454151561018b565b34801561026157600080fd5b50610225610270366004613d4a565b610d39565b34801561028157600080fd5b506008546101ed906001600160a01b031681565b3480156102a157600080fd5b506101c06102b0366004613deb565b611086565b3480156102c157600080fd5b506101c06102d0366004613deb565b61152a565b6102e86102e3366004613e79565b6116b1565b6040516101979190613f62565b34801561030157600080fd5b5061018b610310366004613f75565b6001600160a01b0316600090815260036020526040902054151590565b34801561033957600080fd5b50610345600160601b81565b604051908152602001610197565b34801561035f57600080fd5b5061037361036e366004613f92565b611985565b005b34801561038157600080fd5b50600454610345565b34801561039657600080fd5b50610345633b9aca0081565b3480156103ae57600080fd5b506101c06103bd366004613fea565b611b6e565b3480156103ce57600080fd5b506101ed7f000000000000000000000000000000000000000000000000000000000000000081565b34801561040257600080fd5b5061040b611e3e565b60405161019791906140a0565b34801561042457600080fd5b506101ed7f000000000000000000000000000000000000000000000000000000000000000081565b34801561045857600080fd5b506101c0611ea0565b34801561046d57600080fd5b506101ed7f000000000000000000000000000000000000000000000000000000000000000081565b3480156104a157600080fd5b506101c0612083565b3480156104b657600080fd5b506104bf6120da565b6040516101979291906140b3565b3480156104d957600080fd5b5061034560065481565b3480156104ef57600080fd5b506001546001600160a01b03166101ed565b600061050c82612189565b8061052757506001600160e01b0319821663aa36645d60e01b145b92915050565b60606105376121cf565b6004805460408051808201909152918252631253925560e21b6020830152908161057d5760405162461bcd60e51b81526004016105749190613f62565b60405180910390fd5b5060015460408051637ac46fbb60e01b815290516000926001600160a01b031691637ac46fbb916004808301926060929190829003018186803b1580156105c357600080fd5b505afa1580156105d7573d6000803e3d6000fd5b505050506040513d601f19601f820116820180604052508101906105fb91906140e1565b805160208201516040516331a9108f60e11b81526004810186905292935090916000906001600160a01b03831690636352211e9060240160206040518083038186803b15801561064a57600080fd5b505afa15801561065e573d6000803e3d6000fd5b505050506040513d601f19601f82011682018060405250810190610682919061415d565b90506000610691838784612229565b604051639bd0911b60e01b8152600060048201526001600160a01b039190911690639bd0911b9060240160206040518083038186803b1580156106d357600080fd5b505afa1580156106e7573d6000803e3d6000fd5b505050506040513d601f19601f8201168201806040525081019061070b919061415d565b905087516001600160401b0381111561072657610726613afc565b60405190808252806020026020018201604052801561074f578160200160208202803683370190505b5096506001600160a01b03811630141561076e57505050505050610996565b60005b88518110156109535761079789828151811061078f5761078f61417a565b506000919050565b806108495750846001600160a01b03166363e85d2d8a83815181106107be576107be61417a565b60209081029190910101516040516001600160e01b031960e084901b1681526001600160a01b0390911660048201526002602482015260440160206040518083038186803b15801561080f57600080fd5b505afa158015610823573d6000803e3d6000fd5b505050506040513d601f19601f8201168201806040525081019061084791906141a0565b155b1561085357610943565b60008982815181106108675761086761417a565b60209081029190910101516040516370a0823160e01b81523060048201529091506001600160a01b038216906370a082319060240160206040518083038186803b1580156108b457600080fd5b505afa1580156108c8573d6000803e3d6000fd5b505050506040513d601f19601f820116820180604052508101906108ec91906141bb565b8983815181106108fe576108fe61417a565b602002602001018181525050610941838a84815181106109205761092061417a565b6020026020010151836001600160a01b03166122fc9092919063ffffffff16565b505b61094c816141ea565b9050610771565b507f9efcb26e0cf572bd9171640e114f387cef91cd3e38532ed6b3f80c7f2e758f8781898960405161098793929190614205565b60405180910390a15050505050505b6109a06001600055565b919050565b60408051808201909152600381526223292160e91b6020820152600090336001600160a01b037f00000000000000000000000000000000000000000000000000000000000000001614610a0b5760405162461bcd60e51b81526004016105749190613f62565b50610a1585612364565b6040518060400160405280600381526020016223292160e91b81525090610a4f5760405162461bcd60e51b81526004016105749190613f62565b5060405163133f757160e31b81526004810184905260009081906001600160a01b037f000000000000000000000000000000000000000000000000000000000000000016906399fbab88906024016101606040518083038186803b158015610ab657600080fd5b505afa158015610aca573d6000803e3d6000fd5b505050506040513d601f19601f82011682018060405250810190610aee919061426e565b505050505050509350935050506002600081548110610b0f57610b0f61417a565b6000918252602090912001546001600160a01b038381169116148015610b5f57506002600181548110610b4457610b4461417a565b6000918252602090912001546001600160a01b038281169116145b60405180604001604052806005815260200164494e56544f60d81b81525090610b9b5760405162461bcd60e51b81526004016105749190613f62565b506006548015610d1f5760405163133f757160e31b8152600481018290526000907f00000000000000000000000000000000000000000000000000000000000000006001600160a01b0316906399fbab88906024016101606040518083038186803b158015610c0957600080fd5b505afa158015610c1d573d6000803e3d6000fd5b505050506040513d601f19601f82011682018060405250810190610c41919061426e565b505050509650505050505050806001600160801b03166000146040518060400160405280600381526020016224a72b60e91b81525090610c945760405162461bcd60e51b81526004016105749190613f62565b50604051632142170760e11b81523060048201526001600160a01b038981166024830152604482018490527f000000000000000000000000000000000000000000000000000000000000000016906342842e0e90606401600060405180830381600087803b158015610d0557600080fd5b505af1158015610d19573d6000803e3d6000fd5b50505050505b505050600683905550630a85bd0160e11b5b949350505050565b600080600160009054906101000a90046001600160a01b03166001600160a01b0316637ac46fbb6040518163ffffffff1660e01b815260040160606040518083038186803b158015610d8a57600080fd5b505afa158015610d9e573d6000803e3d6000fd5b505050506040513d601f19601f82011682018060405250810190610dc291906140e1565b60208101518151600454929350909180610deb57506001600160e01b0319935061052792505050565b60405163020604bf60e21b8152600481018290526000906001600160a01b0385169063081812fc9060240160206040518083038186803b158015610e2e57600080fd5b505afa158015610e42573d6000803e3d6000fd5b505050506040513d601f19601f82011682018060405250810190610e66919061415d565b6040516363e85d2d60e01b81526001600160a01b03808316600483015260066024830152919250908416906363e85d2d9060440160206040518083038186803b158015610eb257600080fd5b505afa158015610ec6573d6000803e3d6000fd5b505050506040513d601f19601f82011682018060405250810190610eea91906141a0565b610f0457506001600160e01b031994506105279350505050565b803b63ffffffff811615611037576040516301ffc9a760e01b8152630b135d3f60e11b60048201526001600160a01b038316906301ffc9a79060240160206040518083038186803b158015610f5857600080fd5b505afa158015610f6c573d6000803e3d6000fd5b505050506040513d601f19601f82011682018060405250810190610f9091906141a0565b1561102057604051630b135d3f60e11b81526001600160a01b03831690631626ba7e90610fc3908c908c90600401614344565b60206040518083038186803b158015610fdb57600080fd5b505afa158015610fef573d6000803e3d6000fd5b505050506040513d601f19601f82011682018060405250810190611013919061435d565b9650505050505050610527565b506001600160e01b03199550610527945050505050565b816001600160a01b031661104b8a8a612484565b6001600160a01b031614156110705750630b135d3f60e11b9550610527945050505050565b506001600160e01b031998975050505050505050565b60606110906121cf565b6004805460408051808201909152918252631253925560e21b602083015290816110cd5760405162461bcd60e51b81526004016105749190613f62565b506110d733612503565b6040518060400160405280600381526020016223292160e91b815250906111115760405162461bcd60e51b81526004016105749190613f62565b5060015460408051637ac46fbb60e01b815290516000926001600160a01b031691637ac46fbb916004808301926060929190829003018186803b15801561115757600080fd5b505afa15801561116b573d6000803e3d6000fd5b505050506040513d601f19601f8201168201806040525081019061118f91906140e1565b602001516040516331a9108f60e11b8152600481018490529091506000906001600160a01b03831690636352211e9060240160206040518083038186803b1580156111d957600080fd5b505afa1580156111ed573d6000803e3d6000fd5b505050506040513d601f19601f82011682018060405250810190611211919061415d565b90506000611220838584612229565b90506001600160a01b038216331461145d57604051639bd0911b60e01b8152600060048201819052906001600160a01b03831690639bd0911b9060240160206040518083038186803b15801561127557600080fd5b505afa158015611289573d6000803e3d6000fd5b505050506040513d601f19601f820116820180604052508101906112ad919061415d565b90506001600160a01b0381163014156114085760405163fcdabd2760e01b81526001600160a01b038b8116600483015280841691639d9fd0d99187169063fcdabd279060240160206040518083038186803b15801561130b57600080fd5b505afa15801561131f573d6000803e3d6000fd5b505050506040513d601f19601f8201168201806040525081019061134391906141bb565b6040518263ffffffff1660e01b815260040161136191815260200190565b60206040518083038186803b15801561137957600080fd5b505afa15801561138d573d6000803e3d6000fd5b505050506040513d601f19601f820116820180604052508101906113b191906141a0565b80156113c657506001600160a01b038a163014155b6040518060400160405280600581526020016424a72b2a2960d91b815250906114025760405162461bcd60e51b81526004016105749190613f62565b5061145b565b896001600160a01b0316816001600160a01b0316146040518060400160405280600581526020016424a72b2a2960d91b815250906114595760405162461bcd60e51b81526004016105749190613f62565b505b505b600061146989896126c1565b905060006114788b838a6127ad565b90506114df8a60028054806020026020016040519081016040528092919081815260200182805480156114d457602002820191906000526020600020905b81546001600160a01b031681526001909101906020018083116114b6575b505050505083612be0565b96507f54f9e6ef58e36de62f59f9ee6c4b878af84989c53a3642eba415ac3ac4e11cda8b8860405161151292919061437a565b60405180910390a1505050505050610d316001600055565b825160609060005b818110156115bd5784818151811061154c5761154c61417a565b60200260200101516000146115ad576115ad87308784815181106115725761157261417a565b602002602001015189858151811061158c5761158c61417a565b60200260200101516001600160a01b0316612e01909392919063ffffffff16565b6115b6816141ea565b9050611532565b506115c9858585611b6e565b915060005b85518110156116a75760008582815181106115eb576115eb61417a565b60200260200101518483815181106116055761160561417a565b602002602001015110611619576000611657565b83828151811061162b5761162b61417a565b60200260200101518683815181106116455761164561417a565b6020026020010151611657919061439e565b905080156116965761169688828985815181106116765761167661417a565b60200260200101516001600160a01b03166122fc9092919063ffffffff16565b506116a0816141ea565b90506115ce565b5050949350505050565b60606116bb6121cf565b6004805460408051808201909152918252631253925560e21b60208301526116f65760405162461bcd60e51b81526004016105749190613f62565b5061170033612503565b6040518060400160405280600381526020016223292160e91b8152509061173a5760405162461bcd60e51b81526004016105749190613f62565b5060015460408051637ac46fbb60e01b815290516000926001600160a01b031691637ac46fbb916004808301926060929190829003018186803b15801561178057600080fd5b505afa158015611794573d6000803e3d6000fd5b505050506040513d601f19601f820116820180604052508101906117b891906140e1565b51604051631f4a58fb60e31b81526001600160a01b03888116600483015291925060009183169063fa52c7d89060240160206040518083038186803b15801561180057600080fd5b505afa158015611814573d6000803e3d6000fd5b505050506040513d601f19601f82011682018060405250810190611838919061415d565b60408051808201909152600381526223292160e91b60208201529091506001600160a01b03821661187c5760405162461bcd60e51b81526004016105749190613f62565b50604051631796170d60e21b81526001600160a01b03821690635e585c34906118b39033908b9034908c908c908c906004016143b5565b60006040518083038186803b1580156118cb57600080fd5b505afa1580156118df573d6000803e3d6000fd5b50505050600080886001600160a01b0316348989896040516020016119069392919061441a565b60408051601f19818403018152908290526119209161443e565b60006040518083038185875af1925050503d806000811461195d576040519150601f19603f3d011682016040523d82523d6000602084013e611962565b606091505b5091509150816119755780518082602001fd5b60016000559350610d3192505050565b80516002146040518060400160405280600381526020016224a72b60e91b815250906119c45760405162461bcd60e51b81526004016105749190613f62565b50600780546001600160a01b0319166001600160a01b0384161790556119ea8184612e3f565b60005b6002811015611a6157611a4f7f0000000000000000000000000000000000000000000000000000000000000000600019848481518110611a2f57611a2f61417a565b60200260200101516001600160a01b03166132ca9092919063ffffffff16565b80611a59816141ea565b9150506119ed565b507f00000000000000000000000000000000000000000000000000000000000000006001600160a01b031663d9a641e182600081518110611aa457611aa461417a565b602002602001015183600181518110611abf57611abf61417a565b60200260200101516040518363ffffffff1660e01b8152600401611af99291906001600160a01b0392831681529116602082015260400190565b60206040518083038186803b158015611b1157600080fd5b505afa158015611b25573d6000803e3d6000fd5b505050506040513d601f19601f82011682018060405250810190611b49919061415d565b600880546001600160a01b0319166001600160a01b0392909216919091179055505050565b6060611b786121cf565b6004805460408051808201909152918252631253925560e21b60208301529081611bb55760405162461bcd60e51b81526004016105749190613f62565b5060015460408051637ac46fbb60e01b815290516000926001600160a01b031691637ac46fbb916004808301926060929190829003018186803b158015611bfb57600080fd5b505afa158015611c0f573d6000803e3d6000fd5b505050506040513d601f19601f82011682018060405250810190611c3391906140e1565b602001516040516331a9108f60e11b8152600481018490529091506000906001600160a01b03831690636352211e9060240160206040518083038186803b158015611c7d57600080fd5b505afa158015611c91573d6000803e3d6000fd5b505050506040513d601f19601f82011682018060405250810190611cb5919061415d565b60405163fcdabd2760e01b81526001600160a01b03808316600483015291925060009184169063fcdabd279060240160206040518083038186803b158015611cfc57600080fd5b505afa158015611d10573d6000803e3d6000fd5b505050506040513d601f19601f82011682018060405250810190611d3491906141bb565b604080518082019091526002815261272360f11b602082015290915081611d6e5760405162461bcd60e51b81526004016105749190613f62565b506000611d7b89896126c1565b90506000611d898289613386565b9050611dee8a60028054806020026020016040519081016040528092919081815260200182805480156114d4576020028201919060005260206000209081546001600160a01b031681526001909101906020018083116114b657505050505083612be0565b96507f08e404e978692dd1b8275016b7a7b0b3ae4afd06b0cec7228060bb2da18c84fd81604051611e1f9190613c5d565b60405180910390a1505050505050611e376001600055565b9392505050565b60606002805480602002602001604051908101604052809291908181526020018280548015611e9657602002820191906000526020600020905b81546001600160a01b03168152600190910190602001808311611e78575b5050505050905090565b60065460609080611ecf5760408051600280825260608201835290916020830190803683370190505091505090565b604080516002808252606082018352909160208301908036833701905050604080516080810182528381526007546001600160a01b0390811660208301526001600160801b038284018190526060830152915163fc6f786560e01b81529294507f00000000000000000000000000000000000000000000000000000000000000009091169163fc6f786591611f669160040161445a565b6040805180830381600087803b158015611f7f57600080fd5b505af1158015611f93573d6000803e3d6000fd5b505050506040513d601f19601f82011682018060405250810190611fb7919061449d565b83600081518110611fca57611fca61417a565b6020026020010184600181518110611fe457611fe461417a565b6020026020010182815250828152505050336001600160a01b0316326001600160a01b03167f148a74163008e35e1831546f25b89a4cacad54c2ff2080ca8b839d37da13b6d78460008151811061203d5761203d61417a565b6020026020010151856001815181106120585761205861417a565b6020026020010151604051612077929190918252602082015260400190565b60405180910390a35090565b60606005805480602002602001604051908101604052809291908181526020018280548015611e9657602002820191906000526020600020905b8154815260200190600101908083116120bd575050505050905090565b6060807f00000000000000000000000000000000000000000000000000000000000000006001600160a01b03166312f579b96006546040518263ffffffff1660e01b815260040161212d91815260200190565b60006040518083038186803b15801561214557600080fd5b505afa158015612159573d6000803e3d6000fd5b505050506040513d6000823e601f3d908101601f1916820160405261218191908101906144c1565b928392509050565b600061219482613690565b806121af57506001600160e01b03198216633d31d51d60e11b145b8061052757506001600160e01b03198216630b135d3f60e11b1492915050565b600260005414156122225760405162461bcd60e51b815260206004820152601f60248201527f5265656e7472616e637947756172643a207265656e7472616e742063616c6c006044820152606401610574565b6002600055565b60405163fcdabd2760e01b81526001600160a01b038281166004830152600091829186169063fcdabd279060240160206040518083038186803b15801561226f57600080fd5b505afa158015612283573d6000803e3d6000fd5b505050506040513d601f19601f820116820180604052508101906122a791906141bb565b905083158015906122b757508015155b604051806040016040528060048152602001631253925560e21b815250906122f25760405162461bcd60e51b81526004016105749190613f62565b5091949350505050565b6040516001600160a01b03831660248201526044810182905261235f90849063a9059cbb60e01b906064015b60408051601f198184030181529190526020810180516001600160e01b03166001600160e01b0319909316929092179091526136c6565b505050565b6000816001600160a01b0316600160009054906101000a90046001600160a01b03166001600160a01b0316637ac46fbb6040518163ffffffff1660e01b815260040160606040518083038186803b1580156123be57600080fd5b505afa1580156123d2573d6000803e3d6000fd5b505050506040513d601f19601f820116820180604052508101906123f691906140e1565b602001516004805460405163020604bf60e21b8152918201526001600160a01b039091169063081812fc9060240160206040518083038186803b15801561243c57600080fd5b505afa158015612450573d6000803e3d6000fd5b505050506040513d601f19601f82011682018060405250810190612474919061415d565b6001600160a01b03161492915050565b6000806000806124938561379b565b6040805160008152602081018083528b905260ff8316918101919091526060810184905260808101839052929550909350915060019060a0016020604051602081039080840390855afa1580156124ee573d6000803e3d6000fd5b5050604051601f190151979650505050505050565b600080600160009054906101000a90046001600160a01b03166001600160a01b0316637ac46fbb6040518163ffffffff1660e01b815260040160606040518083038186803b15801561255457600080fd5b505afa158015612568573d6000803e3d6000fd5b505050506040513d601f19601f8201168201806040525081019061258c91906140e1565b60200151600454909150806125a5575060009392505050565b60405163020604bf60e21b8152600481018290526001600160a01b03808616919084169063081812fc9060240160206040518083038186803b1580156125ea57600080fd5b505afa1580156125fe573d6000803e3d6000fd5b505050506040513d601f19601f82011682018060405250810190612622919061415d565b6001600160a01b03161480610d3157506040516331a9108f60e11b8152600481018290526001600160a01b038086169190841690636352211e9060240160206040518083038186803b15801561267757600080fd5b505afa15801561268b573d6000803e3d6000fd5b505050506040513d601f19601f820116820180604052508101906126af919061415d565b6001600160a01b031614949350505050565b60606126cc836137ff565b60405180604001604052806004815260200163494e564160e01b815250906127075760405162461bcd60e51b81526004016105749190613f62565b5081518351146040518060400160405280600381526020016224a72b60e91b815250906127475760405162461bcd60e51b81526004016105749190613f62565b50611e3760028054806020026020016040519081016040528092919081815260200182805480156127a157602002820191906000526020600020905b81546001600160a01b03168152600190910190602001808311612783575b50505050508484612be0565b600654606090806127de57604080516002808252606082018352909160208301908036833701905050915050611e37565b600854604080516339db007960e21b815290516000926001600160a01b03169163e76c01e49160048083019260e0929190829003018186803b15801561282357600080fd5b505afa158015612837573d6000803e3d6000fd5b505050506040513d601f19601f8201168201806040525081019061285b9190614569565b505050505050905060007f00000000000000000000000000000000000000000000000000000000000000006001600160a01b031663e5573ac28484896040518463ffffffff1660e01b81526004016128b5939291906145f1565b60206040518083038186803b1580156128cd57600080fd5b505afa1580156128e1573d6000803e3d6000fd5b505050506040513d601f19601f82011682018060405250810190612905919061461b565b90506001600160801b03811615612a1d576000806000612924886138a2565b6040805160a08101825260065481526001600160801b03808a166020830190815282840187815260608401878152608085018781529551630624e65f60e11b81529451600486015291519092166024840152905160448301525160648201529051608482015292955090935091506001600160a01b037f00000000000000000000000000000000000000000000000000000000000000001690630c49ccbe9060a4016040805180830381600087803b1580156129df57600080fd5b505af11580156129f3573d6000803e3d6000fd5b505050506040513d601f19601f82011682018060405250810190612a17919061449d565b50505050505b6040805160808101825260065481526001600160a01b0389811660208301526001600160801b038284018190526060830152915163fc6f786560e01b815260009283927f00000000000000000000000000000000000000000000000000000000000000009091169163fc6f786591612a979160040161445a565b6040805180830381600087803b158015612ab057600080fd5b505af1158015612ac4573d6000803e3d6000fd5b505050506040513d601f19601f82011682018060405250810190612ae8919061449d565b6040805160028082526060820190925292945090925081602001602082028036833701905050955087600081518110612b2357612b2361417a565b60200260200101518211612b375781612b53565b87600081518110612b4a57612b4a61417a565b60200260200101515b86600081518110612b6657612b6661417a565b60200260200101818152505087600181518110612b8557612b8561417a565b60200260200101518111612b995780612bb5565b87600181518110612bac57612bac61417a565b60200260200101515b86600181518110612bc857612bc861417a565b60200260200101818152505050505050509392505050565b6060600084516001600160401b03811115612bfd57612bfd613afc565b604051908082528060200260200182016040528015612c26578160200160208202803683370190505b5090506000805b865182108015612c3d5750855181105b15612dbc57858181518110612c5457612c5461417a565b60200260200101516001600160a01b0316878381518110612c7757612c7761417a565b60200260200101516001600160a01b03161015612cbf576000838381518110612ca257612ca261417a565b602090810291909101015281612cb7816141ea565b925050612c2d565b858181518110612cd157612cd161417a565b60200260200101516001600160a01b0316878381518110612cf457612cf461417a565b60200260200101516001600160a01b03161115612d6d57848181518110612d1d57612d1d61417a565b602002602001015160001415612d3f5780612d37816141ea565b915050612c2d565b60405162461bcd60e51b815260206004820152600360248201526254505360e81b6044820152606401610574565b848181518110612d7f57612d7f61417a565b6020026020010151838381518110612d9957612d9961417a565b602090810291909101015281612dae816141ea565b9250508080612d37906141ea565b8651821015612df6576000838381518110612dd957612dd961417a565b602090810291909101015281612dee816141ea565b925050612dbc565b509095945050505050565b6040516001600160a01b0380851660248301528316604482015260648101829052612e399085906323b872dd60e01b90608401612328565b50505050565b6004805460408051808201909152918252631253925560e21b602083015215612e7b5760405162461bcd60e51b81526004016105749190613f62565b50612e85826137ff565b60405180604001604052806004815260200163494e564160e01b81525090612ec05760405162461bcd60e51b81526004016105749190613f62565b506040805180820190915260028152612b2d60f11b602082015281612ef85760405162461bcd60e51b81526004016105749190613f62565b506000336001600160a01b0316637ac46fbb6040518163ffffffff1660e01b815260040160606040518083038186803b158015612f3457600080fd5b505afa158015612f48573d6000803e3d6000fd5b505050506040513d601f19601f82011682018060405250810190612f6c91906140e1565b51835190915015801590612ff15750806001600160a01b03166378546fa26040518163ffffffff1660e01b815260040160206040518083038186803b158015612fb457600080fd5b505afa158015612fc8573d6000803e3d6000fd5b505050506040513d601f19601f82011682018060405250810190612fec91906141bb565b835111155b6040518060400160405280600381526020016224a72b60e91b8152509061302b5760405162461bcd60e51b81526004016105749190613f62565b5060005b835181101561312f57816001600160a01b03166363e85d2d8583815181106130595761305961417a565b60209081029190910101516040516001600160e01b031960e084901b1681526001600160a01b0390911660048201526003602482015260440160206040518083038186803b1580156130aa57600080fd5b505afa1580156130be573d6000803e3d6000fd5b505050506040513d601f19601f820116820180604052508101906130e291906141a0565b6040518060400160405280600381526020016223292160e91b8152509061311c5760405162461bcd60e51b81526004016105749190613f62565b5080613127816141ea565b91505061302f565b50600180546001600160a01b031916331790558251613155906002906020860190613a4c565b50600482905560025460005b8181101561328557613174816001614636565b6003600087848151811061318a5761318a61417a565b60200260200101516001600160a01b03166001600160a01b031681526020019081526020016000208190555060008582815181106131ca576131ca61417a565b6020026020010151905060056002826001600160a01b031663313ce5676040518163ffffffff1660e01b815260040160206040518083038186803b15801561321157600080fd5b505afa158015613225573d6000803e3d6000fd5b505050506040513d601f19601f82011682018060405250810190613249919061464e565b6132539190614669565b61325e90600a61477d565b815460018101835560009283526020909220909101555061327e816141ea565b9050613161565b50604051339032907f0f043e55a1ce0d7ce25125ccbc2800b540d83e21abf7250f0156c2091a28b221906132bc908890889061478c565b60405180910390a350505050565b604051636eb1769f60e11b81523060048201526001600160a01b0383811660248301526000919085169063dd62ed3e9060440160206040518083038186803b15801561331557600080fd5b505afa158015613329573d6000803e3d6000fd5b505050506040513d601f19601f8201168201806040525081019061334d91906141bb565b9050612e398463095ea7b360e01b856133668686614636565b6040516001600160a01b0390921660248301526044820152606401612328565b604080516002808252606080830184529260208301908036833701905050600654909150806133b55750610527565b600854604080516339db007960e21b815290516000926001600160a01b03169163e76c01e49160048083019260e0929190829003018186803b1580156133fa57600080fd5b505afa15801561340e573d6000803e3d6000fd5b505050506040513d601f19601f820116820180604052508101906134329190614569565b505050505050905060007f00000000000000000000000000000000000000000000000000000000000000006001600160a01b03166385b286578484896040518463ffffffff1660e01b815260040161348c939291906145f1565b60206040518083038186803b1580156134a457600080fd5b505afa1580156134b8573d6000803e3d6000fd5b505050506040513d601f19601f820116820180604052508101906134dc919061461b565b90506001600160801b0381166134f457505050610527565b6000806000613502886138a2565b9250925092507f00000000000000000000000000000000000000000000000000000000000000006001600160a01b031663219f5d176040518060c001604052808981526020018c60008151811061355b5761355b61417a565b602002602001015181526020018c60018151811061357b5761357b61417a565b60200260200101518152602001868152602001858152602001848152506040518263ffffffff1660e01b81526004016135f39190600060c082019050825182526020830151602083015260408301516040830152606083015160608301526080830151608083015260a083015160a083015292915050565b606060405180830381600087803b15801561360d57600080fd5b505af1158015613621573d6000803e3d6000fd5b505050506040513d601f19601f8201168201806040525081019061364591906147ae565b9091508860008151811061365b5761365b61417a565b60200260200101896001815181106136755761367561417a565b60209081029190910101919091525250505050505092915050565b60006301ffc9a760e01b6001600160e01b03198316148061052757506001600160e01b0319821663305a640b60e21b1492915050565b600061371b826040518060400160405280602081526020017f5361666545524332303a206c6f772d6c6576656c2063616c6c206661696c6564815250856001600160a01b031661392c9092919063ffffffff16565b905080516000148061373c57508080602001905181019061373c91906141a0565b61235f5760405162461bcd60e51b815260206004820152602a60248201527f5361666545524332303a204552433230206f7065726174696f6e20646964206e6044820152691bdd081cdd58d8d9595960b21b6064820152608401610574565b60008060008351604114604051806040016040528060048152602001631253959360e21b815250906137e05760405162461bcd60e51b81526004016105749190613f62565b5050505060208101516040820151606090920151909260009190911a90565b600060028251101561381357506001919050565b60005b60018351613824919061439e565b8110156138995782613837826001614636565b815181106138475761384761417a565b60200260200101516001600160a01b031683828151811061386a5761386a61417a565b60200260200101516001600160a01b0316106138895750600092915050565b613892816141ea565b9050613816565b50600192915050565b60008060008351600014156138ca576000806138bf426001614636565b925092509250613925565b83516060146040518060400160405280600381526020016224a72b60e91b815250906139095760405162461bcd60e51b81526004016105749190613f62565b508380602001905181019061391e91906147e3565b9250925092505b9193909250565b6060610d31848460008585600080866001600160a01b03168587604051613953919061443e565b60006040518083038185875af1925050503d8060008114613990576040519150601f19603f3d011682016040523d82523d6000602084013e613995565b606091505b50915091506139a6878383876139b1565b979650505050505050565b60608315613a1d578251613a16576001600160a01b0385163b613a165760405162461bcd60e51b815260206004820152601d60248201527f416464726573733a2063616c6c20746f206e6f6e2d636f6e74726163740000006044820152606401610574565b5081610d31565b610d318383815115613a325781518083602001fd5b8060405162461bcd60e51b81526004016105749190613f62565b828054828255906000526020600020908101928215613aa1579160200282015b82811115613aa157825182546001600160a01b0319166001600160a01b03909116178255602090920191600190910190613a6c565b50613aad929150613ab1565b5090565b5b80821115613aad5760008155600101613ab2565b6001600160e01b031981168114613adc57600080fd5b50565b600060208284031215613af157600080fd5b8135611e3781613ac6565b634e487b7160e01b600052604160045260246000fd5b604051601f8201601f191681016001600160401b0381118282101715613b3a57613b3a613afc565b604052919050565b60006001600160401b03821115613b5b57613b5b613afc565b5060051b60200190565b6001600160a01b0381168114613adc57600080fd5b600082601f830112613b8b57600080fd5b81356020613ba0613b9b83613b42565b613b12565b82815260059290921b84018101918181019086841115613bbf57600080fd5b8286015b84811015613be3578035613bd681613b65565b8352918301918301613bc3565b509695505050505050565b600060208284031215613c0057600080fd5b81356001600160401b03811115613c1657600080fd5b610d3184828501613b7a565b600081518084526020808501945080840160005b83811015613c5257815187529582019590820190600101613c36565b509495945050505050565b602081526000611e376020830184613c22565b600082601f830112613c8157600080fd5b81356001600160401b03811115613c9a57613c9a613afc565b613cad601f8201601f1916602001613b12565b818152846020838601011115613cc257600080fd5b816020850160208301376000918101602001919091529392505050565b60008060008060808587031215613cf557600080fd5b8435613d0081613b65565b93506020850135613d1081613b65565b92506040850135915060608501356001600160401b03811115613d3257600080fd5b613d3e87828801613c70565b91505092959194509250565b60008060408385031215613d5d57600080fd5b8235915060208301356001600160401b03811115613d7a57600080fd5b613d8685828601613c70565b9150509250929050565b600082601f830112613da157600080fd5b81356020613db1613b9b83613b42565b82815260059290921b84018101918181019086841115613dd057600080fd5b8286015b84811015613be35780358352918301918301613dd4565b60008060008060808587031215613e0157600080fd5b8435613e0c81613b65565b935060208501356001600160401b0380821115613e2857600080fd5b613e3488838901613b7a565b94506040870135915080821115613e4a57600080fd5b613e5688838901613d90565b93506060870135915080821115613e6c57600080fd5b50613d3e87828801613c70565b60008060008060608587031215613e8f57600080fd5b8435613e9a81613b65565b93506020850135613eaa81613ac6565b925060408501356001600160401b0380821115613ec657600080fd5b818701915087601f830112613eda57600080fd5b813581811115613ee957600080fd5b886020828501011115613efb57600080fd5b95989497505060200194505050565b60005b83811015613f25578181015183820152602001613f0d565b83811115612e395750506000910152565b60008151808452613f4e816020860160208601613f0a565b601f01601f19169290920160200192915050565b602081526000611e376020830184613f36565b600060208284031215613f8757600080fd5b8135611e3781613b65565b600080600060608486031215613fa757600080fd5b833592506020840135613fb981613b65565b915060408401356001600160401b03811115613fd457600080fd5b613fe086828701613b7a565b9150509250925092565b600080600060608486031215613fff57600080fd5b83356001600160401b038082111561401657600080fd5b61402287838801613b7a565b9450602086013591508082111561403857600080fd5b61404487838801613d90565b9350604086013591508082111561405a57600080fd5b50613fe086828701613c70565b600081518084526020808501945080840160005b83811015613c525781516001600160a01b03168752958201959082019060010161407b565b602081526000611e376020830184614067565b6040815260006140c66040830185613c22565b82810360208401526140d88185613c22565b95945050505050565b6000606082840312156140f357600080fd5b604051606081018181106001600160401b038211171561411557614115613afc565b604052825161412381613b65565b8152602083015161413381613b65565b6020820152604083015161414681613b65565b60408201529392505050565b80516109a081613b65565b60006020828403121561416f57600080fd5b8151611e3781613b65565b634e487b7160e01b600052603260045260246000fd5b805180151581146109a057600080fd5b6000602082840312156141b257600080fd5b611e3782614190565b6000602082840312156141cd57600080fd5b5051919050565b634e487b7160e01b600052601160045260246000fd5b60006000198214156141fe576141fe6141d4565b5060010190565b6001600160a01b038416815260606020820181905260009061422990830185614067565b828103604084015261423b8185613c22565b9695505050505050565b8051600281900b81146109a057600080fd5b80516001600160801b03811681146109a057600080fd5b60008060008060008060008060008060006101608c8e03121561429057600080fd5b8b516affffffffffffffffffffff811681146142ab57600080fd5b60208d0151909b506142bc81613b65565b60408d0151909a506142cd81613b65565b98506142db60608d01614152565b97506142e960808d01614245565b96506142f760a08d01614245565b955061430560c08d01614257565b945060e08c015193506101008c015192506143236101208d01614257565b91506143326101408d01614257565b90509295989b509295989b9093969950565b828152604060208201526000610d316040830184613f36565b60006020828403121561436f57600080fd5b8151611e3781613ac6565b6001600160a01b0383168152604060208201819052600090610d3190830184613c22565b6000828210156143b0576143b06141d4565b500390565b6001600160a01b03878116825286166020820152604081018590526001600160e01b03198416606082015260a06080820181905281018290526000828460c0840137600060c0848401015260c0601f19601f8501168301019050979650505050505050565b6001600160e01b031984168152818360048301376000910160040190815292915050565b60008251614450818460208701613f0a565b9190910192915050565b815181526020808301516001600160a01b0316908201526040808301516001600160801b0390811691830191909152606092830151169181019190915260800190565b600080604083850312156144b057600080fd5b505080516020909101519092909150565b600060208083850312156144d457600080fd5b82516001600160401b038111156144ea57600080fd5b8301601f810185136144fb57600080fd5b8051614509613b9b82613b42565b81815260059190911b8201830190838101908783111561452857600080fd5b928401925b828410156139a65783518252928401929084019061452d565b805161ffff811681146109a057600080fd5b805160ff811681146109a057600080fd5b600080600080600080600060e0888a03121561458457600080fd5b875161458f81613b65565b965061459d60208901614245565b95506145ab60408901614245565b94506145b960608901614546565b93506145c760808901614546565b92506145d560a08901614558565b91506145e360c08901614190565b905092959891949750929550565b8381526001600160a01b03831660208201526060604082018190526000906140d890830184613c22565b60006020828403121561462d57600080fd5b611e3782614257565b60008219821115614649576146496141d4565b500190565b60006020828403121561466057600080fd5b611e3782614558565b600060ff83168061468a57634e487b7160e01b600052601260045260246000fd5b8060ff84160491505092915050565b600181815b808511156146d45781600019048211156146ba576146ba6141d4565b808516156146c757918102915b93841c939080029061469e565b509250929050565b6000826146eb57506001610527565b816146f857506000610527565b816001811461470e576002811461471857614734565b6001915050610527565b60ff841115614729576147296141d4565b50506001821b610527565b5060208310610133831016604e8410600b8410161715614757575081810a610527565b6147618383614699565b8060001904821115614775576147756141d4565b029392505050565b6000611e3760ff8416836146dc565b60408152600061479f6040830185614067565b90508260208301529392505050565b6000806000606084860312156147c357600080fd5b6147cc84614257565b925060208401519150604084015190509250925092565b6000806000606084860312156147f857600080fd5b835192506020840151915060408401519050925092509256fea264697066735822122060e25c8f4719cddcc5303879514fe4c7a0a426919f0333896500a646b114848c64736f6c63430008090033",
    "linkReferences": {}
  },
  "methodIdentifiers": {
    "D9()": "551530ae",
    "Q96()": "40792465",
    "collectEarnings()": "c27b2c2d",
    "erc20Vault()": "090f9221",
    "externalCall(address,bytes4,bytes)": "2e2f4cc2",
    "factory()": "c45a0155",
    "helper()": "63b0e66a",
    "initialize(uint256,address,address[])": "463e34be",
    "initialized()": "158ef93e",
    "isValidSignature(bytes32,bytes)": "1626ba7e",
    "isVaultToken(address)": "338c4ccb",
    "nft()": "47ccca02",
    "onERC721Received(address,address,uint256,bytes)": "150b7a02",
    "pool()": "16f0115b",
    "positionManager()": "791b98bc",
    "positionNft()": "ef7d8037",
    "pull(address,address[],uint256[],bytes)": "2062d754",
    "pullExistentials()": "d2c219b0",
    "push(address[],uint256[],bytes)": "566ca6b4",
    "reclaimTokens(address[])": "05e1c942",
    "supportsInterface(bytes4)": "01ffc9a7",
    "transferAndPush(address,address[],uint256[],bytes)": "27a35e5a",
    "tvl()": "e5328e06",
    "vaultGovernance()": "fe255a5e",
    "vaultTokens()": "69722233"
  },
  "id": 454
}