{
  "abi": [
    {
      "inputs": [],
      "name": "RECOVERY_MODE_EXIT_KIND",
      "outputs": [
        {
          "internalType": "uint8",
          "name": "",
          "type": "uint8"
        }
      ],
      "stateMutability": "view",
      "type": "function"
    }
  ],
  "bytecode": {
    "object": "0x608b610038600b82828239805160001a607314602b57634e487b7160e01b600052600060045260246000fd5b30600052607381538281f3fe730000000000000000000000000000000000000000301460806040526004361060335760003560e01c806309564cb1146038575b600080fd5b603f60ff81565b60405160ff909116815260200160405180910390f3fea2646970667358221220a529ead4033214759d30e6ffd41835f31494237d787849b251a2126355b6ae4e64736f6c63430008090033",
    "linkReferences": {}
  },
  "methodIdentifiers": {
    "RECOVERY_MODE_EXIT_KIND()": "09564cb1"
  },
  "id": 129
}