{
  "abi": [
    {
      "anonymous": false,
      "inputs": [
        {
          "indexed": true,
          "internalType": "address",
          "name": "origin",
          "type": "address"
        },
        {
          "indexed": true,
          "internalType": "address",
          "name": "sender",
          "type": "address"
        },
        {
          "indexed": true,
          "internalType": "address",
          "name": "to",
          "type": "address"
        },
        {
          "indexed": false,
          "internalType": "uint256",
          "name": "amount0",
          "type": "uint256"
        },
        {
          "indexed": false,
          "internalType": "uint256",
          "name": "amount1",
          "type": "uint256"
        }
      ],
      "name": "CollectedEarnings",
      "type": "event"
    },
    {
      "anonymous": false,
      "inputs": [
        {
          "indexed": true,
          "internalType": "address",
          "name": "origin",
          "type": "address"
        },
        {
          "indexed": true,
          "internalType": "address",
          "name": "sender",
          "type": "address"
        },
        {
          "indexed": false,
          "internalType": "address[]",
          "name": "vaultTokens_",
          "type": "address[]"
        },
        {
          "indexed": false,
          "internalType": "uint256",
          "name": "nft_",
          "type": "uint256"
        }
      ],
      "name": "Initialized",
      "type": "event"
    },
    {
      "anonymous": false,
      "inputs": [
        {
          "indexed": false,
          "internalType": "address",
          "name": "to",
          "type": "address"
        },
        {
          "indexed": false,
          "internalType": "uint256[]",
          "name": "tokenAmounts",
          "type": "uint256[]"
        }
      ],
      "name": "Pull",
      "type": "event"
    },
    {
      "anonymous": false,
      "inputs": [
        {
          "indexed": false,
          "internalType": "uint256[]",
          "name": "tokenAmounts",
          "type": "uint256[]"
        }
      ],
      "name": "Push",
      "type": "event"
    },
    {
      "anonymous": false,
      "inputs": [
        {
          "indexed": false,
          "internalType": "address",
          "name": "to",
          "type": "address"
        },
        {
          "indexed": false,
          "internalType": "address[]",
          "name": "tokens",
          "type": "address[]"
        },
        {
          "indexed": false,
          "internalType": "uint256[]",
          "name": "tokenAmounts",
          "type": "uint256[]"
        }
      ],
      "name": "ReclaimTokens",
      "type": "event"
    },
    {
      "inputs": [],
      "name": "D9",
      "outputs": [
        {
          "internalType": "uint256",
          "name": "",
          "type": "uint256"
        }
      ],
      "stateMutability": "view",
      "type": "function"
    },
    {
      "inputs": [],
      "name": "collectEarnings",
      "outputs": [
        {
          "internalType": "uint256[]",
          "name": "collectedEarnings",
          "type": "uint256[]"
        }
      ],
      "stateMutability": "nonpayable",
      "type": "function"
    },
    {
      "inputs": [],
      "name": "compound",
      "outputs": [
        {
          "internalType": "uint256",
          "name": "rewards",
          "type": "uint256"
        }
      ],
      "stateMutability": "nonpayable",
      "type": "function"
    },
    {
      "inputs": [],
      "name": "erc20Vault",
      "outputs": [
        {
          "internalType": "address",
          "name": "",
          "type": "address"
        }
      ],
      "stateMutability": "view",
      "type": "function"
    },
    {
      "inputs": [
        {
          "internalType": "address",
          "name": "to",
          "type": "address"
        },
        {
          "internalType": "bytes4",
          "name": "selector",
          "type": "bytes4"
        },
        {
          "internalType": "bytes",
          "name": "data",
          "type": "bytes"
        }
      ],
      "name": "externalCall",
      "outputs": [
        {
          "internalType": "bytes",
          "name": "result",
          "type": "bytes"
        }
      ],
      "stateMutability": "payable",
      "type": "function"
    },
    {
      "inputs": [],
      "name": "helper",
      "outputs": [
        {
          "internalType": "contract PancakeSwapHelper",
          "name": "",
          "type": "address"
        }
      ],
      "stateMutability": "view",
      "type": "function"
    },
    {
      "inputs": [
        {
          "internalType": "uint256",
          "name": "nft_",
          "type": "uint256"
        },
        {
          "internalType": "address[]",
          "name": "vaultTokens_",
          "type": "address[]"
        },
        {
          "internalType": "uint24",
          "name": "fee_",
          "type": "uint24"
        },
        {
          "internalType": "address",
          "name": "helper_",
          "type": "address"
        },
        {
          "internalType": "address",
          "name": "masterChef_",
          "type": "address"
        },
        {
          "internalType": "address",
          "name": "erc20Vault_",
          "type": "address"
        }
      ],
      "name": "initialize",
      "outputs": [],
      "stateMutability": "nonpayable",
      "type": "function"
    },
    {
      "inputs": [],
      "name": "initialized",
      "outputs": [
        {
          "internalType": "bool",
          "name": "",
          "type": "bool"
        }
      ],
      "stateMutability": "view",
      "type": "function"
    },
    {
      "inputs": [
        {
          "internalType": "bytes32",
          "name": "_hash",
          "type": "bytes32"
        },
        {
          "internalType": "bytes",
          "name": "_signature",
          "type": "bytes"
        }
      ],
      "name": "isValidSignature",
      "outputs": [
        {
          "internalType": "bytes4",
          "name": "magicValue",
          "type": "bytes4"
        }
      ],
      "stateMutability": "view",
      "type": "function"
    },
    {
      "inputs": [
        {
          "internalType": "address",
          "name": "token",
          "type": "address"
        }
      ],
      "name": "isVaultToken",
      "outputs": [
        {
          "internalType": "bool",
          "name": "",
          "type": "bool"
        }
      ],
      "stateMutability": "view",
      "type": "function"
    },
    {
      "inputs": [
        {
          "internalType": "uint128",
          "name": "liquidity",
          "type": "uint128"
        }
      ],
      "name": "liquidityToTokenAmounts",
      "outputs": [
        {
          "internalType": "uint256[]",
          "name": "tokenAmounts",
          "type": "uint256[]"
        }
      ],
      "stateMutability": "view",
      "type": "function"
    },
    {
      "inputs": [],
      "name": "masterChef",
      "outputs": [
        {
          "internalType": "address",
          "name": "",
          "type": "address"
        }
      ],
      "stateMutability": "view",
      "type": "function"
    },
    {
      "inputs": [],
      "name": "nft",
      "outputs": [
        {
          "internalType": "uint256",
          "name": "",
          "type": "uint256"
        }
      ],
      "stateMutability": "view",
      "type": "function"
    },
    {
      "inputs": [
        {
          "internalType": "address",
          "name": "operator",
          "type": "address"
        },
        {
          "internalType": "address",
          "name": "from",
          "type": "address"
        },
        {
          "internalType": "uint256",
          "name": "tokenId",
          "type": "uint256"
        },
        {
          "internalType": "bytes",
          "name": "",
          "type": "bytes"
        }
      ],
      "name": "onERC721Received",
      "outputs": [
        {
          "internalType": "bytes4",
          "name": "",
          "type": "bytes4"
        }
      ],
      "stateMutability": "nonpayable",
      "type": "function"
    },
    {
      "inputs": [],
      "name": "pool",
      "outputs": [
        {
          "internalType": "contract IPancakeV3Pool",
          "name": "",
          "type": "address"
        }
      ],
      "stateMutability": "view",
      "type": "function"
    },
    {
      "inputs": [],
      "name": "positionManager",
      "outputs": [
        {
          "internalType": "contract IPancakeNonfungiblePositionManager",
          "name": "",
          "type": "address"
        }
      ],
      "stateMutability": "view",
      "type": "function"
    },
    {
      "inputs": [
        {
          "internalType": "address",
          "name": "to",
          "type": "address"
        },
        {
          "internalType": "address[]",
          "name": "tokens",
          "type": "address[]"
        },
        {
          "internalType": "uint256[]",
          "name": "tokenAmounts",
          "type": "uint256[]"
        },
        {
          "internalType": "bytes",
          "name": "options",
          "type": "bytes"
        }
      ],
      "name": "pull",
      "outputs": [
        {
          "internalType": "uint256[]",
          "name": "actualTokenAmounts",
          "type": "uint256[]"
        }
      ],
      "stateMutability": "nonpayable",
      "type": "function"
    },
    {
      "inputs": [],
      "name": "pullExistentials",
      "outputs": [
        {
          "internalType": "uint256[]",
          "name": "",
          "type": "uint256[]"
        }
      ],
      "stateMutability": "view",
      "type": "function"
    },
    {
      "inputs": [
        {
          "internalType": "address[]",
          "name": "tokens",
          "type": "address[]"
        },
        {
          "internalType": "uint256[]",
          "name": "tokenAmounts",
          "type": "uint256[]"
        },
        {
          "internalType": "bytes",
          "name": "options",
          "type": "bytes"
        }
      ],
      "name": "push",
      "outputs": [
        {
          "internalType": "uint256[]",
          "name": "actualTokenAmounts",
          "type": "uint256[]"
        }
      ],
      "stateMutability": "nonpayable",
      "type": "function"
    },
    {
      "inputs": [
        {
          "internalType": "address[]",
          "name": "tokens",
          "type": "address[]"
        }
      ],
      "name": "reclaimTokens",
      "outputs": [
        {
          "internalType": "uint256[]",
          "name": "actualTokenAmounts",
          "type": "uint256[]"
        }
      ],
      "stateMutability": "nonpayable",
      "type": "function"
    },
    {
      "inputs": [],
      "name": "stakeUniV3Nft",
      "outputs": [],
      "stateMutability": "nonpayable",
      "type": "function"
    },
    {
      "inputs": [
        {
          "internalType": "bytes4",
          "name": "interfaceId",
          "type": "bytes4"
        }
      ],
      "name": "supportsInterface",
      "outputs": [
        {
          "internalType": "bool",
          "name": "",
          "type": "bool"
        }
      ],
      "stateMutability": "view",
      "type": "function"
    },
    {
      "inputs": [
        {
          "internalType": "uint256[]",
          "name": "tokenAmounts",
          "type": "uint256[]"
        }
      ],
      "name": "tokenAmountsToLiquidity",
      "outputs": [
        {
          "internalType": "uint128",
          "name": "liquidity",
          "type": "uint128"
        }
      ],
      "stateMutability": "view",
      "type": "function"
    },
    {
      "inputs": [
        {
          "internalType": "address",
          "name": "from",
          "type": "address"
        },
        {
          "internalType": "address[]",
          "name": "tokens",
          "type": "address[]"
        },
        {
          "internalType": "uint256[]",
          "name": "tokenAmounts",
          "type": "uint256[]"
        },
        {
          "internalType": "bytes",
          "name": "options",
          "type": "bytes"
        }
      ],
      "name": "transferAndPush",
      "outputs": [
        {
          "internalType": "uint256[]",
          "name": "actualTokenAmounts",
          "type": "uint256[]"
        }
      ],
      "stateMutability": "nonpayable",
      "type": "function"
    },
    {
      "inputs": [],
      "name": "tvl",
      "outputs": [
        {
          "internalType": "uint256[]",
          "name": "minTokenAmounts",
          "type": "uint256[]"
        },
        {
          "internalType": "uint256[]",
          "name": "maxTokenAmounts",
          "type": "uint256[]"
        }
      ],
      "stateMutability": "view",
      "type": "function"
    },
    {
      "inputs": [],
      "name": "uniV3Nft",
      "outputs": [
        {
          "internalType": "uint256",
          "name": "",
          "type": "uint256"
        }
      ],
      "stateMutability": "view",
      "type": "function"
    },
    {
      "inputs": [],
      "name": "unstakeUniV3Nft",
      "outputs": [],
      "stateMutability": "nonpayable",
      "type": "function"
    },
    {
      "inputs": [
        {
          "internalType": "address",
          "name": "newHelper",
          "type": "address"
        }
      ],
      "name": "updateHelper",
      "outputs": [],
      "stateMutability": "nonpayable",
      "type": "function"
    },
    {
      "inputs": [],
      "name": "vaultGovernance",
      "outputs": [
        {
          "internalType": "contract IVaultGovernance",
          "name": "",
          "type": "address"
        }
      ],
      "stateMutability": "view",
      "type": "function"
    },
    {
      "inputs": [],
      "name": "vaultTokens",
      "outputs": [
        {
          "internalType": "address[]",
          "name": "",
          "type": "address[]"
        }
      ],
      "stateMutability": "view",
      "type": "function"
    }
  ],
  "bytecode": {
    "object": "0x608060405234801561001057600080fd5b506001600055600019600455615ac5806200002c6000396000f3fe6080604052600436106101cc5760003560e01c8063551530ae116100f7578063a57049b411610095578063e5328e0611610064578063e5328e0614610558578063f4adc08b1461057b578063f69e204614610591578063fe255a5e146105a657600080fd5b8063a57049b4146104ee578063c27b2c2d1461050e578063c85fc74014610523578063d2c219b01461054357600080fd5b806363b0e66a116100d157806363b0e66a1461046e578063697222331461048e578063791b98bc146104b05780638bcc4166146104ce57600080fd5b8063551530ae14610416578063566ca6b41461042e578063575a86b21461044e57600080fd5b80631626ba7e1161016f5780632e2f4cc21161013e5780632e2f4cc21461038a578063338c4ccb146103aa5780633f74cc98146103e257806347ccca02146103f757600080fd5b80631626ba7e1461030a57806316f0115b1461032a5780632062d7541461034a57806327a35e5a1461036a57600080fd5b8063090f9221116101ab578063090f92211461026b5780631081fc0b146102a3578063150b7a02146102ba578063158ef93e146102f357600080fd5b8062f73da2146101d157806301ffc9a71461020e57806305e1c9421461023e575b600080fd5b3480156101dd57600080fd5b506101f16101ec366004614b55565b6105c4565b6040516001600160801b0390911681526020015b60405180910390f35b34801561021a57600080fd5b5061022e610229366004614b9f565b610657565b6040519015158152602001610205565b34801561024a57600080fd5b5061025e610259366004614c35565b610682565b6040516102059190614ca4565b34801561027757600080fd5b50600b5461028b906001600160a01b031681565b6040516001600160a01b039091168152602001610205565b3480156102af57600080fd5b506102b8610afa565b005b3480156102c657600080fd5b506102da6102d5366004614d26565b610b48565b6040516001600160e01b03199091168152602001610205565b3480156102ff57600080fd5b50600454151561022e565b34801561031657600080fd5b506102da610325366004614d91565b610f97565b34801561033657600080fd5b5060065461028b906001600160a01b031681565b34801561035657600080fd5b5061025e610365366004614dd7565b6112e4565b34801561037657600080fd5b5061025e610385366004614dd7565b611788565b61039d610398366004614e65565b61190f565b6040516102059190614f4e565b3480156103b657600080fd5b5061022e6103c5366004614f61565b6001600160a01b0316600090815260036020526040902054151590565b3480156103ee57600080fd5b506102b8611be3565b34801561040357600080fd5b506004545b604051908152602001610205565b34801561042257600080fd5b50610408633b9aca0081565b34801561043a57600080fd5b5061025e610449366004614f7e565b611c2f565b34801561045a57600080fd5b50600a5461028b906001600160a01b031681565b34801561047a57600080fd5b5060095461028b906001600160a01b031681565b34801561049a57600080fd5b506104a3611eff565b604051610205919061503e565b3480156104bc57600080fd5b506008546001600160a01b031661028b565b3480156104da57600080fd5b506102b86104e9366004614f61565b611f61565b3480156104fa57600080fd5b506102b8610509366004615062565b611fc7565b34801561051a57600080fd5b5061025e612286565b34801561052f57600080fd5b5061025e61053e366004615108565b6125ac565b34801561054f57600080fd5b5061025e61264e565b34801561056457600080fd5b5061056d6126a5565b604051610205929190615125565b34801561058757600080fd5b5061040860075481565b34801561059d57600080fd5b50610408612754565b3480156105b257600080fd5b506001546001600160a01b031661028b565b600954600654600754604051630edda83760e41b81526000936001600160a01b039081169363edda83709361060193889390921691600401615153565b60206040518083038186803b15801561061957600080fd5b505afa15801561062d573d6000803e3d6000fd5b505050506040513d601f19601f82011682018060405250810190610651919061518c565b92915050565b600061066282612bd7565b8061065157506001600160e01b03198216633817933760e01b1492915050565b606061068c612c1d565b6004805460408051808201909152918252631253925560e21b602083015290816106d25760405162461bcd60e51b81526004016106c99190614f4e565b60405180910390fd5b5060015460408051637ac46fbb60e01b815290516000926001600160a01b031691637ac46fbb916004808301926060929190829003018186803b15801561071857600080fd5b505afa15801561072c573d6000803e3d6000fd5b505050506040513d601f19601f8201168201806040525081019061075091906151a9565b805160208201516040516331a9108f60e11b81526004810186905292935090916000906001600160a01b03831690636352211e9060240160206040518083038186803b15801561079f57600080fd5b505afa1580156107b3573d6000803e3d6000fd5b505050506040513d601f19601f820116820180604052508101906107d79190615208565b905060006107e6838784612c77565b604051639bd0911b60e01b8152600060048201526001600160a01b039190911690639bd0911b9060240160206040518083038186803b15801561082857600080fd5b505afa15801561083c573d6000803e3d6000fd5b505050506040513d601f19601f820116820180604052508101906108609190615208565b905087516001600160401b0381111561087b5761087b614a59565b6040519080825280602002602001820160405280156108a4578160200160208202803683370190505b5096506001600160a01b0381163014156108c357505050505050610aeb565b60005b8851811015610aa8576108ec8982815181106108e4576108e4615225565b506000919050565b8061099e5750846001600160a01b03166363e85d2d8a838151811061091357610913615225565b60209081029190910101516040516001600160e01b031960e084901b1681526001600160a01b0390911660048201526002602482015260440160206040518083038186803b15801561096457600080fd5b505afa158015610978573d6000803e3d6000fd5b505050506040513d601f19601f8201168201806040525081019061099c919061524b565b155b156109a857610a98565b60008982815181106109bc576109bc615225565b60209081029190910101516040516370a0823160e01b81523060048201529091506001600160a01b038216906370a082319060240160206040518083038186803b158015610a0957600080fd5b505afa158015610a1d573d6000803e3d6000fd5b505050506040513d601f19601f82011682018060405250810190610a419190615266565b898381518110610a5357610a53615225565b602002602001018181525050610a96838a8481518110610a7557610a75615225565b6020026020010151836001600160a01b0316612d4a9092919063ffffffff16565b505b610aa181615295565b90506108c6565b507f9efcb26e0cf572bd9171640e114f387cef91cd3e38532ed6b3f80c7f2e758f87818989604051610adc939291906152b0565b60405180910390a15050505050505b610af56001600055565b919050565b610b0333612db2565b6040518060400160405280600381526020016223292160e91b81525090610b3d5760405162461bcd60e51b81526004016106c99190614f4e565b50610b46612ed2565b565b60085460408051808201909152600381526223292160e91b60208201526000916001600160a01b03163314610b905760405162461bcd60e51b81526004016106c99190614f4e565b50600a546001600160a01b0385811691161415610bee57600754831460405180604001604052806005815260200164494e56544f60d81b81525090610be85760405162461bcd60e51b81526004016106c99190614f4e565b50610f85565b610bf785612db2565b6040518060400160405280600381526020016223292160e91b81525090610c315760405162461bcd60e51b81526004016106c99190614f4e565b5060085460405163133f757160e31b815260048101859052600091829182916001600160a01b0316906399fbab88906024016101806040518083038186803b158015610c7c57600080fd5b505afa158015610c90573d6000803e3d6000fd5b505050506040513d601f19601f82011682018060405250810190610cb4919061530d565b5050505050505094509450945050506002600081548110610cd757610cd7615225565b6000918252602090912001546001600160a01b038481169116148015610d2757506002600181548110610d0c57610d0c615225565b6000918252602090912001546001600160a01b038381169116145b8015610dc15750600660009054906101000a90046001600160a01b03166001600160a01b031663ddca3f436040518163ffffffff1660e01b815260040160206040518083038186803b158015610d7c57600080fd5b505afa158015610d90573d6000803e3d6000fd5b505050506040513d601f19601f82011682018060405250810190610db491906153ee565b62ffffff168162ffffff16145b60405180604001604052806005815260200164494e56544f60d81b81525090610dfd5760405162461bcd60e51b81526004016106c99190614f4e565b5060075415610f7c5760085460075460405163133f757160e31b81526004810191909152600091829182916001600160a01b0316906399fbab88906024016101806040518083038186803b158015610e5457600080fd5b505afa158015610e68573d6000803e3d6000fd5b505050506040513d601f19601f82011682018060405250810190610e8c919061530d565b9b509b505050995050505050505050826001600160801b03166000148015610ebb57506001600160801b038216155b8015610ece57506001600160801b038116155b6040518060400160405280600381526020016224a72b60e91b81525090610f085760405162461bcd60e51b81526004016106c99190614f4e565b506008546007546040516323b872dd60e01b81523060048201526001600160a01b038d8116602483015260448201929092529116906323b872dd90606401600060405180830381600087803b158015610f6057600080fd5b505af1158015610f74573d6000803e3d6000fd5b505050505050505b50505060078390555b50630a85bd0160e11b5b949350505050565b600080600160009054906101000a90046001600160a01b03166001600160a01b0316637ac46fbb6040518163ffffffff1660e01b815260040160606040518083038186803b158015610fe857600080fd5b505afa158015610ffc573d6000803e3d6000fd5b505050506040513d601f19601f8201168201806040525081019061102091906151a9565b6020810151815160045492935090918061104957506001600160e01b0319935061065192505050565b60405163020604bf60e21b8152600481018290526000906001600160a01b0385169063081812fc9060240160206040518083038186803b15801561108c57600080fd5b505afa1580156110a0573d6000803e3d6000fd5b505050506040513d601f19601f820116820180604052508101906110c49190615208565b6040516363e85d2d60e01b81526001600160a01b03808316600483015260066024830152919250908416906363e85d2d9060440160206040518083038186803b15801561111057600080fd5b505afa158015611124573d6000803e3d6000fd5b505050506040513d601f19601f82011682018060405250810190611148919061524b565b61116257506001600160e01b031994506106519350505050565b803b63ffffffff811615611295576040516301ffc9a760e01b8152630b135d3f60e11b60048201526001600160a01b038316906301ffc9a79060240160206040518083038186803b1580156111b657600080fd5b505afa1580156111ca573d6000803e3d6000fd5b505050506040513d601f19601f820116820180604052508101906111ee919061524b565b1561127e57604051630b135d3f60e11b81526001600160a01b03831690631626ba7e90611221908c908c9060040161540b565b60206040518083038186803b15801561123957600080fd5b505afa15801561124d573d6000803e3d6000fd5b505050506040513d601f19601f820116820180604052508101906112719190615424565b9650505050505050610651565b506001600160e01b03199550610651945050505050565b816001600160a01b03166112a98a8a613014565b6001600160a01b031614156112ce5750630b135d3f60e11b9550610651945050505050565b506001600160e01b031998975050505050505050565b60606112ee612c1d565b6004805460408051808201909152918252631253925560e21b6020830152908161132b5760405162461bcd60e51b81526004016106c99190614f4e565b5061133533613093565b6040518060400160405280600381526020016223292160e91b8152509061136f5760405162461bcd60e51b81526004016106c99190614f4e565b5060015460408051637ac46fbb60e01b815290516000926001600160a01b031691637ac46fbb916004808301926060929190829003018186803b1580156113b557600080fd5b505afa1580156113c9573d6000803e3d6000fd5b505050506040513d601f19601f820116820180604052508101906113ed91906151a9565b602001516040516331a9108f60e11b8152600481018490529091506000906001600160a01b03831690636352211e9060240160206040518083038186803b15801561143757600080fd5b505afa15801561144b573d6000803e3d6000fd5b505050506040513d601f19601f8201168201806040525081019061146f9190615208565b9050600061147e838584612c77565b90506001600160a01b03821633146116bb57604051639bd0911b60e01b8152600060048201819052906001600160a01b03831690639bd0911b9060240160206040518083038186803b1580156114d357600080fd5b505afa1580156114e7573d6000803e3d6000fd5b505050506040513d601f19601f8201168201806040525081019061150b9190615208565b90506001600160a01b0381163014156116665760405163fcdabd2760e01b81526001600160a01b038b8116600483015280841691639d9fd0d99187169063fcdabd279060240160206040518083038186803b15801561156957600080fd5b505afa15801561157d573d6000803e3d6000fd5b505050506040513d601f19601f820116820180604052508101906115a19190615266565b6040518263ffffffff1660e01b81526004016115bf91815260200190565b60206040518083038186803b1580156115d757600080fd5b505afa1580156115eb573d6000803e3d6000fd5b505050506040513d601f19601f8201168201806040525081019061160f919061524b565b801561162457506001600160a01b038a163014155b6040518060400160405280600581526020016424a72b2a2960d91b815250906116605760405162461bcd60e51b81526004016106c99190614f4e565b506116b9565b896001600160a01b0316816001600160a01b0316146040518060400160405280600581526020016424a72b2a2960d91b815250906116b75760405162461bcd60e51b81526004016106c99190614f4e565b505b505b60006116c78989613251565b905060006116d68b838a61333d565b905061173d8a600280548060200260200160405190810160405280929190818152602001828054801561173257602002820191906000526020600020905b81546001600160a01b03168152600190910190602001808311611714575b5050505050836133e6565b96507f54f9e6ef58e36de62f59f9ee6c4b878af84989c53a3642eba415ac3ac4e11cda8b88604051611770929190615441565b60405180910390a1505050505050610f8f6001600055565b825160609060005b8181101561181b578481815181106117aa576117aa615225565b602002602001015160001461180b5761180b87308784815181106117d0576117d0615225565b60200260200101518985815181106117ea576117ea615225565b60200260200101516001600160a01b0316613607909392919063ffffffff16565b61181481615295565b9050611790565b50611827858585611c2f565b915060005b855181101561190557600085828151811061184957611849615225565b602002602001015184838151811061186357611863615225565b6020026020010151106118775760006118b5565b83828151811061188957611889615225565b60200260200101518683815181106118a3576118a3615225565b60200260200101516118b59190615465565b905080156118f4576118f488828985815181106118d4576118d4615225565b60200260200101516001600160a01b0316612d4a9092919063ffffffff16565b506118fe81615295565b905061182c565b5050949350505050565b6060611919612c1d565b6004805460408051808201909152918252631253925560e21b60208301526119545760405162461bcd60e51b81526004016106c99190614f4e565b5061195e33613093565b6040518060400160405280600381526020016223292160e91b815250906119985760405162461bcd60e51b81526004016106c99190614f4e565b5060015460408051637ac46fbb60e01b815290516000926001600160a01b031691637ac46fbb916004808301926060929190829003018186803b1580156119de57600080fd5b505afa1580156119f2573d6000803e3d6000fd5b505050506040513d601f19601f82011682018060405250810190611a1691906151a9565b51604051631f4a58fb60e31b81526001600160a01b03888116600483015291925060009183169063fa52c7d89060240160206040518083038186803b158015611a5e57600080fd5b505afa158015611a72573d6000803e3d6000fd5b505050506040513d601f19601f82011682018060405250810190611a969190615208565b60408051808201909152600381526223292160e91b60208201529091506001600160a01b038216611ada5760405162461bcd60e51b81526004016106c99190614f4e565b50604051631796170d60e21b81526001600160a01b03821690635e585c3490611b119033908b9034908c908c908c9060040161547c565b60006040518083038186803b158015611b2957600080fd5b505afa158015611b3d573d6000803e3d6000fd5b50505050600080886001600160a01b031634898989604051602001611b64939291906154e1565b60408051601f1981840301815290829052611b7e91615505565b60006040518083038185875af1925050503d8060008114611bbb576040519150601f19603f3d011682016040523d82523d6000602084013e611bc0565b606091505b509150915081611bd35780518082602001fd5b60016000559350610f8f92505050565b611bec33612db2565b6040518060400160405280600381526020016223292160e91b81525090611c265760405162461bcd60e51b81526004016106c99190614f4e565b50610b46613645565b6060611c39612c1d565b6004805460408051808201909152918252631253925560e21b60208301529081611c765760405162461bcd60e51b81526004016106c99190614f4e565b5060015460408051637ac46fbb60e01b815290516000926001600160a01b031691637ac46fbb916004808301926060929190829003018186803b158015611cbc57600080fd5b505afa158015611cd0573d6000803e3d6000fd5b505050506040513d601f19601f82011682018060405250810190611cf491906151a9565b602001516040516331a9108f60e11b8152600481018490529091506000906001600160a01b03831690636352211e9060240160206040518083038186803b158015611d3e57600080fd5b505afa158015611d52573d6000803e3d6000fd5b505050506040513d601f19601f82011682018060405250810190611d769190615208565b60405163fcdabd2760e01b81526001600160a01b03808316600483015291925060009184169063fcdabd279060240160206040518083038186803b158015611dbd57600080fd5b505afa158015611dd1573d6000803e3d6000fd5b505050506040513d601f19601f82011682018060405250810190611df59190615266565b604080518082019091526002815261272360f11b602082015290915081611e2f5760405162461bcd60e51b81526004016106c99190614f4e565b506000611e3c8989613251565b90506000611e4a82896136f6565b9050611eaf8a6002805480602002602001604051908101604052809291908181526020018280548015611732576020028201919060005260206000209081546001600160a01b03168152600190910190602001808311611714575050505050836133e6565b96507f08e404e978692dd1b8275016b7a7b0b3ae4afd06b0cec7228060bb2da18c84fd81604051611ee09190614ca4565b60405180910390a1505050505050611ef86001600055565b9392505050565b60606002805480602002602001604051908101604052809291908181526020018280548015611f5757602002820191906000526020600020905b81546001600160a01b03168152600190910190602001808311611f39575b5050505050905090565b611f6a33612db2565b6040518060400160405280600381526020016223292160e91b81525090611fa45760405162461bcd60e51b81526004016106c99190614f4e565b50600980546001600160a01b0319166001600160a01b0392909216919091179055565b84516002146040518060400160405280600381526020016224a72b60e91b815250906120065760405162461bcd60e51b81526004016106c99190614f4e565b506120118587613a3b565b600154604080516301a6998760e71b815281516001600160a01b039093169263d34cc38092600480840193919291829003018186803b15801561205357600080fd5b505afa158015612067573d6000803e3d6000fd5b505050506040513d601f19601f8201168201806040525081019061208b9190615521565b51600880546001600160a01b0319166001600160a01b0390921691821790556040805163c45a015560e01b8152905163c45a015591600480820192602092909190829003018186803b1580156120e057600080fd5b505afa1580156120f4573d6000803e3d6000fd5b505050506040513d601f19601f820116820180604052508101906121189190615208565b6001600160a01b0316631698ee82600260008154811061213a5761213a615225565b600091825260209091200154600280546001600160a01b0390921691600190811061216757612167615225565b60009182526020909120015460405160e084901b6001600160e01b03191681526001600160a01b0392831660048201529116602482015262ffffff8716604482015260640160206040518083038186803b1580156121c457600080fd5b505afa1580156121d8573d6000803e3d6000fd5b505050506040513d601f19601f820116820180604052508101906121fc9190615208565b600680546001600160a01b03199081166001600160a01b03938416908117909255600a80548216868516179055600b805482168585161790556009805490911692861692909217909155604080518082019091526002815261272360f11b60208201529061227d5760405162461bcd60e51b81526004016106c99190614f4e565b50505050505050565b6060612290612c1d565b612298612754565b5060015460408051637ac46fbb60e01b815290516000926001600160a01b031691637ac46fbb916004808301926060929190829003018186803b1580156122de57600080fd5b505afa1580156122f2573d6000803e3d6000fd5b505050506040513d601f19601f8201168201806040525081019061231691906151a9565b60200151600480546040516331a9108f60e11b8152918201529091506000906001600160a01b03831690636352211e9060240160206040518083038186803b15801561236157600080fd5b505afa158015612375573d6000803e3d6000fd5b505050506040513d601f19601f820116820180604052508101906123999190615208565b905060006123aa8360045484612c77565b604051639bd0911b60e01b8152600060048201526001600160a01b039190911690639bd0911b9060240160206040518083038186803b1580156123ec57600080fd5b505afa158015612400573d6000803e3d6000fd5b505050506040513d601f19601f820116820180604052508101906124249190615208565b604080516002808252606082018352929350919060208301908036833701905050600a546040805160808101825260075481526001600160a01b0385811660208301526001600160801b038284018190526060830152915163fc6f786560e01b81529397506000938493929092169163fc6f7865916124a59160040161557f565b6040805180830381600087803b1580156124be57600080fd5b505af11580156124d2573d6000803e3d6000fd5b505050506040513d601f19601f820116820180604052508101906124f691906155c3565b91509150818660008151811061250e5761250e615225565b602002602001018181525050808660018151811061252e5761252e615225565b602002602001018181525050826001600160a01b0316336001600160a01b0316326001600160a01b03167f33fd88a8796b16d791d5b0f811d03290680b435a15164cef521a66e2ec831aef8585604051612592929190918252602082015260400190565b60405180910390a450505050506125a96001600055565b90565b60095460065460075460405163db9936bf60e01b81526001600160801b03851660048201526001600160a01b0392831660248201526044810191909152606092919091169063db9936bf9060640160006040518083038186803b15801561261257600080fd5b505afa158015612626573d6000803e3d6000fd5b505050506040513d6000823e601f3d908101601f191682016040526106519190810190615642565b60606005805480602002602001604051908101604052809291908181526020018280548015611f5757602002820191906000526020600020905b815481526020019060010190808311612688575050505050905090565b60095460075460015460048054600654600a546040516330bb342f60e21b815260609788976001600160a01b039182169763c2ecd0bc976126f797929691841695929491841693600293169101615676565b60006040518083038186803b15801561270f57600080fd5b505afa158015612723573d6000803e3d6000fd5b505050506040513d6000823e601f3d908101601f1916820160405261274b91908101906156f6565b90939092509050565b600a54600754604051630c7e663b60e11b815260048101919091523060248201526000916001600160a01b03169081906318fccc7690604401602060405180830381600087803b1580156127a757600080fd5b505af19250505080156127d7575060408051601f3d908101601f191682019092526127d491810190615266565b60015b6127e357600091505090565b60015460048054604051630248cd6d60e31b8152918201529193506000916001600160a01b03909116906312466b689060240160c06040518083038186803b15801561282e57600080fd5b505afa158015612842573d6000803e3d6000fd5b505050506040513d601f19601f820116820180604052508101906128669190615763565b60408082015190516370a0823160e01b81523060048201529192506000916001600160a01b03909116906370a082319060240160206040518083038186803b1580156128b157600080fd5b505afa1580156128c5573d6000803e3d6000fd5b505050506040513d601f19601f820116820180604052508101906128e99190615266565b9050806128fa576000935050505090565b600954604080516391bb9a2160e01b81528451600482015260208501516001600160a01b039081166024830152918501518216604482015260608501518216606482015260808501518216608482015260a085015163ffffffff1660a482015260009291909116906391bb9a219060c40160206040518083038186803b15801561298357600080fd5b505afa158015612997573d6000803e3d6000fd5b505050506040513d601f19601f820116820180604052508101906129bb9190615266565b90506129df818460000151633b9aca006129d59190615465565b633b9aca00613ec6565b905060006129f28383600160601b613ec6565b905080612a055760009550505050505090565b612a2b84608001518486604001516001600160a01b0316613f799092919063ffffffff16565b83608001516001600160a01b03166304e45aaf6040518060e0016040528087604001516001600160a01b0316815260200187606001516001600160a01b0316815260200187602001516001600160a01b031663ddca3f436040518163ffffffff1660e01b815260040160206040518083038186803b158015612aac57600080fd5b505afa158015612ac0573d6000803e3d6000fd5b505050506040513d601f19601f82011682018060405250810190612ae491906153ee565b62ffffff9081168252600b546001600160a01b0390811660208085019190915260408085018b905260608086018a90526000608096870152815160e089901b6001600160e01b03191681528751851660048201529287015184166024840152908601519093166044820152918401518116606483015291830151608482015260a083015160a482015260c0909201511660c482015260e401602060405180830381600087803b158015612b9657600080fd5b505af1158015612baa573d6000803e3d6000fd5b505050506040513d601f19601f82011682018060405250810190612bce9190615266565b50505050505090565b6000612be282614035565b80612bfd57506001600160e01b03198216633d31d51d60e11b145b8061065157506001600160e01b03198216630b135d3f60e11b1492915050565b60026000541415612c705760405162461bcd60e51b815260206004820152601f60248201527f5265656e7472616e637947756172643a207265656e7472616e742063616c6c0060448201526064016106c9565b6002600055565b60405163fcdabd2760e01b81526001600160a01b038281166004830152600091829186169063fcdabd279060240160206040518083038186803b158015612cbd57600080fd5b505afa158015612cd1573d6000803e3d6000fd5b505050506040513d601f19601f82011682018060405250810190612cf59190615266565b90508315801590612d0557508015155b604051806040016040528060048152602001631253925560e21b81525090612d405760405162461bcd60e51b81526004016106c99190614f4e565b5091949350505050565b6040516001600160a01b038316602482015260448101829052612dad90849063a9059cbb60e01b906064015b60408051601f198184030181529190526020810180516001600160e01b03166001600160e01b03199093169290921790915261406b565b505050565b6000816001600160a01b0316600160009054906101000a90046001600160a01b03166001600160a01b0316637ac46fbb6040518163ffffffff1660e01b815260040160606040518083038186803b158015612e0c57600080fd5b505afa158015612e20573d6000803e3d6000fd5b505050506040513d601f19601f82011682018060405250810190612e4491906151a9565b602001516004805460405163020604bf60e21b8152918201526001600160a01b039091169063081812fc9060240160206040518083038186803b158015612e8a57600080fd5b505afa158015612e9e573d6000803e3d6000fd5b505050506040513d601f19601f82011682018060405250810190612ec29190615208565b6001600160a01b03161492915050565b60085460075460405163133f757160e31b815260048101919091526000916001600160a01b0316906399fbab88906024016101806040518083038186803b158015612f1c57600080fd5b505afa158015612f30573d6000803e3d6000fd5b505050506040513d601f19601f82011682018060405250810190612f54919061530d565b50505050975050505050505050600a60149054906101000a900460ff1680612f8357506001600160801b038116155b15612f8b5750565b600854600a54600754604051632142170760e11b81523060048201526001600160a01b03928316602482015260448101919091529116906342842e0e90606401600060405180830381600087803b158015612fe557600080fd5b505af1925050508015612ff6575060015b612ffd5750565b600a805460ff60a01b1916600160a01b1790555b50565b60008060008061302385614140565b6040805160008152602081018083528b905260ff8316918101919091526060810184905260808101839052929550909350915060019060a0016020604051602081039080840390855afa15801561307e573d6000803e3d6000fd5b5050604051601f190151979650505050505050565b600080600160009054906101000a90046001600160a01b03166001600160a01b0316637ac46fbb6040518163ffffffff1660e01b815260040160606040518083038186803b1580156130e457600080fd5b505afa1580156130f8573d6000803e3d6000fd5b505050506040513d601f19601f8201168201806040525081019061311c91906151a9565b6020015160045490915080613135575060009392505050565b60405163020604bf60e21b8152600481018290526001600160a01b03808616919084169063081812fc9060240160206040518083038186803b15801561317a57600080fd5b505afa15801561318e573d6000803e3d6000fd5b505050506040513d601f19601f820116820180604052508101906131b29190615208565b6001600160a01b03161480610f8f57506040516331a9108f60e11b8152600481018290526001600160a01b038086169190841690636352211e9060240160206040518083038186803b15801561320757600080fd5b505afa15801561321b573d6000803e3d6000fd5b505050506040513d601f19601f8201168201806040525081019061323f9190615208565b6001600160a01b031614949350505050565b606061325c836141a4565b60405180604001604052806004815260200163494e564160e01b815250906132975760405162461bcd60e51b81526004016106c99190614f4e565b5081518351146040518060400160405280600381526020016224a72b60e91b815250906132d75760405162461bcd60e51b81526004016106c99190614f4e565b50611ef8600280548060200260200160405190810160405280929190818152602001828054801561333157602002820191906000526020600020905b81546001600160a01b03168152600190910190602001808311613313575b505050505084846133e6565b604080516002808252606080830184529260208301908036833750506007549192505061336957611ef8565b613371613645565b600061337c83614247565b9050600061338b8587846142f0565b90508060000151836000815181106133a5576133a5615225565b6020026020010181815250508060200151836001815181106133c9576133c9615225565b6020026020010181815250506133dd612ed2565b50509392505050565b6060600084516001600160401b0381111561340357613403614a59565b60405190808252806020026020018201604052801561342c578160200160208202803683370190505b5090506000805b8651821080156134435750855181105b156135c25785818151811061345a5761345a615225565b60200260200101516001600160a01b031687838151811061347d5761347d615225565b60200260200101516001600160a01b031610156134c55760008383815181106134a8576134a8615225565b6020908102919091010152816134bd81615295565b925050613433565b8581815181106134d7576134d7615225565b60200260200101516001600160a01b03168783815181106134fa576134fa615225565b60200260200101516001600160a01b031611156135735784818151811061352357613523615225565b602002602001015160001415613545578061353d81615295565b915050613433565b60405162461bcd60e51b815260206004820152600360248201526254505360e81b60448201526064016106c9565b84818151811061358557613585615225565b602002602001015183838151811061359f5761359f615225565b6020908102919091010152816135b481615295565b925050808061353d90615295565b86518210156135fc5760008383815181106135df576135df615225565b6020908102919091010152816135f481615295565b9250506135c2565b509095945050505050565b6040516001600160a01b038085166024830152831660448201526064810182905261363f9085906323b872dd60e01b90608401612d76565b50505050565b600a54600160a01b900460ff1615610b465761365f612754565b50600a54600754604051627b8a6760e11b815260048101919091523060248201526001600160a01b039091169062f714ce90604401602060405180830381600087803b1580156136ae57600080fd5b505af11580156136c2573d6000803e3d6000fd5b505050506040513d601f19601f820116820180604052508101906136e69190615266565b50600a805460ff60a01b19169055565b604080516002808252606080830184529260208301908036833750506007549192505061372257610651565b600061372d846105c4565b90506001600160801b0381166137435750610651565b61374b613645565b600060028054806020026020016040519081016040528092919081815260200182805480156137a357602002820191906000526020600020905b81546001600160a01b03168152600190910190602001808311613785575b5050505050905060005b8151811015613825576008548651613815916001600160a01b0316908890849081106137db576137db615225565b60200260200101518484815181106137f5576137f5615225565b60200260200101516001600160a01b0316613f799092919063ffffffff16565b61381e81615295565b90506137ad565b50600061383185614247565b9050600060405180604001604052808860008151811061385357613853615225565b602002602001015181526020018860018151811061387357613873615225565b6020908102919091018101519091526040805180820182528551815285830151818401908152600854835160c08101855260075481528651818701908152958701518186019081528451606083019081529351608083019081528a87015160a08401908152965163219f5d1760e01b815292516004840152965160248301525160448201529151606483015293516084820152915160a483015292935060009182916001600160a01b039091169063219f5d179060c401606060405180830381600087803b15801561394457600080fd5b505af1158015613958573d6000803e3d6000fd5b505050506040513d601f19601f8201168201806040525081019061397c9190615802565b9250925050818860008151811061399557613995615225565b60200260200101818152505080886001815181106139b5576139b5615225565b60200260200101818152505060005b8651811015613a25576008548751613a15916001600160a01b0316906000908a90859081106139f5576139f5615225565b60200260200101516001600160a01b031661479b9092919063ffffffff16565b613a1e81615295565b90506139c4565b50613a2e612ed2565b5050505050505092915050565b6004805460408051808201909152918252631253925560e21b602083015215613a775760405162461bcd60e51b81526004016106c99190614f4e565b50613a81826141a4565b60405180604001604052806004815260200163494e564160e01b81525090613abc5760405162461bcd60e51b81526004016106c99190614f4e565b506040805180820190915260028152612b2d60f11b602082015281613af45760405162461bcd60e51b81526004016106c99190614f4e565b506000336001600160a01b0316637ac46fbb6040518163ffffffff1660e01b815260040160606040518083038186803b158015613b3057600080fd5b505afa158015613b44573d6000803e3d6000fd5b505050506040513d601f19601f82011682018060405250810190613b6891906151a9565b51835190915015801590613bed5750806001600160a01b03166378546fa26040518163ffffffff1660e01b815260040160206040518083038186803b158015613bb057600080fd5b505afa158015613bc4573d6000803e3d6000fd5b505050506040513d601f19601f82011682018060405250810190613be89190615266565b835111155b6040518060400160405280600381526020016224a72b60e91b81525090613c275760405162461bcd60e51b81526004016106c99190614f4e565b5060005b8351811015613d2b57816001600160a01b03166363e85d2d858381518110613c5557613c55615225565b60209081029190910101516040516001600160e01b031960e084901b1681526001600160a01b0390911660048201526003602482015260440160206040518083038186803b158015613ca657600080fd5b505afa158015613cba573d6000803e3d6000fd5b505050506040513d601f19601f82011682018060405250810190613cde919061524b565b6040518060400160405280600381526020016223292160e91b81525090613d185760405162461bcd60e51b81526004016106c99190614f4e565b5080613d2381615295565b915050613c2b565b50600180546001600160a01b031916331790558251613d519060029060208601906149df565b50600482905560025460005b81811015613e8157613d70816001615839565b60036000878481518110613d8657613d86615225565b60200260200101516001600160a01b03166001600160a01b03168152602001908152602001600020819055506000858281518110613dc657613dc6615225565b6020026020010151905060056002826001600160a01b031663313ce5676040518163ffffffff1660e01b815260040160206040518083038186803b158015613e0d57600080fd5b505afa158015613e21573d6000803e3d6000fd5b505050506040513d601f19601f82011682018060405250810190613e459190615851565b613e4f9190615874565b613e5a90600a615988565b8154600181018355600092835260209092209091015550613e7a81615295565b9050613d5d565b50604051339032907f0f043e55a1ce0d7ce25125ccbc2800b540d83e21abf7250f0156c2091a28b22190613eb89088908890615997565b60405180910390a350505050565b600080806000198587098587029250828110838203039150508060001415613f005760008411613ef557600080fd5b508290049050611ef8565b808411613f0c57600080fd5b6000848688096000868103871696879004966002600389028118808a02820302808a02820302808a02820302808a02820302808a02820302808a02909103029181900381900460010186841190950394909402919094039290920491909117919091029150509392505050565b604051636eb1769f60e11b81523060048201526001600160a01b0383811660248301526000919085169063dd62ed3e9060440160206040518083038186803b158015613fc457600080fd5b505afa158015613fd8573d6000803e3d6000fd5b505050506040513d601f19601f82011682018060405250810190613ffc9190615266565b905061363f8463095ea7b360e01b856140158686615839565b6040516001600160a01b0390921660248301526044820152606401612d76565b60006301ffc9a760e01b6001600160e01b03198316148061065157506001600160e01b0319821663305a640b60e21b1492915050565b60006140c0826040518060400160405280602081526020017f5361666545524332303a206c6f772d6c6576656c2063616c6c206661696c6564815250856001600160a01b03166148bf9092919063ffffffff16565b90508051600014806140e15750808060200190518101906140e1919061524b565b612dad5760405162461bcd60e51b815260206004820152602a60248201527f5361666545524332303a204552433230206f7065726174696f6e20646964206e6044820152691bdd081cdd58d8d9595960b21b60648201526084016106c9565b60008060008351604114604051806040016040528060048152602001631253959360e21b815250906141855760405162461bcd60e51b81526004016106c99190614f4e565b5050505060208101516040820151606090920151909260009190911a90565b60006002825110156141b857506001919050565b60005b600183516141c99190615465565b81101561423e57826141dc826001615839565b815181106141ec576141ec615225565b60200260200101516001600160a01b031683828151811061420f5761420f615225565b60200260200101516001600160a01b03161061422e5750600092915050565b61423781615295565b90506141bb565b50600192915050565b61426b60405180606001604052806000815260200160008152602001600081525090565b815161429c57604080516060810182526000808252602082015290810161429442610258615839565b905292915050565b81516060146040518060400160405280600381526020016224a72b60e91b815250906142db5760405162461bcd60e51b81526004016106c99190614f4e565b508180602001905181019061065191906159b9565b604080518082019091526000808252602082015260085460075460405163133f757160e31b81526000928392839283926001600160a01b0316916399fbab8891614341919060040190815260200190565b6101806040518083038186803b15801561435a57600080fd5b505afa15801561436e573d6000803e3d6000fd5b505050506040513d601f19601f82011682018060405250810190614392919061530d565b5050505097509750975050505050506000600660009054906101000a90046001600160a01b03166001600160a01b0316633850c7bd6040518163ffffffff1660e01b815260040160e06040518083038186803b1580156143f157600080fd5b505afa158015614405573d6000803e3d6000fd5b505050506040513d601f19601f820116820180604052508101906144299190615a07565b50506009548e519596506001600160a01b031694631aa54edb94508693508992508891508e9060009061445e5761445e615225565b60200260200101518e60018151811061447957614479615225565b60209081029190910101516040516001600160e01b031960e088901b1681526001600160a01b039095166004860152600293840b60248601529190920b60448401526064830191909152608482015260a40160206040518083038186803b1580156144e357600080fd5b505afa1580156144f7573d6000803e3d6000fd5b505050506040513d601f19601f8201168201806040525081019061451b919061518c565b9450846001600160801b0316826001600160801b03161061453c578461453e565b815b945050505050806001600160801b03166000146146475760408051808201825284518152602080860151818301908152600854845160a08101865260075481526001600160801b0387811694820194855285518288019081529351606083019081528a880151608084019081529751630624e65f60e11b815292516004840152945116602482015291516044830152915160648201529251608484015290916001600160a01b0390911690630c49ccbe9060a4016040805180830381600087803b15801561460b57600080fd5b505af115801561461f573d6000803e3d6000fd5b505050506040513d601f19601f8201168201806040525081019061464391906155c3565b5050505b6008546040805160808101825260075481526001600160a01b0387811660208301526001600160801b038284018190526060830152915163fc6f786560e01b81526000938493169163fc6f7865916146a2919060040161557f565b6040805180830381600087803b1580156146bb57600080fd5b505af11580156146cf573d6000803e3d6000fd5b505050506040513d601f19601f820116820180604052508101906146f391906155c3565b915091508660008151811061470a5761470a615225565b6020026020010151821161471e578161473a565b8660008151811061473157614731615225565b60200260200101515b91508660018151811061474f5761474f615225565b60200260200101518111614763578061477f565b8660018151811061477657614776615225565b60200260200101515b6040805180820190915292835260208301525095945050505050565b8015806148245750604051636eb1769f60e11b81523060048201526001600160a01b03838116602483015284169063dd62ed3e9060440160206040518083038186803b1580156147ea57600080fd5b505afa1580156147fe573d6000803e3d6000fd5b505050506040513d601f19601f820116820180604052508101906148229190615266565b155b61488f5760405162461bcd60e51b815260206004820152603660248201527f5361666545524332303a20617070726f76652066726f6d206e6f6e2d7a65726f60448201527520746f206e6f6e2d7a65726f20616c6c6f77616e636560501b60648201526084016106c9565b6040516001600160a01b038316602482015260448101829052612dad90849063095ea7b360e01b90606401612d76565b6060610f8f848460008585600080866001600160a01b031685876040516148e69190615505565b60006040518083038185875af1925050503d8060008114614923576040519150601f19603f3d011682016040523d82523d6000602084013e614928565b606091505b509150915061493987838387614944565b979650505050505050565b606083156149b05782516149a9576001600160a01b0385163b6149a95760405162461bcd60e51b815260206004820152601d60248201527f416464726573733a2063616c6c20746f206e6f6e2d636f6e747261637400000060448201526064016106c9565b5081610f8f565b610f8f83838151156149c55781518083602001fd5b8060405162461bcd60e51b81526004016106c99190614f4e565b828054828255906000526020600020908101928215614a34579160200282015b82811115614a3457825182546001600160a01b0319166001600160a01b039091161782556020909201916001909101906149ff565b50614a40929150614a44565b5090565b5b80821115614a405760008155600101614a45565b634e487b7160e01b600052604160045260246000fd5b604051606081016001600160401b0381118282101715614a9157614a91614a59565b60405290565b604051601f8201601f191681016001600160401b0381118282101715614abf57614abf614a59565b604052919050565b60006001600160401b03821115614ae057614ae0614a59565b5060051b60200190565b600082601f830112614afb57600080fd5b81356020614b10614b0b83614ac7565b614a97565b82815260059290921b84018101918181019086841115614b2f57600080fd5b8286015b84811015614b4a5780358352918301918301614b33565b509695505050505050565b600060208284031215614b6757600080fd5b81356001600160401b03811115614b7d57600080fd5b610f8f84828501614aea565b6001600160e01b03198116811461301157600080fd5b600060208284031215614bb157600080fd5b8135611ef881614b89565b6001600160a01b038116811461301157600080fd5b600082601f830112614be257600080fd5b81356020614bf2614b0b83614ac7565b82815260059290921b84018101918181019086841115614c1157600080fd5b8286015b84811015614b4a578035614c2881614bbc565b8352918301918301614c15565b600060208284031215614c4757600080fd5b81356001600160401b03811115614c5d57600080fd5b610f8f84828501614bd1565b600081518084526020808501945080840160005b83811015614c9957815187529582019590820190600101614c7d565b509495945050505050565b602081526000611ef86020830184614c69565b600082601f830112614cc857600080fd5b81356001600160401b03811115614ce157614ce1614a59565b614cf4601f8201601f1916602001614a97565b818152846020838601011115614d0957600080fd5b816020850160208301376000918101602001919091529392505050565b60008060008060808587031215614d3c57600080fd5b8435614d4781614bbc565b93506020850135614d5781614bbc565b92506040850135915060608501356001600160401b03811115614d7957600080fd5b614d8587828801614cb7565b91505092959194509250565b60008060408385031215614da457600080fd5b8235915060208301356001600160401b03811115614dc157600080fd5b614dcd85828601614cb7565b9150509250929050565b60008060008060808587031215614ded57600080fd5b8435614df881614bbc565b935060208501356001600160401b0380821115614e1457600080fd5b614e2088838901614bd1565b94506040870135915080821115614e3657600080fd5b614e4288838901614aea565b93506060870135915080821115614e5857600080fd5b50614d8587828801614cb7565b60008060008060608587031215614e7b57600080fd5b8435614e8681614bbc565b93506020850135614e9681614b89565b925060408501356001600160401b0380821115614eb257600080fd5b818701915087601f830112614ec657600080fd5b813581811115614ed557600080fd5b886020828501011115614ee757600080fd5b95989497505060200194505050565b60005b83811015614f11578181015183820152602001614ef9565b8381111561363f5750506000910152565b60008151808452614f3a816020860160208601614ef6565b601f01601f19169290920160200192915050565b602081526000611ef86020830184614f22565b600060208284031215614f7357600080fd5b8135611ef881614bbc565b600080600060608486031215614f9357600080fd5b83356001600160401b0380821115614faa57600080fd5b614fb687838801614bd1565b94506020860135915080821115614fcc57600080fd5b614fd887838801614aea565b93506040860135915080821115614fee57600080fd5b50614ffb86828701614cb7565b9150509250925092565b600081518084526020808501945080840160005b83811015614c995781516001600160a01b031687529582019590820190600101615019565b602081526000611ef86020830184615005565b62ffffff8116811461301157600080fd5b60008060008060008060c0878903121561507b57600080fd5b8635955060208701356001600160401b0381111561509857600080fd5b6150a489828a01614bd1565b95505060408701356150b581615051565b935060608701356150c581614bbc565b925060808701356150d581614bbc565b915060a08701356150e581614bbc565b809150509295509295509295565b6001600160801b038116811461301157600080fd5b60006020828403121561511a57600080fd5b8135611ef8816150f3565b6040815260006151386040830185614c69565b828103602084015261514a8185614c69565b95945050505050565b6060815260006151666060830186614c69565b6001600160a01b039490941660208301525060400152919050565b8051610af5816150f3565b60006020828403121561519e57600080fd5b8151611ef8816150f3565b6000606082840312156151bb57600080fd5b6151c3614a6f565b82516151ce81614bbc565b815260208301516151de81614bbc565b602082015260408301516151f181614bbc565b60408201529392505050565b8051610af581614bbc565b60006020828403121561521a57600080fd5b8151611ef881614bbc565b634e487b7160e01b600052603260045260246000fd5b80518015158114610af557600080fd5b60006020828403121561525d57600080fd5b611ef88261523b565b60006020828403121561527857600080fd5b5051919050565b634e487b7160e01b600052601160045260246000fd5b60006000198214156152a9576152a961527f565b5060010190565b6001600160a01b03841681526060602082018190526000906152d490830185615005565b82810360408401526152e68185614c69565b9695505050505050565b8051610af581615051565b8051600281900b8114610af557600080fd5b6000806000806000806000806000806000806101808d8f03121561533057600080fd5b8c516bffffffffffffffffffffffff8116811461534c57600080fd5b9b5061535a60208e016151fd565b9a5061536860408e016151fd565b995061537660608e016151fd565b985061538460808e016152f0565b975061539260a08e016152fb565b96506153a060c08e016152fb565b95506153ae60e08e01615181565b94506101008d015193506101208d015192506153cd6101408e01615181565b91506153dc6101608e01615181565b90509295989b509295989b509295989b565b60006020828403121561540057600080fd5b8151611ef881615051565b828152604060208201526000610f8f6040830184614f22565b60006020828403121561543657600080fd5b8151611ef881614b89565b6001600160a01b0383168152604060208201819052600090610f8f90830184614c69565b6000828210156154775761547761527f565b500390565b6001600160a01b03878116825286166020820152604081018590526001600160e01b03198416606082015260a06080820181905281018290526000828460c0840137600060c0848401015260c0601f19601f8501168301019050979650505050505050565b6001600160e01b031984168152818360048301376000910160040190815292915050565b60008251615517818460208701614ef6565b9190910192915050565b60006040828403121561553357600080fd5b604051604081018181106001600160401b038211171561555557615555614a59565b604052825161556381614bbc565b8152602083015161557381614bbc565b60208201529392505050565b608081016106518284805182526020808201516001600160a01b0316908301526040808201516001600160801b039081169184019190915260609182015116910152565b600080604083850312156155d657600080fd5b505080516020909101519092909150565b600082601f8301126155f857600080fd5b81516020615608614b0b83614ac7565b82815260059290921b8401810191818101908684111561562757600080fd5b8286015b84811015614b4a578051835291830191830161562b565b60006020828403121561565457600080fd5b81516001600160401b0381111561566a57600080fd5b610f8f848285016155e7565b600060c08201888352602060018060a01b03808a1682860152886040860152808816606086015260c0608086015282875480855260e0870191508860005283600020945060005b818110156156db5785548416835260019586019592850192016156bd565b5050951660a094909401939093525091979650505050505050565b6000806040838503121561570957600080fd5b82516001600160401b038082111561572057600080fd5b61572c868387016155e7565b9350602085015191508082111561574257600080fd5b50614dcd858286016155e7565b805163ffffffff81168114610af557600080fd5b600060c0828403121561577557600080fd5b60405160c081018181106001600160401b038211171561579757615797614a59565b6040528251815260208301516157ac81614bbc565b602082015260408301516157bf81614bbc565b604082015260608301516157d281614bbc565b606082015260808301516157e581614bbc565b60808201526157f660a0840161574f565b60a08201529392505050565b60008060006060848603121561581757600080fd5b8351615822816150f3565b602085015160409095015190969495509392505050565b6000821982111561584c5761584c61527f565b500190565b60006020828403121561586357600080fd5b815160ff81168114611ef857600080fd5b600060ff83168061589557634e487b7160e01b600052601260045260246000fd5b8060ff84160491505092915050565b600181815b808511156158df5781600019048211156158c5576158c561527f565b808516156158d257918102915b93841c93908002906158a9565b509250929050565b6000826158f657506001610651565b8161590357506000610651565b816001811461591957600281146159235761593f565b6001915050610651565b60ff8411156159345761593461527f565b50506001821b610651565b5060208310610133831016604e8410600b8410161715615962575081810a610651565b61596c83836158a4565b80600019048211156159805761598061527f565b029392505050565b6000611ef860ff8416836158e7565b6040815260006159aa6040830185615005565b90508260208301529392505050565b6000606082840312156159cb57600080fd5b6159d3614a6f565b8251815260208301516020820152604083015160408201528091505092915050565b805161ffff81168114610af557600080fd5b600080600080600080600060e0888a031215615a2257600080fd5b8751615a2d81614bbc565b9650615a3b602089016152fb565b9550615a49604089016159f5565b9450615a57606089016159f5565b9350615a65608089016159f5565b9250615a7360a0890161574f565b9150615a8160c0890161523b565b90509295989194975092955056fea264697066735822122056d74318be139ba46dc95714cdf4b548bca924014822a9f81319967d2960619d64736f6c63430008090033",
    "linkReferences": {}
  },
  "methodIdentifiers": {
    "D9()": "551530ae",
    "collectEarnings()": "c27b2c2d",
    "compound()": "f69e2046",
    "erc20Vault()": "090f9221",
    "externalCall(address,bytes4,bytes)": "2e2f4cc2",
    "helper()": "63b0e66a",
    "initialize(uint256,address[],uint24,address,address,address)": "a57049b4",
    "initialized()": "158ef93e",
    "isValidSignature(bytes32,bytes)": "1626ba7e",
    "isVaultToken(address)": "338c4ccb",
    "liquidityToTokenAmounts(uint128)": "c85fc740",
    "masterChef()": "575a86b2",
    "nft()": "47ccca02",
    "onERC721Received(address,address,uint256,bytes)": "150b7a02",
    "pool()": "16f0115b",
    "positionManager()": "791b98bc",
    "pull(address,address[],uint256[],bytes)": "2062d754",
    "pullExistentials()": "d2c219b0",
    "push(address[],uint256[],bytes)": "566ca6b4",
    "reclaimTokens(address[])": "05e1c942",
    "stakeUniV3Nft()": "1081fc0b",
    "supportsInterface(bytes4)": "01ffc9a7",
    "tokenAmountsToLiquidity(uint256[])": "00f73da2",
    "transferAndPush(address,address[],uint256[],bytes)": "27a35e5a",
    "tvl()": "e5328e06",
    "uniV3Nft()": "f4adc08b",
    "unstakeUniV3Nft()": "3f74cc98",
    "updateHelper(address)": "8bcc4166",
    "vaultGovernance()": "fe255a5e",
    "vaultTokens()": "69722233"
  },
  "id": 470
}