{
  "abi": [
    {
      "inputs": [],
      "name": "Q96",
      "outputs": [
        {
          "internalType": "uint256",
          "name": "",
          "type": "uint256"
        }
      ],
      "stateMutability": "view",
      "type": "function"
    },
    {
      "inputs": [
        {
          "internalType": "contract QuickPulseStrategyV2",
          "name": "strategy",
          "type": "address"
        }
      ],
      "name": "calculateAmountForSwap",
      "outputs": [
        {
          "internalType": "uint256",
          "name": "amountIn",
          "type": "uint256"
        },
        {
          "internalType": "address",
          "name": "from",
          "type": "address"
        },
        {
          "internalType": "address",
          "name": "to",
          "type": "address"
        },
        {
          "internalType": "contract IERC20Vault",
          "name": "erc20Vault",
          "type": "address"
        },
        {
          "internalType": "bool",
          "name": "neededNewInterval",
          "type": "bool"
        }
      ],
      "stateMutability": "view",
      "type": "function"
    },
    {
      "inputs": [
        {
          "internalType": "contract QuickPulseStrategyV2",
          "name": "strategy",
          "type": "address"
        }
      ],
      "name": "getStrategyParams",
      "outputs": [
        {
          "components": [
            {
              "internalType": "contract IERC20Vault",
              "name": "erc20Vault",
              "type": "address"
            },
            {
              "internalType": "contract IQuickSwapVault",
              "name": "quickSwapVault",
              "type": "address"
            },
            {
              "internalType": "address",
              "name": "router",
              "type": "address"
            },
            {
              "internalType": "address[]",
              "name": "tokens",
              "type": "address[]"
            }
          ],
          "internalType": "struct QuickPulseStrategyV2.ImmutableParams",
          "name": "immutableParams",
          "type": "tuple"
        },
        {
          "components": [
            {
              "internalType": "int24",
              "name": "priceImpactD6",
              "type": "int24"
            },
            {
              "internalType": "int24",
              "name": "defaultIntervalWidth",
              "type": "int24"
            },
            {
              "internalType": "int24",
              "name": "maxPositionLengthInTicks",
              "type": "int24"
            },
            {
              "internalType": "int24",
              "name": "maxDeviationForVaultPool",
              "type": "int24"
            },
            {
              "internalType": "uint32",
              "name": "timespanForAverageTick",
              "type": "uint32"
            },
            {
              "internalType": "uint256",
              "name": "neighborhoodFactorD",
              "type": "uint256"
            },
            {
              "internalType": "uint256",
              "name": "extensionFactorD",
              "type": "uint256"
            },
            {
              "internalType": "uint256",
              "name": "swapSlippageD",
              "type": "uint256"
            },
            {
              "internalType": "uint256",
              "name": "swappingAmountsCoefficientD",
              "type": "uint256"
            },
            {
              "internalType": "uint256[]",
              "name": "minSwapAmounts",
              "type": "uint256[]"
            }
          ],
          "internalType": "struct QuickPulseStrategyV2.MutableParams",
          "name": "mutableParams",
          "type": "tuple"
        }
      ],
      "stateMutability": "view",
      "type": "function"
    }
  ],
  "bytecode": {
    "object": "0x608060405234801561001057600080fd5b506116ad806100206000396000f3fe608060405234801561001057600080fd5b50600436106100415760003560e01c806340792465146100465780637b23e1bd14610064578063e6412b5c14610085575b600080fd5b610051600160601b81565b6040519081526020015b60405180910390f35b610077610072366004610ece565b6100d0565b60405161005b929190610fd5565b610098610093366004610ece565b6103ad565b604080519586526001600160a01b0394851660208701529284169285019290925290911660608301521515608082015260a00161005b565b604080516080808201835260008083526020808401829052838501829052606080850181905285516101408101875283815291820183905294810182905280850182905291820181905260a0820181905260c0820181905260e08201819052610100820152610120810192909252906000806000856001600160a01b031663c8014d536040518163ffffffff1660e01b815260040160606040518083038186803b15801561017d57600080fd5b505afa158015610191573d6000803e3d6000fd5b505050506040513d601f19601f820116820180604052508101906101b5919061107b565b9250925092506040518060800160405280846001600160a01b03168152602001836001600160a01b03168152602001826001600160a01b03168152602001846001600160a01b031663697222336040518163ffffffff1660e01b815260040160006040518083038186803b15801561022c57600080fd5b505afa158015610240573d6000803e3d6000fd5b505050506040513d6000823e601f3d908101601f191682016040526102689190810190611133565b815250945050505060008060008060008060008060008b6001600160a01b0316635f408a216040518163ffffffff1660e01b81526004016101206040518083038186803b1580156102b857600080fd5b505afa1580156102cc573d6000803e3d6000fd5b505050506040513d601f19601f820116820180604052508101906102f091906111e4565b9850985098509850985098509850985098506040518061014001604052808a60020b81526020018960020b81526020018860020b81526020018760020b81526020018663ffffffff168152602001858152602001848152602001838152602001828152602001600267ffffffffffffffff811115610370576103706110c8565b604051908082528060200260200182016040528015610399578160200160208202803683370190505b508152509950505050505050505050915091565b60008060008060008060006103c1886100d0565b915091506000886001600160a01b0316639f747b206040518163ffffffff1660e01b815260040160206040518083038186803b15801561040057600080fd5b505afa158015610414573d6000803e3d6000fd5b505050506040513d601f19601f82011682018060405250810190610438919061127d565b9050600080826001600160a01b031663e76c01e46040518163ffffffff1660e01b815260040160e06040518083038186803b15801561047657600080fd5b505afa15801561048a573d6000803e3d6000fd5b505050506040513d601f19601f820116820180604052508101906104ae91906112cd565b505050505091509150846000015196506000806104e2846001600160a01b0316856001600160a01b0316600160601b610b15565b6040805160028082526060820183529293506000929091602083019080368337019050506020808a0151604080518082019091526000808252928101929092529192508f6001600160a01b031663fe57ed618a888b866001600160a01b031663ef7d80376040518163ffffffff1660e01b815260040160206040518083038186803b15801561057057600080fd5b505afa158015610584573d6000803e3d6000fd5b505050506040513d601f19601f820116820180604052508101906105a89190611355565b6040518563ffffffff1660e01b81526004016105c7949392919061136e565b60606040518083038186803b1580156105df57600080fd5b505afa1580156105f3573d6000803e3d6000fd5b505050506040513d601f19601f8201168201806040525081019061061791906113a9565b809c508192505050816001600160a01b031663e5328e066040518163ffffffff1660e01b815260040160006040518083038186803b15801561065857600080fd5b505afa15801561066c573d6000803e3d6000fd5b505050506040513d6000823e601f3d908101601f19168201604052610694919081019061148b565b5092508a6109ef576000826001600160a01b03166363b0e66a6040518163ffffffff1660e01b815260040160206040518083038186803b1580156106d757600080fd5b505afa1580156106eb573d6000803e3d6000fd5b505050506040513d601f19601f8201168201806040525081019061070f919061127d565b90506000836001600160a01b031663791b98bc6040518163ffffffff1660e01b815260040160206040518083038186803b15801561074c57600080fd5b505afa158015610760573d6000803e3d6000fd5b505050506040513d601f19601f82011682018060405250810190610784919061127d565b6001600160a01b03166399fbab88856001600160a01b031663ef7d80376040518163ffffffff1660e01b815260040160206040518083038186803b1580156107cb57600080fd5b505afa1580156107df573d6000803e3d6000fd5b505050506040513d601f19601f820116820180604052508101906108039190611355565b6040518263ffffffff1660e01b815260040161082191815260200190565b6101606040518083038186803b15801561083a57600080fd5b505afa15801561084e573d6000803e3d6000fd5b505050506040513d601f19601f820116820180604052508101906108729190611506565b505050509650505050505050600080836001600160a01b031663b5ce1db9876001600160a01b031663ef7d80376040518163ffffffff1660e01b815260040160206040518083038186803b1580156108c957600080fd5b505afa1580156108dd573d6000803e3d6000fd5b505050506040513d601f19601f820116820180604052508101906109019190611355565b6040516001600160e01b031960e084901b16815260048101919091526001600160a01b038e1660248201526001600160801b0386166044820152606401604080518083038186803b15801561095557600080fd5b505afa158015610969573d6000803e3d6000fd5b505050506040513d601f19601f8201168201806040525081019061098d91906115dd565b9150915081876000815181106109a5576109a5611601565b602002602001018181516109b9919061162d565b90525086518190889060019081106109d3576109d3611601565b602002602001018181516109e7919061162d565b905250505050505b8f6001600160a01b0316639bb37ba88289876040518463ffffffff1660e01b8152600401610a4e939291908351600290810b8252602094850151900b938101939093526001600160a01b03919091166040830152606082015260800190565b60206040518083038186803b158015610a6657600080fd5b505afa158015610a7a573d6000803e3d6000fd5b505050506040513d601f19601f82011682018060405250810190610a9e9190611355565b945050506000610ab1848c858b86610bc9565b809250819f50505088606001518181518110610acf57610acf611601565b60200260200101519c5088606001518160011881518110610af257610af2611601565b60200260200101519b5088600001519a5050505050505050505091939590929450565b600080806000198587098587029250828110838203039150508060001415610b4f5760008411610b4457600080fd5b508290049050610bc2565b808411610b5b57600080fd5b6000848688096000868103871696879004966002600389028118808a02820302808a02820302808a02820302808a02820302808a02820302808a02909103029181900381900460010186841190950394909402919094039290920491909117919091029150505b9392505050565b60008080610bdb88600160601b61162d565b90506000876001600160a01b031663e5328e066040518163ffffffff1660e01b815260040160006040518083038186803b158015610c1857600080fd5b505afa158015610c2c573d6000803e3d6000fd5b505050506040513d6000823e601f3d908101601f19168201604052610c54919081019061148b565b50905060005b6002811015610cb857858181518110610c7557610c75611601565b6020026020010151828281518110610c8f57610c8f611601565b60200260200101818151610ca39190611644565b90525080610cb08161165c565b915050610c5a565b506000610d3182600181518110610cd157610cd1611601565b6020026020010151600160601b610d0785600081518110610cf457610cf4611601565b60200260200101518c600160601b610b15565b85600181518110610d1a57610d1a611601565b6020026020010151610d2c9190611644565b610b15565b90506000610d4e600160601b896000015160020b620f4240610b15565b90508a821115610df457600194506000610d6d600160601b808c610b15565b9050610dec610d978d86600081518110610d8957610d89611601565b602002602001015184610b15565b610dc086600181518110610dad57610dad611601565b602002602001015188600160601b610b15565b610dca919061162d565b600160601b610dde8f86600160601b610b15565b610d2c90600160601b61162d565b965050610e6a565b60009450610e67610e208585600181518110610e1257610e12611601565b60200260200101518c610b15565b610e4985600081518110610e3657610e36611601565b60200260200101518e600160601b610b15565b610e53919061162d565b600160601b610dde8785600160601b610b15565b95505b828581518110610e7c57610e7c611601565b6020026020010151861115610ea857828581518110610e9d57610e9d611601565b602002602001015195505b505050509550959350505050565b6001600160a01b0381168114610ecb57600080fd5b50565b600060208284031215610ee057600080fd5b8135610bc281610eb6565b600081518084526020808501945080840160005b83811015610f1b57815187529582019590820190600101610eff565b509495945050505050565b805160020b825260006101406020830151610f46602086018260020b9052565b506040830151610f5b604086018260020b9052565b506060830151610f70606086018260020b9052565b506080830151610f88608086018263ffffffff169052565b5060a083015160a085015260c083015160c085015260e083015160e0850152610100808401518186015250610120808401518282870152610fcb83870182610eeb565b9695505050505050565b60408152600060c0820160018060a01b03808651166040850152602081818801511660608601528160408801511660808601526060870151608060a087015283815180865260e0880191508383019550600092505b8083101561104c5785518516825294830194600192909201919083019061102a565b508681038388015261105e8189610f26565b9998505050505050505050565b805161107681610eb6565b919050565b60008060006060848603121561109057600080fd5b835161109b81610eb6565b60208501519093506110ac81610eb6565b60408501519092506110bd81610eb6565b809150509250925092565b634e487b7160e01b600052604160045260246000fd5b604051601f8201601f1916810167ffffffffffffffff81118282101715611107576111076110c8565b604052919050565b600067ffffffffffffffff821115611129576111296110c8565b5060051b60200190565b6000602080838503121561114657600080fd5b825167ffffffffffffffff81111561115d57600080fd5b8301601f8101851361116e57600080fd5b805161118161117c8261110f565b6110de565b81815260059190911b820183019083810190878311156111a057600080fd5b928401925b828410156111c75783516111b881610eb6565b825292840192908401906111a5565b979650505050505050565b8051600281900b811461107657600080fd5b60008060008060008060008060006101208a8c03121561120357600080fd5b61120c8a6111d2565b985061121a60208b016111d2565b975061122860408b016111d2565b965061123660608b016111d2565b955060808a015163ffffffff8116811461124f57600080fd5b8095505060a08a0151935060c08a0151925060e08a015191506101008a015190509295985092959850929598565b60006020828403121561128f57600080fd5b8151610bc281610eb6565b805161ffff8116811461107657600080fd5b805160ff8116811461107657600080fd5b8051801515811461107657600080fd5b600080600080600080600060e0888a0312156112e857600080fd5b87516112f381610eb6565b9650611301602089016111d2565b955061130f6040890161129a565b945061131d6060890161129a565b935061132b608089016112ac565b925061133960a089016112ac565b915061134760c089016112bd565b905092959891949750929550565b60006020828403121561136757600080fd5b5051919050565b6080815260006113816080830187610f26565b60029590950b6020830152506001600160a01b03929092166040830152606090910152919050565b60008082840360608112156113bd57600080fd5b60408112156113cb57600080fd5b506040516040810181811067ffffffffffffffff821117156113ef576113ef6110c8565b6040526113fb846111d2565b8152611409602085016111d2565b6020820152915061141c604084016112bd565b90509250929050565b600082601f83011261143657600080fd5b8151602061144661117c8361110f565b82815260059290921b8401810191818101908684111561146557600080fd5b8286015b848110156114805780518352918301918301611469565b509695505050505050565b6000806040838503121561149e57600080fd5b825167ffffffffffffffff808211156114b657600080fd5b6114c286838701611425565b935060208501519150808211156114d857600080fd5b506114e585828601611425565b9150509250929050565b80516001600160801b038116811461107657600080fd5b60008060008060008060008060008060006101608c8e03121561152857600080fd5b8b516bffffffffffffffffffffffff8116811461154457600080fd5b60208d0151909b5061155581610eb6565b60408d0151909a5061156681610eb6565b985061157460608d0161106b565b975061158260808d016111d2565b965061159060a08d016111d2565b955061159e60c08d016114ef565b945060e08c015193506101008c015192506115bc6101208d016114ef565b91506115cb6101408d016114ef565b90509295989b509295989b9093969950565b600080604083850312156115f057600080fd5b505080516020909101519092909150565b634e487b7160e01b600052603260045260246000fd5b634e487b7160e01b600052601160045260246000fd5b60008282101561163f5761163f611617565b500390565b6000821982111561165757611657611617565b500190565b600060001982141561167057611670611617565b506001019056fea26469706673582212203c169ecd7af9b5aba50480a481c14c0cad02f1d0051b509e677ccc3579250c9c64736f6c63430008090033",
    "linkReferences": {}
  },
  "methodIdentifiers": {
    "Q96()": "40792465",
    "calculateAmountForSwap(address)": "e6412b5c",
    "getStrategyParams(address)": "7b23e1bd"
  },
  "id": 431
}