{
  "abi": [
    {
      "inputs": [
        {
          "internalType": "contract INonfungiblePositionManager",
          "name": "positionManager_",
          "type": "address"
        }
      ],
      "stateMutability": "nonpayable",
      "type": "constructor"
    },
    {
      "anonymous": false,
      "inputs": [
        {
          "indexed": false,
          "internalType": "uint256",
          "name": "tokenId",
          "type": "uint256"
        }
      ],
      "name": "PositionBurned",
      "type": "event"
    },
    {
      "anonymous": false,
      "inputs": [
        {
          "indexed": false,
          "internalType": "uint256",
          "name": "tokenId",
          "type": "uint256"
        }
      ],
      "name": "PositionMinted",
      "type": "event"
    },
    {
      "anonymous": false,
      "inputs": [
        {
          "indexed": true,
          "internalType": "address",
          "name": "origin",
          "type": "address"
        },
        {
          "indexed": true,
          "internalType": "address",
          "name": "sender",
          "type": "address"
        }
      ],
      "name": "Rebalance",
      "type": "event"
    },
    {
      "anonymous": false,
      "inputs": [
        {
          "indexed": true,
          "internalType": "bytes32",
          "name": "role",
          "type": "bytes32"
        },
        {
          "indexed": true,
          "internalType": "bytes32",
          "name": "previousAdminRole",
          "type": "bytes32"
        },
        {
          "indexed": true,
          "internalType": "bytes32",
          "name": "newAdminRole",
          "type": "bytes32"
        }
      ],
      "name": "RoleAdminChanged",
      "type": "event"
    },
    {
      "anonymous": false,
      "inputs": [
        {
          "indexed": true,
          "internalType": "bytes32",
          "name": "role",
          "type": "bytes32"
        },
        {
          "indexed": true,
          "internalType": "address",
          "name": "account",
          "type": "address"
        },
        {
          "indexed": true,
          "internalType": "address",
          "name": "sender",
          "type": "address"
        }
      ],
      "name": "RoleGranted",
      "type": "event"
    },
    {
      "anonymous": false,
      "inputs": [
        {
          "indexed": true,
          "internalType": "bytes32",
          "name": "role",
          "type": "bytes32"
        },
        {
          "indexed": true,
          "internalType": "address",
          "name": "account",
          "type": "address"
        },
        {
          "indexed": true,
          "internalType": "address",
          "name": "sender",
          "type": "address"
        }
      ],
      "name": "RoleRevoked",
      "type": "event"
    },
    {
      "anonymous": false,
      "inputs": [
        {
          "indexed": false,
          "internalType": "uint256",
          "name": "amountIn",
          "type": "uint256"
        },
        {
          "indexed": false,
          "internalType": "uint256",
          "name": "amountOut",
          "type": "uint256"
        },
        {
          "indexed": false,
          "internalType": "uint256",
          "name": "tokenInIndex",
          "type": "uint256"
        }
      ],
      "name": "TokensSwapped",
      "type": "event"
    },
    {
      "anonymous": false,
      "inputs": [
        {
          "indexed": true,
          "internalType": "address",
          "name": "origin",
          "type": "address"
        },
        {
          "indexed": true,
          "internalType": "address",
          "name": "sender",
          "type": "address"
        },
        {
          "components": [
            {
              "internalType": "int24",
              "name": "priceImpactD6",
              "type": "int24"
            },
            {
              "internalType": "int24",
              "name": "defaultIntervalWidth",
              "type": "int24"
            },
            {
              "internalType": "int24",
              "name": "maxPositionLengthInTicks",
              "type": "int24"
            },
            {
              "internalType": "int24",
              "name": "maxDeviationForVaultPool",
              "type": "int24"
            },
            {
              "internalType": "uint32",
              "name": "timespanForAverageTick",
              "type": "uint32"
            },
            {
              "internalType": "uint256",
              "name": "neighborhoodFactorD",
              "type": "uint256"
            },
            {
              "internalType": "uint256",
              "name": "extensionFactorD",
              "type": "uint256"
            },
            {
              "internalType": "uint256",
              "name": "swapSlippageD",
              "type": "uint256"
            },
            {
              "internalType": "uint256",
              "name": "swappingAmountsCoefficientD",
              "type": "uint256"
            },
            {
              "internalType": "uint256[]",
              "name": "minSwapAmounts",
              "type": "uint256[]"
            }
          ],
          "indexed": false,
          "internalType": "struct PulseStrategyV2.MutableParams",
          "name": "mutableParams",
          "type": "tuple"
        }
      ],
      "name": "UpdateMutableParams",
      "type": "event"
    },
    {
      "inputs": [],
      "name": "ADMIN_DELEGATE_ROLE",
      "outputs": [
        {
          "internalType": "bytes32",
          "name": "",
          "type": "bytes32"
        }
      ],
      "stateMutability": "view",
      "type": "function"
    },
    {
      "inputs": [],
      "name": "ADMIN_ROLE",
      "outputs": [
        {
          "internalType": "bytes32",
          "name": "",
          "type": "bytes32"
        }
      ],
      "stateMutability": "view",
      "type": "function"
    },
    {
      "inputs": [],
      "name": "D6",
      "outputs": [
        {
          "internalType": "uint256",
          "name": "",
          "type": "uint256"
        }
      ],
      "stateMutability": "view",
      "type": "function"
    },
    {
      "inputs": [],
      "name": "D9",
      "outputs": [
        {
          "internalType": "uint256",
          "name": "",
          "type": "uint256"
        }
      ],
      "stateMutability": "view",
      "type": "function"
    },
    {
      "inputs": [],
      "name": "DEFAULT_ADMIN_ROLE",
      "outputs": [
        {
          "internalType": "bytes32",
          "name": "",
          "type": "bytes32"
        }
      ],
      "stateMutability": "view",
      "type": "function"
    },
    {
      "inputs": [],
      "name": "OPERATOR",
      "outputs": [
        {
          "internalType": "bytes32",
          "name": "",
          "type": "bytes32"
        }
      ],
      "stateMutability": "view",
      "type": "function"
    },
    {
      "inputs": [],
      "name": "Q96",
      "outputs": [
        {
          "internalType": "uint256",
          "name": "",
          "type": "uint256"
        }
      ],
      "stateMutability": "view",
      "type": "function"
    },
    {
      "inputs": [
        {
          "components": [
            {
              "internalType": "contract IERC20Vault",
              "name": "erc20Vault",
              "type": "address"
            },
            {
              "internalType": "contract IUniV3Vault",
              "name": "uniV3Vault",
              "type": "address"
            },
            {
              "internalType": "address",
              "name": "router",
              "type": "address"
            },
            {
              "internalType": "address[]",
              "name": "tokens",
              "type": "address[]"
            }
          ],
          "internalType": "struct PulseStrategyV2.ImmutableParams",
          "name": "immutableParams_",
          "type": "tuple"
        },
        {
          "components": [
            {
              "internalType": "int24",
              "name": "priceImpactD6",
              "type": "int24"
            },
            {
              "internalType": "int24",
              "name": "defaultIntervalWidth",
              "type": "int24"
            },
            {
              "internalType": "int24",
              "name": "maxPositionLengthInTicks",
              "type": "int24"
            },
            {
              "internalType": "int24",
              "name": "maxDeviationForVaultPool",
              "type": "int24"
            },
            {
              "internalType": "uint32",
              "name": "timespanForAverageTick",
              "type": "uint32"
            },
            {
              "internalType": "uint256",
              "name": "neighborhoodFactorD",
              "type": "uint256"
            },
            {
              "internalType": "uint256",
              "name": "extensionFactorD",
              "type": "uint256"
            },
            {
              "internalType": "uint256",
              "name": "swapSlippageD",
              "type": "uint256"
            },
            {
              "internalType": "uint256",
              "name": "swappingAmountsCoefficientD",
              "type": "uint256"
            },
            {
              "internalType": "uint256[]",
              "name": "minSwapAmounts",
              "type": "uint256[]"
            }
          ],
          "internalType": "struct PulseStrategyV2.MutableParams",
          "name": "mutableParams_",
          "type": "tuple"
        },
        {
          "internalType": "uint256",
          "name": "priceX96",
          "type": "uint256"
        },
        {
          "internalType": "uint256",
          "name": "targetRatioOfToken1X96",
          "type": "uint256"
        }
      ],
      "name": "calculateAmountsForSwap",
      "outputs": [
        {
          "internalType": "uint256",
          "name": "tokenInIndex",
          "type": "uint256"
        },
        {
          "internalType": "uint256",
          "name": "amountIn",
          "type": "uint256"
        }
      ],
      "stateMutability": "view",
      "type": "function"
    },
    {
      "inputs": [
        {
          "components": [
            {
              "internalType": "int24",
              "name": "priceImpactD6",
              "type": "int24"
            },
            {
              "internalType": "int24",
              "name": "defaultIntervalWidth",
              "type": "int24"
            },
            {
              "internalType": "int24",
              "name": "maxPositionLengthInTicks",
              "type": "int24"
            },
            {
              "internalType": "int24",
              "name": "maxDeviationForVaultPool",
              "type": "int24"
            },
            {
              "internalType": "uint32",
              "name": "timespanForAverageTick",
              "type": "uint32"
            },
            {
              "internalType": "uint256",
              "name": "neighborhoodFactorD",
              "type": "uint256"
            },
            {
              "internalType": "uint256",
              "name": "extensionFactorD",
              "type": "uint256"
            },
            {
              "internalType": "uint256",
              "name": "swapSlippageD",
              "type": "uint256"
            },
            {
              "internalType": "uint256",
              "name": "swappingAmountsCoefficientD",
              "type": "uint256"
            },
            {
              "internalType": "uint256[]",
              "name": "minSwapAmounts",
              "type": "uint256[]"
            }
          ],
          "internalType": "struct PulseStrategyV2.MutableParams",
          "name": "mutableParams_",
          "type": "tuple"
        },
        {
          "internalType": "int24",
          "name": "spotTick",
          "type": "int24"
        },
        {
          "internalType": "contract IUniswapV3Pool",
          "name": "pool",
          "type": "address"
        },
        {
          "internalType": "uint256",
          "name": "uniV3Nft",
          "type": "uint256"
        }
      ],
      "name": "calculateNewPosition",
      "outputs": [
        {
          "components": [
            {
              "internalType": "int24",
              "name": "lowerTick",
              "type": "int24"
            },
            {
              "internalType": "int24",
              "name": "upperTick",
              "type": "int24"
            }
          ],
          "internalType": "struct PulseStrategyV2.Interval",
          "name": "newInterval",
          "type": "tuple"
        },
        {
          "internalType": "bool",
          "name": "neededNewInterval",
          "type": "bool"
        }
      ],
      "stateMutability": "view",
      "type": "function"
    },
    {
      "inputs": [
        {
          "components": [
            {
              "internalType": "int24",
              "name": "lowerTick",
              "type": "int24"
            },
            {
              "internalType": "int24",
              "name": "upperTick",
              "type": "int24"
            }
          ],
          "internalType": "struct PulseStrategyV2.Interval",
          "name": "interval",
          "type": "tuple"
        },
        {
          "internalType": "uint160",
          "name": "sqrtSpotPriceX96",
          "type": "uint160"
        },
        {
          "internalType": "uint256",
          "name": "spotPriceX96",
          "type": "uint256"
        }
      ],
      "name": "calculateTargetRatioOfToken1",
      "outputs": [
        {
          "internalType": "uint256",
          "name": "targetRatioOfToken1X96",
          "type": "uint256"
        }
      ],
      "stateMutability": "pure",
      "type": "function"
    },
    {
      "inputs": [
        {
          "components": [
            {
              "internalType": "contract IERC20Vault",
              "name": "erc20Vault",
              "type": "address"
            },
            {
              "internalType": "contract IUniV3Vault",
              "name": "uniV3Vault",
              "type": "address"
            },
            {
              "internalType": "address",
              "name": "router",
              "type": "address"
            },
            {
              "internalType": "address[]",
              "name": "tokens",
              "type": "address[]"
            }
          ],
          "internalType": "struct PulseStrategyV2.ImmutableParams",
          "name": "params",
          "type": "tuple"
        }
      ],
      "name": "checkImmutableParams",
      "outputs": [],
      "stateMutability": "view",
      "type": "function"
    },
    {
      "inputs": [
        {
          "components": [
            {
              "internalType": "int24",
              "name": "priceImpactD6",
              "type": "int24"
            },
            {
              "internalType": "int24",
              "name": "defaultIntervalWidth",
              "type": "int24"
            },
            {
              "internalType": "int24",
              "name": "maxPositionLengthInTicks",
              "type": "int24"
            },
            {
              "internalType": "int24",
              "name": "maxDeviationForVaultPool",
              "type": "int24"
            },
            {
              "internalType": "uint32",
              "name": "timespanForAverageTick",
              "type": "uint32"
            },
            {
              "internalType": "uint256",
              "name": "neighborhoodFactorD",
              "type": "uint256"
            },
            {
              "internalType": "uint256",
              "name": "extensionFactorD",
              "type": "uint256"
            },
            {
              "internalType": "uint256",
              "name": "swapSlippageD",
              "type": "uint256"
            },
            {
              "internalType": "uint256",
              "name": "swappingAmountsCoefficientD",
              "type": "uint256"
            },
            {
              "internalType": "uint256[]",
              "name": "minSwapAmounts",
              "type": "uint256[]"
            }
          ],
          "internalType": "struct PulseStrategyV2.MutableParams",
          "name": "params",
          "type": "tuple"
        },
        {
          "components": [
            {
              "internalType": "contract IERC20Vault",
              "name": "erc20Vault",
              "type": "address"
            },
            {
              "internalType": "contract IUniV3Vault",
              "name": "uniV3Vault",
              "type": "address"
            },
            {
              "internalType": "address",
              "name": "router",
              "type": "address"
            },
            {
              "internalType": "address[]",
              "name": "tokens",
              "type": "address[]"
            }
          ],
          "internalType": "struct PulseStrategyV2.ImmutableParams",
          "name": "immutableParams_",
          "type": "tuple"
        }
      ],
      "name": "checkMutableParams",
      "outputs": [],
      "stateMutability": "view",
      "type": "function"
    },
    {
      "inputs": [
        {
          "components": [
            {
              "internalType": "int24",
              "name": "priceImpactD6",
              "type": "int24"
            },
            {
              "internalType": "int24",
              "name": "defaultIntervalWidth",
              "type": "int24"
            },
            {
              "internalType": "int24",
              "name": "maxPositionLengthInTicks",
              "type": "int24"
            },
            {
              "internalType": "int24",
              "name": "maxDeviationForVaultPool",
              "type": "int24"
            },
            {
              "internalType": "uint32",
              "name": "timespanForAverageTick",
              "type": "uint32"
            },
            {
              "internalType": "uint256",
              "name": "neighborhoodFactorD",
              "type": "uint256"
            },
            {
              "internalType": "uint256",
              "name": "extensionFactorD",
              "type": "uint256"
            },
            {
              "internalType": "uint256",
              "name": "swapSlippageD",
              "type": "uint256"
            },
            {
              "internalType": "uint256",
              "name": "swappingAmountsCoefficientD",
              "type": "uint256"
            },
            {
              "internalType": "uint256[]",
              "name": "minSwapAmounts",
              "type": "uint256[]"
            }
          ],
          "internalType": "struct PulseStrategyV2.MutableParams",
          "name": "mutableParams_",
          "type": "tuple"
        },
        {
          "internalType": "contract IUniswapV3Pool",
          "name": "vaultPool",
          "type": "address"
        }
      ],
      "name": "checkTickDeviation",
      "outputs": [],
      "stateMutability": "view",
      "type": "function"
    },
    {
      "inputs": [],
      "name": "contractName",
      "outputs": [
        {
          "internalType": "string",
          "name": "",
          "type": "string"
        }
      ],
      "stateMutability": "pure",
      "type": "function"
    },
    {
      "inputs": [],
      "name": "contractNameBytes",
      "outputs": [
        {
          "internalType": "bytes32",
          "name": "",
          "type": "bytes32"
        }
      ],
      "stateMutability": "pure",
      "type": "function"
    },
    {
      "inputs": [],
      "name": "contractVersion",
      "outputs": [
        {
          "internalType": "string",
          "name": "",
          "type": "string"
        }
      ],
      "stateMutability": "pure",
      "type": "function"
    },
    {
      "inputs": [],
      "name": "contractVersionBytes",
      "outputs": [
        {
          "internalType": "bytes32",
          "name": "",
          "type": "bytes32"
        }
      ],
      "stateMutability": "pure",
      "type": "function"
    },
    {
      "inputs": [],
      "name": "depositCallback",
      "outputs": [],
      "stateMutability": "nonpayable",
      "type": "function"
    },
    {
      "inputs": [],
      "name": "desiredAmounts",
      "outputs": [
        {
          "internalType": "uint256",
          "name": "amount0Desired",
          "type": "uint256"
        },
        {
          "internalType": "uint256",
          "name": "amount1Desired",
          "type": "uint256"
        }
      ],
      "stateMutability": "view",
      "type": "function"
    },
    {
      "inputs": [],
      "name": "forceRebalanceWidthFlag",
      "outputs": [
        {
          "internalType": "bool",
          "name": "",
          "type": "bool"
        }
      ],
      "stateMutability": "view",
      "type": "function"
    },
    {
      "inputs": [
        {
          "components": [
            {
              "internalType": "int24",
              "name": "priceImpactD6",
              "type": "int24"
            },
            {
              "internalType": "int24",
              "name": "defaultIntervalWidth",
              "type": "int24"
            },
            {
              "internalType": "int24",
              "name": "maxPositionLengthInTicks",
              "type": "int24"
            },
            {
              "internalType": "int24",
              "name": "maxDeviationForVaultPool",
              "type": "int24"
            },
            {
              "internalType": "uint32",
              "name": "timespanForAverageTick",
              "type": "uint32"
            },
            {
              "internalType": "uint256",
              "name": "neighborhoodFactorD",
              "type": "uint256"
            },
            {
              "internalType": "uint256",
              "name": "extensionFactorD",
              "type": "uint256"
            },
            {
              "internalType": "uint256",
              "name": "swapSlippageD",
              "type": "uint256"
            },
            {
              "internalType": "uint256",
              "name": "swappingAmountsCoefficientD",
              "type": "uint256"
            },
            {
              "internalType": "uint256[]",
              "name": "minSwapAmounts",
              "type": "uint256[]"
            }
          ],
          "internalType": "struct PulseStrategyV2.MutableParams",
          "name": "mutableParams_",
          "type": "tuple"
        },
        {
          "internalType": "int24",
          "name": "spotTick",
          "type": "int24"
        },
        {
          "internalType": "int24",
          "name": "tickSpacing",
          "type": "int24"
        }
      ],
      "name": "formPositionWithSpotTickInCenter",
      "outputs": [
        {
          "components": [
            {
              "internalType": "int24",
              "name": "lowerTick",
              "type": "int24"
            },
            {
              "internalType": "int24",
              "name": "upperTick",
              "type": "int24"
            }
          ],
          "internalType": "struct PulseStrategyV2.Interval",
          "name": "newInterval",
          "type": "tuple"
        }
      ],
      "stateMutability": "pure",
      "type": "function"
    },
    {
      "inputs": [
        {
          "internalType": "bytes32",
          "name": "role",
          "type": "bytes32"
        }
      ],
      "name": "getRoleAdmin",
      "outputs": [
        {
          "internalType": "bytes32",
          "name": "",
          "type": "bytes32"
        }
      ],
      "stateMutability": "view",
      "type": "function"
    },
    {
      "inputs": [
        {
          "internalType": "bytes32",
          "name": "role",
          "type": "bytes32"
        },
        {
          "internalType": "uint256",
          "name": "index",
          "type": "uint256"
        }
      ],
      "name": "getRoleMember",
      "outputs": [
        {
          "internalType": "address",
          "name": "",
          "type": "address"
        }
      ],
      "stateMutability": "view",
      "type": "function"
    },
    {
      "inputs": [
        {
          "internalType": "bytes32",
          "name": "role",
          "type": "bytes32"
        }
      ],
      "name": "getRoleMemberCount",
      "outputs": [
        {
          "internalType": "uint256",
          "name": "",
          "type": "uint256"
        }
      ],
      "stateMutability": "view",
      "type": "function"
    },
    {
      "inputs": [
        {
          "internalType": "bytes32",
          "name": "role",
          "type": "bytes32"
        },
        {
          "internalType": "address",
          "name": "account",
          "type": "address"
        }
      ],
      "name": "grantRole",
      "outputs": [],
      "stateMutability": "nonpayable",
      "type": "function"
    },
    {
      "inputs": [
        {
          "internalType": "bytes32",
          "name": "role",
          "type": "bytes32"
        },
        {
          "internalType": "address",
          "name": "account",
          "type": "address"
        }
      ],
      "name": "hasRole",
      "outputs": [
        {
          "internalType": "bool",
          "name": "",
          "type": "bool"
        }
      ],
      "stateMutability": "view",
      "type": "function"
    },
    {
      "inputs": [],
      "name": "immutableParams",
      "outputs": [
        {
          "internalType": "contract IERC20Vault",
          "name": "erc20Vault",
          "type": "address"
        },
        {
          "internalType": "contract IUniV3Vault",
          "name": "uniV3Vault",
          "type": "address"
        },
        {
          "internalType": "address",
          "name": "router",
          "type": "address"
        }
      ],
      "stateMutability": "view",
      "type": "function"
    },
    {
      "inputs": [
        {
          "internalType": "address",
          "name": "admin",
          "type": "address"
        }
      ],
      "name": "init",
      "outputs": [],
      "stateMutability": "nonpayable",
      "type": "function"
    },
    {
      "inputs": [
        {
          "components": [
            {
              "internalType": "contract IERC20Vault",
              "name": "erc20Vault",
              "type": "address"
            },
            {
              "internalType": "contract IUniV3Vault",
              "name": "uniV3Vault",
              "type": "address"
            },
            {
              "internalType": "address",
              "name": "router",
              "type": "address"
            },
            {
              "internalType": "address[]",
              "name": "tokens",
              "type": "address[]"
            }
          ],
          "internalType": "struct PulseStrategyV2.ImmutableParams",
          "name": "immutableParams_",
          "type": "tuple"
        },
        {
          "internalType": "address",
          "name": "admin",
          "type": "address"
        }
      ],
      "name": "initialize",
      "outputs": [],
      "stateMutability": "nonpayable",
      "type": "function"
    },
    {
      "inputs": [],
      "name": "initialized",
      "outputs": [
        {
          "internalType": "bool",
          "name": "",
          "type": "bool"
        }
      ],
      "stateMutability": "view",
      "type": "function"
    },
    {
      "inputs": [
        {
          "internalType": "address",
          "name": "sender",
          "type": "address"
        }
      ],
      "name": "isAdmin",
      "outputs": [
        {
          "internalType": "bool",
          "name": "",
          "type": "bool"
        }
      ],
      "stateMutability": "view",
      "type": "function"
    },
    {
      "inputs": [
        {
          "internalType": "address",
          "name": "sender",
          "type": "address"
        }
      ],
      "name": "isOperator",
      "outputs": [
        {
          "internalType": "bool",
          "name": "",
          "type": "bool"
        }
      ],
      "stateMutability": "view",
      "type": "function"
    },
    {
      "inputs": [
        {
          "internalType": "bytes[]",
          "name": "data",
          "type": "bytes[]"
        }
      ],
      "name": "multicall",
      "outputs": [
        {
          "internalType": "bytes[]",
          "name": "results",
          "type": "bytes[]"
        }
      ],
      "stateMutability": "nonpayable",
      "type": "function"
    },
    {
      "inputs": [],
      "name": "mutableParams",
      "outputs": [
        {
          "internalType": "int24",
          "name": "priceImpactD6",
          "type": "int24"
        },
        {
          "internalType": "int24",
          "name": "defaultIntervalWidth",
          "type": "int24"
        },
        {
          "internalType": "int24",
          "name": "maxPositionLengthInTicks",
          "type": "int24"
        },
        {
          "internalType": "int24",
          "name": "maxDeviationForVaultPool",
          "type": "int24"
        },
        {
          "internalType": "uint32",
          "name": "timespanForAverageTick",
          "type": "uint32"
        },
        {
          "internalType": "uint256",
          "name": "neighborhoodFactorD",
          "type": "uint256"
        },
        {
          "internalType": "uint256",
          "name": "extensionFactorD",
          "type": "uint256"
        },
        {
          "internalType": "uint256",
          "name": "swapSlippageD",
          "type": "uint256"
        },
        {
          "internalType": "uint256",
          "name": "swappingAmountsCoefficientD",
          "type": "uint256"
        }
      ],
      "stateMutability": "view",
      "type": "function"
    },
    {
      "inputs": [],
      "name": "positionManager",
      "outputs": [
        {
          "internalType": "contract INonfungiblePositionManager",
          "name": "",
          "type": "address"
        }
      ],
      "stateMutability": "view",
      "type": "function"
    },
    {
      "inputs": [
        {
          "internalType": "uint256",
          "name": "deadline",
          "type": "uint256"
        },
        {
          "internalType": "bytes",
          "name": "swapData",
          "type": "bytes"
        },
        {
          "internalType": "uint256",
          "name": "minAmountOutInCaseOfSwap",
          "type": "uint256"
        }
      ],
      "name": "rebalance",
      "outputs": [],
      "stateMutability": "nonpayable",
      "type": "function"
    },
    {
      "inputs": [
        {
          "internalType": "bytes32",
          "name": "role",
          "type": "bytes32"
        },
        {
          "internalType": "address",
          "name": "account",
          "type": "address"
        }
      ],
      "name": "renounceRole",
      "outputs": [],
      "stateMutability": "nonpayable",
      "type": "function"
    },
    {
      "inputs": [
        {
          "internalType": "bytes32",
          "name": "role",
          "type": "bytes32"
        },
        {
          "internalType": "address",
          "name": "account",
          "type": "address"
        }
      ],
      "name": "revokeRole",
      "outputs": [],
      "stateMutability": "nonpayable",
      "type": "function"
    },
    {
      "inputs": [
        {
          "internalType": "bool",
          "name": "newValue",
          "type": "bool"
        }
      ],
      "name": "setForceRebalanceFlag",
      "outputs": [],
      "stateMutability": "nonpayable",
      "type": "function"
    },
    {
      "inputs": [
        {
          "internalType": "bytes4",
          "name": "interfaceId",
          "type": "bytes4"
        }
      ],
      "name": "supportsInterface",
      "outputs": [
        {
          "internalType": "bool",
          "name": "",
          "type": "bool"
        }
      ],
      "stateMutability": "view",
      "type": "function"
    },
    {
      "inputs": [
        {
          "components": [
            {
              "internalType": "uint256",
              "name": "amount0Desired",
              "type": "uint256"
            },
            {
              "internalType": "uint256",
              "name": "amount1Desired",
              "type": "uint256"
            }
          ],
          "internalType": "struct PulseStrategyV2.DesiredAmounts",
          "name": "params",
          "type": "tuple"
        }
      ],
      "name": "updateDesiredAmounts",
      "outputs": [],
      "stateMutability": "nonpayable",
      "type": "function"
    },
    {
      "inputs": [
        {
          "components": [
            {
              "internalType": "int24",
              "name": "priceImpactD6",
              "type": "int24"
            },
            {
              "internalType": "int24",
              "name": "defaultIntervalWidth",
              "type": "int24"
            },
            {
              "internalType": "int24",
              "name": "maxPositionLengthInTicks",
              "type": "int24"
            },
            {
              "internalType": "int24",
              "name": "maxDeviationForVaultPool",
              "type": "int24"
            },
            {
              "internalType": "uint32",
              "name": "timespanForAverageTick",
              "type": "uint32"
            },
            {
              "internalType": "uint256",
              "name": "neighborhoodFactorD",
              "type": "uint256"
            },
            {
              "internalType": "uint256",
              "name": "extensionFactorD",
              "type": "uint256"
            },
            {
              "internalType": "uint256",
              "name": "swapSlippageD",
              "type": "uint256"
            },
            {
              "internalType": "uint256",
              "name": "swappingAmountsCoefficientD",
              "type": "uint256"
            },
            {
              "internalType": "uint256[]",
              "name": "minSwapAmounts",
              "type": "uint256[]"
            }
          ],
          "internalType": "struct PulseStrategyV2.MutableParams",
          "name": "mutableParams_",
          "type": "tuple"
        }
      ],
      "name": "updateMutableParams",
      "outputs": [],
      "stateMutability": "nonpayable",
      "type": "function"
    },
    {
      "inputs": [],
      "name": "withdrawCallback",
      "outputs": [],
      "stateMutability": "nonpayable",
      "type": "function"
    }
  ],
  "bytecode": {
    "object": "0x60a06040523480156200001157600080fd5b5060405162005c9638038062005c96833981016040819052620000349162000093565b60408051808201909152600281526120ad60f11b60208201526001600160a01b038216620000805760405162461bcd60e51b8152600401620000779190620000c5565b60405180910390fd5b506001600160a01b03166080526200011d565b600060208284031215620000a657600080fd5b81516001600160a01b0381168114620000be57600080fd5b9392505050565b600060208083528351808285015260005b81811015620000f457858101830151858201604001528201620000d6565b8181111562000107576000604083870101525b50601f01601f1916929092016040019392505050565b608051615b3a6200015c600039600081816104ed015281816119f701528181612291015281816127a7015281816129a70152612a5b0152615b3a6000f3fe608060405234801561001057600080fd5b50600436106102695760003560e01c806375b238fc11610151578063a8470bcc116100c3578063ca15c87311610087578063ca15c8731461063f578063d3277e8614610652578063d547741f14610660578063e521826f14610673578063f05329b21461067b578063fe57ed611461068e57600080fd5b8063a8470bcc146105af578063ac9650d8146105c2578063ace4d0fd146105e2578063b4559f3e146102d6578063c8014d53146105f557600080fd5b806395aa080d1161011557806395aa080d1461054d578063983d27371461056d5780639bb37ba814610582578063a0a8e46014610595578063a11bac741461059d578063a217fddf146105a757600080fd5b806375b238fc146104be57806375d0c0dc146104d3578063791b98bc146104e85780639010d07c1461052757806391d148541461053a57600080fd5b806324d7806c116101ea57806350c9d3bb116101ae57806350c9d3bb146103aa578063551530ae146103d25780635f408a21146103dd57806360aa2705146104855780636d70f7ae146104985780636ff0b358146104ab57600080fd5b806324d7806c146103535780632f2ff15d1461036657806336568abe14610379578063407924651461038c578063475cffef1461039757600080fd5b8063158ef93e11610231578063158ef93e146102f0578063163cacd5146102fd57806319ab453c146103105780631e63f06214610323578063248a9ca31461033057600080fd5b806301ffc9a71461026e57806306a46239146102965780630952ff54146102ae5780630e305515146102c35780630e3e80ac146102d8575b600080fd5b61028161027c366004614328565b6106af565b60405190151581526020015b60405180910390f35b640312e302e360dc1b5b60405190815260200161028d565b6102a0600080516020615a7e83398151915281565b6102d66102d136600461465f565b6106df565b005b6e283ab639b2a9ba3930ba32b3bcab1960891b6102a0565b6002546102819060ff1681565b6102d661030b3660046146c2565b610a53565b6102d661031e366004614743565b610d71565b600f546102819060ff1681565b6102a061033e366004614760565b60009081526020819052604090206001015490565b610281610361366004614743565b610e97565b6102d6610374366004614779565b610ecf565b6102d6610387366004614779565b610ef9565b6102a0600160601b81565b6102d66103a53660046147a9565b610f77565b6103bd6103b83660046147dd565b611516565b6040805192835260208301919091520161028d565b6102a0633b9aca0081565b600754600854600954600a54600b5461042b94600281810b9563010000008304820b95600160301b8404830b95600160481b850490930b94600160601b90940463ffffffff16939192909189565b6040805160029a8b0b8152988a0b60208a015296890b968801969096529390960b606086015263ffffffff909116608085015260a084015260c083019390935260e08201929092526101008101919091526101200161028d565b6102d6610493366004614850565b6117a4565b6102816104a6366004614743565b61195e565b6102d66104b9366004614884565b611978565b6102a0600080516020615a9e83398151915281565b6104db611b57565b60405161028d9190614922565b61050f7f000000000000000000000000000000000000000000000000000000000000000081565b6040516001600160a01b03909116815260200161028d565b61050f610535366004614935565b611b74565b610281610548366004614779565b611b93565b61056061055b366004614957565b611bbc565b60405161028d91906149ba565b6102a0600080516020615abe83398151915281565b6102a06105903660046149db565b611c63565b6104db611d4e565b6102a0620f424081565b6102a0600081565b6102d66105bd366004614a74565b611d61565b6105d56105d0366004614a91565b611d7c565b60405161028d9190614b05565b6102d66105f0366004614b67565b611e70565b600354600454600554610615926001600160a01b03908116928116911683565b604080516001600160a01b039485168152928416602084015292169181019190915260600161028d565b6102a061064d366004614760565b611f8f565b600d54600e546103bd919082565b6102d661066e366004614779565b611fa6565b6102d6611fcb565b6102d6610689366004614bb5565b612065565b6106a161069c366004614bea565b6121ac565b60405161028d929190614c53565b60006001600160e01b03198216635a05180f60e01b14806106d457506106d4826124dc565b92915050565b905090565b600081602001516001600160a01b03166316f0115b6040518163ffffffff1660e01b815260040160206040518083038186803b15801561071e57600080fd5b505afa158015610732573d6000803e3d6000fd5b505050506040513d601f19601f820116820180604052508101906107569190614c83565b6001600160a01b031663d0c93a7c6040518163ffffffff1660e01b815260040160206040518083038186803b15801561078e57600080fd5b505afa1580156107a2573d6000803e3d6000fd5b505050506040513d601f19601f820116820180604052508101906107c69190614cab565b90506000836020015160020b1380156107f957506107e5816002614cde565b83602001516107f49190614d81565b60020b155b6040518060400160405280600381526020016224a72b60e91b8152509061083c5760405162461bcd60e51b81526004016108339190614922565b60405180910390fd5b5061084a620d89e719614da3565b610855906002614cde565b60020b836040015160020b1315604051806040016040528060048152602001634c494d4f60e01b8152509061089d5760405162461bcd60e51b81526004016108339190614922565b506000836060015160020b13604051806040016040528060048152602001634c494d5560e01b815250906108e45760405162461bcd60e51b81526004016108339190614922565b506000836080015163ffffffff1611604051806040016040528060028152602001612b2d60f11b8152509061092c5760405162461bcd60e51b81526004016108339190614922565b5062093a80836080015163ffffffff1610604051806040016040528060028152602001612b2d60f11b815250906109765760405162461bcd60e51b81526004016108339190614922565b5082610120015151600214604051806040016040528060048152602001631253959360e21b815250906109bc5760405162461bcd60e51b81526004016108339190614922565b50633b9aca008360e001511115604051806040016040528060048152602001634c494d4f60e01b81525090610a045760405162461bcd60e51b81526004016108339190614922565b50633b9aca008361010001511115604051806040016040528060048152602001634c494d4f60e01b81525090610a4d5760405162461bcd60e51b81526004016108339190614922565b50505050565b8342111560405180604001604052806002815260200161545360f01b81525090610a905760405162461bcd60e51b81526004016108339190614922565b50610a99612511565b60408051608081018252600380546001600160a01b03908116835260045481166020808501919091526005549091168385015260068054855181840281018401909652808652600095606086019390929190830182828015610b2457602002820191906000526020600020905b81546001600160a01b03168152600190910190602001808311610b06575b505050919092525050604080516101408101825260078054600281810b845263010000008204810b602080860191909152600160301b8304820b85870152600160481b830490910b6060850152600160601b90910463ffffffff16608084015260085460a084015260095460c0840152600a5460e0840152600b54610100840152600c80548551818402810184019096528086529697506000969395509193610120860193909291830182828015610bfb57602002820191906000526020600020905b815481526020019060010190808311610be7575b5050505050815250509050600082602001516001600160a01b03166316f0115b6040518163ffffffff1660e01b815260040160206040518083038186803b158015610c4557600080fd5b505afa158015610c59573d6000803e3d6000fd5b505050506040513d601f19601f82011682018060405250810190610c7d9190614c83565b9050610c898282612065565b600080826001600160a01b0316633850c7bd6040518163ffffffff1660e01b815260040160e06040518083038186803b158015610cc557600080fd5b505afa158015610cd9573d6000803e3d6000fd5b505050506040513d601f19601f82011682018060405250810190610cfd9190614dd8565b5050505050915091506000610d1486868487612566565b600f805460ff191690559050610d2f868683868d8d8d612b09565b610d388661305d565b604051339032907f6dcf4e69cd04d9def52d660ea37a5b366adb7701505e48e75c03d6a51a343f6490600090a350505050505050505050565b60408051808201909152600281526120ad60f11b60208201526001600160a01b038216610db15760405162461bcd60e51b81526004016108339190614922565b506002546040805180820190915260048152631253925560e21b60208201529060ff1615610df25760405162461bcd60e51b81526004016108339190614922565b50610e0b600080516020615abe833981519152826131b4565b610e23600080516020615a9e833981519152826131b4565b610e3b600080516020615a9e833981519152806131be565b610e61600080516020615a7e833981519152600080516020615a9e8339815191526131be565b610e87600080516020615abe833981519152600080516020615a7e8339815191526131be565b506002805460ff19166001179055565b6000610eb1600080516020615a9e83398151915283611b93565b806106d457506106d4600080516020615a7e83398151915283611b93565b600082815260208190526040902060010154610eea81613209565b610ef48383613213565b505050565b6001600160a01b0381163314610f695760405162461bcd60e51b815260206004820152602f60248201527f416363657373436f6e74726f6c3a2063616e206f6e6c792072656e6f756e636560448201526e103937b632b9903337b91039b2b63360891b6064820152608401610833565b610f738282613235565b5050565b6040808201518151808301909252600282526120ad60f11b60208301526001600160a01b0316610fba5760405162461bcd60e51b81526004016108339190614922565b50806060015151600214604051806040016040528060048152602001631253959360e21b81525090610fff5760405162461bcd60e51b81526004016108339190614922565b5060006001600160a01b0316816060015160008151811061102257611022614e70565b60200260200101516001600160a01b031614156040518060400160405280600281526020016120ad60f11b8152509061106e5760405162461bcd60e51b81526004016108339190614922565b5060006001600160a01b0316816060015160018151811061109157611091614e70565b60200260200101516001600160a01b031614156040518060400160405280600281526020016120ad60f11b815250906110dd5760405162461bcd60e51b81526004016108339190614922565b50805160408051808201909152600281526120ad60f11b6020820152906001600160a01b03166111205760405162461bcd60e51b81526004016108339190614922565b50600081600001516001600160a01b031663697222336040518163ffffffff1660e01b815260040160006040518083038186803b15801561116057600080fd5b505afa158015611174573d6000803e3d6000fd5b505050506040513d6000823e601f3d908101601f1916820160405261119c9190810190614e91565b90508051600214604051806040016040528060048152602001631253959360e21b815250906111de5760405162461bcd60e51b81526004016108339190614922565b5081606001516000815181106111f6576111f6614e70565b60200260200101516001600160a01b03168160008151811061121a5761121a614e70565b60200260200101516001600160a01b03161460405180604001604052806004815260200163494e564160e01b815250906112675760405162461bcd60e51b81526004016108339190614922565b50816060015160018151811061127f5761127f614e70565b60200260200101516001600160a01b0316816001815181106112a3576112a3614e70565b60200260200101516001600160a01b03161460405180604001604052806004815260200163494e564160e01b815250906112f05760405162461bcd60e51b81526004016108339190614922565b505060006001600160a01b031681602001516001600160a01b031614156040518060400160405280600281526020016120ad60f11b815250906113465760405162461bcd60e51b81526004016108339190614922565b50600081602001516001600160a01b031663697222336040518163ffffffff1660e01b815260040160006040518083038186803b15801561138657600080fd5b505afa15801561139a573d6000803e3d6000fd5b505050506040513d6000823e601f3d908101601f191682016040526113c29190810190614e91565b90508051600214604051806040016040528060048152602001631253959360e21b815250906114045760405162461bcd60e51b81526004016108339190614922565b50816060015160008151811061141c5761141c614e70565b60200260200101516001600160a01b03168160008151811061144057611440614e70565b60200260200101516001600160a01b03161460405180604001604052806004815260200163494e564160e01b8152509061148d5760405162461bcd60e51b81526004016108339190614922565b5081606001516001815181106114a5576114a5614e70565b60200260200101516001600160a01b0316816001815181106114c9576114c9614e70565b60200260200101516001600160a01b03161460405180604001604052806004815260200163494e564160e01b81525090610ef45760405162461bcd60e51b81526004016108339190614922565b6000808061152884600160601b614f1f565b9050600087600001516001600160a01b031663e5328e066040518163ffffffff1660e01b815260040160006040518083038186803b15801561156957600080fd5b505afa15801561157d573d6000803e3d6000fd5b505050506040513d6000823e601f3d908101601f191682016040526115a59190810190614f91565b5090506000611620826001815181106115c0576115c0614e70565b6020026020010151600160601b6115f6856000815181106115e3576115e3614e70565b60200260200101518b600160601b613257565b8560018151811061160957611609614e70565b602002602001015161161b9190614fea565b613257565b9050600061163d600160601b8a6000015160020b620f4240613257565b9050868211156116e35760019550600061165c600160601b808b613257565b90506116db611686898660008151811061167857611678614e70565b602002602001015184613257565b6116af8660018151811061169c5761169c614e70565b602002602001015188600160601b613257565b6116b99190614f1f565b600160601b6116cd8b86600160601b613257565b61161b90600160601b614f1f565b955050611759565b6000955061175661170f858560018151811061170157611701614e70565b60200260200101518b613257565b6117388560008151811061172557611725614e70565b60200260200101518a600160601b613257565b6117429190614f1f565b600160601b6116cd8785600160601b613257565b94505b82868151811061176b5761176b614e70565b60200260200101518511156117975782868151811061178c5761178c614e70565b602002602001015194505b5050505094509492505050565b6117ac61330a565b60408051608081018252600380546001600160a01b039081168352600454811660208085019190915260055490911683850152600680548551818402810184019096528086526118499587959493606086019391929083018282801561183b57602002820191906000526020600020905b81546001600160a01b0316815260019091019060200180831161181d575b5050505050815250506106df565b80516007805460208085015160408601516060870151608088015163ffffffff16600160601b0263ffffffff60601b1962ffffff928316600160481b026bffffff00000000000000000019948416600160301b02949094166bffffffffffff0000000000001995841663010000000265ffffffffffff199098169390991692909217959095179290921695909517949094179390931617815560a083015160085560c083015160095560e0830151600a55610100830151600b556101208301518051849361191c92600c92910190614273565b505060405133915032907faccfbfe1fb913357d3f38219613942ea367e6b50b076facee40e8400cf114f289061195390859061503d565b60405180910390a350565b60006106d4600080516020615abe83398151915283611b93565b61198182610f77565b8151600380546001600160a01b03199081166001600160a01b0393841617825560208086015160048054841691861691909117905560408601516005805490931694169390931790556060840151805185936119e2926006929101906142be565b5090505060005b6002811015611b4d57611a4f7f000000000000000000000000000000000000000000000000000000000000000060001985606001518481518110611a2f57611a2f614e70565b60200260200101516001600160a01b03166133139092919063ffffffff16565b600354600680546001600160a01b0390921691632e2f4cc2919084908110611a7957611a79614e70565b60009182526020918290200154600554604080516001600160a01b039283169481019490945260001990840152169063095ea7b360e01b906060016040516020818303038152906040526040518463ffffffff1660e01b8152600401611ae1939291906150f2565b600060405180830381600087803b158015611afb57600080fd5b505af1925050508015611b3057506040513d6000823e601f3d908101601f19168201604052611b2d919081019061512f565b60015b611b3957611b3b565b505b80611b45816151c2565b9150506119e9565b50610f7381610d71565b60606106da6e283ab639b2a9ba3930ba32b3bcab1960891b613401565b6000828152600160205260408120611b8c908361346d565b9392505050565b6000918252602082815260408084206001600160a01b0393909316845291905290205460ff1690565b60408051808201909152600080825260208201526000611bdc8385614d81565b611be690856151dd565b9050600283900b611bf78486614d81565b611c02906002614cde565b60020b1315611c1857611c158382615225565b90505b60028560200151611c29919061526c565b611c3390826151dd565b600290810b83526020860151611c49919061526c565b611c539082615225565b60020b6020830152509392505050565b600080611c738560000151613479565b6001600160a01b031690506000611c8d8660200151613479565b6001600160a01b03169050846001600160a01b03168210611cb357600092505050611b8c565b846001600160a01b03168111611cd157600160601b92505050611b8c565b6000611d06611ce96001600160a01b03881684614f1f565b600160601b61161b896001600160a01b031686600160601b613257565b90506000611d1d846001600160a01b038916614f1f565b9050611d4281600160601b83611d38868b600160601b613257565b61161b9190614fea565b98975050505050505050565b60606106da640312e302e360dc1b613401565b611d6961330a565b600f805460ff1916911515919091179055565b6060816001600160401b03811115611d9657611d96614352565b604051908082528060200260200182016040528015611dc957816020015b6060815260200190600190039081611db45790505b50905060005b82811015611e6957611e3930858584818110611ded57611ded614e70565b9050602002810190611dff91906152a6565b8080601f01602080910402602001604051908101604052809392919081815260200183838082843760009201919091525061388e92505050565b828281518110611e4b57611e4b614e70565b60200260200101819052508080611e61906151c2565b915050611dcf565b5092915050565b611e7861330a565b80516040805180820190915260028152612b2d60f11b602082015290611eb15760405162461bcd60e51b81526004016108339190614922565b5080516040805180820190915260048152634c494d4f60e01b602082015290633b9aca001015611ef45760405162461bcd60e51b81526004016108339190614922565b506000816020015111604051806040016040528060028152602001612b2d60f11b81525090611f365760405162461bcd60e51b81526004016108339190614922565b50633b9aca0081602001511115604051806040016040528060048152602001634c494d4f60e01b81525090611f7e5760405162461bcd60e51b81526004016108339190614922565b508051600d5560200151600e55565b565b60008181526001602052604081206106d4906138b3565b600082815260208190526040902060010154611fc181613209565b610ef48383613235565b60408051608081018252600380546001600160a01b03908116835260045481166020808501919091526005549091168385015260068054855181840281018401909652808652611f8d9560608601939092919083018282801561205757602002820191906000526020600020905b81546001600160a01b03168152600190910190602001808311612039575b50505050508152505061305d565b6000816001600160a01b0316633850c7bd6040518163ffffffff1660e01b815260040160e06040518083038186803b1580156120a057600080fd5b505afa1580156120b4573d6000803e3d6000fd5b505050506040513d601f19601f820116820180604052508101906120d89190614dd8565b50505050509150506000806120f18486608001516138bd565b925050915080156040518060400160405280600581526020016412539594d560da1b815250906121345760405162461bcd60e51b81526004016108339190614922565b50600061214183856151dd565b905060008160020b121561215b5761215881614da3565b90505b856060015160020b8160020b12604051806040016040528060048152602001634c494d4f60e01b815250906121a35760405162461bcd60e51b81526004016108339190614922565b50505050505050565b6040805180820190915260008082526020820152600080846001600160a01b031663d0c93a7c6040518163ffffffff1660e01b815260040160206040518083038186803b1580156121fc57600080fd5b505afa158015612210573d6000803e3d6000fd5b505050506040513d601f19601f820116820180604052508101906122349190614cab565b90508315806122455750600f5460ff165b1561226157612255878783611bbc565b600192509250506124d3565b60408051808201825260008082526020820152905163133f757160e31b8152600481018690526001600160a01b037f000000000000000000000000000000000000000000000000000000000000000016906399fbab88906024016101806040518083038186803b1580156122d457600080fd5b505afa1580156122e8573d6000803e3d6000fd5b505050506040513d601f19601f8201168201806040525081019061230c919061531d565b50505050600291820b60208a018190529290910b80895260009750612339965094509092506151dd915050565b905060006123558262ffffff168b60a00151633b9aca00613257565b905060008184600001516123699190615225565b9050600082856020015161237d91906151dd565b90508a60020b8260020b1315801561239b57508060020b8b60020b13155b156123b257846000975097505050505050506124d3565b60006123be8c846151dd565b9050600281900b6123cf838e6151dd565b60020b13156123e5576123e2828d6151dd565b90505b60006123ff8562ffffff168f60c00151633b9aca00613257565b6124099083615225565b90506124158882614d81565b60020b15158061242857508060020b6000145b15612450576124378882615225565b90506124438882614d81565b61244d90826151dd565b90505b865161245d9082906151dd565b60020b8a526020870151612472908290615225565b8a6020019060020b908160020b815250508d6040015160020b8a600001518b6020015161249f91906151dd565b60020b13156124c6576124b38e8e8a611bbc565b60019950995050505050505050506124d3565b6001985050505050505050505b94509492505050565b60006001600160e01b03198216637965db0b60e01b14806106d457506301ffc9a760e01b6001600160e01b03198316146106d4565b61251a33610e97565b8061252957506125293361195e565b6040518060400160405280600381526020016223292160e91b815250906125635760405162461bcd60e51b81526004016108339190614922565b50565b60408051808201909152600080825260208201526000856020015190506000816001600160a01b031663f4adc08b6040518163ffffffff1660e01b815260040160206040518083038186803b1580156125be57600080fd5b505afa1580156125d2573d6000803e3d6000fd5b505050506040513d601f19601f820116820180604052508101906125f691906153fe565b9050600080612607888888866121ac565b915091508061269457836001600160a01b031663c27b2c2d6040518163ffffffff1660e01b8152600401600060405180830381600087803b15801561264b57600080fd5b505af115801561265f573d6000803e3d6000fd5b505050506040513d6000823e601f3d908101601f191682016040526126879190810190615417565b5081945050505050612b01565b82156127a357885160608a01516040516303217f1d60e61b81526001600160801b0360048201526001600160a01b03871692632062d754929091849063c85fc7409060240160006040518083038186803b1580156126f157600080fd5b505afa158015612705573d6000803e3d6000fd5b505050506040513d6000823e601f3d908101601f1916820160405261272d9190810190615417565b6040518463ffffffff1660e01b815260040161274b9392919061544b565b600060405180830381600087803b15801561276557600080fd5b505af1158015612779573d6000803e3d6000fd5b505050506040513d6000823e601f3d908101601f191682016040526127a19190810190615417565b505b60007f00000000000000000000000000000000000000000000000000000000000000006001600160a01b031663883164566040518061016001604052808d606001516000815181106127f7576127f7614e70565b60200260200101516001600160a01b031681526020018d6060015160018151811061282457612824614e70565b60200260200101516001600160a01b031681526020018a6001600160a01b031663ddca3f436040518163ffffffff1660e01b815260040160206040518083038186803b15801561287357600080fd5b505afa158015612887573d6000803e3d6000fd5b505050506040513d601f19601f820116820180604052508101906128ab91906154cb565b62ffffff168152602001866000015160020b8152602001866020015160020b8152602001600d600001548152602001600d6001015481526020016000815260200160008152602001306001600160a01b031681526020016000198152506040518263ffffffff1660e01b815260040161292491906154e6565b608060405180830381600087803b15801561293e57600080fd5b505af1158015612952573d6000803e3d6000fd5b505050506040513d601f19601f8201168201806040525081019061297691906155aa565b5050604051632142170760e11b81523060048201526001600160a01b038881166024830152604482018490529293507f0000000000000000000000000000000000000000000000000000000000000000909216916342842e0e9150606401600060405180830381600087803b1580156129ee57600080fd5b505af1158015612a02573d6000803e3d6000fd5b505050507face8748d23af65e86cf543d0298345b95115752e382befe3e832eacd1508adb081604051612a3791815260200190565b60405180910390a18315612af957604051630852cd8d60e31b8152600481018590527f00000000000000000000000000000000000000000000000000000000000000006001600160a01b0316906342966c6890602401600060405180830381600087803b158015612aa757600080fd5b505af1158015612abb573d6000803e3d6000fd5b505050507f65d33d8ef62a81711748bbe2a7b67aef94d1a9af04a2690d3a4dfd13d9c1d22b84604051612af091815260200190565b60405180910390a15b509093505050505b949350505050565b6000612b236001600160a01b03861680600160601b613257565b9050600080612b398a8a856103b88c8c89611c63565b915091508861012001518281518110612b5457612b54614e70565b6020026020010151811015612b6b575050506121a3565b8160011415612b8657612b83600160601b8085613257565b92505b60008a600001516001600160a01b031663e5328e066040518163ffffffff1660e01b815260040160006040518083038186803b158015612bc557600080fd5b505afa158015612bd9573d6000803e3d6000fd5b505050506040513d6000823e601f3d908101601f19168201604052612c019190810190614f91565b508b5160408d01519192506001600160a01b031690632e2f4cc290612c2a600460008b8d6155e6565b612c3391615610565b612c408a6004818e6155e6565b6040518563ffffffff1660e01b8152600401612c5f9493929190615640565b600060405180830381600087803b158015612c7957600080fd5b505af1158015612c8d573d6000803e3d6000fd5b505050506040513d6000823e601f3d908101601f19168201604052612cb5919081019061512f565b5060008060008d600001516001600160a01b031663e5328e066040518163ffffffff1660e01b815260040160006040518083038186803b158015612cf857600080fd5b505afa158015612d0c573d6000803e3d6000fd5b505050506040513d6000823e601f3d908101601f19168201604052612d349190810190614f91565b509050838681518110612d4957612d49614e70565b6020026020010151818781518110612d6357612d63614e70565b6020026020010151111560405180604001604052806004815260200163494e564160e01b81525090612da85760405162461bcd60e51b81526004016108339190614922565b50838660011881518110612dbe57612dbe614e70565b6020026020010151818760011881518110612ddb57612ddb614e70565b6020026020010151101560405180604001604052806004815260200163494e564160e01b81525090612e205760405162461bcd60e51b81526004016108339190614922565b50808681518110612e3357612e33614e70565b6020026020010151848781518110612e4d57612e4d614e70565b6020026020010151612e5f9190614f1f565b9250838660011881518110612e7657612e76614e70565b6020026020010151818760011881518110612e9357612e93614e70565b6020026020010151612ea59190614f1f565b9150506000612eb982600160601b85613257565b905087821015604051806040016040528060048152602001634c494d5560e01b81525090612efa5760405162461bcd60e51b81526004016108339190614922565b5080612f1e888f60e00151633b9aca00612f149190614f1f565b633b9aca00613257565b1115604051806040016040528060048152602001634c494d5560e01b81525090612f5b5760405162461bcd60e51b81526004016108339190614922565b5082612f76868f6101000151633b9aca00612f149190614f1f565b1115604051806040016040528060048152602001634c494d5560e01b81525090612fb35760405162461bcd60e51b81526004016108339190614922565b5084612fce848f6101000151633b9aca00612f149190614f1f565b1115604051806040016040528060048152602001634c494d5560e01b8152509061300b5760405162461bcd60e51b81526004016108339190614922565b5060408051848152602081018490529081018790527f984c316f55901f828cae2a57394002595129e75b4546d4a80c6c1a4787d748c29060600160405180910390a15050505050505050505050505050565b600081600001516001600160a01b031663e5328e066040518163ffffffff1660e01b815260040160006040518083038186803b15801561309c57600080fd5b505afa1580156130b0573d6000803e3d6000fd5b505050506040513d6000823e601f3d908101601f191682016040526130d89190810190614f91565b5090506000816000815181106130f0576130f0614e70565b6020026020010151118061311e575060008160018151811061311457613114614e70565b6020026020010151115b15610f7357815160208301516060840151604051630818b5d560e21b81526001600160a01b0390931692632062d7549261315e929091869060040161544b565b600060405180830381600087803b15801561317857600080fd5b505af115801561318c573d6000803e3d6000fd5b505050506040513d6000823e601f3d908101601f19168201604052610ef49190810190615417565b610f738282613213565b600082815260208190526040808220600101805490849055905190918391839186917fbd79b86ffe0ab8e8776151514217cd7cacd52c909f66475c3af44e129f0b00ff9190a4505050565b6125638133613b17565b61321d8282613b70565b6000828152600160205260409020610ef49082613bf4565b61323f8282613c09565b6000828152600160205260409020610ef49082613c6e565b600080806000198587098587029250828110838203039150508060001415613291576000841161328657600080fd5b508290049050611b8c565b80841161329d57600080fd5b6000848688096000868103871696879004966002600389028118808a02820302808a02820302808a02820302808a02820302808a02820302808a02909103029181900381900460010186841190950394909402919094039290920491909117919091029150509392505050565b61252933610e97565b604051636eb1769f60e11b81523060048201526001600160a01b0383811660248301526000919085169063dd62ed3e9060440160206040518083038186803b15801561335e57600080fd5b505afa158015613372573d6000803e3d6000fd5b505050506040513d601f19601f8201168201806040525081019061339691906153fe565b9050610a4d8463095ea7b360e01b856133af8686614fea565b6040516001600160a01b039092166024830152604482015260640160408051601f198184030181529190526020810180516001600160e01b03166001600160e01b031990931692909217909152613c83565b604080516020808252818301909252606091602082018180368337019050509050602060005b602081101561345f5783816020811061344257613442614e70565b1a61344f5780915061345f565b613458816151c2565b9050613427565b508152602081019190915290565b6000611b8c8383613d58565b60008060008360020b12613490578260020b61349d565b8260020b61349d90615691565b90506134ac620d89e719614da3565b60020b8111156134e25760405162461bcd60e51b81526020600482015260016024820152601560fa1b6044820152606401610833565b6000600182166134f657600160801b613508565b6ffffcb933bd6fad37aa2d162d1a5940015b70ffffffffffffffffffffffffffffffffff1690506002821615613547576080613542826ffff97272373d413259a46990580e213a6156ae565b901c90505b600482161561357157608061356c826ffff2e50f5f656932ef12357cf3c7fdcc6156ae565b901c90505b600882161561359b576080613596826fffe5caca7e10e4e61c3624eaa0941cd06156ae565b901c90505b60108216156135c55760806135c0826fffcb9843d60f6159c9db58835c9266446156ae565b901c90505b60208216156135ef5760806135ea826fff973b41fa98c081472e6896dfb254c06156ae565b901c90505b6040821615613619576080613614826fff2ea16466c96a3843ec78b326b528616156ae565b901c90505b608082161561364357608061363e826ffe5dee046a99a2a811c461f1969c30536156ae565b901c90505b61010082161561366e576080613669826ffcbe86c7900a88aedcffc83b479aa3a46156ae565b901c90505b610200821615613699576080613694826ff987a7253ac413176f2b074cf7815e546156ae565b901c90505b6104008216156136c45760806136bf826ff3392b0822b70005940c7a398e4b70f36156ae565b901c90505b6108008216156136ef5760806136ea826fe7159475a2c29b7443b29c7fa6e889d96156ae565b901c90505b61100082161561371a576080613715826fd097f3bdfd2022b8845ad8f792aa58256156ae565b901c90505b612000821615613745576080613740826fa9f746462d870fdf8a65dc1f90e061e56156ae565b901c90505b61400082161561377057608061376b826f70d869a156d2a1b890bb3df62baf32f76156ae565b901c90505b61800082161561379b576080613796826f31be135f97d08fd981231505542fcfa66156ae565b901c90505b620100008216156137c75760806137c2826f09aa508b5b7a84e1c677de54f3e99bc96156ae565b901c90505b620200008216156137f25760806137ed826e5d6af8dedb81196699c329225ee6046156ae565b901c90505b6204000082161561381c576080613817826d2216e584f5fa1ea926041bedfe986156ae565b901c90505b6208000082161561384457608061383f826b048a170391f7dc42444e8fa26156ae565b901c90505b60008460020b131561385f5761385c816000196156cd565b90505b61386e640100000000826156e1565b1561387a57600161387d565b60005b612b019060ff16602083901c614fea565b6060611b8c8383604051806060016040528060278152602001615ade60279139613d82565b60006106d4825490565b6000808063ffffffff84166138f95760405162461bcd60e51b8152602060048201526002602482015261042560f41b6044820152606401610833565b604080516002808252606082018352600092602083019080368337019050509050848160008151811061392e5761392e614e70565b602002602001019063ffffffff16908163ffffffff168152505060008160018151811061395d5761395d614e70565b63ffffffff9092166020928302919091019091015260405163883bdbfd60e01b81526001600160a01b0387169063883bdbfd9061399e9084906004016156f5565b60006040518083038186803b1580156139b657600080fd5b505afa9250505080156139eb57506040513d6000823e601f3d908101601f191682016040526139e891908101906157a3565b60015b613a0057600080600193509350935050613b10565b600082600081518110613a1557613a15614e70565b602002602001015183600181518110613a3057613a30614e70565b6020026020010151613a429190615864565b9050600082600081518110613a5957613a59614e70565b602002602001015183600181518110613a7457613a74614e70565b6020026020010151613a8691906158aa565b9050613a9863ffffffff8a16836158d2565b975060008260060b128015613abe5750613ab863ffffffff8a1683615907565b60060b15155b15613ad15787613acd81615929565b9850505b6000613aea6001600160a01b0363ffffffff8c1661594d565b9050613b07640100000000600160c01b03602084901b168261597c565b97505050505050505b9250925092565b613b218282611b93565b610f7357613b2e81613dfa565b613b39836020613e0c565b604051602001613b4a9291906159a2565b60408051601f198184030181529082905262461bcd60e51b825261083391600401614922565b613b7a8282611b93565b610f73576000828152602081815260408083206001600160a01b03851684529091529020805460ff19166001179055613bb03390565b6001600160a01b0316816001600160a01b0316837f2f8788117e7eff1d82e926ec794901d17c78024a50270940304540a733656f0d60405160405180910390a45050565b6000611b8c836001600160a01b038416613fa7565b613c138282611b93565b15610f73576000828152602081815260408083206001600160a01b0385168085529252808320805460ff1916905551339285917ff6391f5c32d9c69d2a47ea670b442974b53935d1edc7fd64eb21e047a839171b9190a45050565b6000611b8c836001600160a01b038416613ff6565b6000613cd8826040518060400160405280602081526020017f5361666545524332303a206c6f772d6c6576656c2063616c6c206661696c6564815250856001600160a01b03166140e99092919063ffffffff16565b9050805160001480613cf9575080806020019051810190613cf99190615a17565b610ef45760405162461bcd60e51b815260206004820152602a60248201527f5361666545524332303a204552433230206f7065726174696f6e20646964206e6044820152691bdd081cdd58d8d9595960b21b6064820152608401610833565b6000826000018281548110613d6f57613d6f614e70565b9060005260206000200154905092915050565b6060600080856001600160a01b031685604051613d9f9190615a34565b600060405180830381855af49150503d8060008114613dda576040519150601f19603f3d011682016040523d82523d6000602084013e613ddf565b606091505b5091509150613df0868383876140f8565b9695505050505050565b60606106d46001600160a01b03831660145b60606000613e1b8360026156ae565b613e26906002614fea565b6001600160401b03811115613e3d57613e3d614352565b6040519080825280601f01601f191660200182016040528015613e67576020820181803683370190505b509050600360fc1b81600081518110613e8257613e82614e70565b60200101906001600160f81b031916908160001a905350600f60fb1b81600181518110613eb157613eb1614e70565b60200101906001600160f81b031916908160001a9053506000613ed58460026156ae565b613ee0906001614fea565b90505b6001811115613f58576f181899199a1a9b1b9c1cb0b131b232b360811b85600f1660108110613f1457613f14614e70565b1a60f81b828281518110613f2a57613f2a614e70565b60200101906001600160f81b031916908160001a90535060049490941c93613f5181615a50565b9050613ee3565b508315611b8c5760405162461bcd60e51b815260206004820181905260248201527f537472696e67733a20686578206c656e67746820696e73756666696369656e746044820152606401610833565b6000818152600183016020526040812054613fee575081546001818101845560008481526020808220909301849055845484825282860190935260409020919091556106d4565b5060006106d4565b600081815260018301602052604081205480156140df57600061401a600183614f1f565b855490915060009061402e90600190614f1f565b905081811461409357600086600001828154811061404e5761404e614e70565b906000526020600020015490508087600001848154811061407157614071614e70565b6000918252602080832090910192909255918252600188019052604090208390555b85548690806140a4576140a4615a67565b6001900381819060005260206000200160009055905585600101600086815260200190815260200160002060009055600193505050506106d4565b60009150506106d4565b6060612b01848460008561416e565b6060831561416457825161415d576001600160a01b0385163b61415d5760405162461bcd60e51b815260206004820152601d60248201527f416464726573733a2063616c6c20746f206e6f6e2d636f6e74726163740000006044820152606401610833565b5081612b01565b612b018383614249565b6060824710156141cf5760405162461bcd60e51b815260206004820152602660248201527f416464726573733a20696e73756666696369656e742062616c616e636520666f6044820152651c8818d85b1b60d21b6064820152608401610833565b600080866001600160a01b031685876040516141eb9190615a34565b60006040518083038185875af1925050503d8060008114614228576040519150601f19603f3d011682016040523d82523d6000602084013e61422d565b606091505b509150915061423e878383876140f8565b979650505050505050565b8151156142595781518083602001fd5b8060405162461bcd60e51b81526004016108339190614922565b8280548282559060005260206000209081019282156142ae579160200282015b828111156142ae578251825591602001919060010190614293565b506142ba929150614313565b5090565b8280548282559060005260206000209081019282156142ae579160200282015b828111156142ae57825182546001600160a01b0319166001600160a01b039091161782556020909201916001909101906142de565b5b808211156142ba5760008155600101614314565b60006020828403121561433a57600080fd5b81356001600160e01b031981168114611b8c57600080fd5b634e487b7160e01b600052604160045260246000fd5b60405161014081016001600160401b038111828210171561438b5761438b614352565b60405290565b604051608081016001600160401b038111828210171561438b5761438b614352565b604051601f8201601f191681016001600160401b03811182821017156143db576143db614352565b604052919050565b8060020b811461256357600080fd5b80356143fd816143e3565b919050565b803563ffffffff811681146143fd57600080fd5b60006001600160401b0382111561442f5761442f614352565b5060051b60200190565b600082601f83011261444a57600080fd5b8135602061445f61445a83614416565b6143b3565b82815260059290921b8401810191818101908684111561447e57600080fd5b8286015b848110156144995780358352918301918301614482565b509695505050505050565b600061014082840312156144b757600080fd5b6144bf614368565b90506144ca826143f2565b81526144d8602083016143f2565b60208201526144e9604083016143f2565b60408201526144fa606083016143f2565b606082015261450b60808301614402565b608082015260a082013560a082015260c082013560c082015260e082013560e0820152610100808301358183015250610120808301356001600160401b0381111561455557600080fd5b61456185828601614439565b82840152505092915050565b6001600160a01b038116811461256357600080fd5b60006080828403121561459457600080fd5b61459c614391565b905081356145a98161456d565b81526020828101356145ba8161456d565b8282015260408301356145cc8161456d565b604083015260608301356001600160401b038111156145ea57600080fd5b8301601f810185136145fb57600080fd5b803561460961445a82614416565b81815260059190911b8201830190838101908783111561462857600080fd5b928401925b8284101561464f5783356146408161456d565b8252928401929084019061462d565b6060860152509295945050505050565b6000806040838503121561467257600080fd5b82356001600160401b038082111561468957600080fd5b614695868387016144a4565b935060208501359150808211156146ab57600080fd5b506146b885828601614582565b9150509250929050565b600080600080606085870312156146d857600080fd5b8435935060208501356001600160401b03808211156146f657600080fd5b818701915087601f83011261470a57600080fd5b81358181111561471957600080fd5b88602082850101111561472b57600080fd5b95986020929092019750949560400135945092505050565b60006020828403121561475557600080fd5b8135611b8c8161456d565b60006020828403121561477257600080fd5b5035919050565b6000806040838503121561478c57600080fd5b82359150602083013561479e8161456d565b809150509250929050565b6000602082840312156147bb57600080fd5b81356001600160401b038111156147d157600080fd5b612b0184828501614582565b600080600080608085870312156147f357600080fd5b84356001600160401b038082111561480a57600080fd5b61481688838901614582565b9550602087013591508082111561482c57600080fd5b50614839878288016144a4565b949794965050505060408301359260600135919050565b60006020828403121561486257600080fd5b81356001600160401b0381111561487857600080fd5b612b01848285016144a4565b6000806040838503121561489757600080fd5b82356001600160401b038111156148ad57600080fd5b6148b985828601614582565b925050602083013561479e8161456d565b60005b838110156148e55781810151838201526020016148cd565b83811115610a4d5750506000910152565b6000815180845261490e8160208601602086016148ca565b601f01601f19169290920160200192915050565b602081526000611b8c60208301846148f6565b6000806040838503121561494857600080fd5b50508035926020909101359150565b60008060006060848603121561496c57600080fd5b83356001600160401b0381111561498257600080fd5b61498e868287016144a4565b935050602084013561499f816143e3565b915060408401356149af816143e3565b809150509250925092565b604081016106d48284805160020b8252602081015160020b60208301525050565b600080600083850360808112156149f157600080fd5b60408112156149ff57600080fd5b50604051604081018181106001600160401b0382111715614a2257614a22614352565b6040528435614a30816143e3565b81526020850135614a40816143e3565b602082015292506040840135614a558161456d565b929592945050506060919091013590565b801515811461256357600080fd5b600060208284031215614a8657600080fd5b8135611b8c81614a66565b60008060208385031215614aa457600080fd5b82356001600160401b0380821115614abb57600080fd5b818501915085601f830112614acf57600080fd5b813581811115614ade57600080fd5b8660208260051b8501011115614af357600080fd5b60209290920196919550909350505050565b6000602080830181845280855180835260408601915060408160051b870101925083870160005b82811015614b5a57603f19888603018452614b488583516148f6565b94509285019290850190600101614b2c565b5092979650505050505050565b600060408284031215614b7957600080fd5b604051604081018181106001600160401b0382111715614b9b57614b9b614352565b604052823581526020928301359281019290925250919050565b60008060408385031215614bc857600080fd5b82356001600160401b03811115614bde57600080fd5b6148b9858286016144a4565b60008060008060808587031215614c0057600080fd5b84356001600160401b03811115614c1657600080fd5b614c22878288016144a4565b9450506020850135614c33816143e3565b92506040850135614c438161456d565b9396929550929360600135925050565b60608101614c748285805160020b8252602081015160020b60208301525050565b82151560408301529392505050565b600060208284031215614c9557600080fd5b8151611b8c8161456d565b80516143fd816143e3565b600060208284031215614cbd57600080fd5b8151611b8c816143e3565b634e487b7160e01b600052601160045260246000fd5b60008160020b8360020b627fffff600082136000841383830485118282161615614d0a57614d0a614cc8565b627fffff196000851282811687830587121615614d2957614d29614cc8565b60008712925085820587128484161615614d4557614d45614cc8565b85850587128184161615614d5b57614d5b614cc8565b5050509290910295945050505050565b634e487b7160e01b600052601260045260246000fd5b60008260020b80614d9457614d94614d6b565b808360020b0791505092915050565b60008160020b627fffff19811415614dbd57614dbd614cc8565b60000392915050565b805161ffff811681146143fd57600080fd5b600080600080600080600060e0888a031215614df357600080fd5b8751614dfe8161456d565b6020890151909750614e0f816143e3565b9550614e1d60408901614dc6565b9450614e2b60608901614dc6565b9350614e3960808901614dc6565b925060a088015160ff81168114614e4f57600080fd5b60c0890151909250614e6081614a66565b8091505092959891949750929550565b634e487b7160e01b600052603260045260246000fd5b80516143fd8161456d565b60006020808385031215614ea457600080fd5b82516001600160401b03811115614eba57600080fd5b8301601f81018513614ecb57600080fd5b8051614ed961445a82614416565b81815260059190911b82018301908381019087831115614ef857600080fd5b928401925b8284101561423e578351614f108161456d565b82529284019290840190614efd565b600082821015614f3157614f31614cc8565b500390565b600082601f830112614f4757600080fd5b81516020614f5761445a83614416565b82815260059290921b84018101918181019086841115614f7657600080fd5b8286015b848110156144995780518352918301918301614f7a565b60008060408385031215614fa457600080fd5b82516001600160401b0380821115614fbb57600080fd5b614fc786838701614f36565b93506020850151915080821115614fdd57600080fd5b506146b885828601614f36565b60008219821115614ffd57614ffd614cc8565b500190565b600081518084526020808501945080840160005b8381101561503257815187529582019590820190600101615016565b509495945050505050565b6020815261505160208201835160020b9052565b60006020830151615067604084018260020b9052565b50604083015161507c606084018260020b9052565b506060830151615091608084018260020b9052565b50608083015163ffffffff811660a08401525060a083015160c083015260c083015160e083015260e0830151610100818185015280850151915050610120818185015280850151915050610140808185015250612b01610160840182615002565b6001600160a01b03841681526001600160e01b031983166020820152606060408201819052600090615126908301846148f6565b95945050505050565b60006020828403121561514157600080fd5b81516001600160401b038082111561515857600080fd5b818401915084601f83011261516c57600080fd5b81518181111561517e5761517e614352565b615191601f8201601f19166020016143b3565b91508082528560208285010111156151a857600080fd5b6151b98160208401602086016148ca565b50949350505050565b60006000198214156151d6576151d6614cc8565b5060010190565b60008160020b8360020b6000811281627fffff190183128115161561520457615204614cc8565b81627fffff01831381161561521b5761521b614cc8565b5090039392505050565b60008160020b8360020b6000821282627fffff0382138115161561524b5761524b614cc8565b82627fffff1903821281161561526357615263614cc8565b50019392505050565b60008160020b8360020b8061528357615283614d6b565b627fffff1982146000198214161561529d5761529d614cc8565b90059392505050565b6000808335601e198436030181126152bd57600080fd5b8301803591506001600160401b038211156152d757600080fd5b6020019150368190038213156152ec57600080fd5b9250929050565b805162ffffff811681146143fd57600080fd5b80516001600160801b03811681146143fd57600080fd5b6000806000806000806000806000806000806101808d8f03121561534057600080fd5b8c516bffffffffffffffffffffffff8116811461535c57600080fd5b9b5061536a60208e01614e86565b9a5061537860408e01614e86565b995061538660608e01614e86565b985061539460808e016152f3565b97506153a260a08e01614ca0565b96506153b060c08e01614ca0565b95506153be60e08e01615306565b94506101008d015193506101208d015192506153dd6101408e01615306565b91506153ec6101608e01615306565b90509295989b509295989b509295989b565b60006020828403121561541057600080fd5b5051919050565b60006020828403121561542957600080fd5b81516001600160401b0381111561543f57600080fd5b612b0184828501614f36565b6001600160a01b0384811682526080602080840182905285519184018290526000928682019290919060a0860190855b8181101561549957855185168352948301949183019160010161547b565b505085810360408701526154ad8188615002565b86810360609097019690965250600085529093019695505050505050565b6000602082840312156154dd57600080fd5b611b8c826152f3565b81516001600160a01b031681526101608101602083015161551260208401826001600160a01b03169052565b506040830151615529604084018262ffffff169052565b50606083015161553e606084018260020b9052565b506080830151615553608084018260020b9052565b5060a083015160a083015260c083015160c083015260e083015160e083015261010080840151818401525061012080840151615599828501826001600160a01b03169052565b505061014092830151919092015290565b600080600080608085870312156155c057600080fd5b845193506155d060208601615306565b6040860151606090960151949790965092505050565b600080858511156155f657600080fd5b8386111561560357600080fd5b5050820193919092039150565b6001600160e01b031981358181169160048510156156385780818660040360031b1b83161692505b505092915050565b6001600160a01b03851681526001600160e01b0319841660208201526060604082018190528101829052818360808301376000818301608090810191909152601f909201601f191601019392505050565b6000600160ff1b8214156156a7576156a7614cc8565b5060000390565b60008160001904831182151516156156c8576156c8614cc8565b500290565b6000826156dc576156dc614d6b565b500490565b6000826156f0576156f0614d6b565b500690565b6020808252825182820181905260009190848201906040850190845b8181101561573357835163ffffffff1683529284019291840191600101615711565b50909695505050505050565b600082601f83011261575057600080fd5b8151602061576061445a83614416565b82815260059290921b8401810191818101908684111561577f57600080fd5b8286015b848110156144995780516157968161456d565b8352918301918301615783565b600080604083850312156157b657600080fd5b82516001600160401b03808211156157cd57600080fd5b818501915085601f8301126157e157600080fd5b815160206157f161445a83614416565b82815260059290921b8401810191818101908984111561581057600080fd5b948201945b8386101561583e5785518060060b811461582f5760008081fd5b82529482019490820190615815565b9188015191965090935050508082111561585757600080fd5b506146b88582860161573f565b60008160060b8360060b6000811281667fffffffffffff190183128115161561588f5761588f614cc8565b81667fffffffffffff01831381161561521b5761521b614cc8565b60006001600160a01b03838116908316818110156158ca576158ca614cc8565b039392505050565b60008160060b8360060b806158e9576158e9614d6b565b667fffffffffffff1982146000198214161561529d5761529d614cc8565b60008260060b8061591a5761591a614d6b565b808360060b0791505092915050565b60008160020b627fffff1981141561594357615943614cc8565b6000190192915050565b60006001600160c01b038281168482168115158284048211161561597357615973614cc8565b02949350505050565b60006001600160c01b038381168061599657615996614d6b565b92169190910492915050565b7f416363657373436f6e74726f6c3a206163636f756e74200000000000000000008152600083516159da8160178501602088016148ca565b7001034b99036b4b9b9b4b733903937b6329607d1b6017918401918201528351615a0b8160288401602088016148ca565b01602801949350505050565b600060208284031215615a2957600080fd5b8151611b8c81614a66565b60008251615a468184602087016148ca565b9190910192915050565b600081615a5f57615a5f614cc8565b506000190190565b634e487b7160e01b600052603160045260246000fdfec171260023d22a25a00a2789664c9334017843b831138c8ef03cc8897e5873d7f23ec0bb4210edd5cba85afd05127efcd2fc6a781bfed49188da1081670b22d846a52cf33029de9f84853745a87af28464c80bf0346df1b32e205fc73319f622416464726573733a206c6f772d6c6576656c2064656c65676174652063616c6c206661696c6564a2646970667358221220f97fda220f7379dd5fd8560d64f7f35765051ad58a6d55f6a653ecc8d897a2b464736f6c63430008090033",
    "linkReferences": {}
  },
  "methodIdentifiers": {
    "ADMIN_DELEGATE_ROLE()": "0952ff54",
    "ADMIN_ROLE()": "75b238fc",
    "D6()": "a11bac74",
    "D9()": "551530ae",
    "DEFAULT_ADMIN_ROLE()": "a217fddf",
    "OPERATOR()": "983d2737",
    "Q96()": "40792465",
    "calculateAmountsForSwap((address,address,address,address[]),(int24,int24,int24,int24,uint32,uint256,uint256,uint256,uint256,uint256[]),uint256,uint256)": "50c9d3bb",
    "calculateNewPosition((int24,int24,int24,int24,uint32,uint256,uint256,uint256,uint256,uint256[]),int24,address,uint256)": "fe57ed61",
    "calculateTargetRatioOfToken1((int24,int24),uint160,uint256)": "9bb37ba8",
    "checkImmutableParams((address,address,address,address[]))": "475cffef",
    "checkMutableParams((int24,int24,int24,int24,uint32,uint256,uint256,uint256,uint256,uint256[]),(address,address,address,address[]))": "0e305515",
    "checkTickDeviation((int24,int24,int24,int24,uint32,uint256,uint256,uint256,uint256,uint256[]),address)": "f05329b2",
    "contractName()": "75d0c0dc",
    "contractNameBytes()": "0e3e80ac",
    "contractVersion()": "a0a8e460",
    "contractVersionBytes()": "06a46239",
    "depositCallback()": "e521826f",
    "desiredAmounts()": "d3277e86",
    "forceRebalanceWidthFlag()": "1e63f062",
    "formPositionWithSpotTickInCenter((int24,int24,int24,int24,uint32,uint256,uint256,uint256,uint256,uint256[]),int24,int24)": "95aa080d",
    "getRoleAdmin(bytes32)": "248a9ca3",
    "getRoleMember(bytes32,uint256)": "9010d07c",
    "getRoleMemberCount(bytes32)": "ca15c873",
    "grantRole(bytes32,address)": "2f2ff15d",
    "hasRole(bytes32,address)": "91d14854",
    "immutableParams()": "c8014d53",
    "init(address)": "19ab453c",
    "initialize((address,address,address,address[]),address)": "6ff0b358",
    "initialized()": "158ef93e",
    "isAdmin(address)": "24d7806c",
    "isOperator(address)": "6d70f7ae",
    "multicall(bytes[])": "ac9650d8",
    "mutableParams()": "5f408a21",
    "positionManager()": "791b98bc",
    "rebalance(uint256,bytes,uint256)": "163cacd5",
    "renounceRole(bytes32,address)": "36568abe",
    "revokeRole(bytes32,address)": "d547741f",
    "setForceRebalanceFlag(bool)": "a8470bcc",
    "supportsInterface(bytes4)": "01ffc9a7",
    "updateDesiredAmounts((uint256,uint256))": "ace4d0fd",
    "updateMutableParams((int24,int24,int24,int24,uint32,uint256,uint256,uint256,uint256,uint256[]))": "60aa2705",
    "withdrawCallback()": "b4559f3e"
  },
  "id": 399
}