{
  "abi": [
    {
      "inputs": [
        {
          "components": [
            {
              "internalType": "contract IProtocolGovernance",
              "name": "protocolGovernance",
              "type": "address"
            },
            {
              "internalType": "contract IVaultRegistry",
              "name": "registry",
              "type": "address"
            },
            {
              "internalType": "contract IVault",
              "name": "singleton",
              "type": "address"
            }
          ],
          "internalType": "struct IVaultGovernance.InternalParams",
          "name": "internalParams_",
          "type": "tuple"
        },
        {
          "components": [
            {
              "internalType": "contract INonfungiblePositionManager",
              "name": "positionManager",
              "type": "address"
            },
            {
              "internalType": "contract IOracle",
              "name": "oracle",
              "type": "address"
            }
          ],
          "internalType": "struct IUniV3VaultGovernance.DelayedProtocolParams",
          "name": "delayedProtocolParams_",
          "type": "tuple"
        }
      ],
      "stateMutability": "nonpayable",
      "type": "constructor"
    },
    {
      "anonymous": false,
      "inputs": [
        {
          "indexed": true,
          "internalType": "address",
          "name": "origin",
          "type": "address"
        },
        {
          "indexed": true,
          "internalType": "address",
          "name": "sender",
          "type": "address"
        },
        {
          "components": [
            {
              "internalType": "contract INonfungiblePositionManager",
              "name": "positionManager",
              "type": "address"
            },
            {
              "internalType": "contract IOracle",
              "name": "oracle",
              "type": "address"
            }
          ],
          "indexed": false,
          "internalType": "struct IUniV3VaultGovernance.DelayedProtocolParams",
          "name": "params",
          "type": "tuple"
        }
      ],
      "name": "CommitDelayedProtocolParams",
      "type": "event"
    },
    {
      "anonymous": false,
      "inputs": [
        {
          "indexed": true,
          "internalType": "address",
          "name": "origin",
          "type": "address"
        },
        {
          "indexed": true,
          "internalType": "address",
          "name": "sender",
          "type": "address"
        },
        {
          "indexed": true,
          "internalType": "uint256",
          "name": "nft",
          "type": "uint256"
        },
        {
          "components": [
            {
              "internalType": "uint32",
              "name": "safetyIndicesSet",
              "type": "uint32"
            }
          ],
          "indexed": false,
          "internalType": "struct IUniV3VaultGovernance.DelayedStrategyParams",
          "name": "params",
          "type": "tuple"
        }
      ],
      "name": "CommitDelayedStrategyParams",
      "type": "event"
    },
    {
      "anonymous": false,
      "inputs": [
        {
          "indexed": true,
          "internalType": "address",
          "name": "origin",
          "type": "address"
        },
        {
          "indexed": true,
          "internalType": "address",
          "name": "sender",
          "type": "address"
        },
        {
          "components": [
            {
              "internalType": "contract IProtocolGovernance",
              "name": "protocolGovernance",
              "type": "address"
            },
            {
              "internalType": "contract IVaultRegistry",
              "name": "registry",
              "type": "address"
            },
            {
              "internalType": "contract IVault",
              "name": "singleton",
              "type": "address"
            }
          ],
          "indexed": false,
          "internalType": "struct IVaultGovernance.InternalParams",
          "name": "params",
          "type": "tuple"
        }
      ],
      "name": "CommitedInternalParams",
      "type": "event"
    },
    {
      "anonymous": false,
      "inputs": [
        {
          "indexed": true,
          "internalType": "address",
          "name": "origin",
          "type": "address"
        },
        {
          "indexed": true,
          "internalType": "address",
          "name": "sender",
          "type": "address"
        },
        {
          "indexed": false,
          "internalType": "address[]",
          "name": "vaultTokens",
          "type": "address[]"
        },
        {
          "indexed": false,
          "internalType": "bytes",
          "name": "options",
          "type": "bytes"
        },
        {
          "indexed": false,
          "internalType": "address",
          "name": "owner",
          "type": "address"
        },
        {
          "indexed": false,
          "internalType": "address",
          "name": "vaultAddress",
          "type": "address"
        },
        {
          "indexed": false,
          "internalType": "uint256",
          "name": "vaultNft",
          "type": "uint256"
        }
      ],
      "name": "DeployedVault",
      "type": "event"
    },
    {
      "anonymous": false,
      "inputs": [
        {
          "indexed": true,
          "internalType": "address",
          "name": "origin",
          "type": "address"
        },
        {
          "indexed": true,
          "internalType": "address",
          "name": "sender",
          "type": "address"
        },
        {
          "components": [
            {
              "internalType": "contract INonfungiblePositionManager",
              "name": "positionManager",
              "type": "address"
            },
            {
              "internalType": "contract IOracle",
              "name": "oracle",
              "type": "address"
            }
          ],
          "indexed": false,
          "internalType": "struct IUniV3VaultGovernance.DelayedProtocolParams",
          "name": "params",
          "type": "tuple"
        },
        {
          "indexed": false,
          "internalType": "uint256",
          "name": "when",
          "type": "uint256"
        }
      ],
      "name": "StageDelayedProtocolParams",
      "type": "event"
    },
    {
      "anonymous": false,
      "inputs": [
        {
          "indexed": true,
          "internalType": "address",
          "name": "origin",
          "type": "address"
        },
        {
          "indexed": true,
          "internalType": "address",
          "name": "sender",
          "type": "address"
        },
        {
          "indexed": true,
          "internalType": "uint256",
          "name": "nft",
          "type": "uint256"
        },
        {
          "components": [
            {
              "internalType": "uint32",
              "name": "safetyIndicesSet",
              "type": "uint32"
            }
          ],
          "indexed": false,
          "internalType": "struct IUniV3VaultGovernance.DelayedStrategyParams",
          "name": "params",
          "type": "tuple"
        },
        {
          "indexed": false,
          "internalType": "uint256",
          "name": "when",
          "type": "uint256"
        }
      ],
      "name": "StageDelayedStrategyParams",
      "type": "event"
    },
    {
      "anonymous": false,
      "inputs": [
        {
          "indexed": true,
          "internalType": "address",
          "name": "origin",
          "type": "address"
        },
        {
          "indexed": true,
          "internalType": "address",
          "name": "sender",
          "type": "address"
        },
        {
          "components": [
            {
              "internalType": "contract IProtocolGovernance",
              "name": "protocolGovernance",
              "type": "address"
            },
            {
              "internalType": "contract IVaultRegistry",
              "name": "registry",
              "type": "address"
            },
            {
              "internalType": "contract IVault",
              "name": "singleton",
              "type": "address"
            }
          ],
          "indexed": false,
          "internalType": "struct IVaultGovernance.InternalParams",
          "name": "params",
          "type": "tuple"
        },
        {
          "indexed": false,
          "internalType": "uint256",
          "name": "when",
          "type": "uint256"
        }
      ],
      "name": "StagedInternalParams",
      "type": "event"
    },
    {
      "inputs": [],
      "name": "commitDelayedProtocolParams",
      "outputs": [],
      "stateMutability": "nonpayable",
      "type": "function"
    },
    {
      "inputs": [
        {
          "internalType": "uint256",
          "name": "nft",
          "type": "uint256"
        }
      ],
      "name": "commitDelayedStrategyParams",
      "outputs": [],
      "stateMutability": "nonpayable",
      "type": "function"
    },
    {
      "inputs": [],
      "name": "commitInternalParams",
      "outputs": [],
      "stateMutability": "nonpayable",
      "type": "function"
    },
    {
      "inputs": [],
      "name": "contractName",
      "outputs": [
        {
          "internalType": "string",
          "name": "",
          "type": "string"
        }
      ],
      "stateMutability": "pure",
      "type": "function"
    },
    {
      "inputs": [],
      "name": "contractNameBytes",
      "outputs": [
        {
          "internalType": "bytes32",
          "name": "",
          "type": "bytes32"
        }
      ],
      "stateMutability": "pure",
      "type": "function"
    },
    {
      "inputs": [],
      "name": "contractVersion",
      "outputs": [
        {
          "internalType": "string",
          "name": "",
          "type": "string"
        }
      ],
      "stateMutability": "pure",
      "type": "function"
    },
    {
      "inputs": [],
      "name": "contractVersionBytes",
      "outputs": [
        {
          "internalType": "bytes32",
          "name": "",
          "type": "bytes32"
        }
      ],
      "stateMutability": "pure",
      "type": "function"
    },
    {
      "inputs": [
        {
          "internalType": "address[]",
          "name": "vaultTokens_",
          "type": "address[]"
        },
        {
          "internalType": "address",
          "name": "owner_",
          "type": "address"
        },
        {
          "internalType": "uint24",
          "name": "fee_",
          "type": "uint24"
        },
        {
          "internalType": "address",
          "name": "uniV3Helper_",
          "type": "address"
        }
      ],
      "name": "createVault",
      "outputs": [
        {
          "internalType": "contract IUniV3Vault",
          "name": "vault",
          "type": "address"
        },
        {
          "internalType": "uint256",
          "name": "nft",
          "type": "uint256"
        }
      ],
      "stateMutability": "nonpayable",
      "type": "function"
    },
    {
      "inputs": [],
      "name": "delayedProtocolParams",
      "outputs": [
        {
          "components": [
            {
              "internalType": "contract INonfungiblePositionManager",
              "name": "positionManager",
              "type": "address"
            },
            {
              "internalType": "contract IOracle",
              "name": "oracle",
              "type": "address"
            }
          ],
          "internalType": "struct IUniV3VaultGovernance.DelayedProtocolParams",
          "name": "",
          "type": "tuple"
        }
      ],
      "stateMutability": "view",
      "type": "function"
    },
    {
      "inputs": [],
      "name": "delayedProtocolParamsTimestamp",
      "outputs": [
        {
          "internalType": "uint256",
          "name": "",
          "type": "uint256"
        }
      ],
      "stateMutability": "view",
      "type": "function"
    },
    {
      "inputs": [
        {
          "internalType": "uint256",
          "name": "nft",
          "type": "uint256"
        }
      ],
      "name": "delayedProtocolPerVaultParamsTimestamp",
      "outputs": [
        {
          "internalType": "uint256",
          "name": "",
          "type": "uint256"
        }
      ],
      "stateMutability": "view",
      "type": "function"
    },
    {
      "inputs": [
        {
          "internalType": "uint256",
          "name": "nft",
          "type": "uint256"
        }
      ],
      "name": "delayedStrategyParams",
      "outputs": [
        {
          "components": [
            {
              "internalType": "uint32",
              "name": "safetyIndicesSet",
              "type": "uint32"
            }
          ],
          "internalType": "struct IUniV3VaultGovernance.DelayedStrategyParams",
          "name": "",
          "type": "tuple"
        }
      ],
      "stateMutability": "view",
      "type": "function"
    },
    {
      "inputs": [
        {
          "internalType": "uint256",
          "name": "nft",
          "type": "uint256"
        }
      ],
      "name": "delayedStrategyParamsTimestamp",
      "outputs": [
        {
          "internalType": "uint256",
          "name": "",
          "type": "uint256"
        }
      ],
      "stateMutability": "view",
      "type": "function"
    },
    {
      "inputs": [],
      "name": "internalParams",
      "outputs": [
        {
          "components": [
            {
              "internalType": "contract IProtocolGovernance",
              "name": "protocolGovernance",
              "type": "address"
            },
            {
              "internalType": "contract IVaultRegistry",
              "name": "registry",
              "type": "address"
            },
            {
              "internalType": "contract IVault",
              "name": "singleton",
              "type": "address"
            }
          ],
          "internalType": "struct IVaultGovernance.InternalParams",
          "name": "",
          "type": "tuple"
        }
      ],
      "stateMutability": "view",
      "type": "function"
    },
    {
      "inputs": [],
      "name": "internalParamsTimestamp",
      "outputs": [
        {
          "internalType": "uint256",
          "name": "",
          "type": "uint256"
        }
      ],
      "stateMutability": "view",
      "type": "function"
    },
    {
      "inputs": [
        {
          "components": [
            {
              "internalType": "contract INonfungiblePositionManager",
              "name": "positionManager",
              "type": "address"
            },
            {
              "internalType": "contract IOracle",
              "name": "oracle",
              "type": "address"
            }
          ],
          "internalType": "struct IUniV3VaultGovernance.DelayedProtocolParams",
          "name": "params",
          "type": "tuple"
        }
      ],
      "name": "stageDelayedProtocolParams",
      "outputs": [],
      "stateMutability": "nonpayable",
      "type": "function"
    },
    {
      "inputs": [
        {
          "internalType": "uint256",
          "name": "nft",
          "type": "uint256"
        },
        {
          "components": [
            {
              "internalType": "uint32",
              "name": "safetyIndicesSet",
              "type": "uint32"
            }
          ],
          "internalType": "struct IUniV3VaultGovernance.DelayedStrategyParams",
          "name": "params",
          "type": "tuple"
        }
      ],
      "name": "stageDelayedStrategyParams",
      "outputs": [],
      "stateMutability": "nonpayable",
      "type": "function"
    },
    {
      "inputs": [
        {
          "components": [
            {
              "internalType": "contract IProtocolGovernance",
              "name": "protocolGovernance",
              "type": "address"
            },
            {
              "internalType": "contract IVaultRegistry",
              "name": "registry",
              "type": "address"
            },
            {
              "internalType": "contract IVault",
              "name": "singleton",
              "type": "address"
            }
          ],
          "internalType": "struct IVaultGovernance.InternalParams",
          "name": "newParams",
          "type": "tuple"
        }
      ],
      "name": "stageInternalParams",
      "outputs": [],
      "stateMutability": "nonpayable",
      "type": "function"
    },
    {
      "inputs": [],
      "name": "stagedDelayedProtocolParams",
      "outputs": [
        {
          "components": [
            {
              "internalType": "contract INonfungiblePositionManager",
              "name": "positionManager",
              "type": "address"
            },
            {
              "internalType": "contract IOracle",
              "name": "oracle",
              "type": "address"
            }
          ],
          "internalType": "struct IUniV3VaultGovernance.DelayedProtocolParams",
          "name": "",
          "type": "tuple"
        }
      ],
      "stateMutability": "view",
      "type": "function"
    },
    {
      "inputs": [
        {
          "internalType": "uint256",
          "name": "nft",
          "type": "uint256"
        }
      ],
      "name": "stagedDelayedStrategyParams",
      "outputs": [
        {
          "components": [
            {
              "internalType": "uint32",
              "name": "safetyIndicesSet",
              "type": "uint32"
            }
          ],
          "internalType": "struct IUniV3VaultGovernance.DelayedStrategyParams",
          "name": "",
          "type": "tuple"
        }
      ],
      "stateMutability": "view",
      "type": "function"
    },
    {
      "inputs": [],
      "name": "stagedInternalParams",
      "outputs": [
        {
          "components": [
            {
              "internalType": "contract IProtocolGovernance",
              "name": "protocolGovernance",
              "type": "address"
            },
            {
              "internalType": "contract IVaultRegistry",
              "name": "registry",
              "type": "address"
            },
            {
              "internalType": "contract IVault",
              "name": "singleton",
              "type": "address"
            }
          ],
          "internalType": "struct IVaultGovernance.InternalParams",
          "name": "",
          "type": "tuple"
        }
      ],
      "stateMutability": "view",
      "type": "function"
    },
    {
      "inputs": [
        {
          "internalType": "bytes4",
          "name": "interfaceId",
          "type": "bytes4"
        }
      ],
      "name": "supportsInterface",
      "outputs": [
        {
          "internalType": "bool",
          "name": "",
          "type": "bool"
        }
      ],
      "stateMutability": "view",
      "type": "function"
    }
  ],
  "bytecode": {
    "object": "0x60806040523480156200001157600080fd5b506040516200248f3803806200248f833981016040819052620000349162000344565b815160408051808201909152600281526120ad60f11b602082015283916001600160a01b0316620000835760405162461bcd60e51b81526004016200007a91906200042a565b60405180910390fd5b5060006001600160a01b031681602001516001600160a01b031614156040518060400160405280600281526020016120ad60f11b81525090620000db5760405162461bcd60e51b81526004016200007a91906200042a565b506040808201518151808301909252600282526120ad60f11b60208301526001600160a01b0316620001225760405162461bcd60e51b81526004016200007a91906200042a565b508051600080546001600160a01b03199081166001600160a01b039384161790915560208084015160018054841691851691909117905560409384015160028054909316908416178255845184518086019095529184526120ad60f11b9084015216620001a45760405162461bcd60e51b81526004016200007a91906200042a565b5060006001600160a01b031681602001516001600160a01b031614156040518060400160405280600281526020016120ad60f11b81525090620001fc5760405162461bcd60e51b81526004016200007a91906200042a565b506040805182516001600160a01b039081166020808401919091528085015190911682840152825180830384018152606090920190925280516200024592600d9201906200024e565b505050620004bf565b8280546200025c9062000482565b90600052602060002090601f016020900481019282620002805760008555620002cb565b82601f106200029b57805160ff1916838001178555620002cb565b82800160010185558215620002cb579182015b82811115620002cb578251825591602001919060010190620002ae565b50620002d9929150620002dd565b5090565b5b80821115620002d95760008155600101620002de565b604080519081016001600160401b03811182821017156200032557634e487b7160e01b600052604160045260246000fd5b60405290565b6001600160a01b03811681146200034157600080fd5b50565b60008082840360a08112156200035957600080fd5b60608112156200036857600080fd5b604051606081016001600160401b03811182821017156200039957634e487b7160e01b600052604160045260246000fd5b6040528451620003a9816200032b565b81526020850151620003bb816200032b565b60208201526040850151620003d0816200032b565b604082810191909152909350605f1982011215620003ed57600080fd5b50620003f8620002f4565b606084015162000408816200032b565b815260808401516200041a816200032b565b6020820152919491935090915050565b600060208083528351808285015260005b8181101562000459578581018301518582016040015282016200043b565b818111156200046c576000604083870101525b50601f01601f1916929092016040019392505050565b600181811c908216806200049757607f821691505b60208210811415620004b957634e487b7160e01b600052602260045260246000fd5b50919050565b611fc080620004cf6000396000f3fe608060405234801561001057600080fd5b50600436106101425760003560e01c806375d0c0dc116100b8578063a0a8e4601161007c578063a0a8e46014610364578063b2fe31ad1461036c578063c2cbdc671461037f578063d34cc380146103ae578063d4a07d34146103b6578063e4af6e79146103be57600080fd5b806375d0c0dc146102815780637ac46fbb1461029657806386c6be3e146102f65780638860d2481461034957806398347a5d1461035c57600080fd5b80631c7f4c731161010a5780631c7f4c73146101cc57806325281714146101d4578063511ce798146101e757806359f3dae71461020757806366c153e91461022f5780636707acee1461026157600080fd5b806301ffc9a71461014757806306a462391461016f57806309946538146101875780630bdedd561461019c5780630e3e80ac146101af575b600080fd5b61015a6101553660046118de565b6103c6565b60405190151581526020015b60405180910390f35b640312e312e360dc1b5b604051908152602001610166565b61019a61019536600461196b565b6103f7565b005b61019a6101aa3660046119dd565b6105e9565b73556e6956335661756c74476f7665726e616e636560601b610179565b600654610179565b61019a6101e23660046119f6565b6106df565b6101796101f53660046119dd565b6000908152600c602052604090205490565b61021a6102153660046119dd565b6107ac565b604051905163ffffffff168152602001610166565b61024261023d366004611a51565b61089a565b604080516001600160a01b039093168352602083019190915201610166565b61017961026f3660046119dd565b60009081526009602052604090205490565b61028961097f565b6040516101669190611b83565b6102e9604080516060810182526000808252602082018190529181019190915250604080516060810182526000546001600160a01b03908116825260015481166020830152600254169181019190915290565b6040516101669190611b96565b6102e9604080516060810182526000808252602082018190529181019190915250604080516060810182526003546001600160a01b03908116825260045481166020830152600554169181019190915290565b61021a6103573660046119dd565b6109a1565b61019a6109fe565b610289610b06565b61019a61037a366004611bc6565b610b19565b610387610c24565b6040805182516001600160a01b039081168252602093840151169281019290925201610166565b610387610d03565b61019a610d24565b600f54610179565b60006103d182610e49565b806103ec575063a2e9c51360e01b6001600160e01b03198316145b92915050565b905090565b6103ff610e7f565b805160408051808201909152600281526120ad60f11b6020820152906001600160a01b031661044a5760405162461bcd60e51b81526004016104419190611b83565b60405180910390fd5b5060006001600160a01b031681602001516001600160a01b031614156040518060400160405280600281526020016120ad60f11b8152509061049f5760405162461bcd60e51b81526004016104419190611b83565b506040808201518151808301909252600282526120ad60f11b60208301526001600160a01b03166104e35760405162461bcd60e51b81526004016104419190611b83565b508051600380546001600160a01b03199081166001600160a01b03938416179091556020808401516004805484169185169190911781556040808601516005805490951690861617909355600054835163bba3293960e01b8152935194169363bba3293993808301939290829003018186803b15801561056257600080fd5b505afa158015610576573d6000803e3d6000fd5b505050506040513d601f19601f8201168201806040525081019061059a9190611bde565b6105a49042611c0d565b6006819055604051339132917f0887cab3184f7c02b16978ab31f8acee05979f59fc3da6abe5bf71105ec3179d916105de91869190611c25565b60405180910390a350565b6105f281610f37565b600081815260076020526040902080548291339132917fa363920f84c4a3e8f1fbb02a2f8b5f0d7438886cb05a7d98882af9bd66d164269161063390611c62565b80601f016020809104026020016040519081016040528092919081815260200182805461065f90611c62565b80156106ac5780601f10610681576101008083540402835291602001916106ac565b820191906000526020600020905b81548152906001019060200180831161068f57829003601f168201915b50505050508060200190518101906106c49190611ca9565b604051905163ffffffff16815260200160405180910390a450565b60016106ee6020830183611cf5565b63ffffffff1611604051806040016040528060048152602001634c494d5560e01b815250906107305760405162461bcd60e51b81526004016104419190611b83565b5061075a82826040516020016107469190611d12565b604051602081830303815290604052611028565b600082815260096020526040908190205490518391339132917f4cceb02b6b172e9c19155fccc4d799437a0d50ad922ea9f0f41b1cb3a17b12e8916107a0918791611d2f565b60405180910390a45050565b604080516020810190915260008152600082815260086020526040902080546107d490611c62565b151590506107f057505060408051602081019091526000815290565b6000828152600860205260409020805461080990611c62565b80601f016020809104026020016040519081016040528092919081815260200182805461083590611c62565b80156108825780601f1061085757610100808354040283529160200191610882565b820191906000526020600020905b81548152906001019060200180831161086557829003601f168201915b50505050508060200190518101906103ec9190611ca9565b60008060006108a886611134565b604051631912128b60e01b815291945092508391506001600160a01b03821690631912128b906108e29085908b908a908a90600401611d98565b600060405180830381600087803b1580156108fc57600080fd5b505af1158015610910573d6000803e3d6000fd5b50506040805162ffffff891660208201523393503292507f8a4513c05d15df8ece912856923273e166e39f5c9c2b43d2b38594023494a0e0918b910160408051601f198184030181529082905261096d92918c9088908a90611dd7565b60405180910390a35094509492505050565b60606103f273556e6956335661756c74476f7665726e616e636560601b611325565b604080516020810190915260008152600082815260076020526040902080546109c990611c62565b151590506109e55750506040805160208101909152602a815290565b6000828152600760205260409020805461080990611c62565b610a06611391565b336001600160a01b0316326001600160a01b03167fb57a42e9f64dfc9c6b9e412ea001a45c0e4d3f26c8d160381a418ff92269d052600d8054610a4890611c62565b80601f0160208091040260200160405190810160405280929190818152602001828054610a7490611c62565b8015610ac15780601f10610a9657610100808354040283529160200191610ac1565b820191906000526020600020905b815481529060010190602001808311610aa457829003601f168201915b5050505050806020019051810190610ad99190611e21565b6040805182516001600160a01b0390811682526020938401511692810192909252015b60405180910390a3565b60606103f2640312e312e360dc1b611325565b6000610b286020830183611e80565b6001600160a01b031614156040518060400160405280600281526020016120ad60f11b81525090610b6c5760405162461bcd60e51b81526004016104419190611b83565b506000610b7f6040830160208401611e80565b6001600160a01b031614156040518060400160405280600281526020016120ad60f11b81525090610bc35760405162461bcd60e51b81526004016104419190611b83565b50610bec81604051602001610bd89190611ed2565b604051602081830303815290604052611445565b600f54604051339132917f88e619a5dce560314fdd4895b08c256978617047a99ffc847d45400df1f377a7916105de91869190611ee0565b6040805180820190915260008082526020820152600e8054610c4590611c62565b15159050610c655750604080518082019091526000808252602082015290565b600e8054610c7290611c62565b80601f0160208091040260200160405190810160405280929190818152602001828054610c9e90611c62565b8015610ceb5780601f10610cc057610100808354040283529160200191610ceb565b820191906000526020600020905b815481529060010190602001808311610cce57829003601f168201915b50505050508060200190518101906103f29190611e21565b6040805180820190915260008082526020820152600d8054610c7290611c62565b610d2c610e7f565b6006546040805180820190915260048152631395531360e21b602082015290610d685760405162461bcd60e51b81526004016104419190611b83565b5060065442101560405180604001604052806002815260200161545360f01b81525090610da85760405162461bcd60e51b81526004016104419190611b83565b5060038054600080546001600160a01b038084166001600160a01b03199283168117845560048054600180548286169087168117909155600580546002805497821697891688179055600698909855978616909855841690559290911690925560408051918252602082019390935291820152339032907fef3e4bc9725fa684957d7de03c6dcd01078ee86cf78ceef25c5f8346df69cc9990606001610afc565b60006301ffc9a760e01b6001600160e01b0319831614806103ec57506001600160e01b0319821663effda0f560e01b1492915050565b600054604051630935e01b60e21b81523360048201526001600160a01b03909116906324d7806c9060240160206040518083038186803b158015610ec257600080fd5b505afa158015610ed6573d6000803e3d6000fd5b505050506040513d601f19601f82011682018060405250810190610efa9190611efb565b6040518060400160405280600381526020016223292160e91b81525090610f345760405162461bcd60e51b81526004016104419190611b83565b50565b610f4081611520565b60008181526009602090815260409182902054825180840190935260048352631395531360e21b918301919091529081610f8d5760405162461bcd60e51b81526004016104419190611b83565b508042101560405180604001604052806002815260200161545360f01b81525090610fcb5760405162461bcd60e51b81526004016104419190611b83565b50600082815260086020908152604080832060079092529091208154909190610ff390611c62565b610ffe929190611790565b5060008281526008602052604081206110169161181b565b50600090815260096020526040812055565b61103182611520565b6000828152600860209081526040909120825161105092840190611855565b506000828152600760205260408120805461106a90611c62565b15905061107857600161107b565b60005b60ff169050806000800160009054906101000a90046001600160a01b03166001600160a01b031663bba329396040518163ffffffff1660e01b815260040160206040518083038186803b1580156110d157600080fd5b505afa1580156110e5573d6000803e3d6000fd5b505050506040513d601f19601f820116820180604052508101906111099190611bde565b6111139190611f1d565b61111d9042611c0d565b600093845260096020526040909320929092555050565b600080546040516363e85d2d60e01b81523360048201526001602482015282916001600160a01b03169081906363e85d2d9060440160206040518083038186803b15801561118157600080fd5b505afa158015611195573d6000803e3d6000fd5b505050506040513d601f19601f820116820180604052508101906111b99190611efb565b6040518060400160405280600381526020016223292160e91b815250906111f35760405162461bcd60e51b81526004016104419190611b83565b5060015460408051631112eee760e31b815290516001600160a01b039092169182916388977738916004808301926020929190829003018186803b15801561123a57600080fd5b505afa15801561124e573d6000803e3d6000fd5b505050506040513d601f19601f820116820180604052508101906112729190611bde565b61127d906001611c0d565b600254909350611296906001600160a01b0316846116f3565b6040516305c4fdf960e01b81526001600160a01b0380831660048301528781166024830152919550908216906305c4fdf990604401602060405180830381600087803b1580156112e557600080fd5b505af11580156112f9573d6000803e3d6000fd5b505050506040513d601f19601f8201168201806040525081019061131d9190611bde565b505050915091565b604080516020808252818301909252606091602082018180368337019050509050602060005b60208110156113835783816020811061136657611366611f3c565b1a61137357809150611383565b61137c81611f52565b905061134b565b508152602081019190915290565b611399610e7f565b600f546040805180820190915260048152631395531360e21b6020820152906113d55760405162461bcd60e51b81526004016104419190611b83565b50600f5442101560405180604001604052806002815260200161545360f01b815250906114155760405162461bcd60e51b81526004016104419190611b83565b50600e600d90805461142690611c62565b611431929190611790565b5061143e600e600061181b565b6000600f55565b61144d610e7f565b6000600d805461145c90611c62565b15905061146a57600161146d565b60005b60ff16905081600e9080519060200190611488929190611855565b506000546040805163bba3293960e01b8152905183926001600160a01b03169163bba32939916004808301926020929190829003018186803b1580156114cd57600080fd5b505afa1580156114e1573d6000803e3d6000fd5b505050506040513d601f19601f820116820180604052508101906115059190611bde565b61150f9190611f1d565b6115199042611c0d565b600f555050565b600054604051630935e01b60e21b81523360048201526001600160a01b03909116906324d7806c9060240160206040518083038186803b15801561156357600080fd5b505afa158015611577573d6000803e3d6000fd5b505050506040513d601f19601f8201168201806040525081019061159b9190611efb565b80611628575060015460405163020604bf60e21b81526004810183905233916001600160a01b03169063081812fc9060240160206040518083038186803b1580156115e557600080fd5b505afa1580156115f9573d6000803e3d6000fd5b505050506040513d601f19601f8201168201806040525081019061161d9190611f6d565b6001600160a01b0316145b806116b557506001546040516331a9108f60e11b81526004810183905233916001600160a01b031690636352211e9060240160206040518083038186803b15801561167257600080fd5b505afa158015611686573d6000803e3d6000fd5b505050506040513d601f19601f820116820180604052508101906116aa9190611f6d565b6001600160a01b0316145b6040518060400160405280600381526020016223292160e91b815250906116ef5760405162461bcd60e51b81526004016104419190611b83565b5050565b6000763d602d80600a3d3981f3363d3d373d3d3d363d730000008360601b60e81c176000526e5af43d82803e903d91602b57fd5bf38360781b1760205281603760096000f590506001600160a01b0381166103ec5760405162461bcd60e51b815260206004820152601760248201527f455243313136373a2063726561746532206661696c65640000000000000000006044820152606401610441565b82805461179c90611c62565b90600052602060002090601f0160209004810192826117be576000855561180b565b82601f106117cf578054855561180b565b8280016001018555821561180b57600052602060002091601f016020900482015b8281111561180b5782548255916001019190600101906117f0565b506118179291506118c9565b5090565b50805461182790611c62565b6000825580601f10611837575050565b601f016020900490600052602060002090810190610f3491906118c9565b82805461186190611c62565b90600052602060002090601f016020900481019282611883576000855561180b565b82601f1061189c57805160ff191683800117855561180b565b8280016001018555821561180b579182015b8281111561180b5782518255916020019190600101906118ae565b5b8082111561181757600081556001016118ca565b6000602082840312156118f057600080fd5b81356001600160e01b03198116811461190857600080fd5b9392505050565b634e487b7160e01b600052604160045260246000fd5b604051601f8201601f1916810167ffffffffffffffff8111828210171561194e5761194e61190f565b604052919050565b6001600160a01b0381168114610f3457600080fd5b60006060828403121561197d57600080fd5b6040516060810181811067ffffffffffffffff821117156119a0576119a061190f565b60405282356119ae81611956565b815260208301356119be81611956565b602082015260408301356119d181611956565b60408201529392505050565b6000602082840312156119ef57600080fd5b5035919050565b6000808284036040811215611a0a57600080fd5b833592506020601f1982011215611a2057600080fd5b506020830190509250929050565b8035611a3981611956565b919050565b803562ffffff81168114611a3957600080fd5b60008060008060808587031215611a6757600080fd5b843567ffffffffffffffff80821115611a7f57600080fd5b818701915087601f830112611a9357600080fd5b8135602082821115611aa757611aa761190f565b8160051b9250611ab8818401611925565b828152928401810192818101908b851115611ad257600080fd5b948201945b84861015611afc5785359350611aec84611956565b8382529482019490820190611ad7565b9850611b0b9050898201611a2e565b965050505050611b1d60408601611a3e565b9150611b2b60608601611a2e565b905092959194509250565b6000815180845260005b81811015611b5c57602081850181015186830182015201611b40565b81811115611b6e576000602083870101525b50601f01601f19169290920160200192915050565b6020815260006119086020830184611b36565b606081016103ec828480516001600160a01b03908116835260208083015182169084015260409182015116910152565b600060408284031215611bd857600080fd5b50919050565b600060208284031215611bf057600080fd5b5051919050565b634e487b7160e01b600052601160045260246000fd5b60008219821115611c2057611c20611bf7565b500190565b60808101611c55828580516001600160a01b03908116835260208083015182169084015260409182015116910152565b8260608301529392505050565b600181811c90821680611c7657607f821691505b60208210811415611bd857634e487b7160e01b600052602260045260246000fd5b63ffffffff81168114610f3457600080fd5b600060208284031215611cbb57600080fd5b6040516020810181811067ffffffffffffffff82111715611cde57611cde61190f565b6040528251611cec81611c97565b81529392505050565b600060208284031215611d0757600080fd5b813561190881611c97565b602081018235611d2181611c97565b63ffffffff16909152919050565b604081018335611d3e81611c97565b63ffffffff168252602090910191909152919050565b600081518084526020808501945080840160005b83811015611d8d5781516001600160a01b031687529582019590820190600101611d68565b509495945050505050565b848152608060208201526000611db16080830186611d54565b62ffffff949094166040830152506001600160a01b039190911660609091015292915050565b60a081526000611dea60a0830188611d54565b8281036020840152611dfc8188611b36565b6001600160a01b03968716604085015294909516606083015250608001529392505050565b600060408284031215611e3357600080fd5b6040516040810181811067ffffffffffffffff82111715611e5657611e5661190f565b6040528251611e6481611956565b81526020830151611e7481611956565b60208201529392505050565b600060208284031215611e9257600080fd5b813561190881611956565b8035611ea881611956565b6001600160a01b039081168352602082013590611ec482611956565b808216602085015250505050565b604081016103ec8284611e9d565b60608101611eee8285611e9d565b8260408301529392505050565b600060208284031215611f0d57600080fd5b8151801515811461190857600080fd5b6000816000190483118215151615611f3757611f37611bf7565b500290565b634e487b7160e01b600052603260045260246000fd5b6000600019821415611f6657611f66611bf7565b5060010190565b600060208284031215611f7f57600080fd5b81516119088161195656fea2646970667358221220fcd23f0b8954f54914188494ef9eb2dbdc05f26075c39384c6643726c0a6423564736f6c63430008090033",
    "linkReferences": {}
  },
  "methodIdentifiers": {
    "commitDelayedProtocolParams()": "98347a5d",
    "commitDelayedStrategyParams(uint256)": "0bdedd56",
    "commitInternalParams()": "d4a07d34",
    "contractName()": "75d0c0dc",
    "contractNameBytes()": "0e3e80ac",
    "contractVersion()": "a0a8e460",
    "contractVersionBytes()": "06a46239",
    "createVault(address[],address,uint24,address)": "66c153e9",
    "delayedProtocolParams()": "d34cc380",
    "delayedProtocolParamsTimestamp()": "e4af6e79",
    "delayedProtocolPerVaultParamsTimestamp(uint256)": "511ce798",
    "delayedStrategyParams(uint256)": "8860d248",
    "delayedStrategyParamsTimestamp(uint256)": "6707acee",
    "internalParams()": "7ac46fbb",
    "internalParamsTimestamp()": "1c7f4c73",
    "stageDelayedProtocolParams((address,address))": "b2fe31ad",
    "stageDelayedStrategyParams(uint256,(uint32))": "25281714",
    "stageInternalParams((address,address,address))": "09946538",
    "stagedDelayedProtocolParams()": "c2cbdc67",
    "stagedDelayedStrategyParams(uint256)": "59f3dae7",
    "stagedInternalParams()": "86c6be3e",
    "supportsInterface(bytes4)": "01ffc9a7"
  },
  "id": 475
}