{
  "abi": [
    {
      "inputs": [
        {
          "internalType": "contract IUniswapV2Factory",
          "name": "factory_",
          "type": "address"
        }
      ],
      "stateMutability": "nonpayable",
      "type": "constructor"
    },
    {
      "inputs": [],
      "name": "contractName",
      "outputs": [
        {
          "internalType": "string",
          "name": "",
          "type": "string"
        }
      ],
      "stateMutability": "pure",
      "type": "function"
    },
    {
      "inputs": [],
      "name": "contractNameBytes",
      "outputs": [
        {
          "internalType": "bytes32",
          "name": "",
          "type": "bytes32"
        }
      ],
      "stateMutability": "pure",
      "type": "function"
    },
    {
      "inputs": [],
      "name": "contractVersion",
      "outputs": [
        {
          "internalType": "string",
          "name": "",
          "type": "string"
        }
      ],
      "stateMutability": "pure",
      "type": "function"
    },
    {
      "inputs": [],
      "name": "contractVersionBytes",
      "outputs": [
        {
          "internalType": "bytes32",
          "name": "",
          "type": "bytes32"
        }
      ],
      "stateMutability": "pure",
      "type": "function"
    },
    {
      "inputs": [],
      "name": "factory",
      "outputs": [
        {
          "internalType": "contract IUniswapV2Factory",
          "name": "",
          "type": "address"
        }
      ],
      "stateMutability": "view",
      "type": "function"
    },
    {
      "inputs": [
        {
          "internalType": "address",
          "name": "token0",
          "type": "address"
        },
        {
          "internalType": "address",
          "name": "token1",
          "type": "address"
        },
        {
          "internalType": "uint256",
          "name": "safetyIndicesSet",
          "type": "uint256"
        }
      ],
      "name": "priceX96",
      "outputs": [
        {
          "internalType": "uint256[]",
          "name": "pricesX96",
          "type": "uint256[]"
        },
        {
          "internalType": "uint256[]",
          "name": "safetyIndices",
          "type": "uint256[]"
        }
      ],
      "stateMutability": "view",
      "type": "function"
    },
    {
      "inputs": [],
      "name": "safetyIndex",
      "outputs": [
        {
          "internalType": "uint8",
          "name": "",
          "type": "uint8"
        }
      ],
      "stateMutability": "view",
      "type": "function"
    },
    {
      "inputs": [
        {
          "internalType": "bytes4",
          "name": "interfaceId",
          "type": "bytes4"
        }
      ],
      "name": "supportsInterface",
      "outputs": [
        {
          "internalType": "bool",
          "name": "",
          "type": "bool"
        }
      ],
      "stateMutability": "view",
      "type": "function"
    }
  ],
  "bytecode": {
    "object": "0x60a060405234801561001057600080fd5b5060405161083d38038061083d83398101604081905261002f91610040565b6001600160a01b0316608052610070565b60006020828403121561005257600080fd5b81516001600160a01b038116811461006957600080fd5b9392505050565b6080516107ab61009260003960008181610124015261021601526107ab6000f3fe608060405234801561001057600080fd5b50600436106100885760003560e01c806375d0c0dc1161005b57806375d0c0dc14610102578063a0a8e46014610117578063c45a01551461011f578063e312650b1461015e57600080fd5b806301ffc9a71461008d57806306a46239146100b55780630e3e80ac146100cd5780636d80125b146100e1575b600080fd5b6100a061009b36600461056c565b610178565b60405190151581526020015b60405180910390f35b640312e302e360dc1b5b6040519081526020016100ac565b6a556e6956324f7261636c6560a81b6100bf565b6100f46100ef3660046105ae565b6101b4565b6040516100ac92919061062a565b61010a610420565b6040516100ac9190610658565b61010a610439565b6101467f000000000000000000000000000000000000000000000000000000000000000081565b6040516001600160a01b0390911681526020016100ac565b610166600181565b60405160ff90911681526020016100ac565b60006301ffc9a760e01b6001600160e01b0319831614806101a957506313a4322f60e11b6001600160e01b03198316145b92915050565b905090565b6060806000846001600160a01b0316866001600160a01b031611156101da575092939260015b600184811c8116146101ec5750610418565b60405163e6a4390560e01b81526001600160a01b03878116600483015286811660248301526000917f00000000000000000000000000000000000000000000000000000000000000009091169063e6a439059060440160206040518083038186803b15801561025a57600080fd5b505afa15801561026e573d6000803e3d6000fd5b505050506040513d601f19601f8201168201806040525081019061029291906106ad565b90506001600160a01b0381166102a9575050610418565b600080826001600160a01b0316630902f1ac6040518163ffffffff1660e01b815260040160606040518083038186803b1580156102e557600080fd5b505afa1580156102f9573d6000803e3d6000fd5b505050506040513d601f19601f8201168201806040525081019061031d91906106e6565b5060408051600180825281830190925292945090925060208083019080368337505060408051600180825281830190925292985090506020808301908036833701905050945083156103ae5761038a826001600160701b0316600160601b836001600160701b031661044c565b8660008151811061039d5761039d610736565b6020026020010181815250506103ef565b6103cf816001600160701b0316600160601b846001600160701b031661044c565b866000815181106103e2576103e2610736565b6020026020010181815250505b600160ff168560008151811061040757610407610736565b602002602001018181525050505050505b935093915050565b60606101af6a556e6956324f7261636c6560a81b610500565b60606101af640312e302e360dc1b610500565b600080806000198587098587029250828110838203039150508060001415610486576000841161047b57600080fd5b5082900490506104f9565b80841161049257600080fd5b6000848688096000868103871696879004966002600389028118808a02820302808a02820302808a02820302808a02820302808a02820302808a02909103029181900381900460010186841190950394909402919094039290920491909117919091029150505b9392505050565b604080516020808252818301909252606091602082018180368337019050509050602060005b602081101561055e5783816020811061054157610541610736565b1a61054e5780915061055e565b6105578161074c565b9050610526565b508152602081019190915290565b60006020828403121561057e57600080fd5b81356001600160e01b0319811681146104f957600080fd5b6001600160a01b03811681146105ab57600080fd5b50565b6000806000606084860312156105c357600080fd5b83356105ce81610596565b925060208401356105de81610596565b929592945050506040919091013590565b600081518084526020808501945080840160005b8381101561061f57815187529582019590820190600101610603565b509495945050505050565b60408152600061063d60408301856105ef565b828103602084015261064f81856105ef565b95945050505050565b600060208083528351808285015260005b8181101561068557858101830151858201604001528201610669565b81811115610697576000604083870101525b50601f01601f1916929092016040019392505050565b6000602082840312156106bf57600080fd5b81516104f981610596565b80516001600160701b03811681146106e157600080fd5b919050565b6000806000606084860312156106fb57600080fd5b610704846106ca565b9250610712602085016106ca565b9150604084015163ffffffff8116811461072b57600080fd5b809150509250925092565b634e487b7160e01b600052603260045260246000fd5b600060001982141561076e57634e487b7160e01b600052601160045260246000fd5b506001019056fea264697066735822122051196d6ae4dfa333374a3cc3d10886fb217d7d7088d5300acfcd84dfcf32ced864736f6c63430008090033",
    "linkReferences": {}
  },
  "methodIdentifiers": {
    "contractName()": "75d0c0dc",
    "contractNameBytes()": "0e3e80ac",
    "contractVersion()": "a0a8e460",
    "contractVersionBytes()": "06a46239",
    "factory()": "c45a0155",
    "priceX96(address,address,uint256)": "6d80125b",
    "safetyIndex()": "e312650b",
    "supportsInterface(bytes4)": "01ffc9a7"
  },
  "id": 385
}