{
  "abi": [
    {
      "inputs": [
        {
          "internalType": "contract IAlgebraNonfungiblePositionManager",
          "name": "positionManager_",
          "type": "address"
        },
        {
          "internalType": "address",
          "name": "token0_",
          "type": "address"
        },
        {
          "internalType": "address",
          "name": "token1_",
          "type": "address"
        }
      ],
      "stateMutability": "nonpayable",
      "type": "constructor"
    },
    {
      "inputs": [],
      "name": "Q128",
      "outputs": [
        {
          "internalType": "uint256",
          "name": "",
          "type": "uint256"
        }
      ],
      "stateMutability": "view",
      "type": "function"
    },
    {
      "inputs": [],
      "name": "Q96",
      "outputs": [
        {
          "internalType": "uint256",
          "name": "",
          "type": "uint256"
        }
      ],
      "stateMutability": "view",
      "type": "function"
    },
    {
      "inputs": [
        {
          "internalType": "uint256",
          "name": "nft",
          "type": "uint256"
        },
        {
          "internalType": "uint160",
          "name": "sqrtRatioX96",
          "type": "uint160"
        },
        {
          "internalType": "uint256[]",
          "name": "tokenAmounts",
          "type": "uint256[]"
        }
      ],
      "name": "calculateLiquidityToPull",
      "outputs": [
        {
          "internalType": "uint128",
          "name": "liquidity",
          "type": "uint128"
        }
      ],
      "stateMutability": "view",
      "type": "function"
    },
    {
      "inputs": [
        {
          "internalType": "uint256",
          "name": "nft",
          "type": "uint256"
        }
      ],
      "name": "calculateTvl",
      "outputs": [
        {
          "internalType": "uint256[]",
          "name": "tokenAmounts",
          "type": "uint256[]"
        }
      ],
      "stateMutability": "view",
      "type": "function"
    },
    {
      "inputs": [],
      "name": "factory",
      "outputs": [
        {
          "internalType": "contract IAlgebraFactory",
          "name": "",
          "type": "address"
        }
      ],
      "stateMutability": "view",
      "type": "function"
    },
    {
      "inputs": [
        {
          "internalType": "uint256",
          "name": "nft",
          "type": "uint256"
        },
        {
          "internalType": "uint160",
          "name": "sqrtRatioX96",
          "type": "uint160"
        },
        {
          "internalType": "uint128",
          "name": "liquidity",
          "type": "uint128"
        }
      ],
      "name": "liquidityToTokenAmounts",
      "outputs": [
        {
          "internalType": "uint256",
          "name": "amount0",
          "type": "uint256"
        },
        {
          "internalType": "uint256",
          "name": "amount1",
          "type": "uint256"
        }
      ],
      "stateMutability": "view",
      "type": "function"
    },
    {
      "inputs": [],
      "name": "pool",
      "outputs": [
        {
          "internalType": "contract IAlgebraPool",
          "name": "",
          "type": "address"
        }
      ],
      "stateMutability": "view",
      "type": "function"
    },
    {
      "inputs": [],
      "name": "positionManager",
      "outputs": [
        {
          "internalType": "contract IAlgebraNonfungiblePositionManager",
          "name": "",
          "type": "address"
        }
      ],
      "stateMutability": "view",
      "type": "function"
    },
    {
      "inputs": [],
      "name": "token0",
      "outputs": [
        {
          "internalType": "address",
          "name": "",
          "type": "address"
        }
      ],
      "stateMutability": "view",
      "type": "function"
    },
    {
      "inputs": [],
      "name": "token1",
      "outputs": [
        {
          "internalType": "address",
          "name": "",
          "type": "address"
        }
      ],
      "stateMutability": "view",
      "type": "function"
    },
    {
      "inputs": [
        {
          "internalType": "uint256",
          "name": "nft",
          "type": "uint256"
        },
        {
          "internalType": "uint160",
          "name": "sqrtRatioX96",
          "type": "uint160"
        },
        {
          "internalType": "uint256[]",
          "name": "amounts",
          "type": "uint256[]"
        }
      ],
      "name": "tokenAmountsToLiquidity",
      "outputs": [
        {
          "internalType": "uint128",
          "name": "liquidity",
          "type": "uint128"
        }
      ],
      "stateMutability": "view",
      "type": "function"
    },
    {
      "inputs": [
        {
          "internalType": "uint256",
          "name": "nft",
          "type": "uint256"
        },
        {
          "internalType": "uint160",
          "name": "sqrtRatioX96",
          "type": "uint160"
        },
        {
          "internalType": "uint256[]",
          "name": "amounts",
          "type": "uint256[]"
        }
      ],
      "name": "tokenAmountsToMaxLiquidity",
      "outputs": [
        {
          "internalType": "uint128",
          "name": "liquidity",
          "type": "uint128"
        }
      ],
      "stateMutability": "view",
      "type": "function"
    }
  ],
  "bytecode": {
    "object": "0x6101206040523480156200001257600080fd5b5060405162001ea538038062001ea5833981016040819052620000359162000192565b6001600160a01b0383166200004957600080fd5b6001600160a01b03831660808190526040805163c45a015560e01b8152905163c45a015591600480820192602092909190829003018186803b1580156200008f57600080fd5b505afa158015620000a4573d6000803e3d6000fd5b505050506040513d601f19601f82011682018060405250810190620000ca9190620001e6565b6001600160a01b0390811660a081905283821660c081905291831660e081905260405163d9a641e160e01b8152600481019390935260248301529063d9a641e19060440160206040518083038186803b1580156200012757600080fd5b505afa1580156200013c573d6000803e3d6000fd5b505050506040513d601f19601f82011682018060405250810190620001629190620001e6565b6001600160a01b031661010052506200020d915050565b6001600160a01b03811681146200018f57600080fd5b50565b600080600060608486031215620001a857600080fd5b8351620001b58162000179565b6020850151909350620001c88162000179565b6040850151909250620001db8162000179565b809150509250925092565b600060208284031215620001f957600080fd5b8151620002068162000179565b9392505050565b60805160a05160c05160e05161010051611c2a6200027b600039600081816101220152610285015260006102210152600060be015260006101fa01526000818161018d01528181610357015281816103c6015281816105850152818161069201526107950152611c2a6000f3fe608060405234801561001057600080fd5b50600436106100b45760003560e01c806385b286571161007157806385b28657146101af578063b4b15f71146101c2578063b5ce1db9146101cd578063c45a0155146101f5578063d21220a71461021c578063e5573ac21461024357600080fd5b80630dfe1681146100b957806312f579b9146100fd57806316f0115b1461011d578063407924651461014457806369272a6b1461015d578063791b98bc14610188575b600080fd5b6100e07f000000000000000000000000000000000000000000000000000000000000000081565b6040516001600160a01b0390911681526020015b60405180910390f35b61011061010b366004611692565b610256565b6040516100f491906116ab565b6100e07f000000000000000000000000000000000000000000000000000000000000000081565b61014f600160601b81565b6040519081526020016100f4565b61017061016b36600461171d565b6103bf565b6040516001600160801b0390911681526020016100f4565b6100e07f000000000000000000000000000000000000000000000000000000000000000081565b6101706101bd36600461171d565b61057e565b61014f600160801b81565b6101e06101db36600461180e565b61068a565b604080519283526020830191909152016100f4565b6100e07f000000000000000000000000000000000000000000000000000000000000000081565b6100e07f000000000000000000000000000000000000000000000000000000000000000081565b61017061025136600461171d565b610772565b6060816102815760408051600280825260608201835290916020830190803683370190505092915050565b60007f00000000000000000000000000000000000000000000000000000000000000006001600160a01b031663e76c01e46040518163ffffffff1660e01b815260040160e06040518083038186803b1580156102dc57600080fd5b505afa1580156102f0573d6000803e3d6000fd5b505050506040513d601f19601f820116820180604052508101906103149190611884565b50949550600294506103269350505050565b60405190808252806020026020018201604052801561034f578160200160208202803683370190505b50915061037d7f00000000000000000000000000000000000000000000000000000000000000008483610853565b8360008151811061039057610390611914565b60200260200101846001815181106103aa576103aa611914565b60209081029190910101919091525250919050565b60008060007f00000000000000000000000000000000000000000000000000000000000000006001600160a01b03166399fbab88876040518263ffffffff1660e01b815260040161041291815260200190565b6101606040518083038186803b15801561042b57600080fd5b505afa15801561043f573d6000803e3d6000fd5b505050506040513d601f19601f820116820180604052508101906104639190611940565b50505050509550955050505050600061047b8361089e565b905060006104888361089e565b9050816001600160a01b0316876001600160a01b0316116104cf576104c88282886000815181106104bb576104bb611914565b6020026020010151610cbf565b9450610573565b806001600160a01b0316876001600160a01b031610156105585760006105038883896000815181106104bb576104bb611914565b9050600061052c848a8a60018151811061051f5761051f611914565b6020026020010151610d30565b9050806001600160801b0316826001600160801b03161161054d578061054f565b815b96505050610573565b61057082828860018151811061051f5761051f611914565b94505b505050509392505050565b60008060007f00000000000000000000000000000000000000000000000000000000000000006001600160a01b03166399fbab88876040518263ffffffff1660e01b81526004016105d191815260200190565b6101606040518083038186803b1580156105ea57600080fd5b505afa1580156105fe573d6000803e3d6000fd5b505050506040513d601f19601f820116820180604052508101906106229190611940565b50505050509550955050505050600061063a8361089e565b905060006106478361089e565b90506105708783838960008151811061066257610662611914565b60200260200101518a60018151811061067d5761067d611914565b6020026020010151610d66565b6000806000807f00000000000000000000000000000000000000000000000000000000000000006001600160a01b03166399fbab88886040518263ffffffff1660e01b81526004016106de91815260200190565b6101606040518083038186803b1580156106f757600080fd5b505afa15801561070b573d6000803e3d6000fd5b505050506040513d601f19601f8201168201806040525081019061072f9190611940565b5050505050955095505050505060006107478361089e565b905060006107548361089e565b90506107628883838a610e28565b909a909950975050505050505050565b60405163133f757160e31b81526004810184905260009081906001600160a01b037f000000000000000000000000000000000000000000000000000000000000000016906399fbab88906024016101606040518083038186803b1580156107d857600080fd5b505afa1580156107ec573d6000803e3d6000fd5b505050506040513d601f19601f820116820180604052508101906108109190611940565b5050505096505050505050506108278585856103bf565b9150806001600160801b0316826001600160801b031610610848578061084a565b815b95945050505050565b600080600080610864878787610ec4565b915091506000806108758989610f84565b90925090506108848285611a2c565b61088e8285611a2c565b9550955050505050935093915050565b60008060008360020b126108b5578260020b6108c2565b8260020b6108c290611a44565b90506108d1620d89e719611a61565b60020b81111561090b5760405162461bcd60e51b81526020600482015260016024820152601560fa1b604482015260640160405180910390fd5b60006001821661091f57600160801b610931565b6ffffcb933bd6fad37aa2d162d1a5940015b70ffffffffffffffffffffffffffffffffff169050600282161561097057608061096b826ffff97272373d413259a46990580e213a611a84565b901c90505b600482161561099a576080610995826ffff2e50f5f656932ef12357cf3c7fdcc611a84565b901c90505b60088216156109c45760806109bf826fffe5caca7e10e4e61c3624eaa0941cd0611a84565b901c90505b60108216156109ee5760806109e9826fffcb9843d60f6159c9db58835c926644611a84565b901c90505b6020821615610a18576080610a13826fff973b41fa98c081472e6896dfb254c0611a84565b901c90505b6040821615610a42576080610a3d826fff2ea16466c96a3843ec78b326b52861611a84565b901c90505b6080821615610a6c576080610a67826ffe5dee046a99a2a811c461f1969c3053611a84565b901c90505b610100821615610a97576080610a92826ffcbe86c7900a88aedcffc83b479aa3a4611a84565b901c90505b610200821615610ac2576080610abd826ff987a7253ac413176f2b074cf7815e54611a84565b901c90505b610400821615610aed576080610ae8826ff3392b0822b70005940c7a398e4b70f3611a84565b901c90505b610800821615610b18576080610b13826fe7159475a2c29b7443b29c7fa6e889d9611a84565b901c90505b611000821615610b43576080610b3e826fd097f3bdfd2022b8845ad8f792aa5825611a84565b901c90505b612000821615610b6e576080610b69826fa9f746462d870fdf8a65dc1f90e061e5611a84565b901c90505b614000821615610b99576080610b94826f70d869a156d2a1b890bb3df62baf32f7611a84565b901c90505b618000821615610bc4576080610bbf826f31be135f97d08fd981231505542fcfa6611a84565b901c90505b62010000821615610bf0576080610beb826f09aa508b5b7a84e1c677de54f3e99bc9611a84565b901c90505b62020000821615610c1b576080610c16826e5d6af8dedb81196699c329225ee604611a84565b901c90505b62040000821615610c45576080610c40826d2216e584f5fa1ea926041bedfe98611a84565b901c90505b62080000821615610c6d576080610c68826b048a170391f7dc42444e8fa2611a84565b901c90505b60008460020b1315610c8857610c8581600019611ab9565b90505b610c9764010000000082611acd565b15610ca3576001610ca6565b60005b610cb79060ff16602083901c611a2c565b949350505050565b6000826001600160a01b0316846001600160a01b03161115610cdf579192915b6000610d02856001600160a01b0316856001600160a01b0316600160601b6110b8565b905061084a610d248483610d168989611ae1565b6001600160a01b03166110b8565b61116b565b9392505050565b6000826001600160a01b0316846001600160a01b03161115610d50579192915b610cb7610d2483600160601b610d168888611ae1565b6000836001600160a01b0316856001600160a01b03161115610d86579293925b846001600160a01b0316866001600160a01b031611610db157610daa858585610cbf565b905061084a565b836001600160a01b0316866001600160a01b03161015610e13576000610dd8878686610cbf565b90506000610de7878986610d30565b9050806001600160801b0316826001600160801b031610610e085780610e0a565b815b9250505061084a565b610e1e858584610d30565b9695505050505050565b600080836001600160a01b0316856001600160a01b03161115610e49579293925b846001600160a01b0316866001600160a01b031611610e7457610e6d858585611186565b9150610ebb565b836001600160a01b0316866001600160a01b03161015610ead57610e99868585611186565b9150610ea68587856111f9565b9050610ebb565b610eb88585856111f9565b90505b94509492505050565b6000806000806000876001600160a01b03166399fbab88886040518263ffffffff1660e01b8152600401610efa91815260200190565b6101606040518083038186803b158015610f1357600080fd5b505afa158015610f27573d6000803e3d6000fd5b505050506040513d601f19601f82011682018060405250810190610f4b9190611940565b5050505096509650965050505050610f7586610f668561089e565b610f6f8561089e565b84610e28565b94509450505050935093915050565b60008060008060008060008060008060008c6001600160a01b03166399fbab888d6040518263ffffffff1660e01b8152600401610fc391815260200190565b6101606040518083038186803b158015610fdc57600080fd5b505afa158015610ff0573d6000803e3d6000fd5b505050506040513d601f19601f820116820180604052508101906110149190611940565b6001600160801b03169a506001600160801b03169a509a509a509a509a509a509a509a5050506110a48d6040518061012001604052808c6001600160a01b031681526020018b6001600160a01b031681526020018a60020b81526020018960020b8152602001886001600160801b0316815260200187815260200186815260200185815260200184815250611243565b9a509a505050505050505050509250929050565b6000808060001985870985870292508281108382030391505080600014156110f257600084116110e757600080fd5b508290049050610d29565b8084116110fe57600080fd5b6000848688096000868103871696879004966002600389028118808a02820302808a02820302808a02820302808a02820302808a02820302808a02909103029181900381900460010186841190950394909402919094039290920491909117919091029150509392505050565b806001600160801b038116811461118157600080fd5b919050565b6000826001600160a01b0316846001600160a01b031611156111a6579192915b6001600160a01b0384166111ef6fffffffffffffffffffffffffffffffff60601b606085901b166111d78787611ae1565b6001600160a01b0316866001600160a01b03166110b8565b610cb79190611ab9565b6000826001600160a01b0316846001600160a01b03161115611219579192915b610cb76001600160801b0383166112308686611ae1565b6001600160a01b0316600160601b6110b8565b600080600080611354866001600160a01b031663c45a01556040518163ffffffff1660e01b815260040160206040518083038186803b15801561128557600080fd5b505afa158015611299573d6000803e3d6000fd5b505050506040513d601f19601f820116820180604052508101906112bd9190611b09565b8651602088015160405163d9a641e160e01b81526001600160a01b039283166004820152908216602482015291169063d9a641e19060440160206040518083038186803b15801561130d57600080fd5b505afa158015611321573d6000803e3d6000fd5b505050506040513d601f19601f820116820180604052508101906113459190611b09565b866040015187606001516113b6565b915091508460e0015161137f8660a00151840387608001516001600160801b0316600160801b6110b8565b0193508461010001516113aa8660c00151830387608001516001600160801b0316600160801b6110b8565b01925050509250929050565b6000806000856001600160a01b031663e76c01e46040518163ffffffff1660e01b815260040160e06040518083038186803b1580156113f457600080fd5b505afa158015611408573d6000803e3d6000fd5b505050506040513d601f19601f8201168201806040525081019061142c9190611884565b505060405163f30dba9360e01b815260028b900b60048201529395506000945084936001600160a01b038c16935063f30dba93925060240190506101206040518083038186803b15801561147f57600080fd5b505afa158015611493573d6000803e3d6000fd5b505050506040513d601f19601f820116820180604052508101906114b79190611b26565b505060405163f30dba9360e01b815260028e900b60048201529498509296506000955085945050506001600160a01b038c169163f30dba9391506024016101206040518083038186803b15801561150d57600080fd5b505afa158015611521573d6000803e3d6000fd5b505050506040513d601f19601f820116820180604052508101906115459190611b26565b50505050509350935050508860020b8560020b121561156d5781840396508083039550611685565b8760020b8560020b121561167a5760008a6001600160a01b0316636378ae446040518163ffffffff1660e01b815260040160206040518083038186803b1580156115b657600080fd5b505afa1580156115ca573d6000803e3d6000fd5b505050506040513d601f19601f820116820180604052508101906115ee9190611bdb565b905060008b6001600160a01b031663ecdecf426040518163ffffffff1660e01b815260040160206040518083038186803b15801561162b57600080fd5b505afa15801561163f573d6000803e3d6000fd5b505050506040513d601f19601f820116820180604052508101906116639190611bdb565b905083868303039850828582030397505050611685565b838203965082810395505b5050505050935093915050565b6000602082840312156116a457600080fd5b5035919050565b6020808252825182820181905260009190848201906040850190845b818110156116e3578351835292840192918401916001016116c7565b50909695505050505050565b6001600160a01b038116811461170457600080fd5b50565b634e487b7160e01b600052604160045260246000fd5b60008060006060848603121561173257600080fd5b83359250602080850135611745816116ef565b9250604085013567ffffffffffffffff8082111561176257600080fd5b818701915087601f83011261177657600080fd5b81358181111561178857611788611707565b8060051b604051601f19603f830116810181811085821117156117ad576117ad611707565b60405291825284820192508381018501918a8311156117cb57600080fd5b938501935b828510156117e9578435845293850193928501926117d0565b8096505050505050509250925092565b6001600160801b038116811461170457600080fd5b60008060006060848603121561182357600080fd5b833592506020840135611835816116ef565b91506040840135611845816117f9565b809150509250925092565b8051600281900b811461118157600080fd5b805161ffff8116811461118157600080fd5b8051801515811461118157600080fd5b600080600080600080600060e0888a03121561189f57600080fd5b87516118aa816116ef565b96506118b860208901611850565b95506118c660408901611850565b94506118d460608901611862565b93506118e260808901611862565b925060a088015160ff811681146118f857600080fd5b915061190660c08901611874565b905092959891949750929550565b634e487b7160e01b600052603260045260246000fd5b8051611181816116ef565b8051611181816117f9565b60008060008060008060008060008060006101608c8e03121561196257600080fd5b8b516affffffffffffffffffffff8116811461197d57600080fd5b60208d0151909b5061198e816116ef565b60408d0151909a5061199f816116ef565b98506119ad60608d0161192a565b97506119bb60808d01611850565b96506119c960a08d01611850565b95506119d760c08d01611935565b945060e08c015193506101008c015192506119f56101208d01611935565b9150611a046101408d01611935565b90509295989b509295989b9093969950565b634e487b7160e01b600052601160045260246000fd5b60008219821115611a3f57611a3f611a16565b500190565b6000600160ff1b821415611a5a57611a5a611a16565b5060000390565b60008160020b627fffff19811415611a7b57611a7b611a16565b60000392915050565b6000816000190483118215151615611a9e57611a9e611a16565b500290565b634e487b7160e01b600052601260045260246000fd5b600082611ac857611ac8611aa3565b500490565b600082611adc57611adc611aa3565b500690565b60006001600160a01b0383811690831681811015611b0157611b01611a16565b039392505050565b600060208284031215611b1b57600080fd5b8151610d29816116ef565b60008060008060008060008060006101208a8c031215611b4557600080fd5b8951611b50816117f9565b8099505060208a015180600f0b8114611b6857600080fd5b60408b015160608c015191995097509550611b8560808b01611850565b9450611b9360a08b01611850565b935060c08a0151611ba3816116ef565b60e08b015190935063ffffffff81168114611bbd57600080fd5b9150611bcc6101008b01611874565b90509295985092959850929598565b600060208284031215611bed57600080fd5b505191905056fea26469706673582212208d91e1c2af37287f6a6cc2010de5ae7266ade51e07458699d30b8bc75b03471864736f6c63430008090033",
    "linkReferences": {}
  },
  "methodIdentifiers": {
    "Q128()": "b4b15f71",
    "Q96()": "40792465",
    "calculateLiquidityToPull(uint256,uint160,uint256[])": "e5573ac2",
    "calculateTvl(uint256)": "12f579b9",
    "factory()": "c45a0155",
    "liquidityToTokenAmounts(uint256,uint160,uint128)": "b5ce1db9",
    "pool()": "16f0115b",
    "positionManager()": "791b98bc",
    "token0()": "0dfe1681",
    "token1()": "d21220a7",
    "tokenAmountsToLiquidity(uint256,uint160,uint256[])": "85b28657",
    "tokenAmountsToMaxLiquidity(uint256,uint160,uint256[])": "69272a6b"
  },
  "id": 408
}