{
  "abi": [
    {
      "anonymous": false,
      "inputs": [
        {
          "indexed": true,
          "internalType": "address",
          "name": "origin",
          "type": "address"
        },
        {
          "indexed": true,
          "internalType": "address",
          "name": "sender",
          "type": "address"
        },
        {
          "indexed": false,
          "internalType": "address[]",
          "name": "vaultTokens_",
          "type": "address[]"
        },
        {
          "indexed": false,
          "internalType": "uint256",
          "name": "nft_",
          "type": "uint256"
        }
      ],
      "name": "Initialized",
      "type": "event"
    },
    {
      "inputs": [
        {
          "internalType": "uint256",
          "name": "nft_",
          "type": "uint256"
        }
      ],
      "name": "hasSubvault",
      "outputs": [
        {
          "internalType": "bool",
          "name": "",
          "type": "bool"
        }
      ],
      "stateMutability": "view",
      "type": "function"
    },
    {
      "inputs": [],
      "name": "initialized",
      "outputs": [
        {
          "internalType": "bool",
          "name": "",
          "type": "bool"
        }
      ],
      "stateMutability": "view",
      "type": "function"
    },
    {
      "inputs": [
        {
          "internalType": "address",
          "name": "token",
          "type": "address"
        }
      ],
      "name": "isVaultToken",
      "outputs": [
        {
          "internalType": "bool",
          "name": "",
          "type": "bool"
        }
      ],
      "stateMutability": "view",
      "type": "function"
    },
    {
      "inputs": [],
      "name": "nft",
      "outputs": [
        {
          "internalType": "uint256",
          "name": "",
          "type": "uint256"
        }
      ],
      "stateMutability": "view",
      "type": "function"
    },
    {
      "inputs": [],
      "name": "pullExistentials",
      "outputs": [
        {
          "internalType": "uint256[]",
          "name": "",
          "type": "uint256[]"
        }
      ],
      "stateMutability": "view",
      "type": "function"
    },
    {
      "inputs": [
        {
          "internalType": "uint256",
          "name": "index",
          "type": "uint256"
        }
      ],
      "name": "subvaultAt",
      "outputs": [
        {
          "internalType": "address",
          "name": "",
          "type": "address"
        }
      ],
      "stateMutability": "view",
      "type": "function"
    },
    {
      "inputs": [],
      "name": "subvaultNfts",
      "outputs": [
        {
          "internalType": "uint256[]",
          "name": "",
          "type": "uint256[]"
        }
      ],
      "stateMutability": "view",
      "type": "function"
    },
    {
      "inputs": [
        {
          "internalType": "uint256",
          "name": "nft_",
          "type": "uint256"
        }
      ],
      "name": "subvaultOneBasedIndex",
      "outputs": [
        {
          "internalType": "uint256",
          "name": "",
          "type": "uint256"
        }
      ],
      "stateMutability": "view",
      "type": "function"
    },
    {
      "inputs": [
        {
          "internalType": "bytes4",
          "name": "interfaceId",
          "type": "bytes4"
        }
      ],
      "name": "supportsInterface",
      "outputs": [
        {
          "internalType": "bool",
          "name": "",
          "type": "bool"
        }
      ],
      "stateMutability": "view",
      "type": "function"
    },
    {
      "inputs": [],
      "name": "tvl",
      "outputs": [
        {
          "internalType": "uint256[]",
          "name": "minTokenAmounts",
          "type": "uint256[]"
        },
        {
          "internalType": "uint256[]",
          "name": "maxTokenAmounts",
          "type": "uint256[]"
        }
      ],
      "stateMutability": "view",
      "type": "function"
    },
    {
      "inputs": [],
      "name": "vaultGovernance",
      "outputs": [
        {
          "internalType": "contract IVaultGovernance",
          "name": "",
          "type": "address"
        }
      ],
      "stateMutability": "view",
      "type": "function"
    },
    {
      "inputs": [],
      "name": "vaultTokens",
      "outputs": [
        {
          "internalType": "address[]",
          "name": "",
          "type": "address[]"
        }
      ],
      "stateMutability": "view",
      "type": "function"
    }
  ],
  "bytecode": {
    "object": "0x608060405234801561001057600080fd5b50600019600355610cfe806100266000396000f3fe608060405234801561001057600080fd5b50600436106100b45760003560e01c80639bd0911b116100715780639bd0911b146101525780639d9fd0d91461017d5780639ddc875f1461019f578063d2c219b0146101bf578063e5328e06146101c7578063fe255a5e146101dd57600080fd5b806301ffc9a7146100b9578063158ef93e146100e1578063338c4ccb146100eb57806347ccca02146101165780636972223314610128578063791839731461013d575b600080fd5b6100cc6100c73660046108c5565b6101ee565b60405190151581526020015b60405180910390f35b60035415156100cc565b6100cc6100f9366004610907565b6001600160a01b0316600090815260026020526040902054151590565b6003545b6040519081526020016100d8565b610130610212565b6040516100d89190610924565b610145610274565b6040516100d891906109ac565b6101656101603660046109bf565b6102cb565b6040516001600160a01b0390911681526020016100d8565b6100cc61018b3660046109bf565b600090815260066020526040902054151590565b61011a6101ad3660046109bf565b60009081526006602052604090205490565b6101456103f6565b6101cf61044c565b6040516100d89291906109d8565b6000546001600160a01b0316610165565b60006101f98261088f565b8061020c57506001600160e01b03198216155b92915050565b6060600180548060200260200160405190810160405280929190818152602001828054801561026a57602002820191906000526020600020905b81546001600160a01b0316815260019091019060200180831161024c575b5050505050905090565b6060600580548060200260200160405190810160405280929190818152602001828054801561026a57602002820191906000526020600020905b8154815260200190600101908083116102ae575050505050905090565b600080600583815481106102e1576102e1610a06565b9060005260206000200154905060008054906101000a90046001600160a01b03166001600160a01b0316637ac46fbb6040518163ffffffff1660e01b815260040160606040518083038186803b15801561033a57600080fd5b505afa15801561034e573d6000803e3d6000fd5b505050506040513d601f19601f820116820180604052508101906103729190610a63565b60200151604051639c94d85360e01b8152600481018390526001600160a01b0390911690639c94d8539060240160206040518083038186803b1580156103b757600080fd5b505afa1580156103cb573d6000803e3d6000fd5b505050506040513d601f19601f820116820180604052508101906103ef9190610ad5565b9392505050565b6060600480548060200260200160405190810160405280929190818152602001828054801561026a57602002820191906000526020600020908154815260200190600101908083116102ae575050505050905090565b60608060008060009054906101000a90046001600160a01b03166001600160a01b0316637ac46fbb6040518163ffffffff1660e01b815260040160606040518083038186803b15801561049e57600080fd5b505afa1580156104b2573d6000803e3d6000fd5b505050506040513d601f19601f820116820180604052508101906104d69190610a63565b6020015190506000600180548060200260200160405190810160405280929190818152602001828054801561053457602002820191906000526020600020905b81546001600160a01b03168152600190910190602001808311610516575b50505050509050805167ffffffffffffffff81111561055557610555610a1c565b60405190808252806020026020018201604052801561057e578160200160208202803683370190505b509350805167ffffffffffffffff81111561059b5761059b610a1c565b6040519080825280602002602001820160405280156105c4578160200160208202803683370190505b50925060005b600554811015610888576000836001600160a01b0316639c94d853600584815481106105f8576105f8610a06565b90600052602060002001546040518263ffffffff1660e01b815260040161062191815260200190565b60206040518083038186803b15801561063957600080fd5b505afa15801561064d573d6000803e3d6000fd5b505050506040513d601f19601f820116820180604052508101906106719190610ad5565b9050600080826001600160a01b031663e5328e066040518163ffffffff1660e01b815260040160006040518083038186803b1580156106af57600080fd5b505afa1580156106c3573d6000803e3d6000fd5b505050506040513d6000823e601f3d908101601f191682016040526106eb9190810190610b81565b915091506000836001600160a01b031663697222336040518163ffffffff1660e01b815260040160006040518083038186803b15801561072a57600080fd5b505afa15801561073e573d6000803e3d6000fd5b505050506040513d6000823e601f3d908101601f191682016040526107669190810190610be5565b90506000805b87518110801561077c5750825182105b156108715787818151811061079357610793610a06565b60200260200101516001600160a01b03168383815181106107b6576107b6610a06565b60200260200101516001600160a01b03161415610861578482815181106107df576107df610a06565b60200260200101518b82815181106107f9576107f9610a06565b6020026020010181815161080d9190610c95565b905250835184908390811061082457610824610a06565b60200260200101518a828151811061083e5761083e610a06565b602002602001018181516108529190610c95565b90525061085e82610cad565b91505b61086a81610cad565b905061076c565b5050505050508061088190610cad565b90506105ca565b5050509091565b60006301ffc9a760e01b6001600160e01b03198316148061020c57506001600160e01b0319821663305a640b60e21b1492915050565b6000602082840312156108d757600080fd5b81356001600160e01b0319811681146103ef57600080fd5b6001600160a01b038116811461090457600080fd5b50565b60006020828403121561091957600080fd5b81356103ef816108ef565b6020808252825182820181905260009190848201906040850190845b818110156109655783516001600160a01b031683529284019291840191600101610940565b50909695505050505050565b600081518084526020808501945080840160005b838110156109a157815187529582019590820190600101610985565b509495945050505050565b6020815260006103ef6020830184610971565b6000602082840312156109d157600080fd5b5035919050565b6040815260006109eb6040830185610971565b82810360208401526109fd8185610971565b95945050505050565b634e487b7160e01b600052603260045260246000fd5b634e487b7160e01b600052604160045260246000fd5b604051601f8201601f1916810167ffffffffffffffff81118282101715610a5b57610a5b610a1c565b604052919050565b600060608284031215610a7557600080fd5b6040516060810181811067ffffffffffffffff82111715610a9857610a98610a1c565b6040528251610aa6816108ef565b81526020830151610ab6816108ef565b60208201526040830151610ac9816108ef565b60408201529392505050565b600060208284031215610ae757600080fd5b81516103ef816108ef565b600067ffffffffffffffff821115610b0c57610b0c610a1c565b5060051b60200190565b600082601f830112610b2757600080fd5b81516020610b3c610b3783610af2565b610a32565b82815260059290921b84018101918181019086841115610b5b57600080fd5b8286015b84811015610b765780518352918301918301610b5f565b509695505050505050565b60008060408385031215610b9457600080fd5b825167ffffffffffffffff80821115610bac57600080fd5b610bb886838701610b16565b93506020850151915080821115610bce57600080fd5b50610bdb85828601610b16565b9150509250929050565b60006020808385031215610bf857600080fd5b825167ffffffffffffffff811115610c0f57600080fd5b8301601f81018513610c2057600080fd5b8051610c2e610b3782610af2565b81815260059190911b82018301908381019087831115610c4d57600080fd5b928401925b82841015610c74578351610c65816108ef565b82529284019290840190610c52565b979650505050505050565b634e487b7160e01b600052601160045260246000fd5b60008219821115610ca857610ca8610c7f565b500190565b6000600019821415610cc157610cc1610c7f565b506001019056fea26469706673582212206d6e8fbfdba32e2e5edbced1d673bf41d18664d3312cfa8e43196ec49c8de84164736f6c63430008090033",
    "linkReferences": {}
  },
  "methodIdentifiers": {
    "hasSubvault(uint256)": "9d9fd0d9",
    "initialized()": "158ef93e",
    "isVaultToken(address)": "338c4ccb",
    "nft()": "47ccca02",
    "pullExistentials()": "d2c219b0",
    "subvaultAt(uint256)": "9bd0911b",
    "subvaultNfts()": "79183973",
    "subvaultOneBasedIndex(uint256)": "9ddc875f",
    "supportsInterface(bytes4)": "01ffc9a7",
    "tvl()": "e5328e06",
    "vaultGovernance()": "fe255a5e",
    "vaultTokens()": "69722233"
  },
  "id": 447
}