{
  "abi": [
    {
      "inputs": [
        {
          "components": [
            {
              "internalType": "contract IProtocolGovernance",
              "name": "protocolGovernance",
              "type": "address"
            },
            {
              "internalType": "contract IVaultRegistry",
              "name": "registry",
              "type": "address"
            },
            {
              "internalType": "contract IVault",
              "name": "singleton",
              "type": "address"
            }
          ],
          "internalType": "struct IVaultGovernance.InternalParams",
          "name": "internalParams_",
          "type": "tuple"
        },
        {
          "components": [
            {
              "internalType": "uint256",
              "name": "withdrawDelay",
              "type": "uint256"
            },
            {
              "internalType": "uint16",
              "name": "referralCode",
              "type": "uint16"
            },
            {
              "internalType": "address",
              "name": "univ3Adapter",
              "type": "address"
            },
            {
              "internalType": "address",
              "name": "crv",
              "type": "address"
            },
            {
              "internalType": "address",
              "name": "cvx",
              "type": "address"
            },
            {
              "internalType": "uint256",
              "name": "maxSlippageD9",
              "type": "uint256"
            },
            {
              "internalType": "uint256",
              "name": "maxSmallPoolsSlippageD9",
              "type": "uint256"
            },
            {
              "internalType": "uint256",
              "name": "maxCurveSlippageD9",
              "type": "uint256"
            },
            {
              "internalType": "address",
              "name": "uniswapRouter",
              "type": "address"
            }
          ],
          "internalType": "struct IGearboxVaultGovernance.DelayedProtocolParams",
          "name": "delayedProtocolParams_",
          "type": "tuple"
        }
      ],
      "stateMutability": "nonpayable",
      "type": "constructor"
    },
    {
      "anonymous": false,
      "inputs": [
        {
          "indexed": true,
          "internalType": "address",
          "name": "origin",
          "type": "address"
        },
        {
          "indexed": true,
          "internalType": "address",
          "name": "sender",
          "type": "address"
        },
        {
          "components": [
            {
              "internalType": "uint256",
              "name": "withdrawDelay",
              "type": "uint256"
            },
            {
              "internalType": "uint16",
              "name": "referralCode",
              "type": "uint16"
            },
            {
              "internalType": "address",
              "name": "univ3Adapter",
              "type": "address"
            },
            {
              "internalType": "address",
              "name": "crv",
              "type": "address"
            },
            {
              "internalType": "address",
              "name": "cvx",
              "type": "address"
            },
            {
              "internalType": "uint256",
              "name": "maxSlippageD9",
              "type": "uint256"
            },
            {
              "internalType": "uint256",
              "name": "maxSmallPoolsSlippageD9",
              "type": "uint256"
            },
            {
              "internalType": "uint256",
              "name": "maxCurveSlippageD9",
              "type": "uint256"
            },
            {
              "internalType": "address",
              "name": "uniswapRouter",
              "type": "address"
            }
          ],
          "indexed": false,
          "internalType": "struct IGearboxVaultGovernance.DelayedProtocolParams",
          "name": "params",
          "type": "tuple"
        }
      ],
      "name": "CommitDelayedProtocolParams",
      "type": "event"
    },
    {
      "anonymous": false,
      "inputs": [
        {
          "indexed": true,
          "internalType": "address",
          "name": "origin",
          "type": "address"
        },
        {
          "indexed": true,
          "internalType": "address",
          "name": "sender",
          "type": "address"
        },
        {
          "indexed": true,
          "internalType": "uint256",
          "name": "nft",
          "type": "uint256"
        },
        {
          "components": [
            {
              "internalType": "address",
              "name": "primaryToken",
              "type": "address"
            },
            {
              "internalType": "address",
              "name": "curveAdapter",
              "type": "address"
            },
            {
              "internalType": "address",
              "name": "convexAdapter",
              "type": "address"
            },
            {
              "internalType": "address",
              "name": "facade",
              "type": "address"
            },
            {
              "internalType": "uint256",
              "name": "initialMarginalValueD9",
              "type": "uint256"
            }
          ],
          "indexed": false,
          "internalType": "struct IGearboxVaultGovernance.DelayedProtocolPerVaultParams",
          "name": "params",
          "type": "tuple"
        }
      ],
      "name": "CommitDelayedProtocolPerVaultParams",
      "type": "event"
    },
    {
      "anonymous": false,
      "inputs": [
        {
          "indexed": true,
          "internalType": "address",
          "name": "origin",
          "type": "address"
        },
        {
          "indexed": true,
          "internalType": "address",
          "name": "sender",
          "type": "address"
        },
        {
          "components": [
            {
              "internalType": "contract IProtocolGovernance",
              "name": "protocolGovernance",
              "type": "address"
            },
            {
              "internalType": "contract IVaultRegistry",
              "name": "registry",
              "type": "address"
            },
            {
              "internalType": "contract IVault",
              "name": "singleton",
              "type": "address"
            }
          ],
          "indexed": false,
          "internalType": "struct IVaultGovernance.InternalParams",
          "name": "params",
          "type": "tuple"
        }
      ],
      "name": "CommitedInternalParams",
      "type": "event"
    },
    {
      "anonymous": false,
      "inputs": [
        {
          "indexed": true,
          "internalType": "address",
          "name": "origin",
          "type": "address"
        },
        {
          "indexed": true,
          "internalType": "address",
          "name": "sender",
          "type": "address"
        },
        {
          "indexed": false,
          "internalType": "address[]",
          "name": "vaultTokens",
          "type": "address[]"
        },
        {
          "indexed": false,
          "internalType": "bytes",
          "name": "options",
          "type": "bytes"
        },
        {
          "indexed": false,
          "internalType": "address",
          "name": "owner",
          "type": "address"
        },
        {
          "indexed": false,
          "internalType": "address",
          "name": "vaultAddress",
          "type": "address"
        },
        {
          "indexed": false,
          "internalType": "uint256",
          "name": "vaultNft",
          "type": "uint256"
        }
      ],
      "name": "DeployedVault",
      "type": "event"
    },
    {
      "anonymous": false,
      "inputs": [
        {
          "indexed": true,
          "internalType": "address",
          "name": "origin",
          "type": "address"
        },
        {
          "indexed": true,
          "internalType": "address",
          "name": "sender",
          "type": "address"
        },
        {
          "components": [
            {
              "internalType": "uint24",
              "name": "largePoolFeeUsed",
              "type": "uint24"
            }
          ],
          "indexed": false,
          "internalType": "struct IGearboxVaultGovernance.StrategyParams",
          "name": "params",
          "type": "tuple"
        }
      ],
      "name": "SetStrategyParams",
      "type": "event"
    },
    {
      "anonymous": false,
      "inputs": [
        {
          "indexed": true,
          "internalType": "address",
          "name": "origin",
          "type": "address"
        },
        {
          "indexed": true,
          "internalType": "address",
          "name": "sender",
          "type": "address"
        },
        {
          "components": [
            {
              "internalType": "uint256",
              "name": "withdrawDelay",
              "type": "uint256"
            },
            {
              "internalType": "uint16",
              "name": "referralCode",
              "type": "uint16"
            },
            {
              "internalType": "address",
              "name": "univ3Adapter",
              "type": "address"
            },
            {
              "internalType": "address",
              "name": "crv",
              "type": "address"
            },
            {
              "internalType": "address",
              "name": "cvx",
              "type": "address"
            },
            {
              "internalType": "uint256",
              "name": "maxSlippageD9",
              "type": "uint256"
            },
            {
              "internalType": "uint256",
              "name": "maxSmallPoolsSlippageD9",
              "type": "uint256"
            },
            {
              "internalType": "uint256",
              "name": "maxCurveSlippageD9",
              "type": "uint256"
            },
            {
              "internalType": "address",
              "name": "uniswapRouter",
              "type": "address"
            }
          ],
          "indexed": false,
          "internalType": "struct IGearboxVaultGovernance.DelayedProtocolParams",
          "name": "params",
          "type": "tuple"
        },
        {
          "indexed": false,
          "internalType": "uint256",
          "name": "when",
          "type": "uint256"
        }
      ],
      "name": "StageDelayedProtocolParams",
      "type": "event"
    },
    {
      "anonymous": false,
      "inputs": [
        {
          "indexed": true,
          "internalType": "address",
          "name": "origin",
          "type": "address"
        },
        {
          "indexed": true,
          "internalType": "address",
          "name": "sender",
          "type": "address"
        },
        {
          "indexed": true,
          "internalType": "uint256",
          "name": "nft",
          "type": "uint256"
        },
        {
          "components": [
            {
              "internalType": "address",
              "name": "primaryToken",
              "type": "address"
            },
            {
              "internalType": "address",
              "name": "curveAdapter",
              "type": "address"
            },
            {
              "internalType": "address",
              "name": "convexAdapter",
              "type": "address"
            },
            {
              "internalType": "address",
              "name": "facade",
              "type": "address"
            },
            {
              "internalType": "uint256",
              "name": "initialMarginalValueD9",
              "type": "uint256"
            }
          ],
          "indexed": false,
          "internalType": "struct IGearboxVaultGovernance.DelayedProtocolPerVaultParams",
          "name": "params",
          "type": "tuple"
        },
        {
          "indexed": false,
          "internalType": "uint256",
          "name": "when",
          "type": "uint256"
        }
      ],
      "name": "StageDelayedProtocolPerVaultParams",
      "type": "event"
    },
    {
      "anonymous": false,
      "inputs": [
        {
          "indexed": true,
          "internalType": "address",
          "name": "origin",
          "type": "address"
        },
        {
          "indexed": true,
          "internalType": "address",
          "name": "sender",
          "type": "address"
        },
        {
          "components": [
            {
              "internalType": "contract IProtocolGovernance",
              "name": "protocolGovernance",
              "type": "address"
            },
            {
              "internalType": "contract IVaultRegistry",
              "name": "registry",
              "type": "address"
            },
            {
              "internalType": "contract IVault",
              "name": "singleton",
              "type": "address"
            }
          ],
          "indexed": false,
          "internalType": "struct IVaultGovernance.InternalParams",
          "name": "params",
          "type": "tuple"
        },
        {
          "indexed": false,
          "internalType": "uint256",
          "name": "when",
          "type": "uint256"
        }
      ],
      "name": "StagedInternalParams",
      "type": "event"
    },
    {
      "inputs": [],
      "name": "D9",
      "outputs": [
        {
          "internalType": "uint256",
          "name": "",
          "type": "uint256"
        }
      ],
      "stateMutability": "view",
      "type": "function"
    },
    {
      "inputs": [],
      "name": "commitDelayedProtocolParams",
      "outputs": [],
      "stateMutability": "nonpayable",
      "type": "function"
    },
    {
      "inputs": [
        {
          "internalType": "uint256",
          "name": "nft",
          "type": "uint256"
        }
      ],
      "name": "commitDelayedProtocolPerVaultParams",
      "outputs": [],
      "stateMutability": "nonpayable",
      "type": "function"
    },
    {
      "inputs": [],
      "name": "commitInternalParams",
      "outputs": [],
      "stateMutability": "nonpayable",
      "type": "function"
    },
    {
      "inputs": [],
      "name": "contractName",
      "outputs": [
        {
          "internalType": "string",
          "name": "",
          "type": "string"
        }
      ],
      "stateMutability": "pure",
      "type": "function"
    },
    {
      "inputs": [],
      "name": "contractNameBytes",
      "outputs": [
        {
          "internalType": "bytes32",
          "name": "",
          "type": "bytes32"
        }
      ],
      "stateMutability": "pure",
      "type": "function"
    },
    {
      "inputs": [],
      "name": "contractVersion",
      "outputs": [
        {
          "internalType": "string",
          "name": "",
          "type": "string"
        }
      ],
      "stateMutability": "pure",
      "type": "function"
    },
    {
      "inputs": [],
      "name": "contractVersionBytes",
      "outputs": [
        {
          "internalType": "bytes32",
          "name": "",
          "type": "bytes32"
        }
      ],
      "stateMutability": "pure",
      "type": "function"
    },
    {
      "inputs": [
        {
          "internalType": "address[]",
          "name": "vaultTokens_",
          "type": "address[]"
        },
        {
          "internalType": "address",
          "name": "owner_",
          "type": "address"
        },
        {
          "internalType": "address",
          "name": "helper_",
          "type": "address"
        }
      ],
      "name": "createVault",
      "outputs": [
        {
          "internalType": "contract IGearboxVault",
          "name": "vault",
          "type": "address"
        },
        {
          "internalType": "uint256",
          "name": "nft",
          "type": "uint256"
        }
      ],
      "stateMutability": "nonpayable",
      "type": "function"
    },
    {
      "inputs": [],
      "name": "delayedProtocolParams",
      "outputs": [
        {
          "components": [
            {
              "internalType": "uint256",
              "name": "withdrawDelay",
              "type": "uint256"
            },
            {
              "internalType": "uint16",
              "name": "referralCode",
              "type": "uint16"
            },
            {
              "internalType": "address",
              "name": "univ3Adapter",
              "type": "address"
            },
            {
              "internalType": "address",
              "name": "crv",
              "type": "address"
            },
            {
              "internalType": "address",
              "name": "cvx",
              "type": "address"
            },
            {
              "internalType": "uint256",
              "name": "maxSlippageD9",
              "type": "uint256"
            },
            {
              "internalType": "uint256",
              "name": "maxSmallPoolsSlippageD9",
              "type": "uint256"
            },
            {
              "internalType": "uint256",
              "name": "maxCurveSlippageD9",
              "type": "uint256"
            },
            {
              "internalType": "address",
              "name": "uniswapRouter",
              "type": "address"
            }
          ],
          "internalType": "struct IGearboxVaultGovernance.DelayedProtocolParams",
          "name": "",
          "type": "tuple"
        }
      ],
      "stateMutability": "view",
      "type": "function"
    },
    {
      "inputs": [],
      "name": "delayedProtocolParamsTimestamp",
      "outputs": [
        {
          "internalType": "uint256",
          "name": "",
          "type": "uint256"
        }
      ],
      "stateMutability": "view",
      "type": "function"
    },
    {
      "inputs": [
        {
          "internalType": "uint256",
          "name": "nft",
          "type": "uint256"
        }
      ],
      "name": "delayedProtocolPerVaultParams",
      "outputs": [
        {
          "components": [
            {
              "internalType": "address",
              "name": "primaryToken",
              "type": "address"
            },
            {
              "internalType": "address",
              "name": "curveAdapter",
              "type": "address"
            },
            {
              "internalType": "address",
              "name": "convexAdapter",
              "type": "address"
            },
            {
              "internalType": "address",
              "name": "facade",
              "type": "address"
            },
            {
              "internalType": "uint256",
              "name": "initialMarginalValueD9",
              "type": "uint256"
            }
          ],
          "internalType": "struct IGearboxVaultGovernance.DelayedProtocolPerVaultParams",
          "name": "",
          "type": "tuple"
        }
      ],
      "stateMutability": "view",
      "type": "function"
    },
    {
      "inputs": [
        {
          "internalType": "uint256",
          "name": "nft",
          "type": "uint256"
        }
      ],
      "name": "delayedProtocolPerVaultParamsTimestamp",
      "outputs": [
        {
          "internalType": "uint256",
          "name": "",
          "type": "uint256"
        }
      ],
      "stateMutability": "view",
      "type": "function"
    },
    {
      "inputs": [
        {
          "internalType": "uint256",
          "name": "nft",
          "type": "uint256"
        }
      ],
      "name": "delayedStrategyParamsTimestamp",
      "outputs": [
        {
          "internalType": "uint256",
          "name": "",
          "type": "uint256"
        }
      ],
      "stateMutability": "view",
      "type": "function"
    },
    {
      "inputs": [],
      "name": "internalParams",
      "outputs": [
        {
          "components": [
            {
              "internalType": "contract IProtocolGovernance",
              "name": "protocolGovernance",
              "type": "address"
            },
            {
              "internalType": "contract IVaultRegistry",
              "name": "registry",
              "type": "address"
            },
            {
              "internalType": "contract IVault",
              "name": "singleton",
              "type": "address"
            }
          ],
          "internalType": "struct IVaultGovernance.InternalParams",
          "name": "",
          "type": "tuple"
        }
      ],
      "stateMutability": "view",
      "type": "function"
    },
    {
      "inputs": [],
      "name": "internalParamsTimestamp",
      "outputs": [
        {
          "internalType": "uint256",
          "name": "",
          "type": "uint256"
        }
      ],
      "stateMutability": "view",
      "type": "function"
    },
    {
      "inputs": [
        {
          "internalType": "uint256",
          "name": "nft",
          "type": "uint256"
        },
        {
          "components": [
            {
              "internalType": "uint24",
              "name": "largePoolFeeUsed",
              "type": "uint24"
            }
          ],
          "internalType": "struct IGearboxVaultGovernance.StrategyParams",
          "name": "params",
          "type": "tuple"
        }
      ],
      "name": "setStrategyParams",
      "outputs": [],
      "stateMutability": "nonpayable",
      "type": "function"
    },
    {
      "inputs": [
        {
          "components": [
            {
              "internalType": "uint256",
              "name": "withdrawDelay",
              "type": "uint256"
            },
            {
              "internalType": "uint16",
              "name": "referralCode",
              "type": "uint16"
            },
            {
              "internalType": "address",
              "name": "univ3Adapter",
              "type": "address"
            },
            {
              "internalType": "address",
              "name": "crv",
              "type": "address"
            },
            {
              "internalType": "address",
              "name": "cvx",
              "type": "address"
            },
            {
              "internalType": "uint256",
              "name": "maxSlippageD9",
              "type": "uint256"
            },
            {
              "internalType": "uint256",
              "name": "maxSmallPoolsSlippageD9",
              "type": "uint256"
            },
            {
              "internalType": "uint256",
              "name": "maxCurveSlippageD9",
              "type": "uint256"
            },
            {
              "internalType": "address",
              "name": "uniswapRouter",
              "type": "address"
            }
          ],
          "internalType": "struct IGearboxVaultGovernance.DelayedProtocolParams",
          "name": "params",
          "type": "tuple"
        }
      ],
      "name": "stageDelayedProtocolParams",
      "outputs": [],
      "stateMutability": "nonpayable",
      "type": "function"
    },
    {
      "inputs": [
        {
          "internalType": "uint256",
          "name": "nft",
          "type": "uint256"
        },
        {
          "components": [
            {
              "internalType": "address",
              "name": "primaryToken",
              "type": "address"
            },
            {
              "internalType": "address",
              "name": "curveAdapter",
              "type": "address"
            },
            {
              "internalType": "address",
              "name": "convexAdapter",
              "type": "address"
            },
            {
              "internalType": "address",
              "name": "facade",
              "type": "address"
            },
            {
              "internalType": "uint256",
              "name": "initialMarginalValueD9",
              "type": "uint256"
            }
          ],
          "internalType": "struct IGearboxVaultGovernance.DelayedProtocolPerVaultParams",
          "name": "params",
          "type": "tuple"
        }
      ],
      "name": "stageDelayedProtocolPerVaultParams",
      "outputs": [],
      "stateMutability": "nonpayable",
      "type": "function"
    },
    {
      "inputs": [
        {
          "components": [
            {
              "internalType": "contract IProtocolGovernance",
              "name": "protocolGovernance",
              "type": "address"
            },
            {
              "internalType": "contract IVaultRegistry",
              "name": "registry",
              "type": "address"
            },
            {
              "internalType": "contract IVault",
              "name": "singleton",
              "type": "address"
            }
          ],
          "internalType": "struct IVaultGovernance.InternalParams",
          "name": "newParams",
          "type": "tuple"
        }
      ],
      "name": "stageInternalParams",
      "outputs": [],
      "stateMutability": "nonpayable",
      "type": "function"
    },
    {
      "inputs": [],
      "name": "stagedDelayedProtocolParams",
      "outputs": [
        {
          "components": [
            {
              "internalType": "uint256",
              "name": "withdrawDelay",
              "type": "uint256"
            },
            {
              "internalType": "uint16",
              "name": "referralCode",
              "type": "uint16"
            },
            {
              "internalType": "address",
              "name": "univ3Adapter",
              "type": "address"
            },
            {
              "internalType": "address",
              "name": "crv",
              "type": "address"
            },
            {
              "internalType": "address",
              "name": "cvx",
              "type": "address"
            },
            {
              "internalType": "uint256",
              "name": "maxSlippageD9",
              "type": "uint256"
            },
            {
              "internalType": "uint256",
              "name": "maxSmallPoolsSlippageD9",
              "type": "uint256"
            },
            {
              "internalType": "uint256",
              "name": "maxCurveSlippageD9",
              "type": "uint256"
            },
            {
              "internalType": "address",
              "name": "uniswapRouter",
              "type": "address"
            }
          ],
          "internalType": "struct IGearboxVaultGovernance.DelayedProtocolParams",
          "name": "",
          "type": "tuple"
        }
      ],
      "stateMutability": "view",
      "type": "function"
    },
    {
      "inputs": [
        {
          "internalType": "uint256",
          "name": "nft",
          "type": "uint256"
        }
      ],
      "name": "stagedDelayedProtocolPerVaultParams",
      "outputs": [
        {
          "components": [
            {
              "internalType": "address",
              "name": "primaryToken",
              "type": "address"
            },
            {
              "internalType": "address",
              "name": "curveAdapter",
              "type": "address"
            },
            {
              "internalType": "address",
              "name": "convexAdapter",
              "type": "address"
            },
            {
              "internalType": "address",
              "name": "facade",
              "type": "address"
            },
            {
              "internalType": "uint256",
              "name": "initialMarginalValueD9",
              "type": "uint256"
            }
          ],
          "internalType": "struct IGearboxVaultGovernance.DelayedProtocolPerVaultParams",
          "name": "",
          "type": "tuple"
        }
      ],
      "stateMutability": "view",
      "type": "function"
    },
    {
      "inputs": [],
      "name": "stagedInternalParams",
      "outputs": [
        {
          "components": [
            {
              "internalType": "contract IProtocolGovernance",
              "name": "protocolGovernance",
              "type": "address"
            },
            {
              "internalType": "contract IVaultRegistry",
              "name": "registry",
              "type": "address"
            },
            {
              "internalType": "contract IVault",
              "name": "singleton",
              "type": "address"
            }
          ],
          "internalType": "struct IVaultGovernance.InternalParams",
          "name": "",
          "type": "tuple"
        }
      ],
      "stateMutability": "view",
      "type": "function"
    },
    {
      "inputs": [
        {
          "internalType": "uint256",
          "name": "nft",
          "type": "uint256"
        }
      ],
      "name": "strategyParams",
      "outputs": [
        {
          "components": [
            {
              "internalType": "uint24",
              "name": "largePoolFeeUsed",
              "type": "uint24"
            }
          ],
          "internalType": "struct IGearboxVaultGovernance.StrategyParams",
          "name": "",
          "type": "tuple"
        }
      ],
      "stateMutability": "view",
      "type": "function"
    },
    {
      "inputs": [
        {
          "internalType": "bytes4",
          "name": "interfaceId",
          "type": "bytes4"
        }
      ],
      "name": "supportsInterface",
      "outputs": [
        {
          "internalType": "bool",
          "name": "",
          "type": "bool"
        }
      ],
      "stateMutability": "view",
      "type": "function"
    }
  ],
  "bytecode": {
    "object": "0x60806040523480156200001157600080fd5b5060405162002f6b38038062002f6b833981016040819052620000349162000544565b815160408051808201909152600281526120ad60f11b602082015283916001600160a01b0316620000835760405162461bcd60e51b81526004016200007a919062000661565b60405180910390fd5b5060006001600160a01b031681602001516001600160a01b031614156040518060400160405280600281526020016120ad60f11b81525090620000db5760405162461bcd60e51b81526004016200007a919062000661565b506040808201518151808301909252600282526120ad60f11b60208301526001600160a01b0316620001225760405162461bcd60e51b81526004016200007a919062000661565b508051600080546001600160a01b03199081166001600160a01b039384161790915560208084015160018054841691851691909117905560409384015160028054909316931692909217905582518251808401909352600383526224a72b60e91b9183019190915262278d001015620001b05760405162461bcd60e51b81526004016200007a919062000661565b506040808201518151808301909252600282526120ad60f11b60208301526001600160a01b0316620001f75760405162461bcd60e51b81526004016200007a919062000661565b50606081015160408051808201909152600281526120ad60f11b6020820152906001600160a01b0316620002405760405162461bcd60e51b81526004016200007a919062000661565b50608081015160408051808201909152600281526120ad60f11b6020820152906001600160a01b0316620002895760405162461bcd60e51b81526004016200007a919062000661565b5061010081015160408051808201909152600281526120ad60f11b6020820152906001600160a01b0316620002d35760405162461bcd60e51b81526004016200007a919062000661565b50633b9aca008160a00151111560405180604001604052806004815260200163494e564160e01b815250906200031e5760405162461bcd60e51b81526004016200007a919062000661565b50633b9aca008160c00151111560405180604001604052806004815260200163494e564160e01b81525090620003695760405162461bcd60e51b81526004016200007a919062000661565b50633b9aca008160e00151111560405180604001604052806004815260200163494e564160e01b81525090620003b45760405162461bcd60e51b81526004016200007a919062000661565b5080604051602001620003c89190620006b9565b604051602081830303815290604052600d9080519060200190620003ee929190620003f7565b5050506200079b565b82805462000405906200075e565b90600052602060002090601f01602090048101928262000429576000855562000474565b82601f106200044457805160ff191683800117855562000474565b8280016001018555821562000474579182015b828111156200047457825182559160200191906001019062000457565b506200048292915062000486565b5090565b5b8082111562000482576000815560010162000487565b604051606081016001600160401b0381118282101715620004ce57634e487b7160e01b600052604160045260246000fd5b60405290565b60405161012081016001600160401b0381118282101715620004ce57634e487b7160e01b600052604160045260246000fd5b6001600160a01b03811681146200051c57600080fd5b50565b805161ffff811681146200053257600080fd5b919050565b8051620005328162000506565b6000808284036101808112156200055a57600080fd5b60608112156200056957600080fd5b620005736200049d565b8451620005808162000506565b81526020850151620005928162000506565b60208201526040850151620005a78162000506565b60408201529250610120605f198201811315620005c357600080fd5b620005cd620004d4565b915060608501518252620005e4608086016200051f565b6020830152620005f760a0860162000537565b60408301526200060a60c0860162000537565b60608301526200061d60e0860162000537565b60808301526101008086015160a08401528186015160c084015261014086015160e084015262000651610160870162000537565b9083015250919491935090915050565b600060208083528351808285015260005b81811015620006905785810183015185820160400152820162000672565b81811115620006a3576000604083870101525b50601f01601f1916929092016040019392505050565b8151815260208083015161ffff16908201526040808301516001600160a01b031690820152606080830151610120830191620006ff908401826001600160a01b03169052565b5060808301516200071b60808401826001600160a01b03169052565b5060a083015160a083015260c083015160c083015260e083015160e08301526101008084015162000756828501826001600160a01b03169052565b505092915050565b600181811c908216806200077357607f821691505b602082108114156200079557634e487b7160e01b600052602260045260246000fd5b50919050565b6127c080620007ab6000396000f3fe608060405234801561001057600080fd5b50600436106101725760003560e01c806386c6be3e116100de578063c2cbdc6711610097578063dbb1c35f11610071578063dbb1c35f146103bb578063de2f76a4146103ce578063e4af6e7914610400578063ee2d59f41461040857600080fd5b8063c2cbdc6714610396578063d34cc380146103ab578063d4a07d34146103b357600080fd5b806386c6be3e146102ed5780638e207dda1461034057806398347a5d14610360578063a0a8e46014610368578063a3338ad014610370578063b016d9a61461038357600080fd5b80631c7f4c73116101305780631c7f4c7314610225578063511ce7981461022d578063551530ae1461024d5780636707acee1461025857806375d0c0dc146102785780637ac46fbb1461028d57600080fd5b8062e1e1661461017757806301ffc9a71461018c57806306a46239146101b457806309946538146101cc5780630e3e80ac146101df57806312466b68146101fe575b600080fd5b61018a610185366004611f3b565b61041b565b005b61019f61019a366004611fd5565b6106bf565b60405190151581526020015b60405180910390f35b640312e302e360dc1b5b6040519081526020016101ab565b61018a6101da366004612006565b6106f0565b7547656172626f785661756c74476f7665726e616e636560501b6101be565b61021161020c366004612078565b6108ce565b604051905162ffffff1681526020016101ab565b6006546101be565b6101be61023b366004612078565b6000908152600c602052604090205490565b6101be633b9aca0081565b6101be610266366004612078565b60009081526009602052604090205490565b6102806109bd565b6040516101ab9190612091565b6102e0604080516060810182526000808252602082018190529181019190915250604080516060810182526000546001600160a01b03908116825260015481166020830152600254169181019190915290565b6040516101ab91906120e6565b6102e0604080516060810182526000808252602082018190529181019190915250604080516060810182526003546001600160a01b03908116825260045481166020830152600554169181019190915290565b61035361034e366004612078565b6109e1565b6040516101ab9190612116565b61018a610b07565b610280610bf9565b61018a61037e36600461215d565b610c0c565b61018a610391366004612195565b610e23565b61039e610f33565b6040516101ab9190612258565b61039e61103b565b61018a611050565b6103536103c9366004612078565b611175565b6103e16103dc366004612267565b61120a565b604080516001600160a01b0390931683526020830191909152016101ab565b600f546101be565b61018a610416366004612078565b61128f565b805160408051808201909152600381526224a72b60e91b60208201529062278d0010156104645760405162461bcd60e51b815260040161045b9190612091565b60405180910390fd5b506040808201518151808301909252600282526120ad60f11b60208301526001600160a01b03166104a85760405162461bcd60e51b815260040161045b9190612091565b50606081015160408051808201909152600281526120ad60f11b6020820152906001600160a01b03166104ee5760405162461bcd60e51b815260040161045b9190612091565b50608081015160408051808201909152600281526120ad60f11b6020820152906001600160a01b03166105345760405162461bcd60e51b815260040161045b9190612091565b5061010081015160408051808201909152600281526120ad60f11b6020820152906001600160a01b031661057b5760405162461bcd60e51b815260040161045b9190612091565b50633b9aca008160a00151111560405180604001604052806004815260200163494e564160e01b815250906105c35760405162461bcd60e51b815260040161045b9190612091565b50633b9aca008160c00151111560405180604001604052806004815260200163494e564160e01b8152509061060b5760405162461bcd60e51b815260040161045b9190612091565b50633b9aca008160e00151111560405180604001604052806004815260200163494e564160e01b815250906106535760405162461bcd60e51b815260040161045b9190612091565b5061067c816040516020016106689190612258565b604051602081830303815290604052611382565b600f54604051339132917f3881d35322502b8f25de781bc2a7a59253b8ea286272a8b64043ebde2e0ddaab916106b49186919061233b565b60405180910390a350565b60006106ca8261145d565b806106e557506001600160e01b0319821663eda22d1760e01b145b92915050565b905090565b6106f8611493565b805160408051808201909152600281526120ad60f11b6020820152906001600160a01b031661073a5760405162461bcd60e51b815260040161045b9190612091565b5060006001600160a01b031681602001516001600160a01b031614156040518060400160405280600281526020016120ad60f11b8152509061078f5760405162461bcd60e51b815260040161045b9190612091565b506040808201518151808301909252600282526120ad60f11b60208301526001600160a01b03166107d35760405162461bcd60e51b815260040161045b9190612091565b508051600380546001600160a01b03199081166001600160a01b03938416179091556020808401516004805484169185169190911781556040808601516005805490951690861617909355600054835163bba3293960e01b8152935194169363bba3293993808301939290829003018186803b15801561085257600080fd5b505afa158015610866573d6000803e3d6000fd5b505050506040513d601f19601f8201168201806040525081019061088a9190612358565b6108949042612387565b6006819055604051339132917f0887cab3184f7c02b16978ab31f8acee05979f59fc3da6abe5bf71105ec3179d916106b49186919061239f565b604080516020810190915260008152600082815260106020526040902080546108f6906123dc565b1515905061091357505060408051602081019091526101f4815290565b6000828152601060205260409020805461092c906123dc565b80601f0160208091040260200160405190810160405280929190818152602001828054610958906123dc565b80156109a55780601f1061097a576101008083540402835291602001916109a5565b820191906000526020600020905b81548152906001019060200180831161098857829003601f168201915b50505050508060200190518101906106e59190612428565b60606106eb7547656172626f785661756c74476f7665726e616e636560501b61154b565b6040805160a0810182526000808252602082018190529181018290526060810182905260808101919091526000828152600b602052604090208054610a25906123dc565b15159050610a5d5750506040805160a08101825260008082526020820181905291810182905260608101829052608081019190915290565b6000828152600b602052604090208054610a76906123dc565b80601f0160208091040260200160405190810160405280929190818152602001828054610aa2906123dc565b8015610aef5780601f10610ac457610100808354040283529160200191610aef565b820191906000526020600020905b815481529060010190602001808311610ad257829003601f168201915b50505050508060200190518101906106e5919061247f565b610b0f6115b7565b336001600160a01b0316326001600160a01b03167fffc023ce4f5b64bf18982b556e85f74999ee5e8e00a351854214cf40332a435f600d8054610b51906123dc565b80601f0160208091040260200160405190810160405280929190818152602001828054610b7d906123dc565b8015610bca5780601f10610b9f57610100808354040283529160200191610bca565b820191906000526020600020905b815481529060010190602001808311610bad57829003601f168201915b5050505050806020019051810190610be2919061251b565b604051610bef9190612258565b60405180910390a3565b60606106eb640312e302e360dc1b61154b565b6000610c1b60208301836125aa565b6001600160a01b031614156040518060400160405280600281526020016120ad60f11b81525090610c5f5760405162461bcd60e51b815260040161045b9190612091565b506000610c7260408301602084016125aa565b6001600160a01b031614156040518060400160405280600281526020016120ad60f11b81525090610cb65760405162461bcd60e51b815260040161045b9190612091565b506000610cc960608301604084016125aa565b6001600160a01b031614156040518060400160405280600281526020016120ad60f11b81525090610d0d5760405162461bcd60e51b815260040161045b9190612091565b506000610d2060808301606084016125aa565b6001600160a01b031614156040518060400160405280600281526020016120ad60f11b81525090610d645760405162461bcd60e51b815260040161045b9190612091565b5060408051808201909152600381526224a72b60e91b6020820152633b9aca00608083013511610da75760405162461bcd60e51b815260040161045b9190612091565b50610dd18282604051602001610dbd919061262d565b60405160208183030381529060405261166b565b600082815260096020526040908190205490518391339132917f07f6bd70d93801c8cff74c3a83cdb9e21db3e1192daea71aeea15c1c93f92c7b91610e1791879161263b565b60405180910390a45050565b610e306020820182612656565b62ffffff1660641480610e555750610e4b6020820182612656565b62ffffff166101f4145b80610e725750610e686020820182612656565b62ffffff16610bb8145b80610e8f5750610e856020820182612656565b62ffffff16612710145b6040518060400160405280600381526020016223292160e91b81525090610ec95760405162461bcd60e51b815260040161045b9190612091565b50610ef38282604051602001610edf9190612673565b604051602081830303815290604052611776565b604051339032907fc23b76068091bcccde9bf3acb65e35e9f9c027c514d1004651c4310fb11364d190610f27908590612673565b60405180910390a35050565b610f3b611cf4565b600e8054610f48906123dc565b15159050610f9d57506040805161012081018252600080825260208201819052918101829052606081018290526080810182905260a0810182905260c0810182905260e0810182905261010081019190915290565b600e8054610faa906123dc565b80601f0160208091040260200160405190810160405280929190818152602001828054610fd6906123dc565b80156110235780601f10610ff857610100808354040283529160200191611023565b820191906000526020600020905b81548152906001019060200180831161100657829003601f168201915b50505050508060200190518101906106eb919061251b565b611043611cf4565b600d8054610faa906123dc565b611058611493565b6006546040805180820190915260048152631395531360e21b6020820152906110945760405162461bcd60e51b815260040161045b9190612091565b5060065442101560405180604001604052806002815260200161545360f01b815250906110d45760405162461bcd60e51b815260040161045b9190612091565b5060038054600080546001600160a01b038084166001600160a01b03199283168117845560048054600180548286169087168117909155600580546002805497821697891688179055600698909855978616909855841690559290911690925560408051918252602082019390935291820152339032907fef3e4bc9725fa684957d7de03c6dcd01078ee86cf78ceef25c5f8346df69cc9990606001610bef565b6040805160a0810182526000808252602082018190529181018290526060810182905260808101919091526000828152600a6020526040902080546111b9906123dc565b151590506111f15750506040805160a08101825260008082526020820181905291810182905260608101829052608081019190915290565b6000828152600a602052604090208054610a76906123dc565b6000806000611218856117a3565b6040516352af719f60e01b815290935090915081906001600160a01b038216906352af719f906112509086908b908a9060040161268f565b600060405180830381600087803b15801561126a57600080fd5b505af115801561127e573d6000803e3d6000fd5b505050508193505050935093915050565b61129881611994565b6000818152600a6020526040902080548291339132917f649e1710f50772260fa77e3624d7bd2e612d477f14d7322ef97918ffb3d81869916112d9906123dc565b80601f0160208091040260200160405190810160405280929190818152602001828054611305906123dc565b80156113525780601f1061132757610100808354040283529160200191611352565b820191906000526020600020905b81548152906001019060200180831161133557829003601f168201915b505050505080602001905181019061136a919061247f565b6040516113779190612116565b60405180910390a450565b61138a611493565b6000600d8054611399906123dc565b1590506113a75760016113aa565b60005b60ff16905081600e90805190602001906113c5929190611d40565b506000546040805163bba3293960e01b8152905183926001600160a01b03169163bba32939916004808301926020929190829003018186803b15801561140a57600080fd5b505afa15801561141e573d6000803e3d6000fd5b505050506040513d601f19601f820116820180604052508101906114429190612358565b61144c91906126fb565b6114569042612387565b600f555050565b60006301ffc9a760e01b6001600160e01b0319831614806106e557506001600160e01b0319821663effda0f560e01b1492915050565b600054604051630935e01b60e21b81523360048201526001600160a01b03909116906324d7806c9060240160206040518083038186803b1580156114d657600080fd5b505afa1580156114ea573d6000803e3d6000fd5b505050506040513d601f19601f8201168201806040525081019061150e919061271a565b6040518060400160405280600381526020016223292160e91b815250906115485760405162461bcd60e51b815260040161045b9190612091565b50565b604080516020808252818301909252606091602082018180368337019050509050602060005b60208110156115a95783816020811061158c5761158c61273c565b1a611599578091506115a9565b6115a281612752565b9050611571565b508152602081019190915290565b6115bf611493565b600f546040805180820190915260048152631395531360e21b6020820152906115fb5760405162461bcd60e51b815260040161045b9190612091565b50600f5442101560405180604001604052806002815260200161545360f01b8152509061163b5760405162461bcd60e51b815260040161045b9190612091565b50600e600d90805461164c906123dc565b611657929190611dc4565b50611664600e6000611e3f565b6000600f55565b611673611493565b6000828152600b60209081526040909120825161169292840190611d40565b506000828152600a6020526040812080546116ac906123dc565b1590506116ba5760016116bd565b60005b60ff169050806000800160009054906101000a90046001600160a01b03166001600160a01b031663bba329396040518163ffffffff1660e01b815260040160206040518083038186803b15801561171357600080fd5b505afa158015611727573d6000803e3d6000fd5b505050506040513d601f19601f8201168201806040525081019061174b9190612358565b61175591906126fb565b61175f9042612387565b6000938452600c6020526040909320929092555050565b61177f82611a84565b6000828152601060209081526040909120825161179e92840190611d40565b505050565b600080546040516363e85d2d60e01b81523360048201526001602482015282916001600160a01b03169081906363e85d2d9060440160206040518083038186803b1580156117f057600080fd5b505afa158015611804573d6000803e3d6000fd5b505050506040513d601f19601f82011682018060405250810190611828919061271a565b6040518060400160405280600381526020016223292160e91b815250906118625760405162461bcd60e51b815260040161045b9190612091565b5060015460408051631112eee760e31b815290516001600160a01b039092169182916388977738916004808301926020929190829003018186803b1580156118a957600080fd5b505afa1580156118bd573d6000803e3d6000fd5b505050506040513d601f19601f820116820180604052508101906118e19190612358565b6118ec906001612387565b600254909350611905906001600160a01b031684611c57565b6040516305c4fdf960e01b81526001600160a01b0380831660048301528781166024830152919550908216906305c4fdf990604401602060405180830381600087803b15801561195457600080fd5b505af1158015611968573d6000803e3d6000fd5b505050506040513d601f19601f8201168201806040525081019061198c9190612358565b505050915091565b61199c611493565b6000818152600c602090815260409182902054825180840190935260048352631395531360e21b9183019190915290816119e95760405162461bcd60e51b815260040161045b9190612091565b508042101560405180604001604052806002815260200161545360f01b81525090611a275760405162461bcd60e51b815260040161045b9190612091565b506000828152600b60209081526040808320600a9092529091208154909190611a4f906123dc565b611a5a929190611dc4565b506000828152600b60205260408120611a7291611e3f565b506000908152600c6020526040812055565b600054604051630935e01b60e21b81523360048201526001600160a01b03909116906324d7806c9060240160206040518083038186803b158015611ac757600080fd5b505afa158015611adb573d6000803e3d6000fd5b505050506040513d601f19601f82011682018060405250810190611aff919061271a565b80611b8c575060015460405163020604bf60e21b81526004810183905233916001600160a01b03169063081812fc9060240160206040518083038186803b158015611b4957600080fd5b505afa158015611b5d573d6000803e3d6000fd5b505050506040513d601f19601f82011682018060405250810190611b81919061276d565b6001600160a01b0316145b80611c1957506001546040516331a9108f60e11b81526004810183905233916001600160a01b031690636352211e9060240160206040518083038186803b158015611bd657600080fd5b505afa158015611bea573d6000803e3d6000fd5b505050506040513d601f19601f82011682018060405250810190611c0e919061276d565b6001600160a01b0316145b6040518060400160405280600381526020016223292160e91b81525090611c535760405162461bcd60e51b815260040161045b9190612091565b5050565b6000763d602d80600a3d3981f3363d3d373d3d3d363d730000008360601b60e81c176000526e5af43d82803e903d91602b57fd5bf38360781b1760205281603760096000f590506001600160a01b0381166106e55760405162461bcd60e51b815260206004820152601760248201527f455243313136373a2063726561746532206661696c6564000000000000000000604482015260640161045b565b6040805161012081018252600080825260208201819052918101829052606081018290526080810182905260a0810182905260c0810182905260e0810182905261010081019190915290565b828054611d4c906123dc565b90600052602060002090601f016020900481019282611d6e5760008555611db4565b82601f10611d8757805160ff1916838001178555611db4565b82800160010185558215611db4579182015b82811115611db4578251825591602001919060010190611d99565b50611dc0929150611e75565b5090565b828054611dd0906123dc565b90600052602060002090601f016020900481019282611df25760008555611db4565b82601f10611e035780548555611db4565b82800160010185558215611db457600052602060002091601f016020900482015b82811115611db4578254825591600101919060010190611e24565b508054611e4b906123dc565b6000825580601f10611e5b575050565b601f01602090049060005260206000209081019061154891905b5b80821115611dc05760008155600101611e76565b634e487b7160e01b600052604160045260246000fd5b604051610120810167ffffffffffffffff81118282101715611ec457611ec4611e8a565b60405290565b604051601f8201601f1916810167ffffffffffffffff81118282101715611ef357611ef3611e8a565b604052919050565b61ffff8116811461154857600080fd5b8035611f1681611efb565b919050565b6001600160a01b038116811461154857600080fd5b8035611f1681611f1b565b60006101208284031215611f4e57600080fd5b611f56611ea0565b82358152611f6660208401611f0b565b6020820152611f7760408401611f30565b6040820152611f8860608401611f30565b6060820152611f9960808401611f30565b608082015260a083013560a082015260c083013560c082015260e083013560e0820152610100611fca818501611f30565b908201529392505050565b600060208284031215611fe757600080fd5b81356001600160e01b031981168114611fff57600080fd5b9392505050565b60006060828403121561201857600080fd5b6040516060810181811067ffffffffffffffff8211171561203b5761203b611e8a565b604052823561204981611f1b565b8152602083013561205981611f1b565b6020820152604083013561206c81611f1b565b60408201529392505050565b60006020828403121561208a57600080fd5b5035919050565b600060208083528351808285015260005b818110156120be578581018301518582016040015282016120a2565b818111156120d0576000604083870101525b50601f01601f1916929092016040019392505050565b606081016106e5828480516001600160a01b03908116835260208083015182169084015260409182015116910152565b81516001600160a01b039081168252602080840151821690830152604080840151821690830152606080840151909116908201526080918201519181019190915260a00190565b60008082840360c081121561217157600080fd5b8335925060a0601f198201121561218757600080fd5b506020830190509250929050565b60008082840360408112156121a957600080fd5b833592506020601f198201121561218757600080fd5b8051825261ffff602082015116602083015260018060a01b03604082015116604083015260608101516121fd60608401826001600160a01b03169052565b50608081015161221860808401826001600160a01b03169052565b5060a081015160a083015260c081015160c083015260e081015160e083015261010080820151612252828501826001600160a01b03169052565b50505050565b61012081016106e582846121bf565b60008060006060848603121561227c57600080fd5b833567ffffffffffffffff8082111561229457600080fd5b818601915086601f8301126122a857600080fd5b81356020828211156122bc576122bc611e8a565b8160051b92506122cd818401611eca565b828152928401810192818101908a8511156122e757600080fd5b948201945b84861015612311578535935061230184611f1b565b83825294820194908201906122ec565b97506123209050888201611f30565b95505050505061233260408501611f30565b90509250925092565b610140810161234a82856121bf565b826101208301529392505050565b60006020828403121561236a57600080fd5b5051919050565b634e487b7160e01b600052601160045260246000fd5b6000821982111561239a5761239a612371565b500190565b608081016123cf828580516001600160a01b03908116835260208083015182169084015260409182015116910152565b8260608301529392505050565b600181811c908216806123f057607f821691505b6020821081141561241157634e487b7160e01b600052602260045260246000fd5b50919050565b62ffffff8116811461154857600080fd5b60006020828403121561243a57600080fd5b6040516020810181811067ffffffffffffffff8211171561245d5761245d611e8a565b604052825161246b81612417565b81529392505050565b8051611f1681611f1b565b600060a0828403121561249157600080fd5b60405160a0810181811067ffffffffffffffff821117156124b4576124b4611e8a565b60405282516124c281611f1b565b815260208301516124d281611f1b565b602082015260408301516124e581611f1b565b604082015260608301516124f881611f1b565b60608201526080928301519281019290925250919050565b8051611f1681611efb565b6000610120828403121561252e57600080fd5b612536611ea0565b8251815261254660208401612510565b602082015261255760408401612474565b604082015261256860608401612474565b606082015261257960808401612474565b608082015260a083015160a082015260c083015160c082015260e083015160e0820152610100611fca818501612474565b6000602082840312156125bc57600080fd5b8135611fff81611f1b565b80356125d281611f1b565b6001600160a01b0390811683526020820135906125ee82611f1b565b908116602084015260408201359061260582611f1b565b908116604084015260608201359061261c82611f1b565b166060830152608090810135910152565b60a081016106e582846125c7565b60c0810161264982856125c7565b8260a08301529392505050565b60006020828403121561266857600080fd5b8135611fff81612417565b60208101823561268281612417565b62ffffff16909152919050565b6000606082018583526020606081850152818651808452608086019150828801935060005b818110156126d95784516001600160a01b0316835293830193918301916001016126b4565b50506001600160a01b0395909516604094909401939093525091949350505050565b600081600019048311821515161561271557612715612371565b500290565b60006020828403121561272c57600080fd5b81518015158114611fff57600080fd5b634e487b7160e01b600052603260045260246000fd5b600060001982141561276657612766612371565b5060010190565b60006020828403121561277f57600080fd5b8151611fff81611f1b56fea26469706673582212209f8b159e9b4a8bcf39b5daa6c3b249b121d9556530885e43d5c2c9c0046899af64736f6c63430008090033",
    "linkReferences": {}
  },
  "methodIdentifiers": {
    "D9()": "551530ae",
    "commitDelayedProtocolParams()": "98347a5d",
    "commitDelayedProtocolPerVaultParams(uint256)": "ee2d59f4",
    "commitInternalParams()": "d4a07d34",
    "contractName()": "75d0c0dc",
    "contractNameBytes()": "0e3e80ac",
    "contractVersion()": "a0a8e460",
    "contractVersionBytes()": "06a46239",
    "createVault(address[],address,address)": "de2f76a4",
    "delayedProtocolParams()": "d34cc380",
    "delayedProtocolParamsTimestamp()": "e4af6e79",
    "delayedProtocolPerVaultParams(uint256)": "dbb1c35f",
    "delayedProtocolPerVaultParamsTimestamp(uint256)": "511ce798",
    "delayedStrategyParamsTimestamp(uint256)": "6707acee",
    "internalParams()": "7ac46fbb",
    "internalParamsTimestamp()": "1c7f4c73",
    "setStrategyParams(uint256,(uint24))": "b016d9a6",
    "stageDelayedProtocolParams((uint256,uint16,address,address,address,uint256,uint256,uint256,address))": "00e1e166",
    "stageDelayedProtocolPerVaultParams(uint256,(address,address,address,address,uint256))": "a3338ad0",
    "stageInternalParams((address,address,address))": "09946538",
    "stagedDelayedProtocolParams()": "c2cbdc67",
    "stagedDelayedProtocolPerVaultParams(uint256)": "8e207dda",
    "stagedInternalParams()": "86c6be3e",
    "strategyParams(uint256)": "12466b68",
    "supportsInterface(bytes4)": "01ffc9a7"
  },
  "id": 464
}