{
  "address": "0x94fC14A9F7283ccA9f416c97FFB680c2a771Cb0f",
  "abi": [
    {
      "inputs": [
        {
          "internalType": "contract ILendingPool",
          "name": "_lendingPool",
          "type": "address"
        },
        {
          "internalType": "string",
          "name": "name",
          "type": "string"
        },
        {
          "internalType": "string",
          "name": "symbol",
          "type": "string"
        }
      ],
      "stateMutability": "nonpayable",
      "type": "constructor"
    },
    {
      "anonymous": false,
      "inputs": [
        {
          "indexed": true,
          "internalType": "address",
          "name": "owner",
          "type": "address"
        },
        {
          "indexed": true,
          "internalType": "address",
          "name": "approved",
          "type": "address"
        },
        {
          "indexed": true,
          "internalType": "uint256",
          "name": "tokenId",
          "type": "uint256"
        }
      ],
      "name": "Approval",
      "type": "event"
    },
    {
      "anonymous": false,
      "inputs": [
        {
          "indexed": true,
          "internalType": "address",
          "name": "owner",
          "type": "address"
        },
        {
          "indexed": true,
          "internalType": "address",
          "name": "operator",
          "type": "address"
        },
        {
          "indexed": false,
          "internalType": "bool",
          "name": "approved",
          "type": "bool"
        }
      ],
      "name": "ApprovalForAll",
      "type": "event"
    },
    {
      "anonymous": false,
      "inputs": [
        {
          "indexed": true,
          "internalType": "address",
          "name": "to",
          "type": "address"
        },
        {
          "indexed": true,
          "internalType": "uint256",
          "name": "nft",
          "type": "uint256"
        },
        {
          "indexed": false,
          "internalType": "bytes",
          "name": "params",
          "type": "bytes"
        }
      ],
      "name": "CreateCell",
      "type": "event"
    },
    {
      "anonymous": false,
      "inputs": [
        {
          "indexed": false,
          "internalType": "uint256",
          "name": "nft",
          "type": "uint256"
        },
        {
          "indexed": false,
          "internalType": "address[]",
          "name": "tokens",
          "type": "address[]"
        },
        {
          "indexed": false,
          "internalType": "uint256[]",
          "name": "actualTokenAmounts",
          "type": "uint256[]"
        }
      ],
      "name": "Deposit",
      "type": "event"
    },
    {
      "anonymous": false,
      "inputs": [
        {
          "indexed": true,
          "internalType": "bytes32",
          "name": "role",
          "type": "bytes32"
        },
        {
          "indexed": true,
          "internalType": "bytes32",
          "name": "previousAdminRole",
          "type": "bytes32"
        },
        {
          "indexed": true,
          "internalType": "bytes32",
          "name": "newAdminRole",
          "type": "bytes32"
        }
      ],
      "name": "RoleAdminChanged",
      "type": "event"
    },
    {
      "anonymous": false,
      "inputs": [
        {
          "indexed": true,
          "internalType": "bytes32",
          "name": "role",
          "type": "bytes32"
        },
        {
          "indexed": true,
          "internalType": "address",
          "name": "account",
          "type": "address"
        },
        {
          "indexed": true,
          "internalType": "address",
          "name": "sender",
          "type": "address"
        }
      ],
      "name": "RoleGranted",
      "type": "event"
    },
    {
      "anonymous": false,
      "inputs": [
        {
          "indexed": true,
          "internalType": "bytes32",
          "name": "role",
          "type": "bytes32"
        },
        {
          "indexed": true,
          "internalType": "address",
          "name": "account",
          "type": "address"
        },
        {
          "indexed": true,
          "internalType": "address",
          "name": "sender",
          "type": "address"
        }
      ],
      "name": "RoleRevoked",
      "type": "event"
    },
    {
      "anonymous": false,
      "inputs": [
        {
          "indexed": true,
          "internalType": "address",
          "name": "from",
          "type": "address"
        },
        {
          "indexed": true,
          "internalType": "address",
          "name": "to",
          "type": "address"
        },
        {
          "indexed": true,
          "internalType": "uint256",
          "name": "tokenId",
          "type": "uint256"
        }
      ],
      "name": "Transfer",
      "type": "event"
    },
    {
      "anonymous": false,
      "inputs": [
        {
          "indexed": false,
          "internalType": "uint256",
          "name": "nft",
          "type": "uint256"
        },
        {
          "indexed": false,
          "internalType": "address",
          "name": "to",
          "type": "address"
        },
        {
          "indexed": false,
          "internalType": "address[]",
          "name": "tokens",
          "type": "address[]"
        },
        {
          "indexed": false,
          "internalType": "uint256[]",
          "name": "actualTokenAmounts",
          "type": "uint256[]"
        }
      ],
      "name": "Withdraw",
      "type": "event"
    },
    {
      "inputs": [],
      "name": "DEFAULT_ADMIN_ROLE",
      "outputs": [
        {
          "internalType": "bytes32",
          "name": "",
          "type": "bytes32"
        }
      ],
      "stateMutability": "view",
      "type": "function"
    },
    {
      "inputs": [
        {
          "internalType": "address",
          "name": "to",
          "type": "address"
        },
        {
          "internalType": "uint256",
          "name": "tokenId",
          "type": "uint256"
        }
      ],
      "name": "approve",
      "outputs": [],
      "stateMutability": "nonpayable",
      "type": "function"
    },
    {
      "inputs": [
        {
          "internalType": "address",
          "name": "owner",
          "type": "address"
        }
      ],
      "name": "balanceOf",
      "outputs": [
        {
          "internalType": "uint256",
          "name": "",
          "type": "uint256"
        }
      ],
      "stateMutability": "view",
      "type": "function"
    },
    {
      "inputs": [],
      "name": "commitPendingMaxTokensPerCell",
      "outputs": [],
      "stateMutability": "nonpayable",
      "type": "function"
    },
    {
      "inputs": [],
      "name": "commitPendingPermissionless",
      "outputs": [],
      "stateMutability": "nonpayable",
      "type": "function"
    },
    {
      "inputs": [
        {
          "internalType": "address[]",
          "name": "cellTokens",
          "type": "address[]"
        },
        {
          "internalType": "bytes",
          "name": "params",
          "type": "bytes"
        }
      ],
      "name": "createCell",
      "outputs": [
        {
          "internalType": "uint256",
          "name": "",
          "type": "uint256"
        }
      ],
      "stateMutability": "nonpayable",
      "type": "function"
    },
    {
      "inputs": [
        {
          "internalType": "uint256",
          "name": "nft",
          "type": "uint256"
        }
      ],
      "name": "delegated",
      "outputs": [
        {
          "internalType": "address[]",
          "name": "tokens",
          "type": "address[]"
        },
        {
          "internalType": "uint256[]",
          "name": "tokenAmounts",
          "type": "uint256[]"
        }
      ],
      "stateMutability": "view",
      "type": "function"
    },
    {
      "inputs": [
        {
          "internalType": "uint256",
          "name": "nft",
          "type": "uint256"
        },
        {
          "internalType": "address[]",
          "name": "tokens",
          "type": "address[]"
        },
        {
          "internalType": "uint256[]",
          "name": "tokenAmounts",
          "type": "uint256[]"
        }
      ],
      "name": "deposit",
      "outputs": [
        {
          "internalType": "uint256[]",
          "name": "actualTokenAmounts",
          "type": "uint256[]"
        }
      ],
      "stateMutability": "nonpayable",
      "type": "function"
    },
    {
      "inputs": [
        {
          "internalType": "uint256",
          "name": "tokenId",
          "type": "uint256"
        }
      ],
      "name": "getApproved",
      "outputs": [
        {
          "internalType": "address",
          "name": "",
          "type": "address"
        }
      ],
      "stateMutability": "view",
      "type": "function"
    },
    {
      "inputs": [
        {
          "internalType": "bytes32",
          "name": "role",
          "type": "bytes32"
        }
      ],
      "name": "getRoleAdmin",
      "outputs": [
        {
          "internalType": "bytes32",
          "name": "",
          "type": "bytes32"
        }
      ],
      "stateMutability": "view",
      "type": "function"
    },
    {
      "inputs": [
        {
          "internalType": "bytes32",
          "name": "role",
          "type": "bytes32"
        },
        {
          "internalType": "uint256",
          "name": "index",
          "type": "uint256"
        }
      ],
      "name": "getRoleMember",
      "outputs": [
        {
          "internalType": "address",
          "name": "",
          "type": "address"
        }
      ],
      "stateMutability": "view",
      "type": "function"
    },
    {
      "inputs": [
        {
          "internalType": "bytes32",
          "name": "role",
          "type": "bytes32"
        }
      ],
      "name": "getRoleMemberCount",
      "outputs": [
        {
          "internalType": "uint256",
          "name": "",
          "type": "uint256"
        }
      ],
      "stateMutability": "view",
      "type": "function"
    },
    {
      "inputs": [
        {
          "internalType": "bytes32",
          "name": "role",
          "type": "bytes32"
        },
        {
          "internalType": "address",
          "name": "account",
          "type": "address"
        }
      ],
      "name": "grantRole",
      "outputs": [],
      "stateMutability": "nonpayable",
      "type": "function"
    },
    {
      "inputs": [
        {
          "internalType": "bytes32",
          "name": "role",
          "type": "bytes32"
        },
        {
          "internalType": "address",
          "name": "account",
          "type": "address"
        }
      ],
      "name": "hasRole",
      "outputs": [
        {
          "internalType": "bool",
          "name": "",
          "type": "bool"
        }
      ],
      "stateMutability": "view",
      "type": "function"
    },
    {
      "inputs": [
        {
          "internalType": "address",
          "name": "owner",
          "type": "address"
        },
        {
          "internalType": "address",
          "name": "operator",
          "type": "address"
        }
      ],
      "name": "isApprovedForAll",
      "outputs": [
        {
          "internalType": "bool",
          "name": "",
          "type": "bool"
        }
      ],
      "stateMutability": "view",
      "type": "function"
    },
    {
      "inputs": [
        {
          "internalType": "uint256",
          "name": "nft",
          "type": "uint256"
        },
        {
          "internalType": "address",
          "name": "token",
          "type": "address"
        }
      ],
      "name": "isManagedToken",
      "outputs": [
        {
          "internalType": "bool",
          "name": "",
          "type": "bool"
        }
      ],
      "stateMutability": "view",
      "type": "function"
    },
    {
      "inputs": [],
      "name": "lendingPool",
      "outputs": [
        {
          "internalType": "contract ILendingPool",
          "name": "",
          "type": "address"
        }
      ],
      "stateMutability": "view",
      "type": "function"
    },
    {
      "inputs": [
        {
          "internalType": "uint256",
          "name": "nft",
          "type": "uint256"
        }
      ],
      "name": "managedTokens",
      "outputs": [
        {
          "internalType": "address[]",
          "name": "",
          "type": "address[]"
        }
      ],
      "stateMutability": "view",
      "type": "function"
    },
    {
      "inputs": [],
      "name": "maxTokensPerCell",
      "outputs": [
        {
          "internalType": "uint256",
          "name": "",
          "type": "uint256"
        }
      ],
      "stateMutability": "view",
      "type": "function"
    },
    {
      "inputs": [],
      "name": "name",
      "outputs": [
        {
          "internalType": "string",
          "name": "",
          "type": "string"
        }
      ],
      "stateMutability": "view",
      "type": "function"
    },
    {
      "inputs": [
        {
          "internalType": "uint256",
          "name": "tokenId",
          "type": "uint256"
        }
      ],
      "name": "ownerOf",
      "outputs": [
        {
          "internalType": "address",
          "name": "",
          "type": "address"
        }
      ],
      "stateMutability": "view",
      "type": "function"
    },
    {
      "inputs": [],
      "name": "pendingMaxTokensPerCell",
      "outputs": [
        {
          "internalType": "uint256",
          "name": "",
          "type": "uint256"
        }
      ],
      "stateMutability": "view",
      "type": "function"
    },
    {
      "inputs": [],
      "name": "pendingPermissionless",
      "outputs": [
        {
          "internalType": "bool",
          "name": "",
          "type": "bool"
        }
      ],
      "stateMutability": "view",
      "type": "function"
    },
    {
      "inputs": [],
      "name": "permissionless",
      "outputs": [
        {
          "internalType": "bool",
          "name": "",
          "type": "bool"
        }
      ],
      "stateMutability": "view",
      "type": "function"
    },
    {
      "inputs": [
        {
          "internalType": "bytes32",
          "name": "role",
          "type": "bytes32"
        },
        {
          "internalType": "address",
          "name": "account",
          "type": "address"
        }
      ],
      "name": "renounceRole",
      "outputs": [],
      "stateMutability": "nonpayable",
      "type": "function"
    },
    {
      "inputs": [
        {
          "internalType": "bytes32",
          "name": "role",
          "type": "bytes32"
        },
        {
          "internalType": "address",
          "name": "account",
          "type": "address"
        }
      ],
      "name": "revokeRole",
      "outputs": [],
      "stateMutability": "nonpayable",
      "type": "function"
    },
    {
      "inputs": [
        {
          "internalType": "address",
          "name": "from",
          "type": "address"
        },
        {
          "internalType": "address",
          "name": "to",
          "type": "address"
        },
        {
          "internalType": "uint256",
          "name": "tokenId",
          "type": "uint256"
        }
      ],
      "name": "safeTransferFrom",
      "outputs": [],
      "stateMutability": "nonpayable",
      "type": "function"
    },
    {
      "inputs": [
        {
          "internalType": "address",
          "name": "from",
          "type": "address"
        },
        {
          "internalType": "address",
          "name": "to",
          "type": "address"
        },
        {
          "internalType": "uint256",
          "name": "tokenId",
          "type": "uint256"
        },
        {
          "internalType": "bytes",
          "name": "_data",
          "type": "bytes"
        }
      ],
      "name": "safeTransferFrom",
      "outputs": [],
      "stateMutability": "nonpayable",
      "type": "function"
    },
    {
      "inputs": [
        {
          "internalType": "address",
          "name": "operator",
          "type": "address"
        },
        {
          "internalType": "bool",
          "name": "approved",
          "type": "bool"
        }
      ],
      "name": "setApprovalForAll",
      "outputs": [],
      "stateMutability": "nonpayable",
      "type": "function"
    },
    {
      "inputs": [
        {
          "internalType": "uint256",
          "name": "_pendingMaxTokensPerCell",
          "type": "uint256"
        }
      ],
      "name": "setPendingMaxTokensPerCell",
      "outputs": [],
      "stateMutability": "nonpayable",
      "type": "function"
    },
    {
      "inputs": [
        {
          "internalType": "bool",
          "name": "_pendingPermissionless",
          "type": "bool"
        }
      ],
      "name": "setPendingPermissionless",
      "outputs": [],
      "stateMutability": "nonpayable",
      "type": "function"
    },
    {
      "inputs": [
        {
          "internalType": "bytes4",
          "name": "interfaceId",
          "type": "bytes4"
        }
      ],
      "name": "supportsInterface",
      "outputs": [
        {
          "internalType": "bool",
          "name": "",
          "type": "bool"
        }
      ],
      "stateMutability": "view",
      "type": "function"
    },
    {
      "inputs": [],
      "name": "symbol",
      "outputs": [
        {
          "internalType": "string",
          "name": "",
          "type": "string"
        }
      ],
      "stateMutability": "view",
      "type": "function"
    },
    {
      "inputs": [
        {
          "internalType": "address",
          "name": "",
          "type": "address"
        }
      ],
      "name": "tokenBalances",
      "outputs": [
        {
          "internalType": "uint256",
          "name": "",
          "type": "uint256"
        }
      ],
      "stateMutability": "view",
      "type": "function"
    },
    {
      "inputs": [
        {
          "internalType": "uint256",
          "name": "",
          "type": "uint256"
        },
        {
          "internalType": "address",
          "name": "",
          "type": "address"
        }
      ],
      "name": "tokenCellsBalances",
      "outputs": [
        {
          "internalType": "uint256",
          "name": "",
          "type": "uint256"
        }
      ],
      "stateMutability": "view",
      "type": "function"
    },
    {
      "inputs": [
        {
          "internalType": "uint256",
          "name": "tokenId",
          "type": "uint256"
        }
      ],
      "name": "tokenURI",
      "outputs": [
        {
          "internalType": "string",
          "name": "",
          "type": "string"
        }
      ],
      "stateMutability": "view",
      "type": "function"
    },
    {
      "inputs": [
        {
          "internalType": "address",
          "name": "from",
          "type": "address"
        },
        {
          "internalType": "address",
          "name": "to",
          "type": "address"
        },
        {
          "internalType": "uint256",
          "name": "tokenId",
          "type": "uint256"
        }
      ],
      "name": "transferFrom",
      "outputs": [],
      "stateMutability": "nonpayable",
      "type": "function"
    },
    {
      "inputs": [
        {
          "internalType": "uint256",
          "name": "nft",
          "type": "uint256"
        },
        {
          "internalType": "address",
          "name": "to",
          "type": "address"
        },
        {
          "internalType": "address[]",
          "name": "tokens",
          "type": "address[]"
        },
        {
          "internalType": "uint256[]",
          "name": "tokenAmounts",
          "type": "uint256[]"
        }
      ],
      "name": "withdraw",
      "outputs": [
        {
          "internalType": "uint256[]",
          "name": "actualTokenAmounts",
          "type": "uint256[]"
        }
      ],
      "stateMutability": "nonpayable",
      "type": "function"
    }
  ],
  "transactionHash": "0x2948d15c17f594035a3a15e8d350df7d9fe4fe38a2fb3a55612a1a53178f5d20",
  "args": [
    "0x7d2768dE32b0b80b7a3454c06BdAc94A69DDc7A9",
    "Mellow Aave Cells V1",
    "MACV1"
  ],
  "solcInputHash": "9b07e89da684cda4361265849d68a216",
  "bytecode": "0x60806040526008805460ff19169055600a6009556001600d553480156200002557600080fd5b5060405162003ffc38038062003ffc833981016040819052620000489162000437565b818181816200006760008051602062003fbc8339815191523362000121565b6200008260008051602062003fbc8339815191528062000164565b6200009d60008051602062003fdc8339815191523362000121565b620000c760008051602062003fdc83398151915260008051602062003fbc83398151915262000164565b8151620000dc906002906020850190620002da565b508051620000f2906003906020840190620002da565b5050600e80546001600160a01b0319166001600160a01b03979097169690961790955550620005149350505050565b620001388282620001b860201b620019951760201c565b60008281526001602090815260409091206200015f918390620019a3620001c8821b17901c565b505050565b600082815260208190526040902060010154819060405184907fbd79b86ffe0ab8e8776151514217cd7cacd52c909f66475c3af44e129f0b00ff90600090a460009182526020829052604090912060010155565b620001c48282620001e8565b5050565b6000620001df836001600160a01b03841662000288565b90505b92915050565b6000828152602081815260408083206001600160a01b038516845290915290205460ff16620001c4576000828152602081815260408083206001600160a01b03851684529091529020805460ff19166001179055620002443390565b6001600160a01b0316816001600160a01b0316837f2f8788117e7eff1d82e926ec794901d17c78024a50270940304540a733656f0d60405160405180910390a45050565b6000818152600183016020526040812054620002d157508154600181810184556000848152602080822090930184905584548482528286019093526040902091909155620001e2565b506000620001e2565b828054620002e890620004c1565b90600052602060002090601f0160209004810192826200030c576000855562000357565b82601f106200032757805160ff191683800117855562000357565b8280016001018555821562000357579182015b82811115620003575782518255916020019190600101906200033a565b506200036592915062000369565b5090565b5b808211156200036557600081556001016200036a565b600082601f8301126200039257600080fd5b81516001600160401b0380821115620003af57620003af620004fe565b604051601f8301601f19908116603f01168101908282118183101715620003da57620003da620004fe565b81604052838152602092508683858801011115620003f757600080fd5b600091505b838210156200041b5785820183015181830184015290820190620003fc565b838211156200042d5760008385830101525b9695505050505050565b6000806000606084860312156200044d57600080fd5b83516001600160a01b03811681146200046557600080fd5b60208501519093506001600160401b03808211156200048357600080fd5b620004918783880162000380565b93506040860151915080821115620004a857600080fd5b50620004b78682870162000380565b9150509250925092565b600181811c90821680620004d657607f821691505b60208210811415620004f857634e487b7160e01b600052602260045260246000fd5b50919050565b634e487b7160e01b600052604160045260246000fd5b613a9880620005246000396000f3fe608060405234801561001057600080fd5b50600436106102325760003560e01c80639010d07c11610130578063b88d4fde116100b8578063e985e9c51161007c578063e985e9c514610515578063ec15eb1614610551578063ee4818451461055a578063ee7e2dd31461056c578063fe7f2034146105a557600080fd5b8063b88d4fde146104b6578063c87b56dd146104c9578063ca15c873146104dc578063d547741f146104ef578063de7f9e4e1461050257600080fd5b8063a217fddf116100ff578063a217fddf1461046c578063a22cb46514610474578063a59a997314610487578063b53997821461049a578063b7874baa146104a357600080fd5b80639010d07c1461043157806391d148541461044457806395d89b4114610457578063a1256f9f1461045f57600080fd5b8063248a9ca3116101be57806344fbb3341161018257806344fbb334146103b8578063523fba7f146103c05780636352211e146103e05780636df69f2f146103f357806370a082311461041e57600080fd5b8063248a9ca3146103495780632f2ff15d1461036c57806336568abe1461037f578063423b01ec1461039257806342842e0e146103a557600080fd5b80630d7a41b7116102055780630d7a41b7146102b457806313a24a30146102d457806318e44a49146102f55780631bb7ad6b1461031657806323b872dd1461033657600080fd5b806301ffc9a71461023757806306fdde031461025f578063081812fc14610274578063095ea7b31461029f575b600080fd5b61024a610245366004613298565b6105ad565b60405190151581526020015b60405180910390f35b6102676105d8565b604051610256919061370b565b610287610282366004613238565b61066a565b6040516001600160a01b039091168152602001610256565b6102b26102ad3660046130f8565b610704565b005b6102c76102c2366004613463565b61081a565b60405161025691906136f8565b6102e76102e2366004613124565b610cf6565b604051908152602001610256565b610308610303366004613238565b610e8d565b6040516102569291906136ca565b610329610324366004613238565b611069565b60405161025691906136b7565b6102b261034436600461301e565b6110d5565b6102e7610357366004613238565b60009081526020819052604090206001015490565b6102b261037a366004613251565b611106565b6102b261038d366004613251565b611128565b6102b26103a03660046131fe565b61114a565b6102b26103b336600461301e565b611188565b6102b26111a3565b6102e76103ce366004612fc8565b60106020526000908152604090205481565b6102876103ee366004613238565b6111d4565b6102e7610401366004613251565b600f60209081526000928352604080842090915290825290205481565b6102e761042c366004612fc8565b61124b565b61028761043f366004613276565b6112d2565b61024a610452366004613251565b6112f1565b61026761131a565b60085461024a9060ff1681565b6102e7600081565b6102b26104823660046130ca565b611329565b600e54610287906001600160a01b031681565b6102e7600a5481565b6102c76104b13660046133d8565b6113ee565b6102b26104c436600461305f565b6117e9565b6102676104d7366004613238565b611821565b6102e76104ea366004613238565b611908565b6102b26104fd366004613251565b61191f565b6102b2610510366004613238565b611929565b61024a610523366004612fe5565b6001600160a01b03918216600090815260076020908152604080832093909416825291909152205460ff1690565b6102e760095481565b60085461024a90610100900460ff1681565b61024a61057a366004613251565b6000918252600c602090815260408084206001600160a01b0393909316845291905290205460ff1690565b6102b2611952565b60006001600160e01b03198216631ccd795160e31b14806105d257506105d2826119b8565b92915050565b6060600280546105e790613951565b80601f016020809104026020016040519081016040528092919081815260200182805461061390613951565b80156106605780601f1061063557610100808354040283529160200191610660565b820191906000526020600020905b81548152906001019060200180831161064357829003601f168201915b5050505050905090565b6000818152600460205260408120546001600160a01b03166106e85760405162461bcd60e51b815260206004820152602c60248201527f4552433732313a20617070726f76656420717565727920666f72206e6f6e657860448201526b34b9ba32b73a103a37b5b2b760a11b60648201526084015b60405180910390fd5b506000908152600660205260409020546001600160a01b031690565b600061070f826111d4565b9050806001600160a01b0316836001600160a01b0316141561077d5760405162461bcd60e51b815260206004820152602160248201527f4552433732313a20617070726f76616c20746f2063757272656e74206f776e656044820152603960f91b60648201526084016106df565b336001600160a01b038216148061079957506107998133610523565b61080b5760405162461bcd60e51b815260206004820152603860248201527f4552433732313a20617070726f76652063616c6c6572206973206e6f74206f7760448201527f6e6572206e6f7220617070726f76656420666f7220616c6c000000000000000060648201526084016106df565b61081583836119f8565b505050565b60606108263387611a66565b6108575760405162461bcd60e51b8152602060048201526002602482015261494f60f01b60448201526064016106df565b600061086287611069565b905060006108d48288888080602002602001604051908101604052809392919081815260200183836020028082843760009201919091525050604080516020808c0282810182019093528b82529093508b92508a918291850190849080828437600092019190915250611b5d92505050565b905060005b8251811015610c76578181815181106108f4576108f46139fd565b60200260200101516000141561090957610c64565b600061092d848381518110610920576109206139fd565b6020026020010151611d7e565b9050610951848381518110610944576109446139fd565b6020026020010151611e0b565b600060106000868581518110610969576109696139fd565b60200260200101516001600160a01b03166001600160a01b0316815260200190815260200160002054600014156109bb578383815181106109ac576109ac6139fd565b60200260200101519050610aa2565b6040516370a0823160e01b81523060048201526001600160a01b038316906370a082319060240160206040518083038186803b1580156109fa57600080fd5b505afa158015610a0e573d6000803e3d6000fd5b505050506040513d601f19601f82011682018060405250810190610a3291906133bf565b60106000878681518110610a4857610a486139fd565b60200260200101516001600160a01b03166001600160a01b0316815260200190815260200160002054858581518110610a8357610a836139fd565b6020026020010151610a9591906138d8565b610a9f91906138c4565b90505b610af43330868681518110610ab957610ab96139fd565b6020026020010151888781518110610ad357610ad36139fd565b60200260200101516001600160a01b0316611f2b909392919063ffffffff16565b600e5485516001600160a01b039091169063e8eda9df90879086908110610b1d57610b1d6139fd565b6020026020010151868681518110610b3757610b376139fd565b60209081029190910101516040516001600160e01b031960e085901b1681526001600160a01b039092166004830152602482015230604482015260006064820152608401600060405180830381600087803b158015610b9557600080fd5b505af1158015610ba9573d6000803e3d6000fd5b505050508060106000878681518110610bc457610bc46139fd565b60200260200101516001600160a01b03166001600160a01b031681526020019081526020016000206000828254610bfb91906138ac565b909155505060008b8152600f602052604081208651839290889087908110610c2557610c256139fd565b60200260200101516001600160a01b03166001600160a01b031681526020019081526020016000206000828254610c5c91906138ac565b909155505050505b80610c6e8161398c565b9150506108d9565b50848480806020026020016040519081016040528093929190818152602001838360200280828437600092019190915250506040519295507fe33829dd3495a41ba02f88de5eadec2635e25192c73dee8c65625206aa61e09a92610ce392508b91508a908a908890613827565b60405180910390a1505095945050505050565b60085460009060ff1680610d0d5750610d0d611f85565b610d295760405162461bcd60e51b81526004016106df9061371e565b60095483511115610d615760405162461bcd60e51b8152602060048201526002602482015261135560f21b60448201526064016106df565b610d6a83611fe6565b610d9c5760405162461bcd60e51b815260206004820152600360248201526253415560e81b60448201526064016106df565b6000610da8848461208b565b6000818152600b602090815260409091208651929350610dcc929091870190612dfd565b5060005b8451811015610e43576000828152600c60205260408120865160019290889085908110610dff57610dff6139fd565b6020908102919091018101516001600160a01b03168252810191909152604001600020805460ff191691151591909117905580610e3b8161398c565b915050610dd0565b5080336001600160a01b03167fe423da5b0aa0eb7a8c8409551a7f9487952c6003da26568ea41ee22cf3133d4a85604051610e7e919061370b565b60405180910390a39392505050565b606080610e9983611069565b915081516001600160401b03811115610eb457610eb4613a13565b604051908082528060200260200182016040528015610edd578160200160208202803683370190505b50905060005b8251811015611063576000610f03848381518110610920576109206139fd565b905060106000858481518110610f1b57610f1b6139fd565b60200260200101516001600160a01b03166001600160a01b0316815260200190815260200160002054600f60008781526020019081526020016000206000868581518110610f6b57610f6b6139fd565b60200260200101516001600160a01b03166001600160a01b0316815260200190815260200160002054826001600160a01b03166370a08231306040518263ffffffff1660e01b8152600401610fcf91906001600160a01b0391909116815260200190565b60206040518083038186803b158015610fe757600080fd5b505afa158015610ffb573d6000803e3d6000fd5b505050506040513d601f19601f8201168201806040525081019061101f91906133bf565b61102991906138d8565b61103391906138c4565b838381518110611045576110456139fd565b6020908102919091010152508061105b8161398c565b915050610ee3565b50915091565b6000818152600b60209081526040918290208054835181840281018401909452808452606093928301828280156110c957602002820191906000526020600020905b81546001600160a01b031681526001909101906020018083116110ab575b50505050509050919050565b6110df3382611a66565b6110fb5760405162461bcd60e51b81526004016106df9061378d565b6108158383836120b0565b6111108282612250565b600082815260016020526040902061081590826119a3565b6111328282612276565b600082815260016020526040902061081590826122f0565b611152611f85565b61116e5760405162461bcd60e51b81526004016106df9061371e565b600880549115156101000261ff0019909216919091179055565b610815838383604051806020016040528060008152506117e9565b6111ab611f85565b6111c75760405162461bcd60e51b81526004016106df9061371e565b600a805460095560009055565b6000818152600460205260408120546001600160a01b0316806105d25760405162461bcd60e51b815260206004820152602960248201527f4552433732313a206f776e657220717565727920666f72206e6f6e657869737460448201526832b73a103a37b5b2b760b91b60648201526084016106df565b60006001600160a01b0382166112b65760405162461bcd60e51b815260206004820152602a60248201527f4552433732313a2062616c616e636520717565727920666f7220746865207a65604482015269726f206164647265737360b01b60648201526084016106df565b506001600160a01b031660009081526005602052604090205490565b60008281526001602052604081206112ea9083612305565b9392505050565b6000918252602082815260408084206001600160a01b0393909316845291905290205460ff1690565b6060600380546105e790613951565b6001600160a01b0382163314156113825760405162461bcd60e51b815260206004820152601960248201527f4552433732313a20617070726f766520746f2063616c6c65720000000000000060448201526064016106df565b3360008181526007602090815260408083206001600160a01b03871680855290835292819020805460ff191686151590811790915590519081529192917f17307eab39ab6107e8899845ad3d59bd9653f200f220920489ca2b5937696c31910160405180910390a35050565b60606113fa3388611a66565b61142b5760405162461bcd60e51b8152602060048201526002602482015261494f60f01b60448201526064016106df565b600061143688611069565b905060006114a88288888080602002602001604051908101604052809392919081815260200183836020028082843760009201919091525050604080516020808c0282810182019093528b82529093508b92508a918291850190849080828437600092019190915250611b5d92505050565b905060005b82518110156117665760006114cd848381518110610920576109206139fd565b6040516370a0823160e01b81523060048201529091506000906001600160a01b038316906370a082319060240160206040518083038186803b15801561151257600080fd5b505afa158015611526573d6000803e3d6000fd5b505050506040513d601f19601f8201168201806040525081019061154a91906133bf565b60106000878681518110611560576115606139fd565b60200260200101516001600160a01b03166001600160a01b031681526020019081526020016000205485858151811061159b5761159b6139fd565b60200260200101516115ad91906138d8565b6115b791906138c4565b9050806115c5575050611754565b80601060008786815181106115dc576115dc6139fd565b60200260200101516001600160a01b03166001600160a01b03168152602001908152602001600020600082825461161391906138f7565b909155505060008c8152600f60205260408120865183929088908790811061163d5761163d6139fd565b60200260200101516001600160a01b03166001600160a01b03168152602001908152602001600020600082825461167491906138f7565b9091555050600e5485516001600160a01b03909116906369328dec908790869081106116a2576116a26139fd565b60200260200101518686815181106116bc576116bc6139fd565b60209081029190910101516040516001600160e01b031960e085901b1681526001600160a01b0392831660048201526024810191909152908e166044820152606401602060405180830381600087803b15801561171857600080fd5b505af115801561172c573d6000803e3d6000fd5b505050506040513d601f19601f8201168201806040525081019061175091906133bf565b5050505b8061175e8161398c565b9150506114ad565b50848480806020026020016040519081016040528093929190818152602001838360200280828437600092019190915250506040519295507f8d04027fcc6b389782391c87ffe1fbc8b300720c147b657fc2cd85161fcf2fe9926117d592508c91508b908b908b9089906137de565b60405180910390a150509695505050505050565b6117f33383611a66565b61180f5760405162461bcd60e51b81526004016106df9061378d565b61181b84848484612311565b50505050565b6000818152600460205260409020546060906001600160a01b03166118a05760405162461bcd60e51b815260206004820152602f60248201527f4552433732314d657461646174613a2055524920717565727920666f72206e6f60448201526e3732bc34b9ba32b73a103a37b5b2b760891b60648201526084016106df565b60006118b760408051602081019091526000815290565b905060008151116118d757604051806020016040528060008152506112ea565b806118e184612344565b6040516020016118f29291906135d6565b6040516020818303038152906040529392505050565b60008181526001602052604081206105d290612441565b611132828261244b565b611931611f85565b61194d5760405162461bcd60e51b81526004016106df9061371e565b600a55565b61195a611f85565b6119765760405162461bcd60e51b81526004016106df9061371e565b6008805461ff001960ff61010083041615151661ffff19909116179055565b61199f8282612471565b5050565b60006112ea836001600160a01b0384166124f5565b60006001600160e01b031982166380ac58cd60e01b14806119e957506001600160e01b03198216635b5e139f60e01b145b806105d257506105d282612544565b600081815260066020526040902080546001600160a01b0319166001600160a01b0384169081179091558190611a2d826111d4565b6001600160a01b03167f8c5be1e5ebec7d5bd14f71427d1e84f3dd0314c0f7b2291e5b200ac8c7c3b92560405160405180910390a45050565b6000818152600460205260408120546001600160a01b0316611adf5760405162461bcd60e51b815260206004820152602c60248201527f4552433732313a206f70657261746f7220717565727920666f72206e6f6e657860448201526b34b9ba32b73a103a37b5b2b760a11b60648201526084016106df565b6000611aea836111d4565b9050806001600160a01b0316846001600160a01b03161480611b255750836001600160a01b0316611b1a8461066a565b6001600160a01b0316145b80611b5557506001600160a01b0380821660009081526007602090815260408083209388168352929052205460ff165b949350505050565b6060600084516001600160401b03811115611b7a57611b7a613a13565b604051908082528060200260200182016040528015611ba3578160200160208202803683370190505b5090506000805b865182108015611bba5750855181105b15611d3957858181518110611bd157611bd16139fd565b60200260200101516001600160a01b0316878381518110611bf457611bf46139fd565b60200260200101516001600160a01b03161015611c3c576000838381518110611c1f57611c1f6139fd565b602090810291909101015281611c348161398c565b925050611baa565b858181518110611c4e57611c4e6139fd565b60200260200101516001600160a01b0316878381518110611c7157611c716139fd565b60200260200101516001600160a01b03161115611cea57848181518110611c9a57611c9a6139fd565b602002602001015160001415611cbc5780611cb48161398c565b915050611baa565b60405162461bcd60e51b815260206004820152600360248201526254505360e81b60448201526064016106df565b848181518110611cfc57611cfc6139fd565b6020026020010151838381518110611d1657611d166139fd565b602090810291909101015281611d2b8161398c565b9250508080611cb49061398c565b8651821015611d73576000838381518110611d5657611d566139fd565b602090810291909101015281611d6b8161398c565b925050611d39565b509095945050505050565b600e546040516335ea6a7560e01b81526001600160a01b03838116600483015260009283929116906335ea6a75906024016101806040518083038186803b158015611dc857600080fd5b505afa158015611ddc573d6000803e3d6000fd5b505050506040513d601f19601f82011682018060405250810190611e0091906132d2565b60e001519392505050565b611e1860026000196138c4565b600e54604051636eb1769f60e11b81526001600160a01b0391821660048201523060248201529083169063dd62ed3e9060440160206040518083038186803b158015611e6357600080fd5b505afa158015611e77573d6000803e3d6000fd5b505050506040513d601f19601f82011682018060405250810190611e9b91906133bf565b1015611f2857600e5460405163095ea7b360e01b81526001600160a01b03918216600482015260001960248201529082169063095ea7b390604401602060405180830381600087803b158015611ef057600080fd5b505af1158015611f04573d6000803e3d6000fd5b505050506040513d601f19601f8201168201806040525081019061199f919061321b565b50565b604080516001600160a01b0385811660248301528416604482015260648082018490528251808303909101815260849091019091526020810180516001600160e01b03166323b872dd60e01b17905261181b908590612569565b6000611fb17fabea6fd3db56a6e6d0242111b43ebb13d1c42709651c032c7894962023a1f90a336112f1565b80611fe15750611fe17fb2ca199e5d628271269f73708112899272988324e125fafee9627694e71b1d25336112f1565b905090565b6000600282511015611ffa57506001919050565b60005b6001835161200b91906138f7565b811015612082578261201e8260016138ac565b8151811061202e5761202e6139fd565b60200260200101516001600160a01b0316838281518110612051576120516139fd565b60200260200101516001600160a01b0316106120705750600092915050565b8061207a8161398c565b915050611ffd565b50600192915050565b600d8054600091600190836120a083856138ac565b909155506112ea9050338261263b565b826001600160a01b03166120c3826111d4565b6001600160a01b03161461212b5760405162461bcd60e51b815260206004820152602960248201527f4552433732313a207472616e73666572206f6620746f6b656e2074686174206960448201526839903737ba1037bbb760b91b60648201526084016106df565b6001600160a01b03821661218d5760405162461bcd60e51b8152602060048201526024808201527f4552433732313a207472616e7366657220746f20746865207a65726f206164646044820152637265737360e01b60648201526084016106df565b6121986000826119f8565b6001600160a01b03831660009081526005602052604081208054600192906121c19084906138f7565b90915550506001600160a01b03821660009081526005602052604081208054600192906121ef9084906138ac565b909155505060008181526004602052604080822080546001600160a01b0319166001600160a01b0386811691821790925591518493918716917fddf252ad1be2c89b69c2b068fc378daa952ba7f163c4a11628f55a4df523b3ef91a4505050565b60008281526020819052604090206001015461226c8133612655565b6108158383612471565b6001600160a01b03811633146122e65760405162461bcd60e51b815260206004820152602f60248201527f416363657373436f6e74726f6c3a2063616e206f6e6c792072656e6f756e636560448201526e103937b632b9903337b91039b2b63360891b60648201526084016106df565b61199f82826126b9565b60006112ea836001600160a01b03841661271e565b60006112ea8383612811565b61231c8484846120b0565b6123288484848461283b565b61181b5760405162461bcd60e51b81526004016106df9061373b565b6060816123685750506040805180820190915260018152600360fc1b602082015290565b8160005b8115612392578061237c8161398c565b915061238b9050600a836138c4565b915061236c565b6000816001600160401b038111156123ac576123ac613a13565b6040519080825280601f01601f1916602001820160405280156123d6576020820181803683370190505b5090505b8415611b55576123eb6001836138f7565b91506123f8600a866139a7565b6124039060306138ac565b60f81b818381518110612418576124186139fd565b60200101906001600160f81b031916908160001a90535061243a600a866138c4565b94506123da565b60006105d2825490565b6000828152602081905260409020600101546124678133612655565b61081583836126b9565b61247b82826112f1565b61199f576000828152602081815260408083206001600160a01b03851684529091529020805460ff191660011790556124b13390565b6001600160a01b0316816001600160a01b0316837f2f8788117e7eff1d82e926ec794901d17c78024a50270940304540a733656f0d60405160405180910390a45050565b600081815260018301602052604081205461253c575081546001818101845560008481526020808220909301849055845484825282860190935260409020919091556105d2565b5060006105d2565b60006001600160e01b03198216635a05180f60e01b14806105d257506105d282612948565b60006125be826040518060400160405280602081526020017f5361666545524332303a206c6f772d6c6576656c2063616c6c206661696c6564815250856001600160a01b031661297d9092919063ffffffff16565b80519091501561081557808060200190518101906125dc919061321b565b6108155760405162461bcd60e51b815260206004820152602a60248201527f5361666545524332303a204552433230206f7065726174696f6e20646964206e6044820152691bdd081cdd58d8d9595960b21b60648201526084016106df565b61199f82826040518060200160405280600081525061298c565b61265f82826112f1565b61199f57612677816001600160a01b031660146129bf565b6126828360206129bf565b604051602001612693929190613605565b60408051601f198184030181529082905262461bcd60e51b82526106df9160040161370b565b6126c382826112f1565b1561199f576000828152602081815260408083206001600160a01b0385168085529252808320805460ff1916905551339285917ff6391f5c32d9c69d2a47ea670b442974b53935d1edc7fd64eb21e047a839171b9190a45050565b600081815260018301602052604081205480156128075760006127426001836138f7565b8554909150600090612756906001906138f7565b90508181146127bb576000866000018281548110612776576127766139fd565b9060005260206000200154905080876000018481548110612799576127996139fd565b6000918252602080832090910192909255918252600188019052604090208390555b85548690806127cc576127cc6139e7565b6001900381819060005260206000200160009055905585600101600086815260200190815260200160002060009055600193505050506105d2565b60009150506105d2565b6000826000018281548110612828576128286139fd565b9060005260206000200154905092915050565b60006001600160a01b0384163b1561293d57604051630a85bd0160e11b81526001600160a01b0385169063150b7a029061287f90339089908890889060040161367a565b602060405180830381600087803b15801561289957600080fd5b505af19250505080156128c9575060408051601f3d908101601f191682019092526128c6918101906132b5565b60015b612923573d8080156128f7576040519150601f19603f3d011682016040523d82523d6000602084013e6128fc565b606091505b50805161291b5760405162461bcd60e51b81526004016106df9061373b565b805181602001fd5b6001600160e01b031916630a85bd0160e11b149050611b55565b506001949350505050565b60006001600160e01b03198216637965db0b60e01b14806105d257506301ffc9a760e01b6001600160e01b03198316146105d2565b6060611b558484600085612b5a565b6129968383612c82565b6129a3600084848461283b565b6108155760405162461bcd60e51b81526004016106df9061373b565b606060006129ce8360026138d8565b6129d99060026138ac565b6001600160401b038111156129f0576129f0613a13565b6040519080825280601f01601f191660200182016040528015612a1a576020820181803683370190505b509050600360fc1b81600081518110612a3557612a356139fd565b60200101906001600160f81b031916908160001a905350600f60fb1b81600181518110612a6457612a646139fd565b60200101906001600160f81b031916908160001a9053506000612a888460026138d8565b612a939060016138ac565b90505b6001811115612b0b576f181899199a1a9b1b9c1cb0b131b232b360811b85600f1660108110612ac757612ac76139fd565b1a60f81b828281518110612add57612add6139fd565b60200101906001600160f81b031916908160001a90535060049490941c93612b048161393a565b9050612a96565b5083156112ea5760405162461bcd60e51b815260206004820181905260248201527f537472696e67733a20686578206c656e67746820696e73756666696369656e7460448201526064016106df565b606082471015612bbb5760405162461bcd60e51b815260206004820152602660248201527f416464726573733a20696e73756666696369656e742062616c616e636520666f6044820152651c8818d85b1b60d21b60648201526084016106df565b843b612c095760405162461bcd60e51b815260206004820152601d60248201527f416464726573733a2063616c6c20746f206e6f6e2d636f6e747261637400000060448201526064016106df565b600080866001600160a01b03168587604051612c2591906135ba565b60006040518083038185875af1925050503d8060008114612c62576040519150601f19603f3d011682016040523d82523d6000602084013e612c67565b606091505b5091509150612c77828286612dc4565b979650505050505050565b6001600160a01b038216612cd85760405162461bcd60e51b815260206004820181905260248201527f4552433732313a206d696e7420746f20746865207a65726f206164647265737360448201526064016106df565b6000818152600460205260409020546001600160a01b031615612d3d5760405162461bcd60e51b815260206004820152601c60248201527f4552433732313a20746f6b656e20616c7265616479206d696e7465640000000060448201526064016106df565b6001600160a01b0382166000908152600560205260408120805460019290612d669084906138ac565b909155505060008181526004602052604080822080546001600160a01b0319166001600160a01b03861690811790915590518392907fddf252ad1be2c89b69c2b068fc378daa952ba7f163c4a11628f55a4df523b3ef908290a45050565b60608315612dd35750816112ea565b825115612de35782518084602001fd5b8160405162461bcd60e51b81526004016106df919061370b565b828054828255906000526020600020908101928215612e52579160200282015b82811115612e5257825182546001600160a01b0319166001600160a01b03909116178255602090920191600190910190612e1d565b50612e5e929150612e62565b5090565b5b80821115612e5e5760008155600101612e63565b8051612e8281613a29565b919050565b60008083601f840112612e9957600080fd5b5081356001600160401b03811115612eb057600080fd5b6020830191508360208260051b8501011115612ecb57600080fd5b9250929050565b600082601f830112612ee357600080fd5b81356001600160401b03811115612efc57612efc613a13565b612f0f601f8201601f191660200161387c565b818152846020838601011115612f2457600080fd5b816020850160208301376000918101602001919091529392505050565b600060208284031215612f5357600080fd5b604051602081018181106001600160401b0382111715612f7557612f75613a13565b6040529151825250919050565b80516fffffffffffffffffffffffffffffffff81168114612e8257600080fd5b805164ffffffffff81168114612e8257600080fd5b805160ff81168114612e8257600080fd5b600060208284031215612fda57600080fd5b81356112ea81613a29565b60008060408385031215612ff857600080fd5b823561300381613a29565b9150602083013561301381613a29565b809150509250929050565b60008060006060848603121561303357600080fd5b833561303e81613a29565b9250602084013561304e81613a29565b929592945050506040919091013590565b6000806000806080858703121561307557600080fd5b843561308081613a29565b9350602085013561309081613a29565b92506040850135915060608501356001600160401b038111156130b257600080fd5b6130be87828801612ed2565b91505092959194509250565b600080604083850312156130dd57600080fd5b82356130e881613a29565b9150602083013561301381613a3e565b6000806040838503121561310b57600080fd5b823561311681613a29565b946020939093013593505050565b6000806040838503121561313757600080fd5b82356001600160401b038082111561314e57600080fd5b818501915085601f83011261316257600080fd5b813560208282111561317657613176613a13565b8160051b61318582820161387c565b8381528281019086840183880185018c10156131a057600080fd5b600097505b858810156131cf57803593506131ba84613a29565b838352600197909701969184019184016131a5565b5097505050860135925050808211156131e757600080fd5b506131f485828601612ed2565b9150509250929050565b60006020828403121561321057600080fd5b81356112ea81613a3e565b60006020828403121561322d57600080fd5b81516112ea81613a3e565b60006020828403121561324a57600080fd5b5035919050565b6000806040838503121561326457600080fd5b82359150602083013561301381613a29565b6000806040838503121561328957600080fd5b50508035926020909101359150565b6000602082840312156132aa57600080fd5b81356112ea81613a4c565b6000602082840312156132c757600080fd5b81516112ea81613a4c565b600061018082840312156132e557600080fd5b6132ed613853565b6132f78484612f41565b815261330560208401612f82565b602082015261331660408401612f82565b604082015261332760608401612f82565b606082015261333860808401612f82565b608082015261334960a08401612f82565b60a082015261335a60c08401612fa2565b60c082015261336b60e08401612e77565b60e082015261010061337e818501612e77565b90820152610120613390848201612e77565b908201526101406133a2848201612e77565b908201526101606133b4848201612fb7565b908201529392505050565b6000602082840312156133d157600080fd5b5051919050565b600080600080600080608087890312156133f157600080fd5b86359550602087013561340381613a29565b945060408701356001600160401b038082111561341f57600080fd5b61342b8a838b01612e87565b9096509450606089013591508082111561344457600080fd5b5061345189828a01612e87565b979a9699509497509295939492505050565b60008060008060006060868803121561347b57600080fd5b8535945060208601356001600160401b038082111561349957600080fd5b6134a589838a01612e87565b909650945060408801359150808211156134be57600080fd5b506134cb88828901612e87565b969995985093965092949392505050565b8183526000602080850194508260005b8581101561351a5781356134ff81613a29565b6001600160a01b0316875295820195908201906001016134ec565b509495945050505050565b600081518084526020808501945080840160005b8381101561351a5781516001600160a01b031687529582019590820190600101613539565b600081518084526020808501945080840160005b8381101561351a57815187529582019590820190600101613572565b600081518084526135a681602086016020860161390e565b601f01601f19169290920160200192915050565b600082516135cc81846020870161390e565b9190910192915050565b600083516135e881846020880161390e565b8351908301906135fc81836020880161390e565b01949350505050565b7f416363657373436f6e74726f6c3a206163636f756e742000000000000000000081526000835161363d81601785016020880161390e565b7001034b99036b4b9b9b4b733903937b6329607d1b601791840191820152835161366e81602884016020880161390e565b01602801949350505050565b6001600160a01b03858116825284166020820152604081018390526080606082018190526000906136ad9083018461358e565b9695505050505050565b6020815260006112ea6020830184613525565b6040815260006136dd6040830185613525565b82810360208401526136ef818561355e565b95945050505050565b6020815260006112ea602083018461355e565b6020815260006112ea602083018461358e565b6020808252600390820152621411d160ea1b604082015260600190565b60208082526032908201527f4552433732313a207472616e7366657220746f206e6f6e20455243373231526560408201527131b2b4bb32b91034b6b83632b6b2b73a32b960711b606082015260800190565b60208082526031908201527f4552433732313a207472616e736665722063616c6c6572206973206e6f74206f6040820152701ddb995c881b9bdc88185c1c1c9bdd9959607a1b606082015260800190565b8581526001600160a01b038516602082015260806040820181905260009061380990830185876134dc565b828103606084015261381b818561355e565b98975050505050505050565b8481526060602082015260006138416060830185876134dc565b8281036040840152612c77818561355e565b60405161018081016001600160401b038111828210171561387657613876613a13565b60405290565b604051601f8201601f191681016001600160401b03811182821017156138a4576138a4613a13565b604052919050565b600082198211156138bf576138bf6139bb565b500190565b6000826138d3576138d36139d1565b500490565b60008160001904831182151516156138f2576138f26139bb565b500290565b600082821015613909576139096139bb565b500390565b60005b83811015613929578181015183820152602001613911565b8381111561181b5750506000910152565b600081613949576139496139bb565b506000190190565b600181811c9082168061396557607f821691505b6020821081141561398657634e487b7160e01b600052602260045260246000fd5b50919050565b60006000198214156139a0576139a06139bb565b5060010190565b6000826139b6576139b66139d1565b500690565b634e487b7160e01b600052601160045260246000fd5b634e487b7160e01b600052601260045260246000fd5b634e487b7160e01b600052603160045260246000fd5b634e487b7160e01b600052603260045260246000fd5b634e487b7160e01b600052604160045260246000fd5b6001600160a01b0381168114611f2857600080fd5b8015158114611f2857600080fd5b6001600160e01b031981168114611f2857600080fdfea26469706673582212200913fc17c9d8454202c0dcc3621a14e9b5f9a2a61ee261ab69f1f417a0b7d25c64736f6c63430008070033abea6fd3db56a6e6d0242111b43ebb13d1c42709651c032c7894962023a1f90ab2ca199e5d628271269f73708112899272988324e125fafee9627694e71b1d25",
  "devdoc": {
    "kind": "dev",
    "methods": {
      "approve(address,uint256)": {
        "details": "See {IERC721-approve}."
      },
      "balanceOf(address)": {
        "details": "See {IERC721-balanceOf}."
      },
      "getApproved(uint256)": {
        "details": "See {IERC721-getApproved}."
      },
      "getRoleAdmin(bytes32)": {
        "details": "Returns the admin role that controls `role`. See {grantRole} and {revokeRole}. To change a role's admin, use {_setRoleAdmin}."
      },
      "getRoleMember(bytes32,uint256)": {
        "details": "Returns one of the accounts that have `role`. `index` must be a value between 0 and {getRoleMemberCount}, non-inclusive. Role bearers are not sorted in any particular way, and their ordering may change at any point. WARNING: When using {getRoleMember} and {getRoleMemberCount}, make sure you perform all queries on the same block. See the following https://forum.openzeppelin.com/t/iterating-over-elements-on-enumerableset-in-openzeppelin-contracts/2296[forum post] for more information."
      },
      "getRoleMemberCount(bytes32)": {
        "details": "Returns the number of accounts that have `role`. Can be used together with {getRoleMember} to enumerate all bearers of a role."
      },
      "grantRole(bytes32,address)": {
        "details": "Overload {grantRole} to track enumerable memberships"
      },
      "hasRole(bytes32,address)": {
        "details": "Returns `true` if `account` has been granted `role`."
      },
      "isApprovedForAll(address,address)": {
        "details": "See {IERC721-isApprovedForAll}."
      },
      "name()": {
        "details": "See {IERC721Metadata-name}."
      },
      "ownerOf(uint256)": {
        "details": "See {IERC721-ownerOf}."
      },
      "renounceRole(bytes32,address)": {
        "details": "Overload {renounceRole} to track enumerable memberships"
      },
      "revokeRole(bytes32,address)": {
        "details": "Overload {revokeRole} to track enumerable memberships"
      },
      "safeTransferFrom(address,address,uint256)": {
        "details": "See {IERC721-safeTransferFrom}."
      },
      "safeTransferFrom(address,address,uint256,bytes)": {
        "details": "See {IERC721-safeTransferFrom}."
      },
      "setApprovalForAll(address,bool)": {
        "details": "See {IERC721-setApprovalForAll}."
      },
      "symbol()": {
        "details": "See {IERC721Metadata-symbol}."
      },
      "tokenURI(uint256)": {
        "details": "See {IERC721Metadata-tokenURI}."
      },
      "transferFrom(address,address,uint256)": {
        "details": "See {IERC721-transferFrom}."
      }
    },
    "version": 1
  },
  "userdoc": {
    "kind": "user",
    "methods": {
      "createCell(address[],bytes)": {
        "notice": "-------------------  PUBLIC, MUTATING, GOVERNANCE OR PERMISSIONLESS  -------------------"
      },
      "managedTokens(uint256)": {
        "notice": "-------------------  PUBLIC, VIEW  -------------------"
      },
      "setPendingPermissionless(bool)": {
        "notice": "-------------------  PUBLIC, MUTATING, GOVERNANCE  -------------------"
      }
    },
    "version": 1
  },
  "storageLayout": {
    "storage": [
      {
        "astId": 62,
        "contract": "contracts/AaveCells.sol:AaveCells",
        "label": "_roles",
        "offset": 0,
        "slot": "0",
        "type": "t_mapping(t_bytes32,t_struct(RoleData)57_storage)"
      },
      {
        "astId": 403,
        "contract": "contracts/AaveCells.sol:AaveCells",
        "label": "_roleMembers",
        "offset": 0,
        "slot": "1",
        "type": "t_mapping(t_bytes32,t_struct(AddressSet)3574_storage)"
      },
      {
        "astId": 1783,
        "contract": "contracts/AaveCells.sol:AaveCells",
        "label": "_name",
        "offset": 0,
        "slot": "2",
        "type": "t_string_storage"
      },
      {
        "astId": 1785,
        "contract": "contracts/AaveCells.sol:AaveCells",
        "label": "_symbol",
        "offset": 0,
        "slot": "3",
        "type": "t_string_storage"
      },
      {
        "astId": 1789,
        "contract": "contracts/AaveCells.sol:AaveCells",
        "label": "_owners",
        "offset": 0,
        "slot": "4",
        "type": "t_mapping(t_uint256,t_address)"
      },
      {
        "astId": 1793,
        "contract": "contracts/AaveCells.sol:AaveCells",
        "label": "_balances",
        "offset": 0,
        "slot": "5",
        "type": "t_mapping(t_address,t_uint256)"
      },
      {
        "astId": 1797,
        "contract": "contracts/AaveCells.sol:AaveCells",
        "label": "_tokenApprovals",
        "offset": 0,
        "slot": "6",
        "type": "t_mapping(t_uint256,t_address)"
      },
      {
        "astId": 1803,
        "contract": "contracts/AaveCells.sol:AaveCells",
        "label": "_operatorApprovals",
        "offset": 0,
        "slot": "7",
        "type": "t_mapping(t_address,t_mapping(t_address,t_bool))"
      },
      {
        "astId": 4333,
        "contract": "contracts/AaveCells.sol:AaveCells",
        "label": "permissionless",
        "offset": 0,
        "slot": "8",
        "type": "t_bool"
      },
      {
        "astId": 4335,
        "contract": "contracts/AaveCells.sol:AaveCells",
        "label": "pendingPermissionless",
        "offset": 1,
        "slot": "8",
        "type": "t_bool"
      },
      {
        "astId": 4338,
        "contract": "contracts/AaveCells.sol:AaveCells",
        "label": "maxTokensPerCell",
        "offset": 0,
        "slot": "9",
        "type": "t_uint256"
      },
      {
        "astId": 4340,
        "contract": "contracts/AaveCells.sol:AaveCells",
        "label": "pendingMaxTokensPerCell",
        "offset": 0,
        "slot": "10",
        "type": "t_uint256"
      },
      {
        "astId": 4345,
        "contract": "contracts/AaveCells.sol:AaveCells",
        "label": "_managedTokens",
        "offset": 0,
        "slot": "11",
        "type": "t_mapping(t_uint256,t_array(t_address)dyn_storage)"
      },
      {
        "astId": 4351,
        "contract": "contracts/AaveCells.sol:AaveCells",
        "label": "_managedTokensIndex",
        "offset": 0,
        "slot": "12",
        "type": "t_mapping(t_uint256,t_mapping(t_address,t_bool))"
      },
      {
        "astId": 4354,
        "contract": "contracts/AaveCells.sol:AaveCells",
        "label": "_topCellNft",
        "offset": 0,
        "slot": "13",
        "type": "t_uint256"
      },
      {
        "astId": 3821,
        "contract": "contracts/AaveCells.sol:AaveCells",
        "label": "lendingPool",
        "offset": 0,
        "slot": "14",
        "type": "t_contract(ILendingPool)7728"
      },
      {
        "astId": 3827,
        "contract": "contracts/AaveCells.sol:AaveCells",
        "label": "tokenCellsBalances",
        "offset": 0,
        "slot": "15",
        "type": "t_mapping(t_uint256,t_mapping(t_address,t_uint256))"
      },
      {
        "astId": 3831,
        "contract": "contracts/AaveCells.sol:AaveCells",
        "label": "tokenBalances",
        "offset": 0,
        "slot": "16",
        "type": "t_mapping(t_address,t_uint256)"
      }
    ],
    "types": {
      "t_address": {
        "encoding": "inplace",
        "label": "address",
        "numberOfBytes": "20"
      },
      "t_array(t_address)dyn_storage": {
        "base": "t_address",
        "encoding": "dynamic_array",
        "label": "address[]",
        "numberOfBytes": "32"
      },
      "t_array(t_bytes32)dyn_storage": {
        "base": "t_bytes32",
        "encoding": "dynamic_array",
        "label": "bytes32[]",
        "numberOfBytes": "32"
      },
      "t_bool": {
        "encoding": "inplace",
        "label": "bool",
        "numberOfBytes": "1"
      },
      "t_bytes32": {
        "encoding": "inplace",
        "label": "bytes32",
        "numberOfBytes": "32"
      },
      "t_contract(ILendingPool)7728": {
        "encoding": "inplace",
        "label": "contract ILendingPool",
        "numberOfBytes": "20"
      },
      "t_mapping(t_address,t_bool)": {
        "encoding": "mapping",
        "key": "t_address",
        "label": "mapping(address => bool)",
        "numberOfBytes": "32",
        "value": "t_bool"
      },
      "t_mapping(t_address,t_mapping(t_address,t_bool))": {
        "encoding": "mapping",
        "key": "t_address",
        "label": "mapping(address => mapping(address => bool))",
        "numberOfBytes": "32",
        "value": "t_mapping(t_address,t_bool)"
      },
      "t_mapping(t_address,t_uint256)": {
        "encoding": "mapping",
        "key": "t_address",
        "label": "mapping(address => uint256)",
        "numberOfBytes": "32",
        "value": "t_uint256"
      },
      "t_mapping(t_bytes32,t_struct(AddressSet)3574_storage)": {
        "encoding": "mapping",
        "key": "t_bytes32",
        "label": "mapping(bytes32 => struct EnumerableSet.AddressSet)",
        "numberOfBytes": "32",
        "value": "t_struct(AddressSet)3574_storage"
      },
      "t_mapping(t_bytes32,t_struct(RoleData)57_storage)": {
        "encoding": "mapping",
        "key": "t_bytes32",
        "label": "mapping(bytes32 => struct AccessControl.RoleData)",
        "numberOfBytes": "32",
        "value": "t_struct(RoleData)57_storage"
      },
      "t_mapping(t_bytes32,t_uint256)": {
        "encoding": "mapping",
        "key": "t_bytes32",
        "label": "mapping(bytes32 => uint256)",
        "numberOfBytes": "32",
        "value": "t_uint256"
      },
      "t_mapping(t_uint256,t_address)": {
        "encoding": "mapping",
        "key": "t_uint256",
        "label": "mapping(uint256 => address)",
        "numberOfBytes": "32",
        "value": "t_address"
      },
      "t_mapping(t_uint256,t_array(t_address)dyn_storage)": {
        "encoding": "mapping",
        "key": "t_uint256",
        "label": "mapping(uint256 => address[])",
        "numberOfBytes": "32",
        "value": "t_array(t_address)dyn_storage"
      },
      "t_mapping(t_uint256,t_mapping(t_address,t_bool))": {
        "encoding": "mapping",
        "key": "t_uint256",
        "label": "mapping(uint256 => mapping(address => bool))",
        "numberOfBytes": "32",
        "value": "t_mapping(t_address,t_bool)"
      },
      "t_mapping(t_uint256,t_mapping(t_address,t_uint256))": {
        "encoding": "mapping",
        "key": "t_uint256",
        "label": "mapping(uint256 => mapping(address => uint256))",
        "numberOfBytes": "32",
        "value": "t_mapping(t_address,t_uint256)"
      },
      "t_string_storage": {
        "encoding": "bytes",
        "label": "string",
        "numberOfBytes": "32"
      },
      "t_struct(AddressSet)3574_storage": {
        "encoding": "inplace",
        "label": "struct EnumerableSet.AddressSet",
        "members": [
          {
            "astId": 3573,
            "contract": "contracts/AaveCells.sol:AaveCells",
            "label": "_inner",
            "offset": 0,
            "slot": "0",
            "type": "t_struct(Set)3303_storage"
          }
        ],
        "numberOfBytes": "64"
      },
      "t_struct(RoleData)57_storage": {
        "encoding": "inplace",
        "label": "struct AccessControl.RoleData",
        "members": [
          {
            "astId": 54,
            "contract": "contracts/AaveCells.sol:AaveCells",
            "label": "members",
            "offset": 0,
            "slot": "0",
            "type": "t_mapping(t_address,t_bool)"
          },
          {
            "astId": 56,
            "contract": "contracts/AaveCells.sol:AaveCells",
            "label": "adminRole",
            "offset": 0,
            "slot": "1",
            "type": "t_bytes32"
          }
        ],
        "numberOfBytes": "64"
      },
      "t_struct(Set)3303_storage": {
        "encoding": "inplace",
        "label": "struct EnumerableSet.Set",
        "members": [
          {
            "astId": 3298,
            "contract": "contracts/AaveCells.sol:AaveCells",
            "label": "_values",
            "offset": 0,
            "slot": "0",
            "type": "t_array(t_bytes32)dyn_storage"
          },
          {
            "astId": 3302,
            "contract": "contracts/AaveCells.sol:AaveCells",
            "label": "_indexes",
            "offset": 0,
            "slot": "1",
            "type": "t_mapping(t_bytes32,t_uint256)"
          }
        ],
        "numberOfBytes": "64"
      },
      "t_uint256": {
        "encoding": "inplace",
        "label": "uint256",
        "numberOfBytes": "32"
      }
    }
  }
}