{
  "address": "0x47F7b4A7Ae651A62736BdA1B7740C839bc066432",
  "abi": [
    {
      "inputs": [
        {
          "internalType": "string",
          "name": "name",
          "type": "string"
        },
        {
          "internalType": "string",
          "name": "symbol",
          "type": "string"
        }
      ],
      "stateMutability": "nonpayable",
      "type": "constructor"
    },
    {
      "anonymous": false,
      "inputs": [
        {
          "indexed": true,
          "internalType": "address",
          "name": "owner",
          "type": "address"
        },
        {
          "indexed": true,
          "internalType": "address",
          "name": "approved",
          "type": "address"
        },
        {
          "indexed": true,
          "internalType": "uint256",
          "name": "tokenId",
          "type": "uint256"
        }
      ],
      "name": "Approval",
      "type": "event"
    },
    {
      "anonymous": false,
      "inputs": [
        {
          "indexed": true,
          "internalType": "address",
          "name": "owner",
          "type": "address"
        },
        {
          "indexed": true,
          "internalType": "address",
          "name": "operator",
          "type": "address"
        },
        {
          "indexed": false,
          "internalType": "bool",
          "name": "approved",
          "type": "bool"
        }
      ],
      "name": "ApprovalForAll",
      "type": "event"
    },
    {
      "anonymous": false,
      "inputs": [
        {
          "indexed": true,
          "internalType": "address",
          "name": "to",
          "type": "address"
        },
        {
          "indexed": true,
          "internalType": "uint256",
          "name": "nft",
          "type": "uint256"
        },
        {
          "indexed": false,
          "internalType": "bytes",
          "name": "params",
          "type": "bytes"
        }
      ],
      "name": "CreateCell",
      "type": "event"
    },
    {
      "anonymous": false,
      "inputs": [
        {
          "indexed": false,
          "internalType": "uint256",
          "name": "nft",
          "type": "uint256"
        },
        {
          "indexed": false,
          "internalType": "address[]",
          "name": "tokens",
          "type": "address[]"
        },
        {
          "indexed": false,
          "internalType": "uint256[]",
          "name": "actualTokenAmounts",
          "type": "uint256[]"
        }
      ],
      "name": "Deposit",
      "type": "event"
    },
    {
      "anonymous": false,
      "inputs": [
        {
          "indexed": true,
          "internalType": "bytes32",
          "name": "role",
          "type": "bytes32"
        },
        {
          "indexed": true,
          "internalType": "bytes32",
          "name": "previousAdminRole",
          "type": "bytes32"
        },
        {
          "indexed": true,
          "internalType": "bytes32",
          "name": "newAdminRole",
          "type": "bytes32"
        }
      ],
      "name": "RoleAdminChanged",
      "type": "event"
    },
    {
      "anonymous": false,
      "inputs": [
        {
          "indexed": true,
          "internalType": "bytes32",
          "name": "role",
          "type": "bytes32"
        },
        {
          "indexed": true,
          "internalType": "address",
          "name": "account",
          "type": "address"
        },
        {
          "indexed": true,
          "internalType": "address",
          "name": "sender",
          "type": "address"
        }
      ],
      "name": "RoleGranted",
      "type": "event"
    },
    {
      "anonymous": false,
      "inputs": [
        {
          "indexed": true,
          "internalType": "bytes32",
          "name": "role",
          "type": "bytes32"
        },
        {
          "indexed": true,
          "internalType": "address",
          "name": "account",
          "type": "address"
        },
        {
          "indexed": true,
          "internalType": "address",
          "name": "sender",
          "type": "address"
        }
      ],
      "name": "RoleRevoked",
      "type": "event"
    },
    {
      "anonymous": false,
      "inputs": [
        {
          "indexed": true,
          "internalType": "address",
          "name": "from",
          "type": "address"
        },
        {
          "indexed": true,
          "internalType": "address",
          "name": "to",
          "type": "address"
        },
        {
          "indexed": true,
          "internalType": "uint256",
          "name": "tokenId",
          "type": "uint256"
        }
      ],
      "name": "Transfer",
      "type": "event"
    },
    {
      "anonymous": false,
      "inputs": [
        {
          "indexed": false,
          "internalType": "uint256",
          "name": "nft",
          "type": "uint256"
        },
        {
          "indexed": false,
          "internalType": "address",
          "name": "to",
          "type": "address"
        },
        {
          "indexed": false,
          "internalType": "address[]",
          "name": "tokens",
          "type": "address[]"
        },
        {
          "indexed": false,
          "internalType": "uint256[]",
          "name": "actualTokenAmounts",
          "type": "uint256[]"
        }
      ],
      "name": "Withdraw",
      "type": "event"
    },
    {
      "inputs": [],
      "name": "DEFAULT_ADMIN_ROLE",
      "outputs": [
        {
          "internalType": "bytes32",
          "name": "",
          "type": "bytes32"
        }
      ],
      "stateMutability": "view",
      "type": "function"
    },
    {
      "inputs": [
        {
          "internalType": "address[]",
          "name": "tokens",
          "type": "address[]"
        }
      ],
      "name": "addNftAllowedTokens",
      "outputs": [],
      "stateMutability": "nonpayable",
      "type": "function"
    },
    {
      "inputs": [
        {
          "internalType": "address",
          "name": "to",
          "type": "address"
        },
        {
          "internalType": "uint256",
          "name": "tokenId",
          "type": "uint256"
        }
      ],
      "name": "approve",
      "outputs": [],
      "stateMutability": "nonpayable",
      "type": "function"
    },
    {
      "inputs": [
        {
          "internalType": "address",
          "name": "owner",
          "type": "address"
        }
      ],
      "name": "balanceOf",
      "outputs": [
        {
          "internalType": "uint256",
          "name": "",
          "type": "uint256"
        }
      ],
      "stateMutability": "view",
      "type": "function"
    },
    {
      "inputs": [],
      "name": "commitPendingMaxTokensPerCell",
      "outputs": [],
      "stateMutability": "nonpayable",
      "type": "function"
    },
    {
      "inputs": [],
      "name": "commitPendingPermissionless",
      "outputs": [],
      "stateMutability": "nonpayable",
      "type": "function"
    },
    {
      "inputs": [
        {
          "internalType": "address[]",
          "name": "cellTokens",
          "type": "address[]"
        },
        {
          "internalType": "bytes",
          "name": "params",
          "type": "bytes"
        }
      ],
      "name": "createCell",
      "outputs": [
        {
          "internalType": "uint256",
          "name": "",
          "type": "uint256"
        }
      ],
      "stateMutability": "nonpayable",
      "type": "function"
    },
    {
      "inputs": [
        {
          "internalType": "uint256",
          "name": "nft",
          "type": "uint256"
        }
      ],
      "name": "delegated",
      "outputs": [
        {
          "internalType": "address[]",
          "name": "tokenAddresses",
          "type": "address[]"
        },
        {
          "internalType": "uint256[]",
          "name": "tokenAmounts",
          "type": "uint256[]"
        }
      ],
      "stateMutability": "view",
      "type": "function"
    },
    {
      "inputs": [
        {
          "internalType": "uint256",
          "name": "nft",
          "type": "uint256"
        },
        {
          "internalType": "address[]",
          "name": "tokens",
          "type": "address[]"
        },
        {
          "internalType": "uint256[]",
          "name": "tokenAmounts",
          "type": "uint256[]"
        }
      ],
      "name": "deposit",
      "outputs": [
        {
          "internalType": "uint256[]",
          "name": "actualTokenAmounts",
          "type": "uint256[]"
        }
      ],
      "stateMutability": "nonpayable",
      "type": "function"
    },
    {
      "inputs": [
        {
          "internalType": "uint256",
          "name": "tokenId",
          "type": "uint256"
        }
      ],
      "name": "getApproved",
      "outputs": [
        {
          "internalType": "address",
          "name": "",
          "type": "address"
        }
      ],
      "stateMutability": "view",
      "type": "function"
    },
    {
      "inputs": [
        {
          "internalType": "bytes32",
          "name": "role",
          "type": "bytes32"
        }
      ],
      "name": "getRoleAdmin",
      "outputs": [
        {
          "internalType": "bytes32",
          "name": "",
          "type": "bytes32"
        }
      ],
      "stateMutability": "view",
      "type": "function"
    },
    {
      "inputs": [
        {
          "internalType": "bytes32",
          "name": "role",
          "type": "bytes32"
        },
        {
          "internalType": "uint256",
          "name": "index",
          "type": "uint256"
        }
      ],
      "name": "getRoleMember",
      "outputs": [
        {
          "internalType": "address",
          "name": "",
          "type": "address"
        }
      ],
      "stateMutability": "view",
      "type": "function"
    },
    {
      "inputs": [
        {
          "internalType": "bytes32",
          "name": "role",
          "type": "bytes32"
        }
      ],
      "name": "getRoleMemberCount",
      "outputs": [
        {
          "internalType": "uint256",
          "name": "",
          "type": "uint256"
        }
      ],
      "stateMutability": "view",
      "type": "function"
    },
    {
      "inputs": [
        {
          "internalType": "bytes32",
          "name": "role",
          "type": "bytes32"
        },
        {
          "internalType": "address",
          "name": "account",
          "type": "address"
        }
      ],
      "name": "grantRole",
      "outputs": [],
      "stateMutability": "nonpayable",
      "type": "function"
    },
    {
      "inputs": [
        {
          "internalType": "bytes32",
          "name": "role",
          "type": "bytes32"
        },
        {
          "internalType": "address",
          "name": "account",
          "type": "address"
        }
      ],
      "name": "hasRole",
      "outputs": [
        {
          "internalType": "bool",
          "name": "",
          "type": "bool"
        }
      ],
      "stateMutability": "view",
      "type": "function"
    },
    {
      "inputs": [
        {
          "internalType": "address",
          "name": "owner",
          "type": "address"
        },
        {
          "internalType": "address",
          "name": "operator",
          "type": "address"
        }
      ],
      "name": "isApprovedForAll",
      "outputs": [
        {
          "internalType": "bool",
          "name": "",
          "type": "bool"
        }
      ],
      "stateMutability": "view",
      "type": "function"
    },
    {
      "inputs": [
        {
          "internalType": "uint256",
          "name": "nft",
          "type": "uint256"
        },
        {
          "internalType": "address",
          "name": "token",
          "type": "address"
        }
      ],
      "name": "isManagedToken",
      "outputs": [
        {
          "internalType": "bool",
          "name": "",
          "type": "bool"
        }
      ],
      "stateMutability": "view",
      "type": "function"
    },
    {
      "inputs": [
        {
          "internalType": "uint256",
          "name": "nft",
          "type": "uint256"
        }
      ],
      "name": "managedTokens",
      "outputs": [
        {
          "internalType": "address[]",
          "name": "",
          "type": "address[]"
        }
      ],
      "stateMutability": "view",
      "type": "function"
    },
    {
      "inputs": [],
      "name": "maxTokensPerCell",
      "outputs": [
        {
          "internalType": "uint256",
          "name": "",
          "type": "uint256"
        }
      ],
      "stateMutability": "view",
      "type": "function"
    },
    {
      "inputs": [],
      "name": "name",
      "outputs": [
        {
          "internalType": "string",
          "name": "",
          "type": "string"
        }
      ],
      "stateMutability": "view",
      "type": "function"
    },
    {
      "inputs": [],
      "name": "nftAllowList",
      "outputs": [
        {
          "internalType": "address[]",
          "name": "",
          "type": "address[]"
        }
      ],
      "stateMutability": "view",
      "type": "function"
    },
    {
      "inputs": [
        {
          "internalType": "address",
          "name": "",
          "type": "address"
        }
      ],
      "name": "nftAllowListIndex",
      "outputs": [
        {
          "internalType": "bool",
          "name": "",
          "type": "bool"
        }
      ],
      "stateMutability": "view",
      "type": "function"
    },
    {
      "inputs": [
        {
          "internalType": "address",
          "name": "operator",
          "type": "address"
        },
        {
          "internalType": "address",
          "name": "from",
          "type": "address"
        },
        {
          "internalType": "uint256",
          "name": "tokenId",
          "type": "uint256"
        },
        {
          "internalType": "bytes",
          "name": "data",
          "type": "bytes"
        }
      ],
      "name": "onERC721Received",
      "outputs": [
        {
          "internalType": "bytes4",
          "name": "",
          "type": "bytes4"
        }
      ],
      "stateMutability": "nonpayable",
      "type": "function"
    },
    {
      "inputs": [
        {
          "internalType": "uint256",
          "name": "",
          "type": "uint256"
        },
        {
          "internalType": "uint256",
          "name": "",
          "type": "uint256"
        }
      ],
      "name": "ownedCells",
      "outputs": [
        {
          "internalType": "uint256",
          "name": "nft",
          "type": "uint256"
        },
        {
          "internalType": "address",
          "name": "addr",
          "type": "address"
        }
      ],
      "stateMutability": "view",
      "type": "function"
    },
    {
      "inputs": [
        {
          "internalType": "uint256",
          "name": "tokenId",
          "type": "uint256"
        }
      ],
      "name": "ownerOf",
      "outputs": [
        {
          "internalType": "address",
          "name": "",
          "type": "address"
        }
      ],
      "stateMutability": "view",
      "type": "function"
    },
    {
      "inputs": [],
      "name": "pendingMaxTokensPerCell",
      "outputs": [
        {
          "internalType": "uint256",
          "name": "",
          "type": "uint256"
        }
      ],
      "stateMutability": "view",
      "type": "function"
    },
    {
      "inputs": [],
      "name": "pendingPermissionless",
      "outputs": [
        {
          "internalType": "bool",
          "name": "",
          "type": "bool"
        }
      ],
      "stateMutability": "view",
      "type": "function"
    },
    {
      "inputs": [],
      "name": "permissionless",
      "outputs": [
        {
          "internalType": "bool",
          "name": "",
          "type": "bool"
        }
      ],
      "stateMutability": "view",
      "type": "function"
    },
    {
      "inputs": [
        {
          "internalType": "address",
          "name": "token",
          "type": "address"
        }
      ],
      "name": "removeNftAllowedToken",
      "outputs": [],
      "stateMutability": "nonpayable",
      "type": "function"
    },
    {
      "inputs": [
        {
          "internalType": "bytes32",
          "name": "role",
          "type": "bytes32"
        },
        {
          "internalType": "address",
          "name": "account",
          "type": "address"
        }
      ],
      "name": "renounceRole",
      "outputs": [],
      "stateMutability": "nonpayable",
      "type": "function"
    },
    {
      "inputs": [
        {
          "internalType": "bytes32",
          "name": "role",
          "type": "bytes32"
        },
        {
          "internalType": "address",
          "name": "account",
          "type": "address"
        }
      ],
      "name": "revokeRole",
      "outputs": [],
      "stateMutability": "nonpayable",
      "type": "function"
    },
    {
      "inputs": [
        {
          "internalType": "address",
          "name": "from",
          "type": "address"
        },
        {
          "internalType": "address",
          "name": "to",
          "type": "address"
        },
        {
          "internalType": "uint256",
          "name": "tokenId",
          "type": "uint256"
        }
      ],
      "name": "safeTransferFrom",
      "outputs": [],
      "stateMutability": "nonpayable",
      "type": "function"
    },
    {
      "inputs": [
        {
          "internalType": "address",
          "name": "from",
          "type": "address"
        },
        {
          "internalType": "address",
          "name": "to",
          "type": "address"
        },
        {
          "internalType": "uint256",
          "name": "tokenId",
          "type": "uint256"
        },
        {
          "internalType": "bytes",
          "name": "_data",
          "type": "bytes"
        }
      ],
      "name": "safeTransferFrom",
      "outputs": [],
      "stateMutability": "nonpayable",
      "type": "function"
    },
    {
      "inputs": [
        {
          "internalType": "address",
          "name": "operator",
          "type": "address"
        },
        {
          "internalType": "bool",
          "name": "approved",
          "type": "bool"
        }
      ],
      "name": "setApprovalForAll",
      "outputs": [],
      "stateMutability": "nonpayable",
      "type": "function"
    },
    {
      "inputs": [
        {
          "internalType": "uint256",
          "name": "_pendingMaxTokensPerCell",
          "type": "uint256"
        }
      ],
      "name": "setPendingMaxTokensPerCell",
      "outputs": [],
      "stateMutability": "nonpayable",
      "type": "function"
    },
    {
      "inputs": [
        {
          "internalType": "bool",
          "name": "_pendingPermissionless",
          "type": "bool"
        }
      ],
      "name": "setPendingPermissionless",
      "outputs": [],
      "stateMutability": "nonpayable",
      "type": "function"
    },
    {
      "inputs": [
        {
          "internalType": "bytes4",
          "name": "interfaceId",
          "type": "bytes4"
        }
      ],
      "name": "supportsInterface",
      "outputs": [
        {
          "internalType": "bool",
          "name": "",
          "type": "bool"
        }
      ],
      "stateMutability": "view",
      "type": "function"
    },
    {
      "inputs": [],
      "name": "symbol",
      "outputs": [
        {
          "internalType": "string",
          "name": "",
          "type": "string"
        }
      ],
      "stateMutability": "view",
      "type": "function"
    },
    {
      "inputs": [
        {
          "internalType": "uint256",
          "name": "tokenId",
          "type": "uint256"
        }
      ],
      "name": "tokenURI",
      "outputs": [
        {
          "internalType": "string",
          "name": "",
          "type": "string"
        }
      ],
      "stateMutability": "view",
      "type": "function"
    },
    {
      "inputs": [
        {
          "internalType": "address",
          "name": "from",
          "type": "address"
        },
        {
          "internalType": "address",
          "name": "to",
          "type": "address"
        },
        {
          "internalType": "uint256",
          "name": "tokenId",
          "type": "uint256"
        }
      ],
      "name": "transferFrom",
      "outputs": [],
      "stateMutability": "nonpayable",
      "type": "function"
    },
    {
      "inputs": [
        {
          "internalType": "uint256",
          "name": "nft",
          "type": "uint256"
        },
        {
          "internalType": "address",
          "name": "ownedNftAddress",
          "type": "address"
        },
        {
          "internalType": "uint256",
          "name": "ownedNft",
          "type": "uint256"
        },
        {
          "internalType": "address",
          "name": "to",
          "type": "address"
        }
      ],
      "name": "transferOwnedNft",
      "outputs": [],
      "stateMutability": "nonpayable",
      "type": "function"
    },
    {
      "inputs": [
        {
          "internalType": "uint256",
          "name": "nft",
          "type": "uint256"
        },
        {
          "internalType": "address",
          "name": "to",
          "type": "address"
        },
        {
          "internalType": "address[]",
          "name": "tokens",
          "type": "address[]"
        },
        {
          "internalType": "uint256[]",
          "name": "tokenAmounts",
          "type": "uint256[]"
        }
      ],
      "name": "withdraw",
      "outputs": [
        {
          "internalType": "uint256[]",
          "name": "actualTokenAmounts",
          "type": "uint256[]"
        }
      ],
      "stateMutability": "nonpayable",
      "type": "function"
    }
  ],
  "transactionHash": "0x5b1ae0f562db06043db51f1d3e8de8e8d448464926acab47a18c49b6edd068a8",
  "args": [
    "Mellow Node Cells V1",
    "MNCV1"
  ],
  "solcInputHash": "0a9285f47749bad3f42cf900edecab66",
  "bytecode": "0x6080604052600a805460ff19168155600b556001600f553480156200002357600080fd5b5060405162004be638038062004be6833981016040819052620000469162000413565b818181816200006560008051602062004ba683398151915233620000fd565b6200008060008051602062004ba68339815191528062000140565b6200009b60008051602062004bc683398151915233620000fd565b620000c560008051602062004bc683398151915260008051602062004ba683398151915262000140565b8151620000da906004906020850190620002b6565b508051620000f0906005906020840190620002b6565b50505050505050620004d0565b6200011482826200019460201b62001d651760201c565b60008281526001602090815260409091206200013b91839062001d73620001a4821b17901c565b505050565b600082815260208190526040902060010154819060405184907fbd79b86ffe0ab8e8776151514217cd7cacd52c909f66475c3af44e129f0b00ff90600090a460009182526020829052604090912060010155565b620001a08282620001c4565b5050565b6000620001bb836001600160a01b03841662000264565b90505b92915050565b6000828152602081815260408083206001600160a01b038516845290915290205460ff16620001a0576000828152602081815260408083206001600160a01b03851684529091529020805460ff19166001179055620002203390565b6001600160a01b0316816001600160a01b0316837f2f8788117e7eff1d82e926ec794901d17c78024a50270940304540a733656f0d60405160405180910390a45050565b6000818152600183016020526040812054620002ad57508154600181810184556000848152602080822090930184905584548482528286019093526040902091909155620001be565b506000620001be565b828054620002c4906200047d565b90600052602060002090601f016020900481019282620002e8576000855562000333565b82601f106200030357805160ff191683800117855562000333565b8280016001018555821562000333579182015b828111156200033357825182559160200191906001019062000316565b506200034192915062000345565b5090565b5b8082111562000341576000815560010162000346565b600082601f8301126200036e57600080fd5b81516001600160401b03808211156200038b576200038b620004ba565b604051601f8301601f19908116603f01168101908282118183101715620003b657620003b6620004ba565b81604052838152602092508683858801011115620003d357600080fd5b600091505b83821015620003f75785820183015181830184015290820190620003d8565b83821115620004095760008385830101525b9695505050505050565b600080604083850312156200042757600080fd5b82516001600160401b03808211156200043f57600080fd5b6200044d868387016200035c565b935060208501519150808211156200046457600080fd5b5062000473858286016200035c565b9150509250929050565b600181811c908216806200049257607f821691505b60208210811415620004b457634e487b7160e01b600052602260045260246000fd5b50919050565b634e487b7160e01b600052604160045260246000fd5b6146c680620004e06000396000f3fe608060405234801561001057600080fd5b506004361061025e5760003560e01c80639010d07c11610146578063c87b56dd116100c3578063de7f9e4e11610087578063de7f9e4e14610590578063e985e9c5146105a3578063ec15eb16146105df578063ee481845146105e8578063ee7e2dd3146105fa578063fe7f20341461063357600080fd5b8063c87b56dd1461052c578063ca15c8731461053f578063d547741f14610552578063d5f2474614610565578063d823fdd41461056d57600080fd5b8063a22cb4651161010a578063a22cb465146104ba578063b097d7c1146104cd578063b5399782146104fd578063b7874baa14610506578063b88d4fde1461051957600080fd5b80639010d07c1461047757806391d148541461048a57806395d89b411461049d578063a1256f9f146104a5578063a217fddf146104b257600080fd5b806323b872dd116101df5780633a453e45116101a35780633a453e4514610410578063423b01ec1461042357806342842e0e1461043657806344fbb334146104495780636352211e1461045157806370a082311461046457600080fd5b806323b872dd146103a1578063248a9ca3146103b45780632f2ff15d146103d757806334790c9e146103ea57806336568abe146103fd57600080fd5b806313a24a301161022657806313a24a3014610300578063150b7a021461032157806318e44a491461034d5780631bb7ad6b1461036e5780631dca93481461038e57600080fd5b806301ffc9a71461026357806306fdde031461028b578063081812fc146102a0578063095ea7b3146102cb5780630d7a41b7146102e0575b600080fd5b610276610271366004613ed6565b61063b565b60405190151581526020015b60405180910390f35b610293610666565b604051610282919061429c565b6102b36102ae366004613e76565b6106f8565b6040516001600160a01b039091168152602001610282565b6102de6102d9366004613c12565b610792565b005b6102f36102ee366004613ffe565b6108a8565b6040516102829190614289565b61031361030e366004613d4a565b610db1565b604051908152602001610282565b61033461032f366004613adb565b610f32565b6040516001600160e01b03199091168152602001610282565b61036061035b366004613e76565b610f8e565b60405161028292919061425b565b61038161037c366004613e76565b61114b565b6040516102829190614248565b6102de61039c366004613fb4565b6111b7565b6102de6103af366004613a9a565b6112a4565b6103136103c2366004613e76565b60009081526020819052604090206001015490565b6102de6103e5366004613e8f565b6112d5565b6102de6103f8366004613c3e565b6112f7565b6102de61040b366004613e8f565b611450565b6102de61041e366004613a44565b611472565b6102de610431366004613e3c565b6114cc565b6102de610444366004613a9a565b61150a565b6102de611525565b6102b361045f366004613e76565b611556565b610313610472366004613a44565b6115cd565b6102b3610485366004613eb4565b611654565b610276610498366004613e8f565b611673565b61029361169c565b600a546102769060ff1681565b610313600081565b6102de6104c8366004613be4565b6116ab565b6104e06104db366004613eb4565b611770565b604080519283526001600160a01b03909116602083015201610282565b610313600c5481565b6102f3610514366004613f29565b6117b5565b6102de610527366004613b79565b611b58565b61029361053a366004613e76565b611b90565b61031361054d366004613e76565b611c77565b6102de610560366004613e8f565b611c8e565b610381611c98565b61027661057b366004613a44565b60036020526000908152604090205460ff1681565b6102de61059e366004613e76565b611cf9565b6102766105b1366004613a61565b6001600160a01b03918216600090815260096020908152604080832093909416825291909152205460ff1690565b610313600b5481565b600a5461027690610100900460ff1681565b610276610608366004613e8f565b6000918252600e602090815260408084206001600160a01b0393909316845291905290205460ff1690565b6102de611d22565b60006001600160e01b03198216631ccd795160e31b1480610660575061066082611d88565b92915050565b6060600480546106759061457c565b80601f01602080910402602001604051908101604052809291908181526020018280546106a19061457c565b80156106ee5780601f106106c3576101008083540402835291602001916106ee565b820191906000526020600020905b8154815290600101906020018083116106d157829003601f168201915b5050505050905090565b6000818152600660205260408120546001600160a01b03166107765760405162461bcd60e51b815260206004820152602c60248201527f4552433732313a20617070726f76656420717565727920666f72206e6f6e657860448201526b34b9ba32b73a103a37b5b2b760a11b60648201526084015b60405180910390fd5b506000908152600860205260409020546001600160a01b031690565b600061079d82611556565b9050806001600160a01b0316836001600160a01b0316141561080b5760405162461bcd60e51b815260206004820152602160248201527f4552433732313a20617070726f76616c20746f2063757272656e74206f776e656044820152603960f91b606482015260840161076d565b336001600160a01b0382161480610827575061082781336105b1565b6108995760405162461bcd60e51b815260206004820152603860248201527f4552433732313a20617070726f76652063616c6c6572206973206e6f74206f7760448201527f6e6572206e6f7220617070726f76656420666f7220616c6c0000000000000000606482015260840161076d565b6108a38383611dad565b505050565b60606108b43387611e1b565b6108d05760405162461bcd60e51b815260040161076d9061431e565b61090c858580806020026020016040519081016040528093929190818152602001838360200280828437600092019190915250611f1292505050565b6109285760405162461bcd60e51b815260040161076d9061433a565b83821461095b5760405162461bcd60e51b81526020600482015260016024820152601360fa1b604482015260640161076d565b60006109668761114b565b805190915085111561099f5760405162461bcd60e51b8152602060048201526002602482015261151360f21b604482015260640161076d565b6000610a0f8288888080602002602001604051908101604052809392919081815260200183836020028082843760009201919091525050604080516020808c0282810182019093528b82529093508b92508a918291850190849080828437600092019190915250611fb792505050565b6000898152601060205260408120919250610a298a6121d8565b90506000610a37848361234f565b9050886001600160401b03811115610a5157610a5161463e565b604051908082528060200260200182016040528015610a7a578160200160208202803683370190505b50955060005b89811015610af057610ade33308b8b85818110610a9f57610a9f614628565b905060200201358e8e86818110610ab857610ab8614628565b9050602002016020810190610acd9190613a44565b6001600160a01b03169291906126d2565b80610ae8816145b7565b915050610a80565b5060005b8354811015610c96576000848281548110610b1157610b11614628565b9060005260206000209060020201905060005b8b811015610b7157610b5f888281518110610b4157610b41614628565b602090810291909101015160018401546001600160a01b031661273d565b80610b69816145b7565b915050610b24565b506001810154815484516000926001600160a01b031691630d7a41b7918b90889088908110610ba257610ba2614628565b60200260200101516040518463ffffffff1660e01b8152600401610bc893929190614459565b600060405180830381600087803b158015610be257600080fd5b505af1158015610bf6573d6000803e3d6000fd5b505050506040513d6000823e601f3d908101601f19168201604052610c1e9190810190613e08565b905060005b8c811015610c8057818181518110610c3d57610c3d614628565b60200260200101518a8281518110610c5757610c57614628565b60200260200101818151610c6b91906144d7565b90525080610c78816145b7565b915050610c23565b5050508080610c8e906145b7565b915050610af4565b5060005b89811015610d6557888882818110610cb457610cb4614628565b90506020020135878281518110610ccd57610ccd614628565b60200260200101511015610d5357610d5333888381518110610cf157610cf1614628565b60200260200101518b8b85818110610d0b57610d0b614628565b90506020020135610d1c9190614522565b8d8d85818110610d2e57610d2e614628565b9050602002016020810190610d439190613a44565b6001600160a01b03169190612852565b80610d5d816145b7565b915050610c9a565b507fe33829dd3495a41ba02f88de5eadec2635e25192c73dee8c65625206aa61e09a8b8b8b89604051610d9b949392919061442d565b60405180910390a1505050505095945050505050565b600a5460009060ff1680610dc85750610dc8612882565b610de45760405162461bcd60e51b815260040161076d906142af565b600b5483511115610e1c5760405162461bcd60e51b8152602060048201526002602482015261135560f21b604482015260640161076d565b610e2583611f12565b610e415760405162461bcd60e51b815260040161076d9061433a565b6000610e4d84846128e3565b6000818152600d602090815260409091208651929350610e7192909187019061389e565b5060005b8451811015610ee8576000828152600e60205260408120865160019290889085908110610ea457610ea4614628565b6020908102919091018101516001600160a01b03168252810191909152604001600020805460ff191691151591909117905580610ee0816145b7565b915050610e75565b5080336001600160a01b03167fe423da5b0aa0eb7a8c8409551a7f9487952c6003da26568ea41ee22cf3133d4a85604051610f23919061429c565b60405180910390a39392505050565b3360009081526003602052604081205460ff16610f775760405162461bcd60e51b8152602060048201526003602482015262494d5360e81b604482015260640161076d565b610f848686868686612908565b9695505050505050565b6060806000610f9c8461114b565b60008581526010602052604081208251929350916001600160401b03811115610fc757610fc761463e565b604051908082528060200260200182016040528015610ff0578160200160208202803683370190505b50905060005b825481101561113e57600083828154811061101357611013614628565b60009182526020822060016002909202019081015481546040516318e44a4960e01b815292945083926001600160a01b03909216916318e44a499161105e9160040190815260200190565b60006040518083038186803b15801561107657600080fd5b505afa15801561108a573d6000803e3d6000fd5b505050506040513d6000823e601f3d908101601f191682016040526110b29190810190613c7f565b9150915060006110c3888484611fb7565b905060005b8151811015611126578181815181106110e3576110e3614628565b60200260200101518782815181106110fd576110fd614628565b6020026020010181815161111191906144d7565b9052508061111e816145b7565b9150506110c8565b50505050508080611136906145b7565b915050610ff6565b5091959194509092505050565b6000818152600d60209081526040918290208054835181840281018401909452808452606093928301828280156111ab57602002820191906000526020600020905b81546001600160a01b0316815260019091019060200180831161118d575b50505050509050919050565b6111c13385611e1b565b6111dd5760405162461bcd60e51b815260040161076d9061431e565b604080518082019091528281526001600160a01b03841660208201526112038582612a64565b6112355760405162461bcd60e51b815260206004820152600360248201526244434f60e81b604482015260640161076d565b604051632142170760e11b81523060048201526001600160a01b038381166024830152604482018590528516906342842e0e90606401600060405180830381600087803b15801561128557600080fd5b505af1158015611299573d6000803e3d6000fd5b505050505050505050565b6112ae3382611e1b565b6112ca5760405162461bcd60e51b815260040161076d90614357565b6108a3838383612b11565b6112df8282612cb1565b60008281526001602052604090206108a39082611d73565b6112ff612882565b6113305760405162461bcd60e51b815260206004820152600260248201526111d160f21b604482015260640161076d565b60005b818110156108a3576003600084848481811061135157611351614628565b90506020020160208101906113669190613a44565b6001600160a01b0316815260208101919091526040016000205460ff161561138d5761143e565b60028383838181106113a1576113a1614628565b90506020020160208101906113b69190613a44565b81546001808201845560009384526020842090910180546001600160a01b0319166001600160a01b0393909316929092179091559060039085858581811061140057611400614628565b90506020020160208101906114159190613a44565b6001600160a01b031681526020810191909152604001600020805460ff19169115159190911790555b80611448816145b7565b915050611333565b61145a8282612cd7565b60008281526001602052604090206108a39082612d51565b61147a612882565b6114ab5760405162461bcd60e51b815260206004820152600260248201526111d160f21b604482015260640161076d565b6001600160a01b03166000908152600360205260409020805460ff19169055565b6114d4612882565b6114f05760405162461bcd60e51b815260040161076d906142af565b600a80549115156101000261ff0019909216919091179055565b6108a383838360405180602001604052806000815250611b58565b61152d612882565b6115495760405162461bcd60e51b815260040161076d906142af565b600c8054600b5560009055565b6000818152600660205260408120546001600160a01b0316806106605760405162461bcd60e51b815260206004820152602960248201527f4552433732313a206f776e657220717565727920666f72206e6f6e657869737460448201526832b73a103a37b5b2b760b91b606482015260840161076d565b60006001600160a01b0382166116385760405162461bcd60e51b815260206004820152602a60248201527f4552433732313a2062616c616e636520717565727920666f7220746865207a65604482015269726f206164647265737360b01b606482015260840161076d565b506001600160a01b031660009081526007602052604090205490565b600082815260016020526040812061166c9083612d66565b9392505050565b6000918252602082815260408084206001600160a01b0393909316845291905290205460ff1690565b6060600580546106759061457c565b6001600160a01b0382163314156117045760405162461bcd60e51b815260206004820152601960248201527f4552433732313a20617070726f766520746f2063616c6c657200000000000000604482015260640161076d565b3360008181526009602090815260408083206001600160a01b03871680855290835292819020805460ff191686151590811790915590519081529192917f17307eab39ab6107e8899845ad3d59bd9653f200f220920489ca2b5937696c31910160405180910390a35050565b6010602052816000526040600020818154811061178c57600080fd5b6000918252602090912060029091020180546001909101549092506001600160a01b0316905082565b60606117c13388611e1b565b6117dd5760405162461bcd60e51b815260040161076d9061431e565b611819858580806020026020016040519081016040528093929190818152602001838360200280828437600092019190915250611f1292505050565b6118355760405162461bcd60e51b815260040161076d9061433a565b8382146118685760405162461bcd60e51b81526020600482015260016024820152601360fa1b604482015260640161076d565b60006118738861114b565b80519091508511156118ac5760405162461bcd60e51b8152602060048201526002602482015261151360f21b604482015260640161076d565b600061191c8288888080602002602001604051908101604052809392919081815260200183836020028082843760009201919091525050604080516020808c0282810182019093528b82529093508b92508a918291850190849080828437600092019190915250611fb792505050565b60008a81526010602052604081209192506119368b6121d8565b90506000611944848361234f565b9050886001600160401b0381111561195e5761195e61463e565b604051908082528060200260200182016040528015611987578160200160208202803683370190505b50955060005b8354811015611b095760008482815481106119aa576119aa614628565b906000526020600020906002020160010160009054906101000a90046001600160a01b03166001600160a01b031663b7874baa8684815481106119ef576119ef614628565b9060005260206000209060020201600001548f8a878781518110611a1557611a15614628565b60200260200101516040518563ffffffff1660e01b8152600401611a3c94939291906143f1565b600060405180830381600087803b158015611a5657600080fd5b505af1158015611a6a573d6000803e3d6000fd5b505050506040513d6000823e601f3d908101601f19168201604052611a929190810190613e08565b905060005b8b811015611af457818181518110611ab157611ab1614628565b6020026020010151898281518110611acb57611acb614628565b60200260200101818151611adf91906144d7565b90525080611aec816145b7565b915050611a97565b50508080611b01906145b7565b91505061198d565b507f8d04027fcc6b389782391c87ffe1fbc8b300720c147b657fc2cd85161fcf2fe98c8c8c8c8a604051611b419594939291906143a8565b60405180910390a150505050509695505050505050565b611b623383611e1b565b611b7e5760405162461bcd60e51b815260040161076d90614357565b611b8a84848484612d72565b50505050565b6000818152600660205260409020546060906001600160a01b0316611c0f5760405162461bcd60e51b815260206004820152602f60248201527f4552433732314d657461646174613a2055524920717565727920666f72206e6f60448201526e3732bc34b9ba32b73a103a37b5b2b760891b606482015260840161076d565b6000611c2660408051602081019091526000815290565b90506000815111611c46576040518060200160405280600081525061166c565b80611c5084612da5565b604051602001611c61929190614171565b6040516020818303038152906040529392505050565b600081815260016020526040812061066090612ea2565b61145a8282612eac565b606060028054806020026020016040519081016040528092919081815260200182805480156106ee57602002820191906000526020600020905b81546001600160a01b03168152600190910190602001808311611cd2575050505050905090565b611d01612882565b611d1d5760405162461bcd60e51b815260040161076d906142af565b600c55565b611d2a612882565b611d465760405162461bcd60e51b815260040161076d906142af565b600a805461ff001960ff61010083041615151661ffff19909116179055565b611d6f8282612ed2565b5050565b600061166c836001600160a01b038416612f56565b60006001600160e01b03198216631ccd795160e31b1480610660575061066082612fa5565b600081815260086020526040902080546001600160a01b0319166001600160a01b0384169081179091558190611de282611556565b6001600160a01b03167f8c5be1e5ebec7d5bd14f71427d1e84f3dd0314c0f7b2291e5b200ac8c7c3b92560405160405180910390a45050565b6000818152600660205260408120546001600160a01b0316611e945760405162461bcd60e51b815260206004820152602c60248201527f4552433732313a206f70657261746f7220717565727920666f72206e6f6e657860448201526b34b9ba32b73a103a37b5b2b760a11b606482015260840161076d565b6000611e9f83611556565b9050806001600160a01b0316846001600160a01b03161480611eda5750836001600160a01b0316611ecf846106f8565b6001600160a01b0316145b80611f0a57506001600160a01b0380821660009081526009602090815260408083209388168352929052205460ff165b949350505050565b6000600282511015611f2657506001919050565b60005b60018351611f379190614522565b811015611fae5782611f4a8260016144d7565b81518110611f5a57611f5a614628565b60200260200101516001600160a01b0316838281518110611f7d57611f7d614628565b60200260200101516001600160a01b031610611f9c5750600092915050565b80611fa6816145b7565b915050611f29565b50600192915050565b6060600084516001600160401b03811115611fd457611fd461463e565b604051908082528060200260200182016040528015611ffd578160200160208202803683370190505b5090506000805b8651821080156120145750855181105b156121935785818151811061202b5761202b614628565b60200260200101516001600160a01b031687838151811061204e5761204e614628565b60200260200101516001600160a01b0316101561209657600083838151811061207957612079614628565b60209081029190910101528161208e816145b7565b925050612004565b8581815181106120a8576120a8614628565b60200260200101516001600160a01b03168783815181106120cb576120cb614628565b60200260200101516001600160a01b03161115612144578481815181106120f4576120f4614628565b602002602001015160001415612116578061210e816145b7565b915050612004565b60405162461bcd60e51b815260206004820152600360248201526254505360e81b604482015260640161076d565b84818151811061215657612156614628565b602002602001015183838151811061217057612170614628565b602090810291909101015281612185816145b7565b925050808061210e906145b7565b86518210156121cd5760008383815181106121b0576121b0614628565b6020908102919091010152816121c5816145b7565b925050612193565b509095945050505050565b606060006121e58361114b565b60008481526010602052604090208054919250906001600160401b038111156122105761221061463e565b60405190808252806020026020018201604052801561224357816020015b606081526020019060019003908161222e5790505b50925060005b815481101561234757600082828154811061226657612266614628565b60009182526020822060016002909202019081015481546040516318e44a4960e01b815292945083926001600160a01b03909216916318e44a49916122b19160040190815260200190565b60006040518083038186803b1580156122c957600080fd5b505afa1580156122dd573d6000803e3d6000fd5b505050506040513d6000823e601f3d908101601f191682016040526123059190810190613c7f565b91509150612314868383611fb7565b87858151811061232657612326614628565b6020026020010181905250505050808061233f906145b7565b915050612249565b505050919050565b80516060908061238a5760405162461bcd60e51b815260040161076d9060208082526004908201526304b4754360e41b604082015260600190565b8351806123c25760405162461bcd60e51b815260040161076d9060208082526004908201526304e4754360e41b604082015260600190565b6000816001600160401b038111156123dc576123dc61463e565b604051908082528060200260200182016040528015612405578160200160208202803683370190505b50905060005b83811015612473578286828151811061242657612426614628565b602002602001015151146124615760405162461bcd60e51b8152602060048201526002602482015261272b60f11b604482015260640161076d565b8061246b816145b7565b91505061240b565b5060005b8281101561252b57600082828151811061249357612493614628565b60200260200101818152505060005b84811015612518578681815181106124bc576124bc614628565b602002602001015182815181106124d5576124d5614628565b60200260200101518383815181106124ef576124ef614628565b6020026020010181815161250391906144d7565b90525080612510816145b7565b9150506124a2565b5080612523816145b7565b915050612477565b506000836001600160401b038111156125465761254661463e565b60405190808252806020026020018201604052801561257957816020015b60608152602001906001900390816125645790505b50905060005b848110156126c757836001600160401b0381111561259f5761259f61463e565b6040519080825280602002602001820160405280156125c8578160200160208202803683370190505b508282815181106125db576125db614628565b602002602001018190525060005b848110156126b45783818151811061260357612603614628565b602002602001015189828151811061261d5761261d614628565b602002602001015189848151811061263757612637614628565b6020026020010151838151811061265057612650614628565b60200260200101516126629190614503565b61266c91906144ef565b83838151811061267e5761267e614628565b6020026020010151828151811061269757612697614628565b6020908102919091010152806126ac816145b7565b9150506125e9565b50806126bf816145b7565b91505061257f565b509695505050505050565b6040516001600160a01b0380851660248301528316604482015260648101829052611b8a9085906323b872dd60e01b906084015b60408051601f198184030181529190526020810180516001600160e01b03166001600160e01b031990931692909217909152612fe5565b61274a60026000196144ef565b604051636eb1769f60e11b81526001600160a01b03838116600483015230602483015284169063dd62ed3e9060440160206040518083038186803b15801561279157600080fd5b505afa1580156127a5573d6000803e3d6000fd5b505050506040513d601f19601f820116820180604052508101906127c99190613f10565b1015611d6f5760405163095ea7b360e01b81526001600160a01b038281166004830152600019602483015283169063095ea7b390604401602060405180830381600087803b15801561281a57600080fd5b505af115801561282e573d6000803e3d6000fd5b505050506040513d601f19601f820116820180604052508101906108a39190613e59565b6040516001600160a01b0383166024820152604481018290526108a390849063a9059cbb60e01b90606401612706565b60006128ae7fabea6fd3db56a6e6d0242111b43ebb13d1c42709651c032c7894962023a1f90a33611673565b806128de57506128de7fb2ca199e5d628271269f73708112899272988324e125fafee9627694e71b1d2533611673565b905090565b600f8054600091600190836128f883856144d7565b9091555061166c905033826130b7565b60006020821461293f5760405162461bcd60e51b815260206004820152600260248201526124a160f11b604482015260640161076d565b823561294b8682611e1b565b6129675760405162461bcd60e51b815260040161076d9061431e565b3360405163095ea7b360e01b81526001600160a01b03888116600483015260248201889052919091169063095ea7b390604401600060405180830381600087803b1580156129b457600080fd5b505af11580156129c8573d6000803e3d6000fd5b50505050600060405180604001604052808781526020016129e63390565b6001600160a01b0316905290506129fd8282612a64565b612a50576000828152601060209081526040822080546001808201835591845292829020845160029094020192835590830151910180546001600160a01b0319166001600160a01b039092169190911790555b50630a85bd0160e11b979650505050505050565b6000828152601060205260408120815b8154811015612b0657818181548110612a8f57612a8f614628565b600091825260209182902060016002909202010154908501516001600160a01b039081169116148015612ae45750818181548110612acf57612acf614628565b60009182526020909120600290910201548451145b15612af457600192505050610660565b80612afe816145b7565b915050612a74565b506000949350505050565b826001600160a01b0316612b2482611556565b6001600160a01b031614612b8c5760405162461bcd60e51b815260206004820152602960248201527f4552433732313a207472616e73666572206f6620746f6b656e2074686174206960448201526839903737ba1037bbb760b91b606482015260840161076d565b6001600160a01b038216612bee5760405162461bcd60e51b8152602060048201526024808201527f4552433732313a207472616e7366657220746f20746865207a65726f206164646044820152637265737360e01b606482015260840161076d565b612bf9600082611dad565b6001600160a01b0383166000908152600760205260408120805460019290612c22908490614522565b90915550506001600160a01b0382166000908152600760205260408120805460019290612c509084906144d7565b909155505060008181526006602052604080822080546001600160a01b0319166001600160a01b0386811691821790925591518493918716917fddf252ad1be2c89b69c2b068fc378daa952ba7f163c4a11628f55a4df523b3ef91a4505050565b600082815260208190526040902060010154612ccd81336130d1565b6108a38383612ed2565b6001600160a01b0381163314612d475760405162461bcd60e51b815260206004820152602f60248201527f416363657373436f6e74726f6c3a2063616e206f6e6c792072656e6f756e636560448201526e103937b632b9903337b91039b2b63360891b606482015260840161076d565b611d6f8282613135565b600061166c836001600160a01b03841661319a565b600061166c838361328d565b612d7d848484612b11565b612d89848484846132b7565b611b8a5760405162461bcd60e51b815260040161076d906142cc565b606081612dc95750506040805180820190915260018152600360fc1b602082015290565b8160005b8115612df35780612ddd816145b7565b9150612dec9050600a836144ef565b9150612dcd565b6000816001600160401b03811115612e0d57612e0d61463e565b6040519080825280601f01601f191660200182016040528015612e37576020820181803683370190505b5090505b8415611f0a57612e4c600183614522565b9150612e59600a866145d2565b612e649060306144d7565b60f81b818381518110612e7957612e79614628565b60200101906001600160f81b031916908160001a905350612e9b600a866144ef565b9450612e3b565b6000610660825490565b600082815260208190526040902060010154612ec881336130d1565b6108a38383613135565b612edc8282611673565b611d6f576000828152602081815260408083206001600160a01b03851684529091529020805460ff19166001179055612f123390565b6001600160a01b0316816001600160a01b0316837f2f8788117e7eff1d82e926ec794901d17c78024a50270940304540a733656f0d60405160405180910390a45050565b6000818152600183016020526040812054612f9d57508154600181810184556000848152602080822090930184905584548482528286019093526040902091909155610660565b506000610660565b60006001600160e01b031982166380ac58cd60e01b1480612fd657506001600160e01b03198216635b5e139f60e01b145b806106605750610660826133c4565b600061303a826040518060400160405280602081526020017f5361666545524332303a206c6f772d6c6576656c2063616c6c206661696c6564815250856001600160a01b03166133e99092919063ffffffff16565b8051909150156108a357808060200190518101906130589190613e59565b6108a35760405162461bcd60e51b815260206004820152602a60248201527f5361666545524332303a204552433230206f7065726174696f6e20646964206e6044820152691bdd081cdd58d8d9595960b21b606482015260840161076d565b611d6f8282604051806020016040528060008152506133f8565b6130db8282611673565b611d6f576130f3816001600160a01b0316601461342b565b6130fe83602061342b565b60405160200161310f9291906141a0565b60408051601f198184030181529082905262461bcd60e51b825261076d9160040161429c565b61313f8282611673565b15611d6f576000828152602081815260408083206001600160a01b0385168085529252808320805460ff1916905551339285917ff6391f5c32d9c69d2a47ea670b442974b53935d1edc7fd64eb21e047a839171b9190a45050565b600081815260018301602052604081205480156132835760006131be600183614522565b85549091506000906131d290600190614522565b90508181146132375760008660000182815481106131f2576131f2614628565b906000526020600020015490508087600001848154811061321557613215614628565b6000918252602080832090910192909255918252600188019052604090208390555b855486908061324857613248614612565b600190038181906000526020600020016000905590558560010160008681526020019081526020016000206000905560019350505050610660565b6000915050610660565b60008260000182815481106132a4576132a4614628565b9060005260206000200154905092915050565b60006001600160a01b0384163b156133b957604051630a85bd0160e11b81526001600160a01b0385169063150b7a02906132fb903390899088908890600401614215565b602060405180830381600087803b15801561331557600080fd5b505af1925050508015613345575060408051601f3d908101601f1916820190925261334291810190613ef3565b60015b61339f573d808015613373576040519150601f19603f3d011682016040523d82523d6000602084013e613378565b606091505b5080516133975760405162461bcd60e51b815260040161076d906142cc565b805181602001fd5b6001600160e01b031916630a85bd0160e11b149050611f0a565b506001949350505050565b60006001600160e01b03198216635a05180f60e01b14806106605750610660826135c6565b6060611f0a84846000856135fb565b6134028383613723565b61340f60008484846132b7565b6108a35760405162461bcd60e51b815260040161076d906142cc565b6060600061343a836002614503565b6134459060026144d7565b6001600160401b0381111561345c5761345c61463e565b6040519080825280601f01601f191660200182016040528015613486576020820181803683370190505b509050600360fc1b816000815181106134a1576134a1614628565b60200101906001600160f81b031916908160001a905350600f60fb1b816001815181106134d0576134d0614628565b60200101906001600160f81b031916908160001a90535060006134f4846002614503565b6134ff9060016144d7565b90505b6001811115613577576f181899199a1a9b1b9c1cb0b131b232b360811b85600f166010811061353357613533614628565b1a60f81b82828151811061354957613549614628565b60200101906001600160f81b031916908160001a90535060049490941c9361357081614565565b9050613502565b50831561166c5760405162461bcd60e51b815260206004820181905260248201527f537472696e67733a20686578206c656e67746820696e73756666696369656e74604482015260640161076d565b60006001600160e01b03198216637965db0b60e01b148061066057506301ffc9a760e01b6001600160e01b0319831614610660565b60608247101561365c5760405162461bcd60e51b815260206004820152602660248201527f416464726573733a20696e73756666696369656e742062616c616e636520666f6044820152651c8818d85b1b60d21b606482015260840161076d565b843b6136aa5760405162461bcd60e51b815260206004820152601d60248201527f416464726573733a2063616c6c20746f206e6f6e2d636f6e7472616374000000604482015260640161076d565b600080866001600160a01b031685876040516136c69190614155565b60006040518083038185875af1925050503d8060008114613703576040519150601f19603f3d011682016040523d82523d6000602084013e613708565b606091505b5091509150613718828286613865565b979650505050505050565b6001600160a01b0382166137795760405162461bcd60e51b815260206004820181905260248201527f4552433732313a206d696e7420746f20746865207a65726f2061646472657373604482015260640161076d565b6000818152600660205260409020546001600160a01b0316156137de5760405162461bcd60e51b815260206004820152601c60248201527f4552433732313a20746f6b656e20616c7265616479206d696e74656400000000604482015260640161076d565b6001600160a01b03821660009081526007602052604081208054600192906138079084906144d7565b909155505060008181526006602052604080822080546001600160a01b0319166001600160a01b03861690811790915590518392907fddf252ad1be2c89b69c2b068fc378daa952ba7f163c4a11628f55a4df523b3ef908290a45050565b6060831561387457508161166c565b8251156138845782518084602001fd5b8160405162461bcd60e51b815260040161076d919061429c565b8280548282559060005260206000209081019282156138f3579160200282015b828111156138f357825182546001600160a01b0319166001600160a01b039091161782556020909201916001909101906138be565b506138ff929150613903565b5090565b5b808211156138ff5760008155600101613904565b60008083601f84011261392a57600080fd5b5081356001600160401b0381111561394157600080fd5b6020830191508360208260051b850101111561395c57600080fd5b9250929050565b600082601f83011261397457600080fd5b81516020613989613984836144b4565b614484565b80838252828201915082860187848660051b89010111156139a957600080fd5b60005b858110156139c8578151845292840192908401906001016139ac565b5090979650505050505050565b600082601f8301126139e657600080fd5b81356001600160401b038111156139ff576139ff61463e565b613a12601f8201601f1916602001614484565b818152846020838601011115613a2757600080fd5b816020850160208301376000918101602001919091529392505050565b600060208284031215613a5657600080fd5b813561166c81614654565b60008060408385031215613a7457600080fd5b8235613a7f81614654565b91506020830135613a8f81614654565b809150509250929050565b600080600060608486031215613aaf57600080fd5b8335613aba81614654565b92506020840135613aca81614654565b929592945050506040919091013590565b600080600080600060808688031215613af357600080fd5b8535613afe81614654565b94506020860135613b0e81614654565b93506040860135925060608601356001600160401b0380821115613b3157600080fd5b818801915088601f830112613b4557600080fd5b813581811115613b5457600080fd5b896020828501011115613b6657600080fd5b9699959850939650602001949392505050565b60008060008060808587031215613b8f57600080fd5b8435613b9a81614654565b93506020850135613baa81614654565b92506040850135915060608501356001600160401b03811115613bcc57600080fd5b613bd8878288016139d5565b91505092959194509250565b60008060408385031215613bf757600080fd5b8235613c0281614654565b91506020830135613a8f8161466c565b60008060408385031215613c2557600080fd5b8235613c3081614654565b946020939093013593505050565b60008060208385031215613c5157600080fd5b82356001600160401b03811115613c6757600080fd5b613c7385828601613918565b90969095509350505050565b60008060408385031215613c9257600080fd5b82516001600160401b0380821115613ca957600080fd5b818501915085601f830112613cbd57600080fd5b81516020613ccd613984836144b4565b8083825282820191508286018a848660051b8901011115613ced57600080fd5b600096505b84871015613d19578051613d0581614654565b835260019690960195918301918301613cf2565b5091880151919650909350505080821115613d3357600080fd5b50613d4085828601613963565b9150509250929050565b60008060408385031215613d5d57600080fd5b82356001600160401b0380821115613d7457600080fd5b818501915085601f830112613d8857600080fd5b81356020613d98613984836144b4565b8083825282820191508286018a848660051b8901011115613db857600080fd5b600096505b84871015613de4578035613dd081614654565b835260019690960195918301918301613dbd565b5096505086013592505080821115613dfb57600080fd5b50613d40858286016139d5565b600060208284031215613e1a57600080fd5b81516001600160401b03811115613e3057600080fd5b611f0a84828501613963565b600060208284031215613e4e57600080fd5b813561166c8161466c565b600060208284031215613e6b57600080fd5b815161166c8161466c565b600060208284031215613e8857600080fd5b5035919050565b60008060408385031215613ea257600080fd5b823591506020830135613a8f81614654565b60008060408385031215613ec757600080fd5b50508035926020909101359150565b600060208284031215613ee857600080fd5b813561166c8161467a565b600060208284031215613f0557600080fd5b815161166c8161467a565b600060208284031215613f2257600080fd5b5051919050565b60008060008060008060808789031215613f4257600080fd5b863595506020870135613f5481614654565b945060408701356001600160401b0380821115613f7057600080fd5b613f7c8a838b01613918565b90965094506060890135915080821115613f9557600080fd5b50613fa289828a01613918565b979a9699509497509295939492505050565b60008060008060808587031215613fca57600080fd5b843593506020850135613fdc81614654565b9250604085013591506060850135613ff381614654565b939692955090935050565b60008060008060006060868803121561401657600080fd5b8535945060208601356001600160401b038082111561403457600080fd5b61404089838a01613918565b9096509450604088013591508082111561405957600080fd5b5061406688828901613918565b969995985093965092949392505050565b8183526000602080850194508260005b858110156140b557813561409a81614654565b6001600160a01b031687529582019590820190600101614087565b509495945050505050565b600081518084526020808501945080840160005b838110156140b55781516001600160a01b0316875295820195908201906001016140d4565b600081518084526020808501945080840160005b838110156140b55781518752958201959082019060010161410d565b60008151808452614141816020860160208601614539565b601f01601f19169290920160200192915050565b60008251614167818460208701614539565b9190910192915050565b60008351614183818460208801614539565b835190830190614197818360208801614539565b01949350505050565b7f416363657373436f6e74726f6c3a206163636f756e74200000000000000000008152600083516141d8816017850160208801614539565b7001034b99036b4b9b9b4b733903937b6329607d1b6017918401918201528351614209816028840160208801614539565b01602801949350505050565b6001600160a01b0385811682528416602082015260408101839052608060608201819052600090610f8490830184614129565b60208152600061166c60208301846140c0565b60408152600061426e60408301856140c0565b828103602084015261428081856140f9565b95945050505050565b60208152600061166c60208301846140f9565b60208152600061166c6020830184614129565b6020808252600390820152621411d160ea1b604082015260600190565b60208082526032908201527f4552433732313a207472616e7366657220746f206e6f6e20455243373231526560408201527131b2b4bb32b91034b6b83632b6b2b73a32b960711b606082015260800190565b602080825260029082015261494f60f01b604082015260600190565b60208082526003908201526253415560e81b604082015260600190565b60208082526031908201527f4552433732313a207472616e736665722063616c6c6572206973206e6f74206f6040820152701ddb995c881b9bdc88185c1c1c9bdd9959607a1b606082015260800190565b8581526001600160a01b03851660208201526080604082018190526000906143d39083018587614077565b82810360608401526143e581856140f9565b98975050505050505050565b8481526001600160a01b038416602082015260806040820181905260009061441b908301856140c0565b828103606084015261371881856140f9565b848152606060208201526000614447606083018587614077565b828103604084015261371881856140f9565b83815260606020820152600061447260608301856140c0565b8281036040840152610f8481856140f9565b604051601f8201601f191681016001600160401b03811182821017156144ac576144ac61463e565b604052919050565b60006001600160401b038211156144cd576144cd61463e565b5060051b60200190565b600082198211156144ea576144ea6145e6565b500190565b6000826144fe576144fe6145fc565b500490565b600081600019048311821515161561451d5761451d6145e6565b500290565b600082821015614534576145346145e6565b500390565b60005b8381101561455457818101518382015260200161453c565b83811115611b8a5750506000910152565b600081614574576145746145e6565b506000190190565b600181811c9082168061459057607f821691505b602082108114156145b157634e487b7160e01b600052602260045260246000fd5b50919050565b60006000198214156145cb576145cb6145e6565b5060010190565b6000826145e1576145e16145fc565b500690565b634e487b7160e01b600052601160045260246000fd5b634e487b7160e01b600052601260045260246000fd5b634e487b7160e01b600052603160045260246000fd5b634e487b7160e01b600052603260045260246000fd5b634e487b7160e01b600052604160045260246000fd5b6001600160a01b038116811461466957600080fd5b50565b801515811461466957600080fd5b6001600160e01b03198116811461466957600080fdfea2646970667358221220bf4be696cd2fc19ac25f70580e60c3b632605da6e2c1dfbd6384010bf8cc396164736f6c63430008070033abea6fd3db56a6e6d0242111b43ebb13d1c42709651c032c7894962023a1f90ab2ca199e5d628271269f73708112899272988324e125fafee9627694e71b1d25",
  "devdoc": {
    "kind": "dev",
    "methods": {
      "approve(address,uint256)": {
        "details": "See {IERC721-approve}."
      },
      "balanceOf(address)": {
        "details": "See {IERC721-balanceOf}."
      },
      "delegated(uint256)": {
        "details": "the contract is to return sorted tokens"
      },
      "getApproved(uint256)": {
        "details": "See {IERC721-getApproved}."
      },
      "getRoleAdmin(bytes32)": {
        "details": "Returns the admin role that controls `role`. See {grantRole} and {revokeRole}. To change a role's admin, use {_setRoleAdmin}."
      },
      "getRoleMember(bytes32,uint256)": {
        "details": "Returns one of the accounts that have `role`. `index` must be a value between 0 and {getRoleMemberCount}, non-inclusive. Role bearers are not sorted in any particular way, and their ordering may change at any point. WARNING: When using {getRoleMember} and {getRoleMemberCount}, make sure you perform all queries on the same block. See the following https://forum.openzeppelin.com/t/iterating-over-elements-on-enumerableset-in-openzeppelin-contracts/2296[forum post] for more information."
      },
      "getRoleMemberCount(bytes32)": {
        "details": "Returns the number of accounts that have `role`. Can be used together with {getRoleMember} to enumerate all bearers of a role."
      },
      "grantRole(bytes32,address)": {
        "details": "Overload {grantRole} to track enumerable memberships"
      },
      "hasRole(bytes32,address)": {
        "details": "Returns `true` if `account` has been granted `role`."
      },
      "isApprovedForAll(address,address)": {
        "details": "See {IERC721-isApprovedForAll}."
      },
      "name()": {
        "details": "See {IERC721Metadata-name}."
      },
      "ownerOf(uint256)": {
        "details": "See {IERC721-ownerOf}."
      },
      "renounceRole(bytes32,address)": {
        "details": "Overload {renounceRole} to track enumerable memberships"
      },
      "revokeRole(bytes32,address)": {
        "details": "Overload {revokeRole} to track enumerable memberships"
      },
      "safeTransferFrom(address,address,uint256)": {
        "details": "See {IERC721-safeTransferFrom}."
      },
      "safeTransferFrom(address,address,uint256,bytes)": {
        "details": "See {IERC721-safeTransferFrom}."
      },
      "setApprovalForAll(address,bool)": {
        "details": "See {IERC721-setApprovalForAll}."
      },
      "symbol()": {
        "details": "See {IERC721Metadata-symbol}."
      },
      "tokenURI(uint256)": {
        "details": "See {IERC721Metadata-tokenURI}."
      },
      "transferFrom(address,address,uint256)": {
        "details": "See {IERC721-transferFrom}."
      }
    },
    "version": 1
  },
  "userdoc": {
    "kind": "user",
    "methods": {
      "addNftAllowedTokens(address[])": {
        "notice": "-------------------  PUBLIC, MUTATING, GOVERNANCE  -------------------"
      },
      "createCell(address[],bytes)": {
        "notice": "-------------------  PUBLIC, MUTATING, GOVERNANCE OR PERMISSIONLESS  -------------------"
      },
      "deposit(uint256,address[],uint256[])": {
        "notice": "-------------------  PUBLIC, MUTATING, NFT_OWNER  -------------------"
      },
      "managedTokens(uint256)": {
        "notice": "-------------------  PUBLIC, VIEW  -------------------"
      },
      "nftAllowList()": {
        "notice": "-------------------  PUBLIC, VIEW  -------------------"
      },
      "onERC721Received(address,address,uint256,bytes)": {
        "notice": "-------------------  PUBLIC, MUTATING, NFT_ALLOW_LIST  -------------------"
      },
      "setPendingPermissionless(bool)": {
        "notice": "-------------------  PUBLIC, MUTATING, GOVERNANCE  -------------------"
      }
    },
    "version": 1
  },
  "storageLayout": {
    "storage": [
      {
        "astId": 62,
        "contract": "contracts/NodeCells.sol:NodeCells",
        "label": "_roles",
        "offset": 0,
        "slot": "0",
        "type": "t_mapping(t_bytes32,t_struct(RoleData)57_storage)"
      },
      {
        "astId": 403,
        "contract": "contracts/NodeCells.sol:NodeCells",
        "label": "_roleMembers",
        "offset": 0,
        "slot": "1",
        "type": "t_mapping(t_bytes32,t_struct(AddressSet)3574_storage)"
      },
      {
        "astId": 5579,
        "contract": "contracts/NodeCells.sol:NodeCells",
        "label": "_nftAllowList",
        "offset": 0,
        "slot": "2",
        "type": "t_array(t_address)dyn_storage"
      },
      {
        "astId": 5583,
        "contract": "contracts/NodeCells.sol:NodeCells",
        "label": "nftAllowListIndex",
        "offset": 0,
        "slot": "3",
        "type": "t_mapping(t_address,t_bool)"
      },
      {
        "astId": 1783,
        "contract": "contracts/NodeCells.sol:NodeCells",
        "label": "_name",
        "offset": 0,
        "slot": "4",
        "type": "t_string_storage"
      },
      {
        "astId": 1785,
        "contract": "contracts/NodeCells.sol:NodeCells",
        "label": "_symbol",
        "offset": 0,
        "slot": "5",
        "type": "t_string_storage"
      },
      {
        "astId": 1789,
        "contract": "contracts/NodeCells.sol:NodeCells",
        "label": "_owners",
        "offset": 0,
        "slot": "6",
        "type": "t_mapping(t_uint256,t_address)"
      },
      {
        "astId": 1793,
        "contract": "contracts/NodeCells.sol:NodeCells",
        "label": "_balances",
        "offset": 0,
        "slot": "7",
        "type": "t_mapping(t_address,t_uint256)"
      },
      {
        "astId": 1797,
        "contract": "contracts/NodeCells.sol:NodeCells",
        "label": "_tokenApprovals",
        "offset": 0,
        "slot": "8",
        "type": "t_mapping(t_uint256,t_address)"
      },
      {
        "astId": 1803,
        "contract": "contracts/NodeCells.sol:NodeCells",
        "label": "_operatorApprovals",
        "offset": 0,
        "slot": "9",
        "type": "t_mapping(t_address,t_mapping(t_address,t_bool))"
      },
      {
        "astId": 4349,
        "contract": "contracts/NodeCells.sol:NodeCells",
        "label": "permissionless",
        "offset": 0,
        "slot": "10",
        "type": "t_bool"
      },
      {
        "astId": 4351,
        "contract": "contracts/NodeCells.sol:NodeCells",
        "label": "pendingPermissionless",
        "offset": 1,
        "slot": "10",
        "type": "t_bool"
      },
      {
        "astId": 4354,
        "contract": "contracts/NodeCells.sol:NodeCells",
        "label": "maxTokensPerCell",
        "offset": 0,
        "slot": "11",
        "type": "t_uint256"
      },
      {
        "astId": 4356,
        "contract": "contracts/NodeCells.sol:NodeCells",
        "label": "pendingMaxTokensPerCell",
        "offset": 0,
        "slot": "12",
        "type": "t_uint256"
      },
      {
        "astId": 4361,
        "contract": "contracts/NodeCells.sol:NodeCells",
        "label": "_managedTokens",
        "offset": 0,
        "slot": "13",
        "type": "t_mapping(t_uint256,t_array(t_address)dyn_storage)"
      },
      {
        "astId": 4367,
        "contract": "contracts/NodeCells.sol:NodeCells",
        "label": "_managedTokensIndex",
        "offset": 0,
        "slot": "14",
        "type": "t_mapping(t_uint256,t_mapping(t_address,t_bool))"
      },
      {
        "astId": 4370,
        "contract": "contracts/NodeCells.sol:NodeCells",
        "label": "_topCellNft",
        "offset": 0,
        "slot": "15",
        "type": "t_uint256"
      },
      {
        "astId": 4652,
        "contract": "contracts/NodeCells.sol:NodeCells",
        "label": "ownedCells",
        "offset": 0,
        "slot": "16",
        "type": "t_mapping(t_uint256,t_array(t_struct(DelegatedCell)4646_storage)dyn_storage)"
      }
    ],
    "types": {
      "t_address": {
        "encoding": "inplace",
        "label": "address",
        "numberOfBytes": "20"
      },
      "t_array(t_address)dyn_storage": {
        "base": "t_address",
        "encoding": "dynamic_array",
        "label": "address[]",
        "numberOfBytes": "32"
      },
      "t_array(t_bytes32)dyn_storage": {
        "base": "t_bytes32",
        "encoding": "dynamic_array",
        "label": "bytes32[]",
        "numberOfBytes": "32"
      },
      "t_array(t_struct(DelegatedCell)4646_storage)dyn_storage": {
        "base": "t_struct(DelegatedCell)4646_storage",
        "encoding": "dynamic_array",
        "label": "struct NodeCells.DelegatedCell[]",
        "numberOfBytes": "32"
      },
      "t_bool": {
        "encoding": "inplace",
        "label": "bool",
        "numberOfBytes": "1"
      },
      "t_bytes32": {
        "encoding": "inplace",
        "label": "bytes32",
        "numberOfBytes": "32"
      },
      "t_mapping(t_address,t_bool)": {
        "encoding": "mapping",
        "key": "t_address",
        "label": "mapping(address => bool)",
        "numberOfBytes": "32",
        "value": "t_bool"
      },
      "t_mapping(t_address,t_mapping(t_address,t_bool))": {
        "encoding": "mapping",
        "key": "t_address",
        "label": "mapping(address => mapping(address => bool))",
        "numberOfBytes": "32",
        "value": "t_mapping(t_address,t_bool)"
      },
      "t_mapping(t_address,t_uint256)": {
        "encoding": "mapping",
        "key": "t_address",
        "label": "mapping(address => uint256)",
        "numberOfBytes": "32",
        "value": "t_uint256"
      },
      "t_mapping(t_bytes32,t_struct(AddressSet)3574_storage)": {
        "encoding": "mapping",
        "key": "t_bytes32",
        "label": "mapping(bytes32 => struct EnumerableSet.AddressSet)",
        "numberOfBytes": "32",
        "value": "t_struct(AddressSet)3574_storage"
      },
      "t_mapping(t_bytes32,t_struct(RoleData)57_storage)": {
        "encoding": "mapping",
        "key": "t_bytes32",
        "label": "mapping(bytes32 => struct AccessControl.RoleData)",
        "numberOfBytes": "32",
        "value": "t_struct(RoleData)57_storage"
      },
      "t_mapping(t_bytes32,t_uint256)": {
        "encoding": "mapping",
        "key": "t_bytes32",
        "label": "mapping(bytes32 => uint256)",
        "numberOfBytes": "32",
        "value": "t_uint256"
      },
      "t_mapping(t_uint256,t_address)": {
        "encoding": "mapping",
        "key": "t_uint256",
        "label": "mapping(uint256 => address)",
        "numberOfBytes": "32",
        "value": "t_address"
      },
      "t_mapping(t_uint256,t_array(t_address)dyn_storage)": {
        "encoding": "mapping",
        "key": "t_uint256",
        "label": "mapping(uint256 => address[])",
        "numberOfBytes": "32",
        "value": "t_array(t_address)dyn_storage"
      },
      "t_mapping(t_uint256,t_array(t_struct(DelegatedCell)4646_storage)dyn_storage)": {
        "encoding": "mapping",
        "key": "t_uint256",
        "label": "mapping(uint256 => struct NodeCells.DelegatedCell[])",
        "numberOfBytes": "32",
        "value": "t_array(t_struct(DelegatedCell)4646_storage)dyn_storage"
      },
      "t_mapping(t_uint256,t_mapping(t_address,t_bool))": {
        "encoding": "mapping",
        "key": "t_uint256",
        "label": "mapping(uint256 => mapping(address => bool))",
        "numberOfBytes": "32",
        "value": "t_mapping(t_address,t_bool)"
      },
      "t_string_storage": {
        "encoding": "bytes",
        "label": "string",
        "numberOfBytes": "32"
      },
      "t_struct(AddressSet)3574_storage": {
        "encoding": "inplace",
        "label": "struct EnumerableSet.AddressSet",
        "members": [
          {
            "astId": 3573,
            "contract": "contracts/NodeCells.sol:NodeCells",
            "label": "_inner",
            "offset": 0,
            "slot": "0",
            "type": "t_struct(Set)3303_storage"
          }
        ],
        "numberOfBytes": "64"
      },
      "t_struct(DelegatedCell)4646_storage": {
        "encoding": "inplace",
        "label": "struct NodeCells.DelegatedCell",
        "members": [
          {
            "astId": 4643,
            "contract": "contracts/NodeCells.sol:NodeCells",
            "label": "nft",
            "offset": 0,
            "slot": "0",
            "type": "t_uint256"
          },
          {
            "astId": 4645,
            "contract": "contracts/NodeCells.sol:NodeCells",
            "label": "addr",
            "offset": 0,
            "slot": "1",
            "type": "t_address"
          }
        ],
        "numberOfBytes": "64"
      },
      "t_struct(RoleData)57_storage": {
        "encoding": "inplace",
        "label": "struct AccessControl.RoleData",
        "members": [
          {
            "astId": 54,
            "contract": "contracts/NodeCells.sol:NodeCells",
            "label": "members",
            "offset": 0,
            "slot": "0",
            "type": "t_mapping(t_address,t_bool)"
          },
          {
            "astId": 56,
            "contract": "contracts/NodeCells.sol:NodeCells",
            "label": "adminRole",
            "offset": 0,
            "slot": "1",
            "type": "t_bytes32"
          }
        ],
        "numberOfBytes": "64"
      },
      "t_struct(Set)3303_storage": {
        "encoding": "inplace",
        "label": "struct EnumerableSet.Set",
        "members": [
          {
            "astId": 3298,
            "contract": "contracts/NodeCells.sol:NodeCells",
            "label": "_values",
            "offset": 0,
            "slot": "0",
            "type": "t_array(t_bytes32)dyn_storage"
          },
          {
            "astId": 3302,
            "contract": "contracts/NodeCells.sol:NodeCells",
            "label": "_indexes",
            "offset": 0,
            "slot": "1",
            "type": "t_mapping(t_bytes32,t_uint256)"
          }
        ],
        "numberOfBytes": "64"
      },
      "t_uint256": {
        "encoding": "inplace",
        "label": "uint256",
        "numberOfBytes": "32"
      }
    }
  }
}