{
  "address": "0x29B64b219da69933b3273833236B47059844d9e1",
  "abi": [
    {
      "inputs": [
        {
          "internalType": "string",
          "name": "name",
          "type": "string"
        },
        {
          "internalType": "string",
          "name": "symbol",
          "type": "string"
        }
      ],
      "stateMutability": "nonpayable",
      "type": "constructor"
    },
    {
      "anonymous": false,
      "inputs": [
        {
          "indexed": true,
          "internalType": "address",
          "name": "owner",
          "type": "address"
        },
        {
          "indexed": true,
          "internalType": "address",
          "name": "approved",
          "type": "address"
        },
        {
          "indexed": true,
          "internalType": "uint256",
          "name": "tokenId",
          "type": "uint256"
        }
      ],
      "name": "Approval",
      "type": "event"
    },
    {
      "anonymous": false,
      "inputs": [
        {
          "indexed": true,
          "internalType": "address",
          "name": "owner",
          "type": "address"
        },
        {
          "indexed": true,
          "internalType": "address",
          "name": "operator",
          "type": "address"
        },
        {
          "indexed": false,
          "internalType": "bool",
          "name": "approved",
          "type": "bool"
        }
      ],
      "name": "ApprovalForAll",
      "type": "event"
    },
    {
      "anonymous": false,
      "inputs": [
        {
          "indexed": true,
          "internalType": "address",
          "name": "to",
          "type": "address"
        },
        {
          "indexed": true,
          "internalType": "uint256",
          "name": "nft",
          "type": "uint256"
        },
        {
          "indexed": false,
          "internalType": "bytes",
          "name": "params",
          "type": "bytes"
        }
      ],
      "name": "CreateCell",
      "type": "event"
    },
    {
      "anonymous": false,
      "inputs": [
        {
          "indexed": false,
          "internalType": "uint256",
          "name": "nft",
          "type": "uint256"
        },
        {
          "indexed": false,
          "internalType": "address[]",
          "name": "tokens",
          "type": "address[]"
        },
        {
          "indexed": false,
          "internalType": "uint256[]",
          "name": "actualTokenAmounts",
          "type": "uint256[]"
        }
      ],
      "name": "Deposit",
      "type": "event"
    },
    {
      "anonymous": false,
      "inputs": [
        {
          "indexed": true,
          "internalType": "bytes32",
          "name": "role",
          "type": "bytes32"
        },
        {
          "indexed": true,
          "internalType": "bytes32",
          "name": "previousAdminRole",
          "type": "bytes32"
        },
        {
          "indexed": true,
          "internalType": "bytes32",
          "name": "newAdminRole",
          "type": "bytes32"
        }
      ],
      "name": "RoleAdminChanged",
      "type": "event"
    },
    {
      "anonymous": false,
      "inputs": [
        {
          "indexed": true,
          "internalType": "bytes32",
          "name": "role",
          "type": "bytes32"
        },
        {
          "indexed": true,
          "internalType": "address",
          "name": "account",
          "type": "address"
        },
        {
          "indexed": true,
          "internalType": "address",
          "name": "sender",
          "type": "address"
        }
      ],
      "name": "RoleGranted",
      "type": "event"
    },
    {
      "anonymous": false,
      "inputs": [
        {
          "indexed": true,
          "internalType": "bytes32",
          "name": "role",
          "type": "bytes32"
        },
        {
          "indexed": true,
          "internalType": "address",
          "name": "account",
          "type": "address"
        },
        {
          "indexed": true,
          "internalType": "address",
          "name": "sender",
          "type": "address"
        }
      ],
      "name": "RoleRevoked",
      "type": "event"
    },
    {
      "anonymous": false,
      "inputs": [
        {
          "indexed": true,
          "internalType": "address",
          "name": "from",
          "type": "address"
        },
        {
          "indexed": true,
          "internalType": "address",
          "name": "to",
          "type": "address"
        },
        {
          "indexed": true,
          "internalType": "uint256",
          "name": "tokenId",
          "type": "uint256"
        }
      ],
      "name": "Transfer",
      "type": "event"
    },
    {
      "anonymous": false,
      "inputs": [
        {
          "indexed": false,
          "internalType": "uint256",
          "name": "nft",
          "type": "uint256"
        },
        {
          "indexed": false,
          "internalType": "address",
          "name": "to",
          "type": "address"
        },
        {
          "indexed": false,
          "internalType": "address[]",
          "name": "tokens",
          "type": "address[]"
        },
        {
          "indexed": false,
          "internalType": "uint256[]",
          "name": "actualTokenAmounts",
          "type": "uint256[]"
        }
      ],
      "name": "Withdraw",
      "type": "event"
    },
    {
      "inputs": [],
      "name": "DEFAULT_ADMIN_ROLE",
      "outputs": [
        {
          "internalType": "bytes32",
          "name": "",
          "type": "bytes32"
        }
      ],
      "stateMutability": "view",
      "type": "function"
    },
    {
      "inputs": [
        {
          "internalType": "address[]",
          "name": "tokens",
          "type": "address[]"
        }
      ],
      "name": "addNftAllowedTokens",
      "outputs": [],
      "stateMutability": "nonpayable",
      "type": "function"
    },
    {
      "inputs": [
        {
          "internalType": "address",
          "name": "to",
          "type": "address"
        },
        {
          "internalType": "uint256",
          "name": "tokenId",
          "type": "uint256"
        }
      ],
      "name": "approve",
      "outputs": [],
      "stateMutability": "nonpayable",
      "type": "function"
    },
    {
      "inputs": [
        {
          "internalType": "address",
          "name": "owner",
          "type": "address"
        }
      ],
      "name": "balanceOf",
      "outputs": [
        {
          "internalType": "uint256",
          "name": "",
          "type": "uint256"
        }
      ],
      "stateMutability": "view",
      "type": "function"
    },
    {
      "inputs": [],
      "name": "commitPendingMaxTokensPerCell",
      "outputs": [],
      "stateMutability": "nonpayable",
      "type": "function"
    },
    {
      "inputs": [],
      "name": "commitPendingPermissionless",
      "outputs": [],
      "stateMutability": "nonpayable",
      "type": "function"
    },
    {
      "inputs": [
        {
          "internalType": "address[]",
          "name": "cellTokens",
          "type": "address[]"
        },
        {
          "internalType": "bytes",
          "name": "params",
          "type": "bytes"
        }
      ],
      "name": "createCell",
      "outputs": [
        {
          "internalType": "uint256",
          "name": "",
          "type": "uint256"
        }
      ],
      "stateMutability": "nonpayable",
      "type": "function"
    },
    {
      "inputs": [
        {
          "internalType": "uint256",
          "name": "nft",
          "type": "uint256"
        }
      ],
      "name": "delegated",
      "outputs": [
        {
          "internalType": "address[]",
          "name": "tokenAddresses",
          "type": "address[]"
        },
        {
          "internalType": "uint256[]",
          "name": "tokenAmounts",
          "type": "uint256[]"
        }
      ],
      "stateMutability": "view",
      "type": "function"
    },
    {
      "inputs": [
        {
          "internalType": "uint256",
          "name": "nft",
          "type": "uint256"
        },
        {
          "internalType": "address[]",
          "name": "tokens",
          "type": "address[]"
        },
        {
          "internalType": "uint256[]",
          "name": "tokenAmounts",
          "type": "uint256[]"
        }
      ],
      "name": "deposit",
      "outputs": [
        {
          "internalType": "uint256[]",
          "name": "actualTokenAmounts",
          "type": "uint256[]"
        }
      ],
      "stateMutability": "nonpayable",
      "type": "function"
    },
    {
      "inputs": [
        {
          "internalType": "uint256",
          "name": "tokenId",
          "type": "uint256"
        }
      ],
      "name": "getApproved",
      "outputs": [
        {
          "internalType": "address",
          "name": "",
          "type": "address"
        }
      ],
      "stateMutability": "view",
      "type": "function"
    },
    {
      "inputs": [
        {
          "internalType": "bytes32",
          "name": "role",
          "type": "bytes32"
        }
      ],
      "name": "getRoleAdmin",
      "outputs": [
        {
          "internalType": "bytes32",
          "name": "",
          "type": "bytes32"
        }
      ],
      "stateMutability": "view",
      "type": "function"
    },
    {
      "inputs": [
        {
          "internalType": "bytes32",
          "name": "role",
          "type": "bytes32"
        },
        {
          "internalType": "uint256",
          "name": "index",
          "type": "uint256"
        }
      ],
      "name": "getRoleMember",
      "outputs": [
        {
          "internalType": "address",
          "name": "",
          "type": "address"
        }
      ],
      "stateMutability": "view",
      "type": "function"
    },
    {
      "inputs": [
        {
          "internalType": "bytes32",
          "name": "role",
          "type": "bytes32"
        }
      ],
      "name": "getRoleMemberCount",
      "outputs": [
        {
          "internalType": "uint256",
          "name": "",
          "type": "uint256"
        }
      ],
      "stateMutability": "view",
      "type": "function"
    },
    {
      "inputs": [
        {
          "internalType": "bytes32",
          "name": "role",
          "type": "bytes32"
        },
        {
          "internalType": "address",
          "name": "account",
          "type": "address"
        }
      ],
      "name": "grantRole",
      "outputs": [],
      "stateMutability": "nonpayable",
      "type": "function"
    },
    {
      "inputs": [
        {
          "internalType": "bytes32",
          "name": "role",
          "type": "bytes32"
        },
        {
          "internalType": "address",
          "name": "account",
          "type": "address"
        }
      ],
      "name": "hasRole",
      "outputs": [
        {
          "internalType": "bool",
          "name": "",
          "type": "bool"
        }
      ],
      "stateMutability": "view",
      "type": "function"
    },
    {
      "inputs": [
        {
          "internalType": "address",
          "name": "owner",
          "type": "address"
        },
        {
          "internalType": "address",
          "name": "operator",
          "type": "address"
        }
      ],
      "name": "isApprovedForAll",
      "outputs": [
        {
          "internalType": "bool",
          "name": "",
          "type": "bool"
        }
      ],
      "stateMutability": "view",
      "type": "function"
    },
    {
      "inputs": [
        {
          "internalType": "uint256",
          "name": "nft",
          "type": "uint256"
        },
        {
          "internalType": "address",
          "name": "token",
          "type": "address"
        }
      ],
      "name": "isManagedToken",
      "outputs": [
        {
          "internalType": "bool",
          "name": "",
          "type": "bool"
        }
      ],
      "stateMutability": "view",
      "type": "function"
    },
    {
      "inputs": [
        {
          "internalType": "uint256",
          "name": "nft",
          "type": "uint256"
        }
      ],
      "name": "managedTokens",
      "outputs": [
        {
          "internalType": "address[]",
          "name": "",
          "type": "address[]"
        }
      ],
      "stateMutability": "view",
      "type": "function"
    },
    {
      "inputs": [],
      "name": "maxTokensPerCell",
      "outputs": [
        {
          "internalType": "uint256",
          "name": "",
          "type": "uint256"
        }
      ],
      "stateMutability": "view",
      "type": "function"
    },
    {
      "inputs": [],
      "name": "name",
      "outputs": [
        {
          "internalType": "string",
          "name": "",
          "type": "string"
        }
      ],
      "stateMutability": "view",
      "type": "function"
    },
    {
      "inputs": [],
      "name": "nftAllowList",
      "outputs": [
        {
          "internalType": "address[]",
          "name": "",
          "type": "address[]"
        }
      ],
      "stateMutability": "view",
      "type": "function"
    },
    {
      "inputs": [
        {
          "internalType": "address",
          "name": "",
          "type": "address"
        }
      ],
      "name": "nftAllowListIndex",
      "outputs": [
        {
          "internalType": "bool",
          "name": "",
          "type": "bool"
        }
      ],
      "stateMutability": "view",
      "type": "function"
    },
    {
      "inputs": [
        {
          "internalType": "address",
          "name": "operator",
          "type": "address"
        },
        {
          "internalType": "address",
          "name": "from",
          "type": "address"
        },
        {
          "internalType": "uint256",
          "name": "tokenId",
          "type": "uint256"
        },
        {
          "internalType": "bytes",
          "name": "data",
          "type": "bytes"
        }
      ],
      "name": "onERC721Received",
      "outputs": [
        {
          "internalType": "bytes4",
          "name": "",
          "type": "bytes4"
        }
      ],
      "stateMutability": "nonpayable",
      "type": "function"
    },
    {
      "inputs": [
        {
          "internalType": "uint256",
          "name": "",
          "type": "uint256"
        },
        {
          "internalType": "uint256",
          "name": "",
          "type": "uint256"
        }
      ],
      "name": "ownedCells",
      "outputs": [
        {
          "internalType": "uint256",
          "name": "nft",
          "type": "uint256"
        },
        {
          "internalType": "address",
          "name": "addr",
          "type": "address"
        }
      ],
      "stateMutability": "view",
      "type": "function"
    },
    {
      "inputs": [
        {
          "internalType": "uint256",
          "name": "tokenId",
          "type": "uint256"
        }
      ],
      "name": "ownerOf",
      "outputs": [
        {
          "internalType": "address",
          "name": "",
          "type": "address"
        }
      ],
      "stateMutability": "view",
      "type": "function"
    },
    {
      "inputs": [],
      "name": "pendingMaxTokensPerCell",
      "outputs": [
        {
          "internalType": "uint256",
          "name": "",
          "type": "uint256"
        }
      ],
      "stateMutability": "view",
      "type": "function"
    },
    {
      "inputs": [],
      "name": "pendingPermissionless",
      "outputs": [
        {
          "internalType": "bool",
          "name": "",
          "type": "bool"
        }
      ],
      "stateMutability": "view",
      "type": "function"
    },
    {
      "inputs": [],
      "name": "permissionless",
      "outputs": [
        {
          "internalType": "bool",
          "name": "",
          "type": "bool"
        }
      ],
      "stateMutability": "view",
      "type": "function"
    },
    {
      "inputs": [
        {
          "internalType": "address",
          "name": "token",
          "type": "address"
        }
      ],
      "name": "removeNftAllowedToken",
      "outputs": [],
      "stateMutability": "nonpayable",
      "type": "function"
    },
    {
      "inputs": [
        {
          "internalType": "bytes32",
          "name": "role",
          "type": "bytes32"
        },
        {
          "internalType": "address",
          "name": "account",
          "type": "address"
        }
      ],
      "name": "renounceRole",
      "outputs": [],
      "stateMutability": "nonpayable",
      "type": "function"
    },
    {
      "inputs": [
        {
          "internalType": "bytes32",
          "name": "role",
          "type": "bytes32"
        },
        {
          "internalType": "address",
          "name": "account",
          "type": "address"
        }
      ],
      "name": "revokeRole",
      "outputs": [],
      "stateMutability": "nonpayable",
      "type": "function"
    },
    {
      "inputs": [
        {
          "internalType": "address",
          "name": "from",
          "type": "address"
        },
        {
          "internalType": "address",
          "name": "to",
          "type": "address"
        },
        {
          "internalType": "uint256",
          "name": "tokenId",
          "type": "uint256"
        }
      ],
      "name": "safeTransferFrom",
      "outputs": [],
      "stateMutability": "nonpayable",
      "type": "function"
    },
    {
      "inputs": [
        {
          "internalType": "address",
          "name": "from",
          "type": "address"
        },
        {
          "internalType": "address",
          "name": "to",
          "type": "address"
        },
        {
          "internalType": "uint256",
          "name": "tokenId",
          "type": "uint256"
        },
        {
          "internalType": "bytes",
          "name": "_data",
          "type": "bytes"
        }
      ],
      "name": "safeTransferFrom",
      "outputs": [],
      "stateMutability": "nonpayable",
      "type": "function"
    },
    {
      "inputs": [
        {
          "internalType": "address",
          "name": "operator",
          "type": "address"
        },
        {
          "internalType": "bool",
          "name": "approved",
          "type": "bool"
        }
      ],
      "name": "setApprovalForAll",
      "outputs": [],
      "stateMutability": "nonpayable",
      "type": "function"
    },
    {
      "inputs": [
        {
          "internalType": "uint256",
          "name": "_pendingMaxTokensPerCell",
          "type": "uint256"
        }
      ],
      "name": "setPendingMaxTokensPerCell",
      "outputs": [],
      "stateMutability": "nonpayable",
      "type": "function"
    },
    {
      "inputs": [
        {
          "internalType": "bool",
          "name": "_pendingPermissionless",
          "type": "bool"
        }
      ],
      "name": "setPendingPermissionless",
      "outputs": [],
      "stateMutability": "nonpayable",
      "type": "function"
    },
    {
      "inputs": [
        {
          "internalType": "bytes4",
          "name": "interfaceId",
          "type": "bytes4"
        }
      ],
      "name": "supportsInterface",
      "outputs": [
        {
          "internalType": "bool",
          "name": "",
          "type": "bool"
        }
      ],
      "stateMutability": "view",
      "type": "function"
    },
    {
      "inputs": [],
      "name": "symbol",
      "outputs": [
        {
          "internalType": "string",
          "name": "",
          "type": "string"
        }
      ],
      "stateMutability": "view",
      "type": "function"
    },
    {
      "inputs": [
        {
          "internalType": "uint256",
          "name": "tokenId",
          "type": "uint256"
        }
      ],
      "name": "tokenURI",
      "outputs": [
        {
          "internalType": "string",
          "name": "",
          "type": "string"
        }
      ],
      "stateMutability": "view",
      "type": "function"
    },
    {
      "inputs": [
        {
          "internalType": "address",
          "name": "from",
          "type": "address"
        },
        {
          "internalType": "address",
          "name": "to",
          "type": "address"
        },
        {
          "internalType": "uint256",
          "name": "tokenId",
          "type": "uint256"
        }
      ],
      "name": "transferFrom",
      "outputs": [],
      "stateMutability": "nonpayable",
      "type": "function"
    },
    {
      "inputs": [
        {
          "internalType": "uint256",
          "name": "nft",
          "type": "uint256"
        },
        {
          "internalType": "address",
          "name": "ownedNftAddress",
          "type": "address"
        },
        {
          "internalType": "uint256",
          "name": "ownedNft",
          "type": "uint256"
        },
        {
          "internalType": "address",
          "name": "to",
          "type": "address"
        }
      ],
      "name": "transferOwnedNft",
      "outputs": [],
      "stateMutability": "nonpayable",
      "type": "function"
    },
    {
      "inputs": [
        {
          "internalType": "uint256",
          "name": "nft",
          "type": "uint256"
        },
        {
          "internalType": "address",
          "name": "to",
          "type": "address"
        },
        {
          "internalType": "address[]",
          "name": "tokens",
          "type": "address[]"
        },
        {
          "internalType": "uint256[]",
          "name": "tokenAmounts",
          "type": "uint256[]"
        }
      ],
      "name": "withdraw",
      "outputs": [
        {
          "internalType": "uint256[]",
          "name": "actualTokenAmounts",
          "type": "uint256[]"
        }
      ],
      "stateMutability": "nonpayable",
      "type": "function"
    }
  ],
  "transactionHash": "0x8a6573a2f18784abaeb66ba0086c2a4a3516c2fe4c316b112e98d3cffa097762",
  "args": [
    "Mellow Node Cells V1",
    "MNCV1"
  ],
  "solcInputHash": "9b07e89da684cda4361265849d68a216",
  "bytecode": "0x6080604052600a805460ff19168155600b556001600f553480156200002357600080fd5b5060405162004b8138038062004b81833981016040819052620000469162000413565b818181816200006560008051602062004b4183398151915233620000fd565b6200008060008051602062004b418339815191528062000140565b6200009b60008051602062004b6183398151915233620000fd565b620000c560008051602062004b6183398151915260008051602062004b4183398151915262000140565b8151620000da906004906020850190620002b6565b508051620000f0906005906020840190620002b6565b50505050505050620004d0565b6200011482826200019460201b62001d651760201c565b60008281526001602090815260409091206200013b91839062001d73620001a4821b17901c565b505050565b600082815260208190526040902060010154819060405184907fbd79b86ffe0ab8e8776151514217cd7cacd52c909f66475c3af44e129f0b00ff90600090a460009182526020829052604090912060010155565b620001a08282620001c4565b5050565b6000620001bb836001600160a01b03841662000264565b90505b92915050565b6000828152602081815260408083206001600160a01b038516845290915290205460ff16620001a0576000828152602081815260408083206001600160a01b03851684529091529020805460ff19166001179055620002203390565b6001600160a01b0316816001600160a01b0316837f2f8788117e7eff1d82e926ec794901d17c78024a50270940304540a733656f0d60405160405180910390a45050565b6000818152600183016020526040812054620002ad57508154600181810184556000848152602080822090930184905584548482528286019093526040902091909155620001be565b506000620001be565b828054620002c4906200047d565b90600052602060002090601f016020900481019282620002e8576000855562000333565b82601f106200030357805160ff191683800117855562000333565b8280016001018555821562000333579182015b828111156200033357825182559160200191906001019062000316565b506200034192915062000345565b5090565b5b8082111562000341576000815560010162000346565b600082601f8301126200036e57600080fd5b81516001600160401b03808211156200038b576200038b620004ba565b604051601f8301601f19908116603f01168101908282118183101715620003b657620003b6620004ba565b81604052838152602092508683858801011115620003d357600080fd5b600091505b83821015620003f75785820183015181830184015290820190620003d8565b83821115620004095760008385830101525b9695505050505050565b600080604083850312156200042757600080fd5b82516001600160401b03808211156200043f57600080fd5b6200044d868387016200035c565b935060208501519150808211156200046457600080fd5b5062000473858286016200035c565b9150509250929050565b600181811c908216806200049257607f821691505b60208210811415620004b457634e487b7160e01b600052602260045260246000fd5b50919050565b634e487b7160e01b600052604160045260246000fd5b61466180620004e06000396000f3fe608060405234801561001057600080fd5b506004361061025e5760003560e01c80639010d07c11610146578063c87b56dd116100c3578063de7f9e4e11610087578063de7f9e4e14610590578063e985e9c5146105a3578063ec15eb16146105df578063ee481845146105e8578063ee7e2dd3146105fa578063fe7f20341461063357600080fd5b8063c87b56dd1461052c578063ca15c8731461053f578063d547741f14610552578063d5f2474614610565578063d823fdd41461056d57600080fd5b8063a22cb4651161010a578063a22cb465146104ba578063b097d7c1146104cd578063b5399782146104fd578063b7874baa14610506578063b88d4fde1461051957600080fd5b80639010d07c1461047757806391d148541461048a57806395d89b411461049d578063a1256f9f146104a5578063a217fddf146104b257600080fd5b806323b872dd116101df5780633a453e45116101a35780633a453e4514610410578063423b01ec1461042357806342842e0e1461043657806344fbb334146104495780636352211e1461045157806370a082311461046457600080fd5b806323b872dd146103a1578063248a9ca3146103b45780632f2ff15d146103d757806334790c9e146103ea57806336568abe146103fd57600080fd5b806313a24a301161022657806313a24a3014610300578063150b7a021461032157806318e44a491461034d5780631bb7ad6b1461036e5780631dca93481461038e57600080fd5b806301ffc9a71461026357806306fdde031461028b578063081812fc146102a0578063095ea7b3146102cb5780630d7a41b7146102e0575b600080fd5b610276610271366004613e71565b61063b565b60405190151581526020015b60405180910390f35b610293610666565b6040516102829190614237565b6102b36102ae366004613e11565b6106f8565b6040516001600160a01b039091168152602001610282565b6102de6102d9366004613bad565b610792565b005b6102f36102ee366004613f99565b6108a8565b6040516102829190614224565b61031361030e366004613ce5565b610db1565b604051908152602001610282565b61033461032f366004613a76565b610f32565b6040516001600160e01b03199091168152602001610282565b61036061035b366004613e11565b610f8e565b6040516102829291906141f6565b61038161037c366004613e11565b61114b565b60405161028291906141e3565b6102de61039c366004613f4f565b6111b7565b6102de6103af366004613a35565b6112a4565b6103136103c2366004613e11565b60009081526020819052604090206001015490565b6102de6103e5366004613e2a565b6112d5565b6102de6103f8366004613bd9565b6112f7565b6102de61040b366004613e2a565b611450565b6102de61041e3660046139df565b611472565b6102de610431366004613dd7565b6114cc565b6102de610444366004613a35565b61150a565b6102de611525565b6102b361045f366004613e11565b611556565b6103136104723660046139df565b6115cd565b6102b3610485366004613e4f565b611654565b610276610498366004613e2a565b611673565b61029361169c565b600a546102769060ff1681565b610313600081565b6102de6104c8366004613b7f565b6116ab565b6104e06104db366004613e4f565b611770565b604080519283526001600160a01b03909116602083015201610282565b610313600c5481565b6102f3610514366004613ec4565b6117b5565b6102de610527366004613b14565b611b58565b61029361053a366004613e11565b611b90565b61031361054d366004613e11565b611c77565b6102de610560366004613e2a565b611c8e565b610381611c98565b61027661057b3660046139df565b60036020526000908152604090205460ff1681565b6102de61059e366004613e11565b611cf9565b6102766105b13660046139fc565b6001600160a01b03918216600090815260096020908152604080832093909416825291909152205460ff1690565b610313600b5481565b600a5461027690610100900460ff1681565b610276610608366004613e2a565b6000918252600e602090815260408084206001600160a01b0393909316845291905290205460ff1690565b6102de611d22565b60006001600160e01b03198216631ccd795160e31b1480610660575061066082611d88565b92915050565b60606004805461067590614517565b80601f01602080910402602001604051908101604052809291908181526020018280546106a190614517565b80156106ee5780601f106106c3576101008083540402835291602001916106ee565b820191906000526020600020905b8154815290600101906020018083116106d157829003601f168201915b5050505050905090565b6000818152600660205260408120546001600160a01b03166107765760405162461bcd60e51b815260206004820152602c60248201527f4552433732313a20617070726f76656420717565727920666f72206e6f6e657860448201526b34b9ba32b73a103a37b5b2b760a11b60648201526084015b60405180910390fd5b506000908152600860205260409020546001600160a01b031690565b600061079d82611556565b9050806001600160a01b0316836001600160a01b0316141561080b5760405162461bcd60e51b815260206004820152602160248201527f4552433732313a20617070726f76616c20746f2063757272656e74206f776e656044820152603960f91b606482015260840161076d565b336001600160a01b0382161480610827575061082781336105b1565b6108995760405162461bcd60e51b815260206004820152603860248201527f4552433732313a20617070726f76652063616c6c6572206973206e6f74206f7760448201527f6e6572206e6f7220617070726f76656420666f7220616c6c0000000000000000606482015260840161076d565b6108a38383611dad565b505050565b60606108b43387611e1b565b6108d05760405162461bcd60e51b815260040161076d906142b9565b61090c858580806020026020016040519081016040528093929190818152602001838360200280828437600092019190915250611f1292505050565b6109285760405162461bcd60e51b815260040161076d906142d5565b83821461095b5760405162461bcd60e51b81526020600482015260016024820152601360fa1b604482015260640161076d565b60006109668761114b565b805190915085111561099f5760405162461bcd60e51b8152602060048201526002602482015261151360f21b604482015260640161076d565b6000610a0f8288888080602002602001604051908101604052809392919081815260200183836020028082843760009201919091525050604080516020808c0282810182019093528b82529093508b92508a918291850190849080828437600092019190915250611fb792505050565b6000898152601060205260408120919250610a298a6121d8565b90506000610a37848361234f565b9050886001600160401b03811115610a5157610a516145d9565b604051908082528060200260200182016040528015610a7a578160200160208202803683370190505b50955060005b89811015610af057610ade33308b8b85818110610a9f57610a9f6145c3565b905060200201358e8e86818110610ab857610ab86145c3565b9050602002016020810190610acd91906139df565b6001600160a01b03169291906126d2565b80610ae881614552565b915050610a80565b5060005b8354811015610c96576000848281548110610b1157610b116145c3565b9060005260206000209060020201905060005b8b811015610b7157610b5f888281518110610b4157610b416145c3565b602090810291909101015160018401546001600160a01b031661273d565b80610b6981614552565b915050610b24565b506001810154815484516000926001600160a01b031691630d7a41b7918b90889088908110610ba257610ba26145c3565b60200260200101516040518463ffffffff1660e01b8152600401610bc8939291906143f4565b600060405180830381600087803b158015610be257600080fd5b505af1158015610bf6573d6000803e3d6000fd5b505050506040513d6000823e601f3d908101601f19168201604052610c1e9190810190613da3565b905060005b8c811015610c8057818181518110610c3d57610c3d6145c3565b60200260200101518a8281518110610c5757610c576145c3565b60200260200101818151610c6b9190614472565b90525080610c7881614552565b915050610c23565b5050508080610c8e90614552565b915050610af4565b5060005b89811015610d6557888882818110610cb457610cb46145c3565b90506020020135878281518110610ccd57610ccd6145c3565b60200260200101511015610d5357610d5333888381518110610cf157610cf16145c3565b60200260200101518b8b85818110610d0b57610d0b6145c3565b90506020020135610d1c91906144bd565b8d8d85818110610d2e57610d2e6145c3565b9050602002016020810190610d4391906139df565b6001600160a01b03169190612852565b80610d5d81614552565b915050610c9a565b507fe33829dd3495a41ba02f88de5eadec2635e25192c73dee8c65625206aa61e09a8b8b8b89604051610d9b94939291906143c8565b60405180910390a1505050505095945050505050565b600a5460009060ff1680610dc85750610dc8612882565b610de45760405162461bcd60e51b815260040161076d9061424a565b600b5483511115610e1c5760405162461bcd60e51b8152602060048201526002602482015261135560f21b604482015260640161076d565b610e2583611f12565b610e415760405162461bcd60e51b815260040161076d906142d5565b6000610e4d84846128e3565b6000818152600d602090815260409091208651929350610e71929091870190613839565b5060005b8451811015610ee8576000828152600e60205260408120865160019290889085908110610ea457610ea46145c3565b6020908102919091018101516001600160a01b03168252810191909152604001600020805460ff191691151591909117905580610ee081614552565b915050610e75565b5080336001600160a01b03167fe423da5b0aa0eb7a8c8409551a7f9487952c6003da26568ea41ee22cf3133d4a85604051610f239190614237565b60405180910390a39392505050565b3360009081526003602052604081205460ff16610f775760405162461bcd60e51b8152602060048201526003602482015262494d5360e81b604482015260640161076d565b610f848686868686612908565b9695505050505050565b6060806000610f9c8461114b565b60008581526010602052604081208251929350916001600160401b03811115610fc757610fc76145d9565b604051908082528060200260200182016040528015610ff0578160200160208202803683370190505b50905060005b825481101561113e576000838281548110611013576110136145c3565b60009182526020822060016002909202019081015481546040516318e44a4960e01b815292945083926001600160a01b03909216916318e44a499161105e9160040190815260200190565b60006040518083038186803b15801561107657600080fd5b505afa15801561108a573d6000803e3d6000fd5b505050506040513d6000823e601f3d908101601f191682016040526110b29190810190613c1a565b9150915060006110c3888484611fb7565b905060005b8151811015611126578181815181106110e3576110e36145c3565b60200260200101518782815181106110fd576110fd6145c3565b602002602001018181516111119190614472565b9052508061111e81614552565b9150506110c8565b5050505050808061113690614552565b915050610ff6565b5091959194509092505050565b6000818152600d60209081526040918290208054835181840281018401909452808452606093928301828280156111ab57602002820191906000526020600020905b81546001600160a01b0316815260019091019060200180831161118d575b50505050509050919050565b6111c13385611e1b565b6111dd5760405162461bcd60e51b815260040161076d906142b9565b604080518082019091528281526001600160a01b038416602082015261120385826129ff565b6112355760405162461bcd60e51b815260206004820152600360248201526244434f60e81b604482015260640161076d565b604051632142170760e11b81523060048201526001600160a01b038381166024830152604482018590528516906342842e0e90606401600060405180830381600087803b15801561128557600080fd5b505af1158015611299573d6000803e3d6000fd5b505050505050505050565b6112ae3382611e1b565b6112ca5760405162461bcd60e51b815260040161076d906142f2565b6108a3838383612aac565b6112df8282612c4c565b60008281526001602052604090206108a39082611d73565b6112ff612882565b6113305760405162461bcd60e51b815260206004820152600260248201526111d160f21b604482015260640161076d565b60005b818110156108a35760036000848484818110611351576113516145c3565b905060200201602081019061136691906139df565b6001600160a01b0316815260208101919091526040016000205460ff161561138d5761143e565b60028383838181106113a1576113a16145c3565b90506020020160208101906113b691906139df565b81546001808201845560009384526020842090910180546001600160a01b0319166001600160a01b03939093169290921790915590600390858585818110611400576114006145c3565b905060200201602081019061141591906139df565b6001600160a01b031681526020810191909152604001600020805460ff19169115159190911790555b8061144881614552565b915050611333565b61145a8282612c72565b60008281526001602052604090206108a39082612cec565b61147a612882565b6114ab5760405162461bcd60e51b815260206004820152600260248201526111d160f21b604482015260640161076d565b6001600160a01b03166000908152600360205260409020805460ff19169055565b6114d4612882565b6114f05760405162461bcd60e51b815260040161076d9061424a565b600a80549115156101000261ff0019909216919091179055565b6108a383838360405180602001604052806000815250611b58565b61152d612882565b6115495760405162461bcd60e51b815260040161076d9061424a565b600c8054600b5560009055565b6000818152600660205260408120546001600160a01b0316806106605760405162461bcd60e51b815260206004820152602960248201527f4552433732313a206f776e657220717565727920666f72206e6f6e657869737460448201526832b73a103a37b5b2b760b91b606482015260840161076d565b60006001600160a01b0382166116385760405162461bcd60e51b815260206004820152602a60248201527f4552433732313a2062616c616e636520717565727920666f7220746865207a65604482015269726f206164647265737360b01b606482015260840161076d565b506001600160a01b031660009081526007602052604090205490565b600082815260016020526040812061166c9083612d01565b9392505050565b6000918252602082815260408084206001600160a01b0393909316845291905290205460ff1690565b60606005805461067590614517565b6001600160a01b0382163314156117045760405162461bcd60e51b815260206004820152601960248201527f4552433732313a20617070726f766520746f2063616c6c657200000000000000604482015260640161076d565b3360008181526009602090815260408083206001600160a01b03871680855290835292819020805460ff191686151590811790915590519081529192917f17307eab39ab6107e8899845ad3d59bd9653f200f220920489ca2b5937696c31910160405180910390a35050565b6010602052816000526040600020818154811061178c57600080fd5b6000918252602090912060029091020180546001909101549092506001600160a01b0316905082565b60606117c13388611e1b565b6117dd5760405162461bcd60e51b815260040161076d906142b9565b611819858580806020026020016040519081016040528093929190818152602001838360200280828437600092019190915250611f1292505050565b6118355760405162461bcd60e51b815260040161076d906142d5565b8382146118685760405162461bcd60e51b81526020600482015260016024820152601360fa1b604482015260640161076d565b60006118738861114b565b80519091508511156118ac5760405162461bcd60e51b8152602060048201526002602482015261151360f21b604482015260640161076d565b600061191c8288888080602002602001604051908101604052809392919081815260200183836020028082843760009201919091525050604080516020808c0282810182019093528b82529093508b92508a918291850190849080828437600092019190915250611fb792505050565b60008a81526010602052604081209192506119368b6121d8565b90506000611944848361234f565b9050886001600160401b0381111561195e5761195e6145d9565b604051908082528060200260200182016040528015611987578160200160208202803683370190505b50955060005b8354811015611b095760008482815481106119aa576119aa6145c3565b906000526020600020906002020160010160009054906101000a90046001600160a01b03166001600160a01b031663b7874baa8684815481106119ef576119ef6145c3565b9060005260206000209060020201600001548f8a878781518110611a1557611a156145c3565b60200260200101516040518563ffffffff1660e01b8152600401611a3c949392919061438c565b600060405180830381600087803b158015611a5657600080fd5b505af1158015611a6a573d6000803e3d6000fd5b505050506040513d6000823e601f3d908101601f19168201604052611a929190810190613da3565b905060005b8b811015611af457818181518110611ab157611ab16145c3565b6020026020010151898281518110611acb57611acb6145c3565b60200260200101818151611adf9190614472565b90525080611aec81614552565b915050611a97565b50508080611b0190614552565b91505061198d565b507f8d04027fcc6b389782391c87ffe1fbc8b300720c147b657fc2cd85161fcf2fe98c8c8c8c8a604051611b41959493929190614343565b60405180910390a150505050509695505050505050565b611b623383611e1b565b611b7e5760405162461bcd60e51b815260040161076d906142f2565b611b8a84848484612d0d565b50505050565b6000818152600660205260409020546060906001600160a01b0316611c0f5760405162461bcd60e51b815260206004820152602f60248201527f4552433732314d657461646174613a2055524920717565727920666f72206e6f60448201526e3732bc34b9ba32b73a103a37b5b2b760891b606482015260840161076d565b6000611c2660408051602081019091526000815290565b90506000815111611c46576040518060200160405280600081525061166c565b80611c5084612d40565b604051602001611c6192919061410c565b6040516020818303038152906040529392505050565b600081815260016020526040812061066090612e3d565b61145a8282612e47565b606060028054806020026020016040519081016040528092919081815260200182805480156106ee57602002820191906000526020600020905b81546001600160a01b03168152600190910190602001808311611cd2575050505050905090565b611d01612882565b611d1d5760405162461bcd60e51b815260040161076d9061424a565b600c55565b611d2a612882565b611d465760405162461bcd60e51b815260040161076d9061424a565b600a805461ff001960ff61010083041615151661ffff19909116179055565b611d6f8282612e6d565b5050565b600061166c836001600160a01b038416612ef1565b60006001600160e01b03198216631ccd795160e31b1480610660575061066082612f40565b600081815260086020526040902080546001600160a01b0319166001600160a01b0384169081179091558190611de282611556565b6001600160a01b03167f8c5be1e5ebec7d5bd14f71427d1e84f3dd0314c0f7b2291e5b200ac8c7c3b92560405160405180910390a45050565b6000818152600660205260408120546001600160a01b0316611e945760405162461bcd60e51b815260206004820152602c60248201527f4552433732313a206f70657261746f7220717565727920666f72206e6f6e657860448201526b34b9ba32b73a103a37b5b2b760a11b606482015260840161076d565b6000611e9f83611556565b9050806001600160a01b0316846001600160a01b03161480611eda5750836001600160a01b0316611ecf846106f8565b6001600160a01b0316145b80611f0a57506001600160a01b0380821660009081526009602090815260408083209388168352929052205460ff165b949350505050565b6000600282511015611f2657506001919050565b60005b60018351611f3791906144bd565b811015611fae5782611f4a826001614472565b81518110611f5a57611f5a6145c3565b60200260200101516001600160a01b0316838281518110611f7d57611f7d6145c3565b60200260200101516001600160a01b031610611f9c5750600092915050565b80611fa681614552565b915050611f29565b50600192915050565b6060600084516001600160401b03811115611fd457611fd46145d9565b604051908082528060200260200182016040528015611ffd578160200160208202803683370190505b5090506000805b8651821080156120145750855181105b156121935785818151811061202b5761202b6145c3565b60200260200101516001600160a01b031687838151811061204e5761204e6145c3565b60200260200101516001600160a01b03161015612096576000838381518110612079576120796145c3565b60209081029190910101528161208e81614552565b925050612004565b8581815181106120a8576120a86145c3565b60200260200101516001600160a01b03168783815181106120cb576120cb6145c3565b60200260200101516001600160a01b03161115612144578481815181106120f4576120f46145c3565b602002602001015160001415612116578061210e81614552565b915050612004565b60405162461bcd60e51b815260206004820152600360248201526254505360e81b604482015260640161076d565b848181518110612156576121566145c3565b6020026020010151838381518110612170576121706145c3565b60209081029190910101528161218581614552565b925050808061210e90614552565b86518210156121cd5760008383815181106121b0576121b06145c3565b6020908102919091010152816121c581614552565b925050612193565b509095945050505050565b606060006121e58361114b565b60008481526010602052604090208054919250906001600160401b03811115612210576122106145d9565b60405190808252806020026020018201604052801561224357816020015b606081526020019060019003908161222e5790505b50925060005b8154811015612347576000828281548110612266576122666145c3565b60009182526020822060016002909202019081015481546040516318e44a4960e01b815292945083926001600160a01b03909216916318e44a49916122b19160040190815260200190565b60006040518083038186803b1580156122c957600080fd5b505afa1580156122dd573d6000803e3d6000fd5b505050506040513d6000823e601f3d908101601f191682016040526123059190810190613c1a565b91509150612314868383611fb7565b878581518110612326576123266145c3565b6020026020010181905250505050808061233f90614552565b915050612249565b505050919050565b80516060908061238a5760405162461bcd60e51b815260040161076d9060208082526004908201526304b4754360e41b604082015260600190565b8351806123c25760405162461bcd60e51b815260040161076d9060208082526004908201526304e4754360e41b604082015260600190565b6000816001600160401b038111156123dc576123dc6145d9565b604051908082528060200260200182016040528015612405578160200160208202803683370190505b50905060005b838110156124735782868281518110612426576124266145c3565b602002602001015151146124615760405162461bcd60e51b8152602060048201526002602482015261272b60f11b604482015260640161076d565b8061246b81614552565b91505061240b565b5060005b8281101561252b576000828281518110612493576124936145c3565b60200260200101818152505060005b84811015612518578681815181106124bc576124bc6145c3565b602002602001015182815181106124d5576124d56145c3565b60200260200101518383815181106124ef576124ef6145c3565b602002602001018181516125039190614472565b9052508061251081614552565b9150506124a2565b508061252381614552565b915050612477565b506000836001600160401b03811115612546576125466145d9565b60405190808252806020026020018201604052801561257957816020015b60608152602001906001900390816125645790505b50905060005b848110156126c757836001600160401b0381111561259f5761259f6145d9565b6040519080825280602002602001820160405280156125c8578160200160208202803683370190505b508282815181106125db576125db6145c3565b602002602001018190525060005b848110156126b457838181518110612603576126036145c3565b602002602001015189828151811061261d5761261d6145c3565b6020026020010151898481518110612637576126376145c3565b60200260200101518381518110612650576126506145c3565b6020026020010151612662919061449e565b61266c919061448a565b83838151811061267e5761267e6145c3565b60200260200101518281518110612697576126976145c3565b6020908102919091010152806126ac81614552565b9150506125e9565b50806126bf81614552565b91505061257f565b509695505050505050565b6040516001600160a01b0380851660248301528316604482015260648101829052611b8a9085906323b872dd60e01b906084015b60408051601f198184030181529190526020810180516001600160e01b03166001600160e01b031990931692909217909152612f80565b61274a600260001961448a565b604051636eb1769f60e11b81526001600160a01b03838116600483015230602483015284169063dd62ed3e9060440160206040518083038186803b15801561279157600080fd5b505afa1580156127a5573d6000803e3d6000fd5b505050506040513d601f19601f820116820180604052508101906127c99190613eab565b1015611d6f5760405163095ea7b360e01b81526001600160a01b038281166004830152600019602483015283169063095ea7b390604401602060405180830381600087803b15801561281a57600080fd5b505af115801561282e573d6000803e3d6000fd5b505050506040513d601f19601f820116820180604052508101906108a39190613df4565b6040516001600160a01b0383166024820152604481018290526108a390849063a9059cbb60e01b90606401612706565b60006128ae7fabea6fd3db56a6e6d0242111b43ebb13d1c42709651c032c7894962023a1f90a33611673565b806128de57506128de7fb2ca199e5d628271269f73708112899272988324e125fafee9627694e71b1d2533611673565b905090565b600f8054600091600190836128f88385614472565b9091555061166c90503382613052565b60006020821461293f5760405162461bcd60e51b815260206004820152600260248201526124a160f11b604482015260640161076d565b823561294b8682611e1b565b6129675760405162461bcd60e51b815260040161076d906142b9565b600060405180604001604052808781526020016129813390565b6001600160a01b03169052905061299882826129ff565b6129eb576000828152601060209081526040822080546001808201835591845292829020845160029094020192835590830151910180546001600160a01b0319166001600160a01b039092169190911790555b50630a85bd0160e11b979650505050505050565b6000828152601060205260408120815b8154811015612aa157818181548110612a2a57612a2a6145c3565b600091825260209182902060016002909202010154908501516001600160a01b039081169116148015612a7f5750818181548110612a6a57612a6a6145c3565b60009182526020909120600290910201548451145b15612a8f57600192505050610660565b80612a9981614552565b915050612a0f565b506000949350505050565b826001600160a01b0316612abf82611556565b6001600160a01b031614612b275760405162461bcd60e51b815260206004820152602960248201527f4552433732313a207472616e73666572206f6620746f6b656e2074686174206960448201526839903737ba1037bbb760b91b606482015260840161076d565b6001600160a01b038216612b895760405162461bcd60e51b8152602060048201526024808201527f4552433732313a207472616e7366657220746f20746865207a65726f206164646044820152637265737360e01b606482015260840161076d565b612b94600082611dad565b6001600160a01b0383166000908152600760205260408120805460019290612bbd9084906144bd565b90915550506001600160a01b0382166000908152600760205260408120805460019290612beb908490614472565b909155505060008181526006602052604080822080546001600160a01b0319166001600160a01b0386811691821790925591518493918716917fddf252ad1be2c89b69c2b068fc378daa952ba7f163c4a11628f55a4df523b3ef91a4505050565b600082815260208190526040902060010154612c68813361306c565b6108a38383612e6d565b6001600160a01b0381163314612ce25760405162461bcd60e51b815260206004820152602f60248201527f416363657373436f6e74726f6c3a2063616e206f6e6c792072656e6f756e636560448201526e103937b632b9903337b91039b2b63360891b606482015260840161076d565b611d6f82826130d0565b600061166c836001600160a01b038416613135565b600061166c8383613228565b612d18848484612aac565b612d2484848484613252565b611b8a5760405162461bcd60e51b815260040161076d90614267565b606081612d645750506040805180820190915260018152600360fc1b602082015290565b8160005b8115612d8e5780612d7881614552565b9150612d879050600a8361448a565b9150612d68565b6000816001600160401b03811115612da857612da86145d9565b6040519080825280601f01601f191660200182016040528015612dd2576020820181803683370190505b5090505b8415611f0a57612de76001836144bd565b9150612df4600a8661456d565b612dff906030614472565b60f81b818381518110612e1457612e146145c3565b60200101906001600160f81b031916908160001a905350612e36600a8661448a565b9450612dd6565b6000610660825490565b600082815260208190526040902060010154612e63813361306c565b6108a383836130d0565b612e778282611673565b611d6f576000828152602081815260408083206001600160a01b03851684529091529020805460ff19166001179055612ead3390565b6001600160a01b0316816001600160a01b0316837f2f8788117e7eff1d82e926ec794901d17c78024a50270940304540a733656f0d60405160405180910390a45050565b6000818152600183016020526040812054612f3857508154600181810184556000848152602080822090930184905584548482528286019093526040902091909155610660565b506000610660565b60006001600160e01b031982166380ac58cd60e01b1480612f7157506001600160e01b03198216635b5e139f60e01b145b8061066057506106608261335f565b6000612fd5826040518060400160405280602081526020017f5361666545524332303a206c6f772d6c6576656c2063616c6c206661696c6564815250856001600160a01b03166133849092919063ffffffff16565b8051909150156108a35780806020019051810190612ff39190613df4565b6108a35760405162461bcd60e51b815260206004820152602a60248201527f5361666545524332303a204552433230206f7065726174696f6e20646964206e6044820152691bdd081cdd58d8d9595960b21b606482015260840161076d565b611d6f828260405180602001604052806000815250613393565b6130768282611673565b611d6f5761308e816001600160a01b031660146133c6565b6130998360206133c6565b6040516020016130aa92919061413b565b60408051601f198184030181529082905262461bcd60e51b825261076d91600401614237565b6130da8282611673565b15611d6f576000828152602081815260408083206001600160a01b0385168085529252808320805460ff1916905551339285917ff6391f5c32d9c69d2a47ea670b442974b53935d1edc7fd64eb21e047a839171b9190a45050565b6000818152600183016020526040812054801561321e5760006131596001836144bd565b855490915060009061316d906001906144bd565b90508181146131d257600086600001828154811061318d5761318d6145c3565b90600052602060002001549050808760000184815481106131b0576131b06145c3565b6000918252602080832090910192909255918252600188019052604090208390555b85548690806131e3576131e36145ad565b600190038181906000526020600020016000905590558560010160008681526020019081526020016000206000905560019350505050610660565b6000915050610660565b600082600001828154811061323f5761323f6145c3565b9060005260206000200154905092915050565b60006001600160a01b0384163b1561335457604051630a85bd0160e11b81526001600160a01b0385169063150b7a02906132969033908990889088906004016141b0565b602060405180830381600087803b1580156132b057600080fd5b505af19250505080156132e0575060408051601f3d908101601f191682019092526132dd91810190613e8e565b60015b61333a573d80801561330e576040519150601f19603f3d011682016040523d82523d6000602084013e613313565b606091505b5080516133325760405162461bcd60e51b815260040161076d90614267565b805181602001fd5b6001600160e01b031916630a85bd0160e11b149050611f0a565b506001949350505050565b60006001600160e01b03198216635a05180f60e01b1480610660575061066082613561565b6060611f0a8484600085613596565b61339d83836136be565b6133aa6000848484613252565b6108a35760405162461bcd60e51b815260040161076d90614267565b606060006133d583600261449e565b6133e0906002614472565b6001600160401b038111156133f7576133f76145d9565b6040519080825280601f01601f191660200182016040528015613421576020820181803683370190505b509050600360fc1b8160008151811061343c5761343c6145c3565b60200101906001600160f81b031916908160001a905350600f60fb1b8160018151811061346b5761346b6145c3565b60200101906001600160f81b031916908160001a905350600061348f84600261449e565b61349a906001614472565b90505b6001811115613512576f181899199a1a9b1b9c1cb0b131b232b360811b85600f16601081106134ce576134ce6145c3565b1a60f81b8282815181106134e4576134e46145c3565b60200101906001600160f81b031916908160001a90535060049490941c9361350b81614500565b905061349d565b50831561166c5760405162461bcd60e51b815260206004820181905260248201527f537472696e67733a20686578206c656e67746820696e73756666696369656e74604482015260640161076d565b60006001600160e01b03198216637965db0b60e01b148061066057506301ffc9a760e01b6001600160e01b0319831614610660565b6060824710156135f75760405162461bcd60e51b815260206004820152602660248201527f416464726573733a20696e73756666696369656e742062616c616e636520666f6044820152651c8818d85b1b60d21b606482015260840161076d565b843b6136455760405162461bcd60e51b815260206004820152601d60248201527f416464726573733a2063616c6c20746f206e6f6e2d636f6e7472616374000000604482015260640161076d565b600080866001600160a01b0316858760405161366191906140f0565b60006040518083038185875af1925050503d806000811461369e576040519150601f19603f3d011682016040523d82523d6000602084013e6136a3565b606091505b50915091506136b3828286613800565b979650505050505050565b6001600160a01b0382166137145760405162461bcd60e51b815260206004820181905260248201527f4552433732313a206d696e7420746f20746865207a65726f2061646472657373604482015260640161076d565b6000818152600660205260409020546001600160a01b0316156137795760405162461bcd60e51b815260206004820152601c60248201527f4552433732313a20746f6b656e20616c7265616479206d696e74656400000000604482015260640161076d565b6001600160a01b03821660009081526007602052604081208054600192906137a2908490614472565b909155505060008181526006602052604080822080546001600160a01b0319166001600160a01b03861690811790915590518392907fddf252ad1be2c89b69c2b068fc378daa952ba7f163c4a11628f55a4df523b3ef908290a45050565b6060831561380f57508161166c565b82511561381f5782518084602001fd5b8160405162461bcd60e51b815260040161076d9190614237565b82805482825590600052602060002090810192821561388e579160200282015b8281111561388e57825182546001600160a01b0319166001600160a01b03909116178255602090920191600190910190613859565b5061389a92915061389e565b5090565b5b8082111561389a576000815560010161389f565b60008083601f8401126138c557600080fd5b5081356001600160401b038111156138dc57600080fd5b6020830191508360208260051b85010111156138f757600080fd5b9250929050565b600082601f83011261390f57600080fd5b8151602061392461391f8361444f565b61441f565b80838252828201915082860187848660051b890101111561394457600080fd5b60005b8581101561396357815184529284019290840190600101613947565b5090979650505050505050565b600082601f83011261398157600080fd5b81356001600160401b0381111561399a5761399a6145d9565b6139ad601f8201601f191660200161441f565b8181528460208386010111156139c257600080fd5b816020850160208301376000918101602001919091529392505050565b6000602082840312156139f157600080fd5b813561166c816145ef565b60008060408385031215613a0f57600080fd5b8235613a1a816145ef565b91506020830135613a2a816145ef565b809150509250929050565b600080600060608486031215613a4a57600080fd5b8335613a55816145ef565b92506020840135613a65816145ef565b929592945050506040919091013590565b600080600080600060808688031215613a8e57600080fd5b8535613a99816145ef565b94506020860135613aa9816145ef565b93506040860135925060608601356001600160401b0380821115613acc57600080fd5b818801915088601f830112613ae057600080fd5b813581811115613aef57600080fd5b896020828501011115613b0157600080fd5b9699959850939650602001949392505050565b60008060008060808587031215613b2a57600080fd5b8435613b35816145ef565b93506020850135613b45816145ef565b92506040850135915060608501356001600160401b03811115613b6757600080fd5b613b7387828801613970565b91505092959194509250565b60008060408385031215613b9257600080fd5b8235613b9d816145ef565b91506020830135613a2a81614607565b60008060408385031215613bc057600080fd5b8235613bcb816145ef565b946020939093013593505050565b60008060208385031215613bec57600080fd5b82356001600160401b03811115613c0257600080fd5b613c0e858286016138b3565b90969095509350505050565b60008060408385031215613c2d57600080fd5b82516001600160401b0380821115613c4457600080fd5b818501915085601f830112613c5857600080fd5b81516020613c6861391f8361444f565b8083825282820191508286018a848660051b8901011115613c8857600080fd5b600096505b84871015613cb4578051613ca0816145ef565b835260019690960195918301918301613c8d565b5091880151919650909350505080821115613cce57600080fd5b50613cdb858286016138fe565b9150509250929050565b60008060408385031215613cf857600080fd5b82356001600160401b0380821115613d0f57600080fd5b818501915085601f830112613d2357600080fd5b81356020613d3361391f8361444f565b8083825282820191508286018a848660051b8901011115613d5357600080fd5b600096505b84871015613d7f578035613d6b816145ef565b835260019690960195918301918301613d58565b5096505086013592505080821115613d9657600080fd5b50613cdb85828601613970565b600060208284031215613db557600080fd5b81516001600160401b03811115613dcb57600080fd5b611f0a848285016138fe565b600060208284031215613de957600080fd5b813561166c81614607565b600060208284031215613e0657600080fd5b815161166c81614607565b600060208284031215613e2357600080fd5b5035919050565b60008060408385031215613e3d57600080fd5b823591506020830135613a2a816145ef565b60008060408385031215613e6257600080fd5b50508035926020909101359150565b600060208284031215613e8357600080fd5b813561166c81614615565b600060208284031215613ea057600080fd5b815161166c81614615565b600060208284031215613ebd57600080fd5b5051919050565b60008060008060008060808789031215613edd57600080fd5b863595506020870135613eef816145ef565b945060408701356001600160401b0380821115613f0b57600080fd5b613f178a838b016138b3565b90965094506060890135915080821115613f3057600080fd5b50613f3d89828a016138b3565b979a9699509497509295939492505050565b60008060008060808587031215613f6557600080fd5b843593506020850135613f77816145ef565b9250604085013591506060850135613f8e816145ef565b939692955090935050565b600080600080600060608688031215613fb157600080fd5b8535945060208601356001600160401b0380821115613fcf57600080fd5b613fdb89838a016138b3565b90965094506040880135915080821115613ff457600080fd5b50614001888289016138b3565b969995985093965092949392505050565b8183526000602080850194508260005b85811015614050578135614035816145ef565b6001600160a01b031687529582019590820190600101614022565b509495945050505050565b600081518084526020808501945080840160005b838110156140505781516001600160a01b03168752958201959082019060010161406f565b600081518084526020808501945080840160005b83811015614050578151875295820195908201906001016140a8565b600081518084526140dc8160208601602086016144d4565b601f01601f19169290920160200192915050565b600082516141028184602087016144d4565b9190910192915050565b6000835161411e8184602088016144d4565b8351908301906141328183602088016144d4565b01949350505050565b7f416363657373436f6e74726f6c3a206163636f756e74200000000000000000008152600083516141738160178501602088016144d4565b7001034b99036b4b9b9b4b733903937b6329607d1b60179184019182015283516141a48160288401602088016144d4565b01602801949350505050565b6001600160a01b0385811682528416602082015260408101839052608060608201819052600090610f84908301846140c4565b60208152600061166c602083018461405b565b604081526000614209604083018561405b565b828103602084015261421b8185614094565b95945050505050565b60208152600061166c6020830184614094565b60208152600061166c60208301846140c4565b6020808252600390820152621411d160ea1b604082015260600190565b60208082526032908201527f4552433732313a207472616e7366657220746f206e6f6e20455243373231526560408201527131b2b4bb32b91034b6b83632b6b2b73a32b960711b606082015260800190565b602080825260029082015261494f60f01b604082015260600190565b60208082526003908201526253415560e81b604082015260600190565b60208082526031908201527f4552433732313a207472616e736665722063616c6c6572206973206e6f74206f6040820152701ddb995c881b9bdc88185c1c1c9bdd9959607a1b606082015260800190565b8581526001600160a01b038516602082015260806040820181905260009061436e9083018587614012565b82810360608401526143808185614094565b98975050505050505050565b8481526001600160a01b03841660208201526080604082018190526000906143b69083018561405b565b82810360608401526136b38185614094565b8481526060602082015260006143e2606083018587614012565b82810360408401526136b38185614094565b83815260606020820152600061440d606083018561405b565b8281036040840152610f848185614094565b604051601f8201601f191681016001600160401b0381118282101715614447576144476145d9565b604052919050565b60006001600160401b03821115614468576144686145d9565b5060051b60200190565b6000821982111561448557614485614581565b500190565b60008261449957614499614597565b500490565b60008160001904831182151516156144b8576144b8614581565b500290565b6000828210156144cf576144cf614581565b500390565b60005b838110156144ef5781810151838201526020016144d7565b83811115611b8a5750506000910152565b60008161450f5761450f614581565b506000190190565b600181811c9082168061452b57607f821691505b6020821081141561454c57634e487b7160e01b600052602260045260246000fd5b50919050565b600060001982141561456657614566614581565b5060010190565b60008261457c5761457c614597565b500690565b634e487b7160e01b600052601160045260246000fd5b634e487b7160e01b600052601260045260246000fd5b634e487b7160e01b600052603160045260246000fd5b634e487b7160e01b600052603260045260246000fd5b634e487b7160e01b600052604160045260246000fd5b6001600160a01b038116811461460457600080fd5b50565b801515811461460457600080fd5b6001600160e01b03198116811461460457600080fdfea26469706673582212207203e00d4280c75d49dcc0770394adb3923d82ad2f6ce0a96fd3b56771cf5bf264736f6c63430008070033abea6fd3db56a6e6d0242111b43ebb13d1c42709651c032c7894962023a1f90ab2ca199e5d628271269f73708112899272988324e125fafee9627694e71b1d25",
  "devdoc": {
    "kind": "dev",
    "methods": {
      "approve(address,uint256)": {
        "details": "See {IERC721-approve}."
      },
      "balanceOf(address)": {
        "details": "See {IERC721-balanceOf}."
      },
      "delegated(uint256)": {
        "details": "the contract is to return sorted tokens"
      },
      "getApproved(uint256)": {
        "details": "See {IERC721-getApproved}."
      },
      "getRoleAdmin(bytes32)": {
        "details": "Returns the admin role that controls `role`. See {grantRole} and {revokeRole}. To change a role's admin, use {_setRoleAdmin}."
      },
      "getRoleMember(bytes32,uint256)": {
        "details": "Returns one of the accounts that have `role`. `index` must be a value between 0 and {getRoleMemberCount}, non-inclusive. Role bearers are not sorted in any particular way, and their ordering may change at any point. WARNING: When using {getRoleMember} and {getRoleMemberCount}, make sure you perform all queries on the same block. See the following https://forum.openzeppelin.com/t/iterating-over-elements-on-enumerableset-in-openzeppelin-contracts/2296[forum post] for more information."
      },
      "getRoleMemberCount(bytes32)": {
        "details": "Returns the number of accounts that have `role`. Can be used together with {getRoleMember} to enumerate all bearers of a role."
      },
      "grantRole(bytes32,address)": {
        "details": "Overload {grantRole} to track enumerable memberships"
      },
      "hasRole(bytes32,address)": {
        "details": "Returns `true` if `account` has been granted `role`."
      },
      "isApprovedForAll(address,address)": {
        "details": "See {IERC721-isApprovedForAll}."
      },
      "name()": {
        "details": "See {IERC721Metadata-name}."
      },
      "ownerOf(uint256)": {
        "details": "See {IERC721-ownerOf}."
      },
      "renounceRole(bytes32,address)": {
        "details": "Overload {renounceRole} to track enumerable memberships"
      },
      "revokeRole(bytes32,address)": {
        "details": "Overload {revokeRole} to track enumerable memberships"
      },
      "safeTransferFrom(address,address,uint256)": {
        "details": "See {IERC721-safeTransferFrom}."
      },
      "safeTransferFrom(address,address,uint256,bytes)": {
        "details": "See {IERC721-safeTransferFrom}."
      },
      "setApprovalForAll(address,bool)": {
        "details": "See {IERC721-setApprovalForAll}."
      },
      "symbol()": {
        "details": "See {IERC721Metadata-symbol}."
      },
      "tokenURI(uint256)": {
        "details": "See {IERC721Metadata-tokenURI}."
      },
      "transferFrom(address,address,uint256)": {
        "details": "See {IERC721-transferFrom}."
      }
    },
    "version": 1
  },
  "userdoc": {
    "kind": "user",
    "methods": {
      "addNftAllowedTokens(address[])": {
        "notice": "-------------------  PUBLIC, MUTATING, GOVERNANCE  -------------------"
      },
      "createCell(address[],bytes)": {
        "notice": "-------------------  PUBLIC, MUTATING, GOVERNANCE OR PERMISSIONLESS  -------------------"
      },
      "deposit(uint256,address[],uint256[])": {
        "notice": "-------------------  PUBLIC, MUTATING, NFT_OWNER  -------------------"
      },
      "managedTokens(uint256)": {
        "notice": "-------------------  PUBLIC, VIEW  -------------------"
      },
      "nftAllowList()": {
        "notice": "-------------------  PUBLIC, VIEW  -------------------"
      },
      "onERC721Received(address,address,uint256,bytes)": {
        "notice": "-------------------  PUBLIC, MUTATING, NFT_ALLOW_LIST  -------------------"
      },
      "setPendingPermissionless(bool)": {
        "notice": "-------------------  PUBLIC, MUTATING, GOVERNANCE  -------------------"
      }
    },
    "version": 1
  },
  "storageLayout": {
    "storage": [
      {
        "astId": 62,
        "contract": "contracts/NodeCells.sol:NodeCells",
        "label": "_roles",
        "offset": 0,
        "slot": "0",
        "type": "t_mapping(t_bytes32,t_struct(RoleData)57_storage)"
      },
      {
        "astId": 403,
        "contract": "contracts/NodeCells.sol:NodeCells",
        "label": "_roleMembers",
        "offset": 0,
        "slot": "1",
        "type": "t_mapping(t_bytes32,t_struct(AddressSet)3574_storage)"
      },
      {
        "astId": 5554,
        "contract": "contracts/NodeCells.sol:NodeCells",
        "label": "_nftAllowList",
        "offset": 0,
        "slot": "2",
        "type": "t_array(t_address)dyn_storage"
      },
      {
        "astId": 5558,
        "contract": "contracts/NodeCells.sol:NodeCells",
        "label": "nftAllowListIndex",
        "offset": 0,
        "slot": "3",
        "type": "t_mapping(t_address,t_bool)"
      },
      {
        "astId": 1783,
        "contract": "contracts/NodeCells.sol:NodeCells",
        "label": "_name",
        "offset": 0,
        "slot": "4",
        "type": "t_string_storage"
      },
      {
        "astId": 1785,
        "contract": "contracts/NodeCells.sol:NodeCells",
        "label": "_symbol",
        "offset": 0,
        "slot": "5",
        "type": "t_string_storage"
      },
      {
        "astId": 1789,
        "contract": "contracts/NodeCells.sol:NodeCells",
        "label": "_owners",
        "offset": 0,
        "slot": "6",
        "type": "t_mapping(t_uint256,t_address)"
      },
      {
        "astId": 1793,
        "contract": "contracts/NodeCells.sol:NodeCells",
        "label": "_balances",
        "offset": 0,
        "slot": "7",
        "type": "t_mapping(t_address,t_uint256)"
      },
      {
        "astId": 1797,
        "contract": "contracts/NodeCells.sol:NodeCells",
        "label": "_tokenApprovals",
        "offset": 0,
        "slot": "8",
        "type": "t_mapping(t_uint256,t_address)"
      },
      {
        "astId": 1803,
        "contract": "contracts/NodeCells.sol:NodeCells",
        "label": "_operatorApprovals",
        "offset": 0,
        "slot": "9",
        "type": "t_mapping(t_address,t_mapping(t_address,t_bool))"
      },
      {
        "astId": 4333,
        "contract": "contracts/NodeCells.sol:NodeCells",
        "label": "permissionless",
        "offset": 0,
        "slot": "10",
        "type": "t_bool"
      },
      {
        "astId": 4335,
        "contract": "contracts/NodeCells.sol:NodeCells",
        "label": "pendingPermissionless",
        "offset": 1,
        "slot": "10",
        "type": "t_bool"
      },
      {
        "astId": 4338,
        "contract": "contracts/NodeCells.sol:NodeCells",
        "label": "maxTokensPerCell",
        "offset": 0,
        "slot": "11",
        "type": "t_uint256"
      },
      {
        "astId": 4340,
        "contract": "contracts/NodeCells.sol:NodeCells",
        "label": "pendingMaxTokensPerCell",
        "offset": 0,
        "slot": "12",
        "type": "t_uint256"
      },
      {
        "astId": 4345,
        "contract": "contracts/NodeCells.sol:NodeCells",
        "label": "_managedTokens",
        "offset": 0,
        "slot": "13",
        "type": "t_mapping(t_uint256,t_array(t_address)dyn_storage)"
      },
      {
        "astId": 4351,
        "contract": "contracts/NodeCells.sol:NodeCells",
        "label": "_managedTokensIndex",
        "offset": 0,
        "slot": "14",
        "type": "t_mapping(t_uint256,t_mapping(t_address,t_bool))"
      },
      {
        "astId": 4354,
        "contract": "contracts/NodeCells.sol:NodeCells",
        "label": "_topCellNft",
        "offset": 0,
        "slot": "15",
        "type": "t_uint256"
      },
      {
        "astId": 4636,
        "contract": "contracts/NodeCells.sol:NodeCells",
        "label": "ownedCells",
        "offset": 0,
        "slot": "16",
        "type": "t_mapping(t_uint256,t_array(t_struct(DelegatedCell)4630_storage)dyn_storage)"
      }
    ],
    "types": {
      "t_address": {
        "encoding": "inplace",
        "label": "address",
        "numberOfBytes": "20"
      },
      "t_array(t_address)dyn_storage": {
        "base": "t_address",
        "encoding": "dynamic_array",
        "label": "address[]",
        "numberOfBytes": "32"
      },
      "t_array(t_bytes32)dyn_storage": {
        "base": "t_bytes32",
        "encoding": "dynamic_array",
        "label": "bytes32[]",
        "numberOfBytes": "32"
      },
      "t_array(t_struct(DelegatedCell)4630_storage)dyn_storage": {
        "base": "t_struct(DelegatedCell)4630_storage",
        "encoding": "dynamic_array",
        "label": "struct NodeCells.DelegatedCell[]",
        "numberOfBytes": "32"
      },
      "t_bool": {
        "encoding": "inplace",
        "label": "bool",
        "numberOfBytes": "1"
      },
      "t_bytes32": {
        "encoding": "inplace",
        "label": "bytes32",
        "numberOfBytes": "32"
      },
      "t_mapping(t_address,t_bool)": {
        "encoding": "mapping",
        "key": "t_address",
        "label": "mapping(address => bool)",
        "numberOfBytes": "32",
        "value": "t_bool"
      },
      "t_mapping(t_address,t_mapping(t_address,t_bool))": {
        "encoding": "mapping",
        "key": "t_address",
        "label": "mapping(address => mapping(address => bool))",
        "numberOfBytes": "32",
        "value": "t_mapping(t_address,t_bool)"
      },
      "t_mapping(t_address,t_uint256)": {
        "encoding": "mapping",
        "key": "t_address",
        "label": "mapping(address => uint256)",
        "numberOfBytes": "32",
        "value": "t_uint256"
      },
      "t_mapping(t_bytes32,t_struct(AddressSet)3574_storage)": {
        "encoding": "mapping",
        "key": "t_bytes32",
        "label": "mapping(bytes32 => struct EnumerableSet.AddressSet)",
        "numberOfBytes": "32",
        "value": "t_struct(AddressSet)3574_storage"
      },
      "t_mapping(t_bytes32,t_struct(RoleData)57_storage)": {
        "encoding": "mapping",
        "key": "t_bytes32",
        "label": "mapping(bytes32 => struct AccessControl.RoleData)",
        "numberOfBytes": "32",
        "value": "t_struct(RoleData)57_storage"
      },
      "t_mapping(t_bytes32,t_uint256)": {
        "encoding": "mapping",
        "key": "t_bytes32",
        "label": "mapping(bytes32 => uint256)",
        "numberOfBytes": "32",
        "value": "t_uint256"
      },
      "t_mapping(t_uint256,t_address)": {
        "encoding": "mapping",
        "key": "t_uint256",
        "label": "mapping(uint256 => address)",
        "numberOfBytes": "32",
        "value": "t_address"
      },
      "t_mapping(t_uint256,t_array(t_address)dyn_storage)": {
        "encoding": "mapping",
        "key": "t_uint256",
        "label": "mapping(uint256 => address[])",
        "numberOfBytes": "32",
        "value": "t_array(t_address)dyn_storage"
      },
      "t_mapping(t_uint256,t_array(t_struct(DelegatedCell)4630_storage)dyn_storage)": {
        "encoding": "mapping",
        "key": "t_uint256",
        "label": "mapping(uint256 => struct NodeCells.DelegatedCell[])",
        "numberOfBytes": "32",
        "value": "t_array(t_struct(DelegatedCell)4630_storage)dyn_storage"
      },
      "t_mapping(t_uint256,t_mapping(t_address,t_bool))": {
        "encoding": "mapping",
        "key": "t_uint256",
        "label": "mapping(uint256 => mapping(address => bool))",
        "numberOfBytes": "32",
        "value": "t_mapping(t_address,t_bool)"
      },
      "t_string_storage": {
        "encoding": "bytes",
        "label": "string",
        "numberOfBytes": "32"
      },
      "t_struct(AddressSet)3574_storage": {
        "encoding": "inplace",
        "label": "struct EnumerableSet.AddressSet",
        "members": [
          {
            "astId": 3573,
            "contract": "contracts/NodeCells.sol:NodeCells",
            "label": "_inner",
            "offset": 0,
            "slot": "0",
            "type": "t_struct(Set)3303_storage"
          }
        ],
        "numberOfBytes": "64"
      },
      "t_struct(DelegatedCell)4630_storage": {
        "encoding": "inplace",
        "label": "struct NodeCells.DelegatedCell",
        "members": [
          {
            "astId": 4627,
            "contract": "contracts/NodeCells.sol:NodeCells",
            "label": "nft",
            "offset": 0,
            "slot": "0",
            "type": "t_uint256"
          },
          {
            "astId": 4629,
            "contract": "contracts/NodeCells.sol:NodeCells",
            "label": "addr",
            "offset": 0,
            "slot": "1",
            "type": "t_address"
          }
        ],
        "numberOfBytes": "64"
      },
      "t_struct(RoleData)57_storage": {
        "encoding": "inplace",
        "label": "struct AccessControl.RoleData",
        "members": [
          {
            "astId": 54,
            "contract": "contracts/NodeCells.sol:NodeCells",
            "label": "members",
            "offset": 0,
            "slot": "0",
            "type": "t_mapping(t_address,t_bool)"
          },
          {
            "astId": 56,
            "contract": "contracts/NodeCells.sol:NodeCells",
            "label": "adminRole",
            "offset": 0,
            "slot": "1",
            "type": "t_bytes32"
          }
        ],
        "numberOfBytes": "64"
      },
      "t_struct(Set)3303_storage": {
        "encoding": "inplace",
        "label": "struct EnumerableSet.Set",
        "members": [
          {
            "astId": 3298,
            "contract": "contracts/NodeCells.sol:NodeCells",
            "label": "_values",
            "offset": 0,
            "slot": "0",
            "type": "t_array(t_bytes32)dyn_storage"
          },
          {
            "astId": 3302,
            "contract": "contracts/NodeCells.sol:NodeCells",
            "label": "_indexes",
            "offset": 0,
            "slot": "1",
            "type": "t_mapping(t_bytes32,t_uint256)"
          }
        ],
        "numberOfBytes": "64"
      },
      "t_uint256": {
        "encoding": "inplace",
        "label": "uint256",
        "numberOfBytes": "32"
      }
    }
  }
}