{
  "address": "0x85BCf17Ffb74D6410e6B5babf4Ea5D5E1eAF9F74",
  "abi": [
    {
      "inputs": [
        {
          "internalType": "contract INonfungiblePositionManager",
          "name": "_positionManager",
          "type": "address"
        },
        {
          "internalType": "string",
          "name": "name",
          "type": "string"
        },
        {
          "internalType": "string",
          "name": "symbol",
          "type": "string"
        }
      ],
      "stateMutability": "nonpayable",
      "type": "constructor"
    },
    {
      "anonymous": false,
      "inputs": [
        {
          "indexed": true,
          "internalType": "address",
          "name": "owner",
          "type": "address"
        },
        {
          "indexed": true,
          "internalType": "address",
          "name": "approved",
          "type": "address"
        },
        {
          "indexed": true,
          "internalType": "uint256",
          "name": "tokenId",
          "type": "uint256"
        }
      ],
      "name": "Approval",
      "type": "event"
    },
    {
      "anonymous": false,
      "inputs": [
        {
          "indexed": true,
          "internalType": "address",
          "name": "owner",
          "type": "address"
        },
        {
          "indexed": true,
          "internalType": "address",
          "name": "operator",
          "type": "address"
        },
        {
          "indexed": false,
          "internalType": "bool",
          "name": "approved",
          "type": "bool"
        }
      ],
      "name": "ApprovalForAll",
      "type": "event"
    },
    {
      "anonymous": false,
      "inputs": [
        {
          "indexed": true,
          "internalType": "address",
          "name": "to",
          "type": "address"
        },
        {
          "indexed": true,
          "internalType": "uint256",
          "name": "nft",
          "type": "uint256"
        },
        {
          "indexed": false,
          "internalType": "bytes",
          "name": "params",
          "type": "bytes"
        }
      ],
      "name": "CreateCell",
      "type": "event"
    },
    {
      "anonymous": false,
      "inputs": [
        {
          "indexed": false,
          "internalType": "uint256",
          "name": "nft",
          "type": "uint256"
        },
        {
          "indexed": false,
          "internalType": "address[]",
          "name": "tokens",
          "type": "address[]"
        },
        {
          "indexed": false,
          "internalType": "uint256[]",
          "name": "actualTokenAmounts",
          "type": "uint256[]"
        }
      ],
      "name": "Deposit",
      "type": "event"
    },
    {
      "anonymous": false,
      "inputs": [
        {
          "indexed": true,
          "internalType": "bytes32",
          "name": "role",
          "type": "bytes32"
        },
        {
          "indexed": true,
          "internalType": "bytes32",
          "name": "previousAdminRole",
          "type": "bytes32"
        },
        {
          "indexed": true,
          "internalType": "bytes32",
          "name": "newAdminRole",
          "type": "bytes32"
        }
      ],
      "name": "RoleAdminChanged",
      "type": "event"
    },
    {
      "anonymous": false,
      "inputs": [
        {
          "indexed": true,
          "internalType": "bytes32",
          "name": "role",
          "type": "bytes32"
        },
        {
          "indexed": true,
          "internalType": "address",
          "name": "account",
          "type": "address"
        },
        {
          "indexed": true,
          "internalType": "address",
          "name": "sender",
          "type": "address"
        }
      ],
      "name": "RoleGranted",
      "type": "event"
    },
    {
      "anonymous": false,
      "inputs": [
        {
          "indexed": true,
          "internalType": "bytes32",
          "name": "role",
          "type": "bytes32"
        },
        {
          "indexed": true,
          "internalType": "address",
          "name": "account",
          "type": "address"
        },
        {
          "indexed": true,
          "internalType": "address",
          "name": "sender",
          "type": "address"
        }
      ],
      "name": "RoleRevoked",
      "type": "event"
    },
    {
      "anonymous": false,
      "inputs": [
        {
          "indexed": true,
          "internalType": "address",
          "name": "from",
          "type": "address"
        },
        {
          "indexed": true,
          "internalType": "address",
          "name": "to",
          "type": "address"
        },
        {
          "indexed": true,
          "internalType": "uint256",
          "name": "tokenId",
          "type": "uint256"
        }
      ],
      "name": "Transfer",
      "type": "event"
    },
    {
      "anonymous": false,
      "inputs": [
        {
          "indexed": false,
          "internalType": "uint256",
          "name": "nft",
          "type": "uint256"
        },
        {
          "indexed": false,
          "internalType": "address",
          "name": "to",
          "type": "address"
        },
        {
          "indexed": false,
          "internalType": "address[]",
          "name": "tokens",
          "type": "address[]"
        },
        {
          "indexed": false,
          "internalType": "uint256[]",
          "name": "actualTokenAmounts",
          "type": "uint256[]"
        }
      ],
      "name": "Withdraw",
      "type": "event"
    },
    {
      "inputs": [],
      "name": "DEFAULT_ADMIN_ROLE",
      "outputs": [
        {
          "internalType": "bytes32",
          "name": "",
          "type": "bytes32"
        }
      ],
      "stateMutability": "view",
      "type": "function"
    },
    {
      "inputs": [
        {
          "internalType": "address",
          "name": "to",
          "type": "address"
        },
        {
          "internalType": "uint256",
          "name": "tokenId",
          "type": "uint256"
        }
      ],
      "name": "approve",
      "outputs": [],
      "stateMutability": "nonpayable",
      "type": "function"
    },
    {
      "inputs": [
        {
          "internalType": "address",
          "name": "owner",
          "type": "address"
        }
      ],
      "name": "balanceOf",
      "outputs": [
        {
          "internalType": "uint256",
          "name": "",
          "type": "uint256"
        }
      ],
      "stateMutability": "view",
      "type": "function"
    },
    {
      "inputs": [],
      "name": "commitPendingMaxTokensPerCell",
      "outputs": [],
      "stateMutability": "nonpayable",
      "type": "function"
    },
    {
      "inputs": [],
      "name": "commitPendingPermissionless",
      "outputs": [],
      "stateMutability": "nonpayable",
      "type": "function"
    },
    {
      "inputs": [
        {
          "internalType": "address[]",
          "name": "cellTokens",
          "type": "address[]"
        },
        {
          "internalType": "bytes",
          "name": "params",
          "type": "bytes"
        }
      ],
      "name": "createCell",
      "outputs": [
        {
          "internalType": "uint256",
          "name": "",
          "type": "uint256"
        }
      ],
      "stateMutability": "nonpayable",
      "type": "function"
    },
    {
      "inputs": [
        {
          "internalType": "uint256",
          "name": "nft",
          "type": "uint256"
        }
      ],
      "name": "delegated",
      "outputs": [
        {
          "internalType": "address[]",
          "name": "tokens",
          "type": "address[]"
        },
        {
          "internalType": "uint256[]",
          "name": "tokenAmounts",
          "type": "uint256[]"
        }
      ],
      "stateMutability": "view",
      "type": "function"
    },
    {
      "inputs": [
        {
          "internalType": "uint256",
          "name": "nft",
          "type": "uint256"
        },
        {
          "internalType": "address[]",
          "name": "tokens",
          "type": "address[]"
        },
        {
          "internalType": "uint256[]",
          "name": "tokenAmounts",
          "type": "uint256[]"
        }
      ],
      "name": "deposit",
      "outputs": [
        {
          "internalType": "uint256[]",
          "name": "actualTokenAmounts",
          "type": "uint256[]"
        }
      ],
      "stateMutability": "nonpayable",
      "type": "function"
    },
    {
      "inputs": [
        {
          "internalType": "uint256",
          "name": "tokenId",
          "type": "uint256"
        }
      ],
      "name": "getApproved",
      "outputs": [
        {
          "internalType": "address",
          "name": "",
          "type": "address"
        }
      ],
      "stateMutability": "view",
      "type": "function"
    },
    {
      "inputs": [
        {
          "internalType": "bytes32",
          "name": "role",
          "type": "bytes32"
        }
      ],
      "name": "getRoleAdmin",
      "outputs": [
        {
          "internalType": "bytes32",
          "name": "",
          "type": "bytes32"
        }
      ],
      "stateMutability": "view",
      "type": "function"
    },
    {
      "inputs": [
        {
          "internalType": "bytes32",
          "name": "role",
          "type": "bytes32"
        },
        {
          "internalType": "uint256",
          "name": "index",
          "type": "uint256"
        }
      ],
      "name": "getRoleMember",
      "outputs": [
        {
          "internalType": "address",
          "name": "",
          "type": "address"
        }
      ],
      "stateMutability": "view",
      "type": "function"
    },
    {
      "inputs": [
        {
          "internalType": "bytes32",
          "name": "role",
          "type": "bytes32"
        }
      ],
      "name": "getRoleMemberCount",
      "outputs": [
        {
          "internalType": "uint256",
          "name": "",
          "type": "uint256"
        }
      ],
      "stateMutability": "view",
      "type": "function"
    },
    {
      "inputs": [
        {
          "internalType": "bytes32",
          "name": "role",
          "type": "bytes32"
        },
        {
          "internalType": "address",
          "name": "account",
          "type": "address"
        }
      ],
      "name": "grantRole",
      "outputs": [],
      "stateMutability": "nonpayable",
      "type": "function"
    },
    {
      "inputs": [
        {
          "internalType": "bytes32",
          "name": "role",
          "type": "bytes32"
        },
        {
          "internalType": "address",
          "name": "account",
          "type": "address"
        }
      ],
      "name": "hasRole",
      "outputs": [
        {
          "internalType": "bool",
          "name": "",
          "type": "bool"
        }
      ],
      "stateMutability": "view",
      "type": "function"
    },
    {
      "inputs": [
        {
          "internalType": "address",
          "name": "owner",
          "type": "address"
        },
        {
          "internalType": "address",
          "name": "operator",
          "type": "address"
        }
      ],
      "name": "isApprovedForAll",
      "outputs": [
        {
          "internalType": "bool",
          "name": "",
          "type": "bool"
        }
      ],
      "stateMutability": "view",
      "type": "function"
    },
    {
      "inputs": [
        {
          "internalType": "uint256",
          "name": "nft",
          "type": "uint256"
        },
        {
          "internalType": "address",
          "name": "token",
          "type": "address"
        }
      ],
      "name": "isManagedToken",
      "outputs": [
        {
          "internalType": "bool",
          "name": "",
          "type": "bool"
        }
      ],
      "stateMutability": "view",
      "type": "function"
    },
    {
      "inputs": [
        {
          "internalType": "uint256",
          "name": "nft",
          "type": "uint256"
        }
      ],
      "name": "managedTokens",
      "outputs": [
        {
          "internalType": "address[]",
          "name": "",
          "type": "address[]"
        }
      ],
      "stateMutability": "view",
      "type": "function"
    },
    {
      "inputs": [],
      "name": "maxTokensPerCell",
      "outputs": [
        {
          "internalType": "uint256",
          "name": "",
          "type": "uint256"
        }
      ],
      "stateMutability": "view",
      "type": "function"
    },
    {
      "inputs": [],
      "name": "name",
      "outputs": [
        {
          "internalType": "string",
          "name": "",
          "type": "string"
        }
      ],
      "stateMutability": "view",
      "type": "function"
    },
    {
      "inputs": [
        {
          "internalType": "uint256",
          "name": "tokenId",
          "type": "uint256"
        }
      ],
      "name": "ownerOf",
      "outputs": [
        {
          "internalType": "address",
          "name": "",
          "type": "address"
        }
      ],
      "stateMutability": "view",
      "type": "function"
    },
    {
      "inputs": [],
      "name": "pendingMaxTokensPerCell",
      "outputs": [
        {
          "internalType": "uint256",
          "name": "",
          "type": "uint256"
        }
      ],
      "stateMutability": "view",
      "type": "function"
    },
    {
      "inputs": [],
      "name": "pendingPermissionless",
      "outputs": [
        {
          "internalType": "bool",
          "name": "",
          "type": "bool"
        }
      ],
      "stateMutability": "view",
      "type": "function"
    },
    {
      "inputs": [],
      "name": "permissionless",
      "outputs": [
        {
          "internalType": "bool",
          "name": "",
          "type": "bool"
        }
      ],
      "stateMutability": "view",
      "type": "function"
    },
    {
      "inputs": [],
      "name": "positionManager",
      "outputs": [
        {
          "internalType": "contract INonfungiblePositionManager",
          "name": "",
          "type": "address"
        }
      ],
      "stateMutability": "view",
      "type": "function"
    },
    {
      "inputs": [
        {
          "internalType": "bytes32",
          "name": "role",
          "type": "bytes32"
        },
        {
          "internalType": "address",
          "name": "account",
          "type": "address"
        }
      ],
      "name": "renounceRole",
      "outputs": [],
      "stateMutability": "nonpayable",
      "type": "function"
    },
    {
      "inputs": [
        {
          "internalType": "bytes32",
          "name": "role",
          "type": "bytes32"
        },
        {
          "internalType": "address",
          "name": "account",
          "type": "address"
        }
      ],
      "name": "revokeRole",
      "outputs": [],
      "stateMutability": "nonpayable",
      "type": "function"
    },
    {
      "inputs": [
        {
          "internalType": "address",
          "name": "from",
          "type": "address"
        },
        {
          "internalType": "address",
          "name": "to",
          "type": "address"
        },
        {
          "internalType": "uint256",
          "name": "tokenId",
          "type": "uint256"
        }
      ],
      "name": "safeTransferFrom",
      "outputs": [],
      "stateMutability": "nonpayable",
      "type": "function"
    },
    {
      "inputs": [
        {
          "internalType": "address",
          "name": "from",
          "type": "address"
        },
        {
          "internalType": "address",
          "name": "to",
          "type": "address"
        },
        {
          "internalType": "uint256",
          "name": "tokenId",
          "type": "uint256"
        },
        {
          "internalType": "bytes",
          "name": "_data",
          "type": "bytes"
        }
      ],
      "name": "safeTransferFrom",
      "outputs": [],
      "stateMutability": "nonpayable",
      "type": "function"
    },
    {
      "inputs": [
        {
          "internalType": "address",
          "name": "operator",
          "type": "address"
        },
        {
          "internalType": "bool",
          "name": "approved",
          "type": "bool"
        }
      ],
      "name": "setApprovalForAll",
      "outputs": [],
      "stateMutability": "nonpayable",
      "type": "function"
    },
    {
      "inputs": [
        {
          "internalType": "uint256",
          "name": "_pendingMaxTokensPerCell",
          "type": "uint256"
        }
      ],
      "name": "setPendingMaxTokensPerCell",
      "outputs": [],
      "stateMutability": "nonpayable",
      "type": "function"
    },
    {
      "inputs": [
        {
          "internalType": "bool",
          "name": "_pendingPermissionless",
          "type": "bool"
        }
      ],
      "name": "setPendingPermissionless",
      "outputs": [],
      "stateMutability": "nonpayable",
      "type": "function"
    },
    {
      "inputs": [
        {
          "internalType": "bytes4",
          "name": "interfaceId",
          "type": "bytes4"
        }
      ],
      "name": "supportsInterface",
      "outputs": [
        {
          "internalType": "bool",
          "name": "",
          "type": "bool"
        }
      ],
      "stateMutability": "view",
      "type": "function"
    },
    {
      "inputs": [],
      "name": "symbol",
      "outputs": [
        {
          "internalType": "string",
          "name": "",
          "type": "string"
        }
      ],
      "stateMutability": "view",
      "type": "function"
    },
    {
      "inputs": [
        {
          "internalType": "uint256",
          "name": "tokenId",
          "type": "uint256"
        }
      ],
      "name": "tokenURI",
      "outputs": [
        {
          "internalType": "string",
          "name": "",
          "type": "string"
        }
      ],
      "stateMutability": "view",
      "type": "function"
    },
    {
      "inputs": [
        {
          "internalType": "address",
          "name": "from",
          "type": "address"
        },
        {
          "internalType": "address",
          "name": "to",
          "type": "address"
        },
        {
          "internalType": "uint256",
          "name": "tokenId",
          "type": "uint256"
        }
      ],
      "name": "transferFrom",
      "outputs": [],
      "stateMutability": "nonpayable",
      "type": "function"
    },
    {
      "inputs": [
        {
          "internalType": "uint256",
          "name": "",
          "type": "uint256"
        }
      ],
      "name": "uniNfts",
      "outputs": [
        {
          "internalType": "uint256",
          "name": "",
          "type": "uint256"
        }
      ],
      "stateMutability": "view",
      "type": "function"
    },
    {
      "inputs": [
        {
          "internalType": "uint256",
          "name": "nft",
          "type": "uint256"
        },
        {
          "internalType": "address",
          "name": "to",
          "type": "address"
        },
        {
          "internalType": "address[]",
          "name": "tokens",
          "type": "address[]"
        },
        {
          "internalType": "uint256[]",
          "name": "tokenAmounts",
          "type": "uint256[]"
        }
      ],
      "name": "withdraw",
      "outputs": [
        {
          "internalType": "uint256[]",
          "name": "actualTokenAmounts",
          "type": "uint256[]"
        }
      ],
      "stateMutability": "nonpayable",
      "type": "function"
    }
  ],
  "transactionHash": "0x9b4740855a40d6a95fd67d068556944154d7f86d7239d91ad1c4a34e805ba80a",
  "args": [
    "0xC36442b4a4522E871399CD717aBDD847Ab11FE88",
    "Mellow UniV3 Cells V1",
    "MUCV1"
  ],
  "solcInputHash": "9b07e89da684cda4361265849d68a216",
  "bytecode": "0x60a06040526008805460ff19169055600a6009556001600d553480156200002557600080fd5b506040516200513738038062005137833981016040819052620000489162000429565b8181818162000067600080516020620050f78339815191523362000113565b62000082600080516020620050f78339815191528062000156565b6200009d600080516020620051178339815191523362000113565b620000c760008051602062005117833981519152600080516020620050f783398151915262000156565b8151620000dc906002906020850190620002cc565b508051620000f2906003906020840190620002cc565b505050505060609290921b6001600160601b03191660805250620005069050565b6200012a8282620001aa60201b62001ca91760201c565b60008281526001602090815260409091206200015191839062001cb7620001ba821b17901c565b505050565b600082815260208190526040902060010154819060405184907fbd79b86ffe0ab8e8776151514217cd7cacd52c909f66475c3af44e129f0b00ff90600090a460009182526020829052604090912060010155565b620001b68282620001da565b5050565b6000620001d1836001600160a01b0384166200027a565b90505b92915050565b6000828152602081815260408083206001600160a01b038516845290915290205460ff16620001b6576000828152602081815260408083206001600160a01b03851684529091529020805460ff19166001179055620002363390565b6001600160a01b0316816001600160a01b0316837f2f8788117e7eff1d82e926ec794901d17c78024a50270940304540a733656f0d60405160405180910390a45050565b6000818152600183016020526040812054620002c357508154600181810184556000848152602080822090930184905584548482528286019093526040902091909155620001d4565b506000620001d4565b828054620002da90620004b3565b90600052602060002090601f016020900481019282620002fe576000855562000349565b82601f106200031957805160ff191683800117855562000349565b8280016001018555821562000349579182015b82811115620003495782518255916020019190600101906200032c565b50620003579291506200035b565b5090565b5b808211156200035757600081556001016200035c565b600082601f8301126200038457600080fd5b81516001600160401b0380821115620003a157620003a1620004f0565b604051601f8301601f19908116603f01168101908282118183101715620003cc57620003cc620004f0565b81604052838152602092508683858801011115620003e957600080fd5b600091505b838210156200040d5785820183015181830184015290820190620003ee565b838211156200041f5760008385830101525b9695505050505050565b6000806000606084860312156200043f57600080fd5b83516001600160a01b03811681146200045757600080fd5b60208501519093506001600160401b03808211156200047557600080fd5b620004838783880162000372565b935060408601519150808211156200049a57600080fd5b50620004a98682870162000372565b9150509250925092565b600181811c90821680620004c857607f821691505b60208210811415620004ea57634e487b7160e01b600052602260045260246000fd5b50919050565b634e487b7160e01b600052604160045260246000fd5b60805160601c614b8c6200056b600039600081816103e00152818161090f01528181610b5201528181610fcf0152818161108201528181611848015281816119ca015281816121c70152818161226c015281816124860152612db20152614b8c6000f3fe608060405234801561001057600080fd5b50600436106102275760003560e01c80639010d07c11610130578063c87b56dd116100b8578063ebcf2d771161007c578063ebcf2d771461050f578063ec15eb161461052f578063ee48184514610538578063ee7e2dd31461054a578063fe7f20341461058357600080fd5b8063c87b56dd14610487578063ca15c8731461049a578063d547741f146104ad578063de7f9e4e146104c0578063e985e9c5146104d357600080fd5b8063a217fddf116100ff578063a217fddf1461043d578063a22cb46514610445578063b539978214610458578063b7874baa14610461578063b88d4fde1461047457600080fd5b80639010d07c1461040257806391d148541461041557806395d89b4114610428578063a1256f9f1461043057600080fd5b8063248a9ca3116101b357806342842e0e1161018257806342842e0e1461039a57806344fbb334146103ad5780636352211e146103b557806370a08231146103c8578063791b98bc146103db57600080fd5b8063248a9ca31461033e5780632f2ff15d1461036157806336568abe14610374578063423b01ec1461038757600080fd5b80630d7a41b7116101fa5780630d7a41b7146102a957806313a24a30146102c957806318e44a49146102ea5780631bb7ad6b1461030b57806323b872dd1461032b57600080fd5b806301ffc9a71461022c57806306fdde0314610254578063081812fc14610269578063095ea7b314610294575b600080fd5b61023f61023a366004614136565b61058b565b60405190151581526020015b60405180910390f35b61025c6105b6565b60405161024b91906146bf565b61027c6102773660046140d6565b610648565b6040516001600160a01b03909116815260200161024b565b6102a76102a2366004613f95565b6106e2565b005b6102bc6102b73660046142df565b6107f8565b60405161024b91906146ac565b6102dc6102d7366004613fc1565b610e12565b60405190815260200161024b565b6102fd6102f83660046140d6565b610f93565b60405161024b92919061467e565b61031e6103193660046140d6565b61134a565b60405161024b919061466b565b6102a7610339366004613eba565b6113b6565b6102dc61034c3660046140d6565b60009081526020819052604090206001015490565b6102a761036f3660046140ef565b6113e7565b6102a76103823660046140ef565b611409565b6102a761039536600461409c565b61142b565b6102a76103a8366004613eba565b611469565b6102a7611484565b61027c6103c33660046140d6565b6114b5565b6102dc6103d6366004613e47565b61152c565b61027c7f000000000000000000000000000000000000000000000000000000000000000081565b61027c610410366004614114565b6115b3565b61023f6104233660046140ef565b6115d2565b61025c6115fb565b60085461023f9060ff1681565b6102dc600081565b6102a7610453366004613f67565b61160a565b6102dc600a5481565b6102bc61046f366004614253565b6116cf565b6102a7610482366004613efb565b611afd565b61025c6104953660046140d6565b611b35565b6102dc6104a83660046140d6565b611c1c565b6102a76104bb3660046140ef565b611c33565b6102a76104ce3660046140d6565b611c3d565b61023f6104e1366004613e81565b6001600160a01b03918216600090815260076020908152604080832093909416825291909152205460ff1690565b6102dc61051d3660046140d6565b600e6020526000908152604090205481565b6102dc60095481565b60085461023f90610100900460ff1681565b61023f6105583660046140ef565b6000918252600c602090815260408084206001600160a01b0393909316845291905290205460ff1690565b6102a7611c66565b60006001600160e01b03198216631ccd795160e31b14806105b057506105b082611ccc565b92915050565b6060600280546105c590614a05565b80601f01602080910402602001604051908101604052809291908181526020018280546105f190614a05565b801561063e5780601f106106135761010080835404028352916020019161063e565b820191906000526020600020905b81548152906001019060200180831161062157829003601f168201915b5050505050905090565b6000818152600460205260408120546001600160a01b03166106c65760405162461bcd60e51b815260206004820152602c60248201527f4552433732313a20617070726f76656420717565727920666f72206e6f6e657860448201526b34b9ba32b73a103a37b5b2b760a11b60648201526084015b60405180910390fd5b506000908152600660205260409020546001600160a01b031690565b60006106ed826114b5565b9050806001600160a01b0316836001600160a01b0316141561075b5760405162461bcd60e51b815260206004820152602160248201527f4552433732313a20617070726f76616c20746f2063757272656e74206f776e656044820152603960f91b60648201526084016106bd565b336001600160a01b0382161480610777575061077781336104e1565b6107e95760405162461bcd60e51b815260206004820152603860248201527f4552433732313a20617070726f76652063616c6c6572206973206e6f74206f7760448201527f6e6572206e6f7220617070726f76656420666f7220616c6c000000000000000060648201526084016106bd565b6107f38383611d0c565b505050565b60606108043387611d7a565b6108355760405162461bcd60e51b8152602060048201526002602482015261494f60f01b60448201526064016106bd565b610871858580806020026020016040519081016040528093929190818152602001838360200280828437600092019190915250611e7192505050565b61088d5760405162461bcd60e51b81526004016106bd90614741565b8382146108c05760405162461bcd60e51b81526020600482015260016024820152601360fa1b60448201526064016106bd565b6000868152600e6020526040902054806108ec5760405162461bcd60e51b81526004016106bd906147af565b60405163133f757160e31b81526004810182905260009081906001600160a01b037f000000000000000000000000000000000000000000000000000000000000000016906399fbab88906024016101806040518083038186803b15801561095257600080fd5b505afa158015610966573d6000803e3d6000fd5b505050506040513d601f19601f8201168201806040525081019061098a91906143b9565b50505050505050509350935050506000600267ffffffffffffffff8111156109b4576109b4614b07565b6040519080825280602002602001820160405280156109dd578160200160208202803683370190505b50905082816000815181106109f4576109f4614af1565b60200260200101906001600160a01b031690816001600160a01b0316815250508181600181518110610a2857610a28614af1565b60200260200101906001600160a01b031690816001600160a01b0316815250506000610ab8828b8b8080602002602001604051908101604052809392919081815260200183836020028082843760009201919091525050604080516020808f0282810182019093528e82529093508e92508d918291850190849080828437600092019190915250611f1692505050565b905060005b8151811015610b4c57610b183330848481518110610add57610add614af1565b6020026020010151868581518110610af757610af7614af1565b60200260200101516001600160a01b0316612138909392919063ffffffff16565b610b3a838281518110610b2d57610b2d614af1565b60200260200101516121a3565b80610b4481614a40565b915050610abd565b506000807f00000000000000000000000000000000000000000000000000000000000000006001600160a01b031663219f5d176040518060c001604052808a815260200186600081518110610ba357610ba3614af1565b6020026020010151815260200186600181518110610bc357610bc3614af1565b60200260200101518152602001600081526020016000815260200142610258610bec9190614938565b9052604080516001600160e01b031960e085901b1681528251600482015260208301516024820152908201516044820152606082015160648201526080820151608482015260a09091015160a482015260c401606060405180830381600087803b158015610c5957600080fd5b505af1158015610c6d573d6000803e3d6000fd5b505050506040513d601f19601f82011682018060405250810190610c919190614170565b6040805160028082526060820183529396509194509092506020830190803683370190505097508188600081518110610ccc57610ccc614af1565b6020026020010181815250508088600181518110610cec57610cec614af1565b60200260200101818152505060005b8451811015610dc457838181518110610d1657610d16614af1565b6020026020010151898281518110610d3057610d30614af1565b60200260200101511015610db257610db2338a8381518110610d5457610d54614af1565b6020026020010151868481518110610d6e57610d6e614af1565b6020026020010151610d8091906149ab565b878481518110610d9257610d92614af1565b60200260200101516001600160a01b03166122fb9092919063ffffffff16565b80610dbc81614a40565b915050610cfb565b507fe33829dd3495a41ba02f88de5eadec2635e25192c73dee8c65625206aa61e09a8d8d8d8b604051610dfa94939291906148db565b60405180910390a15050505050505095945050505050565b60085460009060ff1680610e295750610e2961232b565b610e455760405162461bcd60e51b81526004016106bd906146d2565b60095483511115610e7d5760405162461bcd60e51b8152602060048201526002602482015261135560f21b60448201526064016106bd565b610e8683611e71565b610ea25760405162461bcd60e51b81526004016106bd90614741565b6000610eae848461238c565b6000818152600b602090815260409091208651929350610ed2929091870190613cb3565b5060005b8451811015610f49576000828152600c60205260408120865160019290889085908110610f0557610f05614af1565b6020908102919091018101516001600160a01b03168252810191909152604001600020805460ff191691151591909117905580610f4181614a40565b915050610ed6565b5080336001600160a01b03167fe423da5b0aa0eb7a8c8409551a7f9487952c6003da26568ea41ee22cf3133d4a85604051610f8491906146bf565b60405180910390a39392505050565b6000818152600e6020526040902054606090819080610fc45760405162461bcd60e51b81526004016106bd906147af565b6000806000806000807f00000000000000000000000000000000000000000000000000000000000000006001600160a01b03166399fbab88886040518263ffffffff1660e01b815260040161101b91815260200190565b6101806040518083038186803b15801561103457600080fd5b505afa158015611048573d6000803e3d6000fd5b505050506040513d601f19601f8201168201806040525081019061106c91906143b9565b50505050975097509750975097509750505060007f00000000000000000000000000000000000000000000000000000000000000006001600160a01b031663c45a01556040518163ffffffff1660e01b815260040160206040518083038186803b1580156110d957600080fd5b505afa1580156110ed573d6000803e3d6000fd5b505050506040513d601f19601f820116820180604052508101906111119190613e64565b604051630b4c774160e11b81526001600160a01b038981166004830152888116602483015262ffffff881660448301529190911690631698ee829060640160206040518083038186803b15801561116757600080fd5b505afa15801561117b573d6000803e3d6000fd5b505050506040513d601f19601f8201168201806040525081019061119f9190613e64565b90506000816001600160a01b0316633850c7bd6040518163ffffffff1660e01b815260040160e06040518083038186803b1580156111dc57600080fd5b505afa1580156111f0573d6000803e3d6000fd5b505050506040513d601f19601f8201168201806040525081019061121491906141a5565b50505050505090506000611227866125fa565b90506000611234866125fa565b90506000806112458585858a612a0f565b604080516002808252606082019092529294509092508160200160208202803683370190505060408051600280825260608201909252919f50816020016020820280368337019050509e508b8f6000815181106112a4576112a4614af1565b60200260200101906001600160a01b031690816001600160a01b0316815250508a8f6001815181106112d8576112d8614af1565b60200260200101906001600160a01b031690816001600160a01b031681525050818e60008151811061130c5761130c614af1565b602002602001018181525050808e60018151811061132c5761132c614af1565b60200260200101818152505050505050505050505050505050915091565b6000818152600b60209081526040918290208054835181840281018401909452808452606093928301828280156113aa57602002820191906000526020600020905b81546001600160a01b0316815260019091019060200180831161138c575b50505050509050919050565b6113c03382611d7a565b6113dc5760405162461bcd60e51b81526004016106bd9061475e565b6107f3838383612aab565b6113f18282612c4b565b60008281526001602052604090206107f39082611cb7565b6114138282612c71565b60008281526001602052604090206107f39082612ceb565b61143361232b565b61144f5760405162461bcd60e51b81526004016106bd906146d2565b600880549115156101000261ff0019909216919091179055565b6107f383838360405180602001604052806000815250611afd565b61148c61232b565b6114a85760405162461bcd60e51b81526004016106bd906146d2565b600a805460095560009055565b6000818152600460205260408120546001600160a01b0316806105b05760405162461bcd60e51b815260206004820152602960248201527f4552433732313a206f776e657220717565727920666f72206e6f6e657869737460448201526832b73a103a37b5b2b760b91b60648201526084016106bd565b60006001600160a01b0382166115975760405162461bcd60e51b815260206004820152602a60248201527f4552433732313a2062616c616e636520717565727920666f7220746865207a65604482015269726f206164647265737360b01b60648201526084016106bd565b506001600160a01b031660009081526005602052604090205490565b60008281526001602052604081206115cb9083612d00565b9392505050565b6000918252602082815260408084206001600160a01b0393909316845291905290205460ff1690565b6060600380546105c590614a05565b6001600160a01b0382163314156116635760405162461bcd60e51b815260206004820152601960248201527f4552433732313a20617070726f766520746f2063616c6c65720000000000000060448201526064016106bd565b3360008181526007602090815260408083206001600160a01b03871680855290835292819020805460ff191686151590811790915590519081529192917f17307eab39ab6107e8899845ad3d59bd9653f200f220920489ca2b5937696c31910160405180910390a35050565b60606116db3388611d7a565b61170c5760405162461bcd60e51b8152602060048201526002602482015261494f60f01b60448201526064016106bd565b611748858580806020026020016040519081016040528093929190818152602001838360200280828437600092019190915250611e7192505050565b6117645760405162461bcd60e51b81526004016106bd90614741565b8382146117975760405162461bcd60e51b81526020600482015260016024820152601360fa1b60448201526064016106bd565b6000878152600e6020526040902054806117c35760405162461bcd60e51b81526004016106bd906147af565b60006117d3898389898989612d0c565b90508061184357604080516002808252606082018352909160208301908036833701905050925060008360008151811061180f5761180f614af1565b60200260200101818152505060008360018151811061183057611830614af1565b6020026020010181815250505050611af3565b6000807f00000000000000000000000000000000000000000000000000000000000000006001600160a01b0316630c49ccbe6040518060a00160405280878152602001866001600160801b031681526020016000815260200160008152602001426102586118b19190614938565b9052604080516001600160e01b031960e085901b1681528251600482015260208301516001600160801b0316602482015290820151604482015260608201516064820152608090910151608482015260a4016040805180830381600087803b15801561191c57600080fd5b505af1158015611930573d6000803e3d6000fd5b505050506040513d601f19601f820116820180604052508101906119549190614395565b604080516080810182528781526001600160a01b038e8116602083019081526001600160801b0380871684860190815281871660608601908152955163fc6f786560e01b8152945160048601529151831660248501529051811660448401529251909216606482015292945090925060009182917f0000000000000000000000000000000000000000000000000000000000000000169063fc6f7865906084016040805180830381600087803b158015611a0d57600080fd5b505af1158015611a21573d6000803e3d6000fd5b505050506040513d601f19601f82011682018060405250810190611a459190614395565b604080516002808252606082019092529294509092508160200160208202803683370190505096508187600081518110611a8157611a81614af1565b6020026020010181815250508087600181518110611aa157611aa1614af1565b6020026020010181815250507f8d04027fcc6b389782391c87ffe1fbc8b300720c147b657fc2cd85161fcf2fe98d8d8d8d8b604051611ae4959493929190614892565b60405180910390a15050505050505b9695505050505050565b611b073383611d7a565b611b235760405162461bcd60e51b81526004016106bd9061475e565b611b2f84848484613030565b50505050565b6000818152600460205260409020546060906001600160a01b0316611bb45760405162461bcd60e51b815260206004820152602f60248201527f4552433732314d657461646174613a2055524920717565727920666f72206e6f60448201526e3732bc34b9ba32b73a103a37b5b2b760891b60648201526084016106bd565b6000611bcb60408051602081019091526000815290565b90506000815111611beb57604051806020016040528060008152506115cb565b80611bf584613063565b604051602001611c06929190614594565b6040516020818303038152906040529392505050565b60008181526001602052604081206105b090613161565b611413828261316b565b611c4561232b565b611c615760405162461bcd60e51b81526004016106bd906146d2565b600a55565b611c6e61232b565b611c8a5760405162461bcd60e51b81526004016106bd906146d2565b6008805461ff001960ff61010083041615151661ffff19909116179055565b611cb38282613191565b5050565b60006115cb836001600160a01b038416613215565b60006001600160e01b031982166380ac58cd60e01b1480611cfd57506001600160e01b03198216635b5e139f60e01b145b806105b057506105b082613264565b600081815260066020526040902080546001600160a01b0319166001600160a01b0384169081179091558190611d41826114b5565b6001600160a01b03167f8c5be1e5ebec7d5bd14f71427d1e84f3dd0314c0f7b2291e5b200ac8c7c3b92560405160405180910390a45050565b6000818152600460205260408120546001600160a01b0316611df35760405162461bcd60e51b815260206004820152602c60248201527f4552433732313a206f70657261746f7220717565727920666f72206e6f6e657860448201526b34b9ba32b73a103a37b5b2b760a11b60648201526084016106bd565b6000611dfe836114b5565b9050806001600160a01b0316846001600160a01b03161480611e395750836001600160a01b0316611e2e84610648565b6001600160a01b0316145b80611e6957506001600160a01b0380821660009081526007602090815260408083209388168352929052205460ff165b949350505050565b6000600282511015611e8557506001919050565b60005b60018351611e9691906149ab565b811015611f0d5782611ea9826001614938565b81518110611eb957611eb9614af1565b60200260200101516001600160a01b0316838281518110611edc57611edc614af1565b60200260200101516001600160a01b031610611efb5750600092915050565b80611f0581614a40565b915050611e88565b50600192915050565b60606000845167ffffffffffffffff811115611f3457611f34614b07565b604051908082528060200260200182016040528015611f5d578160200160208202803683370190505b5090506000805b865182108015611f745750855181105b156120f357858181518110611f8b57611f8b614af1565b60200260200101516001600160a01b0316878381518110611fae57611fae614af1565b60200260200101516001600160a01b03161015611ff6576000838381518110611fd957611fd9614af1565b602090810291909101015281611fee81614a40565b925050611f64565b85818151811061200857612008614af1565b60200260200101516001600160a01b031687838151811061202b5761202b614af1565b60200260200101516001600160a01b031611156120a45784818151811061205457612054614af1565b602002602001015160001415612076578061206e81614a40565b915050611f64565b60405162461bcd60e51b815260206004820152600360248201526254505360e81b60448201526064016106bd565b8481815181106120b6576120b6614af1565b60200260200101518383815181106120d0576120d0614af1565b6020908102919091010152816120e581614a40565b925050808061206e90614a40565b865182101561212d57600083838151811061211057612110614af1565b60209081029190910101528161212581614a40565b9250506120f3565b509095945050505050565b6040516001600160a01b0380851660248301528316604482015260648101829052611b2f9085906323b872dd60e01b906084015b60408051601f198184030181529190526020810180516001600160e01b03166001600160e01b031990931692909217909152613289565b6121b06002600019614950565b604051636eb1769f60e11b81526001600160a01b037f00000000000000000000000000000000000000000000000000000000000000008116600483015230602483015283169063dd62ed3e9060440160206040518083038186803b15801561221757600080fd5b505afa15801561222b573d6000803e3d6000fd5b505050506040513d601f19601f8201168201806040525081019061224f919061423a565b10156122f85760405163095ea7b360e01b81526001600160a01b037f000000000000000000000000000000000000000000000000000000000000000081166004830152600019602483015282169063095ea7b390604401602060405180830381600087803b1580156122c057600080fd5b505af11580156122d4573d6000803e3d6000fd5b505050506040513d601f19601f82011682018060405250810190611cb391906140b9565b50565b6040516001600160a01b0383166024820152604481018290526107f390849063a9059cbb60e01b9060640161216c565b60006123577fabea6fd3db56a6e6d0242111b43ebb13d1c42709651c032c7894962023a1f90a336115d2565b8061238757506123877fb2ca199e5d628271269f73708112899272988324e125fafee9627694e71b1d25336115d2565b905090565b60008151610100146123c55760405162461bcd60e51b8152602060048201526002602482015261049560f41b60448201526064016106bd565b82516002146123fb5760405162461bcd60e51b8152602060048201526002602482015261151360f21b60448201526064016106bd565b602082015160408301516060840151608085015160a086015160c087015160e088015161010089015161243d3330878e600081518110610af757610af7614af1565b6124563330868e600181518110610af757610af7614af1565b61246c8b600081518110610b2d57610b2d614af1565b6124828b600181518110610b2d57610b2d614af1565b60007f00000000000000000000000000000000000000000000000000000000000000006001600160a01b031663883164566040518061016001604052808f6000815181106124d2576124d2614af1565b60200260200101516001600160a01b031681526020018f6001815181106124fb576124fb614af1565b60200260200101516001600160a01b031681526020018c62ffffff1681526020018b60020b81526020018a60020b8152602001898152602001888152602001878152602001868152602001306001600160a01b03168152602001858152506040518263ffffffff1660e01b815260040161257591906147ce565b608060405180830381600087803b15801561258f57600080fd5b505af11580156125a3573d6000803e3d6000fd5b505050506040513d601f19601f820116820180604052508101906125c79190614359565b505050905060006125d88d8d61335b565b6000818152600e6020526040902092909255509b9a5050505050505050505050565b60008060008360020b12612611578260020b61261e565b8260020b61261e90614a92565b905061262d620d89e719614a6f565b60020b8111156126635760405162461bcd60e51b81526020600482015260016024820152601560fa1b60448201526064016106bd565b60006001821661267757600160801b612689565b6ffffcb933bd6fad37aa2d162d1a5940015b70ffffffffffffffffffffffffffffffffff16905060028216156126c85760806126c3826ffff97272373d413259a46990580e213a614964565b901c90505b60048216156126f25760806126ed826ffff2e50f5f656932ef12357cf3c7fdcc614964565b901c90505b600882161561271c576080612717826fffe5caca7e10e4e61c3624eaa0941cd0614964565b901c90505b6010821615612746576080612741826fffcb9843d60f6159c9db58835c926644614964565b901c90505b602082161561277057608061276b826fff973b41fa98c081472e6896dfb254c0614964565b901c90505b604082161561279a576080612795826fff2ea16466c96a3843ec78b326b52861614964565b901c90505b60808216156127c45760806127bf826ffe5dee046a99a2a811c461f1969c3053614964565b901c90505b6101008216156127ef5760806127ea826ffcbe86c7900a88aedcffc83b479aa3a4614964565b901c90505b61020082161561281a576080612815826ff987a7253ac413176f2b074cf7815e54614964565b901c90505b610400821615612845576080612840826ff3392b0822b70005940c7a398e4b70f3614964565b901c90505b61080082161561287057608061286b826fe7159475a2c29b7443b29c7fa6e889d9614964565b901c90505b61100082161561289b576080612896826fd097f3bdfd2022b8845ad8f792aa5825614964565b901c90505b6120008216156128c65760806128c1826fa9f746462d870fdf8a65dc1f90e061e5614964565b901c90505b6140008216156128f15760806128ec826f70d869a156d2a1b890bb3df62baf32f7614964565b901c90505b61800082161561291c576080612917826f31be135f97d08fd981231505542fcfa6614964565b901c90505b62010000821615612948576080612943826f09aa508b5b7a84e1c677de54f3e99bc9614964565b901c90505b6202000082161561297357608061296e826e5d6af8dedb81196699c329225ee604614964565b901c90505b6204000082161561299d576080612998826d2216e584f5fa1ea926041bedfe98614964565b901c90505b620800008216156129c55760806129c0826b048a170391f7dc42444e8fa2614964565b901c90505b60008460020b13156129e0576129dd81600019614950565b90505b6129ef64010000000082614a5b565b156129fb5760016129fe565b60005b611e699060ff16602083901c614938565b600080836001600160a01b0316856001600160a01b03161115612a30579293925b846001600160a01b0316866001600160a01b031611612a5b57612a54858585613380565b9150612aa2565b836001600160a01b0316866001600160a01b03161015612a9457612a80868585613380565b9150612a8d8587856133f3565b9050612aa2565b612a9f8585856133f3565b90505b94509492505050565b826001600160a01b0316612abe826114b5565b6001600160a01b031614612b265760405162461bcd60e51b815260206004820152602960248201527f4552433732313a207472616e73666572206f6620746f6b656e2074686174206960448201526839903737ba1037bbb760b91b60648201526084016106bd565b6001600160a01b038216612b885760405162461bcd60e51b8152602060048201526024808201527f4552433732313a207472616e7366657220746f20746865207a65726f206164646044820152637265737360e01b60648201526084016106bd565b612b93600082611d0c565b6001600160a01b0383166000908152600560205260408120805460019290612bbc9084906149ab565b90915550506001600160a01b0382166000908152600560205260408120805460019290612bea908490614938565b909155505060008181526004602052604080822080546001600160a01b0319166001600160a01b0386811691821790925591518493918716917fddf252ad1be2c89b69c2b068fc378daa952ba7f163c4a11628f55a4df523b3ef91a4505050565b600082815260208190526040902060010154612c67813361343d565b6107f38383613191565b6001600160a01b0381163314612ce15760405162461bcd60e51b815260206004820152602f60248201527f416363657373436f6e74726f6c3a2063616e206f6e6c792072656e6f756e636560448201526e103937b632b9903337b91039b2b63360891b60648201526084016106bd565b611cb382826134a1565b60006115cb836001600160a01b038416613506565b60006115cb83836135f9565b6000806000612d1a89610f93565b915091506000612d8e8389898080602002602001604051908101604052809392919081815260200183836020028082843760009201919091525050604080516020808d0282810182019093528c82529093508c92508b918291850190849080828437600092019190915250611f1692505050565b60405163133f757160e31b8152600481018b90529091506000906001600160a01b037f000000000000000000000000000000000000000000000000000000000000000016906399fbab88906024016101806040518083038186803b158015612df557600080fd5b505afa158015612e09573d6000803e3d6000fd5b505050506040513d601f19601f82011682018060405250810190612e2d91906143b9565b5050505097505050505050505082600081518110612e4d57612e4d614af1565b602002602001015160001415612eec5781600081518110612e7057612e70614af1565b602002602001015160001415612edf5782600181518110612e9357612e93614af1565b602002602001015182600181518110612eae57612eae614af1565b6020026020010151826001600160801b0316612eca9190614964565b612ed49190614950565b945050505050611af3565b6000945050505050611af3565b82600181518110612eff57612eff614af1565b602002602001015160001415612f605781600181518110612f2257612f22614af1565b602002602001015160001415612edf5782600081518110612f4557612f45614af1565b602002602001015182600081518110612eae57612eae614af1565b600083600081518110612f7557612f75614af1565b602002602001015183600081518110612f9057612f90614af1565b6020026020010151836001600160801b0316612fac9190614964565b612fb69190614950565b9050600084600181518110612fcd57612fcd614af1565b602002602001015184600181518110612fe857612fe8614af1565b6020026020010151846001600160801b03166130049190614964565b61300e9190614950565b905080821061301d578061301f565b815b9d9c50505050505050505050505050565b61303b848484612aab565b61304784848484613623565b611b2f5760405162461bcd60e51b81526004016106bd906146ef565b6060816130875750506040805180820190915260018152600360fc1b602082015290565b8160005b81156130b1578061309b81614a40565b91506130aa9050600a83614950565b915061308b565b60008167ffffffffffffffff8111156130cc576130cc614b07565b6040519080825280601f01601f1916602001820160405280156130f6576020820181803683370190505b5090505b8415611e695761310b6001836149ab565b9150613118600a86614a5b565b613123906030614938565b60f81b81838151811061313857613138614af1565b60200101906001600160f81b031916908160001a90535061315a600a86614950565b94506130fa565b60006105b0825490565b600082815260208190526040902060010154613187813361343d565b6107f383836134a1565b61319b82826115d2565b611cb3576000828152602081815260408083206001600160a01b03851684529091529020805460ff191660011790556131d13390565b6001600160a01b0316816001600160a01b0316837f2f8788117e7eff1d82e926ec794901d17c78024a50270940304540a733656f0d60405160405180910390a45050565b600081815260018301602052604081205461325c575081546001818101845560008481526020808220909301849055845484825282860190935260409020919091556105b0565b5060006105b0565b60006001600160e01b03198216635a05180f60e01b14806105b057506105b082613730565b60006132de826040518060400160405280602081526020017f5361666545524332303a206c6f772d6c6576656c2063616c6c206661696c6564815250856001600160a01b03166137659092919063ffffffff16565b8051909150156107f357808060200190518101906132fc91906140b9565b6107f35760405162461bcd60e51b815260206004820152602a60248201527f5361666545524332303a204552433230206f7065726174696f6e20646964206e6044820152691bdd081cdd58d8d9595960b21b60648201526084016106bd565b600d8054600091600190836133708385614938565b909155506115cb90503382613774565b6000826001600160a01b0316846001600160a01b031611156133a0579192915b6001600160a01b0384166133e96fffffffffffffffffffffffffffffffff60601b606085901b166133d18787614983565b6001600160a01b0316866001600160a01b031661378e565b611e699190614950565b6000826001600160a01b0316846001600160a01b03161115613413579192915b611e696001600160801b03831661342a8686614983565b6001600160a01b0316600160601b61378e565b61344782826115d2565b611cb35761345f816001600160a01b03166014613841565b61346a836020613841565b60405160200161347b9291906145c3565b60408051601f198184030181529082905262461bcd60e51b82526106bd916004016146bf565b6134ab82826115d2565b15611cb3576000828152602081815260408083206001600160a01b0385168085529252808320805460ff1916905551339285917ff6391f5c32d9c69d2a47ea670b442974b53935d1edc7fd64eb21e047a839171b9190a45050565b600081815260018301602052604081205480156135ef57600061352a6001836149ab565b855490915060009061353e906001906149ab565b90508181146135a357600086600001828154811061355e5761355e614af1565b906000526020600020015490508087600001848154811061358157613581614af1565b6000918252602080832090910192909255918252600188019052604090208390555b85548690806135b4576135b4614adb565b6001900381819060005260206000200160009055905585600101600086815260200190815260200160002060009055600193505050506105b0565b60009150506105b0565b600082600001828154811061361057613610614af1565b9060005260206000200154905092915050565b60006001600160a01b0384163b1561372557604051630a85bd0160e11b81526001600160a01b0385169063150b7a0290613667903390899088908890600401614638565b602060405180830381600087803b15801561368157600080fd5b505af19250505080156136b1575060408051601f3d908101601f191682019092526136ae91810190614153565b60015b61370b573d8080156136df576040519150601f19603f3d011682016040523d82523d6000602084013e6136e4565b606091505b5080516137035760405162461bcd60e51b81526004016106bd906146ef565b805181602001fd5b6001600160e01b031916630a85bd0160e11b149050611e69565b506001949350505050565b60006001600160e01b03198216637965db0b60e01b14806105b057506301ffc9a760e01b6001600160e01b03198316146105b0565b6060611e6984846000856139dd565b611cb3828260405180602001604052806000815250613b05565b6000808060001985870985870292508281108382030391505080600014156137c857600084116137bd57600080fd5b5082900490506115cb565b8084116137d457600080fd5b6000848688096000868103871696879004966002600389028118808a02820302808a02820302808a02820302808a02820302808a02820302808a02909103029181900381900460010186841190950394909402919094039290920491909117919091029150509392505050565b60606000613850836002614964565b61385b906002614938565b67ffffffffffffffff81111561387357613873614b07565b6040519080825280601f01601f19166020018201604052801561389d576020820181803683370190505b509050600360fc1b816000815181106138b8576138b8614af1565b60200101906001600160f81b031916908160001a905350600f60fb1b816001815181106138e7576138e7614af1565b60200101906001600160f81b031916908160001a905350600061390b846002614964565b613916906001614938565b90505b600181111561398e576f181899199a1a9b1b9c1cb0b131b232b360811b85600f166010811061394a5761394a614af1565b1a60f81b82828151811061396057613960614af1565b60200101906001600160f81b031916908160001a90535060049490941c93613987816149ee565b9050613919565b5083156115cb5760405162461bcd60e51b815260206004820181905260248201527f537472696e67733a20686578206c656e67746820696e73756666696369656e7460448201526064016106bd565b606082471015613a3e5760405162461bcd60e51b815260206004820152602660248201527f416464726573733a20696e73756666696369656e742062616c616e636520666f6044820152651c8818d85b1b60d21b60648201526084016106bd565b843b613a8c5760405162461bcd60e51b815260206004820152601d60248201527f416464726573733a2063616c6c20746f206e6f6e2d636f6e747261637400000060448201526064016106bd565b600080866001600160a01b03168587604051613aa89190614578565b60006040518083038185875af1925050503d8060008114613ae5576040519150601f19603f3d011682016040523d82523d6000602084013e613aea565b606091505b5091509150613afa828286613b38565b979650505050505050565b613b0f8383613b71565b613b1c6000848484613623565b6107f35760405162461bcd60e51b81526004016106bd906146ef565b60608315613b475750816115cb565b825115613b575782518084602001fd5b8160405162461bcd60e51b81526004016106bd91906146bf565b6001600160a01b038216613bc75760405162461bcd60e51b815260206004820181905260248201527f4552433732313a206d696e7420746f20746865207a65726f206164647265737360448201526064016106bd565b6000818152600460205260409020546001600160a01b031615613c2c5760405162461bcd60e51b815260206004820152601c60248201527f4552433732313a20746f6b656e20616c7265616479206d696e7465640000000060448201526064016106bd565b6001600160a01b0382166000908152600560205260408120805460019290613c55908490614938565b909155505060008181526004602052604080822080546001600160a01b0319166001600160a01b03861690811790915590518392907fddf252ad1be2c89b69c2b068fc378daa952ba7f163c4a11628f55a4df523b3ef908290a45050565b828054828255906000526020600020908101928215613d08579160200282015b82811115613d0857825182546001600160a01b0319166001600160a01b03909116178255602090920191600190910190613cd3565b50613d14929150613d18565b5090565b5b80821115613d145760008155600101613d19565b8051613d3881614b1d565b919050565b60008083601f840112613d4f57600080fd5b50813567ffffffffffffffff811115613d6757600080fd5b6020830191508360208260051b8501011115613d8257600080fd5b9250929050565b600082601f830112613d9a57600080fd5b813567ffffffffffffffff811115613db457613db4614b07565b613dc7601f8201601f1916602001614907565b818152846020838601011115613ddc57600080fd5b816020850160208301376000918101602001919091529392505050565b8051600281900b8114613d3857600080fd5b80516001600160801b0381168114613d3857600080fd5b805161ffff81168114613d3857600080fd5b805162ffffff81168114613d3857600080fd5b600060208284031215613e5957600080fd5b81356115cb81614b1d565b600060208284031215613e7657600080fd5b81516115cb81614b1d565b60008060408385031215613e9457600080fd5b8235613e9f81614b1d565b91506020830135613eaf81614b1d565b809150509250929050565b600080600060608486031215613ecf57600080fd5b8335613eda81614b1d565b92506020840135613eea81614b1d565b929592945050506040919091013590565b60008060008060808587031215613f1157600080fd5b8435613f1c81614b1d565b93506020850135613f2c81614b1d565b925060408501359150606085013567ffffffffffffffff811115613f4f57600080fd5b613f5b87828801613d89565b91505092959194509250565b60008060408385031215613f7a57600080fd5b8235613f8581614b1d565b91506020830135613eaf81614b32565b60008060408385031215613fa857600080fd5b8235613fb381614b1d565b946020939093013593505050565b60008060408385031215613fd457600080fd5b823567ffffffffffffffff80821115613fec57600080fd5b818501915085601f83011261400057600080fd5b813560208282111561401457614014614b07565b8160051b614023828201614907565b8381528281019086840183880185018c101561403e57600080fd5b600097505b8588101561406d578035935061405884614b1d565b83835260019790970196918401918401614043565b50975050508601359250508082111561408557600080fd5b5061409285828601613d89565b9150509250929050565b6000602082840312156140ae57600080fd5b81356115cb81614b32565b6000602082840312156140cb57600080fd5b81516115cb81614b32565b6000602082840312156140e857600080fd5b5035919050565b6000806040838503121561410257600080fd5b823591506020830135613eaf81614b1d565b6000806040838503121561412757600080fd5b50508035926020909101359150565b60006020828403121561414857600080fd5b81356115cb81614b40565b60006020828403121561416557600080fd5b81516115cb81614b40565b60008060006060848603121561418557600080fd5b61418e84613e0b565b925060208401519150604084015190509250925092565b600080600080600080600060e0888a0312156141c057600080fd5b87516141cb81614b1d565b96506141d960208901613df9565b95506141e760408901613e22565b94506141f560608901613e22565b935061420360808901613e22565b925060a088015160ff8116811461421957600080fd5b60c089015190925061422a81614b32565b8091505092959891949750929550565b60006020828403121561424c57600080fd5b5051919050565b6000806000806000806080878903121561426c57600080fd5b86359550602087013561427e81614b1d565b9450604087013567ffffffffffffffff8082111561429b57600080fd5b6142a78a838b01613d3d565b909650945060608901359150808211156142c057600080fd5b506142cd89828a01613d3d565b979a9699509497509295939492505050565b6000806000806000606086880312156142f757600080fd5b85359450602086013567ffffffffffffffff8082111561431657600080fd5b61432289838a01613d3d565b9096509450604088013591508082111561433b57600080fd5b5061434888828901613d3d565b969995985093965092949392505050565b6000806000806080858703121561436f57600080fd5b8451935061437f60208601613e0b565b6040860151606090960151949790965092505050565b600080604083850312156143a857600080fd5b505080516020909101519092909150565b6000806000806000806000806000806000806101808d8f0312156143dc57600080fd5b8c516bffffffffffffffffffffffff811681146143f857600080fd5b9b5061440660208e01613d2d565b9a5061441460408e01613d2d565b995061442260608e01613d2d565b985061443060808e01613e34565b975061443e60a08e01613df9565b965061444c60c08e01613df9565b955061445a60e08e01613e0b565b94506101008d015193506101208d015192506144796101408e01613e0b565b91506144886101608e01613e0b565b90509295989b509295989b509295989b565b8183526000602080850194508260005b858110156144d85781356144bd81614b1d565b6001600160a01b0316875295820195908201906001016144aa565b509495945050505050565b600081518084526020808501945080840160005b838110156144d85781516001600160a01b0316875295820195908201906001016144f7565b600081518084526020808501945080840160005b838110156144d857815187529582019590820190600101614530565b600081518084526145648160208601602086016149c2565b601f01601f19169290920160200192915050565b6000825161458a8184602087016149c2565b9190910192915050565b600083516145a68184602088016149c2565b8351908301906145ba8183602088016149c2565b01949350505050565b7f416363657373436f6e74726f6c3a206163636f756e74200000000000000000008152600083516145fb8160178501602088016149c2565b7001034b99036b4b9b9b4b733903937b6329607d1b601791840191820152835161462c8160288401602088016149c2565b01602801949350505050565b6001600160a01b0385811682528416602082015260408101839052608060608201819052600090611af39083018461454c565b6020815260006115cb60208301846144e3565b60408152600061469160408301856144e3565b82810360208401526146a3818561451c565b95945050505050565b6020815260006115cb602083018461451c565b6020815260006115cb602083018461454c565b6020808252600390820152621411d160ea1b604082015260600190565b60208082526032908201527f4552433732313a207472616e7366657220746f206e6f6e20455243373231526560408201527131b2b4bb32b91034b6b83632b6b2b73a32b960711b606082015260800190565b60208082526003908201526253415560e81b604082015260600190565b60208082526031908201527f4552433732313a207472616e736665722063616c6c6572206973206e6f74206f6040820152701ddb995c881b9bdc88185c1c1c9bdd9959607a1b606082015260800190565b6020808252600590820152640554e4654360dc1b604082015260600190565b81516001600160a01b03168152610160810160208301516147fa60208401826001600160a01b03169052565b506040830151614811604084018262ffffff169052565b506060830151614826606084018260020b9052565b50608083015161483b608084018260020b9052565b5060a083015160a083015260c083015160c083015260e083015160e083015261010080840151818401525061012080840151614881828501826001600160a01b03169052565b505061014092830151919092015290565b8581526001600160a01b03851660208201526080604082018190526000906148bd908301858761449a565b82810360608401526148cf818561451c565b98975050505050505050565b8481526060602082015260006148f560608301858761449a565b8281036040840152613afa818561451c565b604051601f8201601f1916810167ffffffffffffffff8111828210171561493057614930614b07565b604052919050565b6000821982111561494b5761494b614aaf565b500190565b60008261495f5761495f614ac5565b500490565b600081600019048311821515161561497e5761497e614aaf565b500290565b60006001600160a01b03838116908316818110156149a3576149a3614aaf565b039392505050565b6000828210156149bd576149bd614aaf565b500390565b60005b838110156149dd5781810151838201526020016149c5565b83811115611b2f5750506000910152565b6000816149fd576149fd614aaf565b506000190190565b600181811c90821680614a1957607f821691505b60208210811415614a3a57634e487b7160e01b600052602260045260246000fd5b50919050565b6000600019821415614a5457614a54614aaf565b5060010190565b600082614a6a57614a6a614ac5565b500690565b60008160020b627fffff19811415614a8957614a89614aaf565b60000392915050565b6000600160ff1b821415614aa857614aa8614aaf565b5060000390565b634e487b7160e01b600052601160045260246000fd5b634e487b7160e01b600052601260045260246000fd5b634e487b7160e01b600052603160045260246000fd5b634e487b7160e01b600052603260045260246000fd5b634e487b7160e01b600052604160045260246000fd5b6001600160a01b03811681146122f857600080fd5b80151581146122f857600080fd5b6001600160e01b0319811681146122f857600080fdfea26469706673582212204815c6a7a7727c258c220656d42865999242c807e4e165ba17977559867c69c164736f6c63430008070033abea6fd3db56a6e6d0242111b43ebb13d1c42709651c032c7894962023a1f90ab2ca199e5d628271269f73708112899272988324e125fafee9627694e71b1d25",
  "devdoc": {
    "kind": "dev",
    "methods": {
      "approve(address,uint256)": {
        "details": "See {IERC721-approve}."
      },
      "balanceOf(address)": {
        "details": "See {IERC721-balanceOf}."
      },
      "getApproved(uint256)": {
        "details": "See {IERC721-getApproved}."
      },
      "getRoleAdmin(bytes32)": {
        "details": "Returns the admin role that controls `role`. See {grantRole} and {revokeRole}. To change a role's admin, use {_setRoleAdmin}."
      },
      "getRoleMember(bytes32,uint256)": {
        "details": "Returns one of the accounts that have `role`. `index` must be a value between 0 and {getRoleMemberCount}, non-inclusive. Role bearers are not sorted in any particular way, and their ordering may change at any point. WARNING: When using {getRoleMember} and {getRoleMemberCount}, make sure you perform all queries on the same block. See the following https://forum.openzeppelin.com/t/iterating-over-elements-on-enumerableset-in-openzeppelin-contracts/2296[forum post] for more information."
      },
      "getRoleMemberCount(bytes32)": {
        "details": "Returns the number of accounts that have `role`. Can be used together with {getRoleMember} to enumerate all bearers of a role."
      },
      "grantRole(bytes32,address)": {
        "details": "Overload {grantRole} to track enumerable memberships"
      },
      "hasRole(bytes32,address)": {
        "details": "Returns `true` if `account` has been granted `role`."
      },
      "isApprovedForAll(address,address)": {
        "details": "See {IERC721-isApprovedForAll}."
      },
      "name()": {
        "details": "See {IERC721Metadata-name}."
      },
      "ownerOf(uint256)": {
        "details": "See {IERC721-ownerOf}."
      },
      "renounceRole(bytes32,address)": {
        "details": "Overload {renounceRole} to track enumerable memberships"
      },
      "revokeRole(bytes32,address)": {
        "details": "Overload {revokeRole} to track enumerable memberships"
      },
      "safeTransferFrom(address,address,uint256)": {
        "details": "See {IERC721-safeTransferFrom}."
      },
      "safeTransferFrom(address,address,uint256,bytes)": {
        "details": "See {IERC721-safeTransferFrom}."
      },
      "setApprovalForAll(address,bool)": {
        "details": "See {IERC721-setApprovalForAll}."
      },
      "symbol()": {
        "details": "See {IERC721Metadata-symbol}."
      },
      "tokenURI(uint256)": {
        "details": "See {IERC721Metadata-tokenURI}."
      },
      "transferFrom(address,address,uint256)": {
        "details": "See {IERC721-transferFrom}."
      }
    },
    "version": 1
  },
  "userdoc": {
    "kind": "user",
    "methods": {
      "createCell(address[],bytes)": {
        "notice": "-------------------  PUBLIC, MUTATING, GOVERNANCE OR PERMISSIONLESS  -------------------"
      },
      "delegated(uint256)": {
        "notice": "-------------------  PUBLIC, VIEW  -------------------"
      },
      "deposit(uint256,address[],uint256[])": {
        "notice": "-------------------  PUBLIC, MUTATING, NFT_OWNER  -------------------"
      },
      "managedTokens(uint256)": {
        "notice": "-------------------  PUBLIC, VIEW  -------------------"
      },
      "setPendingPermissionless(bool)": {
        "notice": "-------------------  PUBLIC, MUTATING, GOVERNANCE  -------------------"
      }
    },
    "version": 1
  },
  "storageLayout": {
    "storage": [
      {
        "astId": 62,
        "contract": "contracts/UniV3Cells.sol:UniV3Cells",
        "label": "_roles",
        "offset": 0,
        "slot": "0",
        "type": "t_mapping(t_bytes32,t_struct(RoleData)57_storage)"
      },
      {
        "astId": 403,
        "contract": "contracts/UniV3Cells.sol:UniV3Cells",
        "label": "_roleMembers",
        "offset": 0,
        "slot": "1",
        "type": "t_mapping(t_bytes32,t_struct(AddressSet)3574_storage)"
      },
      {
        "astId": 1783,
        "contract": "contracts/UniV3Cells.sol:UniV3Cells",
        "label": "_name",
        "offset": 0,
        "slot": "2",
        "type": "t_string_storage"
      },
      {
        "astId": 1785,
        "contract": "contracts/UniV3Cells.sol:UniV3Cells",
        "label": "_symbol",
        "offset": 0,
        "slot": "3",
        "type": "t_string_storage"
      },
      {
        "astId": 1789,
        "contract": "contracts/UniV3Cells.sol:UniV3Cells",
        "label": "_owners",
        "offset": 0,
        "slot": "4",
        "type": "t_mapping(t_uint256,t_address)"
      },
      {
        "astId": 1793,
        "contract": "contracts/UniV3Cells.sol:UniV3Cells",
        "label": "_balances",
        "offset": 0,
        "slot": "5",
        "type": "t_mapping(t_address,t_uint256)"
      },
      {
        "astId": 1797,
        "contract": "contracts/UniV3Cells.sol:UniV3Cells",
        "label": "_tokenApprovals",
        "offset": 0,
        "slot": "6",
        "type": "t_mapping(t_uint256,t_address)"
      },
      {
        "astId": 1803,
        "contract": "contracts/UniV3Cells.sol:UniV3Cells",
        "label": "_operatorApprovals",
        "offset": 0,
        "slot": "7",
        "type": "t_mapping(t_address,t_mapping(t_address,t_bool))"
      },
      {
        "astId": 4333,
        "contract": "contracts/UniV3Cells.sol:UniV3Cells",
        "label": "permissionless",
        "offset": 0,
        "slot": "8",
        "type": "t_bool"
      },
      {
        "astId": 4335,
        "contract": "contracts/UniV3Cells.sol:UniV3Cells",
        "label": "pendingPermissionless",
        "offset": 1,
        "slot": "8",
        "type": "t_bool"
      },
      {
        "astId": 4338,
        "contract": "contracts/UniV3Cells.sol:UniV3Cells",
        "label": "maxTokensPerCell",
        "offset": 0,
        "slot": "9",
        "type": "t_uint256"
      },
      {
        "astId": 4340,
        "contract": "contracts/UniV3Cells.sol:UniV3Cells",
        "label": "pendingMaxTokensPerCell",
        "offset": 0,
        "slot": "10",
        "type": "t_uint256"
      },
      {
        "astId": 4345,
        "contract": "contracts/UniV3Cells.sol:UniV3Cells",
        "label": "_managedTokens",
        "offset": 0,
        "slot": "11",
        "type": "t_mapping(t_uint256,t_array(t_address)dyn_storage)"
      },
      {
        "astId": 4351,
        "contract": "contracts/UniV3Cells.sol:UniV3Cells",
        "label": "_managedTokensIndex",
        "offset": 0,
        "slot": "12",
        "type": "t_mapping(t_uint256,t_mapping(t_address,t_bool))"
      },
      {
        "astId": 4354,
        "contract": "contracts/UniV3Cells.sol:UniV3Cells",
        "label": "_topCellNft",
        "offset": 0,
        "slot": "13",
        "type": "t_uint256"
      },
      {
        "astId": 6253,
        "contract": "contracts/UniV3Cells.sol:UniV3Cells",
        "label": "uniNfts",
        "offset": 0,
        "slot": "14",
        "type": "t_mapping(t_uint256,t_uint256)"
      }
    ],
    "types": {
      "t_address": {
        "encoding": "inplace",
        "label": "address",
        "numberOfBytes": "20"
      },
      "t_array(t_address)dyn_storage": {
        "base": "t_address",
        "encoding": "dynamic_array",
        "label": "address[]",
        "numberOfBytes": "32"
      },
      "t_array(t_bytes32)dyn_storage": {
        "base": "t_bytes32",
        "encoding": "dynamic_array",
        "label": "bytes32[]",
        "numberOfBytes": "32"
      },
      "t_bool": {
        "encoding": "inplace",
        "label": "bool",
        "numberOfBytes": "1"
      },
      "t_bytes32": {
        "encoding": "inplace",
        "label": "bytes32",
        "numberOfBytes": "32"
      },
      "t_mapping(t_address,t_bool)": {
        "encoding": "mapping",
        "key": "t_address",
        "label": "mapping(address => bool)",
        "numberOfBytes": "32",
        "value": "t_bool"
      },
      "t_mapping(t_address,t_mapping(t_address,t_bool))": {
        "encoding": "mapping",
        "key": "t_address",
        "label": "mapping(address => mapping(address => bool))",
        "numberOfBytes": "32",
        "value": "t_mapping(t_address,t_bool)"
      },
      "t_mapping(t_address,t_uint256)": {
        "encoding": "mapping",
        "key": "t_address",
        "label": "mapping(address => uint256)",
        "numberOfBytes": "32",
        "value": "t_uint256"
      },
      "t_mapping(t_bytes32,t_struct(AddressSet)3574_storage)": {
        "encoding": "mapping",
        "key": "t_bytes32",
        "label": "mapping(bytes32 => struct EnumerableSet.AddressSet)",
        "numberOfBytes": "32",
        "value": "t_struct(AddressSet)3574_storage"
      },
      "t_mapping(t_bytes32,t_struct(RoleData)57_storage)": {
        "encoding": "mapping",
        "key": "t_bytes32",
        "label": "mapping(bytes32 => struct AccessControl.RoleData)",
        "numberOfBytes": "32",
        "value": "t_struct(RoleData)57_storage"
      },
      "t_mapping(t_bytes32,t_uint256)": {
        "encoding": "mapping",
        "key": "t_bytes32",
        "label": "mapping(bytes32 => uint256)",
        "numberOfBytes": "32",
        "value": "t_uint256"
      },
      "t_mapping(t_uint256,t_address)": {
        "encoding": "mapping",
        "key": "t_uint256",
        "label": "mapping(uint256 => address)",
        "numberOfBytes": "32",
        "value": "t_address"
      },
      "t_mapping(t_uint256,t_array(t_address)dyn_storage)": {
        "encoding": "mapping",
        "key": "t_uint256",
        "label": "mapping(uint256 => address[])",
        "numberOfBytes": "32",
        "value": "t_array(t_address)dyn_storage"
      },
      "t_mapping(t_uint256,t_mapping(t_address,t_bool))": {
        "encoding": "mapping",
        "key": "t_uint256",
        "label": "mapping(uint256 => mapping(address => bool))",
        "numberOfBytes": "32",
        "value": "t_mapping(t_address,t_bool)"
      },
      "t_mapping(t_uint256,t_uint256)": {
        "encoding": "mapping",
        "key": "t_uint256",
        "label": "mapping(uint256 => uint256)",
        "numberOfBytes": "32",
        "value": "t_uint256"
      },
      "t_string_storage": {
        "encoding": "bytes",
        "label": "string",
        "numberOfBytes": "32"
      },
      "t_struct(AddressSet)3574_storage": {
        "encoding": "inplace",
        "label": "struct EnumerableSet.AddressSet",
        "members": [
          {
            "astId": 3573,
            "contract": "contracts/UniV3Cells.sol:UniV3Cells",
            "label": "_inner",
            "offset": 0,
            "slot": "0",
            "type": "t_struct(Set)3303_storage"
          }
        ],
        "numberOfBytes": "64"
      },
      "t_struct(RoleData)57_storage": {
        "encoding": "inplace",
        "label": "struct AccessControl.RoleData",
        "members": [
          {
            "astId": 54,
            "contract": "contracts/UniV3Cells.sol:UniV3Cells",
            "label": "members",
            "offset": 0,
            "slot": "0",
            "type": "t_mapping(t_address,t_bool)"
          },
          {
            "astId": 56,
            "contract": "contracts/UniV3Cells.sol:UniV3Cells",
            "label": "adminRole",
            "offset": 0,
            "slot": "1",
            "type": "t_bytes32"
          }
        ],
        "numberOfBytes": "64"
      },
      "t_struct(Set)3303_storage": {
        "encoding": "inplace",
        "label": "struct EnumerableSet.Set",
        "members": [
          {
            "astId": 3298,
            "contract": "contracts/UniV3Cells.sol:UniV3Cells",
            "label": "_values",
            "offset": 0,
            "slot": "0",
            "type": "t_array(t_bytes32)dyn_storage"
          },
          {
            "astId": 3302,
            "contract": "contracts/UniV3Cells.sol:UniV3Cells",
            "label": "_indexes",
            "offset": 0,
            "slot": "1",
            "type": "t_mapping(t_bytes32,t_uint256)"
          }
        ],
        "numberOfBytes": "64"
      },
      "t_uint256": {
        "encoding": "inplace",
        "label": "uint256",
        "numberOfBytes": "32"
      }
    }
  }
}