{
  "abi": [
    {
      "anonymous": false,
      "inputs": [
        {
          "indexed": true,
          "internalType": "address",
          "name": "origin",
          "type": "address"
        },
        {
          "indexed": true,
          "internalType": "address",
          "name": "sender",
          "type": "address"
        },
        {
          "indexed": true,
          "internalType": "address",
          "name": "to",
          "type": "address"
        },
        {
          "indexed": false,
          "internalType": "uint256",
          "name": "amount0",
          "type": "uint256"
        },
        {
          "indexed": false,
          "internalType": "uint256",
          "name": "amount1",
          "type": "uint256"
        }
      ],
      "name": "CollectedEarnings",
      "type": "event"
    },
    {
      "anonymous": false,
      "inputs": [
        {
          "indexed": true,
          "internalType": "address",
          "name": "origin",
          "type": "address"
        },
        {
          "indexed": true,
          "internalType": "address",
          "name": "sender",
          "type": "address"
        },
        {
          "indexed": false,
          "internalType": "address[]",
          "name": "vaultTokens_",
          "type": "address[]"
        },
        {
          "indexed": false,
          "internalType": "uint256",
          "name": "nft_",
          "type": "uint256"
        }
      ],
      "name": "Initialized",
      "type": "event"
    },
    {
      "anonymous": false,
      "inputs": [
        {
          "indexed": false,
          "internalType": "address",
          "name": "to",
          "type": "address"
        },
        {
          "indexed": false,
          "internalType": "uint256[]",
          "name": "tokenAmounts",
          "type": "uint256[]"
        }
      ],
      "name": "Pull",
      "type": "event"
    },
    {
      "anonymous": false,
      "inputs": [
        {
          "indexed": false,
          "internalType": "uint256[]",
          "name": "tokenAmounts",
          "type": "uint256[]"
        }
      ],
      "name": "Push",
      "type": "event"
    },
    {
      "anonymous": false,
      "inputs": [
        {
          "indexed": false,
          "internalType": "address",
          "name": "to",
          "type": "address"
        },
        {
          "indexed": false,
          "internalType": "address[]",
          "name": "tokens",
          "type": "address[]"
        },
        {
          "indexed": false,
          "internalType": "uint256[]",
          "name": "tokenAmounts",
          "type": "uint256[]"
        }
      ],
      "name": "ReclaimTokens",
      "type": "event"
    },
    {
      "inputs": [],
      "name": "collectEarnings",
      "outputs": [
        {
          "internalType": "uint256[]",
          "name": "collectedEarnings",
          "type": "uint256[]"
        }
      ],
      "stateMutability": "nonpayable",
      "type": "function"
    },
    {
      "inputs": [
        {
          "internalType": "address",
          "name": "to",
          "type": "address"
        },
        {
          "internalType": "bytes4",
          "name": "selector",
          "type": "bytes4"
        },
        {
          "internalType": "bytes",
          "name": "data",
          "type": "bytes"
        }
      ],
      "name": "externalCall",
      "outputs": [
        {
          "internalType": "bytes",
          "name": "result",
          "type": "bytes"
        }
      ],
      "stateMutability": "payable",
      "type": "function"
    },
    {
      "inputs": [
        {
          "internalType": "uint256",
          "name": "nft_",
          "type": "uint256"
        },
        {
          "internalType": "address[]",
          "name": "vaultTokens_",
          "type": "address[]"
        },
        {
          "internalType": "uint24",
          "name": "fee_",
          "type": "uint24"
        },
        {
          "internalType": "address",
          "name": "uniV3Hepler_",
          "type": "address"
        }
      ],
      "name": "initialize",
      "outputs": [],
      "stateMutability": "nonpayable",
      "type": "function"
    },
    {
      "inputs": [],
      "name": "initialized",
      "outputs": [
        {
          "internalType": "bool",
          "name": "",
          "type": "bool"
        }
      ],
      "stateMutability": "view",
      "type": "function"
    },
    {
      "inputs": [
        {
          "internalType": "bytes32",
          "name": "_hash",
          "type": "bytes32"
        },
        {
          "internalType": "bytes",
          "name": "_signature",
          "type": "bytes"
        }
      ],
      "name": "isValidSignature",
      "outputs": [
        {
          "internalType": "bytes4",
          "name": "magicValue",
          "type": "bytes4"
        }
      ],
      "stateMutability": "view",
      "type": "function"
    },
    {
      "inputs": [
        {
          "internalType": "address",
          "name": "token",
          "type": "address"
        }
      ],
      "name": "isVaultToken",
      "outputs": [
        {
          "internalType": "bool",
          "name": "",
          "type": "bool"
        }
      ],
      "stateMutability": "view",
      "type": "function"
    },
    {
      "inputs": [
        {
          "internalType": "uint128",
          "name": "liquidity",
          "type": "uint128"
        }
      ],
      "name": "liquidityToTokenAmounts",
      "outputs": [
        {
          "internalType": "uint256[]",
          "name": "tokenAmounts",
          "type": "uint256[]"
        }
      ],
      "stateMutability": "view",
      "type": "function"
    },
    {
      "inputs": [],
      "name": "nft",
      "outputs": [
        {
          "internalType": "uint256",
          "name": "",
          "type": "uint256"
        }
      ],
      "stateMutability": "view",
      "type": "function"
    },
    {
      "inputs": [
        {
          "internalType": "address",
          "name": "operator",
          "type": "address"
        },
        {
          "internalType": "address",
          "name": "from",
          "type": "address"
        },
        {
          "internalType": "uint256",
          "name": "tokenId",
          "type": "uint256"
        },
        {
          "internalType": "bytes",
          "name": "",
          "type": "bytes"
        }
      ],
      "name": "onERC721Received",
      "outputs": [
        {
          "internalType": "bytes4",
          "name": "",
          "type": "bytes4"
        }
      ],
      "stateMutability": "nonpayable",
      "type": "function"
    },
    {
      "inputs": [],
      "name": "pool",
      "outputs": [
        {
          "internalType": "contract IUniswapV3Pool",
          "name": "",
          "type": "address"
        }
      ],
      "stateMutability": "view",
      "type": "function"
    },
    {
      "inputs": [],
      "name": "positionManager",
      "outputs": [
        {
          "internalType": "contract INonfungiblePositionManager",
          "name": "",
          "type": "address"
        }
      ],
      "stateMutability": "view",
      "type": "function"
    },
    {
      "inputs": [
        {
          "internalType": "address",
          "name": "to",
          "type": "address"
        },
        {
          "internalType": "address[]",
          "name": "tokens",
          "type": "address[]"
        },
        {
          "internalType": "uint256[]",
          "name": "tokenAmounts",
          "type": "uint256[]"
        },
        {
          "internalType": "bytes",
          "name": "options",
          "type": "bytes"
        }
      ],
      "name": "pull",
      "outputs": [
        {
          "internalType": "uint256[]",
          "name": "actualTokenAmounts",
          "type": "uint256[]"
        }
      ],
      "stateMutability": "nonpayable",
      "type": "function"
    },
    {
      "inputs": [],
      "name": "pullExistentials",
      "outputs": [
        {
          "internalType": "uint256[]",
          "name": "",
          "type": "uint256[]"
        }
      ],
      "stateMutability": "view",
      "type": "function"
    },
    {
      "inputs": [
        {
          "internalType": "address[]",
          "name": "tokens",
          "type": "address[]"
        },
        {
          "internalType": "uint256[]",
          "name": "tokenAmounts",
          "type": "uint256[]"
        },
        {
          "internalType": "bytes",
          "name": "options",
          "type": "bytes"
        }
      ],
      "name": "push",
      "outputs": [
        {
          "internalType": "uint256[]",
          "name": "actualTokenAmounts",
          "type": "uint256[]"
        }
      ],
      "stateMutability": "nonpayable",
      "type": "function"
    },
    {
      "inputs": [
        {
          "internalType": "address[]",
          "name": "tokens",
          "type": "address[]"
        }
      ],
      "name": "reclaimTokens",
      "outputs": [
        {
          "internalType": "uint256[]",
          "name": "actualTokenAmounts",
          "type": "uint256[]"
        }
      ],
      "stateMutability": "nonpayable",
      "type": "function"
    },
    {
      "inputs": [
        {
          "internalType": "bytes4",
          "name": "interfaceId",
          "type": "bytes4"
        }
      ],
      "name": "supportsInterface",
      "outputs": [
        {
          "internalType": "bool",
          "name": "",
          "type": "bool"
        }
      ],
      "stateMutability": "view",
      "type": "function"
    },
    {
      "inputs": [
        {
          "internalType": "uint256[]",
          "name": "tokenAmounts",
          "type": "uint256[]"
        }
      ],
      "name": "tokenAmountsToLiquidity",
      "outputs": [
        {
          "internalType": "uint128",
          "name": "liquidity",
          "type": "uint128"
        }
      ],
      "stateMutability": "view",
      "type": "function"
    },
    {
      "inputs": [
        {
          "internalType": "address",
          "name": "from",
          "type": "address"
        },
        {
          "internalType": "address[]",
          "name": "tokens",
          "type": "address[]"
        },
        {
          "internalType": "uint256[]",
          "name": "tokenAmounts",
          "type": "uint256[]"
        },
        {
          "internalType": "bytes",
          "name": "options",
          "type": "bytes"
        }
      ],
      "name": "transferAndPush",
      "outputs": [
        {
          "internalType": "uint256[]",
          "name": "actualTokenAmounts",
          "type": "uint256[]"
        }
      ],
      "stateMutability": "nonpayable",
      "type": "function"
    },
    {
      "inputs": [],
      "name": "tvl",
      "outputs": [
        {
          "internalType": "uint256[]",
          "name": "minTokenAmounts",
          "type": "uint256[]"
        },
        {
          "internalType": "uint256[]",
          "name": "maxTokenAmounts",
          "type": "uint256[]"
        }
      ],
      "stateMutability": "view",
      "type": "function"
    },
    {
      "inputs": [],
      "name": "uniV3Nft",
      "outputs": [
        {
          "internalType": "uint256",
          "name": "",
          "type": "uint256"
        }
      ],
      "stateMutability": "view",
      "type": "function"
    },
    {
      "inputs": [],
      "name": "vaultGovernance",
      "outputs": [
        {
          "internalType": "contract IVaultGovernance",
          "name": "",
          "type": "address"
        }
      ],
      "stateMutability": "view",
      "type": "function"
    },
    {
      "inputs": [],
      "name": "vaultTokens",
      "outputs": [
        {
          "internalType": "address[]",
          "name": "",
          "type": "address[]"
        }
      ],
      "stateMutability": "view",
      "type": "function"
    }
  ],
  "bytecode": {
    "object": "0x608060405234801561001057600080fd5b5060016000556000196004556154748061002b6000396000f3fe6080604052600436106101345760003560e01c8063338c4ccb116100ab578063c27b2c2d1161006f578063c27b2c2d146103b4578063c85fc740146103c9578063d2c219b0146103e9578063e5328e06146103fe578063f4adc08b14610421578063fe255a5e1461043757600080fd5b8063338c4ccb146102fd57806347ccca0214610335578063566ca6b4146103545780636972223314610374578063791b98bc1461039657600080fd5b80631626ba7e116100fd5780631626ba7e1461022357806316f0115b146102435780631912128b1461027b5780632062d7541461029d57806327a35e5a146102bd5780632e2f4cc2146102dd57600080fd5b8062f73da21461013957806301ffc9a71461017657806305e1c942146101a6578063150b7a02146101d3578063158ef93e1461020c575b600080fd5b34801561014557600080fd5b506101596101543660046145da565b610455565b6040516001600160801b0390911681526020015b60405180910390f35b34801561018257600080fd5b50610196610191366004614627565b6104e8565b604051901515815260200161016d565b3480156101b257600080fd5b506101c66101c13660046146bd565b610513565b60405161016d919061472c565b3480156101df57600080fd5b506101f36101ee3660046147ae565b61098b565b6040516001600160e01b0319909116815260200161016d565b34801561021857600080fd5b506004541515610196565b34801561022f57600080fd5b506101f361023e366004614819565b610d7c565b34801561024f57600080fd5b50600654610263906001600160a01b031681565b6040516001600160a01b03909116815260200161016d565b34801561028757600080fd5b5061029b610296366004614870565b6110c9565b005b3480156102a957600080fd5b506101c66102b83660046148db565b61136e565b3480156102c957600080fd5b506101c66102d83660046148db565b611812565b6102f06102eb366004614969565b611999565b60405161016d9190614a52565b34801561030957600080fd5b50610196610318366004614a65565b6001600160a01b0316600090815260036020526040902054151590565b34801561034157600080fd5b506004545b60405190815260200161016d565b34801561036057600080fd5b506101c661036f366004614a82565b611c6d565b34801561038057600080fd5b50610389611f3d565b60405161016d9190614b42565b3480156103a257600080fd5b506008546001600160a01b0316610263565b3480156103c057600080fd5b506101c6611f9f565b3480156103d557600080fd5b506101c66103e4366004614b6a565b6122bc565b3480156103f557600080fd5b506101c661235e565b34801561040a57600080fd5b506104136123b5565b60405161016d929190614b87565b34801561042d57600080fd5b5061034660075481565b34801561044357600080fd5b506001546001600160a01b0316610263565b600954600654600754604051630edda83760e41b81526000936001600160a01b039081169363edda83709361049293889390921691600401614bb5565b60206040518083038186803b1580156104aa57600080fd5b505afa1580156104be573d6000803e3d6000fd5b505050506040513d601f19601f820116820180604052508101906104e29190614bee565b92915050565b60006104f3826126ed565b806104e257506001600160e01b03198216631110f1a560e31b1492915050565b606061051d612733565b6004805460408051808201909152918252631253925560e21b602083015290816105635760405162461bcd60e51b815260040161055a9190614a52565b60405180910390fd5b5060015460408051637ac46fbb60e01b815290516000926001600160a01b031691637ac46fbb916004808301926060929190829003018186803b1580156105a957600080fd5b505afa1580156105bd573d6000803e3d6000fd5b505050506040513d601f19601f820116820180604052508101906105e19190614c0b565b805160208201516040516331a9108f60e11b81526004810186905292935090916000906001600160a01b03831690636352211e9060240160206040518083038186803b15801561063057600080fd5b505afa158015610644573d6000803e3d6000fd5b505050506040513d601f19601f820116820180604052508101906106689190614c6a565b9050600061067783878461278d565b604051639bd0911b60e01b8152600060048201526001600160a01b039190911690639bd0911b9060240160206040518083038186803b1580156106b957600080fd5b505afa1580156106cd573d6000803e3d6000fd5b505050506040513d601f19601f820116820180604052508101906106f19190614c6a565b905087516001600160401b0381111561070c5761070c6144de565b604051908082528060200260200182016040528015610735578160200160208202803683370190505b5096506001600160a01b0381163014156107545750505050505061097c565b60005b88518110156109395761077d89828151811061077557610775614c87565b506000919050565b8061082f5750846001600160a01b03166363e85d2d8a83815181106107a4576107a4614c87565b60209081029190910101516040516001600160e01b031960e084901b1681526001600160a01b0390911660048201526002602482015260440160206040518083038186803b1580156107f557600080fd5b505afa158015610809573d6000803e3d6000fd5b505050506040513d601f19601f8201168201806040525081019061082d9190614cad565b155b1561083957610929565b600089828151811061084d5761084d614c87565b60209081029190910101516040516370a0823160e01b81523060048201529091506001600160a01b038216906370a082319060240160206040518083038186803b15801561089a57600080fd5b505afa1580156108ae573d6000803e3d6000fd5b505050506040513d601f19601f820116820180604052508101906108d29190614cc8565b8983815181106108e4576108e4614c87565b602002602001018181525050610927838a848151811061090657610906614c87565b6020026020010151836001600160a01b03166128609092919063ffffffff16565b505b61093281614cf7565b9050610757565b507f9efcb26e0cf572bd9171640e114f387cef91cd3e38532ed6b3f80c7f2e758f8781898960405161096d93929190614d12565b60405180910390a15050505050505b6109866001600055565b919050565b60085460408051808201909152600381526223292160e91b60208201526000916001600160a01b031633146109d35760405162461bcd60e51b815260040161055a9190614a52565b506109dd856128c8565b6040518060400160405280600381526020016223292160e91b81525090610a175760405162461bcd60e51b815260040161055a9190614a52565b5060085460405163133f757160e31b815260048101859052600091829182916001600160a01b0316906399fbab88906024016101806040518083038186803b158015610a6257600080fd5b505afa158015610a76573d6000803e3d6000fd5b505050506040513d601f19601f82011682018060405250810190610a9a9190614d6f565b5050505050505094509450945050506002600081548110610abd57610abd614c87565b6000918252602090912001546001600160a01b038481169116148015610b0d57506002600181548110610af257610af2614c87565b6000918252602090912001546001600160a01b038381169116145b8015610ba75750600660009054906101000a90046001600160a01b03166001600160a01b031663ddca3f436040518163ffffffff1660e01b815260040160206040518083038186803b158015610b6257600080fd5b505afa158015610b76573d6000803e3d6000fd5b505050506040513d601f19601f82011682018060405250810190610b9a9190614e50565b62ffffff168162ffffff16145b60405180604001604052806005815260200164494e56544f60d81b81525090610be35760405162461bcd60e51b815260040161055a9190614a52565b5060075415610d625760085460075460405163133f757160e31b81526004810191909152600091829182916001600160a01b0316906399fbab88906024016101806040518083038186803b158015610c3a57600080fd5b505afa158015610c4e573d6000803e3d6000fd5b505050506040513d601f19601f82011682018060405250810190610c729190614d6f565b9b509b505050995050505050505050826001600160801b03166000148015610ca157506001600160801b038216155b8015610cb457506001600160801b038116155b6040518060400160405280600381526020016224a72b60e91b81525090610cee5760405162461bcd60e51b815260040161055a9190614a52565b506008546007546040516323b872dd60e01b81523060048201526001600160a01b038d8116602483015260448201929092529116906323b872dd90606401600060405180830381600087803b158015610d4657600080fd5b505af1158015610d5a573d6000803e3d6000fd5b505050505050505b505050600783905550630a85bd0160e11b5b949350505050565b600080600160009054906101000a90046001600160a01b03166001600160a01b0316637ac46fbb6040518163ffffffff1660e01b815260040160606040518083038186803b158015610dcd57600080fd5b505afa158015610de1573d6000803e3d6000fd5b505050506040513d601f19601f82011682018060405250810190610e059190614c0b565b60208101518151600454929350909180610e2e57506001600160e01b031993506104e292505050565b60405163020604bf60e21b8152600481018290526000906001600160a01b0385169063081812fc9060240160206040518083038186803b158015610e7157600080fd5b505afa158015610e85573d6000803e3d6000fd5b505050506040513d601f19601f82011682018060405250810190610ea99190614c6a565b6040516363e85d2d60e01b81526001600160a01b03808316600483015260066024830152919250908416906363e85d2d9060440160206040518083038186803b158015610ef557600080fd5b505afa158015610f09573d6000803e3d6000fd5b505050506040513d601f19601f82011682018060405250810190610f2d9190614cad565b610f4757506001600160e01b031994506104e29350505050565b803b63ffffffff81161561107a576040516301ffc9a760e01b8152630b135d3f60e11b60048201526001600160a01b038316906301ffc9a79060240160206040518083038186803b158015610f9b57600080fd5b505afa158015610faf573d6000803e3d6000fd5b505050506040513d601f19601f82011682018060405250810190610fd39190614cad565b1561106357604051630b135d3f60e11b81526001600160a01b03831690631626ba7e90611006908c908c90600401614e6d565b60206040518083038186803b15801561101e57600080fd5b505afa158015611032573d6000803e3d6000fd5b505050506040513d601f19601f820116820180604052508101906110569190614e86565b96505050505050506104e2565b506001600160e01b031995506104e2945050505050565b816001600160a01b031661108e8a8a6129e8565b6001600160a01b031614156110b35750630b135d3f60e11b95506104e2945050505050565b506001600160e01b031998975050505050505050565b82516002146040518060400160405280600381526020016224a72b60e91b815250906111085760405162461bcd60e51b815260040161055a9190614a52565b506111138385612a67565b600154604080516301a6998760e71b815281516001600160a01b039093169263d34cc38092600480840193919291829003018186803b15801561115557600080fd5b505afa158015611169573d6000803e3d6000fd5b505050506040513d601f19601f8201168201806040525081019061118d9190614ea3565b51600880546001600160a01b0319166001600160a01b0390921691821790556040805163c45a015560e01b8152905163c45a015591600480820192602092909190829003018186803b1580156111e257600080fd5b505afa1580156111f6573d6000803e3d6000fd5b505050506040513d601f19601f8201168201806040525081019061121a9190614c6a565b6001600160a01b0316631698ee82600260008154811061123c5761123c614c87565b600091825260209091200154600280546001600160a01b0390921691600190811061126957611269614c87565b60009182526020909120015460405160e084901b6001600160e01b03191681526001600160a01b0392831660048201529116602482015262ffffff8516604482015260640160206040518083038186803b1580156112c657600080fd5b505afa1580156112da573d6000803e3d6000fd5b505050506040513d601f19601f820116820180604052508101906112fe9190614c6a565b600680546001600160a01b039283166001600160a01b03199182168117909255600980549385169390911692909217909155604080518082019091526002815261272360f11b6020820152906113675760405162461bcd60e51b815260040161055a9190614a52565b5050505050565b6060611378612733565b6004805460408051808201909152918252631253925560e21b602083015290816113b55760405162461bcd60e51b815260040161055a9190614a52565b506113bf33612ef2565b6040518060400160405280600381526020016223292160e91b815250906113f95760405162461bcd60e51b815260040161055a9190614a52565b5060015460408051637ac46fbb60e01b815290516000926001600160a01b031691637ac46fbb916004808301926060929190829003018186803b15801561143f57600080fd5b505afa158015611453573d6000803e3d6000fd5b505050506040513d601f19601f820116820180604052508101906114779190614c0b565b602001516040516331a9108f60e11b8152600481018490529091506000906001600160a01b03831690636352211e9060240160206040518083038186803b1580156114c157600080fd5b505afa1580156114d5573d6000803e3d6000fd5b505050506040513d601f19601f820116820180604052508101906114f99190614c6a565b9050600061150883858461278d565b90506001600160a01b038216331461174557604051639bd0911b60e01b8152600060048201819052906001600160a01b03831690639bd0911b9060240160206040518083038186803b15801561155d57600080fd5b505afa158015611571573d6000803e3d6000fd5b505050506040513d601f19601f820116820180604052508101906115959190614c6a565b90506001600160a01b0381163014156116f05760405163fcdabd2760e01b81526001600160a01b038b8116600483015280841691639d9fd0d99187169063fcdabd279060240160206040518083038186803b1580156115f357600080fd5b505afa158015611607573d6000803e3d6000fd5b505050506040513d601f19601f8201168201806040525081019061162b9190614cc8565b6040518263ffffffff1660e01b815260040161164991815260200190565b60206040518083038186803b15801561166157600080fd5b505afa158015611675573d6000803e3d6000fd5b505050506040513d601f19601f820116820180604052508101906116999190614cad565b80156116ae57506001600160a01b038a163014155b6040518060400160405280600581526020016424a72b2a2960d91b815250906116ea5760405162461bcd60e51b815260040161055a9190614a52565b50611743565b896001600160a01b0316816001600160a01b0316146040518060400160405280600581526020016424a72b2a2960d91b815250906117415760405162461bcd60e51b815260040161055a9190614a52565b505b505b600061175189896130b0565b905060006117608b838a61319c565b90506117c78a60028054806020026020016040519081016040528092919081815260200182805480156117bc57602002820191906000526020600020905b81546001600160a01b0316815260019091019060200180831161179e575b505050505083613235565b96507f54f9e6ef58e36de62f59f9ee6c4b878af84989c53a3642eba415ac3ac4e11cda8b886040516117fa929190614f01565b60405180910390a1505050505050610d746001600055565b825160609060005b818110156118a55784818151811061183457611834614c87565b602002602001015160001461189557611895873087848151811061185a5761185a614c87565b602002602001015189858151811061187457611874614c87565b60200260200101516001600160a01b0316613456909392919063ffffffff16565b61189e81614cf7565b905061181a565b506118b1858585611c6d565b915060005b855181101561198f5760008582815181106118d3576118d3614c87565b60200260200101518483815181106118ed576118ed614c87565b60200260200101511061190157600061193f565b83828151811061191357611913614c87565b602002602001015186838151811061192d5761192d614c87565b602002602001015161193f9190614f25565b9050801561197e5761197e888289858151811061195e5761195e614c87565b60200260200101516001600160a01b03166128609092919063ffffffff16565b5061198881614cf7565b90506118b6565b5050949350505050565b60606119a3612733565b6004805460408051808201909152918252631253925560e21b60208301526119de5760405162461bcd60e51b815260040161055a9190614a52565b506119e833612ef2565b6040518060400160405280600381526020016223292160e91b81525090611a225760405162461bcd60e51b815260040161055a9190614a52565b5060015460408051637ac46fbb60e01b815290516000926001600160a01b031691637ac46fbb916004808301926060929190829003018186803b158015611a6857600080fd5b505afa158015611a7c573d6000803e3d6000fd5b505050506040513d601f19601f82011682018060405250810190611aa09190614c0b565b51604051631f4a58fb60e31b81526001600160a01b03888116600483015291925060009183169063fa52c7d89060240160206040518083038186803b158015611ae857600080fd5b505afa158015611afc573d6000803e3d6000fd5b505050506040513d601f19601f82011682018060405250810190611b209190614c6a565b60408051808201909152600381526223292160e91b60208201529091506001600160a01b038216611b645760405162461bcd60e51b815260040161055a9190614a52565b50604051631796170d60e21b81526001600160a01b03821690635e585c3490611b9b9033908b9034908c908c908c90600401614f3c565b60006040518083038186803b158015611bb357600080fd5b505afa158015611bc7573d6000803e3d6000fd5b50505050600080886001600160a01b031634898989604051602001611bee93929190614fa1565b60408051601f1981840301815290829052611c0891614fc5565b60006040518083038185875af1925050503d8060008114611c45576040519150601f19603f3d011682016040523d82523d6000602084013e611c4a565b606091505b509150915081611c5d5780518082602001fd5b60016000559350610d7492505050565b6060611c77612733565b6004805460408051808201909152918252631253925560e21b60208301529081611cb45760405162461bcd60e51b815260040161055a9190614a52565b5060015460408051637ac46fbb60e01b815290516000926001600160a01b031691637ac46fbb916004808301926060929190829003018186803b158015611cfa57600080fd5b505afa158015611d0e573d6000803e3d6000fd5b505050506040513d601f19601f82011682018060405250810190611d329190614c0b565b602001516040516331a9108f60e11b8152600481018490529091506000906001600160a01b03831690636352211e9060240160206040518083038186803b158015611d7c57600080fd5b505afa158015611d90573d6000803e3d6000fd5b505050506040513d601f19601f82011682018060405250810190611db49190614c6a565b60405163fcdabd2760e01b81526001600160a01b03808316600483015291925060009184169063fcdabd279060240160206040518083038186803b158015611dfb57600080fd5b505afa158015611e0f573d6000803e3d6000fd5b505050506040513d601f19601f82011682018060405250810190611e339190614cc8565b604080518082019091526002815261272360f11b602082015290915081611e6d5760405162461bcd60e51b815260040161055a9190614a52565b506000611e7a89896130b0565b90506000611e888289613494565b9050611eed8a60028054806020026020016040519081016040528092919081815260200182805480156117bc576020028201919060005260206000209081546001600160a01b0316815260019091019060200180831161179e57505050505083613235565b96507f08e404e978692dd1b8275016b7a7b0b3ae4afd06b0cec7228060bb2da18c84fd81604051611f1e919061472c565b60405180910390a1505050505050611f366001600055565b9392505050565b60606002805480602002602001604051908101604052809291908181526020018280548015611f9557602002820191906000526020600020905b81546001600160a01b03168152600190910190602001808311611f77575b5050505050905090565b6060611fa9612733565b60015460408051637ac46fbb60e01b815290516000926001600160a01b031691637ac46fbb916004808301926060929190829003018186803b158015611fee57600080fd5b505afa158015612002573d6000803e3d6000fd5b505050506040513d601f19601f820116820180604052508101906120269190614c0b565b60200151600480546040516331a9108f60e11b8152918201529091506000906001600160a01b03831690636352211e9060240160206040518083038186803b15801561207157600080fd5b505afa158015612085573d6000803e3d6000fd5b505050506040513d601f19601f820116820180604052508101906120a99190614c6a565b905060006120ba836004548461278d565b604051639bd0911b60e01b8152600060048201526001600160a01b039190911690639bd0911b9060240160206040518083038186803b1580156120fc57600080fd5b505afa158015612110573d6000803e3d6000fd5b505050506040513d601f19601f820116820180604052508101906121349190614c6a565b6040805160028082526060820183529293509190602083019080368337019050506008546040805160808101825260075481526001600160a01b0385811660208301526001600160801b038284018190526060830152915163fc6f786560e01b81529397506000938493929092169163fc6f7865916121b591600401614fe1565b6040805180830381600087803b1580156121ce57600080fd5b505af11580156121e2573d6000803e3d6000fd5b505050506040513d601f19601f820116820180604052508101906122069190615024565b91509150818660008151811061221e5761221e614c87565b602002602001018181525050808660018151811061223e5761223e614c87565b602002602001018181525050826001600160a01b0316336001600160a01b0316326001600160a01b03167f33fd88a8796b16d791d5b0f811d03290680b435a15164cef521a66e2ec831aef85856040516122a2929190918252602082015260400190565b60405180910390a450505050506122b96001600055565b90565b60095460065460075460405163db9936bf60e01b81526001600160801b03851660048201526001600160a01b0392831660248201526044810191909152606092919091169063db9936bf9060640160006040518083038186803b15801561232257600080fd5b505afa158015612336573d6000803e3d6000fd5b505050506040513d6000823e601f3d908101601f191682016040526104e291908101906150a3565b60606005805480602002602001604051908101604052809291908181526020018280548015611f9557602002820191906000526020600020905b815481526020019060010190808311612398575050505050905090565b6007546060908190806124075760408051600280825260608201835290916020830190803683375050604080516002808252606082018352909250906020830190803683370190505092509250509091565b600154604080516301a6998760e71b815281516001600160a01b0390931692600092849263d34cc3809260048083019392829003018186803b15801561244c57600080fd5b505afa158015612460573d6000803e3d6000fd5b505050506040513d601f19601f820116820180604052508101906124849190614ea3565b6004805460405163110c1a4960e31b8152918201529091506000906001600160a01b03841690638860d2489060240160206040518083038186803b1580156124cb57600080fd5b505afa1580156124df573d6000803e3d6000fd5b505050506040513d601f19601f8201168201806040525081019061250391906150d7565b9050806000015163ffffffff16600214156126375760065460408051633850c7bd60e01b815290516000926001600160a01b031691633850c7bd9160048083019260e0929190829003018186803b15801561255d57600080fd5b505afa158015612571573d6000803e3d6000fd5b505050506040513d601f19601f82011682018060405250810190612595919061514e565b5050600954604051631c92ce3560e01b8152600481018c90526001600160a01b038088166024830152969750951694631c92ce35945060440192506125d8915050565b60006040518083038186803b1580156125f057600080fd5b505afa158015612604573d6000803e3d6000fd5b505050506040513d6000823e601f3d908101601f1916820160405261262c91908101906150a3565b9650869550506126e5565b60008061264c846020015184600001516137c9565b600954604051625a7fed60e81b8152600481018a905260248101849052604481018390529294509092506001600160a01b031690635a7fed009060640160006040518083038186803b1580156126a157600080fd5b505afa1580156126b5573d6000803e3d6000fd5b505050506040513d6000823e601f3d908101601f191682016040526126dd91908101906151d6565b909850965050505b505050509091565b60006126f8826139fe565b8061271357506001600160e01b03198216633d31d51d60e11b145b806104e257506001600160e01b03198216630b135d3f60e11b1492915050565b600260005414156127865760405162461bcd60e51b815260206004820152601f60248201527f5265656e7472616e637947756172643a207265656e7472616e742063616c6c00604482015260640161055a565b6002600055565b60405163fcdabd2760e01b81526001600160a01b038281166004830152600091829186169063fcdabd279060240160206040518083038186803b1580156127d357600080fd5b505afa1580156127e7573d6000803e3d6000fd5b505050506040513d601f19601f8201168201806040525081019061280b9190614cc8565b9050831580159061281b57508015155b604051806040016040528060048152602001631253925560e21b815250906128565760405162461bcd60e51b815260040161055a9190614a52565b5091949350505050565b6040516001600160a01b0383166024820152604481018290526128c390849063a9059cbb60e01b906064015b60408051601f198184030181529190526020810180516001600160e01b03166001600160e01b031990931692909217909152613a34565b505050565b6000816001600160a01b0316600160009054906101000a90046001600160a01b03166001600160a01b0316637ac46fbb6040518163ffffffff1660e01b815260040160606040518083038186803b15801561292257600080fd5b505afa158015612936573d6000803e3d6000fd5b505050506040513d601f19601f8201168201806040525081019061295a9190614c0b565b602001516004805460405163020604bf60e21b8152918201526001600160a01b039091169063081812fc9060240160206040518083038186803b1580156129a057600080fd5b505afa1580156129b4573d6000803e3d6000fd5b505050506040513d601f19601f820116820180604052508101906129d89190614c6a565b6001600160a01b03161492915050565b6000806000806129f785613b09565b6040805160008152602081018083528b905260ff8316918101919091526060810184905260808101839052929550909350915060019060a0016020604051602081039080840390855afa158015612a52573d6000803e3d6000fd5b5050604051601f190151979650505050505050565b6004805460408051808201909152918252631253925560e21b602083015215612aa35760405162461bcd60e51b815260040161055a9190614a52565b50612aad82613b6d565b60405180604001604052806004815260200163494e564160e01b81525090612ae85760405162461bcd60e51b815260040161055a9190614a52565b506040805180820190915260028152612b2d60f11b602082015281612b205760405162461bcd60e51b815260040161055a9190614a52565b506000336001600160a01b0316637ac46fbb6040518163ffffffff1660e01b815260040160606040518083038186803b158015612b5c57600080fd5b505afa158015612b70573d6000803e3d6000fd5b505050506040513d601f19601f82011682018060405250810190612b949190614c0b565b51835190915015801590612c195750806001600160a01b03166378546fa26040518163ffffffff1660e01b815260040160206040518083038186803b158015612bdc57600080fd5b505afa158015612bf0573d6000803e3d6000fd5b505050506040513d601f19601f82011682018060405250810190612c149190614cc8565b835111155b6040518060400160405280600381526020016224a72b60e91b81525090612c535760405162461bcd60e51b815260040161055a9190614a52565b5060005b8351811015612d5757816001600160a01b03166363e85d2d858381518110612c8157612c81614c87565b60209081029190910101516040516001600160e01b031960e084901b1681526001600160a01b0390911660048201526003602482015260440160206040518083038186803b158015612cd257600080fd5b505afa158015612ce6573d6000803e3d6000fd5b505050506040513d601f19601f82011682018060405250810190612d0a9190614cad565b6040518060400160405280600381526020016223292160e91b81525090612d445760405162461bcd60e51b815260040161055a9190614a52565b5080612d4f81614cf7565b915050612c57565b50600180546001600160a01b031916331790558251612d7d906002906020860190614464565b50600482905560025460005b81811015612ead57612d9c81600161522f565b60036000878481518110612db257612db2614c87565b60200260200101516001600160a01b03166001600160a01b03168152602001908152602001600020819055506000858281518110612df257612df2614c87565b6020026020010151905060056002826001600160a01b031663313ce5676040518163ffffffff1660e01b815260040160206040518083038186803b158015612e3957600080fd5b505afa158015612e4d573d6000803e3d6000fd5b505050506040513d601f19601f82011682018060405250810190612e719190615247565b612e7b9190615262565b612e8690600a615376565b8154600181018355600092835260209092209091015550612ea681614cf7565b9050612d89565b50604051339032907f0f043e55a1ce0d7ce25125ccbc2800b540d83e21abf7250f0156c2091a28b22190612ee49088908890615385565b60405180910390a350505050565b600080600160009054906101000a90046001600160a01b03166001600160a01b0316637ac46fbb6040518163ffffffff1660e01b815260040160606040518083038186803b158015612f4357600080fd5b505afa158015612f57573d6000803e3d6000fd5b505050506040513d601f19601f82011682018060405250810190612f7b9190614c0b565b6020015160045490915080612f94575060009392505050565b60405163020604bf60e21b8152600481018290526001600160a01b03808616919084169063081812fc9060240160206040518083038186803b158015612fd957600080fd5b505afa158015612fed573d6000803e3d6000fd5b505050506040513d601f19601f820116820180604052508101906130119190614c6a565b6001600160a01b03161480610d7457506040516331a9108f60e11b8152600481018290526001600160a01b038086169190841690636352211e9060240160206040518083038186803b15801561306657600080fd5b505afa15801561307a573d6000803e3d6000fd5b505050506040513d601f19601f8201168201806040525081019061309e9190614c6a565b6001600160a01b031614949350505050565b60606130bb83613b6d565b60405180604001604052806004815260200163494e564160e01b815250906130f65760405162461bcd60e51b815260040161055a9190614a52565b5081518351146040518060400160405280600381526020016224a72b60e91b815250906131365760405162461bcd60e51b815260040161055a9190614a52565b50611f36600280548060200260200160405190810160405280929190818152602001828054801561319057602002820191906000526020600020905b81546001600160a01b03168152600190910190602001808311613172575b50505050508484613235565b60408051600280825260608083018452926020830190803683375050600754919250506131c857611f36565b60006131d383613c10565b905060006131e2858784613cb9565b90508060000151836000815181106131fc576131fc614c87565b60200260200101818152505080602001518360018151811061322057613220614c87565b60200260200101818152505050509392505050565b6060600084516001600160401b03811115613252576132526144de565b60405190808252806020026020018201604052801561327b578160200160208202803683370190505b5090506000805b8651821080156132925750855181105b15613411578581815181106132a9576132a9614c87565b60200260200101516001600160a01b03168783815181106132cc576132cc614c87565b60200260200101516001600160a01b031610156133145760008383815181106132f7576132f7614c87565b60209081029190910101528161330c81614cf7565b925050613282565b85818151811061332657613326614c87565b60200260200101516001600160a01b031687838151811061334957613349614c87565b60200260200101516001600160a01b031611156133c25784818151811061337257613372614c87565b602002602001015160001415613394578061338c81614cf7565b915050613282565b60405162461bcd60e51b815260206004820152600360248201526254505360e81b604482015260640161055a565b8481815181106133d4576133d4614c87565b60200260200101518383815181106133ee576133ee614c87565b60209081029190910101528161340381614cf7565b925050808061338c90614cf7565b865182101561344b57600083838151811061342e5761342e614c87565b60209081029190910101528161344381614cf7565b925050613411565b509095945050505050565b6040516001600160a01b038085166024830152831660448201526064810182905261348e9085906323b872dd60e01b9060840161288c565b50505050565b60408051600280825260608083018452926020830190803683375050600754919250506134c0576104e2565b60006134cb84610455565b90506001600160801b0381166134e157506104e2565b6000600280548060200260200160405190810160405280929190818152602001828054801561353957602002820191906000526020600020905b81546001600160a01b0316815260019091019060200180831161351b575b5050505050905060005b81518110156135bb5760085486516135ab916001600160a01b03169088908490811061357157613571614c87565b602002602001015184848151811061358b5761358b614c87565b60200260200101516001600160a01b03166141649092919063ffffffff16565b6135b481614cf7565b9050613543565b5060006135c785613c10565b905060006040518060400160405280886000815181106135e9576135e9614c87565b602002602001015181526020018860018151811061360957613609614c87565b6020908102919091018101519091526040805180820182528551815285830151818401908152600854835160c08101855260075481528651818701908152958701518186019081528451606083019081529351608083019081528a87015160a08401908152965163219f5d1760e01b815292516004840152965160248301525160448201529151606483015293516084820152915160a483015292935060009182916001600160a01b039091169063219f5d179060c401606060405180830381600087803b1580156136da57600080fd5b505af11580156136ee573d6000803e3d6000fd5b505050506040513d601f19601f8201168201806040525081019061371291906153a7565b9250925050818860008151811061372b5761372b614c87565b602002602001018181525050808860018151811061374b5761374b614c87565b60200260200101818152505060005b86518110156137bb5760085487516137ab916001600160a01b0316906000908a908590811061378b5761378b614c87565b60200260200101516001600160a01b03166142209092919063ffffffff16565b6137b481614cf7565b905061375a565b505050505050505092915050565b6000806000846001600160a01b0316636d80125b60026000815481106137f1576137f1614c87565b600091825260209091200154600280546001600160a01b0390921691600190811061381e5761381e614c87565b60009182526020909120015460405160e084901b6001600160e01b03191681526001600160a01b0392831660048201529116602482015263ffffffff8716604482015260640160006040518083038186803b15801561387c57600080fd5b505afa158015613890573d6000803e3d6000fd5b505050506040513d6000823e601f3d908101601f191682016040526138b891908101906151d6565b50905060018151101560405180604001604052806004815260200163494e564160e01b815250906138fc5760405162461bcd60e51b815260040161055a9190614a52565b508060008151811061391057613910614c87565b602002602001015192508060008151811061392d5761392d614c87565b602002602001015191506000600190505b81518163ffffffff1610156139f55783828263ffffffff168151811061396657613966614c87565b6020026020010151101561399b57818163ffffffff168151811061398c5761398c614c87565b602002602001015193506139e5565b82828263ffffffff16815181106139b4576139b4614c87565b602002602001015111156139e557818163ffffffff16815181106139da576139da614c87565b602002602001015192505b6139ee816153de565b905061393e565b50509250929050565b60006301ffc9a760e01b6001600160e01b0319831614806104e257506001600160e01b0319821663305a640b60e21b1492915050565b6000613a89826040518060400160405280602081526020017f5361666545524332303a206c6f772d6c6576656c2063616c6c206661696c6564815250856001600160a01b03166143449092919063ffffffff16565b9050805160001480613aaa575080806020019051810190613aaa9190614cad565b6128c35760405162461bcd60e51b815260206004820152602a60248201527f5361666545524332303a204552433230206f7065726174696f6e20646964206e6044820152691bdd081cdd58d8d9595960b21b606482015260840161055a565b60008060008351604114604051806040016040528060048152602001631253959360e21b81525090613b4e5760405162461bcd60e51b815260040161055a9190614a52565b5050505060208101516040820151606090920151909260009190911a90565b6000600282511015613b8157506001919050565b60005b60018351613b929190614f25565b811015613c075782613ba582600161522f565b81518110613bb557613bb5614c87565b60200260200101516001600160a01b0316838281518110613bd857613bd8614c87565b60200260200101516001600160a01b031610613bf75750600092915050565b613c0081614cf7565b9050613b84565b50600192915050565b613c3460405180606001604052806000815260200160008152602001600081525090565b8151613c65576040805160608101825260008082526020820152908101613c5d4261025861522f565b905292915050565b81516060146040518060400160405280600381526020016224a72b60e91b81525090613ca45760405162461bcd60e51b815260040161055a9190614a52565b50818060200190518101906104e29190615402565b604080518082019091526000808252602082015260085460075460405163133f757160e31b81526000928392839283926001600160a01b0316916399fbab8891613d0a919060040190815260200190565b6101806040518083038186803b158015613d2357600080fd5b505afa158015613d37573d6000803e3d6000fd5b505050506040513d601f19601f82011682018060405250810190613d5b9190614d6f565b5050505097509750975050505050506000600660009054906101000a90046001600160a01b03166001600160a01b0316633850c7bd6040518163ffffffff1660e01b815260040160e06040518083038186803b158015613dba57600080fd5b505afa158015613dce573d6000803e3d6000fd5b505050506040513d601f19601f82011682018060405250810190613df2919061514e565b50506009548e519596506001600160a01b031694631aa54edb94508693508992508891508e90600090613e2757613e27614c87565b60200260200101518e600181518110613e4257613e42614c87565b60209081029190910101516040516001600160e01b031960e088901b1681526001600160a01b039095166004860152600293840b60248601529190920b60448401526064830191909152608482015260a40160206040518083038186803b158015613eac57600080fd5b505afa158015613ec0573d6000803e3d6000fd5b505050506040513d601f19601f82011682018060405250810190613ee49190614bee565b9450846001600160801b0316826001600160801b031610613f055784613f07565b815b945050505050806001600160801b03166000146140105760408051808201825284518152602080860151818301908152600854845160a08101865260075481526001600160801b0387811694820194855285518288019081529351606083019081528a880151608084019081529751630624e65f60e11b815292516004840152945116602482015291516044830152915160648201529251608484015290916001600160a01b0390911690630c49ccbe9060a4016040805180830381600087803b158015613fd457600080fd5b505af1158015613fe8573d6000803e3d6000fd5b505050506040513d601f19601f8201168201806040525081019061400c9190615024565b5050505b6008546040805160808101825260075481526001600160a01b0387811660208301526001600160801b038284018190526060830152915163fc6f786560e01b81526000938493169163fc6f78659161406b9190600401614fe1565b6040805180830381600087803b15801561408457600080fd5b505af1158015614098573d6000803e3d6000fd5b505050506040513d601f19601f820116820180604052508101906140bc9190615024565b91509150866000815181106140d3576140d3614c87565b602002602001015182116140e75781614103565b866000815181106140fa576140fa614c87565b60200260200101515b91508660018151811061411857614118614c87565b6020026020010151811161412c5780614148565b8660018151811061413f5761413f614c87565b60200260200101515b6040805180820190915292835260208301525095945050505050565b604051636eb1769f60e11b81523060048201526001600160a01b0383811660248301526000919085169063dd62ed3e9060440160206040518083038186803b1580156141af57600080fd5b505afa1580156141c3573d6000803e3d6000fd5b505050506040513d601f19601f820116820180604052508101906141e79190614cc8565b905061348e8463095ea7b360e01b85614200868661522f565b6040516001600160a01b039092166024830152604482015260640161288c565b8015806142a95750604051636eb1769f60e11b81523060048201526001600160a01b03838116602483015284169063dd62ed3e9060440160206040518083038186803b15801561426f57600080fd5b505afa158015614283573d6000803e3d6000fd5b505050506040513d601f19601f820116820180604052508101906142a79190614cc8565b155b6143145760405162461bcd60e51b815260206004820152603660248201527f5361666545524332303a20617070726f76652066726f6d206e6f6e2d7a65726f60448201527520746f206e6f6e2d7a65726f20616c6c6f77616e636560501b606482015260840161055a565b6040516001600160a01b0383166024820152604481018290526128c390849063095ea7b360e01b9060640161288c565b6060610d74848460008585600080866001600160a01b0316858760405161436b9190614fc5565b60006040518083038185875af1925050503d80600081146143a8576040519150601f19603f3d011682016040523d82523d6000602084013e6143ad565b606091505b50915091506143be878383876143c9565b979650505050505050565b6060831561443557825161442e576001600160a01b0385163b61442e5760405162461bcd60e51b815260206004820152601d60248201527f416464726573733a2063616c6c20746f206e6f6e2d636f6e7472616374000000604482015260640161055a565b5081610d74565b610d74838381511561444a5781518083602001fd5b8060405162461bcd60e51b815260040161055a9190614a52565b8280548282559060005260206000209081019282156144b9579160200282015b828111156144b957825182546001600160a01b0319166001600160a01b03909116178255602090920191600190910190614484565b506144c59291506144c9565b5090565b5b808211156144c557600081556001016144ca565b634e487b7160e01b600052604160045260246000fd5b604051606081016001600160401b0381118282101715614516576145166144de565b60405290565b604051601f8201601f191681016001600160401b0381118282101715614544576145446144de565b604052919050565b60006001600160401b03821115614565576145656144de565b5060051b60200190565b600082601f83011261458057600080fd5b813560206145956145908361454c565b61451c565b82815260059290921b840181019181810190868411156145b457600080fd5b8286015b848110156145cf57803583529183019183016145b8565b509695505050505050565b6000602082840312156145ec57600080fd5b81356001600160401b0381111561460257600080fd5b610d748482850161456f565b6001600160e01b03198116811461462457600080fd5b50565b60006020828403121561463957600080fd5b8135611f368161460e565b6001600160a01b038116811461462457600080fd5b600082601f83011261466a57600080fd5b8135602061467a6145908361454c565b82815260059290921b8401810191818101908684111561469957600080fd5b8286015b848110156145cf5780356146b081614644565b835291830191830161469d565b6000602082840312156146cf57600080fd5b81356001600160401b038111156146e557600080fd5b610d7484828501614659565b600081518084526020808501945080840160005b8381101561472157815187529582019590820190600101614705565b509495945050505050565b602081526000611f3660208301846146f1565b600082601f83011261475057600080fd5b81356001600160401b03811115614769576147696144de565b61477c601f8201601f191660200161451c565b81815284602083860101111561479157600080fd5b816020850160208301376000918101602001919091529392505050565b600080600080608085870312156147c457600080fd5b84356147cf81614644565b935060208501356147df81614644565b92506040850135915060608501356001600160401b0381111561480157600080fd5b61480d8782880161473f565b91505092959194509250565b6000806040838503121561482c57600080fd5b8235915060208301356001600160401b0381111561484957600080fd5b6148558582860161473f565b9150509250929050565b62ffffff8116811461462457600080fd5b6000806000806080858703121561488657600080fd5b8435935060208501356001600160401b038111156148a357600080fd5b6148af87828801614659565b93505060408501356148c08161485f565b915060608501356148d081614644565b939692955090935050565b600080600080608085870312156148f157600080fd5b84356148fc81614644565b935060208501356001600160401b038082111561491857600080fd5b61492488838901614659565b9450604087013591508082111561493a57600080fd5b6149468883890161456f565b9350606087013591508082111561495c57600080fd5b5061480d8782880161473f565b6000806000806060858703121561497f57600080fd5b843561498a81614644565b9350602085013561499a8161460e565b925060408501356001600160401b03808211156149b657600080fd5b818701915087601f8301126149ca57600080fd5b8135818111156149d957600080fd5b8860208285010111156149eb57600080fd5b95989497505060200194505050565b60005b83811015614a155781810151838201526020016149fd565b8381111561348e5750506000910152565b60008151808452614a3e8160208601602086016149fa565b601f01601f19169290920160200192915050565b602081526000611f366020830184614a26565b600060208284031215614a7757600080fd5b8135611f3681614644565b600080600060608486031215614a9757600080fd5b83356001600160401b0380821115614aae57600080fd5b614aba87838801614659565b94506020860135915080821115614ad057600080fd5b614adc8783880161456f565b93506040860135915080821115614af257600080fd5b50614aff8682870161473f565b9150509250925092565b600081518084526020808501945080840160005b838110156147215781516001600160a01b031687529582019590820190600101614b1d565b602081526000611f366020830184614b09565b6001600160801b038116811461462457600080fd5b600060208284031215614b7c57600080fd5b8135611f3681614b55565b604081526000614b9a60408301856146f1565b8281036020840152614bac81856146f1565b95945050505050565b606081526000614bc860608301866146f1565b6001600160a01b039490941660208301525060400152919050565b805161098681614b55565b600060208284031215614c0057600080fd5b8151611f3681614b55565b600060608284031215614c1d57600080fd5b614c256144f4565b8251614c3081614644565b81526020830151614c4081614644565b60208201526040830151614c5381614644565b60408201529392505050565b805161098681614644565b600060208284031215614c7c57600080fd5b8151611f3681614644565b634e487b7160e01b600052603260045260246000fd5b8051801515811461098657600080fd5b600060208284031215614cbf57600080fd5b611f3682614c9d565b600060208284031215614cda57600080fd5b5051919050565b634e487b7160e01b600052601160045260246000fd5b6000600019821415614d0b57614d0b614ce1565b5060010190565b6001600160a01b0384168152606060208201819052600090614d3690830185614b09565b8281036040840152614d4881856146f1565b9695505050505050565b80516109868161485f565b8051600281900b811461098657600080fd5b6000806000806000806000806000806000806101808d8f031215614d9257600080fd5b8c516bffffffffffffffffffffffff81168114614dae57600080fd5b9b50614dbc60208e01614c5f565b9a50614dca60408e01614c5f565b9950614dd860608e01614c5f565b9850614de660808e01614d52565b9750614df460a08e01614d5d565b9650614e0260c08e01614d5d565b9550614e1060e08e01614be3565b94506101008d015193506101208d01519250614e2f6101408e01614be3565b9150614e3e6101608e01614be3565b90509295989b509295989b509295989b565b600060208284031215614e6257600080fd5b8151611f368161485f565b828152604060208201526000610d746040830184614a26565b600060208284031215614e9857600080fd5b8151611f368161460e565b600060408284031215614eb557600080fd5b604051604081018181106001600160401b0382111715614ed757614ed76144de565b6040528251614ee581614644565b81526020830151614ef581614644565b60208201529392505050565b6001600160a01b0383168152604060208201819052600090610d74908301846146f1565b600082821015614f3757614f37614ce1565b500390565b6001600160a01b03878116825286166020820152604081018590526001600160e01b03198416606082015260a06080820181905281018290526000828460c0840137600060c0848401015260c0601f19601f8501168301019050979650505050505050565b6001600160e01b031984168152818360048301376000910160040190815292915050565b60008251614fd78184602087016149fa565b9190910192915050565b815181526020808301516001600160a01b0316908201526040808301516001600160801b0390811691830191909152606092830151169181019190915260800190565b6000806040838503121561503757600080fd5b505080516020909101519092909150565b600082601f83011261505957600080fd5b815160206150696145908361454c565b82815260059290921b8401810191818101908684111561508857600080fd5b8286015b848110156145cf578051835291830191830161508c565b6000602082840312156150b557600080fd5b81516001600160401b038111156150cb57600080fd5b610d7484828501615048565b6000602082840312156150e957600080fd5b604051602081018181106001600160401b038211171561510b5761510b6144de565b604052825163ffffffff8116811461512257600080fd5b81529392505050565b805161ffff8116811461098657600080fd5b805160ff8116811461098657600080fd5b600080600080600080600060e0888a03121561516957600080fd5b875161517481614644565b965061518260208901614d5d565b95506151906040890161512b565b945061519e6060890161512b565b93506151ac6080890161512b565b92506151ba60a0890161513d565b91506151c860c08901614c9d565b905092959891949750929550565b600080604083850312156151e957600080fd5b82516001600160401b038082111561520057600080fd5b61520c86838701615048565b9350602085015191508082111561522257600080fd5b5061485585828601615048565b6000821982111561524257615242614ce1565b500190565b60006020828403121561525957600080fd5b611f368261513d565b600060ff83168061528357634e487b7160e01b600052601260045260246000fd5b8060ff84160491505092915050565b600181815b808511156152cd5781600019048211156152b3576152b3614ce1565b808516156152c057918102915b93841c9390800290615297565b509250929050565b6000826152e4575060016104e2565b816152f1575060006104e2565b816001811461530757600281146153115761532d565b60019150506104e2565b60ff84111561532257615322614ce1565b50506001821b6104e2565b5060208310610133831016604e8410600b8410161715615350575081810a6104e2565b61535a8383615292565b806000190482111561536e5761536e614ce1565b029392505050565b6000611f3660ff8416836152d5565b6040815260006153986040830185614b09565b90508260208301529392505050565b6000806000606084860312156153bc57600080fd5b83516153c781614b55565b602085015160409095015190969495509392505050565b600063ffffffff808316818114156153f8576153f8614ce1565b6001019392505050565b60006060828403121561541457600080fd5b61541c6144f4565b825181526020830151602082015260408301516040820152809150509291505056fea2646970667358221220469761d29c2c50885084083791838f3f7a4e8f34d498714280305a17a7d042f564736f6c63430008090033",
    "linkReferences": {}
  },
  "methodIdentifiers": {
    "collectEarnings()": "c27b2c2d",
    "externalCall(address,bytes4,bytes)": "2e2f4cc2",
    "initialize(uint256,address[],uint24,address)": "1912128b",
    "initialized()": "158ef93e",
    "isValidSignature(bytes32,bytes)": "1626ba7e",
    "isVaultToken(address)": "338c4ccb",
    "liquidityToTokenAmounts(uint128)": "c85fc740",
    "nft()": "47ccca02",
    "onERC721Received(address,address,uint256,bytes)": "150b7a02",
    "pool()": "16f0115b",
    "positionManager()": "791b98bc",
    "pull(address,address[],uint256[],bytes)": "2062d754",
    "pullExistentials()": "d2c219b0",
    "push(address[],uint256[],bytes)": "566ca6b4",
    "reclaimTokens(address[])": "05e1c942",
    "supportsInterface(bytes4)": "01ffc9a7",
    "tokenAmountsToLiquidity(uint256[])": "00f73da2",
    "transferAndPush(address,address[],uint256[],bytes)": "27a35e5a",
    "tvl()": "e5328e06",
    "uniV3Nft()": "f4adc08b",
    "vaultGovernance()": "fe255a5e",
    "vaultTokens()": "69722233"
  },
  "id": 474
}