{
  "abi": [
    {
      "anonymous": false,
      "inputs": [
        {
          "indexed": true,
          "internalType": "address",
          "name": "origin",
          "type": "address"
        },
        {
          "indexed": true,
          "internalType": "address",
          "name": "sender",
          "type": "address"
        },
        {
          "indexed": false,
          "internalType": "address[]",
          "name": "vaultTokens_",
          "type": "address[]"
        },
        {
          "indexed": false,
          "internalType": "uint256",
          "name": "nft_",
          "type": "uint256"
        }
      ],
      "name": "Initialized",
      "type": "event"
    },
    {
      "anonymous": false,
      "inputs": [
        {
          "indexed": false,
          "internalType": "address",
          "name": "to",
          "type": "address"
        },
        {
          "indexed": false,
          "internalType": "uint256[]",
          "name": "tokenAmounts",
          "type": "uint256[]"
        }
      ],
      "name": "Pull",
      "type": "event"
    },
    {
      "anonymous": false,
      "inputs": [
        {
          "indexed": false,
          "internalType": "uint256[]",
          "name": "tokenAmounts",
          "type": "uint256[]"
        }
      ],
      "name": "Push",
      "type": "event"
    },
    {
      "anonymous": false,
      "inputs": [
        {
          "indexed": false,
          "internalType": "address",
          "name": "to",
          "type": "address"
        },
        {
          "indexed": false,
          "internalType": "address[]",
          "name": "tokens",
          "type": "address[]"
        },
        {
          "indexed": false,
          "internalType": "uint256[]",
          "name": "tokenAmounts",
          "type": "uint256[]"
        }
      ],
      "name": "ReclaimTokens",
      "type": "event"
    },
    {
      "inputs": [],
      "name": "DEFAULT_MAX_LOSS",
      "outputs": [
        {
          "internalType": "uint256",
          "name": "",
          "type": "uint256"
        }
      ],
      "stateMutability": "view",
      "type": "function"
    },
    {
      "inputs": [
        {
          "internalType": "address",
          "name": "to",
          "type": "address"
        },
        {
          "internalType": "bytes4",
          "name": "selector",
          "type": "bytes4"
        },
        {
          "internalType": "bytes",
          "name": "data",
          "type": "bytes"
        }
      ],
      "name": "externalCall",
      "outputs": [
        {
          "internalType": "bytes",
          "name": "result",
          "type": "bytes"
        }
      ],
      "stateMutability": "payable",
      "type": "function"
    },
    {
      "inputs": [
        {
          "internalType": "uint256",
          "name": "nft_",
          "type": "uint256"
        },
        {
          "internalType": "address[]",
          "name": "vaultTokens_",
          "type": "address[]"
        }
      ],
      "name": "initialize",
      "outputs": [],
      "stateMutability": "nonpayable",
      "type": "function"
    },
    {
      "inputs": [],
      "name": "initialized",
      "outputs": [
        {
          "internalType": "bool",
          "name": "",
          "type": "bool"
        }
      ],
      "stateMutability": "view",
      "type": "function"
    },
    {
      "inputs": [
        {
          "internalType": "bytes32",
          "name": "_hash",
          "type": "bytes32"
        },
        {
          "internalType": "bytes",
          "name": "_signature",
          "type": "bytes"
        }
      ],
      "name": "isValidSignature",
      "outputs": [
        {
          "internalType": "bytes4",
          "name": "magicValue",
          "type": "bytes4"
        }
      ],
      "stateMutability": "view",
      "type": "function"
    },
    {
      "inputs": [
        {
          "internalType": "address",
          "name": "token",
          "type": "address"
        }
      ],
      "name": "isVaultToken",
      "outputs": [
        {
          "internalType": "bool",
          "name": "",
          "type": "bool"
        }
      ],
      "stateMutability": "view",
      "type": "function"
    },
    {
      "inputs": [],
      "name": "nft",
      "outputs": [
        {
          "internalType": "uint256",
          "name": "",
          "type": "uint256"
        }
      ],
      "stateMutability": "view",
      "type": "function"
    },
    {
      "inputs": [
        {
          "internalType": "address",
          "name": "to",
          "type": "address"
        },
        {
          "internalType": "address[]",
          "name": "tokens",
          "type": "address[]"
        },
        {
          "internalType": "uint256[]",
          "name": "tokenAmounts",
          "type": "uint256[]"
        },
        {
          "internalType": "bytes",
          "name": "options",
          "type": "bytes"
        }
      ],
      "name": "pull",
      "outputs": [
        {
          "internalType": "uint256[]",
          "name": "actualTokenAmounts",
          "type": "uint256[]"
        }
      ],
      "stateMutability": "nonpayable",
      "type": "function"
    },
    {
      "inputs": [],
      "name": "pullExistentials",
      "outputs": [
        {
          "internalType": "uint256[]",
          "name": "",
          "type": "uint256[]"
        }
      ],
      "stateMutability": "view",
      "type": "function"
    },
    {
      "inputs": [
        {
          "internalType": "address[]",
          "name": "tokens",
          "type": "address[]"
        },
        {
          "internalType": "uint256[]",
          "name": "tokenAmounts",
          "type": "uint256[]"
        },
        {
          "internalType": "bytes",
          "name": "options",
          "type": "bytes"
        }
      ],
      "name": "push",
      "outputs": [
        {
          "internalType": "uint256[]",
          "name": "actualTokenAmounts",
          "type": "uint256[]"
        }
      ],
      "stateMutability": "nonpayable",
      "type": "function"
    },
    {
      "inputs": [
        {
          "internalType": "address[]",
          "name": "tokens",
          "type": "address[]"
        }
      ],
      "name": "reclaimTokens",
      "outputs": [
        {
          "internalType": "uint256[]",
          "name": "actualTokenAmounts",
          "type": "uint256[]"
        }
      ],
      "stateMutability": "nonpayable",
      "type": "function"
    },
    {
      "inputs": [
        {
          "internalType": "bytes4",
          "name": "interfaceId",
          "type": "bytes4"
        }
      ],
      "name": "supportsInterface",
      "outputs": [
        {
          "internalType": "bool",
          "name": "",
          "type": "bool"
        }
      ],
      "stateMutability": "view",
      "type": "function"
    },
    {
      "inputs": [
        {
          "internalType": "address",
          "name": "from",
          "type": "address"
        },
        {
          "internalType": "address[]",
          "name": "tokens",
          "type": "address[]"
        },
        {
          "internalType": "uint256[]",
          "name": "tokenAmounts",
          "type": "uint256[]"
        },
        {
          "internalType": "bytes",
          "name": "options",
          "type": "bytes"
        }
      ],
      "name": "transferAndPush",
      "outputs": [
        {
          "internalType": "uint256[]",
          "name": "actualTokenAmounts",
          "type": "uint256[]"
        }
      ],
      "stateMutability": "nonpayable",
      "type": "function"
    },
    {
      "inputs": [],
      "name": "tvl",
      "outputs": [
        {
          "internalType": "uint256[]",
          "name": "minTokenAmounts",
          "type": "uint256[]"
        },
        {
          "internalType": "uint256[]",
          "name": "maxTokenAmounts",
          "type": "uint256[]"
        }
      ],
      "stateMutability": "view",
      "type": "function"
    },
    {
      "inputs": [],
      "name": "vaultGovernance",
      "outputs": [
        {
          "internalType": "contract IVaultGovernance",
          "name": "",
          "type": "address"
        }
      ],
      "stateMutability": "view",
      "type": "function"
    },
    {
      "inputs": [],
      "name": "vaultTokens",
      "outputs": [
        {
          "internalType": "address[]",
          "name": "",
          "type": "address[]"
        }
      ],
      "stateMutability": "view",
      "type": "function"
    },
    {
      "inputs": [],
      "name": "yTokens",
      "outputs": [
        {
          "internalType": "address[]",
          "name": "",
          "type": "address[]"
        }
      ],
      "stateMutability": "view",
      "type": "function"
    }
  ],
  "bytecode": {
    "object": "0x608060405234801561001057600080fd5b506001600055600019600455613e888061002b6000396000f3fe6080604052600436106100fe5760003560e01c806347ccca0211610095578063a920b78c11610064578063a920b78c146102c3578063ae1a02e9146102e5578063d2c219b0146102fb578063e5328e0614610310578063fe255a5e1461033357600080fd5b806347ccca021461024d578063566ca6b41461026c578063697222331461028c578063a0d15b44146102ae57600080fd5b80632062d754116100d15780632062d754146101b557806327a35e5a146101d55780632e2f4cc2146101f5578063338c4ccb1461021557600080fd5b806301ffc9a71461010357806305e1c94214610138578063158ef93e146101655780631626ba7e1461017c575b600080fd5b34801561010f57600080fd5b5061012361011e3660046134cf565b61035b565b60405190151581526020015b60405180910390f35b34801561014457600080fd5b506101586101533660046135de565b610387565b60405161012f919061364d565b34801561017157600080fd5b506004541515610123565b34801561018857600080fd5b5061019c6101973660046136cf565b610804565b6040516001600160e01b0319909116815260200161012f565b3480156101c157600080fd5b506101586101d0366004613770565b610b51565b3480156101e157600080fd5b506101586101f0366004613770565b610ffd565b61020861020336600461380a565b611184565b60405161012f91906138f3565b34801561022157600080fd5b50610123610230366004613906565b6001600160a01b0316600090815260036020526040902054151590565b34801561025957600080fd5b506004545b60405190815260200161012f565b34801561027857600080fd5b50610158610287366004613923565b611458565b34801561029857600080fd5b506102a1611728565b60405161012f91906139e3565b3480156102ba57600080fd5b506102a161178a565b3480156102cf57600080fd5b506102e36102de3660046139f6565b6117ea565b005b3480156102f157600080fd5b5061025e61271081565b34801561030757600080fd5b506101586119c4565b34801561031c57600080fd5b50610325611a1b565b60405161012f929190613a32565b34801561033f57600080fd5b506001546040516001600160a01b03909116815260200161012f565b600061036682611c98565b80610381575063073ab56560e01b6001600160e01b03198316145b92915050565b6060610391611cde565b6004805460408051808201909152918252631253925560e21b602083015290816103d75760405162461bcd60e51b81526004016103ce91906138f3565b60405180910390fd5b5060015460408051637ac46fbb60e01b815290516000926001600160a01b031691637ac46fbb916004808301926060929190829003018186803b15801561041d57600080fd5b505afa158015610431573d6000803e3d6000fd5b505050506040513d601f19601f820116820180604052508101906104559190613a60565b805160208201516040516331a9108f60e11b81526004810186905292935090916000906001600160a01b03831690636352211e9060240160206040518083038186803b1580156104a457600080fd5b505afa1580156104b8573d6000803e3d6000fd5b505050506040513d601f19601f820116820180604052508101906104dc9190613ad1565b905060006104eb838784611d38565b604051639bd0911b60e01b8152600060048201526001600160a01b039190911690639bd0911b9060240160206040518083038186803b15801561052d57600080fd5b505afa158015610541573d6000803e3d6000fd5b505050506040513d601f19601f820116820180604052508101906105659190613ad1565b905087516001600160401b03811115610580576105806134ec565b6040519080825280602002602001820160405280156105a9578160200160208202803683370190505b5096506001600160a01b0381163014156105c8575050505050506107f5565b60005b88518110156107b2576105f68982815181106105e9576105e9613aee565b6020026020010151611e0b565b806106a85750846001600160a01b03166363e85d2d8a838151811061061d5761061d613aee565b60209081029190910101516040516001600160e01b031960e084901b1681526001600160a01b0390911660048201526002602482015260440160206040518083038186803b15801561066e57600080fd5b505afa158015610682573d6000803e3d6000fd5b505050506040513d601f19601f820116820180604052508101906106a69190613b04565b155b156106b2576107a2565b60008982815181106106c6576106c6613aee565b60209081029190910101516040516370a0823160e01b81523060048201529091506001600160a01b038216906370a082319060240160206040518083038186803b15801561071357600080fd5b505afa158015610727573d6000803e3d6000fd5b505050506040513d601f19601f8201168201806040525081019061074b9190613b26565b89838151811061075d5761075d613aee565b6020026020010181815250506107a0838a848151811061077f5761077f613aee565b6020026020010151836001600160a01b0316611e779092919063ffffffff16565b505b6107ab81613b55565b90506105cb565b507f9efcb26e0cf572bd9171640e114f387cef91cd3e38532ed6b3f80c7f2e758f878189896040516107e693929190613b70565b60405180910390a15050505050505b6107ff6001600055565b919050565b600080600160009054906101000a90046001600160a01b03166001600160a01b0316637ac46fbb6040518163ffffffff1660e01b815260040160606040518083038186803b15801561085557600080fd5b505afa158015610869573d6000803e3d6000fd5b505050506040513d601f19601f8201168201806040525081019061088d9190613a60565b602081015181516004549293509091806108b657506001600160e01b0319935061038192505050565b60405163020604bf60e21b8152600481018290526000906001600160a01b0385169063081812fc9060240160206040518083038186803b1580156108f957600080fd5b505afa15801561090d573d6000803e3d6000fd5b505050506040513d601f19601f820116820180604052508101906109319190613ad1565b6040516363e85d2d60e01b81526001600160a01b03808316600483015260066024830152919250908416906363e85d2d9060440160206040518083038186803b15801561097d57600080fd5b505afa158015610991573d6000803e3d6000fd5b505050506040513d601f19601f820116820180604052508101906109b59190613b04565b6109cf57506001600160e01b031994506103819350505050565b803b63ffffffff811615610b02576040516301ffc9a760e01b8152630b135d3f60e11b60048201526001600160a01b038316906301ffc9a79060240160206040518083038186803b158015610a2357600080fd5b505afa158015610a37573d6000803e3d6000fd5b505050506040513d601f19601f82011682018060405250810190610a5b9190613b04565b15610aeb57604051630b135d3f60e11b81526001600160a01b03831690631626ba7e90610a8e908c908c90600401613bb0565b60206040518083038186803b158015610aa657600080fd5b505afa158015610aba573d6000803e3d6000fd5b505050506040513d601f19601f82011682018060405250810190610ade9190613bc9565b9650505050505050610381565b506001600160e01b03199550610381945050505050565b816001600160a01b0316610b168a8a611eda565b6001600160a01b03161415610b3b5750630b135d3f60e11b9550610381945050505050565b506001600160e01b031998975050505050505050565b6060610b5b611cde565b6004805460408051808201909152918252631253925560e21b60208301529081610b985760405162461bcd60e51b81526004016103ce91906138f3565b50610ba233611f59565b6040518060400160405280600381526020016223292160e91b81525090610bdc5760405162461bcd60e51b81526004016103ce91906138f3565b5060015460408051637ac46fbb60e01b815290516000926001600160a01b031691637ac46fbb916004808301926060929190829003018186803b158015610c2257600080fd5b505afa158015610c36573d6000803e3d6000fd5b505050506040513d601f19601f82011682018060405250810190610c5a9190613a60565b602001516040516331a9108f60e11b8152600481018490529091506000906001600160a01b03831690636352211e9060240160206040518083038186803b158015610ca457600080fd5b505afa158015610cb8573d6000803e3d6000fd5b505050506040513d601f19601f82011682018060405250810190610cdc9190613ad1565b90506000610ceb838584611d38565b90506001600160a01b0382163314610f2857604051639bd0911b60e01b8152600060048201819052906001600160a01b03831690639bd0911b9060240160206040518083038186803b158015610d4057600080fd5b505afa158015610d54573d6000803e3d6000fd5b505050506040513d601f19601f82011682018060405250810190610d789190613ad1565b90506001600160a01b038116301415610ed35760405163fcdabd2760e01b81526001600160a01b038b8116600483015280841691639d9fd0d99187169063fcdabd279060240160206040518083038186803b158015610dd657600080fd5b505afa158015610dea573d6000803e3d6000fd5b505050506040513d601f19601f82011682018060405250810190610e0e9190613b26565b6040518263ffffffff1660e01b8152600401610e2c91815260200190565b60206040518083038186803b158015610e4457600080fd5b505afa158015610e58573d6000803e3d6000fd5b505050506040513d601f19601f82011682018060405250810190610e7c9190613b04565b8015610e9157506001600160a01b038a163014155b6040518060400160405280600581526020016424a72b2a2960d91b81525090610ecd5760405162461bcd60e51b81526004016103ce91906138f3565b50610f26565b896001600160a01b0316816001600160a01b0316146040518060400160405280600581526020016424a72b2a2960d91b81525090610f245760405162461bcd60e51b81526004016103ce91906138f3565b505b505b6000610f348989612117565b90506000610f438b838a612203565b9050610faa8a6002805480602002602001604051908101604052809291908181526020018280548015610f9f57602002820191906000526020600020905b81546001600160a01b03168152600190910190602001808311610f81575b50505050508361253c565b96507f54f9e6ef58e36de62f59f9ee6c4b878af84989c53a3642eba415ac3ac4e11cda8b88604051610fdd929190613be6565b60405180910390a1505050505050610ff56001600055565b949350505050565b825160609060005b818110156110905784818151811061101f5761101f613aee565b602002602001015160001461108057611080873087848151811061104557611045613aee565b602002602001015189858151811061105f5761105f613aee565b60200260200101516001600160a01b031661275d909392919063ffffffff16565b61108981613b55565b9050611005565b5061109c858585611458565b915060005b855181101561117a5760008582815181106110be576110be613aee565b60200260200101518483815181106110d8576110d8613aee565b6020026020010151106110ec57600061112a565b8382815181106110fe576110fe613aee565b602002602001015186838151811061111857611118613aee565b602002602001015161112a9190613c0a565b9050801561116957611169888289858151811061114957611149613aee565b60200260200101516001600160a01b0316611e779092919063ffffffff16565b5061117381613b55565b90506110a1565b5050949350505050565b606061118e611cde565b6004805460408051808201909152918252631253925560e21b60208301526111c95760405162461bcd60e51b81526004016103ce91906138f3565b506111d333611f59565b6040518060400160405280600381526020016223292160e91b8152509061120d5760405162461bcd60e51b81526004016103ce91906138f3565b5060015460408051637ac46fbb60e01b815290516000926001600160a01b031691637ac46fbb916004808301926060929190829003018186803b15801561125357600080fd5b505afa158015611267573d6000803e3d6000fd5b505050506040513d601f19601f8201168201806040525081019061128b9190613a60565b51604051631f4a58fb60e31b81526001600160a01b03888116600483015291925060009183169063fa52c7d89060240160206040518083038186803b1580156112d357600080fd5b505afa1580156112e7573d6000803e3d6000fd5b505050506040513d601f19601f8201168201806040525081019061130b9190613ad1565b60408051808201909152600381526223292160e91b60208201529091506001600160a01b03821661134f5760405162461bcd60e51b81526004016103ce91906138f3565b50604051631796170d60e21b81526001600160a01b03821690635e585c34906113869033908b9034908c908c908c90600401613c21565b60006040518083038186803b15801561139e57600080fd5b505afa1580156113b2573d6000803e3d6000fd5b50505050600080886001600160a01b0316348989896040516020016113d993929190613c86565b60408051601f19818403018152908290526113f391613caa565b60006040518083038185875af1925050503d8060008114611430576040519150601f19603f3d011682016040523d82523d6000602084013e611435565b606091505b5091509150816114485780518082602001fd5b60016000559350610ff592505050565b6060611462611cde565b6004805460408051808201909152918252631253925560e21b6020830152908161149f5760405162461bcd60e51b81526004016103ce91906138f3565b5060015460408051637ac46fbb60e01b815290516000926001600160a01b031691637ac46fbb916004808301926060929190829003018186803b1580156114e557600080fd5b505afa1580156114f9573d6000803e3d6000fd5b505050506040513d601f19601f8201168201806040525081019061151d9190613a60565b602001516040516331a9108f60e11b8152600481018490529091506000906001600160a01b03831690636352211e9060240160206040518083038186803b15801561156757600080fd5b505afa15801561157b573d6000803e3d6000fd5b505050506040513d601f19601f8201168201806040525081019061159f9190613ad1565b60405163fcdabd2760e01b81526001600160a01b03808316600483015291925060009184169063fcdabd279060240160206040518083038186803b1580156115e657600080fd5b505afa1580156115fa573d6000803e3d6000fd5b505050506040513d601f19601f8201168201806040525081019061161e9190613b26565b604080518082019091526002815261272360f11b6020820152909150816116585760405162461bcd60e51b81526004016103ce91906138f3565b5060006116658989612117565b90506000611673828961279b565b90506116d88a6002805480602002602001604051908101604052809291908181526020018280548015610f9f576020028201919060005260206000209081546001600160a01b03168152600190910190602001808311610f815750505050508361253c565b96507f08e404e978692dd1b8275016b7a7b0b3ae4afd06b0cec7228060bb2da18c84fd81604051611709919061364d565b60405180910390a15050505050506117216001600055565b9392505050565b6060600280548060200260200160405190810160405280929190818152602001828054801561178057602002820191906000526020600020905b81546001600160a01b03168152600190910190602001808311611762575b5050505050905090565b60606006805480602002602001604051908101604052809291908181526020018280548015611780576020028201919060005260206000209081546001600160a01b03168152600190910190602001808311611762575050505050905090565b6117f481836129ec565b80516001600160401b0381111561180d5761180d6134ec565b604051908082528060200260200182016040528015611836578160200160208202803683370190505b50805161184b9160069160209091019061343c565b5060005b81518110156119bf57336001600160a01b03166356c9ff9a83838151811061187957611879613aee565b60200260200101516040518263ffffffff1660e01b81526004016118ac91906001600160a01b0391909116815260200190565b60206040518083038186803b1580156118c457600080fd5b505afa1580156118d8573d6000803e3d6000fd5b505050506040513d601f19601f820116820180604052508101906118fc9190613ad1565b6006828154811061190f5761190f613aee565b6000918252602082200180546001600160a01b0319166001600160a01b039390931692909217909155600680548390811061194c5761194c613aee565b9060005260206000200160009054906101000a90046001600160a01b03166001600160a01b031614156040518060400160405280600281526020016120ad60f11b815250906119ae5760405162461bcd60e51b81526004016103ce91906138f3565b506119b881613b55565b905061184f565b505050565b6060600580548060200260200160405190810160405280929190818152602001828054801561178057602002820191906000526020600020905b8154815260200190600101908083116119fe575050505050905090565b60608060006002805480602002602001604051908101604052809291908181526020018280548015611a7657602002820191906000526020600020905b81546001600160a01b03168152600190910190602001808311611a58575b5050505050905080516001600160401b03811115611a9657611a966134ec565b604051908082528060200260200182016040528015611abf578160200160208202803683370190505b50925060005b600654811015611c8f57600060068281548110611ae457611ae4613aee565b6000918252602090912001546040516370a0823160e01b81523060048201526001600160a01b039091169150611c619082906370a082319060240160206040518083038186803b158015611b3757600080fd5b505afa158015611b4b573d6000803e3d6000fd5b505050506040513d601f19601f82011682018060405250810190611b6f9190613b26565b826001600160a01b03166399530b066040518163ffffffff1660e01b815260040160206040518083038186803b158015611ba857600080fd5b505afa158015611bbc573d6000803e3d6000fd5b505050506040513d601f19601f82011682018060405250810190611be09190613b26565b836001600160a01b031663313ce5676040518163ffffffff1660e01b815260040160206040518083038186803b158015611c1957600080fd5b505afa158015611c2d573d6000803e3d6000fd5b505050506040513d601f19601f82011682018060405250810190611c519190613b26565b611c5c90600a613daa565b612e77565b858381518110611c7357611c73613aee565b602090810291909101015250611c8881613b55565b9050611ac5565b50829150509091565b6000611ca382612f2a565b80611cbe57506001600160e01b03198216633d31d51d60e11b145b8061038157506001600160e01b03198216630b135d3f60e11b1492915050565b60026000541415611d315760405162461bcd60e51b815260206004820152601f60248201527f5265656e7472616e637947756172643a207265656e7472616e742063616c6c0060448201526064016103ce565b6002600055565b60405163fcdabd2760e01b81526001600160a01b038281166004830152600091829186169063fcdabd279060240160206040518083038186803b158015611d7e57600080fd5b505afa158015611d92573d6000803e3d6000fd5b505050506040513d601f19601f82011682018060405250810190611db69190613b26565b90508315801590611dc657508015155b604051806040016040528060048152602001631253925560e21b81525090611e015760405162461bcd60e51b81526004016103ce91906138f3565b5091949350505050565b600654600090815b81811015611e6d57836001600160a01b031660068281548110611e3857611e38613aee565b6000918252602090912001546001600160a01b03161415611e5d575060019392505050565b611e6681613b55565b9050611e13565b5060009392505050565b6040516001600160a01b0383166024820152604481018290526119bf90849063a9059cbb60e01b906064015b60408051601f198184030181529190526020810180516001600160e01b03166001600160e01b031990931692909217909152612f60565b600080600080611ee985613035565b6040805160008152602081018083528b905260ff8316918101919091526060810184905260808101839052929550909350915060019060a0016020604051602081039080840390855afa158015611f44573d6000803e3d6000fd5b5050604051601f190151979650505050505050565b600080600160009054906101000a90046001600160a01b03166001600160a01b0316637ac46fbb6040518163ffffffff1660e01b815260040160606040518083038186803b158015611faa57600080fd5b505afa158015611fbe573d6000803e3d6000fd5b505050506040513d601f19601f82011682018060405250810190611fe29190613a60565b6020015160045490915080611ffb575060009392505050565b60405163020604bf60e21b8152600481018290526001600160a01b03808616919084169063081812fc9060240160206040518083038186803b15801561204057600080fd5b505afa158015612054573d6000803e3d6000fd5b505050506040513d601f19601f820116820180604052508101906120789190613ad1565b6001600160a01b03161480610ff557506040516331a9108f60e11b8152600481018290526001600160a01b038086169190841690636352211e9060240160206040518083038186803b1580156120cd57600080fd5b505afa1580156120e1573d6000803e3d6000fd5b505050506040513d601f19601f820116820180604052508101906121059190613ad1565b6001600160a01b031614949350505050565b606061212283613099565b60405180604001604052806004815260200163494e564160e01b8152509061215d5760405162461bcd60e51b81526004016103ce91906138f3565b5081518351146040518060400160405280600381526020016224a72b60e91b8152509061219d5760405162461bcd60e51b81526004016103ce91906138f3565b5061172160028054806020026020016040519081016040528092919081815260200182805480156121f757602002820191906000526020600020905b81546001600160a01b031681526001909101906020018083116121d9575b5050505050848461253c565b606082516001600160401b0381111561221e5761221e6134ec565b604051908082528060200260200182016040528015612247578160200160208202803683370190505b50905060008083511161225c57612710612270565b828060200190518101906122709190613b26565b905060005b6006548110156125335784818151811061229157612291613aee565b6020026020010151600014156122a657612523565b6000600682815481106122bb576122bb613aee565b600091825260208220015487516001600160a01b0390911692506123e0908890859081106122eb576122eb613aee565b6020026020010151836001600160a01b031663313ce5676040518163ffffffff1660e01b815260040160206040518083038186803b15801561232c57600080fd5b505afa158015612340573d6000803e3d6000fd5b505050506040513d601f19601f820116820180604052508101906123649190613b26565b61236f90600a613daa565b846001600160a01b03166399530b066040518163ffffffff1660e01b815260040160206040518083038186803b1580156123a857600080fd5b505afa1580156123bc573d6000803e3d6000fd5b505050506040513d601f19601f82011682018060405250810190611c5c9190613b26565b6040516370a0823160e01b81523060048201529091506000906001600160a01b038416906370a082319060240160206040518083038186803b15801561242557600080fd5b505afa158015612439573d6000803e3d6000fd5b505050506040513d601f19601f8201168201806040525081019061245d9190613b26565b90508082111561246b578091505b8161247857505050612523565b604051631cc6d2f960e31b8152600481018390526001600160a01b038a811660248301526044820187905284169063e63697c890606401602060405180830381600087803b1580156124c957600080fd5b505af11580156124dd573d6000803e3d6000fd5b505050506040513d601f19601f820116820180604052508101906125019190613b26565b86858151811061251357612513613aee565b6020026020010181815250505050505b61252c81613b55565b9050612275565b50509392505050565b6060600084516001600160401b03811115612559576125596134ec565b604051908082528060200260200182016040528015612582578160200160208202803683370190505b5090506000805b8651821080156125995750855181105b15612718578581815181106125b0576125b0613aee565b60200260200101516001600160a01b03168783815181106125d3576125d3613aee565b60200260200101516001600160a01b0316101561261b5760008383815181106125fe576125fe613aee565b60209081029190910101528161261381613b55565b925050612589565b85818151811061262d5761262d613aee565b60200260200101516001600160a01b031687838151811061265057612650613aee565b60200260200101516001600160a01b031611156126c95784818151811061267957612679613aee565b60200260200101516000141561269b578061269381613b55565b915050612589565b60405162461bcd60e51b815260206004820152600360248201526254505360e81b60448201526064016103ce565b8481815181106126db576126db613aee565b60200260200101518383815181106126f5576126f5613aee565b60209081029190910101528161270a81613b55565b925050808061269390613b55565b865182101561275257600083838151811061273557612735613aee565b60209081029190910101528161274a81613b55565b925050612718565b509095945050505050565b6040516001600160a01b03808516602483015283166044820152606481018290526127959085906323b872dd60e01b90608401611ea3565b50505050565b6060600060028054806020026020016040519081016040528092919081815260200182805480156127f557602002820191906000526020600020905b81546001600160a01b031681526001909101906020018083116127d7575b5050505050905083915060005b6006548110156129e45784818151811061281e5761281e613aee565b602002602001015160001415612833576129d4565b600082828151811061284757612847613aee565b6020026020010151905060006006838154811061286657612866613aee565b9060005260206000200160009054906101000a90046001600160a01b031690506128bd8188858151811061289c5761289c613aee565b6020026020010151846001600160a01b031661313c9092919063ffffffff16565b806001600160a01b0316636e553f658885815181106128de576128de613aee565b6020026020010151306040518363ffffffff1660e01b81526004016129169291909182526001600160a01b0316602082015260400190565b602060405180830381600087803b15801561293057600080fd5b505af1925050508015612960575060408051601f3d908101601f1916820190925261295d91810190613b26565b60015b6129ba573d80801561298e576040519150601f19603f3d011682016040523d82523d6000602084013e612993565b606091505b5060008685815181106129a8576129a8613aee565b602002602001018181525050506129bc565b505b6129d16001600160a01b0383168260006131f8565b50505b6129dd81613b55565b9050612802565b505092915050565b6004805460408051808201909152918252631253925560e21b602083015215612a285760405162461bcd60e51b81526004016103ce91906138f3565b50612a3282613099565b60405180604001604052806004815260200163494e564160e01b81525090612a6d5760405162461bcd60e51b81526004016103ce91906138f3565b506040805180820190915260028152612b2d60f11b602082015281612aa55760405162461bcd60e51b81526004016103ce91906138f3565b506000336001600160a01b0316637ac46fbb6040518163ffffffff1660e01b815260040160606040518083038186803b158015612ae157600080fd5b505afa158015612af5573d6000803e3d6000fd5b505050506040513d601f19601f82011682018060405250810190612b199190613a60565b51835190915015801590612b9e5750806001600160a01b03166378546fa26040518163ffffffff1660e01b815260040160206040518083038186803b158015612b6157600080fd5b505afa158015612b75573d6000803e3d6000fd5b505050506040513d601f19601f82011682018060405250810190612b999190613b26565b835111155b6040518060400160405280600381526020016224a72b60e91b81525090612bd85760405162461bcd60e51b81526004016103ce91906138f3565b5060005b8351811015612cdc57816001600160a01b03166363e85d2d858381518110612c0657612c06613aee565b60209081029190910101516040516001600160e01b031960e084901b1681526001600160a01b0390911660048201526003602482015260440160206040518083038186803b158015612c5757600080fd5b505afa158015612c6b573d6000803e3d6000fd5b505050506040513d601f19601f82011682018060405250810190612c8f9190613b04565b6040518060400160405280600381526020016223292160e91b81525090612cc95760405162461bcd60e51b81526004016103ce91906138f3565b5080612cd481613b55565b915050612bdc565b50600180546001600160a01b031916331790558251612d0290600290602086019061343c565b50600482905560025460005b81811015612e3257612d21816001613db6565b60036000878481518110612d3757612d37613aee565b60200260200101516001600160a01b03166001600160a01b03168152602001908152602001600020819055506000858281518110612d7757612d77613aee565b6020026020010151905060056002826001600160a01b031663313ce5676040518163ffffffff1660e01b815260040160206040518083038186803b158015612dbe57600080fd5b505afa158015612dd2573d6000803e3d6000fd5b505050506040513d601f19601f82011682018060405250810190612df69190613dce565b612e009190613df1565b612e0b90600a613e21565b8154600181018355600092835260209092209091015550612e2b81613b55565b9050612d0e565b50604051339032907f0f043e55a1ce0d7ce25125ccbc2800b540d83e21abf7250f0156c2091a28b22190612e699088908890613e30565b60405180910390a350505050565b600080806000198587098587029250828110838203039150508060001415612eb15760008411612ea657600080fd5b508290049050611721565b808411612ebd57600080fd5b6000848688096000868103871696879004966002600389028118808a02820302808a02820302808a02820302808a02820302808a02820302808a02909103029181900381900460010186841190950394909402919094039290920491909117919091029150509392505050565b60006301ffc9a760e01b6001600160e01b03198316148061038157506001600160e01b0319821663305a640b60e21b1492915050565b6000612fb5826040518060400160405280602081526020017f5361666545524332303a206c6f772d6c6576656c2063616c6c206661696c6564815250856001600160a01b031661331c9092919063ffffffff16565b9050805160001480612fd6575080806020019051810190612fd69190613b04565b6119bf5760405162461bcd60e51b815260206004820152602a60248201527f5361666545524332303a204552433230206f7065726174696f6e20646964206e6044820152691bdd081cdd58d8d9595960b21b60648201526084016103ce565b60008060008351604114604051806040016040528060048152602001631253959360e21b8152509061307a5760405162461bcd60e51b81526004016103ce91906138f3565b5050505060208101516040820151606090920151909260009190911a90565b60006002825110156130ad57506001919050565b60005b600183516130be9190613c0a565b81101561313357826130d1826001613db6565b815181106130e1576130e1613aee565b60200260200101516001600160a01b031683828151811061310457613104613aee565b60200260200101516001600160a01b0316106131235750600092915050565b61312c81613b55565b90506130b0565b50600192915050565b604051636eb1769f60e11b81523060048201526001600160a01b0383811660248301526000919085169063dd62ed3e9060440160206040518083038186803b15801561318757600080fd5b505afa15801561319b573d6000803e3d6000fd5b505050506040513d601f19601f820116820180604052508101906131bf9190613b26565b90506127958463095ea7b360e01b856131d88686613db6565b6040516001600160a01b0390921660248301526044820152606401611ea3565b8015806132815750604051636eb1769f60e11b81523060048201526001600160a01b03838116602483015284169063dd62ed3e9060440160206040518083038186803b15801561324757600080fd5b505afa15801561325b573d6000803e3d6000fd5b505050506040513d601f19601f8201168201806040525081019061327f9190613b26565b155b6132ec5760405162461bcd60e51b815260206004820152603660248201527f5361666545524332303a20617070726f76652066726f6d206e6f6e2d7a65726f60448201527520746f206e6f6e2d7a65726f20616c6c6f77616e636560501b60648201526084016103ce565b6040516001600160a01b0383166024820152604481018290526119bf90849063095ea7b360e01b90606401611ea3565b6060610ff5848460008585600080866001600160a01b031685876040516133439190613caa565b60006040518083038185875af1925050503d8060008114613380576040519150601f19603f3d011682016040523d82523d6000602084013e613385565b606091505b5091509150613396878383876133a1565b979650505050505050565b6060831561340d578251613406576001600160a01b0385163b6134065760405162461bcd60e51b815260206004820152601d60248201527f416464726573733a2063616c6c20746f206e6f6e2d636f6e747261637400000060448201526064016103ce565b5081610ff5565b610ff583838151156134225781518083602001fd5b8060405162461bcd60e51b81526004016103ce91906138f3565b828054828255906000526020600020908101928215613491579160200282015b8281111561349157825182546001600160a01b0319166001600160a01b0390911617825560209092019160019091019061345c565b5061349d9291506134a1565b5090565b5b8082111561349d57600081556001016134a2565b6001600160e01b0319811681146134cc57600080fd5b50565b6000602082840312156134e157600080fd5b8135611721816134b6565b634e487b7160e01b600052604160045260246000fd5b604051601f8201601f191681016001600160401b038111828210171561352a5761352a6134ec565b604052919050565b60006001600160401b0382111561354b5761354b6134ec565b5060051b60200190565b6001600160a01b03811681146134cc57600080fd5b600082601f83011261357b57600080fd5b8135602061359061358b83613532565b613502565b82815260059290921b840181019181810190868411156135af57600080fd5b8286015b848110156135d35780356135c681613555565b83529183019183016135b3565b509695505050505050565b6000602082840312156135f057600080fd5b81356001600160401b0381111561360657600080fd5b610ff58482850161356a565b600081518084526020808501945080840160005b8381101561364257815187529582019590820190600101613626565b509495945050505050565b6020815260006117216020830184613612565b600082601f83011261367157600080fd5b81356001600160401b0381111561368a5761368a6134ec565b61369d601f8201601f1916602001613502565b8181528460208386010111156136b257600080fd5b816020850160208301376000918101602001919091529392505050565b600080604083850312156136e257600080fd5b8235915060208301356001600160401b038111156136ff57600080fd5b61370b85828601613660565b9150509250929050565b600082601f83011261372657600080fd5b8135602061373661358b83613532565b82815260059290921b8401810191818101908684111561375557600080fd5b8286015b848110156135d35780358352918301918301613759565b6000806000806080858703121561378657600080fd5b843561379181613555565b935060208501356001600160401b03808211156137ad57600080fd5b6137b98883890161356a565b945060408701359150808211156137cf57600080fd5b6137db88838901613715565b935060608701359150808211156137f157600080fd5b506137fe87828801613660565b91505092959194509250565b6000806000806060858703121561382057600080fd5b843561382b81613555565b9350602085013561383b816134b6565b925060408501356001600160401b038082111561385757600080fd5b818701915087601f83011261386b57600080fd5b81358181111561387a57600080fd5b88602082850101111561388c57600080fd5b95989497505060200194505050565b60005b838110156138b657818101518382015260200161389e565b838111156127955750506000910152565b600081518084526138df81602086016020860161389b565b601f01601f19169290920160200192915050565b60208152600061172160208301846138c7565b60006020828403121561391857600080fd5b813561172181613555565b60008060006060848603121561393857600080fd5b83356001600160401b038082111561394f57600080fd5b61395b8783880161356a565b9450602086013591508082111561397157600080fd5b61397d87838801613715565b9350604086013591508082111561399357600080fd5b506139a086828701613660565b9150509250925092565b600081518084526020808501945080840160005b838110156136425781516001600160a01b0316875295820195908201906001016139be565b60208152600061172160208301846139aa565b60008060408385031215613a0957600080fd5b8235915060208301356001600160401b03811115613a2657600080fd5b61370b8582860161356a565b604081526000613a456040830185613612565b8281036020840152613a578185613612565b95945050505050565b600060608284031215613a7257600080fd5b604051606081018181106001600160401b0382111715613a9457613a946134ec565b6040528251613aa281613555565b81526020830151613ab281613555565b60208201526040830151613ac581613555565b60408201529392505050565b600060208284031215613ae357600080fd5b815161172181613555565b634e487b7160e01b600052603260045260246000fd5b600060208284031215613b1657600080fd5b8151801515811461172157600080fd5b600060208284031215613b3857600080fd5b5051919050565b634e487b7160e01b600052601160045260246000fd5b6000600019821415613b6957613b69613b3f565b5060010190565b6001600160a01b0384168152606060208201819052600090613b94908301856139aa565b8281036040840152613ba68185613612565b9695505050505050565b828152604060208201526000610ff560408301846138c7565b600060208284031215613bdb57600080fd5b8151611721816134b6565b6001600160a01b0383168152604060208201819052600090610ff590830184613612565b600082821015613c1c57613c1c613b3f565b500390565b6001600160a01b03878116825286166020820152604081018590526001600160e01b03198416606082015260a06080820181905281018290526000828460c0840137600060c0848401015260c0601f19601f8501168301019050979650505050505050565b6001600160e01b031984168152818360048301376000910160040190815292915050565b60008251613cbc81846020870161389b565b9190910192915050565b600181815b80851115613d01578160001904821115613ce757613ce7613b3f565b80851615613cf457918102915b93841c9390800290613ccb565b509250929050565b600082613d1857506001610381565b81613d2557506000610381565b8160018114613d3b5760028114613d4557613d61565b6001915050610381565b60ff841115613d5657613d56613b3f565b50506001821b610381565b5060208310610133831016604e8410600b8410161715613d84575081810a610381565b613d8e8383613cc6565b8060001904821115613da257613da2613b3f565b029392505050565b60006117218383613d09565b60008219821115613dc957613dc9613b3f565b500190565b600060208284031215613de057600080fd5b815160ff8116811461172157600080fd5b600060ff831680613e1257634e487b7160e01b600052601260045260246000fd5b8060ff84160491505092915050565b600061172160ff841683613d09565b604081526000613e4360408301856139aa565b9050826020830152939250505056fea26469706673582212202304bb9e1cf227d969c9fa6875ced1d5713e88b2afe7f5467df70a02018a6dda64736f6c63430008090033",
    "linkReferences": {}
  },
  "methodIdentifiers": {
    "DEFAULT_MAX_LOSS()": "ae1a02e9",
    "externalCall(address,bytes4,bytes)": "2e2f4cc2",
    "initialize(uint256,address[])": "a920b78c",
    "initialized()": "158ef93e",
    "isValidSignature(bytes32,bytes)": "1626ba7e",
    "isVaultToken(address)": "338c4ccb",
    "nft()": "47ccca02",
    "pull(address,address[],uint256[],bytes)": "2062d754",
    "pullExistentials()": "d2c219b0",
    "push(address[],uint256[],bytes)": "566ca6b4",
    "reclaimTokens(address[])": "05e1c942",
    "supportsInterface(bytes4)": "01ffc9a7",
    "transferAndPush(address,address[],uint256[],bytes)": "27a35e5a",
    "tvl()": "e5328e06",
    "vaultGovernance()": "fe255a5e",
    "vaultTokens()": "69722233",
    "yTokens()": "a0d15b44"
  },
  "id": 478
}