{
  "abi": [
    {
      "inputs": [
        {
          "components": [
            {
              "internalType": "contract IProtocolGovernance",
              "name": "protocolGovernance",
              "type": "address"
            },
            {
              "internalType": "contract IVaultRegistry",
              "name": "registry",
              "type": "address"
            },
            {
              "internalType": "contract IVault",
              "name": "singleton",
              "type": "address"
            }
          ],
          "internalType": "struct IVaultGovernance.InternalParams",
          "name": "internalParams_",
          "type": "tuple"
        },
        {
          "components": [
            {
              "internalType": "contract IPancakeNonfungiblePositionManager",
              "name": "positionManager",
              "type": "address"
            },
            {
              "internalType": "contract IOracle",
              "name": "oracle",
              "type": "address"
            }
          ],
          "internalType": "struct IPancakeSwapVaultGovernance.DelayedProtocolParams",
          "name": "delayedProtocolParams_",
          "type": "tuple"
        }
      ],
      "stateMutability": "nonpayable",
      "type": "constructor"
    },
    {
      "anonymous": false,
      "inputs": [
        {
          "indexed": true,
          "internalType": "address",
          "name": "origin",
          "type": "address"
        },
        {
          "indexed": true,
          "internalType": "address",
          "name": "sender",
          "type": "address"
        },
        {
          "components": [
            {
              "internalType": "contract IPancakeNonfungiblePositionManager",
              "name": "positionManager",
              "type": "address"
            },
            {
              "internalType": "contract IOracle",
              "name": "oracle",
              "type": "address"
            }
          ],
          "indexed": false,
          "internalType": "struct IPancakeSwapVaultGovernance.DelayedProtocolParams",
          "name": "params",
          "type": "tuple"
        }
      ],
      "name": "CommitDelayedProtocolParams",
      "type": "event"
    },
    {
      "anonymous": false,
      "inputs": [
        {
          "indexed": true,
          "internalType": "address",
          "name": "origin",
          "type": "address"
        },
        {
          "indexed": true,
          "internalType": "address",
          "name": "sender",
          "type": "address"
        },
        {
          "indexed": true,
          "internalType": "uint256",
          "name": "nft",
          "type": "uint256"
        },
        {
          "components": [
            {
              "internalType": "uint32",
              "name": "safetyIndicesSet",
              "type": "uint32"
            }
          ],
          "indexed": false,
          "internalType": "struct IPancakeSwapVaultGovernance.DelayedStrategyParams",
          "name": "params",
          "type": "tuple"
        }
      ],
      "name": "CommitDelayedStrategyParams",
      "type": "event"
    },
    {
      "anonymous": false,
      "inputs": [
        {
          "indexed": true,
          "internalType": "address",
          "name": "origin",
          "type": "address"
        },
        {
          "indexed": true,
          "internalType": "address",
          "name": "sender",
          "type": "address"
        },
        {
          "components": [
            {
              "internalType": "contract IProtocolGovernance",
              "name": "protocolGovernance",
              "type": "address"
            },
            {
              "internalType": "contract IVaultRegistry",
              "name": "registry",
              "type": "address"
            },
            {
              "internalType": "contract IVault",
              "name": "singleton",
              "type": "address"
            }
          ],
          "indexed": false,
          "internalType": "struct IVaultGovernance.InternalParams",
          "name": "params",
          "type": "tuple"
        }
      ],
      "name": "CommitedInternalParams",
      "type": "event"
    },
    {
      "anonymous": false,
      "inputs": [
        {
          "indexed": true,
          "internalType": "address",
          "name": "origin",
          "type": "address"
        },
        {
          "indexed": true,
          "internalType": "address",
          "name": "sender",
          "type": "address"
        },
        {
          "indexed": false,
          "internalType": "address[]",
          "name": "vaultTokens",
          "type": "address[]"
        },
        {
          "indexed": false,
          "internalType": "bytes",
          "name": "options",
          "type": "bytes"
        },
        {
          "indexed": false,
          "internalType": "address",
          "name": "owner",
          "type": "address"
        },
        {
          "indexed": false,
          "internalType": "address",
          "name": "vaultAddress",
          "type": "address"
        },
        {
          "indexed": false,
          "internalType": "uint256",
          "name": "vaultNft",
          "type": "uint256"
        }
      ],
      "name": "DeployedVault",
      "type": "event"
    },
    {
      "anonymous": false,
      "inputs": [
        {
          "indexed": true,
          "internalType": "address",
          "name": "origin",
          "type": "address"
        },
        {
          "indexed": true,
          "internalType": "address",
          "name": "sender",
          "type": "address"
        },
        {
          "indexed": true,
          "internalType": "uint256",
          "name": "nft",
          "type": "uint256"
        },
        {
          "components": [
            {
              "internalType": "uint256",
              "name": "swapSlippageD",
              "type": "uint256"
            },
            {
              "internalType": "address",
              "name": "poolForSwap",
              "type": "address"
            },
            {
              "internalType": "address",
              "name": "cake",
              "type": "address"
            },
            {
              "internalType": "address",
              "name": "underlyingToken",
              "type": "address"
            },
            {
              "internalType": "address",
              "name": "smartRouter",
              "type": "address"
            },
            {
              "internalType": "uint32",
              "name": "averageTickTimespan",
              "type": "uint32"
            }
          ],
          "indexed": false,
          "internalType": "struct IPancakeSwapVaultGovernance.StrategyParams",
          "name": "params",
          "type": "tuple"
        }
      ],
      "name": "SetStrategyParams",
      "type": "event"
    },
    {
      "anonymous": false,
      "inputs": [
        {
          "indexed": true,
          "internalType": "address",
          "name": "origin",
          "type": "address"
        },
        {
          "indexed": true,
          "internalType": "address",
          "name": "sender",
          "type": "address"
        },
        {
          "components": [
            {
              "internalType": "contract IPancakeNonfungiblePositionManager",
              "name": "positionManager",
              "type": "address"
            },
            {
              "internalType": "contract IOracle",
              "name": "oracle",
              "type": "address"
            }
          ],
          "indexed": false,
          "internalType": "struct IPancakeSwapVaultGovernance.DelayedProtocolParams",
          "name": "params",
          "type": "tuple"
        },
        {
          "indexed": false,
          "internalType": "uint256",
          "name": "when",
          "type": "uint256"
        }
      ],
      "name": "StageDelayedProtocolParams",
      "type": "event"
    },
    {
      "anonymous": false,
      "inputs": [
        {
          "indexed": true,
          "internalType": "address",
          "name": "origin",
          "type": "address"
        },
        {
          "indexed": true,
          "internalType": "address",
          "name": "sender",
          "type": "address"
        },
        {
          "indexed": true,
          "internalType": "uint256",
          "name": "nft",
          "type": "uint256"
        },
        {
          "components": [
            {
              "internalType": "uint32",
              "name": "safetyIndicesSet",
              "type": "uint32"
            }
          ],
          "indexed": false,
          "internalType": "struct IPancakeSwapVaultGovernance.DelayedStrategyParams",
          "name": "params",
          "type": "tuple"
        },
        {
          "indexed": false,
          "internalType": "uint256",
          "name": "when",
          "type": "uint256"
        }
      ],
      "name": "StageDelayedStrategyParams",
      "type": "event"
    },
    {
      "anonymous": false,
      "inputs": [
        {
          "indexed": true,
          "internalType": "address",
          "name": "origin",
          "type": "address"
        },
        {
          "indexed": true,
          "internalType": "address",
          "name": "sender",
          "type": "address"
        },
        {
          "components": [
            {
              "internalType": "contract IProtocolGovernance",
              "name": "protocolGovernance",
              "type": "address"
            },
            {
              "internalType": "contract IVaultRegistry",
              "name": "registry",
              "type": "address"
            },
            {
              "internalType": "contract IVault",
              "name": "singleton",
              "type": "address"
            }
          ],
          "indexed": false,
          "internalType": "struct IVaultGovernance.InternalParams",
          "name": "params",
          "type": "tuple"
        },
        {
          "indexed": false,
          "internalType": "uint256",
          "name": "when",
          "type": "uint256"
        }
      ],
      "name": "StagedInternalParams",
      "type": "event"
    },
    {
      "inputs": [],
      "name": "commitDelayedProtocolParams",
      "outputs": [],
      "stateMutability": "nonpayable",
      "type": "function"
    },
    {
      "inputs": [
        {
          "internalType": "uint256",
          "name": "nft",
          "type": "uint256"
        }
      ],
      "name": "commitDelayedStrategyParams",
      "outputs": [],
      "stateMutability": "nonpayable",
      "type": "function"
    },
    {
      "inputs": [],
      "name": "commitInternalParams",
      "outputs": [],
      "stateMutability": "nonpayable",
      "type": "function"
    },
    {
      "inputs": [],
      "name": "contractName",
      "outputs": [
        {
          "internalType": "string",
          "name": "",
          "type": "string"
        }
      ],
      "stateMutability": "pure",
      "type": "function"
    },
    {
      "inputs": [],
      "name": "contractNameBytes",
      "outputs": [
        {
          "internalType": "bytes32",
          "name": "",
          "type": "bytes32"
        }
      ],
      "stateMutability": "pure",
      "type": "function"
    },
    {
      "inputs": [],
      "name": "contractVersion",
      "outputs": [
        {
          "internalType": "string",
          "name": "",
          "type": "string"
        }
      ],
      "stateMutability": "pure",
      "type": "function"
    },
    {
      "inputs": [],
      "name": "contractVersionBytes",
      "outputs": [
        {
          "internalType": "bytes32",
          "name": "",
          "type": "bytes32"
        }
      ],
      "stateMutability": "pure",
      "type": "function"
    },
    {
      "inputs": [
        {
          "internalType": "address[]",
          "name": "vaultTokens_",
          "type": "address[]"
        },
        {
          "internalType": "address",
          "name": "owner_",
          "type": "address"
        },
        {
          "internalType": "uint24",
          "name": "fee_",
          "type": "uint24"
        },
        {
          "internalType": "address",
          "name": "helper_",
          "type": "address"
        },
        {
          "internalType": "address",
          "name": "masterChef_",
          "type": "address"
        },
        {
          "internalType": "address",
          "name": "erc20Vault_",
          "type": "address"
        }
      ],
      "name": "createVault",
      "outputs": [
        {
          "internalType": "contract IPancakeSwapVault",
          "name": "vault",
          "type": "address"
        },
        {
          "internalType": "uint256",
          "name": "nft",
          "type": "uint256"
        }
      ],
      "stateMutability": "nonpayable",
      "type": "function"
    },
    {
      "inputs": [],
      "name": "delayedProtocolParams",
      "outputs": [
        {
          "components": [
            {
              "internalType": "contract IPancakeNonfungiblePositionManager",
              "name": "positionManager",
              "type": "address"
            },
            {
              "internalType": "contract IOracle",
              "name": "oracle",
              "type": "address"
            }
          ],
          "internalType": "struct IPancakeSwapVaultGovernance.DelayedProtocolParams",
          "name": "",
          "type": "tuple"
        }
      ],
      "stateMutability": "view",
      "type": "function"
    },
    {
      "inputs": [],
      "name": "delayedProtocolParamsTimestamp",
      "outputs": [
        {
          "internalType": "uint256",
          "name": "",
          "type": "uint256"
        }
      ],
      "stateMutability": "view",
      "type": "function"
    },
    {
      "inputs": [
        {
          "internalType": "uint256",
          "name": "nft",
          "type": "uint256"
        }
      ],
      "name": "delayedProtocolPerVaultParamsTimestamp",
      "outputs": [
        {
          "internalType": "uint256",
          "name": "",
          "type": "uint256"
        }
      ],
      "stateMutability": "view",
      "type": "function"
    },
    {
      "inputs": [
        {
          "internalType": "uint256",
          "name": "nft",
          "type": "uint256"
        }
      ],
      "name": "delayedStrategyParams",
      "outputs": [
        {
          "components": [
            {
              "internalType": "uint32",
              "name": "safetyIndicesSet",
              "type": "uint32"
            }
          ],
          "internalType": "struct IPancakeSwapVaultGovernance.DelayedStrategyParams",
          "name": "",
          "type": "tuple"
        }
      ],
      "stateMutability": "view",
      "type": "function"
    },
    {
      "inputs": [
        {
          "internalType": "uint256",
          "name": "nft",
          "type": "uint256"
        }
      ],
      "name": "delayedStrategyParamsTimestamp",
      "outputs": [
        {
          "internalType": "uint256",
          "name": "",
          "type": "uint256"
        }
      ],
      "stateMutability": "view",
      "type": "function"
    },
    {
      "inputs": [],
      "name": "internalParams",
      "outputs": [
        {
          "components": [
            {
              "internalType": "contract IProtocolGovernance",
              "name": "protocolGovernance",
              "type": "address"
            },
            {
              "internalType": "contract IVaultRegistry",
              "name": "registry",
              "type": "address"
            },
            {
              "internalType": "contract IVault",
              "name": "singleton",
              "type": "address"
            }
          ],
          "internalType": "struct IVaultGovernance.InternalParams",
          "name": "",
          "type": "tuple"
        }
      ],
      "stateMutability": "view",
      "type": "function"
    },
    {
      "inputs": [],
      "name": "internalParamsTimestamp",
      "outputs": [
        {
          "internalType": "uint256",
          "name": "",
          "type": "uint256"
        }
      ],
      "stateMutability": "view",
      "type": "function"
    },
    {
      "inputs": [
        {
          "internalType": "uint256",
          "name": "nft",
          "type": "uint256"
        },
        {
          "components": [
            {
              "internalType": "uint256",
              "name": "swapSlippageD",
              "type": "uint256"
            },
            {
              "internalType": "address",
              "name": "poolForSwap",
              "type": "address"
            },
            {
              "internalType": "address",
              "name": "cake",
              "type": "address"
            },
            {
              "internalType": "address",
              "name": "underlyingToken",
              "type": "address"
            },
            {
              "internalType": "address",
              "name": "smartRouter",
              "type": "address"
            },
            {
              "internalType": "uint32",
              "name": "averageTickTimespan",
              "type": "uint32"
            }
          ],
          "internalType": "struct IPancakeSwapVaultGovernance.StrategyParams",
          "name": "params",
          "type": "tuple"
        }
      ],
      "name": "setStrategyParams",
      "outputs": [],
      "stateMutability": "nonpayable",
      "type": "function"
    },
    {
      "inputs": [
        {
          "components": [
            {
              "internalType": "contract IPancakeNonfungiblePositionManager",
              "name": "positionManager",
              "type": "address"
            },
            {
              "internalType": "contract IOracle",
              "name": "oracle",
              "type": "address"
            }
          ],
          "internalType": "struct IPancakeSwapVaultGovernance.DelayedProtocolParams",
          "name": "params",
          "type": "tuple"
        }
      ],
      "name": "stageDelayedProtocolParams",
      "outputs": [],
      "stateMutability": "nonpayable",
      "type": "function"
    },
    {
      "inputs": [
        {
          "internalType": "uint256",
          "name": "nft",
          "type": "uint256"
        },
        {
          "components": [
            {
              "internalType": "uint32",
              "name": "safetyIndicesSet",
              "type": "uint32"
            }
          ],
          "internalType": "struct IPancakeSwapVaultGovernance.DelayedStrategyParams",
          "name": "params",
          "type": "tuple"
        }
      ],
      "name": "stageDelayedStrategyParams",
      "outputs": [],
      "stateMutability": "nonpayable",
      "type": "function"
    },
    {
      "inputs": [
        {
          "components": [
            {
              "internalType": "contract IProtocolGovernance",
              "name": "protocolGovernance",
              "type": "address"
            },
            {
              "internalType": "contract IVaultRegistry",
              "name": "registry",
              "type": "address"
            },
            {
              "internalType": "contract IVault",
              "name": "singleton",
              "type": "address"
            }
          ],
          "internalType": "struct IVaultGovernance.InternalParams",
          "name": "newParams",
          "type": "tuple"
        }
      ],
      "name": "stageInternalParams",
      "outputs": [],
      "stateMutability": "nonpayable",
      "type": "function"
    },
    {
      "inputs": [],
      "name": "stagedDelayedProtocolParams",
      "outputs": [
        {
          "components": [
            {
              "internalType": "contract IPancakeNonfungiblePositionManager",
              "name": "positionManager",
              "type": "address"
            },
            {
              "internalType": "contract IOracle",
              "name": "oracle",
              "type": "address"
            }
          ],
          "internalType": "struct IPancakeSwapVaultGovernance.DelayedProtocolParams",
          "name": "",
          "type": "tuple"
        }
      ],
      "stateMutability": "view",
      "type": "function"
    },
    {
      "inputs": [
        {
          "internalType": "uint256",
          "name": "nft",
          "type": "uint256"
        }
      ],
      "name": "stagedDelayedStrategyParams",
      "outputs": [
        {
          "components": [
            {
              "internalType": "uint32",
              "name": "safetyIndicesSet",
              "type": "uint32"
            }
          ],
          "internalType": "struct IPancakeSwapVaultGovernance.DelayedStrategyParams",
          "name": "",
          "type": "tuple"
        }
      ],
      "stateMutability": "view",
      "type": "function"
    },
    {
      "inputs": [],
      "name": "stagedInternalParams",
      "outputs": [
        {
          "components": [
            {
              "internalType": "contract IProtocolGovernance",
              "name": "protocolGovernance",
              "type": "address"
            },
            {
              "internalType": "contract IVaultRegistry",
              "name": "registry",
              "type": "address"
            },
            {
              "internalType": "contract IVault",
              "name": "singleton",
              "type": "address"
            }
          ],
          "internalType": "struct IVaultGovernance.InternalParams",
          "name": "",
          "type": "tuple"
        }
      ],
      "stateMutability": "view",
      "type": "function"
    },
    {
      "inputs": [
        {
          "internalType": "uint256",
          "name": "nft",
          "type": "uint256"
        }
      ],
      "name": "strategyParams",
      "outputs": [
        {
          "components": [
            {
              "internalType": "uint256",
              "name": "swapSlippageD",
              "type": "uint256"
            },
            {
              "internalType": "address",
              "name": "poolForSwap",
              "type": "address"
            },
            {
              "internalType": "address",
              "name": "cake",
              "type": "address"
            },
            {
              "internalType": "address",
              "name": "underlyingToken",
              "type": "address"
            },
            {
              "internalType": "address",
              "name": "smartRouter",
              "type": "address"
            },
            {
              "internalType": "uint32",
              "name": "averageTickTimespan",
              "type": "uint32"
            }
          ],
          "internalType": "struct IPancakeSwapVaultGovernance.StrategyParams",
          "name": "",
          "type": "tuple"
        }
      ],
      "stateMutability": "view",
      "type": "function"
    },
    {
      "inputs": [
        {
          "internalType": "bytes4",
          "name": "interfaceId",
          "type": "bytes4"
        }
      ],
      "name": "supportsInterface",
      "outputs": [
        {
          "internalType": "bool",
          "name": "",
          "type": "bool"
        }
      ],
      "stateMutability": "view",
      "type": "function"
    }
  ],
  "bytecode": {
    "object": "0x60806040523480156200001157600080fd5b50604051620029f5380380620029f5833981016040819052620000349162000344565b815160408051808201909152600281526120ad60f11b602082015283916001600160a01b0316620000835760405162461bcd60e51b81526004016200007a91906200042a565b60405180910390fd5b5060006001600160a01b031681602001516001600160a01b031614156040518060400160405280600281526020016120ad60f11b81525090620000db5760405162461bcd60e51b81526004016200007a91906200042a565b506040808201518151808301909252600282526120ad60f11b60208301526001600160a01b0316620001225760405162461bcd60e51b81526004016200007a91906200042a565b508051600080546001600160a01b03199081166001600160a01b039384161790915560208084015160018054841691851691909117905560409384015160028054909316908416178255845184518086019095529184526120ad60f11b9084015216620001a45760405162461bcd60e51b81526004016200007a91906200042a565b5060006001600160a01b031681602001516001600160a01b031614156040518060400160405280600281526020016120ad60f11b81525090620001fc5760405162461bcd60e51b81526004016200007a91906200042a565b506040805182516001600160a01b039081166020808401919091528085015190911682840152825180830384018152606090920190925280516200024592600d9201906200024e565b505050620004bf565b8280546200025c9062000482565b90600052602060002090601f016020900481019282620002805760008555620002cb565b82601f106200029b57805160ff1916838001178555620002cb565b82800160010185558215620002cb579182015b82811115620002cb578251825591602001919060010190620002ae565b50620002d9929150620002dd565b5090565b5b80821115620002d95760008155600101620002de565b604080519081016001600160401b03811182821017156200032557634e487b7160e01b600052604160045260246000fd5b60405290565b6001600160a01b03811681146200034157600080fd5b50565b60008082840360a08112156200035957600080fd5b60608112156200036857600080fd5b604051606081016001600160401b03811182821017156200039957634e487b7160e01b600052604160045260246000fd5b6040528451620003a9816200032b565b81526020850151620003bb816200032b565b60208201526040850151620003d0816200032b565b604082810191909152909350605f1982011215620003ed57600080fd5b50620003f8620002f4565b606084015162000408816200032b565b815260808401516200041a816200032b565b6020820152919491935090915050565b600060208083528351808285015260005b8181101562000459578581018301518582016040015282016200043b565b818111156200046c576000604083870101525b50601f01601f1916929092016040019392505050565b600181811c908216806200049757607f821691505b60208210811415620004b957634e487b7160e01b600052602260045260246000fd5b50919050565b61252680620004cf6000396000f3fe608060405234801561001057600080fd5b50600436106101585760003560e01c80637ac46fbb116100c3578063b0e6ba341161007c578063b0e6ba3414610400578063b2fe31ad14610413578063c2cbdc6714610426578063d34cc38014610455578063d4a07d341461045d578063e4af6e791461046557600080fd5b80637ac46fbb146102f857806386c6be3e146103585780638860d248146103ab57806398347a5d146103be578063a0a8e460146103c6578063ae12783f146103ce57600080fd5b80631c7f4c73116101155780631c7f4c73146102605780632528171414610268578063511ce7981461027b57806359f3dae71461029b5780636707acee146102c357806375d0c0dc146102e357600080fd5b806301ffc9a71461015d57806306a4623914610185578063099465381461019d5780630bdedd56146101b25780630e3e80ac146101c557806312466b68146101eb575b600080fd5b61017061016b366004611cbf565b61046d565b60405190151581526020015b60405180910390f35b640312e302e360dc1b5b60405190815260200161017c565b6101b06101ab366004611d4c565b61049e565b005b6101b06101c0366004611dbe565b610690565b7f50616e63616b65537761705661756c74476f7665726e616e636500000000000061018f565b6101fe6101f9366004611dbe565b610786565b60405161017c9190815181526020808301516001600160a01b03908116918301919091526040808401518216908301526060808401518216908301526080808401519091169082015260a09182015163ffffffff169181019190915260c00190565b60065461018f565b6101b0610276366004611dd7565b6108ba565b61018f610289366004611dbe565b6000908152600c602052604090205490565b6102ae6102a9366004611dbe565b610987565b604051905163ffffffff16815260200161017c565b61018f6102d1366004611dbe565b60009081526009602052604090205490565b6102eb610a75565b60405161017c9190611e5c565b61034b604080516060810182526000808252602082018190529181019190915250604080516060810182526000546001600160a01b03908116825260015481166020830152600254169181019190915290565b60405161017c9190611e6f565b61034b604080516060810182526000808252602082018190529181019190915250604080516060810182526003546001600160a01b03908116825260045481166020830152600554169181019190915290565b6102ae6103b9366004611dbe565b610aa0565b6101b0610afd565b6102eb610c05565b6103e16103dc366004611ec2565b610c18565b604080516001600160a01b03909316835260208301919091520161017c565b6101b061040e366004611fc7565b610d03565b6101b0610421366004611ff1565b610ecd565b61042e610fd8565b6040805182516001600160a01b03908116825260209384015116928101929092520161017c565b61042e6110b7565b6101b06110d8565b600f5461018f565b6000610478826111fd565b80610493575063c89a3f9960e01b6001600160e01b03198316145b92915050565b905090565b6104a6611233565b805160408051808201909152600281526120ad60f11b6020820152906001600160a01b03166104f15760405162461bcd60e51b81526004016104e89190611e5c565b60405180910390fd5b5060006001600160a01b031681602001516001600160a01b031614156040518060400160405280600281526020016120ad60f11b815250906105465760405162461bcd60e51b81526004016104e89190611e5c565b506040808201518151808301909252600282526120ad60f11b60208301526001600160a01b031661058a5760405162461bcd60e51b81526004016104e89190611e5c565b508051600380546001600160a01b03199081166001600160a01b03938416179091556020808401516004805484169185169190911781556040808601516005805490951690861617909355600054835163bba3293960e01b8152935194169363bba3293993808301939290829003018186803b15801561060957600080fd5b505afa15801561061d573d6000803e3d6000fd5b505050506040513d601f19601f820116820180604052508101906106419190612009565b61064b9042612038565b6006819055604051339132917f0887cab3184f7c02b16978ab31f8acee05979f59fc3da6abe5bf71105ec3179d9161068591869190612050565b60405180910390a350565b610699816112eb565b600081815260076020526040902080548291339132917fa363920f84c4a3e8f1fbb02a2f8b5f0d7438886cb05a7d98882af9bd66d16426916106da9061208d565b80601f01602080910402602001604051908101604052809291908181526020018280546107069061208d565b80156107535780601f1061072857610100808354040283529160200191610753565b820191906000526020600020905b81548152906001019060200180831161073657829003601f168201915b505050505080602001905181019061076b91906120d4565b604051905163ffffffff16815260200160405180910390a450565b6040805160c081018252600080825260208201819052918101829052606081018290526080810182905260a0810191909152600082815260106020526040902080546107d19061208d565b151590506108105750506040805160c081018252600080825260208201819052918101829052606081018290526080810182905260a081019190915290565b600082815260106020526040902080546108299061208d565b80601f01602080910402602001604051908101604052809291908181526020018280546108559061208d565b80156108a25780601f10610877576101008083540402835291602001916108a2565b820191906000526020600020905b81548152906001019060200180831161088557829003601f168201915b50505050508060200190518101906104939190612120565b60016108c960208301836121c2565b63ffffffff1611604051806040016040528060048152602001634c494d5560e01b8152509061090b5760405162461bcd60e51b81526004016104e89190611e5c565b50610935828260405160200161092191906121df565b6040516020818303038152906040526113dc565b600082815260096020526040908190205490518391339132917f4cceb02b6b172e9c19155fccc4d799437a0d50ad922ea9f0f41b1cb3a17b12e89161097b9187916121fc565b60405180910390a45050565b604080516020810190915260008152600082815260086020526040902080546109af9061208d565b151590506109cb57505060408051602081019091526000815290565b600082815260086020526040902080546109e49061208d565b80601f0160208091040260200160405190810160405280929190818152602001828054610a109061208d565b8015610a5d5780601f10610a3257610100808354040283529160200191610a5d565b820191906000526020600020905b815481529060010190602001808311610a4057829003601f168201915b505050505080602001905181019061049391906120d4565b60606104997f50616e63616b65537761705661756c74476f7665726e616e63650000000000006114e8565b60408051602081019091526000815260008281526007602052604090208054610ac89061208d565b15159050610ae45750506040805160208101909152602a815290565b600082815260076020526040902080546109e49061208d565b610b05611554565b336001600160a01b0316326001600160a01b03167fb57a42e9f64dfc9c6b9e412ea001a45c0e4d3f26c8d160381a418ff92269d052600d8054610b479061208d565b80601f0160208091040260200160405190810160405280929190818152602001828054610b739061208d565b8015610bc05780601f10610b9557610100808354040283529160200191610bc0565b820191906000526020600020905b815481529060010190602001808311610ba357829003601f168201915b5050505050806020019051810190610bd89190612221565b6040805182516001600160a01b0390811682526020938401511692810192909252015b60405180910390a3565b6060610499640312e302e360dc1b6114e8565b6000806000610c2688611608565b60405163295c126d60e21b815291945092508391506001600160a01b0382169063a57049b490610c649085908d908c908c908c908c906004016122c4565b600060405180830381600087803b158015610c7e57600080fd5b505af1158015610c92573d6000803e3d6000fd5b50506040805162ffffff8b1660208201523393503292507f8a4513c05d15df8ece912856923273e166e39f5c9c2b43d2b38594023494a0e0918d910160408051601f1981840301815290829052610cef92918e9088908a90612312565b60405180910390a350965096945050505050565b6040805180820190915260048152634c494d4f60e01b6020820152633b9aca0082351115610d445760405162461bcd60e51b81526004016104e89190611e5c565b506000610d5760c0830160a084016121c2565b63ffffffff1611604051806040016040528060048152602001634c494d5560e01b81525090610d995760405162461bcd60e51b81526004016104e89190611e5c565b506000610dac604083016020840161235c565b6001600160a01b031614158015610ddc57506000610dd0606083016040840161235c565b6001600160a01b031614155b8015610e0157506000610df5608083016060840161235c565b6001600160a01b031614155b8015610e2657506000610e1a60a083016080840161235c565b6001600160a01b031614155b6040518060400160405280600281526020016120ad60f11b81525090610e5f5760405162461bcd60e51b81526004016104e89190611e5c565b50610e898282604051602001610e759190612379565b6040516020818303038152906040526117f9565b81336001600160a01b0316326001600160a01b03167f4cf675595c4f2a629af526871adfff6572ed58e36a8bfe28a8452d173a985c338460405161097b9190612379565b6000610edc602083018361235c565b6001600160a01b031614156040518060400160405280600281526020016120ad60f11b81525090610f205760405162461bcd60e51b81526004016104e89190611e5c565b506000610f33604083016020840161235c565b6001600160a01b031614156040518060400160405280600281526020016120ad60f11b81525090610f775760405162461bcd60e51b81526004016104e89190611e5c565b50610fa081604051602001610f8c9190612438565b604051602081830303815290604052611826565b600f54604051339132917f88e619a5dce560314fdd4895b08c256978617047a99ffc847d45400df1f377a79161068591869190612446565b6040805180820190915260008082526020820152600e8054610ff99061208d565b151590506110195750604080518082019091526000808252602082015290565b600e80546110269061208d565b80601f01602080910402602001604051908101604052809291908181526020018280546110529061208d565b801561109f5780601f106110745761010080835404028352916020019161109f565b820191906000526020600020905b81548152906001019060200180831161108257829003601f168201915b50505050508060200190518101906104999190612221565b6040805180820190915260008082526020820152600d80546110269061208d565b6110e0611233565b6006546040805180820190915260048152631395531360e21b60208201529061111c5760405162461bcd60e51b81526004016104e89190611e5c565b5060065442101560405180604001604052806002815260200161545360f01b8152509061115c5760405162461bcd60e51b81526004016104e89190611e5c565b5060038054600080546001600160a01b038084166001600160a01b03199283168117845560048054600180548286169087168117909155600580546002805497821697891688179055600698909855978616909855841690559290911690925560408051918252602082019390935291820152339032907fef3e4bc9725fa684957d7de03c6dcd01078ee86cf78ceef25c5f8346df69cc9990606001610bfb565b60006301ffc9a760e01b6001600160e01b03198316148061049357506001600160e01b0319821663effda0f560e01b1492915050565b600054604051630935e01b60e21b81523360048201526001600160a01b03909116906324d7806c9060240160206040518083038186803b15801561127657600080fd5b505afa15801561128a573d6000803e3d6000fd5b505050506040513d601f19601f820116820180604052508101906112ae9190612461565b6040518060400160405280600381526020016223292160e91b815250906112e85760405162461bcd60e51b81526004016104e89190611e5c565b50565b6112f481611901565b60008181526009602090815260409182902054825180840190935260048352631395531360e21b9183019190915290816113415760405162461bcd60e51b81526004016104e89190611e5c565b508042101560405180604001604052806002815260200161545360f01b8152509061137f5760405162461bcd60e51b81526004016104e89190611e5c565b506000828152600860209081526040808320600790925290912081549091906113a79061208d565b6113b2929190611b71565b5060008281526008602052604081206113ca91611bfc565b50600090815260096020526040812055565b6113e582611901565b6000828152600860209081526040909120825161140492840190611c36565b506000828152600760205260408120805461141e9061208d565b15905061142c57600161142f565b60005b60ff169050806000800160009054906101000a90046001600160a01b03166001600160a01b031663bba329396040518163ffffffff1660e01b815260040160206040518083038186803b15801561148557600080fd5b505afa158015611499573d6000803e3d6000fd5b505050506040513d601f19601f820116820180604052508101906114bd9190612009565b6114c79190612483565b6114d19042612038565b600093845260096020526040909320929092555050565b604080516020808252818301909252606091602082018180368337019050509050602060005b602081101561154657838160208110611529576115296124a2565b1a61153657809150611546565b61153f816124b8565b905061150e565b508152602081019190915290565b61155c611233565b600f546040805180820190915260048152631395531360e21b6020820152906115985760405162461bcd60e51b81526004016104e89190611e5c565b50600f5442101560405180604001604052806002815260200161545360f01b815250906115d85760405162461bcd60e51b81526004016104e89190611e5c565b50600e600d9080546115e99061208d565b6115f4929190611b71565b50611601600e6000611bfc565b6000600f55565b600080546040516363e85d2d60e01b81523360048201526001602482015282916001600160a01b03169081906363e85d2d9060440160206040518083038186803b15801561165557600080fd5b505afa158015611669573d6000803e3d6000fd5b505050506040513d601f19601f8201168201806040525081019061168d9190612461565b6040518060400160405280600381526020016223292160e91b815250906116c75760405162461bcd60e51b81526004016104e89190611e5c565b5060015460408051631112eee760e31b815290516001600160a01b039092169182916388977738916004808301926020929190829003018186803b15801561170e57600080fd5b505afa158015611722573d6000803e3d6000fd5b505050506040513d601f19601f820116820180604052508101906117469190612009565b611751906001612038565b60025490935061176a906001600160a01b031684611ad4565b6040516305c4fdf960e01b81526001600160a01b0380831660048301528781166024830152919550908216906305c4fdf990604401602060405180830381600087803b1580156117b957600080fd5b505af11580156117cd573d6000803e3d6000fd5b505050506040513d601f19601f820116820180604052508101906117f19190612009565b505050915091565b61180282611901565b6000828152601060209081526040909120825161182192840190611c36565b505050565b61182e611233565b6000600d805461183d9061208d565b15905061184b57600161184e565b60005b60ff16905081600e9080519060200190611869929190611c36565b506000546040805163bba3293960e01b8152905183926001600160a01b03169163bba32939916004808301926020929190829003018186803b1580156118ae57600080fd5b505afa1580156118c2573d6000803e3d6000fd5b505050506040513d601f19601f820116820180604052508101906118e69190612009565b6118f09190612483565b6118fa9042612038565b600f555050565b600054604051630935e01b60e21b81523360048201526001600160a01b03909116906324d7806c9060240160206040518083038186803b15801561194457600080fd5b505afa158015611958573d6000803e3d6000fd5b505050506040513d601f19601f8201168201806040525081019061197c9190612461565b80611a09575060015460405163020604bf60e21b81526004810183905233916001600160a01b03169063081812fc9060240160206040518083038186803b1580156119c657600080fd5b505afa1580156119da573d6000803e3d6000fd5b505050506040513d601f19601f820116820180604052508101906119fe91906124d3565b6001600160a01b0316145b80611a9657506001546040516331a9108f60e11b81526004810183905233916001600160a01b031690636352211e9060240160206040518083038186803b158015611a5357600080fd5b505afa158015611a67573d6000803e3d6000fd5b505050506040513d601f19601f82011682018060405250810190611a8b91906124d3565b6001600160a01b0316145b6040518060400160405280600381526020016223292160e91b81525090611ad05760405162461bcd60e51b81526004016104e89190611e5c565b5050565b6000763d602d80600a3d3981f3363d3d373d3d3d363d730000008360601b60e81c176000526e5af43d82803e903d91602b57fd5bf38360781b1760205281603760096000f590506001600160a01b0381166104935760405162461bcd60e51b815260206004820152601760248201527f455243313136373a2063726561746532206661696c656400000000000000000060448201526064016104e8565b828054611b7d9061208d565b90600052602060002090601f016020900481019282611b9f5760008555611bec565b82601f10611bb05780548555611bec565b82800160010185558215611bec57600052602060002091601f016020900482015b82811115611bec578254825591600101919060010190611bd1565b50611bf8929150611caa565b5090565b508054611c089061208d565b6000825580601f10611c18575050565b601f0160209004906000526020600020908101906112e89190611caa565b828054611c429061208d565b90600052602060002090601f016020900481019282611c645760008555611bec565b82601f10611c7d57805160ff1916838001178555611bec565b82800160010185558215611bec579182015b82811115611bec578251825591602001919060010190611c8f565b5b80821115611bf85760008155600101611cab565b600060208284031215611cd157600080fd5b81356001600160e01b031981168114611ce957600080fd5b9392505050565b634e487b7160e01b600052604160045260246000fd5b604051601f8201601f1916810167ffffffffffffffff81118282101715611d2f57611d2f611cf0565b604052919050565b6001600160a01b03811681146112e857600080fd5b600060608284031215611d5e57600080fd5b6040516060810181811067ffffffffffffffff82111715611d8157611d81611cf0565b6040528235611d8f81611d37565b81526020830135611d9f81611d37565b60208201526040830135611db281611d37565b60408201529392505050565b600060208284031215611dd057600080fd5b5035919050565b6000808284036040811215611deb57600080fd5b833592506020601f1982011215611e0157600080fd5b506020830190509250929050565b6000815180845260005b81811015611e3557602081850181015186830182015201611e19565b81811115611e47576000602083870101525b50601f01601f19169290920160200192915050565b602081526000611ce96020830184611e0f565b60608101610493828480516001600160a01b03908116835260208083015182169084015260409182015116910152565b8035611eaa81611d37565b919050565b803562ffffff81168114611eaa57600080fd5b60008060008060008060c08789031215611edb57600080fd5b863567ffffffffffffffff80821115611ef357600080fd5b818901915089601f830112611f0757600080fd5b8135602082821115611f1b57611f1b611cf0565b8160051b9250611f2c818401611d06565b828152928401810192818101908d851115611f4657600080fd5b948201945b84861015611f705785359350611f6084611d37565b8382529482019490820190611f4b565b9a50611f7f90508b8201611e9f565b985050505050611f9160408801611eaf565b9350611f9f60608801611e9f565b9250611fad60808801611e9f565b9150611fbb60a08801611e9f565b90509295509295509295565b60008082840360e0811215611fdb57600080fd5b8335925060c0601f1982011215611e0157600080fd5b60006040828403121561200357600080fd5b50919050565b60006020828403121561201b57600080fd5b5051919050565b634e487b7160e01b600052601160045260246000fd5b6000821982111561204b5761204b612022565b500190565b60808101612080828580516001600160a01b03908116835260208083015182169084015260409182015116910152565b8260608301529392505050565b600181811c908216806120a157607f821691505b6020821081141561200357634e487b7160e01b600052602260045260246000fd5b63ffffffff811681146112e857600080fd5b6000602082840312156120e657600080fd5b6040516020810181811067ffffffffffffffff8211171561210957612109611cf0565b6040528251612117816120c2565b81529392505050565b600060c0828403121561213257600080fd5b60405160c0810181811067ffffffffffffffff8211171561215557612155611cf0565b60405282518152602083015161216a81611d37565b6020820152604083015161217d81611d37565b6040820152606083015161219081611d37565b606082015260808301516121a381611d37565b608082015260a08301516121b6816120c2565b60a08201529392505050565b6000602082840312156121d457600080fd5b8135611ce9816120c2565b6020810182356121ee816120c2565b63ffffffff16909152919050565b60408101833561220b816120c2565b63ffffffff168252602090910191909152919050565b60006040828403121561223357600080fd5b6040516040810181811067ffffffffffffffff8211171561225657612256611cf0565b604052825161226481611d37565b8152602083015161227481611d37565b60208201529392505050565b600081518084526020808501945080840160005b838110156122b95781516001600160a01b031687529582019590820190600101612294565b509495945050505050565b86815260c0602082015260006122dd60c0830188612280565b62ffffff969096166040830152506001600160a01b039384166060820152918316608083015290911660a09091015292915050565b60a08152600061232560a0830188612280565b82810360208401526123378188611e0f565b6001600160a01b03968716604085015294909516606083015250608001529392505050565b60006020828403121561236e57600080fd5b8135611ce981611d37565b8135815260c08101602083013561238f81611d37565b6001600160a01b0390811660208401526040840135906123ae82611d37565b90811660408401526060840135906123c582611d37565b90811660608401526080840135906123dc82611d37565b16608083015260a08301356123f0816120c2565b63ffffffff811660a08401525092915050565b803561240e81611d37565b6001600160a01b03908116835260208201359061242a82611d37565b808216602085015250505050565b604081016104938284612403565b606081016124548285612403565b8260408301529392505050565b60006020828403121561247357600080fd5b81518015158114611ce957600080fd5b600081600019048311821515161561249d5761249d612022565b500290565b634e487b7160e01b600052603260045260246000fd5b60006000198214156124cc576124cc612022565b5060010190565b6000602082840312156124e557600080fd5b8151611ce981611d3756fea2646970667358221220b23741d7fe9f1d8ef6ccc30f38803bc335c07d3c083e98e85820c2a251aa7ca664736f6c63430008090033",
    "linkReferences": {}
  },
  "methodIdentifiers": {
    "commitDelayedProtocolParams()": "98347a5d",
    "commitDelayedStrategyParams(uint256)": "0bdedd56",
    "commitInternalParams()": "d4a07d34",
    "contractName()": "75d0c0dc",
    "contractNameBytes()": "0e3e80ac",
    "contractVersion()": "a0a8e460",
    "contractVersionBytes()": "06a46239",
    "createVault(address[],address,uint24,address,address,address)": "ae12783f",
    "delayedProtocolParams()": "d34cc380",
    "delayedProtocolParamsTimestamp()": "e4af6e79",
    "delayedProtocolPerVaultParamsTimestamp(uint256)": "511ce798",
    "delayedStrategyParams(uint256)": "8860d248",
    "delayedStrategyParamsTimestamp(uint256)": "6707acee",
    "internalParams()": "7ac46fbb",
    "internalParamsTimestamp()": "1c7f4c73",
    "setStrategyParams(uint256,(uint256,address,address,address,address,uint32))": "b0e6ba34",
    "stageDelayedProtocolParams((address,address))": "b2fe31ad",
    "stageDelayedStrategyParams(uint256,(uint32))": "25281714",
    "stageInternalParams((address,address,address))": "09946538",
    "stagedDelayedProtocolParams()": "c2cbdc67",
    "stagedDelayedStrategyParams(uint256)": "59f3dae7",
    "stagedInternalParams()": "86c6be3e",
    "strategyParams(uint256)": "12466b68",
    "supportsInterface(bytes4)": "01ffc9a7"
  },
  "id": 471
}