{
  "abi": [
    {
      "inputs": [
        {
          "internalType": "contract IBasePositionManager",
          "name": "positionManager_",
          "type": "address"
        }
      ],
      "stateMutability": "nonpayable",
      "type": "constructor"
    },
    {
      "anonymous": false,
      "inputs": [
        {
          "indexed": false,
          "internalType": "uint256",
          "name": "tokenId",
          "type": "uint256"
        }
      ],
      "name": "PositionBurned",
      "type": "event"
    },
    {
      "anonymous": false,
      "inputs": [
        {
          "indexed": false,
          "internalType": "uint256",
          "name": "tokenId",
          "type": "uint256"
        }
      ],
      "name": "PositionMinted",
      "type": "event"
    },
    {
      "anonymous": false,
      "inputs": [
        {
          "indexed": true,
          "internalType": "address",
          "name": "origin",
          "type": "address"
        },
        {
          "indexed": true,
          "internalType": "address",
          "name": "sender",
          "type": "address"
        }
      ],
      "name": "Rebalance",
      "type": "event"
    },
    {
      "anonymous": false,
      "inputs": [
        {
          "indexed": true,
          "internalType": "bytes32",
          "name": "role",
          "type": "bytes32"
        },
        {
          "indexed": true,
          "internalType": "bytes32",
          "name": "previousAdminRole",
          "type": "bytes32"
        },
        {
          "indexed": true,
          "internalType": "bytes32",
          "name": "newAdminRole",
          "type": "bytes32"
        }
      ],
      "name": "RoleAdminChanged",
      "type": "event"
    },
    {
      "anonymous": false,
      "inputs": [
        {
          "indexed": true,
          "internalType": "bytes32",
          "name": "role",
          "type": "bytes32"
        },
        {
          "indexed": true,
          "internalType": "address",
          "name": "account",
          "type": "address"
        },
        {
          "indexed": true,
          "internalType": "address",
          "name": "sender",
          "type": "address"
        }
      ],
      "name": "RoleGranted",
      "type": "event"
    },
    {
      "anonymous": false,
      "inputs": [
        {
          "indexed": true,
          "internalType": "bytes32",
          "name": "role",
          "type": "bytes32"
        },
        {
          "indexed": true,
          "internalType": "address",
          "name": "account",
          "type": "address"
        },
        {
          "indexed": true,
          "internalType": "address",
          "name": "sender",
          "type": "address"
        }
      ],
      "name": "RoleRevoked",
      "type": "event"
    },
    {
      "anonymous": false,
      "inputs": [
        {
          "indexed": false,
          "internalType": "uint256",
          "name": "amountIn",
          "type": "uint256"
        },
        {
          "indexed": false,
          "internalType": "uint256",
          "name": "amountOut",
          "type": "uint256"
        },
        {
          "indexed": false,
          "internalType": "uint256",
          "name": "tokenInIndex",
          "type": "uint256"
        }
      ],
      "name": "TokensSwapped",
      "type": "event"
    },
    {
      "anonymous": false,
      "inputs": [
        {
          "indexed": true,
          "internalType": "address",
          "name": "origin",
          "type": "address"
        },
        {
          "indexed": true,
          "internalType": "address",
          "name": "sender",
          "type": "address"
        },
        {
          "components": [
            {
              "internalType": "int24",
              "name": "priceImpactD6",
              "type": "int24"
            },
            {
              "internalType": "int24",
              "name": "intervalWidth",
              "type": "int24"
            },
            {
              "internalType": "int24",
              "name": "tickNeighborhood",
              "type": "int24"
            },
            {
              "internalType": "int24",
              "name": "maxDeviationForVaultPool",
              "type": "int24"
            },
            {
              "internalType": "uint256",
              "name": "amount0Desired",
              "type": "uint256"
            },
            {
              "internalType": "uint256",
              "name": "amount1Desired",
              "type": "uint256"
            },
            {
              "internalType": "uint256",
              "name": "swapSlippageD",
              "type": "uint256"
            },
            {
              "internalType": "uint256",
              "name": "swappingAmountsCoefficientD",
              "type": "uint256"
            },
            {
              "internalType": "uint256[]",
              "name": "minSwapAmounts",
              "type": "uint256[]"
            }
          ],
          "indexed": false,
          "internalType": "struct KyberPulseStrategy.MutableParams",
          "name": "mutableParams",
          "type": "tuple"
        }
      ],
      "name": "UpdateMutableParams",
      "type": "event"
    },
    {
      "inputs": [],
      "name": "ADMIN_DELEGATE_ROLE",
      "outputs": [
        {
          "internalType": "bytes32",
          "name": "",
          "type": "bytes32"
        }
      ],
      "stateMutability": "view",
      "type": "function"
    },
    {
      "inputs": [],
      "name": "ADMIN_ROLE",
      "outputs": [
        {
          "internalType": "bytes32",
          "name": "",
          "type": "bytes32"
        }
      ],
      "stateMutability": "view",
      "type": "function"
    },
    {
      "inputs": [],
      "name": "D6",
      "outputs": [
        {
          "internalType": "uint256",
          "name": "",
          "type": "uint256"
        }
      ],
      "stateMutability": "view",
      "type": "function"
    },
    {
      "inputs": [],
      "name": "D9",
      "outputs": [
        {
          "internalType": "uint256",
          "name": "",
          "type": "uint256"
        }
      ],
      "stateMutability": "view",
      "type": "function"
    },
    {
      "inputs": [],
      "name": "DEFAULT_ADMIN_ROLE",
      "outputs": [
        {
          "internalType": "bytes32",
          "name": "",
          "type": "bytes32"
        }
      ],
      "stateMutability": "view",
      "type": "function"
    },
    {
      "inputs": [],
      "name": "OPERATOR",
      "outputs": [
        {
          "internalType": "bytes32",
          "name": "",
          "type": "bytes32"
        }
      ],
      "stateMutability": "view",
      "type": "function"
    },
    {
      "inputs": [],
      "name": "Q96",
      "outputs": [
        {
          "internalType": "uint256",
          "name": "",
          "type": "uint256"
        }
      ],
      "stateMutability": "view",
      "type": "function"
    },
    {
      "inputs": [
        {
          "components": [
            {
              "internalType": "address",
              "name": "router",
              "type": "address"
            },
            {
              "internalType": "contract IERC20Vault",
              "name": "erc20Vault",
              "type": "address"
            },
            {
              "internalType": "contract IKyberVault",
              "name": "kyberVault",
              "type": "address"
            },
            {
              "internalType": "contract IOracle",
              "name": "mellowOracle",
              "type": "address"
            },
            {
              "internalType": "address[]",
              "name": "tokens",
              "type": "address[]"
            }
          ],
          "internalType": "struct KyberPulseStrategy.ImmutableParams",
          "name": "immutableParams_",
          "type": "tuple"
        },
        {
          "components": [
            {
              "internalType": "int24",
              "name": "priceImpactD6",
              "type": "int24"
            },
            {
              "internalType": "int24",
              "name": "intervalWidth",
              "type": "int24"
            },
            {
              "internalType": "int24",
              "name": "tickNeighborhood",
              "type": "int24"
            },
            {
              "internalType": "int24",
              "name": "maxDeviationForVaultPool",
              "type": "int24"
            },
            {
              "internalType": "uint256",
              "name": "amount0Desired",
              "type": "uint256"
            },
            {
              "internalType": "uint256",
              "name": "amount1Desired",
              "type": "uint256"
            },
            {
              "internalType": "uint256",
              "name": "swapSlippageD",
              "type": "uint256"
            },
            {
              "internalType": "uint256",
              "name": "swappingAmountsCoefficientD",
              "type": "uint256"
            },
            {
              "internalType": "uint256[]",
              "name": "minSwapAmounts",
              "type": "uint256[]"
            }
          ],
          "internalType": "struct KyberPulseStrategy.MutableParams",
          "name": "mutableParams_",
          "type": "tuple"
        },
        {
          "internalType": "uint256",
          "name": "priceX96",
          "type": "uint256"
        },
        {
          "internalType": "uint256",
          "name": "targetRatioOfToken1X96",
          "type": "uint256"
        }
      ],
      "name": "calculateAmountsForSwap",
      "outputs": [
        {
          "internalType": "uint256",
          "name": "tokenInIndex",
          "type": "uint256"
        },
        {
          "internalType": "uint256",
          "name": "amountIn",
          "type": "uint256"
        }
      ],
      "stateMutability": "view",
      "type": "function"
    },
    {
      "inputs": [
        {
          "components": [
            {
              "internalType": "int24",
              "name": "priceImpactD6",
              "type": "int24"
            },
            {
              "internalType": "int24",
              "name": "intervalWidth",
              "type": "int24"
            },
            {
              "internalType": "int24",
              "name": "tickNeighborhood",
              "type": "int24"
            },
            {
              "internalType": "int24",
              "name": "maxDeviationForVaultPool",
              "type": "int24"
            },
            {
              "internalType": "uint256",
              "name": "amount0Desired",
              "type": "uint256"
            },
            {
              "internalType": "uint256",
              "name": "amount1Desired",
              "type": "uint256"
            },
            {
              "internalType": "uint256",
              "name": "swapSlippageD",
              "type": "uint256"
            },
            {
              "internalType": "uint256",
              "name": "swappingAmountsCoefficientD",
              "type": "uint256"
            },
            {
              "internalType": "uint256[]",
              "name": "minSwapAmounts",
              "type": "uint256[]"
            }
          ],
          "internalType": "struct KyberPulseStrategy.MutableParams",
          "name": "mutableParams_",
          "type": "tuple"
        },
        {
          "internalType": "int24",
          "name": "spotTick",
          "type": "int24"
        },
        {
          "internalType": "contract IPool",
          "name": "pool",
          "type": "address"
        },
        {
          "internalType": "uint256",
          "name": "positionNft",
          "type": "uint256"
        }
      ],
      "name": "calculateNewPosition",
      "outputs": [
        {
          "components": [
            {
              "internalType": "int24",
              "name": "lowerTick",
              "type": "int24"
            },
            {
              "internalType": "int24",
              "name": "upperTick",
              "type": "int24"
            }
          ],
          "internalType": "struct KyberPulseStrategy.Interval",
          "name": "newInterval",
          "type": "tuple"
        },
        {
          "internalType": "bool",
          "name": "neededNewInterval",
          "type": "bool"
        }
      ],
      "stateMutability": "view",
      "type": "function"
    },
    {
      "inputs": [
        {
          "components": [
            {
              "internalType": "int24",
              "name": "lowerTick",
              "type": "int24"
            },
            {
              "internalType": "int24",
              "name": "upperTick",
              "type": "int24"
            }
          ],
          "internalType": "struct KyberPulseStrategy.Interval",
          "name": "interval",
          "type": "tuple"
        },
        {
          "internalType": "uint160",
          "name": "sqrtSpotPriceX96",
          "type": "uint160"
        },
        {
          "internalType": "uint256",
          "name": "spotPriceX96",
          "type": "uint256"
        }
      ],
      "name": "calculateTargetRatioOfToken1",
      "outputs": [
        {
          "internalType": "uint256",
          "name": "targetRatioOfToken1X96",
          "type": "uint256"
        }
      ],
      "stateMutability": "pure",
      "type": "function"
    },
    {
      "inputs": [
        {
          "components": [
            {
              "internalType": "address",
              "name": "router",
              "type": "address"
            },
            {
              "internalType": "contract IERC20Vault",
              "name": "erc20Vault",
              "type": "address"
            },
            {
              "internalType": "contract IKyberVault",
              "name": "kyberVault",
              "type": "address"
            },
            {
              "internalType": "contract IOracle",
              "name": "mellowOracle",
              "type": "address"
            },
            {
              "internalType": "address[]",
              "name": "tokens",
              "type": "address[]"
            }
          ],
          "internalType": "struct KyberPulseStrategy.ImmutableParams",
          "name": "params",
          "type": "tuple"
        }
      ],
      "name": "checkImmutableParams",
      "outputs": [],
      "stateMutability": "view",
      "type": "function"
    },
    {
      "inputs": [
        {
          "components": [
            {
              "internalType": "int24",
              "name": "priceImpactD6",
              "type": "int24"
            },
            {
              "internalType": "int24",
              "name": "intervalWidth",
              "type": "int24"
            },
            {
              "internalType": "int24",
              "name": "tickNeighborhood",
              "type": "int24"
            },
            {
              "internalType": "int24",
              "name": "maxDeviationForVaultPool",
              "type": "int24"
            },
            {
              "internalType": "uint256",
              "name": "amount0Desired",
              "type": "uint256"
            },
            {
              "internalType": "uint256",
              "name": "amount1Desired",
              "type": "uint256"
            },
            {
              "internalType": "uint256",
              "name": "swapSlippageD",
              "type": "uint256"
            },
            {
              "internalType": "uint256",
              "name": "swappingAmountsCoefficientD",
              "type": "uint256"
            },
            {
              "internalType": "uint256[]",
              "name": "minSwapAmounts",
              "type": "uint256[]"
            }
          ],
          "internalType": "struct KyberPulseStrategy.MutableParams",
          "name": "params",
          "type": "tuple"
        }
      ],
      "name": "checkMutableParams",
      "outputs": [],
      "stateMutability": "view",
      "type": "function"
    },
    {
      "inputs": [
        {
          "components": [
            {
              "internalType": "address",
              "name": "router",
              "type": "address"
            },
            {
              "internalType": "contract IERC20Vault",
              "name": "erc20Vault",
              "type": "address"
            },
            {
              "internalType": "contract IKyberVault",
              "name": "kyberVault",
              "type": "address"
            },
            {
              "internalType": "contract IOracle",
              "name": "mellowOracle",
              "type": "address"
            },
            {
              "internalType": "address[]",
              "name": "tokens",
              "type": "address[]"
            }
          ],
          "internalType": "struct KyberPulseStrategy.ImmutableParams",
          "name": "immutableParams_",
          "type": "tuple"
        },
        {
          "components": [
            {
              "internalType": "int24",
              "name": "priceImpactD6",
              "type": "int24"
            },
            {
              "internalType": "int24",
              "name": "intervalWidth",
              "type": "int24"
            },
            {
              "internalType": "int24",
              "name": "tickNeighborhood",
              "type": "int24"
            },
            {
              "internalType": "int24",
              "name": "maxDeviationForVaultPool",
              "type": "int24"
            },
            {
              "internalType": "uint256",
              "name": "amount0Desired",
              "type": "uint256"
            },
            {
              "internalType": "uint256",
              "name": "amount1Desired",
              "type": "uint256"
            },
            {
              "internalType": "uint256",
              "name": "swapSlippageD",
              "type": "uint256"
            },
            {
              "internalType": "uint256",
              "name": "swappingAmountsCoefficientD",
              "type": "uint256"
            },
            {
              "internalType": "uint256[]",
              "name": "minSwapAmounts",
              "type": "uint256[]"
            }
          ],
          "internalType": "struct KyberPulseStrategy.MutableParams",
          "name": "mutableParams_",
          "type": "tuple"
        },
        {
          "internalType": "contract IPool",
          "name": "vaultPool",
          "type": "address"
        }
      ],
      "name": "checkTickDeviation",
      "outputs": [],
      "stateMutability": "view",
      "type": "function"
    },
    {
      "inputs": [],
      "name": "contractName",
      "outputs": [
        {
          "internalType": "string",
          "name": "",
          "type": "string"
        }
      ],
      "stateMutability": "pure",
      "type": "function"
    },
    {
      "inputs": [],
      "name": "contractNameBytes",
      "outputs": [
        {
          "internalType": "bytes32",
          "name": "",
          "type": "bytes32"
        }
      ],
      "stateMutability": "pure",
      "type": "function"
    },
    {
      "inputs": [],
      "name": "contractVersion",
      "outputs": [
        {
          "internalType": "string",
          "name": "",
          "type": "string"
        }
      ],
      "stateMutability": "pure",
      "type": "function"
    },
    {
      "inputs": [],
      "name": "contractVersionBytes",
      "outputs": [
        {
          "internalType": "bytes32",
          "name": "",
          "type": "bytes32"
        }
      ],
      "stateMutability": "pure",
      "type": "function"
    },
    {
      "inputs": [],
      "name": "depositCallback",
      "outputs": [],
      "stateMutability": "nonpayable",
      "type": "function"
    },
    {
      "inputs": [
        {
          "internalType": "bytes32",
          "name": "role",
          "type": "bytes32"
        }
      ],
      "name": "getRoleAdmin",
      "outputs": [
        {
          "internalType": "bytes32",
          "name": "",
          "type": "bytes32"
        }
      ],
      "stateMutability": "view",
      "type": "function"
    },
    {
      "inputs": [
        {
          "internalType": "bytes32",
          "name": "role",
          "type": "bytes32"
        },
        {
          "internalType": "uint256",
          "name": "index",
          "type": "uint256"
        }
      ],
      "name": "getRoleMember",
      "outputs": [
        {
          "internalType": "address",
          "name": "",
          "type": "address"
        }
      ],
      "stateMutability": "view",
      "type": "function"
    },
    {
      "inputs": [
        {
          "internalType": "bytes32",
          "name": "role",
          "type": "bytes32"
        }
      ],
      "name": "getRoleMemberCount",
      "outputs": [
        {
          "internalType": "uint256",
          "name": "",
          "type": "uint256"
        }
      ],
      "stateMutability": "view",
      "type": "function"
    },
    {
      "inputs": [
        {
          "internalType": "bytes32",
          "name": "role",
          "type": "bytes32"
        },
        {
          "internalType": "address",
          "name": "account",
          "type": "address"
        }
      ],
      "name": "grantRole",
      "outputs": [],
      "stateMutability": "nonpayable",
      "type": "function"
    },
    {
      "inputs": [
        {
          "internalType": "bytes32",
          "name": "role",
          "type": "bytes32"
        },
        {
          "internalType": "address",
          "name": "account",
          "type": "address"
        }
      ],
      "name": "hasRole",
      "outputs": [
        {
          "internalType": "bool",
          "name": "",
          "type": "bool"
        }
      ],
      "stateMutability": "view",
      "type": "function"
    },
    {
      "inputs": [],
      "name": "immutableParams",
      "outputs": [
        {
          "internalType": "address",
          "name": "router",
          "type": "address"
        },
        {
          "internalType": "contract IERC20Vault",
          "name": "erc20Vault",
          "type": "address"
        },
        {
          "internalType": "contract IKyberVault",
          "name": "kyberVault",
          "type": "address"
        },
        {
          "internalType": "contract IOracle",
          "name": "mellowOracle",
          "type": "address"
        }
      ],
      "stateMutability": "view",
      "type": "function"
    },
    {
      "inputs": [
        {
          "internalType": "address",
          "name": "admin",
          "type": "address"
        }
      ],
      "name": "init",
      "outputs": [],
      "stateMutability": "nonpayable",
      "type": "function"
    },
    {
      "inputs": [
        {
          "components": [
            {
              "internalType": "address",
              "name": "router",
              "type": "address"
            },
            {
              "internalType": "contract IERC20Vault",
              "name": "erc20Vault",
              "type": "address"
            },
            {
              "internalType": "contract IKyberVault",
              "name": "kyberVault",
              "type": "address"
            },
            {
              "internalType": "contract IOracle",
              "name": "mellowOracle",
              "type": "address"
            },
            {
              "internalType": "address[]",
              "name": "tokens",
              "type": "address[]"
            }
          ],
          "internalType": "struct KyberPulseStrategy.ImmutableParams",
          "name": "immutableParams_",
          "type": "tuple"
        },
        {
          "internalType": "address",
          "name": "admin",
          "type": "address"
        }
      ],
      "name": "initialize",
      "outputs": [],
      "stateMutability": "nonpayable",
      "type": "function"
    },
    {
      "inputs": [],
      "name": "initialized",
      "outputs": [
        {
          "internalType": "bool",
          "name": "",
          "type": "bool"
        }
      ],
      "stateMutability": "view",
      "type": "function"
    },
    {
      "inputs": [
        {
          "internalType": "address",
          "name": "sender",
          "type": "address"
        }
      ],
      "name": "isAdmin",
      "outputs": [
        {
          "internalType": "bool",
          "name": "",
          "type": "bool"
        }
      ],
      "stateMutability": "view",
      "type": "function"
    },
    {
      "inputs": [
        {
          "internalType": "address",
          "name": "sender",
          "type": "address"
        }
      ],
      "name": "isOperator",
      "outputs": [
        {
          "internalType": "bool",
          "name": "",
          "type": "bool"
        }
      ],
      "stateMutability": "view",
      "type": "function"
    },
    {
      "inputs": [],
      "name": "kyberPool",
      "outputs": [
        {
          "internalType": "contract IPool",
          "name": "",
          "type": "address"
        }
      ],
      "stateMutability": "view",
      "type": "function"
    },
    {
      "inputs": [
        {
          "internalType": "bytes[]",
          "name": "data",
          "type": "bytes[]"
        }
      ],
      "name": "multicall",
      "outputs": [
        {
          "internalType": "bytes[]",
          "name": "results",
          "type": "bytes[]"
        }
      ],
      "stateMutability": "nonpayable",
      "type": "function"
    },
    {
      "inputs": [],
      "name": "mutableParams",
      "outputs": [
        {
          "internalType": "int24",
          "name": "priceImpactD6",
          "type": "int24"
        },
        {
          "internalType": "int24",
          "name": "intervalWidth",
          "type": "int24"
        },
        {
          "internalType": "int24",
          "name": "tickNeighborhood",
          "type": "int24"
        },
        {
          "internalType": "int24",
          "name": "maxDeviationForVaultPool",
          "type": "int24"
        },
        {
          "internalType": "uint256",
          "name": "amount0Desired",
          "type": "uint256"
        },
        {
          "internalType": "uint256",
          "name": "amount1Desired",
          "type": "uint256"
        },
        {
          "internalType": "uint256",
          "name": "swapSlippageD",
          "type": "uint256"
        },
        {
          "internalType": "uint256",
          "name": "swappingAmountsCoefficientD",
          "type": "uint256"
        }
      ],
      "stateMutability": "view",
      "type": "function"
    },
    {
      "inputs": [],
      "name": "positionManager",
      "outputs": [
        {
          "internalType": "contract IBasePositionManager",
          "name": "",
          "type": "address"
        }
      ],
      "stateMutability": "view",
      "type": "function"
    },
    {
      "inputs": [
        {
          "internalType": "uint256",
          "name": "deadline",
          "type": "uint256"
        },
        {
          "internalType": "bytes",
          "name": "swapData",
          "type": "bytes"
        }
      ],
      "name": "rebalance",
      "outputs": [],
      "stateMutability": "nonpayable",
      "type": "function"
    },
    {
      "inputs": [
        {
          "internalType": "bytes32",
          "name": "role",
          "type": "bytes32"
        },
        {
          "internalType": "address",
          "name": "account",
          "type": "address"
        }
      ],
      "name": "renounceRole",
      "outputs": [],
      "stateMutability": "nonpayable",
      "type": "function"
    },
    {
      "inputs": [
        {
          "internalType": "bytes32",
          "name": "role",
          "type": "bytes32"
        },
        {
          "internalType": "address",
          "name": "account",
          "type": "address"
        }
      ],
      "name": "revokeRole",
      "outputs": [],
      "stateMutability": "nonpayable",
      "type": "function"
    },
    {
      "inputs": [
        {
          "internalType": "bytes4",
          "name": "interfaceId",
          "type": "bytes4"
        }
      ],
      "name": "supportsInterface",
      "outputs": [
        {
          "internalType": "bool",
          "name": "",
          "type": "bool"
        }
      ],
      "stateMutability": "view",
      "type": "function"
    },
    {
      "inputs": [
        {
          "components": [
            {
              "internalType": "int24",
              "name": "priceImpactD6",
              "type": "int24"
            },
            {
              "internalType": "int24",
              "name": "intervalWidth",
              "type": "int24"
            },
            {
              "internalType": "int24",
              "name": "tickNeighborhood",
              "type": "int24"
            },
            {
              "internalType": "int24",
              "name": "maxDeviationForVaultPool",
              "type": "int24"
            },
            {
              "internalType": "uint256",
              "name": "amount0Desired",
              "type": "uint256"
            },
            {
              "internalType": "uint256",
              "name": "amount1Desired",
              "type": "uint256"
            },
            {
              "internalType": "uint256",
              "name": "swapSlippageD",
              "type": "uint256"
            },
            {
              "internalType": "uint256",
              "name": "swappingAmountsCoefficientD",
              "type": "uint256"
            },
            {
              "internalType": "uint256[]",
              "name": "minSwapAmounts",
              "type": "uint256[]"
            }
          ],
          "internalType": "struct KyberPulseStrategy.MutableParams",
          "name": "mutableParams_",
          "type": "tuple"
        }
      ],
      "name": "updateMutableParams",
      "outputs": [],
      "stateMutability": "nonpayable",
      "type": "function"
    },
    {
      "inputs": [],
      "name": "withdrawCallback",
      "outputs": [],
      "stateMutability": "nonpayable",
      "type": "function"
    }
  ],
  "bytecode": {
    "object": "0x60a06040523480156200001157600080fd5b5060405162005c0938038062005c09833981016040819052620000349162000093565b60408051808201909152600281526120ad60f11b60208201526001600160a01b038216620000805760405162461bcd60e51b8152600401620000779190620000c5565b60405180910390fd5b506001600160a01b03166080526200011d565b600060208284031215620000a657600080fd5b81516001600160a01b0381168114620000be57600080fd5b9392505050565b600060208083528351808285015260005b81811015620000f457858101830151858201604001528201620000d6565b8181111562000107576000604083870101525b50601f01601f1916929092016040019392505050565b608051615aad6200015c6000396000818161046401528181610b5901528181611415015281816132db015281816134c7015261357b0152615aad6000f3fe608060405234801561001057600080fd5b506004361061023d5760003560e01c80639010d07c1161013b578063ae358b85116100b8578063d547741f1161007c578063d547741f146105e3578063dfa24d2c146105f6578063e521826f14610609578063e8e73c2b14610611578063f936506c1461063957600080fd5b8063ae358b8514610551578063b4559f3e146102c5578063bdc3e64714610564578063c8014d5314610577578063ca15c873146105d057600080fd5b80639d59ee15116100ff5780639d59ee1514610504578063a0a8e46014610517578063a11bac741461051f578063a217fddf14610529578063ac9650d81461053157600080fd5b80639010d07c1461049e57806391d14854146104b1578063983d2737146104c45780639b44be95146104d95780639bb37ba8146104f157600080fd5b80632f2ff15d116101c95780636d70f7ae1161018d5780636d70f7ae146103e45780636e7df4d5146103f757806375b238fc1461043557806375d0c0dc1461044a578063791b98bc1461045f57600080fd5b80632f2ff15d1461031d57806336568abe146103305780634079246514610343578063551530ae1461034e5780635f408a211461035957600080fd5b80630f237274116102105780630f237274146102b2578063158ef93e146102c757806319ab453c146102d4578063248a9ca3146102e757806324d7806c1461030a57600080fd5b806301ffc9a71461024257806306a462391461026a5780630952ff54146102825780630e3e80ac14610297575b600080fd5b6102556102503660046144e8565b61064c565b60405190151581526020015b60405180910390f35b640312e302e360dc1b5b604051908152602001610261565b6102746000805160206159f183398151915281565b714b7962657250756c7365537472617465677960701b610274565b6102c56102c036600461482e565b61067c565b005b6002546102559060ff1681565b6102c56102e23660046148a5565b6108f0565b6102746102f53660046148c2565b60009081526020819052604090206001015490565b6102556103183660046148a5565b610a16565b6102c561032b3660046148db565b610a4e565b6102c561033e3660046148db565b610a78565b610274600160601b81565b610274633b9aca0081565b600854600954600a54600b54600c5461039894600281810b9563010000008304820b95600160301b8404830b95600160481b90940490920b9390929088565b604080516002998a0b815297890b602089015295880b958701959095529290950b6060850152608084015260a083019390935260c082019290925260e081019190915261010001610261565b6102556103f23660046148a5565b610af6565b61040a61040536600461490b565b610b10565b604080518351600290810b8252602094850151900b9381019390935290151590820152606001610261565b610274600080516020615a1183398151915281565b610452610d80565b60405161026191906149cc565b6104867f000000000000000000000000000000000000000000000000000000000000000081565b6040516001600160a01b039091168152602001610261565b6104866104ac3660046149df565b610da0565b6102556104bf3660046148db565b610dbf565b610274600080516020615a3183398151915281565b6002546104869061010090046001600160a01b031681565b6102746104ff366004614a01565b610de8565b6102c5610512366004614a8c565b610ed8565b61045261127b565b610274620f424081565b610274600081565b61054461053f366004614ac0565b61128e565b6040516102619190614b34565b6102c561055f366004614b96565b611382565b6102c5610572366004614a8c565b611613565b60035460045460055460065461059d936001600160a01b03908116938116928116911684565b604080516001600160a01b0395861681529385166020850152918416918301919091529091166060820152608001610261565b6102746105de3660046148c2565b611710565b6102c56105f13660046148db565b611727565b6102c5610604366004614bdc565b61174c565b6102c5611d31565b61062461061f366004614c10565b611dd5565b60408051928352602083019190915201610261565b6102c5610647366004614c83565b61205e565b60006001600160e01b03198216635a05180f60e01b14806106715750610671826122fe565b92915050565b905090565b6000816001600160a01b031663217ac2376040518163ffffffff1660e01b815260040160806040518083038186803b1580156106b757600080fd5b505afa1580156106cb573d6000803e3d6000fd5b505050506040513d601f19601f820116820180604052508101906106ef9190614d19565b5050915050600084606001516001600160a01b0316636d80125b600360040160008154811061072057610720614d75565b600091825260209091200154600780546001600160a01b0390921691600190811061074d5761074d614d75565b6000918252602091829020015460405160e085901b6001600160e01b03191681526001600160a01b03938416600482015292166024830152604482015260640160006040518083038186803b1580156107a557600080fd5b505afa1580156107b9573d6000803e3d6000fd5b505050506040513d6000823e601f3d908101601f191682016040526107e19190810190614de6565b509050806000815181106107f7576107f7614d75565b6020026020010151600014156040518060400160405280600581526020016424a72b2a2960d91b815250906108485760405162461bcd60e51b815260040161083f91906149cc565b60405180910390fd5b5060006108766108718360008151811061086457610864614d75565b6020026020010151612333565b612349565b905060006108848285614e5f565b905060008160020b121561089e5761089b81614ea7565b90505b856060015160020b8160020b12604051806040016040528060048152602001634c494d4f60e01b815250906108e65760405162461bcd60e51b815260040161083f91906149cc565b5050505050505050565b60408051808201909152600281526120ad60f11b60208201526001600160a01b0382166109305760405162461bcd60e51b815260040161083f91906149cc565b506002546040805180820190915260048152631253925560e21b60208201529060ff16156109715760405162461bcd60e51b815260040161083f91906149cc565b5061098a600080516020615a3183398151915282612682565b6109a2600080516020615a1183398151915282612682565b6109ba600080516020615a118339815191528061268c565b6109e06000805160206159f1833981519152600080516020615a1183398151915261268c565b610a06600080516020615a318339815191526000805160206159f183398151915261268c565b506002805460ff19166001179055565b6000610a30600080516020615a1183398151915283610dbf565b8061067157506106716000805160206159f183398151915283610dbf565b600082815260208190526040902060010154610a69816126d7565b610a7383836126e4565b505050565b6001600160a01b0381163314610ae85760405162461bcd60e51b815260206004820152602f60248201527f416363657373436f6e74726f6c3a2063616e206f6e6c792072656e6f756e636560448201526e103937b632b9903337b91039b2b63360891b606482015260840161083f565b610af28282612706565b5050565b6000610671600080516020615a3183398151915283610dbf565b604080518082019091526000808252602082015260008215610c7057604080518082019091526000808252602082015260405163133f757160e31b8152600481018590526000907f00000000000000000000000000000000000000000000000000000000000000006001600160a01b0316906399fbab88906024016101606040518083038186803b158015610ba457600080fd5b505afa158015610bb8573d6000803e3d6000fd5b505050506040513d601f19601f82011682018060405250810190610bdc9190614f8e565b506060810151600290810b8085526080830151820b602086015260408b01519293509089900b91610c0d919061505e565b60020b13158015610c37575087604001518260200151610c2d9190614e5f565b60020b8760020b13155b8015610c5c575081516020830151610c4f9190614e5f565b60020b886020015160020b145b15610c6d5750915060009050610d77565b50505b6000846001600160a01b03166348626a8c6040518163ffffffff1660e01b815260040160206040518083038186803b158015610cab57600080fd5b505afa158015610cbf573d6000803e3d6000fd5b505050506040513d601f19601f82011682018060405250810190610ce391906150a5565b90506000610cf182886150d8565b610cfb9088614e5f565b9050600282900b610d0c83896150d8565b610d179060026150fa565b60020b1315610d2d57610d2a828261505e565b90505b60028860200151610d3e9190615187565b610d489082614e5f565b600290810b85526020890151610d5e9190615187565b610d68908261505e565b60020b60208501525060019150505b94509492505050565b6060610677714b7962657250756c7365537472617465677960701b612728565b6000828152600160205260408120610db89083612794565b9392505050565b6000918252602082815260408084206001600160a01b0393909316845291905290205460ff1690565b600080610df885600001516127a0565b6001600160a01b031690506000610e1286602001516127a0565b6001600160a01b03169050846001600160a01b03168210610e3857600092505050610db8565b846001600160a01b03168111610e5657600160601b92505050610db8565b6000610e90610e6e6001600160a01b038816846151c1565b600160601b610e8b896001600160a01b031686600160601b612bbd565b612bbd565b90506000610ea7846001600160a01b0389166151c1565b9050610ecc81600160601b83610ec2868b600160601b612bbd565b610e8b91906151d8565b98975050505050505050565b6000600260019054906101000a90046001600160a01b03166001600160a01b03166348626a8c6040518163ffffffff1660e01b815260040160206040518083038186803b158015610f2857600080fd5b505afa158015610f3c573d6000803e3d6000fd5b505050506040513d601f19601f82011682018060405250810190610f6091906150a5565b90506000826020015160020b138015610f935750610f7f8160026150fa565b8260200151610f8e91906150d8565b60020b155b6040518060400160405280600381526020016224a72b60e91b81525090610fcd5760405162461bcd60e51b815260040161083f91906149cc565b508160200151610fdc90614ea7565b60020b826040015160020b1215801561100f5750600282602001516110019190615187565b60020b826040015160020b13155b604051806040016040528060048152602001634c494d4f60e01b8152509061104a5760405162461bcd60e51b815260040161083f91906149cc565b506000826060015160020b13604051806040016040528060048152602001634c494d5560e01b815250906110915760405162461bcd60e51b815260040161083f91906149cc565b506000826080015111604051806040016040528060028152602001612b2d60f11b815250906110d35760405162461bcd60e51b815260040161083f91906149cc565b50633b9aca0082608001511115604051806040016040528060048152602001634c494d4f60e01b8152509061111b5760405162461bcd60e51b815260040161083f91906149cc565b5060008260a0015111604051806040016040528060028152602001612b2d60f11b8152509061115d5760405162461bcd60e51b815260040161083f91906149cc565b50633b9aca008260a001511115604051806040016040528060048152602001634c494d4f60e01b815250906111a55760405162461bcd60e51b815260040161083f91906149cc565b5081610100015151600214604051806040016040528060048152602001631253959360e21b815250906111eb5760405162461bcd60e51b815260040161083f91906149cc565b50633b9aca008260c001511115604051806040016040528060048152602001634c494d4f60e01b815250906112335760405162461bcd60e51b815260040161083f91906149cc565b50633b9aca008260e001511115604051806040016040528060048152602001634c494d4f60e01b81525090610a735760405162461bcd60e51b815260040161083f91906149cc565b6060610677640312e302e360dc1b612728565b6060816001600160401b038111156112a8576112a8614512565b6040519080825280602002602001820160405280156112db57816020015b60608152602001906001900390816112c65790505b50905060005b8281101561137b5761134b308585848181106112ff576112ff614d75565b905060200281019061131191906151f0565b8080601f016020809104026020016040519081016040528093929190818152602001838380828437600092019190915250612c7092505050565b82828151811061135d5761135d614d75565b602002602001018190525080806113739061523d565b9150506112e1565b5092915050565b61138b8261174c565b8151600380546001600160a01b03199081166001600160a01b039384161782556020808601516004805484169186169190911790556040860151600580548416918616919091179055606086015160068054909316941693909317905560808401518051859361140092600792910190614415565b5090505060005b600281101561156c5761146d7f00000000000000000000000000000000000000000000000000000000000000006000198560800151848151811061144d5761144d614d75565b60200260200101516001600160a01b0316612c959092919063ffffffff16565b82602001516001600160a01b0316632e2f4cc28460800151838151811061149657611496614d75565b602002602001015163095ea7b360e01b86600001516000196040516020016114d39291906001600160a01b03929092168252602082015260400190565b6040516020818303038152906040526040518463ffffffff1660e01b815260040161150093929190615258565b600060405180830381600087803b15801561151a57600080fd5b505af192505050801561154f57506040513d6000823e601f3d908101601f1916820160405261154c919081019061528c565b60015b6115585761155a565b505b806115648161523d565b915050611407565b5081604001516001600160a01b03166316f0115b6040518163ffffffff1660e01b815260040160206040518083038186803b1580156115aa57600080fd5b505afa1580156115be573d6000803e3d6000fd5b505050506040513d601f19601f820116820180604052508101906115e2919061531f565b600260016101000a8154816001600160a01b0302191690836001600160a01b03160217905550610af2816108f0565b565b61161b612d89565b61162481610ed8565b8051600880546020808501516040860151606087015162ffffff908116600160481b026bffffff00000000000000000019928216600160301b02929092166bffffffffffff0000000000001993821663010000000265ffffffffffff199096169190971617939093171693909317178155608083015160095560a0830151600a5560c0830151600b5560e0830151600c55610100830151805184936116ce92600d9291019061447a565b505060405133915032907f4a93bf4fd5ad7bd6f34e996761761699bdcb0c01099bd4553aeee4d7c1b4ae8a90611705908590615377565b60405180910390a350565b600081815260016020526040812061067190612dcc565b600082815260208190526040902060010154611742816126d7565b610a738383612706565b806080015151600214604051806040016040528060048152602001631253959360e21b815250906117905760405162461bcd60e51b815260040161083f91906149cc565b5060006001600160a01b031681608001516000815181106117b3576117b3614d75565b60200260200101516001600160a01b031614156040518060400160405280600281526020016120ad60f11b815250906117ff5760405162461bcd60e51b815260040161083f91906149cc565b5060006001600160a01b0316816080015160018151811061182257611822614d75565b60200260200101516001600160a01b031614156040518060400160405280600281526020016120ad60f11b8152509061186e5760405162461bcd60e51b815260040161083f91906149cc565b50805160408051808201909152600281526120ad60f11b6020820152906001600160a01b03166118b15760405162461bcd60e51b815260040161083f91906149cc565b50606081015160408051808201909152600281526120ad60f11b6020820152906001600160a01b03166118f75760405162461bcd60e51b815260040161083f91906149cc565b5060006001600160a01b031681602001516001600160a01b031614156040518060400160405280600281526020016120ad60f11b8152509061194c5760405162461bcd60e51b815260040161083f91906149cc565b50600081602001516001600160a01b031663697222336040518163ffffffff1660e01b815260040160006040518083038186803b15801561198c57600080fd5b505afa1580156119a0573d6000803e3d6000fd5b505050506040513d6000823e601f3d908101601f191682016040526119c89190810190615415565b90508051600214604051806040016040528060048152602001631253959360e21b81525090611a0a5760405162461bcd60e51b815260040161083f91906149cc565b508160800151600081518110611a2257611a22614d75565b60200260200101516001600160a01b031681600081518110611a4657611a46614d75565b60200260200101516001600160a01b03161460405180604001604052806004815260200163494e564160e01b81525090611a935760405162461bcd60e51b815260040161083f91906149cc565b508160800151600181518110611aab57611aab614d75565b60200260200101516001600160a01b031681600181518110611acf57611acf614d75565b60200260200101516001600160a01b03161460405180604001604052806004815260200163494e564160e01b81525090611b1c5760405162461bcd60e51b815260040161083f91906149cc565b50506040808201518151808301909252600282526120ad60f11b60208301526001600160a01b0316611b615760405162461bcd60e51b815260040161083f91906149cc565b50600081604001516001600160a01b031663697222336040518163ffffffff1660e01b815260040160006040518083038186803b158015611ba157600080fd5b505afa158015611bb5573d6000803e3d6000fd5b505050506040513d6000823e601f3d908101601f19168201604052611bdd9190810190615415565b90508051600214604051806040016040528060048152602001631253959360e21b81525090611c1f5760405162461bcd60e51b815260040161083f91906149cc565b508160800151600081518110611c3757611c37614d75565b60200260200101516001600160a01b031681600081518110611c5b57611c5b614d75565b60200260200101516001600160a01b03161460405180604001604052806004815260200163494e564160e01b81525090611ca85760405162461bcd60e51b815260040161083f91906149cc565b508160800151600181518110611cc057611cc0614d75565b60200260200101516001600160a01b031681600181518110611ce457611ce4614d75565b60200260200101516001600160a01b03161460405180604001604052806004815260200163494e564160e01b81525090610a735760405162461bcd60e51b815260040161083f91906149cc565b6040805160a081018252600380546001600160a01b039081168352600454811660208085019190915260055482168486015260065490911660608401526007805485518184028101840190965280865261161195608086019390929190830182828015611dc757602002820191906000526020600020905b81546001600160a01b03168152600190910190602001808311611da9575b505050505081525050612dd6565b60008080611de784600160601b6151c1565b9050600087602001516001600160a01b031663e5328e066040518163ffffffff1660e01b815260040160006040518083038186803b158015611e2857600080fd5b505afa158015611e3c573d6000803e3d6000fd5b505050506040513d6000823e601f3d908101601f19168201604052611e649190810190614de6565b5090506000611eda82600181518110611e7f57611e7f614d75565b6020026020010151600160601b611eb585600081518110611ea257611ea2614d75565b60200260200101518b600160601b612bbd565b85600181518110611ec857611ec8614d75565b6020026020010151610e8b91906151d8565b90506000611ef7600160601b8a6000015160020b620f4240612bbd565b905086821115611f9d57600195506000611f16600160601b808b612bbd565b9050611f95611f408986600081518110611f3257611f32614d75565b602002602001015184612bbd565b611f6986600181518110611f5657611f56614d75565b602002602001015188600160601b612bbd565b611f7391906151c1565b600160601b611f878b86600160601b612bbd565b610e8b90600160601b6151c1565b955050612013565b60009550612010611fc98585600181518110611fbb57611fbb614d75565b60200260200101518b612bbd565b611ff285600081518110611fdf57611fdf614d75565b60200260200101518a600160601b612bbd565b611ffc91906151c1565b600160601b611f878785600160601b612bbd565b94505b82868151811061202557612025614d75565b60200260200101518511156120515782868151811061204657612046614d75565b602002602001015194505b5050505094509492505050565b8242111560405180604001604052806002815260200161545360f01b8152509061209b5760405162461bcd60e51b815260040161083f91906149cc565b506120a4612f2e565b6040805160a081018252600380546001600160a01b039081168352600454811660208085019190915260055482168486015260065490911660608401526007805485518184028101840190965280865260009560808601939092919083018282801561213957602002820191906000526020600020905b81546001600160a01b0316815260019091019060200180831161211b575b505050919092525050604080516101208101825260088054600281810b845263010000008204810b602080860191909152600160301b8304820b85870152600160481b909204900b60608401526009546080840152600a5460a0840152600b5460c0840152600c5460e0840152600d805485518184028101840190965280865296975060009693955091936101008601939092918301828280156121fc57602002820191906000526020600020905b8154815260200190600101908083116121e8575b5050509190925250506002549192505061010090046001600160a01b031661222583838361067c565b600080826001600160a01b031663217ac2376040518163ffffffff1660e01b815260040160806040518083038186803b15801561226157600080fd5b505afa158015612275573d6000803e3d6000fd5b505050506040513d601f19601f820116820180604052508101906122999190614d19565b50509150915060006122ad86868487612f46565b90506122bd868683868c8c613628565b6122c686612dd6565b604051339032907f6dcf4e69cd04d9def52d660ea37a5b366adb7701505e48e75c03d6a51a343f6490600090a3505050505050505050565b60006001600160e01b03198216637965db0b60e01b148061067157506301ffc9a760e01b6001600160e01b0319831614610671565b60008061233f83613b3b565b60301b9392505050565b60006401000276a36001600160a01b03831610801590612385575073fffd8963efd1fc6a506488495d951d5263988d266001600160a01b038316105b6123b55760405162461bcd60e51b81526020600482015260016024820152602960f91b604482015260640161083f565b640100000000600160c01b03602083901b166001600160801b03811160071b81811c6001600160401b03811160061b90811c63ffffffff811160051b90811c61ffff811160041b90811c60ff8111600390811b91821c600f811160021b90811c918211600190811b92831c9790881196179094179092171790911717176080811061244f57612445607f826151c1565b83901c9150612460565b61245a81607f6151c1565b83901b91505b6000604061246f6080846154a3565b901b9050828302607f1c92508260801c80603f1b8217915083811c935050828302607f1c92508260801c80603e1b8217915083811c935050828302607f1c92508260801c80603d1b8217915083811c935050828302607f1c92508260801c80603c1b8217915083811c935050828302607f1c92508260801c80603b1b8217915083811c935050828302607f1c92508260801c80603a1b8217915083811c935050828302607f1c92508260801c8060391b8217915083811c935050828302607f1c92508260801c8060381b8217915083811c935050828302607f1c92508260801c8060371b8217915083811c935050828302607f1c92508260801c8060361b8217915083811c935050828302607f1c92508260801c8060351b8217915083811c935050828302607f1c92508260801c8060341b8217915083811c935050828302607f1c92508260801c8060331b8217915083811c935050828302607f1c92508260801c8060321b8217915050600081693627a301d71055774c856125f291906154e2565b9050600060806126126f028f6481ab7f045a5af012a19d003aaa846154a3565b901d905060006080612634846fdb2df09e81959a81455e260799a0632f615567565b901d90508060020b8260020b1461267357886001600160a01b0316612658826127a0565b6001600160a01b0316111561266d5781612675565b80612675565b815b9998505050505050505050565b610af282826126e4565b600082815260208190526040808220600101805490849055905190918391839186917fbd79b86ffe0ab8e8776151514217cd7cacd52c909f66475c3af44e129f0b00ff9190a4505050565b6126e18133613cb9565b50565b6126ee8282613d12565b6000828152600160205260409020610a739082613d96565b6127108282613dab565b6000828152600160205260409020610a739082613e10565b604080516020808252818301909252606091602082018180368337019050509050602060005b60208110156127865783816020811061276957612769614d75565b1a61277657809150612786565b61277f8161523d565b905061274e565b508152602081019190915290565b6000610db88383613e25565b60008060008360020b126127b7578260020b6127c4565b8260020b6127c4906155a8565b90506127d3620d89e719614ea7565b60020b8111156128095760405162461bcd60e51b81526020600482015260016024820152601560fa1b604482015260640161083f565b60006001821661281d57600160801b61282f565b6ffffcb933bd6fad37aa2d162d1a5940015b70ffffffffffffffffffffffffffffffffff169050600282161561286e576080612869826ffff97272373d413259a46990580e213a6155c5565b901c90505b6004821615612898576080612893826ffff2e50f5f656932ef12357cf3c7fdcc6155c5565b901c90505b60088216156128c25760806128bd826fffe5caca7e10e4e61c3624eaa0941cd06155c5565b901c90505b60108216156128ec5760806128e7826fffcb9843d60f6159c9db58835c9266446155c5565b901c90505b6020821615612916576080612911826fff973b41fa98c081472e6896dfb254c06155c5565b901c90505b604082161561294057608061293b826fff2ea16466c96a3843ec78b326b528616155c5565b901c90505b608082161561296a576080612965826ffe5dee046a99a2a811c461f1969c30536155c5565b901c90505b610100821615612995576080612990826ffcbe86c7900a88aedcffc83b479aa3a46155c5565b901c90505b6102008216156129c05760806129bb826ff987a7253ac413176f2b074cf7815e546155c5565b901c90505b6104008216156129eb5760806129e6826ff3392b0822b70005940c7a398e4b70f36155c5565b901c90505b610800821615612a16576080612a11826fe7159475a2c29b7443b29c7fa6e889d96155c5565b901c90505b611000821615612a41576080612a3c826fd097f3bdfd2022b8845ad8f792aa58256155c5565b901c90505b612000821615612a6c576080612a67826fa9f746462d870fdf8a65dc1f90e061e56155c5565b901c90505b614000821615612a97576080612a92826f70d869a156d2a1b890bb3df62baf32f76155c5565b901c90505b618000821615612ac2576080612abd826f31be135f97d08fd981231505542fcfa66155c5565b901c90505b62010000821615612aee576080612ae9826f09aa508b5b7a84e1c677de54f3e99bc96155c5565b901c90505b62020000821615612b19576080612b14826e5d6af8dedb81196699c329225ee6046155c5565b901c90505b62040000821615612b43576080612b3e826d2216e584f5fa1ea926041bedfe986155c5565b901c90505b62080000821615612b6b576080612b66826b048a170391f7dc42444e8fa26155c5565b901c90505b60008460020b1315612b8657612b83816000196155e4565b90505b612b95640100000000826155f8565b15612ba1576001612ba4565b60005b612bb59060ff16602083901c6151d8565b949350505050565b600080806000198587098587029250828110838203039150508060001415612bf75760008411612bec57600080fd5b508290049050610db8565b808411612c0357600080fd5b6000848688096000868103871696879004966002600389028118808a02820302808a02820302808a02820302808a02820302808a02820302808a02909103029181900381900460010186841190950394909402919094039290920491909117919091029150509392505050565b6060610db88383604051806060016040528060278152602001615a5160279139613e4f565b604051636eb1769f60e11b81523060048201526001600160a01b0383811660248301526000919085169063dd62ed3e9060440160206040518083038186803b158015612ce057600080fd5b505afa158015612cf4573d6000803e3d6000fd5b505050506040513d601f19601f82011682018060405250810190612d18919061560c565b9050612d838463095ea7b360e01b85612d3186866151d8565b6040516001600160a01b039092166024830152604482015260640160408051601f198184030181529190526020810180516001600160e01b03166001600160e01b031990931692909217909152613ec7565b50505050565b612d9233610a16565b6040518060400160405280600381526020016223292160e91b815250906126e15760405162461bcd60e51b815260040161083f91906149cc565b6000610671825490565b600081602001516001600160a01b031663e5328e066040518163ffffffff1660e01b815260040160006040518083038186803b158015612e1557600080fd5b505afa158015612e29573d6000803e3d6000fd5b505050506040513d6000823e601f3d908101601f19168201604052612e519190810190614de6565b509050600081600081518110612e6957612e69614d75565b60200260200101511180612e975750600081600181518110612e8d57612e8d614d75565b6020026020010151115b15610af25781602001516001600160a01b0316632062d75483604001518460800151846040518463ffffffff1660e01b8152600401612ed893929190615625565b600060405180830381600087803b158015612ef257600080fd5b505af1158015612f06573d6000803e3d6000fd5b505050506040513d6000823e601f3d908101601f19168201604052610a7391908101906156a5565b612f3733610a16565b80612d925750612d9233610af6565b60408051808201909152600080825260208201526000856040015190506000816001600160a01b031663a7788fd96040518163ffffffff1660e01b815260040160206040518083038186803b158015612f9e57600080fd5b505afa158015612fb2573d6000803e3d6000fd5b505050506040513d601f19601f82011682018060405250810190612fd6919061560c565b9050600080612fe788888886610b10565b9150915080612ffb57509250612bb5915050565b821561319b576000846001600160a01b03166305cf2a446040518163ffffffff1660e01b815260040160206040518083038186803b15801561303c57600080fd5b505afa158015613050573d6000803e3d6000fd5b505050506040513d601f19601f82011682018060405250810190613074919061531f565b60405163db9936bf60e01b81526001600160801b0360048201526001600160a01b03898116602483015260448201879052919091169063db9936bf9060640160006040518083038186803b1580156130cb57600080fd5b505afa1580156130df573d6000803e3d6000fd5b505050506040513d6000823e601f3d908101601f1916820160405261310791908101906156a5565b60208b015160808c0151604051630818b5d560e21b81529293506001600160a01b03881692632062d754926131429290918690600401615625565b600060405180830381600087803b15801561315c57600080fd5b505af1158015613170573d6000803e3d6000fd5b505050506040513d6000823e601f3d908101601f1916820160405261319891908101906156a5565b50505b6131a36144b5565b825160405163c0ac75cf60e01b815260029190910b60048201526000906001600160a01b0389169063c0ac75cf90602401604080518083038186803b1580156131eb57600080fd5b505afa1580156131ff573d6000803e3d6000fd5b505050506040513d601f19601f8201168201806040525081019061322391906156d9565b50602085015160405163c0ac75cf60e01b815260029190910b60048201529091506000906001600160a01b038a169063c0ac75cf90602401604080518083038186803b15801561327257600080fd5b505afa158015613286573d6000803e3d6000fd5b505050506040513d601f19601f820116820180604052508101906132aa91906156d9565b50600292830b845290910b60208301525060408051610180810190915260808b015180516000926001600160a01b037f0000000000000000000000000000000000000000000000000000000000000000169263ea54063292829190869061331357613313614d75565b60200260200101516001600160a01b031681526020018e6080015160018151811061334057613340614d75565b60200260200101516001600160a01b031681526020018b6001600160a01b031663c79a590e6040518163ffffffff1660e01b815260040160206040518083038186803b15801561338f57600080fd5b505afa1580156133a3573d6000803e3d6000fd5b505050506040513d601f19601f820116820180604052508101906133c79190615708565b62ffffff168152602001876000015160020b8152602001876020015160020b81526020018581526020018d6080015181526020018d60a0015181526020016000815260200160008152602001306001600160a01b031681526020016000198152506040518263ffffffff1660e01b8152600401613444919061574e565b608060405180830381600087803b15801561345e57600080fd5b505af1158015613472573d6000803e3d6000fd5b505050506040513d601f19601f820116820180604052508101906134969190615830565b5050604051632142170760e11b81523060048201526001600160a01b038981166024830152604482018490529293507f0000000000000000000000000000000000000000000000000000000000000000909216916342842e0e9150606401600060405180830381600087803b15801561350e57600080fd5b505af1158015613522573d6000803e3d6000fd5b505050507face8748d23af65e86cf543d0298345b95115752e382befe3e832eacd1508adb08160405161355791815260200190565b60405180910390a1841561361957604051630852cd8d60e31b8152600481018690527f00000000000000000000000000000000000000000000000000000000000000006001600160a01b0316906342966c6890602401600060405180830381600087803b1580156135c757600080fd5b505af11580156135db573d6000803e3d6000fd5b505050507f65d33d8ef62a81711748bbe2a7b67aef94d1a9af04a2690d3a4dfd13d9c1d22b8560405161361091815260200190565b60405180910390a15b50919998505050505050505050565b60006136426001600160a01b03851680600160601b612bbd565b905060008061365889898561061f8b8b89610de8565b91509150876101000151828151811061367357613673614d75565b602002602001015181101561368a57505050613b33565b81600114156136a5576136a2600160601b8085612bbd565b92505b600089602001516001600160a01b031663e5328e066040518163ffffffff1660e01b815260040160006040518083038186803b1580156136e457600080fd5b505afa1580156136f8573d6000803e3d6000fd5b505050506040513d6000823e601f3d908101601f191682016040526137209190810190614de6565b5060208b01518b519192506001600160a01b031690632e2f4cc290613749600460008a8c61586c565b61375291615896565b61375f896004818d61586c565b6040518563ffffffff1660e01b815260040161377e94939291906158c6565b600060405180830381600087803b15801561379857600080fd5b505af11580156137ac573d6000803e3d6000fd5b505050506040513d6000823e601f3d908101601f191682016040526137d4919081019061528c565b5060008a602001516001600160a01b031663e5328e066040518163ffffffff1660e01b815260040160006040518083038186803b15801561381457600080fd5b505afa158015613828573d6000803e3d6000fd5b505050506040513d6000823e601f3d908101601f191682016040526138509190810190614de6565b50905081848151811061386557613865614d75565b602002602001015181858151811061387f5761387f614d75565b6020026020010151111560405180604001604052806004815260200163494e564160e01b815250906138c45760405162461bcd60e51b815260040161083f91906149cc565b508184600118815181106138da576138da614d75565b60200260200101518185600118815181106138f7576138f7614d75565b6020026020010151101560405180604001604052806004815260200163494e564160e01b8152509061393c5760405162461bcd60e51b815260040161083f91906149cc565b50600081858151811061395157613951614d75565b602002602001015183868151811061396b5761396b614d75565b602002602001015161397d91906151c1565b9050600083866001188151811061399657613996614d75565b60200260200101518387600118815181106139b3576139b3614d75565b60200260200101516139c591906151c1565b905060006139d882600160601b85612bbd565b9050806139fd898f60c00151633b9aca006139f391906151c1565b633b9aca00612bbd565b1115604051806040016040528060048152602001634c494d5560e01b81525090613a3a5760405162461bcd60e51b815260040161083f91906149cc565b5082613a54878f60e00151633b9aca006139f391906151c1565b1115604051806040016040528060048152602001634c494d5560e01b81525090613a915760405162461bcd60e51b815260040161083f91906149cc565b5085613aab848f60e00151633b9aca006139f391906151c1565b1115604051806040016040528060048152602001634c494d5560e01b81525090613ae85760405162461bcd60e51b815260040161083f91906149cc565b5060408051848152602081018490529081018890527f984c316f55901f828cae2a57394002595129e75b4546d4a80c6c1a4787d748c29060600160405180910390a150505050505050505b505050505050565b600081613b4a57506000919050565b816001600160801b8210613b635760809190911c9060401b5b680100000000000000008210613b7e5760409190911c9060201b5b6401000000008210613b955760209190911c9060101b5b620100008210613baa5760109190911c9060081b5b6101008210613bbe5760089190911c9060041b5b60108210613bd15760049190911c9060021b5b60088210613bdd5760011b5b6001613be982866155e4565b613bf390836151d8565b901c90506001613c0382866155e4565b613c0d90836151d8565b901c90506001613c1d82866155e4565b613c2790836151d8565b901c90506001613c3782866155e4565b613c4190836151d8565b901c90506001613c5182866155e4565b613c5b90836151d8565b901c90506001613c6b82866155e4565b613c7590836151d8565b901c90506001613c8582866155e4565b613c8f90836151d8565b901c90506000613c9f82866155e4565b9050808210613cae5780613cb0565b815b95945050505050565b613cc38282610dbf565b610af257613cd081613f9c565b613cdb836020613fae565b604051602001613cec929190615917565b60408051601f198184030181529082905262461bcd60e51b825261083f916004016149cc565b613d1c8282610dbf565b610af2576000828152602081815260408083206001600160a01b03851684529091529020805460ff19166001179055613d523390565b6001600160a01b0316816001600160a01b0316837f2f8788117e7eff1d82e926ec794901d17c78024a50270940304540a733656f0d60405160405180910390a45050565b6000610db8836001600160a01b038416614149565b613db58282610dbf565b15610af2576000828152602081815260408083206001600160a01b0385168085529252808320805460ff1916905551339285917ff6391f5c32d9c69d2a47ea670b442974b53935d1edc7fd64eb21e047a839171b9190a45050565b6000610db8836001600160a01b038416614198565b6000826000018281548110613e3c57613e3c614d75565b9060005260206000200154905092915050565b6060600080856001600160a01b031685604051613e6c919061598c565b600060405180830381855af49150503d8060008114613ea7576040519150601f19603f3d011682016040523d82523d6000602084013e613eac565b606091505b5091509150613ebd8683838761428b565b9695505050505050565b6000613f1c826040518060400160405280602081526020017f5361666545524332303a206c6f772d6c6576656c2063616c6c206661696c6564815250856001600160a01b03166143019092919063ffffffff16565b9050805160001480613f3d575080806020019051810190613f3d91906159a8565b610a735760405162461bcd60e51b815260206004820152602a60248201527f5361666545524332303a204552433230206f7065726174696f6e20646964206e6044820152691bdd081cdd58d8d9595960b21b606482015260840161083f565b60606106716001600160a01b03831660145b60606000613fbd8360026155c5565b613fc89060026151d8565b6001600160401b03811115613fdf57613fdf614512565b6040519080825280601f01601f191660200182016040528015614009576020820181803683370190505b509050600360fc1b8160008151811061402457614024614d75565b60200101906001600160f81b031916908160001a905350600f60fb1b8160018151811061405357614053614d75565b60200101906001600160f81b031916908160001a90535060006140778460026155c5565b6140829060016151d8565b90505b60018111156140fa576f181899199a1a9b1b9c1cb0b131b232b360811b85600f16601081106140b6576140b6614d75565b1a60f81b8282815181106140cc576140cc614d75565b60200101906001600160f81b031916908160001a90535060049490941c936140f3816159c3565b9050614085565b508315610db85760405162461bcd60e51b815260206004820181905260248201527f537472696e67733a20686578206c656e67746820696e73756666696369656e74604482015260640161083f565b600081815260018301602052604081205461419057508154600181810184556000848152602080822090930184905584548482528286019093526040902091909155610671565b506000610671565b600081815260018301602052604081205480156142815760006141bc6001836151c1565b85549091506000906141d0906001906151c1565b90508181146142355760008660000182815481106141f0576141f0614d75565b906000526020600020015490508087600001848154811061421357614213614d75565b6000918252602080832090910192909255918252600188019052604090208390555b8554869080614246576142466159da565b600190038181906000526020600020016000905590558560010160008681526020019081526020016000206000905560019350505050610671565b6000915050610671565b606083156142f75782516142f0576001600160a01b0385163b6142f05760405162461bcd60e51b815260206004820152601d60248201527f416464726573733a2063616c6c20746f206e6f6e2d636f6e7472616374000000604482015260640161083f565b5081612bb5565b612bb58383614310565b6060612bb5848460008561433a565b8151156143205781518083602001fd5b8060405162461bcd60e51b815260040161083f91906149cc565b60608247101561439b5760405162461bcd60e51b815260206004820152602660248201527f416464726573733a20696e73756666696369656e742062616c616e636520666f6044820152651c8818d85b1b60d21b606482015260840161083f565b600080866001600160a01b031685876040516143b7919061598c565b60006040518083038185875af1925050503d80600081146143f4576040519150601f19603f3d011682016040523d82523d6000602084013e6143f9565b606091505b509150915061440a8783838761428b565b979650505050505050565b82805482825590600052602060002090810192821561446a579160200282015b8281111561446a57825182546001600160a01b0319166001600160a01b03909116178255602090920191600190910190614435565b506144769291506144d3565b5090565b82805482825590600052602060002090810192821561446a579160200282015b8281111561446a57825182559160200191906001019061449a565b60405180604001604052806002906020820280368337509192915050565b5b8082111561447657600081556001016144d4565b6000602082840312156144fa57600080fd5b81356001600160e01b031981168114610db857600080fd5b634e487b7160e01b600052604160045260246000fd5b60405160a081016001600160401b038111828210171561454a5761454a614512565b60405290565b60405161012081016001600160401b038111828210171561454a5761454a614512565b60405161010081016001600160401b038111828210171561454a5761454a614512565b604051601f8201601f191681016001600160401b03811182821017156145be576145be614512565b604052919050565b6001600160a01b03811681146126e157600080fd5b60006001600160401b038211156145f4576145f4614512565b5060051b60200190565b600060a0828403121561461057600080fd5b614618614528565b90508135614625816145c6565b8152602082810135614636816145c6565b828201526040830135614648816145c6565b6040830152606083013561465b816145c6565b606083015260808301356001600160401b0381111561467957600080fd5b8301601f8101851361468a57600080fd5b803561469d614698826145db565b614596565b81815260059190911b820183019083810190878311156146bc57600080fd5b928401925b828410156146e35783356146d4816145c6565b825292840192908401906146c1565b6080860152509295945050505050565b8060020b81146126e157600080fd5b803561470d816146f3565b919050565b600082601f83011261472357600080fd5b81356020614733614698836145db565b82815260059290921b8401810191818101908684111561475257600080fd5b8286015b8481101561476d5780358352918301918301614756565b509695505050505050565b6000610120828403121561478b57600080fd5b614793614550565b905061479e82614702565b81526147ac60208301614702565b60208201526147bd60408301614702565b60408201526147ce60608301614702565b60608201526080820135608082015260a082013560a082015260c082013560c082015260e082013560e0820152610100808301356001600160401b0381111561481657600080fd5b61482285828601614712565b82840152505092915050565b60008060006060848603121561484357600080fd5b83356001600160401b038082111561485a57600080fd5b614866878388016145fe565b9450602086013591508082111561487c57600080fd5b5061488986828701614778565b925050604084013561489a816145c6565b809150509250925092565b6000602082840312156148b757600080fd5b8135610db8816145c6565b6000602082840312156148d457600080fd5b5035919050565b600080604083850312156148ee57600080fd5b823591506020830135614900816145c6565b809150509250929050565b6000806000806080858703121561492157600080fd5b84356001600160401b0381111561493757600080fd5b61494387828801614778565b9450506020850135614954816146f3565b92506040850135614964816145c6565b9396929550929360600135925050565b60005b8381101561498f578181015183820152602001614977565b83811115612d835750506000910152565b600081518084526149b8816020860160208601614974565b601f01601f19169290920160200192915050565b602081526000610db860208301846149a0565b600080604083850312156149f257600080fd5b50508035926020909101359150565b60008060008385036080811215614a1757600080fd5b6040811215614a2557600080fd5b50604051604081018181106001600160401b0382111715614a4857614a48614512565b6040528435614a56816146f3565b81526020850135614a66816146f3565b602082015292506040840135614a7b816145c6565b929592945050506060919091013590565b600060208284031215614a9e57600080fd5b81356001600160401b03811115614ab457600080fd5b612bb584828501614778565b60008060208385031215614ad357600080fd5b82356001600160401b0380821115614aea57600080fd5b818501915085601f830112614afe57600080fd5b813581811115614b0d57600080fd5b8660208260051b8501011115614b2257600080fd5b60209290920196919550909350505050565b6000602080830181845280855180835260408601915060408160051b870101925083870160005b82811015614b8957603f19888603018452614b778583516149a0565b94509285019290850190600101614b5b565b5092979650505050505050565b60008060408385031215614ba957600080fd5b82356001600160401b03811115614bbf57600080fd5b614bcb858286016145fe565b9250506020830135614900816145c6565b600060208284031215614bee57600080fd5b81356001600160401b03811115614c0457600080fd5b612bb5848285016145fe565b60008060008060808587031215614c2657600080fd5b84356001600160401b0380821115614c3d57600080fd5b614c49888389016145fe565b95506020870135915080821115614c5f57600080fd5b50614c6c87828801614778565b949794965050505060408301359260600135919050565b600080600060408486031215614c9857600080fd5b8335925060208401356001600160401b0380821115614cb657600080fd5b818601915086601f830112614cca57600080fd5b813581811115614cd957600080fd5b876020828501011115614ceb57600080fd5b6020830194508093505050509250925092565b805161470d816146f3565b8051801515811461470d57600080fd5b60008060008060808587031215614d2f57600080fd5b8451614d3a816145c6565b6020860151909450614d4b816146f3565b6040860151909350614d5c816146f3565b9150614d6a60608601614d09565b905092959194509250565b634e487b7160e01b600052603260045260246000fd5b600082601f830112614d9c57600080fd5b81516020614dac614698836145db565b82815260059290921b84018101918181019086841115614dcb57600080fd5b8286015b8481101561476d5780518352918301918301614dcf565b60008060408385031215614df957600080fd5b82516001600160401b0380821115614e1057600080fd5b614e1c86838701614d8b565b93506020850151915080821115614e3257600080fd5b50614e3f85828601614d8b565b9150509250929050565b634e487b7160e01b600052601160045260246000fd5b60008160020b8360020b6000811281627fffff1901831281151615614e8657614e86614e49565b81627fffff018313811615614e9d57614e9d614e49565b5090039392505050565b60008160020b627fffff19811415614ec157614ec1614e49565b60000392915050565b805161470d816145c6565b805169ffffffffffffffffffff8116811461470d57600080fd5b80516001600160801b038116811461470d57600080fd5b805162ffffff8116811461470d57600080fd5b600060608284031215614f2b57600080fd5b604051606081018181106001600160401b0382111715614f4d57614f4d614512565b80604052508091508251614f60816145c6565b8152614f6e60208401614f06565b60208201526040830151614f81816145c6565b6040919091015292915050565b600080828403610160811215614fa357600080fd5b61010080821215614fb357600080fd5b614fbb614573565b915084516bffffffffffffffffffffffff81168114614fd957600080fd5b8252614fe760208601614eca565b6020830152614ff860408601614ed5565b604083015261500960608601614cfe565b606083015261501a60808601614cfe565b608083015261502b60a08601614eef565b60a083015260c085015160c083015260e085015160e083015281935061505386828701614f19565b925050509250929050565b60008160020b8360020b6000821282627fffff0382138115161561508457615084614e49565b82627fffff1903821281161561509c5761509c614e49565b50019392505050565b6000602082840312156150b757600080fd5b8151610db8816146f3565b634e487b7160e01b600052601260045260246000fd5b60008260020b806150eb576150eb6150c2565b808360020b0791505092915050565b60008160020b8360020b627fffff60008213600084138383048511828216161561512657615126614e49565b627fffff19600085128281168783058712161561514557615145614e49565b6000871292508582058712848416161561516157615161614e49565b8585058712818416161561517757615177614e49565b5050509290910295945050505050565b60008160020b8360020b8061519e5761519e6150c2565b627fffff198214600019821416156151b8576151b8614e49565b90059392505050565b6000828210156151d3576151d3614e49565b500390565b600082198211156151eb576151eb614e49565b500190565b6000808335601e1984360301811261520757600080fd5b8301803591506001600160401b0382111561522157600080fd5b60200191503681900382131561523657600080fd5b9250929050565b600060001982141561525157615251614e49565b5060010190565b6001600160a01b03841681526001600160e01b031983166020820152606060408201819052600090613cb0908301846149a0565b60006020828403121561529e57600080fd5b81516001600160401b03808211156152b557600080fd5b818401915084601f8301126152c957600080fd5b8151818111156152db576152db614512565b6152ee601f8201601f1916602001614596565b915080825285602082850101111561530557600080fd5b615316816020840160208601614974565b50949350505050565b60006020828403121561533157600080fd5b8151610db8816145c6565b600081518084526020808501945080840160005b8381101561536c57815187529582019590820190600101615350565b509495945050505050565b6020815261538b60208201835160020b9052565b600060208301516153a1604084018260020b9052565b5060408301516153b6606084018260020b9052565b5060608301516153cb608084018260020b9052565b50608083015160a083015260a083015160c083015260c083015160e083015260e0830151610100818185015280850151915050610120808185015250612bb561014084018261533c565b6000602080838503121561542857600080fd5b82516001600160401b0381111561543e57600080fd5b8301601f8101851361544f57600080fd5b805161545d614698826145db565b81815260059190911b8201830190838101908783111561547c57600080fd5b928401925b8284101561440a578351615494816145c6565b82529284019290840190615481565b60008083128015600160ff1b8501841216156154c1576154c1614e49565b6001600160ff1b03840183138116156154dc576154dc614e49565b50500390565b60006001600160ff1b038184138284138082168684048611161561550857615508614e49565b600160ff1b600087128281168783058912161561552757615527614e49565b6000871292508782058712848416161561554357615543614e49565b8785058712818416161561555957615559614e49565b505050929093029392505050565b600080821280156001600160ff1b038490038513161561558957615589614e49565b600160ff1b83900384128116156155a2576155a2614e49565b50500190565b6000600160ff1b8214156155be576155be614e49565b5060000390565b60008160001904831182151516156155df576155df614e49565b500290565b6000826155f3576155f36150c2565b500490565b600082615607576156076150c2565b500690565b60006020828403121561561e57600080fd5b5051919050565b6001600160a01b0384811682526080602080840182905285519184018290526000928682019290919060a0860190855b81811015615673578551851683529483019491830191600101615655565b50508581036040870152615687818861533c565b86810360609097019690965250600085529093019695505050505050565b6000602082840312156156b757600080fd5b81516001600160401b038111156156cd57600080fd5b612bb584828501614d8b565b600080604083850312156156ec57600080fd5b82516156f7816146f3565b6020840151909250614900816146f3565b60006020828403121561571a57600080fd5b610db882614f06565b8060005b60028082106157365750612d83565b8251900b845260209384019390910190600101615727565b81516001600160a01b031681526101a08101602083015161577a60208401826001600160a01b03169052565b506040830151615791604084018262ffffff169052565b5060608301516157a6606084018260020b9052565b5060808301516157bb608084018260020b9052565b5060a08301516157ce60a0840182615723565b5060c083015160e08381019190915283015161010080840191909152830151610120808401919091528301516101408084019190915283015161016061581e818501836001600160a01b03169052565b80850151610180850152505092915050565b6000806000806080858703121561584657600080fd5b8451935061585660208601614eef565b6040860151606090960151949790965092505050565b6000808585111561587c57600080fd5b8386111561588957600080fd5b5050820193919092039150565b6001600160e01b031981358181169160048510156158be5780818660040360031b1b83161692505b505092915050565b6001600160a01b03851681526001600160e01b0319841660208201526060604082018190528101829052818360808301376000818301608090810191909152601f909201601f191601019392505050565b7f416363657373436f6e74726f6c3a206163636f756e742000000000000000000081526000835161594f816017850160208801614974565b7001034b99036b4b9b9b4b733903937b6329607d1b6017918401918201528351615980816028840160208801614974565b01602801949350505050565b6000825161599e818460208701614974565b9190910192915050565b6000602082840312156159ba57600080fd5b610db882614d09565b6000816159d2576159d2614e49565b506000190190565b634e487b7160e01b600052603160045260246000fdfec171260023d22a25a00a2789664c9334017843b831138c8ef03cc8897e5873d7f23ec0bb4210edd5cba85afd05127efcd2fc6a781bfed49188da1081670b22d846a52cf33029de9f84853745a87af28464c80bf0346df1b32e205fc73319f622416464726573733a206c6f772d6c6576656c2064656c65676174652063616c6c206661696c6564a26469706673582212203e47b4a6317848fddb5b8d438c691d8bf8da1d73adf7a68096fa6c46ff87c60364736f6c63430008090033",
    "linkReferences": {}
  },
  "methodIdentifiers": {
    "ADMIN_DELEGATE_ROLE()": "0952ff54",
    "ADMIN_ROLE()": "75b238fc",
    "D6()": "a11bac74",
    "D9()": "551530ae",
    "DEFAULT_ADMIN_ROLE()": "a217fddf",
    "OPERATOR()": "983d2737",
    "Q96()": "40792465",
    "calculateAmountsForSwap((address,address,address,address,address[]),(int24,int24,int24,int24,uint256,uint256,uint256,uint256,uint256[]),uint256,uint256)": "e8e73c2b",
    "calculateNewPosition((int24,int24,int24,int24,uint256,uint256,uint256,uint256,uint256[]),int24,address,uint256)": "6e7df4d5",
    "calculateTargetRatioOfToken1((int24,int24),uint160,uint256)": "9bb37ba8",
    "checkImmutableParams((address,address,address,address,address[]))": "dfa24d2c",
    "checkMutableParams((int24,int24,int24,int24,uint256,uint256,uint256,uint256,uint256[]))": "9d59ee15",
    "checkTickDeviation((address,address,address,address,address[]),(int24,int24,int24,int24,uint256,uint256,uint256,uint256,uint256[]),address)": "0f237274",
    "contractName()": "75d0c0dc",
    "contractNameBytes()": "0e3e80ac",
    "contractVersion()": "a0a8e460",
    "contractVersionBytes()": "06a46239",
    "depositCallback()": "e521826f",
    "getRoleAdmin(bytes32)": "248a9ca3",
    "getRoleMember(bytes32,uint256)": "9010d07c",
    "getRoleMemberCount(bytes32)": "ca15c873",
    "grantRole(bytes32,address)": "2f2ff15d",
    "hasRole(bytes32,address)": "91d14854",
    "immutableParams()": "c8014d53",
    "init(address)": "19ab453c",
    "initialize((address,address,address,address,address[]),address)": "ae358b85",
    "initialized()": "158ef93e",
    "isAdmin(address)": "24d7806c",
    "isOperator(address)": "6d70f7ae",
    "kyberPool()": "9b44be95",
    "multicall(bytes[])": "ac9650d8",
    "mutableParams()": "5f408a21",
    "positionManager()": "791b98bc",
    "rebalance(uint256,bytes)": "f936506c",
    "renounceRole(bytes32,address)": "36568abe",
    "revokeRole(bytes32,address)": "d547741f",
    "supportsInterface(bytes4)": "01ffc9a7",
    "updateMutableParams((int24,int24,int24,int24,uint256,uint256,uint256,uint256,uint256[]))": "bdc3e647",
    "withdrawCallback()": "b4559f3e"
  },
  "id": 390
}