{
  "abi": [
    {
      "inputs": [
        {
          "internalType": "contract INonfungiblePositionManager",
          "name": "positionManager_",
          "type": "address"
        },
        {
          "internalType": "contract ISwapRouter",
          "name": "router_",
          "type": "address"
        },
        {
          "internalType": "address",
          "name": "uniV3Helper_",
          "type": "address"
        },
        {
          "internalType": "address",
          "name": "hStrategyHelper_",
          "type": "address"
        }
      ],
      "stateMutability": "nonpayable",
      "type": "constructor"
    },
    {
      "anonymous": false,
      "inputs": [
        {
          "indexed": false,
          "internalType": "uint256",
          "name": "uniV3Nft",
          "type": "uint256"
        }
      ],
      "name": "BurnUniV3Position",
      "type": "event"
    },
    {
      "anonymous": false,
      "inputs": [
        {
          "indexed": false,
          "internalType": "uint256",
          "name": "uniV3Nft",
          "type": "uint256"
        },
        {
          "indexed": false,
          "internalType": "int24",
          "name": "lowerTick",
          "type": "int24"
        },
        {
          "indexed": false,
          "internalType": "int24",
          "name": "upperTick",
          "type": "int24"
        }
      ],
      "name": "MintUniV3Position",
      "type": "event"
    },
    {
      "anonymous": false,
      "inputs": [
        {
          "indexed": true,
          "internalType": "bytes32",
          "name": "role",
          "type": "bytes32"
        },
        {
          "indexed": true,
          "internalType": "bytes32",
          "name": "previousAdminRole",
          "type": "bytes32"
        },
        {
          "indexed": true,
          "internalType": "bytes32",
          "name": "newAdminRole",
          "type": "bytes32"
        }
      ],
      "name": "RoleAdminChanged",
      "type": "event"
    },
    {
      "anonymous": false,
      "inputs": [
        {
          "indexed": true,
          "internalType": "bytes32",
          "name": "role",
          "type": "bytes32"
        },
        {
          "indexed": true,
          "internalType": "address",
          "name": "account",
          "type": "address"
        },
        {
          "indexed": true,
          "internalType": "address",
          "name": "sender",
          "type": "address"
        }
      ],
      "name": "RoleGranted",
      "type": "event"
    },
    {
      "anonymous": false,
      "inputs": [
        {
          "indexed": true,
          "internalType": "bytes32",
          "name": "role",
          "type": "bytes32"
        },
        {
          "indexed": true,
          "internalType": "address",
          "name": "account",
          "type": "address"
        },
        {
          "indexed": true,
          "internalType": "address",
          "name": "sender",
          "type": "address"
        }
      ],
      "name": "RoleRevoked",
      "type": "event"
    },
    {
      "anonymous": false,
      "inputs": [
        {
          "indexed": true,
          "internalType": "address",
          "name": "origin",
          "type": "address"
        },
        {
          "components": [
            {
              "internalType": "address",
              "name": "tokenIn",
              "type": "address"
            },
            {
              "internalType": "address",
              "name": "tokenOut",
              "type": "address"
            },
            {
              "internalType": "uint24",
              "name": "fee",
              "type": "uint24"
            },
            {
              "internalType": "address",
              "name": "recipient",
              "type": "address"
            },
            {
              "internalType": "uint256",
              "name": "deadline",
              "type": "uint256"
            },
            {
              "internalType": "uint256",
              "name": "amountIn",
              "type": "uint256"
            },
            {
              "internalType": "uint256",
              "name": "amountOutMinimum",
              "type": "uint256"
            },
            {
              "internalType": "uint160",
              "name": "sqrtPriceLimitX96",
              "type": "uint160"
            }
          ],
          "indexed": false,
          "internalType": "struct ISwapRouter.ExactInputSingleParams",
          "name": "swapParams",
          "type": "tuple"
        }
      ],
      "name": "SwapTokensOnERC20Vault",
      "type": "event"
    },
    {
      "anonymous": false,
      "inputs": [
        {
          "indexed": true,
          "internalType": "address",
          "name": "origin",
          "type": "address"
        },
        {
          "indexed": true,
          "internalType": "address",
          "name": "sender",
          "type": "address"
        },
        {
          "components": [
            {
              "internalType": "uint256",
              "name": "minToken0ForOpening",
              "type": "uint256"
            },
            {
              "internalType": "uint256",
              "name": "minToken1ForOpening",
              "type": "uint256"
            }
          ],
          "indexed": false,
          "internalType": "struct HStrategy.MintingParams",
          "name": "mintingParams",
          "type": "tuple"
        }
      ],
      "name": "UpdateMintingParams",
      "type": "event"
    },
    {
      "anonymous": false,
      "inputs": [
        {
          "indexed": true,
          "internalType": "address",
          "name": "origin",
          "type": "address"
        },
        {
          "indexed": true,
          "internalType": "address",
          "name": "sender",
          "type": "address"
        },
        {
          "components": [
            {
              "internalType": "uint32",
              "name": "averagePriceTimeSpan",
              "type": "uint32"
            },
            {
              "internalType": "uint24",
              "name": "maxTickDeviation",
              "type": "uint24"
            }
          ],
          "indexed": false,
          "internalType": "struct HStrategy.OracleParams",
          "name": "oracleParams",
          "type": "tuple"
        }
      ],
      "name": "UpdateOracleParams",
      "type": "event"
    },
    {
      "anonymous": false,
      "inputs": [
        {
          "indexed": true,
          "internalType": "address",
          "name": "origin",
          "type": "address"
        },
        {
          "indexed": true,
          "internalType": "address",
          "name": "sender",
          "type": "address"
        },
        {
          "components": [
            {
              "internalType": "uint256",
              "name": "erc20CapitalRatioD",
              "type": "uint256"
            },
            {
              "internalType": "uint256",
              "name": "minCapitalDeviationD",
              "type": "uint256"
            },
            {
              "internalType": "uint256",
              "name": "minRebalanceDeviationD",
              "type": "uint256"
            }
          ],
          "indexed": false,
          "internalType": "struct HStrategy.RatioParams",
          "name": "ratioParams",
          "type": "tuple"
        }
      ],
      "name": "UpdateRatioParams",
      "type": "event"
    },
    {
      "anonymous": false,
      "inputs": [
        {
          "indexed": true,
          "internalType": "address",
          "name": "origin",
          "type": "address"
        },
        {
          "indexed": true,
          "internalType": "address",
          "name": "sender",
          "type": "address"
        },
        {
          "components": [
            {
              "internalType": "int24",
              "name": "halfOfShortInterval",
              "type": "int24"
            },
            {
              "internalType": "int24",
              "name": "tickNeighborhood",
              "type": "int24"
            },
            {
              "internalType": "int24",
              "name": "domainLowerTick",
              "type": "int24"
            },
            {
              "internalType": "int24",
              "name": "domainUpperTick",
              "type": "int24"
            }
          ],
          "indexed": false,
          "internalType": "struct HStrategy.StrategyParams",
          "name": "strategyParams",
          "type": "tuple"
        }
      ],
      "name": "UpdateStrategyParams",
      "type": "event"
    },
    {
      "anonymous": false,
      "inputs": [
        {
          "indexed": true,
          "internalType": "address",
          "name": "origin",
          "type": "address"
        },
        {
          "indexed": true,
          "internalType": "address",
          "name": "sender",
          "type": "address"
        },
        {
          "indexed": false,
          "internalType": "uint24",
          "name": "newSwapFees",
          "type": "uint24"
        }
      ],
      "name": "UpdateSwapFees",
      "type": "event"
    },
    {
      "inputs": [],
      "name": "ADMIN_DELEGATE_ROLE",
      "outputs": [
        {
          "internalType": "bytes32",
          "name": "",
          "type": "bytes32"
        }
      ],
      "stateMutability": "view",
      "type": "function"
    },
    {
      "inputs": [],
      "name": "ADMIN_ROLE",
      "outputs": [
        {
          "internalType": "bytes32",
          "name": "",
          "type": "bytes32"
        }
      ],
      "stateMutability": "view",
      "type": "function"
    },
    {
      "inputs": [],
      "name": "APPROVE_SELECTOR",
      "outputs": [
        {
          "internalType": "bytes4",
          "name": "",
          "type": "bytes4"
        }
      ],
      "stateMutability": "view",
      "type": "function"
    },
    {
      "inputs": [],
      "name": "DEFAULT_ADMIN_ROLE",
      "outputs": [
        {
          "internalType": "bytes32",
          "name": "",
          "type": "bytes32"
        }
      ],
      "stateMutability": "view",
      "type": "function"
    },
    {
      "inputs": [],
      "name": "DENOMINATOR",
      "outputs": [
        {
          "internalType": "uint32",
          "name": "",
          "type": "uint32"
        }
      ],
      "stateMutability": "view",
      "type": "function"
    },
    {
      "inputs": [],
      "name": "EXACT_INPUT_SINGLE_SELECTOR",
      "outputs": [
        {
          "internalType": "bytes4",
          "name": "",
          "type": "bytes4"
        }
      ],
      "stateMutability": "view",
      "type": "function"
    },
    {
      "inputs": [],
      "name": "OPERATOR",
      "outputs": [
        {
          "internalType": "bytes32",
          "name": "",
          "type": "bytes32"
        }
      ],
      "stateMutability": "view",
      "type": "function"
    },
    {
      "inputs": [],
      "name": "contractName",
      "outputs": [
        {
          "internalType": "string",
          "name": "",
          "type": "string"
        }
      ],
      "stateMutability": "pure",
      "type": "function"
    },
    {
      "inputs": [],
      "name": "contractNameBytes",
      "outputs": [
        {
          "internalType": "bytes32",
          "name": "",
          "type": "bytes32"
        }
      ],
      "stateMutability": "pure",
      "type": "function"
    },
    {
      "inputs": [],
      "name": "contractVersion",
      "outputs": [
        {
          "internalType": "string",
          "name": "",
          "type": "string"
        }
      ],
      "stateMutability": "pure",
      "type": "function"
    },
    {
      "inputs": [],
      "name": "contractVersionBytes",
      "outputs": [
        {
          "internalType": "bytes32",
          "name": "",
          "type": "bytes32"
        }
      ],
      "stateMutability": "pure",
      "type": "function"
    },
    {
      "inputs": [
        {
          "internalType": "address[]",
          "name": "tokens_",
          "type": "address[]"
        },
        {
          "internalType": "contract IERC20Vault",
          "name": "erc20Vault_",
          "type": "address"
        },
        {
          "internalType": "contract IIntegrationVault",
          "name": "moneyVault_",
          "type": "address"
        },
        {
          "internalType": "contract IUniV3Vault",
          "name": "uniV3Vault_",
          "type": "address"
        },
        {
          "internalType": "uint24",
          "name": "fee_",
          "type": "uint24"
        },
        {
          "internalType": "address",
          "name": "admin_",
          "type": "address"
        }
      ],
      "name": "createStrategy",
      "outputs": [
        {
          "internalType": "contract HStrategy",
          "name": "strategy",
          "type": "address"
        }
      ],
      "stateMutability": "nonpayable",
      "type": "function"
    },
    {
      "inputs": [],
      "name": "erc20Vault",
      "outputs": [
        {
          "internalType": "contract IERC20Vault",
          "name": "",
          "type": "address"
        }
      ],
      "stateMutability": "view",
      "type": "function"
    },
    {
      "inputs": [
        {
          "internalType": "bytes32",
          "name": "role",
          "type": "bytes32"
        }
      ],
      "name": "getRoleAdmin",
      "outputs": [
        {
          "internalType": "bytes32",
          "name": "",
          "type": "bytes32"
        }
      ],
      "stateMutability": "view",
      "type": "function"
    },
    {
      "inputs": [
        {
          "internalType": "bytes32",
          "name": "role",
          "type": "bytes32"
        },
        {
          "internalType": "uint256",
          "name": "index",
          "type": "uint256"
        }
      ],
      "name": "getRoleMember",
      "outputs": [
        {
          "internalType": "address",
          "name": "",
          "type": "address"
        }
      ],
      "stateMutability": "view",
      "type": "function"
    },
    {
      "inputs": [
        {
          "internalType": "bytes32",
          "name": "role",
          "type": "bytes32"
        }
      ],
      "name": "getRoleMemberCount",
      "outputs": [
        {
          "internalType": "uint256",
          "name": "",
          "type": "uint256"
        }
      ],
      "stateMutability": "view",
      "type": "function"
    },
    {
      "inputs": [
        {
          "internalType": "bytes32",
          "name": "role",
          "type": "bytes32"
        },
        {
          "internalType": "address",
          "name": "account",
          "type": "address"
        }
      ],
      "name": "grantRole",
      "outputs": [],
      "stateMutability": "nonpayable",
      "type": "function"
    },
    {
      "inputs": [
        {
          "internalType": "bytes32",
          "name": "role",
          "type": "bytes32"
        },
        {
          "internalType": "address",
          "name": "account",
          "type": "address"
        }
      ],
      "name": "hasRole",
      "outputs": [
        {
          "internalType": "bool",
          "name": "",
          "type": "bool"
        }
      ],
      "stateMutability": "view",
      "type": "function"
    },
    {
      "inputs": [
        {
          "internalType": "address",
          "name": "admin",
          "type": "address"
        }
      ],
      "name": "init",
      "outputs": [],
      "stateMutability": "nonpayable",
      "type": "function"
    },
    {
      "inputs": [
        {
          "internalType": "address[]",
          "name": "tokens_",
          "type": "address[]"
        },
        {
          "internalType": "contract IERC20Vault",
          "name": "erc20Vault_",
          "type": "address"
        },
        {
          "internalType": "contract IIntegrationVault",
          "name": "moneyVault_",
          "type": "address"
        },
        {
          "internalType": "contract IUniV3Vault",
          "name": "uniV3Vault_",
          "type": "address"
        },
        {
          "internalType": "uint24",
          "name": "fee_",
          "type": "uint24"
        },
        {
          "internalType": "address",
          "name": "admin_",
          "type": "address"
        }
      ],
      "name": "initialize",
      "outputs": [],
      "stateMutability": "nonpayable",
      "type": "function"
    },
    {
      "inputs": [],
      "name": "initialized",
      "outputs": [
        {
          "internalType": "bool",
          "name": "",
          "type": "bool"
        }
      ],
      "stateMutability": "view",
      "type": "function"
    },
    {
      "inputs": [
        {
          "internalType": "address",
          "name": "sender",
          "type": "address"
        }
      ],
      "name": "isAdmin",
      "outputs": [
        {
          "internalType": "bool",
          "name": "",
          "type": "bool"
        }
      ],
      "stateMutability": "view",
      "type": "function"
    },
    {
      "inputs": [
        {
          "internalType": "address",
          "name": "sender",
          "type": "address"
        }
      ],
      "name": "isOperator",
      "outputs": [
        {
          "internalType": "bool",
          "name": "",
          "type": "bool"
        }
      ],
      "stateMutability": "view",
      "type": "function"
    },
    {
      "inputs": [
        {
          "internalType": "contract IIntegrationVault",
          "name": "fromVault",
          "type": "address"
        },
        {
          "internalType": "contract IIntegrationVault",
          "name": "toVault",
          "type": "address"
        },
        {
          "internalType": "uint256[]",
          "name": "tokenAmounts",
          "type": "uint256[]"
        },
        {
          "internalType": "bytes",
          "name": "vaultOptions",
          "type": "bytes"
        }
      ],
      "name": "manualPull",
      "outputs": [],
      "stateMutability": "nonpayable",
      "type": "function"
    },
    {
      "inputs": [],
      "name": "mintingParams",
      "outputs": [
        {
          "internalType": "uint256",
          "name": "minToken0ForOpening",
          "type": "uint256"
        },
        {
          "internalType": "uint256",
          "name": "minToken1ForOpening",
          "type": "uint256"
        }
      ],
      "stateMutability": "view",
      "type": "function"
    },
    {
      "inputs": [],
      "name": "moneyVault",
      "outputs": [
        {
          "internalType": "contract IIntegrationVault",
          "name": "",
          "type": "address"
        }
      ],
      "stateMutability": "view",
      "type": "function"
    },
    {
      "inputs": [
        {
          "internalType": "bytes[]",
          "name": "data",
          "type": "bytes[]"
        }
      ],
      "name": "multicall",
      "outputs": [
        {
          "internalType": "bytes[]",
          "name": "results",
          "type": "bytes[]"
        }
      ],
      "stateMutability": "nonpayable",
      "type": "function"
    },
    {
      "inputs": [],
      "name": "oracleParams",
      "outputs": [
        {
          "internalType": "uint32",
          "name": "averagePriceTimeSpan",
          "type": "uint32"
        },
        {
          "internalType": "uint24",
          "name": "maxTickDeviation",
          "type": "uint24"
        }
      ],
      "stateMutability": "view",
      "type": "function"
    },
    {
      "inputs": [],
      "name": "pool",
      "outputs": [
        {
          "internalType": "contract IUniswapV3Pool",
          "name": "",
          "type": "address"
        }
      ],
      "stateMutability": "view",
      "type": "function"
    },
    {
      "inputs": [],
      "name": "ratioParams",
      "outputs": [
        {
          "internalType": "uint256",
          "name": "erc20CapitalRatioD",
          "type": "uint256"
        },
        {
          "internalType": "uint256",
          "name": "minCapitalDeviationD",
          "type": "uint256"
        },
        {
          "internalType": "uint256",
          "name": "minRebalanceDeviationD",
          "type": "uint256"
        }
      ],
      "stateMutability": "view",
      "type": "function"
    },
    {
      "inputs": [
        {
          "components": [
            {
              "internalType": "uint256[]",
              "name": "pulledToUniV3Vault",
              "type": "uint256[]"
            },
            {
              "internalType": "uint256[]",
              "name": "pulledFromUniV3Vault",
              "type": "uint256[]"
            },
            {
              "internalType": "int256[]",
              "name": "swappedAmounts",
              "type": "int256[]"
            },
            {
              "internalType": "uint256[]",
              "name": "burnedAmounts",
              "type": "uint256[]"
            },
            {
              "internalType": "uint256",
              "name": "deadline",
              "type": "uint256"
            }
          ],
          "internalType": "struct HStrategy.RebalanceTokenAmounts",
          "name": "restrictions",
          "type": "tuple"
        },
        {
          "internalType": "bytes",
          "name": "moneyVaultOptions",
          "type": "bytes"
        }
      ],
      "name": "rebalance",
      "outputs": [
        {
          "components": [
            {
              "internalType": "uint256[]",
              "name": "pulledToUniV3Vault",
              "type": "uint256[]"
            },
            {
              "internalType": "uint256[]",
              "name": "pulledFromUniV3Vault",
              "type": "uint256[]"
            },
            {
              "internalType": "int256[]",
              "name": "swappedAmounts",
              "type": "int256[]"
            },
            {
              "internalType": "uint256[]",
              "name": "burnedAmounts",
              "type": "uint256[]"
            },
            {
              "internalType": "uint256",
              "name": "deadline",
              "type": "uint256"
            }
          ],
          "internalType": "struct HStrategy.RebalanceTokenAmounts",
          "name": "actualPulledAmounts",
          "type": "tuple"
        },
        {
          "internalType": "uint256[]",
          "name": "burnedAmounts",
          "type": "uint256[]"
        }
      ],
      "stateMutability": "nonpayable",
      "type": "function"
    },
    {
      "inputs": [
        {
          "internalType": "bytes32",
          "name": "role",
          "type": "bytes32"
        },
        {
          "internalType": "address",
          "name": "account",
          "type": "address"
        }
      ],
      "name": "renounceRole",
      "outputs": [],
      "stateMutability": "nonpayable",
      "type": "function"
    },
    {
      "inputs": [
        {
          "internalType": "bytes32",
          "name": "role",
          "type": "bytes32"
        },
        {
          "internalType": "address",
          "name": "account",
          "type": "address"
        }
      ],
      "name": "revokeRole",
      "outputs": [],
      "stateMutability": "nonpayable",
      "type": "function"
    },
    {
      "inputs": [],
      "name": "router",
      "outputs": [
        {
          "internalType": "contract ISwapRouter",
          "name": "",
          "type": "address"
        }
      ],
      "stateMutability": "view",
      "type": "function"
    },
    {
      "inputs": [],
      "name": "strategyParams",
      "outputs": [
        {
          "internalType": "int24",
          "name": "halfOfShortInterval",
          "type": "int24"
        },
        {
          "internalType": "int24",
          "name": "tickNeighborhood",
          "type": "int24"
        },
        {
          "internalType": "int24",
          "name": "domainLowerTick",
          "type": "int24"
        },
        {
          "internalType": "int24",
          "name": "domainUpperTick",
          "type": "int24"
        }
      ],
      "stateMutability": "view",
      "type": "function"
    },
    {
      "inputs": [
        {
          "internalType": "bytes4",
          "name": "interfaceId",
          "type": "bytes4"
        }
      ],
      "name": "supportsInterface",
      "outputs": [
        {
          "internalType": "bool",
          "name": "",
          "type": "bool"
        }
      ],
      "stateMutability": "view",
      "type": "function"
    },
    {
      "inputs": [],
      "name": "swapFees",
      "outputs": [
        {
          "internalType": "uint24",
          "name": "",
          "type": "uint24"
        }
      ],
      "stateMutability": "view",
      "type": "function"
    },
    {
      "inputs": [
        {
          "internalType": "uint256",
          "name": "",
          "type": "uint256"
        }
      ],
      "name": "tokens",
      "outputs": [
        {
          "internalType": "address",
          "name": "",
          "type": "address"
        }
      ],
      "stateMutability": "view",
      "type": "function"
    },
    {
      "inputs": [],
      "name": "uniV3Vault",
      "outputs": [
        {
          "internalType": "contract IUniV3Vault",
          "name": "",
          "type": "address"
        }
      ],
      "stateMutability": "view",
      "type": "function"
    },
    {
      "inputs": [
        {
          "components": [
            {
              "internalType": "uint256",
              "name": "minToken0ForOpening",
              "type": "uint256"
            },
            {
              "internalType": "uint256",
              "name": "minToken1ForOpening",
              "type": "uint256"
            }
          ],
          "internalType": "struct HStrategy.MintingParams",
          "name": "newMintingParams",
          "type": "tuple"
        }
      ],
      "name": "updateMintingParams",
      "outputs": [],
      "stateMutability": "nonpayable",
      "type": "function"
    },
    {
      "inputs": [
        {
          "components": [
            {
              "internalType": "uint32",
              "name": "averagePriceTimeSpan",
              "type": "uint32"
            },
            {
              "internalType": "uint24",
              "name": "maxTickDeviation",
              "type": "uint24"
            }
          ],
          "internalType": "struct HStrategy.OracleParams",
          "name": "newOracleParams",
          "type": "tuple"
        }
      ],
      "name": "updateOracleParams",
      "outputs": [],
      "stateMutability": "nonpayable",
      "type": "function"
    },
    {
      "inputs": [
        {
          "components": [
            {
              "internalType": "uint256",
              "name": "erc20CapitalRatioD",
              "type": "uint256"
            },
            {
              "internalType": "uint256",
              "name": "minCapitalDeviationD",
              "type": "uint256"
            },
            {
              "internalType": "uint256",
              "name": "minRebalanceDeviationD",
              "type": "uint256"
            }
          ],
          "internalType": "struct HStrategy.RatioParams",
          "name": "newRatioParams",
          "type": "tuple"
        }
      ],
      "name": "updateRatioParams",
      "outputs": [],
      "stateMutability": "nonpayable",
      "type": "function"
    },
    {
      "inputs": [
        {
          "components": [
            {
              "internalType": "int24",
              "name": "halfOfShortInterval",
              "type": "int24"
            },
            {
              "internalType": "int24",
              "name": "tickNeighborhood",
              "type": "int24"
            },
            {
              "internalType": "int24",
              "name": "domainLowerTick",
              "type": "int24"
            },
            {
              "internalType": "int24",
              "name": "domainUpperTick",
              "type": "int24"
            }
          ],
          "internalType": "struct HStrategy.StrategyParams",
          "name": "newStrategyParams",
          "type": "tuple"
        }
      ],
      "name": "updateStrategyParams",
      "outputs": [],
      "stateMutability": "nonpayable",
      "type": "function"
    },
    {
      "inputs": [
        {
          "internalType": "uint24",
          "name": "newSwapFees",
          "type": "uint24"
        }
      ],
      "name": "updateSwapFees",
      "outputs": [],
      "stateMutability": "nonpayable",
      "type": "function"
    }
  ],
  "bytecode": {
    "object": "0x6101006040523480156200001257600080fd5b506040516200648f3803806200648f8339810160408190526200003591620004b6565b60408051808201909152600281526120ad60f11b60208201526001600160a01b038516620000815760405162461bcd60e51b81526004016200007891906200051e565b60405180910390fd5b5060408051808201909152600281526120ad60f11b60208201526001600160a01b038416620000c55760405162461bcd60e51b81526004016200007891906200051e565b5060408051808201909152600281526120ad60f11b60208201526001600160a01b038316620001095760405162461bcd60e51b81526004016200007891906200051e565b5060408051808201909152600281526120ad60f11b60208201526001600160a01b0382166200014d5760405162461bcd60e51b81526004016200007891906200051e565b506001600160a01b0384811660a05283811660805282811660c052811660e05262000184306200018e602090811b620010b917901c565b5050505062000576565b60408051808201909152600281526120ad60f11b60208201526001600160a01b038216620001d15760405162461bcd60e51b81526004016200007891906200051e565b506002546040805180820190915260048152631253925560e21b60208201529060ff1615620002155760405162461bcd60e51b81526004016200007891906200051e565b50620002316000805160206200646f83398151915282620002ed565b6200024c6000805160206200644f83398151915282620002ed565b620002676000805160206200644f83398151915280620002fd565b620002a27fc171260023d22a25a00a2789664c9334017843b831138c8ef03cc8897e5873d76000805160206200644f833981519152620002fd565b620002dd6000805160206200646f8339815191527fc171260023d22a25a00a2789664c9334017843b831138c8ef03cc8897e5873d7620002fd565b506002805460ff19166001179055565b620002f9828262000348565b5050565b600082815260208190526040808220600101805490849055905190918391839186917fbd79b86ffe0ab8e8776151514217cd7cacd52c909f66475c3af44e129f0b00ff9190a4505050565b6200035f82826200038b60201b62001c131760201c565b60008281526001602090815260409091206200038691839062001c976200042b821b17901c565b505050565b6000828152602081815260408083206001600160a01b038516845290915290205460ff16620002f9576000828152602081815260408083206001600160a01b03851684529091529020805460ff19166001179055620003e73390565b6001600160a01b0316816001600160a01b0316837f2f8788117e7eff1d82e926ec794901d17c78024a50270940304540a733656f0d60405160405180910390a45050565b600062000442836001600160a01b0384166200044b565b90505b92915050565b6000818152600183016020526040812054620004945750815460018181018455600084815260208082209093018490558454848252828601909352604090209190915562000445565b50600062000445565b6001600160a01b0381168114620004b357600080fd5b50565b60008060008060808587031215620004cd57600080fd5b8451620004da816200049d565b6020860151909450620004ed816200049d565b604086015190935062000500816200049d565b606086015190925062000513816200049d565b939692955090935050565b600060208083528351808285015260005b818110156200054d578581018301518582016040015282016200052f565b8181111562000560576000604083870101525b50601f01601f1916929092016040019392505050565b60805160a05160c05160e051615e59620005f660003960008181611ace0152818161211b0152612305015260008181611aa3015261256a015260008181610ef4015281816113a40152818161223a0152818161243401526127dc0152600081816106c001528181613e0b01528181613ef80152613fb60152615e596000f3fe608060405234801561001057600080fd5b50600436106102745760003560e01c806375d0c0dc11610151578063bc631259116100c3578063d547741f11610087578063d547741f146105fe578063d80c8a3f14610611578063f25b9c271461063e578063f57f33d014610661578063f887ea40146106bb578063feca4a1d146106e257600080fd5b8063bc63125914610565578063bc9f559e14610586578063c3329b9d14610599578063ca15c873146105ac578063cf0d2483146105bf57600080fd5b8063a086583911610115578063a0865839146104d1578063a0a8e460146104f8578063a217fddf14610500578063ac9650d814610508578063b9ccf21d14610528578063baca12191461055257600080fd5b806375d0c0dc146104615780639010d07c14610476578063918f86741461048957806391d14854146104a9578063983d2737146104bc57600080fd5b8063248a9ca3116101ea57806345e9f3c1116101ae57806345e9f3c1146103ed57806346eca881146104005780634f64b2be14610413578063680befd1146104265780636d70f7ae1461043957806375b238fc1461044c57600080fd5b8063248a9ca31461037e57806324d7806c146103a15780632f2ff15d146103b457806336568abe146103c75780633cf976dc146103da57600080fd5b80630f24eede1161023c5780630f24eede14610310578063151355d114610325578063158ef93e1461033857806316f0115b14610345578063187d4a731461035857806319ab453c1461036b57600080fd5b806301ffc9a71461027957806306a46239146102a1578063090f9221146102b95780630952ff54146102e95780630e3e80ac146102fe575b600080fd5b61028c610287366004614588565b6106f0565b60405190151581526020015b60405180910390f35b640312e302e360dc1b5b604051908152602001610298565b6002546102d19061010090046001600160a01b031681565b6040516001600160a01b039091168152602001610298565b6102ab600080516020615d9d83398151915281565b6848537472617465677960b81b6102ab565b61032361031e3660046145b2565b610720565b005b6103236103333660046146ba565b610a6d565b60025461028c9060ff1681565b6006546102d1906001600160a01b031681565b6004546102d1906001600160a01b031681565b6103236103793660046147ab565b6110b9565b6102ab61038c3660046147c8565b60009081526020819052604090206001015490565b61028c6103af3660046147ab565b6111df565b6103236103c23660046147e1565b611217565b6103236103d53660046147e1565b611241565b6103236103e8366004614823565b6112bf565b6103236103fb36600461483f565b611398565b61032361040e36600461485c565b6115ba565b6102d16104213660046147c8565b611696565b610323610434366004614823565b6116c0565b61028c6104473660046147ab565b611786565b6102ab600080516020615dbd83398151915281565b6104696117a0565b60405161029891906148ca565b6102d16104843660046148dd565b6117b7565b610494633b9aca0081565b60405163ffffffff9091168152602001610298565b61028c6104b73660046147e1565b6117d6565b6102ab600080516020615ddd83398151915281565b6104df63095ea7b360e01b81565b6040516001600160e01b03199091168152602001610298565b6104696117ff565b6102ab600081565b61051b6105163660046148ff565b611812565b6040516102989190614973565b60065461053e90600160a01b900462ffffff1681565b60405162ffffff9091168152602001610298565b610323610560366004614ab3565b611906565b610578610573366004614b3b565b61199e565b604051610298929190614c7f565b6003546102d1906001600160a01b031681565b6102d16105a73660046146ba565b611b57565b6102ab6105ba3660046147c8565b611bd7565b600c546105de9063ffffffff811690640100000000900462ffffff1682565b6040805163ffffffff909316835262ffffff909116602083015201610298565b61032361060c3660046147e1565b611bee565b600d54600e54600f5461062392919083565b60408051938452602084019290925290820152606001610298565b600a54600b5461064c919082565b60408051928352602083019190915201610298565b60095461068e90600281810b9163010000008104820b91600160301b8204810b91600160481b9004900b84565b60408051600295860b815293850b602085015291840b9183019190915290910b6060820152608001610298565b6102d17f000000000000000000000000000000000000000000000000000000000000000081565b6104df63414bf38960e01b81565b60006001600160e01b03198216635a05180f60e01b1480610715575061071582611cac565b92915050565b905090565b610728611ce1565b600654604080516334324e9f60e21b815290516000926001600160a01b03169163d0c93a7c916004808301926020929190829003018186803b15801561076d57600080fd5b505afa158015610781573d6000803e3d6000fd5b505050506040513d601f19601f820116820180604052508101906107a59190614d53565b905060006107b66020840184614d70565b60020b1380156107de5750806107cf6020840184614d70565b6107d99190614d8d565b60020b155b801561080b57506107f26020830183614d70565b60020b6108056040840160208501614d70565b60020b13155b801561082d5750620d89e7196108276040840160208501614d70565b60020b12155b60405180604001604052806004815260200163494e564160e01b815250906108715760405162461bcd60e51b815260040161086891906148ca565b60405180910390fd5b5060006108846060840160408501614d70565b6108946080850160608601614d70565b61089e9190614dd3565b9050816108b16060850160408601614d70565b6108bb9190614d8d565b60020b1580156108e65750816108d76080850160608601614d70565b6108e19190614d8d565b60020b155b801561090357506108fa6020840184614d70565b60020b8160020b135b801561092657506109176020840184614d70565b6109219082614d8d565b60020b155b60405180604001604052806004815260200163494e564160e01b815250906109615760405162461bcd60e51b815260040161086891906148ca565b5060408051608081018252600954600281810b80845263010000008304820b602080860191909152600160301b8404830b95850195909552600160481b909204900b606083015290916109b690860186614d70565b60020b1415806109e25750806040015160020b8460400160208101906109dc9190614d70565b60020b14155b80610a095750806060015160020b846060016020810190610a039190614d70565b60020b14155b15610a1c576008805460ff191660011790555b836009610a298282614e1b565b5050604051339032907f32bcabf6262b2098ab64aef50c1fcb330622d47c26e62ba17c8b8f976f8d309a90610a5f908890614eed565b60405180910390a350505050565b610a76816110b9565b6000856001600160a01b031663697222336040518163ffffffff1660e01b815260040160006040518083038186803b158015610ab157600080fd5b505afa158015610ac5573d6000803e3d6000fd5b505050506040513d6000823e601f3d908101601f19168201604052610aed9190810190614f56565b90506000856001600160a01b031663697222336040518163ffffffff1660e01b815260040160006040518083038186803b158015610b2a57600080fd5b505afa158015610b3e573d6000803e3d6000fd5b505050506040513d6000823e601f3d908101601f19168201604052610b669190810190614f56565b90506000856001600160a01b031663697222336040518163ffffffff1660e01b815260040160006040518083038186803b158015610ba357600080fd5b505afa158015610bb7573d6000803e3d6000fd5b505050506040513d6000823e601f3d908101601f19168201604052610bdf9190810190614f56565b90508851600214604051806040016040528060048152602001631253959360e21b81525090610c215760405162461bcd60e51b815260040161086891906148ca565b508251600214604051806040016040528060048152602001631253959360e21b81525090610c625760405162461bcd60e51b815260040161086891906148ca565b508151600214604051806040016040528060048152602001631253959360e21b81525090610ca35760405162461bcd60e51b815260040161086891906148ca565b508051600214604051806040016040528060048152602001631253959360e21b81525090610ce45760405162461bcd60e51b815260040161086891906148ca565b5060005b6002811015610e8c57898181518110610d0357610d03614fe4565b60200260200101516001600160a01b0316848281518110610d2657610d26614fe4565b60200260200101516001600160a01b03161460405180604001604052806004815260200163494e564160e01b81525090610d735760405162461bcd60e51b815260040161086891906148ca565b50898181518110610d8657610d86614fe4565b60200260200101516001600160a01b0316838281518110610da957610da9614fe4565b60200260200101516001600160a01b03161460405180604001604052806004815260200163494e564160e01b81525090610df65760405162461bcd60e51b815260040161086891906148ca565b50898181518110610e0957610e09614fe4565b60200260200101516001600160a01b0316828281518110610e2c57610e2c614fe4565b60200260200101516001600160a01b03161460405180604001604052806004815260200163494e564160e01b81525090610e795760405162461bcd60e51b815260040161086891906148ca565b5080610e8481614ffa565b915050610ce8565b50600280546001600160a01b03808b1661010002610100600160a81b031990921691909117909155600380548983166001600160a01b03199182161790915560048054928916929091169190911790558851610eef9060059060208c019061450e565b5060007f00000000000000000000000000000000000000000000000000000000000000006001600160a01b031663c45a01556040518163ffffffff1660e01b815260040160206040518083038186803b158015610f4b57600080fd5b505afa158015610f5f573d6000803e3d6000fd5b505050506040513d601f19601f82011682018060405250810190610f839190615015565b9050806001600160a01b0316631698ee828b600081518110610fa757610fa7614fe4565b60200260200101518c600181518110610fc257610fc2614fe4565b60209081029190910101516040516001600160e01b031960e085901b1681526001600160a01b0392831660048201529116602482015262ffffff8916604482015260640160206040518083038186803b15801561101e57600080fd5b505afa158015611032573d6000803e3d6000fd5b505050506040513d601f19601f820116820180604052508101906110569190615015565b600680546001600160a01b0319166001600160a01b0392909216918217905560408051808201909152600281526120ad60f11b6020820152906110ac5760405162461bcd60e51b815260040161086891906148ca565b5050505050505050505050565b60408051808201909152600281526120ad60f11b60208201526001600160a01b0382166110f95760405162461bcd60e51b815260040161086891906148ca565b506002546040805180820190915260048152631253925560e21b60208201529060ff161561113a5760405162461bcd60e51b815260040161086891906148ca565b50611153600080516020615ddd83398151915282611d27565b61116b600080516020615dbd83398151915282611d27565b611183600080516020615dbd83398151915280611d31565b6111a9600080516020615d9d833981519152600080516020615dbd833981519152611d31565b6111cf600080516020615ddd833981519152600080516020615d9d833981519152611d31565b506002805460ff19166001179055565b60006111f9600080516020615dbd833981519152836117d6565b806107155750610715600080516020615d9d833981519152836117d6565b60008281526020819052604090206001015461123281611d7c565b61123c8383611d86565b505050565b6001600160a01b03811633146112b15760405162461bcd60e51b815260206004820152602f60248201527f416363657373436f6e74726f6c3a2063616e206f6e6c792072656e6f756e636560448201526e103937b632b9903337b91039b2b63360891b6064820152608401610868565b6112bb8282611da8565b5050565b6112c7611ce1565b60006112d66020830183615044565b63ffffffff1611801561130e57506112f1620d89e719615061565b62ffffff16611306604083016020840161483f565b62ffffff1611155b60405180604001604052806004815260200163494e564160e01b815250906113495760405162461bcd60e51b815260040161086891906148ca565b5080600c6113578282615084565b5050604051339032907ff573d8ccaf972e5d100a2870f253b2d24112da63b83862591ca2a807c889d95c9061138d9085906150d8565b60405180910390a350565b6113a0611ce1565b60007f00000000000000000000000000000000000000000000000000000000000000006001600160a01b031663c45a01556040518163ffffffff1660e01b815260040160206040518083038186803b1580156113fb57600080fd5b505afa15801561140f573d6000803e3d6000fd5b505050506040513d601f19601f820116820180604052508101906114339190615015565b6001600160a01b0316631698ee82600560008154811061145557611455614fe4565b600091825260209091200154600580546001600160a01b0390921691600190811061148257611482614fe4565b60009182526020909120015460405160e084901b6001600160e01b03191681526001600160a01b0392831660048201529116602482015262ffffff8516604482015260640160206040518083038186803b1580156114df57600080fd5b505afa1580156114f3573d6000803e3d6000fd5b505050506040513d601f19601f820116820180604052508101906115179190615015565b604080518082019091526004815263494e564160e01b60208201529091506001600160a01b03821661155c5760405162461bcd60e51b815260040161086891906148ca565b506006805462ffffff60a01b1916600160a01b62ffffff851690810291909117909155604051908152339032907fa893286d464830220dffbb12de8195f0172bb0b0c40d5348ad875360613895849060200160405180910390a35050565b6115c2611ce1565b633b9aca008135118015906115dc57508035602082013511155b80156115ec575060008160400135115b80156116005750633b9aca00604082013511155b60405180604001604052806004815260200163494e564160e01b8152509061163b5760405162461bcd60e51b815260040161086891906148ca565b508035600d819055602080830135600e819055604080850135600f819055815194855292840191909152820152339032907fa818ddde63da2cc265253995a209adcdc8ab1b11bb4046e1de2c27c32890a35f9060600161138d565b600581815481106116a657600080fd5b6000918252602090912001546001600160a01b0316905081565b6116c8611ce1565b8035158015906116dc575060008160200135115b80156116ed5750633b9aca00813511155b80156117015750633b9aca00816020013511155b60405180604001604052806004815260200163494e564160e01b8152509061173c5760405162461bcd60e51b815260040161086891906148ca565b508035600a819055602080830135600b8190556040805193845291830152339132917f621f25512e484afa0fce87e1ba4fe17a6cb3f7b087c714cf9b62301401ea2e39910161138d565b6000610715600080516020615ddd833981519152836117d6565b606061071b6848537472617465677960b81b611dca565b60008281526001602052604081206117cf9083611e36565b9392505050565b6000918252602082815260408084206001600160a01b0393909316845291905290205460ff1690565b606061071b640312e302e360dc1b611dca565b6060816001600160401b0381111561182c5761182c6145ca565b60405190808252806020026020018201604052801561185f57816020015b606081526020019060019003908161184a5790505b50905060005b828110156118ff576118cf3085858481811061188357611883614fe4565b9050602002810190611895919061510f565b8080601f016020809104026020016040519081016040528093929190818152602001838380828437600092019190915250611e4292505050565b8282815181106118e1576118e1614fe4565b602002602001018190525080806118f790614ffa565b915050611865565b5092915050565b61190e611ce1565b604051630818b5d560e21b81526001600160a01b03851690632062d754906119419086906005908790879060040161515c565b600060405180830381600087803b15801561195b57600080fd5b505af115801561196f573d6000803e3d6000fd5b505050506040513d6000823e601f3d908101601f191682016040526119979190810190615233565b5050505050565b6119d06040518060a0016040528060608152602001606081526020016060815260200160608152602001600081525090565b60606119da611e67565b60065460408051633850c7bd60e01b815290516001600160a01b03909216916000918391633850c7bd9160048082019260e092909190829003018186803b158015611a2457600080fd5b505afa158015611a38573d6000803e3d6000fd5b505050506040513d601f19601f82011682018060405250810190611a5c9190615289565b5050604051632996fe6560e11b8152600285900b60048201526001600160a01b038881166024830152600c5463ffffffff8116604484015260201c62ffffff1660648301527f0000000000000000000000000000000000000000000000000000000000000000811660848301529496507f0000000000000000000000000000000000000000000000000000000000000000909416945063532dfcca9360a4019250611b05915050565b60006040518083038186803b158015611b1d57600080fd5b505afa158015611b31573d6000803e3d6000fd5b50505050611b3f8682611e7f565b9250611b4c86868361226d565b935050509250929050565b6000611b623061299c565b60405163151355d160e01b81529091506001600160a01b0382169063151355d190611b9b908a908a908a908a908a908a90600401615355565b600060405180830381600087803b158015611bb557600080fd5b505af1158015611bc9573d6000803e3d6000fd5b505050509695505050505050565b600081815260016020526040812061071590612a36565b600082815260208190526040902060010154611c0981611d7c565b61123c8383611da8565b611c1d82826117d6565b6112bb576000828152602081815260408083206001600160a01b03851684529091529020805460ff19166001179055611c533390565b6001600160a01b0316816001600160a01b0316837f2f8788117e7eff1d82e926ec794901d17c78024a50270940304540a733656f0d60405160405180910390a45050565b60006117cf836001600160a01b038416612a40565b60006001600160e01b03198216637965db0b60e01b148061071557506301ffc9a760e01b6001600160e01b0319831614610715565b611cea336111df565b6040518060400160405280600381526020016223292160e91b81525090611d245760405162461bcd60e51b815260040161086891906148ca565b50565b6112bb8282611d86565b600082815260208190526040808220600101805490849055905190918391839186917fbd79b86ffe0ab8e8776151514217cd7cacd52c909f66475c3af44e129f0b00ff9190a4505050565b611d248133612a8f565b611d908282611c13565b600082815260016020526040902061123c9082611c97565b611db28282612ae8565b600082815260016020526040902061123c9082612b4d565b604080516020808252818301909252606091602082018180368337019050509050602060005b6020811015611e2857838160208110611e0b57611e0b614fe4565b1a611e1857809150611e28565b611e2181614ffa565b9050611df0565b508152602081019190915290565b60006117cf8383612b62565b60606117cf8383604051806060016040528060278152602001615dfd60279139612b8c565b611e70336111df565b80611cea5750611cea33611786565b600254600480546040805163f4adc08b60e01b815290516060946001600160a01b03610100909104811694931692600092849263f4adc08b92828101926020929190829003018186803b158015611ed557600080fd5b505afa158015611ee9573d6000803e3d6000fd5b505050506040513d601f19601f82011682018060405250810190611f0d91906153a7565b60408051608081018252600954600281810b835263010000008204810b602080850191909152600160301b8304820b84860152600160481b909204900b60608301526006546005805485518185028101850190965280865295965092946001600160a01b03909116936000939092909190830182828015611fb757602002820191906000526020600020905b81546001600160a01b03168152600190910190602001808311611f99575b5093945060029350611fc892505050565b604051908082528060200260200182016040528015611ff1578160200160208202803683370190505b5096506000198760008151811061200a5761200a614fe4565b6020026020010181815250506000198760018151811061202c5761202c614fe4565b6020908102919091018101919091526008805461ff001916905560408051808201909152600754600281810b8084526301000000909204810b838501529286015191928b900b9061207e9083906153c0565b60020b131580156120a457508960020b81836020015161209e9190614dd3565b60020b12155b80156120b3575060085460ff16155b156120c5575050505050505050610715565b6008805460ff19169055604080516382a86fad60e01b815260028c810b60048301528751810b60248301526020880151810b604483015291870151820b6064820152606087015190910b608482015260009081907f00000000000000000000000000000000000000000000000000000000000000006001600160a01b0316906382a86fad9060a401604080518083038186803b15801561216457600080fd5b505afa158015612178573d6000803e3d6000fd5b505050506040513d601f19601f8201168201806040525081019061219c9190615407565b91509150836000015160020b8260020b1480156121c257508060020b846020015160020b145b156121d65750505050505050505050610715565b60408051808201909152600283810b825282900b6020909101526007805462ffffff93841665ffffffffffff1990911617630100000093909216929092021790555050831561222f5761222c8987878785612c04565b96505b612261828a608001517f0000000000000000000000000000000000000000000000000000000000000000888886612d5e565b50505050505092915050565b61229f6040518060a0016040528060608152602001606081526020016060815260200160608152602001600081525090565b6004546040805161018081018252600080825260208201819052918101829052606081018290526080810182905260a0810182905260c0810182905260e081018290526101008101829052610120810182905261014081018290526101608101919091527f0000000000000000000000000000000000000000000000000000000000000000916001600160a01b0316906000826001600160a01b031663f4adc08b6040518163ffffffff1660e01b815260040160206040518083038186803b15801561236a57600080fd5b505afa15801561237e573d6000803e3d6000fd5b505050506040513d601f19601f820116820180604052508101906123a291906153a7565b604080518082019091526004815263494e564160e01b6020820152909150816123de5760405162461bcd60e51b815260040161086891906148ca565b50604051635c36f59960e11b8152600287810b600483015260095480820b6024840152601881901c820b6044840152603081901c820b606484015260481c900b608482015260a481018290526001600160a01b037f0000000000000000000000000000000000000000000000000000000000000000811660c483015285169063b86deb329060e4016101806040518083038186803b15801561247f57600080fd5b505afa158015612493573d6000803e3d6000fd5b505050506040513d601f19601f820116820180604052508101906124b7919061544d565b6003546002546040516364766cf760e01b81529294506001600160a01b03918216935061010090048116916000918716906364766cf79061250090859087908990600401615616565b60c060405180830381600087803b15801561251a57600080fd5b505af115801561252e573d6000803e3d6000fd5b505050506040513d601f19601f82011682018060405250810190612552919061563c565b90506000866001600160a01b031663cb47719183878a7f0000000000000000000000000000000000000000000000000000000000000000600d6040518663ffffffff1660e01b81526004016125ab9594939291906156ef565b60c06040518083038186803b1580156125c357600080fd5b505afa1580156125d7573d6000803e3d6000fd5b505050506040513d601f19601f820116820180604052508101906125fb919061563c565b604051635372666760e01b81529091506001600160a01b0388169063537266679061262f9085908590600d9060040161574c565b60206040518083038186803b15801561264757600080fd5b505afa15801561265b573d6000803e3d6000fd5b505050506040513d601f19601f8201168201806040525081019061267f919061578b565b61268f57505050505050506117cf565b600060058054806020026020016040519081016040528092919081815260200182805480156126e757602002820191906000526020600020905b81546001600160a01b031681526001909101906020018083116126c9575b505050505090506126ff88838e8e8a898b8e89613103565b60208a0152604051630761244b60e41b81526001600160a01b0389169063761244b0906127379086908690600d908c906004016157a6565b60206040518083038186803b15801561274f57600080fd5b505afa158015612763573d6000803e3d6000fd5b505050506040513d601f19601f82011682018060405250810190612787919061578b565b1561279f5761279983838e8785613401565b60408a01525b6127d86040518060c001604052806000815260200160008152602001600081526020016000815260200160008152602001600081525090565b60007f00000000000000000000000000000000000000000000000000000000000000006001600160a01b03166399fbab888a6001600160a01b031663f4adc08b6040518163ffffffff1660e01b815260040160206040518083038186803b15801561284257600080fd5b505afa158015612856573d6000803e3d6000fd5b505050506040513d601f19601f8201168201806040525081019061287a91906153a7565b6040518263ffffffff1660e01b815260040161289891815260200190565b6101806040518083038186803b1580156128b157600080fd5b505afa1580156128c5573d6000803e3d6000fd5b505050506040513d601f19601f820116820180604052508101906128e991906157f9565b50505050975050505050505050896001600160a01b031663240a72a188868b856040518563ffffffff1660e01b815260040161292894939291906158da565b60c06040518083038186803b15801561294057600080fd5b505afa158015612954573d6000803e3d6000fd5b505050506040513d601f19601f82011682018060405250810190612978919061563c565b91505061298a818e8e888a8d886134c2565b8a525050505050505050509392505050565b6000763d602d80600a3d3981f3363d3d373d3d3d363d730000008260601b60e81c176000526e5af43d82803e903d91602b57fd5bf38260781b17602052603760096000f090506001600160a01b038116612a315760405162461bcd60e51b8152602060048201526016602482015275115490cc4c4d8dce8818dc99585d194819985a5b195960521b6044820152606401610868565b919050565b6000610715825490565b6000818152600183016020526040812054612a8757508154600181810184556000848152602080822090930184905584548482528286019093526040902091909155610715565b506000610715565b612a9982826117d6565b6112bb57612aa6816136f8565b612ab183602061370a565b604051602001612ac292919061591e565b60408051601f198184030181529082905262461bcd60e51b8252610868916004016148ca565b612af282826117d6565b156112bb576000828152602081815260408083206001600160a01b0385168085529252808320805460ff1916905551339285917ff6391f5c32d9c69d2a47ea670b442974b53935d1edc7fd64eb21e047a839171b9190a45050565b60006117cf836001600160a01b0384166138a5565b6000826000018281548110612b7957612b79614fe4565b9060005260206000200154905092915050565b6060600080856001600160a01b031685604051612ba99190615993565b600060405180830381855af49150503d8060008114612be4576040519150601f19603f3d011682016040523d82523d6000602084013e612be9565b606091505b5091509150612bfa86838387613998565b9695505050505050565b6040516303217f1d60e61b81526001600160801b0360048201526060906001600160a01b0385169063c85fc7409060240160006040518083038186803b158015612c4d57600080fd5b505afa158015612c61573d6000803e3d6000fd5b505050506040513d6000823e601f3d908101601f19168201604052612c899190810190615233565b604051630818b5d560e21b81529091506001600160a01b03851690632062d75490612cbc908890869086906004016159af565b600060405180830381600087803b158015612cd657600080fd5b505af1158015612cea573d6000803e3d6000fd5b505050506040513d6000823e601f3d908101601f19168201604052612d129190810190615233565b9050612d22866060015182613a16565b6040518381527f2b92239b50d51d37b3a869ca7c1f1e7f0b57c521f296141ef9994258a95bd4949060200160405180910390a195945050505050565b60408051808201909152600a54808252600b5460209092018290528251909190612db790879084908690600090612d9757612d97614fe4565b60200260200101516001600160a01b0316613aa69092919063ffffffff16565b612dcf868285600181518110612d9757612d97614fe4565b604080518082018252600754600281810b83526301000000909104900b602082015281516101608101909252845190916000916001600160a01b038a1691638831645691819089908690612e2557612e25614fe4565b60200260200101516001600160a01b0316815260200188600181518110612e4e57612e4e614fe4565b60200260200101516001600160a01b031681526020018d6001600160a01b031663ddca3f436040518163ffffffff1660e01b815260040160206040518083038186803b158015612e9d57600080fd5b505afa158015612eb1573d6000803e3d6000fd5b505050506040513d601f19601f82011682018060405250810190612ed59190615a01565b62ffffff168152602001856000015160020b8152602001856020015160020b81526020018781526020018681526020016000815260200160008152602001306001600160a01b031681526020018c8152506040518263ffffffff1660e01b8152600401612f429190615a1e565b608060405180830381600087803b158015612f5c57600080fd5b505af1158015612f70573d6000803e3d6000fd5b505050506040513d601f19601f82011682018060405250810190612f949190615ae2565b5050509050612fb288600087600081518110612d9757612d97614fe4565b612fcb88600087600181518110612d9757612d97614fe4565b604051632142170760e11b81523060048201526001600160a01b038881166024830152604482018390528916906342842e0e90606401600060405180830381600087803b15801561301b57600080fd5b505af115801561302f573d6000803e3d6000fd5b505050508560001461309657604051630852cd8d60e31b8152600481018790526001600160a01b038916906342966c6890602401600060405180830381600087803b15801561307d57600080fd5b505af1158015613091573d6000803e3d6000fd5b505050505b6008805461ff001916610100179055815160208301516040517f9f403a6168b8e96f2a7a81b59626805e7d500b7071573f2e75f085bee9e45a97926130ef92858352600291820b6020840152900b604082015260600190565b60405180910390a150505050505050505050565b604080516002808252606080830184529260208301908036833701905050600854909150610100900460ff1661329a57604051631c88f58560e31b81526000906001600160a01b038c169063e447ac2890613164908d908b90600401615b1e565b60006040518083038186803b15801561317c57600080fd5b505afa158015613190573d6000803e3d6000fd5b505050506040513d6000823e601f3d908101601f191682016040526131b89190810190615233565b90506000816000815181106131cf576131cf614fe4565b602002602001015111806131fd57506000816001815181106131f3576131f3614fe4565b6020026020010151115b1561329857604051630818b5d560e21b81526001600160a01b03851690632062d75490613232908990879086906004016159af565b600060405180830381600087803b15801561324c57600080fd5b505af1158015613260573d6000803e3d6000fd5b505050506040513d6000823e601f3d908101601f191682016040526132889190810190615233565b9150613298896020015183613a16565b505b604051630fa1252560e41b81526000906001600160a01b038c169063fa125250906132cb9088908e90600401615b3a565b60006040518083038186803b1580156132e357600080fd5b505afa1580156132f7573d6000803e3d6000fd5b505050506040513d6000823e601f3d908101601f1916820160405261331f9190810190615233565b905060008160008151811061333657613336614fe4565b60200260200101511180613364575060008160018151811061335a5761335a614fe4565b6020026020010151115b156133f357604051630818b5d560e21b81526001600160a01b03861690632062d7549061339b908990879086908e90600401615b57565b600060405180830381600087803b1580156133b557600080fd5b505af11580156133c9573d6000803e3d6000fd5b505050506040513d6000823e601f3d908101601f191682016040526133f19190810190615233565b505b509998505050505050505050565b606060008061340f87613bec565b9150915060008061341f8a613bec565b915091508382101580156134335750828111155b156134565761344f6134458584615ba1565b60008a8a8a613c3e565b94506134b5565b8382111580156134665750828110155b156134825761344f6134788483615ba1565b60018a8a8a613c3e565b604080518082018252600581526412539594d560da1b6020820152905162461bcd60e51b815261086891906004016148ca565b5050505095945050505050565b604080516002808252606080830184529260208301908036833750506040805160028082526060820183529394506000939092509060208301908036833701905050905060008960800151118061351d575060008960a00151115b156135ff5788608001518160008151811061353a5761353a614fe4565b6020026020010181815250508860a001518160018151811061355e5761355e614fe4565b6020908102919091010152604051630818b5d560e21b81526001600160a01b03871690632062d75490613599908790879086906004016159af565b600060405180830381600087803b1580156135b357600080fd5b505af11580156135c7573d6000803e3d6000fd5b505050506040513d6000823e601f3d908101601f191682016040526135ef9190810190615233565b91506135ff886000015183613a16565b600089604001511180613616575060008960600151115b156136ec5788604001518160008151811061363357613633614fe4565b60200260200101818152505088606001518160018151811061365757613657614fe4565b6020908102919091010152604051630818b5d560e21b81526001600160a01b03871690632062d75490613694908890879086908d90600401615b57565b600060405180830381600087803b1580156136ae57600080fd5b505af11580156136c2573d6000803e3d6000fd5b505050506040513d6000823e601f3d908101601f191682016040526136ea9190810190615233565b505b50979650505050505050565b60606107156001600160a01b03831660145b60606000613719836002615bb8565b613724906002615bd7565b6001600160401b0381111561373b5761373b6145ca565b6040519080825280601f01601f191660200182016040528015613765576020820181803683370190505b509050600360fc1b8160008151811061378057613780614fe4565b60200101906001600160f81b031916908160001a905350600f60fb1b816001815181106137af576137af614fe4565b60200101906001600160f81b031916908160001a90535060006137d3846002615bb8565b6137de906001615bd7565b90505b6001811115613856576f181899199a1a9b1b9c1cb0b131b232b360811b85600f166010811061381257613812614fe4565b1a60f81b82828151811061382857613828614fe4565b60200101906001600160f81b031916908160001a90535060049490941c9361384f81615bef565b90506137e1565b5083156117cf5760405162461bcd60e51b815260206004820181905260248201527f537472696e67733a20686578206c656e67746820696e73756666696369656e746044820152606401610868565b6000818152600183016020526040812054801561398e5760006138c9600183615ba1565b85549091506000906138dd90600190615ba1565b90508181146139425760008660000182815481106138fd576138fd614fe4565b906000526020600020015490508087600001848154811061392057613920614fe4565b6000918252602080832090910192909255918252600188019052604090208390555b855486908061395357613953615c06565b600190038181906000526020600020016000905590558560010160008681526020019081526020016000206000905560019350505050610715565b6000915050610715565b60608315613a045782516139fd576001600160a01b0385163b6139fd5760405162461bcd60e51b815260206004820152601d60248201527f416464726573733a2063616c6c20746f206e6f6e2d636f6e74726163740000006044820152606401610868565b5081613a0e565b613a0e838361438a565b949350505050565b60005b600281101561123c57818181518110613a3457613a34614fe4565b6020026020010151838281518110613a4e57613a4e614fe4565b60200260200101511115604051806040016040528060048152602001634c494d5560e01b81525090613a935760405162461bcd60e51b815260040161086891906148ca565b5080613a9e81614ffa565b915050613a19565b801580613b2f5750604051636eb1769f60e11b81523060048201526001600160a01b03838116602483015284169063dd62ed3e9060440160206040518083038186803b158015613af557600080fd5b505afa158015613b09573d6000803e3d6000fd5b505050506040513d601f19601f82011682018060405250810190613b2d91906153a7565b155b613b9a5760405162461bcd60e51b815260206004820152603660248201527f5361666545524332303a20617070726f76652066726f6d206e6f6e2d7a65726f60448201527520746f206e6f6e2d7a65726f20616c6c6f77616e636560501b6064820152608401610868565b604080516001600160a01b038416602482015260448082018490528251808303909101815260649091019091526020810180516001600160e01b031663095ea7b360e01b17905261123c9084906143b4565b600080826080015183604001518460000151613c089190615bd7565b613c129190615bd7565b91508260a0015183606001518460200151613c2d9190615bd7565b613c379190615bd7565b9050915091565b60606000836001600160a01b031663e5328e066040518163ffffffff1660e01b815260040160006040518083038186803b158015613c7b57600080fd5b505afa158015613c8f573d6000803e3d6000fd5b505050506040513d6000823e601f3d908101601f19168201604052613cb79190810190615c1c565b50905086818781518110613ccd57613ccd614fe4565b60200260200101511015613cf857808681518110613ced57613ced614fe4565b602002602001015196505b506060861561429c576000604051806101000160405280858981518110613d2157613d21614fe4565b60200260200101516001600160a01b03168152602001858960011881518110613d4c57613d4c614fe4565b60200260200101516001600160a01b03168152602001600660149054906101000a900462ffffff1662ffffff168152602001866001600160a01b03168152602001876080015181526020018981526020016000815260200160006001600160a01b03168152509050600081604051602001613dc79190615c75565b6040516020818303038152906040529050856001600160a01b0316632e2f4cc2868a81518110613df957613df9614fe4565b602002602001015163095ea7b360e01b7f00000000000000000000000000000000000000000000000000000000000000008d604051602001613e509291906001600160a01b03929092168252602082015260400190565b6040516020818303038152906040526040518463ffffffff1660e01b8152600401613e7d93929190615cde565b600060405180830381600087803b158015613e9757600080fd5b505af1158015613eab573d6000803e3d6000fd5b505050506040513d6000823e601f3d908101601f19168201604052613ed39190810190615d12565b50604051631717a66160e11b81526001600160a01b03871690632e2f4cc290613f2b907f00000000000000000000000000000000000000000000000000000000000000009063414bf38960e01b908690600401615cde565b600060405180830381600087803b158015613f4557600080fd5b505af1158015613f59573d6000803e3d6000fd5b505050506040513d6000823e601f3d908101601f19168201604052613f819190810190615d12565b9250856001600160a01b0316632e2f4cc2868a81518110613fa457613fa4614fe4565b602002602001015163095ea7b360e01b7f00000000000000000000000000000000000000000000000000000000000000006000604051602001613fff9291906001600160a01b0392909216825260ff16602082015260400190565b6040516020818303038152906040526040518463ffffffff1660e01b815260040161402c93929190615cde565b600060405180830381600087803b15801561404657600080fd5b505af115801561405a573d6000803e3d6000fd5b505050506040513d6000823e601f3d908101601f191682016040526140829190810190615d12565b5060008380602001905181019061409991906153a7565b9050600088604001518a600118815181106140b6576140b6614fe4565b6020026020010151121580156140ea5750600088604001518a815181106140df576140df614fe4565b602002602001015113155b60405180604001604052806004815260200163494e564160e01b815250906141255760405162461bcd60e51b815260040161086891906148ca565b508088604001518a6001188151811061414057614140614fe4565b60200260200101511315604051806040016040528060048152602001634c494d5560e01b815250906141855760405162461bcd60e51b815260040161086891906148ca565b5061418f8a615d7f565b88604001518a815181106141a5576141a5614fe4565b60200260200101511215604051806040016040528060048152602001634c494d4f60e01b815250906141ea5760405162461bcd60e51b815260040161086891906148ca565b50604080516002808252606082018352909160208301908036833701905050945080858a6001188151811061422157614221614fe4565b60209081029190910101526142358a615d7f565b858a8151811061424757614247614fe4565b602002602001018181525050326001600160a01b03167fd872dd2007fe8b239bd94b259fe5b21d67e0fd615baaf154c42d64c30a34a81f8460405161428c9190615c75565b60405180910390a250505061437f565b846040015186600118815181106142b5576142b5614fe4565b6020026020010151600014604051806040016040528060048152602001634c494d4f60e01b815250906142fb5760405162461bcd60e51b815260040161086891906148ca565b508460400151868151811061431257614312614fe4565b6020026020010151600014604051806040016040528060048152602001634c494d5560e01b815250906143585760405162461bcd60e51b815260040161086891906148ca565b50604080516002808252606082018352909160208301908036833701905050915050614381565b505b95945050505050565b81511561439a5781518083602001fd5b8060405162461bcd60e51b815260040161086891906148ca565b6000614409826040518060400160405280602081526020017f5361666545524332303a206c6f772d6c6576656c2063616c6c206661696c6564815250856001600160a01b03166144899092919063ffffffff16565b905080516000148061442a57508080602001905181019061442a919061578b565b61123c5760405162461bcd60e51b815260206004820152602a60248201527f5361666545524332303a204552433230206f7065726174696f6e20646964206e6044820152691bdd081cdd58d8d9595960b21b6064820152608401610868565b6060613a0e848460008585600080866001600160a01b031685876040516144b09190615993565b60006040518083038185875af1925050503d80600081146144ed576040519150601f19603f3d011682016040523d82523d6000602084013e6144f2565b606091505b509150915061450387838387613998565b979650505050505050565b828054828255906000526020600020908101928215614563579160200282015b8281111561456357825182546001600160a01b0319166001600160a01b0390911617825560209092019160019091019061452e565b5061456f929150614573565b5090565b5b8082111561456f5760008155600101614574565b60006020828403121561459a57600080fd5b81356001600160e01b0319811681146117cf57600080fd5b6000608082840312156145c457600080fd5b50919050565b634e487b7160e01b600052604160045260246000fd5b60405160a081016001600160401b0381118282101715614602576146026145ca565b60405290565b60405161018081016001600160401b0381118282101715614602576146026145ca565b604051601f8201601f191681016001600160401b0381118282101715614653576146536145ca565b604052919050565b60006001600160401b03821115614674576146746145ca565b5060051b60200190565b6001600160a01b0381168114611d2457600080fd5b8035612a318161467e565b62ffffff81168114611d2457600080fd5b8035612a318161469e565b60008060008060008060c087890312156146d357600080fd5b86356001600160401b038111156146e957600080fd5b8701601f810189136146fa57600080fd5b8035602061470f61470a8361465b565b61462b565b82815260059290921b8301810191818101908c84111561472e57600080fd5b938201935b838510156147555784356147468161467e565b82529382019390820190614733565b995061476490508a8201614693565b975050505061477560408801614693565b935061478360608801614693565b9250614791608088016146af565b915061479f60a08801614693565b90509295509295509295565b6000602082840312156147bd57600080fd5b81356117cf8161467e565b6000602082840312156147da57600080fd5b5035919050565b600080604083850312156147f457600080fd5b8235915060208301356148068161467e565b809150509250929050565b6000604082840312156145c457600080fd5b60006040828403121561483557600080fd5b6117cf8383614811565b60006020828403121561485157600080fd5b81356117cf8161469e565b6000606082840312156145c457600080fd5b60005b83811015614889578181015183820152602001614871565b83811115614898576000848401525b50505050565b600081518084526148b681602086016020860161486e565b601f01601f19169290920160200192915050565b6020815260006117cf602083018461489e565b600080604083850312156148f057600080fd5b50508035926020909101359150565b6000806020838503121561491257600080fd5b82356001600160401b038082111561492957600080fd5b818501915085601f83011261493d57600080fd5b81358181111561494c57600080fd5b8660208260051b850101111561496157600080fd5b60209290920196919550909350505050565b6000602080830181845280855180835260408601915060408160051b870101925083870160005b828110156149c857603f198886030184526149b685835161489e565b9450928501929085019060010161499a565b5092979650505050505050565b600082601f8301126149e657600080fd5b813560206149f661470a8361465b565b82815260059290921b84018101918181019086841115614a1557600080fd5b8286015b84811015614a305780358352918301918301614a19565b509695505050505050565b60006001600160401b03821115614a5457614a546145ca565b50601f01601f191660200190565b600082601f830112614a7357600080fd5b8135614a8161470a82614a3b565b818152846020838601011115614a9657600080fd5b816020850160208301376000918101602001919091529392505050565b60008060008060808587031215614ac957600080fd5b8435614ad48161467e565b93506020850135614ae48161467e565b925060408501356001600160401b0380821115614b0057600080fd5b614b0c888389016149d5565b93506060870135915080821115614b2257600080fd5b50614b2f87828801614a62565b91505092959194509250565b60008060408385031215614b4e57600080fd5b82356001600160401b0380821115614b6557600080fd5b9084019060a08287031215614b7957600080fd5b614b816145e0565b823582811115614b9057600080fd5b614b9c888286016149d5565b825250602083013582811115614bb157600080fd5b614bbd888286016149d5565b602083015250604083013582811115614bd557600080fd5b614be1888286016149d5565b604083015250606083013582811115614bf957600080fd5b614c05888286016149d5565b60608301525060808301356080820152809450506020850135915080821115614c2d57600080fd5b50614c3a85828601614a62565b9150509250929050565b600081518084526020808501945080840160005b83811015614c7457815187529582019590820190600101614c58565b509495945050505050565b604081526000835160a06040840152614c9b60e0840182614c44565b9050602080860151603f1980868503016060870152614cba8483614c44565b6040890151878203830160808901528051808352908501955060009350908401905b80841015614cfc5785518252948401946001939093019290840190614cdc565b5060608901519450818782030160a0880152614d188186614c44565b9450505050608086015160c085015283820381850152506143818185614c44565b8060020b8114611d2457600080fd5b8051612a3181614d39565b600060208284031215614d6557600080fd5b81516117cf81614d39565b600060208284031215614d8257600080fd5b81356117cf81614d39565b60008260020b80614dae57634e487b7160e01b600052601260045260246000fd5b808360020b0791505092915050565b634e487b7160e01b600052601160045260246000fd5b60008160020b8360020b6000811281627fffff1901831281151615614dfa57614dfa614dbd565b81627fffff018313811615614e1157614e11614dbd565b5090039392505050565b8135614e2681614d39565b815462ffffff82811662ffffff1983161784556020850135614e4781614d39565b8060181b9050818416935065ffffff00000091508082168465ffffffffffff198516171785556040860135614e7b81614d39565b8060301b9050828216925068ffffff00000000000091508082168568ffffffffffffffffff1986161784171786556060870135614eb781614d39565b91166bffffffffffffffffffffffff199390931690931717176bffffff00000000000000000060489290921b9190911617905550565b608081018235614efc81614d39565b60020b82526020830135614f0f81614d39565b60020b60208301526040830135614f2581614d39565b60020b60408301526060830135614f3b81614d39565b8060020b60608401525092915050565b8051612a318161467e565b60006020808385031215614f6957600080fd5b82516001600160401b03811115614f7f57600080fd5b8301601f81018513614f9057600080fd5b8051614f9e61470a8261465b565b81815260059190911b82018301908381019087831115614fbd57600080fd5b928401925b82841015614503578351614fd58161467e565b82529284019290840190614fc2565b634e487b7160e01b600052603260045260246000fd5b600060001982141561500e5761500e614dbd565b5060010190565b60006020828403121561502757600080fd5b81516117cf8161467e565b63ffffffff81168114611d2457600080fd5b60006020828403121561505657600080fd5b81356117cf81615032565b60008160020b627fffff1981141561507b5761507b614dbd565b60000392915050565b813561508f81615032565b63ffffffff8116905081548163ffffffff19821617835560208401356150b48161469e565b66ffffff000000008160201b168366ffffffffffffff198416171784555050505050565b6040810182356150e781615032565b63ffffffff16825260208301356150fd8161469e565b62ffffff811660208401525092915050565b6000808335601e1984360301811261512657600080fd5b8301803591506001600160401b0382111561514057600080fd5b60200191503681900382131561515557600080fd5b9250929050565b60006080820160018060a01b038088168452602060808186015282885480855260a0870191508960005282600020945060005b818110156151ad57855485168352600195860195928401920161518f565b505085810360408701526151c18189614c44565b93505050508281036060840152614503818561489e565b600082601f8301126151e957600080fd5b815160206151f961470a8361465b565b82815260059290921b8401810191818101908684111561521857600080fd5b8286015b84811015614a30578051835291830191830161521c565b60006020828403121561524557600080fd5b81516001600160401b0381111561525b57600080fd5b613a0e848285016151d8565b805161ffff81168114612a3157600080fd5b80518015158114612a3157600080fd5b600080600080600080600060e0888a0312156152a457600080fd5b87516152af8161467e565b60208901519097506152c081614d39565b95506152ce60408901615267565b94506152dc60608901615267565b93506152ea60808901615267565b925060a088015160ff8116811461530057600080fd5b915061530e60c08901615279565b905092959891949750929550565b600081518084526020808501945080840160005b83811015614c745781516001600160a01b031687529582019590820190600101615330565b60c08152600061536860c083018961531c565b6001600160a01b039788166020840152958716604083015250928516606084015262ffffff91909116608083015290921660a090920191909152919050565b6000602082840312156153b957600080fd5b5051919050565b60008160020b8360020b6000821282627fffff038213811516156153e6576153e6614dbd565b82627fffff190382128116156153fe576153fe614dbd565b50019392505050565b6000806040838503121561541a57600080fd5b825161542581614d39565b602084015190925061480681614d39565b80516001600160801b0381168114612a3157600080fd5b6000610180828403121561546057600080fd5b615468614608565b8251815261547860208401615436565b602082015261548960408401614d48565b604082015261549a60608401614d48565b60608201526154ab60808401614d48565b60808201526154bc60a08401614d48565b60a08201526154cd60c08401614f4b565b60c08201526154de60e08401614f4b565b60e08201526101006154f1818501614f4b565b90820152610120615503848201614f4b565b90820152610140615515848201614f4b565b90820152610160928301519281019290925250919050565b80518252602081015161554b60208401826001600160801b03169052565b506040810151615560604084018260020b9052565b506060810151615575606084018260020b9052565b50608081015161558a608084018260020b9052565b5060a081015161559f60a084018260020b9052565b5060c08101516155ba60c08401826001600160a01b03169052565b5060e08101516155d560e08401826001600160a01b03169052565b50610100818101516001600160a01b039081169184019190915261012080830151821690840152610140808301519091169083015261016090810151910152565b6001600160a01b038481168252831660208201526101c08101613a0e604083018461552d565b600060c0828403121561564e57600080fd5b60405160c081018181106001600160401b0382111715615670576156706145ca565b8060405250825181526020830151602082015260408301516040820152606083015160608201526080830151608082015260a083015160a08201528091505092915050565b805182526020810151602083015260408101516040830152606081015160608301526080810151608083015260a081015160a08301525050565b6102e081016156fe82886156b5565b61570b60c083018761552d565b6001600160a01b038581166102408401528416610260830152825461028083015260018301546102a083015260028301546102c08301529695505050505050565b6101e0810161575b82866156b5565b61576860c08301856156b5565b825461018083015260018301546101a083015260028301546101c0830152613a0e565b60006020828403121561579d57600080fd5b6117cf82615279565b61036081016157b582876156b5565b6157c260c08301866156b5565b835461018083015260018401546101a083015260028401546101c08301526143816101e083018461552d565b8051612a318161469e565b6000806000806000806000806000806000806101808d8f03121561581c57600080fd5b8c516bffffffffffffffffffffffff8116811461583857600080fd5b9b5061584660208e01614f4b565b9a5061585460408e01614f4b565b995061586260608e01614f4b565b985061587060808e016157ee565b975061587e60a08e01614d48565b965061588c60c08e01614d48565b955061589a60e08e01615436565b94506101008d015193506101208d015192506158b96101408e01615436565b91506158c86101608e01615436565b90509295989b509295989b509295989b565b6001600160a01b038516815261028081016158f860208301866156b5565b61590560e083018561552d565b6001600160801b03831661026083015295945050505050565b7f416363657373436f6e74726f6c3a206163636f756e742000000000000000000081526000835161595681601785016020880161486e565b7001034b99036b4b9b9b4b733903937b6329607d1b601791840191820152835161598781602884016020880161486e565b01602801949350505050565b600082516159a581846020870161486e565b9190910192915050565b6001600160a01b03841681526080602082018190526000906159d39083018561531c565b82810360408401526159e58185614c44565b8381036060909401939093525050600081526020019392505050565b600060208284031215615a1357600080fd5b81516117cf8161469e565b81516001600160a01b0316815261016081016020830151615a4a60208401826001600160a01b03169052565b506040830151615a61604084018262ffffff169052565b506060830151615a76606084018260020b9052565b506080830151615a8b608084018260020b9052565b5060a083015160a083015260c083015160c083015260e083015160e083015261010080840151818401525061012080840151615ad1828501826001600160a01b03169052565b505061014092830151919092015290565b60008060008060808587031215615af857600080fd5b84519350615b0860208601615436565b6040860151606090960151949790965092505050565b6102408101615b2d82856156b5565b6117cf60c083018461552d565b6001600160a01b038316815260e081016117cf60208301846156b5565b6001600160a01b0385168152608060208201819052600090615b7b9083018661531c565b8281036040840152615b8d8186614c44565b90508281036060840152614503818561489e565b600082821015615bb357615bb3614dbd565b500390565b6000816000190483118215151615615bd257615bd2614dbd565b500290565b60008219821115615bea57615bea614dbd565b500190565b600081615bfe57615bfe614dbd565b506000190190565b634e487b7160e01b600052603160045260246000fd5b60008060408385031215615c2f57600080fd5b82516001600160401b0380821115615c4657600080fd5b615c52868387016151d8565b93506020850151915080821115615c6857600080fd5b50614c3a858286016151d8565b81516001600160a01b03908116825260208084015182169083015260408084015162ffffff16908301526060808401518216908301526080808401519083015260a0838101519083015260c0808401519083015260e09283015116918101919091526101000190565b6001600160a01b03841681526001600160e01b0319831660208201526060604082018190526000906143819083018461489e565b600060208284031215615d2457600080fd5b81516001600160401b03811115615d3a57600080fd5b8201601f81018413615d4b57600080fd5b8051615d5961470a82614a3b565b818152856020838501011115615d6e57600080fd5b61438182602083016020860161486e565b6000600160ff1b821415615d9557615d95614dbd565b506000039056fec171260023d22a25a00a2789664c9334017843b831138c8ef03cc8897e5873d7f23ec0bb4210edd5cba85afd05127efcd2fc6a781bfed49188da1081670b22d846a52cf33029de9f84853745a87af28464c80bf0346df1b32e205fc73319f622416464726573733a206c6f772d6c6576656c2064656c65676174652063616c6c206661696c6564a2646970667358221220b81e85ecc1a17566295c9fe190a16d90b0e25d4c252ff61248ff19c789ae28a864736f6c63430008090033f23ec0bb4210edd5cba85afd05127efcd2fc6a781bfed49188da1081670b22d846a52cf33029de9f84853745a87af28464c80bf0346df1b32e205fc73319f622",
    "linkReferences": {}
  },
  "methodIdentifiers": {
    "ADMIN_DELEGATE_ROLE()": "0952ff54",
    "ADMIN_ROLE()": "75b238fc",
    "APPROVE_SELECTOR()": "a0865839",
    "DEFAULT_ADMIN_ROLE()": "a217fddf",
    "DENOMINATOR()": "918f8674",
    "EXACT_INPUT_SINGLE_SELECTOR()": "feca4a1d",
    "OPERATOR()": "983d2737",
    "contractName()": "75d0c0dc",
    "contractNameBytes()": "0e3e80ac",
    "contractVersion()": "a0a8e460",
    "contractVersionBytes()": "06a46239",
    "createStrategy(address[],address,address,address,uint24,address)": "c3329b9d",
    "erc20Vault()": "090f9221",
    "getRoleAdmin(bytes32)": "248a9ca3",
    "getRoleMember(bytes32,uint256)": "9010d07c",
    "getRoleMemberCount(bytes32)": "ca15c873",
    "grantRole(bytes32,address)": "2f2ff15d",
    "hasRole(bytes32,address)": "91d14854",
    "init(address)": "19ab453c",
    "initialize(address[],address,address,address,uint24,address)": "151355d1",
    "initialized()": "158ef93e",
    "isAdmin(address)": "24d7806c",
    "isOperator(address)": "6d70f7ae",
    "manualPull(address,address,uint256[],bytes)": "baca1219",
    "mintingParams()": "f25b9c27",
    "moneyVault()": "bc9f559e",
    "multicall(bytes[])": "ac9650d8",
    "oracleParams()": "cf0d2483",
    "pool()": "16f0115b",
    "ratioParams()": "d80c8a3f",
    "rebalance((uint256[],uint256[],int256[],uint256[],uint256),bytes)": "bc631259",
    "renounceRole(bytes32,address)": "36568abe",
    "revokeRole(bytes32,address)": "d547741f",
    "router()": "f887ea40",
    "strategyParams()": "f57f33d0",
    "supportsInterface(bytes4)": "01ffc9a7",
    "swapFees()": "b9ccf21d",
    "tokens(uint256)": "4f64b2be",
    "uniV3Vault()": "187d4a73",
    "updateMintingParams((uint256,uint256))": "680befd1",
    "updateOracleParams((uint32,uint24))": "3cf976dc",
    "updateRatioParams((uint256,uint256,uint256))": "46eca881",
    "updateStrategyParams((int24,int24,int24,int24))": "0f24eede",
    "updateSwapFees(uint24)": "45e9f3c1"
  },
  "id": 389
}