{
  "abi": [
    {
      "inputs": [
        {
          "internalType": "address[]",
          "name": "tokens",
          "type": "address[]"
        },
        {
          "internalType": "address[]",
          "name": "oracles",
          "type": "address[]"
        },
        {
          "internalType": "address",
          "name": "admin",
          "type": "address"
        }
      ],
      "stateMutability": "nonpayable",
      "type": "constructor"
    },
    {
      "anonymous": false,
      "inputs": [
        {
          "indexed": true,
          "internalType": "address",
          "name": "origin",
          "type": "address"
        },
        {
          "indexed": true,
          "internalType": "address",
          "name": "sender",
          "type": "address"
        },
        {
          "indexed": false,
          "internalType": "address[]",
          "name": "tokens",
          "type": "address[]"
        },
        {
          "indexed": false,
          "internalType": "address[]",
          "name": "oracles",
          "type": "address[]"
        }
      ],
      "name": "OraclesAdded",
      "type": "event"
    },
    {
      "anonymous": false,
      "inputs": [
        {
          "indexed": true,
          "internalType": "bytes32",
          "name": "role",
          "type": "bytes32"
        },
        {
          "indexed": true,
          "internalType": "bytes32",
          "name": "previousAdminRole",
          "type": "bytes32"
        },
        {
          "indexed": true,
          "internalType": "bytes32",
          "name": "newAdminRole",
          "type": "bytes32"
        }
      ],
      "name": "RoleAdminChanged",
      "type": "event"
    },
    {
      "anonymous": false,
      "inputs": [
        {
          "indexed": true,
          "internalType": "bytes32",
          "name": "role",
          "type": "bytes32"
        },
        {
          "indexed": true,
          "internalType": "address",
          "name": "account",
          "type": "address"
        },
        {
          "indexed": true,
          "internalType": "address",
          "name": "sender",
          "type": "address"
        }
      ],
      "name": "RoleGranted",
      "type": "event"
    },
    {
      "anonymous": false,
      "inputs": [
        {
          "indexed": true,
          "internalType": "bytes32",
          "name": "role",
          "type": "bytes32"
        },
        {
          "indexed": true,
          "internalType": "address",
          "name": "account",
          "type": "address"
        },
        {
          "indexed": true,
          "internalType": "address",
          "name": "sender",
          "type": "address"
        }
      ],
      "name": "RoleRevoked",
      "type": "event"
    },
    {
      "inputs": [],
      "name": "ADMIN_DELEGATE_ROLE",
      "outputs": [
        {
          "internalType": "bytes32",
          "name": "",
          "type": "bytes32"
        }
      ],
      "stateMutability": "view",
      "type": "function"
    },
    {
      "inputs": [],
      "name": "ADMIN_ROLE",
      "outputs": [
        {
          "internalType": "bytes32",
          "name": "",
          "type": "bytes32"
        }
      ],
      "stateMutability": "view",
      "type": "function"
    },
    {
      "inputs": [],
      "name": "DEFAULT_ADMIN_ROLE",
      "outputs": [
        {
          "internalType": "bytes32",
          "name": "",
          "type": "bytes32"
        }
      ],
      "stateMutability": "view",
      "type": "function"
    },
    {
      "inputs": [],
      "name": "OPERATOR",
      "outputs": [
        {
          "internalType": "bytes32",
          "name": "",
          "type": "bytes32"
        }
      ],
      "stateMutability": "view",
      "type": "function"
    },
    {
      "inputs": [
        {
          "internalType": "address[]",
          "name": "tokens",
          "type": "address[]"
        },
        {
          "internalType": "address[]",
          "name": "oracles",
          "type": "address[]"
        }
      ],
      "name": "addChainlinkOracles",
      "outputs": [],
      "stateMutability": "nonpayable",
      "type": "function"
    },
    {
      "inputs": [],
      "name": "contractName",
      "outputs": [
        {
          "internalType": "string",
          "name": "",
          "type": "string"
        }
      ],
      "stateMutability": "pure",
      "type": "function"
    },
    {
      "inputs": [],
      "name": "contractNameBytes",
      "outputs": [
        {
          "internalType": "bytes32",
          "name": "",
          "type": "bytes32"
        }
      ],
      "stateMutability": "pure",
      "type": "function"
    },
    {
      "inputs": [],
      "name": "contractVersion",
      "outputs": [
        {
          "internalType": "string",
          "name": "",
          "type": "string"
        }
      ],
      "stateMutability": "pure",
      "type": "function"
    },
    {
      "inputs": [],
      "name": "contractVersionBytes",
      "outputs": [
        {
          "internalType": "bytes32",
          "name": "",
          "type": "bytes32"
        }
      ],
      "stateMutability": "pure",
      "type": "function"
    },
    {
      "inputs": [
        {
          "internalType": "address",
          "name": "",
          "type": "address"
        }
      ],
      "name": "decimalsIndex",
      "outputs": [
        {
          "internalType": "int256",
          "name": "",
          "type": "int256"
        }
      ],
      "stateMutability": "view",
      "type": "function"
    },
    {
      "inputs": [
        {
          "internalType": "bytes32",
          "name": "role",
          "type": "bytes32"
        }
      ],
      "name": "getRoleAdmin",
      "outputs": [
        {
          "internalType": "bytes32",
          "name": "",
          "type": "bytes32"
        }
      ],
      "stateMutability": "view",
      "type": "function"
    },
    {
      "inputs": [
        {
          "internalType": "bytes32",
          "name": "role",
          "type": "bytes32"
        },
        {
          "internalType": "uint256",
          "name": "index",
          "type": "uint256"
        }
      ],
      "name": "getRoleMember",
      "outputs": [
        {
          "internalType": "address",
          "name": "",
          "type": "address"
        }
      ],
      "stateMutability": "view",
      "type": "function"
    },
    {
      "inputs": [
        {
          "internalType": "bytes32",
          "name": "role",
          "type": "bytes32"
        }
      ],
      "name": "getRoleMemberCount",
      "outputs": [
        {
          "internalType": "uint256",
          "name": "",
          "type": "uint256"
        }
      ],
      "stateMutability": "view",
      "type": "function"
    },
    {
      "inputs": [
        {
          "internalType": "bytes32",
          "name": "role",
          "type": "bytes32"
        },
        {
          "internalType": "address",
          "name": "account",
          "type": "address"
        }
      ],
      "name": "grantRole",
      "outputs": [],
      "stateMutability": "nonpayable",
      "type": "function"
    },
    {
      "inputs": [
        {
          "internalType": "address",
          "name": "token",
          "type": "address"
        }
      ],
      "name": "hasOracle",
      "outputs": [
        {
          "internalType": "bool",
          "name": "",
          "type": "bool"
        }
      ],
      "stateMutability": "view",
      "type": "function"
    },
    {
      "inputs": [
        {
          "internalType": "bytes32",
          "name": "role",
          "type": "bytes32"
        },
        {
          "internalType": "address",
          "name": "account",
          "type": "address"
        }
      ],
      "name": "hasRole",
      "outputs": [
        {
          "internalType": "bool",
          "name": "",
          "type": "bool"
        }
      ],
      "stateMutability": "view",
      "type": "function"
    },
    {
      "inputs": [
        {
          "internalType": "address",
          "name": "sender",
          "type": "address"
        }
      ],
      "name": "isAdmin",
      "outputs": [
        {
          "internalType": "bool",
          "name": "",
          "type": "bool"
        }
      ],
      "stateMutability": "view",
      "type": "function"
    },
    {
      "inputs": [
        {
          "internalType": "address",
          "name": "sender",
          "type": "address"
        }
      ],
      "name": "isOperator",
      "outputs": [
        {
          "internalType": "bool",
          "name": "",
          "type": "bool"
        }
      ],
      "stateMutability": "view",
      "type": "function"
    },
    {
      "inputs": [
        {
          "internalType": "address",
          "name": "",
          "type": "address"
        }
      ],
      "name": "oraclesIndex",
      "outputs": [
        {
          "internalType": "address",
          "name": "",
          "type": "address"
        }
      ],
      "stateMutability": "view",
      "type": "function"
    },
    {
      "inputs": [
        {
          "internalType": "address",
          "name": "token0",
          "type": "address"
        },
        {
          "internalType": "address",
          "name": "token1",
          "type": "address"
        },
        {
          "internalType": "uint256",
          "name": "safetyIndicesSet",
          "type": "uint256"
        }
      ],
      "name": "priceX96",
      "outputs": [
        {
          "internalType": "uint256[]",
          "name": "pricesX96",
          "type": "uint256[]"
        },
        {
          "internalType": "uint256[]",
          "name": "safetyIndices",
          "type": "uint256[]"
        }
      ],
      "stateMutability": "view",
      "type": "function"
    },
    {
      "inputs": [
        {
          "internalType": "bytes32",
          "name": "role",
          "type": "bytes32"
        },
        {
          "internalType": "address",
          "name": "account",
          "type": "address"
        }
      ],
      "name": "renounceRole",
      "outputs": [],
      "stateMutability": "nonpayable",
      "type": "function"
    },
    {
      "inputs": [
        {
          "internalType": "bytes32",
          "name": "role",
          "type": "bytes32"
        },
        {
          "internalType": "address",
          "name": "account",
          "type": "address"
        }
      ],
      "name": "revokeRole",
      "outputs": [],
      "stateMutability": "nonpayable",
      "type": "function"
    },
    {
      "inputs": [],
      "name": "safetyIndex",
      "outputs": [
        {
          "internalType": "uint8",
          "name": "",
          "type": "uint8"
        }
      ],
      "stateMutability": "view",
      "type": "function"
    },
    {
      "inputs": [],
      "name": "supportedTokens",
      "outputs": [
        {
          "internalType": "address[]",
          "name": "",
          "type": "address[]"
        }
      ],
      "stateMutability": "view",
      "type": "function"
    },
    {
      "inputs": [
        {
          "internalType": "bytes4",
          "name": "interfaceId",
          "type": "bytes4"
        }
      ],
      "name": "supportsInterface",
      "outputs": [
        {
          "internalType": "bool",
          "name": "",
          "type": "bool"
        }
      ],
      "stateMutability": "view",
      "type": "function"
    }
  ],
  "bytecode": {
    "object": "0x60806040523480156200001157600080fd5b50604051620021be380380620021be833981016040819052620000349162000641565b60408051808201909152600281526120ad60f11b602082015281906001600160a01b038216620000825760405162461bcd60e51b8152600401620000799190620006bd565b60405180910390fd5b506200009e6000805160206200219e8339815191528262000160565b620000b96000805160206200217e8339815191528262000160565b620000d46000805160206200217e8339815191528062000170565b6200010f7fc171260023d22a25a00a2789664c9334017843b831138c8ef03cc8897e5873d76000805160206200217e83398151915262000170565b6200014a6000805160206200219e8339815191527fc171260023d22a25a00a2789664c9334017843b831138c8ef03cc8897e5873d762000170565b50620001578383620001bb565b5050506200086d565b6200016c82826200040c565b5050565b600082815260208190526040808220600101805490849055905190918391839186917fbd79b86ffe0ab8e8776151514217cd7cacd52c909f66475c3af44e129f0b00ff9190a4505050565b80518251146040518060400160405280600381526020016224a72b60e91b81525090620001fd5760405162461bcd60e51b8152600401620000799190620006bd565b5060005b8251811015620003c757600083828151811062000222576200022262000715565b60200260200101519050600083838151811062000243576200024362000715565b60200260200101519050620002688260046200044f60201b620007fb1790919060201c565b506001600160a01b0382811660009081526002602090815260409182902080546001600160a01b0319169385169384179055815163313ce56760e01b8152915163313ce567926004808201939291829003018186803b158015620002cb57600080fd5b505afa158015620002e0573d6000803e3d6000fd5b505050506040513d601f19601f820116820180604052508101906200030691906200072b565b826001600160a01b031663313ce5676040518163ffffffff1660e01b815260040160206040518083038186803b1580156200034057600080fd5b505afa15801562000355573d6000803e3d6000fd5b505050506040513d601f19601f820116820180604052508101906200037b91906200072b565b62000386906200076d565b62000392919062000790565b6001600160a01b03909216600090815260036020526040812092900b9091555080620003be81620007d7565b91505062000201565b50604051339032907fc1d6555f528e5483cb7c175a6c6b660c26c2a340b459268be1ae26c659c0e7b5906200040090869086906200083b565b60405180910390a35050565b6200042382826200046f60201b620008101760201c565b60008281526001602090815260409091206200044a918390620007fb6200044f821b17901c565b505050565b600062000466836001600160a01b0384166200050f565b90505b92915050565b6000828152602081815260408083206001600160a01b038516845290915290205460ff166200016c576000828152602081815260408083206001600160a01b03851684529091529020805460ff19166001179055620004cb3390565b6001600160a01b0316816001600160a01b0316837f2f8788117e7eff1d82e926ec794901d17c78024a50270940304540a733656f0d60405160405180910390a45050565b6000818152600183016020526040812054620005585750815460018181018455600084815260208082209093018490558454848252828601909352604090209190915562000469565b50600062000469565b634e487b7160e01b600052604160045260246000fd5b80516001600160a01b03811681146200058f57600080fd5b919050565b600082601f830112620005a657600080fd5b815160206001600160401b0380831115620005c557620005c562000561565b8260051b604051601f19603f83011681018181108482111715620005ed57620005ed62000561565b6040529384528581018301938381019250878511156200060c57600080fd5b83870191505b848210156200063657620006268262000577565b8352918301919083019062000612565b979650505050505050565b6000806000606084860312156200065757600080fd5b83516001600160401b03808211156200066f57600080fd5b6200067d8783880162000594565b945060208601519150808211156200069457600080fd5b50620006a38682870162000594565b925050620006b46040850162000577565b90509250925092565b600060208083528351808285015260005b81811015620006ec57858101830151858201604001528201620006ce565b81811115620006ff576000604083870101525b50601f01601f1916929092016040019392505050565b634e487b7160e01b600052603260045260246000fd5b6000602082840312156200073e57600080fd5b815160ff811681146200075057600080fd5b9392505050565b634e487b7160e01b600052601160045260246000fd5b600081810b607f1981141562000787576200078762000757565b60000392915050565b600081810b83820b8281128015607f19830184121615620007b557620007b562000757565b81607f018313811615620007cd57620007cd62000757565b5090039392505050565b6000600019821415620007ee57620007ee62000757565b5060010190565b600081518084526020808501945080840160005b83811015620008305781516001600160a01b03168752958201959082019060010162000809565b509495945050505050565b604081526000620008506040830185620007f5565b8281036020840152620008648185620007f5565b95945050505050565b611901806200087d6000396000f3fe608060405234801561001057600080fd5b50600436106101735760003560e01c80636d80125b116100de578063a0a8e46011610097578063ca15c87311610071578063ca15c873146103ab578063d547741f146103be578063d892a360146103d1578063e312650b146103e457600080fd5b8063a0a8e46014610386578063a217fddf1461038e578063b002249d1461039657600080fd5b80636d80125b146102dc57806375b238fc146102fd57806375d0c0dc146103245780639010d07c1461033957806391d148541461034c578063983d27371461035f57600080fd5b80631e64e43a116101305780631e64e43a1461024b578063248a9ca31461026b57806324d7806c1461028e5780632f2ff15d146102a157806336568abe146102b65780636d70f7ae146102c957600080fd5b806301ffc9a71461017857806303d14012146101a057806306a46239146101e15780630952ff54146101f95780630e3e80ac14610220578063180c930914610238575b600080fd5b61018b61018636600461121a565b6103fe565b60405190151581526020015b60405180910390f35b6101c96101ae366004611260565b6002602052600090815260409020546001600160a01b031681565b6040516001600160a01b039091168152602001610197565b640312e302e360dc1b5b604051908152602001610197565b6101eb7fc171260023d22a25a00a2789664c9334017843b831138c8ef03cc8897e5873d781565b6e436861696e6c696e6b4f7261636c6560881b6101eb565b61018b610246366004611260565b61042f565b6101eb610259366004611260565b60036020526000908152604090205481565b6101eb61027936600461127b565b60009081526020819052604090206001015490565b61018b61029c366004611260565b61043c565b6102b46102af366004611294565b610498565b005b6102b46102c4366004611294565b6104c2565b61018b6102d7366004611260565b610545565b6102ef6102ea3660046112c0565b610571565b604051610197929190611337565b6101eb7ff23ec0bb4210edd5cba85afd05127efcd2fc6a781bfed49188da1081670b22d881565b61032c610729565b6040516101979190611395565b6101c96103473660046113c8565b610746565b61018b61035a366004611294565b610765565b6101eb7f46a52cf33029de9f84853745a87af28464c80bf0346df1b32e205fc73319f62281565b61032c61078e565b6101eb600081565b61039e6107a1565b6040516101979190611423565b6101eb6103b936600461127b565b6107ad565b6102b46103cc366004611294565b6107c4565b6102b46103df3660046114ee565b6107e9565b6103ec600581565b60405160ff9091168152602001610197565b600061040982610894565b8061042457506001600160e01b03198216638e3bd5d760e01b145b92915050565b905090565b60006104246004836108b9565b60006104687ff23ec0bb4210edd5cba85afd05127efcd2fc6a781bfed49188da1081670b22d883610765565b8061042457506104247fc171260023d22a25a00a2789664c9334017843b831138c8ef03cc8897e5873d783610765565b6000828152602081905260409020600101546104b3816108db565b6104bd83836108e8565b505050565b6001600160a01b03811633146105375760405162461bcd60e51b815260206004820152602f60248201527f416363657373436f6e74726f6c3a2063616e206f6e6c792072656e6f756e636560448201526e103937b632b9903337b91039b2b63360891b60648201526084015b60405180910390fd5b610541828261090a565b5050565b60006104247f46a52cf33029de9f84853745a87af28464c80bf0346df1b32e205fc73319f62283610765565b6060806001600584901c81161461058757610721565b6001600160a01b0380861660009081526002602052604080822054878416835291205490821691168115806105c357506001600160a01b038116155b156105cf575050610721565b60008060006105dd8561092c565b93509050806105f0575050505050610721565b6105f98461092c565b925090508061060c575050505050610721565b6001600160a01b03808b1660009081526003602052604080822054928c1682529020548181131561065d576106418282611568565b61064c90600a61168b565b6106569085611697565b9350610687565b808213156106875761066f8183611568565b61067a90600a61168b565b6106849086611697565b94505b60408051600180825281830190925290602080830190803683375050604080516001808252818301909252929b509050602080830190803683370190505097506106d685600160601b866109e8565b896000815181106106e9576106e96116b6565b602002602001018181525050600560ff168860008151811061070d5761070d6116b6565b602002602001018181525050505050505050505b935093915050565b606061042a6e436861696e6c696e6b4f7261636c6560881b610a9b565b600082815260016020526040812061075e9083610b07565b9392505050565b6000918252602082815260408084206001600160a01b0393909316845291905290205460ff1690565b606061042a640312e302e360dc1b610a9b565b606061042a6004610b13565b600081815260016020526040812061042490610b20565b6000828152602081905260409020600101546107df816108db565b6104bd838361090a565b6107f1610b2a565b6105418282610b6d565b600061075e836001600160a01b038416610d9c565b61081a8282610765565b610541576000828152602081815260408083206001600160a01b03851684529091529020805460ff191660011790556108503390565b6001600160a01b0316816001600160a01b0316837f2f8788117e7eff1d82e926ec794901d17c78024a50270940304540a733656f0d60405160405180910390a45050565b60006001600160e01b03198216635a05180f60e01b1480610424575061042482610deb565b6001600160a01b0381166000908152600183016020526040812054151561075e565b6108e58133610e20565b50565b6108f28282610810565b60008281526001602052604090206104bd90826107fb565b6109148282610e79565b60008281526001602052604090206104bd9082610ede565b600080826001600160a01b031663feaf968c6040518163ffffffff1660e01b815260040160a06040518083038186803b15801561096857600080fd5b505afa925050508015610998575060408051601f3d908101601f19168201909252610995918101906116e6565b60015b6109d8573d8080156109c6576040519150601f19603f3d011682016040523d82523d6000602084013e6109cb565b606091505b5060009485945092505050565b5060019792965091945050505050565b600080806000198587098587029250828110838203039150508060001415610a225760008411610a1757600080fd5b50829004905061075e565b808411610a2e57600080fd5b6000848688096000868103871696879004966002600389028118808a02820302808a02820302808a02820302808a02820302808a02820302808a02909103029181900381900460010186841190950394909402919094039290920491909117919091029150509392505050565b604080516020808252818301909252606091602082018180368337019050509050602060005b6020811015610af957838160208110610adc57610adc6116b6565b1a610ae957809150610af9565b610af281611736565b9050610ac1565b508152602081019190915290565b600061075e8383610ef3565b6060600061075e83610f1d565b6000610424825490565b610b333361043c565b6040518060400160405280600381526020016223292160e91b815250906108e55760405162461bcd60e51b815260040161052e9190611395565b80518251146040518060400160405280600381526020016224a72b60e91b81525090610bac5760405162461bcd60e51b815260040161052e9190611395565b5060005b8251811015610d59576000838281518110610bcd57610bcd6116b6565b602002602001015190506000838381518110610beb57610beb6116b6565b60200260200101519050610c098260046107fb90919063ffffffff16565b506001600160a01b0382811660009081526002602090815260409182902080546001600160a01b0319169385169384179055815163313ce56760e01b8152915163313ce567926004808201939291829003018186803b158015610c6b57600080fd5b505afa158015610c7f573d6000803e3d6000fd5b505050506040513d601f19601f82011682018060405250810190610ca39190611751565b826001600160a01b031663313ce5676040518163ffffffff1660e01b815260040160206040518083038186803b158015610cdc57600080fd5b505afa158015610cf0573d6000803e3d6000fd5b505050506040513d601f19601f82011682018060405250810190610d149190611751565b610d1d90611774565b610d279190611794565b6001600160a01b03909216600090815260036020526040812092900b9091555080610d5181611736565b915050610bb0565b50604051339032907fc1d6555f528e5483cb7c175a6c6b660c26c2a340b459268be1ae26c659c0e7b590610d9090869086906117d5565b60405180910390a35050565b6000818152600183016020526040812054610de357508154600181810184556000848152602080822090930184905584548482528286019093526040902091909155610424565b506000610424565b60006001600160e01b03198216637965db0b60e01b148061042457506301ffc9a760e01b6001600160e01b0319831614610424565b610e2a8282610765565b61054157610e3781610f79565b610e42836020610f8b565b604051602001610e539291906117fa565b60408051601f198184030181529082905262461bcd60e51b825261052e91600401611395565b610e838282610765565b15610541576000828152602081815260408083206001600160a01b0385168085529252808320805460ff1916905551339285917ff6391f5c32d9c69d2a47ea670b442974b53935d1edc7fd64eb21e047a839171b9190a45050565b600061075e836001600160a01b038416611127565b6000826000018281548110610f0a57610f0a6116b6565b9060005260206000200154905092915050565b606081600001805480602002602001604051908101604052809291908181526020018280548015610f6d57602002820191906000526020600020905b815481526020019060010190808311610f59575b50505050509050919050565b60606104246001600160a01b03831660145b60606000610f9a836002611697565b610fa590600261186f565b67ffffffffffffffff811115610fbd57610fbd611436565b6040519080825280601f01601f191660200182016040528015610fe7576020820181803683370190505b509050600360fc1b81600081518110611002576110026116b6565b60200101906001600160f81b031916908160001a905350600f60fb1b81600181518110611031576110316116b6565b60200101906001600160f81b031916908160001a9053506000611055846002611697565b61106090600161186f565b90505b60018111156110d8576f181899199a1a9b1b9c1cb0b131b232b360811b85600f1660108110611094576110946116b6565b1a60f81b8282815181106110aa576110aa6116b6565b60200101906001600160f81b031916908160001a90535060049490941c936110d181611887565b9050611063565b50831561075e5760405162461bcd60e51b815260206004820181905260248201527f537472696e67733a20686578206c656e67746820696e73756666696369656e74604482015260640161052e565b6000818152600183016020526040812054801561121057600061114b60018361189e565b855490915060009061115f9060019061189e565b90508181146111c457600086600001828154811061117f5761117f6116b6565b90600052602060002001549050808760000184815481106111a2576111a26116b6565b6000918252602080832090910192909255918252600188019052604090208390555b85548690806111d5576111d56118b5565b600190038181906000526020600020016000905590558560010160008681526020019081526020016000206000905560019350505050610424565b6000915050610424565b60006020828403121561122c57600080fd5b81356001600160e01b03198116811461075e57600080fd5b80356001600160a01b038116811461125b57600080fd5b919050565b60006020828403121561127257600080fd5b61075e82611244565b60006020828403121561128d57600080fd5b5035919050565b600080604083850312156112a757600080fd5b823591506112b760208401611244565b90509250929050565b6000806000606084860312156112d557600080fd5b6112de84611244565b92506112ec60208501611244565b9150604084013590509250925092565b600081518084526020808501945080840160005b8381101561132c57815187529582019590820190600101611310565b509495945050505050565b60408152600061134a60408301856112fc565b828103602084015261135c81856112fc565b95945050505050565b60005b83811015611380578181015183820152602001611368565b8381111561138f576000848401525b50505050565b60208152600082518060208401526113b4816040850160208701611365565b601f01601f19169190910160400192915050565b600080604083850312156113db57600080fd5b50508035926020909101359150565b600081518084526020808501945080840160005b8381101561132c5781516001600160a01b0316875295820195908201906001016113fe565b60208152600061075e60208301846113ea565b634e487b7160e01b600052604160045260246000fd5b600082601f83011261145d57600080fd5b8135602067ffffffffffffffff8083111561147a5761147a611436565b8260051b604051601f19603f8301168101818110848211171561149f5761149f611436565b6040529384528581018301938381019250878511156114bd57600080fd5b83870191505b848210156114e3576114d482611244565b835291830191908301906114c3565b979650505050505050565b6000806040838503121561150157600080fd5b823567ffffffffffffffff8082111561151957600080fd5b6115258683870161144c565b9350602085013591508082111561153b57600080fd5b506115488582860161144c565b9150509250929050565b634e487b7160e01b600052601160045260246000fd5b60008083128015600160ff1b85018412161561158657611586611552565b6001600160ff1b03840183138116156115a1576115a1611552565b50500390565b600181815b808511156115e25781600019048211156115c8576115c8611552565b808516156115d557918102915b93841c93908002906115ac565b509250929050565b6000826115f957506001610424565b8161160657506000610424565b816001811461161c576002811461162657611642565b6001915050610424565b60ff84111561163757611637611552565b50506001821b610424565b5060208310610133831016604e8410600b8410161715611665575081810a610424565b61166f83836115a7565b806000190482111561168357611683611552565b029392505050565b600061075e83836115ea565b60008160001904831182151516156116b1576116b1611552565b500290565b634e487b7160e01b600052603260045260246000fd5b805169ffffffffffffffffffff8116811461125b57600080fd5b600080600080600060a086880312156116fe57600080fd5b611707866116cc565b945060208601519350604086015192506060860151915061172a608087016116cc565b90509295509295909350565b600060001982141561174a5761174a611552565b5060010190565b60006020828403121561176357600080fd5b815160ff8116811461075e57600080fd5b600081810b607f1981141561178b5761178b611552565b60000392915050565b600081810b83820b8281128015607f198301841216156117b6576117b6611552565b81607f0183138116156117cb576117cb611552565b5090039392505050565b6040815260006117e860408301856113ea565b828103602084015261135c81856113ea565b7f416363657373436f6e74726f6c3a206163636f756e7420000000000000000000815260008351611832816017850160208801611365565b7001034b99036b4b9b9b4b733903937b6329607d1b6017918401918201528351611863816028840160208801611365565b01602801949350505050565b6000821982111561188257611882611552565b500190565b60008161189657611896611552565b506000190190565b6000828210156118b0576118b0611552565b500390565b634e487b7160e01b600052603160045260246000fdfea2646970667358221220a6290883b008d42d4b259a340562ed1d9593f3684e5ff08399450b1a6b5e4f6864736f6c63430008090033f23ec0bb4210edd5cba85afd05127efcd2fc6a781bfed49188da1081670b22d846a52cf33029de9f84853745a87af28464c80bf0346df1b32e205fc73319f622",
    "linkReferences": {}
  },
  "methodIdentifiers": {
    "ADMIN_DELEGATE_ROLE()": "0952ff54",
    "ADMIN_ROLE()": "75b238fc",
    "DEFAULT_ADMIN_ROLE()": "a217fddf",
    "OPERATOR()": "983d2737",
    "addChainlinkOracles(address[],address[])": "d892a360",
    "contractName()": "75d0c0dc",
    "contractNameBytes()": "0e3e80ac",
    "contractVersion()": "a0a8e460",
    "contractVersionBytes()": "06a46239",
    "decimalsIndex(address)": "1e64e43a",
    "getRoleAdmin(bytes32)": "248a9ca3",
    "getRoleMember(bytes32,uint256)": "9010d07c",
    "getRoleMemberCount(bytes32)": "ca15c873",
    "grantRole(bytes32,address)": "2f2ff15d",
    "hasOracle(address)": "180c9309",
    "hasRole(bytes32,address)": "91d14854",
    "isAdmin(address)": "24d7806c",
    "isOperator(address)": "6d70f7ae",
    "oraclesIndex(address)": "03d14012",
    "priceX96(address,address,uint256)": "6d80125b",
    "renounceRole(bytes32,address)": "36568abe",
    "revokeRole(bytes32,address)": "d547741f",
    "safetyIndex()": "e312650b",
    "supportedTokens()": "b002249d",
    "supportsInterface(bytes4)": "01ffc9a7"
  },
  "id": 382
}